{
  "abi": [
    {
      "inputs": [
        {
          "internalType": "address payable",
          "name": "_ec",
          "type": "address"
        },
        {
          "internalType": "contract IERC20",
          "name": "_ost",
          "type": "address"
        }
      ],
      "stateMutability": "nonpayable",
      "type": "constructor"
    },
    {
      "anonymous": false,
      "inputs": [
        {
          "indexed": true,
          "internalType": "address",
          "name": "previousOwner",
          "type": "address"
        },
        {
          "indexed": true,
          "internalType": "address",
          "name": "newOwner",
          "type": "address"
        }
      ],
      "name": "OwnershipTransferred",
      "type": "event"
    },
    {
      "inputs": [],
      "name": "ec",
      "outputs": [
        {
          "internalType": "address payable",
          "name": "",
          "type": "address"
        }
      ],
      "stateMutability": "view",
      "type": "function"
    },
    {
      "inputs": [
        {
          "internalType": "uint256",
          "name": "_amount",
          "type": "uint256"
        }
      ],
      "name": "oasisMint",
      "outputs": [],
      "stateMutability": "payable",
      "type": "function"
    },
    {
      "inputs": [
        {
          "internalType": "address",
          "name": "",
          "type": "address"
        },
        {
          "internalType": "address",
          "name": "",
          "type": "address"
        },
        {
          "internalType": "uint256",
          "name": "",
          "type": "uint256"
        },
        {
          "internalType": "bytes",
          "name": "",
          "type": "bytes"
        }
      ],
      "name": "onERC721Received",
      "outputs": [
        {
          "internalType": "bytes4",
          "name": "",
          "type": "bytes4"
        }
      ],
      "stateMutability": "view",
      "type": "function"
    },
    {
      "inputs": [],
      "name": "ost",
      "outputs": [
        {
          "internalType": "contract IERC20",
          "name": "",
          "type": "address"
        }
      ],
      "stateMutability": "view",
      "type": "function"
    },
    {
      "inputs": [],
      "name": "ostRewardPerMint",
      "outputs": [
        {
          "internalType": "uint256",
          "name": "",
          "type": "uint256"
        }
      ],
      "stateMutability": "view",
      "type": "function"
    },
    {
      "inputs": [],
      "name": "owner",
      "outputs": [
        {
          "internalType": "address",
          "name": "",
          "type": "address"
        }
      ],
      "stateMutability": "view",
      "type": "function"
    },
    {
      "inputs": [],
      "name": "renounceOwnership",
      "outputs": [],
      "stateMutability": "nonpayable",
      "type": "function"
    },
    {
      "inputs": [
        {
          "internalType": "uint256",
          "name": "_rewards",
          "type": "uint256"
        }
      ],
      "name": "setRewards",
      "outputs": [],
      "stateMutability": "nonpayable",
      "type": "function"
    },
    {
      "inputs": [
        {
          "internalType": "address",
          "name": "newOwner",
          "type": "address"
        }
      ],
      "name": "transferOwnership",
      "outputs": [],
      "stateMutability": "nonpayable",
      "type": "function"
    },
    {
      "inputs": [],
      "name": "withdrawOST",
      "outputs": [],
      "stateMutability": "nonpayable",
      "type": "function"
    }
  ],
  "devdoc": {
    "author": ". 0xFirekeeper",
    "kind": "dev",
    "methods": {
      "owner()": {
        "details": "Returns the address of the current owner."
      },
      "renounceOwnership()": {
        "details": "Leaves the contract without owner. It will not be possible to call `onlyOwner` functions anymore. Can only be called by the current owner. NOTE: Renouncing ownership will leave the contract without an owner, thereby removing any functionality that is only available to the owner."
      },
      "transferOwnership(address)": {
        "details": "Transfers ownership of the contract to a new account (`newOwner`). Can only be called by the current owner."
      }
    },
    "title": ". Oasis Mint",
    "version": 1
  },
  "evm": {
    "assembly": "    /* \"OasisMint.sol\":569:2966  contract OasisMint is ReentrancyGuard, Ownable, IERC721Receiver {... */\n  mstore(0x40, 0xc0)\n    /* \"OasisMint.sol\":943:966  50000000000000000000000 */\n  0x0a968163f0a57b400000\n    /* \"OasisMint.sol\":909:966  uint256 public ostRewardPerMint = 50000000000000000000000 */\n  0x02\n  sstore\n    /* \"OasisMint.sol\":1163:1258  constructor (address payable _ec, IERC20 _ost) {... */\n  callvalue\n  dup1\n  iszero\n  tag_1\n  jumpi\n  0x00\n  dup1\n  revert\ntag_1:\n  pop\n  mload(0x40)\n  sub(codesize, bytecodeSize)\n  dup1\n  bytecodeSize\n  dup4\n  codecopy\n  dup2\n  add\n  0x40\n  dup2\n  swap1\n  mstore\n  tag_2\n  swap2\n  tag_3\n  jump\t// in\ntag_2:\n    /* \"@openzeppelin/contracts/security/ReentrancyGuard.sol\":1701:1702   */\n  0x01\n    /* \"@openzeppelin/contracts/security/ReentrancyGuard.sol\":1806:1813   */\n  0x00\n    /* \"@openzeppelin/contracts/security/ReentrancyGuard.sol\":1806:1828   */\n  sstore\n    /* \"@openzeppelin/contracts/access/Ownable.sol\":936:968   */\n  tag_9\n    /* \"@openzeppelin/contracts/utils/Context.sol\":719:729   */\n  caller\n    /* \"@openzeppelin/contracts/access/Ownable.sol\":936:954   */\n  tag_12\n    /* \"@openzeppelin/contracts/access/Ownable.sol\":936:968   */\n  jump\t// in\ntag_9:\n  sub(shl(0xa0, 0x01), 0x01)\n    /* \"OasisMint.sol\":1221:1229  ec = _ec */\n  swap2\n  dup3\n  and\n  0x80\n  mstore\n    /* \"OasisMint.sol\":1240:1250  ost = _ost */\n  and\n  0xa0\n  mstore\n    /* \"OasisMint.sol\":569:2966  contract OasisMint is ReentrancyGuard, Ownable, IERC721Receiver {... */\n  jump(tag_18)\n    /* \"@openzeppelin/contracts/access/Ownable.sol\":2433:2620   */\ntag_12:\n    /* \"@openzeppelin/contracts/access/Ownable.sol\":2525:2531   */\n  0x01\n  dup1\n  sload\n  sub(shl(0xa0, 0x01), 0x01)\n    /* \"@openzeppelin/contracts/access/Ownable.sol\":2541:2558   */\n  dup4\n  dup2\n  and\n  not(sub(shl(0xa0, 0x01), 0x01))\n  dup4\n  and\n  dup2\n  or\n  swap1\n  swap4\n  sstore\n    /* \"@openzeppelin/contracts/access/Ownable.sol\":2573:2613   */\n  mload(0x40)\n    /* \"@openzeppelin/contracts/access/Ownable.sol\":2525:2531   */\n  swap2\n  and\n  swap2\n    /* \"@openzeppelin/contracts/access/Ownable.sol\":2541:2558   */\n  swap1\n    /* \"@openzeppelin/contracts/access/Ownable.sol\":2525:2531   */\n  dup3\n  swap1\n    /* \"@openzeppelin/contracts/access/Ownable.sol\":2573:2613   */\n  0x8be0079c531659141344cd1fd0a4f28419497f9722a3daafe3b4186f6b6457e0\n  swap1\n    /* \"@openzeppelin/contracts/access/Ownable.sol\":2506:2522   */\n  0x00\n  swap1\n    /* \"@openzeppelin/contracts/access/Ownable.sol\":2573:2613   */\n  log3\n    /* \"@openzeppelin/contracts/access/Ownable.sol\":2496:2620   */\n  pop\n    /* \"@openzeppelin/contracts/access/Ownable.sol\":2433:2620   */\n  pop\n  jump\t// out\n    /* \"#utility.yul\":14:153   */\ntag_17:\n  sub(shl(0xa0, 0x01), 0x01)\n    /* \"#utility.yul\":97:128   */\n  dup2\n  and\n    /* \"#utility.yul\":87:129   */\n  dup2\n  eq\n    /* \"#utility.yul\":77:147   */\n  tag_20\n  jumpi\n    /* \"#utility.yul\":143:144   */\n  0x00\n    /* \"#utility.yul\":140:141   */\n  dup1\n    /* \"#utility.yul\":133:145   */\n  revert\n    /* \"#utility.yul\":77:147   */\ntag_20:\n    /* \"#utility.yul\":14:153   */\n  pop\n  jump\t// out\n    /* \"#utility.yul\":158:582   */\ntag_3:\n    /* \"#utility.yul\":260:266   */\n  0x00\n    /* \"#utility.yul\":268:274   */\n  dup1\n    /* \"#utility.yul\":321:323   */\n  0x40\n    /* \"#utility.yul\":309:318   */\n  dup4\n    /* \"#utility.yul\":300:307   */\n  dup6\n    /* \"#utility.yul\":296:319   */\n  sub\n    /* \"#utility.yul\":292:324   */\n  slt\n    /* \"#utility.yul\":289:341   */\n  iszero\n  tag_22\n  jumpi\n    /* \"#utility.yul\":337:338   */\n  0x00\n    /* \"#utility.yul\":334:335   */\n  dup1\n    /* \"#utility.yul\":327:339   */\n  revert\n    /* \"#utility.yul\":289:341   */\ntag_22:\n    /* \"#utility.yul\":369:378   */\n  dup3\n    /* \"#utility.yul\":363:379   */\n  mload\n    /* \"#utility.yul\":388:427   */\n  tag_23\n    /* \"#utility.yul\":421:426   */\n  dup2\n    /* \"#utility.yul\":388:427   */\n  tag_17\n  jump\t// in\ntag_23:\n    /* \"#utility.yul\":496:498   */\n  0x20\n    /* \"#utility.yul\":481:499   */\n  dup5\n  add\n    /* \"#utility.yul\":475:500   */\n  mload\n    /* \"#utility.yul\":446:451   */\n  swap1\n  swap3\n  pop\n    /* \"#utility.yul\":509:550   */\n  tag_24\n    /* \"#utility.yul\":475:500   */\n  dup2\n    /* \"#utility.yul\":509:550   */\n  tag_17\n  jump\t// in\ntag_24:\n    /* \"#utility.yul\":569:576   */\n  dup1\n    /* \"#utility.yul\":559:576   */\n  swap2\n  pop\n  pop\n    /* \"#utility.yul\":158:582   */\n  swap3\n  pop\n  swap3\n  swap1\n  pop\n  jump\t// out\ntag_18:\n    /* \"OasisMint.sol\":569:2966  contract OasisMint is ReentrancyGuard, Ownable, IERC721Receiver {... */\n  mload(0x80)\n  mload(0xa0)\n  codecopy(0x00, dataOffset(sub_0), dataSize(sub_0))\n  0x00\n  assignImmutable(\"0xb0ddd3b0020c002cfd5902b57ebd7de9f7baa1bdcf3e24f436ef2156b1da1672\")\n  0x00\n  assignImmutable(\"0xda6cad8eb1b348127b76eaa49d7f60c19ff28aa4db4a0892a7331bbf10d019\")\n  return(0x00, dataSize(sub_0))\nstop\n\nsub_0: assembly {\n        /* \"OasisMint.sol\":569:2966  contract OasisMint is ReentrancyGuard, Ownable, IERC721Receiver {... */\n      mstore(0x40, 0x80)\n      jumpi(tag_1, lt(calldatasize, 0x04))\n      shr(0xe0, calldataload(0x00))\n      dup1\n      0xa756fdd0\n      gt\n      tag_12\n      jumpi\n      dup1\n      0xd678ca0c\n      gt\n      tag_13\n      jumpi\n      dup1\n      0xd678ca0c\n      eq\n      tag_9\n      jumpi\n      dup1\n      0xf2fde38b\n      eq\n      tag_10\n      jumpi\n      dup1\n      0xf83b5dce\n      eq\n      tag_11\n      jumpi\n      0x00\n      dup1\n      revert\n    tag_13:\n      dup1\n      0xa756fdd0\n      eq\n      tag_7\n      jumpi\n      dup1\n      0xc7a29c6f\n      eq\n      tag_8\n      jumpi\n      0x00\n      dup1\n      revert\n    tag_12:\n      dup1\n      0x711923cf\n      gt\n      tag_14\n      jumpi\n      dup1\n      0x711923cf\n      eq\n      tag_4\n      jumpi\n      dup1\n      0x715018a6\n      eq\n      tag_5\n      jumpi\n      dup1\n      0x8da5cb5b\n      eq\n      tag_6\n      jumpi\n      0x00\n      dup1\n      revert\n    tag_14:\n      dup1\n      0x150b7a02\n      eq\n      tag_2\n      jumpi\n      dup1\n      0x16e577ab\n      eq\n      tag_3\n      jumpi\n    tag_1:\n      0x00\n      dup1\n      revert\n        /* \"OasisMint.sol\":2683:2963  function onERC721Received(... */\n    tag_2:\n      callvalue\n      dup1\n      iszero\n      tag_15\n      jumpi\n      0x00\n      dup1\n      revert\n    tag_15:\n      pop\n      tag_16\n      tag_17\n      calldatasize\n      0x04\n      tag_18\n      jump\t// in\n    tag_17:\n      tag_19\n      jump\t// in\n    tag_16:\n      mload(0x40)\n        /* \"#utility.yul\":1202:1222   */\n      0xffffffff00000000000000000000000000000000000000000000000000000000\n        /* \"#utility.yul\":1190:1223   */\n      swap1\n      swap2\n      and\n        /* \"#utility.yul\":1172:1224   */\n      dup2\n      mstore\n        /* \"#utility.yul\":1160:1162   */\n      0x20\n        /* \"#utility.yul\":1145:1163   */\n      add\n        /* \"OasisMint.sol\":2683:2963  function onERC721Received(... */\n    tag_20:\n      mload(0x40)\n      dup1\n      swap2\n      sub\n      swap1\n      return\n        /* \"OasisMint.sol\":1457:2060  function oasisMint(uint256 _amount) external payable nonReentrant {... */\n    tag_3:\n      tag_22\n      tag_23\n      calldatasize\n      0x04\n      tag_24\n      jump\t// in\n    tag_23:\n      tag_25\n      jump\t// in\n    tag_22:\n      stop\n        /* \"OasisMint.sol\":909:966  uint256 public ostRewardPerMint = 50000000000000000000000 */\n    tag_4:\n      callvalue\n      dup1\n      iszero\n      tag_26\n      jumpi\n      0x00\n      dup1\n      revert\n    tag_26:\n      pop\n      tag_27\n      sload(0x02)\n      dup2\n      jump\n    tag_27:\n      mload(0x40)\n        /* \"#utility.yul\":1566:1591   */\n      swap1\n      dup2\n      mstore\n        /* \"#utility.yul\":1554:1556   */\n      0x20\n        /* \"#utility.yul\":1539:1557   */\n      add\n        /* \"OasisMint.sol\":909:966  uint256 public ostRewardPerMint = 50000000000000000000000 */\n      tag_20\n        /* \"#utility.yul\":1420:1597   */\n      jump\n        /* \"@openzeppelin/contracts/access/Ownable.sol\":1831:1932   */\n    tag_5:\n      callvalue\n      dup1\n      iszero\n      tag_31\n      jumpi\n      0x00\n      dup1\n      revert\n    tag_31:\n      pop\n      tag_22\n      tag_33\n      jump\t// in\n        /* \"@openzeppelin/contracts/access/Ownable.sol\":1201:1286   */\n    tag_6:\n      callvalue\n      dup1\n      iszero\n      tag_34\n      jumpi\n      0x00\n      dup1\n      revert\n    tag_34:\n      pop\n        /* \"@openzeppelin/contracts/access/Ownable.sol\":1273:1279   */\n      and(sub(shl(0xa0, 0x01), 0x01), sload(0x01))\n        /* \"@openzeppelin/contracts/access/Ownable.sol\":1201:1286   */\n    tag_35:\n      mload(0x40)\n      sub(shl(0xa0, 0x01), 0x01)\n        /* \"#utility.yul\":1766:1821   */\n      swap1\n      swap2\n      and\n        /* \"#utility.yul\":1748:1822   */\n      dup2\n      mstore\n        /* \"#utility.yul\":1736:1738   */\n      0x20\n        /* \"#utility.yul\":1721:1739   */\n      add\n        /* \"@openzeppelin/contracts/access/Ownable.sol\":1201:1286   */\n      tag_20\n        /* \"#utility.yul\":1602:1828   */\n      jump\n        /* \"OasisMint.sol\":875:902  IERC20 immutable public ost */\n    tag_7:\n      callvalue\n      dup1\n      iszero\n      tag_39\n      jumpi\n      0x00\n      dup1\n      revert\n    tag_39:\n      pop\n      tag_35\n      immutable(\"0xb0ddd3b0020c002cfd5902b57ebd7de9f7baa1bdcf3e24f436ef2156b1da1672\")\n      dup2\n      jump\n        /* \"OasisMint.sol\":2380:2483  function setRewards(uint256 _rewards) external onlyOwner {... */\n    tag_8:\n      callvalue\n      dup1\n      iszero\n      tag_44\n      jumpi\n      0x00\n      dup1\n      revert\n    tag_44:\n      pop\n      tag_22\n      tag_46\n      calldatasize\n      0x04\n      tag_24\n      jump\t// in\n    tag_46:\n      tag_47\n      jump\t// in\n        /* \"OasisMint.sol\":2260:2372  function withdrawOST() external onlyOwner {... */\n    tag_9:\n      callvalue\n      dup1\n      iszero\n      tag_48\n      jumpi\n      0x00\n      dup1\n      revert\n    tag_48:\n      pop\n      tag_22\n      tag_50\n      jump\t// in\n        /* \"@openzeppelin/contracts/access/Ownable.sol\":2081:2279   */\n    tag_10:\n      callvalue\n      dup1\n      iszero\n      tag_51\n      jumpi\n      0x00\n      dup1\n      revert\n    tag_51:\n      pop\n      tag_22\n      tag_53\n      calldatasize\n      0x04\n      tag_54\n      jump\t// in\n    tag_53:\n      tag_55\n      jump\t// in\n        /* \"OasisMint.sol\":833:868  address payable immutable public ec */\n    tag_11:\n      callvalue\n      dup1\n      iszero\n      tag_56\n      jumpi\n      0x00\n      dup1\n      revert\n    tag_56:\n      pop\n      tag_35\n      immutable(\"0xda6cad8eb1b348127b76eaa49d7f60c19ff28aa4db4a0892a7331bbf10d019\")\n      dup2\n      jump\n        /* \"OasisMint.sol\":2683:2963  function onERC721Received(... */\n    tag_19:\n        /* \"OasisMint.sol\":2825:2831  bytes4 */\n      0x00\n        /* \"OasisMint.sol\":2852:2854  ec */\n      immutable(\"0xda6cad8eb1b348127b76eaa49d7f60c19ff28aa4db4a0892a7331bbf10d019\")\n      sub(shl(0xa0, 0x01), 0x01)\n        /* \"OasisMint.sol\":2852:2870  ec == _msgSender() */\n      and\n        /* \"@openzeppelin/contracts/utils/Context.sol\":719:729   */\n      caller\n        /* \"OasisMint.sol\":2852:2870  ec == _msgSender() */\n      eq\n        /* \"OasisMint.sol\":2844:2905  require(ec == _msgSender(), \"Receives from EC Contract Only\") */\n      tag_64\n      jumpi\n      mload(0x40)\n      shl(0xe5, 0x461bcd)\n      dup2\n      mstore\n        /* \"#utility.yul\":2719:2721   */\n      0x20\n        /* \"OasisMint.sol\":2844:2905  require(ec == _msgSender(), \"Receives from EC Contract Only\") */\n      0x04\n      dup3\n      add\n        /* \"#utility.yul\":2701:2722   */\n      mstore\n        /* \"#utility.yul\":2758:2760   */\n      0x1e\n        /* \"#utility.yul\":2738:2756   */\n      0x24\n      dup3\n      add\n        /* \"#utility.yul\":2731:2761   */\n      mstore\n        /* \"#utility.yul\":2797:2829   */\n      0x52656365697665732066726f6d20454320436f6e7472616374204f6e6c790000\n        /* \"#utility.yul\":2777:2795   */\n      0x44\n      dup3\n      add\n        /* \"#utility.yul\":2770:2830   */\n      mstore\n        /* \"#utility.yul\":2847:2865   */\n      0x64\n      add\n        /* \"OasisMint.sol\":2844:2905  require(ec == _msgSender(), \"Receives from EC Contract Only\") */\n    tag_65:\n      mload(0x40)\n      dup1\n      swap2\n      sub\n      swap1\n      revert\n    tag_64:\n      pop\n      shl(0xe1, 0x0a85bd01)\n        /* \"OasisMint.sol\":2683:2963  function onERC721Received(... */\n      swap6\n      swap5\n      pop\n      pop\n      pop\n      pop\n      pop\n      jump\t// out\n        /* \"OasisMint.sol\":1457:2060  function oasisMint(uint256 _amount) external payable nonReentrant {... */\n    tag_25:\n        /* \"@openzeppelin/contracts/security/ReentrancyGuard.sol\":1744:1745   */\n      0x02\n        /* \"@openzeppelin/contracts/security/ReentrancyGuard.sol\":2325:2332   */\n      sload(0x00)\n        /* \"@openzeppelin/contracts/security/ReentrancyGuard.sol\":2325:2344   */\n      sub\n        /* \"@openzeppelin/contracts/security/ReentrancyGuard.sol\":2317:2380   */\n      tag_68\n      jumpi\n      mload(0x40)\n      shl(0xe5, 0x461bcd)\n      dup2\n      mstore\n        /* \"#utility.yul\":3078:3080   */\n      0x20\n        /* \"@openzeppelin/contracts/security/ReentrancyGuard.sol\":2317:2380   */\n      0x04\n      dup3\n      add\n        /* \"#utility.yul\":3060:3081   */\n      mstore\n        /* \"#utility.yul\":3117:3119   */\n      0x1f\n        /* \"#utility.yul\":3097:3115   */\n      0x24\n      dup3\n      add\n        /* \"#utility.yul\":3090:3120   */\n      mstore\n        /* \"#utility.yul\":3156:3189   */\n      0x5265656e7472616e637947756172643a207265656e7472616e742063616c6c00\n        /* \"#utility.yul\":3136:3154   */\n      0x44\n      dup3\n      add\n        /* \"#utility.yul\":3129:3190   */\n      mstore\n        /* \"#utility.yul\":3207:3225   */\n      0x64\n      add\n        /* \"@openzeppelin/contracts/security/ReentrancyGuard.sol\":2317:2380   */\n      tag_65\n        /* \"#utility.yul\":2876:3231   */\n      jump\n        /* \"@openzeppelin/contracts/security/ReentrancyGuard.sol\":2317:2380   */\n    tag_68:\n        /* \"@openzeppelin/contracts/security/ReentrancyGuard.sol\":1744:1745   */\n      0x02\n        /* \"@openzeppelin/contracts/security/ReentrancyGuard.sol\":2455:2462   */\n      0x00\n        /* \"@openzeppelin/contracts/security/ReentrancyGuard.sol\":2455:2473   */\n      dup2\n      swap1\n      sstore\n      pop\n        /* \"OasisMint.sol\":1569:1571  ec */\n      immutable(\"0xda6cad8eb1b348127b76eaa49d7f60c19ff28aa4db4a0892a7331bbf10d019\")\n      sub(shl(0xa0, 0x01), 0x01)\n        /* \"OasisMint.sol\":1555:1581  EvolvedCamels(ec).mintCost */\n      and\n      0xbdb4b848\n        /* \"OasisMint.sol\":1555:1583  EvolvedCamels(ec).mintCost() */\n      mload(0x40)\n      dup2\n      0xffffffff\n      and\n      0xe0\n      shl\n      dup2\n      mstore\n      0x04\n      add\n      0x20\n      mload(0x40)\n      dup1\n      dup4\n      sub\n      dup2\n      dup7\n      gas\n      staticcall\n      iszero\n      dup1\n      iszero\n      tag_73\n      jumpi\n      returndatasize\n      0x00\n      dup1\n      returndatacopy\n      revert(0x00, returndatasize)\n    tag_73:\n      pop\n      pop\n      pop\n      pop\n      mload(0x40)\n      returndatasize\n      not(0x1f)\n      0x1f\n      dup3\n      add\n      and\n      dup3\n      add\n      dup1\n      0x40\n      mstore\n      pop\n      dup2\n      add\n      swap1\n      tag_74\n      swap2\n      swap1\n      tag_75\n      jump\t// in\n    tag_74:\n        /* \"OasisMint.sol\":1542:1551  msg.value */\n      callvalue\n        /* \"OasisMint.sol\":1542:1583  msg.value == EvolvedCamels(ec).mintCost() */\n      eq\n        /* \"OasisMint.sol\":1534:1604  require(msg.value == EvolvedCamels(ec).mintCost(), \"Invalid ETH Sent\") */\n      tag_76\n      jumpi\n      mload(0x40)\n      shl(0xe5, 0x461bcd)\n      dup2\n      mstore\n        /* \"#utility.yul\":3627:3629   */\n      0x20\n        /* \"OasisMint.sol\":1534:1604  require(msg.value == EvolvedCamels(ec).mintCost(), \"Invalid ETH Sent\") */\n      0x04\n      dup3\n      add\n        /* \"#utility.yul\":3609:3630   */\n      mstore\n        /* \"#utility.yul\":3666:3668   */\n      0x10\n        /* \"#utility.yul\":3646:3664   */\n      0x24\n      dup3\n      add\n        /* \"#utility.yul\":3639:3669   */\n      mstore\n        /* \"#utility.yul\":3705:3723   */\n      0x496e76616c6964204554482053656e7400000000000000000000000000000000\n        /* \"#utility.yul\":3685:3703   */\n      0x44\n      dup3\n      add\n        /* \"#utility.yul\":3678:3724   */\n      mstore\n        /* \"#utility.yul\":3741:3759   */\n      0x64\n      add\n        /* \"OasisMint.sol\":1534:1604  require(msg.value == EvolvedCamels(ec).mintCost(), \"Invalid ETH Sent\") */\n      tag_65\n        /* \"#utility.yul\":3425:3765   */\n      jump\n        /* \"OasisMint.sol\":1534:1604  require(msg.value == EvolvedCamels(ec).mintCost(), \"Invalid ETH Sent\") */\n    tag_76:\n        /* \"OasisMint.sol\":1617:1634  uint256 ostReward */\n      0x00\n        /* \"OasisMint.sol\":1656:1663  _amount */\n      dup2\n        /* \"OasisMint.sol\":1637:1653  ostRewardPerMint */\n      sload(0x02)\n        /* \"OasisMint.sol\":1637:1663  ostRewardPerMint * _amount */\n      tag_79\n      swap2\n      swap1\n      tag_80\n      jump\t// in\n    tag_79:\n        /* \"OasisMint.sol\":1677:1705  ost.balanceOf(address(this)) */\n      mload(0x40)\n      shl(0xe0, 0x70a08231)\n      dup2\n      mstore\n        /* \"OasisMint.sol\":1699:1703  this */\n      address\n        /* \"OasisMint.sol\":1677:1705  ost.balanceOf(address(this)) */\n      0x04\n      dup3\n      add\n        /* \"#utility.yul\":1748:1822   */\n      mstore\n        /* \"OasisMint.sol\":1617:1663  uint256 ostReward = ostRewardPerMint * _amount */\n      swap1\n      swap2\n      pop\n      dup2\n      swap1\n      sub(shl(0xa0, 0x01), 0x01)\n        /* \"OasisMint.sol\":1677:1680  ost */\n      immutable(\"0xb0ddd3b0020c002cfd5902b57ebd7de9f7baa1bdcf3e24f436ef2156b1da1672\")\n        /* \"OasisMint.sol\":1677:1690  ost.balanceOf */\n      and\n      swap1\n      0x70a08231\n      swap1\n        /* \"#utility.yul\":1721:1739   */\n      0x24\n      add\n        /* \"OasisMint.sol\":1677:1705  ost.balanceOf(address(this)) */\n      0x20\n      mload(0x40)\n      dup1\n      dup4\n      sub\n      dup2\n      dup7\n      gas\n      staticcall\n      iszero\n      dup1\n      iszero\n      tag_83\n      jumpi\n      returndatasize\n      0x00\n      dup1\n      returndatacopy\n      revert(0x00, returndatasize)\n    tag_83:\n      pop\n      pop\n      pop\n      pop\n      mload(0x40)\n      returndatasize\n      not(0x1f)\n      0x1f\n      dup3\n      add\n      and\n      dup3\n      add\n      dup1\n      0x40\n      mstore\n      pop\n      dup2\n      add\n      swap1\n      tag_84\n      swap2\n      swap1\n      tag_75\n      jump\t// in\n    tag_84:\n        /* \"OasisMint.sol\":1677:1717  ost.balanceOf(address(this)) < ostReward */\n      lt\n        /* \"OasisMint.sol\":1674:1753  if(ost.balanceOf(address(this)) < ostReward) revert(\"Contract Balance Too Low\") */\n      iszero\n      tag_85\n      jumpi\n        /* \"OasisMint.sol\":1719:1753  revert(\"Contract Balance Too Low\") */\n      mload(0x40)\n      shl(0xe5, 0x461bcd)\n      dup2\n      mstore\n        /* \"#utility.yul\":4242:4244   */\n      0x20\n        /* \"OasisMint.sol\":1719:1753  revert(\"Contract Balance Too Low\") */\n      0x04\n      dup3\n      add\n        /* \"#utility.yul\":4224:4245   */\n      mstore\n        /* \"#utility.yul\":4281:4283   */\n      0x18\n        /* \"#utility.yul\":4261:4279   */\n      0x24\n      dup3\n      add\n        /* \"#utility.yul\":4254:4284   */\n      mstore\n        /* \"#utility.yul\":4320:4346   */\n      0x436f6e74726163742042616c616e636520546f6f204c6f770000000000000000\n        /* \"#utility.yul\":4300:4318   */\n      0x44\n      dup3\n      add\n        /* \"#utility.yul\":4293:4347   */\n      mstore\n        /* \"#utility.yul\":4364:4382   */\n      0x64\n      add\n        /* \"OasisMint.sol\":1719:1753  revert(\"Contract Balance Too Low\") */\n      tag_65\n        /* \"#utility.yul\":4040:4388   */\n      jump\n        /* \"OasisMint.sol\":1674:1753  if(ost.balanceOf(address(this)) < ostReward) revert(\"Contract Balance Too Low\") */\n    tag_85:\n        /* \"OasisMint.sol\":1766:1787  uint256 tokenIdToMint */\n      0x00\n        /* \"OasisMint.sol\":1804:1806  ec */\n      immutable(\"0xda6cad8eb1b348127b76eaa49d7f60c19ff28aa4db4a0892a7331bbf10d019\")\n      sub(shl(0xa0, 0x01), 0x01)\n        /* \"OasisMint.sol\":1790:1819  EvolvedCamels(ec).totalSupply */\n      and\n      0x18160ddd\n        /* \"OasisMint.sol\":1790:1821  EvolvedCamels(ec).totalSupply() */\n      mload(0x40)\n      dup2\n      0xffffffff\n      and\n      0xe0\n      shl\n      dup2\n      mstore\n      0x04\n      add\n      0x20\n      mload(0x40)\n      dup1\n      dup4\n      sub\n      dup2\n      dup7\n      gas\n      staticcall\n      iszero\n      dup1\n      iszero\n      tag_89\n      jumpi\n      returndatasize\n      0x00\n      dup1\n      returndatacopy\n      revert(0x00, returndatasize)\n    tag_89:\n      pop\n      pop\n      pop\n      pop\n      mload(0x40)\n      returndatasize\n      not(0x1f)\n      0x1f\n      dup3\n      add\n      and\n      dup3\n      add\n      dup1\n      0x40\n      mstore\n      pop\n      dup2\n      add\n      swap1\n      tag_90\n      swap2\n      swap1\n      tag_75\n      jump\t// in\n    tag_90:\n        /* \"OasisMint.sol\":1832:1891  EvolvedCamels(ec).publicSaleMint{value: msg.value}(_amount) */\n      mload(0x40)\n      shl(0xe4, 0x0b3ab66b)\n      dup2\n      mstore\n      0x04\n      dup2\n      add\n        /* \"#utility.yul\":1566:1591   */\n      dup6\n      swap1\n      mstore\n        /* \"OasisMint.sol\":1766:1821  uint256 tokenIdToMint = EvolvedCamels(ec).totalSupply() */\n      swap1\n      swap2\n      pop\n      sub(shl(0xa0, 0x01), 0x01)\n        /* \"OasisMint.sol\":1846:1848  ec */\n      immutable(\"0xda6cad8eb1b348127b76eaa49d7f60c19ff28aa4db4a0892a7331bbf10d019\")\n        /* \"OasisMint.sol\":1832:1864  EvolvedCamels(ec).publicSaleMint */\n      and\n      swap1\n      0xb3ab66b0\n      swap1\n        /* \"OasisMint.sol\":1872:1881  msg.value */\n      callvalue\n      swap1\n        /* \"#utility.yul\":1539:1557   */\n      0x24\n      add\n        /* \"OasisMint.sol\":1832:1891  EvolvedCamels(ec).publicSaleMint{value: msg.value}(_amount) */\n      0x00\n      mload(0x40)\n      dup1\n      dup4\n      sub\n      dup2\n      dup6\n      dup9\n      dup1\n      extcodesize\n      iszero\n      dup1\n      iszero\n      tag_92\n      jumpi\n      0x00\n      dup1\n      revert\n    tag_92:\n      pop\n      gas\n      call\n      iszero\n      dup1\n      iszero\n      tag_94\n      jumpi\n      returndatasize\n      0x00\n      dup1\n      returndatacopy\n      revert(0x00, returndatasize)\n    tag_94:\n      pop\n      pop\n        /* \"OasisMint.sol\":1902:1968  IERC721(ec).transferFrom(address(this), msg.sender, tokenIdToMint) */\n      mload(0x40)\n      shl(0xe0, 0x23b872dd)\n      dup2\n      mstore\n        /* \"OasisMint.sol\":1935:1939  this */\n      address\n        /* \"OasisMint.sol\":1902:1968  IERC721(ec).transferFrom(address(this), msg.sender, tokenIdToMint) */\n      0x04\n      dup3\n      add\n        /* \"#utility.yul\":4656:4690   */\n      mstore\n        /* \"OasisMint.sol\":1942:1952  msg.sender */\n      caller\n        /* \"#utility.yul\":4706:4724   */\n      0x24\n      dup3\n      add\n        /* \"#utility.yul\":4699:4742   */\n      mstore\n        /* \"#utility.yul\":4758:4776   */\n      0x44\n      dup2\n      add\n        /* \"#utility.yul\":4751:4785   */\n      dup6\n      swap1\n      mstore\n        /* \"OasisMint.sol\":1910:1912  ec */\n      immutable(\"0xda6cad8eb1b348127b76eaa49d7f60c19ff28aa4db4a0892a7331bbf10d019\")\n      sub(shl(0xa0, 0x01), 0x01)\n        /* \"OasisMint.sol\":1902:1926  IERC721(ec).transferFrom */\n      and\n      swap4\n      pop\n      0x23b872dd\n      swap3\n      pop\n        /* \"#utility.yul\":4568:4586   */\n      0x64\n      add\n      swap1\n      pop\n        /* \"OasisMint.sol\":1902:1968  IERC721(ec).transferFrom(address(this), msg.sender, tokenIdToMint) */\n      0x00\n      mload(0x40)\n      dup1\n      dup4\n      sub\n      dup2\n      0x00\n      dup8\n      dup1\n      extcodesize\n      iszero\n      dup1\n      iszero\n      tag_97\n      jumpi\n      0x00\n      dup1\n      revert\n    tag_97:\n      pop\n      gas\n      call\n      iszero\n      dup1\n      iszero\n      tag_99\n      jumpi\n      returndatasize\n      0x00\n      dup1\n      returndatacopy\n      revert(0x00, returndatasize)\n    tag_99:\n      pop\n      pop\n        /* \"OasisMint.sol\":1985:2020  ost.transfer(msg.sender, ostReward) */\n      mload(0x40)\n      shl(0xe0, 0xa9059cbb)\n      dup2\n      mstore\n        /* \"OasisMint.sol\":1998:2008  msg.sender */\n      caller\n        /* \"OasisMint.sol\":1985:2020  ost.transfer(msg.sender, ostReward) */\n      0x04\n      dup3\n      add\n        /* \"#utility.yul\":4970:5044   */\n      mstore\n        /* \"#utility.yul\":5060:5078   */\n      0x24\n      dup2\n      add\n        /* \"#utility.yul\":5053:5087   */\n      dup6\n      swap1\n      mstore\n        /* \"OasisMint.sol\":1985:1988  ost */\n      immutable(\"0xb0ddd3b0020c002cfd5902b57ebd7de9f7baa1bdcf3e24f436ef2156b1da1672\")\n      sub(shl(0xa0, 0x01), 0x01)\n        /* \"OasisMint.sol\":1985:1997  ost.transfer */\n      and\n      swap3\n      pop\n      0xa9059cbb\n      swap2\n      pop\n        /* \"#utility.yul\":4943:4961   */\n      0x44\n      add\n        /* \"OasisMint.sol\":1985:2020  ost.transfer(msg.sender, ostReward) */\n      0x20\n      mload(0x40)\n      dup1\n      dup4\n      sub\n      dup2\n      0x00\n      dup8\n      gas\n      call\n      iszero\n      dup1\n      iszero\n      tag_103\n      jumpi\n      returndatasize\n      0x00\n      dup1\n      returndatacopy\n      revert(0x00, returndatasize)\n    tag_103:\n      pop\n      pop\n      pop\n      pop\n      mload(0x40)\n      returndatasize\n      not(0x1f)\n      0x1f\n      dup3\n      add\n      and\n      dup3\n      add\n      dup1\n      0x40\n      mstore\n      pop\n      dup2\n      add\n      swap1\n      tag_104\n      swap2\n      swap1\n      tag_105\n      jump\t// in\n    tag_104:\n        /* \"OasisMint.sol\":1981:2052  if(!ost.transfer(msg.sender, ostReward)) revert (\"OST Transfer Failed\") */\n      tag_106\n      jumpi\n        /* \"OasisMint.sol\":2022:2052  revert (\"OST Transfer Failed\") */\n      mload(0x40)\n      shl(0xe5, 0x461bcd)\n      dup2\n      mstore\n        /* \"#utility.yul\":5582:5584   */\n      0x20\n        /* \"OasisMint.sol\":2022:2052  revert (\"OST Transfer Failed\") */\n      0x04\n      dup3\n      add\n        /* \"#utility.yul\":5564:5585   */\n      mstore\n        /* \"#utility.yul\":5621:5623   */\n      0x13\n        /* \"#utility.yul\":5601:5619   */\n      0x24\n      dup3\n      add\n        /* \"#utility.yul\":5594:5624   */\n      mstore\n        /* \"#utility.yul\":5660:5681   */\n      0x4f5354205472616e73666572204661696c656400000000000000000000000000\n        /* \"#utility.yul\":5640:5658   */\n      0x44\n      dup3\n      add\n        /* \"#utility.yul\":5633:5682   */\n      mstore\n        /* \"#utility.yul\":5699:5717   */\n      0x64\n      add\n        /* \"OasisMint.sol\":2022:2052  revert (\"OST Transfer Failed\") */\n      tag_65\n        /* \"#utility.yul\":5380:5723   */\n      jump\n        /* \"OasisMint.sol\":1981:2052  if(!ost.transfer(msg.sender, ostReward)) revert (\"OST Transfer Failed\") */\n    tag_106:\n      pop\n      pop\n        /* \"@openzeppelin/contracts/security/ReentrancyGuard.sol\":1701:1702   */\n      0x01\n        /* \"@openzeppelin/contracts/security/ReentrancyGuard.sol\":2628:2635   */\n      0x00\n        /* \"@openzeppelin/contracts/security/ReentrancyGuard.sol\":2628:2650   */\n      sstore\n      pop\n        /* \"OasisMint.sol\":1457:2060  function oasisMint(uint256 _amount) external payable nonReentrant {... */\n      jump\t// out\n        /* \"@openzeppelin/contracts/access/Ownable.sol\":1831:1932   */\n    tag_33:\n        /* \"@openzeppelin/contracts/access/Ownable.sol\":1094:1107   */\n      tag_110\n        /* \"@openzeppelin/contracts/access/Ownable.sol\":1094:1105   */\n      tag_111\n        /* \"@openzeppelin/contracts/access/Ownable.sol\":1094:1107   */\n      jump\t// in\n    tag_110:\n        /* \"@openzeppelin/contracts/access/Ownable.sol\":1895:1925   */\n      tag_113\n        /* \"@openzeppelin/contracts/access/Ownable.sol\":1922:1923   */\n      0x00\n        /* \"@openzeppelin/contracts/access/Ownable.sol\":1895:1913   */\n      tag_114\n        /* \"@openzeppelin/contracts/access/Ownable.sol\":1895:1925   */\n      jump\t// in\n    tag_113:\n        /* \"@openzeppelin/contracts/access/Ownable.sol\":1831:1932   */\n      jump\t// out\n        /* \"OasisMint.sol\":2380:2483  function setRewards(uint256 _rewards) external onlyOwner {... */\n    tag_47:\n        /* \"@openzeppelin/contracts/access/Ownable.sol\":1094:1107   */\n      tag_117\n        /* \"@openzeppelin/contracts/access/Ownable.sol\":1094:1105   */\n      tag_111\n        /* \"@openzeppelin/contracts/access/Ownable.sol\":1094:1107   */\n      jump\t// in\n    tag_117:\n        /* \"OasisMint.sol\":2448:2464  ostRewardPerMint */\n      0x02\n        /* \"OasisMint.sol\":2448:2475  ostRewardPerMint = _rewards */\n      sstore\n        /* \"OasisMint.sol\":2380:2483  function setRewards(uint256 _rewards) external onlyOwner {... */\n      jump\t// out\n        /* \"OasisMint.sol\":2260:2372  function withdrawOST() external onlyOwner {... */\n    tag_50:\n        /* \"@openzeppelin/contracts/access/Ownable.sol\":1094:1107   */\n      tag_120\n        /* \"@openzeppelin/contracts/access/Ownable.sol\":1094:1105   */\n      tag_111\n        /* \"@openzeppelin/contracts/access/Ownable.sol\":1094:1107   */\n      jump\t// in\n    tag_120:\n        /* \"OasisMint.sol\":2313:2316  ost */\n      immutable(\"0xb0ddd3b0020c002cfd5902b57ebd7de9f7baa1bdcf3e24f436ef2156b1da1672\")\n      sub(shl(0xa0, 0x01), 0x01)\n        /* \"OasisMint.sol\":2313:2325  ost.transfer */\n      and\n      0xa9059cbb\n        /* \"OasisMint.sol\":2326:2333  owner() */\n      tag_122\n        /* \"@openzeppelin/contracts/access/Ownable.sol\":1273:1279   */\n      and(sub(shl(0xa0, 0x01), 0x01), sload(0x01))\n      swap1\n        /* \"@openzeppelin/contracts/access/Ownable.sol\":1201:1286   */\n      jump\n        /* \"OasisMint.sol\":2326:2333  owner() */\n    tag_122:\n        /* \"OasisMint.sol\":2335:2363  ost.balanceOf(address(this)) */\n      mload(0x40)\n      shl(0xe0, 0x70a08231)\n      dup2\n      mstore\n        /* \"OasisMint.sol\":2357:2361  this */\n      address\n        /* \"OasisMint.sol\":2335:2363  ost.balanceOf(address(this)) */\n      0x04\n      dup3\n      add\n        /* \"#utility.yul\":1748:1822   */\n      mstore\n        /* \"OasisMint.sol\":2335:2338  ost */\n      immutable(\"0xb0ddd3b0020c002cfd5902b57ebd7de9f7baa1bdcf3e24f436ef2156b1da1672\")\n      sub(shl(0xa0, 0x01), 0x01)\n        /* \"OasisMint.sol\":2335:2348  ost.balanceOf */\n      and\n      swap1\n      0x70a08231\n      swap1\n        /* \"#utility.yul\":1721:1739   */\n      0x24\n      add\n        /* \"OasisMint.sol\":2335:2363  ost.balanceOf(address(this)) */\n      0x20\n      mload(0x40)\n      dup1\n      dup4\n      sub\n      dup2\n      dup7\n      gas\n      staticcall\n      iszero\n      dup1\n      iszero\n      tag_125\n      jumpi\n      returndatasize\n      0x00\n      dup1\n      returndatacopy\n      revert(0x00, returndatasize)\n    tag_125:\n      pop\n      pop\n      pop\n      pop\n      mload(0x40)\n      returndatasize\n      not(0x1f)\n      0x1f\n      dup3\n      add\n      and\n      dup3\n      add\n      dup1\n      0x40\n      mstore\n      pop\n      dup2\n      add\n      swap1\n      tag_126\n      swap2\n      swap1\n      tag_75\n      jump\t// in\n    tag_126:\n        /* \"OasisMint.sol\":2313:2364  ost.transfer(owner(), ost.balanceOf(address(this))) */\n      mload(0x40)\n      0xffffffff00000000000000000000000000000000000000000000000000000000\n      0xe0\n      dup6\n      swap1\n      shl\n      and\n      dup2\n      mstore\n      sub(shl(0xa0, 0x01), 0x01)\n        /* \"#utility.yul\":4988:5043   */\n      swap1\n      swap3\n      and\n        /* \"OasisMint.sol\":2313:2364  ost.transfer(owner(), ost.balanceOf(address(this))) */\n      0x04\n      dup4\n      add\n        /* \"#utility.yul\":4970:5044   */\n      mstore\n        /* \"#utility.yul\":5060:5078   */\n      0x24\n      dup3\n      add\n        /* \"#utility.yul\":5053:5087   */\n      mstore\n        /* \"#utility.yul\":4943:4961   */\n      0x44\n      add\n        /* \"OasisMint.sol\":2313:2364  ost.transfer(owner(), ost.balanceOf(address(this))) */\n      0x20\n      mload(0x40)\n      dup1\n      dup4\n      sub\n      dup2\n      0x00\n      dup8\n      gas\n      call\n      iszero\n      dup1\n      iszero\n      tag_129\n      jumpi\n      returndatasize\n      0x00\n      dup1\n      returndatacopy\n      revert(0x00, returndatasize)\n    tag_129:\n      pop\n      pop\n      pop\n      pop\n      mload(0x40)\n      returndatasize\n      not(0x1f)\n      0x1f\n      dup3\n      add\n      and\n      dup3\n      add\n      dup1\n      0x40\n      mstore\n      pop\n      dup2\n      add\n      swap1\n      tag_130\n      swap2\n      swap1\n      tag_105\n      jump\t// in\n    tag_130:\n      pop\n        /* \"OasisMint.sol\":2260:2372  function withdrawOST() external onlyOwner {... */\n      jump\t// out\n        /* \"@openzeppelin/contracts/access/Ownable.sol\":2081:2279   */\n    tag_55:\n        /* \"@openzeppelin/contracts/access/Ownable.sol\":1094:1107   */\n      tag_132\n        /* \"@openzeppelin/contracts/access/Ownable.sol\":1094:1105   */\n      tag_111\n        /* \"@openzeppelin/contracts/access/Ownable.sol\":1094:1107   */\n      jump\t// in\n    tag_132:\n      sub(shl(0xa0, 0x01), 0x01)\n        /* \"@openzeppelin/contracts/access/Ownable.sol\":2169:2191   */\n      dup2\n      and\n        /* \"@openzeppelin/contracts/access/Ownable.sol\":2161:2234   */\n      tag_134\n      jumpi\n      mload(0x40)\n      shl(0xe5, 0x461bcd)\n      dup2\n      mstore\n        /* \"#utility.yul\":5930:5932   */\n      0x20\n        /* \"@openzeppelin/contracts/access/Ownable.sol\":2161:2234   */\n      0x04\n      dup3\n      add\n        /* \"#utility.yul\":5912:5933   */\n      mstore\n        /* \"#utility.yul\":5969:5971   */\n      0x26\n        /* \"#utility.yul\":5949:5967   */\n      0x24\n      dup3\n      add\n        /* \"#utility.yul\":5942:5972   */\n      mstore\n        /* \"#utility.yul\":6008:6042   */\n      0x4f776e61626c653a206e6577206f776e657220697320746865207a65726f2061\n        /* \"#utility.yul\":5988:6006   */\n      0x44\n      dup3\n      add\n        /* \"#utility.yul\":5981:6043   */\n      mstore\n        /* \"#utility.yul\":6079:6087   */\n      0x6464726573730000000000000000000000000000000000000000000000000000\n        /* \"#utility.yul\":6059:6077   */\n      0x64\n      dup3\n      add\n        /* \"#utility.yul\":6052:6088   */\n      mstore\n        /* \"#utility.yul\":6105:6124   */\n      0x84\n      add\n        /* \"@openzeppelin/contracts/access/Ownable.sol\":2161:2234   */\n      tag_65\n        /* \"#utility.yul\":5728:6130   */\n      jump\n        /* \"@openzeppelin/contracts/access/Ownable.sol\":2161:2234   */\n    tag_134:\n        /* \"@openzeppelin/contracts/access/Ownable.sol\":2244:2272   */\n      tag_130\n        /* \"@openzeppelin/contracts/access/Ownable.sol\":2263:2271   */\n      dup2\n        /* \"@openzeppelin/contracts/access/Ownable.sol\":2244:2262   */\n      tag_114\n        /* \"@openzeppelin/contracts/access/Ownable.sol\":2244:2272   */\n      jump\t// in\n        /* \"@openzeppelin/contracts/access/Ownable.sol\":1359:1489   */\n    tag_111:\n        /* \"@openzeppelin/contracts/access/Ownable.sol\":1273:1279   */\n      and(sub(shl(0xa0, 0x01), 0x01), sload(0x01))\n        /* \"@openzeppelin/contracts/utils/Context.sol\":719:729   */\n      caller\n        /* \"@openzeppelin/contracts/access/Ownable.sol\":1422:1445   */\n      eq\n        /* \"@openzeppelin/contracts/access/Ownable.sol\":1414:1482   */\n      tag_113\n      jumpi\n      mload(0x40)\n      shl(0xe5, 0x461bcd)\n      dup2\n      mstore\n        /* \"#utility.yul\":6337:6339   */\n      0x20\n        /* \"@openzeppelin/contracts/access/Ownable.sol\":1414:1482   */\n      0x04\n      dup3\n      add\n        /* \"#utility.yul\":6319:6340   */\n      dup2\n      swap1\n      mstore\n        /* \"#utility.yul\":6356:6374   */\n      0x24\n      dup3\n      add\n        /* \"#utility.yul\":6349:6379   */\n      mstore\n        /* \"#utility.yul\":6415:6449   */\n      0x4f776e61626c653a2063616c6c6572206973206e6f7420746865206f776e6572\n        /* \"#utility.yul\":6395:6413   */\n      0x44\n      dup3\n      add\n        /* \"#utility.yul\":6388:6450   */\n      mstore\n        /* \"#utility.yul\":6467:6485   */\n      0x64\n      add\n        /* \"@openzeppelin/contracts/access/Ownable.sol\":1414:1482   */\n      tag_65\n        /* \"#utility.yul\":6135:6491   */\n      jump\n        /* \"@openzeppelin/contracts/access/Ownable.sol\":2433:2620   */\n    tag_114:\n        /* \"@openzeppelin/contracts/access/Ownable.sol\":2525:2531   */\n      0x01\n      dup1\n      sload\n      sub(shl(0xa0, 0x01), 0x01)\n        /* \"@openzeppelin/contracts/access/Ownable.sol\":2541:2558   */\n      dup4\n      dup2\n      and\n      0xffffffffffffffffffffffff0000000000000000000000000000000000000000\n      dup4\n      and\n      dup2\n      or\n      swap1\n      swap4\n      sstore\n        /* \"@openzeppelin/contracts/access/Ownable.sol\":2573:2613   */\n      mload(0x40)\n        /* \"@openzeppelin/contracts/access/Ownable.sol\":2525:2531   */\n      swap2\n      and\n      swap2\n        /* \"@openzeppelin/contracts/access/Ownable.sol\":2541:2558   */\n      swap1\n        /* \"@openzeppelin/contracts/access/Ownable.sol\":2525:2531   */\n      dup3\n      swap1\n        /* \"@openzeppelin/contracts/access/Ownable.sol\":2573:2613   */\n      0x8be0079c531659141344cd1fd0a4f28419497f9722a3daafe3b4186f6b6457e0\n      swap1\n        /* \"@openzeppelin/contracts/access/Ownable.sol\":2506:2522   */\n      0x00\n      swap1\n        /* \"@openzeppelin/contracts/access/Ownable.sol\":2573:2613   */\n      log3\n        /* \"@openzeppelin/contracts/access/Ownable.sol\":2496:2620   */\n      pop\n        /* \"@openzeppelin/contracts/access/Ownable.sol\":2433:2620   */\n      pop\n      jump\t// out\n        /* \"#utility.yul\":14:210   */\n    tag_146:\n        /* \"#utility.yul\":82:102   */\n      dup1\n      calldataload\n      sub(shl(0xa0, 0x01), 0x01)\n        /* \"#utility.yul\":131:185   */\n      dup2\n      and\n        /* \"#utility.yul\":121:186   */\n      dup2\n      eq\n        /* \"#utility.yul\":111:204   */\n      tag_149\n      jumpi\n        /* \"#utility.yul\":200:201   */\n      0x00\n        /* \"#utility.yul\":197:198   */\n      dup1\n        /* \"#utility.yul\":190:202   */\n      revert\n        /* \"#utility.yul\":111:204   */\n    tag_149:\n        /* \"#utility.yul\":14:210   */\n      swap2\n      swap1\n      pop\n      jump\t// out\n        /* \"#utility.yul\":215:1023   */\n    tag_18:\n        /* \"#utility.yul\":312:318   */\n      0x00\n        /* \"#utility.yul\":320:326   */\n      dup1\n        /* \"#utility.yul\":328:334   */\n      0x00\n        /* \"#utility.yul\":336:342   */\n      dup1\n        /* \"#utility.yul\":344:350   */\n      0x00\n        /* \"#utility.yul\":397:400   */\n      0x80\n        /* \"#utility.yul\":385:394   */\n      dup7\n        /* \"#utility.yul\":376:383   */\n      dup9\n        /* \"#utility.yul\":372:395   */\n      sub\n        /* \"#utility.yul\":368:401   */\n      slt\n        /* \"#utility.yul\":365:418   */\n      iszero\n      tag_151\n      jumpi\n        /* \"#utility.yul\":414:415   */\n      0x00\n        /* \"#utility.yul\":411:412   */\n      dup1\n        /* \"#utility.yul\":404:416   */\n      revert\n        /* \"#utility.yul\":365:418   */\n    tag_151:\n        /* \"#utility.yul\":437:466   */\n      tag_152\n        /* \"#utility.yul\":456:465   */\n      dup7\n        /* \"#utility.yul\":437:466   */\n      tag_146\n      jump\t// in\n    tag_152:\n        /* \"#utility.yul\":427:466   */\n      swap5\n      pop\n        /* \"#utility.yul\":485:523   */\n      tag_153\n        /* \"#utility.yul\":519:521   */\n      0x20\n        /* \"#utility.yul\":508:517   */\n      dup8\n        /* \"#utility.yul\":504:522   */\n      add\n        /* \"#utility.yul\":485:523   */\n      tag_146\n      jump\t// in\n    tag_153:\n        /* \"#utility.yul\":475:523   */\n      swap4\n      pop\n        /* \"#utility.yul\":570:572   */\n      0x40\n        /* \"#utility.yul\":559:568   */\n      dup7\n        /* \"#utility.yul\":555:573   */\n      add\n        /* \"#utility.yul\":542:574   */\n      calldataload\n        /* \"#utility.yul\":532:574   */\n      swap3\n      pop\n        /* \"#utility.yul\":625:627   */\n      0x60\n        /* \"#utility.yul\":614:623   */\n      dup7\n        /* \"#utility.yul\":610:628   */\n      add\n        /* \"#utility.yul\":597:629   */\n      calldataload\n        /* \"#utility.yul\":648:666   */\n      0xffffffffffffffff\n        /* \"#utility.yul\":689:691   */\n      dup1\n        /* \"#utility.yul\":681:687   */\n      dup3\n        /* \"#utility.yul\":678:692   */\n      gt\n        /* \"#utility.yul\":675:709   */\n      iszero\n      tag_154\n      jumpi\n        /* \"#utility.yul\":705:706   */\n      0x00\n        /* \"#utility.yul\":702:703   */\n      dup1\n        /* \"#utility.yul\":695:707   */\n      revert\n        /* \"#utility.yul\":675:709   */\n    tag_154:\n        /* \"#utility.yul\":743:749   */\n      dup2\n        /* \"#utility.yul\":732:741   */\n      dup9\n        /* \"#utility.yul\":728:750   */\n      add\n        /* \"#utility.yul\":718:750   */\n      swap2\n      pop\n        /* \"#utility.yul\":788:795   */\n      dup9\n        /* \"#utility.yul\":781:785   */\n      0x1f\n        /* \"#utility.yul\":777:779   */\n      dup4\n        /* \"#utility.yul\":773:786   */\n      add\n        /* \"#utility.yul\":769:796   */\n      slt\n        /* \"#utility.yul\":759:814   */\n      tag_155\n      jumpi\n        /* \"#utility.yul\":810:811   */\n      0x00\n        /* \"#utility.yul\":807:808   */\n      dup1\n        /* \"#utility.yul\":800:812   */\n      revert\n        /* \"#utility.yul\":759:814   */\n    tag_155:\n        /* \"#utility.yul\":850:852   */\n      dup2\n        /* \"#utility.yul\":837:853   */\n      calldataload\n        /* \"#utility.yul\":876:878   */\n      dup2\n        /* \"#utility.yul\":868:874   */\n      dup2\n        /* \"#utility.yul\":865:879   */\n      gt\n        /* \"#utility.yul\":862:896   */\n      iszero\n      tag_156\n      jumpi\n        /* \"#utility.yul\":892:893   */\n      0x00\n        /* \"#utility.yul\":889:890   */\n      dup1\n        /* \"#utility.yul\":882:894   */\n      revert\n        /* \"#utility.yul\":862:896   */\n    tag_156:\n        /* \"#utility.yul\":937:944   */\n      dup10\n        /* \"#utility.yul\":932:934   */\n      0x20\n        /* \"#utility.yul\":923:929   */\n      dup3\n        /* \"#utility.yul\":919:921   */\n      dup6\n        /* \"#utility.yul\":915:930   */\n      add\n        /* \"#utility.yul\":911:935   */\n      add\n        /* \"#utility.yul\":908:945   */\n      gt\n        /* \"#utility.yul\":905:962   */\n      iszero\n      tag_157\n      jumpi\n        /* \"#utility.yul\":958:959   */\n      0x00\n        /* \"#utility.yul\":955:956   */\n      dup1\n        /* \"#utility.yul\":948:960   */\n      revert\n        /* \"#utility.yul\":905:962   */\n    tag_157:\n        /* \"#utility.yul\":215:1023   */\n      swap7\n      swap10\n      swap6\n      swap9\n      pop\n      swap4\n      swap7\n      pop\n        /* \"#utility.yul\":989:991   */\n      0x20\n        /* \"#utility.yul\":981:992   */\n      add\n      swap5\n        /* \"#utility.yul\":1011:1017   */\n      swap4\n        /* \"#utility.yul\":215:1023   */\n      swap3\n      pop\n      pop\n      pop\n      jump\t// out\n        /* \"#utility.yul\":1235:1415   */\n    tag_24:\n        /* \"#utility.yul\":1294:1300   */\n      0x00\n        /* \"#utility.yul\":1347:1349   */\n      0x20\n        /* \"#utility.yul\":1335:1344   */\n      dup3\n        /* \"#utility.yul\":1326:1333   */\n      dup5\n        /* \"#utility.yul\":1322:1345   */\n      sub\n        /* \"#utility.yul\":1318:1350   */\n      slt\n        /* \"#utility.yul\":1315:1367   */\n      iszero\n      tag_160\n      jumpi\n        /* \"#utility.yul\":1363:1364   */\n      0x00\n        /* \"#utility.yul\":1360:1361   */\n      dup1\n        /* \"#utility.yul\":1353:1365   */\n      revert\n        /* \"#utility.yul\":1315:1367   */\n    tag_160:\n      pop\n        /* \"#utility.yul\":1386:1409   */\n      calldataload\n      swap2\n        /* \"#utility.yul\":1235:1415   */\n      swap1\n      pop\n      jump\t// out\n        /* \"#utility.yul\":2079:2265   */\n    tag_54:\n        /* \"#utility.yul\":2138:2144   */\n      0x00\n        /* \"#utility.yul\":2191:2193   */\n      0x20\n        /* \"#utility.yul\":2179:2188   */\n      dup3\n        /* \"#utility.yul\":2170:2177   */\n      dup5\n        /* \"#utility.yul\":2166:2189   */\n      sub\n        /* \"#utility.yul\":2162:2194   */\n      slt\n        /* \"#utility.yul\":2159:2211   */\n      iszero\n      tag_165\n      jumpi\n        /* \"#utility.yul\":2207:2208   */\n      0x00\n        /* \"#utility.yul\":2204:2205   */\n      dup1\n        /* \"#utility.yul\":2197:2209   */\n      revert\n        /* \"#utility.yul\":2159:2211   */\n    tag_165:\n        /* \"#utility.yul\":2230:2259   */\n      tag_166\n        /* \"#utility.yul\":2249:2258   */\n      dup3\n        /* \"#utility.yul\":2230:2259   */\n      tag_146\n      jump\t// in\n    tag_166:\n        /* \"#utility.yul\":2220:2259   */\n      swap4\n        /* \"#utility.yul\":2079:2265   */\n      swap3\n      pop\n      pop\n      pop\n      jump\t// out\n        /* \"#utility.yul\":3236:3420   */\n    tag_75:\n        /* \"#utility.yul\":3306:3312   */\n      0x00\n        /* \"#utility.yul\":3359:3361   */\n      0x20\n        /* \"#utility.yul\":3347:3356   */\n      dup3\n        /* \"#utility.yul\":3338:3345   */\n      dup5\n        /* \"#utility.yul\":3334:3357   */\n      sub\n        /* \"#utility.yul\":3330:3362   */\n      slt\n        /* \"#utility.yul\":3327:3379   */\n      iszero\n      tag_171\n      jumpi\n        /* \"#utility.yul\":3375:3376   */\n      0x00\n        /* \"#utility.yul\":3372:3373   */\n      dup1\n        /* \"#utility.yul\":3365:3377   */\n      revert\n        /* \"#utility.yul\":3327:3379   */\n    tag_171:\n      pop\n        /* \"#utility.yul\":3398:3414   */\n      mload\n      swap2\n        /* \"#utility.yul\":3236:3420   */\n      swap1\n      pop\n      jump\t// out\n        /* \"#utility.yul\":3770:4035   */\n    tag_80:\n        /* \"#utility.yul\":3810:3817   */\n      0x00\n        /* \"#utility.yul\":3876:3877   */\n      dup2\n        /* \"#utility.yul\":3872:3873   */\n      0x00\n        /* \"#utility.yul\":3868:3874   */\n      not\n        /* \"#utility.yul\":3864:3878   */\n      div\n        /* \"#utility.yul\":3861:3862   */\n      dup4\n        /* \"#utility.yul\":3858:3879   */\n      gt\n        /* \"#utility.yul\":3853:3854   */\n      dup3\n        /* \"#utility.yul\":3846:3855   */\n      iszero\n        /* \"#utility.yul\":3839:3856   */\n      iszero\n        /* \"#utility.yul\":3835:3880   */\n      and\n        /* \"#utility.yul\":3832:4000   */\n      iszero\n      tag_174\n      jumpi\n        /* \"#utility.yul\":3922:3932   */\n      0x4e487b71\n        /* \"#utility.yul\":3917:3920   */\n      0xe0\n        /* \"#utility.yul\":3913:3933   */\n      shl\n        /* \"#utility.yul\":3910:3911   */\n      0x00\n        /* \"#utility.yul\":3903:3934   */\n      mstore\n        /* \"#utility.yul\":3957:3961   */\n      0x11\n        /* \"#utility.yul\":3954:3955   */\n      0x04\n        /* \"#utility.yul\":3947:3962   */\n      mstore\n        /* \"#utility.yul\":3985:3989   */\n      0x24\n        /* \"#utility.yul\":3982:3983   */\n      0x00\n        /* \"#utility.yul\":3975:3990   */\n      revert\n        /* \"#utility.yul\":3832:4000   */\n    tag_174:\n      pop\n        /* \"#utility.yul\":4020:4029   */\n      mul\n      swap1\n        /* \"#utility.yul\":3770:4035   */\n      jump\t// out\n        /* \"#utility.yul\":5098:5375   */\n    tag_105:\n        /* \"#utility.yul\":5165:5171   */\n      0x00\n        /* \"#utility.yul\":5218:5220   */\n      0x20\n        /* \"#utility.yul\":5206:5215   */\n      dup3\n        /* \"#utility.yul\":5197:5204   */\n      dup5\n        /* \"#utility.yul\":5193:5216   */\n      sub\n        /* \"#utility.yul\":5189:5221   */\n      slt\n        /* \"#utility.yul\":5186:5238   */\n      iszero\n      tag_179\n      jumpi\n        /* \"#utility.yul\":5234:5235   */\n      0x00\n        /* \"#utility.yul\":5231:5232   */\n      dup1\n        /* \"#utility.yul\":5224:5236   */\n      revert\n        /* \"#utility.yul\":5186:5238   */\n    tag_179:\n        /* \"#utility.yul\":5266:5275   */\n      dup2\n        /* \"#utility.yul\":5260:5276   */\n      mload\n        /* \"#utility.yul\":5319:5324   */\n      dup1\n        /* \"#utility.yul\":5312:5325   */\n      iszero\n        /* \"#utility.yul\":5305:5326   */\n      iszero\n        /* \"#utility.yul\":5298:5303   */\n      dup2\n        /* \"#utility.yul\":5295:5327   */\n      eq\n        /* \"#utility.yul\":5285:5345   */\n      tag_166\n      jumpi\n        /* \"#utility.yul\":5341:5342   */\n      0x00\n        /* \"#utility.yul\":5338:5339   */\n      dup1\n        /* \"#utility.yul\":5331:5343   */\n      revert\n\n    auxdata: 0xa2646970667358221220949b41bf8a22eabb055f4aa7adf74c54b0e3c381daca7e9554bd9713e0619da364736f6c634300080d0033\n}\n",
    "bytecode": {
      "linkReferences": {},
      "object": "60c0604052690a968163f0a57b40000060025534801561001e57600080fd5b50604051610d27380380610d2783398101604081905261003d916100cc565b600160005561004b33610062565b6001600160a01b039182166080521660a052610106565b600180546001600160a01b038381166001600160a01b0319831681179093556040519116919082907f8be0079c531659141344cd1fd0a4f28419497f9722a3daafe3b4186f6b6457e090600090a35050565b6001600160a01b03811681146100c957600080fd5b50565b600080604083850312156100df57600080fd5b82516100ea816100b4565b60208401519092506100fb816100b4565b809150509250929050565b60805160a051610bbd61016a6000396000818161019e01528181610436015281816106930152818161078b01526107df0152600081816102270152818161024d01528181610336015281816104f30152818161059401526106110152610bbd6000f3fe6080604052600436106100b15760003560e01c8063a756fdd011610069578063d678ca0c1161004e578063d678ca0c146101e0578063f2fde38b146101f5578063f83b5dce1461021557600080fd5b8063a756fdd01461018c578063c7a29c6f146101c057600080fd5b8063711923cf1161009a578063711923cf14610121578063715018a6146101455780638da5cb5b1461015a57600080fd5b8063150b7a02146100b657806316e577ab1461010c575b600080fd5b3480156100c257600080fd5b506100d66100d1366004610a49565b610249565b6040517fffffffff0000000000000000000000000000000000000000000000000000000090911681526020015b60405180910390f35b61011f61011a366004610ae4565b6102da565b005b34801561012d57600080fd5b5061013760025481565b604051908152602001610103565b34801561015157600080fd5b5061011f610760565b34801561016657600080fd5b506001546001600160a01b03165b6040516001600160a01b039091168152602001610103565b34801561019857600080fd5b506101747f000000000000000000000000000000000000000000000000000000000000000081565b3480156101cc57600080fd5b5061011f6101db366004610ae4565b610774565b3480156101ec57600080fd5b5061011f610781565b34801561020157600080fd5b5061011f610210366004610afd565b6108dc565b34801561022157600080fd5b506101747f000000000000000000000000000000000000000000000000000000000000000081565b60007f00000000000000000000000000000000000000000000000000000000000000006001600160a01b031633146102c85760405162461bcd60e51b815260206004820152601e60248201527f52656365697665732066726f6d20454320436f6e7472616374204f6e6c79000060448201526064015b60405180910390fd5b50630a85bd0160e11b95945050505050565b60026000540361032c5760405162461bcd60e51b815260206004820152601f60248201527f5265656e7472616e637947756172643a207265656e7472616e742063616c6c0060448201526064016102bf565b60026000819055507f00000000000000000000000000000000000000000000000000000000000000006001600160a01b031663bdb4b8486040518163ffffffff1660e01b8152600401602060405180830381865afa158015610392573d6000803e3d6000fd5b505050506040513d601f19601f820116820180604052508101906103b69190610b1f565b34146104045760405162461bcd60e51b815260206004820152601060248201527f496e76616c6964204554482053656e740000000000000000000000000000000060448201526064016102bf565b6000816002546104149190610b38565b6040516370a0823160e01b815230600482015290915081906001600160a01b037f000000000000000000000000000000000000000000000000000000000000000016906370a0823190602401602060405180830381865afa15801561047d573d6000803e3d6000fd5b505050506040513d601f19601f820116820180604052508101906104a19190610b1f565b10156104ef5760405162461bcd60e51b815260206004820152601860248201527f436f6e74726163742042616c616e636520546f6f204c6f77000000000000000060448201526064016102bf565b60007f00000000000000000000000000000000000000000000000000000000000000006001600160a01b03166318160ddd6040518163ffffffff1660e01b8152600401602060405180830381865afa15801561054f573d6000803e3d6000fd5b505050506040513d601f19601f820116820180604052508101906105739190610b1f565b604051630b3ab66b60e41b8152600481018590529091506001600160a01b037f0000000000000000000000000000000000000000000000000000000000000000169063b3ab66b09034906024016000604051808303818588803b1580156105d957600080fd5b505af11580156105ed573d6000803e3d6000fd5b50506040516323b872dd60e01b8152306004820152336024820152604481018590527f00000000000000000000000000000000000000000000000000000000000000006001600160a01b031693506323b872dd92506064019050600060405180830381600087803b15801561066157600080fd5b505af1158015610675573d6000803e3d6000fd5b505060405163a9059cbb60e01b8152336004820152602481018590527f00000000000000000000000000000000000000000000000000000000000000006001600160a01b0316925063a9059cbb91506044016020604051808303816000875af11580156106e6573d6000803e3d6000fd5b505050506040513d601f19601f8201168201806040525081019061070a9190610b65565b6107565760405162461bcd60e51b815260206004820152601360248201527f4f5354205472616e73666572204661696c65640000000000000000000000000060448201526064016102bf565b5050600160005550565b610768610969565b61077260006109c3565b565b61077c610969565b600255565b610789610969565b7f00000000000000000000000000000000000000000000000000000000000000006001600160a01b031663a9059cbb6107ca6001546001600160a01b031690565b6040516370a0823160e01b81523060048201527f00000000000000000000000000000000000000000000000000000000000000006001600160a01b0316906370a0823190602401602060405180830381865afa15801561082e573d6000803e3d6000fd5b505050506040513d601f19601f820116820180604052508101906108529190610b1f565b6040517fffffffff0000000000000000000000000000000000000000000000000000000060e085901b1681526001600160a01b03909216600483015260248201526044016020604051808303816000875af11580156108b5573d6000803e3d6000fd5b505050506040513d601f19601f820116820180604052508101906108d99190610b65565b50565b6108e4610969565b6001600160a01b0381166109605760405162461bcd60e51b815260206004820152602660248201527f4f776e61626c653a206e6577206f776e657220697320746865207a65726f206160448201527f646472657373000000000000000000000000000000000000000000000000000060648201526084016102bf565b6108d9816109c3565b6001546001600160a01b031633146107725760405162461bcd60e51b815260206004820181905260248201527f4f776e61626c653a2063616c6c6572206973206e6f7420746865206f776e657260448201526064016102bf565b600180546001600160a01b038381167fffffffffffffffffffffffff0000000000000000000000000000000000000000831681179093556040519116919082907f8be0079c531659141344cd1fd0a4f28419497f9722a3daafe3b4186f6b6457e090600090a35050565b80356001600160a01b0381168114610a4457600080fd5b919050565b600080600080600060808688031215610a6157600080fd5b610a6a86610a2d565b9450610a7860208701610a2d565b935060408601359250606086013567ffffffffffffffff80821115610a9c57600080fd5b818801915088601f830112610ab057600080fd5b813581811115610abf57600080fd5b896020828501011115610ad157600080fd5b9699959850939650602001949392505050565b600060208284031215610af657600080fd5b5035919050565b600060208284031215610b0f57600080fd5b610b1882610a2d565b9392505050565b600060208284031215610b3157600080fd5b5051919050565b6000816000190483118215151615610b6057634e487b7160e01b600052601160045260246000fd5b500290565b600060208284031215610b7757600080fd5b81518015158114610b1857600080fdfea2646970667358221220949b41bf8a22eabb055f4aa7adf74c54b0e3c381daca7e9554bd9713e0619da364736f6c634300080d0033",
      "opcodes": "PUSH1 0xC0 PUSH1 0x40 MSTORE PUSH10 0xA968163F0A57B400000 PUSH1 0x2 SSTORE CALLVALUE DUP1 ISZERO PUSH2 0x1E JUMPI PUSH1 0x0 DUP1 REVERT JUMPDEST POP PUSH1 0x40 MLOAD PUSH2 0xD27 CODESIZE SUB DUP1 PUSH2 0xD27 DUP4 CODECOPY DUP2 ADD PUSH1 0x40 DUP2 SWAP1 MSTORE PUSH2 0x3D SWAP2 PUSH2 0xCC JUMP JUMPDEST PUSH1 0x1 PUSH1 0x0 SSTORE PUSH2 0x4B CALLER PUSH2 0x62 JUMP JUMPDEST PUSH1 0x1 PUSH1 0x1 PUSH1 0xA0 SHL SUB SWAP2 DUP3 AND PUSH1 0x80 MSTORE AND PUSH1 0xA0 MSTORE PUSH2 0x106 JUMP JUMPDEST PUSH1 0x1 DUP1 SLOAD PUSH1 0x1 PUSH1 0x1 PUSH1 0xA0 SHL SUB DUP4 DUP2 AND PUSH1 0x1 PUSH1 0x1 PUSH1 0xA0 SHL SUB NOT DUP4 AND DUP2 OR SWAP1 SWAP4 SSTORE PUSH1 0x40 MLOAD SWAP2 AND SWAP2 SWAP1 DUP3 SWAP1 PUSH32 0x8BE0079C531659141344CD1FD0A4F28419497F9722A3DAAFE3B4186F6B6457E0 SWAP1 PUSH1 0x0 SWAP1 LOG3 POP POP JUMP JUMPDEST PUSH1 0x1 PUSH1 0x1 PUSH1 0xA0 SHL SUB DUP2 AND DUP2 EQ PUSH2 0xC9 JUMPI PUSH1 0x0 DUP1 REVERT JUMPDEST POP JUMP JUMPDEST PUSH1 0x0 DUP1 PUSH1 0x40 DUP4 DUP6 SUB SLT ISZERO PUSH2 0xDF JUMPI PUSH1 0x0 DUP1 REVERT JUMPDEST DUP3 MLOAD PUSH2 0xEA DUP2 PUSH2 0xB4 JUMP JUMPDEST PUSH1 0x20 DUP5 ADD MLOAD SWAP1 SWAP3 POP PUSH2 0xFB DUP2 PUSH2 0xB4 JUMP JUMPDEST DUP1 SWAP2 POP POP SWAP3 POP SWAP3 SWAP1 POP JUMP JUMPDEST PUSH1 0x80 MLOAD PUSH1 0xA0 MLOAD PUSH2 0xBBD PUSH2 0x16A PUSH1 0x0 CODECOPY PUSH1 0x0 DUP2 DUP2 PUSH2 0x19E ADD MSTORE DUP2 DUP2 PUSH2 0x436 ADD MSTORE DUP2 DUP2 PUSH2 0x693 ADD MSTORE DUP2 DUP2 PUSH2 0x78B ADD MSTORE PUSH2 0x7DF ADD MSTORE PUSH1 0x0 DUP2 DUP2 PUSH2 0x227 ADD MSTORE DUP2 DUP2 PUSH2 0x24D ADD MSTORE DUP2 DUP2 PUSH2 0x336 ADD MSTORE DUP2 DUP2 PUSH2 0x4F3 ADD MSTORE DUP2 DUP2 PUSH2 0x594 ADD MSTORE PUSH2 0x611 ADD MSTORE PUSH2 0xBBD PUSH1 0x0 RETURN INVALID PUSH1 0x80 PUSH1 0x40 MSTORE PUSH1 0x4 CALLDATASIZE LT PUSH2 0xB1 JUMPI PUSH1 0x0 CALLDATALOAD PUSH1 0xE0 SHR DUP1 PUSH4 0xA756FDD0 GT PUSH2 0x69 JUMPI DUP1 PUSH4 0xD678CA0C GT PUSH2 0x4E JUMPI DUP1 PUSH4 0xD678CA0C EQ PUSH2 0x1E0 JUMPI DUP1 PUSH4 0xF2FDE38B EQ PUSH2 0x1F5 JUMPI DUP1 PUSH4 0xF83B5DCE EQ PUSH2 0x215 JUMPI PUSH1 0x0 DUP1 REVERT JUMPDEST DUP1 PUSH4 0xA756FDD0 EQ PUSH2 0x18C JUMPI DUP1 PUSH4 0xC7A29C6F EQ PUSH2 0x1C0 JUMPI PUSH1 0x0 DUP1 REVERT JUMPDEST DUP1 PUSH4 0x711923CF GT PUSH2 0x9A JUMPI DUP1 PUSH4 0x711923CF EQ PUSH2 0x121 JUMPI DUP1 PUSH4 0x715018A6 EQ PUSH2 0x145 JUMPI DUP1 PUSH4 0x8DA5CB5B EQ PUSH2 0x15A JUMPI PUSH1 0x0 DUP1 REVERT JUMPDEST DUP1 PUSH4 0x150B7A02 EQ PUSH2 0xB6 JUMPI DUP1 PUSH4 0x16E577AB EQ PUSH2 0x10C JUMPI JUMPDEST PUSH1 0x0 DUP1 REVERT JUMPDEST CALLVALUE DUP1 ISZERO PUSH2 0xC2 JUMPI PUSH1 0x0 DUP1 REVERT JUMPDEST POP PUSH2 0xD6 PUSH2 0xD1 CALLDATASIZE PUSH1 0x4 PUSH2 0xA49 JUMP JUMPDEST PUSH2 0x249 JUMP JUMPDEST PUSH1 0x40 MLOAD PUSH32 0xFFFFFFFF00000000000000000000000000000000000000000000000000000000 SWAP1 SWAP2 AND DUP2 MSTORE PUSH1 0x20 ADD JUMPDEST PUSH1 0x40 MLOAD DUP1 SWAP2 SUB SWAP1 RETURN JUMPDEST PUSH2 0x11F PUSH2 0x11A CALLDATASIZE PUSH1 0x4 PUSH2 0xAE4 JUMP JUMPDEST PUSH2 0x2DA JUMP JUMPDEST STOP JUMPDEST CALLVALUE DUP1 ISZERO PUSH2 0x12D JUMPI PUSH1 0x0 DUP1 REVERT JUMPDEST POP PUSH2 0x137 PUSH1 0x2 SLOAD DUP2 JUMP JUMPDEST PUSH1 0x40 MLOAD SWAP1 DUP2 MSTORE PUSH1 0x20 ADD PUSH2 0x103 JUMP JUMPDEST CALLVALUE DUP1 ISZERO PUSH2 0x151 JUMPI PUSH1 0x0 DUP1 REVERT JUMPDEST POP PUSH2 0x11F PUSH2 0x760 JUMP JUMPDEST CALLVALUE DUP1 ISZERO PUSH2 0x166 JUMPI PUSH1 0x0 DUP1 REVERT JUMPDEST POP PUSH1 0x1 SLOAD PUSH1 0x1 PUSH1 0x1 PUSH1 0xA0 SHL SUB AND JUMPDEST PUSH1 0x40 MLOAD PUSH1 0x1 PUSH1 0x1 PUSH1 0xA0 SHL SUB SWAP1 SWAP2 AND DUP2 MSTORE PUSH1 0x20 ADD PUSH2 0x103 JUMP JUMPDEST CALLVALUE DUP1 ISZERO PUSH2 0x198 JUMPI PUSH1 0x0 DUP1 REVERT JUMPDEST POP PUSH2 0x174 PUSH32 0x0 DUP2 JUMP JUMPDEST CALLVALUE DUP1 ISZERO PUSH2 0x1CC JUMPI PUSH1 0x0 DUP1 REVERT JUMPDEST POP PUSH2 0x11F PUSH2 0x1DB CALLDATASIZE PUSH1 0x4 PUSH2 0xAE4 JUMP JUMPDEST PUSH2 0x774 JUMP JUMPDEST CALLVALUE DUP1 ISZERO PUSH2 0x1EC JUMPI PUSH1 0x0 DUP1 REVERT JUMPDEST POP PUSH2 0x11F PUSH2 0x781 JUMP JUMPDEST CALLVALUE DUP1 ISZERO PUSH2 0x201 JUMPI PUSH1 0x0 DUP1 REVERT JUMPDEST POP PUSH2 0x11F PUSH2 0x210 CALLDATASIZE PUSH1 0x4 PUSH2 0xAFD JUMP JUMPDEST PUSH2 0x8DC JUMP JUMPDEST CALLVALUE DUP1 ISZERO PUSH2 0x221 JUMPI PUSH1 0x0 DUP1 REVERT JUMPDEST POP PUSH2 0x174 PUSH32 0x0 DUP2 JUMP JUMPDEST PUSH1 0x0 PUSH32 0x0 PUSH1 0x1 PUSH1 0x1 PUSH1 0xA0 SHL SUB AND CALLER EQ PUSH2 0x2C8 JUMPI PUSH1 0x40 MLOAD PUSH3 0x461BCD PUSH1 0xE5 SHL DUP2 MSTORE PUSH1 0x20 PUSH1 0x4 DUP3 ADD MSTORE PUSH1 0x1E PUSH1 0x24 DUP3 ADD MSTORE PUSH32 0x52656365697665732066726F6D20454320436F6E7472616374204F6E6C790000 PUSH1 0x44 DUP3 ADD MSTORE PUSH1 0x64 ADD JUMPDEST PUSH1 0x40 MLOAD DUP1 SWAP2 SUB SWAP1 REVERT JUMPDEST POP PUSH4 0xA85BD01 PUSH1 0xE1 SHL SWAP6 SWAP5 POP POP POP POP POP JUMP JUMPDEST PUSH1 0x2 PUSH1 0x0 SLOAD SUB PUSH2 0x32C JUMPI PUSH1 0x40 MLOAD PUSH3 0x461BCD PUSH1 0xE5 SHL DUP2 MSTORE PUSH1 0x20 PUSH1 0x4 DUP3 ADD MSTORE PUSH1 0x1F PUSH1 0x24 DUP3 ADD MSTORE PUSH32 0x5265656E7472616E637947756172643A207265656E7472616E742063616C6C00 PUSH1 0x44 DUP3 ADD MSTORE PUSH1 0x64 ADD PUSH2 0x2BF JUMP JUMPDEST PUSH1 0x2 PUSH1 0x0 DUP2 SWAP1 SSTORE POP PUSH32 0x0 PUSH1 0x1 PUSH1 0x1 PUSH1 0xA0 SHL SUB AND PUSH4 0xBDB4B848 PUSH1 0x40 MLOAD DUP2 PUSH4 0xFFFFFFFF AND PUSH1 0xE0 SHL DUP2 MSTORE PUSH1 0x4 ADD PUSH1 0x20 PUSH1 0x40 MLOAD DUP1 DUP4 SUB DUP2 DUP7 GAS STATICCALL ISZERO DUP1 ISZERO PUSH2 0x392 JUMPI RETURNDATASIZE PUSH1 0x0 DUP1 RETURNDATACOPY RETURNDATASIZE PUSH1 0x0 REVERT JUMPDEST POP POP POP POP PUSH1 0x40 MLOAD RETURNDATASIZE PUSH1 0x1F NOT PUSH1 0x1F DUP3 ADD AND DUP3 ADD DUP1 PUSH1 0x40 MSTORE POP DUP2 ADD SWAP1 PUSH2 0x3B6 SWAP2 SWAP1 PUSH2 0xB1F JUMP JUMPDEST CALLVALUE EQ PUSH2 0x404 JUMPI PUSH1 0x40 MLOAD PUSH3 0x461BCD PUSH1 0xE5 SHL DUP2 MSTORE PUSH1 0x20 PUSH1 0x4 DUP3 ADD MSTORE PUSH1 0x10 PUSH1 0x24 DUP3 ADD MSTORE PUSH32 0x496E76616C6964204554482053656E7400000000000000000000000000000000 PUSH1 0x44 DUP3 ADD MSTORE PUSH1 0x64 ADD PUSH2 0x2BF JUMP JUMPDEST PUSH1 0x0 DUP2 PUSH1 0x2 SLOAD PUSH2 0x414 SWAP2 SWAP1 PUSH2 0xB38 JUMP JUMPDEST PUSH1 0x40 MLOAD PUSH4 0x70A08231 PUSH1 0xE0 SHL DUP2 MSTORE ADDRESS PUSH1 0x4 DUP3 ADD MSTORE SWAP1 SWAP2 POP DUP2 SWAP1 PUSH1 0x1 PUSH1 0x1 PUSH1 0xA0 SHL SUB PUSH32 0x0 AND SWAP1 PUSH4 0x70A08231 SWAP1 PUSH1 0x24 ADD PUSH1 0x20 PUSH1 0x40 MLOAD DUP1 DUP4 SUB DUP2 DUP7 GAS STATICCALL ISZERO DUP1 ISZERO PUSH2 0x47D JUMPI RETURNDATASIZE PUSH1 0x0 DUP1 RETURNDATACOPY RETURNDATASIZE PUSH1 0x0 REVERT JUMPDEST POP POP POP POP PUSH1 0x40 MLOAD RETURNDATASIZE PUSH1 0x1F NOT PUSH1 0x1F DUP3 ADD AND DUP3 ADD DUP1 PUSH1 0x40 MSTORE POP DUP2 ADD SWAP1 PUSH2 0x4A1 SWAP2 SWAP1 PUSH2 0xB1F JUMP JUMPDEST LT ISZERO PUSH2 0x4EF JUMPI PUSH1 0x40 MLOAD PUSH3 0x461BCD PUSH1 0xE5 SHL DUP2 MSTORE PUSH1 0x20 PUSH1 0x4 DUP3 ADD MSTORE PUSH1 0x18 PUSH1 0x24 DUP3 ADD MSTORE PUSH32 0x436F6E74726163742042616C616E636520546F6F204C6F770000000000000000 PUSH1 0x44 DUP3 ADD MSTORE PUSH1 0x64 ADD PUSH2 0x2BF JUMP JUMPDEST PUSH1 0x0 PUSH32 0x0 PUSH1 0x1 PUSH1 0x1 PUSH1 0xA0 SHL SUB AND PUSH4 0x18160DDD PUSH1 0x40 MLOAD DUP2 PUSH4 0xFFFFFFFF AND PUSH1 0xE0 SHL DUP2 MSTORE PUSH1 0x4 ADD PUSH1 0x20 PUSH1 0x40 MLOAD DUP1 DUP4 SUB DUP2 DUP7 GAS STATICCALL ISZERO DUP1 ISZERO PUSH2 0x54F JUMPI RETURNDATASIZE PUSH1 0x0 DUP1 RETURNDATACOPY RETURNDATASIZE PUSH1 0x0 REVERT JUMPDEST POP POP POP POP PUSH1 0x40 MLOAD RETURNDATASIZE PUSH1 0x1F NOT PUSH1 0x1F DUP3 ADD AND DUP3 ADD DUP1 PUSH1 0x40 MSTORE POP DUP2 ADD SWAP1 PUSH2 0x573 SWAP2 SWAP1 PUSH2 0xB1F JUMP JUMPDEST PUSH1 0x40 MLOAD PUSH4 0xB3AB66B PUSH1 0xE4 SHL DUP2 MSTORE PUSH1 0x4 DUP2 ADD DUP6 SWAP1 MSTORE SWAP1 SWAP2 POP PUSH1 0x1 PUSH1 0x1 PUSH1 0xA0 SHL SUB PUSH32 0x0 AND SWAP1 PUSH4 0xB3AB66B0 SWAP1 CALLVALUE SWAP1 PUSH1 0x24 ADD PUSH1 0x0 PUSH1 0x40 MLOAD DUP1 DUP4 SUB DUP2 DUP6 DUP9 DUP1 EXTCODESIZE ISZERO DUP1 ISZERO PUSH2 0x5D9 JUMPI PUSH1 0x0 DUP1 REVERT JUMPDEST POP GAS CALL ISZERO DUP1 ISZERO PUSH2 0x5ED JUMPI RETURNDATASIZE PUSH1 0x0 DUP1 RETURNDATACOPY RETURNDATASIZE PUSH1 0x0 REVERT JUMPDEST POP POP PUSH1 0x40 MLOAD PUSH4 0x23B872DD PUSH1 0xE0 SHL DUP2 MSTORE ADDRESS PUSH1 0x4 DUP3 ADD MSTORE CALLER PUSH1 0x24 DUP3 ADD MSTORE PUSH1 0x44 DUP2 ADD DUP6 SWAP1 MSTORE PUSH32 0x0 PUSH1 0x1 PUSH1 0x1 PUSH1 0xA0 SHL SUB AND SWAP4 POP PUSH4 0x23B872DD SWAP3 POP PUSH1 0x64 ADD SWAP1 POP PUSH1 0x0 PUSH1 0x40 MLOAD DUP1 DUP4 SUB DUP2 PUSH1 0x0 DUP8 DUP1 EXTCODESIZE ISZERO DUP1 ISZERO PUSH2 0x661 JUMPI PUSH1 0x0 DUP1 REVERT JUMPDEST POP GAS CALL ISZERO DUP1 ISZERO PUSH2 0x675 JUMPI RETURNDATASIZE PUSH1 0x0 DUP1 RETURNDATACOPY RETURNDATASIZE PUSH1 0x0 REVERT JUMPDEST POP POP PUSH1 0x40 MLOAD PUSH4 0xA9059CBB PUSH1 0xE0 SHL DUP2 MSTORE CALLER PUSH1 0x4 DUP3 ADD MSTORE PUSH1 0x24 DUP2 ADD DUP6 SWAP1 MSTORE PUSH32 0x0 PUSH1 0x1 PUSH1 0x1 PUSH1 0xA0 SHL SUB AND SWAP3 POP PUSH4 0xA9059CBB SWAP2 POP PUSH1 0x44 ADD PUSH1 0x20 PUSH1 0x40 MLOAD DUP1 DUP4 SUB DUP2 PUSH1 0x0 DUP8 GAS CALL ISZERO DUP1 ISZERO PUSH2 0x6E6 JUMPI RETURNDATASIZE PUSH1 0x0 DUP1 RETURNDATACOPY RETURNDATASIZE PUSH1 0x0 REVERT JUMPDEST POP POP POP POP PUSH1 0x40 MLOAD RETURNDATASIZE PUSH1 0x1F NOT PUSH1 0x1F DUP3 ADD AND DUP3 ADD DUP1 PUSH1 0x40 MSTORE POP DUP2 ADD SWAP1 PUSH2 0x70A SWAP2 SWAP1 PUSH2 0xB65 JUMP JUMPDEST PUSH2 0x756 JUMPI PUSH1 0x40 MLOAD PUSH3 0x461BCD PUSH1 0xE5 SHL DUP2 MSTORE PUSH1 0x20 PUSH1 0x4 DUP3 ADD MSTORE PUSH1 0x13 PUSH1 0x24 DUP3 ADD MSTORE PUSH32 0x4F5354205472616E73666572204661696C656400000000000000000000000000 PUSH1 0x44 DUP3 ADD MSTORE PUSH1 0x64 ADD PUSH2 0x2BF JUMP JUMPDEST POP POP PUSH1 0x1 PUSH1 0x0 SSTORE POP JUMP JUMPDEST PUSH2 0x768 PUSH2 0x969 JUMP JUMPDEST PUSH2 0x772 PUSH1 0x0 PUSH2 0x9C3 JUMP JUMPDEST JUMP JUMPDEST PUSH2 0x77C PUSH2 0x969 JUMP JUMPDEST PUSH1 0x2 SSTORE JUMP JUMPDEST PUSH2 0x789 PUSH2 0x969 JUMP JUMPDEST PUSH32 0x0 PUSH1 0x1 PUSH1 0x1 PUSH1 0xA0 SHL SUB AND PUSH4 0xA9059CBB PUSH2 0x7CA PUSH1 0x1 SLOAD PUSH1 0x1 PUSH1 0x1 PUSH1 0xA0 SHL SUB AND SWAP1 JUMP JUMPDEST PUSH1 0x40 MLOAD PUSH4 0x70A08231 PUSH1 0xE0 SHL DUP2 MSTORE ADDRESS PUSH1 0x4 DUP3 ADD MSTORE PUSH32 0x0 PUSH1 0x1 PUSH1 0x1 PUSH1 0xA0 SHL SUB AND SWAP1 PUSH4 0x70A08231 SWAP1 PUSH1 0x24 ADD PUSH1 0x20 PUSH1 0x40 MLOAD DUP1 DUP4 SUB DUP2 DUP7 GAS STATICCALL ISZERO DUP1 ISZERO PUSH2 0x82E JUMPI RETURNDATASIZE PUSH1 0x0 DUP1 RETURNDATACOPY RETURNDATASIZE PUSH1 0x0 REVERT JUMPDEST POP POP POP POP PUSH1 0x40 MLOAD RETURNDATASIZE PUSH1 0x1F NOT PUSH1 0x1F DUP3 ADD AND DUP3 ADD DUP1 PUSH1 0x40 MSTORE POP DUP2 ADD SWAP1 PUSH2 0x852 SWAP2 SWAP1 PUSH2 0xB1F JUMP JUMPDEST PUSH1 0x40 MLOAD PUSH32 0xFFFFFFFF00000000000000000000000000000000000000000000000000000000 PUSH1 0xE0 DUP6 SWAP1 SHL AND DUP2 MSTORE PUSH1 0x1 PUSH1 0x1 PUSH1 0xA0 SHL SUB SWAP1 SWAP3 AND PUSH1 0x4 DUP4 ADD MSTORE PUSH1 0x24 DUP3 ADD MSTORE PUSH1 0x44 ADD PUSH1 0x20 PUSH1 0x40 MLOAD DUP1 DUP4 SUB DUP2 PUSH1 0x0 DUP8 GAS CALL ISZERO DUP1 ISZERO PUSH2 0x8B5 JUMPI RETURNDATASIZE PUSH1 0x0 DUP1 RETURNDATACOPY RETURNDATASIZE PUSH1 0x0 REVERT JUMPDEST POP POP POP POP PUSH1 0x40 MLOAD RETURNDATASIZE PUSH1 0x1F NOT PUSH1 0x1F DUP3 ADD AND DUP3 ADD DUP1 PUSH1 0x40 MSTORE POP DUP2 ADD SWAP1 PUSH2 0x8D9 SWAP2 SWAP1 PUSH2 0xB65 JUMP JUMPDEST POP JUMP JUMPDEST PUSH2 0x8E4 PUSH2 0x969 JUMP JUMPDEST PUSH1 0x1 PUSH1 0x1 PUSH1 0xA0 SHL SUB DUP2 AND PUSH2 0x960 JUMPI PUSH1 0x40 MLOAD PUSH3 0x461BCD PUSH1 0xE5 SHL DUP2 MSTORE PUSH1 0x20 PUSH1 0x4 DUP3 ADD MSTORE PUSH1 0x26 PUSH1 0x24 DUP3 ADD MSTORE PUSH32 0x4F776E61626C653A206E6577206F776E657220697320746865207A65726F2061 PUSH1 0x44 DUP3 ADD MSTORE PUSH32 0x6464726573730000000000000000000000000000000000000000000000000000 PUSH1 0x64 DUP3 ADD MSTORE PUSH1 0x84 ADD PUSH2 0x2BF JUMP JUMPDEST PUSH2 0x8D9 DUP2 PUSH2 0x9C3 JUMP JUMPDEST PUSH1 0x1 SLOAD PUSH1 0x1 PUSH1 0x1 PUSH1 0xA0 SHL SUB AND CALLER EQ PUSH2 0x772 JUMPI PUSH1 0x40 MLOAD PUSH3 0x461BCD PUSH1 0xE5 SHL DUP2 MSTORE PUSH1 0x20 PUSH1 0x4 DUP3 ADD DUP2 SWAP1 MSTORE PUSH1 0x24 DUP3 ADD MSTORE PUSH32 0x4F776E61626C653A2063616C6C6572206973206E6F7420746865206F776E6572 PUSH1 0x44 DUP3 ADD MSTORE PUSH1 0x64 ADD PUSH2 0x2BF JUMP JUMPDEST PUSH1 0x1 DUP1 SLOAD PUSH1 0x1 PUSH1 0x1 PUSH1 0xA0 SHL SUB DUP4 DUP2 AND PUSH32 0xFFFFFFFFFFFFFFFFFFFFFFFF0000000000000000000000000000000000000000 DUP4 AND DUP2 OR SWAP1 SWAP4 SSTORE PUSH1 0x40 MLOAD SWAP2 AND SWAP2 SWAP1 DUP3 SWAP1 PUSH32 0x8BE0079C531659141344CD1FD0A4F28419497F9722A3DAAFE3B4186F6B6457E0 SWAP1 PUSH1 0x0 SWAP1 LOG3 POP POP JUMP JUMPDEST DUP1 CALLDATALOAD PUSH1 0x1 PUSH1 0x1 PUSH1 0xA0 SHL SUB DUP2 AND DUP2 EQ PUSH2 0xA44 JUMPI PUSH1 0x0 DUP1 REVERT JUMPDEST SWAP2 SWAP1 POP JUMP JUMPDEST PUSH1 0x0 DUP1 PUSH1 0x0 DUP1 PUSH1 0x0 PUSH1 0x80 DUP7 DUP9 SUB SLT ISZERO PUSH2 0xA61 JUMPI PUSH1 0x0 DUP1 REVERT JUMPDEST PUSH2 0xA6A DUP7 PUSH2 0xA2D JUMP JUMPDEST SWAP5 POP PUSH2 0xA78 PUSH1 0x20 DUP8 ADD PUSH2 0xA2D JUMP JUMPDEST SWAP4 POP PUSH1 0x40 DUP7 ADD CALLDATALOAD SWAP3 POP PUSH1 0x60 DUP7 ADD CALLDATALOAD PUSH8 0xFFFFFFFFFFFFFFFF DUP1 DUP3 GT ISZERO PUSH2 0xA9C JUMPI PUSH1 0x0 DUP1 REVERT JUMPDEST DUP2 DUP9 ADD SWAP2 POP DUP9 PUSH1 0x1F DUP4 ADD SLT PUSH2 0xAB0 JUMPI PUSH1 0x0 DUP1 REVERT JUMPDEST DUP2 CALLDATALOAD DUP2 DUP2 GT ISZERO PUSH2 0xABF JUMPI PUSH1 0x0 DUP1 REVERT JUMPDEST DUP10 PUSH1 0x20 DUP3 DUP6 ADD ADD GT ISZERO PUSH2 0xAD1 JUMPI PUSH1 0x0 DUP1 REVERT JUMPDEST SWAP7 SWAP10 SWAP6 SWAP9 POP SWAP4 SWAP7 POP PUSH1 0x20 ADD SWAP5 SWAP4 SWAP3 POP POP POP JUMP JUMPDEST PUSH1 0x0 PUSH1 0x20 DUP3 DUP5 SUB SLT ISZERO PUSH2 0xAF6 JUMPI PUSH1 0x0 DUP1 REVERT JUMPDEST POP CALLDATALOAD SWAP2 SWAP1 POP JUMP JUMPDEST PUSH1 0x0 PUSH1 0x20 DUP3 DUP5 SUB SLT ISZERO PUSH2 0xB0F JUMPI PUSH1 0x0 DUP1 REVERT JUMPDEST PUSH2 0xB18 DUP3 PUSH2 0xA2D JUMP JUMPDEST SWAP4 SWAP3 POP POP POP JUMP JUMPDEST PUSH1 0x0 PUSH1 0x20 DUP3 DUP5 SUB SLT ISZERO PUSH2 0xB31 JUMPI PUSH1 0x0 DUP1 REVERT JUMPDEST POP MLOAD SWAP2 SWAP1 POP JUMP JUMPDEST PUSH1 0x0 DUP2 PUSH1 0x0 NOT DIV DUP4 GT DUP3 ISZERO ISZERO AND ISZERO PUSH2 0xB60 JUMPI PUSH4 0x4E487B71 PUSH1 0xE0 SHL PUSH1 0x0 MSTORE PUSH1 0x11 PUSH1 0x4 MSTORE PUSH1 0x24 PUSH1 0x0 REVERT JUMPDEST POP MUL SWAP1 JUMP JUMPDEST PUSH1 0x0 PUSH1 0x20 DUP3 DUP5 SUB SLT ISZERO PUSH2 0xB77 JUMPI PUSH1 0x0 DUP1 REVERT JUMPDEST DUP2 MLOAD DUP1 ISZERO ISZERO DUP2 EQ PUSH2 0xB18 JUMPI PUSH1 0x0 DUP1 REVERT INVALID LOG2 PUSH5 0x6970667358 0x22 SLT KECCAK256 SWAP5 SWAP12 COINBASE 0xBF DUP11 0x22 0xEA 0xBB SDIV 0x5F 0x4A 0xA7 0xAD 0xF7 0x4C SLOAD 0xB0 0xE3 0xC3 DUP2 0xDA 0xCA PUSH31 0x9554BD9713E0619DA364736F6C634300080D00330000000000000000000000 "
    },
    "gasEstimates": {
      "creation": {
        "codeDepositCost": "601000",
        "executionCost": "infinite",
        "totalCost": "infinite"
      },
      "external": {
        "ec()": "infinite",
        "oasisMint(uint256)": "infinite",
        "onERC721Received(address,address,uint256,bytes)": "infinite",
        "ost()": "infinite",
        "ostRewardPerMint()": "2318",
        "owner()": "2387",
        "renounceOwnership()": "infinite",
        "setRewards(uint256)": "24533",
        "transferOwnership(address)": "28365",
        "withdrawOST()": "infinite"
      }
    },
    "methodIdentifiers": {
      "ec()": "f83b5dce",
      "oasisMint(uint256)": "16e577ab",
      "onERC721Received(address,address,uint256,bytes)": "150b7a02",
      "ost()": "a756fdd0",
      "ostRewardPerMint()": "711923cf",
      "owner()": "8da5cb5b",
      "renounceOwnership()": "715018a6",
      "setRewards(uint256)": "c7a29c6f",
      "transferOwnership(address)": "f2fde38b",
      "withdrawOST()": "d678ca0c"
    }
  },
  "storageLayout": {
    "storage": [
      {
        "astId": 7672,
        "contract": "OasisMint.sol:OasisMint",
        "label": "_status",
        "offset": 0,
        "slot": "0",
        "type": "t_uint256"
      },
      {
        "astId": 6132,
        "contract": "OasisMint.sol:OasisMint",
        "label": "_owner",
        "offset": 0,
        "slot": "1",
        "type": "t_address"
      },
      {
        "astId": 4457,
        "contract": "OasisMint.sol:OasisMint",
        "label": "ostRewardPerMint",
        "offset": 0,
        "slot": "2",
        "type": "t_uint256"
      }
    ],
    "types": {
      "t_address": {
        "encoding": "inplace",
        "label": "address",
        "numberOfBytes": "20"
      },
      "t_uint256": {
        "encoding": "inplace",
        "label": "uint256",
        "numberOfBytes": "32"
      }
    }
  },
  "userdoc": {
    "kind": "user",
    "methods": {},
    "notice": ". Mints x amount of Evolved Camels and rewards minters with extra $OST!",
    "version": 1
  }
}