{
  "abi": [
    {
      "inputs": [],
      "stateMutability": "nonpayable",
      "type": "constructor"
    },
    {
      "anonymous": false,
      "inputs": [
        {
          "indexed": true,
          "internalType": "address",
          "name": "owner",
          "type": "address"
        },
        {
          "indexed": true,
          "internalType": "address",
          "name": "approved",
          "type": "address"
        },
        {
          "indexed": true,
          "internalType": "uint256",
          "name": "tokenId",
          "type": "uint256"
        }
      ],
      "name": "Approval",
      "type": "event"
    },
    {
      "anonymous": false,
      "inputs": [
        {
          "indexed": true,
          "internalType": "address",
          "name": "owner",
          "type": "address"
        },
        {
          "indexed": true,
          "internalType": "address",
          "name": "operator",
          "type": "address"
        },
        {
          "indexed": false,
          "internalType": "bool",
          "name": "approved",
          "type": "bool"
        }
      ],
      "name": "ApprovalForAll",
      "type": "event"
    },
    {
      "anonymous": false,
      "inputs": [
        {
          "indexed": true,
          "internalType": "address",
          "name": "previousOwner",
          "type": "address"
        },
        {
          "indexed": true,
          "internalType": "address",
          "name": "newOwner",
          "type": "address"
        }
      ],
      "name": "OwnershipTransferred",
      "type": "event"
    },
    {
      "anonymous": false,
      "inputs": [
        {
          "indexed": true,
          "internalType": "address",
          "name": "from",
          "type": "address"
        },
        {
          "indexed": true,
          "internalType": "address",
          "name": "to",
          "type": "address"
        },
        {
          "indexed": true,
          "internalType": "uint256",
          "name": "tokenId",
          "type": "uint256"
        }
      ],
      "name": "Transfer",
      "type": "event"
    },
    {
      "stateMutability": "payable",
      "type": "fallback"
    },
    {
      "inputs": [
        {
          "internalType": "address",
          "name": "account",
          "type": "address"
        }
      ],
      "name": "OGMintsLeft",
      "outputs": [
        {
          "internalType": "uint256",
          "name": "",
          "type": "uint256"
        }
      ],
      "stateMutability": "view",
      "type": "function"
    },
    {
      "inputs": [
        {
          "internalType": "uint256",
          "name": "number",
          "type": "uint256"
        }
      ],
      "name": "OGSaleMint",
      "outputs": [],
      "stateMutability": "nonpayable",
      "type": "function"
    },
    {
      "inputs": [],
      "name": "accountBalance",
      "outputs": [
        {
          "internalType": "uint256",
          "name": "",
          "type": "uint256"
        }
      ],
      "stateMutability": "view",
      "type": "function"
    },
    {
      "inputs": [
        {
          "internalType": "uint256",
          "name": "number",
          "type": "uint256"
        }
      ],
      "name": "addTokens",
      "outputs": [],
      "stateMutability": "nonpayable",
      "type": "function"
    },
    {
      "inputs": [
        {
          "internalType": "address",
          "name": "to",
          "type": "address"
        },
        {
          "internalType": "uint256",
          "name": "tokenId",
          "type": "uint256"
        }
      ],
      "name": "approve",
      "outputs": [],
      "stateMutability": "nonpayable",
      "type": "function"
    },
    {
      "inputs": [
        {
          "internalType": "address",
          "name": "owner",
          "type": "address"
        }
      ],
      "name": "balanceOf",
      "outputs": [
        {
          "internalType": "uint256",
          "name": "",
          "type": "uint256"
        }
      ],
      "stateMutability": "view",
      "type": "function"
    },
    {
      "inputs": [
        {
          "internalType": "address",
          "name": "account",
          "type": "address"
        }
      ],
      "name": "balanceOfCrazyCamels",
      "outputs": [
        {
          "internalType": "uint256",
          "name": "",
          "type": "uint256"
        }
      ],
      "stateMutability": "view",
      "type": "function"
    },
    {
      "inputs": [
        {
          "internalType": "string",
          "name": "baseURI_",
          "type": "string"
        }
      ],
      "name": "changeBaseURI",
      "outputs": [],
      "stateMutability": "nonpayable",
      "type": "function"
    },
    {
      "inputs": [
        {
          "internalType": "address",
          "name": "newCrazyCamels",
          "type": "address"
        }
      ],
      "name": "changeCrazyCamels",
      "outputs": [],
      "stateMutability": "nonpayable",
      "type": "function"
    },
    {
      "inputs": [
        {
          "internalType": "address",
          "name": "_dummy",
          "type": "address"
        }
      ],
      "name": "changeDummy",
      "outputs": [],
      "stateMutability": "nonpayable",
      "type": "function"
    },
    {
      "inputs": [
        {
          "internalType": "uint256",
          "name": "newMax",
          "type": "uint256"
        }
      ],
      "name": "changeMaxMint",
      "outputs": [],
      "stateMutability": "nonpayable",
      "type": "function"
    },
    {
      "inputs": [
        {
          "internalType": "uint256",
          "name": "newCost",
          "type": "uint256"
        }
      ],
      "name": "changeMintCost",
      "outputs": [],
      "stateMutability": "nonpayable",
      "type": "function"
    },
    {
      "inputs": [
        {
          "internalType": "string",
          "name": "unrevealedURI_",
          "type": "string"
        }
      ],
      "name": "changeUnrevealedURI",
      "outputs": [],
      "stateMutability": "nonpayable",
      "type": "function"
    },
    {
      "inputs": [
        {
          "internalType": "uint256",
          "name": "tokenId",
          "type": "uint256"
        }
      ],
      "name": "getApproved",
      "outputs": [
        {
          "internalType": "address",
          "name": "",
          "type": "address"
        }
      ],
      "stateMutability": "view",
      "type": "function"
    },
    {
      "inputs": [
        {
          "internalType": "address",
          "name": "owner",
          "type": "address"
        },
        {
          "internalType": "address",
          "name": "operator",
          "type": "address"
        }
      ],
      "name": "isApprovedForAll",
      "outputs": [
        {
          "internalType": "bool",
          "name": "",
          "type": "bool"
        }
      ],
      "stateMutability": "view",
      "type": "function"
    },
    {
      "inputs": [],
      "name": "isOGPaused",
      "outputs": [
        {
          "internalType": "bool",
          "name": "",
          "type": "bool"
        }
      ],
      "stateMutability": "view",
      "type": "function"
    },
    {
      "inputs": [],
      "name": "isPaused",
      "outputs": [
        {
          "internalType": "bool",
          "name": "",
          "type": "bool"
        }
      ],
      "stateMutability": "view",
      "type": "function"
    },
    {
      "inputs": [
        {
          "internalType": "address",
          "name": "_add",
          "type": "address"
        },
        {
          "internalType": "uint8",
          "name": "_v",
          "type": "uint8"
        },
        {
          "internalType": "bytes32",
          "name": "_r",
          "type": "bytes32"
        },
        {
          "internalType": "bytes32",
          "name": "_s",
          "type": "bytes32"
        }
      ],
      "name": "isValidAccessMessage",
      "outputs": [
        {
          "internalType": "bool",
          "name": "",
          "type": "bool"
        }
      ],
      "stateMutability": "view",
      "type": "function"
    },
    {
      "inputs": [],
      "name": "maxMintPresale",
      "outputs": [
        {
          "internalType": "uint256",
          "name": "",
          "type": "uint256"
        }
      ],
      "stateMutability": "view",
      "type": "function"
    },
    {
      "inputs": [],
      "name": "maxMintPublicSale",
      "outputs": [
        {
          "internalType": "uint256",
          "name": "",
          "type": "uint256"
        }
      ],
      "stateMutability": "view",
      "type": "function"
    },
    {
      "inputs": [],
      "name": "maxTotalTokens",
      "outputs": [
        {
          "internalType": "uint256",
          "name": "",
          "type": "uint256"
        }
      ],
      "stateMutability": "view",
      "type": "function"
    },
    {
      "inputs": [],
      "name": "mintCost",
      "outputs": [
        {
          "internalType": "uint256",
          "name": "",
          "type": "uint256"
        }
      ],
      "stateMutability": "view",
      "type": "function"
    },
    {
      "inputs": [
        {
          "internalType": "address",
          "name": "",
          "type": "address"
        }
      ],
      "name": "mintsPerAddress",
      "outputs": [
        {
          "internalType": "uint256",
          "name": "",
          "type": "uint256"
        }
      ],
      "stateMutability": "view",
      "type": "function"
    },
    {
      "inputs": [],
      "name": "name",
      "outputs": [
        {
          "internalType": "string",
          "name": "",
          "type": "string"
        }
      ],
      "stateMutability": "view",
      "type": "function"
    },
    {
      "inputs": [],
      "name": "owner",
      "outputs": [
        {
          "internalType": "address",
          "name": "",
          "type": "address"
        }
      ],
      "stateMutability": "view",
      "type": "function"
    },
    {
      "inputs": [
        {
          "internalType": "uint256",
          "name": "tokenId",
          "type": "uint256"
        }
      ],
      "name": "ownerOf",
      "outputs": [
        {
          "internalType": "address",
          "name": "",
          "type": "address"
        }
      ],
      "stateMutability": "view",
      "type": "function"
    },
    {
      "inputs": [
        {
          "internalType": "uint256",
          "name": "number",
          "type": "uint256"
        },
        {
          "internalType": "uint8",
          "name": "_v",
          "type": "uint8"
        },
        {
          "internalType": "bytes32",
          "name": "_r",
          "type": "bytes32"
        },
        {
          "internalType": "bytes32",
          "name": "_s",
          "type": "bytes32"
        }
      ],
      "name": "presaleMint",
      "outputs": [],
      "stateMutability": "payable",
      "type": "function"
    },
    {
      "inputs": [
        {
          "internalType": "uint256",
          "name": "number",
          "type": "uint256"
        }
      ],
      "name": "publicSaleMint",
      "outputs": [],
      "stateMutability": "payable",
      "type": "function"
    },
    {
      "inputs": [],
      "name": "renounceOwnership",
      "outputs": [],
      "stateMutability": "nonpayable",
      "type": "function"
    },
    {
      "inputs": [
        {
          "internalType": "uint256",
          "name": "number",
          "type": "uint256"
        },
        {
          "internalType": "address",
          "name": "recipient",
          "type": "address"
        }
      ],
      "name": "reservedMint",
      "outputs": [],
      "stateMutability": "nonpayable",
      "type": "function"
    },
    {
      "inputs": [],
      "name": "reservedMintsLeft",
      "outputs": [
        {
          "internalType": "uint256",
          "name": "",
          "type": "uint256"
        }
      ],
      "stateMutability": "view",
      "type": "function"
    },
    {
      "inputs": [],
      "name": "reveal",
      "outputs": [],
      "stateMutability": "nonpayable",
      "type": "function"
    },
    {
      "inputs": [
        {
          "internalType": "address",
          "name": "from",
          "type": "address"
        },
        {
          "internalType": "address",
          "name": "to",
          "type": "address"
        },
        {
          "internalType": "uint256",
          "name": "tokenId",
          "type": "uint256"
        }
      ],
      "name": "safeTransferFrom",
      "outputs": [],
      "stateMutability": "nonpayable",
      "type": "function"
    },
    {
      "inputs": [
        {
          "internalType": "address",
          "name": "from",
          "type": "address"
        },
        {
          "internalType": "address",
          "name": "to",
          "type": "address"
        },
        {
          "internalType": "uint256",
          "name": "tokenId",
          "type": "uint256"
        },
        {
          "internalType": "bytes",
          "name": "_data",
          "type": "bytes"
        }
      ],
      "name": "safeTransferFrom",
      "outputs": [],
      "stateMutability": "nonpayable",
      "type": "function"
    },
    {
      "inputs": [],
      "name": "saleState",
      "outputs": [
        {
          "internalType": "enum EvolvedCamels.State",
          "name": "",
          "type": "uint8"
        }
      ],
      "stateMutability": "view",
      "type": "function"
    },
    {
      "inputs": [
        {
          "internalType": "address",
          "name": "operator",
          "type": "address"
        },
        {
          "internalType": "bool",
          "name": "approved",
          "type": "bool"
        }
      ],
      "name": "setApprovalForAll",
      "outputs": [],
      "stateMutability": "nonpayable",
      "type": "function"
    },
    {
      "inputs": [
        {
          "internalType": "bytes4",
          "name": "interfaceId",
          "type": "bytes4"
        }
      ],
      "name": "supportsInterface",
      "outputs": [
        {
          "internalType": "bool",
          "name": "",
          "type": "bool"
        }
      ],
      "stateMutability": "view",
      "type": "function"
    },
    {
      "inputs": [],
      "name": "switchToPresale",
      "outputs": [],
      "stateMutability": "nonpayable",
      "type": "function"
    },
    {
      "inputs": [],
      "name": "switchToPublicSale",
      "outputs": [],
      "stateMutability": "nonpayable",
      "type": "function"
    },
    {
      "inputs": [],
      "name": "symbol",
      "outputs": [
        {
          "internalType": "string",
          "name": "",
          "type": "string"
        }
      ],
      "stateMutability": "view",
      "type": "function"
    },
    {
      "inputs": [],
      "name": "timeOfReveal",
      "outputs": [
        {
          "internalType": "uint256",
          "name": "",
          "type": "uint256"
        }
      ],
      "stateMutability": "view",
      "type": "function"
    },
    {
      "inputs": [],
      "name": "toggleOGPause",
      "outputs": [],
      "stateMutability": "nonpayable",
      "type": "function"
    },
    {
      "inputs": [],
      "name": "togglePause",
      "outputs": [],
      "stateMutability": "nonpayable",
      "type": "function"
    },
    {
      "inputs": [
        {
          "internalType": "uint256",
          "name": "index",
          "type": "uint256"
        }
      ],
      "name": "tokenByIndex",
      "outputs": [
        {
          "internalType": "uint256",
          "name": "",
          "type": "uint256"
        }
      ],
      "stateMutability": "view",
      "type": "function"
    },
    {
      "inputs": [
        {
          "internalType": "address",
          "name": "owner",
          "type": "address"
        },
        {
          "internalType": "uint256",
          "name": "index",
          "type": "uint256"
        }
      ],
      "name": "tokenOfOwnerByIndex",
      "outputs": [
        {
          "internalType": "uint256",
          "name": "",
          "type": "uint256"
        }
      ],
      "stateMutability": "view",
      "type": "function"
    },
    {
      "inputs": [
        {
          "internalType": "uint256",
          "name": "tokenId_",
          "type": "uint256"
        }
      ],
      "name": "tokenURI",
      "outputs": [
        {
          "internalType": "string",
          "name": "",
          "type": "string"
        }
      ],
      "stateMutability": "view",
      "type": "function"
    },
    {
      "inputs": [],
      "name": "totalSupply",
      "outputs": [
        {
          "internalType": "uint256",
          "name": "",
          "type": "uint256"
        }
      ],
      "stateMutability": "view",
      "type": "function"
    },
    {
      "inputs": [
        {
          "internalType": "address",
          "name": "from",
          "type": "address"
        },
        {
          "internalType": "address",
          "name": "to",
          "type": "address"
        },
        {
          "internalType": "uint256",
          "name": "tokenId",
          "type": "uint256"
        }
      ],
      "name": "transferFrom",
      "outputs": [],
      "stateMutability": "nonpayable",
      "type": "function"
    },
    {
      "inputs": [
        {
          "internalType": "address",
          "name": "newOwner",
          "type": "address"
        }
      ],
      "name": "transferOwnership",
      "outputs": [],
      "stateMutability": "nonpayable",
      "type": "function"
    },
    {
      "inputs": [],
      "name": "unrevealedURI",
      "outputs": [
        {
          "internalType": "string",
          "name": "",
          "type": "string"
        }
      ],
      "stateMutability": "view",
      "type": "function"
    },
    {
      "inputs": [],
      "name": "withdraw",
      "outputs": [],
      "stateMutability": "nonpayable",
      "type": "function"
    },
    {
      "stateMutability": "payable",
      "type": "receive"
    }
  ],
  "devdoc": {
    "kind": "dev",
    "methods": {
      "approve(address,uint256)": {
        "details": "See {IERC721-approve}."
      },
      "balanceOf(address)": {
        "details": "See {IERC721-balanceOf}."
      },
      "getApproved(uint256)": {
        "details": "See {IERC721-getApproved}."
      },
      "isApprovedForAll(address,address)": {
        "details": "See {IERC721-isApprovedForAll}."
      },
      "name()": {
        "details": "See {IERC721Metadata-name}."
      },
      "owner()": {
        "details": "Returns the address of the current owner."
      },
      "ownerOf(uint256)": {
        "details": "See {IERC721-ownerOf}."
      },
      "renounceOwnership()": {
        "details": "Leaves the contract without owner. It will not be possible to call `onlyOwner` functions anymore. Can only be called by the current owner. NOTE: Renouncing ownership will leave the contract without an owner, thereby removing any functionality that is only available to the owner."
      },
      "safeTransferFrom(address,address,uint256)": {
        "details": "See {IERC721-safeTransferFrom}."
      },
      "safeTransferFrom(address,address,uint256,bytes)": {
        "details": "See {IERC721-safeTransferFrom}."
      },
      "setApprovalForAll(address,bool)": {
        "details": "See {IERC721-setApprovalForAll}."
      },
      "supportsInterface(bytes4)": {
        "details": "See {IERC165-supportsInterface}."
      },
      "symbol()": {
        "details": "See {IERC721Metadata-symbol}."
      },
      "tokenByIndex(uint256)": {
        "details": "See {IERC721Enumerable-tokenByIndex}."
      },
      "tokenOfOwnerByIndex(address,uint256)": {
        "details": "See {IERC721Enumerable-tokenOfOwnerByIndex}. This read function is O(totalSupply). If calling from a separate contract, be sure to test gas first. It may also degrade with extremely large collection sizes (e.g >> 10000), test for your use case."
      },
      "totalSupply()": {
        "details": "See {IERC721Enumerable-totalSupply}."
      },
      "transferFrom(address,address,uint256)": {
        "details": "See {IERC721-transferFrom}."
      },
      "transferOwnership(address)": {
        "details": "Transfers ownership of the contract to a new account (`newOwner`). Can only be called by the current owner."
      }
    },
    "version": 1
  },
  "evm": {
    "assembly": "    /* \"EvolvedCamels.sol\":55020:66175  contract EvolvedCamels is ERC721A, Ownable {... */\n  mstore(0x40, 0x80)\n    /* \"EvolvedCamels.sol\":55420:55430  0.06 ether */\n  0xd529ae9e860000\n    /* \"EvolvedCamels.sol\":55389:55430  uint private mintCostPresale = 0.06 ether */\n  0x0a\n  sstore\n    /* \"EvolvedCamels.sol\":55471:55481  0.08 ether */\n  0x011c37937e080000\n    /* \"EvolvedCamels.sol\":55437:55481  uint private mintCostPublicSale = 0.08 ether */\n  0x0b\n  sstore\n    /* \"EvolvedCamels.sol\":55576:55577  2 */\n  0x02\n    /* \"EvolvedCamels.sol\":55544:55577  uint256 public maxMintPresale = 2 */\n  0x0c\n  sstore\n    /* \"EvolvedCamels.sol\":55619:55620  3 */\n  0x03\n    /* \"EvolvedCamels.sol\":55584:55620  uint256 public maxMintPublicSale = 3 */\n  0x0d\n  sstore\n    /* \"EvolvedCamels.sol\":55878:55881  222 */\n  0xde\n    /* \"EvolvedCamels.sol\":55846:55881  uint private maxReservedMints = 222 */\n  0x0f\n  sstore\n    /* \"EvolvedCamels.sol\":55981:56047  address private dummy = 0x80E4929c869102140E69550BBECC20bEd61B080c */\n  0x10\n  dup1\n  sload\n  not(sub(shl(0xa0, 0x01), 0x01))\n  and\n    /* \"EvolvedCamels.sol\":56005:56047  0x80E4929c869102140E69550BBECC20bEd61B080c */\n  0x80e4929c869102140e69550bbecc20bed61b080c\n    /* \"EvolvedCamels.sol\":55981:56047  address private dummy = 0x80E4929c869102140E69550BBECC20bEd61B080c */\n  or\n  swap1\n  sstore\n    /* \"EvolvedCamels.sol\":56820:57072  constructor() ERC721A('Evolved Camels', 'EC') {... */\n  callvalue\n  dup1\n  iszero\n  tag_1\n  jumpi\n  0x00\n  dup1\n  revert\ntag_1:\n  pop\n    /* \"EvolvedCamels.sol\":39838:39954  constructor(string memory name_, string memory symbol_) {... */\n  0x40\n  dup1\n  mload\n  dup1\n  dup3\n  add\n  dup3\n  mstore\n  0x0e\n  dup2\n  mstore\n  shl(0x90, 0x45766f6c7665642043616d656c73)\n  0x20\n  dup1\n  dup4\n  add\n  swap2\n  dup3\n  mstore\n  dup4\n  mload\n  dup1\n  dup6\n  add\n  swap1\n  swap5\n  mstore\n  0x02\n  dup5\n  mstore\n  shl(0xf0, 0x4543)\n  swap1\n  dup5\n  add\n  mstore\n    /* \"EvolvedCamels.sol\":39905:39918  _name = name_ */\n  dup2\n  mload\n    /* \"EvolvedCamels.sol\":39838:39954  constructor(string memory name_, string memory symbol_) {... */\n  swap2\n  swap3\n  swap2\n    /* \"EvolvedCamels.sol\":39905:39918  _name = name_ */\n  tag_6\n  swap2\n    /* \"EvolvedCamels.sol\":39905:39910  _name */\n  0x01\n  swap2\n    /* \"EvolvedCamels.sol\":39905:39918  _name = name_ */\n  tag_7\n  jump\t// in\ntag_6:\n  pop\n    /* \"EvolvedCamels.sol\":39929:39946  _symbol = symbol_ */\n  dup1\n  mload\n  tag_8\n  swap1\n    /* \"EvolvedCamels.sol\":39929:39936  _symbol */\n  0x02\n  swap1\n    /* \"EvolvedCamels.sol\":39929:39946  _symbol = symbol_ */\n  0x20\n  dup5\n  add\n  swap1\n  tag_7\n  jump\t// in\ntag_8:\n  pop\n    /* \"EvolvedCamels.sol\":39838:39954  constructor(string memory name_, string memory symbol_) {... */\n  pop\n  pop\n    /* \"EvolvedCamels.sol\":3899:3922  _setOwner(_msgSender()) */\n  tag_10\n    /* \"EvolvedCamels.sol\":3909:3921  _msgSender() */\n  tag_11\n    /* \"EvolvedCamels.sol\":3909:3919  _msgSender */\n  shl(0x20, tag_12)\n    /* \"EvolvedCamels.sol\":3909:3921  _msgSender() */\n  0x20\n  shr\n  jump\t// in\ntag_11:\n    /* \"EvolvedCamels.sol\":3899:3908  _setOwner */\n  tag_13\n    /* \"EvolvedCamels.sol\":3899:3922  _setOwner(_msgSender()) */\n  jump\t// in\ntag_10:\n    /* \"EvolvedCamels.sol\":56894:56898  2222 */\n  0x08ae\n    /* \"EvolvedCamels.sol\":56877:56891  maxTotalTokens */\n  0x08\n    /* \"EvolvedCamels.sol\":56877:56898  maxTotalTokens = 2222 */\n  sstore\n    /* \"EvolvedCamels.sol\":56911:56922  CrazyCamels */\n  0x17\n    /* \"EvolvedCamels.sol\":56911:56976  CrazyCamels = IERC721(0x062c74E593CE3C6574F126A1a35Ab55Dffdd63A6) */\n  dup1\n  sload\n  not(sub(shl(0xa0, 0x01), 0x01))\n  and\n    /* \"EvolvedCamels.sol\":56933:56975  0x062c74E593CE3C6574F126A1a35Ab55Dffdd63A6 */\n  0x062c74e593ce3c6574f126a1a35ab55dffdd63a6\n    /* \"EvolvedCamels.sol\":56911:56976  CrazyCamels = IERC721(0x062c74E593CE3C6574F126A1a35Ab55Dffdd63A6) */\n  or\n  swap1\n  sstore\n    /* \"EvolvedCamels.sol\":57035:57064  unrevealedURI = \"ipfs://.../\" */\n  0x40\n  dup1\n  mload\n  dup1\n  dup3\n  add\n  swap1\n  swap2\n  mstore\n  0x0b\n  dup1\n  dup3\n  mstore\n  shl(0xa8, 0x697066733a2f2f2e2e2e2f)\n  0x20\n  swap1\n  swap3\n  add\n  swap2\n  dup3\n  mstore\n  tag_15\n  swap2\n    /* \"EvolvedCamels.sol\":57035:57048  unrevealedURI */\n  0x18\n  swap2\n    /* \"EvolvedCamels.sol\":57035:57064  unrevealedURI = \"ipfs://.../\" */\n  tag_7\n  jump\t// in\ntag_15:\n  pop\n    /* \"EvolvedCamels.sol\":55020:66175  contract EvolvedCamels is ERC721A, Ownable {... */\n  jump(tag_30)\n    /* \"EvolvedCamels.sol\":2799:2897  function _msgSender() internal view virtual returns (address) {... */\ntag_12:\n    /* \"EvolvedCamels.sol\":2879:2889  msg.sender */\n  caller\n  swap1\n    /* \"EvolvedCamels.sol\":2799:2897  function _msgSender() internal view virtual returns (address) {... */\n  jump\t// out\n    /* \"EvolvedCamels.sol\":5111:5284  function _setOwner(address newOwner) private {... */\ntag_13:\n    /* \"EvolvedCamels.sol\":5186:5192  _owner */\n  0x07\n  dup1\n  sload\n  sub(shl(0xa0, 0x01), 0x01)\n    /* \"EvolvedCamels.sol\":5203:5220  _owner = newOwner */\n  dup4\n  dup2\n  and\n  not(sub(shl(0xa0, 0x01), 0x01))\n  dup4\n  and\n  dup2\n  or\n  swap1\n  swap4\n  sstore\n    /* \"EvolvedCamels.sol\":5236:5276  OwnershipTransferred(oldOwner, newOwner) */\n  mload(0x40)\n    /* \"EvolvedCamels.sol\":5186:5192  _owner */\n  swap2\n  and\n  swap2\n    /* \"EvolvedCamels.sol\":5203:5220  _owner = newOwner */\n  swap1\n    /* \"EvolvedCamels.sol\":5186:5192  _owner */\n  dup3\n  swap1\n    /* \"EvolvedCamels.sol\":5236:5276  OwnershipTransferred(oldOwner, newOwner) */\n  0x8be0079c531659141344cd1fd0a4f28419497f9722a3daafe3b4186f6b6457e0\n  swap1\n    /* \"EvolvedCamels.sol\":5167:5183  address oldOwner */\n  0x00\n  swap1\n    /* \"EvolvedCamels.sol\":5236:5276  OwnershipTransferred(oldOwner, newOwner) */\n  log3\n    /* \"EvolvedCamels.sol\":5156:5284  {... */\n  pop\n    /* \"EvolvedCamels.sol\":5111:5284  function _setOwner(address newOwner) private {... */\n  pop\n  jump\t// out\n    /* \"EvolvedCamels.sol\":55020:66175  contract EvolvedCamels is ERC721A, Ownable {... */\ntag_7:\n  dup3\n  dup1\n  sload\n  tag_19\n  swap1\n  tag_20\n  jump\t// in\ntag_19:\n  swap1\n  0x00\n  mstore\n  keccak256(0x00, 0x20)\n  swap1\n  0x1f\n  add\n  0x20\n  swap1\n  div\n  dup2\n  add\n  swap3\n  dup3\n  tag_22\n  jumpi\n  0x00\n  dup6\n  sstore\n  jump(tag_25)\ntag_22:\n  dup3\n  0x1f\n  lt\n  tag_23\n  jumpi\n  dup1\n  mload\n  not(0xff)\n  and\n  dup4\n  dup1\n  add\n  or\n  dup6\n  sstore\n  jump(tag_25)\ntag_23:\n  dup3\n  dup1\n  add\n  0x01\n  add\n  dup6\n  sstore\n  dup3\n  iszero\n  tag_25\n  jumpi\n  swap2\n  dup3\n  add\ntag_24:\n  dup3\n  dup2\n  gt\n  iszero\n  tag_25\n  jumpi\n  dup3\n  mload\n  dup3\n  sstore\n  swap2\n  0x20\n  add\n  swap2\n  swap1\n  0x01\n  add\n  swap1\n  jump(tag_24)\ntag_25:\n  pop\n  tag_26\n  swap3\n  swap2\n  pop\n  tag_27\n  jump\t// in\ntag_26:\n  pop\n  swap1\n  jump\t// out\ntag_27:\ntag_28:\n  dup1\n  dup3\n  gt\n  iszero\n  tag_26\n  jumpi\n  0x00\n  dup2\n  sstore\n  0x01\n  add\n  jump(tag_28)\n    /* \"#utility.yul\":14:394   */\ntag_20:\n    /* \"#utility.yul\":93:94   */\n  0x01\n    /* \"#utility.yul\":89:101   */\n  dup2\n  dup2\n  shr\n  swap1\n    /* \"#utility.yul\":136:148   */\n  dup3\n  and\n  dup1\n    /* \"#utility.yul\":157:218   */\n  tag_32\n  jumpi\n    /* \"#utility.yul\":211:215   */\n  0x7f\n    /* \"#utility.yul\":203:209   */\n  dup3\n    /* \"#utility.yul\":199:216   */\n  and\n    /* \"#utility.yul\":189:216   */\n  swap2\n  pop\n    /* \"#utility.yul\":157:218   */\ntag_32:\n    /* \"#utility.yul\":264:266   */\n  0x20\n    /* \"#utility.yul\":256:262   */\n  dup3\n    /* \"#utility.yul\":253:267   */\n  lt\n    /* \"#utility.yul\":233:251   */\n  dup2\n    /* \"#utility.yul\":230:268   */\n  sub\n    /* \"#utility.yul\":227:388   */\n  tag_33\n  jumpi\n    /* \"#utility.yul\":310:320   */\n  0x4e487b71\n    /* \"#utility.yul\":305:308   */\n  0xe0\n    /* \"#utility.yul\":301:321   */\n  shl\n    /* \"#utility.yul\":298:299   */\n  0x00\n    /* \"#utility.yul\":291:322   */\n  mstore\n    /* \"#utility.yul\":345:349   */\n  0x22\n    /* \"#utility.yul\":342:343   */\n  0x04\n    /* \"#utility.yul\":335:350   */\n  mstore\n    /* \"#utility.yul\":373:377   */\n  0x24\n    /* \"#utility.yul\":370:371   */\n  0x00\n    /* \"#utility.yul\":363:378   */\n  revert\n    /* \"#utility.yul\":227:388   */\ntag_33:\n  pop\n    /* \"#utility.yul\":14:394   */\n  swap2\n  swap1\n  pop\n  jump\t// out\ntag_30:\n    /* \"EvolvedCamels.sol\":55020:66175  contract EvolvedCamels is ERC721A, Ownable {... */\n  dataSize(sub_0)\n  dup1\n  dataOffset(sub_0)\n  0x00\n  codecopy\n  0x00\n  return\nstop\n\nsub_0: assembly {\n        /* \"EvolvedCamels.sol\":55020:66175  contract EvolvedCamels is ERC721A, Ownable {... */\n      mstore(0x40, 0x80)\n      jumpi(tag_1, lt(calldatasize, 0x04))\n      shr(0xe0, calldataload(0x00))\n      dup1\n      0x7035bf18\n      gt\n      tag_54\n      jumpi\n      dup1\n      0xb88d4fde\n      gt\n      tag_55\n      jumpi\n      dup1\n      0xdcd4e732\n      gt\n      tag_56\n      jumpi\n      dup1\n      0xf2fde38b\n      gt\n      tag_57\n      jumpi\n      dup1\n      0xf2fde38b\n      eq\n      tag_50\n      jumpi\n      dup1\n      0xf8ccc3ce\n      eq\n      tag_51\n      jumpi\n      dup1\n      0xff984994\n      eq\n      tag_52\n      jumpi\n      dup1\n      0xffcd55a8\n      eq\n      tag_53\n      jumpi\n        /* \"EvolvedCamels.sol\":57233:57241  revert() */\n      0x00\n      dup1\n      revert\n        /* \"EvolvedCamels.sol\":55020:66175  contract EvolvedCamels is ERC721A, Ownable {... */\n    tag_57:\n      dup1\n      0xdcd4e732\n      eq\n      tag_47\n      jumpi\n      dup1\n      0xe985e9c5\n      eq\n      tag_48\n      jumpi\n      dup1\n      0xeab41782\n      eq\n      tag_49\n      jumpi\n        /* \"EvolvedCamels.sol\":57233:57241  revert() */\n      0x00\n      dup1\n      revert\n        /* \"EvolvedCamels.sol\":55020:66175  contract EvolvedCamels is ERC721A, Ownable {... */\n    tag_56:\n      dup1\n      0xc4d8b9df\n      gt\n      tag_58\n      jumpi\n      dup1\n      0xc4d8b9df\n      eq\n      tag_44\n      jumpi\n      dup1\n      0xc6ed8990\n      eq\n      tag_45\n      jumpi\n      dup1\n      0xc87b56dd\n      eq\n      tag_46\n      jumpi\n        /* \"EvolvedCamels.sol\":57233:57241  revert() */\n      0x00\n      dup1\n      revert\n        /* \"EvolvedCamels.sol\":55020:66175  contract EvolvedCamels is ERC721A, Ownable {... */\n    tag_58:\n      dup1\n      0xb88d4fde\n      eq\n      tag_41\n      jumpi\n      dup1\n      0xbdb4b848\n      eq\n      tag_42\n      jumpi\n      dup1\n      0xc4ae3168\n      eq\n      tag_43\n      jumpi\n        /* \"EvolvedCamels.sol\":57233:57241  revert() */\n      0x00\n      dup1\n      revert\n        /* \"EvolvedCamels.sol\":55020:66175  contract EvolvedCamels is ERC721A, Ownable {... */\n    tag_55:\n      dup1\n      0x95d89b41\n      gt\n      tag_59\n      jumpi\n      dup1\n      0xaf1035de\n      gt\n      tag_60\n      jumpi\n      dup1\n      0xaf1035de\n      eq\n      tag_37\n      jumpi\n      dup1\n      0xb0a1c1c4\n      eq\n      tag_38\n      jumpi\n      dup1\n      0xb187bd26\n      eq\n      tag_39\n      jumpi\n      dup1\n      0xb3ab66b0\n      eq\n      tag_40\n      jumpi\n        /* \"EvolvedCamels.sol\":57233:57241  revert() */\n      0x00\n      dup1\n      revert\n        /* \"EvolvedCamels.sol\":55020:66175  contract EvolvedCamels is ERC721A, Ownable {... */\n    tag_60:\n      dup1\n      0x95d89b41\n      eq\n      tag_34\n      jumpi\n      dup1\n      0xa22cb465\n      eq\n      tag_35\n      jumpi\n      dup1\n      0xa475b5dd\n      eq\n      tag_36\n      jumpi\n        /* \"EvolvedCamels.sol\":57233:57241  revert() */\n      0x00\n      dup1\n      revert\n        /* \"EvolvedCamels.sol\":55020:66175  contract EvolvedCamels is ERC721A, Ownable {... */\n    tag_59:\n      dup1\n      0x7c76f698\n      gt\n      tag_61\n      jumpi\n      dup1\n      0x7c76f698\n      eq\n      tag_31\n      jumpi\n      dup1\n      0x7f1921ef\n      eq\n      tag_32\n      jumpi\n      dup1\n      0x8da5cb5b\n      eq\n      tag_33\n      jumpi\n        /* \"EvolvedCamels.sol\":57233:57241  revert() */\n      0x00\n      dup1\n      revert\n        /* \"EvolvedCamels.sol\":55020:66175  contract EvolvedCamels is ERC721A, Ownable {... */\n    tag_61:\n      dup1\n      0x7035bf18\n      eq\n      tag_28\n      jumpi\n      dup1\n      0x70a08231\n      eq\n      tag_29\n      jumpi\n      dup1\n      0x715018a6\n      eq\n      tag_30\n      jumpi\n        /* \"EvolvedCamels.sol\":57233:57241  revert() */\n      0x00\n      dup1\n      revert\n        /* \"EvolvedCamels.sol\":55020:66175  contract EvolvedCamels is ERC721A, Ownable {... */\n    tag_54:\n      dup1\n      0x3023eba6\n      gt\n      tag_62\n      jumpi\n      dup1\n      0x4520e916\n      gt\n      tag_63\n      jumpi\n      dup1\n      0x4f6ccce7\n      gt\n      tag_64\n      jumpi\n      dup1\n      0x4f6ccce7\n      eq\n      tag_24\n      jumpi\n      dup1\n      0x5a4dd61c\n      eq\n      tag_25\n      jumpi\n      dup1\n      0x603f4d52\n      eq\n      tag_26\n      jumpi\n      dup1\n      0x6352211e\n      eq\n      tag_27\n      jumpi\n        /* \"EvolvedCamels.sol\":57233:57241  revert() */\n      0x00\n      dup1\n      revert\n        /* \"EvolvedCamels.sol\":55020:66175  contract EvolvedCamels is ERC721A, Ownable {... */\n    tag_64:\n      dup1\n      0x4520e916\n      eq\n      tag_21\n      jumpi\n      dup1\n      0x45cb2e52\n      eq\n      tag_22\n      jumpi\n      dup1\n      0x46e0d1ab\n      eq\n      tag_23\n      jumpi\n        /* \"EvolvedCamels.sol\":57233:57241  revert() */\n      0x00\n      dup1\n      revert\n        /* \"EvolvedCamels.sol\":55020:66175  contract EvolvedCamels is ERC721A, Ownable {... */\n    tag_63:\n      dup1\n      0x3b478c2c\n      gt\n      tag_65\n      jumpi\n      dup1\n      0x3b478c2c\n      eq\n      tag_18\n      jumpi\n      dup1\n      0x3ccfd60b\n      eq\n      tag_19\n      jumpi\n      dup1\n      0x42842e0e\n      eq\n      tag_20\n      jumpi\n        /* \"EvolvedCamels.sol\":57233:57241  revert() */\n      0x00\n      dup1\n      revert\n        /* \"EvolvedCamels.sol\":55020:66175  contract EvolvedCamels is ERC721A, Ownable {... */\n    tag_65:\n      dup1\n      0x3023eba6\n      eq\n      tag_15\n      jumpi\n      dup1\n      0x32624114\n      eq\n      tag_16\n      jumpi\n      dup1\n      0x39a0c6f9\n      eq\n      tag_17\n      jumpi\n        /* \"EvolvedCamels.sol\":57233:57241  revert() */\n      0x00\n      dup1\n      revert\n        /* \"EvolvedCamels.sol\":55020:66175  contract EvolvedCamels is ERC721A, Ownable {... */\n    tag_62:\n      dup1\n      0x18160ddd\n      gt\n      tag_66\n      jumpi\n      dup1\n      0x20c63e3b\n      gt\n      tag_67\n      jumpi\n      dup1\n      0x20c63e3b\n      eq\n      tag_12\n      jumpi\n      dup1\n      0x23b872dd\n      eq\n      tag_13\n      jumpi\n      dup1\n      0x2f745c59\n      eq\n      tag_14\n      jumpi\n        /* \"EvolvedCamels.sol\":57233:57241  revert() */\n      0x00\n      dup1\n      revert\n        /* \"EvolvedCamels.sol\":55020:66175  contract EvolvedCamels is ERC721A, Ownable {... */\n    tag_67:\n      dup1\n      0x18160ddd\n      eq\n      tag_9\n      jumpi\n      dup1\n      0x18df6403\n      eq\n      tag_10\n      jumpi\n      dup1\n      0x19734c8b\n      eq\n      tag_11\n      jumpi\n        /* \"EvolvedCamels.sol\":57233:57241  revert() */\n      0x00\n      dup1\n      revert\n        /* \"EvolvedCamels.sol\":55020:66175  contract EvolvedCamels is ERC721A, Ownable {... */\n    tag_66:\n      dup1\n      0x081812fc\n      gt\n      tag_68\n      jumpi\n      dup1\n      0x081812fc\n      eq\n      tag_6\n      jumpi\n      dup1\n      0x092cd34a\n      eq\n      tag_7\n      jumpi\n      dup1\n      0x095ea7b3\n      eq\n      tag_8\n      jumpi\n        /* \"EvolvedCamels.sol\":57233:57241  revert() */\n      0x00\n      dup1\n      revert\n        /* \"EvolvedCamels.sol\":55020:66175  contract EvolvedCamels is ERC721A, Ownable {... */\n    tag_68:\n      dup1\n      0x0191a657\n      eq\n      tag_3\n      jumpi\n      dup1\n      0x01ffc9a7\n      eq\n      tag_4\n      jumpi\n      dup1\n      0x06fdde03\n      eq\n      tag_5\n      jumpi\n        /* \"EvolvedCamels.sol\":57233:57241  revert() */\n      0x00\n      dup1\n      revert\n        /* \"EvolvedCamels.sol\":55020:66175  contract EvolvedCamels is ERC721A, Ownable {... */\n    tag_1:\n      jumpi(tag_2, calldatasize)\n      stop\n    tag_2:\n        /* \"EvolvedCamels.sol\":57233:57241  revert() */\n      0x00\n      dup1\n      revert\n        /* \"EvolvedCamels.sol\":62858:62945  function changeDummy(address _dummy) public onlyOwner {... */\n    tag_3:\n      callvalue\n      dup1\n      iszero\n      tag_73\n      jumpi\n      0x00\n      dup1\n      revert\n    tag_73:\n      pop\n      tag_74\n      tag_75\n      calldatasize\n      0x04\n      tag_76\n      jump\t// in\n    tag_75:\n      tag_77\n      jump\t// in\n    tag_74:\n      stop\n        /* \"EvolvedCamels.sol\":41781:42153  function supportsInterface(bytes4 interfaceId) public view virtual override(ERC165, IERC165) returns (bool) {... */\n    tag_4:\n      callvalue\n      dup1\n      iszero\n      tag_78\n      jumpi\n      0x00\n      dup1\n      revert\n    tag_78:\n      pop\n      tag_79\n      tag_80\n      calldatasize\n      0x04\n      tag_81\n      jump\t// in\n    tag_80:\n      tag_82\n      jump\t// in\n    tag_79:\n      mload(0x40)\n        /* \"#utility.yul\":957:971   */\n      swap1\n      iszero\n        /* \"#utility.yul\":950:972   */\n      iszero\n        /* \"#utility.yul\":932:973   */\n      dup2\n      mstore\n        /* \"#utility.yul\":920:922   */\n      0x20\n        /* \"#utility.yul\":905:923   */\n      add\n        /* \"EvolvedCamels.sol\":41781:42153  function supportsInterface(bytes4 interfaceId) public view virtual override(ERC165, IERC165) returns (bool) {... */\n    tag_83:\n      mload(0x40)\n      dup1\n      swap2\n      sub\n      swap1\n      return\n        /* \"EvolvedCamels.sol\":43667:43767  function name() public view virtual override returns (string memory) {... */\n    tag_5:\n      callvalue\n      dup1\n      iszero\n      tag_85\n      jumpi\n      0x00\n      dup1\n      revert\n    tag_85:\n      pop\n      tag_86\n      tag_87\n      jump\t// in\n    tag_86:\n      mload(0x40)\n      tag_83\n      swap2\n      swap1\n      tag_89\n      jump\t// in\n        /* \"EvolvedCamels.sol\":45229:45443  function getApproved(uint256 tokenId) public view override returns (address) {... */\n    tag_6:\n      callvalue\n      dup1\n      iszero\n      tag_90\n      jumpi\n      0x00\n      dup1\n      revert\n    tag_90:\n      pop\n      tag_91\n      tag_92\n      calldatasize\n      0x04\n      tag_93\n      jump\t// in\n    tag_92:\n      tag_94\n      jump\t// in\n    tag_91:\n      mload(0x40)\n      sub(shl(0xa0, 0x01), 0x01)\n        /* \"#utility.yul\":2084:2139   */\n      swap1\n      swap2\n      and\n        /* \"#utility.yul\":2066:2140   */\n      dup2\n      mstore\n        /* \"#utility.yul\":2054:2056   */\n      0x20\n        /* \"#utility.yul\":2039:2057   */\n      add\n        /* \"EvolvedCamels.sol\":45229:45443  function getApproved(uint256 tokenId) public view override returns (address) {... */\n      tag_83\n        /* \"#utility.yul\":1920:2146   */\n      jump\n        /* \"EvolvedCamels.sol\":59022:59488  function OGSaleMint(uint256 number) public {... */\n    tag_7:\n      callvalue\n      dup1\n      iszero\n      tag_97\n      jumpi\n      0x00\n      dup1\n      revert\n    tag_97:\n      pop\n      tag_74\n      tag_99\n      calldatasize\n      0x04\n      tag_93\n      jump\t// in\n    tag_99:\n      tag_100\n      jump\t// in\n        /* \"EvolvedCamels.sol\":44750:45163  function approve(address to, uint256 tokenId) public override {... */\n    tag_8:\n      callvalue\n      dup1\n      iszero\n      tag_101\n      jumpi\n      0x00\n      dup1\n      revert\n    tag_101:\n      pop\n      tag_74\n      tag_103\n      calldatasize\n      0x04\n      tag_104\n      jump\t// in\n    tag_103:\n      tag_105\n      jump\t// in\n        /* \"EvolvedCamels.sol\":40030:40138  function totalSupply() public view virtual override returns (uint256) {... */\n    tag_9:\n      callvalue\n      dup1\n      iszero\n      tag_106\n      jumpi\n      0x00\n      dup1\n      revert\n    tag_106:\n      pop\n        /* \"EvolvedCamels.sol\":40091:40098  uint256 */\n      0x00\n        /* \"EvolvedCamels.sol\":40118:40130  currentIndex */\n      sload\n        /* \"EvolvedCamels.sol\":40030:40138  function totalSupply() public view virtual override returns (uint256) {... */\n    tag_107:\n      mload(0x40)\n        /* \"#utility.yul\":2556:2581   */\n      swap1\n      dup2\n      mstore\n        /* \"#utility.yul\":2544:2546   */\n      0x20\n        /* \"#utility.yul\":2529:2547   */\n      add\n        /* \"EvolvedCamels.sol\":40030:40138  function totalSupply() public view virtual override returns (uint256) {... */\n      tag_83\n        /* \"#utility.yul\":2410:2587   */\n      jump\n        /* \"EvolvedCamels.sol\":61639:61958  function reservedMint(uint number, address recipient) public onlyOwner {... */\n    tag_10:\n      callvalue\n      dup1\n      iszero\n      tag_111\n      jumpi\n      0x00\n      dup1\n      revert\n    tag_111:\n      pop\n      tag_74\n      tag_113\n      calldatasize\n      0x04\n      tag_114\n      jump\t// in\n    tag_113:\n      tag_115\n      jump\t// in\n        /* \"EvolvedCamels.sol\":55584:55620  uint256 public maxMintPublicSale = 3 */\n    tag_11:\n      callvalue\n      dup1\n      iszero\n      tag_116\n      jumpi\n      0x00\n      dup1\n      revert\n    tag_116:\n      pop\n      tag_107\n      sload(0x0d)\n      dup2\n      jump\n        /* \"EvolvedCamels.sol\":64233:64557  function changeMaxMint(uint256 newMax) public onlyOwner {... */\n    tag_12:\n      callvalue\n      dup1\n      iszero\n      tag_120\n      jumpi\n      0x00\n      dup1\n      revert\n    tag_120:\n      pop\n      tag_74\n      tag_122\n      calldatasize\n      0x04\n      tag_93\n      jump\t// in\n    tag_122:\n      tag_123\n      jump\t// in\n        /* \"EvolvedCamels.sol\":46105:46275  function transferFrom(... */\n    tag_13:\n      callvalue\n      dup1\n      iszero\n      tag_124\n      jumpi\n      0x00\n      dup1\n      revert\n    tag_124:\n      pop\n      tag_74\n      tag_126\n      calldatasize\n      0x04\n      tag_127\n      jump\t// in\n    tag_126:\n      tag_128\n      jump\t// in\n        /* \"EvolvedCamels.sol\":40702:41709  function tokenOfOwnerByIndex(address owner, uint256 index) public view override returns (uint256) {... */\n    tag_14:\n      callvalue\n      dup1\n      iszero\n      tag_129\n      jumpi\n      0x00\n      dup1\n      revert\n    tag_129:\n      pop\n      tag_107\n      tag_131\n      calldatasize\n      0x04\n      tag_104\n      jump\t// in\n    tag_131:\n      tag_132\n      jump\t// in\n        /* \"EvolvedCamels.sol\":56371:56421  mapping(address => uint256) public mintsPerAddress */\n    tag_15:\n      callvalue\n      dup1\n      iszero\n      tag_134\n      jumpi\n      0x00\n      dup1\n      revert\n    tag_134:\n      pop\n      tag_107\n      tag_136\n      calldatasize\n      0x04\n      tag_76\n      jump\t// in\n    tag_136:\n      mstore(0x20, 0x15)\n      0x00\n      swap1\n      dup2\n      mstore\n      0x40\n      swap1\n      keccak256\n      sload\n      dup2\n      jump\n        /* \"EvolvedCamels.sol\":58657:58963  function isValidAccessMessage(address _add, uint8 _v, bytes32 _r, bytes32 _s) view public returns (bool) {... */\n    tag_16:\n      callvalue\n      dup1\n      iszero\n      tag_139\n      jumpi\n      0x00\n      dup1\n      revert\n    tag_139:\n      pop\n      tag_79\n      tag_141\n      calldatasize\n      0x04\n      tag_142\n      jump\t// in\n    tag_141:\n      tag_143\n      jump\t// in\n        /* \"EvolvedCamels.sol\":57460:57569  function changeBaseURI(string memory baseURI_) public onlyOwner {... */\n    tag_17:\n      callvalue\n      dup1\n      iszero\n      tag_145\n      jumpi\n      0x00\n      dup1\n      revert\n    tag_145:\n      pop\n      tag_74\n      tag_147\n      calldatasize\n      0x04\n      tag_148\n      jump\t// in\n    tag_147:\n      tag_149\n      jump\t// in\n        /* \"EvolvedCamels.sol\":65525:65816  function OGMintsLeft(address account) public view returns(uint) {... */\n    tag_18:\n      callvalue\n      dup1\n      iszero\n      tag_150\n      jumpi\n      0x00\n      dup1\n      revert\n    tag_150:\n      pop\n      tag_107\n      tag_152\n      calldatasize\n      0x04\n      tag_76\n      jump\t// in\n    tag_152:\n      tag_153\n      jump\t// in\n        /* \"EvolvedCamels.sol\":62177:62526  function withdraw() public onlyOwner {... */\n    tag_19:\n      callvalue\n      dup1\n      iszero\n      tag_155\n      jumpi\n      0x00\n      dup1\n      revert\n    tag_155:\n      pop\n      tag_74\n      tag_157\n      jump\t// in\n        /* \"EvolvedCamels.sol\":46346:46531  function safeTransferFrom(... */\n    tag_20:\n      callvalue\n      dup1\n      iszero\n      tag_158\n      jumpi\n      0x00\n      dup1\n      revert\n    tag_158:\n      pop\n      tag_74\n      tag_160\n      calldatasize\n      0x04\n      tag_127\n      jump\t// in\n    tag_160:\n      tag_161\n      jump\t// in\n        /* \"EvolvedCamels.sol\":63012:63136  function reservedMintsLeft() public onlyOwner view returns(uint) {... */\n    tag_21:\n      callvalue\n      dup1\n      iszero\n      tag_162\n      jumpi\n      0x00\n      dup1\n      revert\n    tag_162:\n      pop\n      tag_107\n      tag_164\n      jump\t// in\n        /* \"EvolvedCamels.sol\":65340:65422  function isOGPaused() public view returns(bool){... */\n    tag_22:\n      callvalue\n      dup1\n      iszero\n      tag_166\n      jumpi\n      0x00\n      dup1\n      revert\n    tag_166:\n      pop\n        /* \"EvolvedCamels.sol\":65405:65414  OGpaused_ */\n      sload(0x14)\n      0x0100\n      swap1\n      div\n      0xff\n      and\n        /* \"EvolvedCamels.sol\":65340:65422  function isOGPaused() public view returns(bool){... */\n      jump(tag_79)\n        /* \"EvolvedCamels.sol\":65430:65513  function toggleOGPause() public onlyOwner {... */\n    tag_23:\n      callvalue\n      dup1\n      iszero\n      tag_170\n      jumpi\n      0x00\n      dup1\n      revert\n    tag_170:\n      pop\n      tag_74\n      tag_172\n      jump\t// in\n        /* \"EvolvedCamels.sol\":40215:40402  function tokenByIndex(uint256 index) public view override returns (uint256) {... */\n    tag_24:\n      callvalue\n      dup1\n      iszero\n      tag_173\n      jumpi\n      0x00\n      dup1\n      revert\n    tag_173:\n      pop\n      tag_107\n      tag_175\n      calldatasize\n      0x04\n      tag_93\n      jump\t// in\n    tag_175:\n      tag_176\n      jump\t// in\n        /* \"EvolvedCamels.sol\":55200:55229  uint256 public maxTotalTokens */\n    tag_25:\n      callvalue\n      dup1\n      iszero\n      tag_178\n      jumpi\n      0x00\n      dup1\n      revert\n    tag_178:\n      pop\n      tag_107\n      sload(0x08)\n      dup2\n      jump\n        /* \"EvolvedCamels.sol\":63222:63519  function saleState() public view returns(State){... */\n    tag_26:\n      callvalue\n      dup1\n      iszero\n      tag_182\n      jumpi\n      0x00\n      dup1\n      revert\n    tag_182:\n      pop\n      tag_183\n      tag_184\n      jump\t// in\n    tag_183:\n      mload(0x40)\n      tag_83\n      swap2\n      swap1\n      tag_186\n      jump\t// in\n        /* \"EvolvedCamels.sol\":43476:43600  function ownerOf(uint256 tokenId) public view override returns (address) {... */\n    tag_27:\n      callvalue\n      dup1\n      iszero\n      tag_187\n      jumpi\n      0x00\n      dup1\n      revert\n    tag_187:\n      pop\n      tag_91\n      tag_189\n      calldatasize\n      0x04\n      tag_93\n      jump\t// in\n    tag_189:\n      tag_190\n      jump\t// in\n        /* \"EvolvedCamels.sol\":56734:56761  string public unrevealedURI */\n    tag_28:\n      callvalue\n      dup1\n      iszero\n      tag_192\n      jumpi\n      0x00\n      dup1\n      revert\n    tag_192:\n      pop\n      tag_86\n      tag_194\n      jump\t// in\n        /* \"EvolvedCamels.sol\":42217:42438  function balanceOf(address owner) public view override returns (uint256) {... */\n    tag_29:\n      callvalue\n      dup1\n      iszero\n      tag_196\n      jumpi\n      0x00\n      dup1\n      revert\n    tag_196:\n      pop\n      tag_107\n      tag_198\n      calldatasize\n      0x04\n      tag_76\n      jump\t// in\n    tag_198:\n      tag_199\n      jump\t// in\n        /* \"EvolvedCamels.sol\":4662:4756  function renounceOwnership() public virtual onlyOwner {... */\n    tag_30:\n      callvalue\n      dup1\n      iszero\n      tag_201\n      jumpi\n      0x00\n      dup1\n      revert\n    tag_201:\n      pop\n      tag_74\n      tag_203\n      jump\t// in\n        /* \"EvolvedCamels.sol\":64822:64994  function timeOfReveal() public view returns(uint256) {... */\n    tag_31:\n      callvalue\n      dup1\n      iszero\n      tag_204\n      jumpi\n      0x00\n      dup1\n      revert\n    tag_204:\n      pop\n      tag_107\n      tag_206\n      jump\t// in\n        /* \"EvolvedCamels.sol\":63892:64167  function changeMintCost(uint256 newCost) public onlyOwner {... */\n    tag_32:\n      callvalue\n      dup1\n      iszero\n      tag_208\n      jumpi\n      0x00\n      dup1\n      revert\n    tag_208:\n      pop\n      tag_74\n      tag_210\n      calldatasize\n      0x04\n      tag_93\n      jump\t// in\n    tag_210:\n      tag_211\n      jump\t// in\n        /* \"EvolvedCamels.sol\":4011:4098  function owner() public view virtual returns (address) {... */\n    tag_33:\n      callvalue\n      dup1\n      iszero\n      tag_212\n      jumpi\n      0x00\n      dup1\n      revert\n    tag_212:\n      pop\n        /* \"EvolvedCamels.sol\":4084:4090  _owner */\n      and(sub(shl(0xa0, 0x01), 0x01), sload(0x07))\n        /* \"EvolvedCamels.sol\":4011:4098  function owner() public view virtual returns (address) {... */\n      jump(tag_91)\n        /* \"EvolvedCamels.sol\":43836:43940  function symbol() public view virtual override returns (string memory) {... */\n    tag_34:\n      callvalue\n      dup1\n      iszero\n      tag_216\n      jumpi\n      0x00\n      dup1\n      revert\n    tag_216:\n      pop\n      tag_86\n      tag_218\n      jump\t// in\n        /* \"EvolvedCamels.sol\":45515:45803  function setApprovalForAll(address operator, bool approved) public override {... */\n    tag_35:\n      callvalue\n      dup1\n      iszero\n      tag_220\n      jumpi\n      0x00\n      dup1\n      revert\n    tag_220:\n      pop\n      tag_74\n      tag_222\n      calldatasize\n      0x04\n      tag_223\n      jump\t// in\n    tag_222:\n      tag_224\n      jump\t// in\n        /* \"EvolvedCamels.sol\":65002:65160  function reveal() public onlyOwner {... */\n    tag_36:\n      callvalue\n      dup1\n      iszero\n      tag_225\n      jumpi\n      0x00\n      dup1\n      revert\n    tag_225:\n      pop\n      tag_74\n      tag_227\n      jump\t// in\n        /* \"EvolvedCamels.sol\":65965:66165  function changeCrazyCamels(address newCrazyCamels) public onlyOwner {... */\n    tag_37:\n      callvalue\n      dup1\n      iszero\n      tag_228\n      jumpi\n      0x00\n      dup1\n      revert\n    tag_228:\n      pop\n      tag_74\n      tag_230\n      calldatasize\n      0x04\n      tag_76\n      jump\t// in\n    tag_230:\n      tag_231\n      jump\t// in\n        /* \"EvolvedCamels.sol\":62008:62117  function accountBalance() public onlyOwner view returns(uint) {... */\n    tag_38:\n      callvalue\n      dup1\n      iszero\n      tag_232\n      jumpi\n      0x00\n      dup1\n      revert\n    tag_232:\n      pop\n      tag_107\n      tag_234\n      jump\t// in\n        /* \"EvolvedCamels.sol\":65168:65247  function isPaused() public view returns(bool) {... */\n    tag_39:\n      callvalue\n      dup1\n      iszero\n      tag_236\n      jumpi\n      0x00\n      dup1\n      revert\n    tag_236:\n      pop\n        /* \"EvolvedCamels.sol\":65232:65239  paused_ */\n      and(0xff, sload(0x14))\n        /* \"EvolvedCamels.sol\":65168:65247  function isPaused() public view returns(bool) {... */\n      jump(tag_79)\n        /* \"EvolvedCamels.sol\":60338:61014  function publicSaleMint(uint256 number) public payable {... */\n    tag_40:\n      tag_74\n      tag_241\n      calldatasize\n      0x04\n      tag_93\n      jump\t// in\n    tag_241:\n      tag_242\n      jump\t// in\n        /* \"EvolvedCamels.sol\":46602:46957  function safeTransferFrom(... */\n    tag_41:\n      callvalue\n      dup1\n      iszero\n      tag_243\n      jumpi\n      0x00\n      dup1\n      revert\n    tag_243:\n      pop\n      tag_74\n      tag_245\n      calldatasize\n      0x04\n      tag_246\n      jump\t// in\n    tag_245:\n      tag_247\n      jump\t// in\n        /* \"EvolvedCamels.sol\":63568:63825  function mintCost() public view returns(uint) {... */\n    tag_42:\n      callvalue\n      dup1\n      iszero\n      tag_248\n      jumpi\n      0x00\n      dup1\n      revert\n    tag_248:\n      pop\n      tag_107\n      tag_250\n      jump\t// in\n        /* \"EvolvedCamels.sol\":65255:65332  function togglePause() public onlyOwner {... */\n    tag_43:\n      callvalue\n      dup1\n      iszero\n      tag_252\n      jumpi\n      0x00\n      dup1\n      revert\n    tag_252:\n      pop\n      tag_74\n      tag_254\n      jump\t// in\n        /* \"EvolvedCamels.sol\":57577:57702  function changeUnrevealedURI(string memory unrevealedURI_) public onlyOwner {... */\n    tag_44:\n      callvalue\n      dup1\n      iszero\n      tag_255\n      jumpi\n      0x00\n      dup1\n      revert\n    tag_255:\n      pop\n      tag_74\n      tag_257\n      calldatasize\n      0x04\n      tag_148\n      jump\t// in\n    tag_257:\n      tag_258\n      jump\t// in\n        /* \"EvolvedCamels.sol\":64630:64776  function addTokens(uint number) public onlyOwner {... */\n    tag_45:\n      callvalue\n      dup1\n      iszero\n      tag_259\n      jumpi\n      0x00\n      dup1\n      revert\n    tag_259:\n      pop\n      tag_74\n      tag_261\n      calldatasize\n      0x04\n      tag_93\n      jump\t// in\n    tag_261:\n      tag_262\n      jump\t// in\n        /* \"EvolvedCamels.sol\":61026:61594  function tokenURI(uint256 tokenId_) public view virtual override returns (string memory) {... */\n    tag_46:\n      callvalue\n      dup1\n      iszero\n      tag_263\n      jumpi\n      0x00\n      dup1\n      revert\n    tag_263:\n      pop\n      tag_86\n      tag_265\n      calldatasize\n      0x04\n      tag_93\n      jump\t// in\n    tag_265:\n      tag_266\n      jump\t// in\n        /* \"EvolvedCamels.sol\":59547:60279  function presaleMint(uint256 number, uint8 _v, bytes32 _r, bytes32 _s) onlyValidAccess(_v,  _r, _s) public payable {... */\n    tag_47:\n      tag_74\n      tag_269\n      calldatasize\n      0x04\n      tag_270\n      jump\t// in\n    tag_269:\n      tag_271\n      jump\t// in\n        /* \"EvolvedCamels.sol\":45874:46038  function isApprovedForAll(address owner, address operator) public view virtual override returns (bool) {... */\n    tag_48:\n      callvalue\n      dup1\n      iszero\n      tag_272\n      jumpi\n      0x00\n      dup1\n      revert\n    tag_272:\n      pop\n      tag_79\n      tag_274\n      calldatasize\n      0x04\n      tag_275\n      jump\t// in\n    tag_274:\n      sub(shl(0xa0, 0x01), 0x01)\n        /* \"EvolvedCamels.sol\":45995:46020  _operatorApprovals[owner] */\n      swap2\n      dup3\n      and\n        /* \"EvolvedCamels.sol\":45971:45975  bool */\n      0x00\n        /* \"EvolvedCamels.sol\":45995:46020  _operatorApprovals[owner] */\n      swap1\n      dup2\n      mstore\n        /* \"EvolvedCamels.sol\":45995:46013  _operatorApprovals */\n      0x06\n        /* \"EvolvedCamels.sol\":45995:46020  _operatorApprovals[owner] */\n      0x20\n      swap1\n      dup2\n      mstore\n      0x40\n      dup1\n      dup4\n      keccak256\n        /* \"EvolvedCamels.sol\":45995:46030  _operatorApprovals[owner][operator] */\n      swap4\n      swap1\n      swap5\n      and\n      dup3\n      mstore\n      swap2\n      swap1\n      swap2\n      mstore\n      keccak256\n      sload\n      0xff\n      and\n      swap1\n        /* \"EvolvedCamels.sol\":45874:46038  function isApprovedForAll(address owner, address operator) public view virtual override returns (bool) {... */\n      jump\n        /* \"EvolvedCamels.sol\":57710:57880  function switchToPresale() public onlyOwner {... */\n    tag_49:\n      callvalue\n      dup1\n      iszero\n      tag_278\n      jumpi\n      0x00\n      dup1\n      revert\n    tag_278:\n      pop\n      tag_74\n      tag_280\n      jump\t// in\n        /* \"EvolvedCamels.sol\":4911:5103  function transferOwnership(address newOwner) public virtual onlyOwner {... */\n    tag_50:\n      callvalue\n      dup1\n      iszero\n      tag_281\n      jumpi\n      0x00\n      dup1\n      revert\n    tag_281:\n      pop\n      tag_74\n      tag_283\n      calldatasize\n      0x04\n      tag_76\n      jump\t// in\n    tag_283:\n      tag_284\n      jump\t// in\n        /* \"EvolvedCamels.sol\":65824:65953  function balanceOfCrazyCamels(address account) public view returns(uint) {... */\n    tag_51:\n      callvalue\n      dup1\n      iszero\n      tag_285\n      jumpi\n      0x00\n      dup1\n      revert\n    tag_285:\n      pop\n      tag_107\n      tag_287\n      calldatasize\n      0x04\n      tag_76\n      jump\t// in\n    tag_287:\n      tag_288\n      jump\t// in\n        /* \"EvolvedCamels.sol\":57888:58068  function switchToPublicSale() public onlyOwner {... */\n    tag_52:\n      callvalue\n      dup1\n      iszero\n      tag_290\n      jumpi\n      0x00\n      dup1\n      revert\n    tag_290:\n      pop\n      tag_74\n      tag_292\n      jump\t// in\n        /* \"EvolvedCamels.sol\":55544:55577  uint256 public maxMintPresale = 2 */\n    tag_53:\n      callvalue\n      dup1\n      iszero\n      tag_293\n      jumpi\n      0x00\n      dup1\n      revert\n    tag_293:\n      pop\n      tag_107\n      sload(0x0c)\n      dup2\n      jump\n        /* \"EvolvedCamels.sol\":62858:62945  function changeDummy(address _dummy) public onlyOwner {... */\n    tag_77:\n        /* \"EvolvedCamels.sol\":4084:4090  _owner */\n      and(sub(shl(0xa0, 0x01), 0x01), sload(0x07))\n        /* \"EvolvedCamels.sol\":2879:2889  msg.sender */\n      caller\n        /* \"EvolvedCamels.sol\":4231:4254  owner() == _msgSender() */\n      eq\n        /* \"EvolvedCamels.sol\":4223:4291  require(owner() == _msgSender(), \"Ownable: caller is not the owner\") */\n      tag_301\n      jumpi\n      mload(0x40)\n      shl(0xe5, 0x461bcd)\n      dup2\n      mstore\n        /* \"#utility.yul\":7326:7328   */\n      0x20\n        /* \"EvolvedCamels.sol\":4223:4291  require(owner() == _msgSender(), \"Ownable: caller is not the owner\") */\n      0x04\n      dup3\n      add\n        /* \"#utility.yul\":7308:7329   */\n      dup2\n      swap1\n      mstore\n        /* \"#utility.yul\":7345:7363   */\n      0x24\n      dup3\n      add\n        /* \"#utility.yul\":7338:7368   */\n      mstore\n      0x00\n      dup1\n      mload\n      0x20\n      data_9924ebdf1add33d25d4ef888e16131f0a5687b0580a36c21b5c301a6c462effe\n      dup4\n      codecopy\n      dup2\n      mload\n      swap2\n      mstore\n        /* \"#utility.yul\":7384:7402   */\n      0x44\n      dup3\n      add\n        /* \"#utility.yul\":7377:7439   */\n      mstore\n        /* \"#utility.yul\":7456:7474   */\n      0x64\n      add\n        /* \"EvolvedCamels.sol\":4223:4291  require(owner() == _msgSender(), \"Ownable: caller is not the owner\") */\n    tag_302:\n      mload(0x40)\n      dup1\n      swap2\n      sub\n      swap1\n      revert\n    tag_301:\n        /* \"EvolvedCamels.sol\":62923:62928  dummy */\n      0x10\n        /* \"EvolvedCamels.sol\":62923:62937  dummy = _dummy */\n      dup1\n      sload\n      not(sub(shl(0xa0, 0x01), 0x01))\n      and\n      sub(shl(0xa0, 0x01), 0x01)\n      swap3\n      swap1\n      swap3\n      and\n      swap2\n      swap1\n      swap2\n      or\n      swap1\n      sstore\n        /* \"EvolvedCamels.sol\":62858:62945  function changeDummy(address _dummy) public onlyOwner {... */\n      jump\t// out\n        /* \"EvolvedCamels.sol\":41781:42153  function supportsInterface(bytes4 interfaceId) public view virtual override(ERC165, IERC165) returns (bool) {... */\n    tag_82:\n        /* \"EvolvedCamels.sol\":41883:41887  bool */\n      0x00\n      not(sub(shl(0xe0, 0x01), 0x01))\n        /* \"EvolvedCamels.sol\":41920:41960  interfaceId == type(IERC721).interfaceId */\n      dup3\n      and\n      shl(0xe0, 0x80ac58cd)\n      eq\n      dup1\n        /* \"EvolvedCamels.sol\":41920:42025  interfaceId == type(IERC721).interfaceId ||... */\n      tag_306\n      jumpi\n      pop\n      not(sub(shl(0xe0, 0x01), 0x01))\n        /* \"EvolvedCamels.sol\":41977:42025  interfaceId == type(IERC721Metadata).interfaceId */\n      dup3\n      and\n      shl(0xe0, 0x5b5e139f)\n      eq\n        /* \"EvolvedCamels.sol\":41920:42025  interfaceId == type(IERC721).interfaceId ||... */\n    tag_306:\n        /* \"EvolvedCamels.sol\":41920:42092  interfaceId == type(IERC721).interfaceId ||... */\n      dup1\n      tag_307\n      jumpi\n      pop\n      not(sub(shl(0xe0, 0x01), 0x01))\n        /* \"EvolvedCamels.sol\":42042:42092  interfaceId == type(IERC721Enumerable).interfaceId */\n      dup3\n      and\n      shl(0xe0, 0x780e9d63)\n      eq\n        /* \"EvolvedCamels.sol\":41920:42092  interfaceId == type(IERC721).interfaceId ||... */\n    tag_307:\n        /* \"EvolvedCamels.sol\":41920:42145  interfaceId == type(IERC721).interfaceId ||... */\n      dup1\n      tag_309\n      jumpi\n      pop\n      shl(0xe0, 0x01ffc9a7)\n      not(sub(shl(0xe0, 0x01), 0x01))\n        /* \"EvolvedCamels.sol\":16102:16142  interfaceId == type(IERC165).interfaceId */\n      dup4\n      and\n      eq\n        /* \"EvolvedCamels.sol\":42109:42145  super.supportsInterface(interfaceId) */\n    tag_309:\n        /* \"EvolvedCamels.sol\":41900:42145  return... */\n      swap3\n        /* \"EvolvedCamels.sol\":41781:42153  function supportsInterface(bytes4 interfaceId) public view virtual override(ERC165, IERC165) returns (bool) {... */\n      swap2\n      pop\n      pop\n      jump\t// out\n        /* \"EvolvedCamels.sol\":43667:43767  function name() public view virtual override returns (string memory) {... */\n    tag_87:\n        /* \"EvolvedCamels.sol\":43721:43734  string memory */\n      0x60\n        /* \"EvolvedCamels.sol\":43754:43759  _name */\n      0x01\n        /* \"EvolvedCamels.sol\":43747:43759  return _name */\n      dup1\n      sload\n      tag_312\n      swap1\n      tag_313\n      jump\t// in\n    tag_312:\n      dup1\n      0x1f\n      add\n      0x20\n      dup1\n      swap2\n      div\n      mul\n      0x20\n      add\n      mload(0x40)\n      swap1\n      dup2\n      add\n      0x40\n      mstore\n      dup1\n      swap3\n      swap2\n      swap1\n      dup2\n      dup2\n      mstore\n      0x20\n      add\n      dup3\n      dup1\n      sload\n      tag_314\n      swap1\n      tag_313\n      jump\t// in\n    tag_314:\n      dup1\n      iszero\n      tag_315\n      jumpi\n      dup1\n      0x1f\n      lt\n      tag_316\n      jumpi\n      0x0100\n      dup1\n      dup4\n      sload\n      div\n      mul\n      dup4\n      mstore\n      swap2\n      0x20\n      add\n      swap2\n      jump(tag_315)\n    tag_316:\n      dup3\n      add\n      swap2\n      swap1\n      0x00\n      mstore\n      keccak256(0x00, 0x20)\n      swap1\n    tag_317:\n      dup2\n      sload\n      dup2\n      mstore\n      swap1\n      0x01\n      add\n      swap1\n      0x20\n      add\n      dup1\n      dup4\n      gt\n      tag_317\n      jumpi\n      dup3\n      swap1\n      sub\n      0x1f\n      and\n      dup3\n      add\n      swap2\n    tag_315:\n      pop\n      pop\n      pop\n      pop\n      pop\n      swap1\n      pop\n        /* \"EvolvedCamels.sol\":43667:43767  function name() public view virtual override returns (string memory) {... */\n      swap1\n      jump\t// out\n        /* \"EvolvedCamels.sol\":45229:45443  function getApproved(uint256 tokenId) public view override returns (address) {... */\n    tag_94:\n        /* \"EvolvedCamels.sol\":45297:45304  address */\n      0x00\n        /* \"EvolvedCamels.sol\":45325:45341  _exists(tokenId) */\n      tag_319\n        /* \"EvolvedCamels.sol\":45333:45340  tokenId */\n      dup3\n        /* \"EvolvedCamels.sol\":47269:47273  bool */\n      0x00\n        /* \"EvolvedCamels.sol\":47303:47315  currentIndex */\n      sload\n      gt\n        /* \"EvolvedCamels.sol\":47293:47315  tokenId < currentIndex */\n      swap1\n        /* \"EvolvedCamels.sol\":47212:47323  function _exists(uint256 tokenId) internal view returns (bool) {... */\n      jump\n        /* \"EvolvedCamels.sol\":45325:45341  _exists(tokenId) */\n    tag_319:\n        /* \"EvolvedCamels.sol\":45317:45391  require(_exists(tokenId), 'ERC721A: approved query for nonexistent token') */\n      tag_321\n      jumpi\n      mload(0x40)\n      shl(0xe5, 0x461bcd)\n      dup2\n      mstore\n        /* \"#utility.yul\":8072:8074   */\n      0x20\n        /* \"EvolvedCamels.sol\":45317:45391  require(_exists(tokenId), 'ERC721A: approved query for nonexistent token') */\n      0x04\n      dup3\n      add\n        /* \"#utility.yul\":8054:8075   */\n      mstore\n        /* \"#utility.yul\":8111:8113   */\n      0x2d\n        /* \"#utility.yul\":8091:8109   */\n      0x24\n      dup3\n      add\n        /* \"#utility.yul\":8084:8114   */\n      mstore\n        /* \"#utility.yul\":8150:8184   */\n      0x455243373231413a20617070726f76656420717565727920666f72206e6f6e65\n        /* \"#utility.yul\":8130:8148   */\n      0x44\n      dup3\n      add\n        /* \"#utility.yul\":8123:8185   */\n      mstore\n        /* \"#utility.yul\":8221:8236   */\n      0x78697374656e7420746f6b656e00000000000000000000000000000000000000\n        /* \"#utility.yul\":8201:8219   */\n      0x64\n      dup3\n      add\n        /* \"#utility.yul\":8194:8237   */\n      mstore\n        /* \"#utility.yul\":8254:8273   */\n      0x84\n      add\n        /* \"EvolvedCamels.sol\":45317:45391  require(_exists(tokenId), 'ERC721A: approved query for nonexistent token') */\n      tag_302\n        /* \"#utility.yul\":7870:8279   */\n      jump\n        /* \"EvolvedCamels.sol\":45317:45391  require(_exists(tokenId), 'ERC721A: approved query for nonexistent token') */\n    tag_321:\n      pop\n        /* \"EvolvedCamels.sol\":45411:45435  _tokenApprovals[tokenId] */\n      0x00\n      swap1\n      dup2\n      mstore\n        /* \"EvolvedCamels.sol\":45411:45426  _tokenApprovals */\n      0x05\n        /* \"EvolvedCamels.sol\":45411:45435  _tokenApprovals[tokenId] */\n      0x20\n      mstore\n      0x40\n      swap1\n      keccak256\n      sload\n      sub(shl(0xa0, 0x01), 0x01)\n      and\n      swap1\n        /* \"EvolvedCamels.sol\":45229:45443  function getApproved(uint256 tokenId) public view override returns (address) {... */\n      jump\t// out\n        /* \"EvolvedCamels.sol\":59022:59488  function OGSaleMint(uint256 number) public {... */\n    tag_100:\n        /* \"EvolvedCamels.sol\":59085:59094  OGpaused_ */\n      sload(0x14)\n      0x0100\n      swap1\n      div\n      0xff\n      and\n        /* \"EvolvedCamels.sol\":59084:59094  !OGpaused_ */\n      iszero\n        /* \"EvolvedCamels.sol\":59076:59114  require(!OGpaused_, \"Sale is closed!\") */\n      tag_325\n      jumpi\n      mload(0x40)\n      shl(0xe5, 0x461bcd)\n      dup2\n      mstore\n        /* \"#utility.yul\":8486:8488   */\n      0x20\n        /* \"EvolvedCamels.sol\":59076:59114  require(!OGpaused_, \"Sale is closed!\") */\n      0x04\n      dup3\n      add\n        /* \"#utility.yul\":8468:8489   */\n      mstore\n        /* \"#utility.yul\":8525:8527   */\n      0x0f\n        /* \"#utility.yul\":8505:8523   */\n      0x24\n      dup3\n      add\n        /* \"#utility.yul\":8498:8528   */\n      mstore\n        /* \"#utility.yul\":8564:8581   */\n      0x53616c6520697320636c6f736564210000000000000000000000000000000000\n        /* \"#utility.yul\":8544:8562   */\n      0x44\n      dup3\n      add\n        /* \"#utility.yul\":8537:8582   */\n      mstore\n        /* \"#utility.yul\":8599:8617   */\n      0x64\n      add\n        /* \"EvolvedCamels.sol\":59076:59114  require(!OGpaused_, \"Sale is closed!\") */\n      tag_302\n        /* \"#utility.yul\":8284:8623   */\n      jump\n        /* \"EvolvedCamels.sol\":59076:59114  require(!OGpaused_, \"Sale is closed!\") */\n    tag_325:\n        /* \"EvolvedCamels.sol\":59196:59210  _reservedMints */\n      sload(0x0e)\n        /* \"EvolvedCamels.sol\":59177:59193  maxReservedMints */\n      sload(0x0f)\n        /* \"EvolvedCamels.sol\":59177:59210  maxReservedMints - _reservedMints */\n      tag_328\n      swap2\n      swap1\n      tag_329\n      jump\t// in\n    tag_328:\n        /* \"EvolvedCamels.sol\":59159:59173  maxTotalTokens */\n      sload(0x08)\n        /* \"EvolvedCamels.sol\":59159:59211  maxTotalTokens - (maxReservedMints - _reservedMints) */\n      tag_330\n      swap2\n      swap1\n      tag_329\n      jump\t// in\n    tag_330:\n        /* \"EvolvedCamels.sol\":59149:59155  number */\n      dup2\n        /* \"EvolvedCamels.sol\":59133:59146  totalSupply() */\n      tag_331\n        /* \"EvolvedCamels.sol\":40091:40098  uint256 */\n      0x00\n        /* \"EvolvedCamels.sol\":40118:40130  currentIndex */\n      sload\n      swap1\n        /* \"EvolvedCamels.sol\":40030:40138  function totalSupply() public view virtual override returns (uint256) {... */\n      jump\n        /* \"EvolvedCamels.sol\":59133:59146  totalSupply() */\n    tag_331:\n        /* \"EvolvedCamels.sol\":59133:59155  totalSupply() + number */\n      tag_332\n      swap2\n      swap1\n      tag_333\n      jump\t// in\n    tag_332:\n        /* \"EvolvedCamels.sol\":59133:59211  totalSupply() + number <= maxTotalTokens - (maxReservedMints - _reservedMints) */\n      gt\n      iszero\n        /* \"EvolvedCamels.sol\":59125:59246  require(totalSupply() + number <= maxTotalTokens - (maxReservedMints - _reservedMints), \"Not enough NFTs left to mint..\") */\n      tag_334\n      jumpi\n      mload(0x40)\n      shl(0xe5, 0x461bcd)\n      dup2\n      mstore\n        /* \"#utility.yul\":9225:9227   */\n      0x20\n        /* \"EvolvedCamels.sol\":59125:59246  require(totalSupply() + number <= maxTotalTokens - (maxReservedMints - _reservedMints), \"Not enough NFTs left to mint..\") */\n      0x04\n      dup3\n      add\n        /* \"#utility.yul\":9207:9228   */\n      mstore\n        /* \"#utility.yul\":9264:9266   */\n      0x1e\n        /* \"#utility.yul\":9244:9262   */\n      0x24\n      dup3\n      add\n        /* \"#utility.yul\":9237:9267   */\n      mstore\n        /* \"#utility.yul\":9303:9335   */\n      0x4e6f7420656e6f756768204e465473206c65667420746f206d696e742e2e0000\n        /* \"#utility.yul\":9283:9301   */\n      0x44\n      dup3\n      add\n        /* \"#utility.yul\":9276:9336   */\n      mstore\n        /* \"#utility.yul\":9353:9371   */\n      0x64\n      add\n        /* \"EvolvedCamels.sol\":59125:59246  require(totalSupply() + number <= maxTotalTokens - (maxReservedMints - _reservedMints), \"Not enough NFTs left to mint..\") */\n      tag_302\n        /* \"#utility.yul\":9023:9377   */\n      jump\n        /* \"EvolvedCamels.sol\":59125:59246  require(totalSupply() + number <= maxTotalTokens - (maxReservedMints - _reservedMints), \"Not enough NFTs left to mint..\") */\n    tag_334:\n        /* \"EvolvedCamels.sol\":59307:59318  CrazyCamels */\n      sload(0x17)\n        /* \"EvolvedCamels.sol\":59307:59340  CrazyCamels.balanceOf(msg.sender) */\n      mload(0x40)\n      shl(0xe0, 0x70a08231)\n      dup2\n      mstore\n        /* \"EvolvedCamels.sol\":59329:59339  msg.sender */\n      caller\n        /* \"EvolvedCamels.sol\":59307:59340  CrazyCamels.balanceOf(msg.sender) */\n      0x04\n      dup3\n      add\n        /* \"#utility.yul\":2066:2140   */\n      mstore\n      sub(shl(0xa0, 0x01), 0x01)\n        /* \"EvolvedCamels.sol\":59307:59318  CrazyCamels */\n      swap1\n      swap2\n      and\n      swap1\n        /* \"EvolvedCamels.sol\":59307:59328  CrazyCamels.balanceOf */\n      0x70a08231\n      swap1\n        /* \"#utility.yul\":2039:2057   */\n      0x24\n      add\n        /* \"EvolvedCamels.sol\":59307:59340  CrazyCamels.balanceOf(msg.sender) */\n      0x20\n      mload(0x40)\n      dup1\n      dup4\n      sub\n      dup2\n      dup7\n      gas\n      staticcall\n      iszero\n      dup1\n      iszero\n      tag_339\n      jumpi\n      returndatasize\n      0x00\n      dup1\n      returndatacopy\n      revert(0x00, returndatasize)\n    tag_339:\n      pop\n      pop\n      pop\n      pop\n      mload(0x40)\n      returndatasize\n      not(0x1f)\n      0x1f\n      dup3\n      add\n      and\n      dup3\n      add\n      dup1\n      0x40\n      mstore\n      pop\n      dup2\n      add\n      swap1\n      tag_340\n      swap2\n      swap1\n      tag_341\n      jump\t// in\n    tag_340:\n        /* \"EvolvedCamels.sol\":59283:59293  msg.sender */\n      caller\n        /* \"EvolvedCamels.sol\":59265:59294  OGmintsPerAddress[msg.sender] */\n      0x00\n      swap1\n      dup2\n      mstore\n        /* \"EvolvedCamels.sol\":59265:59282  OGmintsPerAddress */\n      0x16\n        /* \"EvolvedCamels.sol\":59265:59294  OGmintsPerAddress[msg.sender] */\n      0x20\n      mstore\n      0x40\n      swap1\n      keccak256\n      sload\n        /* \"EvolvedCamels.sol\":59265:59303  OGmintsPerAddress[msg.sender] + number */\n      tag_342\n      swap1\n        /* \"EvolvedCamels.sol\":59297:59303  number */\n      dup4\n      swap1\n        /* \"EvolvedCamels.sol\":59265:59303  OGmintsPerAddress[msg.sender] + number */\n      tag_333\n      jump\t// in\n    tag_342:\n        /* \"EvolvedCamels.sol\":59265:59340  OGmintsPerAddress[msg.sender] + number <= CrazyCamels.balanceOf(msg.sender) */\n      gt\n      iszero\n        /* \"EvolvedCamels.sol\":59257:59378  require(OGmintsPerAddress[msg.sender] + number <= CrazyCamels.balanceOf(msg.sender), \"1 Mint per Crazy Camel NFT Owned!\") */\n      tag_343\n      jumpi\n      mload(0x40)\n      shl(0xe5, 0x461bcd)\n      dup2\n      mstore\n        /* \"#utility.yul\":9773:9775   */\n      0x20\n        /* \"EvolvedCamels.sol\":59257:59378  require(OGmintsPerAddress[msg.sender] + number <= CrazyCamels.balanceOf(msg.sender), \"1 Mint per Crazy Camel NFT Owned!\") */\n      0x04\n      dup3\n      add\n        /* \"#utility.yul\":9755:9776   */\n      mstore\n        /* \"#utility.yul\":9812:9814   */\n      0x21\n        /* \"#utility.yul\":9792:9810   */\n      0x24\n      dup3\n      add\n        /* \"#utility.yul\":9785:9815   */\n      mstore\n        /* \"#utility.yul\":9851:9885   */\n      0x31204d696e7420706572204372617a792043616d656c204e4654204f776e6564\n        /* \"#utility.yul\":9831:9849   */\n      0x44\n      dup3\n      add\n        /* \"#utility.yul\":9824:9886   */\n      mstore\n      shl(0xf8, 0x21)\n        /* \"#utility.yul\":9902:9920   */\n      0x64\n      dup3\n      add\n        /* \"#utility.yul\":9895:9926   */\n      mstore\n        /* \"#utility.yul\":9943:9962   */\n      0x84\n      add\n        /* \"EvolvedCamels.sol\":59257:59378  require(OGmintsPerAddress[msg.sender] + number <= CrazyCamels.balanceOf(msg.sender), \"1 Mint per Crazy Camel NFT Owned!\") */\n      tag_302\n        /* \"#utility.yul\":9571:9968   */\n      jump\n        /* \"EvolvedCamels.sol\":59257:59378  require(OGmintsPerAddress[msg.sender] + number <= CrazyCamels.balanceOf(msg.sender), \"1 Mint per Crazy Camel NFT Owned!\") */\n    tag_343:\n        /* \"EvolvedCamels.sol\":59399:59428  _safeMint(msg.sender, number) */\n      tag_346\n        /* \"EvolvedCamels.sol\":59409:59419  msg.sender */\n      caller\n        /* \"EvolvedCamels.sol\":59421:59427  number */\n      dup3\n        /* \"EvolvedCamels.sol\":59399:59408  _safeMint */\n      tag_347\n        /* \"EvolvedCamels.sol\":59399:59428  _safeMint(msg.sender, number) */\n      jump\t// in\n    tag_346:\n        /* \"EvolvedCamels.sol\":59457:59467  msg.sender */\n      caller\n        /* \"EvolvedCamels.sol\":59439:59468  OGmintsPerAddress[msg.sender] */\n      0x00\n      swap1\n      dup2\n      mstore\n        /* \"EvolvedCamels.sol\":59439:59456  OGmintsPerAddress */\n      0x16\n        /* \"EvolvedCamels.sol\":59439:59468  OGmintsPerAddress[msg.sender] */\n      0x20\n      mstore\n      0x40\n      dup2\n      keccak256\n        /* \"EvolvedCamels.sol\":59439:59478  OGmintsPerAddress[msg.sender] += number */\n      dup1\n      sload\n        /* \"EvolvedCamels.sol\":59472:59478  number */\n      dup4\n      swap3\n        /* \"EvolvedCamels.sol\":59439:59468  OGmintsPerAddress[msg.sender] */\n      swap1\n        /* \"EvolvedCamels.sol\":59439:59478  OGmintsPerAddress[msg.sender] += number */\n      tag_348\n      swap1\n        /* \"EvolvedCamels.sol\":59472:59478  number */\n      dup5\n      swap1\n        /* \"EvolvedCamels.sol\":59439:59478  OGmintsPerAddress[msg.sender] += number */\n      tag_333\n      jump\t// in\n    tag_348:\n      swap1\n      swap2\n      sstore\n      pop\n      pop\n      pop\n        /* \"EvolvedCamels.sol\":59022:59488  function OGSaleMint(uint256 number) public {... */\n      jump\t// out\n        /* \"EvolvedCamels.sol\":44750:45163  function approve(address to, uint256 tokenId) public override {... */\n    tag_105:\n        /* \"EvolvedCamels.sol\":44823:44836  address owner */\n      0x00\n        /* \"EvolvedCamels.sol\":44839:44863  ERC721A.ownerOf(tokenId) */\n      tag_350\n        /* \"EvolvedCamels.sol\":44855:44862  tokenId */\n      dup3\n        /* \"EvolvedCamels.sol\":44839:44854  ERC721A.ownerOf */\n      tag_190\n        /* \"EvolvedCamels.sol\":44839:44863  ERC721A.ownerOf(tokenId) */\n      jump\t// in\n    tag_350:\n        /* \"EvolvedCamels.sol\":44823:44863  address owner = ERC721A.ownerOf(tokenId) */\n      swap1\n      pop\n        /* \"EvolvedCamels.sol\":44888:44893  owner */\n      dup1\n      sub(shl(0xa0, 0x01), 0x01)\n        /* \"EvolvedCamels.sol\":44882:44893  to != owner */\n      and\n        /* \"EvolvedCamels.sol\":44882:44884  to */\n      dup4\n      sub(shl(0xa0, 0x01), 0x01)\n        /* \"EvolvedCamels.sol\":44882:44893  to != owner */\n      and\n      sub\n        /* \"EvolvedCamels.sol\":44874:44932  require(to != owner, 'ERC721A: approval to current owner') */\n      tag_351\n      jumpi\n      mload(0x40)\n      shl(0xe5, 0x461bcd)\n      dup2\n      mstore\n        /* \"#utility.yul\":10175:10177   */\n      0x20\n        /* \"EvolvedCamels.sol\":44874:44932  require(to != owner, 'ERC721A: approval to current owner') */\n      0x04\n      dup3\n      add\n        /* \"#utility.yul\":10157:10178   */\n      mstore\n        /* \"#utility.yul\":10214:10216   */\n      0x22\n        /* \"#utility.yul\":10194:10212   */\n      0x24\n      dup3\n      add\n        /* \"#utility.yul\":10187:10217   */\n      mstore\n        /* \"#utility.yul\":10253:10287   */\n      0x455243373231413a20617070726f76616c20746f2063757272656e74206f776e\n        /* \"#utility.yul\":10233:10251   */\n      0x44\n      dup3\n      add\n        /* \"#utility.yul\":10226:10288   */\n      mstore\n      shl(0xf1, 0x32b9)\n        /* \"#utility.yul\":10304:10322   */\n      0x64\n      dup3\n      add\n        /* \"#utility.yul\":10297:10329   */\n      mstore\n        /* \"#utility.yul\":10346:10365   */\n      0x84\n      add\n        /* \"EvolvedCamels.sol\":44874:44932  require(to != owner, 'ERC721A: approval to current owner') */\n      tag_302\n        /* \"#utility.yul\":9973:10371   */\n      jump\n        /* \"EvolvedCamels.sol\":44874:44932  require(to != owner, 'ERC721A: approval to current owner') */\n    tag_351:\n        /* \"EvolvedCamels.sol\":2879:2889  msg.sender */\n      caller\n      sub(shl(0xa0, 0x01), 0x01)\n        /* \"EvolvedCamels.sol\":44967:44988  _msgSender() == owner */\n      dup3\n      and\n      eq\n      dup1\n        /* \"EvolvedCamels.sol\":44967:45029  _msgSender() == owner || isApprovedForAll(owner, _msgSender()) */\n      tag_356\n      jumpi\n      pop\n        /* \"EvolvedCamels.sol\":44992:45029  isApprovedForAll(owner, _msgSender()) */\n      tag_356\n        /* \"EvolvedCamels.sol\":45009:45014  owner */\n      dup2\n        /* \"EvolvedCamels.sol\":2879:2889  msg.sender */\n      caller\n        /* \"EvolvedCamels.sol\":45874:46038  function isApprovedForAll(address owner, address operator) public view virtual override returns (bool) {... */\n      tag_274\n      jump\t// in\n        /* \"EvolvedCamels.sol\":44992:45029  isApprovedForAll(owner, _msgSender()) */\n    tag_356:\n        /* \"EvolvedCamels.sol\":44945:45114  require(... */\n      tag_358\n      jumpi\n      mload(0x40)\n      shl(0xe5, 0x461bcd)\n      dup2\n      mstore\n        /* \"#utility.yul\":10578:10580   */\n      0x20\n        /* \"EvolvedCamels.sol\":44945:45114  require(... */\n      0x04\n      dup3\n      add\n        /* \"#utility.yul\":10560:10581   */\n      mstore\n        /* \"#utility.yul\":10617:10619   */\n      0x39\n        /* \"#utility.yul\":10597:10615   */\n      0x24\n      dup3\n      add\n        /* \"#utility.yul\":10590:10620   */\n      mstore\n        /* \"#utility.yul\":10656:10690   */\n      0x455243373231413a20617070726f76652063616c6c6572206973206e6f74206f\n        /* \"#utility.yul\":10636:10654   */\n      0x44\n      dup3\n      add\n        /* \"#utility.yul\":10629:10691   */\n      mstore\n        /* \"#utility.yul\":10727:10754   */\n      0x776e6572206e6f7220617070726f76656420666f7220616c6c00000000000000\n        /* \"#utility.yul\":10707:10725   */\n      0x64\n      dup3\n      add\n        /* \"#utility.yul\":10700:10755   */\n      mstore\n        /* \"#utility.yul\":10772:10791   */\n      0x84\n      add\n        /* \"EvolvedCamels.sol\":44945:45114  require(... */\n      tag_302\n        /* \"#utility.yul\":10376:10797   */\n      jump\n        /* \"EvolvedCamels.sol\":44945:45114  require(... */\n    tag_358:\n        /* \"EvolvedCamels.sol\":45127:45155  _approve(to, tokenId, owner) */\n      tag_361\n        /* \"EvolvedCamels.sol\":45136:45138  to */\n      dup4\n        /* \"EvolvedCamels.sol\":45140:45147  tokenId */\n      dup4\n        /* \"EvolvedCamels.sol\":45149:45154  owner */\n      dup4\n        /* \"EvolvedCamels.sol\":45127:45135  _approve */\n      tag_362\n        /* \"EvolvedCamels.sol\":45127:45155  _approve(to, tokenId, owner) */\n      jump\t// in\n    tag_361:\n        /* \"EvolvedCamels.sol\":44812:45163  {... */\n      pop\n        /* \"EvolvedCamels.sol\":44750:45163  function approve(address to, uint256 tokenId) public override {... */\n      pop\n      pop\n      jump\t// out\n        /* \"EvolvedCamels.sol\":61639:61958  function reservedMint(uint number, address recipient) public onlyOwner {... */\n    tag_115:\n        /* \"EvolvedCamels.sol\":4084:4090  _owner */\n      and(sub(shl(0xa0, 0x01), 0x01), sload(0x07))\n        /* \"EvolvedCamels.sol\":2879:2889  msg.sender */\n      caller\n        /* \"EvolvedCamels.sol\":4231:4254  owner() == _msgSender() */\n      eq\n        /* \"EvolvedCamels.sol\":4223:4291  require(owner() == _msgSender(), \"Ownable: caller is not the owner\") */\n      tag_367\n      jumpi\n      mload(0x40)\n      shl(0xe5, 0x461bcd)\n      dup2\n      mstore\n        /* \"#utility.yul\":7326:7328   */\n      0x20\n        /* \"EvolvedCamels.sol\":4223:4291  require(owner() == _msgSender(), \"Ownable: caller is not the owner\") */\n      0x04\n      dup3\n      add\n        /* \"#utility.yul\":7308:7329   */\n      dup2\n      swap1\n      mstore\n        /* \"#utility.yul\":7345:7363   */\n      0x24\n      dup3\n      add\n        /* \"#utility.yul\":7338:7368   */\n      mstore\n      0x00\n      dup1\n      mload\n      0x20\n      data_9924ebdf1add33d25d4ef888e16131f0a5687b0580a36c21b5c301a6c462effe\n      dup4\n      codecopy\n      dup2\n      mload\n      swap2\n      mstore\n        /* \"#utility.yul\":7384:7402   */\n      0x44\n      dup3\n      add\n        /* \"#utility.yul\":7377:7439   */\n      mstore\n        /* \"#utility.yul\":7456:7474   */\n      0x64\n      add\n        /* \"EvolvedCamels.sol\":4223:4291  require(owner() == _msgSender(), \"Ownable: caller is not the owner\") */\n      tag_302\n        /* \"#utility.yul\":7124:7480   */\n      jump\n        /* \"EvolvedCamels.sol\":4223:4291  require(owner() == _msgSender(), \"Ownable: caller is not the owner\") */\n    tag_367:\n        /* \"EvolvedCamels.sol\":61756:61772  maxReservedMints */\n      sload(0x0f)\n        /* \"EvolvedCamels.sol\":61746:61752  number */\n      dup3\n        /* \"EvolvedCamels.sol\":61729:61743  _reservedMints */\n      sload(0x0e)\n        /* \"EvolvedCamels.sol\":61729:61752  _reservedMints + number */\n      tag_370\n      swap2\n      swap1\n      tag_333\n      jump\t// in\n    tag_370:\n        /* \"EvolvedCamels.sol\":61729:61772  _reservedMints + number <= maxReservedMints */\n      gt\n      iszero\n        /* \"EvolvedCamels.sol\":61721:61816  require(_reservedMints + number <= maxReservedMints, \"Not enough Reserved NFTs left to mint..\") */\n      tag_371\n      jumpi\n      mload(0x40)\n      shl(0xe5, 0x461bcd)\n      dup2\n      mstore\n        /* \"#utility.yul\":11004:11006   */\n      0x20\n        /* \"EvolvedCamels.sol\":61721:61816  require(_reservedMints + number <= maxReservedMints, \"Not enough Reserved NFTs left to mint..\") */\n      0x04\n      dup3\n      add\n        /* \"#utility.yul\":10986:11007   */\n      mstore\n        /* \"#utility.yul\":11043:11045   */\n      0x27\n        /* \"#utility.yul\":11023:11041   */\n      0x24\n      dup3\n      add\n        /* \"#utility.yul\":11016:11046   */\n      mstore\n        /* \"#utility.yul\":11082:11116   */\n      0x4e6f7420656e6f756768205265736572766564204e465473206c65667420746f\n        /* \"#utility.yul\":11062:11080   */\n      0x44\n      dup3\n      add\n        /* \"#utility.yul\":11055:11117   */\n      mstore\n        /* \"#utility.yul\":11153:11162   */\n      0x206d696e742e2e00000000000000000000000000000000000000000000000000\n        /* \"#utility.yul\":11133:11151   */\n      0x64\n      dup3\n      add\n        /* \"#utility.yul\":11126:11163   */\n      mstore\n        /* \"#utility.yul\":11180:11199   */\n      0x84\n      add\n        /* \"EvolvedCamels.sol\":61721:61816  require(_reservedMints + number <= maxReservedMints, \"Not enough Reserved NFTs left to mint..\") */\n      tag_302\n        /* \"#utility.yul\":10802:11205   */\n      jump\n        /* \"EvolvedCamels.sol\":61721:61816  require(_reservedMints + number <= maxReservedMints, \"Not enough Reserved NFTs left to mint..\") */\n    tag_371:\n        /* \"EvolvedCamels.sol\":61829:61857  _safeMint(recipient, number) */\n      tag_374\n        /* \"EvolvedCamels.sol\":61839:61848  recipient */\n      dup2\n        /* \"EvolvedCamels.sol\":61850:61856  number */\n      dup4\n        /* \"EvolvedCamels.sol\":61829:61838  _safeMint */\n      tag_347\n        /* \"EvolvedCamels.sol\":61829:61857  _safeMint(recipient, number) */\n      jump\t// in\n    tag_374:\n      sub(shl(0xa0, 0x01), 0x01)\n        /* \"EvolvedCamels.sol\":61868:61894  mintsPerAddress[recipient] */\n      dup2\n      and\n      0x00\n      swap1\n      dup2\n      mstore\n        /* \"EvolvedCamels.sol\":61868:61883  mintsPerAddress */\n      0x15\n        /* \"EvolvedCamels.sol\":61868:61894  mintsPerAddress[recipient] */\n      0x20\n      mstore\n      0x40\n      dup2\n      keccak256\n        /* \"EvolvedCamels.sol\":61868:61904  mintsPerAddress[recipient] += number */\n      dup1\n      sload\n        /* \"EvolvedCamels.sol\":61898:61904  number */\n      dup5\n      swap3\n        /* \"EvolvedCamels.sol\":61868:61894  mintsPerAddress[recipient] */\n      swap1\n        /* \"EvolvedCamels.sol\":61868:61904  mintsPerAddress[recipient] += number */\n      tag_375\n      swap1\n        /* \"EvolvedCamels.sol\":61898:61904  number */\n      dup5\n      swap1\n        /* \"EvolvedCamels.sol\":61868:61904  mintsPerAddress[recipient] += number */\n      tag_333\n      jump\t// in\n    tag_375:\n      swap3\n      pop\n      pop\n      dup2\n      swap1\n      sstore\n      pop\n        /* \"EvolvedCamels.sol\":61933:61939  number */\n      dup2\n        /* \"EvolvedCamels.sol\":61915:61929  _reservedMints */\n      0x0e\n      0x00\n        /* \"EvolvedCamels.sol\":61915:61939  _reservedMints += number */\n      dup3\n      dup3\n      sload\n      tag_376\n      swap2\n      swap1\n      tag_333\n      jump\t// in\n    tag_376:\n      swap1\n      swap2\n      sstore\n      pop\n      pop\n      pop\n      pop\n        /* \"EvolvedCamels.sol\":61639:61958  function reservedMint(uint number, address recipient) public onlyOwner {... */\n      jump\t// out\n        /* \"EvolvedCamels.sol\":64233:64557  function changeMaxMint(uint256 newMax) public onlyOwner {... */\n    tag_123:\n        /* \"EvolvedCamels.sol\":4084:4090  _owner */\n      and(sub(shl(0xa0, 0x01), 0x01), sload(0x07))\n        /* \"EvolvedCamels.sol\":2879:2889  msg.sender */\n      caller\n        /* \"EvolvedCamels.sol\":4231:4254  owner() == _msgSender() */\n      eq\n        /* \"EvolvedCamels.sol\":4223:4291  require(owner() == _msgSender(), \"Ownable: caller is not the owner\") */\n      tag_380\n      jumpi\n      mload(0x40)\n      shl(0xe5, 0x461bcd)\n      dup2\n      mstore\n        /* \"#utility.yul\":7326:7328   */\n      0x20\n        /* \"EvolvedCamels.sol\":4223:4291  require(owner() == _msgSender(), \"Ownable: caller is not the owner\") */\n      0x04\n      dup3\n      add\n        /* \"#utility.yul\":7308:7329   */\n      dup2\n      swap1\n      mstore\n        /* \"#utility.yul\":7345:7363   */\n      0x24\n      dup3\n      add\n        /* \"#utility.yul\":7338:7368   */\n      mstore\n      0x00\n      dup1\n      mload\n      0x20\n      data_9924ebdf1add33d25d4ef888e16131f0a5687b0580a36c21b5c301a6c462effe\n      dup4\n      codecopy\n      dup2\n      mload\n      swap2\n      mstore\n        /* \"#utility.yul\":7384:7402   */\n      0x44\n      dup3\n      add\n        /* \"#utility.yul\":7377:7439   */\n      mstore\n        /* \"#utility.yul\":7456:7474   */\n      0x64\n      add\n        /* \"EvolvedCamels.sol\":4223:4291  require(owner() == _msgSender(), \"Ownable: caller is not the owner\") */\n      tag_302\n        /* \"#utility.yul\":7124:7480   */\n      jump\n        /* \"EvolvedCamels.sol\":4223:4291  require(owner() == _msgSender(), \"Ownable: caller is not the owner\") */\n    tag_380:\n        /* \"EvolvedCamels.sol\":64317:64318  0 */\n      0x00\n        /* \"EvolvedCamels.sol\":64308:64314  newMax */\n      dup2\n        /* \"EvolvedCamels.sol\":64308:64318  newMax > 0 */\n      gt\n        /* \"EvolvedCamels.sol\":64300:64344  require(newMax > 0, \"Max Mint cannot be 0!\") */\n      tag_383\n      jumpi\n      mload(0x40)\n      shl(0xe5, 0x461bcd)\n      dup2\n      mstore\n        /* \"#utility.yul\":11412:11414   */\n      0x20\n        /* \"EvolvedCamels.sol\":64300:64344  require(newMax > 0, \"Max Mint cannot be 0!\") */\n      0x04\n      dup3\n      add\n        /* \"#utility.yul\":11394:11415   */\n      mstore\n        /* \"#utility.yul\":11451:11453   */\n      0x15\n        /* \"#utility.yul\":11431:11449   */\n      0x24\n      dup3\n      add\n        /* \"#utility.yul\":11424:11454   */\n      mstore\n        /* \"#utility.yul\":11490:11513   */\n      0x4d6178204d696e742063616e6e6f742062652030210000000000000000000000\n        /* \"#utility.yul\":11470:11488   */\n      0x44\n      dup3\n      add\n        /* \"#utility.yul\":11463:11514   */\n      mstore\n        /* \"#utility.yul\":11531:11549   */\n      0x64\n      add\n        /* \"EvolvedCamels.sol\":64300:64344  require(newMax > 0, \"Max Mint cannot be 0!\") */\n      tag_302\n        /* \"#utility.yul\":11210:11555   */\n      jump\n        /* \"EvolvedCamels.sol\":64300:64344  require(newMax > 0, \"Max Mint cannot be 0!\") */\n    tag_383:\n        /* \"EvolvedCamels.sol\":64355:64371  State saleState_ */\n      0x00\n        /* \"EvolvedCamels.sol\":64374:64385  saleState() */\n      tag_386\n        /* \"EvolvedCamels.sol\":64374:64383  saleState */\n      tag_184\n        /* \"EvolvedCamels.sol\":64374:64385  saleState() */\n      jump\t// in\n    tag_386:\n        /* \"EvolvedCamels.sol\":64355:64385  State saleState_ = saleState() */\n      swap1\n      pop\n        /* \"EvolvedCamels.sol\":64414:64430  State.PublicSale */\n      0x02\n        /* \"EvolvedCamels.sol\":64400:64410  saleState_ */\n      dup2\n        /* \"EvolvedCamels.sol\":64400:64430  saleState_ != State.PublicSale */\n      0x02\n      dup2\n      gt\n      iszero\n      tag_391\n      jumpi\n      tag_391\n      tag_389\n      jump\t// in\n    tag_391:\n      eq\n        /* \"EvolvedCamels.sol\":64396:64550  if (saleState_ != State.PublicSale) {... */\n      tag_392\n      jumpi\n      pop\n        /* \"EvolvedCamels.sol\":64447:64461  maxMintPresale */\n      0x0c\n        /* \"EvolvedCamels.sol\":64447:64470  maxMintPresale = newMax */\n      sstore\n        /* \"EvolvedCamels.sol\":64233:64557  function changeMaxMint(uint256 newMax) public onlyOwner {... */\n      jump\t// out\n        /* \"EvolvedCamels.sol\":64396:64550  if (saleState_ != State.PublicSale) {... */\n    tag_392:\n        /* \"EvolvedCamels.sol\":64512:64529  maxMintPublicSale */\n      0x0d\n        /* \"EvolvedCamels.sol\":64512:64538  maxMintPublicSale = newMax */\n      dup3\n      swap1\n      sstore\n        /* \"EvolvedCamels.sol\":64396:64550  if (saleState_ != State.PublicSale) {... */\n    tag_393:\n        /* \"EvolvedCamels.sol\":64289:64557  {... */\n      pop\n        /* \"EvolvedCamels.sol\":64233:64557  function changeMaxMint(uint256 newMax) public onlyOwner {... */\n      pop\n      jump\t// out\n        /* \"EvolvedCamels.sol\":46105:46275  function transferFrom(... */\n    tag_128:\n        /* \"EvolvedCamels.sol\":46239:46267  _transfer(from, to, tokenId) */\n      tag_361\n        /* \"EvolvedCamels.sol\":46249:46253  from */\n      dup4\n        /* \"EvolvedCamels.sol\":46255:46257  to */\n      dup4\n        /* \"EvolvedCamels.sol\":46259:46266  tokenId */\n      dup4\n        /* \"EvolvedCamels.sol\":46239:46248  _transfer */\n      tag_396\n        /* \"EvolvedCamels.sol\":46239:46267  _transfer(from, to, tokenId) */\n      jump\t// in\n        /* \"EvolvedCamels.sol\":40702:41709  function tokenOfOwnerByIndex(address owner, uint256 index) public view override returns (uint256) {... */\n    tag_132:\n        /* \"EvolvedCamels.sol\":40791:40798  uint256 */\n      0x00\n        /* \"EvolvedCamels.sol\":40827:40843  balanceOf(owner) */\n      tag_398\n        /* \"EvolvedCamels.sol\":40837:40842  owner */\n      dup4\n        /* \"EvolvedCamels.sol\":40827:40836  balanceOf */\n      tag_199\n        /* \"EvolvedCamels.sol\":40827:40843  balanceOf(owner) */\n      jump\t// in\n    tag_398:\n        /* \"EvolvedCamels.sol\":40819:40824  index */\n      dup3\n        /* \"EvolvedCamels.sol\":40819:40843  index < balanceOf(owner) */\n      lt\n        /* \"EvolvedCamels.sol\":40811:40882  require(index < balanceOf(owner), 'ERC721A: owner index out of bounds') */\n      tag_399\n      jumpi\n      mload(0x40)\n      shl(0xe5, 0x461bcd)\n      dup2\n      mstore\n        /* \"#utility.yul\":11762:11764   */\n      0x20\n        /* \"EvolvedCamels.sol\":40811:40882  require(index < balanceOf(owner), 'ERC721A: owner index out of bounds') */\n      0x04\n      dup3\n      add\n        /* \"#utility.yul\":11744:11765   */\n      mstore\n        /* \"#utility.yul\":11801:11803   */\n      0x22\n        /* \"#utility.yul\":11781:11799   */\n      0x24\n      dup3\n      add\n        /* \"#utility.yul\":11774:11804   */\n      mstore\n        /* \"#utility.yul\":11840:11874   */\n      0x455243373231413a206f776e657220696e646578206f7574206f6620626f756e\n        /* \"#utility.yul\":11820:11838   */\n      0x44\n      dup3\n      add\n        /* \"#utility.yul\":11813:11875   */\n      mstore\n      shl(0xf0, 0x6473)\n        /* \"#utility.yul\":11891:11909   */\n      0x64\n      dup3\n      add\n        /* \"#utility.yul\":11884:11916   */\n      mstore\n        /* \"#utility.yul\":11933:11952   */\n      0x84\n      add\n        /* \"EvolvedCamels.sol\":40811:40882  require(index < balanceOf(owner), 'ERC721A: owner index out of bounds') */\n      tag_302\n        /* \"#utility.yul\":11560:11958   */\n      jump\n        /* \"EvolvedCamels.sol\":40811:40882  require(index < balanceOf(owner), 'ERC721A: owner index out of bounds') */\n    tag_399:\n        /* \"EvolvedCamels.sol\":40893:40915  uint256 numMintedSoFar */\n      0x00\n        /* \"EvolvedCamels.sol\":40118:40130  currentIndex */\n      dup1\n      sload\n      swap1\n        /* \"EvolvedCamels.sol\":40893:40915  uint256 numMintedSoFar */\n      dup1\n      dup1\n        /* \"EvolvedCamels.sol\":41156:41622  for (uint256 i; i < numMintedSoFar; i++) {... */\n    tag_403:\n        /* \"EvolvedCamels.sol\":41176:41190  numMintedSoFar */\n      dup4\n        /* \"EvolvedCamels.sol\":41172:41173  i */\n      dup2\n        /* \"EvolvedCamels.sol\":41172:41190  i < numMintedSoFar */\n      lt\n        /* \"EvolvedCamels.sol\":41156:41622  for (uint256 i; i < numMintedSoFar; i++) {... */\n      iszero\n      tag_404\n      jumpi\n        /* \"EvolvedCamels.sol\":41216:41247  TokenOwnership memory ownership */\n      0x00\n        /* \"EvolvedCamels.sol\":41250:41264  _ownerships[i] */\n      dup2\n      dup2\n      mstore\n        /* \"EvolvedCamels.sol\":41250:41261  _ownerships */\n      0x03\n        /* \"EvolvedCamels.sol\":41250:41264  _ownerships[i] */\n      0x20\n      swap1\n      dup2\n      mstore\n      0x40\n      swap2\n      dup3\n      swap1\n      keccak256\n        /* \"EvolvedCamels.sol\":41216:41264  TokenOwnership memory ownership = _ownerships[i] */\n      dup3\n      mload\n      dup1\n      dup5\n      add\n      swap1\n      swap4\n      mstore\n      sload\n      sub(shl(0xa0, 0x01), 0x01)\n      dup2\n      and\n      dup1\n      dup5\n      mstore\n      shl(0xa0, 0x01)\n      swap1\n      swap2\n      div\n      0xffffffffffffffff\n      and\n      swap2\n      dup4\n      add\n      swap2\n      swap1\n      swap2\n      mstore\n        /* \"EvolvedCamels.sol\":41287:41315  ownership.addr != address(0) */\n      iszero\n        /* \"EvolvedCamels.sol\":41283:41394  if (ownership.addr != address(0)) {... */\n      tag_406\n      jumpi\n        /* \"EvolvedCamels.sol\":41360:41374  ownership.addr */\n      dup1\n      mload\n      swap3\n      pop\n        /* \"EvolvedCamels.sol\":41283:41394  if (ownership.addr != address(0)) {... */\n    tag_406:\n        /* \"EvolvedCamels.sol\":41437:41442  owner */\n      dup8\n      sub(shl(0xa0, 0x01), 0x01)\n        /* \"EvolvedCamels.sol\":41416:41442  currOwnershipAddr == owner */\n      and\n        /* \"EvolvedCamels.sol\":41416:41433  currOwnershipAddr */\n      dup4\n      sub(shl(0xa0, 0x01), 0x01)\n        /* \"EvolvedCamels.sol\":41416:41442  currOwnershipAddr == owner */\n      and\n      sub\n        /* \"EvolvedCamels.sol\":41412:41607  if (currOwnershipAddr == owner) {... */\n      tag_407\n      jumpi\n        /* \"EvolvedCamels.sol\":41486:41491  index */\n      dup7\n        /* \"EvolvedCamels.sol\":41471:41482  tokenIdsIdx */\n      dup5\n        /* \"EvolvedCamels.sol\":41471:41491  tokenIdsIdx == index */\n      sub\n        /* \"EvolvedCamels.sol\":41467:41552  if (tokenIdsIdx == index) {... */\n      tag_408\n      jumpi\n      pop\n        /* \"EvolvedCamels.sol\":41527:41528  i */\n      swap4\n      pop\n        /* \"EvolvedCamels.sol\":41520:41528  return i */\n      tag_309\n      swap3\n      pop\n      pop\n      pop\n      jump\n        /* \"EvolvedCamels.sol\":41467:41552  if (tokenIdsIdx == index) {... */\n    tag_408:\n        /* \"EvolvedCamels.sol\":41574:41587  tokenIdsIdx++ */\n      0x01\n      swap1\n      swap4\n      add\n      swap3\n        /* \"EvolvedCamels.sol\":41412:41607  if (currOwnershipAddr == owner) {... */\n    tag_407:\n      pop\n        /* \"EvolvedCamels.sol\":41192:41195  i++ */\n      0x01\n      add\n        /* \"EvolvedCamels.sol\":41156:41622  for (uint256 i; i < numMintedSoFar; i++) {... */\n      jump(tag_403)\n    tag_404:\n      pop\n        /* \"EvolvedCamels.sol\":41645:41701  revert('ERC721A: unable to get token of owner by index') */\n      mload(0x40)\n      shl(0xe5, 0x461bcd)\n      dup2\n      mstore\n        /* \"#utility.yul\":12165:12167   */\n      0x20\n        /* \"EvolvedCamels.sol\":41645:41701  revert('ERC721A: unable to get token of owner by index') */\n      0x04\n      dup3\n      add\n        /* \"#utility.yul\":12147:12168   */\n      mstore\n        /* \"#utility.yul\":12204:12206   */\n      0x2e\n        /* \"#utility.yul\":12184:12202   */\n      0x24\n      dup3\n      add\n        /* \"#utility.yul\":12177:12207   */\n      mstore\n        /* \"#utility.yul\":12243:12277   */\n      0x455243373231413a20756e61626c6520746f2067657420746f6b656e206f6620\n        /* \"#utility.yul\":12223:12241   */\n      0x44\n      dup3\n      add\n        /* \"#utility.yul\":12216:12278   */\n      mstore\n        /* \"#utility.yul\":12314:12330   */\n      0x6f776e657220627920696e646578000000000000000000000000000000000000\n        /* \"#utility.yul\":12294:12312   */\n      0x64\n      dup3\n      add\n        /* \"#utility.yul\":12287:12331   */\n      mstore\n        /* \"#utility.yul\":12348:12367   */\n      0x84\n      add\n        /* \"EvolvedCamels.sol\":41645:41701  revert('ERC721A: unable to get token of owner by index') */\n      tag_302\n        /* \"#utility.yul\":11963:12373   */\n      jump\n        /* \"EvolvedCamels.sol\":58657:58963  function isValidAccessMessage(address _add, uint8 _v, bytes32 _r, bytes32 _s) view public returns (bool) {... */\n    tag_143:\n        /* \"EvolvedCamels.sol\":58798:58835  abi.encodePacked(address(this), _add) */\n      mload(0x40)\n      not(0xffffffffffffffffffffffff)\n        /* \"EvolvedCamels.sol\":58823:58827  this */\n      address\n        /* \"#utility.yul\":12605:12607   */\n      0x60\n        /* \"#utility.yul\":12601:12616   */\n      swap1\n      dup2\n      shl\n        /* \"#utility.yul\":12597:12621   */\n      dup3\n      and\n        /* \"EvolvedCamels.sol\":58798:58835  abi.encodePacked(address(this), _add) */\n      0x20\n      dup5\n      add\n        /* \"#utility.yul\":12585:12622   */\n      mstore\n        /* \"#utility.yul\":12656:12671   */\n      dup7\n      swap1\n      shl\n        /* \"#utility.yul\":12652:12676   */\n      and\n        /* \"#utility.yul\":12638:12650   */\n      0x34\n      dup3\n      add\n        /* \"#utility.yul\":12631:12677   */\n      mstore\n        /* \"EvolvedCamels.sol\":58756:58760  bool */\n      0x00\n      swap1\n      dup2\n      swap1\n        /* \"#utility.yul\":12693:12705   */\n      0x48\n      add\n        /* \"EvolvedCamels.sol\":58798:58835  abi.encodePacked(address(this), _add) */\n      mload(0x40)\n      0x20\n      dup2\n      dup4\n      sub\n      sub\n      dup2\n      mstore\n      swap1\n      0x40\n      mstore\n        /* \"EvolvedCamels.sol\":58788:58836  keccak256(abi.encodePacked(address(this), _add)) */\n      dup1\n      mload\n      swap1\n      0x20\n      add\n      keccak256\n        /* \"EvolvedCamels.sol\":58773:58836  bytes32 hash = keccak256(abi.encodePacked(address(this), _add)) */\n      swap1\n      pop\n        /* \"EvolvedCamels.sol\":58863:58955  ecrecover(keccak256(abi.encodePacked(\"\\x19Ethereum Signed Message:\\n32\", hash)), _v, _r, _s) */\n      0x01\n        /* \"EvolvedCamels.sol\":58936:58940  hash */\n      dup2\n        /* \"EvolvedCamels.sol\":58883:58941  abi.encodePacked(\"\\x19Ethereum Signed Message:\\n32\", hash) */\n      add(0x20, mload(0x40))\n      tag_414\n      swap2\n      swap1\n        /* \"#utility.yul\":12958:13024   */\n      0x19457468657265756d205369676e6564204d6573736167653a0a333200000000\n        /* \"#utility.yul\":12946:13025   */\n      dup2\n      mstore\n        /* \"#utility.yul\":13050:13052   */\n      0x1c\n        /* \"#utility.yul\":13041:13053   */\n      dup2\n      add\n        /* \"#utility.yul\":13034:13062   */\n      swap2\n      swap1\n      swap2\n      mstore\n        /* \"#utility.yul\":13087:13089   */\n      0x3c\n        /* \"#utility.yul\":13078:13090   */\n      add\n      swap1\n        /* \"#utility.yul\":12716:13096   */\n      jump\n        /* \"EvolvedCamels.sol\":58883:58941  abi.encodePacked(\"\\x19Ethereum Signed Message:\\n32\", hash) */\n    tag_414:\n      0x40\n      dup1\n      mload\n      not(0x1f)\n      dup2\n      dup5\n      sub\n      add\n      dup2\n      mstore\n      dup3\n      dup3\n      mstore\n        /* \"EvolvedCamels.sol\":58873:58942  keccak256(abi.encodePacked(\"\\x19Ethereum Signed Message:\\n32\", hash)) */\n      dup1\n      mload\n        /* \"EvolvedCamels.sol\":58883:58941  abi.encodePacked(\"\\x19Ethereum Signed Message:\\n32\", hash) */\n      0x20\n        /* \"EvolvedCamels.sol\":58873:58942  keccak256(abi.encodePacked(\"\\x19Ethereum Signed Message:\\n32\", hash)) */\n      swap2\n      dup3\n      add\n      keccak256\n        /* \"EvolvedCamels.sol\":58863:58955  ecrecover(keccak256(abi.encodePacked(\"\\x19Ethereum Signed Message:\\n32\", hash)), _v, _r, _s) */\n      0x00\n      dup5\n      mstore\n      swap1\n      dup4\n      add\n      dup1\n      dup4\n      mstore\n        /* \"#utility.yul\":13328:13353   */\n      mstore\n        /* \"#utility.yul\":13401:13405   */\n      0xff\n        /* \"#utility.yul\":13389:13406   */\n      dup9\n      and\n        /* \"#utility.yul\":13369:13387   */\n      swap1\n      dup3\n      add\n        /* \"#utility.yul\":13362:13407   */\n      mstore\n        /* \"#utility.yul\":13423:13441   */\n      0x60\n      dup2\n      add\n        /* \"#utility.yul\":13416:13450   */\n      dup7\n      swap1\n      mstore\n        /* \"#utility.yul\":13466:13484   */\n      0x80\n      dup2\n      add\n        /* \"#utility.yul\":13459:13493   */\n      dup6\n      swap1\n      mstore\n        /* \"#utility.yul\":13300:13319   */\n      0xa0\n      add\n        /* \"EvolvedCamels.sol\":58863:58955  ecrecover(keccak256(abi.encodePacked(\"\\x19Ethereum Signed Message:\\n32\", hash)), _v, _r, _s) */\n      0x20\n      mload(0x40)\n      0x20\n      dup2\n      sub\n      swap1\n      dup1\n      dup5\n      sub\n      swap1\n      dup6\n      gas\n      staticcall\n      iszero\n      dup1\n      iszero\n      tag_419\n      jumpi\n      returndatasize\n      0x00\n      dup1\n      returndatacopy\n      revert(0x00, returndatasize)\n    tag_419:\n      pop\n      pop\n      mload(add(not(0x1f), mload(0x40)))\n        /* \"EvolvedCamels.sol\":58854:58859  dummy */\n      sload(0x10)\n      sub(shl(0xa0, 0x01), 0x01)\n      swap1\n      dup2\n      and\n        /* \"EvolvedCamels.sol\":58854:58955  dummy == ecrecover(keccak256(abi.encodePacked(\"\\x19Ethereum Signed Message:\\n32\", hash)), _v, _r, _s) */\n      swap2\n      and\n      eq\n      swap3\n      pop\n      pop\n      pop\n        /* \"EvolvedCamels.sol\":58657:58963  function isValidAccessMessage(address _add, uint8 _v, bytes32 _r, bytes32 _s) view public returns (bool) {... */\n    tag_411:\n      swap5\n      swap4\n      pop\n      pop\n      pop\n      pop\n      jump\t// out\n        /* \"EvolvedCamels.sol\":57460:57569  function changeBaseURI(string memory baseURI_) public onlyOwner {... */\n    tag_149:\n        /* \"EvolvedCamels.sol\":4084:4090  _owner */\n      and(sub(shl(0xa0, 0x01), 0x01), sload(0x07))\n        /* \"EvolvedCamels.sol\":2879:2889  msg.sender */\n      caller\n        /* \"EvolvedCamels.sol\":4231:4254  owner() == _msgSender() */\n      eq\n        /* \"EvolvedCamels.sol\":4223:4291  require(owner() == _msgSender(), \"Ownable: caller is not the owner\") */\n      tag_423\n      jumpi\n      mload(0x40)\n      shl(0xe5, 0x461bcd)\n      dup2\n      mstore\n        /* \"#utility.yul\":7326:7328   */\n      0x20\n        /* \"EvolvedCamels.sol\":4223:4291  require(owner() == _msgSender(), \"Ownable: caller is not the owner\") */\n      0x04\n      dup3\n      add\n        /* \"#utility.yul\":7308:7329   */\n      dup2\n      swap1\n      mstore\n        /* \"#utility.yul\":7345:7363   */\n      0x24\n      dup3\n      add\n        /* \"#utility.yul\":7338:7368   */\n      mstore\n      0x00\n      dup1\n      mload\n      0x20\n      data_9924ebdf1add33d25d4ef888e16131f0a5687b0580a36c21b5c301a6c462effe\n      dup4\n      codecopy\n      dup2\n      mload\n      swap2\n      mstore\n        /* \"#utility.yul\":7384:7402   */\n      0x44\n      dup3\n      add\n        /* \"#utility.yul\":7377:7439   */\n      mstore\n        /* \"#utility.yul\":7456:7474   */\n      0x64\n      add\n        /* \"EvolvedCamels.sol\":4223:4291  require(owner() == _msgSender(), \"Ownable: caller is not the owner\") */\n      tag_302\n        /* \"#utility.yul\":7124:7480   */\n      jump\n        /* \"EvolvedCamels.sol\":4223:4291  require(owner() == _msgSender(), \"Ownable: caller is not the owner\") */\n    tag_423:\n        /* \"EvolvedCamels.sol\":57535:57561  _currentBaseURI = baseURI_ */\n      dup1\n      mload\n      tag_393\n      swap1\n        /* \"EvolvedCamels.sol\":57535:57550  _currentBaseURI */\n      0x09\n      swap1\n        /* \"EvolvedCamels.sol\":57535:57561  _currentBaseURI = baseURI_ */\n      0x20\n      dup5\n      add\n      swap1\n      tag_427\n      jump\t// in\n        /* \"EvolvedCamels.sol\":65525:65816  function OGMintsLeft(address account) public view returns(uint) {... */\n    tag_153:\n        /* \"EvolvedCamels.sol\":65634:65645  CrazyCamels */\n      sload(0x17)\n        /* \"EvolvedCamels.sol\":65634:65664  CrazyCamels.balanceOf(account) */\n      mload(0x40)\n      shl(0xe0, 0x70a08231)\n      dup2\n      mstore\n      sub(shl(0xa0, 0x01), 0x01)\n        /* \"#utility.yul\":2084:2139   */\n      dup4\n      dup2\n      and\n        /* \"EvolvedCamels.sol\":65634:65664  CrazyCamels.balanceOf(account) */\n      0x04\n      dup4\n      add\n        /* \"#utility.yul\":2066:2140   */\n      mstore\n        /* \"EvolvedCamels.sol\":65583:65587  uint */\n      0x00\n      swap3\n        /* \"EvolvedCamels.sol\":65634:65645  CrazyCamels */\n      and\n      swap1\n        /* \"EvolvedCamels.sol\":65634:65655  CrazyCamels.balanceOf */\n      0x70a08231\n      swap1\n        /* \"#utility.yul\":2039:2057   */\n      0x24\n      add\n        /* \"EvolvedCamels.sol\":65634:65664  CrazyCamels.balanceOf(account) */\n      0x20\n      mload(0x40)\n      dup1\n      dup4\n      sub\n      dup2\n      dup7\n      gas\n      staticcall\n      iszero\n      dup1\n      iszero\n      tag_431\n      jumpi\n      returndatasize\n      0x00\n      dup1\n      returndatacopy\n      revert(0x00, returndatasize)\n    tag_431:\n      pop\n      pop\n      pop\n      pop\n      mload(0x40)\n      returndatasize\n      not(0x1f)\n      0x1f\n      dup3\n      add\n      and\n      dup3\n      add\n      dup1\n      0x40\n      mstore\n      pop\n      dup2\n      add\n      swap1\n      tag_432\n      swap2\n      swap1\n      tag_341\n      jump\t// in\n    tag_432:\n      sub(shl(0xa0, 0x01), 0x01)\n        /* \"EvolvedCamels.sol\":65604:65630  OGmintsPerAddress[account] */\n      dup4\n      and\n      0x00\n      swap1\n      dup2\n      mstore\n        /* \"EvolvedCamels.sol\":65604:65621  OGmintsPerAddress */\n      0x16\n        /* \"EvolvedCamels.sol\":65604:65630  OGmintsPerAddress[account] */\n      0x20\n      mstore\n      0x40\n      swap1\n      keccak256\n      sload\n        /* \"EvolvedCamels.sol\":65604:65664  OGmintsPerAddress[account] >= CrazyCamels.balanceOf(account) */\n      lt\n        /* \"EvolvedCamels.sol\":65600:65809  if (OGmintsPerAddress[account] >= CrazyCamels.balanceOf(account)) {... */\n      tag_433\n      jumpi\n      pop\n        /* \"EvolvedCamels.sol\":65688:65689  0 */\n      0x00\n      swap2\n        /* \"EvolvedCamels.sol\":65525:65816  function OGMintsLeft(address account) public view returns(uint) {... */\n      swap1\n      pop\n      jump\t// out\n        /* \"EvolvedCamels.sol\":65600:65809  if (OGmintsPerAddress[account] >= CrazyCamels.balanceOf(account)) {... */\n    tag_433:\n      sub(shl(0xa0, 0x01), 0x01)\n        /* \"EvolvedCamels.sol\":65771:65797  OGmintsPerAddress[account] */\n      dup3\n      dup2\n      and\n      0x00\n      dup2\n      dup2\n      mstore\n        /* \"EvolvedCamels.sol\":65771:65788  OGmintsPerAddress */\n      0x16\n        /* \"EvolvedCamels.sol\":65771:65797  OGmintsPerAddress[account] */\n      0x20\n      mstore\n      0x40\n      swap1\n      dup2\n      swap1\n      keccak256\n      sload\n        /* \"EvolvedCamels.sol\":65738:65749  CrazyCamels */\n      sload(0x17)\n        /* \"EvolvedCamels.sol\":65738:65768  CrazyCamels.balanceOf(account) */\n      swap2\n      mload\n      shl(0xe0, 0x70a08231)\n      dup2\n      mstore\n      0x04\n      dup2\n      add\n        /* \"#utility.yul\":2066:2140   */\n      swap4\n      swap1\n      swap4\n      mstore\n        /* \"EvolvedCamels.sol\":65771:65797  OGmintsPerAddress[account] */\n      swap3\n        /* \"EvolvedCamels.sol\":65738:65749  CrazyCamels */\n      and\n      swap1\n        /* \"EvolvedCamels.sol\":65738:65759  CrazyCamels.balanceOf */\n      0x70a08231\n      swap1\n        /* \"#utility.yul\":2039:2057   */\n      0x24\n      add\n        /* \"EvolvedCamels.sol\":65738:65768  CrazyCamels.balanceOf(account) */\n      0x20\n      mload(0x40)\n      dup1\n      dup4\n      sub\n      dup2\n      dup7\n      gas\n      staticcall\n      iszero\n      dup1\n      iszero\n      tag_437\n      jumpi\n      returndatasize\n      0x00\n      dup1\n      returndatacopy\n      revert(0x00, returndatasize)\n    tag_437:\n      pop\n      pop\n      pop\n      pop\n      mload(0x40)\n      returndatasize\n      not(0x1f)\n      0x1f\n      dup3\n      add\n      and\n      dup3\n      add\n      dup1\n      0x40\n      mstore\n      pop\n      dup2\n      add\n      swap1\n      tag_438\n      swap2\n      swap1\n      tag_341\n      jump\t// in\n    tag_438:\n        /* \"EvolvedCamels.sol\":65738:65797  CrazyCamels.balanceOf(account) - OGmintsPerAddress[account] */\n      tag_309\n      swap2\n      swap1\n      tag_329\n      jump\t// in\n        /* \"EvolvedCamels.sol\":65600:65809  if (OGmintsPerAddress[account] >= CrazyCamels.balanceOf(account)) {... */\n    tag_434:\n        /* \"EvolvedCamels.sol\":65525:65816  function OGMintsLeft(address account) public view returns(uint) {... */\n      swap2\n      swap1\n      pop\n      jump\t// out\n        /* \"EvolvedCamels.sol\":62177:62526  function withdraw() public onlyOwner {... */\n    tag_157:\n        /* \"EvolvedCamels.sol\":4084:4090  _owner */\n      and(sub(shl(0xa0, 0x01), 0x01), sload(0x07))\n        /* \"EvolvedCamels.sol\":2879:2889  msg.sender */\n      caller\n        /* \"EvolvedCamels.sol\":4231:4254  owner() == _msgSender() */\n      eq\n        /* \"EvolvedCamels.sol\":4223:4291  require(owner() == _msgSender(), \"Ownable: caller is not the owner\") */\n      tag_443\n      jumpi\n      mload(0x40)\n      shl(0xe5, 0x461bcd)\n      dup2\n      mstore\n        /* \"#utility.yul\":7326:7328   */\n      0x20\n        /* \"EvolvedCamels.sol\":4223:4291  require(owner() == _msgSender(), \"Ownable: caller is not the owner\") */\n      0x04\n      dup3\n      add\n        /* \"#utility.yul\":7308:7329   */\n      dup2\n      swap1\n      mstore\n        /* \"#utility.yul\":7345:7363   */\n      0x24\n      dup3\n      add\n        /* \"#utility.yul\":7338:7368   */\n      mstore\n      0x00\n      dup1\n      mload\n      0x20\n      data_9924ebdf1add33d25d4ef888e16131f0a5687b0580a36c21b5c301a6c462effe\n      dup4\n      codecopy\n      dup2\n      mload\n      swap2\n      mstore\n        /* \"#utility.yul\":7384:7402   */\n      0x44\n      dup3\n      add\n        /* \"#utility.yul\":7377:7439   */\n      mstore\n        /* \"#utility.yul\":7456:7474   */\n      0x64\n      add\n        /* \"EvolvedCamels.sol\":4223:4291  require(owner() == _msgSender(), \"Ownable: caller is not the owner\") */\n      tag_302\n        /* \"#utility.yul\":7124:7480   */\n      jump\n        /* \"EvolvedCamels.sol\":4223:4291  require(owner() == _msgSender(), \"Ownable: caller is not the owner\") */\n    tag_443:\n        /* \"EvolvedCamels.sol\":62225:62240  uint256 balance */\n      0x00\n        /* \"EvolvedCamels.sol\":62243:62259  accountBalance() */\n      tag_446\n        /* \"EvolvedCamels.sol\":62243:62257  accountBalance */\n      tag_234\n        /* \"EvolvedCamels.sol\":62243:62259  accountBalance() */\n      jump\t// in\n    tag_446:\n        /* \"EvolvedCamels.sol\":62225:62259  uint256 balance = accountBalance() */\n      swap1\n      pop\n        /* \"EvolvedCamels.sol\":62288:62289  0 */\n      0x00\n        /* \"EvolvedCamels.sol\":62278:62285  balance */\n      dup2\n        /* \"EvolvedCamels.sol\":62278:62289  balance > 0 */\n      gt\n        /* \"EvolvedCamels.sol\":62270:62328  require(balance > 0, 'No Funds to withdraw, Balance is 0') */\n      tag_447\n      jumpi\n      mload(0x40)\n      shl(0xe5, 0x461bcd)\n      dup2\n      mstore\n        /* \"#utility.yul\":13706:13708   */\n      0x20\n        /* \"EvolvedCamels.sol\":62270:62328  require(balance > 0, 'No Funds to withdraw, Balance is 0') */\n      0x04\n      dup3\n      add\n        /* \"#utility.yul\":13688:13709   */\n      mstore\n        /* \"#utility.yul\":13745:13747   */\n      0x22\n        /* \"#utility.yul\":13725:13743   */\n      0x24\n      dup3\n      add\n        /* \"#utility.yul\":13718:13748   */\n      mstore\n        /* \"#utility.yul\":13784:13818   */\n      0x4e6f2046756e647320746f2077697468647261772c2042616c616e6365206973\n        /* \"#utility.yul\":13764:13782   */\n      0x44\n      dup3\n      add\n        /* \"#utility.yul\":13757:13819   */\n      mstore\n      shl(0xf4, 0x0203)\n        /* \"#utility.yul\":13835:13853   */\n      0x64\n      dup3\n      add\n        /* \"#utility.yul\":13828:13860   */\n      mstore\n        /* \"#utility.yul\":13877:13896   */\n      0x84\n      add\n        /* \"EvolvedCamels.sol\":62270:62328  require(balance > 0, 'No Funds to withdraw, Balance is 0') */\n      tag_302\n        /* \"#utility.yul\":13504:13902   */\n      jump\n        /* \"EvolvedCamels.sol\":62270:62328  require(balance > 0, 'No Funds to withdraw, Balance is 0') */\n    tag_447:\n        /* \"EvolvedCamels.sol\":62341:62425  _withdraw(payable(0x256390D941187F536Dd56Ba224e779786c6265A0), (balance * 66) / 100) */\n      tag_450\n        /* \"EvolvedCamels.sol\":62359:62401  0x256390D941187F536Dd56Ba224e779786c6265A0 */\n      0x256390d941187f536dd56ba224e779786c6265a0\n        /* \"EvolvedCamels.sol\":62421:62424  100 */\n      0x64\n        /* \"EvolvedCamels.sol\":62405:62417  balance * 66 */\n      tag_451\n        /* \"EvolvedCamels.sol\":62405:62412  balance */\n      dup5\n        /* \"EvolvedCamels.sol\":62415:62417  66 */\n      0x42\n        /* \"EvolvedCamels.sol\":62405:62417  balance * 66 */\n      tag_452\n      jump\t// in\n    tag_451:\n        /* \"EvolvedCamels.sol\":62404:62424  (balance * 66) / 100 */\n      tag_453\n      swap2\n      swap1\n      tag_454\n      jump\t// in\n    tag_453:\n        /* \"EvolvedCamels.sol\":62341:62350  _withdraw */\n      tag_455\n        /* \"EvolvedCamels.sol\":62341:62425  _withdraw(payable(0x256390D941187F536Dd56Ba224e779786c6265A0), (balance * 66) / 100) */\n      jump\t// in\n    tag_450:\n        /* \"EvolvedCamels.sol\":62437:62517  _withdraw(payable(0xF22305ad50E7b36A81EF08d0995Ef3F3788b20F0), accountBalance()) */\n      tag_456\n        /* \"EvolvedCamels.sol\":62455:62497  0xF22305ad50E7b36A81EF08d0995Ef3F3788b20F0 */\n      0xf22305ad50e7b36a81ef08d0995ef3f3788b20f0\n        /* \"EvolvedCamels.sol\":62500:62516  accountBalance() */\n      tag_453\n        /* \"EvolvedCamels.sol\":62500:62514  accountBalance */\n      tag_234\n        /* \"EvolvedCamels.sol\":62500:62516  accountBalance() */\n      jump\t// in\n        /* \"EvolvedCamels.sol\":62437:62517  _withdraw(payable(0xF22305ad50E7b36A81EF08d0995Ef3F3788b20F0), accountBalance()) */\n    tag_456:\n        /* \"EvolvedCamels.sol\":62214:62526  {... */\n      pop\n        /* \"EvolvedCamels.sol\":62177:62526  function withdraw() public onlyOwner {... */\n      jump\t// out\n        /* \"EvolvedCamels.sol\":46346:46531  function safeTransferFrom(... */\n    tag_161:\n        /* \"EvolvedCamels.sol\":46484:46523  safeTransferFrom(from, to, tokenId, '') */\n      tag_361\n        /* \"EvolvedCamels.sol\":46501:46505  from */\n      dup4\n        /* \"EvolvedCamels.sol\":46507:46509  to */\n      dup4\n        /* \"EvolvedCamels.sol\":46511:46518  tokenId */\n      dup4\n        /* \"EvolvedCamels.sol\":46484:46523  safeTransferFrom(from, to, tokenId, '') */\n      mload(0x40)\n      dup1\n      0x20\n      add\n      0x40\n      mstore\n      dup1\n      0x00\n      dup2\n      mstore\n      pop\n        /* \"EvolvedCamels.sol\":46484:46500  safeTransferFrom */\n      tag_247\n        /* \"EvolvedCamels.sol\":46484:46523  safeTransferFrom(from, to, tokenId, '') */\n      jump\t// in\n        /* \"EvolvedCamels.sol\":63012:63136  function reservedMintsLeft() public onlyOwner view returns(uint) {... */\n    tag_164:\n        /* \"EvolvedCamels.sol\":4084:4090  _owner */\n      sload(0x07)\n        /* \"EvolvedCamels.sol\":63071:63075  uint */\n      0x00\n      swap1\n      sub(shl(0xa0, 0x01), 0x01)\n        /* \"EvolvedCamels.sol\":4084:4090  _owner */\n      and\n        /* \"EvolvedCamels.sol\":2879:2889  msg.sender */\n      caller\n        /* \"EvolvedCamels.sol\":4231:4254  owner() == _msgSender() */\n      eq\n        /* \"EvolvedCamels.sol\":4223:4291  require(owner() == _msgSender(), \"Ownable: caller is not the owner\") */\n      tag_463\n      jumpi\n      mload(0x40)\n      shl(0xe5, 0x461bcd)\n      dup2\n      mstore\n        /* \"#utility.yul\":7326:7328   */\n      0x20\n        /* \"EvolvedCamels.sol\":4223:4291  require(owner() == _msgSender(), \"Ownable: caller is not the owner\") */\n      0x04\n      dup3\n      add\n        /* \"#utility.yul\":7308:7329   */\n      dup2\n      swap1\n      mstore\n        /* \"#utility.yul\":7345:7363   */\n      0x24\n      dup3\n      add\n        /* \"#utility.yul\":7338:7368   */\n      mstore\n      0x00\n      dup1\n      mload\n      0x20\n      data_9924ebdf1add33d25d4ef888e16131f0a5687b0580a36c21b5c301a6c462effe\n      dup4\n      codecopy\n      dup2\n      mload\n      swap2\n      mstore\n        /* \"#utility.yul\":7384:7402   */\n      0x44\n      dup3\n      add\n        /* \"#utility.yul\":7377:7439   */\n      mstore\n        /* \"#utility.yul\":7456:7474   */\n      0x64\n      add\n        /* \"EvolvedCamels.sol\":4223:4291  require(owner() == _msgSender(), \"Ownable: caller is not the owner\") */\n      tag_302\n        /* \"#utility.yul\":7124:7480   */\n      jump\n        /* \"EvolvedCamels.sol\":4223:4291  require(owner() == _msgSender(), \"Ownable: caller is not the owner\") */\n    tag_463:\n        /* \"EvolvedCamels.sol\":63114:63128  _reservedMints */\n      sload(0x0e)\n        /* \"EvolvedCamels.sol\":63095:63111  maxReservedMints */\n      sload(0x0f)\n        /* \"EvolvedCamels.sol\":63095:63128  maxReservedMints - _reservedMints */\n      tag_466\n      swap2\n      swap1\n      tag_329\n      jump\t// in\n    tag_466:\n        /* \"EvolvedCamels.sol\":63088:63128  return maxReservedMints - _reservedMints */\n      swap1\n      pop\n        /* \"EvolvedCamels.sol\":63012:63136  function reservedMintsLeft() public onlyOwner view returns(uint) {... */\n      swap1\n      jump\t// out\n        /* \"EvolvedCamels.sol\":65430:65513  function toggleOGPause() public onlyOwner {... */\n    tag_172:\n        /* \"EvolvedCamels.sol\":4084:4090  _owner */\n      and(sub(shl(0xa0, 0x01), 0x01), sload(0x07))\n        /* \"EvolvedCamels.sol\":2879:2889  msg.sender */\n      caller\n        /* \"EvolvedCamels.sol\":4231:4254  owner() == _msgSender() */\n      eq\n        /* \"EvolvedCamels.sol\":4223:4291  require(owner() == _msgSender(), \"Ownable: caller is not the owner\") */\n      tag_471\n      jumpi\n      mload(0x40)\n      shl(0xe5, 0x461bcd)\n      dup2\n      mstore\n        /* \"#utility.yul\":7326:7328   */\n      0x20\n        /* \"EvolvedCamels.sol\":4223:4291  require(owner() == _msgSender(), \"Ownable: caller is not the owner\") */\n      0x04\n      dup3\n      add\n        /* \"#utility.yul\":7308:7329   */\n      dup2\n      swap1\n      mstore\n        /* \"#utility.yul\":7345:7363   */\n      0x24\n      dup3\n      add\n        /* \"#utility.yul\":7338:7368   */\n      mstore\n      0x00\n      dup1\n      mload\n      0x20\n      data_9924ebdf1add33d25d4ef888e16131f0a5687b0580a36c21b5c301a6c462effe\n      dup4\n      codecopy\n      dup2\n      mload\n      swap2\n      mstore\n        /* \"#utility.yul\":7384:7402   */\n      0x44\n      dup3\n      add\n        /* \"#utility.yul\":7377:7439   */\n      mstore\n        /* \"#utility.yul\":7456:7474   */\n      0x64\n      add\n        /* \"EvolvedCamels.sol\":4223:4291  require(owner() == _msgSender(), \"Ownable: caller is not the owner\") */\n      tag_302\n        /* \"#utility.yul\":7124:7480   */\n      jump\n        /* \"EvolvedCamels.sol\":4223:4291  require(owner() == _msgSender(), \"Ownable: caller is not the owner\") */\n    tag_471:\n        /* \"EvolvedCamels.sol\":65496:65505  OGpaused_ */\n      0x14\n      dup1\n      sload\n      not(0xff00)\n        /* \"EvolvedCamels.sol\":65483:65505  OGpaused_ = !OGpaused_ */\n      dup2\n      and\n        /* \"EvolvedCamels.sol\":65496:65505  OGpaused_ */\n      0x0100\n      swap2\n      dup3\n      swap1\n      div\n      0xff\n      and\n        /* \"EvolvedCamels.sol\":65495:65505  !OGpaused_ */\n      iszero\n        /* \"EvolvedCamels.sol\":65483:65505  OGpaused_ = !OGpaused_ */\n      swap1\n      swap2\n      mul\n      or\n      swap1\n      sstore\n        /* \"EvolvedCamels.sol\":65430:65513  function toggleOGPause() public onlyOwner {... */\n      jump\t// out\n        /* \"EvolvedCamels.sol\":40215:40402  function tokenByIndex(uint256 index) public view override returns (uint256) {... */\n    tag_176:\n        /* \"EvolvedCamels.sol\":40282:40289  uint256 */\n      0x00\n        /* \"EvolvedCamels.sol\":40118:40130  currentIndex */\n      dup1\n      sload\n        /* \"EvolvedCamels.sol\":40310:40315  index */\n      dup3\n        /* \"EvolvedCamels.sol\":40310:40331  index < totalSupply() */\n      lt\n        /* \"EvolvedCamels.sol\":40302:40371  require(index < totalSupply(), 'ERC721A: global index out of bounds') */\n      tag_476\n      jumpi\n      mload(0x40)\n      shl(0xe5, 0x461bcd)\n      dup2\n      mstore\n        /* \"#utility.yul\":14539:14541   */\n      0x20\n        /* \"EvolvedCamels.sol\":40302:40371  require(index < totalSupply(), 'ERC721A: global index out of bounds') */\n      0x04\n      dup3\n      add\n        /* \"#utility.yul\":14521:14542   */\n      mstore\n        /* \"#utility.yul\":14578:14580   */\n      0x23\n        /* \"#utility.yul\":14558:14576   */\n      0x24\n      dup3\n      add\n        /* \"#utility.yul\":14551:14581   */\n      mstore\n        /* \"#utility.yul\":14617:14651   */\n      0x455243373231413a20676c6f62616c20696e646578206f7574206f6620626f75\n        /* \"#utility.yul\":14597:14615   */\n      0x44\n      dup3\n      add\n        /* \"#utility.yul\":14590:14652   */\n      mstore\n      shl(0xe8, 0x6e6473)\n        /* \"#utility.yul\":14668:14686   */\n      0x64\n      dup3\n      add\n        /* \"#utility.yul\":14661:14694   */\n      mstore\n        /* \"#utility.yul\":14711:14730   */\n      0x84\n      add\n        /* \"EvolvedCamels.sol\":40302:40371  require(index < totalSupply(), 'ERC721A: global index out of bounds') */\n      tag_302\n        /* \"#utility.yul\":14337:14736   */\n      jump\n        /* \"EvolvedCamels.sol\":40302:40371  require(index < totalSupply(), 'ERC721A: global index out of bounds') */\n    tag_476:\n      pop\n        /* \"EvolvedCamels.sol\":40389:40394  index */\n      swap1\n        /* \"EvolvedCamels.sol\":40215:40402  function tokenByIndex(uint256 index) public view override returns (uint256) {... */\n      jump\t// out\n        /* \"EvolvedCamels.sol\":63222:63519  function saleState() public view returns(State){... */\n    tag_184:\n        /* \"EvolvedCamels.sol\":63263:63268  State */\n      0x00\n        /* \"EvolvedCamels.sol\":63284:63301  presaleLaunchTime */\n      sload(0x11)\n        /* \"EvolvedCamels.sol\":63305:63306  0 */\n      0x00\n        /* \"EvolvedCamels.sol\":63284:63306  presaleLaunchTime == 0 */\n      sub\n        /* \"EvolvedCamels.sol\":63280:63512  if (presaleLaunchTime == 0) {... */\n      tag_480\n      jumpi\n      pop\n        /* \"EvolvedCamels.sol\":63330:63342  State.NoSale */\n      0x00\n      swap1\n        /* \"EvolvedCamels.sol\":63222:63519  function saleState() public view returns(State){... */\n      jump\t// out\n        /* \"EvolvedCamels.sol\":63280:63512  if (presaleLaunchTime == 0) {... */\n    tag_480:\n        /* \"EvolvedCamels.sol\":63373:63393  publicSaleLaunchTime */\n      sload(0x12)\n        /* \"EvolvedCamels.sol\":63397:63398  0 */\n      0x00\n        /* \"EvolvedCamels.sol\":63373:63398  publicSaleLaunchTime == 0 */\n      sub\n        /* \"EvolvedCamels.sol\":63369:63512  if (publicSaleLaunchTime == 0) {... */\n      tag_482\n      jumpi\n      pop\n        /* \"EvolvedCamels.sol\":63422:63435  State.Presale */\n      0x01\n      swap1\n        /* \"EvolvedCamels.sol\":63222:63519  function saleState() public view returns(State){... */\n      jump\t// out\n        /* \"EvolvedCamels.sol\":63369:63512  if (publicSaleLaunchTime == 0) {... */\n    tag_482:\n      pop\n        /* \"EvolvedCamels.sol\":63484:63500  State.PublicSale */\n      0x02\n      swap1\n        /* \"EvolvedCamels.sol\":63222:63519  function saleState() public view returns(State){... */\n      jump\t// out\n        /* \"EvolvedCamels.sol\":43476:43600  function ownerOf(uint256 tokenId) public view override returns (address) {... */\n    tag_190:\n        /* \"EvolvedCamels.sol\":43540:43547  address */\n      0x00\n        /* \"EvolvedCamels.sol\":43567:43587  ownershipOf(tokenId) */\n      tag_485\n        /* \"EvolvedCamels.sol\":43579:43586  tokenId */\n      dup3\n        /* \"EvolvedCamels.sol\":43567:43578  ownershipOf */\n      tag_486\n        /* \"EvolvedCamels.sol\":43567:43587  ownershipOf(tokenId) */\n      jump\t// in\n    tag_485:\n        /* \"EvolvedCamels.sol\":43567:43592  ownershipOf(tokenId).addr */\n      mload\n      swap3\n        /* \"EvolvedCamels.sol\":43476:43600  function ownerOf(uint256 tokenId) public view override returns (address) {... */\n      swap2\n      pop\n      pop\n      jump\t// out\n        /* \"EvolvedCamels.sol\":56734:56761  string public unrevealedURI */\n    tag_194:\n      0x18\n      dup1\n      sload\n      tag_487\n      swap1\n      tag_313\n      jump\t// in\n    tag_487:\n      dup1\n      0x1f\n      add\n      0x20\n      dup1\n      swap2\n      div\n      mul\n      0x20\n      add\n      mload(0x40)\n      swap1\n      dup2\n      add\n      0x40\n      mstore\n      dup1\n      swap3\n      swap2\n      swap1\n      dup2\n      dup2\n      mstore\n      0x20\n      add\n      dup3\n      dup1\n      sload\n      tag_488\n      swap1\n      tag_313\n      jump\t// in\n    tag_488:\n      dup1\n      iszero\n      tag_489\n      jumpi\n      dup1\n      0x1f\n      lt\n      tag_490\n      jumpi\n      0x0100\n      dup1\n      dup4\n      sload\n      div\n      mul\n      dup4\n      mstore\n      swap2\n      0x20\n      add\n      swap2\n      jump(tag_489)\n    tag_490:\n      dup3\n      add\n      swap2\n      swap1\n      0x00\n      mstore\n      keccak256(0x00, 0x20)\n      swap1\n    tag_491:\n      dup2\n      sload\n      dup2\n      mstore\n      swap1\n      0x01\n      add\n      swap1\n      0x20\n      add\n      dup1\n      dup4\n      gt\n      tag_491\n      jumpi\n      dup3\n      swap1\n      sub\n      0x1f\n      and\n      dup3\n      add\n      swap2\n    tag_489:\n      pop\n      pop\n      pop\n      pop\n      pop\n      dup2\n      jump\t// out\n        /* \"EvolvedCamels.sol\":42217:42438  function balanceOf(address owner) public view override returns (uint256) {... */\n    tag_199:\n        /* \"EvolvedCamels.sol\":42281:42288  uint256 */\n      0x00\n      sub(shl(0xa0, 0x01), 0x01)\n        /* \"EvolvedCamels.sol\":42309:42328  owner != address(0) */\n      dup3\n      and\n        /* \"EvolvedCamels.sol\":42301:42376  require(owner != address(0), 'ERC721A: balance query for the zero address') */\n      tag_493\n      jumpi\n      mload(0x40)\n      shl(0xe5, 0x461bcd)\n      dup2\n      mstore\n        /* \"#utility.yul\":14943:14945   */\n      0x20\n        /* \"EvolvedCamels.sol\":42301:42376  require(owner != address(0), 'ERC721A: balance query for the zero address') */\n      0x04\n      dup3\n      add\n        /* \"#utility.yul\":14925:14946   */\n      mstore\n        /* \"#utility.yul\":14982:14984   */\n      0x2b\n        /* \"#utility.yul\":14962:14980   */\n      0x24\n      dup3\n      add\n        /* \"#utility.yul\":14955:14985   */\n      mstore\n        /* \"#utility.yul\":15021:15055   */\n      0x455243373231413a2062616c616e636520717565727920666f7220746865207a\n        /* \"#utility.yul\":15001:15019   */\n      0x44\n      dup3\n      add\n        /* \"#utility.yul\":14994:15056   */\n      mstore\n        /* \"#utility.yul\":15092:15105   */\n      0x65726f2061646472657373000000000000000000000000000000000000000000\n        /* \"#utility.yul\":15072:15090   */\n      0x64\n      dup3\n      add\n        /* \"#utility.yul\":15065:15106   */\n      mstore\n        /* \"#utility.yul\":15123:15142   */\n      0x84\n      add\n        /* \"EvolvedCamels.sol\":42301:42376  require(owner != address(0), 'ERC721A: balance query for the zero address') */\n      tag_302\n        /* \"#utility.yul\":14741:15148   */\n      jump\n        /* \"EvolvedCamels.sol\":42301:42376  require(owner != address(0), 'ERC721A: balance query for the zero address') */\n    tag_493:\n      pop\n      sub(shl(0xa0, 0x01), 0x01)\n        /* \"EvolvedCamels.sol\":42402:42421  _addressData[owner] */\n      and\n      0x00\n      swap1\n      dup2\n      mstore\n        /* \"EvolvedCamels.sol\":42402:42414  _addressData */\n      0x04\n        /* \"EvolvedCamels.sol\":42402:42421  _addressData[owner] */\n      0x20\n      mstore\n      0x40\n      swap1\n      keccak256\n        /* \"EvolvedCamels.sol\":42402:42429  _addressData[owner].balance */\n      sload\n      0xffffffffffffffffffffffffffffffff\n      and\n      swap1\n        /* \"EvolvedCamels.sol\":42217:42438  function balanceOf(address owner) public view override returns (uint256) {... */\n      jump\t// out\n        /* \"EvolvedCamels.sol\":4662:4756  function renounceOwnership() public virtual onlyOwner {... */\n    tag_203:\n        /* \"EvolvedCamels.sol\":4084:4090  _owner */\n      and(sub(shl(0xa0, 0x01), 0x01), sload(0x07))\n        /* \"EvolvedCamels.sol\":2879:2889  msg.sender */\n      caller\n        /* \"EvolvedCamels.sol\":4231:4254  owner() == _msgSender() */\n      eq\n        /* \"EvolvedCamels.sol\":4223:4291  require(owner() == _msgSender(), \"Ownable: caller is not the owner\") */\n      tag_499\n      jumpi\n      mload(0x40)\n      shl(0xe5, 0x461bcd)\n      dup2\n      mstore\n        /* \"#utility.yul\":7326:7328   */\n      0x20\n        /* \"EvolvedCamels.sol\":4223:4291  require(owner() == _msgSender(), \"Ownable: caller is not the owner\") */\n      0x04\n      dup3\n      add\n        /* \"#utility.yul\":7308:7329   */\n      dup2\n      swap1\n      mstore\n        /* \"#utility.yul\":7345:7363   */\n      0x24\n      dup3\n      add\n        /* \"#utility.yul\":7338:7368   */\n      mstore\n      0x00\n      dup1\n      mload\n      0x20\n      data_9924ebdf1add33d25d4ef888e16131f0a5687b0580a36c21b5c301a6c462effe\n      dup4\n      codecopy\n      dup2\n      mload\n      swap2\n      mstore\n        /* \"#utility.yul\":7384:7402   */\n      0x44\n      dup3\n      add\n        /* \"#utility.yul\":7377:7439   */\n      mstore\n        /* \"#utility.yul\":7456:7474   */\n      0x64\n      add\n        /* \"EvolvedCamels.sol\":4223:4291  require(owner() == _msgSender(), \"Ownable: caller is not the owner\") */\n      tag_302\n        /* \"#utility.yul\":7124:7480   */\n      jump\n        /* \"EvolvedCamels.sol\":4223:4291  require(owner() == _msgSender(), \"Ownable: caller is not the owner\") */\n    tag_499:\n        /* \"EvolvedCamels.sol\":4727:4748  _setOwner(address(0)) */\n      tag_502\n        /* \"EvolvedCamels.sol\":4745:4746  0 */\n      0x00\n        /* \"EvolvedCamels.sol\":4727:4736  _setOwner */\n      tag_503\n        /* \"EvolvedCamels.sol\":4727:4748  _setOwner(address(0)) */\n      jump\t// in\n    tag_502:\n        /* \"EvolvedCamels.sol\":4662:4756  function renounceOwnership() public virtual onlyOwner {... */\n      jump\t// out\n        /* \"EvolvedCamels.sol\":64822:64994  function timeOfReveal() public view returns(uint256) {... */\n    tag_206:\n        /* \"EvolvedCamels.sol\":64866:64873  uint256 */\n      0x00\n        /* \"EvolvedCamels.sol\":64894:64904  revealTime */\n      sload(0x13)\n        /* \"EvolvedCamels.sol\":64908:64909  0 */\n      0x00\n        /* \"EvolvedCamels.sol\":64894:64909  revealTime != 0 */\n      sub\n        /* \"EvolvedCamels.sol\":64886:64958  require(revealTime != 0, 'NFT Reveal Time has not been determined yet!') */\n      tag_505\n      jumpi\n      mload(0x40)\n      shl(0xe5, 0x461bcd)\n      dup2\n      mstore\n        /* \"#utility.yul\":15355:15357   */\n      0x20\n        /* \"EvolvedCamels.sol\":64886:64958  require(revealTime != 0, 'NFT Reveal Time has not been determined yet!') */\n      0x04\n      dup3\n      add\n        /* \"#utility.yul\":15337:15358   */\n      mstore\n        /* \"#utility.yul\":15394:15396   */\n      0x2c\n        /* \"#utility.yul\":15374:15392   */\n      0x24\n      dup3\n      add\n        /* \"#utility.yul\":15367:15397   */\n      mstore\n        /* \"#utility.yul\":15433:15467   */\n      0x4e46542052657665616c2054696d6520686173206e6f74206265656e20646574\n        /* \"#utility.yul\":15413:15431   */\n      0x44\n      dup3\n      add\n        /* \"#utility.yul\":15406:15468   */\n      mstore\n        /* \"#utility.yul\":15504:15518   */\n      0x65726d696e656420796574210000000000000000000000000000000000000000\n        /* \"#utility.yul\":15484:15502   */\n      0x64\n      dup3\n      add\n        /* \"#utility.yul\":15477:15519   */\n      mstore\n        /* \"#utility.yul\":15536:15555   */\n      0x84\n      add\n        /* \"EvolvedCamels.sol\":64886:64958  require(revealTime != 0, 'NFT Reveal Time has not been determined yet!') */\n      tag_302\n        /* \"#utility.yul\":15153:15561   */\n      jump\n        /* \"EvolvedCamels.sol\":64886:64958  require(revealTime != 0, 'NFT Reveal Time has not been determined yet!') */\n    tag_505:\n      pop\n        /* \"EvolvedCamels.sol\":64976:64986  revealTime */\n      sload(0x13)\n      swap1\n        /* \"EvolvedCamels.sol\":64822:64994  function timeOfReveal() public view returns(uint256) {... */\n      jump\t// out\n        /* \"EvolvedCamels.sol\":63892:64167  function changeMintCost(uint256 newCost) public onlyOwner {... */\n    tag_211:\n        /* \"EvolvedCamels.sol\":4084:4090  _owner */\n      and(sub(shl(0xa0, 0x01), 0x01), sload(0x07))\n        /* \"EvolvedCamels.sol\":2879:2889  msg.sender */\n      caller\n        /* \"EvolvedCamels.sol\":4231:4254  owner() == _msgSender() */\n      eq\n        /* \"EvolvedCamels.sol\":4223:4291  require(owner() == _msgSender(), \"Ownable: caller is not the owner\") */\n      tag_511\n      jumpi\n      mload(0x40)\n      shl(0xe5, 0x461bcd)\n      dup2\n      mstore\n        /* \"#utility.yul\":7326:7328   */\n      0x20\n        /* \"EvolvedCamels.sol\":4223:4291  require(owner() == _msgSender(), \"Ownable: caller is not the owner\") */\n      0x04\n      dup3\n      add\n        /* \"#utility.yul\":7308:7329   */\n      dup2\n      swap1\n      mstore\n        /* \"#utility.yul\":7345:7363   */\n      0x24\n      dup3\n      add\n        /* \"#utility.yul\":7338:7368   */\n      mstore\n      0x00\n      dup1\n      mload\n      0x20\n      data_9924ebdf1add33d25d4ef888e16131f0a5687b0580a36c21b5c301a6c462effe\n      dup4\n      codecopy\n      dup2\n      mload\n      swap2\n      mstore\n        /* \"#utility.yul\":7384:7402   */\n      0x44\n      dup3\n      add\n        /* \"#utility.yul\":7377:7439   */\n      mstore\n        /* \"#utility.yul\":7456:7474   */\n      0x64\n      add\n        /* \"EvolvedCamels.sol\":4223:4291  require(owner() == _msgSender(), \"Ownable: caller is not the owner\") */\n      tag_302\n        /* \"#utility.yul\":7124:7480   */\n      jump\n        /* \"EvolvedCamels.sol\":4223:4291  require(owner() == _msgSender(), \"Ownable: caller is not the owner\") */\n    tag_511:\n        /* \"EvolvedCamels.sol\":63961:63977  State saleState_ */\n      0x00\n        /* \"EvolvedCamels.sol\":63980:63991  saleState() */\n      tag_514\n        /* \"EvolvedCamels.sol\":63980:63989  saleState */\n      tag_184\n        /* \"EvolvedCamels.sol\":63980:63991  saleState() */\n      jump\t// in\n    tag_514:\n        /* \"EvolvedCamels.sol\":63961:63991  State saleState_ = saleState() */\n      swap1\n      pop\n        /* \"EvolvedCamels.sol\":64020:64036  State.PublicSale */\n      0x02\n        /* \"EvolvedCamels.sol\":64006:64016  saleState_ */\n      dup2\n        /* \"EvolvedCamels.sol\":64006:64036  saleState_ != State.PublicSale */\n      0x02\n      dup2\n      gt\n      iszero\n      tag_518\n      jumpi\n      tag_518\n      tag_389\n      jump\t// in\n    tag_518:\n      eq\n        /* \"EvolvedCamels.sol\":64002:64160  if (saleState_ != State.PublicSale) {... */\n      tag_519\n      jumpi\n      pop\n        /* \"EvolvedCamels.sol\":64053:64068  mintCostPresale */\n      0x0a\n        /* \"EvolvedCamels.sol\":64053:64078  mintCostPresale = newCost */\n      sstore\n        /* \"EvolvedCamels.sol\":64233:64557  function changeMaxMint(uint256 newMax) public onlyOwner {... */\n      jump\t// out\n        /* \"EvolvedCamels.sol\":64002:64160  if (saleState_ != State.PublicSale) {... */\n    tag_519:\n      pop\n        /* \"EvolvedCamels.sol\":64120:64138  mintCostPublicSale */\n      0x0b\n        /* \"EvolvedCamels.sol\":64120:64148  mintCostPublicSale = newCost */\n      sstore\n        /* \"EvolvedCamels.sol\":63892:64167  function changeMintCost(uint256 newCost) public onlyOwner {... */\n      jump\t// out\n        /* \"EvolvedCamels.sol\":43836:43940  function symbol() public view virtual override returns (string memory) {... */\n    tag_218:\n        /* \"EvolvedCamels.sol\":43892:43905  string memory */\n      0x60\n        /* \"EvolvedCamels.sol\":43925:43932  _symbol */\n      0x02\n        /* \"EvolvedCamels.sol\":43918:43932  return _symbol */\n      dup1\n      sload\n      tag_312\n      swap1\n      tag_313\n      jump\t// in\n        /* \"EvolvedCamels.sol\":45515:45803  function setApprovalForAll(address operator, bool approved) public override {... */\n    tag_224:\n        /* \"EvolvedCamels.sol\":2879:2889  msg.sender */\n      caller\n      sub(shl(0xa0, 0x01), 0x01)\n        /* \"EvolvedCamels.sol\":45610:45634  operator != _msgSender() */\n      dup4\n      and\n      sub\n        /* \"EvolvedCamels.sol\":45602:45665  require(operator != _msgSender(), 'ERC721A: approve to caller') */\n      tag_530\n      jumpi\n      mload(0x40)\n      shl(0xe5, 0x461bcd)\n      dup2\n      mstore\n        /* \"#utility.yul\":15768:15770   */\n      0x20\n        /* \"EvolvedCamels.sol\":45602:45665  require(operator != _msgSender(), 'ERC721A: approve to caller') */\n      0x04\n      dup3\n      add\n        /* \"#utility.yul\":15750:15771   */\n      mstore\n        /* \"#utility.yul\":15807:15809   */\n      0x1a\n        /* \"#utility.yul\":15787:15805   */\n      0x24\n      dup3\n      add\n        /* \"#utility.yul\":15780:15810   */\n      mstore\n        /* \"#utility.yul\":15846:15874   */\n      0x455243373231413a20617070726f766520746f2063616c6c6572000000000000\n        /* \"#utility.yul\":15826:15844   */\n      0x44\n      dup3\n      add\n        /* \"#utility.yul\":15819:15875   */\n      mstore\n        /* \"#utility.yul\":15892:15910   */\n      0x64\n      add\n        /* \"EvolvedCamels.sol\":45602:45665  require(operator != _msgSender(), 'ERC721A: approve to caller') */\n      tag_302\n        /* \"#utility.yul\":15566:15916   */\n      jump\n        /* \"EvolvedCamels.sol\":45602:45665  require(operator != _msgSender(), 'ERC721A: approve to caller') */\n    tag_530:\n        /* \"EvolvedCamels.sol\":2879:2889  msg.sender */\n      caller\n        /* \"EvolvedCamels.sol\":45678:45710  _operatorApprovals[_msgSender()] */\n      0x00\n      dup2\n      dup2\n      mstore\n        /* \"EvolvedCamels.sol\":45678:45696  _operatorApprovals */\n      0x06\n        /* \"EvolvedCamels.sol\":45678:45710  _operatorApprovals[_msgSender()] */\n      0x20\n      swap1\n      dup2\n      mstore\n      0x40\n      dup1\n      dup4\n      keccak256\n      sub(shl(0xa0, 0x01), 0x01)\n        /* \"EvolvedCamels.sol\":45678:45720  _operatorApprovals[_msgSender()][operator] */\n      dup8\n      and\n      dup1\n      dup6\n      mstore\n      swap1\n      dup4\n      mstore\n      swap3\n      dup2\n      swap1\n      keccak256\n        /* \"EvolvedCamels.sol\":45678:45731  _operatorApprovals[_msgSender()][operator] = approved */\n      dup1\n      sload\n      not(0xff)\n      and\n      dup7\n      iszero\n      iszero\n      swap1\n      dup2\n      or\n      swap1\n      swap2\n      sstore\n        /* \"EvolvedCamels.sol\":45747:45795  ApprovalForAll(_msgSender(), operator, approved) */\n      swap1\n      mload\n        /* \"#utility.yul\":932:973   */\n      swap1\n      dup2\n      mstore\n        /* \"EvolvedCamels.sol\":45678:45720  _operatorApprovals[_msgSender()][operator] */\n      swap2\n      swap3\n        /* \"EvolvedCamels.sol\":2879:2889  msg.sender */\n      swap2\n        /* \"EvolvedCamels.sol\":45747:45795  ApprovalForAll(_msgSender(), operator, approved) */\n      0x17307eab39ab6107e8899845ad3d59bd9653f200f220920489ca2b5937696c31\n      swap2\n        /* \"#utility.yul\":905:923   */\n      add\n        /* \"EvolvedCamels.sol\":45747:45795  ApprovalForAll(_msgSender(), operator, approved) */\n      mload(0x40)\n      dup1\n      swap2\n      sub\n      swap1\n      log3\n        /* \"EvolvedCamels.sol\":45515:45803  function setApprovalForAll(address operator, bool approved) public override {... */\n      pop\n      pop\n      jump\t// out\n        /* \"EvolvedCamels.sol\":65002:65160  function reveal() public onlyOwner {... */\n    tag_227:\n        /* \"EvolvedCamels.sol\":4084:4090  _owner */\n      and(sub(shl(0xa0, 0x01), 0x01), sload(0x07))\n        /* \"EvolvedCamels.sol\":2879:2889  msg.sender */\n      caller\n        /* \"EvolvedCamels.sol\":4231:4254  owner() == _msgSender() */\n      eq\n        /* \"EvolvedCamels.sol\":4223:4291  require(owner() == _msgSender(), \"Ownable: caller is not the owner\") */\n      tag_539\n      jumpi\n      mload(0x40)\n      shl(0xe5, 0x461bcd)\n      dup2\n      mstore\n        /* \"#utility.yul\":7326:7328   */\n      0x20\n        /* \"EvolvedCamels.sol\":4223:4291  require(owner() == _msgSender(), \"Ownable: caller is not the owner\") */\n      0x04\n      dup3\n      add\n        /* \"#utility.yul\":7308:7329   */\n      dup2\n      swap1\n      mstore\n        /* \"#utility.yul\":7345:7363   */\n      0x24\n      dup3\n      add\n        /* \"#utility.yul\":7338:7368   */\n      mstore\n      0x00\n      dup1\n      mload\n      0x20\n      data_9924ebdf1add33d25d4ef888e16131f0a5687b0580a36c21b5c301a6c462effe\n      dup4\n      codecopy\n      dup2\n      mload\n      swap2\n      mstore\n        /* \"#utility.yul\":7384:7402   */\n      0x44\n      dup3\n      add\n        /* \"#utility.yul\":7377:7439   */\n      mstore\n        /* \"#utility.yul\":7456:7474   */\n      0x64\n      add\n        /* \"EvolvedCamels.sol\":4223:4291  require(owner() == _msgSender(), \"Ownable: caller is not the owner\") */\n      tag_302\n        /* \"#utility.yul\":7124:7480   */\n      jump\n        /* \"EvolvedCamels.sol\":4223:4291  require(owner() == _msgSender(), \"Ownable: caller is not the owner\") */\n    tag_539:\n        /* \"EvolvedCamels.sol\":65056:65066  revealTime */\n      sload(0x13)\n        /* \"EvolvedCamels.sol\":65056:65071  revealTime == 0 */\n      iszero\n        /* \"EvolvedCamels.sol\":65048:65113  require(revealTime == 0, \"Collection has already been revealed!\") */\n      tag_542\n      jumpi\n      mload(0x40)\n      shl(0xe5, 0x461bcd)\n      dup2\n      mstore\n        /* \"#utility.yul\":16123:16125   */\n      0x20\n        /* \"EvolvedCamels.sol\":65048:65113  require(revealTime == 0, \"Collection has already been revealed!\") */\n      0x04\n      dup3\n      add\n        /* \"#utility.yul\":16105:16126   */\n      mstore\n        /* \"#utility.yul\":16162:16164   */\n      0x25\n        /* \"#utility.yul\":16142:16160   */\n      0x24\n      dup3\n      add\n        /* \"#utility.yul\":16135:16165   */\n      mstore\n        /* \"#utility.yul\":16201:16235   */\n      0x436f6c6c656374696f6e2068617320616c7265616479206265656e2072657665\n        /* \"#utility.yul\":16181:16199   */\n      0x44\n      dup3\n      add\n        /* \"#utility.yul\":16174:16236   */\n      mstore\n        /* \"#utility.yul\":16272:16279   */\n      0x616c656421000000000000000000000000000000000000000000000000000000\n        /* \"#utility.yul\":16252:16270   */\n      0x64\n      dup3\n      add\n        /* \"#utility.yul\":16245:16280   */\n      mstore\n        /* \"#utility.yul\":16297:16316   */\n      0x84\n      add\n        /* \"EvolvedCamels.sol\":65048:65113  require(revealTime == 0, \"Collection has already been revealed!\") */\n      tag_302\n        /* \"#utility.yul\":15921:16322   */\n      jump\n        /* \"EvolvedCamels.sol\":65048:65113  require(revealTime == 0, \"Collection has already been revealed!\") */\n    tag_542:\n        /* \"EvolvedCamels.sol\":65137:65152  block.timestamp */\n      timestamp\n        /* \"EvolvedCamels.sol\":65124:65134  revealTime */\n      0x13\n        /* \"EvolvedCamels.sol\":65124:65152  revealTime = block.timestamp */\n      sstore\n        /* \"EvolvedCamels.sol\":65002:65160  function reveal() public onlyOwner {... */\n      jump\t// out\n        /* \"EvolvedCamels.sol\":65965:66165  function changeCrazyCamels(address newCrazyCamels) public onlyOwner {... */\n    tag_231:\n        /* \"EvolvedCamels.sol\":4084:4090  _owner */\n      and(sub(shl(0xa0, 0x01), 0x01), sload(0x07))\n        /* \"EvolvedCamels.sol\":2879:2889  msg.sender */\n      caller\n        /* \"EvolvedCamels.sol\":4231:4254  owner() == _msgSender() */\n      eq\n        /* \"EvolvedCamels.sol\":4223:4291  require(owner() == _msgSender(), \"Ownable: caller is not the owner\") */\n      tag_548\n      jumpi\n      mload(0x40)\n      shl(0xe5, 0x461bcd)\n      dup2\n      mstore\n        /* \"#utility.yul\":7326:7328   */\n      0x20\n        /* \"EvolvedCamels.sol\":4223:4291  require(owner() == _msgSender(), \"Ownable: caller is not the owner\") */\n      0x04\n      dup3\n      add\n        /* \"#utility.yul\":7308:7329   */\n      dup2\n      swap1\n      mstore\n        /* \"#utility.yul\":7345:7363   */\n      0x24\n      dup3\n      add\n        /* \"#utility.yul\":7338:7368   */\n      mstore\n      0x00\n      dup1\n      mload\n      0x20\n      data_9924ebdf1add33d25d4ef888e16131f0a5687b0580a36c21b5c301a6c462effe\n      dup4\n      codecopy\n      dup2\n      mload\n      swap2\n      mstore\n        /* \"#utility.yul\":7384:7402   */\n      0x44\n      dup3\n      add\n        /* \"#utility.yul\":7377:7439   */\n      mstore\n        /* \"#utility.yul\":7456:7474   */\n      0x64\n      add\n        /* \"EvolvedCamels.sol\":4223:4291  require(owner() == _msgSender(), \"Ownable: caller is not the owner\") */\n      tag_302\n        /* \"#utility.yul\":7124:7480   */\n      jump\n        /* \"EvolvedCamels.sol\":4223:4291  require(owner() == _msgSender(), \"Ownable: caller is not the owner\") */\n    tag_548:\n      sub(shl(0xa0, 0x01), 0x01)\n        /* \"EvolvedCamels.sol\":66052:66080  newCrazyCamels != address(0) */\n      dup2\n      and\n        /* \"EvolvedCamels.sol\":66044:66109  require(newCrazyCamels != address(0), \"Cannot be the 0 address!\") */\n      tag_551\n      jumpi\n      mload(0x40)\n      shl(0xe5, 0x461bcd)\n      dup2\n      mstore\n        /* \"#utility.yul\":16529:16531   */\n      0x20\n        /* \"EvolvedCamels.sol\":66044:66109  require(newCrazyCamels != address(0), \"Cannot be the 0 address!\") */\n      0x04\n      dup3\n      add\n        /* \"#utility.yul\":16511:16532   */\n      mstore\n        /* \"#utility.yul\":16568:16570   */\n      0x18\n        /* \"#utility.yul\":16548:16566   */\n      0x24\n      dup3\n      add\n        /* \"#utility.yul\":16541:16571   */\n      mstore\n        /* \"#utility.yul\":16607:16633   */\n      0x43616e6e6f742062652074686520302061646472657373210000000000000000\n        /* \"#utility.yul\":16587:16605   */\n      0x44\n      dup3\n      add\n        /* \"#utility.yul\":16580:16634   */\n      mstore\n        /* \"#utility.yul\":16651:16669   */\n      0x64\n      add\n        /* \"EvolvedCamels.sol\":66044:66109  require(newCrazyCamels != address(0), \"Cannot be the 0 address!\") */\n      tag_302\n        /* \"#utility.yul\":16327:16675   */\n      jump\n        /* \"EvolvedCamels.sol\":66044:66109  require(newCrazyCamels != address(0), \"Cannot be the 0 address!\") */\n    tag_551:\n        /* \"EvolvedCamels.sol\":66120:66131  CrazyCamels */\n      0x17\n        /* \"EvolvedCamels.sol\":66120:66157  CrazyCamels = IERC721(newCrazyCamels) */\n      dup1\n      sload\n      not(sub(shl(0xa0, 0x01), 0x01))\n      and\n      sub(shl(0xa0, 0x01), 0x01)\n      swap3\n      swap1\n      swap3\n      and\n      swap2\n      swap1\n      swap2\n      or\n      swap1\n      sstore\n        /* \"EvolvedCamels.sol\":65965:66165  function changeCrazyCamels(address newCrazyCamels) public onlyOwner {... */\n      jump\t// out\n        /* \"EvolvedCamels.sol\":62008:62117  function accountBalance() public onlyOwner view returns(uint) {... */\n    tag_234:\n        /* \"EvolvedCamels.sol\":4084:4090  _owner */\n      sload(0x07)\n        /* \"EvolvedCamels.sol\":62064:62068  uint */\n      0x00\n      swap1\n      sub(shl(0xa0, 0x01), 0x01)\n        /* \"EvolvedCamels.sol\":4084:4090  _owner */\n      and\n        /* \"EvolvedCamels.sol\":2879:2889  msg.sender */\n      caller\n        /* \"EvolvedCamels.sol\":4231:4254  owner() == _msgSender() */\n      eq\n        /* \"EvolvedCamels.sol\":4223:4291  require(owner() == _msgSender(), \"Ownable: caller is not the owner\") */\n      tag_557\n      jumpi\n      mload(0x40)\n      shl(0xe5, 0x461bcd)\n      dup2\n      mstore\n        /* \"#utility.yul\":7326:7328   */\n      0x20\n        /* \"EvolvedCamels.sol\":4223:4291  require(owner() == _msgSender(), \"Ownable: caller is not the owner\") */\n      0x04\n      dup3\n      add\n        /* \"#utility.yul\":7308:7329   */\n      dup2\n      swap1\n      mstore\n        /* \"#utility.yul\":7345:7363   */\n      0x24\n      dup3\n      add\n        /* \"#utility.yul\":7338:7368   */\n      mstore\n      0x00\n      dup1\n      mload\n      0x20\n      data_9924ebdf1add33d25d4ef888e16131f0a5687b0580a36c21b5c301a6c462effe\n      dup4\n      codecopy\n      dup2\n      mload\n      swap2\n      mstore\n        /* \"#utility.yul\":7384:7402   */\n      0x44\n      dup3\n      add\n        /* \"#utility.yul\":7377:7439   */\n      mstore\n        /* \"#utility.yul\":7456:7474   */\n      0x64\n      add\n        /* \"EvolvedCamels.sol\":4223:4291  require(owner() == _msgSender(), \"Ownable: caller is not the owner\") */\n      tag_302\n        /* \"#utility.yul\":7124:7480   */\n      jump\n        /* \"EvolvedCamels.sol\":4223:4291  require(owner() == _msgSender(), \"Ownable: caller is not the owner\") */\n    tag_557:\n      pop\n        /* \"EvolvedCamels.sol\":62088:62109  address(this).balance */\n      selfbalance\n        /* \"EvolvedCamels.sol\":62008:62117  function accountBalance() public onlyOwner view returns(uint) {... */\n      swap1\n      jump\t// out\n        /* \"EvolvedCamels.sol\":60338:61014  function publicSaleMint(uint256 number) public payable {... */\n    tag_242:\n        /* \"EvolvedCamels.sol\":60413:60420  paused_ */\n      and(0xff, sload(0x14))\n        /* \"EvolvedCamels.sol\":60412:60420  !paused_ */\n      iszero\n        /* \"EvolvedCamels.sol\":60404:60440  require(!paused_, \"Sale is paused!\") */\n      tag_562\n      jumpi\n      mload(0x40)\n      shl(0xe5, 0x461bcd)\n      dup2\n      mstore\n        /* \"#utility.yul\":16882:16884   */\n      0x20\n        /* \"EvolvedCamels.sol\":60404:60440  require(!paused_, \"Sale is paused!\") */\n      0x04\n      dup3\n      add\n        /* \"#utility.yul\":16864:16885   */\n      mstore\n        /* \"#utility.yul\":16921:16923   */\n      0x0f\n        /* \"#utility.yul\":16901:16919   */\n      0x24\n      dup3\n      add\n        /* \"#utility.yul\":16894:16924   */\n      mstore\n      shl(0x88, 0x53616c652069732070617573656421)\n        /* \"#utility.yul\":16940:16958   */\n      0x44\n      dup3\n      add\n        /* \"#utility.yul\":16933:16978   */\n      mstore\n        /* \"#utility.yul\":16995:17013   */\n      0x64\n      add\n        /* \"EvolvedCamels.sol\":60404:60440  require(!paused_, \"Sale is paused!\") */\n      tag_302\n        /* \"#utility.yul\":16680:17019   */\n      jump\n        /* \"EvolvedCamels.sol\":60404:60440  require(!paused_, \"Sale is paused!\") */\n    tag_562:\n        /* \"EvolvedCamels.sol\":60451:60467  State saleState_ */\n      0x00\n        /* \"EvolvedCamels.sol\":60470:60481  saleState() */\n      tag_565\n        /* \"EvolvedCamels.sol\":60470:60479  saleState */\n      tag_184\n        /* \"EvolvedCamels.sol\":60470:60481  saleState() */\n      jump\t// in\n    tag_565:\n        /* \"EvolvedCamels.sol\":60451:60481  State saleState_ = saleState() */\n      swap1\n      pop\n        /* \"EvolvedCamels.sol\":60514:60530  State.PublicSale */\n      0x02\n        /* \"EvolvedCamels.sol\":60500:60510  saleState_ */\n      dup2\n        /* \"EvolvedCamels.sol\":60500:60530  saleState_ == State.PublicSale */\n      0x02\n      dup2\n      gt\n      iszero\n      tag_569\n      jumpi\n      tag_569\n      tag_389\n      jump\t// in\n    tag_569:\n      eq\n        /* \"EvolvedCamels.sol\":60492:60563  require(saleState_ == State.PublicSale, \"Public Sale in not open yet!\") */\n      tag_570\n      jumpi\n      mload(0x40)\n      shl(0xe5, 0x461bcd)\n      dup2\n      mstore\n        /* \"#utility.yul\":17226:17228   */\n      0x20\n        /* \"EvolvedCamels.sol\":60492:60563  require(saleState_ == State.PublicSale, \"Public Sale in not open yet!\") */\n      0x04\n      dup3\n      add\n        /* \"#utility.yul\":17208:17229   */\n      mstore\n        /* \"#utility.yul\":17265:17267   */\n      0x1c\n        /* \"#utility.yul\":17245:17263   */\n      0x24\n      dup3\n      add\n        /* \"#utility.yul\":17238:17268   */\n      mstore\n        /* \"#utility.yul\":17304:17334   */\n      0x5075626c69632053616c6520696e206e6f74206f70656e207965742100000000\n        /* \"#utility.yul\":17284:17302   */\n      0x44\n      dup3\n      add\n        /* \"#utility.yul\":17277:17335   */\n      mstore\n        /* \"#utility.yul\":17352:17370   */\n      0x64\n      add\n        /* \"EvolvedCamels.sol\":60492:60563  require(saleState_ == State.PublicSale, \"Public Sale in not open yet!\") */\n      tag_302\n        /* \"#utility.yul\":17024:17376   */\n      jump\n        /* \"EvolvedCamels.sol\":60492:60563  require(saleState_ == State.PublicSale, \"Public Sale in not open yet!\") */\n    tag_570:\n        /* \"EvolvedCamels.sol\":60645:60659  _reservedMints */\n      sload(0x0e)\n        /* \"EvolvedCamels.sol\":60626:60642  maxReservedMints */\n      sload(0x0f)\n        /* \"EvolvedCamels.sol\":60626:60659  maxReservedMints - _reservedMints */\n      tag_573\n      swap2\n      swap1\n      tag_329\n      jump\t// in\n    tag_573:\n        /* \"EvolvedCamels.sol\":60608:60622  maxTotalTokens */\n      sload(0x08)\n        /* \"EvolvedCamels.sol\":60608:60660  maxTotalTokens - (maxReservedMints - _reservedMints) */\n      tag_574\n      swap2\n      swap1\n      tag_329\n      jump\t// in\n    tag_574:\n        /* \"EvolvedCamels.sol\":60598:60604  number */\n      dup3\n        /* \"EvolvedCamels.sol\":60582:60595  totalSupply() */\n      tag_575\n        /* \"EvolvedCamels.sol\":40091:40098  uint256 */\n      0x00\n        /* \"EvolvedCamels.sol\":40118:40130  currentIndex */\n      sload\n      swap1\n        /* \"EvolvedCamels.sol\":40030:40138  function totalSupply() public view virtual override returns (uint256) {... */\n      jump\n        /* \"EvolvedCamels.sol\":60582:60595  totalSupply() */\n    tag_575:\n        /* \"EvolvedCamels.sol\":60582:60604  totalSupply() + number */\n      tag_576\n      swap2\n      swap1\n      tag_333\n      jump\t// in\n    tag_576:\n        /* \"EvolvedCamels.sol\":60582:60660  totalSupply() + number <= maxTotalTokens - (maxReservedMints - _reservedMints) */\n      gt\n      iszero\n        /* \"EvolvedCamels.sol\":60574:60695  require(totalSupply() + number <= maxTotalTokens - (maxReservedMints - _reservedMints), \"Not enough NFTs left to mint..\") */\n      tag_577\n      jumpi\n      mload(0x40)\n      shl(0xe5, 0x461bcd)\n      dup2\n      mstore\n        /* \"#utility.yul\":9225:9227   */\n      0x20\n        /* \"EvolvedCamels.sol\":60574:60695  require(totalSupply() + number <= maxTotalTokens - (maxReservedMints - _reservedMints), \"Not enough NFTs left to mint..\") */\n      0x04\n      dup3\n      add\n        /* \"#utility.yul\":9207:9228   */\n      mstore\n        /* \"#utility.yul\":9264:9266   */\n      0x1e\n        /* \"#utility.yul\":9244:9262   */\n      0x24\n      dup3\n      add\n        /* \"#utility.yul\":9237:9267   */\n      mstore\n        /* \"#utility.yul\":9303:9335   */\n      0x4e6f7420656e6f756768204e465473206c65667420746f206d696e742e2e0000\n        /* \"#utility.yul\":9283:9301   */\n      0x44\n      dup3\n      add\n        /* \"#utility.yul\":9276:9336   */\n      mstore\n        /* \"#utility.yul\":9353:9371   */\n      0x64\n      add\n        /* \"EvolvedCamels.sol\":60574:60695  require(totalSupply() + number <= maxTotalTokens - (maxReservedMints - _reservedMints), \"Not enough NFTs left to mint..\") */\n      tag_302\n        /* \"#utility.yul\":9023:9377   */\n      jump\n        /* \"EvolvedCamels.sol\":60574:60695  require(totalSupply() + number <= maxTotalTokens - (maxReservedMints - _reservedMints), \"Not enough NFTs left to mint..\") */\n    tag_577:\n        /* \"EvolvedCamels.sol\":60754:60771  maxMintPublicSale */\n      sload(0x0d)\n        /* \"EvolvedCamels.sol\":60730:60740  msg.sender */\n      caller\n        /* \"EvolvedCamels.sol\":60714:60741  mintsPerAddress[msg.sender] */\n      0x00\n      swap1\n      dup2\n      mstore\n        /* \"EvolvedCamels.sol\":60714:60729  mintsPerAddress */\n      0x15\n        /* \"EvolvedCamels.sol\":60714:60741  mintsPerAddress[msg.sender] */\n      0x20\n      mstore\n      0x40\n      swap1\n      keccak256\n      sload\n        /* \"EvolvedCamels.sol\":60714:60750  mintsPerAddress[msg.sender] + number */\n      tag_579\n      swap1\n        /* \"EvolvedCamels.sol\":60744:60750  number */\n      dup5\n      swap1\n        /* \"EvolvedCamels.sol\":60714:60750  mintsPerAddress[msg.sender] + number */\n      tag_333\n      jump\t// in\n    tag_579:\n        /* \"EvolvedCamels.sol\":60714:60771  mintsPerAddress[msg.sender] + number <= maxMintPublicSale */\n      gt\n      iszero\n        /* \"EvolvedCamels.sol\":60706:60811  require(mintsPerAddress[msg.sender] + number <= maxMintPublicSale, \"Maximum Mints per Address exceeded!\") */\n      tag_580\n      jumpi\n      mload(0x40)\n      shl(0xe5, 0x461bcd)\n      dup2\n      mstore\n        /* \"#utility.yul\":17583:17585   */\n      0x20\n        /* \"EvolvedCamels.sol\":60706:60811  require(mintsPerAddress[msg.sender] + number <= maxMintPublicSale, \"Maximum Mints per Address exceeded!\") */\n      0x04\n      dup3\n      add\n        /* \"#utility.yul\":17565:17586   */\n      mstore\n        /* \"#utility.yul\":17622:17624   */\n      0x23\n        /* \"#utility.yul\":17602:17620   */\n      0x24\n      dup3\n      add\n        /* \"#utility.yul\":17595:17625   */\n      mstore\n        /* \"#utility.yul\":17661:17695   */\n      0x4d6178696d756d204d696e747320706572204164647265737320657863656564\n        /* \"#utility.yul\":17641:17659   */\n      0x44\n      dup3\n      add\n        /* \"#utility.yul\":17634:17696   */\n      mstore\n      shl(0xe8, 0x656421)\n        /* \"#utility.yul\":17712:17730   */\n      0x64\n      dup3\n      add\n        /* \"#utility.yul\":17705:17738   */\n      mstore\n        /* \"#utility.yul\":17755:17774   */\n      0x84\n      add\n        /* \"EvolvedCamels.sol\":60706:60811  require(mintsPerAddress[msg.sender] + number <= maxMintPublicSale, \"Maximum Mints per Address exceeded!\") */\n      tag_302\n        /* \"#utility.yul\":17381:17780   */\n      jump\n        /* \"EvolvedCamels.sol\":60706:60811  require(mintsPerAddress[msg.sender] + number <= maxMintPublicSale, \"Maximum Mints per Address exceeded!\") */\n    tag_580:\n        /* \"EvolvedCamels.sol\":60856:60862  number */\n      dup2\n        /* \"EvolvedCamels.sol\":60843:60853  mintCost() */\n      tag_583\n        /* \"EvolvedCamels.sol\":60843:60851  mintCost */\n      tag_250\n        /* \"EvolvedCamels.sol\":60843:60853  mintCost() */\n      jump\t// in\n    tag_583:\n        /* \"EvolvedCamels.sol\":60843:60862  mintCost() * number */\n      tag_584\n      swap2\n      swap1\n      tag_452\n      jump\t// in\n    tag_584:\n        /* \"EvolvedCamels.sol\":60830:60839  msg.value */\n      callvalue\n        /* \"EvolvedCamels.sol\":60830:60862  msg.value >= mintCost() * number */\n      lt\n      iszero\n        /* \"EvolvedCamels.sol\":60822:60916  require(msg.value >= mintCost() * number, \"Not sufficient Ether to mint this amount of NFTs!\") */\n      tag_585\n      jumpi\n      mload(0x40)\n      shl(0xe5, 0x461bcd)\n      dup2\n      mstore\n        /* \"#utility.yul\":17987:17989   */\n      0x20\n        /* \"EvolvedCamels.sol\":60822:60916  require(msg.value >= mintCost() * number, \"Not sufficient Ether to mint this amount of NFTs!\") */\n      0x04\n      dup3\n      add\n        /* \"#utility.yul\":17969:17990   */\n      mstore\n        /* \"#utility.yul\":18026:18028   */\n      0x31\n        /* \"#utility.yul\":18006:18024   */\n      0x24\n      dup3\n      add\n        /* \"#utility.yul\":17999:18029   */\n      mstore\n        /* \"#utility.yul\":18065:18099   */\n      0x4e6f742073756666696369656e7420457468657220746f206d696e7420746869\n        /* \"#utility.yul\":18045:18063   */\n      0x44\n      dup3\n      add\n        /* \"#utility.yul\":18038:18100   */\n      mstore\n        /* \"#utility.yul\":18136:18155   */\n      0x7320616d6f756e74206f66204e46547321000000000000000000000000000000\n        /* \"#utility.yul\":18116:18134   */\n      0x64\n      dup3\n      add\n        /* \"#utility.yul\":18109:18156   */\n      mstore\n        /* \"#utility.yul\":18173:18192   */\n      0x84\n      add\n        /* \"EvolvedCamels.sol\":60822:60916  require(msg.value >= mintCost() * number, \"Not sufficient Ether to mint this amount of NFTs!\") */\n      tag_302\n        /* \"#utility.yul\":17785:18198   */\n      jump\n        /* \"EvolvedCamels.sol\":60822:60916  require(msg.value >= mintCost() * number, \"Not sufficient Ether to mint this amount of NFTs!\") */\n    tag_585:\n        /* \"EvolvedCamels.sol\":60929:60958  _safeMint(msg.sender, number) */\n      tag_588\n        /* \"EvolvedCamels.sol\":60939:60949  msg.sender */\n      caller\n        /* \"EvolvedCamels.sol\":60951:60957  number */\n      dup4\n        /* \"EvolvedCamels.sol\":60929:60938  _safeMint */\n      tag_347\n        /* \"EvolvedCamels.sol\":60929:60958  _safeMint(msg.sender, number) */\n      jump\t// in\n    tag_588:\n        /* \"EvolvedCamels.sol\":60985:60995  msg.sender */\n      caller\n        /* \"EvolvedCamels.sol\":60969:60996  mintsPerAddress[msg.sender] */\n      0x00\n      swap1\n      dup2\n      mstore\n        /* \"EvolvedCamels.sol\":60969:60984  mintsPerAddress */\n      0x15\n        /* \"EvolvedCamels.sol\":60969:60996  mintsPerAddress[msg.sender] */\n      0x20\n      mstore\n      0x40\n      dup2\n      keccak256\n        /* \"EvolvedCamels.sol\":60969:61006  mintsPerAddress[msg.sender] += number */\n      dup1\n      sload\n        /* \"EvolvedCamels.sol\":61000:61006  number */\n      dup5\n      swap3\n        /* \"EvolvedCamels.sol\":60969:60996  mintsPerAddress[msg.sender] */\n      swap1\n        /* \"EvolvedCamels.sol\":60969:61006  mintsPerAddress[msg.sender] += number */\n      tag_376\n      swap1\n        /* \"EvolvedCamels.sol\":61000:61006  number */\n      dup5\n      swap1\n        /* \"EvolvedCamels.sol\":60969:61006  mintsPerAddress[msg.sender] += number */\n      tag_333\n      jump\t// in\n        /* \"EvolvedCamels.sol\":46602:46957  function safeTransferFrom(... */\n    tag_247:\n        /* \"EvolvedCamels.sol\":46761:46789  _transfer(from, to, tokenId) */\n      tag_591\n        /* \"EvolvedCamels.sol\":46771:46775  from */\n      dup5\n        /* \"EvolvedCamels.sol\":46777:46779  to */\n      dup5\n        /* \"EvolvedCamels.sol\":46781:46788  tokenId */\n      dup5\n        /* \"EvolvedCamels.sol\":46761:46770  _transfer */\n      tag_396\n        /* \"EvolvedCamels.sol\":46761:46789  _transfer(from, to, tokenId) */\n      jump\t// in\n    tag_591:\n        /* \"EvolvedCamels.sol\":46822:46870  _checkOnERC721Received(from, to, tokenId, _data) */\n      tag_592\n        /* \"EvolvedCamels.sol\":46845:46849  from */\n      dup5\n        /* \"EvolvedCamels.sol\":46851:46853  to */\n      dup5\n        /* \"EvolvedCamels.sol\":46855:46862  tokenId */\n      dup5\n        /* \"EvolvedCamels.sol\":46864:46869  _data */\n      dup5\n        /* \"EvolvedCamels.sol\":46822:46844  _checkOnERC721Received */\n      tag_593\n        /* \"EvolvedCamels.sol\":46822:46870  _checkOnERC721Received(from, to, tokenId, _data) */\n      jump\t// in\n    tag_592:\n        /* \"EvolvedCamels.sol\":46800:46949  require(... */\n      tag_594\n      jumpi\n      mload(0x40)\n      shl(0xe5, 0x461bcd)\n      dup2\n      mstore\n        /* \"#utility.yul\":18405:18407   */\n      0x20\n        /* \"EvolvedCamels.sol\":46800:46949  require(... */\n      0x04\n      dup3\n      add\n        /* \"#utility.yul\":18387:18408   */\n      mstore\n        /* \"#utility.yul\":18444:18446   */\n      0x33\n        /* \"#utility.yul\":18424:18442   */\n      0x24\n      dup3\n      add\n        /* \"#utility.yul\":18417:18447   */\n      mstore\n        /* \"#utility.yul\":18483:18517   */\n      0x455243373231413a207472616e7366657220746f206e6f6e2045524337323152\n        /* \"#utility.yul\":18463:18481   */\n      0x44\n      dup3\n      add\n        /* \"#utility.yul\":18456:18518   */\n      mstore\n      shl(0x69, 0x32b1b2b4bb32b91034b6b83632b6b2b73a32b9)\n        /* \"#utility.yul\":18534:18552   */\n      0x64\n      dup3\n      add\n        /* \"#utility.yul\":18527:18576   */\n      mstore\n        /* \"#utility.yul\":18593:18612   */\n      0x84\n      add\n        /* \"EvolvedCamels.sol\":46800:46949  require(... */\n      tag_302\n        /* \"#utility.yul\":18203:18618   */\n      jump\n        /* \"EvolvedCamels.sol\":46800:46949  require(... */\n    tag_594:\n        /* \"EvolvedCamels.sol\":46602:46957  function safeTransferFrom(... */\n      pop\n      pop\n      pop\n      pop\n      jump\t// out\n        /* \"EvolvedCamels.sol\":63568:63825  function mintCost() public view returns(uint) {... */\n    tag_250:\n        /* \"EvolvedCamels.sol\":63608:63612  uint */\n      0x00\n        /* \"EvolvedCamels.sol\":63625:63641  State saleState_ */\n      dup1\n        /* \"EvolvedCamels.sol\":63644:63655  saleState() */\n      tag_598\n        /* \"EvolvedCamels.sol\":63644:63653  saleState */\n      tag_184\n        /* \"EvolvedCamels.sol\":63644:63655  saleState() */\n      jump\t// in\n    tag_598:\n        /* \"EvolvedCamels.sol\":63625:63655  State saleState_ = saleState() */\n      swap1\n      pop\n        /* \"EvolvedCamels.sol\":63684:63700  State.PublicSale */\n      0x02\n        /* \"EvolvedCamels.sol\":63670:63680  saleState_ */\n      dup2\n        /* \"EvolvedCamels.sol\":63670:63700  saleState_ != State.PublicSale */\n      0x02\n      dup2\n      gt\n      iszero\n      tag_602\n      jumpi\n      tag_602\n      tag_389\n      jump\t// in\n    tag_602:\n      eq\n        /* \"EvolvedCamels.sol\":63666:63818  if (saleState_ != State.PublicSale) {... */\n      tag_603\n      jumpi\n      pop\n      pop\n        /* \"EvolvedCamels.sol\":63724:63739  mintCostPresale */\n      sload(0x0a)\n      swap1\n        /* \"EvolvedCamels.sol\":63568:63825  function mintCost() public view returns(uint) {... */\n      jump\t// out\n        /* \"EvolvedCamels.sol\":63666:63818  if (saleState_ != State.PublicSale) {... */\n    tag_603:\n      pop\n      pop\n        /* \"EvolvedCamels.sol\":63788:63806  mintCostPublicSale */\n      sload(0x0b)\n      swap1\n        /* \"EvolvedCamels.sol\":63568:63825  function mintCost() public view returns(uint) {... */\n      jump\t// out\n        /* \"EvolvedCamels.sol\":65255:65332  function togglePause() public onlyOwner {... */\n    tag_254:\n        /* \"EvolvedCamels.sol\":4084:4090  _owner */\n      and(sub(shl(0xa0, 0x01), 0x01), sload(0x07))\n        /* \"EvolvedCamels.sol\":2879:2889  msg.sender */\n      caller\n        /* \"EvolvedCamels.sol\":4231:4254  owner() == _msgSender() */\n      eq\n        /* \"EvolvedCamels.sol\":4223:4291  require(owner() == _msgSender(), \"Ownable: caller is not the owner\") */\n      tag_608\n      jumpi\n      mload(0x40)\n      shl(0xe5, 0x461bcd)\n      dup2\n      mstore\n        /* \"#utility.yul\":7326:7328   */\n      0x20\n        /* \"EvolvedCamels.sol\":4223:4291  require(owner() == _msgSender(), \"Ownable: caller is not the owner\") */\n      0x04\n      dup3\n      add\n        /* \"#utility.yul\":7308:7329   */\n      dup2\n      swap1\n      mstore\n        /* \"#utility.yul\":7345:7363   */\n      0x24\n      dup3\n      add\n        /* \"#utility.yul\":7338:7368   */\n      mstore\n      0x00\n      dup1\n      mload\n      0x20\n      data_9924ebdf1add33d25d4ef888e16131f0a5687b0580a36c21b5c301a6c462effe\n      dup4\n      codecopy\n      dup2\n      mload\n      swap2\n      mstore\n        /* \"#utility.yul\":7384:7402   */\n      0x44\n      dup3\n      add\n        /* \"#utility.yul\":7377:7439   */\n      mstore\n        /* \"#utility.yul\":7456:7474   */\n      0x64\n      add\n        /* \"EvolvedCamels.sol\":4223:4291  require(owner() == _msgSender(), \"Ownable: caller is not the owner\") */\n      tag_302\n        /* \"#utility.yul\":7124:7480   */\n      jump\n        /* \"EvolvedCamels.sol\":4223:4291  require(owner() == _msgSender(), \"Ownable: caller is not the owner\") */\n    tag_608:\n        /* \"EvolvedCamels.sol\":65317:65324  paused_ */\n      0x14\n      dup1\n      sload\n      not(0xff)\n        /* \"EvolvedCamels.sol\":65306:65324  paused_ = !paused_ */\n      dup2\n      and\n        /* \"EvolvedCamels.sol\":65317:65324  paused_ */\n      0xff\n      swap1\n      swap2\n      and\n        /* \"EvolvedCamels.sol\":65316:65324  !paused_ */\n      iszero\n        /* \"EvolvedCamels.sol\":65306:65324  paused_ = !paused_ */\n      or\n      swap1\n      sstore\n        /* \"EvolvedCamels.sol\":65255:65332  function togglePause() public onlyOwner {... */\n      jump\t// out\n        /* \"EvolvedCamels.sol\":57577:57702  function changeUnrevealedURI(string memory unrevealedURI_) public onlyOwner {... */\n    tag_258:\n        /* \"EvolvedCamels.sol\":4084:4090  _owner */\n      and(sub(shl(0xa0, 0x01), 0x01), sload(0x07))\n        /* \"EvolvedCamels.sol\":2879:2889  msg.sender */\n      caller\n        /* \"EvolvedCamels.sol\":4231:4254  owner() == _msgSender() */\n      eq\n        /* \"EvolvedCamels.sol\":4223:4291  require(owner() == _msgSender(), \"Ownable: caller is not the owner\") */\n      tag_614\n      jumpi\n      mload(0x40)\n      shl(0xe5, 0x461bcd)\n      dup2\n      mstore\n        /* \"#utility.yul\":7326:7328   */\n      0x20\n        /* \"EvolvedCamels.sol\":4223:4291  require(owner() == _msgSender(), \"Ownable: caller is not the owner\") */\n      0x04\n      dup3\n      add\n        /* \"#utility.yul\":7308:7329   */\n      dup2\n      swap1\n      mstore\n        /* \"#utility.yul\":7345:7363   */\n      0x24\n      dup3\n      add\n        /* \"#utility.yul\":7338:7368   */\n      mstore\n      0x00\n      dup1\n      mload\n      0x20\n      data_9924ebdf1add33d25d4ef888e16131f0a5687b0580a36c21b5c301a6c462effe\n      dup4\n      codecopy\n      dup2\n      mload\n      swap2\n      mstore\n        /* \"#utility.yul\":7384:7402   */\n      0x44\n      dup3\n      add\n        /* \"#utility.yul\":7377:7439   */\n      mstore\n        /* \"#utility.yul\":7456:7474   */\n      0x64\n      add\n        /* \"EvolvedCamels.sol\":4223:4291  require(owner() == _msgSender(), \"Ownable: caller is not the owner\") */\n      tag_302\n        /* \"#utility.yul\":7124:7480   */\n      jump\n        /* \"EvolvedCamels.sol\":4223:4291  require(owner() == _msgSender(), \"Ownable: caller is not the owner\") */\n    tag_614:\n        /* \"EvolvedCamels.sol\":57664:57694  unrevealedURI = unrevealedURI_ */\n      dup1\n      mload\n      tag_393\n      swap1\n        /* \"EvolvedCamels.sol\":57664:57677  unrevealedURI */\n      0x18\n      swap1\n        /* \"EvolvedCamels.sol\":57664:57694  unrevealedURI = unrevealedURI_ */\n      0x20\n      dup5\n      add\n      swap1\n      tag_427\n      jump\t// in\n        /* \"EvolvedCamels.sol\":64630:64776  function addTokens(uint number) public onlyOwner {... */\n    tag_262:\n        /* \"EvolvedCamels.sol\":4084:4090  _owner */\n      and(sub(shl(0xa0, 0x01), 0x01), sload(0x07))\n        /* \"EvolvedCamels.sol\":2879:2889  msg.sender */\n      caller\n        /* \"EvolvedCamels.sol\":4231:4254  owner() == _msgSender() */\n      eq\n        /* \"EvolvedCamels.sol\":4223:4291  require(owner() == _msgSender(), \"Ownable: caller is not the owner\") */\n      tag_621\n      jumpi\n      mload(0x40)\n      shl(0xe5, 0x461bcd)\n      dup2\n      mstore\n        /* \"#utility.yul\":7326:7328   */\n      0x20\n        /* \"EvolvedCamels.sol\":4223:4291  require(owner() == _msgSender(), \"Ownable: caller is not the owner\") */\n      0x04\n      dup3\n      add\n        /* \"#utility.yul\":7308:7329   */\n      dup2\n      swap1\n      mstore\n        /* \"#utility.yul\":7345:7363   */\n      0x24\n      dup3\n      add\n        /* \"#utility.yul\":7338:7368   */\n      mstore\n      0x00\n      dup1\n      mload\n      0x20\n      data_9924ebdf1add33d25d4ef888e16131f0a5687b0580a36c21b5c301a6c462effe\n      dup4\n      codecopy\n      dup2\n      mload\n      swap2\n      mstore\n        /* \"#utility.yul\":7384:7402   */\n      0x44\n      dup3\n      add\n        /* \"#utility.yul\":7377:7439   */\n      mstore\n        /* \"#utility.yul\":7456:7474   */\n      0x64\n      add\n        /* \"EvolvedCamels.sol\":4223:4291  require(owner() == _msgSender(), \"Ownable: caller is not the owner\") */\n      tag_302\n        /* \"#utility.yul\":7124:7480   */\n      jump\n        /* \"EvolvedCamels.sol\":4223:4291  require(owner() == _msgSender(), \"Ownable: caller is not the owner\") */\n    tag_621:\n        /* \"EvolvedCamels.sol\":64707:64708  0 */\n      0x00\n        /* \"EvolvedCamels.sol\":64698:64704  number */\n      dup2\n        /* \"EvolvedCamels.sol\":64698:64708  number > 0 */\n      gt\n        /* \"EvolvedCamels.sol\":64690:64733  require(number > 0, \"Cannot add 0 tokens!\") */\n      tag_624\n      jumpi\n      mload(0x40)\n      shl(0xe5, 0x461bcd)\n      dup2\n      mstore\n        /* \"#utility.yul\":18825:18827   */\n      0x20\n        /* \"EvolvedCamels.sol\":64690:64733  require(number > 0, \"Cannot add 0 tokens!\") */\n      0x04\n      dup3\n      add\n        /* \"#utility.yul\":18807:18828   */\n      mstore\n        /* \"#utility.yul\":18864:18866   */\n      0x14\n        /* \"#utility.yul\":18844:18862   */\n      0x24\n      dup3\n      add\n        /* \"#utility.yul\":18837:18867   */\n      mstore\n        /* \"#utility.yul\":18903:18925   */\n      0x43616e6e6f7420616464203020746f6b656e7321000000000000000000000000\n        /* \"#utility.yul\":18883:18901   */\n      0x44\n      dup3\n      add\n        /* \"#utility.yul\":18876:18926   */\n      mstore\n        /* \"#utility.yul\":18943:18961   */\n      0x64\n      add\n        /* \"EvolvedCamels.sol\":64690:64733  require(number > 0, \"Cannot add 0 tokens!\") */\n      tag_302\n        /* \"#utility.yul\":18623:18967   */\n      jump\n        /* \"EvolvedCamels.sol\":64690:64733  require(number > 0, \"Cannot add 0 tokens!\") */\n    tag_624:\n        /* \"EvolvedCamels.sol\":64762:64768  number */\n      dup1\n        /* \"EvolvedCamels.sol\":64744:64758  maxTotalTokens */\n      0x08\n      0x00\n        /* \"EvolvedCamels.sol\":64744:64768  maxTotalTokens += number */\n      dup3\n      dup3\n      sload\n      tag_348\n      swap2\n      swap1\n      tag_333\n      jump\t// in\n        /* \"EvolvedCamels.sol\":61026:61594  function tokenURI(uint256 tokenId_) public view virtual override returns (string memory) {... */\n    tag_266:\n        /* \"EvolvedCamels.sol\":61100:61113  string memory */\n      0x60\n        /* \"EvolvedCamels.sol\":61134:61151  _exists(tokenId_) */\n      tag_629\n        /* \"EvolvedCamels.sol\":61142:61150  tokenId_ */\n      dup3\n        /* \"EvolvedCamels.sol\":47269:47273  bool */\n      0x00\n        /* \"EvolvedCamels.sol\":47303:47315  currentIndex */\n      sload\n      gt\n        /* \"EvolvedCamels.sol\":47293:47315  tokenId < currentIndex */\n      swap1\n        /* \"EvolvedCamels.sol\":47212:47323  function _exists(uint256 tokenId) internal view returns (bool) {... */\n      jump\n        /* \"EvolvedCamels.sol\":61134:61151  _exists(tokenId_) */\n    tag_629:\n        /* \"EvolvedCamels.sol\":61126:61203  require(_exists(tokenId_), \"ERC721Metadata: URI query for nonexistent token\") */\n      tag_630\n      jumpi\n      mload(0x40)\n      shl(0xe5, 0x461bcd)\n      dup2\n      mstore\n        /* \"#utility.yul\":19174:19176   */\n      0x20\n        /* \"EvolvedCamels.sol\":61126:61203  require(_exists(tokenId_), \"ERC721Metadata: URI query for nonexistent token\") */\n      0x04\n      dup3\n      add\n        /* \"#utility.yul\":19156:19177   */\n      mstore\n        /* \"#utility.yul\":19213:19215   */\n      0x2f\n        /* \"#utility.yul\":19193:19211   */\n      0x24\n      dup3\n      add\n        /* \"#utility.yul\":19186:19216   */\n      mstore\n        /* \"#utility.yul\":19252:19286   */\n      0x4552433732314d657461646174613a2055524920717565727920666f72206e6f\n        /* \"#utility.yul\":19232:19250   */\n      0x44\n      dup3\n      add\n        /* \"#utility.yul\":19225:19287   */\n      mstore\n        /* \"#utility.yul\":19323:19340   */\n      0x6e6578697374656e7420746f6b656e0000000000000000000000000000000000\n        /* \"#utility.yul\":19303:19321   */\n      0x64\n      dup3\n      add\n        /* \"#utility.yul\":19296:19341   */\n      mstore\n        /* \"#utility.yul\":19358:19377   */\n      0x84\n      add\n        /* \"EvolvedCamels.sol\":61126:61203  require(_exists(tokenId_), \"ERC721Metadata: URI query for nonexistent token\") */\n      tag_302\n        /* \"#utility.yul\":18972:19383   */\n      jump\n        /* \"EvolvedCamels.sol\":61126:61203  require(_exists(tokenId_), \"ERC721Metadata: URI query for nonexistent token\") */\n    tag_630:\n        /* \"EvolvedCamels.sol\":61315:61325  revealTime */\n      sload(0x13)\n        /* \"EvolvedCamels.sol\":61329:61330  0 */\n      0x00\n        /* \"EvolvedCamels.sol\":61315:61330  revealTime == 0 */\n      sub\n        /* \"EvolvedCamels.sol\":61311:61583  if (revealTime == 0) {... */\n      tag_633\n      jumpi\n        /* \"EvolvedCamels.sol\":61354:61367  unrevealedURI */\n      0x18\n        /* \"EvolvedCamels.sol\":61347:61367  return unrevealedURI */\n      dup1\n      sload\n      tag_634\n      swap1\n      tag_313\n      jump\t// in\n    tag_634:\n      dup1\n      0x1f\n      add\n      0x20\n      dup1\n      swap2\n      div\n      mul\n      0x20\n      add\n      mload(0x40)\n      swap1\n      dup2\n      add\n      0x40\n      mstore\n      dup1\n      swap3\n      swap2\n      swap1\n      dup2\n      dup2\n      mstore\n      0x20\n      add\n      dup3\n      dup1\n      sload\n      tag_635\n      swap1\n      tag_313\n      jump\t// in\n    tag_635:\n      dup1\n      iszero\n      tag_636\n      jumpi\n      dup1\n      0x1f\n      lt\n      tag_637\n      jumpi\n      0x0100\n      dup1\n      dup4\n      sload\n      div\n      mul\n      dup4\n      mstore\n      swap2\n      0x20\n      add\n      swap2\n      jump(tag_636)\n    tag_637:\n      dup3\n      add\n      swap2\n      swap1\n      0x00\n      mstore\n      keccak256(0x00, 0x20)\n      swap1\n    tag_638:\n      dup2\n      sload\n      dup2\n      mstore\n      swap1\n      0x01\n      add\n      swap1\n      0x20\n      add\n      dup1\n      dup4\n      gt\n      tag_638\n      jumpi\n      dup3\n      swap1\n      sub\n      0x1f\n      and\n      dup3\n      add\n      swap2\n    tag_636:\n      pop\n      pop\n      pop\n      pop\n      pop\n      swap1\n      pop\n        /* \"EvolvedCamels.sol\":61026:61594  function tokenURI(uint256 tokenId_) public view virtual override returns (string memory) {... */\n      swap2\n      swap1\n      pop\n      jump\t// out\n        /* \"EvolvedCamels.sol\":61311:61583  if (revealTime == 0) {... */\n    tag_633:\n        /* \"EvolvedCamels.sol\":61419:61440  string memory baseURI */\n      0x00\n        /* \"EvolvedCamels.sol\":61443:61453  _baseURI() */\n      tag_640\n        /* \"EvolvedCamels.sol\":61443:61451  _baseURI */\n      tag_641\n        /* \"EvolvedCamels.sol\":61443:61453  _baseURI() */\n      jump\t// in\n    tag_640:\n        /* \"EvolvedCamels.sol\":61419:61453  string memory baseURI = _baseURI() */\n      swap1\n      pop\n        /* \"EvolvedCamels.sol\":61499:61500  0 */\n      0x00\n        /* \"EvolvedCamels.sol\":61481:61488  baseURI */\n      dup2\n        /* \"EvolvedCamels.sol\":61475:61496  bytes(baseURI).length */\n      mload\n        /* \"EvolvedCamels.sol\":61475:61500  bytes(baseURI).length > 0 */\n      gt\n        /* \"EvolvedCamels.sol\":61475:61571  bytes(baseURI).length > 0 ? string(abi.encodePacked(baseURI, tokenId_.toString(), '.json')) : \"\" */\n      tag_642\n      jumpi\n      mload(0x40)\n      dup1\n      0x20\n      add\n      0x40\n      mstore\n      dup1\n      0x00\n      dup2\n      mstore\n      pop\n      jump(tag_643)\n    tag_642:\n        /* \"EvolvedCamels.sol\":61527:61534  baseURI */\n      dup1\n        /* \"EvolvedCamels.sol\":61536:61555  tokenId_.toString() */\n      tag_644\n        /* \"EvolvedCamels.sol\":61536:61544  tokenId_ */\n      dup5\n        /* \"EvolvedCamels.sol\":61536:61553  tokenId_.toString */\n      tag_645\n        /* \"EvolvedCamels.sol\":61536:61555  tokenId_.toString() */\n      jump\t// in\n    tag_644:\n        /* \"EvolvedCamels.sol\":61510:61565  abi.encodePacked(baseURI, tokenId_.toString(), '.json') */\n      add(0x20, mload(0x40))\n      tag_646\n      swap3\n      swap2\n      swap1\n      tag_647\n      jump\t// in\n    tag_646:\n      mload(0x40)\n      0x20\n      dup2\n      dup4\n      sub\n      sub\n      dup2\n      mstore\n      swap1\n      0x40\n      mstore\n        /* \"EvolvedCamels.sol\":61475:61571  bytes(baseURI).length > 0 ? string(abi.encodePacked(baseURI, tokenId_.toString(), '.json')) : \"\" */\n    tag_643:\n        /* \"EvolvedCamels.sol\":61468:61571  return bytes(baseURI).length > 0 ? string(abi.encodePacked(baseURI, tokenId_.toString(), '.json')) : \"\" */\n      swap4\n        /* \"EvolvedCamels.sol\":61026:61594  function tokenURI(uint256 tokenId_) public view virtual override returns (string memory) {... */\n      swap3\n      pop\n      pop\n      pop\n      jump\t// out\n        /* \"EvolvedCamels.sol\":59547:60279  function presaleMint(uint256 number, uint8 _v, bytes32 _r, bytes32 _s) onlyValidAccess(_v,  _r, _s) public payable {... */\n    tag_271:\n        /* \"EvolvedCamels.sol\":59634:59636  _v */\n      dup3\n        /* \"EvolvedCamels.sol\":59639:59641  _r */\n      dup3\n        /* \"EvolvedCamels.sol\":59643:59645  _s */\n      dup3\n        /* \"EvolvedCamels.sol\":58159:58200  isValidAccessMessage(msg.sender,_v,_r,_s) */\n      tag_649\n        /* \"EvolvedCamels.sol\":58180:58190  msg.sender */\n      caller\n        /* \"EvolvedCamels.sol\":58191:58193  _v */\n      dup5\n        /* \"EvolvedCamels.sol\":58194:58196  _r */\n      dup5\n        /* \"EvolvedCamels.sol\":58197:58199  _s */\n      dup5\n        /* \"EvolvedCamels.sol\":58159:58179  isValidAccessMessage */\n      tag_143\n        /* \"EvolvedCamels.sol\":58159:58200  isValidAccessMessage(msg.sender,_v,_r,_s) */\n      jump\t// in\n    tag_649:\n        /* \"EvolvedCamels.sol\":58150:58223  require( isValidAccessMessage(msg.sender,_v,_r,_s), 'Invalid Signature' ) */\n      tag_650\n      jumpi\n      mload(0x40)\n      shl(0xe5, 0x461bcd)\n      dup2\n      mstore\n        /* \"#utility.yul\":20232:20234   */\n      0x20\n        /* \"EvolvedCamels.sol\":58150:58223  require( isValidAccessMessage(msg.sender,_v,_r,_s), 'Invalid Signature' ) */\n      0x04\n      dup3\n      add\n        /* \"#utility.yul\":20214:20235   */\n      mstore\n        /* \"#utility.yul\":20271:20273   */\n      0x11\n        /* \"#utility.yul\":20251:20269   */\n      0x24\n      dup3\n      add\n        /* \"#utility.yul\":20244:20274   */\n      mstore\n        /* \"#utility.yul\":20310:20329   */\n      0x496e76616c6964205369676e6174757265000000000000000000000000000000\n        /* \"#utility.yul\":20290:20308   */\n      0x44\n      dup3\n      add\n        /* \"#utility.yul\":20283:20330   */\n      mstore\n        /* \"#utility.yul\":20347:20365   */\n      0x64\n      add\n        /* \"EvolvedCamels.sol\":58150:58223  require( isValidAccessMessage(msg.sender,_v,_r,_s), 'Invalid Signature' ) */\n      tag_302\n        /* \"#utility.yul\":20030:20371   */\n      jump\n        /* \"EvolvedCamels.sol\":58150:58223  require( isValidAccessMessage(msg.sender,_v,_r,_s), 'Invalid Signature' ) */\n    tag_650:\n        /* \"EvolvedCamels.sol\":59682:59689  paused_ */\n      and(0xff, sload(0x14))\n        /* \"EvolvedCamels.sol\":59681:59689  !paused_ */\n      iszero\n        /* \"EvolvedCamels.sol\":59673:59709  require(!paused_, \"Sale is paused!\") */\n      tag_654\n      jumpi\n      mload(0x40)\n      shl(0xe5, 0x461bcd)\n      dup2\n      mstore\n        /* \"#utility.yul\":16882:16884   */\n      0x20\n        /* \"EvolvedCamels.sol\":59673:59709  require(!paused_, \"Sale is paused!\") */\n      0x04\n      dup3\n      add\n        /* \"#utility.yul\":16864:16885   */\n      mstore\n        /* \"#utility.yul\":16921:16923   */\n      0x0f\n        /* \"#utility.yul\":16901:16919   */\n      0x24\n      dup3\n      add\n        /* \"#utility.yul\":16894:16924   */\n      mstore\n      shl(0x88, 0x53616c652069732070617573656421)\n        /* \"#utility.yul\":16940:16958   */\n      0x44\n      dup3\n      add\n        /* \"#utility.yul\":16933:16978   */\n      mstore\n        /* \"#utility.yul\":16995:17013   */\n      0x64\n      add\n        /* \"EvolvedCamels.sol\":59673:59709  require(!paused_, \"Sale is paused!\") */\n      tag_302\n        /* \"#utility.yul\":16680:17019   */\n      jump\n        /* \"EvolvedCamels.sol\":59673:59709  require(!paused_, \"Sale is paused!\") */\n    tag_654:\n        /* \"EvolvedCamels.sol\":59720:59736  State saleState_ */\n      0x00\n        /* \"EvolvedCamels.sol\":59739:59750  saleState() */\n      tag_656\n        /* \"EvolvedCamels.sol\":59739:59748  saleState */\n      tag_184\n        /* \"EvolvedCamels.sol\":59739:59750  saleState() */\n      jump\t// in\n    tag_656:\n        /* \"EvolvedCamels.sol\":59720:59750  State saleState_ = saleState() */\n      swap1\n      pop\n        /* \"EvolvedCamels.sol\":59783:59796  State.Presale */\n      0x01\n        /* \"EvolvedCamels.sol\":59769:59779  saleState_ */\n      dup2\n        /* \"EvolvedCamels.sol\":59769:59796  saleState_ == State.Presale */\n      0x02\n      dup2\n      gt\n      iszero\n      tag_660\n      jumpi\n      tag_660\n      tag_389\n      jump\t// in\n    tag_660:\n      eq\n        /* \"EvolvedCamels.sol\":59761:59822  require(saleState_ == State.Presale, \"Sale in not open yet!\") */\n      tag_661\n      jumpi\n      mload(0x40)\n      shl(0xe5, 0x461bcd)\n      dup2\n      mstore\n        /* \"#utility.yul\":20578:20580   */\n      0x20\n        /* \"EvolvedCamels.sol\":59761:59822  require(saleState_ == State.Presale, \"Sale in not open yet!\") */\n      0x04\n      dup3\n      add\n        /* \"#utility.yul\":20560:20581   */\n      mstore\n        /* \"#utility.yul\":20617:20619   */\n      0x15\n        /* \"#utility.yul\":20597:20615   */\n      0x24\n      dup3\n      add\n        /* \"#utility.yul\":20590:20620   */\n      mstore\n        /* \"#utility.yul\":20656:20679   */\n      0x53616c6520696e206e6f74206f70656e20796574210000000000000000000000\n        /* \"#utility.yul\":20636:20654   */\n      0x44\n      dup3\n      add\n        /* \"#utility.yul\":20629:20680   */\n      mstore\n        /* \"#utility.yul\":20697:20715   */\n      0x64\n      add\n        /* \"EvolvedCamels.sol\":59761:59822  require(saleState_ == State.Presale, \"Sale in not open yet!\") */\n      tag_302\n        /* \"#utility.yul\":20376:20721   */\n      jump\n        /* \"EvolvedCamels.sol\":59761:59822  require(saleState_ == State.Presale, \"Sale in not open yet!\") */\n    tag_661:\n        /* \"EvolvedCamels.sol\":59904:59918  _reservedMints */\n      sload(0x0e)\n        /* \"EvolvedCamels.sol\":59885:59901  maxReservedMints */\n      sload(0x0f)\n        /* \"EvolvedCamels.sol\":59885:59918  maxReservedMints - _reservedMints */\n      tag_664\n      swap2\n      swap1\n      tag_329\n      jump\t// in\n    tag_664:\n        /* \"EvolvedCamels.sol\":59867:59881  maxTotalTokens */\n      sload(0x08)\n        /* \"EvolvedCamels.sol\":59867:59919  maxTotalTokens - (maxReservedMints - _reservedMints) */\n      tag_665\n      swap2\n      swap1\n      tag_329\n      jump\t// in\n    tag_665:\n        /* \"EvolvedCamels.sol\":59857:59863  number */\n      dup9\n        /* \"EvolvedCamels.sol\":59841:59854  totalSupply() */\n      tag_666\n        /* \"EvolvedCamels.sol\":40091:40098  uint256 */\n      0x00\n        /* \"EvolvedCamels.sol\":40118:40130  currentIndex */\n      sload\n      swap1\n        /* \"EvolvedCamels.sol\":40030:40138  function totalSupply() public view virtual override returns (uint256) {... */\n      jump\n        /* \"EvolvedCamels.sol\":59841:59854  totalSupply() */\n    tag_666:\n        /* \"EvolvedCamels.sol\":59841:59863  totalSupply() + number */\n      tag_667\n      swap2\n      swap1\n      tag_333\n      jump\t// in\n    tag_667:\n        /* \"EvolvedCamels.sol\":59841:59919  totalSupply() + number <= maxTotalTokens - (maxReservedMints - _reservedMints) */\n      gt\n      iszero\n        /* \"EvolvedCamels.sol\":59833:59954  require(totalSupply() + number <= maxTotalTokens - (maxReservedMints - _reservedMints), \"Not enough NFTs left to mint..\") */\n      tag_668\n      jumpi\n      mload(0x40)\n      shl(0xe5, 0x461bcd)\n      dup2\n      mstore\n        /* \"#utility.yul\":9225:9227   */\n      0x20\n        /* \"EvolvedCamels.sol\":59833:59954  require(totalSupply() + number <= maxTotalTokens - (maxReservedMints - _reservedMints), \"Not enough NFTs left to mint..\") */\n      0x04\n      dup3\n      add\n        /* \"#utility.yul\":9207:9228   */\n      mstore\n        /* \"#utility.yul\":9264:9266   */\n      0x1e\n        /* \"#utility.yul\":9244:9262   */\n      0x24\n      dup3\n      add\n        /* \"#utility.yul\":9237:9267   */\n      mstore\n        /* \"#utility.yul\":9303:9335   */\n      0x4e6f7420656e6f756768204e465473206c65667420746f206d696e742e2e0000\n        /* \"#utility.yul\":9283:9301   */\n      0x44\n      dup3\n      add\n        /* \"#utility.yul\":9276:9336   */\n      mstore\n        /* \"#utility.yul\":9353:9371   */\n      0x64\n      add\n        /* \"EvolvedCamels.sol\":59833:59954  require(totalSupply() + number <= maxTotalTokens - (maxReservedMints - _reservedMints), \"Not enough NFTs left to mint..\") */\n      tag_302\n        /* \"#utility.yul\":9023:9377   */\n      jump\n        /* \"EvolvedCamels.sol\":59833:59954  require(totalSupply() + number <= maxTotalTokens - (maxReservedMints - _reservedMints), \"Not enough NFTs left to mint..\") */\n    tag_668:\n        /* \"EvolvedCamels.sol\":60013:60027  maxMintPresale */\n      sload(0x0c)\n        /* \"EvolvedCamels.sol\":59989:59999  msg.sender */\n      caller\n        /* \"EvolvedCamels.sol\":59973:60000  mintsPerAddress[msg.sender] */\n      0x00\n      swap1\n      dup2\n      mstore\n        /* \"EvolvedCamels.sol\":59973:59988  mintsPerAddress */\n      0x15\n        /* \"EvolvedCamels.sol\":59973:60000  mintsPerAddress[msg.sender] */\n      0x20\n      mstore\n      0x40\n      swap1\n      keccak256\n      sload\n        /* \"EvolvedCamels.sol\":59973:60009  mintsPerAddress[msg.sender] + number */\n      tag_670\n      swap1\n        /* \"EvolvedCamels.sol\":60003:60009  number */\n      dup11\n      swap1\n        /* \"EvolvedCamels.sol\":59973:60009  mintsPerAddress[msg.sender] + number */\n      tag_333\n      jump\t// in\n    tag_670:\n        /* \"EvolvedCamels.sol\":59973:60027  mintsPerAddress[msg.sender] + number <= maxMintPresale */\n      gt\n      iszero\n        /* \"EvolvedCamels.sol\":59965:60067  require(mintsPerAddress[msg.sender] + number <= maxMintPresale, \"Maximum Mints per Address exceeded!\") */\n      tag_671\n      jumpi\n      mload(0x40)\n      shl(0xe5, 0x461bcd)\n      dup2\n      mstore\n        /* \"#utility.yul\":17583:17585   */\n      0x20\n        /* \"EvolvedCamels.sol\":59965:60067  require(mintsPerAddress[msg.sender] + number <= maxMintPresale, \"Maximum Mints per Address exceeded!\") */\n      0x04\n      dup3\n      add\n        /* \"#utility.yul\":17565:17586   */\n      mstore\n        /* \"#utility.yul\":17622:17624   */\n      0x23\n        /* \"#utility.yul\":17602:17620   */\n      0x24\n      dup3\n      add\n        /* \"#utility.yul\":17595:17625   */\n      mstore\n        /* \"#utility.yul\":17661:17695   */\n      0x4d6178696d756d204d696e747320706572204164647265737320657863656564\n        /* \"#utility.yul\":17641:17659   */\n      0x44\n      dup3\n      add\n        /* \"#utility.yul\":17634:17696   */\n      mstore\n      shl(0xe8, 0x656421)\n        /* \"#utility.yul\":17712:17730   */\n      0x64\n      dup3\n      add\n        /* \"#utility.yul\":17705:17738   */\n      mstore\n        /* \"#utility.yul\":17755:17774   */\n      0x84\n      add\n        /* \"EvolvedCamels.sol\":59965:60067  require(mintsPerAddress[msg.sender] + number <= maxMintPresale, \"Maximum Mints per Address exceeded!\") */\n      tag_302\n        /* \"#utility.yul\":17381:17780   */\n      jump\n        /* \"EvolvedCamels.sol\":59965:60067  require(mintsPerAddress[msg.sender] + number <= maxMintPresale, \"Maximum Mints per Address exceeded!\") */\n    tag_671:\n        /* \"EvolvedCamels.sol\":60112:60118  number */\n      dup8\n        /* \"EvolvedCamels.sol\":60099:60109  mintCost() */\n      tag_673\n        /* \"EvolvedCamels.sol\":60099:60107  mintCost */\n      tag_250\n        /* \"EvolvedCamels.sol\":60099:60109  mintCost() */\n      jump\t// in\n    tag_673:\n        /* \"EvolvedCamels.sol\":60099:60118  mintCost() * number */\n      tag_674\n      swap2\n      swap1\n      tag_452\n      jump\t// in\n    tag_674:\n        /* \"EvolvedCamels.sol\":60086:60095  msg.value */\n      callvalue\n        /* \"EvolvedCamels.sol\":60086:60118  msg.value >= mintCost() * number */\n      lt\n      iszero\n        /* \"EvolvedCamels.sol\":60078:60171  require(msg.value >= mintCost() * number, \"Not sufficient Ether to mint this amount of NFTs\") */\n      tag_675\n      jumpi\n      mload(0x40)\n      shl(0xe5, 0x461bcd)\n      dup2\n      mstore\n        /* \"#utility.yul\":20928:20930   */\n      0x20\n        /* \"EvolvedCamels.sol\":60078:60171  require(msg.value >= mintCost() * number, \"Not sufficient Ether to mint this amount of NFTs\") */\n      0x04\n      dup3\n      add\n        /* \"#utility.yul\":20910:20931   */\n      mstore\n        /* \"#utility.yul\":20967:20969   */\n      0x30\n        /* \"#utility.yul\":20947:20965   */\n      0x24\n      dup3\n      add\n        /* \"#utility.yul\":20940:20970   */\n      mstore\n        /* \"#utility.yul\":21006:21040   */\n      0x4e6f742073756666696369656e7420457468657220746f206d696e7420746869\n        /* \"#utility.yul\":20986:21004   */\n      0x44\n      dup3\n      add\n        /* \"#utility.yul\":20979:21041   */\n      mstore\n        /* \"#utility.yul\":21077:21095   */\n      0x7320616d6f756e74206f66204e46547300000000000000000000000000000000\n        /* \"#utility.yul\":21057:21075   */\n      0x64\n      dup3\n      add\n        /* \"#utility.yul\":21050:21096   */\n      mstore\n        /* \"#utility.yul\":21113:21132   */\n      0x84\n      add\n        /* \"EvolvedCamels.sol\":60078:60171  require(msg.value >= mintCost() * number, \"Not sufficient Ether to mint this amount of NFTs\") */\n      tag_302\n        /* \"#utility.yul\":20726:21138   */\n      jump\n        /* \"EvolvedCamels.sol\":60078:60171  require(msg.value >= mintCost() * number, \"Not sufficient Ether to mint this amount of NFTs\") */\n    tag_675:\n        /* \"EvolvedCamels.sol\":60192:60221  _safeMint(msg.sender, number) */\n      tag_678\n        /* \"EvolvedCamels.sol\":60202:60212  msg.sender */\n      caller\n        /* \"EvolvedCamels.sol\":60214:60220  number */\n      dup10\n        /* \"EvolvedCamels.sol\":60192:60201  _safeMint */\n      tag_347\n        /* \"EvolvedCamels.sol\":60192:60221  _safeMint(msg.sender, number) */\n      jump\t// in\n    tag_678:\n        /* \"EvolvedCamels.sol\":60248:60258  msg.sender */\n      caller\n        /* \"EvolvedCamels.sol\":60232:60259  mintsPerAddress[msg.sender] */\n      0x00\n      swap1\n      dup2\n      mstore\n        /* \"EvolvedCamels.sol\":60232:60247  mintsPerAddress */\n      0x15\n        /* \"EvolvedCamels.sol\":60232:60259  mintsPerAddress[msg.sender] */\n      0x20\n      mstore\n      0x40\n      dup2\n      keccak256\n        /* \"EvolvedCamels.sol\":60232:60269  mintsPerAddress[msg.sender] += number */\n      dup1\n      sload\n        /* \"EvolvedCamels.sol\":60263:60269  number */\n      dup11\n      swap3\n        /* \"EvolvedCamels.sol\":60232:60259  mintsPerAddress[msg.sender] */\n      swap1\n        /* \"EvolvedCamels.sol\":60232:60269  mintsPerAddress[msg.sender] += number */\n      tag_679\n      swap1\n        /* \"EvolvedCamels.sol\":60263:60269  number */\n      dup5\n      swap1\n        /* \"EvolvedCamels.sol\":60232:60269  mintsPerAddress[msg.sender] += number */\n      tag_333\n      jump\t// in\n    tag_679:\n      swap1\n      swap2\n      sstore\n      pop\n      pop\n      pop\n      pop\n      pop\n      pop\n      pop\n      pop\n      pop\n      pop\n        /* \"EvolvedCamels.sol\":59547:60279  function presaleMint(uint256 number, uint8 _v, bytes32 _r, bytes32 _s) onlyValidAccess(_v,  _r, _s) public payable {... */\n      jump\t// out\n        /* \"EvolvedCamels.sol\":57710:57880  function switchToPresale() public onlyOwner {... */\n    tag_280:\n        /* \"EvolvedCamels.sol\":4084:4090  _owner */\n      and(sub(shl(0xa0, 0x01), 0x01), sload(0x07))\n        /* \"EvolvedCamels.sol\":2879:2889  msg.sender */\n      caller\n        /* \"EvolvedCamels.sol\":4231:4254  owner() == _msgSender() */\n      eq\n        /* \"EvolvedCamels.sol\":4223:4291  require(owner() == _msgSender(), \"Ownable: caller is not the owner\") */\n      tag_684\n      jumpi\n      mload(0x40)\n      shl(0xe5, 0x461bcd)\n      dup2\n      mstore\n        /* \"#utility.yul\":7326:7328   */\n      0x20\n        /* \"EvolvedCamels.sol\":4223:4291  require(owner() == _msgSender(), \"Ownable: caller is not the owner\") */\n      0x04\n      dup3\n      add\n        /* \"#utility.yul\":7308:7329   */\n      dup2\n      swap1\n      mstore\n        /* \"#utility.yul\":7345:7363   */\n      0x24\n      dup3\n      add\n        /* \"#utility.yul\":7338:7368   */\n      mstore\n      0x00\n      dup1\n      mload\n      0x20\n      data_9924ebdf1add33d25d4ef888e16131f0a5687b0580a36c21b5c301a6c462effe\n      dup4\n      codecopy\n      dup2\n      mload\n      swap2\n      mstore\n        /* \"#utility.yul\":7384:7402   */\n      0x44\n      dup3\n      add\n        /* \"#utility.yul\":7377:7439   */\n      mstore\n        /* \"#utility.yul\":7456:7474   */\n      0x64\n      add\n        /* \"EvolvedCamels.sol\":4223:4291  require(owner() == _msgSender(), \"Ownable: caller is not the owner\") */\n      tag_302\n        /* \"#utility.yul\":7124:7480   */\n      jump\n        /* \"EvolvedCamels.sol\":4223:4291  require(owner() == _msgSender(), \"Ownable: caller is not the owner\") */\n    tag_684:\n        /* \"EvolvedCamels.sol\":57788:57800  State.NoSale */\n      0x00\n        /* \"EvolvedCamels.sol\":57773:57784  saleState() */\n      tag_689\n        /* \"EvolvedCamels.sol\":57773:57782  saleState */\n      tag_184\n        /* \"EvolvedCamels.sol\":57773:57784  saleState() */\n      jump\t// in\n    tag_689:\n        /* \"EvolvedCamels.sol\":57773:57800  saleState() == State.NoSale */\n      0x02\n      dup2\n      gt\n      iszero\n      tag_691\n      jumpi\n      tag_691\n      tag_389\n      jump\t// in\n    tag_691:\n      eq\n        /* \"EvolvedCamels.sol\":57765:57826  require(saleState() == State.NoSale, 'Sale is already Open!') */\n      tag_692\n      jumpi\n      mload(0x40)\n      shl(0xe5, 0x461bcd)\n      dup2\n      mstore\n        /* \"#utility.yul\":21345:21347   */\n      0x20\n        /* \"EvolvedCamels.sol\":57765:57826  require(saleState() == State.NoSale, 'Sale is already Open!') */\n      0x04\n      dup3\n      add\n        /* \"#utility.yul\":21327:21348   */\n      mstore\n        /* \"#utility.yul\":21384:21386   */\n      0x15\n        /* \"#utility.yul\":21364:21382   */\n      0x24\n      dup3\n      add\n        /* \"#utility.yul\":21357:21387   */\n      mstore\n        /* \"#utility.yul\":21423:21446   */\n      0x53616c6520697320616c7265616479204f70656e210000000000000000000000\n        /* \"#utility.yul\":21403:21421   */\n      0x44\n      dup3\n      add\n        /* \"#utility.yul\":21396:21447   */\n      mstore\n        /* \"#utility.yul\":21464:21482   */\n      0x64\n      add\n        /* \"EvolvedCamels.sol\":57765:57826  require(saleState() == State.NoSale, 'Sale is already Open!') */\n      tag_302\n        /* \"#utility.yul\":21143:21488   */\n      jump\n        /* \"EvolvedCamels.sol\":57765:57826  require(saleState() == State.NoSale, 'Sale is already Open!') */\n    tag_692:\n        /* \"EvolvedCamels.sol\":57857:57872  block.timestamp */\n      timestamp\n        /* \"EvolvedCamels.sol\":57837:57854  presaleLaunchTime */\n      0x11\n        /* \"EvolvedCamels.sol\":57837:57872  presaleLaunchTime = block.timestamp */\n      sstore\n        /* \"EvolvedCamels.sol\":57710:57880  function switchToPresale() public onlyOwner {... */\n      jump\t// out\n        /* \"EvolvedCamels.sol\":4911:5103  function transferOwnership(address newOwner) public virtual onlyOwner {... */\n    tag_284:\n        /* \"EvolvedCamels.sol\":4084:4090  _owner */\n      and(sub(shl(0xa0, 0x01), 0x01), sload(0x07))\n        /* \"EvolvedCamels.sol\":2879:2889  msg.sender */\n      caller\n        /* \"EvolvedCamels.sol\":4231:4254  owner() == _msgSender() */\n      eq\n        /* \"EvolvedCamels.sol\":4223:4291  require(owner() == _msgSender(), \"Ownable: caller is not the owner\") */\n      tag_698\n      jumpi\n      mload(0x40)\n      shl(0xe5, 0x461bcd)\n      dup2\n      mstore\n        /* \"#utility.yul\":7326:7328   */\n      0x20\n        /* \"EvolvedCamels.sol\":4223:4291  require(owner() == _msgSender(), \"Ownable: caller is not the owner\") */\n      0x04\n      dup3\n      add\n        /* \"#utility.yul\":7308:7329   */\n      dup2\n      swap1\n      mstore\n        /* \"#utility.yul\":7345:7363   */\n      0x24\n      dup3\n      add\n        /* \"#utility.yul\":7338:7368   */\n      mstore\n      0x00\n      dup1\n      mload\n      0x20\n      data_9924ebdf1add33d25d4ef888e16131f0a5687b0580a36c21b5c301a6c462effe\n      dup4\n      codecopy\n      dup2\n      mload\n      swap2\n      mstore\n        /* \"#utility.yul\":7384:7402   */\n      0x44\n      dup3\n      add\n        /* \"#utility.yul\":7377:7439   */\n      mstore\n        /* \"#utility.yul\":7456:7474   */\n      0x64\n      add\n        /* \"EvolvedCamels.sol\":4223:4291  require(owner() == _msgSender(), \"Ownable: caller is not the owner\") */\n      tag_302\n        /* \"#utility.yul\":7124:7480   */\n      jump\n        /* \"EvolvedCamels.sol\":4223:4291  require(owner() == _msgSender(), \"Ownable: caller is not the owner\") */\n    tag_698:\n      sub(shl(0xa0, 0x01), 0x01)\n        /* \"EvolvedCamels.sol\":5000:5022  newOwner != address(0) */\n      dup2\n      and\n        /* \"EvolvedCamels.sol\":4992:5065  require(newOwner != address(0), \"Ownable: new owner is the zero address\") */\n      tag_701\n      jumpi\n      mload(0x40)\n      shl(0xe5, 0x461bcd)\n      dup2\n      mstore\n        /* \"#utility.yul\":21695:21697   */\n      0x20\n        /* \"EvolvedCamels.sol\":4992:5065  require(newOwner != address(0), \"Ownable: new owner is the zero address\") */\n      0x04\n      dup3\n      add\n        /* \"#utility.yul\":21677:21698   */\n      mstore\n        /* \"#utility.yul\":21734:21736   */\n      0x26\n        /* \"#utility.yul\":21714:21732   */\n      0x24\n      dup3\n      add\n        /* \"#utility.yul\":21707:21737   */\n      mstore\n        /* \"#utility.yul\":21773:21807   */\n      0x4f776e61626c653a206e6577206f776e657220697320746865207a65726f2061\n        /* \"#utility.yul\":21753:21771   */\n      0x44\n      dup3\n      add\n        /* \"#utility.yul\":21746:21808   */\n      mstore\n        /* \"#utility.yul\":21844:21852   */\n      0x6464726573730000000000000000000000000000000000000000000000000000\n        /* \"#utility.yul\":21824:21842   */\n      0x64\n      dup3\n      add\n        /* \"#utility.yul\":21817:21853   */\n      mstore\n        /* \"#utility.yul\":21870:21889   */\n      0x84\n      add\n        /* \"EvolvedCamels.sol\":4992:5065  require(newOwner != address(0), \"Ownable: new owner is the zero address\") */\n      tag_302\n        /* \"#utility.yul\":21493:21895   */\n      jump\n        /* \"EvolvedCamels.sol\":4992:5065  require(newOwner != address(0), \"Ownable: new owner is the zero address\") */\n    tag_701:\n        /* \"EvolvedCamels.sol\":5076:5095  _setOwner(newOwner) */\n      tag_456\n        /* \"EvolvedCamels.sol\":5086:5094  newOwner */\n      dup2\n        /* \"EvolvedCamels.sol\":5076:5085  _setOwner */\n      tag_503\n        /* \"EvolvedCamels.sol\":5076:5095  _setOwner(newOwner) */\n      jump\t// in\n        /* \"EvolvedCamels.sol\":65824:65953  function balanceOfCrazyCamels(address account) public view returns(uint) {... */\n    tag_288:\n        /* \"EvolvedCamels.sol\":65915:65926  CrazyCamels */\n      sload(0x17)\n        /* \"EvolvedCamels.sol\":65915:65945  CrazyCamels.balanceOf(account) */\n      mload(0x40)\n      shl(0xe0, 0x70a08231)\n      dup2\n      mstore\n      sub(shl(0xa0, 0x01), 0x01)\n        /* \"#utility.yul\":2084:2139   */\n      dup4\n      dup2\n      and\n        /* \"EvolvedCamels.sol\":65915:65945  CrazyCamels.balanceOf(account) */\n      0x04\n      dup4\n      add\n        /* \"#utility.yul\":2066:2140   */\n      mstore\n        /* \"EvolvedCamels.sol\":65891:65895  uint */\n      0x00\n      swap3\n        /* \"EvolvedCamels.sol\":65915:65926  CrazyCamels */\n      and\n      swap1\n        /* \"EvolvedCamels.sol\":65915:65936  CrazyCamels.balanceOf */\n      0x70a08231\n      swap1\n        /* \"#utility.yul\":2039:2057   */\n      0x24\n      add\n        /* \"EvolvedCamels.sol\":65915:65945  CrazyCamels.balanceOf(account) */\n      0x20\n      mload(0x40)\n      dup1\n      dup4\n      sub\n      dup2\n      dup7\n      gas\n      staticcall\n      iszero\n      dup1\n      iszero\n      tag_708\n      jumpi\n      returndatasize\n      0x00\n      dup1\n      returndatacopy\n      revert(0x00, returndatasize)\n    tag_708:\n      pop\n      pop\n      pop\n      pop\n      mload(0x40)\n      returndatasize\n      not(0x1f)\n      0x1f\n      dup3\n      add\n      and\n      dup3\n      add\n      dup1\n      0x40\n      mstore\n      pop\n      dup2\n      add\n      swap1\n      tag_309\n      swap2\n      swap1\n      tag_341\n      jump\t// in\n        /* \"EvolvedCamels.sol\":57888:58068  function switchToPublicSale() public onlyOwner {... */\n    tag_292:\n        /* \"EvolvedCamels.sol\":4084:4090  _owner */\n      and(sub(shl(0xa0, 0x01), 0x01), sload(0x07))\n        /* \"EvolvedCamels.sol\":2879:2889  msg.sender */\n      caller\n        /* \"EvolvedCamels.sol\":4231:4254  owner() == _msgSender() */\n      eq\n        /* \"EvolvedCamels.sol\":4223:4291  require(owner() == _msgSender(), \"Ownable: caller is not the owner\") */\n      tag_713\n      jumpi\n      mload(0x40)\n      shl(0xe5, 0x461bcd)\n      dup2\n      mstore\n        /* \"#utility.yul\":7326:7328   */\n      0x20\n        /* \"EvolvedCamels.sol\":4223:4291  require(owner() == _msgSender(), \"Ownable: caller is not the owner\") */\n      0x04\n      dup3\n      add\n        /* \"#utility.yul\":7308:7329   */\n      dup2\n      swap1\n      mstore\n        /* \"#utility.yul\":7345:7363   */\n      0x24\n      dup3\n      add\n        /* \"#utility.yul\":7338:7368   */\n      mstore\n      0x00\n      dup1\n      mload\n      0x20\n      data_9924ebdf1add33d25d4ef888e16131f0a5687b0580a36c21b5c301a6c462effe\n      dup4\n      codecopy\n      dup2\n      mload\n      swap2\n      mstore\n        /* \"#utility.yul\":7384:7402   */\n      0x44\n      dup3\n      add\n        /* \"#utility.yul\":7377:7439   */\n      mstore\n        /* \"#utility.yul\":7456:7474   */\n      0x64\n      add\n        /* \"EvolvedCamels.sol\":4223:4291  require(owner() == _msgSender(), \"Ownable: caller is not the owner\") */\n      tag_302\n        /* \"#utility.yul\":7124:7480   */\n      jump\n        /* \"EvolvedCamels.sol\":4223:4291  require(owner() == _msgSender(), \"Ownable: caller is not the owner\") */\n    tag_713:\n        /* \"EvolvedCamels.sol\":57969:57982  State.Presale */\n      0x01\n        /* \"EvolvedCamels.sol\":57954:57965  saleState() */\n      tag_718\n        /* \"EvolvedCamels.sol\":57954:57963  saleState */\n      tag_184\n        /* \"EvolvedCamels.sol\":57954:57965  saleState() */\n      jump\t// in\n    tag_718:\n        /* \"EvolvedCamels.sol\":57954:57982  saleState() == State.Presale */\n      0x02\n      dup2\n      gt\n      iszero\n      tag_720\n      jumpi\n      tag_720\n      tag_389\n      jump\t// in\n    tag_720:\n      eq\n        /* \"EvolvedCamels.sol\":57946:58011  require(saleState() == State.Presale, 'Sale must be in Presale!') */\n      tag_721\n      jumpi\n      mload(0x40)\n      shl(0xe5, 0x461bcd)\n      dup2\n      mstore\n        /* \"#utility.yul\":22102:22104   */\n      0x20\n        /* \"EvolvedCamels.sol\":57946:58011  require(saleState() == State.Presale, 'Sale must be in Presale!') */\n      0x04\n      dup3\n      add\n        /* \"#utility.yul\":22084:22105   */\n      mstore\n        /* \"#utility.yul\":22141:22143   */\n      0x18\n        /* \"#utility.yul\":22121:22139   */\n      0x24\n      dup3\n      add\n        /* \"#utility.yul\":22114:22144   */\n      mstore\n        /* \"#utility.yul\":22180:22206   */\n      0x53616c65206d75737420626520696e2050726573616c65210000000000000000\n        /* \"#utility.yul\":22160:22178   */\n      0x44\n      dup3\n      add\n        /* \"#utility.yul\":22153:22207   */\n      mstore\n        /* \"#utility.yul\":22224:22242   */\n      0x64\n      add\n        /* \"EvolvedCamels.sol\":57946:58011  require(saleState() == State.Presale, 'Sale must be in Presale!') */\n      tag_302\n        /* \"#utility.yul\":21900:22248   */\n      jump\n        /* \"EvolvedCamels.sol\":57946:58011  require(saleState() == State.Presale, 'Sale must be in Presale!') */\n    tag_721:\n        /* \"EvolvedCamels.sol\":58045:58060  block.timestamp */\n      timestamp\n        /* \"EvolvedCamels.sol\":58022:58042  publicSaleLaunchTime */\n      0x12\n        /* \"EvolvedCamels.sol\":58022:58060  publicSaleLaunchTime = block.timestamp */\n      sstore\n        /* \"EvolvedCamels.sol\":57888:58068  function switchToPublicSale() public onlyOwner {... */\n      jump\t// out\n        /* \"EvolvedCamels.sol\":47331:47435  function _safeMint(address to, uint256 quantity) internal {... */\n    tag_347:\n        /* \"EvolvedCamels.sol\":47400:47427  _safeMint(to, quantity, '') */\n      tag_393\n        /* \"EvolvedCamels.sol\":47410:47412  to */\n      dup3\n        /* \"EvolvedCamels.sol\":47414:47422  quantity */\n      dup3\n        /* \"EvolvedCamels.sol\":47400:47427  _safeMint(to, quantity, '') */\n      mload(0x40)\n      dup1\n      0x20\n      add\n      0x40\n      mstore\n      dup1\n      0x00\n      dup2\n      mstore\n      pop\n        /* \"EvolvedCamels.sol\":47400:47409  _safeMint */\n      tag_729\n        /* \"EvolvedCamels.sol\":47400:47427  _safeMint(to, quantity, '') */\n      jump\t// in\n        /* \"EvolvedCamels.sol\":52132:52328  function _approve(... */\n    tag_362:\n        /* \"EvolvedCamels.sol\":52247:52271  _tokenApprovals[tokenId] */\n      0x00\n      dup3\n      dup2\n      mstore\n        /* \"EvolvedCamels.sol\":52247:52262  _tokenApprovals */\n      0x05\n        /* \"EvolvedCamels.sol\":52247:52271  _tokenApprovals[tokenId] */\n      0x20\n      mstore\n      0x40\n      dup1\n      dup3\n      keccak256\n        /* \"EvolvedCamels.sol\":52247:52276  _tokenApprovals[tokenId] = to */\n      dup1\n      sload\n      not(sub(shl(0xa0, 0x01), 0x01))\n      and\n      sub(shl(0xa0, 0x01), 0x01)\n      dup8\n      dup2\n      and\n      swap2\n      dup3\n      or\n      swap1\n      swap3\n      sstore\n        /* \"EvolvedCamels.sol\":52292:52320  Approval(owner, to, tokenId) */\n      swap2\n      mload\n        /* \"EvolvedCamels.sol\":52247:52271  _tokenApprovals[tokenId] */\n      dup6\n      swap4\n        /* \"EvolvedCamels.sol\":52292:52320  Approval(owner, to, tokenId) */\n      swap2\n      dup6\n      and\n      swap2\n      0x8c5be1e5ebec7d5bd14f71427d1e84f3dd0314c0f7b2291e5b200ac8c7c3b925\n      swap2\n      log4\n        /* \"EvolvedCamels.sol\":52132:52328  function _approve(... */\n      pop\n      pop\n      pop\n      jump\t// out\n        /* \"EvolvedCamels.sol\":50012:52014  function _transfer(... */\n    tag_396:\n        /* \"EvolvedCamels.sol\":50127:50162  TokenOwnership memory prevOwnership */\n      0x00\n        /* \"EvolvedCamels.sol\":50165:50185  ownershipOf(tokenId) */\n      tag_732\n        /* \"EvolvedCamels.sol\":50177:50184  tokenId */\n      dup3\n        /* \"EvolvedCamels.sol\":50165:50176  ownershipOf */\n      tag_486\n        /* \"EvolvedCamels.sol\":50165:50185  ownershipOf(tokenId) */\n      jump\t// in\n    tag_732:\n        /* \"EvolvedCamels.sol\":50240:50258  prevOwnership.addr */\n      dup1\n      mload\n        /* \"EvolvedCamels.sol\":50127:50185  TokenOwnership memory prevOwnership = ownershipOf(tokenId) */\n      swap1\n      swap2\n      pop\n        /* \"EvolvedCamels.sol\":50198:50220  bool isApprovedOrOwner */\n      0x00\n      swap1\n      sub(shl(0xa0, 0x01), 0x01)\n        /* \"EvolvedCamels.sol\":50224:50258  _msgSender() == prevOwnership.addr */\n      and\n        /* \"EvolvedCamels.sol\":2879:2889  msg.sender */\n      caller\n      sub(shl(0xa0, 0x01), 0x01)\n        /* \"EvolvedCamels.sol\":50224:50258  _msgSender() == prevOwnership.addr */\n      and\n      eq\n        /* \"EvolvedCamels.sol\":50224:50311  _msgSender() == prevOwnership.addr ||... */\n      dup1\n      tag_734\n      jumpi\n      pop\n        /* \"EvolvedCamels.sol\":2879:2889  msg.sender */\n      caller\n        /* \"EvolvedCamels.sol\":50275:50295  getApproved(tokenId) */\n      tag_736\n        /* \"EvolvedCamels.sol\":50287:50294  tokenId */\n      dup5\n        /* \"EvolvedCamels.sol\":50275:50286  getApproved */\n      tag_94\n        /* \"EvolvedCamels.sol\":50275:50295  getApproved(tokenId) */\n      jump\t// in\n    tag_736:\n      sub(shl(0xa0, 0x01), 0x01)\n        /* \"EvolvedCamels.sol\":50275:50311  getApproved(tokenId) == _msgSender() */\n      and\n      eq\n        /* \"EvolvedCamels.sol\":50224:50311  _msgSender() == prevOwnership.addr ||... */\n    tag_734:\n        /* \"EvolvedCamels.sol\":50224:50378  _msgSender() == prevOwnership.addr ||... */\n      dup1\n      tag_738\n      jumpi\n      pop\n        /* \"EvolvedCamels.sol\":50345:50363  prevOwnership.addr */\n      dup2\n      mload\n        /* \"EvolvedCamels.sol\":50328:50378  isApprovedForAll(prevOwnership.addr, _msgSender()) */\n      tag_738\n      swap1\n        /* \"EvolvedCamels.sol\":2879:2889  msg.sender */\n      caller\n        /* \"EvolvedCamels.sol\":45874:46038  function isApprovedForAll(address owner, address operator) public view virtual override returns (bool) {... */\n      tag_274\n      jump\t// in\n        /* \"EvolvedCamels.sol\":50328:50378  isApprovedForAll(prevOwnership.addr, _msgSender()) */\n    tag_738:\n        /* \"EvolvedCamels.sol\":50198:50379  bool isApprovedOrOwner = (_msgSender() == prevOwnership.addr ||... */\n      swap1\n      pop\n        /* \"EvolvedCamels.sol\":50400:50417  isApprovedOrOwner */\n      dup1\n        /* \"EvolvedCamels.sol\":50392:50472  require(isApprovedOrOwner, 'ERC721A: transfer caller is not owner nor approved') */\n      tag_740\n      jumpi\n      mload(0x40)\n      shl(0xe5, 0x461bcd)\n      dup2\n      mstore\n        /* \"#utility.yul\":22455:22457   */\n      0x20\n        /* \"EvolvedCamels.sol\":50392:50472  require(isApprovedOrOwner, 'ERC721A: transfer caller is not owner nor approved') */\n      0x04\n      dup3\n      add\n        /* \"#utility.yul\":22437:22458   */\n      mstore\n        /* \"#utility.yul\":22494:22496   */\n      0x32\n        /* \"#utility.yul\":22474:22492   */\n      0x24\n      dup3\n      add\n        /* \"#utility.yul\":22467:22497   */\n      mstore\n        /* \"#utility.yul\":22533:22567   */\n      0x455243373231413a207472616e736665722063616c6c6572206973206e6f7420\n        /* \"#utility.yul\":22513:22531   */\n      0x44\n      dup3\n      add\n        /* \"#utility.yul\":22506:22568   */\n      mstore\n        /* \"#utility.yul\":22604:22624   */\n      0x6f776e6572206e6f7220617070726f7665640000000000000000000000000000\n        /* \"#utility.yul\":22584:22602   */\n      0x64\n      dup3\n      add\n        /* \"#utility.yul\":22577:22625   */\n      mstore\n        /* \"#utility.yul\":22642:22661   */\n      0x84\n      add\n        /* \"EvolvedCamels.sol\":50392:50472  require(isApprovedOrOwner, 'ERC721A: transfer caller is not owner nor approved') */\n      tag_302\n        /* \"#utility.yul\":22253:22667   */\n      jump\n        /* \"EvolvedCamels.sol\":50392:50472  require(isApprovedOrOwner, 'ERC721A: transfer caller is not owner nor approved') */\n    tag_740:\n        /* \"EvolvedCamels.sol\":50515:50519  from */\n      dup5\n      sub(shl(0xa0, 0x01), 0x01)\n        /* \"EvolvedCamels.sol\":50493:50519  prevOwnership.addr == from */\n      and\n        /* \"EvolvedCamels.sol\":50493:50506  prevOwnership */\n      dup3\n        /* \"EvolvedCamels.sol\":50493:50511  prevOwnership.addr */\n      0x00\n      add\n      mload\n      sub(shl(0xa0, 0x01), 0x01)\n        /* \"EvolvedCamels.sol\":50493:50519  prevOwnership.addr == from */\n      and\n      eq\n        /* \"EvolvedCamels.sol\":50485:50562  require(prevOwnership.addr == from, 'ERC721A: transfer from incorrect owner') */\n      tag_743\n      jumpi\n      mload(0x40)\n      shl(0xe5, 0x461bcd)\n      dup2\n      mstore\n        /* \"#utility.yul\":22874:22876   */\n      0x20\n        /* \"EvolvedCamels.sol\":50485:50562  require(prevOwnership.addr == from, 'ERC721A: transfer from incorrect owner') */\n      0x04\n      dup3\n      add\n        /* \"#utility.yul\":22856:22877   */\n      mstore\n        /* \"#utility.yul\":22913:22915   */\n      0x26\n        /* \"#utility.yul\":22893:22911   */\n      0x24\n      dup3\n      add\n        /* \"#utility.yul\":22886:22916   */\n      mstore\n        /* \"#utility.yul\":22952:22986   */\n      0x455243373231413a207472616e736665722066726f6d20696e636f7272656374\n        /* \"#utility.yul\":22932:22950   */\n      0x44\n      dup3\n      add\n        /* \"#utility.yul\":22925:22987   */\n      mstore\n        /* \"#utility.yul\":23023:23031   */\n      0x206f776e65720000000000000000000000000000000000000000000000000000\n        /* \"#utility.yul\":23003:23021   */\n      0x64\n      dup3\n      add\n        /* \"#utility.yul\":22996:23032   */\n      mstore\n        /* \"#utility.yul\":23049:23068   */\n      0x84\n      add\n        /* \"EvolvedCamels.sol\":50485:50562  require(prevOwnership.addr == from, 'ERC721A: transfer from incorrect owner') */\n      tag_302\n        /* \"#utility.yul\":22672:23074   */\n      jump\n        /* \"EvolvedCamels.sol\":50485:50562  require(prevOwnership.addr == from, 'ERC721A: transfer from incorrect owner') */\n    tag_743:\n      sub(shl(0xa0, 0x01), 0x01)\n        /* \"EvolvedCamels.sol\":50581:50597  to != address(0) */\n      dup5\n      and\n        /* \"EvolvedCamels.sol\":50573:50639  require(to != address(0), 'ERC721A: transfer to the zero address') */\n      tag_746\n      jumpi\n      mload(0x40)\n      shl(0xe5, 0x461bcd)\n      dup2\n      mstore\n        /* \"#utility.yul\":23281:23283   */\n      0x20\n        /* \"EvolvedCamels.sol\":50573:50639  require(to != address(0), 'ERC721A: transfer to the zero address') */\n      0x04\n      dup3\n      add\n        /* \"#utility.yul\":23263:23284   */\n      mstore\n        /* \"#utility.yul\":23320:23322   */\n      0x25\n        /* \"#utility.yul\":23300:23318   */\n      0x24\n      dup3\n      add\n        /* \"#utility.yul\":23293:23323   */\n      mstore\n        /* \"#utility.yul\":23359:23393   */\n      0x455243373231413a207472616e7366657220746f20746865207a65726f206164\n        /* \"#utility.yul\":23339:23357   */\n      0x44\n      dup3\n      add\n        /* \"#utility.yul\":23332:23394   */\n      mstore\n        /* \"#utility.yul\":23430:23437   */\n      0x6472657373000000000000000000000000000000000000000000000000000000\n        /* \"#utility.yul\":23410:23428   */\n      0x64\n      dup3\n      add\n        /* \"#utility.yul\":23403:23438   */\n      mstore\n        /* \"#utility.yul\":23455:23474   */\n      0x84\n      add\n        /* \"EvolvedCamels.sol\":50573:50639  require(to != address(0), 'ERC721A: transfer to the zero address') */\n      tag_302\n        /* \"#utility.yul\":23079:23480   */\n      jump\n        /* \"EvolvedCamels.sol\":50573:50639  require(to != address(0), 'ERC721A: transfer to the zero address') */\n    tag_746:\n        /* \"EvolvedCamels.sol\":50760:50809  _approve(address(0), tokenId, prevOwnership.addr) */\n      tag_751\n        /* \"EvolvedCamels.sol\":50777:50778  0 */\n      0x00\n        /* \"EvolvedCamels.sol\":50781:50788  tokenId */\n      dup5\n        /* \"EvolvedCamels.sol\":50790:50803  prevOwnership */\n      dup5\n        /* \"EvolvedCamels.sol\":50790:50808  prevOwnership.addr */\n      0x00\n      add\n      mload\n        /* \"EvolvedCamels.sol\":50760:50768  _approve */\n      tag_362\n        /* \"EvolvedCamels.sol\":50760:50809  _approve(address(0), tokenId, prevOwnership.addr) */\n      jump\t// in\n    tag_751:\n      sub(shl(0xa0, 0x01), 0x01)\n        /* \"EvolvedCamels.sol\":51105:51123  _addressData[from] */\n      dup6\n      dup2\n      and\n      0x00\n      swap1\n      dup2\n      mstore\n        /* \"EvolvedCamels.sol\":51105:51117  _addressData */\n      0x04\n        /* \"EvolvedCamels.sol\":51105:51123  _addressData[from] */\n      0x20\n      swap1\n      dup2\n      mstore\n      0x40\n      dup1\n      dup4\n      keccak256\n        /* \"EvolvedCamels.sol\":51105:51136  _addressData[from].balance -= 1 */\n      dup1\n      sload\n      not(0xffffffffffffffffffffffffffffffff)\n      dup1\n      dup3\n      and\n      0xffffffffffffffffffffffffffffffff\n      swap3\n      dup4\n      and\n      not(0x00)\n      add\n      dup4\n      and\n      or\n      swap1\n      swap3\n      sstore\n        /* \"EvolvedCamels.sol\":51151:51167  _addressData[to] */\n      dup10\n      dup7\n      and\n      dup1\n      dup7\n      mstore\n      dup4\n      dup7\n      keccak256\n        /* \"EvolvedCamels.sol\":51151:51180  _addressData[to].balance += 1 */\n      dup1\n      sload\n      swap4\n      dup5\n      and\n      swap4\n      dup4\n      and\n      0x01\n      swap1\n      dup2\n      add\n      swap1\n      swap4\n      and\n      swap4\n      swap1\n      swap4\n      or\n      swap1\n      swap3\n      sstore\n        /* \"EvolvedCamels.sol\":51197:51217  _ownerships[tokenId] */\n      dup9\n      dup6\n      mstore\n        /* \"EvolvedCamels.sol\":51197:51208  _ownerships */\n      0x03\n        /* \"EvolvedCamels.sol\":51197:51217  _ownerships[tokenId] */\n      swap1\n      swap4\n      mstore\n      dup2\n      dup5\n      keccak256\n        /* \"EvolvedCamels.sol\":51197:51227  _ownerships[tokenId].addr = to */\n      dup1\n      sload\n      not(sub(shl(0xe0, 0x01), 0x01))\n        /* \"EvolvedCamels.sol\":51242:51303  _ownerships[tokenId].startTimestamp = uint64(block.timestamp) */\n      and\n      swap1\n      swap2\n      or\n      shl(0xa0, 0x01)\n        /* \"EvolvedCamels.sol\":51287:51302  block.timestamp */\n      timestamp\n        /* \"EvolvedCamels.sol\":51242:51303  _ownerships[tokenId].startTimestamp = uint64(block.timestamp) */\n      0xffffffffffffffff\n      and\n      mul\n      or\n      swap1\n      sstore\n        /* \"EvolvedCamels.sol\":51577:51588  tokenId + 1 */\n      swap1\n      dup7\n      add\n        /* \"EvolvedCamels.sol\":51607:51631  _ownerships[nextTokenId] */\n      dup1\n      dup4\n      mstore\n      swap2\n      keccak256\n        /* \"EvolvedCamels.sol\":51607:51636  _ownerships[nextTokenId].addr */\n      sload\n        /* \"EvolvedCamels.sol\":51577:51588  tokenId + 1 */\n      swap1\n      swap2\n        /* \"EvolvedCamels.sol\":51607:51636  _ownerships[nextTokenId].addr */\n      and\n        /* \"EvolvedCamels.sol\":51603:51898  if (_ownerships[nextTokenId].addr == address(0)) {... */\n      tag_754\n      jumpi\n        /* \"EvolvedCamels.sol\":51675:51695  _exists(nextTokenId) */\n      tag_753\n        /* \"EvolvedCamels.sol\":51683:51694  nextTokenId */\n      dup2\n        /* \"EvolvedCamels.sol\":47269:47273  bool */\n      0x00\n        /* \"EvolvedCamels.sol\":47303:47315  currentIndex */\n      sload\n      gt\n        /* \"EvolvedCamels.sol\":47293:47315  tokenId < currentIndex */\n      swap1\n        /* \"EvolvedCamels.sol\":47212:47323  function _exists(uint256 tokenId) internal view returns (bool) {... */\n      jump\n        /* \"EvolvedCamels.sol\":51675:51695  _exists(nextTokenId) */\n    tag_753:\n        /* \"EvolvedCamels.sol\":51671:51883  if (_exists(nextTokenId)) {... */\n      iszero\n      tag_754\n      jumpi\n        /* \"EvolvedCamels.sol\":51752:51770  prevOwnership.addr */\n      dup3\n      mload\n      0x00\n        /* \"EvolvedCamels.sol\":51720:51744  _ownerships[nextTokenId] */\n      dup3\n      dup2\n      mstore\n        /* \"EvolvedCamels.sol\":51720:51731  _ownerships */\n      0x03\n        /* \"EvolvedCamels.sol\":51720:51744  _ownerships[nextTokenId] */\n      0x20\n      swap1\n      dup2\n      mstore\n      0x40\n      swap1\n      swap2\n      keccak256\n        /* \"EvolvedCamels.sol\":51720:51770  _ownerships[nextTokenId].addr = prevOwnership.addr */\n      dup1\n      sload\n        /* \"EvolvedCamels.sol\":51835:51863  prevOwnership.startTimestamp */\n      swap2\n      dup7\n      add\n      mload\n        /* \"EvolvedCamels.sol\":51793:51863  _ownerships[nextTokenId].startTimestamp = prevOwnership.startTimestamp */\n      0xffffffffffffffff\n      and\n      shl(0xa0, 0x01)\n      mul\n      not(sub(shl(0xe0, 0x01), 0x01))\n      swap1\n      swap3\n      and\n      sub(shl(0xa0, 0x01), 0x01)\n        /* \"EvolvedCamels.sol\":51720:51770  _ownerships[nextTokenId].addr = prevOwnership.addr */\n      swap1\n      swap4\n      and\n        /* \"EvolvedCamels.sol\":51793:51863  _ownerships[nextTokenId].startTimestamp = prevOwnership.startTimestamp */\n      swap3\n      swap1\n      swap3\n      or\n      or\n      swap1\n      sstore\n        /* \"EvolvedCamels.sol\":51671:51883  if (_exists(nextTokenId)) {... */\n    tag_754:\n        /* \"EvolvedCamels.sol\":51080:51909  unchecked {... */\n      pop\n        /* \"EvolvedCamels.sol\":51945:51952  tokenId */\n      dup3\n        /* \"EvolvedCamels.sol\":51941:51943  to */\n      dup5\n      sub(shl(0xa0, 0x01), 0x01)\n        /* \"EvolvedCamels.sol\":51926:51953  Transfer(from, to, tokenId) */\n      and\n        /* \"EvolvedCamels.sol\":51935:51939  from */\n      dup7\n      sub(shl(0xa0, 0x01), 0x01)\n        /* \"EvolvedCamels.sol\":51926:51953  Transfer(from, to, tokenId) */\n      and\n      0xddf252ad1be2c89b69c2b068fc378daa952ba7f163c4a11628f55a4df523b3ef\n      mload(0x40)\n      mload(0x40)\n      dup1\n      swap2\n      sub\n      swap1\n      log4\n        /* \"EvolvedCamels.sol\":51964:52006  _afterTokenTransfers(from, to, tokenId, 1) */\n    tag_755:\n        /* \"EvolvedCamels.sol\":50116:52014  {... */\n      pop\n      pop\n        /* \"EvolvedCamels.sol\":50012:52014  function _transfer(... */\n      pop\n      pop\n      pop\n      jump\t// out\n        /* \"EvolvedCamels.sol\":62601:62784  function _withdraw(address payable account, uint256 amount) internal {... */\n    tag_455:\n        /* \"EvolvedCamels.sol\":62682:62691  bool sent */\n      0x00\n        /* \"EvolvedCamels.sol\":62697:62704  account */\n      dup3\n      sub(shl(0xa0, 0x01), 0x01)\n        /* \"EvolvedCamels.sol\":62697:62709  account.call */\n      and\n        /* \"EvolvedCamels.sol\":62717:62723  amount */\n      dup3\n        /* \"EvolvedCamels.sol\":62697:62728  account.call{value: amount}(\"\") */\n      mload(0x40)\n      0x00\n      mload(0x40)\n      dup1\n      dup4\n      sub\n      dup2\n      dup6\n      dup8\n      gas\n      call\n      swap3\n      pop\n      pop\n      pop\n      returndatasize\n      dup1\n      0x00\n      dup2\n      eq\n      tag_762\n      jumpi\n      mload(0x40)\n      swap2\n      pop\n      and(add(returndatasize, 0x3f), not(0x1f))\n      dup3\n      add\n      0x40\n      mstore\n      returndatasize\n      dup3\n      mstore\n      returndatasize\n      0x00\n      0x20\n      dup5\n      add\n      returndatacopy\n      jump(tag_761)\n    tag_762:\n      0x60\n      swap2\n      pop\n    tag_761:\n      pop\n        /* \"EvolvedCamels.sol\":62681:62728  (bool sent, ) = account.call{value: amount}(\"\") */\n      pop\n      swap1\n      pop\n        /* \"EvolvedCamels.sol\":62747:62751  sent */\n      dup1\n        /* \"EvolvedCamels.sol\":62739:62776  require(sent, \"Failed to send Ether\") */\n      tag_361\n      jumpi\n      mload(0x40)\n      shl(0xe5, 0x461bcd)\n      dup2\n      mstore\n        /* \"#utility.yul\":23897:23899   */\n      0x20\n        /* \"EvolvedCamels.sol\":62739:62776  require(sent, \"Failed to send Ether\") */\n      0x04\n      dup3\n      add\n        /* \"#utility.yul\":23879:23900   */\n      mstore\n        /* \"#utility.yul\":23936:23938   */\n      0x14\n        /* \"#utility.yul\":23916:23934   */\n      0x24\n      dup3\n      add\n        /* \"#utility.yul\":23909:23939   */\n      mstore\n        /* \"#utility.yul\":23975:23997   */\n      0x4661696c656420746f2073656e64204574686572000000000000000000000000\n        /* \"#utility.yul\":23955:23973   */\n      0x44\n      dup3\n      add\n        /* \"#utility.yul\":23948:23998   */\n      mstore\n        /* \"#utility.yul\":24015:24033   */\n      0x64\n      add\n        /* \"EvolvedCamels.sol\":62739:62776  require(sent, \"Failed to send Ether\") */\n      tag_302\n        /* \"#utility.yul\":23695:24039   */\n      jump\n        /* \"EvolvedCamels.sol\":42877:43414  function ownershipOf(uint256 tokenId) internal view returns (TokenOwnership memory) {... */\n    tag_486:\n      0x40\n      dup1\n      mload\n      dup1\n      dup3\n      add\n      swap1\n      swap2\n      mstore\n      0x00\n      dup1\n      dup3\n      mstore\n      0x20\n      dup3\n      add\n      mstore\n        /* \"EvolvedCamels.sol\":42980:42996  _exists(tokenId) */\n      tag_769\n        /* \"EvolvedCamels.sol\":42988:42995  tokenId */\n      dup3\n        /* \"EvolvedCamels.sol\":47269:47273  bool */\n      0x00\n        /* \"EvolvedCamels.sol\":47303:47315  currentIndex */\n      sload\n      gt\n        /* \"EvolvedCamels.sol\":47293:47315  tokenId < currentIndex */\n      swap1\n        /* \"EvolvedCamels.sol\":47212:47323  function _exists(uint256 tokenId) internal view returns (bool) {... */\n      jump\n        /* \"EvolvedCamels.sol\":42980:42996  _exists(tokenId) */\n    tag_769:\n        /* \"EvolvedCamels.sol\":42972:43043  require(_exists(tokenId), 'ERC721A: owner query for nonexistent token') */\n      tag_770\n      jumpi\n      mload(0x40)\n      shl(0xe5, 0x461bcd)\n      dup2\n      mstore\n        /* \"#utility.yul\":24246:24248   */\n      0x20\n        /* \"EvolvedCamels.sol\":42972:43043  require(_exists(tokenId), 'ERC721A: owner query for nonexistent token') */\n      0x04\n      dup3\n      add\n        /* \"#utility.yul\":24228:24249   */\n      mstore\n        /* \"#utility.yul\":24285:24287   */\n      0x2a\n        /* \"#utility.yul\":24265:24283   */\n      0x24\n      dup3\n      add\n        /* \"#utility.yul\":24258:24288   */\n      mstore\n        /* \"#utility.yul\":24324:24358   */\n      0x455243373231413a206f776e657220717565727920666f72206e6f6e65786973\n        /* \"#utility.yul\":24304:24322   */\n      0x44\n      dup3\n      add\n        /* \"#utility.yul\":24297:24359   */\n      mstore\n        /* \"#utility.yul\":24395:24407   */\n      0x74656e7420746f6b656e00000000000000000000000000000000000000000000\n        /* \"#utility.yul\":24375:24393   */\n      0x64\n      dup3\n      add\n        /* \"#utility.yul\":24368:24408   */\n      mstore\n        /* \"#utility.yul\":24425:24444   */\n      0x84\n      add\n        /* \"EvolvedCamels.sol\":42972:43043  require(_exists(tokenId), 'ERC721A: owner query for nonexistent token') */\n      tag_302\n        /* \"#utility.yul\":24044:24450   */\n      jump\n        /* \"EvolvedCamels.sol\":42972:43043  require(_exists(tokenId), 'ERC721A: owner query for nonexistent token') */\n    tag_770:\n        /* \"EvolvedCamels.sol\":43101:43108  tokenId */\n      dup2\n        /* \"EvolvedCamels.sol\":43081:43326  for (uint256 curr = tokenId; curr >= 0; curr--) {... */\n    tag_773:\n        /* \"EvolvedCamels.sol\":43148:43179  TokenOwnership memory ownership */\n      0x00\n        /* \"EvolvedCamels.sol\":43182:43199  _ownerships[curr] */\n      dup2\n      dup2\n      mstore\n        /* \"EvolvedCamels.sol\":43182:43193  _ownerships */\n      0x03\n        /* \"EvolvedCamels.sol\":43182:43199  _ownerships[curr] */\n      0x20\n      swap1\n      dup2\n      mstore\n      0x40\n      swap2\n      dup3\n      swap1\n      keccak256\n        /* \"EvolvedCamels.sol\":43148:43199  TokenOwnership memory ownership = _ownerships[curr] */\n      dup3\n      mload\n      dup1\n      dup5\n      add\n      swap1\n      swap4\n      mstore\n      sload\n      sub(shl(0xa0, 0x01), 0x01)\n      dup2\n      and\n      dup1\n      dup5\n      mstore\n      shl(0xa0, 0x01)\n      swap1\n      swap2\n      div\n      0xffffffffffffffff\n      and\n      swap2\n      dup4\n      add\n      swap2\n      swap1\n      swap2\n      mstore\n        /* \"EvolvedCamels.sol\":43222:43250  ownership.addr != address(0) */\n      iszero\n        /* \"EvolvedCamels.sol\":43218:43311  if (ownership.addr != address(0)) {... */\n      tag_776\n      jumpi\n        /* \"EvolvedCamels.sol\":43282:43291  ownership */\n      swap4\n        /* \"EvolvedCamels.sol\":42877:43414  function ownershipOf(uint256 tokenId) internal view returns (TokenOwnership memory) {... */\n      swap3\n      pop\n      pop\n      pop\n      jump\t// out\n        /* \"EvolvedCamels.sol\":43218:43311  if (ownership.addr != address(0)) {... */\n    tag_776:\n      pop\n      not(0x00)\n        /* \"EvolvedCamels.sol\":43121:43127  curr-- */\n      add\n        /* \"EvolvedCamels.sol\":43081:43326  for (uint256 curr = tokenId; curr >= 0; curr--) {... */\n      jump(tag_773)\n        /* \"EvolvedCamels.sol\":5111:5284  function _setOwner(address newOwner) private {... */\n    tag_503:\n        /* \"EvolvedCamels.sol\":5186:5192  _owner */\n      0x07\n      dup1\n      sload\n      sub(shl(0xa0, 0x01), 0x01)\n        /* \"EvolvedCamels.sol\":5203:5220  _owner = newOwner */\n      dup4\n      dup2\n      and\n      not(sub(shl(0xa0, 0x01), 0x01))\n      dup4\n      and\n      dup2\n      or\n      swap1\n      swap4\n      sstore\n        /* \"EvolvedCamels.sol\":5236:5276  OwnershipTransferred(oldOwner, newOwner) */\n      mload(0x40)\n        /* \"EvolvedCamels.sol\":5186:5192  _owner */\n      swap2\n      and\n      swap2\n        /* \"EvolvedCamels.sol\":5203:5220  _owner = newOwner */\n      swap1\n        /* \"EvolvedCamels.sol\":5186:5192  _owner */\n      dup3\n      swap1\n        /* \"EvolvedCamels.sol\":5236:5276  OwnershipTransferred(oldOwner, newOwner) */\n      0x8be0079c531659141344cd1fd0a4f28419497f9722a3daafe3b4186f6b6457e0\n      swap1\n        /* \"EvolvedCamels.sol\":5167:5183  address oldOwner */\n      0x00\n      swap1\n        /* \"EvolvedCamels.sol\":5236:5276  OwnershipTransferred(oldOwner, newOwner) */\n      log3\n        /* \"EvolvedCamels.sol\":5156:5284  {... */\n      pop\n        /* \"EvolvedCamels.sol\":5111:5284  function _setOwner(address newOwner) private {... */\n      pop\n      jump\t// out\n        /* \"EvolvedCamels.sol\":52893:53697  function _checkOnERC721Received(... */\n    tag_593:\n        /* \"EvolvedCamels.sol\":53048:53052  bool */\n      0x00\n      sub(shl(0xa0, 0x01), 0x01)\n        /* \"EvolvedCamels.sol\":53069:53082  to.isContract */\n      dup5\n      and\n        /* \"EvolvedCamels.sol\":6380:6400  extcodesize(account) */\n      extcodesize\n        /* \"EvolvedCamels.sol\":6428:6436  size > 0 */\n      iszero\n        /* \"EvolvedCamels.sol\":53065:53690  if (to.isContract()) {... */\n      tag_783\n      jumpi\n        /* \"EvolvedCamels.sol\":53105:53177  IERC721Receiver(to).onERC721Received(_msgSender(), from, tokenId, _data) */\n      mload(0x40)\n      shl(0xe1, 0x0a85bd01)\n      dup2\n      mstore\n      sub(shl(0xa0, 0x01), 0x01)\n        /* \"EvolvedCamels.sol\":53105:53141  IERC721Receiver(to).onERC721Received */\n      dup6\n      and\n      swap1\n      0x150b7a02\n      swap1\n        /* \"EvolvedCamels.sol\":53105:53177  IERC721Receiver(to).onERC721Received(_msgSender(), from, tokenId, _data) */\n      tag_785\n      swap1\n        /* \"EvolvedCamels.sol\":2879:2889  msg.sender */\n      caller\n      swap1\n        /* \"EvolvedCamels.sol\":53156:53160  from */\n      dup10\n      swap1\n        /* \"EvolvedCamels.sol\":53162:53169  tokenId */\n      dup9\n      swap1\n        /* \"EvolvedCamels.sol\":53171:53176  _data */\n      dup9\n      swap1\n        /* \"EvolvedCamels.sol\":53105:53177  IERC721Receiver(to).onERC721Received(_msgSender(), from, tokenId, _data) */\n      0x04\n      add\n      tag_786\n      jump\t// in\n    tag_785:\n      0x20\n      mload(0x40)\n      dup1\n      dup4\n      sub\n      dup2\n      0x00\n      dup8\n      gas\n      call\n      swap3\n      pop\n      pop\n      pop\n      dup1\n      iszero\n      tag_787\n      jumpi\n      pop\n      0x40\n      dup1\n      mload\n      0x1f\n      returndatasize\n      swap1\n      dup2\n      add\n      not(0x1f)\n      and\n      dup3\n      add\n      swap1\n      swap3\n      mstore\n      tag_788\n      swap2\n      dup2\n      add\n      swap1\n      tag_789\n      jump\t// in\n    tag_788:\n      0x01\n    tag_787:\n        /* \"EvolvedCamels.sol\":53101:53635  try IERC721Receiver(to).onERC721Received(_msgSender(), from, tokenId, _data) returns (bytes4 retval) {... */\n      tag_790\n      jumpi\n      returndatasize\n      dup1\n      dup1\n      iszero\n      tag_795\n      jumpi\n      mload(0x40)\n      swap2\n      pop\n      and(add(returndatasize, 0x3f), not(0x1f))\n      dup3\n      add\n      0x40\n      mstore\n      returndatasize\n      dup3\n      mstore\n      returndatasize\n      0x00\n      0x20\n      dup5\n      add\n      returndatacopy\n      jump(tag_794)\n    tag_795:\n      0x60\n      swap2\n      pop\n    tag_794:\n      pop\n        /* \"EvolvedCamels.sol\":53351:53357  reason */\n      dup1\n        /* \"EvolvedCamels.sol\":53351:53364  reason.length */\n      mload\n        /* \"EvolvedCamels.sol\":53368:53369  0 */\n      0x00\n        /* \"EvolvedCamels.sol\":53351:53369  reason.length == 0 */\n      sub\n        /* \"EvolvedCamels.sol\":53347:53620  if (reason.length == 0) {... */\n      tag_796\n      jumpi\n        /* \"EvolvedCamels.sol\":53394:53455  revert('ERC721A: transfer to non ERC721Receiver implementer') */\n      mload(0x40)\n      shl(0xe5, 0x461bcd)\n      dup2\n      mstore\n        /* \"#utility.yul\":18405:18407   */\n      0x20\n        /* \"EvolvedCamels.sol\":53394:53455  revert('ERC721A: transfer to non ERC721Receiver implementer') */\n      0x04\n      dup3\n      add\n        /* \"#utility.yul\":18387:18408   */\n      mstore\n        /* \"#utility.yul\":18444:18446   */\n      0x33\n        /* \"#utility.yul\":18424:18442   */\n      0x24\n      dup3\n      add\n        /* \"#utility.yul\":18417:18447   */\n      mstore\n        /* \"#utility.yul\":18483:18517   */\n      0x455243373231413a207472616e7366657220746f206e6f6e2045524337323152\n        /* \"#utility.yul\":18463:18481   */\n      0x44\n      dup3\n      add\n        /* \"#utility.yul\":18456:18518   */\n      mstore\n      shl(0x69, 0x32b1b2b4bb32b91034b6b83632b6b2b73a32b9)\n        /* \"#utility.yul\":18534:18552   */\n      0x64\n      dup3\n      add\n        /* \"#utility.yul\":18527:18576   */\n      mstore\n        /* \"#utility.yul\":18593:18612   */\n      0x84\n      add\n        /* \"EvolvedCamels.sol\":53394:53455  revert('ERC721A: transfer to non ERC721Receiver implementer') */\n      tag_302\n        /* \"#utility.yul\":18203:18618   */\n      jump\n        /* \"EvolvedCamels.sol\":53347:53620  if (reason.length == 0) {... */\n    tag_796:\n        /* \"EvolvedCamels.sol\":53570:53576  reason */\n      dup1\n        /* \"EvolvedCamels.sol\":53564:53577  mload(reason) */\n      mload\n        /* \"EvolvedCamels.sol\":53555:53561  reason */\n      dup2\n        /* \"EvolvedCamels.sol\":53551:53553  32 */\n      0x20\n        /* \"EvolvedCamels.sol\":53547:53562  add(32, reason) */\n      add\n        /* \"EvolvedCamels.sol\":53540:53578  revert(add(32, reason), mload(reason)) */\n      revert\n        /* \"EvolvedCamels.sol\":53101:53635  try IERC721Receiver(to).onERC721Received(_msgSender(), from, tokenId, _data) returns (bytes4 retval) {... */\n    tag_790:\n      not(sub(shl(0xe0, 0x01), 0x01))\n        /* \"EvolvedCamels.sol\":53228:53283  retval == IERC721Receiver(to).onERC721Received.selector */\n      and\n      shl(0xe1, 0x0a85bd01)\n      eq\n      swap1\n      pop\n        /* \"EvolvedCamels.sol\":53221:53283  return retval == IERC721Receiver(to).onERC721Received.selector */\n      jump(tag_411)\n        /* \"EvolvedCamels.sol\":53065:53690  if (to.isContract()) {... */\n    tag_783:\n      pop\n        /* \"EvolvedCamels.sol\":53674:53678  true */\n      0x01\n        /* \"EvolvedCamels.sol\":53667:53678  return true */\n      jump(tag_411)\n        /* \"EvolvedCamels.sol\":57286:57402  function _baseURI() internal view virtual override returns (string memory) {... */\n    tag_641:\n        /* \"EvolvedCamels.sol\":57346:57359  string memory */\n      0x60\n        /* \"EvolvedCamels.sol\":57379:57394  _currentBaseURI */\n      0x09\n        /* \"EvolvedCamels.sol\":57372:57394  return _currentBaseURI */\n      dup1\n      sload\n      tag_312\n      swap1\n      tag_313\n      jump\t// in\n        /* \"EvolvedCamels.sol\":415:1138  function toString(uint256 value) internal pure returns (string memory) {... */\n    tag_645:\n        /* \"EvolvedCamels.sol\":471:484  string memory */\n      0x60\n        /* \"EvolvedCamels.sol\":692:697  value */\n      dup2\n        /* \"EvolvedCamels.sol\":701:702  0 */\n      0x00\n        /* \"EvolvedCamels.sol\":692:702  value == 0 */\n      sub\n        /* \"EvolvedCamels.sol\":688:741  if (value == 0) {... */\n      tag_808\n      jumpi\n      pop\n      pop\n        /* \"EvolvedCamels.sol\":719:729  return \"0\" */\n      0x40\n      dup1\n      mload\n      dup1\n      dup3\n      add\n      swap1\n      swap2\n      mstore\n      0x01\n      dup2\n      mstore\n      shl(0xfc, 0x03)\n      0x20\n      dup3\n      add\n      mstore\n      swap1\n        /* \"EvolvedCamels.sol\":415:1138  function toString(uint256 value) internal pure returns (string memory) {... */\n      jump\t// out\n        /* \"EvolvedCamels.sol\":688:741  if (value == 0) {... */\n    tag_808:\n        /* \"EvolvedCamels.sol\":766:771  value */\n      dup2\n        /* \"EvolvedCamels.sol\":751:763  uint256 temp */\n      0x00\n        /* \"EvolvedCamels.sol\":807:885  while (temp != 0) {... */\n    tag_809:\n        /* \"EvolvedCamels.sol\":814:823  temp != 0 */\n      dup2\n      iszero\n        /* \"EvolvedCamels.sol\":807:885  while (temp != 0) {... */\n      tag_810\n      jumpi\n        /* \"EvolvedCamels.sol\":840:848  digits++ */\n      dup1\n      tag_811\n      dup2\n      tag_812\n      jump\t// in\n    tag_811:\n      swap2\n      pop\n        /* \"EvolvedCamels.sol\":863:873  temp /= 10 */\n      tag_813\n      swap1\n      pop\n        /* \"EvolvedCamels.sol\":871:873  10 */\n      0x0a\n        /* \"EvolvedCamels.sol\":863:873  temp /= 10 */\n      dup4\n      tag_454\n      jump\t// in\n    tag_813:\n      swap2\n      pop\n        /* \"EvolvedCamels.sol\":807:885  while (temp != 0) {... */\n      jump(tag_809)\n    tag_810:\n        /* \"EvolvedCamels.sol\":895:914  bytes memory buffer */\n      0x00\n        /* \"EvolvedCamels.sol\":927:933  digits */\n      dup2\n        /* \"EvolvedCamels.sol\":917:934  new bytes(digits) */\n      0xffffffffffffffff\n      dup2\n      gt\n      iszero\n      tag_815\n      jumpi\n      tag_815\n      tag_816\n      jump\t// in\n    tag_815:\n      mload(0x40)\n      swap1\n      dup1\n      dup3\n      mstore\n      dup1\n      0x1f\n      add\n      not(0x1f)\n      and\n      0x20\n      add\n      dup3\n      add\n      0x40\n      mstore\n      dup1\n      iszero\n      tag_817\n      jumpi\n      0x20\n      dup3\n      add\n      dup2\n      dup1\n      calldatasize\n      dup4\n      calldatacopy\n      add\n      swap1\n      pop\n    tag_817:\n      pop\n        /* \"EvolvedCamels.sol\":895:934  bytes memory buffer = new bytes(digits) */\n      swap1\n      pop\n        /* \"EvolvedCamels.sol\":945:1099  while (value != 0) {... */\n    tag_818:\n        /* \"EvolvedCamels.sol\":952:962  value != 0 */\n      dup5\n      iszero\n        /* \"EvolvedCamels.sol\":945:1099  while (value != 0) {... */\n      tag_411\n      jumpi\n        /* \"EvolvedCamels.sol\":979:990  digits -= 1 */\n      tag_820\n        /* \"EvolvedCamels.sol\":989:990  1 */\n      0x01\n        /* \"EvolvedCamels.sol\":979:990  digits -= 1 */\n      dup4\n      tag_329\n      jump\t// in\n    tag_820:\n      swap2\n      pop\n        /* \"EvolvedCamels.sol\":1048:1058  value % 10 */\n      tag_821\n        /* \"EvolvedCamels.sol\":1056:1058  10 */\n      0x0a\n        /* \"EvolvedCamels.sol\":1048:1053  value */\n      dup7\n        /* \"EvolvedCamels.sol\":1048:1058  value % 10 */\n      tag_822\n      jump\t// in\n    tag_821:\n        /* \"EvolvedCamels.sol\":1035:1059  48 + uint256(value % 10) */\n      tag_823\n      swap1\n        /* \"EvolvedCamels.sol\":1035:1037  48 */\n      0x30\n        /* \"EvolvedCamels.sol\":1035:1059  48 + uint256(value % 10) */\n      tag_333\n      jump\t// in\n    tag_823:\n        /* \"EvolvedCamels.sol\":1022:1061  bytes1(uint8(48 + uint256(value % 10))) */\n      0xf8\n      shl\n        /* \"EvolvedCamels.sol\":1005:1011  buffer */\n      dup2\n        /* \"EvolvedCamels.sol\":1012:1018  digits */\n      dup4\n        /* \"EvolvedCamels.sol\":1005:1019  buffer[digits] */\n      dup2\n      mload\n      dup2\n      lt\n      tag_825\n      jumpi\n      tag_825\n      tag_826\n      jump\t// in\n    tag_825:\n      0x20\n      add\n      add\n        /* \"EvolvedCamels.sol\":1005:1061  buffer[digits] = bytes1(uint8(48 + uint256(value % 10))) */\n      swap1\n      not(0xffffffffffffffffffffffffffffffffffffffffffffffffffffffffffffff)\n      and\n      swap1\n      dup2\n      0x00\n      byte\n      swap1\n      mstore8\n      pop\n        /* \"EvolvedCamels.sol\":1076:1087  value /= 10 */\n      tag_827\n        /* \"EvolvedCamels.sol\":1085:1087  10 */\n      0x0a\n        /* \"EvolvedCamels.sol\":1076:1087  value /= 10 */\n      dup7\n      tag_454\n      jump\t// in\n    tag_827:\n      swap5\n      pop\n        /* \"EvolvedCamels.sol\":945:1099  while (value != 0) {... */\n      jump(tag_818)\n        /* \"EvolvedCamels.sol\":47798:47961  function _safeMint(... */\n    tag_729:\n        /* \"EvolvedCamels.sol\":47921:47953  _mint(to, quantity, _data, true) */\n      tag_361\n        /* \"EvolvedCamels.sol\":47927:47929  to */\n      dup4\n        /* \"EvolvedCamels.sol\":47931:47939  quantity */\n      dup4\n        /* \"EvolvedCamels.sol\":47941:47946  _data */\n      dup4\n        /* \"EvolvedCamels.sol\":47948:47952  true */\n      0x01\n        /* \"EvolvedCamels.sol\":48359:48379  uint256 startTokenId */\n      0x00\n        /* \"EvolvedCamels.sol\":48382:48394  currentIndex */\n      sload\n      sub(shl(0xa0, 0x01), 0x01)\n        /* \"EvolvedCamels.sol\":48413:48429  to != address(0) */\n      dup6\n      and\n        /* \"EvolvedCamels.sol\":48405:48467  require(to != address(0), 'ERC721A: mint to the zero address') */\n      tag_835\n      jumpi\n      mload(0x40)\n      shl(0xe5, 0x461bcd)\n      dup2\n      mstore\n        /* \"#utility.yul\":26233:26235   */\n      0x20\n        /* \"EvolvedCamels.sol\":48405:48467  require(to != address(0), 'ERC721A: mint to the zero address') */\n      0x04\n      dup3\n      add\n        /* \"#utility.yul\":26215:26236   */\n      mstore\n        /* \"#utility.yul\":26272:26274   */\n      0x21\n        /* \"#utility.yul\":26252:26270   */\n      0x24\n      dup3\n      add\n        /* \"#utility.yul\":26245:26275   */\n      mstore\n        /* \"#utility.yul\":26311:26345   */\n      0x455243373231413a206d696e7420746f20746865207a65726f20616464726573\n        /* \"#utility.yul\":26291:26309   */\n      0x44\n      dup3\n      add\n        /* \"#utility.yul\":26284:26346   */\n      mstore\n      shl(0xf8, 0x73)\n        /* \"#utility.yul\":26362:26380   */\n      0x64\n      dup3\n      add\n        /* \"#utility.yul\":26355:26386   */\n      mstore\n        /* \"#utility.yul\":26403:26422   */\n      0x84\n      add\n        /* \"EvolvedCamels.sol\":48405:48467  require(to != address(0), 'ERC721A: mint to the zero address') */\n      tag_302\n        /* \"#utility.yul\":26031:26428   */\n      jump\n        /* \"EvolvedCamels.sol\":48405:48467  require(to != address(0), 'ERC721A: mint to the zero address') */\n    tag_835:\n        /* \"EvolvedCamels.sol\":48486:48494  quantity */\n      dup4\n        /* \"EvolvedCamels.sol\":48498:48499  0 */\n      0x00\n        /* \"EvolvedCamels.sol\":48486:48499  quantity != 0 */\n      sub\n        /* \"EvolvedCamels.sol\":48478:48544  require(quantity != 0, 'ERC721A: quantity must be greater than 0') */\n      tag_838\n      jumpi\n      mload(0x40)\n      shl(0xe5, 0x461bcd)\n      dup2\n      mstore\n        /* \"#utility.yul\":26635:26637   */\n      0x20\n        /* \"EvolvedCamels.sol\":48478:48544  require(quantity != 0, 'ERC721A: quantity must be greater than 0') */\n      0x04\n      dup3\n      add\n        /* \"#utility.yul\":26617:26638   */\n      mstore\n        /* \"#utility.yul\":26674:26676   */\n      0x28\n        /* \"#utility.yul\":26654:26672   */\n      0x24\n      dup3\n      add\n        /* \"#utility.yul\":26647:26677   */\n      mstore\n        /* \"#utility.yul\":26713:26747   */\n      0x455243373231413a207175616e74697479206d75737420626520677265617465\n        /* \"#utility.yul\":26693:26711   */\n      0x44\n      dup3\n      add\n        /* \"#utility.yul\":26686:26748   */\n      mstore\n        /* \"#utility.yul\":26784:26794   */\n      0x72207468616e2030000000000000000000000000000000000000000000000000\n        /* \"#utility.yul\":26764:26782   */\n      0x64\n      dup3\n      add\n        /* \"#utility.yul\":26757:26795   */\n      mstore\n        /* \"#utility.yul\":26812:26831   */\n      0x84\n      add\n        /* \"EvolvedCamels.sol\":48478:48544  require(quantity != 0, 'ERC721A: quantity must be greater than 0') */\n      tag_302\n        /* \"#utility.yul\":26433:26837   */\n      jump\n        /* \"EvolvedCamels.sol\":48478:48544  require(quantity != 0, 'ERC721A: quantity must be greater than 0') */\n    tag_838:\n      sub(shl(0xa0, 0x01), 0x01)\n        /* \"EvolvedCamels.sol\":48896:48912  _addressData[to] */\n      dup6\n      and\n      0x00\n      dup2\n      dup2\n      mstore\n        /* \"EvolvedCamels.sol\":48896:48908  _addressData */\n      0x04\n        /* \"EvolvedCamels.sol\":48896:48912  _addressData[to] */\n      0x20\n      swap1\n      dup2\n      mstore\n      0x40\n      dup1\n      dup4\n      keccak256\n        /* \"EvolvedCamels.sol\":48896:48941  _addressData[to].balance += uint128(quantity) */\n      dup1\n      sload\n        /* \"EvolvedCamels.sol\":48956:49006  _addressData[to].numberMinted += uint128(quantity) */\n      0x0100000000000000000000000000000000\n      not(0xffffffffffffffffffffffffffffffff)\n        /* \"EvolvedCamels.sol\":48896:48941  _addressData[to].balance += uint128(quantity) */\n      dup3\n      and\n      0xffffffffffffffffffffffffffffffff\n      swap3\n      dup4\n      and\n      dup13\n      add\n      dup4\n      and\n      swap1\n      dup2\n      or\n        /* \"EvolvedCamels.sol\":48956:49006  _addressData[to].numberMinted += uint128(quantity) */\n      dup3\n      swap1\n      div\n      dup4\n      and\n      dup13\n      add\n      swap1\n      swap3\n      and\n      mul\n      or\n      swap1\n      sstore\n        /* \"EvolvedCamels.sol\":49023:49048  _ownerships[startTokenId] */\n      dup5\n      dup4\n      mstore\n        /* \"EvolvedCamels.sol\":49023:49034  _ownerships */\n      0x03\n        /* \"EvolvedCamels.sol\":49023:49048  _ownerships[startTokenId] */\n      swap1\n      swap2\n      mstore\n      dup2\n      keccak256\n        /* \"EvolvedCamels.sol\":49023:49058  _ownerships[startTokenId].addr = to */\n      dup1\n      sload\n      not(sub(shl(0xe0, 0x01), 0x01))\n        /* \"EvolvedCamels.sol\":49073:49139  _ownerships[startTokenId].startTimestamp = uint64(block.timestamp) */\n      and\n      swap1\n      swap3\n      or\n      shl(0xa0, 0x01)\n        /* \"EvolvedCamels.sol\":49123:49138  block.timestamp */\n      timestamp\n        /* \"EvolvedCamels.sol\":49073:49139  _ownerships[startTokenId].startTimestamp = uint64(block.timestamp) */\n      0xffffffffffffffff\n      and\n      mul\n      or\n      swap1\n      swap2\n      sstore\n        /* \"EvolvedCamels.sol\":49023:49048  _ownerships[startTokenId] */\n      dup2\n      swap1\n        /* \"EvolvedCamels.sol\":49208:49623  for (uint256 i; i < quantity; i++) {... */\n    tag_842:\n        /* \"EvolvedCamels.sol\":49228:49236  quantity */\n      dup6\n        /* \"EvolvedCamels.sol\":49224:49225  i */\n      dup2\n        /* \"EvolvedCamels.sol\":49224:49236  i < quantity */\n      lt\n        /* \"EvolvedCamels.sol\":49208:49623  for (uint256 i; i < quantity; i++) {... */\n      iszero\n      tag_843\n      jumpi\n        /* \"EvolvedCamels.sol\":49267:49305  Transfer(address(0), to, updatedIndex) */\n      mload(0x40)\n        /* \"EvolvedCamels.sol\":49292:49304  updatedIndex */\n      dup3\n      swap1\n      sub(shl(0xa0, 0x01), 0x01)\n        /* \"EvolvedCamels.sol\":49267:49305  Transfer(address(0), to, updatedIndex) */\n      dup10\n      and\n      swap1\n        /* \"EvolvedCamels.sol\":49284:49285  0 */\n      0x00\n      swap1\n        /* \"EvolvedCamels.sol\":49267:49305  Transfer(address(0), to, updatedIndex) */\n      0xddf252ad1be2c89b69c2b068fc378daa952ba7f163c4a11628f55a4df523b3ef\n      swap1\n        /* \"EvolvedCamels.sol\":49284:49285  0 */\n      dup3\n      swap1\n        /* \"EvolvedCamels.sol\":49267:49305  Transfer(address(0), to, updatedIndex) */\n      log4\n        /* \"EvolvedCamels.sol\":49328:49332  safe */\n      dup4\n        /* \"EvolvedCamels.sol\":49324:49573  if (safe) {... */\n      iszero\n      tag_847\n      jumpi\n        /* \"EvolvedCamels.sol\":49391:49450  _checkOnERC721Received(address(0), to, updatedIndex, _data) */\n      tag_846\n        /* \"EvolvedCamels.sol\":49422:49423  0 */\n      0x00\n        /* \"EvolvedCamels.sol\":49426:49428  to */\n      dup9\n        /* \"EvolvedCamels.sol\":49430:49442  updatedIndex */\n      dup5\n        /* \"EvolvedCamels.sol\":49444:49449  _data */\n      dup9\n        /* \"EvolvedCamels.sol\":49391:49413  _checkOnERC721Received */\n      tag_593\n        /* \"EvolvedCamels.sol\":49391:49450  _checkOnERC721Received(address(0), to, updatedIndex, _data) */\n      jump\t// in\n    tag_846:\n        /* \"EvolvedCamels.sol\":49357:49553  require(... */\n      tag_847\n      jumpi\n      mload(0x40)\n      shl(0xe5, 0x461bcd)\n      dup2\n      mstore\n        /* \"#utility.yul\":18405:18407   */\n      0x20\n        /* \"EvolvedCamels.sol\":49357:49553  require(... */\n      0x04\n      dup3\n      add\n        /* \"#utility.yul\":18387:18408   */\n      mstore\n        /* \"#utility.yul\":18444:18446   */\n      0x33\n        /* \"#utility.yul\":18424:18442   */\n      0x24\n      dup3\n      add\n        /* \"#utility.yul\":18417:18447   */\n      mstore\n        /* \"#utility.yul\":18483:18517   */\n      0x455243373231413a207472616e7366657220746f206e6f6e2045524337323152\n        /* \"#utility.yul\":18463:18481   */\n      0x44\n      dup3\n      add\n        /* \"#utility.yul\":18456:18518   */\n      mstore\n      shl(0x69, 0x32b1b2b4bb32b91034b6b83632b6b2b73a32b9)\n        /* \"#utility.yul\":18534:18552   */\n      0x64\n      dup3\n      add\n        /* \"#utility.yul\":18527:18576   */\n      mstore\n        /* \"#utility.yul\":18593:18612   */\n      0x84\n      add\n        /* \"EvolvedCamels.sol\":49357:49553  require(... */\n      tag_302\n        /* \"#utility.yul\":18203:18618   */\n      jump\n        /* \"EvolvedCamels.sol\":49357:49553  require(... */\n    tag_847:\n        /* \"EvolvedCamels.sol\":49593:49607  updatedIndex++ */\n      0x01\n      swap2\n      dup3\n      add\n      swap2\n        /* \"EvolvedCamels.sol\":49238:49241  i++ */\n      add\n        /* \"EvolvedCamels.sol\":49208:49623  for (uint256 i; i < quantity; i++) {... */\n      jump(tag_842)\n    tag_843:\n      pop\n        /* \"EvolvedCamels.sol\":49639:49651  currentIndex */\n      0x00\n        /* \"EvolvedCamels.sol\":49639:49666  currentIndex = updatedIndex */\n      sstore\n        /* \"EvolvedCamels.sol\":49690:49750  _afterTokenTransfers(address(0), to, startTokenId, quantity) */\n      tag_755\n        /* \"EvolvedCamels.sol\":46602:46957  function safeTransferFrom(... */\n      jump\n    tag_427:\n      dup3\n      dup1\n      sload\n      tag_850\n      swap1\n      tag_313\n      jump\t// in\n    tag_850:\n      swap1\n      0x00\n      mstore\n      keccak256(0x00, 0x20)\n      swap1\n      0x1f\n      add\n      0x20\n      swap1\n      div\n      dup2\n      add\n      swap3\n      dup3\n      tag_852\n      jumpi\n      0x00\n      dup6\n      sstore\n      jump(tag_855)\n    tag_852:\n      dup3\n      0x1f\n      lt\n      tag_853\n      jumpi\n      dup1\n      mload\n      not(0xff)\n      and\n      dup4\n      dup1\n      add\n      or\n      dup6\n      sstore\n      jump(tag_855)\n    tag_853:\n      dup3\n      dup1\n      add\n      0x01\n      add\n      dup6\n      sstore\n      dup3\n      iszero\n      tag_855\n      jumpi\n      swap2\n      dup3\n      add\n    tag_854:\n      dup3\n      dup2\n      gt\n      iszero\n      tag_855\n      jumpi\n      dup3\n      mload\n      dup3\n      sstore\n      swap2\n      0x20\n      add\n      swap2\n      swap1\n      0x01\n      add\n      swap1\n      jump(tag_854)\n    tag_855:\n      pop\n      tag_476\n      swap3\n      swap2\n      pop\n    tag_858:\n      dup1\n      dup3\n      gt\n      iszero\n      tag_476\n      jumpi\n      0x00\n      dup2\n      sstore\n      0x01\n      add\n      jump(tag_858)\n        /* \"#utility.yul\":14:210   */\n    tag_860:\n        /* \"#utility.yul\":82:102   */\n      dup1\n      calldataload\n      sub(shl(0xa0, 0x01), 0x01)\n        /* \"#utility.yul\":131:185   */\n      dup2\n      and\n        /* \"#utility.yul\":121:186   */\n      dup2\n      eq\n        /* \"#utility.yul\":111:204   */\n      tag_434\n      jumpi\n        /* \"#utility.yul\":200:201   */\n      0x00\n        /* \"#utility.yul\":197:198   */\n      dup1\n        /* \"#utility.yul\":190:202   */\n      revert\n        /* \"#utility.yul\":215:401   */\n    tag_76:\n        /* \"#utility.yul\":274:280   */\n      0x00\n        /* \"#utility.yul\":327:329   */\n      0x20\n        /* \"#utility.yul\":315:324   */\n      dup3\n        /* \"#utility.yul\":306:313   */\n      dup5\n        /* \"#utility.yul\":302:325   */\n      sub\n        /* \"#utility.yul\":298:330   */\n      slt\n        /* \"#utility.yul\":295:347   */\n      iszero\n      tag_872\n      jumpi\n        /* \"#utility.yul\":343:344   */\n      0x00\n        /* \"#utility.yul\":340:341   */\n      dup1\n        /* \"#utility.yul\":333:345   */\n      revert\n        /* \"#utility.yul\":295:347   */\n    tag_872:\n        /* \"#utility.yul\":366:395   */\n      tag_643\n        /* \"#utility.yul\":385:394   */\n      dup3\n        /* \"#utility.yul\":366:395   */\n      tag_860\n      jump\t// in\n        /* \"#utility.yul\":406:537   */\n    tag_861:\n      not(sub(shl(0xe0, 0x01), 0x01))\n        /* \"#utility.yul\":480:512   */\n      dup2\n      and\n        /* \"#utility.yul\":470:513   */\n      dup2\n      eq\n        /* \"#utility.yul\":460:531   */\n      tag_456\n      jumpi\n        /* \"#utility.yul\":527:528   */\n      0x00\n        /* \"#utility.yul\":524:525   */\n      dup1\n        /* \"#utility.yul\":517:529   */\n      revert\n        /* \"#utility.yul\":542:787   */\n    tag_81:\n        /* \"#utility.yul\":600:606   */\n      0x00\n        /* \"#utility.yul\":653:655   */\n      0x20\n        /* \"#utility.yul\":641:650   */\n      dup3\n        /* \"#utility.yul\":632:639   */\n      dup5\n        /* \"#utility.yul\":628:651   */\n      sub\n        /* \"#utility.yul\":624:656   */\n      slt\n        /* \"#utility.yul\":621:673   */\n      iszero\n      tag_877\n      jumpi\n        /* \"#utility.yul\":669:670   */\n      0x00\n        /* \"#utility.yul\":666:667   */\n      dup1\n        /* \"#utility.yul\":659:671   */\n      revert\n        /* \"#utility.yul\":621:673   */\n    tag_877:\n        /* \"#utility.yul\":708:717   */\n      dup2\n        /* \"#utility.yul\":695:718   */\n      calldataload\n        /* \"#utility.yul\":727:757   */\n      tag_643\n        /* \"#utility.yul\":751:756   */\n      dup2\n        /* \"#utility.yul\":727:757   */\n      tag_861\n      jump\t// in\n        /* \"#utility.yul\":984:1242   */\n    tag_862:\n        /* \"#utility.yul\":1056:1057   */\n      0x00\n        /* \"#utility.yul\":1066:1179   */\n    tag_881:\n        /* \"#utility.yul\":1080:1086   */\n      dup4\n        /* \"#utility.yul\":1077:1078   */\n      dup2\n        /* \"#utility.yul\":1074:1087   */\n      lt\n        /* \"#utility.yul\":1066:1179   */\n      iszero\n      tag_883\n      jumpi\n        /* \"#utility.yul\":1156:1167   */\n      dup2\n      dup2\n      add\n        /* \"#utility.yul\":1150:1168   */\n      mload\n        /* \"#utility.yul\":1137:1148   */\n      dup4\n      dup3\n      add\n        /* \"#utility.yul\":1130:1169   */\n      mstore\n        /* \"#utility.yul\":1102:1104   */\n      0x20\n        /* \"#utility.yul\":1095:1105   */\n      add\n        /* \"#utility.yul\":1066:1179   */\n      jump(tag_881)\n    tag_883:\n        /* \"#utility.yul\":1197:1203   */\n      dup4\n        /* \"#utility.yul\":1194:1195   */\n      dup2\n        /* \"#utility.yul\":1191:1204   */\n      gt\n        /* \"#utility.yul\":1188:1236   */\n      iszero\n      tag_594\n      jumpi\n      pop\n      pop\n        /* \"#utility.yul\":1232:1233   */\n      0x00\n        /* \"#utility.yul\":1214:1230   */\n      swap2\n      add\n        /* \"#utility.yul\":1207:1234   */\n      mstore\n        /* \"#utility.yul\":984:1242   */\n      jump\t// out\n        /* \"#utility.yul\":1247:1505   */\n    tag_863:\n        /* \"#utility.yul\":1289:1292   */\n      0x00\n        /* \"#utility.yul\":1327:1332   */\n      dup2\n        /* \"#utility.yul\":1321:1333   */\n      mload\n        /* \"#utility.yul\":1354:1360   */\n      dup1\n        /* \"#utility.yul\":1349:1352   */\n      dup5\n        /* \"#utility.yul\":1342:1361   */\n      mstore\n        /* \"#utility.yul\":1370:1433   */\n      tag_886\n        /* \"#utility.yul\":1426:1432   */\n      dup2\n        /* \"#utility.yul\":1419:1423   */\n      0x20\n        /* \"#utility.yul\":1414:1417   */\n      dup7\n        /* \"#utility.yul\":1410:1424   */\n      add\n        /* \"#utility.yul\":1403:1407   */\n      0x20\n        /* \"#utility.yul\":1396:1401   */\n      dup7\n        /* \"#utility.yul\":1392:1408   */\n      add\n        /* \"#utility.yul\":1370:1433   */\n      tag_862\n      jump\t// in\n    tag_886:\n        /* \"#utility.yul\":1487:1489   */\n      0x1f\n        /* \"#utility.yul\":1466:1481   */\n      add\n      not(0x1f)\n        /* \"#utility.yul\":1462:1491   */\n      and\n        /* \"#utility.yul\":1453:1492   */\n      swap3\n      swap1\n      swap3\n      add\n        /* \"#utility.yul\":1494:1498   */\n      0x20\n        /* \"#utility.yul\":1449:1499   */\n      add\n      swap3\n        /* \"#utility.yul\":1247:1505   */\n      swap2\n      pop\n      pop\n      jump\t// out\n        /* \"#utility.yul\":1510:1730   */\n    tag_89:\n        /* \"#utility.yul\":1659:1661   */\n      0x20\n        /* \"#utility.yul\":1648:1657   */\n      dup2\n        /* \"#utility.yul\":1641:1662   */\n      mstore\n        /* \"#utility.yul\":1622:1626   */\n      0x00\n        /* \"#utility.yul\":1679:1724   */\n      tag_643\n        /* \"#utility.yul\":1720:1722   */\n      0x20\n        /* \"#utility.yul\":1709:1718   */\n      dup4\n        /* \"#utility.yul\":1705:1723   */\n      add\n        /* \"#utility.yul\":1697:1703   */\n      dup5\n        /* \"#utility.yul\":1679:1724   */\n      tag_863\n      jump\t// in\n        /* \"#utility.yul\":1735:1915   */\n    tag_93:\n        /* \"#utility.yul\":1794:1800   */\n      0x00\n        /* \"#utility.yul\":1847:1849   */\n      0x20\n        /* \"#utility.yul\":1835:1844   */\n      dup3\n        /* \"#utility.yul\":1826:1833   */\n      dup5\n        /* \"#utility.yul\":1822:1845   */\n      sub\n        /* \"#utility.yul\":1818:1850   */\n      slt\n        /* \"#utility.yul\":1815:1867   */\n      iszero\n      tag_890\n      jumpi\n        /* \"#utility.yul\":1863:1864   */\n      0x00\n        /* \"#utility.yul\":1860:1861   */\n      dup1\n        /* \"#utility.yul\":1853:1865   */\n      revert\n        /* \"#utility.yul\":1815:1867   */\n    tag_890:\n      pop\n        /* \"#utility.yul\":1886:1909   */\n      calldataload\n      swap2\n        /* \"#utility.yul\":1735:1915   */\n      swap1\n      pop\n      jump\t// out\n        /* \"#utility.yul\":2151:2405   */\n    tag_104:\n        /* \"#utility.yul\":2219:2225   */\n      0x00\n        /* \"#utility.yul\":2227:2233   */\n      dup1\n        /* \"#utility.yul\":2280:2282   */\n      0x40\n        /* \"#utility.yul\":2268:2277   */\n      dup4\n        /* \"#utility.yul\":2259:2266   */\n      dup6\n        /* \"#utility.yul\":2255:2278   */\n      sub\n        /* \"#utility.yul\":2251:2283   */\n      slt\n        /* \"#utility.yul\":2248:2300   */\n      iszero\n      tag_893\n      jumpi\n        /* \"#utility.yul\":2296:2297   */\n      0x00\n        /* \"#utility.yul\":2293:2294   */\n      dup1\n        /* \"#utility.yul\":2286:2298   */\n      revert\n        /* \"#utility.yul\":2248:2300   */\n    tag_893:\n        /* \"#utility.yul\":2319:2348   */\n      tag_894\n        /* \"#utility.yul\":2338:2347   */\n      dup4\n        /* \"#utility.yul\":2319:2348   */\n      tag_860\n      jump\t// in\n    tag_894:\n        /* \"#utility.yul\":2309:2348   */\n      swap5\n        /* \"#utility.yul\":2395:2397   */\n      0x20\n        /* \"#utility.yul\":2380:2398   */\n      swap4\n      swap1\n      swap4\n      add\n        /* \"#utility.yul\":2367:2399   */\n      calldataload\n      swap4\n      pop\n      pop\n      pop\n        /* \"#utility.yul\":2151:2405   */\n      jump\t// out\n        /* \"#utility.yul\":2592:2846   */\n    tag_114:\n        /* \"#utility.yul\":2660:2666   */\n      0x00\n        /* \"#utility.yul\":2668:2674   */\n      dup1\n        /* \"#utility.yul\":2721:2723   */\n      0x40\n        /* \"#utility.yul\":2709:2718   */\n      dup4\n        /* \"#utility.yul\":2700:2707   */\n      dup6\n        /* \"#utility.yul\":2696:2719   */\n      sub\n        /* \"#utility.yul\":2692:2724   */\n      slt\n        /* \"#utility.yul\":2689:2741   */\n      iszero\n      tag_897\n      jumpi\n        /* \"#utility.yul\":2737:2738   */\n      0x00\n        /* \"#utility.yul\":2734:2735   */\n      dup1\n        /* \"#utility.yul\":2727:2739   */\n      revert\n        /* \"#utility.yul\":2689:2741   */\n    tag_897:\n        /* \"#utility.yul\":2773:2782   */\n      dup3\n        /* \"#utility.yul\":2760:2783   */\n      calldataload\n        /* \"#utility.yul\":2750:2783   */\n      swap2\n      pop\n        /* \"#utility.yul\":2802:2840   */\n      tag_898\n        /* \"#utility.yul\":2836:2838   */\n      0x20\n        /* \"#utility.yul\":2825:2834   */\n      dup5\n        /* \"#utility.yul\":2821:2839   */\n      add\n        /* \"#utility.yul\":2802:2840   */\n      tag_860\n      jump\t// in\n    tag_898:\n        /* \"#utility.yul\":2792:2840   */\n      swap1\n      pop\n        /* \"#utility.yul\":2592:2846   */\n      swap3\n      pop\n      swap3\n      swap1\n      pop\n      jump\t// out\n        /* \"#utility.yul\":2851:3179   */\n    tag_127:\n        /* \"#utility.yul\":2928:2934   */\n      0x00\n        /* \"#utility.yul\":2936:2942   */\n      dup1\n        /* \"#utility.yul\":2944:2950   */\n      0x00\n        /* \"#utility.yul\":2997:2999   */\n      0x60\n        /* \"#utility.yul\":2985:2994   */\n      dup5\n        /* \"#utility.yul\":2976:2983   */\n      dup7\n        /* \"#utility.yul\":2972:2995   */\n      sub\n        /* \"#utility.yul\":2968:3000   */\n      slt\n        /* \"#utility.yul\":2965:3017   */\n      iszero\n      tag_900\n      jumpi\n        /* \"#utility.yul\":3013:3014   */\n      0x00\n        /* \"#utility.yul\":3010:3011   */\n      dup1\n        /* \"#utility.yul\":3003:3015   */\n      revert\n        /* \"#utility.yul\":2965:3017   */\n    tag_900:\n        /* \"#utility.yul\":3036:3065   */\n      tag_901\n        /* \"#utility.yul\":3055:3064   */\n      dup5\n        /* \"#utility.yul\":3036:3065   */\n      tag_860\n      jump\t// in\n    tag_901:\n        /* \"#utility.yul\":3026:3065   */\n      swap3\n      pop\n        /* \"#utility.yul\":3084:3122   */\n      tag_902\n        /* \"#utility.yul\":3118:3120   */\n      0x20\n        /* \"#utility.yul\":3107:3116   */\n      dup6\n        /* \"#utility.yul\":3103:3121   */\n      add\n        /* \"#utility.yul\":3084:3122   */\n      tag_860\n      jump\t// in\n    tag_902:\n        /* \"#utility.yul\":3074:3122   */\n      swap2\n      pop\n        /* \"#utility.yul\":3169:3171   */\n      0x40\n        /* \"#utility.yul\":3158:3167   */\n      dup5\n        /* \"#utility.yul\":3154:3172   */\n      add\n        /* \"#utility.yul\":3141:3173   */\n      calldataload\n        /* \"#utility.yul\":3131:3173   */\n      swap1\n      pop\n        /* \"#utility.yul\":2851:3179   */\n      swap3\n      pop\n      swap3\n      pop\n      swap3\n      jump\t// out\n        /* \"#utility.yul\":3184:3340   */\n    tag_864:\n        /* \"#utility.yul\":3250:3270   */\n      dup1\n      calldataload\n        /* \"#utility.yul\":3310:3314   */\n      0xff\n        /* \"#utility.yul\":3299:3315   */\n      dup2\n      and\n        /* \"#utility.yul\":3289:3316   */\n      dup2\n      eq\n        /* \"#utility.yul\":3279:3334   */\n      tag_434\n      jumpi\n        /* \"#utility.yul\":3330:3331   */\n      0x00\n        /* \"#utility.yul\":3327:3328   */\n      dup1\n        /* \"#utility.yul\":3320:3332   */\n      revert\n        /* \"#utility.yul\":3345:3738   */\n    tag_142:\n        /* \"#utility.yul\":3429:3435   */\n      0x00\n        /* \"#utility.yul\":3437:3443   */\n      dup1\n        /* \"#utility.yul\":3445:3451   */\n      0x00\n        /* \"#utility.yul\":3453:3459   */\n      dup1\n        /* \"#utility.yul\":3506:3509   */\n      0x80\n        /* \"#utility.yul\":3494:3503   */\n      dup6\n        /* \"#utility.yul\":3485:3492   */\n      dup8\n        /* \"#utility.yul\":3481:3504   */\n      sub\n        /* \"#utility.yul\":3477:3510   */\n      slt\n        /* \"#utility.yul\":3474:3527   */\n      iszero\n      tag_906\n      jumpi\n        /* \"#utility.yul\":3523:3524   */\n      0x00\n        /* \"#utility.yul\":3520:3521   */\n      dup1\n        /* \"#utility.yul\":3513:3525   */\n      revert\n        /* \"#utility.yul\":3474:3527   */\n    tag_906:\n        /* \"#utility.yul\":3546:3575   */\n      tag_907\n        /* \"#utility.yul\":3565:3574   */\n      dup6\n        /* \"#utility.yul\":3546:3575   */\n      tag_860\n      jump\t// in\n    tag_907:\n        /* \"#utility.yul\":3536:3575   */\n      swap4\n      pop\n        /* \"#utility.yul\":3594:3630   */\n      tag_908\n        /* \"#utility.yul\":3626:3628   */\n      0x20\n        /* \"#utility.yul\":3615:3624   */\n      dup7\n        /* \"#utility.yul\":3611:3629   */\n      add\n        /* \"#utility.yul\":3594:3630   */\n      tag_864\n      jump\t// in\n    tag_908:\n        /* \"#utility.yul\":3345:3738   */\n      swap4\n      swap7\n        /* \"#utility.yul\":3584:3630   */\n      swap4\n      swap6\n      pop\n      pop\n      pop\n      pop\n        /* \"#utility.yul\":3677:3679   */\n      0x40\n        /* \"#utility.yul\":3662:3680   */\n      dup3\n      add\n        /* \"#utility.yul\":3649:3681   */\n      calldataload\n      swap2\n        /* \"#utility.yul\":3728:3730   */\n      0x60\n        /* \"#utility.yul\":3713:3731   */\n      add\n        /* \"#utility.yul\":3700:3732   */\n      calldataload\n      swap1\n        /* \"#utility.yul\":3345:3738   */\n      jump\t// out\n        /* \"#utility.yul\":3743:3870   */\n    tag_816:\n        /* \"#utility.yul\":3804:3814   */\n      0x4e487b71\n        /* \"#utility.yul\":3799:3802   */\n      0xe0\n        /* \"#utility.yul\":3795:3815   */\n      shl\n        /* \"#utility.yul\":3792:3793   */\n      0x00\n        /* \"#utility.yul\":3785:3816   */\n      mstore\n        /* \"#utility.yul\":3835:3839   */\n      0x41\n        /* \"#utility.yul\":3832:3833   */\n      0x04\n        /* \"#utility.yul\":3825:3840   */\n      mstore\n        /* \"#utility.yul\":3859:3863   */\n      0x24\n        /* \"#utility.yul\":3856:3857   */\n      0x00\n        /* \"#utility.yul\":3849:3864   */\n      revert\n        /* \"#utility.yul\":3875:4507   */\n    tag_865:\n        /* \"#utility.yul\":3940:3945   */\n      0x00\n        /* \"#utility.yul\":3970:3988   */\n      0xffffffffffffffff\n        /* \"#utility.yul\":4011:4013   */\n      dup1\n        /* \"#utility.yul\":4003:4009   */\n      dup5\n        /* \"#utility.yul\":4000:4014   */\n      gt\n        /* \"#utility.yul\":3997:4037   */\n      iszero\n      tag_912\n      jumpi\n        /* \"#utility.yul\":4017:4035   */\n      tag_912\n      tag_816\n      jump\t// in\n    tag_912:\n        /* \"#utility.yul\":4092:4094   */\n      0x40\n        /* \"#utility.yul\":4086:4095   */\n      mload\n        /* \"#utility.yul\":4060:4062   */\n      0x1f\n        /* \"#utility.yul\":4146:4161   */\n      dup6\n      add\n      not(0x1f)\n        /* \"#utility.yul\":4142:4166   */\n      swap1\n      dup2\n      and\n        /* \"#utility.yul\":4168:4170   */\n      0x3f\n        /* \"#utility.yul\":4138:4171   */\n      add\n        /* \"#utility.yul\":4134:4176   */\n      and\n        /* \"#utility.yul\":4122:4177   */\n      dup2\n      add\n      swap1\n        /* \"#utility.yul\":4192:4210   */\n      dup3\n      dup3\n      gt\n        /* \"#utility.yul\":4212:4234   */\n      dup2\n      dup4\n      lt\n        /* \"#utility.yul\":4189:4235   */\n      or\n        /* \"#utility.yul\":4186:4258   */\n      iszero\n      tag_914\n      jumpi\n        /* \"#utility.yul\":4238:4256   */\n      tag_914\n      tag_816\n      jump\t// in\n    tag_914:\n        /* \"#utility.yul\":4278:4288   */\n      dup2\n        /* \"#utility.yul\":4274:4276   */\n      0x40\n        /* \"#utility.yul\":4267:4289   */\n      mstore\n        /* \"#utility.yul\":4307:4313   */\n      dup1\n        /* \"#utility.yul\":4298:4313   */\n      swap4\n      pop\n        /* \"#utility.yul\":4337:4343   */\n      dup6\n        /* \"#utility.yul\":4329:4335   */\n      dup2\n        /* \"#utility.yul\":4322:4344   */\n      mstore\n        /* \"#utility.yul\":4377:4380   */\n      dup7\n        /* \"#utility.yul\":4368:4374   */\n      dup7\n        /* \"#utility.yul\":4363:4366   */\n      dup7\n        /* \"#utility.yul\":4359:4375   */\n      add\n        /* \"#utility.yul\":4356:4381   */\n      gt\n        /* \"#utility.yul\":4353:4398   */\n      iszero\n      tag_915\n      jumpi\n        /* \"#utility.yul\":4394:4395   */\n      0x00\n        /* \"#utility.yul\":4391:4392   */\n      dup1\n        /* \"#utility.yul\":4384:4396   */\n      revert\n        /* \"#utility.yul\":4353:4398   */\n    tag_915:\n        /* \"#utility.yul\":4444:4450   */\n      dup6\n        /* \"#utility.yul\":4439:4442   */\n      dup6\n        /* \"#utility.yul\":4432:4436   */\n      0x20\n        /* \"#utility.yul\":4424:4430   */\n      dup4\n        /* \"#utility.yul\":4420:4437   */\n      add\n        /* \"#utility.yul\":4407:4451   */\n      calldatacopy\n        /* \"#utility.yul\":4499:4500   */\n      0x00\n        /* \"#utility.yul\":4492:4496   */\n      0x20\n        /* \"#utility.yul\":4483:4489   */\n      dup8\n        /* \"#utility.yul\":4475:4481   */\n      dup4\n        /* \"#utility.yul\":4471:4490   */\n      add\n        /* \"#utility.yul\":4467:4497   */\n      add\n        /* \"#utility.yul\":4460:4501   */\n      mstore\n      pop\n      pop\n      pop\n        /* \"#utility.yul\":3875:4507   */\n      swap4\n      swap3\n      pop\n      pop\n      pop\n      jump\t// out\n        /* \"#utility.yul\":4512:4963   */\n    tag_148:\n        /* \"#utility.yul\":4581:4587   */\n      0x00\n        /* \"#utility.yul\":4634:4636   */\n      0x20\n        /* \"#utility.yul\":4622:4631   */\n      dup3\n        /* \"#utility.yul\":4613:4620   */\n      dup5\n        /* \"#utility.yul\":4609:4632   */\n      sub\n        /* \"#utility.yul\":4605:4637   */\n      slt\n        /* \"#utility.yul\":4602:4654   */\n      iszero\n      tag_917\n      jumpi\n        /* \"#utility.yul\":4650:4651   */\n      0x00\n        /* \"#utility.yul\":4647:4648   */\n      dup1\n        /* \"#utility.yul\":4640:4652   */\n      revert\n        /* \"#utility.yul\":4602:4654   */\n    tag_917:\n        /* \"#utility.yul\":4690:4699   */\n      dup2\n        /* \"#utility.yul\":4677:4700   */\n      calldataload\n        /* \"#utility.yul\":4723:4741   */\n      0xffffffffffffffff\n        /* \"#utility.yul\":4715:4721   */\n      dup2\n        /* \"#utility.yul\":4712:4742   */\n      gt\n        /* \"#utility.yul\":4709:4759   */\n      iszero\n      tag_918\n      jumpi\n        /* \"#utility.yul\":4755:4756   */\n      0x00\n        /* \"#utility.yul\":4752:4753   */\n      dup1\n        /* \"#utility.yul\":4745:4757   */\n      revert\n        /* \"#utility.yul\":4709:4759   */\n    tag_918:\n        /* \"#utility.yul\":4778:4800   */\n      dup3\n      add\n        /* \"#utility.yul\":4831:4835   */\n      0x1f\n        /* \"#utility.yul\":4823:4836   */\n      dup2\n      add\n        /* \"#utility.yul\":4819:4846   */\n      dup5\n      sgt\n        /* \"#utility.yul\":4809:4864   */\n      tag_919\n      jumpi\n        /* \"#utility.yul\":4860:4861   */\n      0x00\n        /* \"#utility.yul\":4857:4858   */\n      dup1\n        /* \"#utility.yul\":4850:4862   */\n      revert\n        /* \"#utility.yul\":4809:4864   */\n    tag_919:\n        /* \"#utility.yul\":4883:4957   */\n      tag_411\n        /* \"#utility.yul\":4949:4956   */\n      dup5\n        /* \"#utility.yul\":4944:4946   */\n      dup3\n        /* \"#utility.yul\":4931:4947   */\n      calldataload\n        /* \"#utility.yul\":4926:4928   */\n      0x20\n        /* \"#utility.yul\":4922:4924   */\n      dup5\n        /* \"#utility.yul\":4918:4929   */\n      add\n        /* \"#utility.yul\":4883:4957   */\n      tag_865\n      jump\t// in\n        /* \"#utility.yul\":4968:5095   */\n    tag_389:\n        /* \"#utility.yul\":5029:5039   */\n      0x4e487b71\n        /* \"#utility.yul\":5024:5027   */\n      0xe0\n        /* \"#utility.yul\":5020:5040   */\n      shl\n        /* \"#utility.yul\":5017:5018   */\n      0x00\n        /* \"#utility.yul\":5010:5041   */\n      mstore\n        /* \"#utility.yul\":5060:5064   */\n      0x21\n        /* \"#utility.yul\":5057:5058   */\n      0x04\n        /* \"#utility.yul\":5050:5065   */\n      mstore\n        /* \"#utility.yul\":5084:5088   */\n      0x24\n        /* \"#utility.yul\":5081:5082   */\n      0x00\n        /* \"#utility.yul\":5074:5089   */\n      revert\n        /* \"#utility.yul\":5100:5438   */\n    tag_186:\n        /* \"#utility.yul\":5242:5244   */\n      0x20\n        /* \"#utility.yul\":5227:5245   */\n      dup2\n      add\n        /* \"#utility.yul\":5275:5276   */\n      0x03\n        /* \"#utility.yul\":5264:5277   */\n      dup4\n      lt\n        /* \"#utility.yul\":5254:5398   */\n      tag_923\n      jumpi\n        /* \"#utility.yul\":5320:5330   */\n      0x4e487b71\n        /* \"#utility.yul\":5315:5318   */\n      0xe0\n        /* \"#utility.yul\":5311:5331   */\n      shl\n        /* \"#utility.yul\":5308:5309   */\n      0x00\n        /* \"#utility.yul\":5301:5332   */\n      mstore\n        /* \"#utility.yul\":5355:5359   */\n      0x21\n        /* \"#utility.yul\":5352:5353   */\n      0x04\n        /* \"#utility.yul\":5345:5360   */\n      mstore\n        /* \"#utility.yul\":5383:5387   */\n      0x24\n        /* \"#utility.yul\":5380:5381   */\n      0x00\n        /* \"#utility.yul\":5373:5388   */\n      revert\n        /* \"#utility.yul\":5254:5398   */\n    tag_923:\n        /* \"#utility.yul\":5407:5432   */\n      swap2\n      swap1\n      mstore\n        /* \"#utility.yul\":5100:5438   */\n      swap1\n      jump\t// out\n        /* \"#utility.yul\":5443:5790   */\n    tag_223:\n        /* \"#utility.yul\":5508:5514   */\n      0x00\n        /* \"#utility.yul\":5516:5522   */\n      dup1\n        /* \"#utility.yul\":5569:5571   */\n      0x40\n        /* \"#utility.yul\":5557:5566   */\n      dup4\n        /* \"#utility.yul\":5548:5555   */\n      dup6\n        /* \"#utility.yul\":5544:5567   */\n      sub\n        /* \"#utility.yul\":5540:5572   */\n      slt\n        /* \"#utility.yul\":5537:5589   */\n      iszero\n      tag_925\n      jumpi\n        /* \"#utility.yul\":5585:5586   */\n      0x00\n        /* \"#utility.yul\":5582:5583   */\n      dup1\n        /* \"#utility.yul\":5575:5587   */\n      revert\n        /* \"#utility.yul\":5537:5589   */\n    tag_925:\n        /* \"#utility.yul\":5608:5637   */\n      tag_926\n        /* \"#utility.yul\":5627:5636   */\n      dup4\n        /* \"#utility.yul\":5608:5637   */\n      tag_860\n      jump\t// in\n    tag_926:\n        /* \"#utility.yul\":5598:5637   */\n      swap2\n      pop\n        /* \"#utility.yul\":5687:5689   */\n      0x20\n        /* \"#utility.yul\":5676:5685   */\n      dup4\n        /* \"#utility.yul\":5672:5690   */\n      add\n        /* \"#utility.yul\":5659:5691   */\n      calldataload\n        /* \"#utility.yul\":5734:5739   */\n      dup1\n        /* \"#utility.yul\":5727:5740   */\n      iszero\n        /* \"#utility.yul\":5720:5741   */\n      iszero\n        /* \"#utility.yul\":5713:5718   */\n      dup2\n        /* \"#utility.yul\":5710:5742   */\n      eq\n        /* \"#utility.yul\":5700:5760   */\n      tag_927\n      jumpi\n        /* \"#utility.yul\":5756:5757   */\n      0x00\n        /* \"#utility.yul\":5753:5754   */\n      dup1\n        /* \"#utility.yul\":5746:5758   */\n      revert\n        /* \"#utility.yul\":5700:5760   */\n    tag_927:\n        /* \"#utility.yul\":5779:5784   */\n      dup1\n        /* \"#utility.yul\":5769:5784   */\n      swap2\n      pop\n      pop\n        /* \"#utility.yul\":5443:5790   */\n      swap3\n      pop\n      swap3\n      swap1\n      pop\n      jump\t// out\n        /* \"#utility.yul\":5795:6462   */\n    tag_246:\n        /* \"#utility.yul\":5890:5896   */\n      0x00\n        /* \"#utility.yul\":5898:5904   */\n      dup1\n        /* \"#utility.yul\":5906:5912   */\n      0x00\n        /* \"#utility.yul\":5914:5920   */\n      dup1\n        /* \"#utility.yul\":5967:5970   */\n      0x80\n        /* \"#utility.yul\":5955:5964   */\n      dup6\n        /* \"#utility.yul\":5946:5953   */\n      dup8\n        /* \"#utility.yul\":5942:5965   */\n      sub\n        /* \"#utility.yul\":5938:5971   */\n      slt\n        /* \"#utility.yul\":5935:5988   */\n      iszero\n      tag_929\n      jumpi\n        /* \"#utility.yul\":5984:5985   */\n      0x00\n        /* \"#utility.yul\":5981:5982   */\n      dup1\n        /* \"#utility.yul\":5974:5986   */\n      revert\n        /* \"#utility.yul\":5935:5988   */\n    tag_929:\n        /* \"#utility.yul\":6007:6036   */\n      tag_930\n        /* \"#utility.yul\":6026:6035   */\n      dup6\n        /* \"#utility.yul\":6007:6036   */\n      tag_860\n      jump\t// in\n    tag_930:\n        /* \"#utility.yul\":5997:6036   */\n      swap4\n      pop\n        /* \"#utility.yul\":6055:6093   */\n      tag_931\n        /* \"#utility.yul\":6089:6091   */\n      0x20\n        /* \"#utility.yul\":6078:6087   */\n      dup7\n        /* \"#utility.yul\":6074:6092   */\n      add\n        /* \"#utility.yul\":6055:6093   */\n      tag_860\n      jump\t// in\n    tag_931:\n        /* \"#utility.yul\":6045:6093   */\n      swap3\n      pop\n        /* \"#utility.yul\":6140:6142   */\n      0x40\n        /* \"#utility.yul\":6129:6138   */\n      dup6\n        /* \"#utility.yul\":6125:6143   */\n      add\n        /* \"#utility.yul\":6112:6144   */\n      calldataload\n        /* \"#utility.yul\":6102:6144   */\n      swap2\n      pop\n        /* \"#utility.yul\":6195:6197   */\n      0x60\n        /* \"#utility.yul\":6184:6193   */\n      dup6\n        /* \"#utility.yul\":6180:6198   */\n      add\n        /* \"#utility.yul\":6167:6199   */\n      calldataload\n        /* \"#utility.yul\":6222:6240   */\n      0xffffffffffffffff\n        /* \"#utility.yul\":6214:6220   */\n      dup2\n        /* \"#utility.yul\":6211:6241   */\n      gt\n        /* \"#utility.yul\":6208:6258   */\n      iszero\n      tag_932\n      jumpi\n        /* \"#utility.yul\":6254:6255   */\n      0x00\n        /* \"#utility.yul\":6251:6252   */\n      dup1\n        /* \"#utility.yul\":6244:6256   */\n      revert\n        /* \"#utility.yul\":6208:6258   */\n    tag_932:\n        /* \"#utility.yul\":6277:6299   */\n      dup6\n      add\n        /* \"#utility.yul\":6330:6334   */\n      0x1f\n        /* \"#utility.yul\":6322:6335   */\n      dup2\n      add\n        /* \"#utility.yul\":6318:6345   */\n      dup8\n      sgt\n        /* \"#utility.yul\":6308:6363   */\n      tag_933\n      jumpi\n        /* \"#utility.yul\":6359:6360   */\n      0x00\n        /* \"#utility.yul\":6356:6357   */\n      dup1\n        /* \"#utility.yul\":6349:6361   */\n      revert\n        /* \"#utility.yul\":6308:6363   */\n    tag_933:\n        /* \"#utility.yul\":6382:6456   */\n      tag_934\n        /* \"#utility.yul\":6448:6455   */\n      dup8\n        /* \"#utility.yul\":6443:6445   */\n      dup3\n        /* \"#utility.yul\":6430:6446   */\n      calldataload\n        /* \"#utility.yul\":6425:6427   */\n      0x20\n        /* \"#utility.yul\":6421:6423   */\n      dup5\n        /* \"#utility.yul\":6417:6428   */\n      add\n        /* \"#utility.yul\":6382:6456   */\n      tag_865\n      jump\t// in\n    tag_934:\n        /* \"#utility.yul\":6372:6456   */\n      swap2\n      pop\n      pop\n        /* \"#utility.yul\":5795:6462   */\n      swap3\n      swap6\n      swap2\n      swap5\n      pop\n      swap3\n      pop\n      jump\t// out\n        /* \"#utility.yul\":6467:6854   */\n    tag_270:\n        /* \"#utility.yul\":6551:6557   */\n      0x00\n        /* \"#utility.yul\":6559:6565   */\n      dup1\n        /* \"#utility.yul\":6567:6573   */\n      0x00\n        /* \"#utility.yul\":6575:6581   */\n      dup1\n        /* \"#utility.yul\":6628:6631   */\n      0x80\n        /* \"#utility.yul\":6616:6625   */\n      dup6\n        /* \"#utility.yul\":6607:6614   */\n      dup8\n        /* \"#utility.yul\":6603:6626   */\n      sub\n        /* \"#utility.yul\":6599:6632   */\n      slt\n        /* \"#utility.yul\":6596:6649   */\n      iszero\n      tag_936\n      jumpi\n        /* \"#utility.yul\":6645:6646   */\n      0x00\n        /* \"#utility.yul\":6642:6643   */\n      dup1\n        /* \"#utility.yul\":6635:6647   */\n      revert\n        /* \"#utility.yul\":6596:6649   */\n    tag_936:\n        /* \"#utility.yul\":6681:6690   */\n      dup5\n        /* \"#utility.yul\":6668:6691   */\n      calldataload\n        /* \"#utility.yul\":6658:6691   */\n      swap4\n      pop\n        /* \"#utility.yul\":6710:6746   */\n      tag_908\n        /* \"#utility.yul\":6742:6744   */\n      0x20\n        /* \"#utility.yul\":6731:6740   */\n      dup7\n        /* \"#utility.yul\":6727:6745   */\n      add\n        /* \"#utility.yul\":6710:6746   */\n      tag_864\n      jump\t// in\n        /* \"#utility.yul\":6859:7119   */\n    tag_275:\n        /* \"#utility.yul\":6927:6933   */\n      0x00\n        /* \"#utility.yul\":6935:6941   */\n      dup1\n        /* \"#utility.yul\":6988:6990   */\n      0x40\n        /* \"#utility.yul\":6976:6985   */\n      dup4\n        /* \"#utility.yul\":6967:6974   */\n      dup6\n        /* \"#utility.yul\":6963:6986   */\n      sub\n        /* \"#utility.yul\":6959:6991   */\n      slt\n        /* \"#utility.yul\":6956:7008   */\n      iszero\n      tag_939\n      jumpi\n        /* \"#utility.yul\":7004:7005   */\n      0x00\n        /* \"#utility.yul\":7001:7002   */\n      dup1\n        /* \"#utility.yul\":6994:7006   */\n      revert\n        /* \"#utility.yul\":6956:7008   */\n    tag_939:\n        /* \"#utility.yul\":7027:7056   */\n      tag_940\n        /* \"#utility.yul\":7046:7055   */\n      dup4\n        /* \"#utility.yul\":7027:7056   */\n      tag_860\n      jump\t// in\n    tag_940:\n        /* \"#utility.yul\":7017:7056   */\n      swap2\n      pop\n        /* \"#utility.yul\":7075:7113   */\n      tag_898\n        /* \"#utility.yul\":7109:7111   */\n      0x20\n        /* \"#utility.yul\":7098:7107   */\n      dup5\n        /* \"#utility.yul\":7094:7112   */\n      add\n        /* \"#utility.yul\":7075:7113   */\n      tag_860\n      jump\t// in\n        /* \"#utility.yul\":7485:7865   */\n    tag_313:\n        /* \"#utility.yul\":7564:7565   */\n      0x01\n        /* \"#utility.yul\":7560:7572   */\n      dup2\n      dup2\n      shr\n      swap1\n        /* \"#utility.yul\":7607:7619   */\n      dup3\n      and\n      dup1\n        /* \"#utility.yul\":7628:7689   */\n      tag_944\n      jumpi\n        /* \"#utility.yul\":7682:7686   */\n      0x7f\n        /* \"#utility.yul\":7674:7680   */\n      dup3\n        /* \"#utility.yul\":7670:7687   */\n      and\n        /* \"#utility.yul\":7660:7687   */\n      swap2\n      pop\n        /* \"#utility.yul\":7628:7689   */\n    tag_944:\n        /* \"#utility.yul\":7735:7737   */\n      0x20\n        /* \"#utility.yul\":7727:7733   */\n      dup3\n        /* \"#utility.yul\":7724:7738   */\n      lt\n        /* \"#utility.yul\":7704:7722   */\n      dup2\n        /* \"#utility.yul\":7701:7739   */\n      sub\n        /* \"#utility.yul\":7698:7859   */\n      tag_945\n      jumpi\n        /* \"#utility.yul\":7781:7791   */\n      0x4e487b71\n        /* \"#utility.yul\":7776:7779   */\n      0xe0\n        /* \"#utility.yul\":7772:7792   */\n      shl\n        /* \"#utility.yul\":7769:7770   */\n      0x00\n        /* \"#utility.yul\":7762:7793   */\n      mstore\n        /* \"#utility.yul\":7816:7820   */\n      0x22\n        /* \"#utility.yul\":7813:7814   */\n      0x04\n        /* \"#utility.yul\":7806:7821   */\n      mstore\n        /* \"#utility.yul\":7844:7848   */\n      0x24\n        /* \"#utility.yul\":7841:7842   */\n      0x00\n        /* \"#utility.yul\":7834:7849   */\n      revert\n        /* \"#utility.yul\":7698:7859   */\n    tag_945:\n      pop\n        /* \"#utility.yul\":7485:7865   */\n      swap2\n      swap1\n      pop\n      jump\t// out\n        /* \"#utility.yul\":8628:8755   */\n    tag_866:\n        /* \"#utility.yul\":8689:8699   */\n      0x4e487b71\n        /* \"#utility.yul\":8684:8687   */\n      0xe0\n        /* \"#utility.yul\":8680:8700   */\n      shl\n        /* \"#utility.yul\":8677:8678   */\n      0x00\n        /* \"#utility.yul\":8670:8701   */\n      mstore\n        /* \"#utility.yul\":8720:8724   */\n      0x11\n        /* \"#utility.yul\":8717:8718   */\n      0x04\n        /* \"#utility.yul\":8710:8725   */\n      mstore\n        /* \"#utility.yul\":8744:8748   */\n      0x24\n        /* \"#utility.yul\":8741:8742   */\n      0x00\n        /* \"#utility.yul\":8734:8749   */\n      revert\n        /* \"#utility.yul\":8760:8885   */\n    tag_329:\n        /* \"#utility.yul\":8800:8804   */\n      0x00\n        /* \"#utility.yul\":8828:8829   */\n      dup3\n        /* \"#utility.yul\":8825:8826   */\n      dup3\n        /* \"#utility.yul\":8822:8830   */\n      lt\n        /* \"#utility.yul\":8819:8853   */\n      iszero\n      tag_951\n      jumpi\n        /* \"#utility.yul\":8833:8851   */\n      tag_951\n      tag_866\n      jump\t// in\n    tag_951:\n      pop\n        /* \"#utility.yul\":8870:8879   */\n      sub\n      swap1\n        /* \"#utility.yul\":8760:8885   */\n      jump\t// out\n        /* \"#utility.yul\":8890:9018   */\n    tag_333:\n        /* \"#utility.yul\":8930:8933   */\n      0x00\n        /* \"#utility.yul\":8961:8962   */\n      dup3\n        /* \"#utility.yul\":8957:8963   */\n      not\n        /* \"#utility.yul\":8954:8955   */\n      dup3\n        /* \"#utility.yul\":8951:8964   */\n      gt\n        /* \"#utility.yul\":8948:8987   */\n      iszero\n      tag_954\n      jumpi\n        /* \"#utility.yul\":8967:8985   */\n      tag_954\n      tag_866\n      jump\t// in\n    tag_954:\n      pop\n        /* \"#utility.yul\":9003:9012   */\n      add\n      swap1\n        /* \"#utility.yul\":8890:9018   */\n      jump\t// out\n        /* \"#utility.yul\":9382:9566   */\n    tag_341:\n        /* \"#utility.yul\":9452:9458   */\n      0x00\n        /* \"#utility.yul\":9505:9507   */\n      0x20\n        /* \"#utility.yul\":9493:9502   */\n      dup3\n        /* \"#utility.yul\":9484:9491   */\n      dup5\n        /* \"#utility.yul\":9480:9503   */\n      sub\n        /* \"#utility.yul\":9476:9508   */\n      slt\n        /* \"#utility.yul\":9473:9525   */\n      iszero\n      tag_957\n      jumpi\n        /* \"#utility.yul\":9521:9522   */\n      0x00\n        /* \"#utility.yul\":9518:9519   */\n      dup1\n        /* \"#utility.yul\":9511:9523   */\n      revert\n        /* \"#utility.yul\":9473:9525   */\n    tag_957:\n      pop\n        /* \"#utility.yul\":9544:9560   */\n      mload\n      swap2\n        /* \"#utility.yul\":9382:9566   */\n      swap1\n      pop\n      jump\t// out\n        /* \"#utility.yul\":13907:14075   */\n    tag_452:\n        /* \"#utility.yul\":13947:13954   */\n      0x00\n        /* \"#utility.yul\":14013:14014   */\n      dup2\n        /* \"#utility.yul\":14009:14010   */\n      0x00\n        /* \"#utility.yul\":14005:14011   */\n      not\n        /* \"#utility.yul\":14001:14015   */\n      div\n        /* \"#utility.yul\":13998:13999   */\n      dup4\n        /* \"#utility.yul\":13995:14016   */\n      gt\n        /* \"#utility.yul\":13990:13991   */\n      dup3\n        /* \"#utility.yul\":13983:13992   */\n      iszero\n        /* \"#utility.yul\":13976:13993   */\n      iszero\n        /* \"#utility.yul\":13972:14017   */\n      and\n        /* \"#utility.yul\":13969:14040   */\n      iszero\n      tag_971\n      jumpi\n        /* \"#utility.yul\":14020:14038   */\n      tag_971\n      tag_866\n      jump\t// in\n    tag_971:\n      pop\n        /* \"#utility.yul\":14060:14069   */\n      mul\n      swap1\n        /* \"#utility.yul\":13907:14075   */\n      jump\t// out\n        /* \"#utility.yul\":14080:14207   */\n    tag_867:\n        /* \"#utility.yul\":14141:14151   */\n      0x4e487b71\n        /* \"#utility.yul\":14136:14139   */\n      0xe0\n        /* \"#utility.yul\":14132:14152   */\n      shl\n        /* \"#utility.yul\":14129:14130   */\n      0x00\n        /* \"#utility.yul\":14122:14153   */\n      mstore\n        /* \"#utility.yul\":14172:14176   */\n      0x12\n        /* \"#utility.yul\":14169:14170   */\n      0x04\n        /* \"#utility.yul\":14162:14177   */\n      mstore\n        /* \"#utility.yul\":14196:14200   */\n      0x24\n        /* \"#utility.yul\":14193:14194   */\n      0x00\n        /* \"#utility.yul\":14186:14201   */\n      revert\n        /* \"#utility.yul\":14212:14332   */\n    tag_454:\n        /* \"#utility.yul\":14252:14253   */\n      0x00\n        /* \"#utility.yul\":14278:14279   */\n      dup3\n        /* \"#utility.yul\":14268:14303   */\n      tag_975\n      jumpi\n        /* \"#utility.yul\":14283:14301   */\n      tag_975\n      tag_867\n      jump\t// in\n    tag_975:\n      pop\n        /* \"#utility.yul\":14317:14326   */\n      div\n      swap1\n        /* \"#utility.yul\":14212:14332   */\n      jump\t// out\n        /* \"#utility.yul\":19388:20025   */\n    tag_647:\n        /* \"#utility.yul\":19668:19671   */\n      0x00\n        /* \"#utility.yul\":19706:19712   */\n      dup4\n        /* \"#utility.yul\":19700:19713   */\n      mload\n        /* \"#utility.yul\":19722:19775   */\n      tag_990\n        /* \"#utility.yul\":19768:19774   */\n      dup2\n        /* \"#utility.yul\":19763:19766   */\n      dup5\n        /* \"#utility.yul\":19756:19760   */\n      0x20\n        /* \"#utility.yul\":19748:19754   */\n      dup9\n        /* \"#utility.yul\":19744:19761   */\n      add\n        /* \"#utility.yul\":19722:19775   */\n      tag_862\n      jump\t// in\n    tag_990:\n        /* \"#utility.yul\":19838:19851   */\n      dup4\n      mload\n        /* \"#utility.yul\":19797:19813   */\n      swap1\n      dup4\n      add\n      swap1\n        /* \"#utility.yul\":19860:19917   */\n      tag_991\n        /* \"#utility.yul\":19838:19851   */\n      dup2\n        /* \"#utility.yul\":19797:19813   */\n      dup4\n        /* \"#utility.yul\":19894:19898   */\n      0x20\n        /* \"#utility.yul\":19882:19899   */\n      dup9\n      add\n        /* \"#utility.yul\":19860:19917   */\n      tag_862\n      jump\t// in\n    tag_991:\n        /* \"#utility.yul\":19982:19989   */\n      0x2e6a736f6e000000000000000000000000000000000000000000000000000000\n        /* \"#utility.yul\":19939:19959   */\n      swap2\n      add\n        /* \"#utility.yul\":19968:19990   */\n      swap1\n      dup2\n      mstore\n        /* \"#utility.yul\":20017:20018   */\n      0x05\n        /* \"#utility.yul\":20006:20019   */\n      add\n      swap5\n        /* \"#utility.yul\":19388:20025   */\n      swap4\n      pop\n      pop\n      pop\n      pop\n      jump\t// out\n        /* \"#utility.yul\":24871:25383   */\n    tag_786:\n        /* \"#utility.yul\":25065:25069   */\n      0x00\n      sub(shl(0xa0, 0x01), 0x01)\n        /* \"#utility.yul\":25175:25177   */\n      dup1\n        /* \"#utility.yul\":25167:25173   */\n      dup8\n        /* \"#utility.yul\":25163:25178   */\n      and\n        /* \"#utility.yul\":25152:25161   */\n      dup4\n        /* \"#utility.yul\":25145:25179   */\n      mstore\n        /* \"#utility.yul\":25227:25229   */\n      dup1\n        /* \"#utility.yul\":25219:25225   */\n      dup7\n        /* \"#utility.yul\":25215:25230   */\n      and\n        /* \"#utility.yul\":25210:25212   */\n      0x20\n        /* \"#utility.yul\":25199:25208   */\n      dup5\n        /* \"#utility.yul\":25195:25213   */\n      add\n        /* \"#utility.yul\":25188:25231   */\n      mstore\n      pop\n        /* \"#utility.yul\":25267:25273   */\n      dup4\n        /* \"#utility.yul\":25262:25264   */\n      0x40\n        /* \"#utility.yul\":25251:25260   */\n      dup4\n        /* \"#utility.yul\":25247:25265   */\n      add\n        /* \"#utility.yul\":25240:25274   */\n      mstore\n        /* \"#utility.yul\":25310:25313   */\n      0x80\n        /* \"#utility.yul\":25305:25307   */\n      0x60\n        /* \"#utility.yul\":25294:25303   */\n      dup4\n        /* \"#utility.yul\":25290:25308   */\n      add\n        /* \"#utility.yul\":25283:25314   */\n      mstore\n        /* \"#utility.yul\":25331:25377   */\n      tag_1006\n        /* \"#utility.yul\":25372:25375   */\n      0x80\n        /* \"#utility.yul\":25361:25370   */\n      dup4\n        /* \"#utility.yul\":25357:25376   */\n      add\n        /* \"#utility.yul\":25349:25355   */\n      dup5\n        /* \"#utility.yul\":25331:25377   */\n      tag_863\n      jump\t// in\n    tag_1006:\n        /* \"#utility.yul\":25323:25377   */\n      swap7\n        /* \"#utility.yul\":24871:25383   */\n      swap6\n      pop\n      pop\n      pop\n      pop\n      pop\n      pop\n      jump\t// out\n        /* \"#utility.yul\":25388:25637   */\n    tag_789:\n        /* \"#utility.yul\":25457:25463   */\n      0x00\n        /* \"#utility.yul\":25510:25512   */\n      0x20\n        /* \"#utility.yul\":25498:25507   */\n      dup3\n        /* \"#utility.yul\":25489:25496   */\n      dup5\n        /* \"#utility.yul\":25485:25508   */\n      sub\n        /* \"#utility.yul\":25481:25513   */\n      slt\n        /* \"#utility.yul\":25478:25530   */\n      iszero\n      tag_1008\n      jumpi\n        /* \"#utility.yul\":25526:25527   */\n      0x00\n        /* \"#utility.yul\":25523:25524   */\n      dup1\n        /* \"#utility.yul\":25516:25528   */\n      revert\n        /* \"#utility.yul\":25478:25530   */\n    tag_1008:\n        /* \"#utility.yul\":25558:25567   */\n      dup2\n        /* \"#utility.yul\":25552:25568   */\n      mload\n        /* \"#utility.yul\":25577:25607   */\n      tag_643\n        /* \"#utility.yul\":25601:25606   */\n      dup2\n        /* \"#utility.yul\":25577:25607   */\n      tag_861\n      jump\t// in\n        /* \"#utility.yul\":25642:25777   */\n    tag_812:\n        /* \"#utility.yul\":25681:25684   */\n      0x00\n        /* \"#utility.yul\":25702:25719   */\n      0x01\n      dup3\n      add\n        /* \"#utility.yul\":25699:25742   */\n      tag_1012\n      jumpi\n        /* \"#utility.yul\":25722:25740   */\n      tag_1012\n      tag_866\n      jump\t// in\n    tag_1012:\n      pop\n        /* \"#utility.yul\":25769:25770   */\n      0x01\n        /* \"#utility.yul\":25758:25771   */\n      add\n      swap1\n        /* \"#utility.yul\":25642:25777   */\n      jump\t// out\n        /* \"#utility.yul\":25782:25894   */\n    tag_822:\n        /* \"#utility.yul\":25814:25815   */\n      0x00\n        /* \"#utility.yul\":25840:25841   */\n      dup3\n        /* \"#utility.yul\":25830:25865   */\n      tag_1015\n      jumpi\n        /* \"#utility.yul\":25845:25863   */\n      tag_1015\n      tag_867\n      jump\t// in\n    tag_1015:\n      pop\n        /* \"#utility.yul\":25879:25888   */\n      mod\n      swap1\n        /* \"#utility.yul\":25782:25894   */\n      jump\t// out\n        /* \"#utility.yul\":25899:26026   */\n    tag_826:\n        /* \"#utility.yul\":25960:25970   */\n      0x4e487b71\n        /* \"#utility.yul\":25955:25958   */\n      0xe0\n        /* \"#utility.yul\":25951:25971   */\n      shl\n        /* \"#utility.yul\":25948:25949   */\n      0x00\n        /* \"#utility.yul\":25941:25972   */\n      mstore\n        /* \"#utility.yul\":25991:25995   */\n      0x32\n        /* \"#utility.yul\":25988:25989   */\n      0x04\n        /* \"#utility.yul\":25981:25996   */\n      mstore\n        /* \"#utility.yul\":26015:26019   */\n      0x24\n        /* \"#utility.yul\":26012:26013   */\n      0x00\n        /* \"#utility.yul\":26005:26020   */\n      revert\n    stop\n    data_9924ebdf1add33d25d4ef888e16131f0a5687b0580a36c21b5c301a6c462effe 4f776e61626c653a2063616c6c6572206973206e6f7420746865206f776e6572\n\n    auxdata: 0xa26469706673582212202502bd1638cd80f01059b6d9e2e5b557b3e7c8d7b94a30650f2e1b771f579efd64736f6c634300080d0033\n}\n",
    "bytecode": {
      "linkReferences": {},
      "object": "608060405266d529ae9e860000600a5567011c37937e080000600b556002600c556003600d5560de600f55601080546001600160a01b0319167380e4929c869102140e69550bbecc20bed61b080c1790553480156200005d57600080fd5b50604080518082018252600e81526d45766f6c7665642043616d656c7360901b602080830191825283518085019094526002845261454360f01b908401528151919291620000ae916001916200019e565b508051620000c49060029060208401906200019e565b505050620000e1620000db6200014860201b60201c565b6200014c565b6108ae600855601780546001600160a01b03191673062c74e593ce3c6574f126a1a35ab55dffdd63a617905560408051808201909152600b8082526a697066733a2f2f2e2e2e2f60a81b602090920191825262000141916018916200019e565b5062000280565b3390565b600780546001600160a01b038381166001600160a01b0319831681179093556040519116919082907f8be0079c531659141344cd1fd0a4f28419497f9722a3daafe3b4186f6b6457e090600090a35050565b828054620001ac9062000244565b90600052602060002090601f016020900481019282620001d057600085556200021b565b82601f10620001eb57805160ff19168380011785556200021b565b828001600101855582156200021b579182015b828111156200021b578251825591602001919060010190620001fe565b50620002299291506200022d565b5090565b5b808211156200022957600081556001016200022e565b600181811c908216806200025957607f821691505b6020821081036200027a57634e487b7160e01b600052602260045260246000fd5b50919050565b61382080620002906000396000f3fe6080604052600436106103385760003560e01c80637035bf18116101b0578063b88d4fde116100ec578063dcd4e73211610095578063f2fde38b1161006f578063f2fde38b146108cd578063f8ccc3ce146108ed578063ff9849941461090d578063ffcd55a81461092257600080fd5b8063dcd4e7321461085c578063e985e9c51461086f578063eab41782146108b857600080fd5b8063c4d8b9df116100c6578063c4d8b9df146107fc578063c6ed89901461081c578063c87b56dd1461083c57600080fd5b8063b88d4fde146107b2578063bdb4b848146107d2578063c4ae3168146107e757600080fd5b806395d89b4111610159578063af1035de11610133578063af1035de14610752578063b0a1c1c414610772578063b187bd2614610787578063b3ab66b01461079f57600080fd5b806395d89b4114610708578063a22cb4651461071d578063a475b5dd1461073d57600080fd5b80637c76f6981161018a5780637c76f698146106b55780637f1921ef146106ca5780638da5cb5b146106ea57600080fd5b80637035bf181461066b57806370a0823114610680578063715018a6146106a057600080fd5b80633023eba61161027f5780634520e916116102285780634f6ccce7116102025780634f6ccce7146105f35780635a4dd61c14610613578063603f4d52146106295780636352211e1461064b57600080fd5b80634520e916146105ac57806345cb2e52146105c157806346e0d1ab146105de57600080fd5b80633b478c2c116102595780633b478c2c146105575780633ccfd60b1461057757806342842e0e1461058c57600080fd5b80633023eba6146104ea578063326241141461051757806339a0c6f91461053757600080fd5b806318160ddd116102e157806320c63e3b116102bb57806320c63e3b1461048a57806323b872dd146104aa5780632f745c59146104ca57600080fd5b806318160ddd1461043557806318df64031461045457806319734c8b1461047457600080fd5b8063081812fc11610312578063081812fc146103bd578063092cd34a146103f5578063095ea7b31461041557600080fd5b80630191a6571461034457806301ffc9a71461036657806306fdde031461039b57600080fd5b3661033f57005b600080fd5b34801561035057600080fd5b5061036461035f366004613224565b610938565b005b34801561037257600080fd5b50610386610381366004613255565b6109a7565b60405190151581526020015b60405180910390f35b3480156103a757600080fd5b506103b0610a14565b60405161039291906132ca565b3480156103c957600080fd5b506103dd6103d83660046132dd565b610aa6565b6040516001600160a01b039091168152602001610392565b34801561040157600080fd5b506103646104103660046132dd565b610b41565b34801561042157600080fd5b506103646104303660046132f6565b610d28565b34801561044157600080fd5b506000545b604051908152602001610392565b34801561046057600080fd5b5061036461046f366004613320565b610e3f565b34801561048057600080fd5b50610446600d5481565b34801561049657600080fd5b506103646104a53660046132dd565b610f60565b3480156104b657600080fd5b506103646104c536600461334c565b61102d565b3480156104d657600080fd5b506104466104e53660046132f6565b611038565b3480156104f657600080fd5b50610446610505366004613224565b60156020526000908152604090205481565b34801561052357600080fd5b50610386610532366004613399565b6111a2565b34801561054357600080fd5b50610364610552366004613467565b6112ae565b34801561056357600080fd5b50610446610572366004613224565b611309565b34801561058357600080fd5b5061036461142d565b34801561059857600080fd5b506103646105a736600461334c565b611533565b3480156105b857600080fd5b5061044661154e565b3480156105cd57600080fd5b50601454610100900460ff16610386565b3480156105ea57600080fd5b506103646115ae565b3480156105ff57600080fd5b5061044661060e3660046132dd565b611613565b34801561061f57600080fd5b5061044660085481565b34801561063557600080fd5b5061063e611675565b60405161039291906134c6565b34801561065757600080fd5b506103dd6106663660046132dd565b61169d565b34801561067757600080fd5b506103b06116af565b34801561068c57600080fd5b5061044661069b366004613224565b61173d565b3480156106ac57600080fd5b506103646117e9565b3480156106c157600080fd5b5061044661183d565b3480156106d657600080fd5b506103646106e53660046132dd565b6118be565b3480156106f657600080fd5b506007546001600160a01b03166103dd565b34801561071457600080fd5b506103b0611937565b34801561072957600080fd5b506103646107383660046134ee565b611946565b34801561074957600080fd5b50610364611a0a565b34801561075e57600080fd5b5061036461076d366004613224565b611ace565b34801561077e57600080fd5b50610446611b8e565b34801561079357600080fd5b5060145460ff16610386565b6103646107ad3660046132dd565b611bde565b3480156107be57600080fd5b506103646107cd36600461352a565b611e38565b3480156107de57600080fd5b50610446611ebd565b3480156107f357600080fd5b50610364611ef3565b34801561080857600080fd5b50610364610817366004613467565b611f4f565b34801561082857600080fd5b506103646108373660046132dd565b611faa565b34801561084857600080fd5b506103b06108573660046132dd565b612054565b61036461086a3660046135a6565b6121cb565b34801561087b57600080fd5b5061038661088a3660046135cc565b6001600160a01b03918216600090815260066020908152604080832093909416825291909152205460ff1690565b3480156108c457600080fd5b5061036461248f565b3480156108d957600080fd5b506103646108e8366004613224565b612545565b3480156108f957600080fd5b50610446610908366004613224565b612612565b34801561091957600080fd5b50610364612681565b34801561092e57600080fd5b50610446600c5481565b6007546001600160a01b031633146109855760405162461bcd60e51b815260206004820181905260248201526000805160206137cb83398151915260448201526064015b60405180910390fd5b601080546001600160a01b0319166001600160a01b0392909216919091179055565b60006001600160e01b031982166380ac58cd60e01b14806109d857506001600160e01b03198216635b5e139f60e01b145b806109f357506001600160e01b0319821663780e9d6360e01b145b80610a0e57506301ffc9a760e01b6001600160e01b03198316145b92915050565b606060018054610a23906135f6565b80601f0160208091040260200160405190810160405280929190818152602001828054610a4f906135f6565b8015610a9c5780601f10610a7157610100808354040283529160200191610a9c565b820191906000526020600020905b815481529060010190602001808311610a7f57829003601f168201915b5050505050905090565b6000610ab3826000541190565b610b255760405162461bcd60e51b815260206004820152602d60248201527f455243373231413a20617070726f76656420717565727920666f72206e6f6e6560448201527f78697374656e7420746f6b656e00000000000000000000000000000000000000606482015260840161097c565b506000908152600560205260409020546001600160a01b031690565b601454610100900460ff1615610b995760405162461bcd60e51b815260206004820152600f60248201527f53616c6520697320636c6f736564210000000000000000000000000000000000604482015260640161097c565b600e54600f54610ba99190613646565b600854610bb69190613646565b81610bc060005490565b610bca919061365d565b1115610c185760405162461bcd60e51b815260206004820152601e60248201527f4e6f7420656e6f756768204e465473206c65667420746f206d696e742e2e0000604482015260640161097c565b6017546040516370a0823160e01b81523360048201526001600160a01b03909116906370a0823190602401602060405180830381865afa158015610c60573d6000803e3d6000fd5b505050506040513d601f19601f82011682018060405250810190610c849190613675565b33600090815260166020526040902054610c9f90839061365d565b1115610cf75760405162461bcd60e51b815260206004820152602160248201527f31204d696e7420706572204372617a792043616d656c204e4654204f776e65646044820152602160f81b606482015260840161097c565b610d013382612737565b3360009081526016602052604081208054839290610d2090849061365d565b909155505050565b6000610d338261169d565b9050806001600160a01b0316836001600160a01b031603610da15760405162461bcd60e51b815260206004820152602260248201527f455243373231413a20617070726f76616c20746f2063757272656e74206f776e60448201526132b960f11b606482015260840161097c565b336001600160a01b0382161480610dbd5750610dbd813361088a565b610e2f5760405162461bcd60e51b815260206004820152603960248201527f455243373231413a20617070726f76652063616c6c6572206973206e6f74206f60448201527f776e6572206e6f7220617070726f76656420666f7220616c6c00000000000000606482015260840161097c565b610e3a838383612751565b505050565b6007546001600160a01b03163314610e875760405162461bcd60e51b815260206004820181905260248201526000805160206137cb833981519152604482015260640161097c565b600f5482600e54610e98919061365d565b1115610f0c5760405162461bcd60e51b815260206004820152602760248201527f4e6f7420656e6f756768205265736572766564204e465473206c65667420746f60448201527f206d696e742e2e00000000000000000000000000000000000000000000000000606482015260840161097c565b610f168183612737565b6001600160a01b03811660009081526015602052604081208054849290610f3e90849061365d565b9250508190555081600e6000828254610f57919061365d565b90915550505050565b6007546001600160a01b03163314610fa85760405162461bcd60e51b815260206004820181905260248201526000805160206137cb833981519152604482015260640161097c565b60008111610ff85760405162461bcd60e51b815260206004820152601560248201527f4d6178204d696e742063616e6e6f742062652030210000000000000000000000604482015260640161097c565b6000611002611675565b90506002816002811115611018576110186134b0565b146110235750600c55565b600d8290555b5050565b610e3a8383836127ad565b60006110438361173d565b821061109c5760405162461bcd60e51b815260206004820152602260248201527f455243373231413a206f776e657220696e646578206f7574206f6620626f756e604482015261647360f01b606482015260840161097c565b600080549080805b83811015611133576000818152600360209081526040918290208251808401909352546001600160a01b038116808452600160a01b90910467ffffffffffffffff1691830191909152156110f757805192505b876001600160a01b0316836001600160a01b03160361112a5786840361112357509350610a0e92505050565b6001909301925b506001016110a4565b5060405162461bcd60e51b815260206004820152602e60248201527f455243373231413a20756e61626c6520746f2067657420746f6b656e206f662060448201527f6f776e657220627920696e646578000000000000000000000000000000000000606482015260840161097c565b6040516bffffffffffffffffffffffff1930606090811b8216602084015286901b166034820152600090819060480160405160208183030381529060405280519060200120905060018160405160200161122891907f19457468657265756d205369676e6564204d6573736167653a0a3332000000008152601c810191909152603c0190565b60408051601f198184030181528282528051602091820120600084529083018083525260ff881690820152606081018690526080810185905260a0016020604051602081039080840390855afa158015611286573d6000803e3d6000fd5b5050604051601f1901516010546001600160a01b03908116911614925050505b949350505050565b6007546001600160a01b031633146112f65760405162461bcd60e51b815260206004820181905260248201526000805160206137cb833981519152604482015260640161097c565b805161102990600990602084019061317d565b6017546040516370a0823160e01b81526001600160a01b03838116600483015260009216906370a0823190602401602060405180830381865afa158015611354573d6000803e3d6000fd5b505050506040513d601f19601f820116820180604052508101906113789190613675565b6001600160a01b0383166000908152601660205260409020541061139e57506000919050565b6001600160a01b03828116600081815260166020526040908190205460175491516370a0823160e01b815260048101939093529216906370a0823190602401602060405180830381865afa1580156113fa573d6000803e3d6000fd5b505050506040513d601f19601f8201168201806040525081019061141e9190613675565b610a0e9190613646565b919050565b6007546001600160a01b031633146114755760405162461bcd60e51b815260206004820181905260248201526000805160206137cb833981519152604482015260640161097c565b600061147f611b8e565b9050600081116114dc5760405162461bcd60e51b815260206004820152602260248201527f4e6f2046756e647320746f2077697468647261772c2042616c616e6365206973604482015261020360f41b606482015260840161097c565b61151073256390d941187f536dd56ba224e779786c6265a0606461150184604261368e565b61150b91906136c3565b612ade565b61153073f22305ad50e7b36a81ef08d0995ef3f3788b20f061150b611b8e565b50565b610e3a83838360405180602001604052806000815250611e38565b6007546000906001600160a01b031633146115995760405162461bcd60e51b815260206004820181905260248201526000805160206137cb833981519152604482015260640161097c565b600e54600f546115a99190613646565b905090565b6007546001600160a01b031633146115f65760405162461bcd60e51b815260206004820181905260248201526000805160206137cb833981519152604482015260640161097c565b6014805461ff001981166101009182900460ff1615909102179055565b6000805482106116715760405162461bcd60e51b815260206004820152602360248201527f455243373231413a20676c6f62616c20696e646578206f7574206f6620626f756044820152626e647360e81b606482015260840161097c565b5090565b60006011546000036116875750600090565b6012546000036116975750600190565b50600290565b60006116a882612b81565b5192915050565b601880546116bc906135f6565b80601f01602080910402602001604051908101604052809291908181526020018280546116e8906135f6565b80156117355780601f1061170a57610100808354040283529160200191611735565b820191906000526020600020905b81548152906001019060200180831161171857829003601f168201915b505050505081565b60006001600160a01b0382166117bb5760405162461bcd60e51b815260206004820152602b60248201527f455243373231413a2062616c616e636520717565727920666f7220746865207a60448201527f65726f2061646472657373000000000000000000000000000000000000000000606482015260840161097c565b506001600160a01b03166000908152600460205260409020546fffffffffffffffffffffffffffffffff1690565b6007546001600160a01b031633146118315760405162461bcd60e51b815260206004820181905260248201526000805160206137cb833981519152604482015260640161097c565b61183b6000612c6b565b565b60006013546000036118b75760405162461bcd60e51b815260206004820152602c60248201527f4e46542052657665616c2054696d6520686173206e6f74206265656e2064657460448201527f65726d696e656420796574210000000000000000000000000000000000000000606482015260840161097c565b5060135490565b6007546001600160a01b031633146119065760405162461bcd60e51b815260206004820181905260248201526000805160206137cb833981519152604482015260640161097c565b6000611910611675565b90506002816002811115611926576119266134b0565b146119315750600a55565b50600b55565b606060028054610a23906135f6565b336001600160a01b0383160361199e5760405162461bcd60e51b815260206004820152601a60248201527f455243373231413a20617070726f766520746f2063616c6c6572000000000000604482015260640161097c565b3360008181526006602090815260408083206001600160a01b03871680855290835292819020805460ff191686151590811790915590519081529192917f17307eab39ab6107e8899845ad3d59bd9653f200f220920489ca2b5937696c31910160405180910390a35050565b6007546001600160a01b03163314611a525760405162461bcd60e51b815260206004820181905260248201526000805160206137cb833981519152604482015260640161097c565b60135415611ac85760405162461bcd60e51b815260206004820152602560248201527f436f6c6c656374696f6e2068617320616c7265616479206265656e207265766560448201527f616c656421000000000000000000000000000000000000000000000000000000606482015260840161097c565b42601355565b6007546001600160a01b03163314611b165760405162461bcd60e51b815260206004820181905260248201526000805160206137cb833981519152604482015260640161097c565b6001600160a01b038116611b6c5760405162461bcd60e51b815260206004820152601860248201527f43616e6e6f742062652074686520302061646472657373210000000000000000604482015260640161097c565b601780546001600160a01b0319166001600160a01b0392909216919091179055565b6007546000906001600160a01b03163314611bd95760405162461bcd60e51b815260206004820181905260248201526000805160206137cb833981519152604482015260640161097c565b504790565b60145460ff1615611c235760405162461bcd60e51b815260206004820152600f60248201526e53616c65206973207061757365642160881b604482015260640161097c565b6000611c2d611675565b90506002816002811115611c4357611c436134b0565b14611c905760405162461bcd60e51b815260206004820152601c60248201527f5075626c69632053616c6520696e206e6f74206f70656e207965742100000000604482015260640161097c565b600e54600f54611ca09190613646565b600854611cad9190613646565b82611cb760005490565b611cc1919061365d565b1115611d0f5760405162461bcd60e51b815260206004820152601e60248201527f4e6f7420656e6f756768204e465473206c65667420746f206d696e742e2e0000604482015260640161097c565b600d5433600090815260156020526040902054611d2d90849061365d565b1115611d875760405162461bcd60e51b815260206004820152602360248201527f4d6178696d756d204d696e74732070657220416464726573732065786365656460448201526265642160e81b606482015260840161097c565b81611d90611ebd565b611d9a919061368e565b341015611e0f5760405162461bcd60e51b815260206004820152603160248201527f4e6f742073756666696369656e7420457468657220746f206d696e742074686960448201527f7320616d6f756e74206f66204e46547321000000000000000000000000000000606482015260840161097c565b611e193383612737565b3360009081526015602052604081208054849290610f5790849061365d565b611e438484846127ad565b611e4f84848484612cbd565b611eb75760405162461bcd60e51b815260206004820152603360248201527f455243373231413a207472616e7366657220746f206e6f6e204552433732315260448201527232b1b2b4bb32b91034b6b83632b6b2b73a32b960691b606482015260840161097c565b50505050565b600080611ec8611675565b90506002816002811115611ede57611ede6134b0565b14611eeb575050600a5490565b5050600b5490565b6007546001600160a01b03163314611f3b5760405162461bcd60e51b815260206004820181905260248201526000805160206137cb833981519152604482015260640161097c565b6014805460ff19811660ff90911615179055565b6007546001600160a01b03163314611f975760405162461bcd60e51b815260206004820181905260248201526000805160206137cb833981519152604482015260640161097c565b805161102990601890602084019061317d565b6007546001600160a01b03163314611ff25760405162461bcd60e51b815260206004820181905260248201526000805160206137cb833981519152604482015260640161097c565b600081116120425760405162461bcd60e51b815260206004820152601460248201527f43616e6e6f7420616464203020746f6b656e7321000000000000000000000000604482015260640161097c565b8060086000828254610d20919061365d565b6060612061826000541190565b6120d35760405162461bcd60e51b815260206004820152602f60248201527f4552433732314d657461646174613a2055524920717565727920666f72206e6f60448201527f6e6578697374656e7420746f6b656e0000000000000000000000000000000000606482015260840161097c565b60135460000361216f57601880546120ea906135f6565b80601f0160208091040260200160405190810160405280929190818152602001828054612116906135f6565b80156121635780601f1061213857610100808354040283529160200191612163565b820191906000526020600020905b81548152906001019060200180831161214657829003601f168201915b50505050509050919050565b6000612179612e07565b9050600081511161219957604051806020016040528060008152506121c4565b806121a384612e16565b6040516020016121b49291906136d7565b6040516020818303038152906040525b9392505050565b8282826121da338484846111a2565b6122265760405162461bcd60e51b815260206004820152601160248201527f496e76616c6964205369676e6174757265000000000000000000000000000000604482015260640161097c565b60145460ff161561226b5760405162461bcd60e51b815260206004820152600f60248201526e53616c65206973207061757365642160881b604482015260640161097c565b6000612275611675565b9050600181600281111561228b5761228b6134b0565b146122d85760405162461bcd60e51b815260206004820152601560248201527f53616c6520696e206e6f74206f70656e20796574210000000000000000000000604482015260640161097c565b600e54600f546122e89190613646565b6008546122f59190613646565b886122ff60005490565b612309919061365d565b11156123575760405162461bcd60e51b815260206004820152601e60248201527f4e6f7420656e6f756768204e465473206c65667420746f206d696e742e2e0000604482015260640161097c565b600c5433600090815260156020526040902054612375908a9061365d565b11156123cf5760405162461bcd60e51b815260206004820152602360248201527f4d6178696d756d204d696e74732070657220416464726573732065786365656460448201526265642160e81b606482015260840161097c565b876123d8611ebd565b6123e2919061368e565b3410156124575760405162461bcd60e51b815260206004820152603060248201527f4e6f742073756666696369656e7420457468657220746f206d696e742074686960448201527f7320616d6f756e74206f66204e46547300000000000000000000000000000000606482015260840161097c565b6124613389612737565b33600090815260156020526040812080548a929061248090849061365d565b90915550505050505050505050565b6007546001600160a01b031633146124d75760405162461bcd60e51b815260206004820181905260248201526000805160206137cb833981519152604482015260640161097c565b60006124e1611675565b60028111156124f2576124f26134b0565b1461253f5760405162461bcd60e51b815260206004820152601560248201527f53616c6520697320616c7265616479204f70656e210000000000000000000000604482015260640161097c565b42601155565b6007546001600160a01b0316331461258d5760405162461bcd60e51b815260206004820181905260248201526000805160206137cb833981519152604482015260640161097c565b6001600160a01b0381166126095760405162461bcd60e51b815260206004820152602660248201527f4f776e61626c653a206e6577206f776e657220697320746865207a65726f206160448201527f6464726573730000000000000000000000000000000000000000000000000000606482015260840161097c565b61153081612c6b565b6017546040516370a0823160e01b81526001600160a01b03838116600483015260009216906370a0823190602401602060405180830381865afa15801561265d573d6000803e3d6000fd5b505050506040513d601f19601f82011682018060405250810190610a0e9190613675565b6007546001600160a01b031633146126c95760405162461bcd60e51b815260206004820181905260248201526000805160206137cb833981519152604482015260640161097c565b60016126d3611675565b60028111156126e4576126e46134b0565b146127315760405162461bcd60e51b815260206004820152601860248201527f53616c65206d75737420626520696e2050726573616c65210000000000000000604482015260640161097c565b42601255565b611029828260405180602001604052806000815250612f2f565b60008281526005602052604080822080546001600160a01b0319166001600160a01b0387811691821790925591518593918516917f8c5be1e5ebec7d5bd14f71427d1e84f3dd0314c0f7b2291e5b200ac8c7c3b92591a4505050565b60006127b882612b81565b80519091506000906001600160a01b0316336001600160a01b031614806127ef5750336127e484610aa6565b6001600160a01b0316145b8061280157508151612801903361088a565b9050806128765760405162461bcd60e51b815260206004820152603260248201527f455243373231413a207472616e736665722063616c6c6572206973206e6f742060448201527f6f776e6572206e6f7220617070726f7665640000000000000000000000000000606482015260840161097c565b846001600160a01b031682600001516001600160a01b0316146129015760405162461bcd60e51b815260206004820152602660248201527f455243373231413a207472616e736665722066726f6d20696e636f727265637460448201527f206f776e65720000000000000000000000000000000000000000000000000000606482015260840161097c565b6001600160a01b03841661297d5760405162461bcd60e51b815260206004820152602560248201527f455243373231413a207472616e7366657220746f20746865207a65726f20616460448201527f6472657373000000000000000000000000000000000000000000000000000000606482015260840161097c565b61298d6000848460000151612751565b6001600160a01b03858116600090815260046020908152604080832080546fffffffffffffffffffffffffffffffff198082166fffffffffffffffffffffffffffffffff928316600019018316179092558986168086528386208054938416938316600190810190931693909317909255888552600390935281842080546001600160e01b031916909117600160a01b4267ffffffffffffffff1602179055908601808352912054909116612a9457612a47816000541190565b15612a94578251600082815260036020908152604090912080549186015167ffffffffffffffff16600160a01b026001600160e01b03199092166001600160a01b03909316929092171790555b5082846001600160a01b0316866001600160a01b03167fddf252ad1be2c89b69c2b068fc378daa952ba7f163c4a11628f55a4df523b3ef60405160405180910390a45b5050505050565b6000826001600160a01b03168260405160006040518083038185875af1925050503d8060008114612b2b576040519150601f19603f3d011682016040523d82523d6000602084013e612b30565b606091505b5050905080610e3a5760405162461bcd60e51b815260206004820152601460248201527f4661696c656420746f2073656e64204574686572000000000000000000000000604482015260640161097c565b6040805180820190915260008082526020820152612ba0826000541190565b612c125760405162461bcd60e51b815260206004820152602a60248201527f455243373231413a206f776e657220717565727920666f72206e6f6e6578697360448201527f74656e7420746f6b656e00000000000000000000000000000000000000000000606482015260840161097c565b815b6000818152600360209081526040918290208251808401909352546001600160a01b038116808452600160a01b90910467ffffffffffffffff169183019190915215612c61579392505050565b5060001901612c14565b600780546001600160a01b038381166001600160a01b0319831681179093556040519116919082907f8be0079c531659141344cd1fd0a4f28419497f9722a3daafe3b4186f6b6457e090600090a35050565b60006001600160a01b0384163b15612dff57604051630a85bd0160e11b81526001600160a01b0385169063150b7a0290612d0190339089908890889060040161372e565b6020604051808303816000875af1925050508015612d3c575060408051601f3d908101601f19168201909252612d399181019061376a565b60015b612de5573d808015612d6a576040519150601f19603f3d011682016040523d82523d6000602084013e612d6f565b606091505b508051600003612ddd5760405162461bcd60e51b815260206004820152603360248201527f455243373231413a207472616e7366657220746f206e6f6e204552433732315260448201527232b1b2b4bb32b91034b6b83632b6b2b73a32b960691b606482015260840161097c565b805181602001fd5b6001600160e01b031916630a85bd0160e11b1490506112a6565b5060016112a6565b606060098054610a23906135f6565b606081600003612e3d5750506040805180820190915260018152600360fc1b602082015290565b8160005b8115612e675780612e5181613787565b9150612e609050600a836136c3565b9150612e41565b60008167ffffffffffffffff811115612e8257612e826133db565b6040519080825280601f01601f191660200182016040528015612eac576020820181803683370190505b5090505b84156112a657612ec1600183613646565b9150612ece600a866137a0565b612ed990603061365d565b60f81b818381518110612eee57612eee6137b4565b60200101907effffffffffffffffffffffffffffffffffffffffffffffffffffffffffffff1916908160001a905350612f28600a866136c3565b9450612eb0565b610e3a83838360016000546001600160a01b038516612f9a5760405162461bcd60e51b815260206004820152602160248201527f455243373231413a206d696e7420746f20746865207a65726f206164647265736044820152607360f81b606482015260840161097c565b836000036130105760405162461bcd60e51b815260206004820152602860248201527f455243373231413a207175616e74697479206d7573742062652067726561746560448201527f72207468616e2030000000000000000000000000000000000000000000000000606482015260840161097c565b6001600160a01b038516600081815260046020908152604080832080547001000000000000000000000000000000006fffffffffffffffffffffffffffffffff1982166fffffffffffffffffffffffffffffffff9283168c01831690811782900483168c01909216021790558483526003909152812080546001600160e01b031916909217600160a01b4267ffffffffffffffff16021790915581905b858110156131745760405182906001600160a01b038916906000907fddf252ad1be2c89b69c2b068fc378daa952ba7f163c4a11628f55a4df523b3ef908290a48315613168576131006000888488612cbd565b6131685760405162461bcd60e51b815260206004820152603360248201527f455243373231413a207472616e7366657220746f206e6f6e204552433732315260448201527232b1b2b4bb32b91034b6b83632b6b2b73a32b960691b606482015260840161097c565b600191820191016130ad565b50600055612ad7565b828054613189906135f6565b90600052602060002090601f0160209004810192826131ab57600085556131f1565b82601f106131c457805160ff19168380011785556131f1565b828001600101855582156131f1579182015b828111156131f15782518255916020019190600101906131d6565b506116719291505b8082111561167157600081556001016131f9565b80356001600160a01b038116811461142857600080fd5b60006020828403121561323657600080fd5b6121c48261320d565b6001600160e01b03198116811461153057600080fd5b60006020828403121561326757600080fd5b81356121c48161323f565b60005b8381101561328d578181015183820152602001613275565b83811115611eb75750506000910152565b600081518084526132b6816020860160208601613272565b601f01601f19169290920160200192915050565b6020815260006121c4602083018461329e565b6000602082840312156132ef57600080fd5b5035919050565b6000806040838503121561330957600080fd5b6133128361320d565b946020939093013593505050565b6000806040838503121561333357600080fd5b823591506133436020840161320d565b90509250929050565b60008060006060848603121561336157600080fd5b61336a8461320d565b92506133786020850161320d565b9150604084013590509250925092565b803560ff8116811461142857600080fd5b600080600080608085870312156133af57600080fd5b6133b88561320d565b93506133c660208601613388565b93969395505050506040820135916060013590565b634e487b7160e01b600052604160045260246000fd5b600067ffffffffffffffff8084111561340c5761340c6133db565b604051601f8501601f19908116603f01168101908282118183101715613434576134346133db565b8160405280935085815286868601111561344d57600080fd5b858560208301376000602087830101525050509392505050565b60006020828403121561347957600080fd5b813567ffffffffffffffff81111561349057600080fd5b8201601f810184136134a157600080fd5b6112a6848235602084016133f1565b634e487b7160e01b600052602160045260246000fd5b60208101600383106134e857634e487b7160e01b600052602160045260246000fd5b91905290565b6000806040838503121561350157600080fd5b61350a8361320d565b91506020830135801515811461351f57600080fd5b809150509250929050565b6000806000806080858703121561354057600080fd5b6135498561320d565b93506135576020860161320d565b925060408501359150606085013567ffffffffffffffff81111561357a57600080fd5b8501601f8101871361358b57600080fd5b61359a878235602084016133f1565b91505092959194509250565b600080600080608085870312156135bc57600080fd5b843593506133c660208601613388565b600080604083850312156135df57600080fd5b6135e88361320d565b91506133436020840161320d565b600181811c9082168061360a57607f821691505b60208210810361362a57634e487b7160e01b600052602260045260246000fd5b50919050565b634e487b7160e01b600052601160045260246000fd5b60008282101561365857613658613630565b500390565b6000821982111561367057613670613630565b500190565b60006020828403121561368757600080fd5b5051919050565b60008160001904831182151516156136a8576136a8613630565b500290565b634e487b7160e01b600052601260045260246000fd5b6000826136d2576136d26136ad565b500490565b600083516136e9818460208801613272565b8351908301906136fd818360208801613272565b7f2e6a736f6e0000000000000000000000000000000000000000000000000000009101908152600501949350505050565b60006001600160a01b03808716835280861660208401525083604083015260806060830152613760608083018461329e565b9695505050505050565b60006020828403121561377c57600080fd5b81516121c48161323f565b60006001820161379957613799613630565b5060010190565b6000826137af576137af6136ad565b500690565b634e487b7160e01b600052603260045260246000fdfe4f776e61626c653a2063616c6c6572206973206e6f7420746865206f776e6572a26469706673582212202502bd1638cd80f01059b6d9e2e5b557b3e7c8d7b94a30650f2e1b771f579efd64736f6c634300080d0033",
      "opcodes": "PUSH1 0x80 PUSH1 0x40 MSTORE PUSH7 0xD529AE9E860000 PUSH1 0xA SSTORE PUSH8 0x11C37937E080000 PUSH1 0xB SSTORE PUSH1 0x2 PUSH1 0xC SSTORE PUSH1 0x3 PUSH1 0xD SSTORE PUSH1 0xDE PUSH1 0xF SSTORE PUSH1 0x10 DUP1 SLOAD PUSH1 0x1 PUSH1 0x1 PUSH1 0xA0 SHL SUB NOT AND PUSH20 0x80E4929C869102140E69550BBECC20BED61B080C OR SWAP1 SSTORE CALLVALUE DUP1 ISZERO PUSH3 0x5D JUMPI PUSH1 0x0 DUP1 REVERT JUMPDEST POP PUSH1 0x40 DUP1 MLOAD DUP1 DUP3 ADD DUP3 MSTORE PUSH1 0xE DUP2 MSTORE PUSH14 0x45766F6C7665642043616D656C73 PUSH1 0x90 SHL PUSH1 0x20 DUP1 DUP4 ADD SWAP2 DUP3 MSTORE DUP4 MLOAD DUP1 DUP6 ADD SWAP1 SWAP5 MSTORE PUSH1 0x2 DUP5 MSTORE PUSH2 0x4543 PUSH1 0xF0 SHL SWAP1 DUP5 ADD MSTORE DUP2 MLOAD SWAP2 SWAP3 SWAP2 PUSH3 0xAE SWAP2 PUSH1 0x1 SWAP2 PUSH3 0x19E JUMP JUMPDEST POP DUP1 MLOAD PUSH3 0xC4 SWAP1 PUSH1 0x2 SWAP1 PUSH1 0x20 DUP5 ADD SWAP1 PUSH3 0x19E JUMP JUMPDEST POP POP POP PUSH3 0xE1 PUSH3 0xDB PUSH3 0x148 PUSH1 0x20 SHL PUSH1 0x20 SHR JUMP JUMPDEST PUSH3 0x14C JUMP JUMPDEST PUSH2 0x8AE PUSH1 0x8 SSTORE PUSH1 0x17 DUP1 SLOAD PUSH1 0x1 PUSH1 0x1 PUSH1 0xA0 SHL SUB NOT AND PUSH20 0x62C74E593CE3C6574F126A1A35AB55DFFDD63A6 OR SWAP1 SSTORE PUSH1 0x40 DUP1 MLOAD DUP1 DUP3 ADD SWAP1 SWAP2 MSTORE PUSH1 0xB DUP1 DUP3 MSTORE PUSH11 0x697066733A2F2F2E2E2E2F PUSH1 0xA8 SHL PUSH1 0x20 SWAP1 SWAP3 ADD SWAP2 DUP3 MSTORE PUSH3 0x141 SWAP2 PUSH1 0x18 SWAP2 PUSH3 0x19E JUMP JUMPDEST POP PUSH3 0x280 JUMP JUMPDEST CALLER SWAP1 JUMP JUMPDEST PUSH1 0x7 DUP1 SLOAD PUSH1 0x1 PUSH1 0x1 PUSH1 0xA0 SHL SUB DUP4 DUP2 AND PUSH1 0x1 PUSH1 0x1 PUSH1 0xA0 SHL SUB NOT DUP4 AND DUP2 OR SWAP1 SWAP4 SSTORE PUSH1 0x40 MLOAD SWAP2 AND SWAP2 SWAP1 DUP3 SWAP1 PUSH32 0x8BE0079C531659141344CD1FD0A4F28419497F9722A3DAAFE3B4186F6B6457E0 SWAP1 PUSH1 0x0 SWAP1 LOG3 POP POP JUMP JUMPDEST DUP3 DUP1 SLOAD PUSH3 0x1AC SWAP1 PUSH3 0x244 JUMP JUMPDEST SWAP1 PUSH1 0x0 MSTORE PUSH1 0x20 PUSH1 0x0 KECCAK256 SWAP1 PUSH1 0x1F ADD PUSH1 0x20 SWAP1 DIV DUP2 ADD SWAP3 DUP3 PUSH3 0x1D0 JUMPI PUSH1 0x0 DUP6 SSTORE PUSH3 0x21B JUMP JUMPDEST DUP3 PUSH1 0x1F LT PUSH3 0x1EB JUMPI DUP1 MLOAD PUSH1 0xFF NOT AND DUP4 DUP1 ADD OR DUP6 SSTORE PUSH3 0x21B JUMP JUMPDEST DUP3 DUP1 ADD PUSH1 0x1 ADD DUP6 SSTORE DUP3 ISZERO PUSH3 0x21B JUMPI SWAP2 DUP3 ADD JUMPDEST DUP3 DUP2 GT ISZERO PUSH3 0x21B JUMPI DUP3 MLOAD DUP3 SSTORE SWAP2 PUSH1 0x20 ADD SWAP2 SWAP1 PUSH1 0x1 ADD SWAP1 PUSH3 0x1FE JUMP JUMPDEST POP PUSH3 0x229 SWAP3 SWAP2 POP PUSH3 0x22D JUMP JUMPDEST POP SWAP1 JUMP JUMPDEST JUMPDEST DUP1 DUP3 GT ISZERO PUSH3 0x229 JUMPI PUSH1 0x0 DUP2 SSTORE PUSH1 0x1 ADD PUSH3 0x22E JUMP JUMPDEST PUSH1 0x1 DUP2 DUP2 SHR SWAP1 DUP3 AND DUP1 PUSH3 0x259 JUMPI PUSH1 0x7F DUP3 AND SWAP2 POP JUMPDEST PUSH1 0x20 DUP3 LT DUP2 SUB PUSH3 0x27A JUMPI PUSH4 0x4E487B71 PUSH1 0xE0 SHL PUSH1 0x0 MSTORE PUSH1 0x22 PUSH1 0x4 MSTORE PUSH1 0x24 PUSH1 0x0 REVERT JUMPDEST POP SWAP2 SWAP1 POP JUMP JUMPDEST PUSH2 0x3820 DUP1 PUSH3 0x290 PUSH1 0x0 CODECOPY PUSH1 0x0 RETURN INVALID PUSH1 0x80 PUSH1 0x40 MSTORE PUSH1 0x4 CALLDATASIZE LT PUSH2 0x338 JUMPI PUSH1 0x0 CALLDATALOAD PUSH1 0xE0 SHR DUP1 PUSH4 0x7035BF18 GT PUSH2 0x1B0 JUMPI DUP1 PUSH4 0xB88D4FDE GT PUSH2 0xEC JUMPI DUP1 PUSH4 0xDCD4E732 GT PUSH2 0x95 JUMPI DUP1 PUSH4 0xF2FDE38B GT PUSH2 0x6F JUMPI DUP1 PUSH4 0xF2FDE38B EQ PUSH2 0x8CD JUMPI DUP1 PUSH4 0xF8CCC3CE EQ PUSH2 0x8ED JUMPI DUP1 PUSH4 0xFF984994 EQ PUSH2 0x90D JUMPI DUP1 PUSH4 0xFFCD55A8 EQ PUSH2 0x922 JUMPI PUSH1 0x0 DUP1 REVERT JUMPDEST DUP1 PUSH4 0xDCD4E732 EQ PUSH2 0x85C JUMPI DUP1 PUSH4 0xE985E9C5 EQ PUSH2 0x86F JUMPI DUP1 PUSH4 0xEAB41782 EQ PUSH2 0x8B8 JUMPI PUSH1 0x0 DUP1 REVERT JUMPDEST DUP1 PUSH4 0xC4D8B9DF GT PUSH2 0xC6 JUMPI DUP1 PUSH4 0xC4D8B9DF EQ PUSH2 0x7FC JUMPI DUP1 PUSH4 0xC6ED8990 EQ PUSH2 0x81C JUMPI DUP1 PUSH4 0xC87B56DD EQ PUSH2 0x83C JUMPI PUSH1 0x0 DUP1 REVERT JUMPDEST DUP1 PUSH4 0xB88D4FDE EQ PUSH2 0x7B2 JUMPI DUP1 PUSH4 0xBDB4B848 EQ PUSH2 0x7D2 JUMPI DUP1 PUSH4 0xC4AE3168 EQ PUSH2 0x7E7 JUMPI PUSH1 0x0 DUP1 REVERT JUMPDEST DUP1 PUSH4 0x95D89B41 GT PUSH2 0x159 JUMPI DUP1 PUSH4 0xAF1035DE GT PUSH2 0x133 JUMPI DUP1 PUSH4 0xAF1035DE EQ PUSH2 0x752 JUMPI DUP1 PUSH4 0xB0A1C1C4 EQ PUSH2 0x772 JUMPI DUP1 PUSH4 0xB187BD26 EQ PUSH2 0x787 JUMPI DUP1 PUSH4 0xB3AB66B0 EQ PUSH2 0x79F JUMPI PUSH1 0x0 DUP1 REVERT JUMPDEST DUP1 PUSH4 0x95D89B41 EQ PUSH2 0x708 JUMPI DUP1 PUSH4 0xA22CB465 EQ PUSH2 0x71D JUMPI DUP1 PUSH4 0xA475B5DD EQ PUSH2 0x73D JUMPI PUSH1 0x0 DUP1 REVERT JUMPDEST DUP1 PUSH4 0x7C76F698 GT PUSH2 0x18A JUMPI DUP1 PUSH4 0x7C76F698 EQ PUSH2 0x6B5 JUMPI DUP1 PUSH4 0x7F1921EF EQ PUSH2 0x6CA JUMPI DUP1 PUSH4 0x8DA5CB5B EQ PUSH2 0x6EA JUMPI PUSH1 0x0 DUP1 REVERT JUMPDEST DUP1 PUSH4 0x7035BF18 EQ PUSH2 0x66B JUMPI DUP1 PUSH4 0x70A08231 EQ PUSH2 0x680 JUMPI DUP1 PUSH4 0x715018A6 EQ PUSH2 0x6A0 JUMPI PUSH1 0x0 DUP1 REVERT JUMPDEST DUP1 PUSH4 0x3023EBA6 GT PUSH2 0x27F JUMPI DUP1 PUSH4 0x4520E916 GT PUSH2 0x228 JUMPI DUP1 PUSH4 0x4F6CCCE7 GT PUSH2 0x202 JUMPI DUP1 PUSH4 0x4F6CCCE7 EQ PUSH2 0x5F3 JUMPI DUP1 PUSH4 0x5A4DD61C EQ PUSH2 0x613 JUMPI DUP1 PUSH4 0x603F4D52 EQ PUSH2 0x629 JUMPI DUP1 PUSH4 0x6352211E EQ PUSH2 0x64B JUMPI PUSH1 0x0 DUP1 REVERT JUMPDEST DUP1 PUSH4 0x4520E916 EQ PUSH2 0x5AC JUMPI DUP1 PUSH4 0x45CB2E52 EQ PUSH2 0x5C1 JUMPI DUP1 PUSH4 0x46E0D1AB EQ PUSH2 0x5DE JUMPI PUSH1 0x0 DUP1 REVERT JUMPDEST DUP1 PUSH4 0x3B478C2C GT PUSH2 0x259 JUMPI DUP1 PUSH4 0x3B478C2C EQ PUSH2 0x557 JUMPI DUP1 PUSH4 0x3CCFD60B EQ PUSH2 0x577 JUMPI DUP1 PUSH4 0x42842E0E EQ PUSH2 0x58C JUMPI PUSH1 0x0 DUP1 REVERT JUMPDEST DUP1 PUSH4 0x3023EBA6 EQ PUSH2 0x4EA JUMPI DUP1 PUSH4 0x32624114 EQ PUSH2 0x517 JUMPI DUP1 PUSH4 0x39A0C6F9 EQ PUSH2 0x537 JUMPI PUSH1 0x0 DUP1 REVERT JUMPDEST DUP1 PUSH4 0x18160DDD GT PUSH2 0x2E1 JUMPI DUP1 PUSH4 0x20C63E3B GT PUSH2 0x2BB JUMPI DUP1 PUSH4 0x20C63E3B EQ PUSH2 0x48A JUMPI DUP1 PUSH4 0x23B872DD EQ PUSH2 0x4AA JUMPI DUP1 PUSH4 0x2F745C59 EQ PUSH2 0x4CA JUMPI PUSH1 0x0 DUP1 REVERT JUMPDEST DUP1 PUSH4 0x18160DDD EQ PUSH2 0x435 JUMPI DUP1 PUSH4 0x18DF6403 EQ PUSH2 0x454 JUMPI DUP1 PUSH4 0x19734C8B EQ PUSH2 0x474 JUMPI PUSH1 0x0 DUP1 REVERT JUMPDEST DUP1 PUSH4 0x81812FC GT PUSH2 0x312 JUMPI DUP1 PUSH4 0x81812FC EQ PUSH2 0x3BD JUMPI DUP1 PUSH4 0x92CD34A EQ PUSH2 0x3F5 JUMPI DUP1 PUSH4 0x95EA7B3 EQ PUSH2 0x415 JUMPI PUSH1 0x0 DUP1 REVERT JUMPDEST DUP1 PUSH4 0x191A657 EQ PUSH2 0x344 JUMPI DUP1 PUSH4 0x1FFC9A7 EQ PUSH2 0x366 JUMPI DUP1 PUSH4 0x6FDDE03 EQ PUSH2 0x39B JUMPI PUSH1 0x0 DUP1 REVERT JUMPDEST CALLDATASIZE PUSH2 0x33F JUMPI STOP JUMPDEST PUSH1 0x0 DUP1 REVERT JUMPDEST CALLVALUE DUP1 ISZERO PUSH2 0x350 JUMPI PUSH1 0x0 DUP1 REVERT JUMPDEST POP PUSH2 0x364 PUSH2 0x35F CALLDATASIZE PUSH1 0x4 PUSH2 0x3224 JUMP JUMPDEST PUSH2 0x938 JUMP JUMPDEST STOP JUMPDEST CALLVALUE DUP1 ISZERO PUSH2 0x372 JUMPI PUSH1 0x0 DUP1 REVERT JUMPDEST POP PUSH2 0x386 PUSH2 0x381 CALLDATASIZE PUSH1 0x4 PUSH2 0x3255 JUMP JUMPDEST PUSH2 0x9A7 JUMP JUMPDEST PUSH1 0x40 MLOAD SWAP1 ISZERO ISZERO DUP2 MSTORE PUSH1 0x20 ADD JUMPDEST PUSH1 0x40 MLOAD DUP1 SWAP2 SUB SWAP1 RETURN JUMPDEST CALLVALUE DUP1 ISZERO PUSH2 0x3A7 JUMPI PUSH1 0x0 DUP1 REVERT JUMPDEST POP PUSH2 0x3B0 PUSH2 0xA14 JUMP JUMPDEST PUSH1 0x40 MLOAD PUSH2 0x392 SWAP2 SWAP1 PUSH2 0x32CA JUMP JUMPDEST CALLVALUE DUP1 ISZERO PUSH2 0x3C9 JUMPI PUSH1 0x0 DUP1 REVERT JUMPDEST POP PUSH2 0x3DD PUSH2 0x3D8 CALLDATASIZE PUSH1 0x4 PUSH2 0x32DD JUMP JUMPDEST PUSH2 0xAA6 JUMP JUMPDEST PUSH1 0x40 MLOAD PUSH1 0x1 PUSH1 0x1 PUSH1 0xA0 SHL SUB SWAP1 SWAP2 AND DUP2 MSTORE PUSH1 0x20 ADD PUSH2 0x392 JUMP JUMPDEST CALLVALUE DUP1 ISZERO PUSH2 0x401 JUMPI PUSH1 0x0 DUP1 REVERT JUMPDEST POP PUSH2 0x364 PUSH2 0x410 CALLDATASIZE PUSH1 0x4 PUSH2 0x32DD JUMP JUMPDEST PUSH2 0xB41 JUMP JUMPDEST CALLVALUE DUP1 ISZERO PUSH2 0x421 JUMPI PUSH1 0x0 DUP1 REVERT JUMPDEST POP PUSH2 0x364 PUSH2 0x430 CALLDATASIZE PUSH1 0x4 PUSH2 0x32F6 JUMP JUMPDEST PUSH2 0xD28 JUMP JUMPDEST CALLVALUE DUP1 ISZERO PUSH2 0x441 JUMPI PUSH1 0x0 DUP1 REVERT JUMPDEST POP PUSH1 0x0 SLOAD JUMPDEST PUSH1 0x40 MLOAD SWAP1 DUP2 MSTORE PUSH1 0x20 ADD PUSH2 0x392 JUMP JUMPDEST CALLVALUE DUP1 ISZERO PUSH2 0x460 JUMPI PUSH1 0x0 DUP1 REVERT JUMPDEST POP PUSH2 0x364 PUSH2 0x46F CALLDATASIZE PUSH1 0x4 PUSH2 0x3320 JUMP JUMPDEST PUSH2 0xE3F JUMP JUMPDEST CALLVALUE DUP1 ISZERO PUSH2 0x480 JUMPI PUSH1 0x0 DUP1 REVERT JUMPDEST POP PUSH2 0x446 PUSH1 0xD SLOAD DUP2 JUMP JUMPDEST CALLVALUE DUP1 ISZERO PUSH2 0x496 JUMPI PUSH1 0x0 DUP1 REVERT JUMPDEST POP PUSH2 0x364 PUSH2 0x4A5 CALLDATASIZE PUSH1 0x4 PUSH2 0x32DD JUMP JUMPDEST PUSH2 0xF60 JUMP JUMPDEST CALLVALUE DUP1 ISZERO PUSH2 0x4B6 JUMPI PUSH1 0x0 DUP1 REVERT JUMPDEST POP PUSH2 0x364 PUSH2 0x4C5 CALLDATASIZE PUSH1 0x4 PUSH2 0x334C JUMP JUMPDEST PUSH2 0x102D JUMP JUMPDEST CALLVALUE DUP1 ISZERO PUSH2 0x4D6 JUMPI PUSH1 0x0 DUP1 REVERT JUMPDEST POP PUSH2 0x446 PUSH2 0x4E5 CALLDATASIZE PUSH1 0x4 PUSH2 0x32F6 JUMP JUMPDEST PUSH2 0x1038 JUMP JUMPDEST CALLVALUE DUP1 ISZERO PUSH2 0x4F6 JUMPI PUSH1 0x0 DUP1 REVERT JUMPDEST POP PUSH2 0x446 PUSH2 0x505 CALLDATASIZE PUSH1 0x4 PUSH2 0x3224 JUMP JUMPDEST PUSH1 0x15 PUSH1 0x20 MSTORE PUSH1 0x0 SWAP1 DUP2 MSTORE PUSH1 0x40 SWAP1 KECCAK256 SLOAD DUP2 JUMP JUMPDEST CALLVALUE DUP1 ISZERO PUSH2 0x523 JUMPI PUSH1 0x0 DUP1 REVERT JUMPDEST POP PUSH2 0x386 PUSH2 0x532 CALLDATASIZE PUSH1 0x4 PUSH2 0x3399 JUMP JUMPDEST PUSH2 0x11A2 JUMP JUMPDEST CALLVALUE DUP1 ISZERO PUSH2 0x543 JUMPI PUSH1 0x0 DUP1 REVERT JUMPDEST POP PUSH2 0x364 PUSH2 0x552 CALLDATASIZE PUSH1 0x4 PUSH2 0x3467 JUMP JUMPDEST PUSH2 0x12AE JUMP JUMPDEST CALLVALUE DUP1 ISZERO PUSH2 0x563 JUMPI PUSH1 0x0 DUP1 REVERT JUMPDEST POP PUSH2 0x446 PUSH2 0x572 CALLDATASIZE PUSH1 0x4 PUSH2 0x3224 JUMP JUMPDEST PUSH2 0x1309 JUMP JUMPDEST CALLVALUE DUP1 ISZERO PUSH2 0x583 JUMPI PUSH1 0x0 DUP1 REVERT JUMPDEST POP PUSH2 0x364 PUSH2 0x142D JUMP JUMPDEST CALLVALUE DUP1 ISZERO PUSH2 0x598 JUMPI PUSH1 0x0 DUP1 REVERT JUMPDEST POP PUSH2 0x364 PUSH2 0x5A7 CALLDATASIZE PUSH1 0x4 PUSH2 0x334C JUMP JUMPDEST PUSH2 0x1533 JUMP JUMPDEST CALLVALUE DUP1 ISZERO PUSH2 0x5B8 JUMPI PUSH1 0x0 DUP1 REVERT JUMPDEST POP PUSH2 0x446 PUSH2 0x154E JUMP JUMPDEST CALLVALUE DUP1 ISZERO PUSH2 0x5CD JUMPI PUSH1 0x0 DUP1 REVERT JUMPDEST POP PUSH1 0x14 SLOAD PUSH2 0x100 SWAP1 DIV PUSH1 0xFF AND PUSH2 0x386 JUMP JUMPDEST CALLVALUE DUP1 ISZERO PUSH2 0x5EA JUMPI PUSH1 0x0 DUP1 REVERT JUMPDEST POP PUSH2 0x364 PUSH2 0x15AE JUMP JUMPDEST CALLVALUE DUP1 ISZERO PUSH2 0x5FF JUMPI PUSH1 0x0 DUP1 REVERT JUMPDEST POP PUSH2 0x446 PUSH2 0x60E CALLDATASIZE PUSH1 0x4 PUSH2 0x32DD JUMP JUMPDEST PUSH2 0x1613 JUMP JUMPDEST CALLVALUE DUP1 ISZERO PUSH2 0x61F JUMPI PUSH1 0x0 DUP1 REVERT JUMPDEST POP PUSH2 0x446 PUSH1 0x8 SLOAD DUP2 JUMP JUMPDEST CALLVALUE DUP1 ISZERO PUSH2 0x635 JUMPI PUSH1 0x0 DUP1 REVERT JUMPDEST POP PUSH2 0x63E PUSH2 0x1675 JUMP JUMPDEST PUSH1 0x40 MLOAD PUSH2 0x392 SWAP2 SWAP1 PUSH2 0x34C6 JUMP JUMPDEST CALLVALUE DUP1 ISZERO PUSH2 0x657 JUMPI PUSH1 0x0 DUP1 REVERT JUMPDEST POP PUSH2 0x3DD PUSH2 0x666 CALLDATASIZE PUSH1 0x4 PUSH2 0x32DD JUMP JUMPDEST PUSH2 0x169D JUMP JUMPDEST CALLVALUE DUP1 ISZERO PUSH2 0x677 JUMPI PUSH1 0x0 DUP1 REVERT JUMPDEST POP PUSH2 0x3B0 PUSH2 0x16AF JUMP JUMPDEST CALLVALUE DUP1 ISZERO PUSH2 0x68C JUMPI PUSH1 0x0 DUP1 REVERT JUMPDEST POP PUSH2 0x446 PUSH2 0x69B CALLDATASIZE PUSH1 0x4 PUSH2 0x3224 JUMP JUMPDEST PUSH2 0x173D JUMP JUMPDEST CALLVALUE DUP1 ISZERO PUSH2 0x6AC JUMPI PUSH1 0x0 DUP1 REVERT JUMPDEST POP PUSH2 0x364 PUSH2 0x17E9 JUMP JUMPDEST CALLVALUE DUP1 ISZERO PUSH2 0x6C1 JUMPI PUSH1 0x0 DUP1 REVERT JUMPDEST POP PUSH2 0x446 PUSH2 0x183D JUMP JUMPDEST CALLVALUE DUP1 ISZERO PUSH2 0x6D6 JUMPI PUSH1 0x0 DUP1 REVERT JUMPDEST POP PUSH2 0x364 PUSH2 0x6E5 CALLDATASIZE PUSH1 0x4 PUSH2 0x32DD JUMP JUMPDEST PUSH2 0x18BE JUMP JUMPDEST CALLVALUE DUP1 ISZERO PUSH2 0x6F6 JUMPI PUSH1 0x0 DUP1 REVERT JUMPDEST POP PUSH1 0x7 SLOAD PUSH1 0x1 PUSH1 0x1 PUSH1 0xA0 SHL SUB AND PUSH2 0x3DD JUMP JUMPDEST CALLVALUE DUP1 ISZERO PUSH2 0x714 JUMPI PUSH1 0x0 DUP1 REVERT JUMPDEST POP PUSH2 0x3B0 PUSH2 0x1937 JUMP JUMPDEST CALLVALUE DUP1 ISZERO PUSH2 0x729 JUMPI PUSH1 0x0 DUP1 REVERT JUMPDEST POP PUSH2 0x364 PUSH2 0x738 CALLDATASIZE PUSH1 0x4 PUSH2 0x34EE JUMP JUMPDEST PUSH2 0x1946 JUMP JUMPDEST CALLVALUE DUP1 ISZERO PUSH2 0x749 JUMPI PUSH1 0x0 DUP1 REVERT JUMPDEST POP PUSH2 0x364 PUSH2 0x1A0A JUMP JUMPDEST CALLVALUE DUP1 ISZERO PUSH2 0x75E JUMPI PUSH1 0x0 DUP1 REVERT JUMPDEST POP PUSH2 0x364 PUSH2 0x76D CALLDATASIZE PUSH1 0x4 PUSH2 0x3224 JUMP JUMPDEST PUSH2 0x1ACE JUMP JUMPDEST CALLVALUE DUP1 ISZERO PUSH2 0x77E JUMPI PUSH1 0x0 DUP1 REVERT JUMPDEST POP PUSH2 0x446 PUSH2 0x1B8E JUMP JUMPDEST CALLVALUE DUP1 ISZERO PUSH2 0x793 JUMPI PUSH1 0x0 DUP1 REVERT JUMPDEST POP PUSH1 0x14 SLOAD PUSH1 0xFF AND PUSH2 0x386 JUMP JUMPDEST PUSH2 0x364 PUSH2 0x7AD CALLDATASIZE PUSH1 0x4 PUSH2 0x32DD JUMP JUMPDEST PUSH2 0x1BDE JUMP JUMPDEST CALLVALUE DUP1 ISZERO PUSH2 0x7BE JUMPI PUSH1 0x0 DUP1 REVERT JUMPDEST POP PUSH2 0x364 PUSH2 0x7CD CALLDATASIZE PUSH1 0x4 PUSH2 0x352A JUMP JUMPDEST PUSH2 0x1E38 JUMP JUMPDEST CALLVALUE DUP1 ISZERO PUSH2 0x7DE JUMPI PUSH1 0x0 DUP1 REVERT JUMPDEST POP PUSH2 0x446 PUSH2 0x1EBD JUMP JUMPDEST CALLVALUE DUP1 ISZERO PUSH2 0x7F3 JUMPI PUSH1 0x0 DUP1 REVERT JUMPDEST POP PUSH2 0x364 PUSH2 0x1EF3 JUMP JUMPDEST CALLVALUE DUP1 ISZERO PUSH2 0x808 JUMPI PUSH1 0x0 DUP1 REVERT JUMPDEST POP PUSH2 0x364 PUSH2 0x817 CALLDATASIZE PUSH1 0x4 PUSH2 0x3467 JUMP JUMPDEST PUSH2 0x1F4F JUMP JUMPDEST CALLVALUE DUP1 ISZERO PUSH2 0x828 JUMPI PUSH1 0x0 DUP1 REVERT JUMPDEST POP PUSH2 0x364 PUSH2 0x837 CALLDATASIZE PUSH1 0x4 PUSH2 0x32DD JUMP JUMPDEST PUSH2 0x1FAA JUMP JUMPDEST CALLVALUE DUP1 ISZERO PUSH2 0x848 JUMPI PUSH1 0x0 DUP1 REVERT JUMPDEST POP PUSH2 0x3B0 PUSH2 0x857 CALLDATASIZE PUSH1 0x4 PUSH2 0x32DD JUMP JUMPDEST PUSH2 0x2054 JUMP JUMPDEST PUSH2 0x364 PUSH2 0x86A CALLDATASIZE PUSH1 0x4 PUSH2 0x35A6 JUMP JUMPDEST PUSH2 0x21CB JUMP JUMPDEST CALLVALUE DUP1 ISZERO PUSH2 0x87B JUMPI PUSH1 0x0 DUP1 REVERT JUMPDEST POP PUSH2 0x386 PUSH2 0x88A CALLDATASIZE PUSH1 0x4 PUSH2 0x35CC JUMP JUMPDEST PUSH1 0x1 PUSH1 0x1 PUSH1 0xA0 SHL SUB SWAP2 DUP3 AND PUSH1 0x0 SWAP1 DUP2 MSTORE PUSH1 0x6 PUSH1 0x20 SWAP1 DUP2 MSTORE PUSH1 0x40 DUP1 DUP4 KECCAK256 SWAP4 SWAP1 SWAP5 AND DUP3 MSTORE SWAP2 SWAP1 SWAP2 MSTORE KECCAK256 SLOAD PUSH1 0xFF AND SWAP1 JUMP JUMPDEST CALLVALUE DUP1 ISZERO PUSH2 0x8C4 JUMPI PUSH1 0x0 DUP1 REVERT JUMPDEST POP PUSH2 0x364 PUSH2 0x248F JUMP JUMPDEST CALLVALUE DUP1 ISZERO PUSH2 0x8D9 JUMPI PUSH1 0x0 DUP1 REVERT JUMPDEST POP PUSH2 0x364 PUSH2 0x8E8 CALLDATASIZE PUSH1 0x4 PUSH2 0x3224 JUMP JUMPDEST PUSH2 0x2545 JUMP JUMPDEST CALLVALUE DUP1 ISZERO PUSH2 0x8F9 JUMPI PUSH1 0x0 DUP1 REVERT JUMPDEST POP PUSH2 0x446 PUSH2 0x908 CALLDATASIZE PUSH1 0x4 PUSH2 0x3224 JUMP JUMPDEST PUSH2 0x2612 JUMP JUMPDEST CALLVALUE DUP1 ISZERO PUSH2 0x919 JUMPI PUSH1 0x0 DUP1 REVERT JUMPDEST POP PUSH2 0x364 PUSH2 0x2681 JUMP JUMPDEST CALLVALUE DUP1 ISZERO PUSH2 0x92E JUMPI PUSH1 0x0 DUP1 REVERT JUMPDEST POP PUSH2 0x446 PUSH1 0xC SLOAD DUP2 JUMP JUMPDEST PUSH1 0x7 SLOAD PUSH1 0x1 PUSH1 0x1 PUSH1 0xA0 SHL SUB AND CALLER EQ PUSH2 0x985 JUMPI PUSH1 0x40 MLOAD PUSH3 0x461BCD PUSH1 0xE5 SHL DUP2 MSTORE PUSH1 0x20 PUSH1 0x4 DUP3 ADD DUP2 SWAP1 MSTORE PUSH1 0x24 DUP3 ADD MSTORE PUSH1 0x0 DUP1 MLOAD PUSH1 0x20 PUSH2 0x37CB DUP4 CODECOPY DUP2 MLOAD SWAP2 MSTORE PUSH1 0x44 DUP3 ADD MSTORE PUSH1 0x64 ADD JUMPDEST PUSH1 0x40 MLOAD DUP1 SWAP2 SUB SWAP1 REVERT JUMPDEST PUSH1 0x10 DUP1 SLOAD PUSH1 0x1 PUSH1 0x1 PUSH1 0xA0 SHL SUB NOT AND PUSH1 0x1 PUSH1 0x1 PUSH1 0xA0 SHL SUB SWAP3 SWAP1 SWAP3 AND SWAP2 SWAP1 SWAP2 OR SWAP1 SSTORE JUMP JUMPDEST PUSH1 0x0 PUSH1 0x1 PUSH1 0x1 PUSH1 0xE0 SHL SUB NOT DUP3 AND PUSH4 0x80AC58CD PUSH1 0xE0 SHL EQ DUP1 PUSH2 0x9D8 JUMPI POP PUSH1 0x1 PUSH1 0x1 PUSH1 0xE0 SHL SUB NOT DUP3 AND PUSH4 0x5B5E139F PUSH1 0xE0 SHL EQ JUMPDEST DUP1 PUSH2 0x9F3 JUMPI POP PUSH1 0x1 PUSH1 0x1 PUSH1 0xE0 SHL SUB NOT DUP3 AND PUSH4 0x780E9D63 PUSH1 0xE0 SHL EQ JUMPDEST DUP1 PUSH2 0xA0E JUMPI POP PUSH4 0x1FFC9A7 PUSH1 0xE0 SHL PUSH1 0x1 PUSH1 0x1 PUSH1 0xE0 SHL SUB NOT DUP4 AND EQ JUMPDEST SWAP3 SWAP2 POP POP JUMP JUMPDEST PUSH1 0x60 PUSH1 0x1 DUP1 SLOAD PUSH2 0xA23 SWAP1 PUSH2 0x35F6 JUMP JUMPDEST DUP1 PUSH1 0x1F ADD PUSH1 0x20 DUP1 SWAP2 DIV MUL PUSH1 0x20 ADD PUSH1 0x40 MLOAD SWAP1 DUP2 ADD PUSH1 0x40 MSTORE DUP1 SWAP3 SWAP2 SWAP1 DUP2 DUP2 MSTORE PUSH1 0x20 ADD DUP3 DUP1 SLOAD PUSH2 0xA4F SWAP1 PUSH2 0x35F6 JUMP JUMPDEST DUP1 ISZERO PUSH2 0xA9C JUMPI DUP1 PUSH1 0x1F LT PUSH2 0xA71 JUMPI PUSH2 0x100 DUP1 DUP4 SLOAD DIV MUL DUP4 MSTORE SWAP2 PUSH1 0x20 ADD SWAP2 PUSH2 0xA9C JUMP JUMPDEST DUP3 ADD SWAP2 SWAP1 PUSH1 0x0 MSTORE PUSH1 0x20 PUSH1 0x0 KECCAK256 SWAP1 JUMPDEST DUP2 SLOAD DUP2 MSTORE SWAP1 PUSH1 0x1 ADD SWAP1 PUSH1 0x20 ADD DUP1 DUP4 GT PUSH2 0xA7F JUMPI DUP3 SWAP1 SUB PUSH1 0x1F AND DUP3 ADD SWAP2 JUMPDEST POP POP POP POP POP SWAP1 POP SWAP1 JUMP JUMPDEST PUSH1 0x0 PUSH2 0xAB3 DUP3 PUSH1 0x0 SLOAD GT SWAP1 JUMP JUMPDEST PUSH2 0xB25 JUMPI PUSH1 0x40 MLOAD PUSH3 0x461BCD PUSH1 0xE5 SHL DUP2 MSTORE PUSH1 0x20 PUSH1 0x4 DUP3 ADD MSTORE PUSH1 0x2D PUSH1 0x24 DUP3 ADD MSTORE PUSH32 0x455243373231413A20617070726F76656420717565727920666F72206E6F6E65 PUSH1 0x44 DUP3 ADD MSTORE PUSH32 0x78697374656E7420746F6B656E00000000000000000000000000000000000000 PUSH1 0x64 DUP3 ADD MSTORE PUSH1 0x84 ADD PUSH2 0x97C JUMP JUMPDEST POP PUSH1 0x0 SWAP1 DUP2 MSTORE PUSH1 0x5 PUSH1 0x20 MSTORE PUSH1 0x40 SWAP1 KECCAK256 SLOAD PUSH1 0x1 PUSH1 0x1 PUSH1 0xA0 SHL SUB AND SWAP1 JUMP JUMPDEST PUSH1 0x14 SLOAD PUSH2 0x100 SWAP1 DIV PUSH1 0xFF AND ISZERO PUSH2 0xB99 JUMPI PUSH1 0x40 MLOAD PUSH3 0x461BCD PUSH1 0xE5 SHL DUP2 MSTORE PUSH1 0x20 PUSH1 0x4 DUP3 ADD MSTORE PUSH1 0xF PUSH1 0x24 DUP3 ADD MSTORE PUSH32 0x53616C6520697320636C6F736564210000000000000000000000000000000000 PUSH1 0x44 DUP3 ADD MSTORE PUSH1 0x64 ADD PUSH2 0x97C JUMP JUMPDEST PUSH1 0xE SLOAD PUSH1 0xF SLOAD PUSH2 0xBA9 SWAP2 SWAP1 PUSH2 0x3646 JUMP JUMPDEST PUSH1 0x8 SLOAD PUSH2 0xBB6 SWAP2 SWAP1 PUSH2 0x3646 JUMP JUMPDEST DUP2 PUSH2 0xBC0 PUSH1 0x0 SLOAD SWAP1 JUMP JUMPDEST PUSH2 0xBCA SWAP2 SWAP1 PUSH2 0x365D JUMP JUMPDEST GT ISZERO PUSH2 0xC18 JUMPI PUSH1 0x40 MLOAD PUSH3 0x461BCD PUSH1 0xE5 SHL DUP2 MSTORE PUSH1 0x20 PUSH1 0x4 DUP3 ADD MSTORE PUSH1 0x1E PUSH1 0x24 DUP3 ADD MSTORE PUSH32 0x4E6F7420656E6F756768204E465473206C65667420746F206D696E742E2E0000 PUSH1 0x44 DUP3 ADD MSTORE PUSH1 0x64 ADD PUSH2 0x97C JUMP JUMPDEST PUSH1 0x17 SLOAD PUSH1 0x40 MLOAD PUSH4 0x70A08231 PUSH1 0xE0 SHL DUP2 MSTORE CALLER PUSH1 0x4 DUP3 ADD MSTORE PUSH1 0x1 PUSH1 0x1 PUSH1 0xA0 SHL SUB SWAP1 SWAP2 AND SWAP1 PUSH4 0x70A08231 SWAP1 PUSH1 0x24 ADD PUSH1 0x20 PUSH1 0x40 MLOAD DUP1 DUP4 SUB DUP2 DUP7 GAS STATICCALL ISZERO DUP1 ISZERO PUSH2 0xC60 JUMPI RETURNDATASIZE PUSH1 0x0 DUP1 RETURNDATACOPY RETURNDATASIZE PUSH1 0x0 REVERT JUMPDEST POP POP POP POP PUSH1 0x40 MLOAD RETURNDATASIZE PUSH1 0x1F NOT PUSH1 0x1F DUP3 ADD AND DUP3 ADD DUP1 PUSH1 0x40 MSTORE POP DUP2 ADD SWAP1 PUSH2 0xC84 SWAP2 SWAP1 PUSH2 0x3675 JUMP JUMPDEST CALLER PUSH1 0x0 SWAP1 DUP2 MSTORE PUSH1 0x16 PUSH1 0x20 MSTORE PUSH1 0x40 SWAP1 KECCAK256 SLOAD PUSH2 0xC9F SWAP1 DUP4 SWAP1 PUSH2 0x365D JUMP JUMPDEST GT ISZERO PUSH2 0xCF7 JUMPI PUSH1 0x40 MLOAD PUSH3 0x461BCD PUSH1 0xE5 SHL DUP2 MSTORE PUSH1 0x20 PUSH1 0x4 DUP3 ADD MSTORE PUSH1 0x21 PUSH1 0x24 DUP3 ADD MSTORE PUSH32 0x31204D696E7420706572204372617A792043616D656C204E4654204F776E6564 PUSH1 0x44 DUP3 ADD MSTORE PUSH1 0x21 PUSH1 0xF8 SHL PUSH1 0x64 DUP3 ADD MSTORE PUSH1 0x84 ADD PUSH2 0x97C JUMP JUMPDEST PUSH2 0xD01 CALLER DUP3 PUSH2 0x2737 JUMP JUMPDEST CALLER PUSH1 0x0 SWAP1 DUP2 MSTORE PUSH1 0x16 PUSH1 0x20 MSTORE PUSH1 0x40 DUP2 KECCAK256 DUP1 SLOAD DUP4 SWAP3 SWAP1 PUSH2 0xD20 SWAP1 DUP5 SWAP1 PUSH2 0x365D JUMP JUMPDEST SWAP1 SWAP2 SSTORE POP POP POP JUMP JUMPDEST PUSH1 0x0 PUSH2 0xD33 DUP3 PUSH2 0x169D JUMP JUMPDEST SWAP1 POP DUP1 PUSH1 0x1 PUSH1 0x1 PUSH1 0xA0 SHL SUB AND DUP4 PUSH1 0x1 PUSH1 0x1 PUSH1 0xA0 SHL SUB AND SUB PUSH2 0xDA1 JUMPI PUSH1 0x40 MLOAD PUSH3 0x461BCD PUSH1 0xE5 SHL DUP2 MSTORE PUSH1 0x20 PUSH1 0x4 DUP3 ADD MSTORE PUSH1 0x22 PUSH1 0x24 DUP3 ADD MSTORE PUSH32 0x455243373231413A20617070726F76616C20746F2063757272656E74206F776E PUSH1 0x44 DUP3 ADD MSTORE PUSH2 0x32B9 PUSH1 0xF1 SHL PUSH1 0x64 DUP3 ADD MSTORE PUSH1 0x84 ADD PUSH2 0x97C JUMP JUMPDEST CALLER PUSH1 0x1 PUSH1 0x1 PUSH1 0xA0 SHL SUB DUP3 AND EQ DUP1 PUSH2 0xDBD JUMPI POP PUSH2 0xDBD DUP2 CALLER PUSH2 0x88A JUMP JUMPDEST PUSH2 0xE2F JUMPI PUSH1 0x40 MLOAD PUSH3 0x461BCD PUSH1 0xE5 SHL DUP2 MSTORE PUSH1 0x20 PUSH1 0x4 DUP3 ADD MSTORE PUSH1 0x39 PUSH1 0x24 DUP3 ADD MSTORE PUSH32 0x455243373231413A20617070726F76652063616C6C6572206973206E6F74206F PUSH1 0x44 DUP3 ADD MSTORE PUSH32 0x776E6572206E6F7220617070726F76656420666F7220616C6C00000000000000 PUSH1 0x64 DUP3 ADD MSTORE PUSH1 0x84 ADD PUSH2 0x97C JUMP JUMPDEST PUSH2 0xE3A DUP4 DUP4 DUP4 PUSH2 0x2751 JUMP JUMPDEST POP POP POP JUMP JUMPDEST PUSH1 0x7 SLOAD PUSH1 0x1 PUSH1 0x1 PUSH1 0xA0 SHL SUB AND CALLER EQ PUSH2 0xE87 JUMPI PUSH1 0x40 MLOAD PUSH3 0x461BCD PUSH1 0xE5 SHL DUP2 MSTORE PUSH1 0x20 PUSH1 0x4 DUP3 ADD DUP2 SWAP1 MSTORE PUSH1 0x24 DUP3 ADD MSTORE PUSH1 0x0 DUP1 MLOAD PUSH1 0x20 PUSH2 0x37CB DUP4 CODECOPY DUP2 MLOAD SWAP2 MSTORE PUSH1 0x44 DUP3 ADD MSTORE PUSH1 0x64 ADD PUSH2 0x97C JUMP JUMPDEST PUSH1 0xF SLOAD DUP3 PUSH1 0xE SLOAD PUSH2 0xE98 SWAP2 SWAP1 PUSH2 0x365D JUMP JUMPDEST GT ISZERO PUSH2 0xF0C JUMPI PUSH1 0x40 MLOAD PUSH3 0x461BCD PUSH1 0xE5 SHL DUP2 MSTORE PUSH1 0x20 PUSH1 0x4 DUP3 ADD MSTORE PUSH1 0x27 PUSH1 0x24 DUP3 ADD MSTORE PUSH32 0x4E6F7420656E6F756768205265736572766564204E465473206C65667420746F PUSH1 0x44 DUP3 ADD MSTORE PUSH32 0x206D696E742E2E00000000000000000000000000000000000000000000000000 PUSH1 0x64 DUP3 ADD MSTORE PUSH1 0x84 ADD PUSH2 0x97C JUMP JUMPDEST PUSH2 0xF16 DUP2 DUP4 PUSH2 0x2737 JUMP JUMPDEST PUSH1 0x1 PUSH1 0x1 PUSH1 0xA0 SHL SUB DUP2 AND PUSH1 0x0 SWAP1 DUP2 MSTORE PUSH1 0x15 PUSH1 0x20 MSTORE PUSH1 0x40 DUP2 KECCAK256 DUP1 SLOAD DUP5 SWAP3 SWAP1 PUSH2 0xF3E SWAP1 DUP5 SWAP1 PUSH2 0x365D JUMP JUMPDEST SWAP3 POP POP DUP2 SWAP1 SSTORE POP DUP2 PUSH1 0xE PUSH1 0x0 DUP3 DUP3 SLOAD PUSH2 0xF57 SWAP2 SWAP1 PUSH2 0x365D JUMP JUMPDEST SWAP1 SWAP2 SSTORE POP POP POP POP JUMP JUMPDEST PUSH1 0x7 SLOAD PUSH1 0x1 PUSH1 0x1 PUSH1 0xA0 SHL SUB AND CALLER EQ PUSH2 0xFA8 JUMPI PUSH1 0x40 MLOAD PUSH3 0x461BCD PUSH1 0xE5 SHL DUP2 MSTORE PUSH1 0x20 PUSH1 0x4 DUP3 ADD DUP2 SWAP1 MSTORE PUSH1 0x24 DUP3 ADD MSTORE PUSH1 0x0 DUP1 MLOAD PUSH1 0x20 PUSH2 0x37CB DUP4 CODECOPY DUP2 MLOAD SWAP2 MSTORE PUSH1 0x44 DUP3 ADD MSTORE PUSH1 0x64 ADD PUSH2 0x97C JUMP JUMPDEST PUSH1 0x0 DUP2 GT PUSH2 0xFF8 JUMPI PUSH1 0x40 MLOAD PUSH3 0x461BCD PUSH1 0xE5 SHL DUP2 MSTORE PUSH1 0x20 PUSH1 0x4 DUP3 ADD MSTORE PUSH1 0x15 PUSH1 0x24 DUP3 ADD MSTORE PUSH32 0x4D6178204D696E742063616E6E6F742062652030210000000000000000000000 PUSH1 0x44 DUP3 ADD MSTORE PUSH1 0x64 ADD PUSH2 0x97C JUMP JUMPDEST PUSH1 0x0 PUSH2 0x1002 PUSH2 0x1675 JUMP JUMPDEST SWAP1 POP PUSH1 0x2 DUP2 PUSH1 0x2 DUP2 GT ISZERO PUSH2 0x1018 JUMPI PUSH2 0x1018 PUSH2 0x34B0 JUMP JUMPDEST EQ PUSH2 0x1023 JUMPI POP PUSH1 0xC SSTORE JUMP JUMPDEST PUSH1 0xD DUP3 SWAP1 SSTORE JUMPDEST POP POP JUMP JUMPDEST PUSH2 0xE3A DUP4 DUP4 DUP4 PUSH2 0x27AD JUMP JUMPDEST PUSH1 0x0 PUSH2 0x1043 DUP4 PUSH2 0x173D JUMP JUMPDEST DUP3 LT PUSH2 0x109C JUMPI PUSH1 0x40 MLOAD PUSH3 0x461BCD PUSH1 0xE5 SHL DUP2 MSTORE PUSH1 0x20 PUSH1 0x4 DUP3 ADD MSTORE PUSH1 0x22 PUSH1 0x24 DUP3 ADD MSTORE PUSH32 0x455243373231413A206F776E657220696E646578206F7574206F6620626F756E PUSH1 0x44 DUP3 ADD MSTORE PUSH2 0x6473 PUSH1 0xF0 SHL PUSH1 0x64 DUP3 ADD MSTORE PUSH1 0x84 ADD PUSH2 0x97C JUMP JUMPDEST PUSH1 0x0 DUP1 SLOAD SWAP1 DUP1 DUP1 JUMPDEST DUP4 DUP2 LT ISZERO PUSH2 0x1133 JUMPI PUSH1 0x0 DUP2 DUP2 MSTORE PUSH1 0x3 PUSH1 0x20 SWAP1 DUP2 MSTORE PUSH1 0x40 SWAP2 DUP3 SWAP1 KECCAK256 DUP3 MLOAD DUP1 DUP5 ADD SWAP1 SWAP4 MSTORE SLOAD PUSH1 0x1 PUSH1 0x1 PUSH1 0xA0 SHL SUB DUP2 AND DUP1 DUP5 MSTORE PUSH1 0x1 PUSH1 0xA0 SHL SWAP1 SWAP2 DIV PUSH8 0xFFFFFFFFFFFFFFFF AND SWAP2 DUP4 ADD SWAP2 SWAP1 SWAP2 MSTORE ISZERO PUSH2 0x10F7 JUMPI DUP1 MLOAD SWAP3 POP JUMPDEST DUP8 PUSH1 0x1 PUSH1 0x1 PUSH1 0xA0 SHL SUB AND DUP4 PUSH1 0x1 PUSH1 0x1 PUSH1 0xA0 SHL SUB AND SUB PUSH2 0x112A JUMPI DUP7 DUP5 SUB PUSH2 0x1123 JUMPI POP SWAP4 POP PUSH2 0xA0E SWAP3 POP POP POP JUMP JUMPDEST PUSH1 0x1 SWAP1 SWAP4 ADD SWAP3 JUMPDEST POP PUSH1 0x1 ADD PUSH2 0x10A4 JUMP JUMPDEST POP PUSH1 0x40 MLOAD PUSH3 0x461BCD PUSH1 0xE5 SHL DUP2 MSTORE PUSH1 0x20 PUSH1 0x4 DUP3 ADD MSTORE PUSH1 0x2E PUSH1 0x24 DUP3 ADD MSTORE PUSH32 0x455243373231413A20756E61626C6520746F2067657420746F6B656E206F6620 PUSH1 0x44 DUP3 ADD MSTORE PUSH32 0x6F776E657220627920696E646578000000000000000000000000000000000000 PUSH1 0x64 DUP3 ADD MSTORE PUSH1 0x84 ADD PUSH2 0x97C JUMP JUMPDEST PUSH1 0x40 MLOAD PUSH12 0xFFFFFFFFFFFFFFFFFFFFFFFF NOT ADDRESS PUSH1 0x60 SWAP1 DUP2 SHL DUP3 AND PUSH1 0x20 DUP5 ADD MSTORE DUP7 SWAP1 SHL AND PUSH1 0x34 DUP3 ADD MSTORE PUSH1 0x0 SWAP1 DUP2 SWAP1 PUSH1 0x48 ADD PUSH1 0x40 MLOAD PUSH1 0x20 DUP2 DUP4 SUB SUB DUP2 MSTORE SWAP1 PUSH1 0x40 MSTORE DUP1 MLOAD SWAP1 PUSH1 0x20 ADD KECCAK256 SWAP1 POP PUSH1 0x1 DUP2 PUSH1 0x40 MLOAD PUSH1 0x20 ADD PUSH2 0x1228 SWAP2 SWAP1 PUSH32 0x19457468657265756D205369676E6564204D6573736167653A0A333200000000 DUP2 MSTORE PUSH1 0x1C DUP2 ADD SWAP2 SWAP1 SWAP2 MSTORE PUSH1 0x3C ADD SWAP1 JUMP JUMPDEST PUSH1 0x40 DUP1 MLOAD PUSH1 0x1F NOT DUP2 DUP5 SUB ADD DUP2 MSTORE DUP3 DUP3 MSTORE DUP1 MLOAD PUSH1 0x20 SWAP2 DUP3 ADD KECCAK256 PUSH1 0x0 DUP5 MSTORE SWAP1 DUP4 ADD DUP1 DUP4 MSTORE MSTORE PUSH1 0xFF DUP9 AND SWAP1 DUP3 ADD MSTORE PUSH1 0x60 DUP2 ADD DUP7 SWAP1 MSTORE PUSH1 0x80 DUP2 ADD DUP6 SWAP1 MSTORE PUSH1 0xA0 ADD PUSH1 0x20 PUSH1 0x40 MLOAD PUSH1 0x20 DUP2 SUB SWAP1 DUP1 DUP5 SUB SWAP1 DUP6 GAS STATICCALL ISZERO DUP1 ISZERO PUSH2 0x1286 JUMPI RETURNDATASIZE PUSH1 0x0 DUP1 RETURNDATACOPY RETURNDATASIZE PUSH1 0x0 REVERT JUMPDEST POP POP PUSH1 0x40 MLOAD PUSH1 0x1F NOT ADD MLOAD PUSH1 0x10 SLOAD PUSH1 0x1 PUSH1 0x1 PUSH1 0xA0 SHL SUB SWAP1 DUP2 AND SWAP2 AND EQ SWAP3 POP POP POP JUMPDEST SWAP5 SWAP4 POP POP POP POP JUMP JUMPDEST PUSH1 0x7 SLOAD PUSH1 0x1 PUSH1 0x1 PUSH1 0xA0 SHL SUB AND CALLER EQ PUSH2 0x12F6 JUMPI PUSH1 0x40 MLOAD PUSH3 0x461BCD PUSH1 0xE5 SHL DUP2 MSTORE PUSH1 0x20 PUSH1 0x4 DUP3 ADD DUP2 SWAP1 MSTORE PUSH1 0x24 DUP3 ADD MSTORE PUSH1 0x0 DUP1 MLOAD PUSH1 0x20 PUSH2 0x37CB DUP4 CODECOPY DUP2 MLOAD SWAP2 MSTORE PUSH1 0x44 DUP3 ADD MSTORE PUSH1 0x64 ADD PUSH2 0x97C JUMP JUMPDEST DUP1 MLOAD PUSH2 0x1029 SWAP1 PUSH1 0x9 SWAP1 PUSH1 0x20 DUP5 ADD SWAP1 PUSH2 0x317D JUMP JUMPDEST PUSH1 0x17 SLOAD PUSH1 0x40 MLOAD PUSH4 0x70A08231 PUSH1 0xE0 SHL DUP2 MSTORE PUSH1 0x1 PUSH1 0x1 PUSH1 0xA0 SHL SUB DUP4 DUP2 AND PUSH1 0x4 DUP4 ADD MSTORE PUSH1 0x0 SWAP3 AND SWAP1 PUSH4 0x70A08231 SWAP1 PUSH1 0x24 ADD PUSH1 0x20 PUSH1 0x40 MLOAD DUP1 DUP4 SUB DUP2 DUP7 GAS STATICCALL ISZERO DUP1 ISZERO PUSH2 0x1354 JUMPI RETURNDATASIZE PUSH1 0x0 DUP1 RETURNDATACOPY RETURNDATASIZE PUSH1 0x0 REVERT JUMPDEST POP POP POP POP PUSH1 0x40 MLOAD RETURNDATASIZE PUSH1 0x1F NOT PUSH1 0x1F DUP3 ADD AND DUP3 ADD DUP1 PUSH1 0x40 MSTORE POP DUP2 ADD SWAP1 PUSH2 0x1378 SWAP2 SWAP1 PUSH2 0x3675 JUMP JUMPDEST PUSH1 0x1 PUSH1 0x1 PUSH1 0xA0 SHL SUB DUP4 AND PUSH1 0x0 SWAP1 DUP2 MSTORE PUSH1 0x16 PUSH1 0x20 MSTORE PUSH1 0x40 SWAP1 KECCAK256 SLOAD LT PUSH2 0x139E JUMPI POP PUSH1 0x0 SWAP2 SWAP1 POP JUMP JUMPDEST PUSH1 0x1 PUSH1 0x1 PUSH1 0xA0 SHL SUB DUP3 DUP2 AND PUSH1 0x0 DUP2 DUP2 MSTORE PUSH1 0x16 PUSH1 0x20 MSTORE PUSH1 0x40 SWAP1 DUP2 SWAP1 KECCAK256 SLOAD PUSH1 0x17 SLOAD SWAP2 MLOAD PUSH4 0x70A08231 PUSH1 0xE0 SHL DUP2 MSTORE PUSH1 0x4 DUP2 ADD SWAP4 SWAP1 SWAP4 MSTORE SWAP3 AND SWAP1 PUSH4 0x70A08231 SWAP1 PUSH1 0x24 ADD PUSH1 0x20 PUSH1 0x40 MLOAD DUP1 DUP4 SUB DUP2 DUP7 GAS STATICCALL ISZERO DUP1 ISZERO PUSH2 0x13FA JUMPI RETURNDATASIZE PUSH1 0x0 DUP1 RETURNDATACOPY RETURNDATASIZE PUSH1 0x0 REVERT JUMPDEST POP POP POP POP PUSH1 0x40 MLOAD RETURNDATASIZE PUSH1 0x1F NOT PUSH1 0x1F DUP3 ADD AND DUP3 ADD DUP1 PUSH1 0x40 MSTORE POP DUP2 ADD SWAP1 PUSH2 0x141E SWAP2 SWAP1 PUSH2 0x3675 JUMP JUMPDEST PUSH2 0xA0E SWAP2 SWAP1 PUSH2 0x3646 JUMP JUMPDEST SWAP2 SWAP1 POP JUMP JUMPDEST PUSH1 0x7 SLOAD PUSH1 0x1 PUSH1 0x1 PUSH1 0xA0 SHL SUB AND CALLER EQ PUSH2 0x1475 JUMPI PUSH1 0x40 MLOAD PUSH3 0x461BCD PUSH1 0xE5 SHL DUP2 MSTORE PUSH1 0x20 PUSH1 0x4 DUP3 ADD DUP2 SWAP1 MSTORE PUSH1 0x24 DUP3 ADD MSTORE PUSH1 0x0 DUP1 MLOAD PUSH1 0x20 PUSH2 0x37CB DUP4 CODECOPY DUP2 MLOAD SWAP2 MSTORE PUSH1 0x44 DUP3 ADD MSTORE PUSH1 0x64 ADD PUSH2 0x97C JUMP JUMPDEST PUSH1 0x0 PUSH2 0x147F PUSH2 0x1B8E JUMP JUMPDEST SWAP1 POP PUSH1 0x0 DUP2 GT PUSH2 0x14DC JUMPI PUSH1 0x40 MLOAD PUSH3 0x461BCD PUSH1 0xE5 SHL DUP2 MSTORE PUSH1 0x20 PUSH1 0x4 DUP3 ADD MSTORE PUSH1 0x22 PUSH1 0x24 DUP3 ADD MSTORE PUSH32 0x4E6F2046756E647320746F2077697468647261772C2042616C616E6365206973 PUSH1 0x44 DUP3 ADD MSTORE PUSH2 0x203 PUSH1 0xF4 SHL PUSH1 0x64 DUP3 ADD MSTORE PUSH1 0x84 ADD PUSH2 0x97C JUMP JUMPDEST PUSH2 0x1510 PUSH20 0x256390D941187F536DD56BA224E779786C6265A0 PUSH1 0x64 PUSH2 0x1501 DUP5 PUSH1 0x42 PUSH2 0x368E JUMP JUMPDEST PUSH2 0x150B SWAP2 SWAP1 PUSH2 0x36C3 JUMP JUMPDEST PUSH2 0x2ADE JUMP JUMPDEST PUSH2 0x1530 PUSH20 0xF22305AD50E7B36A81EF08D0995EF3F3788B20F0 PUSH2 0x150B PUSH2 0x1B8E JUMP JUMPDEST POP JUMP JUMPDEST PUSH2 0xE3A DUP4 DUP4 DUP4 PUSH1 0x40 MLOAD DUP1 PUSH1 0x20 ADD PUSH1 0x40 MSTORE DUP1 PUSH1 0x0 DUP2 MSTORE POP PUSH2 0x1E38 JUMP JUMPDEST PUSH1 0x7 SLOAD PUSH1 0x0 SWAP1 PUSH1 0x1 PUSH1 0x1 PUSH1 0xA0 SHL SUB AND CALLER EQ PUSH2 0x1599 JUMPI PUSH1 0x40 MLOAD PUSH3 0x461BCD PUSH1 0xE5 SHL DUP2 MSTORE PUSH1 0x20 PUSH1 0x4 DUP3 ADD DUP2 SWAP1 MSTORE PUSH1 0x24 DUP3 ADD MSTORE PUSH1 0x0 DUP1 MLOAD PUSH1 0x20 PUSH2 0x37CB DUP4 CODECOPY DUP2 MLOAD SWAP2 MSTORE PUSH1 0x44 DUP3 ADD MSTORE PUSH1 0x64 ADD PUSH2 0x97C JUMP JUMPDEST PUSH1 0xE SLOAD PUSH1 0xF SLOAD PUSH2 0x15A9 SWAP2 SWAP1 PUSH2 0x3646 JUMP JUMPDEST SWAP1 POP SWAP1 JUMP JUMPDEST PUSH1 0x7 SLOAD PUSH1 0x1 PUSH1 0x1 PUSH1 0xA0 SHL SUB AND CALLER EQ PUSH2 0x15F6 JUMPI PUSH1 0x40 MLOAD PUSH3 0x461BCD PUSH1 0xE5 SHL DUP2 MSTORE PUSH1 0x20 PUSH1 0x4 DUP3 ADD DUP2 SWAP1 MSTORE PUSH1 0x24 DUP3 ADD MSTORE PUSH1 0x0 DUP1 MLOAD PUSH1 0x20 PUSH2 0x37CB DUP4 CODECOPY DUP2 MLOAD SWAP2 MSTORE PUSH1 0x44 DUP3 ADD MSTORE PUSH1 0x64 ADD PUSH2 0x97C JUMP JUMPDEST PUSH1 0x14 DUP1 SLOAD PUSH2 0xFF00 NOT DUP2 AND PUSH2 0x100 SWAP2 DUP3 SWAP1 DIV PUSH1 0xFF AND ISZERO SWAP1 SWAP2 MUL OR SWAP1 SSTORE JUMP JUMPDEST PUSH1 0x0 DUP1 SLOAD DUP3 LT PUSH2 0x1671 JUMPI PUSH1 0x40 MLOAD PUSH3 0x461BCD PUSH1 0xE5 SHL DUP2 MSTORE PUSH1 0x20 PUSH1 0x4 DUP3 ADD MSTORE PUSH1 0x23 PUSH1 0x24 DUP3 ADD MSTORE PUSH32 0x455243373231413A20676C6F62616C20696E646578206F7574206F6620626F75 PUSH1 0x44 DUP3 ADD MSTORE PUSH3 0x6E6473 PUSH1 0xE8 SHL PUSH1 0x64 DUP3 ADD MSTORE PUSH1 0x84 ADD PUSH2 0x97C JUMP JUMPDEST POP SWAP1 JUMP JUMPDEST PUSH1 0x0 PUSH1 0x11 SLOAD PUSH1 0x0 SUB PUSH2 0x1687 JUMPI POP PUSH1 0x0 SWAP1 JUMP JUMPDEST PUSH1 0x12 SLOAD PUSH1 0x0 SUB PUSH2 0x1697 JUMPI POP PUSH1 0x1 SWAP1 JUMP JUMPDEST POP PUSH1 0x2 SWAP1 JUMP JUMPDEST PUSH1 0x0 PUSH2 0x16A8 DUP3 PUSH2 0x2B81 JUMP JUMPDEST MLOAD SWAP3 SWAP2 POP POP JUMP JUMPDEST PUSH1 0x18 DUP1 SLOAD PUSH2 0x16BC SWAP1 PUSH2 0x35F6 JUMP JUMPDEST DUP1 PUSH1 0x1F ADD PUSH1 0x20 DUP1 SWAP2 DIV MUL PUSH1 0x20 ADD PUSH1 0x40 MLOAD SWAP1 DUP2 ADD PUSH1 0x40 MSTORE DUP1 SWAP3 SWAP2 SWAP1 DUP2 DUP2 MSTORE PUSH1 0x20 ADD DUP3 DUP1 SLOAD PUSH2 0x16E8 SWAP1 PUSH2 0x35F6 JUMP JUMPDEST DUP1 ISZERO PUSH2 0x1735 JUMPI DUP1 PUSH1 0x1F LT PUSH2 0x170A JUMPI PUSH2 0x100 DUP1 DUP4 SLOAD DIV MUL DUP4 MSTORE SWAP2 PUSH1 0x20 ADD SWAP2 PUSH2 0x1735 JUMP JUMPDEST DUP3 ADD SWAP2 SWAP1 PUSH1 0x0 MSTORE PUSH1 0x20 PUSH1 0x0 KECCAK256 SWAP1 JUMPDEST DUP2 SLOAD DUP2 MSTORE SWAP1 PUSH1 0x1 ADD SWAP1 PUSH1 0x20 ADD DUP1 DUP4 GT PUSH2 0x1718 JUMPI DUP3 SWAP1 SUB PUSH1 0x1F AND DUP3 ADD SWAP2 JUMPDEST POP POP POP POP POP DUP2 JUMP JUMPDEST PUSH1 0x0 PUSH1 0x1 PUSH1 0x1 PUSH1 0xA0 SHL SUB DUP3 AND PUSH2 0x17BB JUMPI PUSH1 0x40 MLOAD PUSH3 0x461BCD PUSH1 0xE5 SHL DUP2 MSTORE PUSH1 0x20 PUSH1 0x4 DUP3 ADD MSTORE PUSH1 0x2B PUSH1 0x24 DUP3 ADD MSTORE PUSH32 0x455243373231413A2062616C616E636520717565727920666F7220746865207A PUSH1 0x44 DUP3 ADD MSTORE PUSH32 0x65726F2061646472657373000000000000000000000000000000000000000000 PUSH1 0x64 DUP3 ADD MSTORE PUSH1 0x84 ADD PUSH2 0x97C JUMP JUMPDEST POP PUSH1 0x1 PUSH1 0x1 PUSH1 0xA0 SHL SUB AND PUSH1 0x0 SWAP1 DUP2 MSTORE PUSH1 0x4 PUSH1 0x20 MSTORE PUSH1 0x40 SWAP1 KECCAK256 SLOAD PUSH16 0xFFFFFFFFFFFFFFFFFFFFFFFFFFFFFFFF AND SWAP1 JUMP JUMPDEST PUSH1 0x7 SLOAD PUSH1 0x1 PUSH1 0x1 PUSH1 0xA0 SHL SUB AND CALLER EQ PUSH2 0x1831 JUMPI PUSH1 0x40 MLOAD PUSH3 0x461BCD PUSH1 0xE5 SHL DUP2 MSTORE PUSH1 0x20 PUSH1 0x4 DUP3 ADD DUP2 SWAP1 MSTORE PUSH1 0x24 DUP3 ADD MSTORE PUSH1 0x0 DUP1 MLOAD PUSH1 0x20 PUSH2 0x37CB DUP4 CODECOPY DUP2 MLOAD SWAP2 MSTORE PUSH1 0x44 DUP3 ADD MSTORE PUSH1 0x64 ADD PUSH2 0x97C JUMP JUMPDEST PUSH2 0x183B PUSH1 0x0 PUSH2 0x2C6B JUMP JUMPDEST JUMP JUMPDEST PUSH1 0x0 PUSH1 0x13 SLOAD PUSH1 0x0 SUB PUSH2 0x18B7 JUMPI PUSH1 0x40 MLOAD PUSH3 0x461BCD PUSH1 0xE5 SHL DUP2 MSTORE PUSH1 0x20 PUSH1 0x4 DUP3 ADD MSTORE PUSH1 0x2C PUSH1 0x24 DUP3 ADD MSTORE PUSH32 0x4E46542052657665616C2054696D6520686173206E6F74206265656E20646574 PUSH1 0x44 DUP3 ADD MSTORE PUSH32 0x65726D696E656420796574210000000000000000000000000000000000000000 PUSH1 0x64 DUP3 ADD MSTORE PUSH1 0x84 ADD PUSH2 0x97C JUMP JUMPDEST POP PUSH1 0x13 SLOAD SWAP1 JUMP JUMPDEST PUSH1 0x7 SLOAD PUSH1 0x1 PUSH1 0x1 PUSH1 0xA0 SHL SUB AND CALLER EQ PUSH2 0x1906 JUMPI PUSH1 0x40 MLOAD PUSH3 0x461BCD PUSH1 0xE5 SHL DUP2 MSTORE PUSH1 0x20 PUSH1 0x4 DUP3 ADD DUP2 SWAP1 MSTORE PUSH1 0x24 DUP3 ADD MSTORE PUSH1 0x0 DUP1 MLOAD PUSH1 0x20 PUSH2 0x37CB DUP4 CODECOPY DUP2 MLOAD SWAP2 MSTORE PUSH1 0x44 DUP3 ADD MSTORE PUSH1 0x64 ADD PUSH2 0x97C JUMP JUMPDEST PUSH1 0x0 PUSH2 0x1910 PUSH2 0x1675 JUMP JUMPDEST SWAP1 POP PUSH1 0x2 DUP2 PUSH1 0x2 DUP2 GT ISZERO PUSH2 0x1926 JUMPI PUSH2 0x1926 PUSH2 0x34B0 JUMP JUMPDEST EQ PUSH2 0x1931 JUMPI POP PUSH1 0xA SSTORE JUMP JUMPDEST POP PUSH1 0xB SSTORE JUMP JUMPDEST PUSH1 0x60 PUSH1 0x2 DUP1 SLOAD PUSH2 0xA23 SWAP1 PUSH2 0x35F6 JUMP JUMPDEST CALLER PUSH1 0x1 PUSH1 0x1 PUSH1 0xA0 SHL SUB DUP4 AND SUB PUSH2 0x199E JUMPI PUSH1 0x40 MLOAD PUSH3 0x461BCD PUSH1 0xE5 SHL DUP2 MSTORE PUSH1 0x20 PUSH1 0x4 DUP3 ADD MSTORE PUSH1 0x1A PUSH1 0x24 DUP3 ADD MSTORE PUSH32 0x455243373231413A20617070726F766520746F2063616C6C6572000000000000 PUSH1 0x44 DUP3 ADD MSTORE PUSH1 0x64 ADD PUSH2 0x97C JUMP JUMPDEST CALLER PUSH1 0x0 DUP2 DUP2 MSTORE PUSH1 0x6 PUSH1 0x20 SWAP1 DUP2 MSTORE PUSH1 0x40 DUP1 DUP4 KECCAK256 PUSH1 0x1 PUSH1 0x1 PUSH1 0xA0 SHL SUB DUP8 AND DUP1 DUP6 MSTORE SWAP1 DUP4 MSTORE SWAP3 DUP2 SWAP1 KECCAK256 DUP1 SLOAD PUSH1 0xFF NOT AND DUP7 ISZERO ISZERO SWAP1 DUP2 OR SWAP1 SWAP2 SSTORE SWAP1 MLOAD SWAP1 DUP2 MSTORE SWAP2 SWAP3 SWAP2 PUSH32 0x17307EAB39AB6107E8899845AD3D59BD9653F200F220920489CA2B5937696C31 SWAP2 ADD PUSH1 0x40 MLOAD DUP1 SWAP2 SUB SWAP1 LOG3 POP POP JUMP JUMPDEST PUSH1 0x7 SLOAD PUSH1 0x1 PUSH1 0x1 PUSH1 0xA0 SHL SUB AND CALLER EQ PUSH2 0x1A52 JUMPI PUSH1 0x40 MLOAD PUSH3 0x461BCD PUSH1 0xE5 SHL DUP2 MSTORE PUSH1 0x20 PUSH1 0x4 DUP3 ADD DUP2 SWAP1 MSTORE PUSH1 0x24 DUP3 ADD MSTORE PUSH1 0x0 DUP1 MLOAD PUSH1 0x20 PUSH2 0x37CB DUP4 CODECOPY DUP2 MLOAD SWAP2 MSTORE PUSH1 0x44 DUP3 ADD MSTORE PUSH1 0x64 ADD PUSH2 0x97C JUMP JUMPDEST PUSH1 0x13 SLOAD ISZERO PUSH2 0x1AC8 JUMPI PUSH1 0x40 MLOAD PUSH3 0x461BCD PUSH1 0xE5 SHL DUP2 MSTORE PUSH1 0x20 PUSH1 0x4 DUP3 ADD MSTORE PUSH1 0x25 PUSH1 0x24 DUP3 ADD MSTORE PUSH32 0x436F6C6C656374696F6E2068617320616C7265616479206265656E2072657665 PUSH1 0x44 DUP3 ADD MSTORE PUSH32 0x616C656421000000000000000000000000000000000000000000000000000000 PUSH1 0x64 DUP3 ADD MSTORE PUSH1 0x84 ADD PUSH2 0x97C JUMP JUMPDEST TIMESTAMP PUSH1 0x13 SSTORE JUMP JUMPDEST PUSH1 0x7 SLOAD PUSH1 0x1 PUSH1 0x1 PUSH1 0xA0 SHL SUB AND CALLER EQ PUSH2 0x1B16 JUMPI PUSH1 0x40 MLOAD PUSH3 0x461BCD PUSH1 0xE5 SHL DUP2 MSTORE PUSH1 0x20 PUSH1 0x4 DUP3 ADD DUP2 SWAP1 MSTORE PUSH1 0x24 DUP3 ADD MSTORE PUSH1 0x0 DUP1 MLOAD PUSH1 0x20 PUSH2 0x37CB DUP4 CODECOPY DUP2 MLOAD SWAP2 MSTORE PUSH1 0x44 DUP3 ADD MSTORE PUSH1 0x64 ADD PUSH2 0x97C JUMP JUMPDEST PUSH1 0x1 PUSH1 0x1 PUSH1 0xA0 SHL SUB DUP2 AND PUSH2 0x1B6C JUMPI PUSH1 0x40 MLOAD PUSH3 0x461BCD PUSH1 0xE5 SHL DUP2 MSTORE PUSH1 0x20 PUSH1 0x4 DUP3 ADD MSTORE PUSH1 0x18 PUSH1 0x24 DUP3 ADD MSTORE PUSH32 0x43616E6E6F742062652074686520302061646472657373210000000000000000 PUSH1 0x44 DUP3 ADD MSTORE PUSH1 0x64 ADD PUSH2 0x97C JUMP JUMPDEST PUSH1 0x17 DUP1 SLOAD PUSH1 0x1 PUSH1 0x1 PUSH1 0xA0 SHL SUB NOT AND PUSH1 0x1 PUSH1 0x1 PUSH1 0xA0 SHL SUB SWAP3 SWAP1 SWAP3 AND SWAP2 SWAP1 SWAP2 OR SWAP1 SSTORE JUMP JUMPDEST PUSH1 0x7 SLOAD PUSH1 0x0 SWAP1 PUSH1 0x1 PUSH1 0x1 PUSH1 0xA0 SHL SUB AND CALLER EQ PUSH2 0x1BD9 JUMPI PUSH1 0x40 MLOAD PUSH3 0x461BCD PUSH1 0xE5 SHL DUP2 MSTORE PUSH1 0x20 PUSH1 0x4 DUP3 ADD DUP2 SWAP1 MSTORE PUSH1 0x24 DUP3 ADD MSTORE PUSH1 0x0 DUP1 MLOAD PUSH1 0x20 PUSH2 0x37CB DUP4 CODECOPY DUP2 MLOAD SWAP2 MSTORE PUSH1 0x44 DUP3 ADD MSTORE PUSH1 0x64 ADD PUSH2 0x97C JUMP JUMPDEST POP SELFBALANCE SWAP1 JUMP JUMPDEST PUSH1 0x14 SLOAD PUSH1 0xFF AND ISZERO PUSH2 0x1C23 JUMPI PUSH1 0x40 MLOAD PUSH3 0x461BCD PUSH1 0xE5 SHL DUP2 MSTORE PUSH1 0x20 PUSH1 0x4 DUP3 ADD MSTORE PUSH1 0xF PUSH1 0x24 DUP3 ADD MSTORE PUSH15 0x53616C652069732070617573656421 PUSH1 0x88 SHL PUSH1 0x44 DUP3 ADD MSTORE PUSH1 0x64 ADD PUSH2 0x97C JUMP JUMPDEST PUSH1 0x0 PUSH2 0x1C2D PUSH2 0x1675 JUMP JUMPDEST SWAP1 POP PUSH1 0x2 DUP2 PUSH1 0x2 DUP2 GT ISZERO PUSH2 0x1C43 JUMPI PUSH2 0x1C43 PUSH2 0x34B0 JUMP JUMPDEST EQ PUSH2 0x1C90 JUMPI PUSH1 0x40 MLOAD PUSH3 0x461BCD PUSH1 0xE5 SHL DUP2 MSTORE PUSH1 0x20 PUSH1 0x4 DUP3 ADD MSTORE PUSH1 0x1C PUSH1 0x24 DUP3 ADD MSTORE PUSH32 0x5075626C69632053616C6520696E206E6F74206F70656E207965742100000000 PUSH1 0x44 DUP3 ADD MSTORE PUSH1 0x64 ADD PUSH2 0x97C JUMP JUMPDEST PUSH1 0xE SLOAD PUSH1 0xF SLOAD PUSH2 0x1CA0 SWAP2 SWAP1 PUSH2 0x3646 JUMP JUMPDEST PUSH1 0x8 SLOAD PUSH2 0x1CAD SWAP2 SWAP1 PUSH2 0x3646 JUMP JUMPDEST DUP3 PUSH2 0x1CB7 PUSH1 0x0 SLOAD SWAP1 JUMP JUMPDEST PUSH2 0x1CC1 SWAP2 SWAP1 PUSH2 0x365D JUMP JUMPDEST GT ISZERO PUSH2 0x1D0F JUMPI PUSH1 0x40 MLOAD PUSH3 0x461BCD PUSH1 0xE5 SHL DUP2 MSTORE PUSH1 0x20 PUSH1 0x4 DUP3 ADD MSTORE PUSH1 0x1E PUSH1 0x24 DUP3 ADD MSTORE PUSH32 0x4E6F7420656E6F756768204E465473206C65667420746F206D696E742E2E0000 PUSH1 0x44 DUP3 ADD MSTORE PUSH1 0x64 ADD PUSH2 0x97C JUMP JUMPDEST PUSH1 0xD SLOAD CALLER PUSH1 0x0 SWAP1 DUP2 MSTORE PUSH1 0x15 PUSH1 0x20 MSTORE PUSH1 0x40 SWAP1 KECCAK256 SLOAD PUSH2 0x1D2D SWAP1 DUP5 SWAP1 PUSH2 0x365D JUMP JUMPDEST GT ISZERO PUSH2 0x1D87 JUMPI PUSH1 0x40 MLOAD PUSH3 0x461BCD PUSH1 0xE5 SHL DUP2 MSTORE PUSH1 0x20 PUSH1 0x4 DUP3 ADD MSTORE PUSH1 0x23 PUSH1 0x24 DUP3 ADD MSTORE PUSH32 0x4D6178696D756D204D696E747320706572204164647265737320657863656564 PUSH1 0x44 DUP3 ADD MSTORE PUSH3 0x656421 PUSH1 0xE8 SHL PUSH1 0x64 DUP3 ADD MSTORE PUSH1 0x84 ADD PUSH2 0x97C JUMP JUMPDEST DUP2 PUSH2 0x1D90 PUSH2 0x1EBD JUMP JUMPDEST PUSH2 0x1D9A SWAP2 SWAP1 PUSH2 0x368E JUMP JUMPDEST CALLVALUE LT ISZERO PUSH2 0x1E0F JUMPI PUSH1 0x40 MLOAD PUSH3 0x461BCD PUSH1 0xE5 SHL DUP2 MSTORE PUSH1 0x20 PUSH1 0x4 DUP3 ADD MSTORE PUSH1 0x31 PUSH1 0x24 DUP3 ADD MSTORE PUSH32 0x4E6F742073756666696369656E7420457468657220746F206D696E7420746869 PUSH1 0x44 DUP3 ADD MSTORE PUSH32 0x7320616D6F756E74206F66204E46547321000000000000000000000000000000 PUSH1 0x64 DUP3 ADD MSTORE PUSH1 0x84 ADD PUSH2 0x97C JUMP JUMPDEST PUSH2 0x1E19 CALLER DUP4 PUSH2 0x2737 JUMP JUMPDEST CALLER PUSH1 0x0 SWAP1 DUP2 MSTORE PUSH1 0x15 PUSH1 0x20 MSTORE PUSH1 0x40 DUP2 KECCAK256 DUP1 SLOAD DUP5 SWAP3 SWAP1 PUSH2 0xF57 SWAP1 DUP5 SWAP1 PUSH2 0x365D JUMP JUMPDEST PUSH2 0x1E43 DUP5 DUP5 DUP5 PUSH2 0x27AD JUMP JUMPDEST PUSH2 0x1E4F DUP5 DUP5 DUP5 DUP5 PUSH2 0x2CBD JUMP JUMPDEST PUSH2 0x1EB7 JUMPI PUSH1 0x40 MLOAD PUSH3 0x461BCD PUSH1 0xE5 SHL DUP2 MSTORE PUSH1 0x20 PUSH1 0x4 DUP3 ADD MSTORE PUSH1 0x33 PUSH1 0x24 DUP3 ADD MSTORE PUSH32 0x455243373231413A207472616E7366657220746F206E6F6E2045524337323152 PUSH1 0x44 DUP3 ADD MSTORE PUSH19 0x32B1B2B4BB32B91034B6B83632B6B2B73A32B9 PUSH1 0x69 SHL PUSH1 0x64 DUP3 ADD MSTORE PUSH1 0x84 ADD PUSH2 0x97C JUMP JUMPDEST POP POP POP POP JUMP JUMPDEST PUSH1 0x0 DUP1 PUSH2 0x1EC8 PUSH2 0x1675 JUMP JUMPDEST SWAP1 POP PUSH1 0x2 DUP2 PUSH1 0x2 DUP2 GT ISZERO PUSH2 0x1EDE JUMPI PUSH2 0x1EDE PUSH2 0x34B0 JUMP JUMPDEST EQ PUSH2 0x1EEB JUMPI POP POP PUSH1 0xA SLOAD SWAP1 JUMP JUMPDEST POP POP PUSH1 0xB SLOAD SWAP1 JUMP JUMPDEST PUSH1 0x7 SLOAD PUSH1 0x1 PUSH1 0x1 PUSH1 0xA0 SHL SUB AND CALLER EQ PUSH2 0x1F3B JUMPI PUSH1 0x40 MLOAD PUSH3 0x461BCD PUSH1 0xE5 SHL DUP2 MSTORE PUSH1 0x20 PUSH1 0x4 DUP3 ADD DUP2 SWAP1 MSTORE PUSH1 0x24 DUP3 ADD MSTORE PUSH1 0x0 DUP1 MLOAD PUSH1 0x20 PUSH2 0x37CB DUP4 CODECOPY DUP2 MLOAD SWAP2 MSTORE PUSH1 0x44 DUP3 ADD MSTORE PUSH1 0x64 ADD PUSH2 0x97C JUMP JUMPDEST PUSH1 0x14 DUP1 SLOAD PUSH1 0xFF NOT DUP2 AND PUSH1 0xFF SWAP1 SWAP2 AND ISZERO OR SWAP1 SSTORE JUMP JUMPDEST PUSH1 0x7 SLOAD PUSH1 0x1 PUSH1 0x1 PUSH1 0xA0 SHL SUB AND CALLER EQ PUSH2 0x1F97 JUMPI PUSH1 0x40 MLOAD PUSH3 0x461BCD PUSH1 0xE5 SHL DUP2 MSTORE PUSH1 0x20 PUSH1 0x4 DUP3 ADD DUP2 SWAP1 MSTORE PUSH1 0x24 DUP3 ADD MSTORE PUSH1 0x0 DUP1 MLOAD PUSH1 0x20 PUSH2 0x37CB DUP4 CODECOPY DUP2 MLOAD SWAP2 MSTORE PUSH1 0x44 DUP3 ADD MSTORE PUSH1 0x64 ADD PUSH2 0x97C JUMP JUMPDEST DUP1 MLOAD PUSH2 0x1029 SWAP1 PUSH1 0x18 SWAP1 PUSH1 0x20 DUP5 ADD SWAP1 PUSH2 0x317D JUMP JUMPDEST PUSH1 0x7 SLOAD PUSH1 0x1 PUSH1 0x1 PUSH1 0xA0 SHL SUB AND CALLER EQ PUSH2 0x1FF2 JUMPI PUSH1 0x40 MLOAD PUSH3 0x461BCD PUSH1 0xE5 SHL DUP2 MSTORE PUSH1 0x20 PUSH1 0x4 DUP3 ADD DUP2 SWAP1 MSTORE PUSH1 0x24 DUP3 ADD MSTORE PUSH1 0x0 DUP1 MLOAD PUSH1 0x20 PUSH2 0x37CB DUP4 CODECOPY DUP2 MLOAD SWAP2 MSTORE PUSH1 0x44 DUP3 ADD MSTORE PUSH1 0x64 ADD PUSH2 0x97C JUMP JUMPDEST PUSH1 0x0 DUP2 GT PUSH2 0x2042 JUMPI PUSH1 0x40 MLOAD PUSH3 0x461BCD PUSH1 0xE5 SHL DUP2 MSTORE PUSH1 0x20 PUSH1 0x4 DUP3 ADD MSTORE PUSH1 0x14 PUSH1 0x24 DUP3 ADD MSTORE PUSH32 0x43616E6E6F7420616464203020746F6B656E7321000000000000000000000000 PUSH1 0x44 DUP3 ADD MSTORE PUSH1 0x64 ADD PUSH2 0x97C JUMP JUMPDEST DUP1 PUSH1 0x8 PUSH1 0x0 DUP3 DUP3 SLOAD PUSH2 0xD20 SWAP2 SWAP1 PUSH2 0x365D JUMP JUMPDEST PUSH1 0x60 PUSH2 0x2061 DUP3 PUSH1 0x0 SLOAD GT SWAP1 JUMP JUMPDEST PUSH2 0x20D3 JUMPI PUSH1 0x40 MLOAD PUSH3 0x461BCD PUSH1 0xE5 SHL DUP2 MSTORE PUSH1 0x20 PUSH1 0x4 DUP3 ADD MSTORE PUSH1 0x2F PUSH1 0x24 DUP3 ADD MSTORE PUSH32 0x4552433732314D657461646174613A2055524920717565727920666F72206E6F PUSH1 0x44 DUP3 ADD MSTORE PUSH32 0x6E6578697374656E7420746F6B656E0000000000000000000000000000000000 PUSH1 0x64 DUP3 ADD MSTORE PUSH1 0x84 ADD PUSH2 0x97C JUMP JUMPDEST PUSH1 0x13 SLOAD PUSH1 0x0 SUB PUSH2 0x216F JUMPI PUSH1 0x18 DUP1 SLOAD PUSH2 0x20EA SWAP1 PUSH2 0x35F6 JUMP JUMPDEST DUP1 PUSH1 0x1F ADD PUSH1 0x20 DUP1 SWAP2 DIV MUL PUSH1 0x20 ADD PUSH1 0x40 MLOAD SWAP1 DUP2 ADD PUSH1 0x40 MSTORE DUP1 SWAP3 SWAP2 SWAP1 DUP2 DUP2 MSTORE PUSH1 0x20 ADD DUP3 DUP1 SLOAD PUSH2 0x2116 SWAP1 PUSH2 0x35F6 JUMP JUMPDEST DUP1 ISZERO PUSH2 0x2163 JUMPI DUP1 PUSH1 0x1F LT PUSH2 0x2138 JUMPI PUSH2 0x100 DUP1 DUP4 SLOAD DIV MUL DUP4 MSTORE SWAP2 PUSH1 0x20 ADD SWAP2 PUSH2 0x2163 JUMP JUMPDEST DUP3 ADD SWAP2 SWAP1 PUSH1 0x0 MSTORE PUSH1 0x20 PUSH1 0x0 KECCAK256 SWAP1 JUMPDEST DUP2 SLOAD DUP2 MSTORE SWAP1 PUSH1 0x1 ADD SWAP1 PUSH1 0x20 ADD DUP1 DUP4 GT PUSH2 0x2146 JUMPI DUP3 SWAP1 SUB PUSH1 0x1F AND DUP3 ADD SWAP2 JUMPDEST POP POP POP POP POP SWAP1 POP SWAP2 SWAP1 POP JUMP JUMPDEST PUSH1 0x0 PUSH2 0x2179 PUSH2 0x2E07 JUMP JUMPDEST SWAP1 POP PUSH1 0x0 DUP2 MLOAD GT PUSH2 0x2199 JUMPI PUSH1 0x40 MLOAD DUP1 PUSH1 0x20 ADD PUSH1 0x40 MSTORE DUP1 PUSH1 0x0 DUP2 MSTORE POP PUSH2 0x21C4 JUMP JUMPDEST DUP1 PUSH2 0x21A3 DUP5 PUSH2 0x2E16 JUMP JUMPDEST PUSH1 0x40 MLOAD PUSH1 0x20 ADD PUSH2 0x21B4 SWAP3 SWAP2 SWAP1 PUSH2 0x36D7 JUMP JUMPDEST PUSH1 0x40 MLOAD PUSH1 0x20 DUP2 DUP4 SUB SUB DUP2 MSTORE SWAP1 PUSH1 0x40 MSTORE JUMPDEST SWAP4 SWAP3 POP POP POP JUMP JUMPDEST DUP3 DUP3 DUP3 PUSH2 0x21DA CALLER DUP5 DUP5 DUP5 PUSH2 0x11A2 JUMP JUMPDEST PUSH2 0x2226 JUMPI PUSH1 0x40 MLOAD PUSH3 0x461BCD PUSH1 0xE5 SHL DUP2 MSTORE PUSH1 0x20 PUSH1 0x4 DUP3 ADD MSTORE PUSH1 0x11 PUSH1 0x24 DUP3 ADD MSTORE PUSH32 0x496E76616C6964205369676E6174757265000000000000000000000000000000 PUSH1 0x44 DUP3 ADD MSTORE PUSH1 0x64 ADD PUSH2 0x97C JUMP JUMPDEST PUSH1 0x14 SLOAD PUSH1 0xFF AND ISZERO PUSH2 0x226B JUMPI PUSH1 0x40 MLOAD PUSH3 0x461BCD PUSH1 0xE5 SHL DUP2 MSTORE PUSH1 0x20 PUSH1 0x4 DUP3 ADD MSTORE PUSH1 0xF PUSH1 0x24 DUP3 ADD MSTORE PUSH15 0x53616C652069732070617573656421 PUSH1 0x88 SHL PUSH1 0x44 DUP3 ADD MSTORE PUSH1 0x64 ADD PUSH2 0x97C JUMP JUMPDEST PUSH1 0x0 PUSH2 0x2275 PUSH2 0x1675 JUMP JUMPDEST SWAP1 POP PUSH1 0x1 DUP2 PUSH1 0x2 DUP2 GT ISZERO PUSH2 0x228B JUMPI PUSH2 0x228B PUSH2 0x34B0 JUMP JUMPDEST EQ PUSH2 0x22D8 JUMPI PUSH1 0x40 MLOAD PUSH3 0x461BCD PUSH1 0xE5 SHL DUP2 MSTORE PUSH1 0x20 PUSH1 0x4 DUP3 ADD MSTORE PUSH1 0x15 PUSH1 0x24 DUP3 ADD MSTORE PUSH32 0x53616C6520696E206E6F74206F70656E20796574210000000000000000000000 PUSH1 0x44 DUP3 ADD MSTORE PUSH1 0x64 ADD PUSH2 0x97C JUMP JUMPDEST PUSH1 0xE SLOAD PUSH1 0xF SLOAD PUSH2 0x22E8 SWAP2 SWAP1 PUSH2 0x3646 JUMP JUMPDEST PUSH1 0x8 SLOAD PUSH2 0x22F5 SWAP2 SWAP1 PUSH2 0x3646 JUMP JUMPDEST DUP9 PUSH2 0x22FF PUSH1 0x0 SLOAD SWAP1 JUMP JUMPDEST PUSH2 0x2309 SWAP2 SWAP1 PUSH2 0x365D JUMP JUMPDEST GT ISZERO PUSH2 0x2357 JUMPI PUSH1 0x40 MLOAD PUSH3 0x461BCD PUSH1 0xE5 SHL DUP2 MSTORE PUSH1 0x20 PUSH1 0x4 DUP3 ADD MSTORE PUSH1 0x1E PUSH1 0x24 DUP3 ADD MSTORE PUSH32 0x4E6F7420656E6F756768204E465473206C65667420746F206D696E742E2E0000 PUSH1 0x44 DUP3 ADD MSTORE PUSH1 0x64 ADD PUSH2 0x97C JUMP JUMPDEST PUSH1 0xC SLOAD CALLER PUSH1 0x0 SWAP1 DUP2 MSTORE PUSH1 0x15 PUSH1 0x20 MSTORE PUSH1 0x40 SWAP1 KECCAK256 SLOAD PUSH2 0x2375 SWAP1 DUP11 SWAP1 PUSH2 0x365D JUMP JUMPDEST GT ISZERO PUSH2 0x23CF JUMPI PUSH1 0x40 MLOAD PUSH3 0x461BCD PUSH1 0xE5 SHL DUP2 MSTORE PUSH1 0x20 PUSH1 0x4 DUP3 ADD MSTORE PUSH1 0x23 PUSH1 0x24 DUP3 ADD MSTORE PUSH32 0x4D6178696D756D204D696E747320706572204164647265737320657863656564 PUSH1 0x44 DUP3 ADD MSTORE PUSH3 0x656421 PUSH1 0xE8 SHL PUSH1 0x64 DUP3 ADD MSTORE PUSH1 0x84 ADD PUSH2 0x97C JUMP JUMPDEST DUP8 PUSH2 0x23D8 PUSH2 0x1EBD JUMP JUMPDEST PUSH2 0x23E2 SWAP2 SWAP1 PUSH2 0x368E JUMP JUMPDEST CALLVALUE LT ISZERO PUSH2 0x2457 JUMPI PUSH1 0x40 MLOAD PUSH3 0x461BCD PUSH1 0xE5 SHL DUP2 MSTORE PUSH1 0x20 PUSH1 0x4 DUP3 ADD MSTORE PUSH1 0x30 PUSH1 0x24 DUP3 ADD MSTORE PUSH32 0x4E6F742073756666696369656E7420457468657220746F206D696E7420746869 PUSH1 0x44 DUP3 ADD MSTORE PUSH32 0x7320616D6F756E74206F66204E46547300000000000000000000000000000000 PUSH1 0x64 DUP3 ADD MSTORE PUSH1 0x84 ADD PUSH2 0x97C JUMP JUMPDEST PUSH2 0x2461 CALLER DUP10 PUSH2 0x2737 JUMP JUMPDEST CALLER PUSH1 0x0 SWAP1 DUP2 MSTORE PUSH1 0x15 PUSH1 0x20 MSTORE PUSH1 0x40 DUP2 KECCAK256 DUP1 SLOAD DUP11 SWAP3 SWAP1 PUSH2 0x2480 SWAP1 DUP5 SWAP1 PUSH2 0x365D JUMP JUMPDEST SWAP1 SWAP2 SSTORE POP POP POP POP POP POP POP POP POP POP JUMP JUMPDEST PUSH1 0x7 SLOAD PUSH1 0x1 PUSH1 0x1 PUSH1 0xA0 SHL SUB AND CALLER EQ PUSH2 0x24D7 JUMPI PUSH1 0x40 MLOAD PUSH3 0x461BCD PUSH1 0xE5 SHL DUP2 MSTORE PUSH1 0x20 PUSH1 0x4 DUP3 ADD DUP2 SWAP1 MSTORE PUSH1 0x24 DUP3 ADD MSTORE PUSH1 0x0 DUP1 MLOAD PUSH1 0x20 PUSH2 0x37CB DUP4 CODECOPY DUP2 MLOAD SWAP2 MSTORE PUSH1 0x44 DUP3 ADD MSTORE PUSH1 0x64 ADD PUSH2 0x97C JUMP JUMPDEST PUSH1 0x0 PUSH2 0x24E1 PUSH2 0x1675 JUMP JUMPDEST PUSH1 0x2 DUP2 GT ISZERO PUSH2 0x24F2 JUMPI PUSH2 0x24F2 PUSH2 0x34B0 JUMP JUMPDEST EQ PUSH2 0x253F JUMPI PUSH1 0x40 MLOAD PUSH3 0x461BCD PUSH1 0xE5 SHL DUP2 MSTORE PUSH1 0x20 PUSH1 0x4 DUP3 ADD MSTORE PUSH1 0x15 PUSH1 0x24 DUP3 ADD MSTORE PUSH32 0x53616C6520697320616C7265616479204F70656E210000000000000000000000 PUSH1 0x44 DUP3 ADD MSTORE PUSH1 0x64 ADD PUSH2 0x97C JUMP JUMPDEST TIMESTAMP PUSH1 0x11 SSTORE JUMP JUMPDEST PUSH1 0x7 SLOAD PUSH1 0x1 PUSH1 0x1 PUSH1 0xA0 SHL SUB AND CALLER EQ PUSH2 0x258D JUMPI PUSH1 0x40 MLOAD PUSH3 0x461BCD PUSH1 0xE5 SHL DUP2 MSTORE PUSH1 0x20 PUSH1 0x4 DUP3 ADD DUP2 SWAP1 MSTORE PUSH1 0x24 DUP3 ADD MSTORE PUSH1 0x0 DUP1 MLOAD PUSH1 0x20 PUSH2 0x37CB DUP4 CODECOPY DUP2 MLOAD SWAP2 MSTORE PUSH1 0x44 DUP3 ADD MSTORE PUSH1 0x64 ADD PUSH2 0x97C JUMP JUMPDEST PUSH1 0x1 PUSH1 0x1 PUSH1 0xA0 SHL SUB DUP2 AND PUSH2 0x2609 JUMPI PUSH1 0x40 MLOAD PUSH3 0x461BCD PUSH1 0xE5 SHL DUP2 MSTORE PUSH1 0x20 PUSH1 0x4 DUP3 ADD MSTORE PUSH1 0x26 PUSH1 0x24 DUP3 ADD MSTORE PUSH32 0x4F776E61626C653A206E6577206F776E657220697320746865207A65726F2061 PUSH1 0x44 DUP3 ADD MSTORE PUSH32 0x6464726573730000000000000000000000000000000000000000000000000000 PUSH1 0x64 DUP3 ADD MSTORE PUSH1 0x84 ADD PUSH2 0x97C JUMP JUMPDEST PUSH2 0x1530 DUP2 PUSH2 0x2C6B JUMP JUMPDEST PUSH1 0x17 SLOAD PUSH1 0x40 MLOAD PUSH4 0x70A08231 PUSH1 0xE0 SHL DUP2 MSTORE PUSH1 0x1 PUSH1 0x1 PUSH1 0xA0 SHL SUB DUP4 DUP2 AND PUSH1 0x4 DUP4 ADD MSTORE PUSH1 0x0 SWAP3 AND SWAP1 PUSH4 0x70A08231 SWAP1 PUSH1 0x24 ADD PUSH1 0x20 PUSH1 0x40 MLOAD DUP1 DUP4 SUB DUP2 DUP7 GAS STATICCALL ISZERO DUP1 ISZERO PUSH2 0x265D JUMPI RETURNDATASIZE PUSH1 0x0 DUP1 RETURNDATACOPY RETURNDATASIZE PUSH1 0x0 REVERT JUMPDEST POP POP POP POP PUSH1 0x40 MLOAD RETURNDATASIZE PUSH1 0x1F NOT PUSH1 0x1F DUP3 ADD AND DUP3 ADD DUP1 PUSH1 0x40 MSTORE POP DUP2 ADD SWAP1 PUSH2 0xA0E SWAP2 SWAP1 PUSH2 0x3675 JUMP JUMPDEST PUSH1 0x7 SLOAD PUSH1 0x1 PUSH1 0x1 PUSH1 0xA0 SHL SUB AND CALLER EQ PUSH2 0x26C9 JUMPI PUSH1 0x40 MLOAD PUSH3 0x461BCD PUSH1 0xE5 SHL DUP2 MSTORE PUSH1 0x20 PUSH1 0x4 DUP3 ADD DUP2 SWAP1 MSTORE PUSH1 0x24 DUP3 ADD MSTORE PUSH1 0x0 DUP1 MLOAD PUSH1 0x20 PUSH2 0x37CB DUP4 CODECOPY DUP2 MLOAD SWAP2 MSTORE PUSH1 0x44 DUP3 ADD MSTORE PUSH1 0x64 ADD PUSH2 0x97C JUMP JUMPDEST PUSH1 0x1 PUSH2 0x26D3 PUSH2 0x1675 JUMP JUMPDEST PUSH1 0x2 DUP2 GT ISZERO PUSH2 0x26E4 JUMPI PUSH2 0x26E4 PUSH2 0x34B0 JUMP JUMPDEST EQ PUSH2 0x2731 JUMPI PUSH1 0x40 MLOAD PUSH3 0x461BCD PUSH1 0xE5 SHL DUP2 MSTORE PUSH1 0x20 PUSH1 0x4 DUP3 ADD MSTORE PUSH1 0x18 PUSH1 0x24 DUP3 ADD MSTORE PUSH32 0x53616C65206D75737420626520696E2050726573616C65210000000000000000 PUSH1 0x44 DUP3 ADD MSTORE PUSH1 0x64 ADD PUSH2 0x97C JUMP JUMPDEST TIMESTAMP PUSH1 0x12 SSTORE JUMP JUMPDEST PUSH2 0x1029 DUP3 DUP3 PUSH1 0x40 MLOAD DUP1 PUSH1 0x20 ADD PUSH1 0x40 MSTORE DUP1 PUSH1 0x0 DUP2 MSTORE POP PUSH2 0x2F2F JUMP JUMPDEST PUSH1 0x0 DUP3 DUP2 MSTORE PUSH1 0x5 PUSH1 0x20 MSTORE PUSH1 0x40 DUP1 DUP3 KECCAK256 DUP1 SLOAD PUSH1 0x1 PUSH1 0x1 PUSH1 0xA0 SHL SUB NOT AND PUSH1 0x1 PUSH1 0x1 PUSH1 0xA0 SHL SUB DUP8 DUP2 AND SWAP2 DUP3 OR SWAP1 SWAP3 SSTORE SWAP2 MLOAD DUP6 SWAP4 SWAP2 DUP6 AND SWAP2 PUSH32 0x8C5BE1E5EBEC7D5BD14F71427D1E84F3DD0314C0F7B2291E5B200AC8C7C3B925 SWAP2 LOG4 POP POP POP JUMP JUMPDEST PUSH1 0x0 PUSH2 0x27B8 DUP3 PUSH2 0x2B81 JUMP JUMPDEST DUP1 MLOAD SWAP1 SWAP2 POP PUSH1 0x0 SWAP1 PUSH1 0x1 PUSH1 0x1 PUSH1 0xA0 SHL SUB AND CALLER PUSH1 0x1 PUSH1 0x1 PUSH1 0xA0 SHL SUB AND EQ DUP1 PUSH2 0x27EF JUMPI POP CALLER PUSH2 0x27E4 DUP5 PUSH2 0xAA6 JUMP JUMPDEST PUSH1 0x1 PUSH1 0x1 PUSH1 0xA0 SHL SUB AND EQ JUMPDEST DUP1 PUSH2 0x2801 JUMPI POP DUP2 MLOAD PUSH2 0x2801 SWAP1 CALLER PUSH2 0x88A JUMP JUMPDEST SWAP1 POP DUP1 PUSH2 0x2876 JUMPI PUSH1 0x40 MLOAD PUSH3 0x461BCD PUSH1 0xE5 SHL DUP2 MSTORE PUSH1 0x20 PUSH1 0x4 DUP3 ADD MSTORE PUSH1 0x32 PUSH1 0x24 DUP3 ADD MSTORE PUSH32 0x455243373231413A207472616E736665722063616C6C6572206973206E6F7420 PUSH1 0x44 DUP3 ADD MSTORE PUSH32 0x6F776E6572206E6F7220617070726F7665640000000000000000000000000000 PUSH1 0x64 DUP3 ADD MSTORE PUSH1 0x84 ADD PUSH2 0x97C JUMP JUMPDEST DUP5 PUSH1 0x1 PUSH1 0x1 PUSH1 0xA0 SHL SUB AND DUP3 PUSH1 0x0 ADD MLOAD PUSH1 0x1 PUSH1 0x1 PUSH1 0xA0 SHL SUB AND EQ PUSH2 0x2901 JUMPI PUSH1 0x40 MLOAD PUSH3 0x461BCD PUSH1 0xE5 SHL DUP2 MSTORE PUSH1 0x20 PUSH1 0x4 DUP3 ADD MSTORE PUSH1 0x26 PUSH1 0x24 DUP3 ADD MSTORE PUSH32 0x455243373231413A207472616E736665722066726F6D20696E636F7272656374 PUSH1 0x44 DUP3 ADD MSTORE PUSH32 0x206F776E65720000000000000000000000000000000000000000000000000000 PUSH1 0x64 DUP3 ADD MSTORE PUSH1 0x84 ADD PUSH2 0x97C JUMP JUMPDEST PUSH1 0x1 PUSH1 0x1 PUSH1 0xA0 SHL SUB DUP5 AND PUSH2 0x297D JUMPI PUSH1 0x40 MLOAD PUSH3 0x461BCD PUSH1 0xE5 SHL DUP2 MSTORE PUSH1 0x20 PUSH1 0x4 DUP3 ADD MSTORE PUSH1 0x25 PUSH1 0x24 DUP3 ADD MSTORE PUSH32 0x455243373231413A207472616E7366657220746F20746865207A65726F206164 PUSH1 0x44 DUP3 ADD MSTORE PUSH32 0x6472657373000000000000000000000000000000000000000000000000000000 PUSH1 0x64 DUP3 ADD MSTORE PUSH1 0x84 ADD PUSH2 0x97C JUMP JUMPDEST PUSH2 0x298D PUSH1 0x0 DUP5 DUP5 PUSH1 0x0 ADD MLOAD PUSH2 0x2751 JUMP JUMPDEST PUSH1 0x1 PUSH1 0x1 PUSH1 0xA0 SHL SUB DUP6 DUP2 AND PUSH1 0x0 SWAP1 DUP2 MSTORE PUSH1 0x4 PUSH1 0x20 SWAP1 DUP2 MSTORE PUSH1 0x40 DUP1 DUP4 KECCAK256 DUP1 SLOAD PUSH16 0xFFFFFFFFFFFFFFFFFFFFFFFFFFFFFFFF NOT DUP1 DUP3 AND PUSH16 0xFFFFFFFFFFFFFFFFFFFFFFFFFFFFFFFF SWAP3 DUP4 AND PUSH1 0x0 NOT ADD DUP4 AND OR SWAP1 SWAP3 SSTORE DUP10 DUP7 AND DUP1 DUP7 MSTORE DUP4 DUP7 KECCAK256 DUP1 SLOAD SWAP4 DUP5 AND SWAP4 DUP4 AND PUSH1 0x1 SWAP1 DUP2 ADD SWAP1 SWAP4 AND SWAP4 SWAP1 SWAP4 OR SWAP1 SWAP3 SSTORE DUP9 DUP6 MSTORE PUSH1 0x3 SWAP1 SWAP4 MSTORE DUP2 DUP5 KECCAK256 DUP1 SLOAD PUSH1 0x1 PUSH1 0x1 PUSH1 0xE0 SHL SUB NOT AND SWAP1 SWAP2 OR PUSH1 0x1 PUSH1 0xA0 SHL TIMESTAMP PUSH8 0xFFFFFFFFFFFFFFFF AND MUL OR SWAP1 SSTORE SWAP1 DUP7 ADD DUP1 DUP4 MSTORE SWAP2 KECCAK256 SLOAD SWAP1 SWAP2 AND PUSH2 0x2A94 JUMPI PUSH2 0x2A47 DUP2 PUSH1 0x0 SLOAD GT SWAP1 JUMP JUMPDEST ISZERO PUSH2 0x2A94 JUMPI DUP3 MLOAD PUSH1 0x0 DUP3 DUP2 MSTORE PUSH1 0x3 PUSH1 0x20 SWAP1 DUP2 MSTORE PUSH1 0x40 SWAP1 SWAP2 KECCAK256 DUP1 SLOAD SWAP2 DUP7 ADD MLOAD PUSH8 0xFFFFFFFFFFFFFFFF AND PUSH1 0x1 PUSH1 0xA0 SHL MUL PUSH1 0x1 PUSH1 0x1 PUSH1 0xE0 SHL SUB NOT SWAP1 SWAP3 AND PUSH1 0x1 PUSH1 0x1 PUSH1 0xA0 SHL SUB SWAP1 SWAP4 AND SWAP3 SWAP1 SWAP3 OR OR SWAP1 SSTORE JUMPDEST POP DUP3 DUP5 PUSH1 0x1 PUSH1 0x1 PUSH1 0xA0 SHL SUB AND DUP7 PUSH1 0x1 PUSH1 0x1 PUSH1 0xA0 SHL SUB AND PUSH32 0xDDF252AD1BE2C89B69C2B068FC378DAA952BA7F163C4A11628F55A4DF523B3EF PUSH1 0x40 MLOAD PUSH1 0x40 MLOAD DUP1 SWAP2 SUB SWAP1 LOG4 JUMPDEST POP POP POP POP POP JUMP JUMPDEST PUSH1 0x0 DUP3 PUSH1 0x1 PUSH1 0x1 PUSH1 0xA0 SHL SUB AND DUP3 PUSH1 0x40 MLOAD PUSH1 0x0 PUSH1 0x40 MLOAD DUP1 DUP4 SUB DUP2 DUP6 DUP8 GAS CALL SWAP3 POP POP POP RETURNDATASIZE DUP1 PUSH1 0x0 DUP2 EQ PUSH2 0x2B2B JUMPI PUSH1 0x40 MLOAD SWAP2 POP PUSH1 0x1F NOT PUSH1 0x3F RETURNDATASIZE ADD AND DUP3 ADD PUSH1 0x40 MSTORE RETURNDATASIZE DUP3 MSTORE RETURNDATASIZE PUSH1 0x0 PUSH1 0x20 DUP5 ADD RETURNDATACOPY PUSH2 0x2B30 JUMP JUMPDEST PUSH1 0x60 SWAP2 POP JUMPDEST POP POP SWAP1 POP DUP1 PUSH2 0xE3A JUMPI PUSH1 0x40 MLOAD PUSH3 0x461BCD PUSH1 0xE5 SHL DUP2 MSTORE PUSH1 0x20 PUSH1 0x4 DUP3 ADD MSTORE PUSH1 0x14 PUSH1 0x24 DUP3 ADD MSTORE PUSH32 0x4661696C656420746F2073656E64204574686572000000000000000000000000 PUSH1 0x44 DUP3 ADD MSTORE PUSH1 0x64 ADD PUSH2 0x97C JUMP JUMPDEST PUSH1 0x40 DUP1 MLOAD DUP1 DUP3 ADD SWAP1 SWAP2 MSTORE PUSH1 0x0 DUP1 DUP3 MSTORE PUSH1 0x20 DUP3 ADD MSTORE PUSH2 0x2BA0 DUP3 PUSH1 0x0 SLOAD GT SWAP1 JUMP JUMPDEST PUSH2 0x2C12 JUMPI PUSH1 0x40 MLOAD PUSH3 0x461BCD PUSH1 0xE5 SHL DUP2 MSTORE PUSH1 0x20 PUSH1 0x4 DUP3 ADD MSTORE PUSH1 0x2A PUSH1 0x24 DUP3 ADD MSTORE PUSH32 0x455243373231413A206F776E657220717565727920666F72206E6F6E65786973 PUSH1 0x44 DUP3 ADD MSTORE PUSH32 0x74656E7420746F6B656E00000000000000000000000000000000000000000000 PUSH1 0x64 DUP3 ADD MSTORE PUSH1 0x84 ADD PUSH2 0x97C JUMP JUMPDEST DUP2 JUMPDEST PUSH1 0x0 DUP2 DUP2 MSTORE PUSH1 0x3 PUSH1 0x20 SWAP1 DUP2 MSTORE PUSH1 0x40 SWAP2 DUP3 SWAP1 KECCAK256 DUP3 MLOAD DUP1 DUP5 ADD SWAP1 SWAP4 MSTORE SLOAD PUSH1 0x1 PUSH1 0x1 PUSH1 0xA0 SHL SUB DUP2 AND DUP1 DUP5 MSTORE PUSH1 0x1 PUSH1 0xA0 SHL SWAP1 SWAP2 DIV PUSH8 0xFFFFFFFFFFFFFFFF AND SWAP2 DUP4 ADD SWAP2 SWAP1 SWAP2 MSTORE ISZERO PUSH2 0x2C61 JUMPI SWAP4 SWAP3 POP POP POP JUMP JUMPDEST POP PUSH1 0x0 NOT ADD PUSH2 0x2C14 JUMP JUMPDEST PUSH1 0x7 DUP1 SLOAD PUSH1 0x1 PUSH1 0x1 PUSH1 0xA0 SHL SUB DUP4 DUP2 AND PUSH1 0x1 PUSH1 0x1 PUSH1 0xA0 SHL SUB NOT DUP4 AND DUP2 OR SWAP1 SWAP4 SSTORE PUSH1 0x40 MLOAD SWAP2 AND SWAP2 SWAP1 DUP3 SWAP1 PUSH32 0x8BE0079C531659141344CD1FD0A4F28419497F9722A3DAAFE3B4186F6B6457E0 SWAP1 PUSH1 0x0 SWAP1 LOG3 POP POP JUMP JUMPDEST PUSH1 0x0 PUSH1 0x1 PUSH1 0x1 PUSH1 0xA0 SHL SUB DUP5 AND EXTCODESIZE ISZERO PUSH2 0x2DFF JUMPI PUSH1 0x40 MLOAD PUSH4 0xA85BD01 PUSH1 0xE1 SHL DUP2 MSTORE PUSH1 0x1 PUSH1 0x1 PUSH1 0xA0 SHL SUB DUP6 AND SWAP1 PUSH4 0x150B7A02 SWAP1 PUSH2 0x2D01 SWAP1 CALLER SWAP1 DUP10 SWAP1 DUP9 SWAP1 DUP9 SWAP1 PUSH1 0x4 ADD PUSH2 0x372E JUMP JUMPDEST PUSH1 0x20 PUSH1 0x40 MLOAD DUP1 DUP4 SUB DUP2 PUSH1 0x0 DUP8 GAS CALL SWAP3 POP POP POP DUP1 ISZERO PUSH2 0x2D3C JUMPI POP PUSH1 0x40 DUP1 MLOAD PUSH1 0x1F RETURNDATASIZE SWAP1 DUP2 ADD PUSH1 0x1F NOT AND DUP3 ADD SWAP1 SWAP3 MSTORE PUSH2 0x2D39 SWAP2 DUP2 ADD SWAP1 PUSH2 0x376A JUMP JUMPDEST PUSH1 0x1 JUMPDEST PUSH2 0x2DE5 JUMPI RETURNDATASIZE DUP1 DUP1 ISZERO PUSH2 0x2D6A JUMPI PUSH1 0x40 MLOAD SWAP2 POP PUSH1 0x1F NOT PUSH1 0x3F RETURNDATASIZE ADD AND DUP3 ADD PUSH1 0x40 MSTORE RETURNDATASIZE DUP3 MSTORE RETURNDATASIZE PUSH1 0x0 PUSH1 0x20 DUP5 ADD RETURNDATACOPY PUSH2 0x2D6F JUMP JUMPDEST PUSH1 0x60 SWAP2 POP JUMPDEST POP DUP1 MLOAD PUSH1 0x0 SUB PUSH2 0x2DDD JUMPI PUSH1 0x40 MLOAD PUSH3 0x461BCD PUSH1 0xE5 SHL DUP2 MSTORE PUSH1 0x20 PUSH1 0x4 DUP3 ADD MSTORE PUSH1 0x33 PUSH1 0x24 DUP3 ADD MSTORE PUSH32 0x455243373231413A207472616E7366657220746F206E6F6E2045524337323152 PUSH1 0x44 DUP3 ADD MSTORE PUSH19 0x32B1B2B4BB32B91034B6B83632B6B2B73A32B9 PUSH1 0x69 SHL PUSH1 0x64 DUP3 ADD MSTORE PUSH1 0x84 ADD PUSH2 0x97C JUMP JUMPDEST DUP1 MLOAD DUP2 PUSH1 0x20 ADD REVERT JUMPDEST PUSH1 0x1 PUSH1 0x1 PUSH1 0xE0 SHL SUB NOT AND PUSH4 0xA85BD01 PUSH1 0xE1 SHL EQ SWAP1 POP PUSH2 0x12A6 JUMP JUMPDEST POP PUSH1 0x1 PUSH2 0x12A6 JUMP JUMPDEST PUSH1 0x60 PUSH1 0x9 DUP1 SLOAD PUSH2 0xA23 SWAP1 PUSH2 0x35F6 JUMP JUMPDEST PUSH1 0x60 DUP2 PUSH1 0x0 SUB PUSH2 0x2E3D JUMPI POP POP PUSH1 0x40 DUP1 MLOAD DUP1 DUP3 ADD SWAP1 SWAP2 MSTORE PUSH1 0x1 DUP2 MSTORE PUSH1 0x3 PUSH1 0xFC SHL PUSH1 0x20 DUP3 ADD MSTORE SWAP1 JUMP JUMPDEST DUP2 PUSH1 0x0 JUMPDEST DUP2 ISZERO PUSH2 0x2E67 JUMPI DUP1 PUSH2 0x2E51 DUP2 PUSH2 0x3787 JUMP JUMPDEST SWAP2 POP PUSH2 0x2E60 SWAP1 POP PUSH1 0xA DUP4 PUSH2 0x36C3 JUMP JUMPDEST SWAP2 POP PUSH2 0x2E41 JUMP JUMPDEST PUSH1 0x0 DUP2 PUSH8 0xFFFFFFFFFFFFFFFF DUP2 GT ISZERO PUSH2 0x2E82 JUMPI PUSH2 0x2E82 PUSH2 0x33DB JUMP JUMPDEST PUSH1 0x40 MLOAD SWAP1 DUP1 DUP3 MSTORE DUP1 PUSH1 0x1F ADD PUSH1 0x1F NOT AND PUSH1 0x20 ADD DUP3 ADD PUSH1 0x40 MSTORE DUP1 ISZERO PUSH2 0x2EAC JUMPI PUSH1 0x20 DUP3 ADD DUP2 DUP1 CALLDATASIZE DUP4 CALLDATACOPY ADD SWAP1 POP JUMPDEST POP SWAP1 POP JUMPDEST DUP5 ISZERO PUSH2 0x12A6 JUMPI PUSH2 0x2EC1 PUSH1 0x1 DUP4 PUSH2 0x3646 JUMP JUMPDEST SWAP2 POP PUSH2 0x2ECE PUSH1 0xA DUP7 PUSH2 0x37A0 JUMP JUMPDEST PUSH2 0x2ED9 SWAP1 PUSH1 0x30 PUSH2 0x365D JUMP JUMPDEST PUSH1 0xF8 SHL DUP2 DUP4 DUP2 MLOAD DUP2 LT PUSH2 0x2EEE JUMPI PUSH2 0x2EEE PUSH2 0x37B4 JUMP JUMPDEST PUSH1 0x20 ADD ADD SWAP1 PUSH31 0xFFFFFFFFFFFFFFFFFFFFFFFFFFFFFFFFFFFFFFFFFFFFFFFFFFFFFFFFFFFFFF NOT AND SWAP1 DUP2 PUSH1 0x0 BYTE SWAP1 MSTORE8 POP PUSH2 0x2F28 PUSH1 0xA DUP7 PUSH2 0x36C3 JUMP JUMPDEST SWAP5 POP PUSH2 0x2EB0 JUMP JUMPDEST PUSH2 0xE3A DUP4 DUP4 DUP4 PUSH1 0x1 PUSH1 0x0 SLOAD PUSH1 0x1 PUSH1 0x1 PUSH1 0xA0 SHL SUB DUP6 AND PUSH2 0x2F9A JUMPI PUSH1 0x40 MLOAD PUSH3 0x461BCD PUSH1 0xE5 SHL DUP2 MSTORE PUSH1 0x20 PUSH1 0x4 DUP3 ADD MSTORE PUSH1 0x21 PUSH1 0x24 DUP3 ADD MSTORE PUSH32 0x455243373231413A206D696E7420746F20746865207A65726F20616464726573 PUSH1 0x44 DUP3 ADD MSTORE PUSH1 0x73 PUSH1 0xF8 SHL PUSH1 0x64 DUP3 ADD MSTORE PUSH1 0x84 ADD PUSH2 0x97C JUMP JUMPDEST DUP4 PUSH1 0x0 SUB PUSH2 0x3010 JUMPI PUSH1 0x40 MLOAD PUSH3 0x461BCD PUSH1 0xE5 SHL DUP2 MSTORE PUSH1 0x20 PUSH1 0x4 DUP3 ADD MSTORE PUSH1 0x28 PUSH1 0x24 DUP3 ADD MSTORE PUSH32 0x455243373231413A207175616E74697479206D75737420626520677265617465 PUSH1 0x44 DUP3 ADD MSTORE PUSH32 0x72207468616E2030000000000000000000000000000000000000000000000000 PUSH1 0x64 DUP3 ADD MSTORE PUSH1 0x84 ADD PUSH2 0x97C JUMP JUMPDEST PUSH1 0x1 PUSH1 0x1 PUSH1 0xA0 SHL SUB DUP6 AND PUSH1 0x0 DUP2 DUP2 MSTORE PUSH1 0x4 PUSH1 0x20 SWAP1 DUP2 MSTORE PUSH1 0x40 DUP1 DUP4 KECCAK256 DUP1 SLOAD PUSH17 0x100000000000000000000000000000000 PUSH16 0xFFFFFFFFFFFFFFFFFFFFFFFFFFFFFFFF NOT DUP3 AND PUSH16 0xFFFFFFFFFFFFFFFFFFFFFFFFFFFFFFFF SWAP3 DUP4 AND DUP13 ADD DUP4 AND SWAP1 DUP2 OR DUP3 SWAP1 DIV DUP4 AND DUP13 ADD SWAP1 SWAP3 AND MUL OR SWAP1 SSTORE DUP5 DUP4 MSTORE PUSH1 0x3 SWAP1 SWAP2 MSTORE DUP2 KECCAK256 DUP1 SLOAD PUSH1 0x1 PUSH1 0x1 PUSH1 0xE0 SHL SUB NOT AND SWAP1 SWAP3 OR PUSH1 0x1 PUSH1 0xA0 SHL TIMESTAMP PUSH8 0xFFFFFFFFFFFFFFFF AND MUL OR SWAP1 SWAP2 SSTORE DUP2 SWAP1 JUMPDEST DUP6 DUP2 LT ISZERO PUSH2 0x3174 JUMPI PUSH1 0x40 MLOAD DUP3 SWAP1 PUSH1 0x1 PUSH1 0x1 PUSH1 0xA0 SHL SUB DUP10 AND SWAP1 PUSH1 0x0 SWAP1 PUSH32 0xDDF252AD1BE2C89B69C2B068FC378DAA952BA7F163C4A11628F55A4DF523B3EF SWAP1 DUP3 SWAP1 LOG4 DUP4 ISZERO PUSH2 0x3168 JUMPI PUSH2 0x3100 PUSH1 0x0 DUP9 DUP5 DUP9 PUSH2 0x2CBD JUMP JUMPDEST PUSH2 0x3168 JUMPI PUSH1 0x40 MLOAD PUSH3 0x461BCD PUSH1 0xE5 SHL DUP2 MSTORE PUSH1 0x20 PUSH1 0x4 DUP3 ADD MSTORE PUSH1 0x33 PUSH1 0x24 DUP3 ADD MSTORE PUSH32 0x455243373231413A207472616E7366657220746F206E6F6E2045524337323152 PUSH1 0x44 DUP3 ADD MSTORE PUSH19 0x32B1B2B4BB32B91034B6B83632B6B2B73A32B9 PUSH1 0x69 SHL PUSH1 0x64 DUP3 ADD MSTORE PUSH1 0x84 ADD PUSH2 0x97C JUMP JUMPDEST PUSH1 0x1 SWAP2 DUP3 ADD SWAP2 ADD PUSH2 0x30AD JUMP JUMPDEST POP PUSH1 0x0 SSTORE PUSH2 0x2AD7 JUMP JUMPDEST DUP3 DUP1 SLOAD PUSH2 0x3189 SWAP1 PUSH2 0x35F6 JUMP JUMPDEST SWAP1 PUSH1 0x0 MSTORE PUSH1 0x20 PUSH1 0x0 KECCAK256 SWAP1 PUSH1 0x1F ADD PUSH1 0x20 SWAP1 DIV DUP2 ADD SWAP3 DUP3 PUSH2 0x31AB JUMPI PUSH1 0x0 DUP6 SSTORE PUSH2 0x31F1 JUMP JUMPDEST DUP3 PUSH1 0x1F LT PUSH2 0x31C4 JUMPI DUP1 MLOAD PUSH1 0xFF NOT AND DUP4 DUP1 ADD OR DUP6 SSTORE PUSH2 0x31F1 JUMP JUMPDEST DUP3 DUP1 ADD PUSH1 0x1 ADD DUP6 SSTORE DUP3 ISZERO PUSH2 0x31F1 JUMPI SWAP2 DUP3 ADD JUMPDEST DUP3 DUP2 GT ISZERO PUSH2 0x31F1 JUMPI DUP3 MLOAD DUP3 SSTORE SWAP2 PUSH1 0x20 ADD SWAP2 SWAP1 PUSH1 0x1 ADD SWAP1 PUSH2 0x31D6 JUMP JUMPDEST POP PUSH2 0x1671 SWAP3 SWAP2 POP JUMPDEST DUP1 DUP3 GT ISZERO PUSH2 0x1671 JUMPI PUSH1 0x0 DUP2 SSTORE PUSH1 0x1 ADD PUSH2 0x31F9 JUMP JUMPDEST DUP1 CALLDATALOAD PUSH1 0x1 PUSH1 0x1 PUSH1 0xA0 SHL SUB DUP2 AND DUP2 EQ PUSH2 0x1428 JUMPI PUSH1 0x0 DUP1 REVERT JUMPDEST PUSH1 0x0 PUSH1 0x20 DUP3 DUP5 SUB SLT ISZERO PUSH2 0x3236 JUMPI PUSH1 0x0 DUP1 REVERT JUMPDEST PUSH2 0x21C4 DUP3 PUSH2 0x320D JUMP JUMPDEST PUSH1 0x1 PUSH1 0x1 PUSH1 0xE0 SHL SUB NOT DUP2 AND DUP2 EQ PUSH2 0x1530 JUMPI PUSH1 0x0 DUP1 REVERT JUMPDEST PUSH1 0x0 PUSH1 0x20 DUP3 DUP5 SUB SLT ISZERO PUSH2 0x3267 JUMPI PUSH1 0x0 DUP1 REVERT JUMPDEST DUP2 CALLDATALOAD PUSH2 0x21C4 DUP2 PUSH2 0x323F JUMP JUMPDEST PUSH1 0x0 JUMPDEST DUP4 DUP2 LT ISZERO PUSH2 0x328D JUMPI DUP2 DUP2 ADD MLOAD DUP4 DUP3 ADD MSTORE PUSH1 0x20 ADD PUSH2 0x3275 JUMP JUMPDEST DUP4 DUP2 GT ISZERO PUSH2 0x1EB7 JUMPI POP POP PUSH1 0x0 SWAP2 ADD MSTORE JUMP JUMPDEST PUSH1 0x0 DUP2 MLOAD DUP1 DUP5 MSTORE PUSH2 0x32B6 DUP2 PUSH1 0x20 DUP7 ADD PUSH1 0x20 DUP7 ADD PUSH2 0x3272 JUMP JUMPDEST PUSH1 0x1F ADD PUSH1 0x1F NOT AND SWAP3 SWAP1 SWAP3 ADD PUSH1 0x20 ADD SWAP3 SWAP2 POP POP JUMP JUMPDEST PUSH1 0x20 DUP2 MSTORE PUSH1 0x0 PUSH2 0x21C4 PUSH1 0x20 DUP4 ADD DUP5 PUSH2 0x329E JUMP JUMPDEST PUSH1 0x0 PUSH1 0x20 DUP3 DUP5 SUB SLT ISZERO PUSH2 0x32EF JUMPI PUSH1 0x0 DUP1 REVERT JUMPDEST POP CALLDATALOAD SWAP2 SWAP1 POP JUMP JUMPDEST PUSH1 0x0 DUP1 PUSH1 0x40 DUP4 DUP6 SUB SLT ISZERO PUSH2 0x3309 JUMPI PUSH1 0x0 DUP1 REVERT JUMPDEST PUSH2 0x3312 DUP4 PUSH2 0x320D JUMP JUMPDEST SWAP5 PUSH1 0x20 SWAP4 SWAP1 SWAP4 ADD CALLDATALOAD SWAP4 POP POP POP JUMP JUMPDEST PUSH1 0x0 DUP1 PUSH1 0x40 DUP4 DUP6 SUB SLT ISZERO PUSH2 0x3333 JUMPI PUSH1 0x0 DUP1 REVERT JUMPDEST DUP3 CALLDATALOAD SWAP2 POP PUSH2 0x3343 PUSH1 0x20 DUP5 ADD PUSH2 0x320D JUMP JUMPDEST SWAP1 POP SWAP3 POP SWAP3 SWAP1 POP JUMP JUMPDEST PUSH1 0x0 DUP1 PUSH1 0x0 PUSH1 0x60 DUP5 DUP7 SUB SLT ISZERO PUSH2 0x3361 JUMPI PUSH1 0x0 DUP1 REVERT JUMPDEST PUSH2 0x336A DUP5 PUSH2 0x320D JUMP JUMPDEST SWAP3 POP PUSH2 0x3378 PUSH1 0x20 DUP6 ADD PUSH2 0x320D JUMP JUMPDEST SWAP2 POP PUSH1 0x40 DUP5 ADD CALLDATALOAD SWAP1 POP SWAP3 POP SWAP3 POP SWAP3 JUMP JUMPDEST DUP1 CALLDATALOAD PUSH1 0xFF DUP2 AND DUP2 EQ PUSH2 0x1428 JUMPI PUSH1 0x0 DUP1 REVERT JUMPDEST PUSH1 0x0 DUP1 PUSH1 0x0 DUP1 PUSH1 0x80 DUP6 DUP8 SUB SLT ISZERO PUSH2 0x33AF JUMPI PUSH1 0x0 DUP1 REVERT JUMPDEST PUSH2 0x33B8 DUP6 PUSH2 0x320D JUMP JUMPDEST SWAP4 POP PUSH2 0x33C6 PUSH1 0x20 DUP7 ADD PUSH2 0x3388 JUMP JUMPDEST SWAP4 SWAP7 SWAP4 SWAP6 POP POP POP POP PUSH1 0x40 DUP3 ADD CALLDATALOAD SWAP2 PUSH1 0x60 ADD CALLDATALOAD SWAP1 JUMP JUMPDEST PUSH4 0x4E487B71 PUSH1 0xE0 SHL PUSH1 0x0 MSTORE PUSH1 0x41 PUSH1 0x4 MSTORE PUSH1 0x24 PUSH1 0x0 REVERT JUMPDEST PUSH1 0x0 PUSH8 0xFFFFFFFFFFFFFFFF DUP1 DUP5 GT ISZERO PUSH2 0x340C JUMPI PUSH2 0x340C PUSH2 0x33DB JUMP JUMPDEST PUSH1 0x40 MLOAD PUSH1 0x1F DUP6 ADD PUSH1 0x1F NOT SWAP1 DUP2 AND PUSH1 0x3F ADD AND DUP2 ADD SWAP1 DUP3 DUP3 GT DUP2 DUP4 LT OR ISZERO PUSH2 0x3434 JUMPI PUSH2 0x3434 PUSH2 0x33DB JUMP JUMPDEST DUP2 PUSH1 0x40 MSTORE DUP1 SWAP4 POP DUP6 DUP2 MSTORE DUP7 DUP7 DUP7 ADD GT ISZERO PUSH2 0x344D JUMPI PUSH1 0x0 DUP1 REVERT JUMPDEST DUP6 DUP6 PUSH1 0x20 DUP4 ADD CALLDATACOPY PUSH1 0x0 PUSH1 0x20 DUP8 DUP4 ADD ADD MSTORE POP POP POP SWAP4 SWAP3 POP POP POP JUMP JUMPDEST PUSH1 0x0 PUSH1 0x20 DUP3 DUP5 SUB SLT ISZERO PUSH2 0x3479 JUMPI PUSH1 0x0 DUP1 REVERT JUMPDEST DUP2 CALLDATALOAD PUSH8 0xFFFFFFFFFFFFFFFF DUP2 GT ISZERO PUSH2 0x3490 JUMPI PUSH1 0x0 DUP1 REVERT JUMPDEST DUP3 ADD PUSH1 0x1F DUP2 ADD DUP5 SGT PUSH2 0x34A1 JUMPI PUSH1 0x0 DUP1 REVERT JUMPDEST PUSH2 0x12A6 DUP5 DUP3 CALLDATALOAD PUSH1 0x20 DUP5 ADD PUSH2 0x33F1 JUMP JUMPDEST PUSH4 0x4E487B71 PUSH1 0xE0 SHL PUSH1 0x0 MSTORE PUSH1 0x21 PUSH1 0x4 MSTORE PUSH1 0x24 PUSH1 0x0 REVERT JUMPDEST PUSH1 0x20 DUP2 ADD PUSH1 0x3 DUP4 LT PUSH2 0x34E8 JUMPI PUSH4 0x4E487B71 PUSH1 0xE0 SHL PUSH1 0x0 MSTORE PUSH1 0x21 PUSH1 0x4 MSTORE PUSH1 0x24 PUSH1 0x0 REVERT JUMPDEST SWAP2 SWAP1 MSTORE SWAP1 JUMP JUMPDEST PUSH1 0x0 DUP1 PUSH1 0x40 DUP4 DUP6 SUB SLT ISZERO PUSH2 0x3501 JUMPI PUSH1 0x0 DUP1 REVERT JUMPDEST PUSH2 0x350A DUP4 PUSH2 0x320D JUMP JUMPDEST SWAP2 POP PUSH1 0x20 DUP4 ADD CALLDATALOAD DUP1 ISZERO ISZERO DUP2 EQ PUSH2 0x351F JUMPI PUSH1 0x0 DUP1 REVERT JUMPDEST DUP1 SWAP2 POP POP SWAP3 POP SWAP3 SWAP1 POP JUMP JUMPDEST PUSH1 0x0 DUP1 PUSH1 0x0 DUP1 PUSH1 0x80 DUP6 DUP8 SUB SLT ISZERO PUSH2 0x3540 JUMPI PUSH1 0x0 DUP1 REVERT JUMPDEST PUSH2 0x3549 DUP6 PUSH2 0x320D JUMP JUMPDEST SWAP4 POP PUSH2 0x3557 PUSH1 0x20 DUP7 ADD PUSH2 0x320D JUMP JUMPDEST SWAP3 POP PUSH1 0x40 DUP6 ADD CALLDATALOAD SWAP2 POP PUSH1 0x60 DUP6 ADD CALLDATALOAD PUSH8 0xFFFFFFFFFFFFFFFF DUP2 GT ISZERO PUSH2 0x357A JUMPI PUSH1 0x0 DUP1 REVERT JUMPDEST DUP6 ADD PUSH1 0x1F DUP2 ADD DUP8 SGT PUSH2 0x358B JUMPI PUSH1 0x0 DUP1 REVERT JUMPDEST PUSH2 0x359A DUP8 DUP3 CALLDATALOAD PUSH1 0x20 DUP5 ADD PUSH2 0x33F1 JUMP JUMPDEST SWAP2 POP POP SWAP3 SWAP6 SWAP2 SWAP5 POP SWAP3 POP JUMP JUMPDEST PUSH1 0x0 DUP1 PUSH1 0x0 DUP1 PUSH1 0x80 DUP6 DUP8 SUB SLT ISZERO PUSH2 0x35BC JUMPI PUSH1 0x0 DUP1 REVERT JUMPDEST DUP5 CALLDATALOAD SWAP4 POP PUSH2 0x33C6 PUSH1 0x20 DUP7 ADD PUSH2 0x3388 JUMP JUMPDEST PUSH1 0x0 DUP1 PUSH1 0x40 DUP4 DUP6 SUB SLT ISZERO PUSH2 0x35DF JUMPI PUSH1 0x0 DUP1 REVERT JUMPDEST PUSH2 0x35E8 DUP4 PUSH2 0x320D JUMP JUMPDEST SWAP2 POP PUSH2 0x3343 PUSH1 0x20 DUP5 ADD PUSH2 0x320D JUMP JUMPDEST PUSH1 0x1 DUP2 DUP2 SHR SWAP1 DUP3 AND DUP1 PUSH2 0x360A JUMPI PUSH1 0x7F DUP3 AND SWAP2 POP JUMPDEST PUSH1 0x20 DUP3 LT DUP2 SUB PUSH2 0x362A JUMPI PUSH4 0x4E487B71 PUSH1 0xE0 SHL PUSH1 0x0 MSTORE PUSH1 0x22 PUSH1 0x4 MSTORE PUSH1 0x24 PUSH1 0x0 REVERT JUMPDEST POP SWAP2 SWAP1 POP JUMP JUMPDEST PUSH4 0x4E487B71 PUSH1 0xE0 SHL PUSH1 0x0 MSTORE PUSH1 0x11 PUSH1 0x4 MSTORE PUSH1 0x24 PUSH1 0x0 REVERT JUMPDEST PUSH1 0x0 DUP3 DUP3 LT ISZERO PUSH2 0x3658 JUMPI PUSH2 0x3658 PUSH2 0x3630 JUMP JUMPDEST POP SUB SWAP1 JUMP JUMPDEST PUSH1 0x0 DUP3 NOT DUP3 GT ISZERO PUSH2 0x3670 JUMPI PUSH2 0x3670 PUSH2 0x3630 JUMP JUMPDEST POP ADD SWAP1 JUMP JUMPDEST PUSH1 0x0 PUSH1 0x20 DUP3 DUP5 SUB SLT ISZERO PUSH2 0x3687 JUMPI PUSH1 0x0 DUP1 REVERT JUMPDEST POP MLOAD SWAP2 SWAP1 POP JUMP JUMPDEST PUSH1 0x0 DUP2 PUSH1 0x0 NOT DIV DUP4 GT DUP3 ISZERO ISZERO AND ISZERO PUSH2 0x36A8 JUMPI PUSH2 0x36A8 PUSH2 0x3630 JUMP JUMPDEST POP MUL SWAP1 JUMP JUMPDEST PUSH4 0x4E487B71 PUSH1 0xE0 SHL PUSH1 0x0 MSTORE PUSH1 0x12 PUSH1 0x4 MSTORE PUSH1 0x24 PUSH1 0x0 REVERT JUMPDEST PUSH1 0x0 DUP3 PUSH2 0x36D2 JUMPI PUSH2 0x36D2 PUSH2 0x36AD JUMP JUMPDEST POP DIV SWAP1 JUMP JUMPDEST PUSH1 0x0 DUP4 MLOAD PUSH2 0x36E9 DUP2 DUP5 PUSH1 0x20 DUP9 ADD PUSH2 0x3272 JUMP JUMPDEST DUP4 MLOAD SWAP1 DUP4 ADD SWAP1 PUSH2 0x36FD DUP2 DUP4 PUSH1 0x20 DUP9 ADD PUSH2 0x3272 JUMP JUMPDEST PUSH32 0x2E6A736F6E000000000000000000000000000000000000000000000000000000 SWAP2 ADD SWAP1 DUP2 MSTORE PUSH1 0x5 ADD SWAP5 SWAP4 POP POP POP POP JUMP JUMPDEST PUSH1 0x0 PUSH1 0x1 PUSH1 0x1 PUSH1 0xA0 SHL SUB DUP1 DUP8 AND DUP4 MSTORE DUP1 DUP7 AND PUSH1 0x20 DUP5 ADD MSTORE POP DUP4 PUSH1 0x40 DUP4 ADD MSTORE PUSH1 0x80 PUSH1 0x60 DUP4 ADD MSTORE PUSH2 0x3760 PUSH1 0x80 DUP4 ADD DUP5 PUSH2 0x329E JUMP JUMPDEST SWAP7 SWAP6 POP POP POP POP POP POP JUMP JUMPDEST PUSH1 0x0 PUSH1 0x20 DUP3 DUP5 SUB SLT ISZERO PUSH2 0x377C JUMPI PUSH1 0x0 DUP1 REVERT JUMPDEST DUP2 MLOAD PUSH2 0x21C4 DUP2 PUSH2 0x323F JUMP JUMPDEST PUSH1 0x0 PUSH1 0x1 DUP3 ADD PUSH2 0x3799 JUMPI PUSH2 0x3799 PUSH2 0x3630 JUMP JUMPDEST POP PUSH1 0x1 ADD SWAP1 JUMP JUMPDEST PUSH1 0x0 DUP3 PUSH2 0x37AF JUMPI PUSH2 0x37AF PUSH2 0x36AD JUMP JUMPDEST POP MOD SWAP1 JUMP JUMPDEST PUSH4 0x4E487B71 PUSH1 0xE0 SHL PUSH1 0x0 MSTORE PUSH1 0x32 PUSH1 0x4 MSTORE PUSH1 0x24 PUSH1 0x0 REVERT INVALID 0x4F PUSH24 0x6E61626C653A2063616C6C6572206973206E6F7420746865 KECCAK256 PUSH16 0x776E6572A26469706673582212202502 0xBD AND CODESIZE 0xCD DUP1 CREATE LT MSIZE 0xB6 0xD9 0xE2 0xE5 0xB5 JUMPI 0xB3 0xE7 0xC8 0xD7 0xB9 0x4A ADDRESS PUSH6 0xF2E1B771F57 SWAP15 REVERT PUSH5 0x736F6C6343 STOP ADDMOD 0xD STOP CALLER "
    },
    "gasEstimates": {
      "creation": {
        "codeDepositCost": "2873600",
        "executionCost": "infinite",
        "totalCost": "infinite"
      },
      "external": {
        "": "215",
        "OGMintsLeft(address)": "infinite",
        "OGSaleMint(uint256)": "infinite",
        "accountBalance()": "infinite",
        "addTokens(uint256)": "infinite",
        "approve(address,uint256)": "infinite",
        "balanceOf(address)": "2686",
        "balanceOfCrazyCamels(address)": "infinite",
        "changeBaseURI(string)": "infinite",
        "changeCrazyCamels(address)": "infinite",
        "changeDummy(address)": "infinite",
        "changeMaxMint(uint256)": "infinite",
        "changeMintCost(uint256)": "infinite",
        "changeUnrevealedURI(string)": "infinite",
        "getApproved(uint256)": "4701",
        "isApprovedForAll(address,address)": "infinite",
        "isOGPaused()": "2394",
        "isPaused()": "2404",
        "isValidAccessMessage(address,uint8,bytes32,bytes32)": "infinite",
        "maxMintPresale()": "2427",
        "maxMintPublicSale()": "2408",
        "maxTotalTokens()": "2384",
        "mintCost()": "6742",
        "mintsPerAddress(address)": "2588",
        "name()": "infinite",
        "owner()": "2443",
        "ownerOf(uint256)": "infinite",
        "presaleMint(uint256,uint8,bytes32,bytes32)": "infinite",
        "publicSaleMint(uint256)": "infinite",
        "renounceOwnership()": "infinite",
        "reservedMint(uint256,address)": "infinite",
        "reservedMintsLeft()": "infinite",
        "reveal()": "26621",
        "safeTransferFrom(address,address,uint256)": "infinite",
        "safeTransferFrom(address,address,uint256,bytes)": "infinite",
        "saleState()": "4616",
        "setApprovalForAll(address,bool)": "26715",
        "supportsInterface(bytes4)": "657",
        "switchToPresale()": "26703",
        "switchToPublicSale()": "28825",
        "symbol()": "infinite",
        "timeOfReveal()": "4503",
        "toggleOGPause()": "infinite",
        "togglePause()": "infinite",
        "tokenByIndex(uint256)": "2545",
        "tokenOfOwnerByIndex(address,uint256)": "infinite",
        "tokenURI(uint256)": "infinite",
        "totalSupply()": "2350",
        "transferFrom(address,address,uint256)": "infinite",
        "transferOwnership(address)": "28378",
        "unrevealedURI()": "infinite",
        "withdraw()": "infinite"
      },
      "internal": {
        "_baseURI()": "infinite",
        "_withdraw(address payable,uint256)": "infinite"
      }
    },
    "methodIdentifiers": {
      "OGMintsLeft(address)": "3b478c2c",
      "OGSaleMint(uint256)": "092cd34a",
      "accountBalance()": "b0a1c1c4",
      "addTokens(uint256)": "c6ed8990",
      "approve(address,uint256)": "095ea7b3",
      "balanceOf(address)": "70a08231",
      "balanceOfCrazyCamels(address)": "f8ccc3ce",
      "changeBaseURI(string)": "39a0c6f9",
      "changeCrazyCamels(address)": "af1035de",
      "changeDummy(address)": "0191a657",
      "changeMaxMint(uint256)": "20c63e3b",
      "changeMintCost(uint256)": "7f1921ef",
      "changeUnrevealedURI(string)": "c4d8b9df",
      "getApproved(uint256)": "081812fc",
      "isApprovedForAll(address,address)": "e985e9c5",
      "isOGPaused()": "45cb2e52",
      "isPaused()": "b187bd26",
      "isValidAccessMessage(address,uint8,bytes32,bytes32)": "32624114",
      "maxMintPresale()": "ffcd55a8",
      "maxMintPublicSale()": "19734c8b",
      "maxTotalTokens()": "5a4dd61c",
      "mintCost()": "bdb4b848",
      "mintsPerAddress(address)": "3023eba6",
      "name()": "06fdde03",
      "owner()": "8da5cb5b",
      "ownerOf(uint256)": "6352211e",
      "presaleMint(uint256,uint8,bytes32,bytes32)": "dcd4e732",
      "publicSaleMint(uint256)": "b3ab66b0",
      "renounceOwnership()": "715018a6",
      "reservedMint(uint256,address)": "18df6403",
      "reservedMintsLeft()": "4520e916",
      "reveal()": "a475b5dd",
      "safeTransferFrom(address,address,uint256)": "42842e0e",
      "safeTransferFrom(address,address,uint256,bytes)": "b88d4fde",
      "saleState()": "603f4d52",
      "setApprovalForAll(address,bool)": "a22cb465",
      "supportsInterface(bytes4)": "01ffc9a7",
      "switchToPresale()": "eab41782",
      "switchToPublicSale()": "ff984994",
      "symbol()": "95d89b41",
      "timeOfReveal()": "7c76f698",
      "toggleOGPause()": "46e0d1ab",
      "togglePause()": "c4ae3168",
      "tokenByIndex(uint256)": "4f6ccce7",
      "tokenOfOwnerByIndex(address,uint256)": "2f745c59",
      "tokenURI(uint256)": "c87b56dd",
      "totalSupply()": "18160ddd",
      "transferFrom(address,address,uint256)": "23b872dd",
      "transferOwnership(address)": "f2fde38b",
      "unrevealedURI()": "7035bf18",
      "withdraw()": "3ccfd60b"
    }
  },
  "storageLayout": {
    "storage": [
      {
        "astId": 1687,
        "contract": "EvolvedCamels.sol:EvolvedCamels",
        "label": "currentIndex",
        "offset": 0,
        "slot": "0",
        "type": "t_uint256"
      },
      {
        "astId": 1689,
        "contract": "EvolvedCamels.sol:EvolvedCamels",
        "label": "_name",
        "offset": 0,
        "slot": "1",
        "type": "t_string_storage"
      },
      {
        "astId": 1691,
        "contract": "EvolvedCamels.sol:EvolvedCamels",
        "label": "_symbol",
        "offset": 0,
        "slot": "2",
        "type": "t_string_storage"
      },
      {
        "astId": 1696,
        "contract": "EvolvedCamels.sol:EvolvedCamels",
        "label": "_ownerships",
        "offset": 0,
        "slot": "3",
        "type": "t_mapping(t_uint256,t_struct(TokenOwnership)1680_storage)"
      },
      {
        "astId": 1701,
        "contract": "EvolvedCamels.sol:EvolvedCamels",
        "label": "_addressData",
        "offset": 0,
        "slot": "4",
        "type": "t_mapping(t_address,t_struct(AddressData)1685_storage)"
      },
      {
        "astId": 1705,
        "contract": "EvolvedCamels.sol:EvolvedCamels",
        "label": "_tokenApprovals",
        "offset": 0,
        "slot": "5",
        "type": "t_mapping(t_uint256,t_address)"
      },
      {
        "astId": 1711,
        "contract": "EvolvedCamels.sol:EvolvedCamels",
        "label": "_operatorApprovals",
        "offset": 0,
        "slot": "6",
        "type": "t_mapping(t_address,t_mapping(t_address,t_bool))"
      },
      {
        "astId": 229,
        "contract": "EvolvedCamels.sol:EvolvedCamels",
        "label": "_owner",
        "offset": 0,
        "slot": "7",
        "type": "t_address"
      },
      {
        "astId": 2728,
        "contract": "EvolvedCamels.sol:EvolvedCamels",
        "label": "maxTotalTokens",
        "offset": 0,
        "slot": "8",
        "type": "t_uint256"
      },
      {
        "astId": 2730,
        "contract": "EvolvedCamels.sol:EvolvedCamels",
        "label": "_currentBaseURI",
        "offset": 0,
        "slot": "9",
        "type": "t_string_storage"
      },
      {
        "astId": 2733,
        "contract": "EvolvedCamels.sol:EvolvedCamels",
        "label": "mintCostPresale",
        "offset": 0,
        "slot": "10",
        "type": "t_uint256"
      },
      {
        "astId": 2736,
        "contract": "EvolvedCamels.sol:EvolvedCamels",
        "label": "mintCostPublicSale",
        "offset": 0,
        "slot": "11",
        "type": "t_uint256"
      },
      {
        "astId": 2739,
        "contract": "EvolvedCamels.sol:EvolvedCamels",
        "label": "maxMintPresale",
        "offset": 0,
        "slot": "12",
        "type": "t_uint256"
      },
      {
        "astId": 2742,
        "contract": "EvolvedCamels.sol:EvolvedCamels",
        "label": "maxMintPublicSale",
        "offset": 0,
        "slot": "13",
        "type": "t_uint256"
      },
      {
        "astId": 2744,
        "contract": "EvolvedCamels.sol:EvolvedCamels",
        "label": "_reservedMints",
        "offset": 0,
        "slot": "14",
        "type": "t_uint256"
      },
      {
        "astId": 2747,
        "contract": "EvolvedCamels.sol:EvolvedCamels",
        "label": "maxReservedMints",
        "offset": 0,
        "slot": "15",
        "type": "t_uint256"
      },
      {
        "astId": 2750,
        "contract": "EvolvedCamels.sol:EvolvedCamels",
        "label": "dummy",
        "offset": 0,
        "slot": "16",
        "type": "t_address"
      },
      {
        "astId": 2752,
        "contract": "EvolvedCamels.sol:EvolvedCamels",
        "label": "presaleLaunchTime",
        "offset": 0,
        "slot": "17",
        "type": "t_uint256"
      },
      {
        "astId": 2754,
        "contract": "EvolvedCamels.sol:EvolvedCamels",
        "label": "publicSaleLaunchTime",
        "offset": 0,
        "slot": "18",
        "type": "t_uint256"
      },
      {
        "astId": 2756,
        "contract": "EvolvedCamels.sol:EvolvedCamels",
        "label": "revealTime",
        "offset": 0,
        "slot": "19",
        "type": "t_uint256"
      },
      {
        "astId": 2758,
        "contract": "EvolvedCamels.sol:EvolvedCamels",
        "label": "paused_",
        "offset": 0,
        "slot": "20",
        "type": "t_bool"
      },
      {
        "astId": 2760,
        "contract": "EvolvedCamels.sol:EvolvedCamels",
        "label": "OGpaused_",
        "offset": 1,
        "slot": "20",
        "type": "t_bool"
      },
      {
        "astId": 2764,
        "contract": "EvolvedCamels.sol:EvolvedCamels",
        "label": "mintsPerAddress",
        "offset": 0,
        "slot": "21",
        "type": "t_mapping(t_address,t_uint256)"
      },
      {
        "astId": 2768,
        "contract": "EvolvedCamels.sol:EvolvedCamels",
        "label": "OGmintsPerAddress",
        "offset": 0,
        "slot": "22",
        "type": "t_mapping(t_address,t_uint256)"
      },
      {
        "astId": 2771,
        "contract": "EvolvedCamels.sol:EvolvedCamels",
        "label": "CrazyCamels",
        "offset": 0,
        "slot": "23",
        "type": "t_contract(IERC721)785"
      },
      {
        "astId": 2777,
        "contract": "EvolvedCamels.sol:EvolvedCamels",
        "label": "unrevealedURI",
        "offset": 0,
        "slot": "24",
        "type": "t_string_storage"
      }
    ],
    "types": {
      "t_address": {
        "encoding": "inplace",
        "label": "address",
        "numberOfBytes": "20"
      },
      "t_bool": {
        "encoding": "inplace",
        "label": "bool",
        "numberOfBytes": "1"
      },
      "t_contract(IERC721)785": {
        "encoding": "inplace",
        "label": "contract IERC721",
        "numberOfBytes": "20"
      },
      "t_mapping(t_address,t_bool)": {
        "encoding": "mapping",
        "key": "t_address",
        "label": "mapping(address => bool)",
        "numberOfBytes": "32",
        "value": "t_bool"
      },
      "t_mapping(t_address,t_mapping(t_address,t_bool))": {
        "encoding": "mapping",
        "key": "t_address",
        "label": "mapping(address => mapping(address => bool))",
        "numberOfBytes": "32",
        "value": "t_mapping(t_address,t_bool)"
      },
      "t_mapping(t_address,t_struct(AddressData)1685_storage)": {
        "encoding": "mapping",
        "key": "t_address",
        "label": "mapping(address => struct ERC721A.AddressData)",
        "numberOfBytes": "32",
        "value": "t_struct(AddressData)1685_storage"
      },
      "t_mapping(t_address,t_uint256)": {
        "encoding": "mapping",
        "key": "t_address",
        "label": "mapping(address => uint256)",
        "numberOfBytes": "32",
        "value": "t_uint256"
      },
      "t_mapping(t_uint256,t_address)": {
        "encoding": "mapping",
        "key": "t_uint256",
        "label": "mapping(uint256 => address)",
        "numberOfBytes": "32",
        "value": "t_address"
      },
      "t_mapping(t_uint256,t_struct(TokenOwnership)1680_storage)": {
        "encoding": "mapping",
        "key": "t_uint256",
        "label": "mapping(uint256 => struct ERC721A.TokenOwnership)",
        "numberOfBytes": "32",
        "value": "t_struct(TokenOwnership)1680_storage"
      },
      "t_string_storage": {
        "encoding": "bytes",
        "label": "string",
        "numberOfBytes": "32"
      },
      "t_struct(AddressData)1685_storage": {
        "encoding": "inplace",
        "label": "struct ERC721A.AddressData",
        "members": [
          {
            "astId": 1682,
            "contract": "EvolvedCamels.sol:EvolvedCamels",
            "label": "balance",
            "offset": 0,
            "slot": "0",
            "type": "t_uint128"
          },
          {
            "astId": 1684,
            "contract": "EvolvedCamels.sol:EvolvedCamels",
            "label": "numberMinted",
            "offset": 16,
            "slot": "0",
            "type": "t_uint128"
          }
        ],
        "numberOfBytes": "32"
      },
      "t_struct(TokenOwnership)1680_storage": {
        "encoding": "inplace",
        "label": "struct ERC721A.TokenOwnership",
        "members": [
          {
            "astId": 1677,
            "contract": "EvolvedCamels.sol:EvolvedCamels",
            "label": "addr",
            "offset": 0,
            "slot": "0",
            "type": "t_address"
          },
          {
            "astId": 1679,
            "contract": "EvolvedCamels.sol:EvolvedCamels",
            "label": "startTimestamp",
            "offset": 20,
            "slot": "0",
            "type": "t_uint64"
          }
        ],
        "numberOfBytes": "32"
      },
      "t_uint128": {
        "encoding": "inplace",
        "label": "uint128",
        "numberOfBytes": "16"
      },
      "t_uint256": {
        "encoding": "inplace",
        "label": "uint256",
        "numberOfBytes": "32"
      },
      "t_uint64": {
        "encoding": "inplace",
        "label": "uint64",
        "numberOfBytes": "8"
      }
    }
  },
  "userdoc": {
    "kind": "user",
    "methods": {},
    "version": 1
  }
}