{
    "contractName": "OasisLend",
    "abi": [
        {
            "inputs": [],
            "name": "ContractBalanceTooLow",
            "type": "error"
        },
        {
            "inputs": [],
            "name": "DoesNotOwnNFT",
            "type": "error"
        },
        {
            "inputs": [],
            "name": "InactiveCollection",
            "type": "error"
        },
        {
            "inputs": [],
            "name": "InactiveLoan",
            "type": "error"
        },
        {
            "inputs": [],
            "name": "LoanActive",
            "type": "error"
        },
        {
            "inputs": [],
            "name": "LoanInactive",
            "type": "error"
        },
        {
            "inputs": [],
            "name": "NoCollateral",
            "type": "error"
        },
        {
            "inputs": [],
            "name": "TokenNotApproved",
            "type": "error"
        },
        {
            "inputs": [],
            "name": "UserBalanceTooLow",
            "type": "error"
        },
        {
            "anonymous": false,
            "inputs": [
                {
                    "indexed": true,
                    "internalType": "address",
                    "name": "previousOwner",
                    "type": "address"
                },
                {
                    "indexed": true,
                    "internalType": "address",
                    "name": "newOwner",
                    "type": "address"
                }
            ],
            "name": "OwnershipTransferred",
            "type": "event"
        },
        {
            "anonymous": false,
            "inputs": [
                {
                    "indexed": false,
                    "internalType": "address",
                    "name": "account",
                    "type": "address"
                }
            ],
            "name": "Paused",
            "type": "event"
        },
        {
            "anonymous": false,
            "inputs": [
                {
                    "indexed": false,
                    "internalType": "address",
                    "name": "account",
                    "type": "address"
                }
            ],
            "name": "Unpaused",
            "type": "event"
        },
        {
            "inputs": [
                {
                    "internalType": "address",
                    "name": "_collection",
                    "type": "address"
                },
                {
                    "internalType": "uint256",
                    "name": "_floor",
                    "type": "uint256"
                }
            ],
            "name": "addCollection",
            "outputs": [],
            "stateMutability": "nonpayable",
            "type": "function"
        },
        {
            "inputs": [
                {
                    "internalType": "address",
                    "name": "_collection",
                    "type": "address"
                },
                {
                    "internalType": "uint256[]",
                    "name": "_tokenIds",
                    "type": "uint256[]"
                }
            ],
            "name": "borrow",
            "outputs": [],
            "stateMutability": "payable",
            "type": "function"
        },
        {
            "inputs": [
                {
                    "internalType": "address",
                    "name": "",
                    "type": "address"
                }
            ],
            "name": "collection",
            "outputs": [
                {
                    "internalType": "bool",
                    "name": "isActive",
                    "type": "bool"
                },
                {
                    "internalType": "uint256",
                    "name": "floor",
                    "type": "uint256"
                }
            ],
            "stateMutability": "view",
            "type": "function"
        },
        {
            "inputs": [],
            "name": "deposit",
            "outputs": [],
            "stateMutability": "payable",
            "type": "function"
        },
        {
            "inputs": [
                {
                    "internalType": "address",
                    "name": "_user",
                    "type": "address"
                },
                {
                    "internalType": "address",
                    "name": "_collection",
                    "type": "address"
                },
                {
                    "internalType": "uint256",
                    "name": "_tokenAmount",
                    "type": "uint256"
                }
            ],
            "name": "getBorrowAmount",
            "outputs": [
                {
                    "internalType": "uint256",
                    "name": "borrowAmount_",
                    "type": "uint256"
                }
            ],
            "stateMutability": "view",
            "type": "function"
        },
        {
            "inputs": [
                {
                    "internalType": "address",
                    "name": "",
                    "type": "address"
                }
            ],
            "name": "loan",
            "outputs": [
                {
                    "internalType": "bool",
                    "name": "isActive",
                    "type": "bool"
                },
                {
                    "internalType": "uint256",
                    "name": "loanStart",
                    "type": "uint256"
                },
                {
                    "internalType": "address",
                    "name": "collection",
                    "type": "address"
                },
                {
                    "internalType": "uint256",
                    "name": "borrowAmount",
                    "type": "uint256"
                }
            ],
            "stateMutability": "view",
            "type": "function"
        },
        {
            "inputs": [],
            "name": "owner",
            "outputs": [
                {
                    "internalType": "address",
                    "name": "",
                    "type": "address"
                }
            ],
            "stateMutability": "view",
            "type": "function"
        },
        {
            "inputs": [],
            "name": "pause",
            "outputs": [],
            "stateMutability": "nonpayable",
            "type": "function"
        },
        {
            "inputs": [],
            "name": "paused",
            "outputs": [
                {
                    "internalType": "bool",
                    "name": "",
                    "type": "bool"
                }
            ],
            "stateMutability": "view",
            "type": "function"
        },
        {
            "inputs": [
                {
                    "internalType": "address",
                    "name": "_collection",
                    "type": "address"
                }
            ],
            "name": "removeCollection",
            "outputs": [],
            "stateMutability": "nonpayable",
            "type": "function"
        },
        {
            "inputs": [],
            "name": "renounceOwnership",
            "outputs": [],
            "stateMutability": "nonpayable",
            "type": "function"
        },
        {
            "inputs": [],
            "name": "repay",
            "outputs": [],
            "stateMutability": "payable",
            "type": "function"
        },
        {
            "inputs": [
                {
                    "internalType": "address",
                    "name": "_collection",
                    "type": "address"
                },
                {
                    "internalType": "uint256",
                    "name": "_floor",
                    "type": "uint256"
                }
            ],
            "name": "setCollectionFloor",
            "outputs": [],
            "stateMutability": "nonpayable",
            "type": "function"
        },
        {
            "inputs": [
                {
                    "components": [
                        {
                            "internalType": "address",
                            "name": "evolvedCamels",
                            "type": "address"
                        },
                        {
                            "internalType": "uint256",
                            "name": "loanDuration",
                            "type": "uint256"
                        },
                        {
                            "internalType": "uint256",
                            "name": "borrowFee",
                            "type": "uint256"
                        },
                        {
                            "internalType": "uint256",
                            "name": "nonEvolvedRate",
                            "type": "uint256"
                        },
                        {
                            "internalType": "uint256",
                            "name": "evolvedRate",
                            "type": "uint256"
                        },
                        {
                            "internalType": "uint256",
                            "name": "cavalryRate",
                            "type": "uint256"
                        },
                        {
                            "internalType": "uint256",
                            "name": "innerCircleRate",
                            "type": "uint256"
                        },
                        {
                            "internalType": "uint256",
                            "name": "evolvedBalance",
                            "type": "uint256"
                        },
                        {
                            "internalType": "uint256",
                            "name": "cavalryBalance",
                            "type": "uint256"
                        },
                        {
                            "internalType": "uint256",
                            "name": "innerCircleBalance",
                            "type": "uint256"
                        },
                        {
                            "internalType": "uint256",
                            "name": "gracePeriod",
                            "type": "uint256"
                        },
                        {
                            "internalType": "uint256",
                            "name": "lateFee",
                            "type": "uint256"
                        }
                    ],
                    "internalType": "struct OasisLend.StateVariables",
                    "name": "_stateVariables",
                    "type": "tuple"
                }
            ],
            "name": "setStateVariables",
            "outputs": [],
            "stateMutability": "nonpayable",
            "type": "function"
        },
        {
            "inputs": [],
            "name": "stateVariables",
            "outputs": [
                {
                    "internalType": "address",
                    "name": "evolvedCamels",
                    "type": "address"
                },
                {
                    "internalType": "uint256",
                    "name": "loanDuration",
                    "type": "uint256"
                },
                {
                    "internalType": "uint256",
                    "name": "borrowFee",
                    "type": "uint256"
                },
                {
                    "internalType": "uint256",
                    "name": "nonEvolvedRate",
                    "type": "uint256"
                },
                {
                    "internalType": "uint256",
                    "name": "evolvedRate",
                    "type": "uint256"
                },
                {
                    "internalType": "uint256",
                    "name": "cavalryRate",
                    "type": "uint256"
                },
                {
                    "internalType": "uint256",
                    "name": "innerCircleRate",
                    "type": "uint256"
                },
                {
                    "internalType": "uint256",
                    "name": "evolvedBalance",
                    "type": "uint256"
                },
                {
                    "internalType": "uint256",
                    "name": "cavalryBalance",
                    "type": "uint256"
                },
                {
                    "internalType": "uint256",
                    "name": "innerCircleBalance",
                    "type": "uint256"
                },
                {
                    "internalType": "uint256",
                    "name": "gracePeriod",
                    "type": "uint256"
                },
                {
                    "internalType": "uint256",
                    "name": "lateFee",
                    "type": "uint256"
                }
            ],
            "stateMutability": "view",
            "type": "function"
        },
        {
            "inputs": [
                {
                    "internalType": "address",
                    "name": "newOwner",
                    "type": "address"
                }
            ],
            "name": "transferOwnership",
            "outputs": [],
            "stateMutability": "nonpayable",
            "type": "function"
        },
        {
            "inputs": [],
            "name": "unpause",
            "outputs": [],
            "stateMutability": "nonpayable",
            "type": "function"
        }
    ],
    "bytecode": "608060405234801561001057600080fd5b5061001a3361002c565b6000805460ff60a01b1916905561007c565b600080546001600160a01b038381166001600160a01b0319831681178455604051919092169283917f8be0079c531659141344cd1fd0a4f28419497f9722a3daafe3b4186f6b6457e09190a35050565b6113f18061008b6000396000f3fe6080604052600436106100fe5760003560e01c8063715018a611610095578063b5e2ebc611610064578063b5e2ebc6146102f3578063d0e30db014610376578063e94886d21461037e578063f2fde38b146103cf578063fdd7a4eb146103ef57600080fd5b8063715018a6146102735780638456cb59146102885780638a3cf3a11461029d5780638da5cb5b146102cb57600080fd5b80634bd4705f116100d15780634bd4705f146101555780635028d05a1461017557806353a75e25146101955780635c975abb1461024957600080fd5b806319f101fa146101035780633f4ba83a14610125578063402d88831461013a5780634a68dbf014610142575b600080fd5b34801561010f57600080fd5b5061012361011e366004611092565b61040f565b005b34801561013157600080fd5b50610123610441565b610123610453565b61012361015036600461112f565b6106b5565b34801561016157600080fd5b506101236101703660046111ea565b610af9565b34801561018157600080fd5b50610123610190366004611290565b610b7f565b3480156101a157600080fd5b50600154600254600354600454600554600654600754600854600954600a54600b54600c546101e19b6001600160a01b03169a999897969594939291908c565b604080516001600160a01b03909d168d5260208d019b909b52998b019890985260608a0196909652608089019490945260a088019290925260c087015260e0860152610100850152610120840152610140830152610160820152610180015b60405180910390f35b34801561025557600080fd5b50600054600160a01b900460ff166040519015158152602001610240565b34801561027f57600080fd5b50610123610ba8565b34801561029457600080fd5b50610123610bba565b3480156102a957600080fd5b506102bd6102b83660046112ad565b610bca565b604051908152602001610240565b3480156102d757600080fd5b506000546040516001600160a01b039091168152602001610240565b3480156102ff57600080fd5b5061034561030e366004611290565b600e60205260009081526040902080546001820154600283015460049093015460ff9092169290916001600160a01b039091169084565b6040516102409493929190931515845260208401929092526001600160a01b03166040830152606082015260800190565b610123610cde565b34801561038a57600080fd5b506103b8610399366004611290565b600d602052600090815260409020805460019091015460ff9091169082565b604080519215158352602083019190915201610240565b3480156103db57600080fd5b506101236103ea366004611290565b610ce6565b3480156103fb57600080fd5b5061012361040a366004611092565b610d64565b610417610d8b565b6001600160a01b039091166000908152600d60205260409020805460ff1916600190811782550155565b610449610d8b565b610451610de5565b565b336000908152600e602052604090205460ff1661048357604051632d76303160e11b815260040160405180910390fd5b336000908152600e6020908152604091829020825160a081018452815460ff161515815260018201548184015260028201546001600160a01b03168185015260038201805485518186028101860190965280865261052c959294606086019392919083018282801561051457602002820191906000526020600020905b815481526020019060010190808311610500575b50505050508152602001600482015481525050610e3a565b1561056257336000908152600e602052604090819020805460ff191690558051632d76303160e11b815290519081900360040190fd5b336000908152600e60209081526040808320815160a081018352815460ff161515815260018201548185015260028201546001600160a01b03168184015260038201805484518187028101870190955280855261060b9592946060860193909291908301828280156105f357602002820191906000526020600020905b8154815260200190600101908083116105df575b50505050508152602001600482015481525050610e73565b61062757336000908152600e6020526040902060040154610647565b600c54336000908152600e60205260409020600401546106479190611304565b90503481101561066a57604051634ddc3b8560e01b815260040160405180910390fd5b336000908152600e60205260408120805460ff19168155600181018290556002810180546001600160a01b0319169055906106a86003830182610fef565b6004820160009055505050565b6106bd610ebf565b336000908152600e602052604090205460ff16156106ee57604051631563d41f60e21b815260040160405180910390fd5b6001600160a01b0382166000908152600d602052604090205460ff16610727576040516324ff36dd60e01b815260040160405180910390fd5b60035434101561074a57604051634ddc3b8560e01b815260040160405180910390fd5b8051600181101561076e57604051638dc8d9b360e01b815260040160405180910390fd5b6001600160a01b0383166000908152600d6020526040812060010154610794908361131d565b9050478111156107b757604051631af4d59960e11b815260040160405180910390fd5b60005b8281101561088d57846001600160a01b0316636352211e8583815181106107e3576107e3611334565b60200260200101516040518263ffffffff1660e01b815260040161080991815260200190565b602060405180830381865afa158015610826573d6000803e3d6000fd5b505050506040513d601f19601f8201168201806040525081019061084a919061134a565b6001600160a01b0316336001600160a01b03161461087b5760405163657e268f60e11b815260040160405180910390fd5b8061088581611367565b9150506107ba565b5060005b8281101561096457306001600160a01b0316856001600160a01b031663081812fc8684815181106108c4576108c4611334565b60200260200101516040518263ffffffff1660e01b81526004016108ea91815260200190565b602060405180830381865afa158015610907573d6000803e3d6000fd5b505050506040513d601f19601f8201168201806040525081019061092b919061134a565b6001600160a01b031603610952576040516332da96a360e01b815260040160405180910390fd5b8061095c81611367565b915050610891565b5060005b82811015610a1857846001600160a01b03166323b872dd333087858151811061099357610993611334565b60209081029190910101516040516001600160e01b031960e086901b1681526001600160a01b0393841660048201529290911660248301526044820152606401600060405180830381600087803b1580156109ed57600080fd5b505af1158015610a01573d6000803e3d6000fd5b505050508080610a1090611367565b915050610968565b506000610a26338685610bca565b604051909150339082156108fc029083906000818181858888f19350505050158015610a56573d6000803e3d6000fd5b506040805160a08101825260018082524260208084019182526001600160a01b038a8116858701908152606086018b815260808701899052336000908152600e8552979097208651815460ff191690151517815593519484019490945592516002830180546001600160a01b031916919094161790925592518051929392610ae4926003850192019061100d565b50608082015181600401559050505050505050565b610b01610d8b565b8051600180546001600160a01b0319166001600160a01b03909216919091179055602081015160025560408101516003556060810151600455608081015160055560a081015160065560c081015160075560e0810151600855610100810151600955610120810151600a55610140810151600b556101600151600c55565b610b87610d8b565b6001600160a01b03166000908152600d60205260409020805460ff19169055565b610bb0610d8b565b6104516000610f0c565b610bc2610d8b565b610451610f5c565b6001546040516370a0823160e01b81526001600160a01b03858116600483015260009283929116906370a0823190602401602060405180830381865afa158015610c18573d6000803e3d6000fd5b505050506040513d601f19601f82011682018060405250810190610c3c9190611380565b6001600160a01b0385166000908152600d6020526040812060010154919250610c65828661131d565b600a549091508310610c9557600754606490610c81908361131d565b610c8b9190611399565b9350505050610cd7565b6009548310610cae57600654606490610c81908361131d565b6008548310610cc757600554606490610c81908361131d565b600454606490610c81908361131d565b9392505050565b610451610d8b565b610cee610d8b565b6001600160a01b038116610d585760405162461bcd60e51b815260206004820152602660248201527f4f776e61626c653a206e6577206f776e657220697320746865207a65726f206160448201526564647265737360d01b60648201526084015b60405180910390fd5b610d6181610f0c565b50565b610d6c610d8b565b6001600160a01b039091166000908152600d6020526040902060010155565b6000546001600160a01b031633146104515760405162461bcd60e51b815260206004820181905260248201527f4f776e61626c653a2063616c6c6572206973206e6f7420746865206f776e65726044820152606401610d4f565b610ded610f9f565b6000805460ff60a01b191690557f5db9ee0a495bf2e6ff9c91a7834c1ba4fdd244a5e8aa4e537bd38aeae4b073aa335b6040516001600160a01b03909116815260200160405180910390a1565b600b54600254602083015160009291610e5291611304565b610e5c9190611304565b421115610e6b57506001919050565b506000919050565b6002546020820151600091610e8791611304565b42118015610eb25750600b546002546020840151610ea59190611304565b610eaf9190611304565b42105b15610e6b57506001919050565b600054600160a01b900460ff16156104515760405162461bcd60e51b815260206004820152601060248201526f14185d5cd8589b194e881c185d5cd95960821b6044820152606401610d4f565b600080546001600160a01b038381166001600160a01b0319831681178455604051919092169283917f8be0079c531659141344cd1fd0a4f28419497f9722a3daafe3b4186f6b6457e09190a35050565b610f64610ebf565b6000805460ff60a01b1916600160a01b1790557f62e78cea01bee320cd4e420270b5ea74000d11b0c9f74754ebdbfc544b05a258610e1d3390565b600054600160a01b900460ff166104515760405162461bcd60e51b815260206004820152601460248201527314185d5cd8589b194e881b9bdd081c185d5cd95960621b6044820152606401610d4f565b5080546000825590600052602060002090810190610d619190611058565b828054828255906000526020600020908101928215611048579160200282015b8281111561104857825182559160200191906001019061102d565b50611054929150611058565b5090565b5b808211156110545760008155600101611059565b6001600160a01b0381168114610d6157600080fd5b803561108d8161106d565b919050565b600080604083850312156110a557600080fd5b82356110b08161106d565b946020939093013593505050565b634e487b7160e01b600052604160045260246000fd5b604051610180810167ffffffffffffffff811182821017156110f8576110f86110be565b60405290565b604051601f8201601f1916810167ffffffffffffffff81118282101715611127576111276110be565b604052919050565b6000806040838503121561114257600080fd5b823561114d8161106d565b915060208381013567ffffffffffffffff8082111561116b57600080fd5b818601915086601f83011261117f57600080fd5b813581811115611191576111916110be565b8060051b91506111a28483016110fe565b81815291830184019184810190898411156111bc57600080fd5b938501935b838510156111da578435825293850193908501906111c1565b8096505050505050509250929050565b600061018082840312156111fd57600080fd5b6112056110d4565b61120e83611082565b81526020830135602082015260408301356040820152606083013560608201526080830135608082015260a083013560a082015260c083013560c082015260e083013560e08201526101008084013581830152506101208084013581830152506101408084013581830152506101608084013581830152508091505092915050565b6000602082840312156112a257600080fd5b8135610cd78161106d565b6000806000606084860312156112c257600080fd5b83356112cd8161106d565b925060208401356112dd8161106d565b929592945050506040919091013590565b634e487b7160e01b600052601160045260246000fd5b80820180821115611317576113176112ee565b92915050565b8082028115828204841417611317576113176112ee565b634e487b7160e01b600052603260045260246000fd5b60006020828403121561135c57600080fd5b8151610cd78161106d565b600060018201611379576113796112ee565b5060010190565b60006020828403121561139257600080fd5b5051919050565b6000826113b657634e487b7160e01b600052601260045260246000fd5b50049056fea26469706673582212202ce5fcfc67b123f5522a158d098f4e1e45b648a2fe3db1f4b630f7c5a4c9722864736f6c63430008110033",
    "sourcePath": "d:/Projects/The-Oasis-Solidity/contracts/OasisLend.sol",
    "compiler": {
        "name": "solc",
        "version": "0.8.17+commit.8df45f5f"
    },
    "functionHashes": {
        "addCollection(address,uint256)": "19f101fa",
        "borrow(address,uint256[])": "4a68dbf0",
        "collection(address)": "e94886d2",
        "deposit()": "d0e30db0",
        "getBorrowAmount(address,address,uint256)": "8a3cf3a1",
        "loan(address)": "b5e2ebc6",
        "owner()": "8da5cb5b",
        "pause()": "8456cb59",
        "paused()": "5c975abb",
        "removeCollection(address)": "5028d05a",
        "renounceOwnership()": "715018a6",
        "repay()": "402d8883",
        "setCollectionFloor(address,uint256)": "fdd7a4eb",
        "setStateVariables((address,uint256,uint256,uint256,uint256,uint256,uint256,uint256,uint256,uint256,uint256,uint256))": "4bd4705f",
        "stateVariables()": "53a75e25",
        "transferOwnership(address)": "f2fde38b",
        "unpause()": "3f4ba83a"
    },
    "gasEstimates": {
        "creation": {
            "codeDepositCost": "1021000",
            "executionCost": "51126",
            "totalCost": "1072126"
        },
        "external": {
            "addCollection(address,uint256)": "48928",
            "borrow(address,uint256[])": "infinite",
            "collection(address)": "4739",
            "deposit()": "infinite",
            "getBorrowAmount(address,address,uint256)": "infinite",
            "loan(address)": "9012",
            "owner()": "2390",
            "pause()": "infinite",
            "paused()": "2398",
            "removeCollection(address)": "26807",
            "renounceOwnership()": "infinite",
            "repay()": "infinite",
            "setCollectionFloor(address,uint256)": "24790",
            "setStateVariables((address,uint256,uint256,uint256,uint256,uint256,uint256,uint256,uint256,uint256,uint256,uint256))": "270475",
            "stateVariables()": "25772",
            "transferOwnership(address)": "infinite",
            "unpause()": "infinite"
        },
        "internal": {
            "_isLate(struct OasisLend.Loan memory)": "infinite",
            "_isTooLate(struct OasisLend.Loan memory)": "infinite"
        }
    }
}