{
    "contractName": "OasisStaking",
    "abi": [
        {
            "inputs": [
                {
                    "internalType": "contract IERC721",
                    "name": "_nftCollection",
                    "type": "address"
                },
                {
                    "internalType": "contract IERC20",
                    "name": "_rewardsToken",
                    "type": "address"
                }
            ],
            "stateMutability": "nonpayable",
            "type": "constructor"
        },
        {
            "anonymous": false,
            "inputs": [
                {
                    "indexed": true,
                    "internalType": "address",
                    "name": "previousOwner",
                    "type": "address"
                },
                {
                    "indexed": true,
                    "internalType": "address",
                    "name": "newOwner",
                    "type": "address"
                }
            ],
            "name": "OwnershipTransferred",
            "type": "event"
        },
        {
            "inputs": [],
            "name": "claimRewards",
            "outputs": [],
            "stateMutability": "nonpayable",
            "type": "function"
        },
        {
            "inputs": [],
            "name": "evolvedCamels",
            "outputs": [
                {
                    "internalType": "contract IERC721",
                    "name": "",
                    "type": "address"
                }
            ],
            "stateMutability": "view",
            "type": "function"
        },
        {
            "inputs": [],
            "name": "oasisToken",
            "outputs": [
                {
                    "internalType": "contract IERC20",
                    "name": "",
                    "type": "address"
                }
            ],
            "stateMutability": "view",
            "type": "function"
        },
        {
            "inputs": [],
            "name": "owner",
            "outputs": [
                {
                    "internalType": "address",
                    "name": "",
                    "type": "address"
                }
            ],
            "stateMutability": "view",
            "type": "function"
        },
        {
            "inputs": [],
            "name": "renounceOwnership",
            "outputs": [],
            "stateMutability": "nonpayable",
            "type": "function"
        },
        {
            "inputs": [
                {
                    "internalType": "uint256",
                    "name": "_newValue",
                    "type": "uint256"
                }
            ],
            "name": "setRewardsPerHour",
            "outputs": [],
            "stateMutability": "nonpayable",
            "type": "function"
        },
        {
            "inputs": [
                {
                    "internalType": "uint256[]",
                    "name": "_tokenIds",
                    "type": "uint256[]"
                }
            ],
            "name": "stake",
            "outputs": [],
            "stateMutability": "nonpayable",
            "type": "function"
        },
        {
            "inputs": [
                {
                    "internalType": "uint256",
                    "name": "",
                    "type": "uint256"
                }
            ],
            "name": "stakerAddress",
            "outputs": [
                {
                    "internalType": "address",
                    "name": "",
                    "type": "address"
                }
            ],
            "stateMutability": "view",
            "type": "function"
        },
        {
            "inputs": [
                {
                    "internalType": "address",
                    "name": "",
                    "type": "address"
                }
            ],
            "name": "stakers",
            "outputs": [
                {
                    "internalType": "uint256",
                    "name": "amountStaked",
                    "type": "uint256"
                },
                {
                    "internalType": "uint256",
                    "name": "timeOfLastUpdate",
                    "type": "uint256"
                },
                {
                    "internalType": "uint256",
                    "name": "unclaimedRewards",
                    "type": "uint256"
                }
            ],
            "stateMutability": "view",
            "type": "function"
        },
        {
            "inputs": [
                {
                    "internalType": "uint256",
                    "name": "",
                    "type": "uint256"
                }
            ],
            "name": "stakersArray",
            "outputs": [
                {
                    "internalType": "address",
                    "name": "",
                    "type": "address"
                }
            ],
            "stateMutability": "view",
            "type": "function"
        },
        {
            "inputs": [
                {
                    "internalType": "address",
                    "name": "newOwner",
                    "type": "address"
                }
            ],
            "name": "transferOwnership",
            "outputs": [],
            "stateMutability": "nonpayable",
            "type": "function"
        },
        {
            "inputs": [
                {
                    "internalType": "address",
                    "name": "_user",
                    "type": "address"
                }
            ],
            "name": "userStakeInfo",
            "outputs": [
                {
                    "internalType": "uint256",
                    "name": "_tokensStaked",
                    "type": "uint256"
                },
                {
                    "internalType": "uint256",
                    "name": "_availableRewards",
                    "type": "uint256"
                }
            ],
            "stateMutability": "view",
            "type": "function"
        },
        {
            "inputs": [
                {
                    "internalType": "uint256[]",
                    "name": "_tokenIds",
                    "type": "uint256[]"
                }
            ],
            "name": "withdraw",
            "outputs": [],
            "stateMutability": "nonpayable",
            "type": "function"
        }
    ],
    "bytecode": "60c060405268056bc75e2d6310000060025534801561001d57600080fd5b5060405161115538038061115583398101604081905261003c916100c8565b61004533610060565b600180556001600160a01b0391821660a05216608052610102565b600080546001600160a01b038381166001600160a01b0319831681178455604051919092169283917f8be0079c531659141344cd1fd0a4f28419497f9722a3daafe3b4186f6b6457e09190a35050565b6001600160a01b03811681146100c557600080fd5b50565b600080604083850312156100db57600080fd5b82516100e6816100b0565b60208401519092506100f7816100b0565b809150509250929050565b60805160a051611012610143600039600081816101560152818161035d015281816104640152610912015260008181610214015261067201526110126000f3fe608060405234801561001057600080fd5b50600436106100cf5760003560e01c80638da5cb5b1161008c578063983d95ce11610066578063983d95ce146101fc578063a24c4e6b1461020f578063b5a5e50914610236578063f2fde38b1461024957600080fd5b80638da5cb5b146101785780639168ae721461018957806394067045146101d357600080fd5b80630fbf0a93146100d4578063372500ab146100e95780634ead4327146100f15780635357e9161461011e578063715018a61461014957806381c33b9314610151575b600080fd5b6100e76100e2366004610e1d565b61025c565b005b6100e76105b7565b6101046100ff366004610ea7565b61071f565b604080519283526020830191909152015b60405180910390f35b61013161012c366004610ec4565b61074c565b6040516001600160a01b039091168152602001610115565b6100e7610776565b6101317f000000000000000000000000000000000000000000000000000000000000000081565b6000546001600160a01b0316610131565b6101b8610197366004610ea7565b60036020526000908152604090208054600182015460029092015490919083565b60408051938452602084019290925290820152606001610115565b6101316101e1366004610ec4565b6004602052600090815260409020546001600160a01b031681565b6100e761020a366004610e1d565b61078a565b6101317f000000000000000000000000000000000000000000000000000000000000000081565b6100e7610244366004610ec4565b610b1a565b6100e7610257366004610ea7565b610c16565b6002600154036102b35760405162461bcd60e51b815260206004820152601f60248201527f5265656e7472616e637947756172643a207265656e7472616e742063616c6c0060448201526064015b60405180910390fd5b6002600155336000908152600360205260409020541561030b5760006102d833610c8c565b336000908152600360205260408120600201805492935083929091906102ff908490610ef3565b9091555061034e915050565b600580546001810182556000919091527f036b6384b5eca791c62761152d0c79bb0604c104a5fb6f4eb0703f3154bb3db00180546001600160a01b031916331790555b8060005b8181101561057557337f00000000000000000000000000000000000000000000000000000000000000006001600160a01b0316636352211e86868581811061039c5761039c610f0c565b905060200201356040518263ffffffff1660e01b81526004016103c191815260200190565b602060405180830381865afa1580156103de573d6000803e3d6000fd5b505050506040513d601f19601f820116820180604052508101906104029190610f22565b6001600160a01b0316146104625760405162461bcd60e51b815260206004820152602160248201527f43616e2774207374616b6520746f6b656e7320796f7520646f6e2774206f776e6044820152602160f81b60648201526084016102aa565b7f00000000000000000000000000000000000000000000000000000000000000006001600160a01b03166323b872dd33308787868181106104a5576104a5610f0c565b6040516001600160e01b031960e088901b1681526001600160a01b03958616600482015294909316602485015250602090910201356044820152606401600060405180830381600087803b1580156104fc57600080fd5b505af1158015610510573d6000803e3d6000fd5b50505050336004600086868581811061052b5761052b610f0c565b90506020020135815260200190815260200160002060006101000a8154816001600160a01b0302191690836001600160a01b031602179055508061056e90610f3f565b9050610352565b503360009081526003602052604081208054839290610595908490610ef3565b9091555050336000908152600360205260409020426001918201558055505050565b3360008181526003602052604081206002015490916105d590610c8c565b6105df9190610ef3565b9050600081116106315760405162461bcd60e51b815260206004820152601c60248201527f596f752068617665206e6f207265776172647320746f20636c61696d0000000060448201526064016102aa565b33600081815260036020526040808220426001820155600201919091555163a9059cbb60e01b81526004810191909152602481018290526001600160a01b037f0000000000000000000000000000000000000000000000000000000000000000169063a9059cbb906044016020604051808303816000875af11580156106bb573d6000803e3d6000fd5b505050506040513d601f19601f820116820180604052508101906106df9190610f58565b61071c5760405162461bcd60e51b815260206004820152600e60248201526d5472616e7366657220697373756560901b60448201526064016102aa565b50565b6001600160a01b038116600090815260036020526040812054819061074384610d04565b91509150915091565b6005818154811061075c57600080fd5b6000918252602090912001546001600160a01b0316905081565b61077e610d73565b6107886000610dcd565b565b6002600154036107dc5760405162461bcd60e51b815260206004820152601f60248201527f5265656e7472616e637947756172643a207265656e7472616e742063616c6c0060448201526064016102aa565b60026001553360009081526003602052604090205461083d5760405162461bcd60e51b815260206004820152601960248201527f596f752068617665206e6f20746f6b656e73207374616b65640000000000000060448201526064016102aa565b600061084833610c8c565b3360009081526003602052604081206002018054929350839290919061086f908490610ef3565b9091555082905060005b818110156109cb57336004600087878581811061089857610898610f0c565b60209081029290920135835250810191909152604001600020546001600160a01b0316146108c557600080fd5b6000600460008787858181106108dd576108dd610f0c565b6020908102929092013583525081019190915260400160002080546001600160a01b0319166001600160a01b039283161790557f0000000000000000000000000000000000000000000000000000000000000000166323b872dd303388888681811061094b5761094b610f0c565b6040516001600160e01b031960e088901b1681526001600160a01b03958616600482015294909316602485015250602090910201356044820152606401600060405180830381600087803b1580156109a257600080fd5b505af11580156109b6573d6000803e3d6000fd5b50505050806109c490610f3f565b9050610879565b5033600090815260036020526040812080548392906109eb908490610f7a565b9091555050336000908152600360205260408120426001820155549003610b105760005b600554811015610b0e57336001600160a01b031660058281548110610a3657610a36610f0c565b6000918252602090912001546001600160a01b031603610afe5760058054610a6090600190610f7a565b81548110610a7057610a70610f0c565b600091825260209091200154600580546001600160a01b039092169183908110610a9c57610a9c610f0c565b9060005260206000200160006101000a8154816001600160a01b0302191690836001600160a01b031602179055506005805480610adb57610adb610f8d565b600082815260209020810160001990810180546001600160a01b03191690550190555b610b0781610f3f565b9050610a0f565b505b5050600180555050565b610b22610d73565b60006005805480602002602001604051908101604052809291908181526020018280548015610b7a57602002820191906000526020600020905b81546001600160a01b03168152600190910190602001808311610b5c575b505083519394506000925050505b81811015610c0e576000838281518110610ba457610ba4610f0c565b60200260200101519050610bb781610c8c565b6001600160a01b03821660009081526003602052604081206002018054909190610be2908490610ef3565b90915550503360009081526003602052604090204260019091015550610c0781610f3f565b9050610b88565b505050600255565b610c1e610d73565b6001600160a01b038116610c835760405162461bcd60e51b815260206004820152602660248201527f4f776e61626c653a206e6577206f776e657220697320746865207a65726f206160448201526564647265737360d01b60648201526084016102aa565b61071c81610dcd565b6001600160a01b03811660009081526003602090815260408083208151606081018352815480825260018301549482018590526002928301549382019390935290549092610e109290610cdf9042610f7a565b610ce99190610fa3565b610cf39190610fa3565b610cfd9190610fba565b9392505050565b6001600160a01b0381166000908152600360205260408120548103610d4257506001600160a01b031660009081526003602052604090206002015490565b6000610d4d83610c8c565b6001600160a01b038416600090815260036020526040902060020154610cfd9190610ef3565b6000546001600160a01b031633146107885760405162461bcd60e51b815260206004820181905260248201527f4f776e61626c653a2063616c6c6572206973206e6f7420746865206f776e657260448201526064016102aa565b600080546001600160a01b038381166001600160a01b0319831681178455604051919092169283917f8be0079c531659141344cd1fd0a4f28419497f9722a3daafe3b4186f6b6457e09190a35050565b60008060208385031215610e3057600080fd5b823567ffffffffffffffff80821115610e4857600080fd5b818501915085601f830112610e5c57600080fd5b813581811115610e6b57600080fd5b8660208260051b8501011115610e8057600080fd5b60209290920196919550909350505050565b6001600160a01b038116811461071c57600080fd5b600060208284031215610eb957600080fd5b8135610cfd81610e92565b600060208284031215610ed657600080fd5b5035919050565b634e487b7160e01b600052601160045260246000fd5b80820180821115610f0657610f06610edd565b92915050565b634e487b7160e01b600052603260045260246000fd5b600060208284031215610f3457600080fd5b8151610cfd81610e92565b600060018201610f5157610f51610edd565b5060010190565b600060208284031215610f6a57600080fd5b81518015158114610cfd57600080fd5b81810381811115610f0657610f06610edd565b634e487b7160e01b600052603160045260246000fd5b8082028115828204841417610f0657610f06610edd565b600082610fd757634e487b7160e01b600052601260045260246000fd5b50049056fea2646970667358221220e71b984ff096031a8360a1636dea9d375c8543e21ddb8037b7f7bdf21facda9a64736f6c63430008110033",
    "sourcePath": "d:/Projects/The-Oasis-Solidity/contracts/OasisStaking.sol",
    "compiler": {
        "name": "solc",
        "version": "0.8.17+commit.8df45f5f"
    },
    "functionHashes": {
        "claimRewards()": "372500ab",
        "evolvedCamels()": "81c33b93",
        "oasisToken()": "a24c4e6b",
        "owner()": "8da5cb5b",
        "renounceOwnership()": "715018a6",
        "setRewardsPerHour(uint256)": "b5a5e509",
        "stake(uint256[])": "0fbf0a93",
        "stakerAddress(uint256)": "94067045",
        "stakers(address)": "9168ae72",
        "stakersArray(uint256)": "5357e916",
        "transferOwnership(address)": "f2fde38b",
        "userStakeInfo(address)": "4ead4327",
        "withdraw(uint256[])": "983d95ce"
    },
    "gasEstimates": {
        "creation": {
            "codeDepositCost": "822800",
            "executionCost": "infinite",
            "totalCost": "infinite"
        },
        "external": {
            "claimRewards()": "infinite",
            "evolvedCamels()": "infinite",
            "oasisToken()": "infinite",
            "owner()": "2354",
            "renounceOwnership()": "infinite",
            "setRewardsPerHour(uint256)": "infinite",
            "stake(uint256[])": "infinite",
            "stakerAddress(uint256)": "2544",
            "stakers(address)": "6833",
            "stakersArray(uint256)": "4681",
            "transferOwnership(address)": "infinite",
            "userStakeInfo(address)": "infinite",
            "withdraw(uint256[])": "infinite"
        },
        "internal": {
            "availableRewards(address)": "infinite",
            "calculateRewards(address)": "infinite"
        }
    }
}