{
    "contractName": "OasisToken",
    "abi": [
        {
            "inputs": [],
            "stateMutability": "nonpayable",
            "type": "constructor"
        },
        {
            "anonymous": false,
            "inputs": [
                {
                    "indexed": true,
                    "internalType": "address",
                    "name": "owner",
                    "type": "address"
                },
                {
                    "indexed": true,
                    "internalType": "address",
                    "name": "spender",
                    "type": "address"
                },
                {
                    "indexed": false,
                    "internalType": "uint256",
                    "name": "value",
                    "type": "uint256"
                }
            ],
            "name": "Approval",
            "type": "event"
        },
        {
            "anonymous": false,
            "inputs": [
                {
                    "indexed": true,
                    "internalType": "address",
                    "name": "claimer",
                    "type": "address"
                },
                {
                    "indexed": false,
                    "internalType": "uint256",
                    "name": "amount",
                    "type": "uint256"
                }
            ],
            "name": "Claimed",
            "type": "event"
        },
        {
            "anonymous": false,
            "inputs": [
                {
                    "indexed": true,
                    "internalType": "address",
                    "name": "previousOwner",
                    "type": "address"
                },
                {
                    "indexed": true,
                    "internalType": "address",
                    "name": "newOwner",
                    "type": "address"
                }
            ],
            "name": "OwnershipTransferred",
            "type": "event"
        },
        {
            "anonymous": false,
            "inputs": [
                {
                    "indexed": true,
                    "internalType": "address",
                    "name": "from",
                    "type": "address"
                },
                {
                    "indexed": true,
                    "internalType": "address",
                    "name": "to",
                    "type": "address"
                },
                {
                    "indexed": false,
                    "internalType": "uint256",
                    "name": "value",
                    "type": "uint256"
                }
            ],
            "name": "Transfer",
            "type": "event"
        },
        {
            "inputs": [
                {
                    "internalType": "address",
                    "name": "owner",
                    "type": "address"
                },
                {
                    "internalType": "address",
                    "name": "spender",
                    "type": "address"
                }
            ],
            "name": "allowance",
            "outputs": [
                {
                    "internalType": "uint256",
                    "name": "",
                    "type": "uint256"
                }
            ],
            "stateMutability": "view",
            "type": "function"
        },
        {
            "inputs": [
                {
                    "internalType": "address",
                    "name": "spender",
                    "type": "address"
                },
                {
                    "internalType": "uint256",
                    "name": "amount",
                    "type": "uint256"
                }
            ],
            "name": "approve",
            "outputs": [
                {
                    "internalType": "bool",
                    "name": "",
                    "type": "bool"
                }
            ],
            "stateMutability": "nonpayable",
            "type": "function"
        },
        {
            "inputs": [
                {
                    "internalType": "address",
                    "name": "account",
                    "type": "address"
                }
            ],
            "name": "balanceOf",
            "outputs": [
                {
                    "internalType": "uint256",
                    "name": "",
                    "type": "uint256"
                }
            ],
            "stateMutability": "view",
            "type": "function"
        },
        {
            "inputs": [
                {
                    "internalType": "uint256[]",
                    "name": "tokenIds",
                    "type": "uint256[]"
                }
            ],
            "name": "claim",
            "outputs": [],
            "stateMutability": "nonpayable",
            "type": "function"
        },
        {
            "inputs": [],
            "name": "crazyCamels",
            "outputs": [
                {
                    "internalType": "address",
                    "name": "",
                    "type": "address"
                }
            ],
            "stateMutability": "view",
            "type": "function"
        },
        {
            "inputs": [],
            "name": "decimals",
            "outputs": [
                {
                    "internalType": "uint8",
                    "name": "",
                    "type": "uint8"
                }
            ],
            "stateMutability": "view",
            "type": "function"
        },
        {
            "inputs": [
                {
                    "internalType": "address",
                    "name": "spender",
                    "type": "address"
                },
                {
                    "internalType": "uint256",
                    "name": "subtractedValue",
                    "type": "uint256"
                }
            ],
            "name": "decreaseAllowance",
            "outputs": [
                {
                    "internalType": "bool",
                    "name": "",
                    "type": "bool"
                }
            ],
            "stateMutability": "nonpayable",
            "type": "function"
        },
        {
            "inputs": [
                {
                    "internalType": "address",
                    "name": "spender",
                    "type": "address"
                },
                {
                    "internalType": "uint256",
                    "name": "addedValue",
                    "type": "uint256"
                }
            ],
            "name": "increaseAllowance",
            "outputs": [
                {
                    "internalType": "bool",
                    "name": "",
                    "type": "bool"
                }
            ],
            "stateMutability": "nonpayable",
            "type": "function"
        },
        {
            "inputs": [
                {
                    "internalType": "address",
                    "name": "to",
                    "type": "address"
                },
                {
                    "internalType": "uint256",
                    "name": "amount",
                    "type": "uint256"
                }
            ],
            "name": "mint",
            "outputs": [],
            "stateMutability": "nonpayable",
            "type": "function"
        },
        {
            "inputs": [],
            "name": "name",
            "outputs": [
                {
                    "internalType": "string",
                    "name": "",
                    "type": "string"
                }
            ],
            "stateMutability": "view",
            "type": "function"
        },
        {
            "inputs": [],
            "name": "oasisGraveyard",
            "outputs": [
                {
                    "internalType": "address",
                    "name": "",
                    "type": "address"
                }
            ],
            "stateMutability": "view",
            "type": "function"
        },
        {
            "inputs": [],
            "name": "owner",
            "outputs": [
                {
                    "internalType": "address",
                    "name": "",
                    "type": "address"
                }
            ],
            "stateMutability": "view",
            "type": "function"
        },
        {
            "inputs": [],
            "name": "renounceOwnership",
            "outputs": [],
            "stateMutability": "nonpayable",
            "type": "function"
        },
        {
            "inputs": [
                {
                    "internalType": "address",
                    "name": "_crazyCamels",
                    "type": "address"
                },
                {
                    "internalType": "address",
                    "name": "_oasisGraveyard",
                    "type": "address"
                },
                {
                    "internalType": "uint256",
                    "name": "_tokensPerCrazyCamel",
                    "type": "uint256"
                }
            ],
            "name": "setStateVariables",
            "outputs": [],
            "stateMutability": "nonpayable",
            "type": "function"
        },
        {
            "inputs": [],
            "name": "symbol",
            "outputs": [
                {
                    "internalType": "string",
                    "name": "",
                    "type": "string"
                }
            ],
            "stateMutability": "view",
            "type": "function"
        },
        {
            "inputs": [],
            "name": "tokensPerCrazyCamel",
            "outputs": [
                {
                    "internalType": "uint256",
                    "name": "",
                    "type": "uint256"
                }
            ],
            "stateMutability": "view",
            "type": "function"
        },
        {
            "inputs": [],
            "name": "totalSupply",
            "outputs": [
                {
                    "internalType": "uint256",
                    "name": "",
                    "type": "uint256"
                }
            ],
            "stateMutability": "view",
            "type": "function"
        },
        {
            "inputs": [
                {
                    "internalType": "address",
                    "name": "to",
                    "type": "address"
                },
                {
                    "internalType": "uint256",
                    "name": "amount",
                    "type": "uint256"
                }
            ],
            "name": "transfer",
            "outputs": [
                {
                    "internalType": "bool",
                    "name": "",
                    "type": "bool"
                }
            ],
            "stateMutability": "nonpayable",
            "type": "function"
        },
        {
            "inputs": [
                {
                    "internalType": "address",
                    "name": "from",
                    "type": "address"
                },
                {
                    "internalType": "address",
                    "name": "to",
                    "type": "address"
                },
                {
                    "internalType": "uint256",
                    "name": "amount",
                    "type": "uint256"
                }
            ],
            "name": "transferFrom",
            "outputs": [
                {
                    "internalType": "bool",
                    "name": "",
                    "type": "bool"
                }
            ],
            "stateMutability": "nonpayable",
            "type": "function"
        },
        {
            "inputs": [
                {
                    "internalType": "address",
                    "name": "newOwner",
                    "type": "address"
                }
            ],
            "name": "transferOwnership",
            "outputs": [],
            "stateMutability": "nonpayable",
            "type": "function"
        }
    ],
    "bytecode": "60806040523480156200001157600080fd5b506040518060400160405280600a81526020016927b0b9b4b9aa37b5b2b760b11b8152506040518060400160405280600381526020016213d4d560ea1b81525081600390816200006291906200018f565b5060046200007182826200018f565b5050506200008e620000886200009460201b60201c565b62000098565b6200025b565b3390565b600580546001600160a01b038381166001600160a01b0319831681179093556040519116919082907f8be0079c531659141344cd1fd0a4f28419497f9722a3daafe3b4186f6b6457e090600090a35050565b634e487b7160e01b600052604160045260246000fd5b600181811c908216806200011557607f821691505b6020821081036200013657634e487b7160e01b600052602260045260246000fd5b50919050565b601f8211156200018a57600081815260208120601f850160051c81016020861015620001655750805b601f850160051c820191505b81811015620001865782815560010162000171565b5050505b505050565b81516001600160401b03811115620001ab57620001ab620000ea565b620001c381620001bc845462000100565b846200013c565b602080601f831160018114620001fb5760008415620001e25750858301515b600019600386901b1c1916600185901b17855562000186565b600085815260208120601f198616915b828110156200022c578886015182559484019460019091019084016200020b565b50858210156200024b5787850151600019600388901b60f8161c191681555b5050505050600190811b01905550565b610fc0806200026b6000396000f3fe608060405234801561001057600080fd5b506004361061012c5760003560e01c8063715018a6116100ad578063a9059cbb11610071578063a9059cbb1461026e578063c79476b514610281578063dd62ed3e14610294578063e9964871146102a7578063f2fde38b146102ba57600080fd5b8063715018a6146102135780638da5cb5b1461021b57806395d89b41146102405780639ff5167514610248578063a457c2d71461025b57600080fd5b8063313ce567116100f4578063313ce567146101a057806339509351146101af57806340c10f19146101c25780636ba4c138146101d757806370a08231146101ea57600080fd5b806306fdde0314610131578063095ea7b31461014f57806318160ddd1461017257806323b872dd146101845780632647cfac14610197575b600080fd5b6101396102cd565b6040516101469190610cc3565b60405180910390f35b61016261015d366004610d26565b61035f565b6040519015158152602001610146565b6002545b604051908152602001610146565b610162610192366004610d52565b610379565b61017660065481565b60405160128152602001610146565b6101626101bd366004610d26565b61039d565b6101d56101d0366004610d26565b6103bf565b005b6101d56101e5366004610da9565b6103d5565b6101766101f8366004610e67565b6001600160a01b031660009081526020819052604090205490565b6101d561063f565b6005546001600160a01b03165b6040516001600160a01b039091168152602001610146565b610139610653565b600854610228906001600160a01b031681565b610162610269366004610d26565b610662565b61016261027c366004610d26565b6106dd565b600754610228906001600160a01b031681565b6101766102a2366004610e8b565b6106eb565b6101d56102b5366004610d52565b610716565b6101d56102c8366004610e67565b610753565b6060600380546102dc90610ec4565b80601f016020809104026020016040519081016040528092919081815260200182805461030890610ec4565b80156103555780601f1061032a57610100808354040283529160200191610355565b820191906000526020600020905b81548152906001019060200180831161033857829003601f168201915b5050505050905090565b60003361036d8185856107cc565b60019150505b92915050565b6000336103878582856108f0565b61039285858561096a565b506001949350505050565b60003361036d8185856103b083836106eb565b6103ba9190610f14565b6107cc565b6103c7610b38565b6103d18282610b92565b5050565b8051600181101561042d5760405162461bcd60e51b815260206004820152601a60248201527f4d757374206275726e206174206c65617374203120746f6b656e00000000000060448201526064015b60405180910390fd5b60005b8181101561052657600754835130916001600160a01b03169063081812fc9086908590811061046157610461610f27565b60200260200101516040518263ffffffff1660e01b815260040161048791815260200190565b602060405180830381865afa1580156104a4573d6000803e3d6000fd5b505050506040513d601f19601f820116820180604052508101906104c89190610f3d565b6001600160a01b0316146105145760405162461bcd60e51b81526020600482015260136024820152724d75737420417070726f766520546f6b656e7360681b6044820152606401610424565b8061051e81610f5a565b915050610430565b5060005b818110156105e85760075460085484516001600160a01b03928316926323b872dd92339291169087908690811061056357610563610f27565b60209081029190910101516040516001600160e01b031960e086901b1681526001600160a01b0393841660048201529290911660248301526044820152606401600060405180830381600087803b1580156105bd57600080fd5b505af11580156105d1573d6000803e3d6000fd5b5050505080806105e090610f5a565b91505061052a565b506000600654826105f99190610f73565b90506106053382610b92565b60405181815233907fd8138f8a3f377c5259ca548e70e4c2de94f129f5a11036a15b69513cba2b426a9060200160405180910390a2505050565b610647610b38565b6106516000610c71565b565b6060600480546102dc90610ec4565b6000338161067082866106eb565b9050838110156106d05760405162461bcd60e51b815260206004820152602560248201527f45524332303a2064656372656173656420616c6c6f77616e63652062656c6f77604482015264207a65726f60d81b6064820152608401610424565b61039282868684036107cc565b60003361036d81858561096a565b6001600160a01b03918216600090815260016020908152604080832093909416825291909152205490565b61071e610b38565b600780546001600160a01b039485166001600160a01b0319918216179091556008805493909416921691909117909155600655565b61075b610b38565b6001600160a01b0381166107c05760405162461bcd60e51b815260206004820152602660248201527f4f776e61626c653a206e6577206f776e657220697320746865207a65726f206160448201526564647265737360d01b6064820152608401610424565b6107c981610c71565b50565b6001600160a01b03831661082e5760405162461bcd60e51b8152602060048201526024808201527f45524332303a20617070726f76652066726f6d20746865207a65726f206164646044820152637265737360e01b6064820152608401610424565b6001600160a01b03821661088f5760405162461bcd60e51b815260206004820152602260248201527f45524332303a20617070726f766520746f20746865207a65726f206164647265604482015261737360f01b6064820152608401610424565b6001600160a01b0383811660008181526001602090815260408083209487168084529482529182902085905590518481527f8c5be1e5ebec7d5bd14f71427d1e84f3dd0314c0f7b2291e5b200ac8c7c3b925910160405180910390a3505050565b60006108fc84846106eb565b9050600019811461096457818110156109575760405162461bcd60e51b815260206004820152601d60248201527f45524332303a20696e73756666696369656e7420616c6c6f77616e63650000006044820152606401610424565b61096484848484036107cc565b50505050565b6001600160a01b0383166109ce5760405162461bcd60e51b815260206004820152602560248201527f45524332303a207472616e736665722066726f6d20746865207a65726f206164604482015264647265737360d81b6064820152608401610424565b6001600160a01b038216610a305760405162461bcd60e51b815260206004820152602360248201527f45524332303a207472616e7366657220746f20746865207a65726f206164647260448201526265737360e81b6064820152608401610424565b6001600160a01b03831660009081526020819052604090205481811015610aa85760405162461bcd60e51b815260206004820152602660248201527f45524332303a207472616e7366657220616d6f756e7420657863656564732062604482015265616c616e636560d01b6064820152608401610424565b6001600160a01b03808516600090815260208190526040808220858503905591851681529081208054849290610adf908490610f14565b92505081905550826001600160a01b0316846001600160a01b03167fddf252ad1be2c89b69c2b068fc378daa952ba7f163c4a11628f55a4df523b3ef84604051610b2b91815260200190565b60405180910390a3610964565b6005546001600160a01b031633146106515760405162461bcd60e51b815260206004820181905260248201527f4f776e61626c653a2063616c6c6572206973206e6f7420746865206f776e65726044820152606401610424565b6001600160a01b038216610be85760405162461bcd60e51b815260206004820152601f60248201527f45524332303a206d696e7420746f20746865207a65726f2061646472657373006044820152606401610424565b8060026000828254610bfa9190610f14565b90915550506001600160a01b03821660009081526020819052604081208054839290610c27908490610f14565b90915550506040518181526001600160a01b038316906000907fddf252ad1be2c89b69c2b068fc378daa952ba7f163c4a11628f55a4df523b3ef9060200160405180910390a35050565b600580546001600160a01b038381166001600160a01b0319831681179093556040519116919082907f8be0079c531659141344cd1fd0a4f28419497f9722a3daafe3b4186f6b6457e090600090a35050565b600060208083528351808285015260005b81811015610cf057858101830151858201604001528201610cd4565b506000604082860101526040601f19601f8301168501019250505092915050565b6001600160a01b03811681146107c957600080fd5b60008060408385031215610d3957600080fd5b8235610d4481610d11565b946020939093013593505050565b600080600060608486031215610d6757600080fd5b8335610d7281610d11565b92506020840135610d8281610d11565b929592945050506040919091013590565b634e487b7160e01b600052604160045260246000fd5b60006020808385031215610dbc57600080fd5b823567ffffffffffffffff80821115610dd457600080fd5b818501915085601f830112610de857600080fd5b813581811115610dfa57610dfa610d93565b8060051b604051601f19603f83011681018181108582111715610e1f57610e1f610d93565b604052918252848201925083810185019188831115610e3d57600080fd5b938501935b82851015610e5b57843584529385019392850192610e42565b98975050505050505050565b600060208284031215610e7957600080fd5b8135610e8481610d11565b9392505050565b60008060408385031215610e9e57600080fd5b8235610ea981610d11565b91506020830135610eb981610d11565b809150509250929050565b600181811c90821680610ed857607f821691505b602082108103610ef857634e487b7160e01b600052602260045260246000fd5b50919050565b634e487b7160e01b600052601160045260246000fd5b8082018082111561037357610373610efe565b634e487b7160e01b600052603260045260246000fd5b600060208284031215610f4f57600080fd5b8151610e8481610d11565b600060018201610f6c57610f6c610efe565b5060010190565b808202811582820484141761037357610373610efe56fea26469706673582212209a4c160e88be7cc1a04637040a7fd5d2c4eb5a939a721ce41f5bb1151b3b277e64736f6c63430008110033",
    "sourcePath": "d:/Projects/The-Oasis-Solidity/contracts/OasisToken.sol",
    "compiler": {
        "name": "solc",
        "version": "0.8.17+commit.8df45f5f"
    },
    "functionHashes": {
        "allowance(address,address)": "dd62ed3e",
        "approve(address,uint256)": "095ea7b3",
        "balanceOf(address)": "70a08231",
        "claim(uint256[])": "6ba4c138",
        "crazyCamels()": "c79476b5",
        "decimals()": "313ce567",
        "decreaseAllowance(address,uint256)": "a457c2d7",
        "increaseAllowance(address,uint256)": "39509351",
        "mint(address,uint256)": "40c10f19",
        "name()": "06fdde03",
        "oasisGraveyard()": "9ff51675",
        "owner()": "8da5cb5b",
        "renounceOwnership()": "715018a6",
        "setStateVariables(address,address,uint256)": "e9964871",
        "symbol()": "95d89b41",
        "tokensPerCrazyCamel()": "2647cfac",
        "totalSupply()": "18160ddd",
        "transfer(address,uint256)": "a9059cbb",
        "transferFrom(address,address,uint256)": "23b872dd",
        "transferOwnership(address)": "f2fde38b"
    },
    "gasEstimates": {
        "creation": {
            "codeDepositCost": "806400",
            "executionCost": "infinite",
            "totalCost": "infinite"
        },
        "external": {
            "allowance(address,address)": "infinite",
            "approve(address,uint256)": "24645",
            "balanceOf(address)": "2645",
            "claim(uint256[])": "infinite",
            "crazyCamels()": "2381",
            "decimals()": "200",
            "decreaseAllowance(address,uint256)": "27055",
            "increaseAllowance(address,uint256)": "infinite",
            "mint(address,uint256)": "infinite",
            "name()": "infinite",
            "oasisGraveyard()": "2426",
            "owner()": "2365",
            "renounceOwnership()": "infinite",
            "setStateVariables(address,address,uint256)": "infinite",
            "symbol()": "infinite",
            "tokensPerCrazyCamel()": "2407",
            "totalSupply()": "2349",
            "transfer(address,uint256)": "infinite",
            "transferFrom(address,address,uint256)": "infinite",
            "transferOwnership(address)": "infinite"
        }
    }
}