{
    "contractName": "OasisHelper",
    "abi": [
        {
            "inputs": [
                {
                    "internalType": "contract OasisStaking",
                    "name": "_oasisStaking",
                    "type": "address"
                },
                {
                    "internalType": "contract IERC721Enumerable",
                    "name": "_evolvedCamels",
                    "type": "address"
                }
            ],
            "stateMutability": "nonpayable",
            "type": "constructor"
        },
        {
            "inputs": [
                {
                    "internalType": "address",
                    "name": "_address",
                    "type": "address"
                }
            ],
            "name": "GetStakedTokenIds",
            "outputs": [
                {
                    "internalType": "uint256[]",
                    "name": "stakedTokenIds_",
                    "type": "uint256[]"
                }
            ],
            "stateMutability": "view",
            "type": "function"
        },
        {
            "inputs": [],
            "name": "evolvedCamels",
            "outputs": [
                {
                    "internalType": "contract IERC721Enumerable",
                    "name": "",
                    "type": "address"
                }
            ],
            "stateMutability": "view",
            "type": "function"
        },
        {
            "inputs": [],
            "name": "oasisStaking",
            "outputs": [
                {
                    "internalType": "contract OasisStaking",
                    "name": "",
                    "type": "address"
                }
            ],
            "stateMutability": "view",
            "type": "function"
        }
    ],
    "bytecode": "60c060405234801561001057600080fd5b5060405161067b38038061067b83398101604081905261002f9161005e565b6001600160a01b039182166080521660a052610098565b6001600160a01b038116811461005b57600080fd5b50565b6000806040838503121561007157600080fd5b825161007c81610046565b602084015190925061008d81610046565b809150509250929050565b60805160a0516105976100e460003960008181604b0152818161011601526102af01526000818160af0152818160e8015281816101a601528181610280015261033301526105976000f3fe608060405234801561001057600080fd5b50600436106100415760003560e01c806381c33b9314610046578063ac24a5ca1461008a578063c6647ed9146100aa575b600080fd5b61006d7f000000000000000000000000000000000000000000000000000000000000000081565b6040516001600160a01b0390911681526020015b60405180910390f35b61009d61009836600461042b565b6100d1565b604051610081919061044f565b61006d7f000000000000000000000000000000000000000000000000000000000000000081565b6040516370a0823160e01b81526001600160a01b037f0000000000000000000000000000000000000000000000000000000000000000811660048301526060916000917f000000000000000000000000000000000000000000000000000000000000000016906370a0823190602401602060405180830381865afa15801561015d573d6000803e3d6000fd5b505050506040513d601f19601f820116820180604052508101906101819190610493565b604051634ead432760e01b81526001600160a01b0385811660048301529192506000917f00000000000000000000000000000000000000000000000000000000000000001690634ead4327906024016040805180830381865afa1580156101ec573d6000803e3d6000fd5b505050506040513d601f19601f8201168201806040525081019061021091906104ac565b50905060008167ffffffffffffffff81111561022e5761022e6104d0565b604051908082528060200260200182016040528015610257578160200160208202803683370190505b5090506000806000805b8681101561040657604051632f745c5960e01b81526001600160a01b037f000000000000000000000000000000000000000000000000000000000000000081166004830152602482018390527f00000000000000000000000000000000000000000000000000000000000000001690632f745c5990604401602060405180830381865afa1580156102f6573d6000803e3d6000fd5b505050506040513d601f19601f8201168201806040525081019061031a9190610493565b604051639406704560e01b8152600481018290529094507f00000000000000000000000000000000000000000000000000000000000000006001600160a01b031690639406704590602401602060405180830381865afa158015610382573d6000803e3d6000fd5b505050506040513d601f19601f820116820180604052508101906103a691906104e6565b9250886001600160a01b0316836001600160a01b0316036103f457838583815181106103d4576103d4610503565b60209081029190910101526103ea82600161052f565b9150858214610406575b806103fe81610548565b915050610261565b5092979650505050505050565b6001600160a01b038116811461042857600080fd5b50565b60006020828403121561043d57600080fd5b813561044881610413565b9392505050565b6020808252825182820181905260009190848201906040850190845b818110156104875783518352928401929184019160010161046b565b50909695505050505050565b6000602082840312156104a557600080fd5b5051919050565b600080604083850312156104bf57600080fd5b505080516020909101519092909150565b634e487b7160e01b600052604160045260246000fd5b6000602082840312156104f857600080fd5b815161044881610413565b634e487b7160e01b600052603260045260246000fd5b634e487b7160e01b600052601160045260246000fd5b8082018082111561054257610542610519565b92915050565b60006001820161055a5761055a610519565b506001019056fea26469706673582212206b9c2346dfa0a36666300193c9faf0652f19612d57cf8457374f555259c1a10e64736f6c63430008110033",
    "sourcePath": "d:/Projects/The-Oasis-Solidity/contracts/OasisHelper.sol",
    "compiler": {
        "name": "solc",
        "version": "0.8.17+commit.8df45f5f"
    },
    "functionHashes": {
        "GetStakedTokenIds(address)": "ac24a5ca",
        "evolvedCamels()": "81c33b93",
        "oasisStaking()": "c6647ed9"
    },
    "gasEstimates": {
        "creation": {
            "codeDepositCost": "286200",
            "executionCost": "infinite",
            "totalCost": "infinite"
        },
        "external": {
            "GetStakedTokenIds(address)": "infinite",
            "evolvedCamels()": "infinite",
            "oasisStaking()": "infinite"
        }
    }
}