{
    "contractName": "OasisToken",
    "abi": [
        {
            "inputs": [],
            "stateMutability": "nonpayable",
            "type": "constructor"
        },
        {
            "anonymous": false,
            "inputs": [
                {
                    "indexed": true,
                    "internalType": "address",
                    "name": "owner",
                    "type": "address"
                },
                {
                    "indexed": true,
                    "internalType": "address",
                    "name": "spender",
                    "type": "address"
                },
                {
                    "indexed": false,
                    "internalType": "uint256",
                    "name": "value",
                    "type": "uint256"
                }
            ],
            "name": "Approval",
            "type": "event"
        },
        {
            "anonymous": false,
            "inputs": [
                {
                    "indexed": true,
                    "internalType": "address",
                    "name": "claimer",
                    "type": "address"
                },
                {
                    "indexed": false,
                    "internalType": "uint256",
                    "name": "ostAmount",
                    "type": "uint256"
                },
                {
                    "indexed": false,
                    "internalType": "uint256[]",
                    "name": "ccIds",
                    "type": "uint256[]"
                }
            ],
            "name": "ClaimedOST",
            "type": "event"
        },
        {
            "anonymous": false,
            "inputs": [
                {
                    "indexed": true,
                    "internalType": "address",
                    "name": "previousOwner",
                    "type": "address"
                },
                {
                    "indexed": true,
                    "internalType": "address",
                    "name": "newOwner",
                    "type": "address"
                }
            ],
            "name": "OwnershipTransferred",
            "type": "event"
        },
        {
            "anonymous": false,
            "inputs": [
                {
                    "indexed": true,
                    "internalType": "address",
                    "name": "from",
                    "type": "address"
                },
                {
                    "indexed": true,
                    "internalType": "address",
                    "name": "to",
                    "type": "address"
                },
                {
                    "indexed": false,
                    "internalType": "uint256",
                    "name": "value",
                    "type": "uint256"
                }
            ],
            "name": "Transfer",
            "type": "event"
        },
        {
            "inputs": [
                {
                    "internalType": "address",
                    "name": "_minter",
                    "type": "address"
                }
            ],
            "name": "addMinter",
            "outputs": [],
            "stateMutability": "nonpayable",
            "type": "function"
        },
        {
            "inputs": [
                {
                    "internalType": "address",
                    "name": "owner",
                    "type": "address"
                },
                {
                    "internalType": "address",
                    "name": "spender",
                    "type": "address"
                }
            ],
            "name": "allowance",
            "outputs": [
                {
                    "internalType": "uint256",
                    "name": "",
                    "type": "uint256"
                }
            ],
            "stateMutability": "view",
            "type": "function"
        },
        {
            "inputs": [
                {
                    "internalType": "address",
                    "name": "spender",
                    "type": "address"
                },
                {
                    "internalType": "uint256",
                    "name": "amount",
                    "type": "uint256"
                }
            ],
            "name": "approve",
            "outputs": [
                {
                    "internalType": "bool",
                    "name": "",
                    "type": "bool"
                }
            ],
            "stateMutability": "nonpayable",
            "type": "function"
        },
        {
            "inputs": [
                {
                    "internalType": "address",
                    "name": "account",
                    "type": "address"
                }
            ],
            "name": "balanceOf",
            "outputs": [
                {
                    "internalType": "uint256",
                    "name": "",
                    "type": "uint256"
                }
            ],
            "stateMutability": "view",
            "type": "function"
        },
        {
            "inputs": [
                {
                    "internalType": "uint256[]",
                    "name": "_tokenIds",
                    "type": "uint256[]"
                }
            ],
            "name": "claim",
            "outputs": [],
            "stateMutability": "nonpayable",
            "type": "function"
        },
        {
            "inputs": [],
            "name": "crazyCamels",
            "outputs": [
                {
                    "internalType": "address",
                    "name": "",
                    "type": "address"
                }
            ],
            "stateMutability": "view",
            "type": "function"
        },
        {
            "inputs": [],
            "name": "decimals",
            "outputs": [
                {
                    "internalType": "uint8",
                    "name": "",
                    "type": "uint8"
                }
            ],
            "stateMutability": "view",
            "type": "function"
        },
        {
            "inputs": [
                {
                    "internalType": "address",
                    "name": "spender",
                    "type": "address"
                },
                {
                    "internalType": "uint256",
                    "name": "subtractedValue",
                    "type": "uint256"
                }
            ],
            "name": "decreaseAllowance",
            "outputs": [
                {
                    "internalType": "bool",
                    "name": "",
                    "type": "bool"
                }
            ],
            "stateMutability": "nonpayable",
            "type": "function"
        },
        {
            "inputs": [
                {
                    "internalType": "address",
                    "name": "spender",
                    "type": "address"
                },
                {
                    "internalType": "uint256",
                    "name": "addedValue",
                    "type": "uint256"
                }
            ],
            "name": "increaseAllowance",
            "outputs": [
                {
                    "internalType": "bool",
                    "name": "",
                    "type": "bool"
                }
            ],
            "stateMutability": "nonpayable",
            "type": "function"
        },
        {
            "inputs": [
                {
                    "internalType": "address",
                    "name": "_to",
                    "type": "address"
                },
                {
                    "internalType": "uint256",
                    "name": "_amount",
                    "type": "uint256"
                }
            ],
            "name": "mint",
            "outputs": [],
            "stateMutability": "nonpayable",
            "type": "function"
        },
        {
            "inputs": [
                {
                    "internalType": "address",
                    "name": "",
                    "type": "address"
                }
            ],
            "name": "minter",
            "outputs": [
                {
                    "internalType": "bool",
                    "name": "",
                    "type": "bool"
                }
            ],
            "stateMutability": "view",
            "type": "function"
        },
        {
            "inputs": [],
            "name": "name",
            "outputs": [
                {
                    "internalType": "string",
                    "name": "",
                    "type": "string"
                }
            ],
            "stateMutability": "view",
            "type": "function"
        },
        {
            "inputs": [],
            "name": "oasisGraveyard",
            "outputs": [
                {
                    "internalType": "address",
                    "name": "",
                    "type": "address"
                }
            ],
            "stateMutability": "view",
            "type": "function"
        },
        {
            "inputs": [],
            "name": "owner",
            "outputs": [
                {
                    "internalType": "address",
                    "name": "",
                    "type": "address"
                }
            ],
            "stateMutability": "view",
            "type": "function"
        },
        {
            "inputs": [
                {
                    "internalType": "address",
                    "name": "_minter",
                    "type": "address"
                }
            ],
            "name": "removeMinter",
            "outputs": [],
            "stateMutability": "nonpayable",
            "type": "function"
        },
        {
            "inputs": [],
            "name": "renounceOwnership",
            "outputs": [],
            "stateMutability": "nonpayable",
            "type": "function"
        },
        {
            "inputs": [
                {
                    "internalType": "address",
                    "name": "_crazyCamels",
                    "type": "address"
                },
                {
                    "internalType": "address",
                    "name": "_oasisGraveyard",
                    "type": "address"
                },
                {
                    "internalType": "uint256",
                    "name": "_tokensPerCrazyCamel",
                    "type": "uint256"
                }
            ],
            "name": "setStateVariables",
            "outputs": [],
            "stateMutability": "nonpayable",
            "type": "function"
        },
        {
            "inputs": [],
            "name": "symbol",
            "outputs": [
                {
                    "internalType": "string",
                    "name": "",
                    "type": "string"
                }
            ],
            "stateMutability": "view",
            "type": "function"
        },
        {
            "inputs": [],
            "name": "tokensPerCrazyCamel",
            "outputs": [
                {
                    "internalType": "uint256",
                    "name": "",
                    "type": "uint256"
                }
            ],
            "stateMutability": "view",
            "type": "function"
        },
        {
            "inputs": [],
            "name": "totalSupply",
            "outputs": [
                {
                    "internalType": "uint256",
                    "name": "",
                    "type": "uint256"
                }
            ],
            "stateMutability": "view",
            "type": "function"
        },
        {
            "inputs": [
                {
                    "internalType": "address",
                    "name": "to",
                    "type": "address"
                },
                {
                    "internalType": "uint256",
                    "name": "amount",
                    "type": "uint256"
                }
            ],
            "name": "transfer",
            "outputs": [
                {
                    "internalType": "bool",
                    "name": "",
                    "type": "bool"
                }
            ],
            "stateMutability": "nonpayable",
            "type": "function"
        },
        {
            "inputs": [
                {
                    "internalType": "address",
                    "name": "from",
                    "type": "address"
                },
                {
                    "internalType": "address",
                    "name": "to",
                    "type": "address"
                },
                {
                    "internalType": "uint256",
                    "name": "amount",
                    "type": "uint256"
                }
            ],
            "name": "transferFrom",
            "outputs": [
                {
                    "internalType": "bool",
                    "name": "",
                    "type": "bool"
                }
            ],
            "stateMutability": "nonpayable",
            "type": "function"
        },
        {
            "inputs": [
                {
                    "internalType": "address",
                    "name": "newOwner",
                    "type": "address"
                }
            ],
            "name": "transferOwnership",
            "outputs": [],
            "stateMutability": "nonpayable",
            "type": "function"
        }
    ],
    "bytecode": "60806040523480156200001157600080fd5b506040518060400160405280600b81526020016a27b0b9b4b9902a37b5b2b760a91b8152506040518060400160405280600381526020016213d4d560ea1b815250816003908162000063919062000195565b50600462000072828262000195565b5050506200008f620000896200009a60201b60201c565b6200009e565b600160065562000261565b3390565b600580546001600160a01b038381166001600160a01b0319831681179093556040519116919082907f8be0079c531659141344cd1fd0a4f28419497f9722a3daafe3b4186f6b6457e090600090a35050565b634e487b7160e01b600052604160045260246000fd5b600181811c908216806200011b57607f821691505b6020821081036200013c57634e487b7160e01b600052602260045260246000fd5b50919050565b601f8211156200019057600081815260208120601f850160051c810160208610156200016b5750805b601f850160051c820191505b818110156200018c5782815560010162000177565b5050505b505050565b81516001600160401b03811115620001b157620001b1620000f0565b620001c981620001c2845462000106565b8462000142565b602080601f831160018114620002015760008415620001e85750858301515b600019600386901b1c1916600185901b1785556200018c565b600085815260208120601f198616915b82811015620002325788860151825594840194600190910190840162000211565b5085821015620002515787850151600019600388901b60f8161c191681555b5050505050600190811b01905550565b61113b80620002716000396000f3fe608060405234801561001057600080fd5b506004361061014d5760003560e01c806370a08231116100c3578063a457c2d71161007c578063a457c2d7146102c5578063a9059cbb146102d8578063c79476b5146102eb578063dd62ed3e146102fe578063e996487114610311578063f2fde38b1461032457600080fd5b806370a0823114610241578063715018a61461026a5780638da5cb5b1461027257806395d89b4114610297578063983b2d561461029f5780639ff51675146102b257600080fd5b80633092afd5116101155780633092afd5146101c1578063313ce567146101d657806339509351146101e55780633dd08c38146101f857806340c10f191461021b5780636ba4c1381461022e57600080fd5b806306fdde0314610152578063095ea7b31461017057806318160ddd1461019357806323b872dd146101a55780632647cfac146101b8575b600080fd5b61015a610337565b6040516101679190610dde565b60405180910390f35b61018361017e366004610e48565b6103c9565b6040519015158152602001610167565b6002545b604051908152602001610167565b6101836101b3366004610e72565b6103e3565b61019760095481565b6101d46101cf366004610eae565b610407565b005b60405160128152602001610167565b6101836101f3366004610e48565b610468565b610183610206366004610eae565b600a6020526000908152604090205460ff1681565b6101d4610229366004610e48565b61048a565b6101d461023c366004610ee6565b610523565b61019761024f366004610eae565b6001600160a01b031660009081526020819052604090205490565b6101d46106d7565b6005546001600160a01b03165b6040516001600160a01b039091168152602001610167565b61015a6106eb565b6101d46102ad366004610eae565b6106fa565b60085461027f906001600160a01b031681565b6101836102d3366004610e48565b610756565b6101836102e6366004610e48565b6107d1565b60075461027f906001600160a01b031681565b61019761030c366004610fa4565b6107df565b6101d461031f366004610e72565b61080a565b6101d4610332366004610eae565b61086e565b60606003805461034690610fd7565b80601f016020809104026020016040519081016040528092919081815260200182805461037290610fd7565b80156103bf5780601f10610394576101008083540402835291602001916103bf565b820191906000526020600020905b8154815290600101906020018083116103a257829003601f168201915b5050505050905090565b6000336103d78185856108e7565b60019150505b92915050565b6000336103f1858285610a0b565b6103fc858585610a85565b506001949350505050565b61040f610c53565b60026006540361043a5760405162461bcd60e51b815260040161043190611011565b60405180910390fd5b600260069081556001600160a01b039091166000908152600a60205260409020805460ff1916905560019055565b6000336103d781858561047b83836107df565b610485919061105e565b6108e7565b6002600654036104ac5760405162461bcd60e51b815260040161043190611011565b6002600655336000908152600a602052604090205460ff166105105760405162461bcd60e51b815260206004820152601a60248201527f4d75737420626520616e2061737369676e6564204d696e7465720000000000006044820152606401610431565b61051a8282610cad565b50506001600655565b6002600654036105455760405162461bcd60e51b815260040161043190611011565b600260065580516105a35760405162461bcd60e51b815260206004820152602260248201527f4d757374206275726e206174206c65617374206f6e65204372617a792043616d604482015261195b60f21b6064820152608401610431565b60005b81518110156106655760075460085483516001600160a01b03928316926342842e0e9233929116908690869081106105e0576105e0611071565b60209081029190910101516040516001600160e01b031960e086901b1681526001600160a01b0393841660048201529290911660248301526044820152606401600060405180830381600087803b15801561063a57600080fd5b505af115801561064e573d6000803e3d6000fd5b50505050808061065d90611087565b9150506105a6565b5061067e33600954835161067991906110a0565b610cad565b336001600160a01b03167fe95b1afb8a6019e43b6906420999d1c23995e338d5e7016e96f61b605fa96e2660095483516106b891906110a0565b836040516106c79291906110b7565b60405180910390a2506001600655565b6106df610c53565b6106e96000610d8c565b565b60606004805461034690610fd7565b610702610c53565b6002600654036107245760405162461bcd60e51b815260040161043190611011565b600260069081556001600160a01b039091166000908152600a60205260409020805460ff191660019081179091559055565b6000338161076482866107df565b9050838110156107c45760405162461bcd60e51b815260206004820152602560248201527f45524332303a2064656372656173656420616c6c6f77616e63652062656c6f77604482015264207a65726f60d81b6064820152608401610431565b6103fc82868684036108e7565b6000336103d7818585610a85565b6001600160a01b03918216600090815260016020908152604080832093909416825291909152205490565b610812610c53565b6002600654036108345760405162461bcd60e51b815260040161043190611011565b600780546001600160a01b039485166001600160a01b03199182161790915560088054939094169216919091179091556009556001600655565b610876610c53565b6001600160a01b0381166108db5760405162461bcd60e51b815260206004820152602660248201527f4f776e61626c653a206e6577206f776e657220697320746865207a65726f206160448201526564647265737360d01b6064820152608401610431565b6108e481610d8c565b50565b6001600160a01b0383166109495760405162461bcd60e51b8152602060048201526024808201527f45524332303a20617070726f76652066726f6d20746865207a65726f206164646044820152637265737360e01b6064820152608401610431565b6001600160a01b0382166109aa5760405162461bcd60e51b815260206004820152602260248201527f45524332303a20617070726f766520746f20746865207a65726f206164647265604482015261737360f01b6064820152608401610431565b6001600160a01b0383811660008181526001602090815260408083209487168084529482529182902085905590518481527f8c5be1e5ebec7d5bd14f71427d1e84f3dd0314c0f7b2291e5b200ac8c7c3b925910160405180910390a3505050565b6000610a1784846107df565b90506000198114610a7f5781811015610a725760405162461bcd60e51b815260206004820152601d60248201527f45524332303a20696e73756666696369656e7420616c6c6f77616e63650000006044820152606401610431565b610a7f84848484036108e7565b50505050565b6001600160a01b038316610ae95760405162461bcd60e51b815260206004820152602560248201527f45524332303a207472616e736665722066726f6d20746865207a65726f206164604482015264647265737360d81b6064820152608401610431565b6001600160a01b038216610b4b5760405162461bcd60e51b815260206004820152602360248201527f45524332303a207472616e7366657220746f20746865207a65726f206164647260448201526265737360e81b6064820152608401610431565b6001600160a01b03831660009081526020819052604090205481811015610bc35760405162461bcd60e51b815260206004820152602660248201527f45524332303a207472616e7366657220616d6f756e7420657863656564732062604482015265616c616e636560d01b6064820152608401610431565b6001600160a01b03808516600090815260208190526040808220858503905591851681529081208054849290610bfa90849061105e565b92505081905550826001600160a01b0316846001600160a01b03167fddf252ad1be2c89b69c2b068fc378daa952ba7f163c4a11628f55a4df523b3ef84604051610c4691815260200190565b60405180910390a3610a7f565b6005546001600160a01b031633146106e95760405162461bcd60e51b815260206004820181905260248201527f4f776e61626c653a2063616c6c6572206973206e6f7420746865206f776e65726044820152606401610431565b6001600160a01b038216610d035760405162461bcd60e51b815260206004820152601f60248201527f45524332303a206d696e7420746f20746865207a65726f2061646472657373006044820152606401610431565b8060026000828254610d15919061105e565b90915550506001600160a01b03821660009081526020819052604081208054839290610d4290849061105e565b90915550506040518181526001600160a01b038316906000907fddf252ad1be2c89b69c2b068fc378daa952ba7f163c4a11628f55a4df523b3ef9060200160405180910390a35050565b600580546001600160a01b038381166001600160a01b0319831681179093556040519116919082907f8be0079c531659141344cd1fd0a4f28419497f9722a3daafe3b4186f6b6457e090600090a35050565b600060208083528351808285015260005b81811015610e0b57858101830151858201604001528201610def565b506000604082860101526040601f19601f8301168501019250505092915050565b80356001600160a01b0381168114610e4357600080fd5b919050565b60008060408385031215610e5b57600080fd5b610e6483610e2c565b946020939093013593505050565b600080600060608486031215610e8757600080fd5b610e9084610e2c565b9250610e9e60208501610e2c565b9150604084013590509250925092565b600060208284031215610ec057600080fd5b610ec982610e2c565b9392505050565b634e487b7160e01b600052604160045260246000fd5b60006020808385031215610ef957600080fd5b823567ffffffffffffffff80821115610f1157600080fd5b818501915085601f830112610f2557600080fd5b813581811115610f3757610f37610ed0565b8060051b604051601f19603f83011681018181108582111715610f5c57610f5c610ed0565b604052918252848201925083810185019188831115610f7a57600080fd5b938501935b82851015610f9857843584529385019392850192610f7f565b98975050505050505050565b60008060408385031215610fb757600080fd5b610fc083610e2c565b9150610fce60208401610e2c565b90509250929050565b600181811c90821680610feb57607f821691505b60208210810361100b57634e487b7160e01b600052602260045260246000fd5b50919050565b6020808252601f908201527f5265656e7472616e637947756172643a207265656e7472616e742063616c6c00604082015260600190565b634e487b7160e01b600052601160045260246000fd5b808201808211156103dd576103dd611048565b634e487b7160e01b600052603260045260246000fd5b60006001820161109957611099611048565b5060010190565b80820281158282048414176103dd576103dd611048565b6000604082018483526020604081850152818551808452606086019150828701935060005b818110156110f8578451835293830193918301916001016110dc565b509097965050505050505056fea26469706673582212209c19b22ec1c4e09c612c6a5629ed9610d2dc38bb5494daa634746b47af1030c664736f6c63430008110033",
    "sourcePath": "d:/Projects/The-Oasis-Solidity/contracts/OasisToken.sol",
    "compiler": {
        "name": "solc",
        "version": "0.8.17+commit.8df45f5f"
    },
    "functionHashes": {
        "addMinter(address)": "983b2d56",
        "allowance(address,address)": "dd62ed3e",
        "approve(address,uint256)": "095ea7b3",
        "balanceOf(address)": "70a08231",
        "claim(uint256[])": "6ba4c138",
        "crazyCamels()": "c79476b5",
        "decimals()": "313ce567",
        "decreaseAllowance(address,uint256)": "a457c2d7",
        "increaseAllowance(address,uint256)": "39509351",
        "mint(address,uint256)": "40c10f19",
        "minter(address)": "3dd08c38",
        "name()": "06fdde03",
        "oasisGraveyard()": "9ff51675",
        "owner()": "8da5cb5b",
        "removeMinter(address)": "3092afd5",
        "renounceOwnership()": "715018a6",
        "setStateVariables(address,address,uint256)": "e9964871",
        "symbol()": "95d89b41",
        "tokensPerCrazyCamel()": "2647cfac",
        "totalSupply()": "18160ddd",
        "transfer(address,uint256)": "a9059cbb",
        "transferFrom(address,address,uint256)": "23b872dd",
        "transferOwnership(address)": "f2fde38b"
    },
    "gasEstimates": {
        "creation": {
            "codeDepositCost": "882200",
            "executionCost": "infinite",
            "totalCost": "infinite"
        },
        "external": {
            "addMinter(address)": "73238",
            "allowance(address,address)": "infinite",
            "approve(address,uint256)": "24651",
            "balanceOf(address)": "2563",
            "claim(uint256[])": "infinite",
            "crazyCamels()": "2403",
            "decimals()": "222",
            "decreaseAllowance(address,uint256)": "26972",
            "increaseAllowance(address,uint256)": "infinite",
            "mint(address,uint256)": "infinite",
            "minter(address)": "2620",
            "name()": "infinite",
            "oasisGraveyard()": "2470",
            "owner()": "2387",
            "removeMinter(address)": "73138",
            "renounceOwnership()": "infinite",
            "setStateVariables(address,address,uint256)": "infinite",
            "symbol()": "infinite",
            "tokensPerCrazyCamel()": "2407",
            "totalSupply()": "2349",
            "transfer(address,uint256)": "infinite",
            "transferFrom(address,address,uint256)": "infinite",
            "transferOwnership(address)": "28468"
        }
    }
}