{
    "contractName": "OasisToken",
    "abi": [
        {
            "inputs": [
                {
                    "internalType": "address",
                    "name": "_crazyCamels",
                    "type": "address"
                },
                {
                    "internalType": "address",
                    "name": "_oasisGraveyard",
                    "type": "address"
                },
                {
                    "internalType": "uint256",
                    "name": "_tokensPerCrazyCamel",
                    "type": "uint256"
                }
            ],
            "stateMutability": "nonpayable",
            "type": "constructor"
        },
        {
            "inputs": [],
            "name": "InvalidArguments",
            "type": "error"
        },
        {
            "inputs": [],
            "name": "NotMinter",
            "type": "error"
        },
        {
            "anonymous": false,
            "inputs": [
                {
                    "indexed": true,
                    "internalType": "address",
                    "name": "owner",
                    "type": "address"
                },
                {
                    "indexed": true,
                    "internalType": "address",
                    "name": "spender",
                    "type": "address"
                },
                {
                    "indexed": false,
                    "internalType": "uint256",
                    "name": "value",
                    "type": "uint256"
                }
            ],
            "name": "Approval",
            "type": "event"
        },
        {
            "anonymous": false,
            "inputs": [
                {
                    "indexed": true,
                    "internalType": "address",
                    "name": "claimer",
                    "type": "address"
                },
                {
                    "indexed": false,
                    "internalType": "uint256",
                    "name": "ostAmount",
                    "type": "uint256"
                }
            ],
            "name": "Claimed",
            "type": "event"
        },
        {
            "anonymous": false,
            "inputs": [
                {
                    "indexed": true,
                    "internalType": "address",
                    "name": "previousOwner",
                    "type": "address"
                },
                {
                    "indexed": true,
                    "internalType": "address",
                    "name": "newOwner",
                    "type": "address"
                }
            ],
            "name": "OwnershipTransferred",
            "type": "event"
        },
        {
            "anonymous": false,
            "inputs": [
                {
                    "indexed": true,
                    "internalType": "address",
                    "name": "from",
                    "type": "address"
                },
                {
                    "indexed": true,
                    "internalType": "address",
                    "name": "to",
                    "type": "address"
                },
                {
                    "indexed": false,
                    "internalType": "uint256",
                    "name": "value",
                    "type": "uint256"
                }
            ],
            "name": "Transfer",
            "type": "event"
        },
        {
            "inputs": [
                {
                    "internalType": "address",
                    "name": "_minter",
                    "type": "address"
                }
            ],
            "name": "addMinter",
            "outputs": [],
            "stateMutability": "nonpayable",
            "type": "function"
        },
        {
            "inputs": [
                {
                    "internalType": "address",
                    "name": "owner",
                    "type": "address"
                },
                {
                    "internalType": "address",
                    "name": "spender",
                    "type": "address"
                }
            ],
            "name": "allowance",
            "outputs": [
                {
                    "internalType": "uint256",
                    "name": "",
                    "type": "uint256"
                }
            ],
            "stateMutability": "view",
            "type": "function"
        },
        {
            "inputs": [
                {
                    "internalType": "address",
                    "name": "spender",
                    "type": "address"
                },
                {
                    "internalType": "uint256",
                    "name": "amount",
                    "type": "uint256"
                }
            ],
            "name": "approve",
            "outputs": [
                {
                    "internalType": "bool",
                    "name": "",
                    "type": "bool"
                }
            ],
            "stateMutability": "nonpayable",
            "type": "function"
        },
        {
            "inputs": [
                {
                    "internalType": "address",
                    "name": "account",
                    "type": "address"
                }
            ],
            "name": "balanceOf",
            "outputs": [
                {
                    "internalType": "uint256",
                    "name": "",
                    "type": "uint256"
                }
            ],
            "stateMutability": "view",
            "type": "function"
        },
        {
            "inputs": [
                {
                    "internalType": "uint256[]",
                    "name": "_tokenIds",
                    "type": "uint256[]"
                }
            ],
            "name": "claim",
            "outputs": [],
            "stateMutability": "nonpayable",
            "type": "function"
        },
        {
            "inputs": [],
            "name": "crazyCamels",
            "outputs": [
                {
                    "internalType": "address",
                    "name": "",
                    "type": "address"
                }
            ],
            "stateMutability": "view",
            "type": "function"
        },
        {
            "inputs": [],
            "name": "decimals",
            "outputs": [
                {
                    "internalType": "uint8",
                    "name": "",
                    "type": "uint8"
                }
            ],
            "stateMutability": "view",
            "type": "function"
        },
        {
            "inputs": [
                {
                    "internalType": "address",
                    "name": "spender",
                    "type": "address"
                },
                {
                    "internalType": "uint256",
                    "name": "subtractedValue",
                    "type": "uint256"
                }
            ],
            "name": "decreaseAllowance",
            "outputs": [
                {
                    "internalType": "bool",
                    "name": "",
                    "type": "bool"
                }
            ],
            "stateMutability": "nonpayable",
            "type": "function"
        },
        {
            "inputs": [
                {
                    "internalType": "address",
                    "name": "spender",
                    "type": "address"
                },
                {
                    "internalType": "uint256",
                    "name": "addedValue",
                    "type": "uint256"
                }
            ],
            "name": "increaseAllowance",
            "outputs": [
                {
                    "internalType": "bool",
                    "name": "",
                    "type": "bool"
                }
            ],
            "stateMutability": "nonpayable",
            "type": "function"
        },
        {
            "inputs": [
                {
                    "internalType": "address",
                    "name": "_to",
                    "type": "address"
                },
                {
                    "internalType": "uint256",
                    "name": "_amount",
                    "type": "uint256"
                }
            ],
            "name": "mint",
            "outputs": [],
            "stateMutability": "nonpayable",
            "type": "function"
        },
        {
            "inputs": [
                {
                    "internalType": "address",
                    "name": "",
                    "type": "address"
                }
            ],
            "name": "minter",
            "outputs": [
                {
                    "internalType": "bool",
                    "name": "",
                    "type": "bool"
                }
            ],
            "stateMutability": "view",
            "type": "function"
        },
        {
            "inputs": [],
            "name": "name",
            "outputs": [
                {
                    "internalType": "string",
                    "name": "",
                    "type": "string"
                }
            ],
            "stateMutability": "view",
            "type": "function"
        },
        {
            "inputs": [],
            "name": "oasisGraveyard",
            "outputs": [
                {
                    "internalType": "address",
                    "name": "",
                    "type": "address"
                }
            ],
            "stateMutability": "view",
            "type": "function"
        },
        {
            "inputs": [],
            "name": "owner",
            "outputs": [
                {
                    "internalType": "address",
                    "name": "",
                    "type": "address"
                }
            ],
            "stateMutability": "view",
            "type": "function"
        },
        {
            "inputs": [
                {
                    "internalType": "address",
                    "name": "_minter",
                    "type": "address"
                }
            ],
            "name": "removeMinter",
            "outputs": [],
            "stateMutability": "nonpayable",
            "type": "function"
        },
        {
            "inputs": [],
            "name": "renounceOwnership",
            "outputs": [],
            "stateMutability": "nonpayable",
            "type": "function"
        },
        {
            "inputs": [
                {
                    "internalType": "uint256",
                    "name": "_tokensPerCrazyCamel",
                    "type": "uint256"
                }
            ],
            "name": "setTokens",
            "outputs": [],
            "stateMutability": "nonpayable",
            "type": "function"
        },
        {
            "inputs": [],
            "name": "symbol",
            "outputs": [
                {
                    "internalType": "string",
                    "name": "",
                    "type": "string"
                }
            ],
            "stateMutability": "view",
            "type": "function"
        },
        {
            "inputs": [],
            "name": "tokensPerCrazyCamel",
            "outputs": [
                {
                    "internalType": "uint256",
                    "name": "",
                    "type": "uint256"
                }
            ],
            "stateMutability": "view",
            "type": "function"
        },
        {
            "inputs": [],
            "name": "totalSupply",
            "outputs": [
                {
                    "internalType": "uint256",
                    "name": "",
                    "type": "uint256"
                }
            ],
            "stateMutability": "view",
            "type": "function"
        },
        {
            "inputs": [
                {
                    "internalType": "address",
                    "name": "to",
                    "type": "address"
                },
                {
                    "internalType": "uint256",
                    "name": "amount",
                    "type": "uint256"
                }
            ],
            "name": "transfer",
            "outputs": [
                {
                    "internalType": "bool",
                    "name": "",
                    "type": "bool"
                }
            ],
            "stateMutability": "nonpayable",
            "type": "function"
        },
        {
            "inputs": [
                {
                    "internalType": "address",
                    "name": "from",
                    "type": "address"
                },
                {
                    "internalType": "address",
                    "name": "to",
                    "type": "address"
                },
                {
                    "internalType": "uint256",
                    "name": "amount",
                    "type": "uint256"
                }
            ],
            "name": "transferFrom",
            "outputs": [
                {
                    "internalType": "bool",
                    "name": "",
                    "type": "bool"
                }
            ],
            "stateMutability": "nonpayable",
            "type": "function"
        },
        {
            "inputs": [
                {
                    "internalType": "address",
                    "name": "newOwner",
                    "type": "address"
                }
            ],
            "name": "transferOwnership",
            "outputs": [],
            "stateMutability": "nonpayable",
            "type": "function"
        }
    ],
    "bytecode": "60c06040523480156200001157600080fd5b506040516200126438038062001264833981016040819052620000349162000140565b6040518060400160405280600b81526020016a27b0b9b4b9902a37b5b2b760a91b8152506040518060400160405280600381526020016213d4d560ea1b815250816003908162000085919062000226565b50600462000094828262000226565b505050620000b1620000ab620000cd60201b60201c565b620000d1565b6001600160a01b03928316608052911660a052600655620002f2565b3390565b600580546001600160a01b038381166001600160a01b0319831681179093556040519116919082907f8be0079c531659141344cd1fd0a4f28419497f9722a3daafe3b4186f6b6457e090600090a35050565b80516001600160a01b03811681146200013b57600080fd5b919050565b6000806000606084860312156200015657600080fd5b620001618462000123565b9250620001716020850162000123565b9150604084015190509250925092565b634e487b7160e01b600052604160045260246000fd5b600181811c90821680620001ac57607f821691505b602082108103620001cd57634e487b7160e01b600052602260045260246000fd5b50919050565b601f8211156200022157600081815260208120601f850160051c81016020861015620001fc5750805b601f850160051c820191505b818110156200021d5782815560010162000208565b5050505b505050565b81516001600160401b0381111562000242576200024262000181565b6200025a8162000253845462000197565b84620001d3565b602080601f831160018114620002925760008415620002795750858301515b600019600386901b1c1916600185901b1785556200021d565b600085815260208120601f198616915b82811015620002c357888601518255948401946001909101908401620002a2565b5085821015620002e25787850151600019600388901b60f8161c191681555b5050505050600190811b01905550565b60805160a051610f3e62000326600039600081816102ca01526104ca01526000818161031701526105290152610f3e6000f3fe608060405234801561001057600080fd5b506004361061014d5760003560e01c80636ba4c138116100c35780639ff516751161007c5780639ff51675146102c5578063a457c2d7146102ec578063a9059cbb146102ff578063c79476b514610312578063dd62ed3e14610339578063f2fde38b1461034c57600080fd5b80636ba4c1381461024157806370a0823114610254578063715018a61461027d5780638da5cb5b1461028557806395d89b41146102aa578063983b2d56146102b257600080fd5b80632c014a9d116101155780632c014a9d146101c15780633092afd5146101d6578063313ce567146101e957806339509351146101f85780633dd08c381461020b57806340c10f191461022e57600080fd5b806306fdde0314610152578063095ea7b31461017057806318160ddd1461019357806323b872dd146101a55780632647cfac146101b8575b600080fd5b61015a61035f565b6040516101679190610cac565b60405180910390f35b61018361017e366004610d16565b6103f1565b6040519015158152602001610167565b6002545b604051908152602001610167565b6101836101b3366004610d40565b61040b565b61019760065481565b6101d46101cf366004610d7c565b61042f565b005b6101d46101e4366004610d95565b61043c565b60405160128152602001610167565b610183610206366004610d16565b610465565b610183610219366004610d95565b60076020526000908152604090205460ff1681565b6101d461023c366004610d16565b610487565b6101d461024f366004610db7565b6104c5565b610197610262366004610d95565b6001600160a01b031660009081526020819052604090205490565b6101d4610634565b6005546001600160a01b03165b6040516001600160a01b039091168152602001610167565b61015a610648565b6101d46102c0366004610d95565b610657565b6102927f000000000000000000000000000000000000000000000000000000000000000081565b6101836102fa366004610d16565b610683565b61018361030d366004610d16565b610703565b6102927f000000000000000000000000000000000000000000000000000000000000000081565b610197610347366004610e2c565b610711565b6101d461035a366004610d95565b61073c565b60606003805461036e90610e5f565b80601f016020809104026020016040519081016040528092919081815260200182805461039a90610e5f565b80156103e75780601f106103bc576101008083540402835291602001916103e7565b820191906000526020600020905b8154815290600101906020018083116103ca57829003601f168201915b5050505050905090565b6000336103ff8185856107b5565b60019150505b92915050565b6000336104198582856108d9565b610424858585610953565b506001949350505050565b610437610b21565b600655565b610444610b21565b6001600160a01b03166000908152600760205260409020805460ff19169055565b6000336103ff8185856104788383610711565b6104829190610eaf565b6107b5565b3360009081526007602052604090205460ff166104b757604051633e34a41b60e21b815260040160405180910390fd5b6104c18282610b7b565b5050565b6006547f000000000000000000000000000000000000000000000000000000000000000090829060006104f88284610ec2565b9050600183101561051c576040516317dbc4cb60e21b815260040160405180910390fd5b60005b838110156105ec577f00000000000000000000000000000000000000000000000000000000000000006001600160a01b03166323b872dd33878a8a8681811061056a5761056a610ed9565b6040516001600160e01b031960e088901b1681526001600160a01b03958616600482015294909316602485015250602090910201356044820152606401600060405180830381600087803b1580156105c157600080fd5b505af11580156105d5573d6000803e3d6000fd5b5050505080806105e490610eef565b91505061051f565b506105f73382610b7b565b60405181815233907fd8138f8a3f377c5259ca548e70e4c2de94f129f5a11036a15b69513cba2b426a9060200160405180910390a2505050505050565b61063c610b21565b6106466000610c5a565b565b60606004805461036e90610e5f565b61065f610b21565b6001600160a01b03166000908152600760205260409020805460ff19166001179055565b600033816106918286610711565b9050838110156106f65760405162461bcd60e51b815260206004820152602560248201527f45524332303a2064656372656173656420616c6c6f77616e63652062656c6f77604482015264207a65726f60d81b60648201526084015b60405180910390fd5b61042482868684036107b5565b6000336103ff818585610953565b6001600160a01b03918216600090815260016020908152604080832093909416825291909152205490565b610744610b21565b6001600160a01b0381166107a95760405162461bcd60e51b815260206004820152602660248201527f4f776e61626c653a206e6577206f776e657220697320746865207a65726f206160448201526564647265737360d01b60648201526084016106ed565b6107b281610c5a565b50565b6001600160a01b0383166108175760405162461bcd60e51b8152602060048201526024808201527f45524332303a20617070726f76652066726f6d20746865207a65726f206164646044820152637265737360e01b60648201526084016106ed565b6001600160a01b0382166108785760405162461bcd60e51b815260206004820152602260248201527f45524332303a20617070726f766520746f20746865207a65726f206164647265604482015261737360f01b60648201526084016106ed565b6001600160a01b0383811660008181526001602090815260408083209487168084529482529182902085905590518481527f8c5be1e5ebec7d5bd14f71427d1e84f3dd0314c0f7b2291e5b200ac8c7c3b925910160405180910390a3505050565b60006108e58484610711565b9050600019811461094d57818110156109405760405162461bcd60e51b815260206004820152601d60248201527f45524332303a20696e73756666696369656e7420616c6c6f77616e636500000060448201526064016106ed565b61094d84848484036107b5565b50505050565b6001600160a01b0383166109b75760405162461bcd60e51b815260206004820152602560248201527f45524332303a207472616e736665722066726f6d20746865207a65726f206164604482015264647265737360d81b60648201526084016106ed565b6001600160a01b038216610a195760405162461bcd60e51b815260206004820152602360248201527f45524332303a207472616e7366657220746f20746865207a65726f206164647260448201526265737360e81b60648201526084016106ed565b6001600160a01b03831660009081526020819052604090205481811015610a915760405162461bcd60e51b815260206004820152602660248201527f45524332303a207472616e7366657220616d6f756e7420657863656564732062604482015265616c616e636560d01b60648201526084016106ed565b6001600160a01b03808516600090815260208190526040808220858503905591851681529081208054849290610ac8908490610eaf565b92505081905550826001600160a01b0316846001600160a01b03167fddf252ad1be2c89b69c2b068fc378daa952ba7f163c4a11628f55a4df523b3ef84604051610b1491815260200190565b60405180910390a361094d565b6005546001600160a01b031633146106465760405162461bcd60e51b815260206004820181905260248201527f4f776e61626c653a2063616c6c6572206973206e6f7420746865206f776e657260448201526064016106ed565b6001600160a01b038216610bd15760405162461bcd60e51b815260206004820152601f60248201527f45524332303a206d696e7420746f20746865207a65726f20616464726573730060448201526064016106ed565b8060026000828254610be39190610eaf565b90915550506001600160a01b03821660009081526020819052604081208054839290610c10908490610eaf565b90915550506040518181526001600160a01b038316906000907fddf252ad1be2c89b69c2b068fc378daa952ba7f163c4a11628f55a4df523b3ef9060200160405180910390a35050565b600580546001600160a01b038381166001600160a01b0319831681179093556040519116919082907f8be0079c531659141344cd1fd0a4f28419497f9722a3daafe3b4186f6b6457e090600090a35050565b600060208083528351808285015260005b81811015610cd957858101830151858201604001528201610cbd565b506000604082860101526040601f19601f8301168501019250505092915050565b80356001600160a01b0381168114610d1157600080fd5b919050565b60008060408385031215610d2957600080fd5b610d3283610cfa565b946020939093013593505050565b600080600060608486031215610d5557600080fd5b610d5e84610cfa565b9250610d6c60208501610cfa565b9150604084013590509250925092565b600060208284031215610d8e57600080fd5b5035919050565b600060208284031215610da757600080fd5b610db082610cfa565b9392505050565b60008060208385031215610dca57600080fd5b823567ffffffffffffffff80821115610de257600080fd5b818501915085601f830112610df657600080fd5b813581811115610e0557600080fd5b8660208260051b8501011115610e1a57600080fd5b60209290920196919550909350505050565b60008060408385031215610e3f57600080fd5b610e4883610cfa565b9150610e5660208401610cfa565b90509250929050565b600181811c90821680610e7357607f821691505b602082108103610e9357634e487b7160e01b600052602260045260246000fd5b50919050565b634e487b7160e01b600052601160045260246000fd5b8082018082111561040557610405610e99565b808202811582820484141761040557610405610e99565b634e487b7160e01b600052603260045260246000fd5b600060018201610f0157610f01610e99565b506001019056fea264697066735822122042afad4e493e457383e258aa91898aab77ac08aed297faea500a9e65454a772a64736f6c63430008110033",
    "sourcePath": "d:/Projects/The-Oasis-Solidity/contracts/OasisToken.sol",
    "compiler": {
        "name": "solc",
        "version": "0.8.17+commit.8df45f5f"
    },
    "functionHashes": {
        "addMinter(address)": "983b2d56",
        "allowance(address,address)": "dd62ed3e",
        "approve(address,uint256)": "095ea7b3",
        "balanceOf(address)": "70a08231",
        "claim(uint256[])": "6ba4c138",
        "crazyCamels()": "c79476b5",
        "decimals()": "313ce567",
        "decreaseAllowance(address,uint256)": "a457c2d7",
        "increaseAllowance(address,uint256)": "39509351",
        "mint(address,uint256)": "40c10f19",
        "minter(address)": "3dd08c38",
        "name()": "06fdde03",
        "oasisGraveyard()": "9ff51675",
        "owner()": "8da5cb5b",
        "removeMinter(address)": "3092afd5",
        "renounceOwnership()": "715018a6",
        "setTokens(uint256)": "2c014a9d",
        "symbol()": "95d89b41",
        "tokensPerCrazyCamel()": "2647cfac",
        "totalSupply()": "18160ddd",
        "transfer(address,uint256)": "a9059cbb",
        "transferFrom(address,address,uint256)": "23b872dd",
        "transferOwnership(address)": "f2fde38b"
    },
    "gasEstimates": {
        "creation": {
            "codeDepositCost": "780400",
            "executionCost": "infinite",
            "totalCost": "infinite"
        },
        "external": {
            "addMinter(address)": "26907",
            "allowance(address,address)": "infinite",
            "approve(address,uint256)": "24651",
            "balanceOf(address)": "2585",
            "claim(uint256[])": "infinite",
            "crazyCamels()": "infinite",
            "decimals()": "244",
            "decreaseAllowance(address,uint256)": "26994",
            "increaseAllowance(address,uint256)": "infinite",
            "mint(address,uint256)": "infinite",
            "minter(address)": "2642",
            "name()": "infinite",
            "oasisGraveyard()": "infinite",
            "owner()": "2409",
            "removeMinter(address)": "26813",
            "renounceOwnership()": "infinite",
            "setTokens(uint256)": "24511",
            "symbol()": "infinite",
            "tokensPerCrazyCamel()": "2407",
            "totalSupply()": "2349",
            "transfer(address,uint256)": "infinite",
            "transferFrom(address,address,uint256)": "infinite",
            "transferOwnership(address)": "28468"
        }
    }
}