{
    "contractName": "OasisShop",
    "abi": [
        {
            "anonymous": false,
            "inputs": [
                {
                    "indexed": true,
                    "internalType": "address",
                    "name": "previousOwner",
                    "type": "address"
                },
                {
                    "indexed": true,
                    "internalType": "address",
                    "name": "newOwner",
                    "type": "address"
                }
            ],
            "name": "OwnershipTransferred",
            "type": "event"
        },
        {
            "anonymous": false,
            "inputs": [
                {
                    "indexed": false,
                    "internalType": "address",
                    "name": "account",
                    "type": "address"
                }
            ],
            "name": "Paused",
            "type": "event"
        },
        {
            "anonymous": false,
            "inputs": [
                {
                    "indexed": true,
                    "internalType": "address",
                    "name": "buyer",
                    "type": "address"
                },
                {
                    "indexed": true,
                    "internalType": "address",
                    "name": "itemAddress",
                    "type": "address"
                },
                {
                    "components": [
                        {
                            "internalType": "bool",
                            "name": "isActive",
                            "type": "bool"
                        },
                        {
                            "internalType": "bool",
                            "name": "is721",
                            "type": "bool"
                        },
                        {
                            "internalType": "bool",
                            "name": "is20",
                            "type": "bool"
                        },
                        {
                            "internalType": "bool",
                            "name": "withWei",
                            "type": "bool"
                        },
                        {
                            "internalType": "bool",
                            "name": "withOst",
                            "type": "bool"
                        },
                        {
                            "internalType": "uint256",
                            "name": "weiPrice",
                            "type": "uint256"
                        },
                        {
                            "internalType": "uint256",
                            "name": "ostPrice",
                            "type": "uint256"
                        }
                    ],
                    "indexed": false,
                    "internalType": "struct OasisShop.ShopItem",
                    "name": "item",
                    "type": "tuple"
                },
                {
                    "indexed": false,
                    "internalType": "uint256",
                    "name": "quantity",
                    "type": "uint256"
                }
            ],
            "name": "PurchasedShopItems",
            "type": "event"
        },
        {
            "anonymous": false,
            "inputs": [
                {
                    "indexed": false,
                    "internalType": "address",
                    "name": "account",
                    "type": "address"
                }
            ],
            "name": "Unpaused",
            "type": "event"
        },
        {
            "inputs": [
                {
                    "internalType": "address",
                    "name": "_contract",
                    "type": "address"
                },
                {
                    "components": [
                        {
                            "internalType": "bool",
                            "name": "isActive",
                            "type": "bool"
                        },
                        {
                            "internalType": "bool",
                            "name": "is721",
                            "type": "bool"
                        },
                        {
                            "internalType": "bool",
                            "name": "is20",
                            "type": "bool"
                        },
                        {
                            "internalType": "bool",
                            "name": "withWei",
                            "type": "bool"
                        },
                        {
                            "internalType": "bool",
                            "name": "withOst",
                            "type": "bool"
                        },
                        {
                            "internalType": "uint256",
                            "name": "weiPrice",
                            "type": "uint256"
                        },
                        {
                            "internalType": "uint256",
                            "name": "ostPrice",
                            "type": "uint256"
                        }
                    ],
                    "internalType": "struct OasisShop.ShopItem",
                    "name": "_item",
                    "type": "tuple"
                }
            ],
            "name": "addShopItem",
            "outputs": [],
            "stateMutability": "nonpayable",
            "type": "function"
        },
        {
            "inputs": [],
            "name": "oasisGraveyard",
            "outputs": [
                {
                    "internalType": "address",
                    "name": "",
                    "type": "address"
                }
            ],
            "stateMutability": "view",
            "type": "function"
        },
        {
            "inputs": [],
            "name": "ost",
            "outputs": [
                {
                    "internalType": "address",
                    "name": "",
                    "type": "address"
                }
            ],
            "stateMutability": "view",
            "type": "function"
        },
        {
            "inputs": [],
            "name": "owner",
            "outputs": [
                {
                    "internalType": "address",
                    "name": "",
                    "type": "address"
                }
            ],
            "stateMutability": "view",
            "type": "function"
        },
        {
            "inputs": [],
            "name": "pause",
            "outputs": [],
            "stateMutability": "nonpayable",
            "type": "function"
        },
        {
            "inputs": [],
            "name": "paused",
            "outputs": [
                {
                    "internalType": "bool",
                    "name": "",
                    "type": "bool"
                }
            ],
            "stateMutability": "view",
            "type": "function"
        },
        {
            "inputs": [
                {
                    "internalType": "address",
                    "name": "_contract",
                    "type": "address"
                },
                {
                    "internalType": "uint256",
                    "name": "_quantity",
                    "type": "uint256"
                }
            ],
            "name": "purchaseWithEth",
            "outputs": [],
            "stateMutability": "payable",
            "type": "function"
        },
        {
            "inputs": [
                {
                    "internalType": "address",
                    "name": "_contract",
                    "type": "address"
                },
                {
                    "internalType": "uint256",
                    "name": "_quantity",
                    "type": "uint256"
                }
            ],
            "name": "purchaseWithOst",
            "outputs": [],
            "stateMutability": "nonpayable",
            "type": "function"
        },
        {
            "inputs": [
                {
                    "internalType": "address",
                    "name": "_contract",
                    "type": "address"
                }
            ],
            "name": "removeShopIem",
            "outputs": [],
            "stateMutability": "nonpayable",
            "type": "function"
        },
        {
            "inputs": [],
            "name": "renounceOwnership",
            "outputs": [],
            "stateMutability": "nonpayable",
            "type": "function"
        },
        {
            "inputs": [
                {
                    "internalType": "address",
                    "name": "_oasisGraveyard",
                    "type": "address"
                },
                {
                    "internalType": "address",
                    "name": "_treasury",
                    "type": "address"
                },
                {
                    "internalType": "address",
                    "name": "_ost",
                    "type": "address"
                }
            ],
            "name": "setStateVariables",
            "outputs": [],
            "stateMutability": "nonpayable",
            "type": "function"
        },
        {
            "inputs": [
                {
                    "internalType": "address",
                    "name": "",
                    "type": "address"
                }
            ],
            "name": "shopItems",
            "outputs": [
                {
                    "internalType": "bool",
                    "name": "isActive",
                    "type": "bool"
                },
                {
                    "internalType": "bool",
                    "name": "is721",
                    "type": "bool"
                },
                {
                    "internalType": "bool",
                    "name": "is20",
                    "type": "bool"
                },
                {
                    "internalType": "bool",
                    "name": "withWei",
                    "type": "bool"
                },
                {
                    "internalType": "bool",
                    "name": "withOst",
                    "type": "bool"
                },
                {
                    "internalType": "uint256",
                    "name": "weiPrice",
                    "type": "uint256"
                },
                {
                    "internalType": "uint256",
                    "name": "ostPrice",
                    "type": "uint256"
                }
            ],
            "stateMutability": "view",
            "type": "function"
        },
        {
            "inputs": [
                {
                    "internalType": "address",
                    "name": "newOwner",
                    "type": "address"
                }
            ],
            "name": "transferOwnership",
            "outputs": [],
            "stateMutability": "nonpayable",
            "type": "function"
        },
        {
            "inputs": [],
            "name": "treasury",
            "outputs": [
                {
                    "internalType": "address",
                    "name": "",
                    "type": "address"
                }
            ],
            "stateMutability": "view",
            "type": "function"
        },
        {
            "inputs": [],
            "name": "unpause",
            "outputs": [],
            "stateMutability": "nonpayable",
            "type": "function"
        }
    ],
    "bytecode": "6080604052600060065534801561001557600080fd5b506000805460ff1916905561002933610032565b6001805561008b565b600080546001600160a01b03838116610100818102610100600160a81b0319851617855560405193049190911692909183917f8be0079c531659141344cd1fd0a4f28419497f9722a3daafe3b4186f6b6457e091a35050565b61196c8061009a6000396000f3fe6080604052600436106100e85760003560e01c80637c1c43e21161008a578063a756fdd011610059578063a756fdd0146102d8578063ac6c69d4146102f8578063ddc643ce14610318578063f2fde38b1461032b57600080fd5b80637c1c43e2146101d95780638456cb59146102805780638da5cb5b146102955780639ff51675146102b857600080fd5b80636094be2d116100c65780636094be2d1461014c57806361d027b31461016c578063715018a6146101a457806378db4589146101b957600080fd5b806325455706146100ed5780633f4ba83a1461010f5780635c975abb14610124575b600080fd5b3480156100f957600080fd5b5061010d6101083660046115cb565b61034b565b005b34801561011b57600080fd5b5061010d6103c1565b34801561013057600080fd5b5060005460ff1660405190151581526020015b60405180910390f35b34801561015857600080fd5b5061010d61016736600461160e565b6103fe565b34801561017857600080fd5b5060035461018c906001600160a01b031681565b6040516001600160a01b039091168152602001610143565b3480156101b057600080fd5b5061010d610bd8565b3480156101c557600080fd5b5061010d6101d4366004611638565b610bec565b3480156101e557600080fd5b506102416101f4366004611638565b60056020526000908152604090208054600182015460029092015460ff80831693610100840482169362010000810483169363010000008204841693640100000000909204909116919087565b60408051971515885295151560208801529315159486019490945290151560608501521515608084015260a083019190915260c082015260e001610143565b34801561028c57600080fd5b5061010d610c50565b3480156102a157600080fd5b5060005461010090046001600160a01b031661018c565b3480156102c457600080fd5b5060025461018c906001600160a01b031681565b3480156102e457600080fd5b5060045461018c906001600160a01b031681565b34801561030457600080fd5b5061010d610313366004611673565b610c87565b61010d61032636600461160e565b610dda565b34801561033757600080fd5b5061010d610346366004611638565b6112d5565b61035361134e565b60026001540361037e5760405162461bcd60e51b81526004016103759061174b565b60405180910390fd5b600280546001600160a01b039485166001600160a01b03199182161790915560038054938516938216939093179092556004805491909316911617905560018055565b6103c961134e565b6002600154036103eb5760405162461bcd60e51b81526004016103759061174b565b60026001556103f86113ae565b60018055565b610406611400565b6002600154036104285760405162461bcd60e51b81526004016103759061174b565b60026001556001600160a01b03821660009081526005602052604090205460ff166104905760405162461bcd60e51b81526020600482015260186024820152772a3434b99034ba32b69034b9903737ba1030b1ba34bb329760411b6044820152606401610375565b6001600160a01b038216600090815260056020526040902054640100000000900460ff166105115760405162461bcd60e51b815260206004820152602860248201527f54686973206974656d2063616e6e6f74206265207075726368617365642077696044820152673a34101227a9aa1760c11b6064820152608401610375565b600081116105315760405162461bcd60e51b815260040161037590611782565b6001600160a01b038216600090815260056020908152604091829020825160e081018452815460ff808216151583526101008204811615159483019490945262010000810484161580159583019590955263010000008104841615156060830152640100000000900490921615156080830152600181015460a08301526002015460c08201529061081c576003546040516370a0823160e01b81526001600160a01b0391821660048201526000918516906370a0823190602401602060405180830381865afa158015610608573d6000803e3d6000fd5b505050506040513d601f19601f8201168201806040525081019061062c91906117c6565b600480546040516370a0823160e01b815233928101929092529192506000916001600160a01b0316906370a0823190602401602060405180830381865afa15801561067b573d6000803e3d6000fd5b505050506040513d601f19601f8201168201806040525081019061069f91906117c6565b90506000848460c001516106b391906117f5565b9050848310156106d55760405162461bcd60e51b81526004016103759061180c565b8082101561071f5760405162461bcd60e51b81526020600482015260176024820152762737ba1032b737bab3b4101227a9aa103a37b5b2b7399760491b6044820152606401610375565b6003546040516323b872dd60e01b81526001600160a01b03888116926323b872dd92610755929091169033908a90600401611851565b6020604051808303816000875af1158015610774573d6000803e3d6000fd5b505050506040513d601f19601f820116820180604052508101906107989190611875565b50600480546002546040516323b872dd60e01b81526001600160a01b03928316936323b872dd936107d0933393911691879101611851565b6020604051808303816000875af11580156107ef573d6000803e3d6000fd5b505050506040513d601f19601f820116820180604052508101906108139190611875565b50505050610b42565b806020015115610aee576003546040516370a0823160e01b81526001600160a01b0391821660048201526000918516906370a0823190602401602060405180830381865afa158015610872573d6000803e3d6000fd5b505050506040513d601f19601f8201168201806040525081019061089691906117c6565b600480546040516370a0823160e01b815233928101929092529192506000916001600160a01b0316906370a0823190602401602060405180830381865afa1580156108e5573d6000803e3d6000fd5b505050506040513d601f19601f8201168201806040525081019061090991906117c6565b90506000848460c0015161091d91906117f5565b90508483101561093f5760405162461bcd60e51b815260040161037590611892565b808210156109895760405162461bcd60e51b81526020600482015260176024820152762737ba1032b737bab3b4101227a9aa103a37b5b2b7399760491b6044820152606401610375565b60005b85811015610aa25760006109a9816109a484886118d5565b611446565b600354604051632f745c5960e01b81526001600160a01b03918216600482015260248101839052919250600091908a1690632f745c5990604401602060405180830381865afa158015610a00573d6000803e3d6000fd5b505050506040513d601f19601f82011682018060405250810190610a2491906117c6565b600354604051632142170760e11b81529192506001600160a01b03808c16926342842e0e92610a5b92169033908690600401611851565b600060405180830381600087803b158015610a7557600080fd5b505af1158015610a89573d6000803e3d6000fd5b5050505050508080610a9a906118e8565b91505061098c565b5060045460025460c08601516001600160a01b03928316926323b872dd923392911690610ad0908a906117f5565b6040518463ffffffff1660e01b81526004016107d093929190611851565b60405162461bcd60e51b8152602060048201526024808201527f546869732074797065206f6620746f6b656e206973206e6f7420737570706f726044820152633a32b21760e11b6064820152608401610375565b604080518251151581526020808401511515908201528282015115158183015260608084015115159082015260808084015115159082015260a0808401519082015260c0808401519082015260e0810184905290516001600160a01b0385169133917f17bd9f4542e1e14fce075ce4e8a7f7819657693f5105ba9cc81a3dbae6beed5a918190036101000190a350506001805550565b610be061134e565b610bea60006114d0565b565b610bf461134e565b600260015403610c165760405162461bcd60e51b81526004016103759061174b565b600260018181556001600160a01b039092166000908152600560205260408120805464ffffffffff19168155808401829055909101558055565b610c5861134e565b600260015403610c7a5760405162461bcd60e51b81526004016103759061174b565b60026001556103f8611529565b610c8f61134e565b600260015403610cb15760405162461bcd60e51b81526004016103759061174b565b60026001556001600160a01b03821615801590610ccc575080515b8015610ce45750806020015115158160400151151514155b8015610d1b575080606001518015610d00575060008160a00151115b80610d1b575080608001518015610d1b575060008160c00151115b610d2457600080fd5b6001600160a01b039091166000908152600560209081526040918290208351815492850151938501516060860151608087015115156401000000000264ff000000001991151563010000000263ff0000001993151562010000029390931663ffff0000199715156101000261ff00199515159590951661ffff1990971696909617939093179590951693909317929092179290921617815560a082015160018083019190915560c0909201516002909101558055565b610de2611400565b600260015403610e045760405162461bcd60e51b81526004016103759061174b565b60026001556001600160a01b03821660009081526005602052604090205460ff16610e6c5760405162461bcd60e51b81526020600482015260186024820152772a3434b99034ba32b69034b9903737ba1030b1ba34bb329760411b6044820152606401610375565b6001600160a01b0382166000908152600560205260409020546301000000900460ff16610eec5760405162461bcd60e51b815260206004820152602860248201527f54686973206974656d2063616e6e6f74206265207075726368617365642077696044820152673a34101222aa241760c11b6064820152608401610375565b60008111610f0c5760405162461bcd60e51b815260040161037590611782565b6001600160a01b038216600090815260056020908152604091829020825160e081018452815460ff808216151583526101008204811615159483019490945262010000810484161580159583019590955263010000008104841615156060830152640100000000900490921615156080830152600181015460a08301526002015460c0820152906110c2576003546040516370a0823160e01b81526001600160a01b0391821660048201526000918516906370a0823190602401602060405180830381865afa158015610fe3573d6000803e3d6000fd5b505050506040513d601f19601f8201168201806040525081019061100791906117c6565b905060003490506000848460a0015161102091906117f5565b9050848310156110425760405162461bcd60e51b81526004016103759061180c565b8082101561108c5760405162461bcd60e51b81526020600482015260176024820152762737ba1032b737bab3b4101222aa24103a37b5b2b7399760491b6044820152606401610375565b6003546040516323b872dd60e01b81526001600160a01b03888116926323b872dd926107d0929091169033908a90600401611851565b806020015115610aee576003546040516370a0823160e01b81526001600160a01b0391821660048201526000918516906370a0823190602401602060405180830381865afa158015611118573d6000803e3d6000fd5b505050506040513d601f19601f8201168201806040525081019061113c91906117c6565b905060003490506000848460a0015161115591906117f5565b9050848310156111775760405162461bcd60e51b815260040161037590611892565b808210156111c15760405162461bcd60e51b81526020600482015260176024820152762737ba1032b737bab3b4101222aa24103a37b5b2b7399760491b6044820152606401610375565b60005b85811015610aa25760006111dc816109a484886118d5565b600354604051632f745c5960e01b81526001600160a01b03918216600482015260248101839052919250600091908a1690632f745c5990604401602060405180830381865afa158015611233573d6000803e3d6000fd5b505050506040513d601f19601f8201168201806040525081019061125791906117c6565b600354604051632142170760e11b81529192506001600160a01b03808c16926342842e0e9261128e92169033908690600401611851565b600060405180830381600087803b1580156112a857600080fd5b505af11580156112bc573d6000803e3d6000fd5b50505050505080806112cd906118e8565b9150506111c4565b6112dd61134e565b6001600160a01b0381166113425760405162461bcd60e51b815260206004820152602660248201527f4f776e61626c653a206e6577206f776e657220697320746865207a65726f206160448201526564647265737360d01b6064820152608401610375565b61134b816114d0565b50565b6000546001600160a01b03610100909104163314610bea5760405162461bcd60e51b815260206004820181905260248201527f4f776e61626c653a2063616c6c6572206973206e6f7420746865206f776e65726044820152606401610375565b6113b6611566565b6000805460ff191690557f5db9ee0a495bf2e6ff9c91a7834c1ba4fdd244a5e8aa4e537bd38aeae4b073aa335b6040516001600160a01b03909116815260200160405180910390a1565b60005460ff1615610bea5760405162461bcd60e51b815260206004820152601060248201526f14185d5cd8589b194e881c185d5cd95960821b6044820152606401610375565b6000808242336006546040516020016114849392919092835260609190911b6bffffffffffffffffffffffff19166020830152603482015260540190565b6040516020818303038152906040528051906020012060001c6114a79190611901565b90506114b38482611923565b905060065460016114c49190611923565b60065590505b92915050565b600080546001600160a01b03838116610100818102610100600160a81b0319851617855560405193049190911692909183917f8be0079c531659141344cd1fd0a4f28419497f9722a3daafe3b4186f6b6457e091a35050565b611531611400565b6000805460ff191660011790557f62e78cea01bee320cd4e420270b5ea74000d11b0c9f74754ebdbfc544b05a2586113e33390565b60005460ff16610bea5760405162461bcd60e51b815260206004820152601460248201527314185d5cd8589b194e881b9bdd081c185d5cd95960621b6044820152606401610375565b80356001600160a01b03811681146115c657600080fd5b919050565b6000806000606084860312156115e057600080fd5b6115e9846115af565b92506115f7602085016115af565b9150611605604085016115af565b90509250925092565b6000806040838503121561162157600080fd5b61162a836115af565b946020939093013593505050565b60006020828403121561164a57600080fd5b611653826115af565b9392505050565b801515811461134b57600080fd5b80356115c68161165a565b60008082840361010081121561168857600080fd5b611691846115af565b925060e0601f19820112156116a557600080fd5b5060405160e0810181811067ffffffffffffffff821117156116d757634e487b7160e01b600052604160045260246000fd5b6040526116e660208501611668565b81526116f460408501611668565b602082015261170560608501611668565b604082015261171660808501611668565b606082015261172760a08501611668565b608082015260c084013560a082015260e084013560c0820152809150509250929050565b6020808252601f908201527f5265656e7472616e637947756172643a207265656e7472616e742063616c6c00604082015260600190565b60208082526024908201527f596f75206d757374206174206c65617374207075726368617365206f6e6520696040820152633a32b69760e11b606082015260800190565b6000602082840312156117d857600080fd5b5051919050565b634e487b7160e01b600052601160045260246000fd5b80820281158282048414176114ca576114ca6117df565b60208082526025908201527f547265617375727920646f6573206e6f74206861766520656e6f75676820746f60408201526435b2b7399760d91b606082015260800190565b6001600160a01b039384168152919092166020820152604081019190915260600190565b60006020828403121561188757600080fd5b81516116538161165a565b60208082526023908201527f547265617375727920646f6573206e6f74206861766520656e6f756768204e466040820152622a399760e91b606082015260800190565b818103818111156114ca576114ca6117df565b6000600182016118fa576118fa6117df565b5060010190565b60008261191e57634e487b7160e01b600052601260045260246000fd5b500690565b808201808211156114ca576114ca6117df56fea26469706673582212208351eeee7924408caa4ef9d03393cc325b63de49c8ec225211c9210ec5d7f45864736f6c63430008110033",
    "sourcePath": "d:/Projects/The-Oasis-Solidity/contracts/OasisShop.sol",
    "compiler": {
        "name": "solc",
        "version": "0.8.17+commit.8df45f5f"
    },
    "functionHashes": {
        "addShopItem(address,(bool,bool,bool,bool,bool,uint256,uint256))": "ac6c69d4",
        "oasisGraveyard()": "9ff51675",
        "ost()": "a756fdd0",
        "owner()": "8da5cb5b",
        "pause()": "8456cb59",
        "paused()": "5c975abb",
        "purchaseWithEth(address,uint256)": "ddc643ce",
        "purchaseWithOst(address,uint256)": "6094be2d",
        "removeShopIem(address)": "78db4589",
        "renounceOwnership()": "715018a6",
        "setStateVariables(address,address,address)": "25455706",
        "shopItems(address)": "7c1c43e2",
        "transferOwnership(address)": "f2fde38b",
        "treasury()": "61d027b3",
        "unpause()": "3f4ba83a"
    },
    "gasEstimates": {
        "creation": {
            "codeDepositCost": "1301600",
            "executionCost": "78549",
            "totalCost": "1380149"
        },
        "external": {
            "addShopItem(address,(bool,bool,bool,bool,bool,uint256,uint256))": "infinite",
            "oasisGraveyard()": "2426",
            "ost()": "2359",
            "owner()": "2409",
            "pause()": "infinite",
            "paused()": "2349",
            "purchaseWithEth(address,uint256)": "infinite",
            "purchaseWithOst(address,uint256)": "infinite",
            "removeShopIem(address)": "83239",
            "renounceOwnership()": "infinite",
            "setStateVariables(address,address,address)": "infinite",
            "shopItems(address)": "7020",
            "transferOwnership(address)": "28457",
            "treasury()": "2382",
            "unpause()": "infinite"
        },
        "internal": {
            "generateRandomNumber(uint256,uint256)": "infinite"
        }
    }
}