{
    "contractName": "OasisGraveyard",
    "abi": [
        {
            "inputs": [
                {
                    "internalType": "address",
                    "name": "_crazyCamels",
                    "type": "address"
                }
            ],
            "stateMutability": "nonpayable",
            "type": "constructor"
        },
        {
            "inputs": [],
            "name": "buriedCamels",
            "outputs": [
                {
                    "internalType": "uint256",
                    "name": "",
                    "type": "uint256"
                }
            ],
            "stateMutability": "view",
            "type": "function"
        },
        {
            "inputs": [],
            "name": "crazyCamels",
            "outputs": [
                {
                    "internalType": "address",
                    "name": "",
                    "type": "address"
                }
            ],
            "stateMutability": "view",
            "type": "function"
        }
    ],
    "bytecode": "60a060405234801561001057600080fd5b5060405161020438038061020483398101604081905261002f91610040565b6001600160a01b0316608052610070565b60006020828403121561005257600080fd5b81516001600160a01b038116811461006957600080fd5b9392505050565b60805161017461009060003960008181605b015260ad01526101746000f3fe608060405234801561001057600080fd5b50600436106100365760003560e01c806314f4771d1461003b578063c79476b514610056575b600080fd5b610043610095565b6040519081526020015b60405180910390f35b61007d7f000000000000000000000000000000000000000000000000000000000000000081565b6040516001600160a01b03909116815260200161004d565b6040516370a0823160e01b81523060048201526000907f00000000000000000000000000000000000000000000000000000000000000006001600160a01b0316906370a0823190602401602060405180830381865afa1580156100fc573d6000803e3d6000fd5b505050506040513d601f19601f820116820180604052508101906101209190610125565b905090565b60006020828403121561013757600080fd5b505191905056fea26469706673582212206e25132b46158e2f5684fbd024a8cb2c9534f286d50c4609eb91f3c861197f1a64736f6c63430008110033",
    "sourcePath": "d:/Projects/The-Oasis-Solidity/contracts/OasisGraveyard.sol",
    "compiler": {
        "name": "solc",
        "version": "0.8.17+commit.8df45f5f"
    },
    "functionHashes": {
        "buriedCamels()": "14f4771d",
        "crazyCamels()": "c79476b5"
    },
    "gasEstimates": {
        "creation": {
            "codeDepositCost": "74400",
            "executionCost": "infinite",
            "totalCost": "infinite"
        },
        "external": {
            "buriedCamels()": "infinite",
            "crazyCamels()": "infinite"
        }
    }
}