{
    "contractName": "OasisMint",
    "abi": [
        {
            "inputs": [
                {
                    "internalType": "address payable",
                    "name": "_ec",
                    "type": "address"
                },
                {
                    "internalType": "contract IERC20",
                    "name": "_ost",
                    "type": "address"
                }
            ],
            "stateMutability": "nonpayable",
            "type": "constructor"
        },
        {
            "anonymous": false,
            "inputs": [
                {
                    "indexed": true,
                    "internalType": "address",
                    "name": "previousOwner",
                    "type": "address"
                },
                {
                    "indexed": true,
                    "internalType": "address",
                    "name": "newOwner",
                    "type": "address"
                }
            ],
            "name": "OwnershipTransferred",
            "type": "event"
        },
        {
            "inputs": [],
            "name": "ec",
            "outputs": [
                {
                    "internalType": "address payable",
                    "name": "",
                    "type": "address"
                }
            ],
            "stateMutability": "view",
            "type": "function"
        },
        {
            "inputs": [
                {
                    "internalType": "uint256",
                    "name": "_amount",
                    "type": "uint256"
                }
            ],
            "name": "oasisMint",
            "outputs": [],
            "stateMutability": "payable",
            "type": "function"
        },
        {
            "inputs": [],
            "name": "ost",
            "outputs": [
                {
                    "internalType": "contract IERC20",
                    "name": "",
                    "type": "address"
                }
            ],
            "stateMutability": "view",
            "type": "function"
        },
        {
            "inputs": [],
            "name": "ostRewardPerMint",
            "outputs": [
                {
                    "internalType": "uint256",
                    "name": "",
                    "type": "uint256"
                }
            ],
            "stateMutability": "view",
            "type": "function"
        },
        {
            "inputs": [],
            "name": "owner",
            "outputs": [
                {
                    "internalType": "address",
                    "name": "",
                    "type": "address"
                }
            ],
            "stateMutability": "view",
            "type": "function"
        },
        {
            "inputs": [],
            "name": "renounceOwnership",
            "outputs": [],
            "stateMutability": "nonpayable",
            "type": "function"
        },
        {
            "inputs": [
                {
                    "internalType": "uint256",
                    "name": "_rewards",
                    "type": "uint256"
                }
            ],
            "name": "setRewards",
            "outputs": [],
            "stateMutability": "nonpayable",
            "type": "function"
        },
        {
            "inputs": [
                {
                    "internalType": "address",
                    "name": "newOwner",
                    "type": "address"
                }
            ],
            "name": "transferOwnership",
            "outputs": [],
            "stateMutability": "nonpayable",
            "type": "function"
        },
        {
            "inputs": [],
            "name": "withdrawOST",
            "outputs": [],
            "stateMutability": "nonpayable",
            "type": "function"
        }
    ],
    "bytecode": "60c0604052690a968163f0a57b40000060025534801561001e57600080fd5b50604051610ade380380610ade83398101604081905261003d916100cc565b600160005561004b33610062565b6001600160a01b039182166080521660a052610106565b600180546001600160a01b038381166001600160a01b0319831681179093556040519116919082907f8be0079c531659141344cd1fd0a4f28419497f9722a3daafe3b4186f6b6457e090600090a35050565b6001600160a01b03811681146100c957600080fd5b50565b600080604083850312156100df57600080fd5b82516100ea816100b4565b60208401519092506100fb816100b4565b809150509250929050565b60805160a05161097b6101636000396000818161012201528181610321015281816105840152818161063101526106860152600081816101ab0152818161022e015281816103de0152818161047f01526104fc015261097b6000f3fe6080604052600436106100865760003560e01c8063a756fdd011610059578063a756fdd014610110578063c7a29c6f14610144578063d678ca0c14610164578063f2fde38b14610179578063f83b5dce1461019957600080fd5b806316e577ab1461008b578063711923cf146100a0578063715018a6146100c95780638da5cb5b146100de575b600080fd5b61009e610099366004610896565b6101cd565b005b3480156100ac57600080fd5b506100b660025481565b6040519081526020015b60405180910390f35b3480156100d557600080fd5b5061009e610606565b3480156100ea57600080fd5b506001546001600160a01b03165b6040516001600160a01b0390911681526020016100c0565b34801561011c57600080fd5b506100f87f000000000000000000000000000000000000000000000000000000000000000081565b34801561015057600080fd5b5061009e61015f366004610896565b61061a565b34801561017057600080fd5b5061009e610627565b34801561018557600080fd5b5061009e6101943660046108af565b610774565b3480156101a557600080fd5b506100f87f000000000000000000000000000000000000000000000000000000000000000081565b6002600054036102245760405162461bcd60e51b815260206004820152601f60248201527f5265656e7472616e637947756172643a207265656e7472616e742063616c6c0060448201526064015b60405180910390fd5b60026000819055507f00000000000000000000000000000000000000000000000000000000000000006001600160a01b031663bdb4b8486040518163ffffffff1660e01b8152600401602060405180830381865afa15801561028a573d6000803e3d6000fd5b505050506040513d601f19601f820116820180604052508101906102ae91906108df565b34146102ef5760405162461bcd60e51b815260206004820152601060248201526f125b9d985b1a59081155120814d95b9d60821b604482015260640161021b565b6000816002546102ff91906108f8565b6040516370a0823160e01b815230600482015290915081906001600160a01b037f000000000000000000000000000000000000000000000000000000000000000016906370a0823190602401602060405180830381865afa158015610368573d6000803e3d6000fd5b505050506040513d601f19601f8201168201806040525081019061038c91906108df565b10156103da5760405162461bcd60e51b815260206004820152601860248201527f436f6e74726163742042616c616e636520546f6f204c6f770000000000000000604482015260640161021b565b60007f00000000000000000000000000000000000000000000000000000000000000006001600160a01b03166318160ddd6040518163ffffffff1660e01b8152600401602060405180830381865afa15801561043a573d6000803e3d6000fd5b505050506040513d601f19601f8201168201806040525081019061045e91906108df565b604051630b3ab66b60e41b8152600481018590529091506001600160a01b037f0000000000000000000000000000000000000000000000000000000000000000169063b3ab66b09034906024016000604051808303818588803b1580156104c457600080fd5b505af11580156104d8573d6000803e3d6000fd5b5050604051632142170760e11b8152306004820152336024820152604481018590527f00000000000000000000000000000000000000000000000000000000000000006001600160a01b031693506342842e0e92506064019050600060405180830381600087803b15801561054c57600080fd5b505af1158015610560573d6000803e3d6000fd5b50506040516323b872dd60e01b8152306004820152336024820152604481018590527f00000000000000000000000000000000000000000000000000000000000000006001600160a01b031692506323b872dd91506064016020604051808303816000875af11580156105d7573d6000803e3d6000fd5b505050506040513d601f19601f820116820180604052508101906105fb9190610923565b505060016000555050565b61060e6107ea565b6106186000610844565b565b6106226107ea565b600255565b61062f6107ea565b7f00000000000000000000000000000000000000000000000000000000000000006001600160a01b03166323b872dd306106716001546001600160a01b031690565b6040516370a0823160e01b81523060048201527f00000000000000000000000000000000000000000000000000000000000000006001600160a01b0316906370a0823190602401602060405180830381865afa1580156106d5573d6000803e3d6000fd5b505050506040513d601f19601f820116820180604052508101906106f991906108df565b6040516001600160e01b031960e086901b1681526001600160a01b03938416600482015292909116602483015260448201526064016020604051808303816000875af115801561074d573d6000803e3d6000fd5b505050506040513d601f19601f820116820180604052508101906107719190610923565b50565b61077c6107ea565b6001600160a01b0381166107e15760405162461bcd60e51b815260206004820152602660248201527f4f776e61626c653a206e6577206f776e657220697320746865207a65726f206160448201526564647265737360d01b606482015260840161021b565b61077181610844565b6001546001600160a01b031633146106185760405162461bcd60e51b815260206004820181905260248201527f4f776e61626c653a2063616c6c6572206973206e6f7420746865206f776e6572604482015260640161021b565b600180546001600160a01b038381166001600160a01b0319831681179093556040519116919082907f8be0079c531659141344cd1fd0a4f28419497f9722a3daafe3b4186f6b6457e090600090a35050565b6000602082840312156108a857600080fd5b5035919050565b6000602082840312156108c157600080fd5b81356001600160a01b03811681146108d857600080fd5b9392505050565b6000602082840312156108f157600080fd5b5051919050565b808202811582820484141761091d57634e487b7160e01b600052601160045260246000fd5b92915050565b60006020828403121561093557600080fd5b815180151581146108d857600080fdfea2646970667358221220ecf3c51735e99e4dce2d8c16fac18b86d2caf01f90b8d79b55b701b5e2ba1e2e64736f6c63430008110033",
    "sourcePath": "d:/Projects/The-Oasis-Solidity/contracts/OasisMint.sol",
    "compiler": {
        "name": "solc",
        "version": "0.8.17+commit.8df45f5f"
    },
    "functionHashes": {
        "ec()": "f83b5dce",
        "oasisMint(uint256)": "16e577ab",
        "ost()": "a756fdd0",
        "ostRewardPerMint()": "711923cf",
        "owner()": "8da5cb5b",
        "renounceOwnership()": "715018a6",
        "setRewards(uint256)": "c7a29c6f",
        "transferOwnership(address)": "f2fde38b",
        "withdrawOST()": "d678ca0c"
    },
    "gasEstimates": {
        "creation": {
            "codeDepositCost": "485400",
            "executionCost": "infinite",
            "totalCost": "infinite"
        },
        "external": {
            "ec()": "infinite",
            "oasisMint(uint256)": "infinite",
            "ost()": "infinite",
            "ostRewardPerMint()": "2307",
            "owner()": "2387",
            "renounceOwnership()": "infinite",
            "setRewards(uint256)": "24510",
            "transferOwnership(address)": "28367",
            "withdrawOST()": "infinite"
        }
    }
}