{
    "contractName": "OasisToken",
    "abi": [
        {
            "inputs": [
                {
                    "internalType": "address",
                    "name": "_crazyCamels",
                    "type": "address"
                },
                {
                    "internalType": "address",
                    "name": "_oasisGraveyard",
                    "type": "address"
                },
                {
                    "internalType": "uint128",
                    "name": "_tokensPerCrazyCamel",
                    "type": "uint128"
                }
            ],
            "stateMutability": "nonpayable",
            "type": "constructor"
        },
        {
            "inputs": [],
            "name": "InvalidArguments",
            "type": "error"
        },
        {
            "inputs": [],
            "name": "NotMinter",
            "type": "error"
        },
        {
            "anonymous": false,
            "inputs": [
                {
                    "indexed": true,
                    "internalType": "address",
                    "name": "owner",
                    "type": "address"
                },
                {
                    "indexed": true,
                    "internalType": "address",
                    "name": "spender",
                    "type": "address"
                },
                {
                    "indexed": false,
                    "internalType": "uint256",
                    "name": "value",
                    "type": "uint256"
                }
            ],
            "name": "Approval",
            "type": "event"
        },
        {
            "anonymous": false,
            "inputs": [
                {
                    "indexed": true,
                    "internalType": "address",
                    "name": "claimer",
                    "type": "address"
                },
                {
                    "indexed": true,
                    "internalType": "uint256",
                    "name": "camelsBurned",
                    "type": "uint256"
                }
            ],
            "name": "Claimed",
            "type": "event"
        },
        {
            "anonymous": false,
            "inputs": [
                {
                    "indexed": true,
                    "internalType": "address",
                    "name": "previousOwner",
                    "type": "address"
                },
                {
                    "indexed": true,
                    "internalType": "address",
                    "name": "newOwner",
                    "type": "address"
                }
            ],
            "name": "OwnershipTransferred",
            "type": "event"
        },
        {
            "anonymous": false,
            "inputs": [
                {
                    "indexed": true,
                    "internalType": "address",
                    "name": "from",
                    "type": "address"
                },
                {
                    "indexed": true,
                    "internalType": "address",
                    "name": "to",
                    "type": "address"
                },
                {
                    "indexed": false,
                    "internalType": "uint256",
                    "name": "value",
                    "type": "uint256"
                }
            ],
            "name": "Transfer",
            "type": "event"
        },
        {
            "inputs": [
                {
                    "internalType": "address",
                    "name": "_minter",
                    "type": "address"
                }
            ],
            "name": "addMinter",
            "outputs": [],
            "stateMutability": "nonpayable",
            "type": "function"
        },
        {
            "inputs": [
                {
                    "internalType": "address",
                    "name": "owner",
                    "type": "address"
                },
                {
                    "internalType": "address",
                    "name": "spender",
                    "type": "address"
                }
            ],
            "name": "allowance",
            "outputs": [
                {
                    "internalType": "uint256",
                    "name": "",
                    "type": "uint256"
                }
            ],
            "stateMutability": "view",
            "type": "function"
        },
        {
            "inputs": [
                {
                    "internalType": "address",
                    "name": "spender",
                    "type": "address"
                },
                {
                    "internalType": "uint256",
                    "name": "amount",
                    "type": "uint256"
                }
            ],
            "name": "approve",
            "outputs": [
                {
                    "internalType": "bool",
                    "name": "",
                    "type": "bool"
                }
            ],
            "stateMutability": "nonpayable",
            "type": "function"
        },
        {
            "inputs": [
                {
                    "internalType": "address",
                    "name": "account",
                    "type": "address"
                }
            ],
            "name": "balanceOf",
            "outputs": [
                {
                    "internalType": "uint256",
                    "name": "",
                    "type": "uint256"
                }
            ],
            "stateMutability": "view",
            "type": "function"
        },
        {
            "inputs": [
                {
                    "internalType": "uint256[]",
                    "name": "_tokenIds",
                    "type": "uint256[]"
                }
            ],
            "name": "claim",
            "outputs": [],
            "stateMutability": "nonpayable",
            "type": "function"
        },
        {
            "inputs": [],
            "name": "crazyCamels",
            "outputs": [
                {
                    "internalType": "address",
                    "name": "",
                    "type": "address"
                }
            ],
            "stateMutability": "view",
            "type": "function"
        },
        {
            "inputs": [],
            "name": "decimals",
            "outputs": [
                {
                    "internalType": "uint8",
                    "name": "",
                    "type": "uint8"
                }
            ],
            "stateMutability": "view",
            "type": "function"
        },
        {
            "inputs": [
                {
                    "internalType": "address",
                    "name": "spender",
                    "type": "address"
                },
                {
                    "internalType": "uint256",
                    "name": "subtractedValue",
                    "type": "uint256"
                }
            ],
            "name": "decreaseAllowance",
            "outputs": [
                {
                    "internalType": "bool",
                    "name": "",
                    "type": "bool"
                }
            ],
            "stateMutability": "nonpayable",
            "type": "function"
        },
        {
            "inputs": [
                {
                    "internalType": "address",
                    "name": "spender",
                    "type": "address"
                },
                {
                    "internalType": "uint256",
                    "name": "addedValue",
                    "type": "uint256"
                }
            ],
            "name": "increaseAllowance",
            "outputs": [
                {
                    "internalType": "bool",
                    "name": "",
                    "type": "bool"
                }
            ],
            "stateMutability": "nonpayable",
            "type": "function"
        },
        {
            "inputs": [
                {
                    "internalType": "address",
                    "name": "_to",
                    "type": "address"
                },
                {
                    "internalType": "uint256",
                    "name": "_amount",
                    "type": "uint256"
                }
            ],
            "name": "mint",
            "outputs": [],
            "stateMutability": "nonpayable",
            "type": "function"
        },
        {
            "inputs": [
                {
                    "internalType": "address",
                    "name": "",
                    "type": "address"
                }
            ],
            "name": "minter",
            "outputs": [
                {
                    "internalType": "bool",
                    "name": "",
                    "type": "bool"
                }
            ],
            "stateMutability": "view",
            "type": "function"
        },
        {
            "inputs": [],
            "name": "name",
            "outputs": [
                {
                    "internalType": "string",
                    "name": "",
                    "type": "string"
                }
            ],
            "stateMutability": "view",
            "type": "function"
        },
        {
            "inputs": [],
            "name": "oasisGraveyard",
            "outputs": [
                {
                    "internalType": "address",
                    "name": "",
                    "type": "address"
                }
            ],
            "stateMutability": "view",
            "type": "function"
        },
        {
            "inputs": [],
            "name": "owner",
            "outputs": [
                {
                    "internalType": "address",
                    "name": "",
                    "type": "address"
                }
            ],
            "stateMutability": "view",
            "type": "function"
        },
        {
            "inputs": [
                {
                    "internalType": "address",
                    "name": "_minter",
                    "type": "address"
                }
            ],
            "name": "removeMinter",
            "outputs": [],
            "stateMutability": "nonpayable",
            "type": "function"
        },
        {
            "inputs": [],
            "name": "renounceOwnership",
            "outputs": [],
            "stateMutability": "nonpayable",
            "type": "function"
        },
        {
            "inputs": [],
            "name": "symbol",
            "outputs": [
                {
                    "internalType": "string",
                    "name": "",
                    "type": "string"
                }
            ],
            "stateMutability": "view",
            "type": "function"
        },
        {
            "inputs": [],
            "name": "tokensPerCrazyCamel",
            "outputs": [
                {
                    "internalType": "uint128",
                    "name": "",
                    "type": "uint128"
                }
            ],
            "stateMutability": "view",
            "type": "function"
        },
        {
            "inputs": [],
            "name": "totalSupply",
            "outputs": [
                {
                    "internalType": "uint256",
                    "name": "",
                    "type": "uint256"
                }
            ],
            "stateMutability": "view",
            "type": "function"
        },
        {
            "inputs": [
                {
                    "internalType": "address",
                    "name": "to",
                    "type": "address"
                },
                {
                    "internalType": "uint256",
                    "name": "amount",
                    "type": "uint256"
                }
            ],
            "name": "transfer",
            "outputs": [
                {
                    "internalType": "bool",
                    "name": "",
                    "type": "bool"
                }
            ],
            "stateMutability": "nonpayable",
            "type": "function"
        },
        {
            "inputs": [
                {
                    "internalType": "address",
                    "name": "from",
                    "type": "address"
                },
                {
                    "internalType": "address",
                    "name": "to",
                    "type": "address"
                },
                {
                    "internalType": "uint256",
                    "name": "amount",
                    "type": "uint256"
                }
            ],
            "name": "transferFrom",
            "outputs": [
                {
                    "internalType": "bool",
                    "name": "",
                    "type": "bool"
                }
            ],
            "stateMutability": "nonpayable",
            "type": "function"
        },
        {
            "inputs": [
                {
                    "internalType": "address",
                    "name": "newOwner",
                    "type": "address"
                }
            ],
            "name": "transferOwnership",
            "outputs": [],
            "stateMutability": "nonpayable",
            "type": "function"
        }
    ],
    "bytecode": "60e06040523480156200001157600080fd5b506040516200129a3803806200129a833981016040819052620000349162000149565b6040518060400160405280600b81526020016a27b0b9b4b9902a37b5b2b760a91b8152506040518060400160405280600381526020016213d4d560ea1b815250816003908162000085919062000248565b50600462000094828262000248565b505050620000b1620000ab620000d660201b60201c565b620000da565b6001600160a01b03928316608052911660a0526001600160801b031660c05262000314565b3390565b600580546001600160a01b038381166001600160a01b0319831681179093556040519116919082907f8be0079c531659141344cd1fd0a4f28419497f9722a3daafe3b4186f6b6457e090600090a35050565b80516001600160a01b03811681146200014457600080fd5b919050565b6000806000606084860312156200015f57600080fd5b6200016a846200012c565b92506200017a602085016200012c565b60408501519092506001600160801b03811681146200019857600080fd5b809150509250925092565b634e487b7160e01b600052604160045260246000fd5b600181811c90821680620001ce57607f821691505b602082108103620001ef57634e487b7160e01b600052602260045260246000fd5b50919050565b601f8211156200024357600081815260208120601f850160051c810160208610156200021e5750805b601f850160051c820191505b818110156200023f578281556001016200022a565b5050505b505050565b81516001600160401b03811115620002645762000264620001a3565b6200027c81620002758454620001b9565b84620001f5565b602080601f831160018114620002b457600084156200029b5750858301515b600019600386901b1c1916600185901b1785556200023f565b600085815260208120601f198616915b82811015620002e557888601518255948401946001909101908401620002c4565b5085821015620003045787850151600019600388901b60f8161c191681555b5050505050600190811b01905550565b60805160a05160c051610f4162000359600039600081816101b201526105f40152600081816102e2015261052f01526000818161032f01526104ff0152610f416000f3fe608060405234801561001057600080fd5b50600436106101425760003560e01c806370a08231116100b85780639ff516751161007c5780639ff51675146102dd578063a457c2d714610304578063a9059cbb14610317578063c79476b51461032a578063dd62ed3e14610351578063f2fde38b1461036457600080fd5b806370a082311461026c578063715018a6146102955780638da5cb5b1461029d57806395d89b41146102c2578063983b2d56146102ca57600080fd5b80633092afd51161010a5780633092afd5146101ec578063313ce5671461020157806339509351146102105780633dd08c381461022357806340c10f19146102465780636ba4c1381461025957600080fd5b806306fdde0314610147578063095ea7b31461016557806318160ddd1461018857806323b872dd1461019a5780632647cfac146101ad575b600080fd5b61014f610377565b60405161015c9190610cc8565b60405180910390f35b610178610173366004610d32565b610409565b604051901515815260200161015c565b6002545b60405190815260200161015c565b6101786101a8366004610d5c565b610423565b6101d47f000000000000000000000000000000000000000000000000000000000000000081565b6040516001600160801b03909116815260200161015c565b6101ff6101fa366004610d98565b610447565b005b6040516012815260200161015c565b61017861021e366004610d32565b610470565b610178610231366004610d98565b60066020526000908152604090205460ff1681565b6101ff610254366004610d32565b610492565b6101ff610267366004610dba565b6104d0565b61018c61027a366004610d98565b6001600160a01b031660009081526020819052604090205490565b6101ff610650565b6005546001600160a01b03165b6040516001600160a01b03909116815260200161015c565b61014f610664565b6101ff6102d8366004610d98565b610673565b6102aa7f000000000000000000000000000000000000000000000000000000000000000081565b610178610312366004610d32565b61069f565b610178610325366004610d32565b61071f565b6102aa7f000000000000000000000000000000000000000000000000000000000000000081565b61018c61035f366004610e2f565b61072d565b6101ff610372366004610d98565b610758565b60606003805461038690610e62565b80601f01602080910402602001604051908101604052809291908181526020018280546103b290610e62565b80156103ff5780601f106103d4576101008083540402835291602001916103ff565b820191906000526020600020905b8154815290600101906020018083116103e257829003601f168201915b5050505050905090565b6000336104178185856107d1565b60019150505b92915050565b6000336104318582856108f5565b61043c85858561096f565b506001949350505050565b61044f610b3d565b6001600160a01b03166000908152600660205260409020805460ff19169055565b600033610417818585610483838361072d565b61048d9190610eb2565b6107d1565b3360009081526006602052604090205460ff166104c257604051633e34a41b60e21b815260040160405180910390fd5b6104cc8282610b97565b5050565b60018110156104f2576040516317dbc4cb60e21b815260040160405180910390fd5b60005b818110156105e2577f00000000000000000000000000000000000000000000000000000000000000006001600160a01b03166323b872dd337f000000000000000000000000000000000000000000000000000000000000000086868681811061056057610560610ec5565b6040516001600160e01b031960e088901b1681526001600160a01b03958616600482015294909316602485015250602090910201356044820152606401600060405180830381600087803b1580156105b757600080fd5b505af11580156105cb573d6000803e3d6000fd5b5050505080806105da90610edb565b9150506104f5565b5061061f3361061a6001600160801b037f00000000000000000000000000000000000000000000000000000000000000001684610ef4565b610b97565b604051819033907fd8138f8a3f377c5259ca548e70e4c2de94f129f5a11036a15b69513cba2b426a90600090a35050565b610658610b3d565b6106626000610c76565b565b60606004805461038690610e62565b61067b610b3d565b6001600160a01b03166000908152600660205260409020805460ff19166001179055565b600033816106ad828661072d565b9050838110156107125760405162461bcd60e51b815260206004820152602560248201527f45524332303a2064656372656173656420616c6c6f77616e63652062656c6f77604482015264207a65726f60d81b60648201526084015b60405180910390fd5b61043c82868684036107d1565b60003361041781858561096f565b6001600160a01b03918216600090815260016020908152604080832093909416825291909152205490565b610760610b3d565b6001600160a01b0381166107c55760405162461bcd60e51b815260206004820152602660248201527f4f776e61626c653a206e6577206f776e657220697320746865207a65726f206160448201526564647265737360d01b6064820152608401610709565b6107ce81610c76565b50565b6001600160a01b0383166108335760405162461bcd60e51b8152602060048201526024808201527f45524332303a20617070726f76652066726f6d20746865207a65726f206164646044820152637265737360e01b6064820152608401610709565b6001600160a01b0382166108945760405162461bcd60e51b815260206004820152602260248201527f45524332303a20617070726f766520746f20746865207a65726f206164647265604482015261737360f01b6064820152608401610709565b6001600160a01b0383811660008181526001602090815260408083209487168084529482529182902085905590518481527f8c5be1e5ebec7d5bd14f71427d1e84f3dd0314c0f7b2291e5b200ac8c7c3b925910160405180910390a3505050565b6000610901848461072d565b90506000198114610969578181101561095c5760405162461bcd60e51b815260206004820152601d60248201527f45524332303a20696e73756666696369656e7420616c6c6f77616e63650000006044820152606401610709565b61096984848484036107d1565b50505050565b6001600160a01b0383166109d35760405162461bcd60e51b815260206004820152602560248201527f45524332303a207472616e736665722066726f6d20746865207a65726f206164604482015264647265737360d81b6064820152608401610709565b6001600160a01b038216610a355760405162461bcd60e51b815260206004820152602360248201527f45524332303a207472616e7366657220746f20746865207a65726f206164647260448201526265737360e81b6064820152608401610709565b6001600160a01b03831660009081526020819052604090205481811015610aad5760405162461bcd60e51b815260206004820152602660248201527f45524332303a207472616e7366657220616d6f756e7420657863656564732062604482015265616c616e636560d01b6064820152608401610709565b6001600160a01b03808516600090815260208190526040808220858503905591851681529081208054849290610ae4908490610eb2565b92505081905550826001600160a01b0316846001600160a01b03167fddf252ad1be2c89b69c2b068fc378daa952ba7f163c4a11628f55a4df523b3ef84604051610b3091815260200190565b60405180910390a3610969565b6005546001600160a01b031633146106625760405162461bcd60e51b815260206004820181905260248201527f4f776e61626c653a2063616c6c6572206973206e6f7420746865206f776e65726044820152606401610709565b6001600160a01b038216610bed5760405162461bcd60e51b815260206004820152601f60248201527f45524332303a206d696e7420746f20746865207a65726f2061646472657373006044820152606401610709565b8060026000828254610bff9190610eb2565b90915550506001600160a01b03821660009081526020819052604081208054839290610c2c908490610eb2565b90915550506040518181526001600160a01b038316906000907fddf252ad1be2c89b69c2b068fc378daa952ba7f163c4a11628f55a4df523b3ef9060200160405180910390a35050565b600580546001600160a01b038381166001600160a01b0319831681179093556040519116919082907f8be0079c531659141344cd1fd0a4f28419497f9722a3daafe3b4186f6b6457e090600090a35050565b600060208083528351808285015260005b81811015610cf557858101830151858201604001528201610cd9565b506000604082860101526040601f19601f8301168501019250505092915050565b80356001600160a01b0381168114610d2d57600080fd5b919050565b60008060408385031215610d4557600080fd5b610d4e83610d16565b946020939093013593505050565b600080600060608486031215610d7157600080fd5b610d7a84610d16565b9250610d8860208501610d16565b9150604084013590509250925092565b600060208284031215610daa57600080fd5b610db382610d16565b9392505050565b60008060208385031215610dcd57600080fd5b823567ffffffffffffffff80821115610de557600080fd5b818501915085601f830112610df957600080fd5b813581811115610e0857600080fd5b8660208260051b8501011115610e1d57600080fd5b60209290920196919550909350505050565b60008060408385031215610e4257600080fd5b610e4b83610d16565b9150610e5960208401610d16565b90509250929050565b600181811c90821680610e7657607f821691505b602082108103610e9657634e487b7160e01b600052602260045260246000fd5b50919050565b634e487b7160e01b600052601160045260246000fd5b8082018082111561041d5761041d610e9c565b634e487b7160e01b600052603260045260246000fd5b600060018201610eed57610eed610e9c565b5060010190565b808202811582820484141761041d5761041d610e9c56fea264697066735822122029f23b837a80a08fca78e71b2550c64730b26ac048fb6aca4679ed42cd19e17564736f6c63430008110033",
    "sourcePath": "d:/Projects/The-Oasis-Solidity/contracts/OasisToken.sol",
    "compiler": {
        "name": "solc",
        "version": "0.8.17+commit.8df45f5f"
    },
    "functionHashes": {
        "addMinter(address)": "983b2d56",
        "allowance(address,address)": "dd62ed3e",
        "approve(address,uint256)": "095ea7b3",
        "balanceOf(address)": "70a08231",
        "claim(uint256[])": "6ba4c138",
        "crazyCamels()": "c79476b5",
        "decimals()": "313ce567",
        "decreaseAllowance(address,uint256)": "a457c2d7",
        "increaseAllowance(address,uint256)": "39509351",
        "mint(address,uint256)": "40c10f19",
        "minter(address)": "3dd08c38",
        "name()": "06fdde03",
        "oasisGraveyard()": "9ff51675",
        "owner()": "8da5cb5b",
        "removeMinter(address)": "3092afd5",
        "renounceOwnership()": "715018a6",
        "symbol()": "95d89b41",
        "tokensPerCrazyCamel()": "2647cfac",
        "totalSupply()": "18160ddd",
        "transfer(address,uint256)": "a9059cbb",
        "transferFrom(address,address,uint256)": "23b872dd",
        "transferOwnership(address)": "f2fde38b"
    },
    "gasEstimates": {
        "creation": {
            "codeDepositCost": "781000",
            "executionCost": "infinite",
            "totalCost": "infinite"
        },
        "external": {
            "addMinter(address)": "26885",
            "allowance(address,address)": "infinite",
            "approve(address,uint256)": "24651",
            "balanceOf(address)": "2563",
            "claim(uint256[])": "infinite",
            "crazyCamels()": "infinite",
            "decimals()": "222",
            "decreaseAllowance(address,uint256)": "26994",
            "increaseAllowance(address,uint256)": "infinite",
            "mint(address,uint256)": "infinite",
            "minter(address)": "2620",
            "name()": "infinite",
            "oasisGraveyard()": "infinite",
            "owner()": "2387",
            "removeMinter(address)": "26791",
            "renounceOwnership()": "infinite",
            "symbol()": "infinite",
            "tokensPerCrazyCamel()": "infinite",
            "totalSupply()": "2349",
            "transfer(address,uint256)": "infinite",
            "transferFrom(address,address,uint256)": "infinite",
            "transferOwnership(address)": "28468"
        }
    }
}