{
    "contractName": "OasisGraveyard",
    "abi": [
        {
            "inputs": [
                {
                    "internalType": "address",
                    "name": "_crazyCamels",
                    "type": "address"
                },
                {
                    "internalType": "address",
                    "name": "_ost",
                    "type": "address"
                }
            ],
            "stateMutability": "nonpayable",
            "type": "constructor"
        },
        {
            "inputs": [],
            "name": "buriedCamels",
            "outputs": [
                {
                    "internalType": "uint256",
                    "name": "crazyCamels_",
                    "type": "uint256"
                }
            ],
            "stateMutability": "view",
            "type": "function"
        },
        {
            "inputs": [],
            "name": "buriedOasisTokens",
            "outputs": [
                {
                    "internalType": "uint256",
                    "name": "ost_",
                    "type": "uint256"
                }
            ],
            "stateMutability": "view",
            "type": "function"
        },
        {
            "inputs": [],
            "name": "crazyCamels",
            "outputs": [
                {
                    "internalType": "address",
                    "name": "",
                    "type": "address"
                }
            ],
            "stateMutability": "view",
            "type": "function"
        },
        {
            "inputs": [],
            "name": "ost",
            "outputs": [
                {
                    "internalType": "address",
                    "name": "",
                    "type": "address"
                }
            ],
            "stateMutability": "view",
            "type": "function"
        }
    ],
    "bytecode": "60c060405234801561001057600080fd5b506040516102ce3803806102ce83398101604081905261002f91610062565b6001600160a01b039182166080521660a052610095565b80516001600160a01b038116811461005d57600080fd5b919050565b6000806040838503121561007557600080fd5b61007e83610046565b915061008c60208401610046565b90509250929050565b60805160a0516102096100c5600039600081816079015261018301526000818160b8015260f201526102096000f3fe608060405234801561001057600080fd5b506004361061004c5760003560e01c806314f4771d146100515780632de69d3f1461006c578063a756fdd014610074578063c79476b5146100b3575b600080fd5b6100596100da565b6040519081526020015b60405180910390f35b61005961016b565b61009b7f000000000000000000000000000000000000000000000000000000000000000081565b6040516001600160a01b039091168152602001610063565b61009b7f000000000000000000000000000000000000000000000000000000000000000081565b6040516370a0823160e01b81523060048201526000907f00000000000000000000000000000000000000000000000000000000000000006001600160a01b0316906370a08231906024015b602060405180830381865afa158015610142573d6000803e3d6000fd5b505050506040513d601f19601f8201168201806040525081019061016691906101ba565b905090565b6040516370a0823160e01b81523060048201526000907f00000000000000000000000000000000000000000000000000000000000000006001600160a01b0316906370a0823190602401610125565b6000602082840312156101cc57600080fd5b505191905056fea2646970667358221220265e7137fb2a238857fae0aba3d163c02dc059a093f5bf60932d6c32334cb13e64736f6c63430008110033",
    "sourcePath": "d:/Projects/The-Oasis-Solidity/contracts/OasisGraveyard.sol",
    "compiler": {
        "name": "solc",
        "version": "0.8.17+commit.8df45f5f"
    },
    "functionHashes": {
        "buriedCamels()": "14f4771d",
        "buriedOasisTokens()": "2de69d3f",
        "crazyCamels()": "c79476b5",
        "ost()": "a756fdd0"
    },
    "gasEstimates": {
        "creation": {
            "codeDepositCost": "104200",
            "executionCost": "infinite",
            "totalCost": "infinite"
        },
        "external": {
            "buriedCamels()": "infinite",
            "buriedOasisTokens()": "infinite",
            "crazyCamels()": "infinite",
            "ost()": "infinite"
        }
    }
}