{
    "contractName": "OasisShop",
    "abi": [
        {
            "anonymous": false,
            "inputs": [
                {
                    "indexed": true,
                    "internalType": "address",
                    "name": "previousOwner",
                    "type": "address"
                },
                {
                    "indexed": true,
                    "internalType": "address",
                    "name": "newOwner",
                    "type": "address"
                }
            ],
            "name": "OwnershipTransferred",
            "type": "event"
        },
        {
            "anonymous": false,
            "inputs": [
                {
                    "indexed": false,
                    "internalType": "address",
                    "name": "account",
                    "type": "address"
                }
            ],
            "name": "Paused",
            "type": "event"
        },
        {
            "anonymous": false,
            "inputs": [
                {
                    "indexed": true,
                    "internalType": "address",
                    "name": "buyer",
                    "type": "address"
                },
                {
                    "indexed": true,
                    "internalType": "address",
                    "name": "itemContract",
                    "type": "address"
                },
                {
                    "indexed": false,
                    "internalType": "uint256",
                    "name": "quantity",
                    "type": "uint256"
                }
            ],
            "name": "PurchasedShopItems",
            "type": "event"
        },
        {
            "anonymous": false,
            "inputs": [
                {
                    "indexed": false,
                    "internalType": "address",
                    "name": "account",
                    "type": "address"
                }
            ],
            "name": "Unpaused",
            "type": "event"
        },
        {
            "inputs": [
                {
                    "internalType": "address",
                    "name": "_contract",
                    "type": "address"
                },
                {
                    "internalType": "bool",
                    "name": "_isActive",
                    "type": "bool"
                },
                {
                    "internalType": "bool",
                    "name": "_is721",
                    "type": "bool"
                },
                {
                    "internalType": "bool",
                    "name": "_is20",
                    "type": "bool"
                },
                {
                    "internalType": "bool",
                    "name": "_withWei",
                    "type": "bool"
                },
                {
                    "internalType": "bool",
                    "name": "_withOst",
                    "type": "bool"
                },
                {
                    "internalType": "uint256",
                    "name": "_weiPrice",
                    "type": "uint256"
                },
                {
                    "internalType": "uint256",
                    "name": "_ostPrice",
                    "type": "uint256"
                }
            ],
            "name": "addShopItem",
            "outputs": [],
            "stateMutability": "nonpayable",
            "type": "function"
        },
        {
            "inputs": [],
            "name": "oasisGraveyard",
            "outputs": [
                {
                    "internalType": "address",
                    "name": "",
                    "type": "address"
                }
            ],
            "stateMutability": "view",
            "type": "function"
        },
        {
            "inputs": [],
            "name": "ost",
            "outputs": [
                {
                    "internalType": "address",
                    "name": "",
                    "type": "address"
                }
            ],
            "stateMutability": "view",
            "type": "function"
        },
        {
            "inputs": [],
            "name": "owner",
            "outputs": [
                {
                    "internalType": "address",
                    "name": "",
                    "type": "address"
                }
            ],
            "stateMutability": "view",
            "type": "function"
        },
        {
            "inputs": [],
            "name": "pause",
            "outputs": [],
            "stateMutability": "nonpayable",
            "type": "function"
        },
        {
            "inputs": [],
            "name": "paused",
            "outputs": [
                {
                    "internalType": "bool",
                    "name": "",
                    "type": "bool"
                }
            ],
            "stateMutability": "view",
            "type": "function"
        },
        {
            "inputs": [
                {
                    "internalType": "address",
                    "name": "_contract",
                    "type": "address"
                },
                {
                    "internalType": "uint256",
                    "name": "_quantity",
                    "type": "uint256"
                }
            ],
            "name": "purchaseWithEth",
            "outputs": [],
            "stateMutability": "payable",
            "type": "function"
        },
        {
            "inputs": [
                {
                    "internalType": "address",
                    "name": "_contract",
                    "type": "address"
                },
                {
                    "internalType": "uint256",
                    "name": "_quantity",
                    "type": "uint256"
                }
            ],
            "name": "purchaseWithOst",
            "outputs": [],
            "stateMutability": "nonpayable",
            "type": "function"
        },
        {
            "inputs": [
                {
                    "internalType": "uint256",
                    "name": "_maxIncluded",
                    "type": "uint256"
                }
            ],
            "name": "rand",
            "outputs": [
                {
                    "internalType": "uint256",
                    "name": "random_",
                    "type": "uint256"
                }
            ],
            "stateMutability": "view",
            "type": "function"
        },
        {
            "inputs": [
                {
                    "internalType": "address",
                    "name": "_contract",
                    "type": "address"
                }
            ],
            "name": "removeShopIem",
            "outputs": [],
            "stateMutability": "nonpayable",
            "type": "function"
        },
        {
            "inputs": [],
            "name": "renounceOwnership",
            "outputs": [],
            "stateMutability": "nonpayable",
            "type": "function"
        },
        {
            "inputs": [
                {
                    "internalType": "address",
                    "name": "_oasisGraveyard",
                    "type": "address"
                },
                {
                    "internalType": "address",
                    "name": "_treasury",
                    "type": "address"
                },
                {
                    "internalType": "address",
                    "name": "_ost",
                    "type": "address"
                }
            ],
            "name": "setStateVariables",
            "outputs": [],
            "stateMutability": "nonpayable",
            "type": "function"
        },
        {
            "inputs": [
                {
                    "internalType": "address",
                    "name": "",
                    "type": "address"
                }
            ],
            "name": "shopItems",
            "outputs": [
                {
                    "internalType": "bool",
                    "name": "isActive",
                    "type": "bool"
                },
                {
                    "internalType": "bool",
                    "name": "is721",
                    "type": "bool"
                },
                {
                    "internalType": "bool",
                    "name": "is20",
                    "type": "bool"
                },
                {
                    "internalType": "bool",
                    "name": "withWei",
                    "type": "bool"
                },
                {
                    "internalType": "bool",
                    "name": "withOst",
                    "type": "bool"
                },
                {
                    "internalType": "uint256",
                    "name": "weiPrice",
                    "type": "uint256"
                },
                {
                    "internalType": "uint256",
                    "name": "ostPrice",
                    "type": "uint256"
                }
            ],
            "stateMutability": "view",
            "type": "function"
        },
        {
            "inputs": [
                {
                    "internalType": "address",
                    "name": "newOwner",
                    "type": "address"
                }
            ],
            "name": "transferOwnership",
            "outputs": [],
            "stateMutability": "nonpayable",
            "type": "function"
        },
        {
            "inputs": [],
            "name": "treasury",
            "outputs": [
                {
                    "internalType": "address",
                    "name": "",
                    "type": "address"
                }
            ],
            "stateMutability": "view",
            "type": "function"
        },
        {
            "inputs": [],
            "name": "unpause",
            "outputs": [],
            "stateMutability": "nonpayable",
            "type": "function"
        },
        {
            "inputs": [],
            "name": "withdraw",
            "outputs": [],
            "stateMutability": "nonpayable",
            "type": "function"
        }
    ],
    "bytecode": "608060405234801561001057600080fd5b506000805460ff1916905561002433610029565b610082565b600080546001600160a01b03838116610100818102610100600160a81b0319851617855560405193049190911692909183917f8be0079c531659141344cd1fd0a4f28419497f9722a3daafe3b4186f6b6457e091a35050565b61168f806100916000396000f3fe6080604052600436106100fe5760003560e01c806378db4589116100955780639ff51675116100645780639ff5167514610311578063a756fdd014610331578063bd40f1f314610351578063ddc643ce14610371578063f2fde38b1461038457600080fd5b806378db4589146102125780637c1c43e2146102325780638456cb59146102d95780638da5cb5b146102ee57600080fd5b80635c975abb116100d15780635c975abb146101825780636094be2d146101a557806361d027b3146101c5578063715018a6146101fd57600080fd5b80632530c9051461010357806325455706146101365780633ccfd60b146101585780633f4ba83a1461016d575b600080fd5b34801561010f57600080fd5b5061012361011e36600461140c565b6103a4565b6040519081526020015b60405180910390f35b34801561014257600080fd5b50610156610151366004611441565b6103f5565b005b34801561016457600080fd5b5061015661043c565b34801561017957600080fd5b50610156610473565b34801561018e57600080fd5b5060005460ff16604051901515815260200161012d565b3480156101b157600080fd5b506101566101c0366004611484565b610485565b3480156101d157600080fd5b506002546101e5906001600160a01b031681565b6040516001600160a01b03909116815260200161012d565b34801561020957600080fd5b50610156610af2565b34801561021e57600080fd5b5061015661022d3660046114ae565b610b04565b34801561023e57600080fd5b5061029a61024d3660046114ae565b60046020526000908152604090208054600182015460029092015460ff80831693610100840482169362010000810483169363010000008204841693640100000000909204909116919087565b60408051971515885295151560208801529315159486019490945290151560608501521515608084015260a083019190915260c082015260e00161012d565b3480156102e557600080fd5b50610156610b3c565b3480156102fa57600080fd5b5060005461010090046001600160a01b03166101e5565b34801561031d57600080fd5b506001546101e5906001600160a01b031681565b34801561033d57600080fd5b506003546101e5906001600160a01b031681565b34801561035d57600080fd5b5061015661036c3660046114de565b610b4c565b61015661037f366004611484565b610c88565b34801561039057600080fd5b5061015661039f3660046114ae565b6111bf565b60006103b1826001611587565b6040805142602082015244918101919091524360608201526080016040516020818303038152906040528051906020012060001c6103ef919061159a565b92915050565b6103fd611235565b600180546001600160a01b039485166001600160a01b031991821617909155600280549385169382169390931790925560038054919093169116179055565b610444611235565b60405133904780156108fc02916000818181858888f19350505050158015610470573d6000803e3d6000fd5b50565b61047b611235565b610483611295565b565b61048d6112e7565b6001600160a01b03821660009081526004602052604090205460ff166104ea5760405162461bcd60e51b815260206004820152600d60248201526c496e616374697665206974656d60981b60448201526064015b60405180910390fd5b6001600160a01b038216600090815260046020526040902054640100000000900460ff166105535760405162461bcd60e51b8152602060048201526016602482015275135d5cdd081c1d5c98da185cd9481dda5d1a0813d4d560521b60448201526064016104e1565b600081116105965760405162461bcd60e51b815260206004820152601060248201526f5175616e74697479206973207a65726f60801b60448201526064016104e1565b6003546040516370a0823160e01b81523360048201526000916001600160a01b0316906370a0823190602401602060405180830381865afa1580156105df573d6000803e3d6000fd5b505050506040513d601f19601f8201168201806040525081019061060391906115bc565b6001600160a01b0384166000908152600460205260408120600201549192509061062e9084906115d5565b9050808210156106715760405162461bcd60e51b815260206004820152600e60248201526d139bdd08195b9bdd59da0813d4d560921b60448201526064016104e1565b6002546001600160a01b0385811660009081526004602052604090205491169062010000900460ff16156107db576002546040516370a0823160e01b81526001600160a01b0391821660048201526000918716906370a0823190602401602060405180830381865afa1580156106eb573d6000803e3d6000fd5b505050506040513d601f19601f8201168201806040525081019061070f91906115bc565b9050848110156107615760405162461bcd60e51b815260206004820152601a60248201527f547265617375727932302062616c616e636520746f6f206c6f7700000000000060448201526064016104e1565b6040516323b872dd60e01b81526001600160a01b038716906323b872dd9061079190859033908a906004016115ec565b6020604051808303816000875af11580156107b0573d6000803e3d6000fd5b505050506040513d601f19601f820116820180604052508101906107d49190611610565b5050610a2d565b6001600160a01b038516600090815260046020526040902054610100900460ff16156109f7576002546040516370a0823160e01b81526001600160a01b0391821660048201526000918716906370a0823190602401602060405180830381865afa15801561084d573d6000803e3d6000fd5b505050506040513d601f19601f8201168201806040525081019061087191906115bc565b9050848110156108c35760405162461bcd60e51b815260206004820152601b60248201527f54726561737572793732312062616c616e636520746f6f206c6f77000000000060448201526064016104e1565b60006108cf868361162d565b6108da906001611587565b905060006108e7826103a4565b905060005b878110156109ee576108fe8183611587565b604051632f745c5960e01b81526001600160a01b038781166004830152602482018390529193506000918b1690632f745c5990604401602060405180830381865afa158015610951573d6000803e3d6000fd5b505050506040513d601f19601f8201168201806040525081019061097591906115bc565b6040516323b872dd60e01b81529091506001600160a01b038b16906323b872dd906109a8908990339086906004016115ec565b600060405180830381600087803b1580156109c257600080fd5b505af11580156109d6573d6000803e3d6000fd5b505050505080806109e690611640565b9150506108ec565b50505050610a2d565b60405162461bcd60e51b815260206004820152600b60248201526a155b9cdd5c1c1bdc9d195960aa1b60448201526064016104e1565b6003546001546040516323b872dd60e01b81526001600160a01b03928316926323b872dd92610a669233929091169087906004016115ec565b6020604051808303816000875af1158015610a85573d6000803e3d6000fd5b505050506040513d601f19601f82011682018060405250810190610aa99190611610565b506040518481526001600160a01b0386169033907f881985e757f8c128e940f703d04de40b61c1848413664937e98baf451b934ac2906020015b60405180910390a35050505050565b610afa611235565b610483600061132d565b610b0c611235565b6001600160a01b03166000908152600460205260408120805464ffffffffff191681556001810182905560020155565b610b44611235565b610483611386565b610b54611235565b6001600160a01b03881615801590610b695750865b8015610b79575085151585151514155b8015610ba05750838015610b8d5750600082115b80610ba05750828015610ba05750600081115b610ba957600080fd5b6040805160e08101825297151588529515156020808901918252951515888801908152941515606089019081529315156080890190815260a0890193845260c089019283526001600160a01b03909916600090815260049096529590942095518654955193519251975115156401000000000264ff000000001998151563010000000263ff0000001994151562010000029490941663ffff0000199515156101000261ff00199315159390931661ffff199098169790971791909117939093169490941717949094169390931782555160018201559051600290910155565b610c906112e7565b6001600160a01b03821660009081526004602052604090205460ff16610ce85760405162461bcd60e51b815260206004820152600d60248201526c496e616374697665206974656d60981b60448201526064016104e1565b6001600160a01b0382166000908152600460205260409020546301000000900460ff16610d505760405162461bcd60e51b815260206004820152601660248201527509aeae6e840e0eae4c6d0c2e6ca40eed2e8d0408aa8960531b60448201526064016104e1565b60008111610d935760405162461bcd60e51b815260206004820152601060248201526f5175616e74697479206973207a65726f60801b60448201526064016104e1565b6001600160a01b038216600090815260046020526040812060010154349190610dbd9084906115d5565b905080821015610e005760405162461bcd60e51b815260206004820152600e60248201526d09cdee840cadcdeeaced0408aa8960931b60448201526064016104e1565b6002546001600160a01b0385811660009081526004602052604090205491169062010000900460ff1615610f6a576002546040516370a0823160e01b81526001600160a01b0391821660048201526000918716906370a0823190602401602060405180830381865afa158015610e7a573d6000803e3d6000fd5b505050506040513d601f19601f82011682018060405250810190610e9e91906115bc565b905084811015610ef05760405162461bcd60e51b815260206004820152601a60248201527f547265617375727932302062616c616e636520746f6f206c6f7700000000000060448201526064016104e1565b6040516323b872dd60e01b81526001600160a01b038716906323b872dd90610f2090859033908a906004016115ec565b6020604051808303816000875af1158015610f3f573d6000803e3d6000fd5b505050506040513d601f19601f82011682018060405250810190610f639190611610565b5050611182565b6001600160a01b038516600090815260046020526040902054610100900460ff16156109f7576002546040516370a0823160e01b81526001600160a01b0391821660048201526000918716906370a0823190602401602060405180830381865afa158015610fdc573d6000803e3d6000fd5b505050506040513d601f19601f8201168201806040525081019061100091906115bc565b9050848110156110525760405162461bcd60e51b815260206004820152601b60248201527f54726561737572793732312062616c616e636520746f6f206c6f77000000000060448201526064016104e1565b600061105e868361162d565b611069906001611587565b90506000611076826103a4565b905060005b8781101561117d5761108d8183611587565b604051632f745c5960e01b81526001600160a01b038781166004830152602482018390529193506000918b1690632f745c5990604401602060405180830381865afa1580156110e0573d6000803e3d6000fd5b505050506040513d601f19601f8201168201806040525081019061110491906115bc565b6040516323b872dd60e01b81529091506001600160a01b038b16906323b872dd90611137908990339086906004016115ec565b600060405180830381600087803b15801561115157600080fd5b505af1158015611165573d6000803e3d6000fd5b5050505050808061117590611640565b91505061107b565b505050505b6040518481526001600160a01b0386169033907f881985e757f8c128e940f703d04de40b61c1848413664937e98baf451b934ac290602001610ae3565b6111c7611235565b6001600160a01b03811661122c5760405162461bcd60e51b815260206004820152602660248201527f4f776e61626c653a206e6577206f776e657220697320746865207a65726f206160448201526564647265737360d01b60648201526084016104e1565b6104708161132d565b6000546001600160a01b036101009091041633146104835760405162461bcd60e51b815260206004820181905260248201527f4f776e61626c653a2063616c6c6572206973206e6f7420746865206f776e657260448201526064016104e1565b61129d6113c3565b6000805460ff191690557f5db9ee0a495bf2e6ff9c91a7834c1ba4fdd244a5e8aa4e537bd38aeae4b073aa335b6040516001600160a01b03909116815260200160405180910390a1565b60005460ff16156104835760405162461bcd60e51b815260206004820152601060248201526f14185d5cd8589b194e881c185d5cd95960821b60448201526064016104e1565b600080546001600160a01b03838116610100818102610100600160a81b0319851617855560405193049190911692909183917f8be0079c531659141344cd1fd0a4f28419497f9722a3daafe3b4186f6b6457e091a35050565b61138e6112e7565b6000805460ff191660011790557f62e78cea01bee320cd4e420270b5ea74000d11b0c9f74754ebdbfc544b05a2586112ca3390565b60005460ff166104835760405162461bcd60e51b815260206004820152601460248201527314185d5cd8589b194e881b9bdd081c185d5cd95960621b60448201526064016104e1565b60006020828403121561141e57600080fd5b5035919050565b80356001600160a01b038116811461143c57600080fd5b919050565b60008060006060848603121561145657600080fd5b61145f84611425565b925061146d60208501611425565b915061147b60408501611425565b90509250925092565b6000806040838503121561149757600080fd5b6114a083611425565b946020939093013593505050565b6000602082840312156114c057600080fd5b6114c982611425565b9392505050565b801515811461047057600080fd5b600080600080600080600080610100898b0312156114fb57600080fd5b61150489611425565b97506020890135611514816114d0565b96506040890135611524816114d0565b95506060890135611534816114d0565b94506080890135611544816114d0565b935060a0890135611554816114d0565b979a969950949793969295929450505060c08201359160e0013590565b634e487b7160e01b600052601160045260246000fd5b808201808211156103ef576103ef611571565b6000826115b757634e487b7160e01b600052601260045260246000fd5b500690565b6000602082840312156115ce57600080fd5b5051919050565b80820281158282048414176103ef576103ef611571565b6001600160a01b039384168152919092166020820152604081019190915260600190565b60006020828403121561162257600080fd5b81516114c9816114d0565b818103818111156103ef576103ef611571565b60006001820161165257611652611571565b506001019056fea2646970667358221220ada284e39761bb8ed576385606e685895b665176adc1bd85bfdc73123454d41564736f6c63430008110033",
    "sourcePath": "d:/Projects/The-Oasis-Solidity/contracts/OasisShop.sol",
    "compiler": {
        "name": "solc",
        "version": "0.8.17+commit.8df45f5f"
    },
    "functionHashes": {
        "addShopItem(address,bool,bool,bool,bool,bool,uint256,uint256)": "bd40f1f3",
        "oasisGraveyard()": "9ff51675",
        "ost()": "a756fdd0",
        "owner()": "8da5cb5b",
        "pause()": "8456cb59",
        "paused()": "5c975abb",
        "purchaseWithEth(address,uint256)": "ddc643ce",
        "purchaseWithOst(address,uint256)": "6094be2d",
        "rand(uint256)": "2530c905",
        "removeShopIem(address)": "78db4589",
        "renounceOwnership()": "715018a6",
        "setStateVariables(address,address,address)": "25455706",
        "shopItems(address)": "7c1c43e2",
        "transferOwnership(address)": "f2fde38b",
        "treasury()": "61d027b3",
        "unpause()": "3f4ba83a",
        "withdraw()": "3ccfd60b"
    },
    "gasEstimates": {
        "creation": {
            "codeDepositCost": "1155000",
            "executionCost": "51281",
            "totalCost": "1206281"
        },
        "external": {
            "addShopItem(address,bool,bool,bool,bool,bool,uint256,uint256)": "infinite",
            "oasisGraveyard()": "2359",
            "ost()": "2381",
            "owner()": "2431",
            "pause()": "infinite",
            "paused()": "2315",
            "purchaseWithEth(address,uint256)": "infinite",
            "purchaseWithOst(address,uint256)": "infinite",
            "rand(uint256)": "infinite",
            "removeShopIem(address)": "36826",
            "renounceOwnership()": "infinite",
            "setStateVariables(address,address,address)": "infinite",
            "shopItems(address)": "7042",
            "transferOwnership(address)": "28479",
            "treasury()": "2404",
            "unpause()": "infinite",
            "withdraw()": "infinite"
        }
    }
}