{
  "abi": [
    {
      "inputs": [],
      "stateMutability": "nonpayable",
      "type": "constructor"
    },
    {
      "anonymous": false,
      "inputs": [
        {
          "indexed": true,
          "internalType": "address",
          "name": "owner",
          "type": "address"
        },
        {
          "indexed": true,
          "internalType": "address",
          "name": "spender",
          "type": "address"
        },
        {
          "indexed": false,
          "internalType": "uint256",
          "name": "value",
          "type": "uint256"
        }
      ],
      "name": "Approval",
      "type": "event"
    },
    {
      "anonymous": false,
      "inputs": [
        {
          "indexed": true,
          "internalType": "address",
          "name": "claimer",
          "type": "address"
        },
        {
          "indexed": false,
          "internalType": "uint256",
          "name": "ostAmount",
          "type": "uint256"
        },
        {
          "indexed": false,
          "internalType": "uint256[]",
          "name": "ccIds",
          "type": "uint256[]"
        }
      ],
      "name": "ClaimedOST",
      "type": "event"
    },
    {
      "anonymous": false,
      "inputs": [
        {
          "indexed": true,
          "internalType": "address",
          "name": "previousOwner",
          "type": "address"
        },
        {
          "indexed": true,
          "internalType": "address",
          "name": "newOwner",
          "type": "address"
        }
      ],
      "name": "OwnershipTransferred",
      "type": "event"
    },
    {
      "anonymous": false,
      "inputs": [
        {
          "indexed": true,
          "internalType": "address",
          "name": "from",
          "type": "address"
        },
        {
          "indexed": true,
          "internalType": "address",
          "name": "to",
          "type": "address"
        },
        {
          "indexed": false,
          "internalType": "uint256",
          "name": "value",
          "type": "uint256"
        }
      ],
      "name": "Transfer",
      "type": "event"
    },
    {
      "inputs": [
        {
          "internalType": "address",
          "name": "_minter",
          "type": "address"
        }
      ],
      "name": "addMinter",
      "outputs": [],
      "stateMutability": "nonpayable",
      "type": "function"
    },
    {
      "inputs": [
        {
          "internalType": "address",
          "name": "owner",
          "type": "address"
        },
        {
          "internalType": "address",
          "name": "spender",
          "type": "address"
        }
      ],
      "name": "allowance",
      "outputs": [
        {
          "internalType": "uint256",
          "name": "",
          "type": "uint256"
        }
      ],
      "stateMutability": "view",
      "type": "function"
    },
    {
      "inputs": [
        {
          "internalType": "address",
          "name": "spender",
          "type": "address"
        },
        {
          "internalType": "uint256",
          "name": "amount",
          "type": "uint256"
        }
      ],
      "name": "approve",
      "outputs": [
        {
          "internalType": "bool",
          "name": "",
          "type": "bool"
        }
      ],
      "stateMutability": "nonpayable",
      "type": "function"
    },
    {
      "inputs": [
        {
          "internalType": "address",
          "name": "account",
          "type": "address"
        }
      ],
      "name": "balanceOf",
      "outputs": [
        {
          "internalType": "uint256",
          "name": "",
          "type": "uint256"
        }
      ],
      "stateMutability": "view",
      "type": "function"
    },
    {
      "inputs": [
        {
          "internalType": "uint256[]",
          "name": "_tokenIds",
          "type": "uint256[]"
        }
      ],
      "name": "claim",
      "outputs": [],
      "stateMutability": "nonpayable",
      "type": "function"
    },
    {
      "inputs": [],
      "name": "crazyCamels",
      "outputs": [
        {
          "internalType": "address",
          "name": "",
          "type": "address"
        }
      ],
      "stateMutability": "view",
      "type": "function"
    },
    {
      "inputs": [],
      "name": "decimals",
      "outputs": [
        {
          "internalType": "uint8",
          "name": "",
          "type": "uint8"
        }
      ],
      "stateMutability": "view",
      "type": "function"
    },
    {
      "inputs": [
        {
          "internalType": "address",
          "name": "spender",
          "type": "address"
        },
        {
          "internalType": "uint256",
          "name": "subtractedValue",
          "type": "uint256"
        }
      ],
      "name": "decreaseAllowance",
      "outputs": [
        {
          "internalType": "bool",
          "name": "",
          "type": "bool"
        }
      ],
      "stateMutability": "nonpayable",
      "type": "function"
    },
    {
      "inputs": [
        {
          "internalType": "address",
          "name": "spender",
          "type": "address"
        },
        {
          "internalType": "uint256",
          "name": "addedValue",
          "type": "uint256"
        }
      ],
      "name": "increaseAllowance",
      "outputs": [
        {
          "internalType": "bool",
          "name": "",
          "type": "bool"
        }
      ],
      "stateMutability": "nonpayable",
      "type": "function"
    },
    {
      "inputs": [
        {
          "internalType": "address",
          "name": "_to",
          "type": "address"
        },
        {
          "internalType": "uint256",
          "name": "_amount",
          "type": "uint256"
        }
      ],
      "name": "mint",
      "outputs": [],
      "stateMutability": "nonpayable",
      "type": "function"
    },
    {
      "inputs": [
        {
          "internalType": "address",
          "name": "",
          "type": "address"
        }
      ],
      "name": "minter",
      "outputs": [
        {
          "internalType": "bool",
          "name": "",
          "type": "bool"
        }
      ],
      "stateMutability": "view",
      "type": "function"
    },
    {
      "inputs": [],
      "name": "name",
      "outputs": [
        {
          "internalType": "string",
          "name": "",
          "type": "string"
        }
      ],
      "stateMutability": "view",
      "type": "function"
    },
    {
      "inputs": [],
      "name": "oasisGraveyard",
      "outputs": [
        {
          "internalType": "address",
          "name": "",
          "type": "address"
        }
      ],
      "stateMutability": "view",
      "type": "function"
    },
    {
      "inputs": [],
      "name": "owner",
      "outputs": [
        {
          "internalType": "address",
          "name": "",
          "type": "address"
        }
      ],
      "stateMutability": "view",
      "type": "function"
    },
    {
      "inputs": [
        {
          "internalType": "address",
          "name": "_minter",
          "type": "address"
        }
      ],
      "name": "removeMinter",
      "outputs": [],
      "stateMutability": "nonpayable",
      "type": "function"
    },
    {
      "inputs": [],
      "name": "renounceOwnership",
      "outputs": [],
      "stateMutability": "nonpayable",
      "type": "function"
    },
    {
      "inputs": [
        {
          "internalType": "address",
          "name": "_crazyCamels",
          "type": "address"
        },
        {
          "internalType": "address",
          "name": "_oasisGraveyard",
          "type": "address"
        },
        {
          "internalType": "uint256",
          "name": "_tokensPerCrazyCamel",
          "type": "uint256"
        }
      ],
      "name": "setStateVariables",
      "outputs": [],
      "stateMutability": "nonpayable",
      "type": "function"
    },
    {
      "inputs": [],
      "name": "symbol",
      "outputs": [
        {
          "internalType": "string",
          "name": "",
          "type": "string"
        }
      ],
      "stateMutability": "view",
      "type": "function"
    },
    {
      "inputs": [],
      "name": "tokensPerCrazyCamel",
      "outputs": [
        {
          "internalType": "uint256",
          "name": "",
          "type": "uint256"
        }
      ],
      "stateMutability": "view",
      "type": "function"
    },
    {
      "inputs": [],
      "name": "totalSupply",
      "outputs": [
        {
          "internalType": "uint256",
          "name": "",
          "type": "uint256"
        }
      ],
      "stateMutability": "view",
      "type": "function"
    },
    {
      "inputs": [
        {
          "internalType": "address",
          "name": "to",
          "type": "address"
        },
        {
          "internalType": "uint256",
          "name": "amount",
          "type": "uint256"
        }
      ],
      "name": "transfer",
      "outputs": [
        {
          "internalType": "bool",
          "name": "",
          "type": "bool"
        }
      ],
      "stateMutability": "nonpayable",
      "type": "function"
    },
    {
      "inputs": [
        {
          "internalType": "address",
          "name": "from",
          "type": "address"
        },
        {
          "internalType": "address",
          "name": "to",
          "type": "address"
        },
        {
          "internalType": "uint256",
          "name": "amount",
          "type": "uint256"
        }
      ],
      "name": "transferFrom",
      "outputs": [
        {
          "internalType": "bool",
          "name": "",
          "type": "bool"
        }
      ],
      "stateMutability": "nonpayable",
      "type": "function"
    },
    {
      "inputs": [
        {
          "internalType": "address",
          "name": "newOwner",
          "type": "address"
        }
      ],
      "name": "transferOwnership",
      "outputs": [],
      "stateMutability": "nonpayable",
      "type": "function"
    }
  ],
  "devdoc": {
    "author": ". 0xFirekeeper",
    "kind": "dev",
    "methods": {
      "allowance(address,address)": {
        "details": "See {IERC20-allowance}."
      },
      "approve(address,uint256)": {
        "details": "See {IERC20-approve}. NOTE: If `amount` is the maximum `uint256`, the allowance is not updated on `transferFrom`. This is semantically equivalent to an infinite approval. Requirements: - `spender` cannot be the zero address."
      },
      "balanceOf(address)": {
        "details": "See {IERC20-balanceOf}."
      },
      "decimals()": {
        "details": "Returns the number of decimals used to get its user representation. For example, if `decimals` equals `2`, a balance of `505` tokens should be displayed to a user as `5.05` (`505 / 10 ** 2`). Tokens usually opt for a value of 18, imitating the relationship between Ether and Wei. This is the value {ERC20} uses, unless this function is overridden; NOTE: This information is only used for _display_ purposes: it in no way affects any of the arithmetic of the contract, including {IERC20-balanceOf} and {IERC20-transfer}."
      },
      "decreaseAllowance(address,uint256)": {
        "details": "Atomically decreases the allowance granted to `spender` by the caller. This is an alternative to {approve} that can be used as a mitigation for problems described in {IERC20-approve}. Emits an {Approval} event indicating the updated allowance. Requirements: - `spender` cannot be the zero address. - `spender` must have allowance for the caller of at least `subtractedValue`."
      },
      "increaseAllowance(address,uint256)": {
        "details": "Atomically increases the allowance granted to `spender` by the caller. This is an alternative to {approve} that can be used as a mitigation for problems described in {IERC20-approve}. Emits an {Approval} event indicating the updated allowance. Requirements: - `spender` cannot be the zero address."
      },
      "name()": {
        "details": "Returns the name of the token."
      },
      "owner()": {
        "details": "Returns the address of the current owner."
      },
      "renounceOwnership()": {
        "details": "Leaves the contract without owner. It will not be possible to call `onlyOwner` functions anymore. Can only be called by the current owner. NOTE: Renouncing ownership will leave the contract without an owner, thereby removing any functionality that is only available to the owner."
      },
      "symbol()": {
        "details": "Returns the symbol of the token, usually a shorter version of the name."
      },
      "totalSupply()": {
        "details": "See {IERC20-totalSupply}."
      },
      "transfer(address,uint256)": {
        "details": "See {IERC20-transfer}. Requirements: - `to` cannot be the zero address. - the caller must have a balance of at least `amount`."
      },
      "transferFrom(address,address,uint256)": {
        "details": "See {IERC20-transferFrom}. Emits an {Approval} event indicating the updated allowance. This is not required by the EIP. See the note at the beginning of {ERC20}. NOTE: Does not update the allowance if the current allowance is the maximum `uint256`. Requirements: - `from` and `to` cannot be the zero address. - `from` must have a balance of at least `amount`. - the caller must have allowance for ``from``'s tokens of at least `amount`."
      },
      "transferOwnership(address)": {
        "details": "Transfers ownership of the contract to a new account (`newOwner`). Can only be called by the current owner."
      }
    },
    "title": ". Oasis Token",
    "version": 1
  },
  "evm": {
    "assembly": "    /* \"OasisToken.sol\":471:2203  contract OasisToken is ERC20, Ownable, ReentrancyGuard {... */\n  mstore(0x40, 0x80)\n    /* \"OasisToken.sol\":856:900  constructor() ERC20(\"Oasis Token\", \"OST\") {} */\n  callvalue\n  dup1\n  iszero\n  tag_1\n  jumpi\n  0x00\n  dup1\n  revert\ntag_1:\n  pop\n    /* \"@openzeppelin/contracts/token/ERC20/ERC20.sol\":1978:2091   */\n  mload(0x40)\n  dup1\n  0x40\n  add\n  0x40\n  mstore\n  dup1\n  0x0b\n  dup2\n  mstore\n  0x20\n  add\n  shl(0xa9, 0x27b0b9b4b9902a37b5b2b7)\n  dup2\n  mstore\n  pop\n  mload(0x40)\n  dup1\n  0x40\n  add\n  0x40\n  mstore\n  dup1\n  0x03\n  dup2\n  mstore\n  0x20\n  add\n  shl(0xea, 0x13d4d5)\n  dup2\n  mstore\n  pop\n    /* \"@openzeppelin/contracts/token/ERC20/ERC20.sol\":2052:2057   */\n  dup2\n    /* \"@openzeppelin/contracts/token/ERC20/ERC20.sol\":2044:2049   */\n  0x03\n    /* \"@openzeppelin/contracts/token/ERC20/ERC20.sol\":2044:2057   */\n  swap1\n  dup1\n  mload\n  swap1\n  0x20\n  add\n  swap1\n  tag_7\n  swap3\n  swap2\n  swap1\n  tag_8\n  jump\t// in\ntag_7:\n  pop\n    /* \"@openzeppelin/contracts/token/ERC20/ERC20.sol\":2067:2084   */\n  dup1\n  mload\n  tag_9\n  swap1\n    /* \"@openzeppelin/contracts/token/ERC20/ERC20.sol\":2067:2074   */\n  0x04\n  swap1\n    /* \"@openzeppelin/contracts/token/ERC20/ERC20.sol\":2067:2084   */\n  0x20\n  dup5\n  add\n  swap1\n  tag_8\n  jump\t// in\ntag_9:\n  pop\n    /* \"@openzeppelin/contracts/token/ERC20/ERC20.sol\":1978:2091   */\n  pop\n  pop\n    /* \"@openzeppelin/contracts/access/Ownable.sol\":936:968   */\n  tag_11\n    /* \"@openzeppelin/contracts/access/Ownable.sol\":955:967   */\n  tag_12\n    /* \"@openzeppelin/contracts/access/Ownable.sol\":955:965   */\n  shl(0x20, tag_13)\n    /* \"@openzeppelin/contracts/access/Ownable.sol\":955:967   */\n  0x20\n  shr\n  jump\t// in\ntag_12:\n    /* \"@openzeppelin/contracts/access/Ownable.sol\":936:954   */\n  tag_14\n    /* \"@openzeppelin/contracts/access/Ownable.sol\":936:968   */\n  jump\t// in\ntag_11:\n    /* \"@openzeppelin/contracts/security/ReentrancyGuard.sol\":1701:1702   */\n  0x01\n    /* \"@openzeppelin/contracts/security/ReentrancyGuard.sol\":1806:1813   */\n  0x06\n    /* \"@openzeppelin/contracts/security/ReentrancyGuard.sol\":1806:1828   */\n  sstore\n    /* \"OasisToken.sol\":471:2203  contract OasisToken is ERC20, Ownable, ReentrancyGuard {... */\n  jump(tag_31)\n    /* \"@openzeppelin/contracts/utils/Context.sol\":640:736   */\ntag_13:\n    /* \"@openzeppelin/contracts/utils/Context.sol\":719:729   */\n  caller\n  swap1\n    /* \"@openzeppelin/contracts/utils/Context.sol\":640:736   */\n  jump\t// out\n    /* \"@openzeppelin/contracts/access/Ownable.sol\":2433:2620   */\ntag_14:\n    /* \"@openzeppelin/contracts/access/Ownable.sol\":2525:2531   */\n  0x05\n  dup1\n  sload\n  sub(shl(0xa0, 0x01), 0x01)\n    /* \"@openzeppelin/contracts/access/Ownable.sol\":2541:2558   */\n  dup4\n  dup2\n  and\n  not(sub(shl(0xa0, 0x01), 0x01))\n  dup4\n  and\n  dup2\n  or\n  swap1\n  swap4\n  sstore\n    /* \"@openzeppelin/contracts/access/Ownable.sol\":2573:2613   */\n  mload(0x40)\n    /* \"@openzeppelin/contracts/access/Ownable.sol\":2525:2531   */\n  swap2\n  and\n  swap2\n    /* \"@openzeppelin/contracts/access/Ownable.sol\":2541:2558   */\n  swap1\n    /* \"@openzeppelin/contracts/access/Ownable.sol\":2525:2531   */\n  dup3\n  swap1\n    /* \"@openzeppelin/contracts/access/Ownable.sol\":2573:2613   */\n  0x8be0079c531659141344cd1fd0a4f28419497f9722a3daafe3b4186f6b6457e0\n  swap1\n    /* \"@openzeppelin/contracts/access/Ownable.sol\":2506:2522   */\n  0x00\n  swap1\n    /* \"@openzeppelin/contracts/access/Ownable.sol\":2573:2613   */\n  log3\n    /* \"@openzeppelin/contracts/access/Ownable.sol\":2496:2620   */\n  pop\n    /* \"@openzeppelin/contracts/access/Ownable.sol\":2433:2620   */\n  pop\n  jump\t// out\n    /* \"OasisToken.sol\":471:2203  contract OasisToken is ERC20, Ownable, ReentrancyGuard {... */\ntag_8:\n  dup3\n  dup1\n  sload\n  tag_20\n  swap1\n  tag_21\n  jump\t// in\ntag_20:\n  swap1\n  0x00\n  mstore\n  keccak256(0x00, 0x20)\n  swap1\n  0x1f\n  add\n  0x20\n  swap1\n  div\n  dup2\n  add\n  swap3\n  dup3\n  tag_23\n  jumpi\n  0x00\n  dup6\n  sstore\n  jump(tag_26)\ntag_23:\n  dup3\n  0x1f\n  lt\n  tag_24\n  jumpi\n  dup1\n  mload\n  not(0xff)\n  and\n  dup4\n  dup1\n  add\n  or\n  dup6\n  sstore\n  jump(tag_26)\ntag_24:\n  dup3\n  dup1\n  add\n  0x01\n  add\n  dup6\n  sstore\n  dup3\n  iszero\n  tag_26\n  jumpi\n  swap2\n  dup3\n  add\ntag_25:\n  dup3\n  dup2\n  gt\n  iszero\n  tag_26\n  jumpi\n  dup3\n  mload\n  dup3\n  sstore\n  swap2\n  0x20\n  add\n  swap2\n  swap1\n  0x01\n  add\n  swap1\n  jump(tag_25)\ntag_26:\n  pop\n  tag_27\n  swap3\n  swap2\n  pop\n  tag_28\n  jump\t// in\ntag_27:\n  pop\n  swap1\n  jump\t// out\ntag_28:\ntag_29:\n  dup1\n  dup3\n  gt\n  iszero\n  tag_27\n  jumpi\n  0x00\n  dup2\n  sstore\n  0x01\n  add\n  jump(tag_29)\n    /* \"#utility.yul\":14:394   */\ntag_21:\n    /* \"#utility.yul\":93:94   */\n  0x01\n    /* \"#utility.yul\":89:101   */\n  dup2\n  dup2\n  shr\n  swap1\n    /* \"#utility.yul\":136:148   */\n  dup3\n  and\n  dup1\n    /* \"#utility.yul\":157:218   */\n  tag_33\n  jumpi\n    /* \"#utility.yul\":211:215   */\n  0x7f\n    /* \"#utility.yul\":203:209   */\n  dup3\n    /* \"#utility.yul\":199:216   */\n  and\n    /* \"#utility.yul\":189:216   */\n  swap2\n  pop\n    /* \"#utility.yul\":157:218   */\ntag_33:\n    /* \"#utility.yul\":264:266   */\n  0x20\n    /* \"#utility.yul\":256:262   */\n  dup3\n    /* \"#utility.yul\":253:267   */\n  lt\n    /* \"#utility.yul\":233:251   */\n  dup2\n    /* \"#utility.yul\":230:268   */\n  sub\n    /* \"#utility.yul\":227:388   */\n  tag_34\n  jumpi\n    /* \"#utility.yul\":310:320   */\n  0x4e487b71\n    /* \"#utility.yul\":305:308   */\n  0xe0\n    /* \"#utility.yul\":301:321   */\n  shl\n    /* \"#utility.yul\":298:299   */\n  0x00\n    /* \"#utility.yul\":291:322   */\n  mstore\n    /* \"#utility.yul\":345:349   */\n  0x22\n    /* \"#utility.yul\":342:343   */\n  0x04\n    /* \"#utility.yul\":335:350   */\n  mstore\n    /* \"#utility.yul\":373:377   */\n  0x24\n    /* \"#utility.yul\":370:371   */\n  0x00\n    /* \"#utility.yul\":363:378   */\n  revert\n    /* \"#utility.yul\":227:388   */\ntag_34:\n  pop\n    /* \"#utility.yul\":14:394   */\n  swap2\n  swap1\n  pop\n  jump\t// out\ntag_31:\n    /* \"OasisToken.sol\":471:2203  contract OasisToken is ERC20, Ownable, ReentrancyGuard {... */\n  dataSize(sub_0)\n  dup1\n  dataOffset(sub_0)\n  0x00\n  codecopy\n  0x00\n  return\nstop\n\nsub_0: assembly {\n        /* \"OasisToken.sol\":471:2203  contract OasisToken is ERC20, Ownable, ReentrancyGuard {... */\n      mstore(0x40, 0x80)\n      callvalue\n      dup1\n      iszero\n      tag_1\n      jumpi\n      0x00\n      dup1\n      revert\n    tag_1:\n      pop\n      jumpi(tag_2, lt(calldatasize, 0x04))\n      shr(0xe0, calldataload(0x00))\n      dup1\n      0x70a08231\n      gt\n      tag_26\n      jumpi\n      dup1\n      0xa457c2d7\n      gt\n      tag_27\n      jumpi\n      dup1\n      0xdd62ed3e\n      gt\n      tag_28\n      jumpi\n      dup1\n      0xdd62ed3e\n      eq\n      tag_23\n      jumpi\n      dup1\n      0xe9964871\n      eq\n      tag_24\n      jumpi\n      dup1\n      0xf2fde38b\n      eq\n      tag_25\n      jumpi\n      0x00\n      dup1\n      revert\n    tag_28:\n      dup1\n      0xa457c2d7\n      eq\n      tag_20\n      jumpi\n      dup1\n      0xa9059cbb\n      eq\n      tag_21\n      jumpi\n      dup1\n      0xc79476b5\n      eq\n      tag_22\n      jumpi\n      0x00\n      dup1\n      revert\n    tag_27:\n      dup1\n      0x95d89b41\n      gt\n      tag_29\n      jumpi\n      dup1\n      0x95d89b41\n      eq\n      tag_17\n      jumpi\n      dup1\n      0x983b2d56\n      eq\n      tag_18\n      jumpi\n      dup1\n      0x9ff51675\n      eq\n      tag_19\n      jumpi\n      0x00\n      dup1\n      revert\n    tag_29:\n      dup1\n      0x70a08231\n      eq\n      tag_14\n      jumpi\n      dup1\n      0x715018a6\n      eq\n      tag_15\n      jumpi\n      dup1\n      0x8da5cb5b\n      eq\n      tag_16\n      jumpi\n      0x00\n      dup1\n      revert\n    tag_26:\n      dup1\n      0x3092afd5\n      gt\n      tag_30\n      jumpi\n      dup1\n      0x3dd08c38\n      gt\n      tag_31\n      jumpi\n      dup1\n      0x3dd08c38\n      eq\n      tag_11\n      jumpi\n      dup1\n      0x40c10f19\n      eq\n      tag_12\n      jumpi\n      dup1\n      0x6ba4c138\n      eq\n      tag_13\n      jumpi\n      0x00\n      dup1\n      revert\n    tag_31:\n      dup1\n      0x3092afd5\n      eq\n      tag_8\n      jumpi\n      dup1\n      0x313ce567\n      eq\n      tag_9\n      jumpi\n      dup1\n      0x39509351\n      eq\n      tag_10\n      jumpi\n      0x00\n      dup1\n      revert\n    tag_30:\n      dup1\n      0x18160ddd\n      gt\n      tag_32\n      jumpi\n      dup1\n      0x18160ddd\n      eq\n      tag_5\n      jumpi\n      dup1\n      0x23b872dd\n      eq\n      tag_6\n      jumpi\n      dup1\n      0x2647cfac\n      eq\n      tag_7\n      jumpi\n      0x00\n      dup1\n      revert\n    tag_32:\n      dup1\n      0x06fdde03\n      eq\n      tag_3\n      jumpi\n      dup1\n      0x095ea7b3\n      eq\n      tag_4\n      jumpi\n    tag_2:\n      0x00\n      dup1\n      revert\n        /* \"@openzeppelin/contracts/token/ERC20/ERC20.sol\":2156:2254   */\n    tag_3:\n      tag_33\n      tag_34\n      jump\t// in\n    tag_33:\n      mload(0x40)\n      tag_35\n      swap2\n      swap1\n      tag_36\n      jump\t// in\n    tag_35:\n      mload(0x40)\n      dup1\n      swap2\n      sub\n      swap1\n      return\n        /* \"@openzeppelin/contracts/token/ERC20/ERC20.sol\":4433:4630   */\n    tag_4:\n      tag_37\n      tag_38\n      calldatasize\n      0x04\n      tag_39\n      jump\t// in\n    tag_38:\n      tag_40\n      jump\t// in\n    tag_37:\n      mload(0x40)\n        /* \"#utility.yul\":1241:1255   */\n      swap1\n      iszero\n        /* \"#utility.yul\":1234:1256   */\n      iszero\n        /* \"#utility.yul\":1216:1257   */\n      dup2\n      mstore\n        /* \"#utility.yul\":1204:1206   */\n      0x20\n        /* \"#utility.yul\":1189:1207   */\n      add\n        /* \"@openzeppelin/contracts/token/ERC20/ERC20.sol\":4433:4630   */\n      tag_35\n        /* \"#utility.yul\":1076:1263   */\n      jump\n        /* \"@openzeppelin/contracts/token/ERC20/ERC20.sol\":3244:3350   */\n    tag_5:\n        /* \"@openzeppelin/contracts/token/ERC20/ERC20.sol\":3331:3343   */\n      sload(0x02)\n        /* \"@openzeppelin/contracts/token/ERC20/ERC20.sol\":3244:3350   */\n    tag_43:\n      mload(0x40)\n        /* \"#utility.yul\":1414:1439   */\n      swap1\n      dup2\n      mstore\n        /* \"#utility.yul\":1402:1404   */\n      0x20\n        /* \"#utility.yul\":1387:1405   */\n      add\n        /* \"@openzeppelin/contracts/token/ERC20/ERC20.sol\":3244:3350   */\n      tag_35\n        /* \"#utility.yul\":1268:1445   */\n      jump\n        /* \"@openzeppelin/contracts/token/ERC20/ERC20.sol\":5192:5478   */\n    tag_6:\n      tag_37\n      tag_48\n      calldatasize\n      0x04\n      tag_49\n      jump\t// in\n    tag_48:\n      tag_50\n      jump\t// in\n        /* \"OasisToken.sol\":633:667  uint256 public tokensPerCrazyCamel */\n    tag_7:\n      tag_43\n      sload(0x09)\n      dup2\n      jump\n        /* \"OasisToken.sol\":1375:1488  function removeMinter(address _minter) external onlyOwner nonReentrant {... */\n    tag_8:\n      tag_55\n      tag_56\n      calldatasize\n      0x04\n      tag_57\n      jump\t// in\n    tag_56:\n      tag_58\n      jump\t// in\n    tag_55:\n      stop\n        /* \"@openzeppelin/contracts/token/ERC20/ERC20.sol\":3093:3184   */\n    tag_9:\n      mload(0x40)\n        /* \"@openzeppelin/contracts/token/ERC20/ERC20.sol\":3175:3177   */\n      0x12\n        /* \"#utility.yul\":2116:2152   */\n      dup2\n      mstore\n        /* \"#utility.yul\":2104:2106   */\n      0x20\n        /* \"#utility.yul\":2089:2107   */\n      add\n        /* \"@openzeppelin/contracts/token/ERC20/ERC20.sol\":3093:3184   */\n      tag_35\n        /* \"#utility.yul\":1974:2158   */\n      jump\n        /* \"@openzeppelin/contracts/token/ERC20/ERC20.sol\":5873:6107   */\n    tag_10:\n      tag_37\n      tag_64\n      calldatasize\n      0x04\n      tag_39\n      jump\t// in\n    tag_64:\n      tag_65\n      jump\t// in\n        /* \"OasisToken.sol\":674:712  mapping(address => bool) public minter */\n    tag_11:\n      tag_37\n      tag_68\n      calldatasize\n      0x04\n      tag_57\n      jump\t// in\n    tag_68:\n      mstore(0x20, 0x0a)\n      0x00\n      swap1\n      dup2\n      mstore\n      0x40\n      swap1\n      keccak256\n      sload\n      0xff\n      and\n      dup2\n      jump\n        /* \"OasisToken.sol\":1528:1702  function mint(address _to, uint256 _amount) external nonReentrant {... */\n    tag_12:\n      tag_55\n      tag_72\n      calldatasize\n      0x04\n      tag_39\n      jump\t// in\n    tag_72:\n      tag_73\n      jump\t// in\n        /* \"OasisToken.sol\":1740:2200  function claim(uint256[] memory _tokenIds) external nonReentrant {... */\n    tag_13:\n      tag_55\n      tag_75\n      calldatasize\n      0x04\n      tag_76\n      jump\t// in\n    tag_75:\n      tag_77\n      jump\t// in\n        /* \"@openzeppelin/contracts/token/ERC20/ERC20.sol\":3408:3533   */\n    tag_14:\n      tag_43\n      tag_79\n      calldatasize\n      0x04\n      tag_57\n      jump\t// in\n    tag_79:\n      sub(shl(0xa0, 0x01), 0x01)\n        /* \"@openzeppelin/contracts/token/ERC20/ERC20.sol\":3508:3526   */\n      and\n        /* \"@openzeppelin/contracts/token/ERC20/ERC20.sol\":3482:3489   */\n      0x00\n        /* \"@openzeppelin/contracts/token/ERC20/ERC20.sol\":3508:3526   */\n      swap1\n      dup2\n      mstore\n      0x20\n      dup2\n      swap1\n      mstore\n      0x40\n      swap1\n      keccak256\n      sload\n      swap1\n        /* \"@openzeppelin/contracts/token/ERC20/ERC20.sol\":3408:3533   */\n      jump\n        /* \"@openzeppelin/contracts/access/Ownable.sol\":1831:1932   */\n    tag_15:\n      tag_55\n      tag_83\n      jump\t// in\n        /* \"@openzeppelin/contracts/access/Ownable.sol\":1201:1286   */\n    tag_16:\n        /* \"@openzeppelin/contracts/access/Ownable.sol\":1273:1279   */\n      and(sub(shl(0xa0, 0x01), 0x01), sload(0x05))\n        /* \"@openzeppelin/contracts/access/Ownable.sol\":1201:1286   */\n    tag_84:\n      mload(0x40)\n      sub(shl(0xa0, 0x01), 0x01)\n        /* \"#utility.yul\":3579:3634   */\n      swap1\n      swap2\n      and\n        /* \"#utility.yul\":3561:3635   */\n      dup2\n      mstore\n        /* \"#utility.yul\":3549:3551   */\n      0x20\n        /* \"#utility.yul\":3534:3552   */\n      add\n        /* \"@openzeppelin/contracts/access/Ownable.sol\":1201:1286   */\n      tag_35\n        /* \"#utility.yul\":3415:3641   */\n      jump\n        /* \"@openzeppelin/contracts/token/ERC20/ERC20.sol\":2367:2469   */\n    tag_17:\n      tag_33\n      tag_89\n      jump\t// in\n        /* \"OasisToken.sol\":1258:1367  function addMinter(address _minter) external onlyOwner nonReentrant {... */\n    tag_18:\n      tag_55\n      tag_92\n      calldatasize\n      0x04\n      tag_57\n      jump\t// in\n    tag_92:\n      tag_93\n      jump\t// in\n        /* \"OasisToken.sol\":597:626  address public oasisGraveyard */\n    tag_19:\n      sload(0x08)\n      tag_84\n      swap1\n      sub(shl(0xa0, 0x01), 0x01)\n      and\n      dup2\n      jump\n        /* \"@openzeppelin/contracts/token/ERC20/ERC20.sol\":6594:7021   */\n    tag_20:\n      tag_37\n      tag_98\n      calldatasize\n      0x04\n      tag_39\n      jump\t// in\n    tag_98:\n      tag_99\n      jump\t// in\n        /* \"@openzeppelin/contracts/token/ERC20/ERC20.sol\":3729:3918   */\n    tag_21:\n      tag_37\n      tag_102\n      calldatasize\n      0x04\n      tag_39\n      jump\t// in\n    tag_102:\n      tag_103\n      jump\t// in\n        /* \"OasisToken.sol\":564:590  address public crazyCamels */\n    tag_22:\n      sload(0x07)\n      tag_84\n      swap1\n      sub(shl(0xa0, 0x01), 0x01)\n      and\n      dup2\n      jump\n        /* \"@openzeppelin/contracts/token/ERC20/ERC20.sol\":3976:4125   */\n    tag_23:\n      tag_43\n      tag_109\n      calldatasize\n      0x04\n      tag_110\n      jump\t// in\n    tag_109:\n      sub(shl(0xa0, 0x01), 0x01)\n        /* \"@openzeppelin/contracts/token/ERC20/ERC20.sol\":4091:4109   */\n      swap2\n      dup3\n      and\n        /* \"@openzeppelin/contracts/token/ERC20/ERC20.sol\":4065:4072   */\n      0x00\n        /* \"@openzeppelin/contracts/token/ERC20/ERC20.sol\":4091:4109   */\n      swap1\n      dup2\n      mstore\n        /* \"@openzeppelin/contracts/token/ERC20/ERC20.sol\":4091:4102   */\n      0x01\n        /* \"@openzeppelin/contracts/token/ERC20/ERC20.sol\":4091:4109   */\n      0x20\n      swap1\n      dup2\n      mstore\n      0x40\n      dup1\n      dup4\n      keccak256\n        /* \"@openzeppelin/contracts/token/ERC20/ERC20.sol\":4091:4118   */\n      swap4\n      swap1\n      swap5\n      and\n      dup3\n      mstore\n      swap2\n      swap1\n      swap2\n      mstore\n      keccak256\n      sload\n      swap1\n        /* \"@openzeppelin/contracts/token/ERC20/ERC20.sol\":3976:4125   */\n      jump\n        /* \"OasisToken.sol\":939:1250  function setStateVariables(... */\n    tag_24:\n      tag_55\n      tag_114\n      calldatasize\n      0x04\n      tag_49\n      jump\t// in\n    tag_114:\n      tag_115\n      jump\t// in\n        /* \"@openzeppelin/contracts/access/Ownable.sol\":2081:2279   */\n    tag_25:\n      tag_55\n      tag_117\n      calldatasize\n      0x04\n      tag_57\n      jump\t// in\n    tag_117:\n      tag_118\n      jump\t// in\n        /* \"@openzeppelin/contracts/token/ERC20/ERC20.sol\":2156:2254   */\n    tag_34:\n        /* \"@openzeppelin/contracts/token/ERC20/ERC20.sol\":2210:2223   */\n      0x60\n        /* \"@openzeppelin/contracts/token/ERC20/ERC20.sol\":2242:2247   */\n      0x03\n        /* \"@openzeppelin/contracts/token/ERC20/ERC20.sol\":2235:2247   */\n      dup1\n      sload\n      tag_120\n      swap1\n      tag_121\n      jump\t// in\n    tag_120:\n      dup1\n      0x1f\n      add\n      0x20\n      dup1\n      swap2\n      div\n      mul\n      0x20\n      add\n      mload(0x40)\n      swap1\n      dup2\n      add\n      0x40\n      mstore\n      dup1\n      swap3\n      swap2\n      swap1\n      dup2\n      dup2\n      mstore\n      0x20\n      add\n      dup3\n      dup1\n      sload\n      tag_122\n      swap1\n      tag_121\n      jump\t// in\n    tag_122:\n      dup1\n      iszero\n      tag_123\n      jumpi\n      dup1\n      0x1f\n      lt\n      tag_124\n      jumpi\n      0x0100\n      dup1\n      dup4\n      sload\n      div\n      mul\n      dup4\n      mstore\n      swap2\n      0x20\n      add\n      swap2\n      jump(tag_123)\n    tag_124:\n      dup3\n      add\n      swap2\n      swap1\n      0x00\n      mstore\n      keccak256(0x00, 0x20)\n      swap1\n    tag_125:\n      dup2\n      sload\n      dup2\n      mstore\n      swap1\n      0x01\n      add\n      swap1\n      0x20\n      add\n      dup1\n      dup4\n      gt\n      tag_125\n      jumpi\n      dup3\n      swap1\n      sub\n      0x1f\n      and\n      dup3\n      add\n      swap2\n    tag_123:\n      pop\n      pop\n      pop\n      pop\n      pop\n      swap1\n      pop\n        /* \"@openzeppelin/contracts/token/ERC20/ERC20.sol\":2156:2254   */\n      swap1\n      jump\t// out\n        /* \"@openzeppelin/contracts/token/ERC20/ERC20.sol\":4433:4630   */\n    tag_40:\n        /* \"@openzeppelin/contracts/token/ERC20/ERC20.sol\":4516:4520   */\n      0x00\n        /* \"@openzeppelin/contracts/utils/Context.sol\":719:729   */\n      caller\n        /* \"@openzeppelin/contracts/token/ERC20/ERC20.sol\":4570:4602   */\n      tag_129\n        /* \"@openzeppelin/contracts/utils/Context.sol\":719:729   */\n      dup2\n        /* \"@openzeppelin/contracts/token/ERC20/ERC20.sol\":4586:4593   */\n      dup6\n        /* \"@openzeppelin/contracts/token/ERC20/ERC20.sol\":4595:4601   */\n      dup6\n        /* \"@openzeppelin/contracts/token/ERC20/ERC20.sol\":4570:4578   */\n      tag_130\n        /* \"@openzeppelin/contracts/token/ERC20/ERC20.sol\":4570:4602   */\n      jump\t// in\n    tag_129:\n      pop\n        /* \"@openzeppelin/contracts/token/ERC20/ERC20.sol\":4619:4623   */\n      0x01\n      swap4\n        /* \"@openzeppelin/contracts/token/ERC20/ERC20.sol\":4433:4630   */\n      swap3\n      pop\n      pop\n      pop\n      jump\t// out\n        /* \"@openzeppelin/contracts/token/ERC20/ERC20.sol\":5192:5478   */\n    tag_50:\n        /* \"@openzeppelin/contracts/token/ERC20/ERC20.sol\":5319:5323   */\n      0x00\n        /* \"@openzeppelin/contracts/utils/Context.sol\":719:729   */\n      caller\n        /* \"@openzeppelin/contracts/token/ERC20/ERC20.sol\":5375:5413   */\n      tag_134\n        /* \"@openzeppelin/contracts/token/ERC20/ERC20.sol\":5391:5395   */\n      dup6\n        /* \"@openzeppelin/contracts/utils/Context.sol\":719:729   */\n      dup3\n        /* \"@openzeppelin/contracts/token/ERC20/ERC20.sol\":5406:5412   */\n      dup6\n        /* \"@openzeppelin/contracts/token/ERC20/ERC20.sol\":5375:5390   */\n      tag_135\n        /* \"@openzeppelin/contracts/token/ERC20/ERC20.sol\":5375:5413   */\n      jump\t// in\n    tag_134:\n        /* \"@openzeppelin/contracts/token/ERC20/ERC20.sol\":5423:5450   */\n      tag_136\n        /* \"@openzeppelin/contracts/token/ERC20/ERC20.sol\":5433:5437   */\n      dup6\n        /* \"@openzeppelin/contracts/token/ERC20/ERC20.sol\":5439:5441   */\n      dup6\n        /* \"@openzeppelin/contracts/token/ERC20/ERC20.sol\":5443:5449   */\n      dup6\n        /* \"@openzeppelin/contracts/token/ERC20/ERC20.sol\":5423:5432   */\n      tag_137\n        /* \"@openzeppelin/contracts/token/ERC20/ERC20.sol\":5423:5450   */\n      jump\t// in\n    tag_136:\n      pop\n        /* \"@openzeppelin/contracts/token/ERC20/ERC20.sol\":5467:5471   */\n      0x01\n      swap5\n        /* \"@openzeppelin/contracts/token/ERC20/ERC20.sol\":5192:5478   */\n      swap4\n      pop\n      pop\n      pop\n      pop\n      jump\t// out\n        /* \"OasisToken.sol\":1375:1488  function removeMinter(address _minter) external onlyOwner nonReentrant {... */\n    tag_58:\n        /* \"@openzeppelin/contracts/access/Ownable.sol\":1094:1107   */\n      tag_139\n        /* \"@openzeppelin/contracts/access/Ownable.sol\":1094:1105   */\n      tag_140\n        /* \"@openzeppelin/contracts/access/Ownable.sol\":1094:1107   */\n      jump\t// in\n    tag_139:\n        /* \"@openzeppelin/contracts/security/ReentrancyGuard.sol\":1744:1745   */\n      0x02\n        /* \"@openzeppelin/contracts/security/ReentrancyGuard.sol\":2325:2332   */\n      sload(0x06)\n        /* \"@openzeppelin/contracts/security/ReentrancyGuard.sol\":2325:2344   */\n      sub\n        /* \"@openzeppelin/contracts/security/ReentrancyGuard.sol\":2317:2380   */\n      tag_142\n      jumpi\n      mload(0x40)\n      shl(0xe5, 0x461bcd)\n      dup2\n      mstore\n        /* \"#utility.yul\":4498:4500   */\n      0x20\n        /* \"@openzeppelin/contracts/security/ReentrancyGuard.sol\":2317:2380   */\n      0x04\n      dup3\n      add\n        /* \"#utility.yul\":4480:4501   */\n      mstore\n        /* \"#utility.yul\":4537:4539   */\n      0x1f\n        /* \"#utility.yul\":4517:4535   */\n      0x24\n      dup3\n      add\n        /* \"#utility.yul\":4510:4540   */\n      mstore\n        /* \"#utility.yul\":4576:4609   */\n      0x5265656e7472616e637947756172643a207265656e7472616e742063616c6c00\n        /* \"#utility.yul\":4556:4574   */\n      0x44\n      dup3\n      add\n        /* \"#utility.yul\":4549:4610   */\n      mstore\n        /* \"#utility.yul\":4627:4645   */\n      0x64\n      add\n        /* \"@openzeppelin/contracts/security/ReentrancyGuard.sol\":2317:2380   */\n    tag_143:\n      mload(0x40)\n      dup1\n      swap2\n      sub\n      swap1\n      revert\n    tag_142:\n        /* \"@openzeppelin/contracts/security/ReentrancyGuard.sol\":1744:1745   */\n      0x02\n        /* \"@openzeppelin/contracts/security/ReentrancyGuard.sol\":2455:2462   */\n      0x06\n        /* \"@openzeppelin/contracts/security/ReentrancyGuard.sol\":2455:2473   */\n      swap1\n      dup2\n      sstore\n      sub(shl(0xa0, 0x01), 0x01)\n        /* \"OasisToken.sol\":1457:1472  minter[_minter] */\n      swap1\n      swap2\n      and\n        /* \"OasisToken.sol\":1475:1480  false */\n      0x00\n        /* \"OasisToken.sol\":1457:1472  minter[_minter] */\n      swap1\n      dup2\n      mstore\n        /* \"OasisToken.sol\":1457:1463  minter */\n      0x0a\n        /* \"OasisToken.sol\":1457:1472  minter[_minter] */\n      0x20\n      mstore\n      0x40\n      swap1\n      keccak256\n        /* \"OasisToken.sol\":1457:1480  minter[_minter] = false */\n      dup1\n      sload\n      not(0xff)\n      and\n      swap1\n      sstore\n      0x01\n        /* \"@openzeppelin/contracts/security/ReentrancyGuard.sol\":2628:2650   */\n      swap1\n      sstore\n        /* \"OasisToken.sol\":1375:1488  function removeMinter(address _minter) external onlyOwner nonReentrant {... */\n      jump\t// out\n        /* \"@openzeppelin/contracts/token/ERC20/ERC20.sol\":5873:6107   */\n    tag_65:\n        /* \"@openzeppelin/contracts/utils/Context.sol\":719:729   */\n      caller\n        /* \"@openzeppelin/contracts/token/ERC20/ERC20.sol\":5961:5965   */\n      0x00\n        /* \"@openzeppelin/contracts/token/ERC20/ERC20.sol\":4091:4109   */\n      dup2\n      dup2\n      mstore\n        /* \"@openzeppelin/contracts/token/ERC20/ERC20.sol\":4091:4102   */\n      0x01\n        /* \"@openzeppelin/contracts/token/ERC20/ERC20.sol\":4091:4109   */\n      0x20\n      swap1\n      dup2\n      mstore\n      0x40\n      dup1\n      dup4\n      keccak256\n      sub(shl(0xa0, 0x01), 0x01)\n        /* \"@openzeppelin/contracts/token/ERC20/ERC20.sol\":4091:4118   */\n      dup8\n      and\n      dup5\n      mstore\n      swap1\n      swap2\n      mstore\n      dup2\n      keccak256\n      sload\n        /* \"@openzeppelin/contracts/token/ERC20/ERC20.sol\":5961:5965   */\n      swap1\n      swap2\n        /* \"@openzeppelin/contracts/utils/Context.sol\":719:729   */\n      swap1\n        /* \"@openzeppelin/contracts/token/ERC20/ERC20.sol\":6015:6079   */\n      tag_129\n      swap1\n        /* \"@openzeppelin/contracts/utils/Context.sol\":719:729   */\n      dup3\n      swap1\n        /* \"@openzeppelin/contracts/token/ERC20/ERC20.sol\":4091:4118   */\n      dup7\n      swap1\n        /* \"@openzeppelin/contracts/token/ERC20/ERC20.sol\":6040:6078   */\n      tag_151\n      swap1\n        /* \"@openzeppelin/contracts/token/ERC20/ERC20.sol\":6068:6078   */\n      dup8\n      swap1\n        /* \"@openzeppelin/contracts/token/ERC20/ERC20.sol\":6040:6078   */\n      tag_152\n      jump\t// in\n    tag_151:\n        /* \"@openzeppelin/contracts/token/ERC20/ERC20.sol\":6015:6023   */\n      tag_130\n        /* \"@openzeppelin/contracts/token/ERC20/ERC20.sol\":6015:6079   */\n      jump\t// in\n        /* \"OasisToken.sol\":1528:1702  function mint(address _to, uint256 _amount) external nonReentrant {... */\n    tag_73:\n        /* \"@openzeppelin/contracts/security/ReentrancyGuard.sol\":1744:1745   */\n      0x02\n        /* \"@openzeppelin/contracts/security/ReentrancyGuard.sol\":2325:2332   */\n      sload(0x06)\n        /* \"@openzeppelin/contracts/security/ReentrancyGuard.sol\":2325:2344   */\n      sub\n        /* \"@openzeppelin/contracts/security/ReentrancyGuard.sol\":2317:2380   */\n      tag_154\n      jumpi\n      mload(0x40)\n      shl(0xe5, 0x461bcd)\n      dup2\n      mstore\n        /* \"#utility.yul\":4498:4500   */\n      0x20\n        /* \"@openzeppelin/contracts/security/ReentrancyGuard.sol\":2317:2380   */\n      0x04\n      dup3\n      add\n        /* \"#utility.yul\":4480:4501   */\n      mstore\n        /* \"#utility.yul\":4537:4539   */\n      0x1f\n        /* \"#utility.yul\":4517:4535   */\n      0x24\n      dup3\n      add\n        /* \"#utility.yul\":4510:4540   */\n      mstore\n        /* \"#utility.yul\":4576:4609   */\n      0x5265656e7472616e637947756172643a207265656e7472616e742063616c6c00\n        /* \"#utility.yul\":4556:4574   */\n      0x44\n      dup3\n      add\n        /* \"#utility.yul\":4549:4610   */\n      mstore\n        /* \"#utility.yul\":4627:4645   */\n      0x64\n      add\n        /* \"@openzeppelin/contracts/security/ReentrancyGuard.sol\":2317:2380   */\n      tag_143\n        /* \"#utility.yul\":4296:4651   */\n      jump\n        /* \"@openzeppelin/contracts/security/ReentrancyGuard.sol\":2317:2380   */\n    tag_154:\n        /* \"@openzeppelin/contracts/security/ReentrancyGuard.sol\":1744:1745   */\n      0x02\n        /* \"@openzeppelin/contracts/security/ReentrancyGuard.sol\":2455:2462   */\n      0x06\n        /* \"@openzeppelin/contracts/security/ReentrancyGuard.sol\":2455:2473   */\n      sstore\n        /* \"OasisToken.sol\":1620:1630  msg.sender */\n      caller\n        /* \"OasisToken.sol\":1613:1631  minter[msg.sender] */\n      0x00\n      swap1\n      dup2\n      mstore\n        /* \"OasisToken.sol\":1613:1619  minter */\n      0x0a\n        /* \"OasisToken.sol\":1613:1631  minter[msg.sender] */\n      0x20\n      mstore\n      0x40\n      swap1\n      keccak256\n      sload\n      0xff\n      and\n        /* \"OasisToken.sol\":1605:1662  require(minter[msg.sender], \"Must be an assigned Minter\") */\n      tag_157\n      jumpi\n      mload(0x40)\n      shl(0xe5, 0x461bcd)\n      dup2\n      mstore\n        /* \"#utility.yul\":5123:5125   */\n      0x20\n        /* \"OasisToken.sol\":1605:1662  require(minter[msg.sender], \"Must be an assigned Minter\") */\n      0x04\n      dup3\n      add\n        /* \"#utility.yul\":5105:5126   */\n      mstore\n        /* \"#utility.yul\":5162:5164   */\n      0x1a\n        /* \"#utility.yul\":5142:5160   */\n      0x24\n      dup3\n      add\n        /* \"#utility.yul\":5135:5165   */\n      mstore\n        /* \"#utility.yul\":5201:5229   */\n      0x4d75737420626520616e2061737369676e6564204d696e746572000000000000\n        /* \"#utility.yul\":5181:5199   */\n      0x44\n      dup3\n      add\n        /* \"#utility.yul\":5174:5230   */\n      mstore\n        /* \"#utility.yul\":5247:5265   */\n      0x64\n      add\n        /* \"OasisToken.sol\":1605:1662  require(minter[msg.sender], \"Must be an assigned Minter\") */\n      tag_143\n        /* \"#utility.yul\":4921:5271   */\n      jump\n        /* \"OasisToken.sol\":1605:1662  require(minter[msg.sender], \"Must be an assigned Minter\") */\n    tag_157:\n        /* \"OasisToken.sol\":1675:1694  _mint(_to, _amount) */\n      tag_160\n        /* \"OasisToken.sol\":1681:1684  _to */\n      dup3\n        /* \"OasisToken.sol\":1686:1693  _amount */\n      dup3\n        /* \"OasisToken.sol\":1675:1680  _mint */\n      tag_161\n        /* \"OasisToken.sol\":1675:1694  _mint(_to, _amount) */\n      jump\t// in\n    tag_160:\n      pop\n      pop\n        /* \"@openzeppelin/contracts/security/ReentrancyGuard.sol\":1701:1702   */\n      0x01\n        /* \"@openzeppelin/contracts/security/ReentrancyGuard.sol\":2628:2635   */\n      0x06\n        /* \"@openzeppelin/contracts/security/ReentrancyGuard.sol\":2628:2650   */\n      sstore\n        /* \"OasisToken.sol\":1528:1702  function mint(address _to, uint256 _amount) external nonReentrant {... */\n      jump\t// out\n        /* \"OasisToken.sol\":1740:2200  function claim(uint256[] memory _tokenIds) external nonReentrant {... */\n    tag_77:\n        /* \"@openzeppelin/contracts/security/ReentrancyGuard.sol\":1744:1745   */\n      0x02\n        /* \"@openzeppelin/contracts/security/ReentrancyGuard.sol\":2325:2332   */\n      sload(0x06)\n        /* \"@openzeppelin/contracts/security/ReentrancyGuard.sol\":2325:2344   */\n      sub\n        /* \"@openzeppelin/contracts/security/ReentrancyGuard.sol\":2317:2380   */\n      tag_163\n      jumpi\n      mload(0x40)\n      shl(0xe5, 0x461bcd)\n      dup2\n      mstore\n        /* \"#utility.yul\":4498:4500   */\n      0x20\n        /* \"@openzeppelin/contracts/security/ReentrancyGuard.sol\":2317:2380   */\n      0x04\n      dup3\n      add\n        /* \"#utility.yul\":4480:4501   */\n      mstore\n        /* \"#utility.yul\":4537:4539   */\n      0x1f\n        /* \"#utility.yul\":4517:4535   */\n      0x24\n      dup3\n      add\n        /* \"#utility.yul\":4510:4540   */\n      mstore\n        /* \"#utility.yul\":4576:4609   */\n      0x5265656e7472616e637947756172643a207265656e7472616e742063616c6c00\n        /* \"#utility.yul\":4556:4574   */\n      0x44\n      dup3\n      add\n        /* \"#utility.yul\":4549:4610   */\n      mstore\n        /* \"#utility.yul\":4627:4645   */\n      0x64\n      add\n        /* \"@openzeppelin/contracts/security/ReentrancyGuard.sol\":2317:2380   */\n      tag_143\n        /* \"#utility.yul\":4296:4651   */\n      jump\n        /* \"@openzeppelin/contracts/security/ReentrancyGuard.sol\":2317:2380   */\n    tag_163:\n        /* \"@openzeppelin/contracts/security/ReentrancyGuard.sol\":1744:1745   */\n      0x02\n        /* \"@openzeppelin/contracts/security/ReentrancyGuard.sol\":2455:2462   */\n      0x06\n        /* \"@openzeppelin/contracts/security/ReentrancyGuard.sol\":2455:2473   */\n      sstore\n        /* \"OasisToken.sol\":1824:1840  _tokenIds.length */\n      dup1\n      mload\n        /* \"OasisToken.sol\":1816:1883  require(_tokenIds.length > 0, \"Must burn at least one Crazy Camel\") */\n      tag_166\n      jumpi\n      mload(0x40)\n      shl(0xe5, 0x461bcd)\n      dup2\n      mstore\n        /* \"#utility.yul\":5478:5480   */\n      0x20\n        /* \"OasisToken.sol\":1816:1883  require(_tokenIds.length > 0, \"Must burn at least one Crazy Camel\") */\n      0x04\n      dup3\n      add\n        /* \"#utility.yul\":5460:5481   */\n      mstore\n        /* \"#utility.yul\":5517:5519   */\n      0x22\n        /* \"#utility.yul\":5497:5515   */\n      0x24\n      dup3\n      add\n        /* \"#utility.yul\":5490:5520   */\n      mstore\n        /* \"#utility.yul\":5556:5590   */\n      0x4d757374206275726e206174206c65617374206f6e65204372617a792043616d\n        /* \"#utility.yul\":5536:5554   */\n      0x44\n      dup3\n      add\n        /* \"#utility.yul\":5529:5591   */\n      mstore\n      shl(0xf2, 0x195b)\n        /* \"#utility.yul\":5607:5625   */\n      0x64\n      dup3\n      add\n        /* \"#utility.yul\":5600:5632   */\n      mstore\n        /* \"#utility.yul\":5649:5668   */\n      0x84\n      add\n        /* \"OasisToken.sol\":1816:1883  require(_tokenIds.length > 0, \"Must burn at least one Crazy Camel\") */\n      tag_143\n        /* \"#utility.yul\":5276:5674   */\n      jump\n        /* \"OasisToken.sol\":1816:1883  require(_tokenIds.length > 0, \"Must burn at least one Crazy Camel\") */\n    tag_166:\n        /* \"OasisToken.sol\":1901:1910  uint256 i */\n      0x00\n        /* \"OasisToken.sol\":1896:2031  for (uint256 i = 0; i < _tokenIds.length; i++)... */\n    tag_169:\n        /* \"OasisToken.sol\":1920:1929  _tokenIds */\n      dup2\n        /* \"OasisToken.sol\":1920:1936  _tokenIds.length */\n      mload\n        /* \"OasisToken.sol\":1916:1917  i */\n      dup2\n        /* \"OasisToken.sol\":1916:1936  i < _tokenIds.length */\n      lt\n        /* \"OasisToken.sol\":1896:2031  for (uint256 i = 0; i < _tokenIds.length; i++)... */\n      iszero\n      tag_170\n      jumpi\n        /* \"OasisToken.sol\":1964:1975  crazyCamels */\n      sload(0x07)\n        /* \"OasisToken.sol\":2002:2016  oasisGraveyard */\n      sload(0x08)\n        /* \"OasisToken.sol\":2018:2030  _tokenIds[i] */\n      dup4\n      mload\n      sub(shl(0xa0, 0x01), 0x01)\n        /* \"OasisToken.sol\":1964:1975  crazyCamels */\n      swap3\n      dup4\n      and\n      swap3\n        /* \"OasisToken.sol\":1956:1989  IERC721(crazyCamels).transferFrom */\n      0x23b872dd\n      swap3\n        /* \"OasisToken.sol\":1990:2000  msg.sender */\n      caller\n      swap3\n        /* \"OasisToken.sol\":2002:2016  oasisGraveyard */\n      swap2\n      and\n      swap1\n        /* \"OasisToken.sol\":2018:2027  _tokenIds */\n      dup7\n      swap1\n        /* \"OasisToken.sol\":2028:2029  i */\n      dup7\n      swap1\n        /* \"OasisToken.sol\":2018:2030  _tokenIds[i] */\n      dup2\n      lt\n      tag_173\n      jumpi\n      tag_173\n      tag_174\n      jump\t// in\n    tag_173:\n      0x20\n      swap1\n      dup2\n      mul\n      swap2\n      swap1\n      swap2\n      add\n      add\n      mload\n        /* \"OasisToken.sol\":1956:2031  IERC721(crazyCamels).transferFrom(msg.sender, oasisGraveyard, _tokenIds[i]) */\n      mload(0x40)\n      0xffffffff00000000000000000000000000000000000000000000000000000000\n      0xe0\n      dup7\n      swap1\n      shl\n      and\n      dup2\n      mstore\n      sub(shl(0xa0, 0x01), 0x01)\n        /* \"#utility.yul\":6092:6107   */\n      swap4\n      dup5\n      and\n        /* \"OasisToken.sol\":1956:2031  IERC721(crazyCamels).transferFrom(msg.sender, oasisGraveyard, _tokenIds[i]) */\n      0x04\n      dup3\n      add\n        /* \"#utility.yul\":6074:6108   */\n      mstore\n        /* \"#utility.yul\":6144:6159   */\n      swap3\n      swap1\n      swap2\n      and\n        /* \"#utility.yul\":6124:6142   */\n      0x24\n      dup4\n      add\n        /* \"#utility.yul\":6117:6160   */\n      mstore\n        /* \"#utility.yul\":6176:6194   */\n      0x44\n      dup3\n      add\n        /* \"#utility.yul\":6169:6203   */\n      mstore\n        /* \"#utility.yul\":5986:6004   */\n      0x64\n      add\n        /* \"OasisToken.sol\":1956:2031  IERC721(crazyCamels).transferFrom(msg.sender, oasisGraveyard, _tokenIds[i]) */\n      0x00\n      mload(0x40)\n      dup1\n      dup4\n      sub\n      dup2\n      0x00\n      dup8\n      dup1\n      extcodesize\n      iszero\n      dup1\n      iszero\n      tag_177\n      jumpi\n      0x00\n      dup1\n      revert\n    tag_177:\n      pop\n      gas\n      call\n      iszero\n      dup1\n      iszero\n      tag_179\n      jumpi\n      returndatasize\n      0x00\n      dup1\n      returndatacopy\n      revert(0x00, returndatasize)\n    tag_179:\n      pop\n      pop\n      pop\n      pop\n        /* \"OasisToken.sol\":1938:1941  i++ */\n      dup1\n      dup1\n      tag_180\n      swap1\n      tag_181\n      jump\t// in\n    tag_180:\n      swap2\n      pop\n      pop\n        /* \"OasisToken.sol\":1896:2031  for (uint256 i = 0; i < _tokenIds.length; i++)... */\n      jump(tag_169)\n    tag_170:\n      pop\n        /* \"OasisToken.sol\":2044:2101  _mint(msg.sender, _tokenIds.length * tokensPerCrazyCamel) */\n      tag_182\n        /* \"OasisToken.sol\":2050:2060  msg.sender */\n      caller\n        /* \"OasisToken.sol\":2081:2100  tokensPerCrazyCamel */\n      sload(0x09)\n        /* \"OasisToken.sol\":2062:2071  _tokenIds */\n      dup4\n        /* \"OasisToken.sol\":2062:2078  _tokenIds.length */\n      mload\n        /* \"OasisToken.sol\":2062:2100  _tokenIds.length * tokensPerCrazyCamel */\n      tag_183\n      swap2\n      swap1\n      tag_184\n      jump\t// in\n    tag_183:\n        /* \"OasisToken.sol\":2044:2049  _mint */\n      tag_161\n        /* \"OasisToken.sol\":2044:2101  _mint(msg.sender, _tokenIds.length * tokensPerCrazyCamel) */\n      jump\t// in\n    tag_182:\n        /* \"OasisToken.sol\":2130:2140  msg.sender */\n      caller\n      sub(shl(0xa0, 0x01), 0x01)\n        /* \"OasisToken.sol\":2119:2192  ClaimedOST(msg.sender, _tokenIds.length * tokensPerCrazyCamel, _tokenIds) */\n      and\n      0xe95b1afb8a6019e43b6906420999d1c23995e338d5e7016e96f61b605fa96e26\n        /* \"OasisToken.sol\":2161:2180  tokensPerCrazyCamel */\n      sload(0x09)\n        /* \"OasisToken.sol\":2142:2151  _tokenIds */\n      dup4\n        /* \"OasisToken.sol\":2142:2158  _tokenIds.length */\n      mload\n        /* \"OasisToken.sol\":2142:2180  _tokenIds.length * tokensPerCrazyCamel */\n      tag_185\n      swap2\n      swap1\n      tag_184\n      jump\t// in\n    tag_185:\n        /* \"OasisToken.sol\":2182:2191  _tokenIds */\n      dup4\n        /* \"OasisToken.sol\":2119:2192  ClaimedOST(msg.sender, _tokenIds.length * tokensPerCrazyCamel, _tokenIds) */\n      mload(0x40)\n      tag_186\n      swap3\n      swap2\n      swap1\n      tag_187\n      jump\t// in\n    tag_186:\n      mload(0x40)\n      dup1\n      swap2\n      sub\n      swap1\n      log2\n      pop\n        /* \"@openzeppelin/contracts/security/ReentrancyGuard.sol\":1701:1702   */\n      0x01\n        /* \"@openzeppelin/contracts/security/ReentrancyGuard.sol\":2628:2635   */\n      0x06\n        /* \"@openzeppelin/contracts/security/ReentrancyGuard.sol\":2628:2650   */\n      sstore\n        /* \"OasisToken.sol\":1740:2200  function claim(uint256[] memory _tokenIds) external nonReentrant {... */\n      jump\t// out\n        /* \"@openzeppelin/contracts/access/Ownable.sol\":1831:1932   */\n    tag_83:\n        /* \"@openzeppelin/contracts/access/Ownable.sol\":1094:1107   */\n      tag_190\n        /* \"@openzeppelin/contracts/access/Ownable.sol\":1094:1105   */\n      tag_140\n        /* \"@openzeppelin/contracts/access/Ownable.sol\":1094:1107   */\n      jump\t// in\n    tag_190:\n        /* \"@openzeppelin/contracts/access/Ownable.sol\":1895:1925   */\n      tag_192\n        /* \"@openzeppelin/contracts/access/Ownable.sol\":1922:1923   */\n      0x00\n        /* \"@openzeppelin/contracts/access/Ownable.sol\":1895:1913   */\n      tag_193\n        /* \"@openzeppelin/contracts/access/Ownable.sol\":1895:1925   */\n      jump\t// in\n    tag_192:\n        /* \"@openzeppelin/contracts/access/Ownable.sol\":1831:1932   */\n      jump\t// out\n        /* \"@openzeppelin/contracts/token/ERC20/ERC20.sol\":2367:2469   */\n    tag_89:\n        /* \"@openzeppelin/contracts/token/ERC20/ERC20.sol\":2423:2436   */\n      0x60\n        /* \"@openzeppelin/contracts/token/ERC20/ERC20.sol\":2455:2462   */\n      0x04\n        /* \"@openzeppelin/contracts/token/ERC20/ERC20.sol\":2448:2462   */\n      dup1\n      sload\n      tag_120\n      swap1\n      tag_121\n      jump\t// in\n        /* \"OasisToken.sol\":1258:1367  function addMinter(address _minter) external onlyOwner nonReentrant {... */\n    tag_93:\n        /* \"@openzeppelin/contracts/access/Ownable.sol\":1094:1107   */\n      tag_202\n        /* \"@openzeppelin/contracts/access/Ownable.sol\":1094:1105   */\n      tag_140\n        /* \"@openzeppelin/contracts/access/Ownable.sol\":1094:1107   */\n      jump\t// in\n    tag_202:\n        /* \"@openzeppelin/contracts/security/ReentrancyGuard.sol\":1744:1745   */\n      0x02\n        /* \"@openzeppelin/contracts/security/ReentrancyGuard.sol\":2325:2332   */\n      sload(0x06)\n        /* \"@openzeppelin/contracts/security/ReentrancyGuard.sol\":2325:2344   */\n      sub\n        /* \"@openzeppelin/contracts/security/ReentrancyGuard.sol\":2317:2380   */\n      tag_204\n      jumpi\n      mload(0x40)\n      shl(0xe5, 0x461bcd)\n      dup2\n      mstore\n        /* \"#utility.yul\":4498:4500   */\n      0x20\n        /* \"@openzeppelin/contracts/security/ReentrancyGuard.sol\":2317:2380   */\n      0x04\n      dup3\n      add\n        /* \"#utility.yul\":4480:4501   */\n      mstore\n        /* \"#utility.yul\":4537:4539   */\n      0x1f\n        /* \"#utility.yul\":4517:4535   */\n      0x24\n      dup3\n      add\n        /* \"#utility.yul\":4510:4540   */\n      mstore\n        /* \"#utility.yul\":4576:4609   */\n      0x5265656e7472616e637947756172643a207265656e7472616e742063616c6c00\n        /* \"#utility.yul\":4556:4574   */\n      0x44\n      dup3\n      add\n        /* \"#utility.yul\":4549:4610   */\n      mstore\n        /* \"#utility.yul\":4627:4645   */\n      0x64\n      add\n        /* \"@openzeppelin/contracts/security/ReentrancyGuard.sol\":2317:2380   */\n      tag_143\n        /* \"#utility.yul\":4296:4651   */\n      jump\n        /* \"@openzeppelin/contracts/security/ReentrancyGuard.sol\":2317:2380   */\n    tag_204:\n        /* \"@openzeppelin/contracts/security/ReentrancyGuard.sol\":1744:1745   */\n      0x02\n        /* \"@openzeppelin/contracts/security/ReentrancyGuard.sol\":2455:2462   */\n      0x06\n        /* \"@openzeppelin/contracts/security/ReentrancyGuard.sol\":2455:2473   */\n      swap1\n      dup2\n      sstore\n      sub(shl(0xa0, 0x01), 0x01)\n        /* \"OasisToken.sol\":1337:1352  minter[_minter] */\n      swap1\n      swap2\n      and\n      0x00\n      swap1\n      dup2\n      mstore\n        /* \"OasisToken.sol\":1337:1343  minter */\n      0x0a\n        /* \"OasisToken.sol\":1337:1352  minter[_minter] */\n      0x20\n      mstore\n      0x40\n      swap1\n      keccak256\n        /* \"OasisToken.sol\":1337:1359  minter[_minter] = true */\n      dup1\n      sload\n      not(0xff)\n      and\n        /* \"OasisToken.sol\":1355:1359  true */\n      0x01\n        /* \"OasisToken.sol\":1337:1359  minter[_minter] = true */\n      swap1\n      dup2\n      or\n      swap1\n      swap2\n      sstore\n        /* \"@openzeppelin/contracts/security/ReentrancyGuard.sol\":2628:2650   */\n      swap1\n      sstore\n        /* \"OasisToken.sol\":1258:1367  function addMinter(address _minter) external onlyOwner nonReentrant {... */\n      jump\t// out\n        /* \"@openzeppelin/contracts/token/ERC20/ERC20.sol\":6594:7021   */\n    tag_99:\n        /* \"@openzeppelin/contracts/utils/Context.sol\":719:729   */\n      caller\n        /* \"@openzeppelin/contracts/token/ERC20/ERC20.sol\":6687:6691   */\n      0x00\n        /* \"@openzeppelin/contracts/token/ERC20/ERC20.sol\":4091:4109   */\n      dup2\n      dup2\n      mstore\n        /* \"@openzeppelin/contracts/token/ERC20/ERC20.sol\":4091:4102   */\n      0x01\n        /* \"@openzeppelin/contracts/token/ERC20/ERC20.sol\":4091:4109   */\n      0x20\n      swap1\n      dup2\n      mstore\n      0x40\n      dup1\n      dup4\n      keccak256\n      sub(shl(0xa0, 0x01), 0x01)\n        /* \"@openzeppelin/contracts/token/ERC20/ERC20.sol\":4091:4118   */\n      dup8\n      and\n      dup5\n      mstore\n      swap1\n      swap2\n      mstore\n      dup2\n      keccak256\n      sload\n        /* \"@openzeppelin/contracts/token/ERC20/ERC20.sol\":6687:6691   */\n      swap1\n      swap2\n        /* \"@openzeppelin/contracts/utils/Context.sol\":719:729   */\n      swap1\n        /* \"@openzeppelin/contracts/token/ERC20/ERC20.sol\":6831:6846   */\n      dup4\n        /* \"@openzeppelin/contracts/token/ERC20/ERC20.sol\":6811:6827   */\n      dup2\n        /* \"@openzeppelin/contracts/token/ERC20/ERC20.sol\":6811:6846   */\n      lt\n      iszero\n        /* \"@openzeppelin/contracts/token/ERC20/ERC20.sol\":6803:6888   */\n      tag_210\n      jumpi\n      mload(0x40)\n      shl(0xe5, 0x461bcd)\n      dup2\n      mstore\n        /* \"#utility.yul\":7437:7439   */\n      0x20\n        /* \"@openzeppelin/contracts/token/ERC20/ERC20.sol\":6803:6888   */\n      0x04\n      dup3\n      add\n        /* \"#utility.yul\":7419:7440   */\n      mstore\n        /* \"#utility.yul\":7476:7478   */\n      0x25\n        /* \"#utility.yul\":7456:7474   */\n      0x24\n      dup3\n      add\n        /* \"#utility.yul\":7449:7479   */\n      mstore\n        /* \"#utility.yul\":7515:7549   */\n      0x45524332303a2064656372656173656420616c6c6f77616e63652062656c6f77\n        /* \"#utility.yul\":7495:7513   */\n      0x44\n      dup3\n      add\n        /* \"#utility.yul\":7488:7550   */\n      mstore\n        /* \"#utility.yul\":7586:7593   */\n      0x207a65726f000000000000000000000000000000000000000000000000000000\n        /* \"#utility.yul\":7566:7584   */\n      0x64\n      dup3\n      add\n        /* \"#utility.yul\":7559:7594   */\n      mstore\n        /* \"#utility.yul\":7611:7630   */\n      0x84\n      add\n        /* \"@openzeppelin/contracts/token/ERC20/ERC20.sol\":6803:6888   */\n      tag_143\n        /* \"#utility.yul\":7235:7636   */\n      jump\n        /* \"@openzeppelin/contracts/token/ERC20/ERC20.sol\":6803:6888   */\n    tag_210:\n        /* \"@openzeppelin/contracts/token/ERC20/ERC20.sol\":6922:6982   */\n      tag_136\n        /* \"@openzeppelin/contracts/token/ERC20/ERC20.sol\":6931:6936   */\n      dup3\n        /* \"@openzeppelin/contracts/token/ERC20/ERC20.sol\":6938:6945   */\n      dup7\n        /* \"@openzeppelin/contracts/token/ERC20/ERC20.sol\":6966:6981   */\n      dup7\n        /* \"@openzeppelin/contracts/token/ERC20/ERC20.sol\":6947:6963   */\n      dup5\n        /* \"@openzeppelin/contracts/token/ERC20/ERC20.sol\":6947:6981   */\n      sub\n        /* \"@openzeppelin/contracts/token/ERC20/ERC20.sol\":6922:6930   */\n      tag_130\n        /* \"@openzeppelin/contracts/token/ERC20/ERC20.sol\":6922:6982   */\n      jump\t// in\n        /* \"@openzeppelin/contracts/token/ERC20/ERC20.sol\":3729:3918   */\n    tag_103:\n        /* \"@openzeppelin/contracts/token/ERC20/ERC20.sol\":3808:3812   */\n      0x00\n        /* \"@openzeppelin/contracts/utils/Context.sol\":719:729   */\n      caller\n        /* \"@openzeppelin/contracts/token/ERC20/ERC20.sol\":3862:3890   */\n      tag_129\n        /* \"@openzeppelin/contracts/utils/Context.sol\":719:729   */\n      dup2\n        /* \"@openzeppelin/contracts/token/ERC20/ERC20.sol\":3879:3881   */\n      dup6\n        /* \"@openzeppelin/contracts/token/ERC20/ERC20.sol\":3883:3889   */\n      dup6\n        /* \"@openzeppelin/contracts/token/ERC20/ERC20.sol\":3862:3871   */\n      tag_137\n        /* \"@openzeppelin/contracts/token/ERC20/ERC20.sol\":3862:3890   */\n      jump\t// in\n        /* \"OasisToken.sol\":939:1250  function setStateVariables(... */\n    tag_115:\n        /* \"@openzeppelin/contracts/access/Ownable.sol\":1094:1107   */\n      tag_219\n        /* \"@openzeppelin/contracts/access/Ownable.sol\":1094:1105   */\n      tag_140\n        /* \"@openzeppelin/contracts/access/Ownable.sol\":1094:1107   */\n      jump\t// in\n    tag_219:\n        /* \"@openzeppelin/contracts/security/ReentrancyGuard.sol\":1744:1745   */\n      0x02\n        /* \"@openzeppelin/contracts/security/ReentrancyGuard.sol\":2325:2332   */\n      sload(0x06)\n        /* \"@openzeppelin/contracts/security/ReentrancyGuard.sol\":2325:2344   */\n      sub\n        /* \"@openzeppelin/contracts/security/ReentrancyGuard.sol\":2317:2380   */\n      tag_221\n      jumpi\n      mload(0x40)\n      shl(0xe5, 0x461bcd)\n      dup2\n      mstore\n        /* \"#utility.yul\":4498:4500   */\n      0x20\n        /* \"@openzeppelin/contracts/security/ReentrancyGuard.sol\":2317:2380   */\n      0x04\n      dup3\n      add\n        /* \"#utility.yul\":4480:4501   */\n      mstore\n        /* \"#utility.yul\":4537:4539   */\n      0x1f\n        /* \"#utility.yul\":4517:4535   */\n      0x24\n      dup3\n      add\n        /* \"#utility.yul\":4510:4540   */\n      mstore\n        /* \"#utility.yul\":4576:4609   */\n      0x5265656e7472616e637947756172643a207265656e7472616e742063616c6c00\n        /* \"#utility.yul\":4556:4574   */\n      0x44\n      dup3\n      add\n        /* \"#utility.yul\":4549:4610   */\n      mstore\n        /* \"#utility.yul\":4627:4645   */\n      0x64\n      add\n        /* \"@openzeppelin/contracts/security/ReentrancyGuard.sol\":2317:2380   */\n      tag_143\n        /* \"#utility.yul\":4296:4651   */\n      jump\n        /* \"@openzeppelin/contracts/security/ReentrancyGuard.sol\":2317:2380   */\n    tag_221:\n        /* \"OasisToken.sol\":1120:1131  crazyCamels */\n      0x07\n        /* \"OasisToken.sol\":1120:1146  crazyCamels = _crazyCamels */\n      dup1\n      sload\n      sub(shl(0xa0, 0x01), 0x01)\n      swap5\n      dup6\n      and\n      not(0xffffffffffffffffffffffffffffffffffffffff)\n      swap2\n      dup3\n      and\n      or\n      swap1\n      swap2\n      sstore\n        /* \"OasisToken.sol\":1157:1171  oasisGraveyard */\n      0x08\n        /* \"OasisToken.sol\":1157:1189  oasisGraveyard = _oasisGraveyard */\n      dup1\n      sload\n      swap4\n      swap1\n      swap5\n      and\n      swap3\n      and\n      swap2\n      swap1\n      swap2\n      or\n      swap1\n      swap2\n      sstore\n        /* \"OasisToken.sol\":1200:1219  tokensPerCrazyCamel */\n      0x09\n        /* \"OasisToken.sol\":1200:1242  tokensPerCrazyCamel = _tokensPerCrazyCamel */\n      sstore\n        /* \"OasisToken.sol\":1120:1146  crazyCamels = _crazyCamels */\n      0x01\n        /* \"@openzeppelin/contracts/security/ReentrancyGuard.sol\":2455:2462   */\n      0x06\n        /* \"@openzeppelin/contracts/security/ReentrancyGuard.sol\":2628:2650   */\n      sstore\n        /* \"OasisToken.sol\":939:1250  function setStateVariables(... */\n      jump\t// out\n        /* \"@openzeppelin/contracts/access/Ownable.sol\":2081:2279   */\n    tag_118:\n        /* \"@openzeppelin/contracts/access/Ownable.sol\":1094:1107   */\n      tag_225\n        /* \"@openzeppelin/contracts/access/Ownable.sol\":1094:1105   */\n      tag_140\n        /* \"@openzeppelin/contracts/access/Ownable.sol\":1094:1107   */\n      jump\t// in\n    tag_225:\n      sub(shl(0xa0, 0x01), 0x01)\n        /* \"@openzeppelin/contracts/access/Ownable.sol\":2169:2191   */\n      dup2\n      and\n        /* \"@openzeppelin/contracts/access/Ownable.sol\":2161:2234   */\n      tag_227\n      jumpi\n      mload(0x40)\n      shl(0xe5, 0x461bcd)\n      dup2\n      mstore\n        /* \"#utility.yul\":7843:7845   */\n      0x20\n        /* \"@openzeppelin/contracts/access/Ownable.sol\":2161:2234   */\n      0x04\n      dup3\n      add\n        /* \"#utility.yul\":7825:7846   */\n      mstore\n        /* \"#utility.yul\":7882:7884   */\n      0x26\n        /* \"#utility.yul\":7862:7880   */\n      0x24\n      dup3\n      add\n        /* \"#utility.yul\":7855:7885   */\n      mstore\n        /* \"#utility.yul\":7921:7955   */\n      0x4f776e61626c653a206e6577206f776e657220697320746865207a65726f2061\n        /* \"#utility.yul\":7901:7919   */\n      0x44\n      dup3\n      add\n        /* \"#utility.yul\":7894:7956   */\n      mstore\n        /* \"#utility.yul\":7992:8000   */\n      0x6464726573730000000000000000000000000000000000000000000000000000\n        /* \"#utility.yul\":7972:7990   */\n      0x64\n      dup3\n      add\n        /* \"#utility.yul\":7965:8001   */\n      mstore\n        /* \"#utility.yul\":8018:8037   */\n      0x84\n      add\n        /* \"@openzeppelin/contracts/access/Ownable.sol\":2161:2234   */\n      tag_143\n        /* \"#utility.yul\":7641:8043   */\n      jump\n        /* \"@openzeppelin/contracts/access/Ownable.sol\":2161:2234   */\n    tag_227:\n        /* \"@openzeppelin/contracts/access/Ownable.sol\":2244:2272   */\n      tag_230\n        /* \"@openzeppelin/contracts/access/Ownable.sol\":2263:2271   */\n      dup2\n        /* \"@openzeppelin/contracts/access/Ownable.sol\":2244:2262   */\n      tag_193\n        /* \"@openzeppelin/contracts/access/Ownable.sol\":2244:2272   */\n      jump\t// in\n    tag_230:\n        /* \"@openzeppelin/contracts/access/Ownable.sol\":2081:2279   */\n      pop\n      jump\t// out\n        /* \"@openzeppelin/contracts/token/ERC20/ERC20.sol\":10110:10480   */\n    tag_130:\n      sub(shl(0xa0, 0x01), 0x01)\n        /* \"@openzeppelin/contracts/token/ERC20/ERC20.sol\":10241:10260   */\n      dup4\n      and\n        /* \"@openzeppelin/contracts/token/ERC20/ERC20.sol\":10233:10301   */\n      tag_233\n      jumpi\n      mload(0x40)\n      shl(0xe5, 0x461bcd)\n      dup2\n      mstore\n        /* \"#utility.yul\":8250:8252   */\n      0x20\n        /* \"@openzeppelin/contracts/token/ERC20/ERC20.sol\":10233:10301   */\n      0x04\n      dup3\n      add\n        /* \"#utility.yul\":8232:8253   */\n      mstore\n        /* \"#utility.yul\":8289:8291   */\n      0x24\n        /* \"#utility.yul\":8269:8287   */\n      dup1\n      dup3\n      add\n        /* \"#utility.yul\":8262:8292   */\n      mstore\n        /* \"#utility.yul\":8328:8362   */\n      0x45524332303a20617070726f76652066726f6d20746865207a65726f20616464\n        /* \"#utility.yul\":8308:8326   */\n      0x44\n      dup3\n      add\n        /* \"#utility.yul\":8301:8363   */\n      mstore\n      shl(0xe0, 0x72657373)\n        /* \"#utility.yul\":8379:8397   */\n      0x64\n      dup3\n      add\n        /* \"#utility.yul\":8372:8406   */\n      mstore\n        /* \"#utility.yul\":8423:8442   */\n      0x84\n      add\n        /* \"@openzeppelin/contracts/token/ERC20/ERC20.sol\":10233:10301   */\n      tag_143\n        /* \"#utility.yul\":8048:8448   */\n      jump\n        /* \"@openzeppelin/contracts/token/ERC20/ERC20.sol\":10233:10301   */\n    tag_233:\n      sub(shl(0xa0, 0x01), 0x01)\n        /* \"@openzeppelin/contracts/token/ERC20/ERC20.sol\":10319:10340   */\n      dup3\n      and\n        /* \"@openzeppelin/contracts/token/ERC20/ERC20.sol\":10311:10379   */\n      tag_236\n      jumpi\n      mload(0x40)\n      shl(0xe5, 0x461bcd)\n      dup2\n      mstore\n        /* \"#utility.yul\":8655:8657   */\n      0x20\n        /* \"@openzeppelin/contracts/token/ERC20/ERC20.sol\":10311:10379   */\n      0x04\n      dup3\n      add\n        /* \"#utility.yul\":8637:8658   */\n      mstore\n        /* \"#utility.yul\":8694:8696   */\n      0x22\n        /* \"#utility.yul\":8674:8692   */\n      0x24\n      dup3\n      add\n        /* \"#utility.yul\":8667:8697   */\n      mstore\n        /* \"#utility.yul\":8733:8767   */\n      0x45524332303a20617070726f766520746f20746865207a65726f206164647265\n        /* \"#utility.yul\":8713:8731   */\n      0x44\n      dup3\n      add\n        /* \"#utility.yul\":8706:8768   */\n      mstore\n      shl(0xf0, 0x7373)\n        /* \"#utility.yul\":8784:8802   */\n      0x64\n      dup3\n      add\n        /* \"#utility.yul\":8777:8809   */\n      mstore\n        /* \"#utility.yul\":8826:8845   */\n      0x84\n      add\n        /* \"@openzeppelin/contracts/token/ERC20/ERC20.sol\":10311:10379   */\n      tag_143\n        /* \"#utility.yul\":8453:8851   */\n      jump\n        /* \"@openzeppelin/contracts/token/ERC20/ERC20.sol\":10311:10379   */\n    tag_236:\n      sub(shl(0xa0, 0x01), 0x01)\n        /* \"@openzeppelin/contracts/token/ERC20/ERC20.sol\":10390:10408   */\n      dup4\n      dup2\n      and\n      0x00\n      dup2\n      dup2\n      mstore\n        /* \"@openzeppelin/contracts/token/ERC20/ERC20.sol\":10390:10401   */\n      0x01\n        /* \"@openzeppelin/contracts/token/ERC20/ERC20.sol\":10390:10408   */\n      0x20\n      swap1\n      dup2\n      mstore\n      0x40\n      dup1\n      dup4\n      keccak256\n        /* \"@openzeppelin/contracts/token/ERC20/ERC20.sol\":10390:10417   */\n      swap5\n      dup8\n      and\n      dup1\n      dup5\n      mstore\n      swap5\n      dup3\n      mstore\n      swap2\n      dup3\n      swap1\n      keccak256\n        /* \"@openzeppelin/contracts/token/ERC20/ERC20.sol\":10390:10426   */\n      dup6\n      swap1\n      sstore\n        /* \"@openzeppelin/contracts/token/ERC20/ERC20.sol\":10441:10473   */\n      swap1\n      mload\n        /* \"#utility.yul\":1414:1439   */\n      dup5\n      dup2\n      mstore\n        /* \"@openzeppelin/contracts/token/ERC20/ERC20.sol\":10441:10473   */\n      0x8c5be1e5ebec7d5bd14f71427d1e84f3dd0314c0f7b2291e5b200ac8c7c3b925\n      swap2\n        /* \"#utility.yul\":1387:1405   */\n      add\n        /* \"@openzeppelin/contracts/token/ERC20/ERC20.sol\":10441:10473   */\n      mload(0x40)\n      dup1\n      swap2\n      sub\n      swap1\n      log3\n        /* \"@openzeppelin/contracts/token/ERC20/ERC20.sol\":10110:10480   */\n      pop\n      pop\n      pop\n      jump\t// out\n        /* \"@openzeppelin/contracts/token/ERC20/ERC20.sol\":10761:11202   */\n    tag_135:\n      sub(shl(0xa0, 0x01), 0x01)\n        /* \"@openzeppelin/contracts/token/ERC20/ERC20.sol\":4091:4109   */\n      dup4\n      dup2\n      and\n        /* \"@openzeppelin/contracts/token/ERC20/ERC20.sol\":10891:10915   */\n      0x00\n        /* \"@openzeppelin/contracts/token/ERC20/ERC20.sol\":4091:4109   */\n      swap1\n      dup2\n      mstore\n        /* \"@openzeppelin/contracts/token/ERC20/ERC20.sol\":4091:4102   */\n      0x01\n        /* \"@openzeppelin/contracts/token/ERC20/ERC20.sol\":4091:4109   */\n      0x20\n      swap1\n      dup2\n      mstore\n      0x40\n      dup1\n      dup4\n      keccak256\n        /* \"@openzeppelin/contracts/token/ERC20/ERC20.sol\":4091:4118   */\n      swap4\n      dup7\n      and\n      dup4\n      mstore\n      swap3\n      swap1\n      mstore\n      keccak256\n      sload\n      not(0x00)\n        /* \"@openzeppelin/contracts/token/ERC20/ERC20.sol\":10957:10994   */\n      dup2\n      eq\n        /* \"@openzeppelin/contracts/token/ERC20/ERC20.sol\":10953:11196   */\n      tag_246\n      jumpi\n        /* \"@openzeppelin/contracts/token/ERC20/ERC20.sol\":11038:11044   */\n      dup2\n        /* \"@openzeppelin/contracts/token/ERC20/ERC20.sol\":11018:11034   */\n      dup2\n        /* \"@openzeppelin/contracts/token/ERC20/ERC20.sol\":11018:11044   */\n      lt\n      iszero\n        /* \"@openzeppelin/contracts/token/ERC20/ERC20.sol\":11010:11078   */\n      tag_243\n      jumpi\n      mload(0x40)\n      shl(0xe5, 0x461bcd)\n      dup2\n      mstore\n        /* \"#utility.yul\":9058:9060   */\n      0x20\n        /* \"@openzeppelin/contracts/token/ERC20/ERC20.sol\":11010:11078   */\n      0x04\n      dup3\n      add\n        /* \"#utility.yul\":9040:9061   */\n      mstore\n        /* \"#utility.yul\":9097:9099   */\n      0x1d\n        /* \"#utility.yul\":9077:9095   */\n      0x24\n      dup3\n      add\n        /* \"#utility.yul\":9070:9100   */\n      mstore\n        /* \"#utility.yul\":9136:9167   */\n      0x45524332303a20696e73756666696369656e7420616c6c6f77616e6365000000\n        /* \"#utility.yul\":9116:9134   */\n      0x44\n      dup3\n      add\n        /* \"#utility.yul\":9109:9168   */\n      mstore\n        /* \"#utility.yul\":9185:9203   */\n      0x64\n      add\n        /* \"@openzeppelin/contracts/token/ERC20/ERC20.sol\":11010:11078   */\n      tag_143\n        /* \"#utility.yul\":8856:9209   */\n      jump\n        /* \"@openzeppelin/contracts/token/ERC20/ERC20.sol\":11010:11078   */\n    tag_243:\n        /* \"@openzeppelin/contracts/token/ERC20/ERC20.sol\":11120:11171   */\n      tag_246\n        /* \"@openzeppelin/contracts/token/ERC20/ERC20.sol\":11129:11134   */\n      dup5\n        /* \"@openzeppelin/contracts/token/ERC20/ERC20.sol\":11136:11143   */\n      dup5\n        /* \"@openzeppelin/contracts/token/ERC20/ERC20.sol\":11164:11170   */\n      dup5\n        /* \"@openzeppelin/contracts/token/ERC20/ERC20.sol\":11145:11161   */\n      dup5\n        /* \"@openzeppelin/contracts/token/ERC20/ERC20.sol\":11145:11170   */\n      sub\n        /* \"@openzeppelin/contracts/token/ERC20/ERC20.sol\":11120:11128   */\n      tag_130\n        /* \"@openzeppelin/contracts/token/ERC20/ERC20.sol\":11120:11171   */\n      jump\t// in\n    tag_246:\n        /* \"@openzeppelin/contracts/token/ERC20/ERC20.sol\":10881:11202   */\n      pop\n        /* \"@openzeppelin/contracts/token/ERC20/ERC20.sol\":10761:11202   */\n      pop\n      pop\n      pop\n      jump\t// out\n        /* \"@openzeppelin/contracts/token/ERC20/ERC20.sol\":7475:8126   */\n    tag_137:\n      sub(shl(0xa0, 0x01), 0x01)\n        /* \"@openzeppelin/contracts/token/ERC20/ERC20.sol\":7601:7619   */\n      dup4\n      and\n        /* \"@openzeppelin/contracts/token/ERC20/ERC20.sol\":7593:7661   */\n      tag_248\n      jumpi\n      mload(0x40)\n      shl(0xe5, 0x461bcd)\n      dup2\n      mstore\n        /* \"#utility.yul\":9416:9418   */\n      0x20\n        /* \"@openzeppelin/contracts/token/ERC20/ERC20.sol\":7593:7661   */\n      0x04\n      dup3\n      add\n        /* \"#utility.yul\":9398:9419   */\n      mstore\n        /* \"#utility.yul\":9455:9457   */\n      0x25\n        /* \"#utility.yul\":9435:9453   */\n      0x24\n      dup3\n      add\n        /* \"#utility.yul\":9428:9458   */\n      mstore\n        /* \"#utility.yul\":9494:9528   */\n      0x45524332303a207472616e736665722066726f6d20746865207a65726f206164\n        /* \"#utility.yul\":9474:9492   */\n      0x44\n      dup3\n      add\n        /* \"#utility.yul\":9467:9529   */\n      mstore\n        /* \"#utility.yul\":9565:9572   */\n      0x6472657373000000000000000000000000000000000000000000000000000000\n        /* \"#utility.yul\":9545:9563   */\n      0x64\n      dup3\n      add\n        /* \"#utility.yul\":9538:9573   */\n      mstore\n        /* \"#utility.yul\":9590:9609   */\n      0x84\n      add\n        /* \"@openzeppelin/contracts/token/ERC20/ERC20.sol\":7593:7661   */\n      tag_143\n        /* \"#utility.yul\":9214:9615   */\n      jump\n        /* \"@openzeppelin/contracts/token/ERC20/ERC20.sol\":7593:7661   */\n    tag_248:\n      sub(shl(0xa0, 0x01), 0x01)\n        /* \"@openzeppelin/contracts/token/ERC20/ERC20.sol\":7679:7695   */\n      dup3\n      and\n        /* \"@openzeppelin/contracts/token/ERC20/ERC20.sol\":7671:7735   */\n      tag_251\n      jumpi\n      mload(0x40)\n      shl(0xe5, 0x461bcd)\n      dup2\n      mstore\n        /* \"#utility.yul\":9822:9824   */\n      0x20\n        /* \"@openzeppelin/contracts/token/ERC20/ERC20.sol\":7671:7735   */\n      0x04\n      dup3\n      add\n        /* \"#utility.yul\":9804:9825   */\n      mstore\n        /* \"#utility.yul\":9861:9863   */\n      0x23\n        /* \"#utility.yul\":9841:9859   */\n      0x24\n      dup3\n      add\n        /* \"#utility.yul\":9834:9864   */\n      mstore\n        /* \"#utility.yul\":9900:9934   */\n      0x45524332303a207472616e7366657220746f20746865207a65726f2061646472\n        /* \"#utility.yul\":9880:9898   */\n      0x44\n      dup3\n      add\n        /* \"#utility.yul\":9873:9935   */\n      mstore\n      shl(0xe8, 0x657373)\n        /* \"#utility.yul\":9951:9969   */\n      0x64\n      dup3\n      add\n        /* \"#utility.yul\":9944:9977   */\n      mstore\n        /* \"#utility.yul\":9994:10013   */\n      0x84\n      add\n        /* \"@openzeppelin/contracts/token/ERC20/ERC20.sol\":7671:7735   */\n      tag_143\n        /* \"#utility.yul\":9620:10019   */\n      jump\n        /* \"@openzeppelin/contracts/token/ERC20/ERC20.sol\":7671:7735   */\n    tag_251:\n      sub(shl(0xa0, 0x01), 0x01)\n        /* \"@openzeppelin/contracts/token/ERC20/ERC20.sol\":7817:7832   */\n      dup4\n      and\n        /* \"@openzeppelin/contracts/token/ERC20/ERC20.sol\":7795:7814   */\n      0x00\n        /* \"@openzeppelin/contracts/token/ERC20/ERC20.sol\":7817:7832   */\n      swap1\n      dup2\n      mstore\n      0x20\n      dup2\n      swap1\n      mstore\n      0x40\n      swap1\n      keccak256\n      sload\n        /* \"@openzeppelin/contracts/token/ERC20/ERC20.sol\":7850:7871   */\n      dup2\n      dup2\n      lt\n      iszero\n        /* \"@openzeppelin/contracts/token/ERC20/ERC20.sol\":7842:7914   */\n      tag_256\n      jumpi\n      mload(0x40)\n      shl(0xe5, 0x461bcd)\n      dup2\n      mstore\n        /* \"#utility.yul\":10226:10228   */\n      0x20\n        /* \"@openzeppelin/contracts/token/ERC20/ERC20.sol\":7842:7914   */\n      0x04\n      dup3\n      add\n        /* \"#utility.yul\":10208:10229   */\n      mstore\n        /* \"#utility.yul\":10265:10267   */\n      0x26\n        /* \"#utility.yul\":10245:10263   */\n      0x24\n      dup3\n      add\n        /* \"#utility.yul\":10238:10268   */\n      mstore\n        /* \"#utility.yul\":10304:10338   */\n      0x45524332303a207472616e7366657220616d6f756e7420657863656564732062\n        /* \"#utility.yul\":10284:10302   */\n      0x44\n      dup3\n      add\n        /* \"#utility.yul\":10277:10339   */\n      mstore\n        /* \"#utility.yul\":10375:10383   */\n      0x616c616e63650000000000000000000000000000000000000000000000000000\n        /* \"#utility.yul\":10355:10373   */\n      0x64\n      dup3\n      add\n        /* \"#utility.yul\":10348:10384   */\n      mstore\n        /* \"#utility.yul\":10401:10420   */\n      0x84\n      add\n        /* \"@openzeppelin/contracts/token/ERC20/ERC20.sol\":7842:7914   */\n      tag_143\n        /* \"#utility.yul\":10024:10426   */\n      jump\n        /* \"@openzeppelin/contracts/token/ERC20/ERC20.sol\":7842:7914   */\n    tag_256:\n      sub(shl(0xa0, 0x01), 0x01)\n        /* \"@openzeppelin/contracts/token/ERC20/ERC20.sol\":7948:7963   */\n      dup1\n      dup6\n      and\n        /* \"@openzeppelin/contracts/token/ERC20/ERC20.sol\":7948:7957   */\n      0x00\n        /* \"@openzeppelin/contracts/token/ERC20/ERC20.sol\":7948:7963   */\n      swap1\n      dup2\n      mstore\n      0x20\n      dup2\n      swap1\n      mstore\n      0x40\n      dup1\n      dup3\n      keccak256\n        /* \"@openzeppelin/contracts/token/ERC20/ERC20.sol\":7966:7986   */\n      dup6\n      dup6\n      sub\n        /* \"@openzeppelin/contracts/token/ERC20/ERC20.sol\":7948:7986   */\n      swap1\n      sstore\n        /* \"@openzeppelin/contracts/token/ERC20/ERC20.sol\":8006:8019   */\n      swap2\n      dup6\n      and\n      dup2\n      mstore\n      swap1\n      dup2\n      keccak256\n        /* \"@openzeppelin/contracts/token/ERC20/ERC20.sol\":8006:8029   */\n      dup1\n      sload\n        /* \"@openzeppelin/contracts/token/ERC20/ERC20.sol\":7980:7986   */\n      dup5\n      swap3\n        /* \"@openzeppelin/contracts/token/ERC20/ERC20.sol\":7948:7957   */\n      swap1\n        /* \"@openzeppelin/contracts/token/ERC20/ERC20.sol\":8006:8029   */\n      tag_259\n      swap1\n        /* \"@openzeppelin/contracts/token/ERC20/ERC20.sol\":7980:7986   */\n      dup5\n      swap1\n        /* \"@openzeppelin/contracts/token/ERC20/ERC20.sol\":8006:8029   */\n      tag_152\n      jump\t// in\n    tag_259:\n      swap3\n      pop\n      pop\n      dup2\n      swap1\n      sstore\n      pop\n        /* \"@openzeppelin/contracts/token/ERC20/ERC20.sol\":8060:8062   */\n      dup3\n      sub(shl(0xa0, 0x01), 0x01)\n        /* \"@openzeppelin/contracts/token/ERC20/ERC20.sol\":8045:8071   */\n      and\n        /* \"@openzeppelin/contracts/token/ERC20/ERC20.sol\":8054:8058   */\n      dup5\n      sub(shl(0xa0, 0x01), 0x01)\n        /* \"@openzeppelin/contracts/token/ERC20/ERC20.sol\":8045:8071   */\n      and\n      0xddf252ad1be2c89b69c2b068fc378daa952ba7f163c4a11628f55a4df523b3ef\n        /* \"@openzeppelin/contracts/token/ERC20/ERC20.sol\":8064:8070   */\n      dup5\n        /* \"@openzeppelin/contracts/token/ERC20/ERC20.sol\":8045:8071   */\n      mload(0x40)\n      tag_260\n      swap2\n        /* \"#utility.yul\":1414:1439   */\n      dup2\n      mstore\n        /* \"#utility.yul\":1402:1404   */\n      0x20\n        /* \"#utility.yul\":1387:1405   */\n      add\n      swap1\n        /* \"#utility.yul\":1268:1445   */\n      jump\n        /* \"@openzeppelin/contracts/token/ERC20/ERC20.sol\":8045:8071   */\n    tag_260:\n      mload(0x40)\n      dup1\n      swap2\n      sub\n      swap1\n      log3\n        /* \"@openzeppelin/contracts/token/ERC20/ERC20.sol\":8082:8119   */\n      tag_246\n        /* \"@openzeppelin/contracts/token/ERC20/ERC20.sol\":11786:11907   */\n      jump\n        /* \"@openzeppelin/contracts/access/Ownable.sol\":1359:1489   */\n    tag_140:\n        /* \"@openzeppelin/contracts/access/Ownable.sol\":1273:1279   */\n      and(sub(shl(0xa0, 0x01), 0x01), sload(0x05))\n        /* \"@openzeppelin/contracts/utils/Context.sol\":719:729   */\n      caller\n        /* \"@openzeppelin/contracts/access/Ownable.sol\":1422:1445   */\n      eq\n        /* \"@openzeppelin/contracts/access/Ownable.sol\":1414:1482   */\n      tag_192\n      jumpi\n      mload(0x40)\n      shl(0xe5, 0x461bcd)\n      dup2\n      mstore\n        /* \"#utility.yul\":10633:10635   */\n      0x20\n        /* \"@openzeppelin/contracts/access/Ownable.sol\":1414:1482   */\n      0x04\n      dup3\n      add\n        /* \"#utility.yul\":10615:10636   */\n      dup2\n      swap1\n      mstore\n        /* \"#utility.yul\":10652:10670   */\n      0x24\n      dup3\n      add\n        /* \"#utility.yul\":10645:10675   */\n      mstore\n        /* \"#utility.yul\":10711:10745   */\n      0x4f776e61626c653a2063616c6c6572206973206e6f7420746865206f776e6572\n        /* \"#utility.yul\":10691:10709   */\n      0x44\n      dup3\n      add\n        /* \"#utility.yul\":10684:10746   */\n      mstore\n        /* \"#utility.yul\":10763:10781   */\n      0x64\n      add\n        /* \"@openzeppelin/contracts/access/Ownable.sol\":1414:1482   */\n      tag_143\n        /* \"#utility.yul\":10431:10787   */\n      jump\n        /* \"@openzeppelin/contracts/token/ERC20/ERC20.sol\":8402:8791   */\n    tag_161:\n      sub(shl(0xa0, 0x01), 0x01)\n        /* \"@openzeppelin/contracts/token/ERC20/ERC20.sol\":8485:8506   */\n      dup3\n      and\n        /* \"@openzeppelin/contracts/token/ERC20/ERC20.sol\":8477:8542   */\n      tag_270\n      jumpi\n      mload(0x40)\n      shl(0xe5, 0x461bcd)\n      dup2\n      mstore\n        /* \"#utility.yul\":10994:10996   */\n      0x20\n        /* \"@openzeppelin/contracts/token/ERC20/ERC20.sol\":8477:8542   */\n      0x04\n      dup3\n      add\n        /* \"#utility.yul\":10976:10997   */\n      mstore\n        /* \"#utility.yul\":11033:11035   */\n      0x1f\n        /* \"#utility.yul\":11013:11031   */\n      0x24\n      dup3\n      add\n        /* \"#utility.yul\":11006:11036   */\n      mstore\n        /* \"#utility.yul\":11072:11105   */\n      0x45524332303a206d696e7420746f20746865207a65726f206164647265737300\n        /* \"#utility.yul\":11052:11070   */\n      0x44\n      dup3\n      add\n        /* \"#utility.yul\":11045:11106   */\n      mstore\n        /* \"#utility.yul\":11123:11141   */\n      0x64\n      add\n        /* \"@openzeppelin/contracts/token/ERC20/ERC20.sol\":8477:8542   */\n      tag_143\n        /* \"#utility.yul\":10792:11147   */\n      jump\n        /* \"@openzeppelin/contracts/token/ERC20/ERC20.sol\":8477:8542   */\n    tag_270:\n        /* \"@openzeppelin/contracts/token/ERC20/ERC20.sol\":8629:8635   */\n      dup1\n        /* \"@openzeppelin/contracts/token/ERC20/ERC20.sol\":8613:8625   */\n      0x02\n      0x00\n        /* \"@openzeppelin/contracts/token/ERC20/ERC20.sol\":8613:8635   */\n      dup3\n      dup3\n      sload\n      tag_274\n      swap2\n      swap1\n      tag_152\n      jump\t// in\n    tag_274:\n      swap1\n      swap2\n      sstore\n      pop\n      pop\n      sub(shl(0xa0, 0x01), 0x01)\n        /* \"@openzeppelin/contracts/token/ERC20/ERC20.sol\":8645:8663   */\n      dup3\n      and\n        /* \"@openzeppelin/contracts/token/ERC20/ERC20.sol\":8645:8654   */\n      0x00\n        /* \"@openzeppelin/contracts/token/ERC20/ERC20.sol\":8645:8663   */\n      swap1\n      dup2\n      mstore\n      0x20\n      dup2\n      swap1\n      mstore\n      0x40\n      dup2\n      keccak256\n        /* \"@openzeppelin/contracts/token/ERC20/ERC20.sol\":8645:8673   */\n      dup1\n      sload\n        /* \"@openzeppelin/contracts/token/ERC20/ERC20.sol\":8667:8673   */\n      dup4\n      swap3\n        /* \"@openzeppelin/contracts/token/ERC20/ERC20.sol\":8645:8654   */\n      swap1\n        /* \"@openzeppelin/contracts/token/ERC20/ERC20.sol\":8645:8673   */\n      tag_275\n      swap1\n        /* \"@openzeppelin/contracts/token/ERC20/ERC20.sol\":8667:8673   */\n      dup5\n      swap1\n        /* \"@openzeppelin/contracts/token/ERC20/ERC20.sol\":8645:8673   */\n      tag_152\n      jump\t// in\n    tag_275:\n      swap1\n      swap2\n      sstore\n      pop\n      pop\n        /* \"@openzeppelin/contracts/token/ERC20/ERC20.sol\":8688:8725   */\n      mload(0x40)\n        /* \"#utility.yul\":1414:1439   */\n      dup2\n      dup2\n      mstore\n      sub(shl(0xa0, 0x01), 0x01)\n        /* \"@openzeppelin/contracts/token/ERC20/ERC20.sol\":8688:8725   */\n      dup4\n      and\n      swap1\n        /* \"@openzeppelin/contracts/token/ERC20/ERC20.sol\":8705:8706   */\n      0x00\n      swap1\n        /* \"@openzeppelin/contracts/token/ERC20/ERC20.sol\":8688:8725   */\n      0xddf252ad1be2c89b69c2b068fc378daa952ba7f163c4a11628f55a4df523b3ef\n      swap1\n        /* \"#utility.yul\":1402:1404   */\n      0x20\n        /* \"#utility.yul\":1387:1405   */\n      add\n        /* \"@openzeppelin/contracts/token/ERC20/ERC20.sol\":8688:8725   */\n      mload(0x40)\n      dup1\n      swap2\n      sub\n      swap1\n      log3\n        /* \"@openzeppelin/contracts/token/ERC20/ERC20.sol\":8402:8791   */\n      pop\n      pop\n      jump\t// out\n        /* \"@openzeppelin/contracts/access/Ownable.sol\":2433:2620   */\n    tag_193:\n        /* \"@openzeppelin/contracts/access/Ownable.sol\":2525:2531   */\n      0x05\n      dup1\n      sload\n      sub(shl(0xa0, 0x01), 0x01)\n        /* \"@openzeppelin/contracts/access/Ownable.sol\":2541:2558   */\n      dup4\n      dup2\n      and\n      not(0xffffffffffffffffffffffffffffffffffffffff)\n      dup4\n      and\n      dup2\n      or\n      swap1\n      swap4\n      sstore\n        /* \"@openzeppelin/contracts/access/Ownable.sol\":2573:2613   */\n      mload(0x40)\n        /* \"@openzeppelin/contracts/access/Ownable.sol\":2525:2531   */\n      swap2\n      and\n      swap2\n        /* \"@openzeppelin/contracts/access/Ownable.sol\":2541:2558   */\n      swap1\n        /* \"@openzeppelin/contracts/access/Ownable.sol\":2525:2531   */\n      dup3\n      swap1\n        /* \"@openzeppelin/contracts/access/Ownable.sol\":2573:2613   */\n      0x8be0079c531659141344cd1fd0a4f28419497f9722a3daafe3b4186f6b6457e0\n      swap1\n        /* \"@openzeppelin/contracts/access/Ownable.sol\":2506:2522   */\n      0x00\n      swap1\n        /* \"@openzeppelin/contracts/access/Ownable.sol\":2573:2613   */\n      log3\n        /* \"@openzeppelin/contracts/access/Ownable.sol\":2496:2620   */\n      pop\n        /* \"@openzeppelin/contracts/access/Ownable.sol\":2433:2620   */\n      pop\n      jump\t// out\n        /* \"#utility.yul\":14:611   */\n    tag_36:\n        /* \"#utility.yul\":126:130   */\n      0x00\n        /* \"#utility.yul\":155:157   */\n      0x20\n        /* \"#utility.yul\":184:186   */\n      dup1\n        /* \"#utility.yul\":173:182   */\n      dup4\n        /* \"#utility.yul\":166:187   */\n      mstore\n        /* \"#utility.yul\":216:222   */\n      dup4\n        /* \"#utility.yul\":210:223   */\n      mload\n        /* \"#utility.yul\":259:265   */\n      dup1\n        /* \"#utility.yul\":254:256   */\n      dup3\n        /* \"#utility.yul\":243:252   */\n      dup6\n        /* \"#utility.yul\":239:257   */\n      add\n        /* \"#utility.yul\":232:266   */\n      mstore\n        /* \"#utility.yul\":284:285   */\n      0x00\n        /* \"#utility.yul\":294:434   */\n    tag_286:\n        /* \"#utility.yul\":308:314   */\n      dup2\n        /* \"#utility.yul\":305:306   */\n      dup2\n        /* \"#utility.yul\":302:315   */\n      lt\n        /* \"#utility.yul\":294:434   */\n      iszero\n      tag_288\n      jumpi\n        /* \"#utility.yul\":403:417   */\n      dup6\n      dup2\n      add\n        /* \"#utility.yul\":399:422   */\n      dup4\n      add\n        /* \"#utility.yul\":393:423   */\n      mload\n        /* \"#utility.yul\":369:386   */\n      dup6\n      dup3\n      add\n        /* \"#utility.yul\":388:390   */\n      0x40\n        /* \"#utility.yul\":365:391   */\n      add\n        /* \"#utility.yul\":358:424   */\n      mstore\n        /* \"#utility.yul\":323:333   */\n      dup3\n      add\n        /* \"#utility.yul\":294:434   */\n      jump(tag_286)\n    tag_288:\n        /* \"#utility.yul\":452:458   */\n      dup2\n        /* \"#utility.yul\":449:450   */\n      dup2\n        /* \"#utility.yul\":446:459   */\n      gt\n        /* \"#utility.yul\":443:534   */\n      iszero\n      tag_289\n      jumpi\n        /* \"#utility.yul\":522:523   */\n      0x00\n        /* \"#utility.yul\":517:519   */\n      0x40\n        /* \"#utility.yul\":508:514   */\n      dup4\n        /* \"#utility.yul\":497:506   */\n      dup8\n        /* \"#utility.yul\":493:515   */\n      add\n        /* \"#utility.yul\":489:520   */\n      add\n        /* \"#utility.yul\":482:524   */\n      mstore\n        /* \"#utility.yul\":443:534   */\n    tag_289:\n      pop\n        /* \"#utility.yul\":595:597   */\n      0x1f\n        /* \"#utility.yul\":574:589   */\n      add\n      not(0x1f)\n        /* \"#utility.yul\":570:599   */\n      and\n        /* \"#utility.yul\":555:600   */\n      swap3\n      swap1\n      swap3\n      add\n        /* \"#utility.yul\":602:604   */\n      0x40\n        /* \"#utility.yul\":551:605   */\n      add\n      swap4\n        /* \"#utility.yul\":14:611   */\n      swap3\n      pop\n      pop\n      pop\n      jump\t// out\n        /* \"#utility.yul\":616:812   */\n    tag_281:\n        /* \"#utility.yul\":684:704   */\n      dup1\n      calldataload\n      sub(shl(0xa0, 0x01), 0x01)\n        /* \"#utility.yul\":733:787   */\n      dup2\n      and\n        /* \"#utility.yul\":723:788   */\n      dup2\n      eq\n        /* \"#utility.yul\":713:806   */\n      tag_291\n      jumpi\n        /* \"#utility.yul\":802:803   */\n      0x00\n        /* \"#utility.yul\":799:800   */\n      dup1\n        /* \"#utility.yul\":792:804   */\n      revert\n        /* \"#utility.yul\":713:806   */\n    tag_291:\n        /* \"#utility.yul\":616:812   */\n      swap2\n      swap1\n      pop\n      jump\t// out\n        /* \"#utility.yul\":817:1071   */\n    tag_39:\n        /* \"#utility.yul\":885:891   */\n      0x00\n        /* \"#utility.yul\":893:899   */\n      dup1\n        /* \"#utility.yul\":946:948   */\n      0x40\n        /* \"#utility.yul\":934:943   */\n      dup4\n        /* \"#utility.yul\":925:932   */\n      dup6\n        /* \"#utility.yul\":921:944   */\n      sub\n        /* \"#utility.yul\":917:949   */\n      slt\n        /* \"#utility.yul\":914:966   */\n      iszero\n      tag_293\n      jumpi\n        /* \"#utility.yul\":962:963   */\n      0x00\n        /* \"#utility.yul\":959:960   */\n      dup1\n        /* \"#utility.yul\":952:964   */\n      revert\n        /* \"#utility.yul\":914:966   */\n    tag_293:\n        /* \"#utility.yul\":985:1014   */\n      tag_294\n        /* \"#utility.yul\":1004:1013   */\n      dup4\n        /* \"#utility.yul\":985:1014   */\n      tag_281\n      jump\t// in\n    tag_294:\n        /* \"#utility.yul\":975:1014   */\n      swap5\n        /* \"#utility.yul\":1061:1063   */\n      0x20\n        /* \"#utility.yul\":1046:1064   */\n      swap4\n      swap1\n      swap4\n      add\n        /* \"#utility.yul\":1033:1065   */\n      calldataload\n      swap4\n      pop\n      pop\n      pop\n        /* \"#utility.yul\":817:1071   */\n      jump\t// out\n        /* \"#utility.yul\":1450:1778   */\n    tag_49:\n        /* \"#utility.yul\":1527:1533   */\n      0x00\n        /* \"#utility.yul\":1535:1541   */\n      dup1\n        /* \"#utility.yul\":1543:1549   */\n      0x00\n        /* \"#utility.yul\":1596:1598   */\n      0x60\n        /* \"#utility.yul\":1584:1593   */\n      dup5\n        /* \"#utility.yul\":1575:1582   */\n      dup7\n        /* \"#utility.yul\":1571:1594   */\n      sub\n        /* \"#utility.yul\":1567:1599   */\n      slt\n        /* \"#utility.yul\":1564:1616   */\n      iszero\n      tag_298\n      jumpi\n        /* \"#utility.yul\":1612:1613   */\n      0x00\n        /* \"#utility.yul\":1609:1610   */\n      dup1\n        /* \"#utility.yul\":1602:1614   */\n      revert\n        /* \"#utility.yul\":1564:1616   */\n    tag_298:\n        /* \"#utility.yul\":1635:1664   */\n      tag_299\n        /* \"#utility.yul\":1654:1663   */\n      dup5\n        /* \"#utility.yul\":1635:1664   */\n      tag_281\n      jump\t// in\n    tag_299:\n        /* \"#utility.yul\":1625:1664   */\n      swap3\n      pop\n        /* \"#utility.yul\":1683:1721   */\n      tag_300\n        /* \"#utility.yul\":1717:1719   */\n      0x20\n        /* \"#utility.yul\":1706:1715   */\n      dup6\n        /* \"#utility.yul\":1702:1720   */\n      add\n        /* \"#utility.yul\":1683:1721   */\n      tag_281\n      jump\t// in\n    tag_300:\n        /* \"#utility.yul\":1673:1721   */\n      swap2\n      pop\n        /* \"#utility.yul\":1768:1770   */\n      0x40\n        /* \"#utility.yul\":1757:1766   */\n      dup5\n        /* \"#utility.yul\":1753:1771   */\n      add\n        /* \"#utility.yul\":1740:1772   */\n      calldataload\n        /* \"#utility.yul\":1730:1772   */\n      swap1\n      pop\n        /* \"#utility.yul\":1450:1778   */\n      swap3\n      pop\n      swap3\n      pop\n      swap3\n      jump\t// out\n        /* \"#utility.yul\":1783:1969   */\n    tag_57:\n        /* \"#utility.yul\":1842:1848   */\n      0x00\n        /* \"#utility.yul\":1895:1897   */\n      0x20\n        /* \"#utility.yul\":1883:1892   */\n      dup3\n        /* \"#utility.yul\":1874:1881   */\n      dup5\n        /* \"#utility.yul\":1870:1893   */\n      sub\n        /* \"#utility.yul\":1866:1898   */\n      slt\n        /* \"#utility.yul\":1863:1915   */\n      iszero\n      tag_302\n      jumpi\n        /* \"#utility.yul\":1911:1912   */\n      0x00\n        /* \"#utility.yul\":1908:1909   */\n      dup1\n        /* \"#utility.yul\":1901:1913   */\n      revert\n        /* \"#utility.yul\":1863:1915   */\n    tag_302:\n        /* \"#utility.yul\":1934:1963   */\n      tag_303\n        /* \"#utility.yul\":1953:1962   */\n      dup3\n        /* \"#utility.yul\":1934:1963   */\n      tag_281\n      jump\t// in\n    tag_303:\n        /* \"#utility.yul\":1924:1963   */\n      swap4\n        /* \"#utility.yul\":1783:1969   */\n      swap3\n      pop\n      pop\n      pop\n      jump\t// out\n        /* \"#utility.yul\":2163:2290   */\n    tag_282:\n        /* \"#utility.yul\":2224:2234   */\n      0x4e487b71\n        /* \"#utility.yul\":2219:2222   */\n      0xe0\n        /* \"#utility.yul\":2215:2235   */\n      shl\n        /* \"#utility.yul\":2212:2213   */\n      0x00\n        /* \"#utility.yul\":2205:2236   */\n      mstore\n        /* \"#utility.yul\":2255:2259   */\n      0x41\n        /* \"#utility.yul\":2252:2253   */\n      0x04\n        /* \"#utility.yul\":2245:2260   */\n      mstore\n        /* \"#utility.yul\":2279:2283   */\n      0x24\n        /* \"#utility.yul\":2276:2277   */\n      0x00\n        /* \"#utility.yul\":2269:2284   */\n      revert\n        /* \"#utility.yul\":2295:3410   */\n    tag_76:\n        /* \"#utility.yul\":2379:2385   */\n      0x00\n        /* \"#utility.yul\":2410:2412   */\n      0x20\n        /* \"#utility.yul\":2453:2455   */\n      dup1\n        /* \"#utility.yul\":2441:2450   */\n      dup4\n        /* \"#utility.yul\":2432:2439   */\n      dup6\n        /* \"#utility.yul\":2428:2451   */\n      sub\n        /* \"#utility.yul\":2424:2456   */\n      slt\n        /* \"#utility.yul\":2421:2473   */\n      iszero\n      tag_307\n      jumpi\n        /* \"#utility.yul\":2469:2470   */\n      0x00\n        /* \"#utility.yul\":2466:2467   */\n      dup1\n        /* \"#utility.yul\":2459:2471   */\n      revert\n        /* \"#utility.yul\":2421:2473   */\n    tag_307:\n        /* \"#utility.yul\":2509:2518   */\n      dup3\n        /* \"#utility.yul\":2496:2519   */\n      calldataload\n        /* \"#utility.yul\":2538:2556   */\n      0xffffffffffffffff\n        /* \"#utility.yul\":2579:2581   */\n      dup1\n        /* \"#utility.yul\":2571:2577   */\n      dup3\n        /* \"#utility.yul\":2568:2582   */\n      gt\n        /* \"#utility.yul\":2565:2599   */\n      iszero\n      tag_308\n      jumpi\n        /* \"#utility.yul\":2595:2596   */\n      0x00\n        /* \"#utility.yul\":2592:2593   */\n      dup1\n        /* \"#utility.yul\":2585:2597   */\n      revert\n        /* \"#utility.yul\":2565:2599   */\n    tag_308:\n        /* \"#utility.yul\":2633:2639   */\n      dup2\n        /* \"#utility.yul\":2622:2631   */\n      dup6\n        /* \"#utility.yul\":2618:2640   */\n      add\n        /* \"#utility.yul\":2608:2640   */\n      swap2\n      pop\n        /* \"#utility.yul\":2678:2685   */\n      dup6\n        /* \"#utility.yul\":2671:2675   */\n      0x1f\n        /* \"#utility.yul\":2667:2669   */\n      dup4\n        /* \"#utility.yul\":2663:2676   */\n      add\n        /* \"#utility.yul\":2659:2686   */\n      slt\n        /* \"#utility.yul\":2649:2704   */\n      tag_309\n      jumpi\n        /* \"#utility.yul\":2700:2701   */\n      0x00\n        /* \"#utility.yul\":2697:2698   */\n      dup1\n        /* \"#utility.yul\":2690:2702   */\n      revert\n        /* \"#utility.yul\":2649:2704   */\n    tag_309:\n        /* \"#utility.yul\":2736:2738   */\n      dup2\n        /* \"#utility.yul\":2723:2739   */\n      calldataload\n        /* \"#utility.yul\":2758:2760   */\n      dup2\n        /* \"#utility.yul\":2754:2756   */\n      dup2\n        /* \"#utility.yul\":2751:2761   */\n      gt\n        /* \"#utility.yul\":2748:2784   */\n      iszero\n      tag_311\n      jumpi\n        /* \"#utility.yul\":2764:2782   */\n      tag_311\n      tag_282\n      jump\t// in\n    tag_311:\n        /* \"#utility.yul\":2810:2812   */\n      dup1\n        /* \"#utility.yul\":2807:2808   */\n      0x05\n        /* \"#utility.yul\":2803:2813   */\n      shl\n        /* \"#utility.yul\":2842:2844   */\n      0x40\n        /* \"#utility.yul\":2836:2845   */\n      mload\n        /* \"#utility.yul\":2905:2907   */\n      0x1f\n        /* \"#utility.yul\":2901:2908   */\n      not\n        /* \"#utility.yul\":2896:2898   */\n      0x3f\n        /* \"#utility.yul\":2892:2894   */\n      dup4\n        /* \"#utility.yul\":2888:2899   */\n      add\n        /* \"#utility.yul\":2884:2909   */\n      and\n        /* \"#utility.yul\":2876:2882   */\n      dup2\n        /* \"#utility.yul\":2872:2910   */\n      add\n        /* \"#utility.yul\":2960:2966   */\n      dup2\n        /* \"#utility.yul\":2948:2958   */\n      dup2\n        /* \"#utility.yul\":2945:2967   */\n      lt\n        /* \"#utility.yul\":2940:2942   */\n      dup6\n        /* \"#utility.yul\":2928:2938   */\n      dup3\n        /* \"#utility.yul\":2925:2943   */\n      gt\n        /* \"#utility.yul\":2922:2968   */\n      or\n        /* \"#utility.yul\":2919:2991   */\n      iszero\n      tag_313\n      jumpi\n        /* \"#utility.yul\":2971:2989   */\n      tag_313\n      tag_282\n      jump\t// in\n    tag_313:\n        /* \"#utility.yul\":3007:3009   */\n      0x40\n        /* \"#utility.yul\":3000:3022   */\n      mstore\n        /* \"#utility.yul\":3057:3075   */\n      swap2\n      dup3\n      mstore\n        /* \"#utility.yul\":3091:3106   */\n      dup5\n      dup3\n      add\n      swap3\n      pop\n        /* \"#utility.yul\":3133:3144   */\n      dup4\n      dup2\n      add\n        /* \"#utility.yul\":3129:3149   */\n      dup6\n      add\n      swap2\n        /* \"#utility.yul\":3161:3180   */\n      dup9\n      dup4\n      gt\n        /* \"#utility.yul\":3158:3197   */\n      iszero\n      tag_314\n      jumpi\n        /* \"#utility.yul\":3193:3194   */\n      0x00\n        /* \"#utility.yul\":3190:3191   */\n      dup1\n        /* \"#utility.yul\":3183:3195   */\n      revert\n        /* \"#utility.yul\":3158:3197   */\n    tag_314:\n        /* \"#utility.yul\":3217:3228   */\n      swap4\n      dup6\n      add\n      swap4\n        /* \"#utility.yul\":3237:3379   */\n    tag_315:\n        /* \"#utility.yul\":3253:3259   */\n      dup3\n        /* \"#utility.yul\":3248:3251   */\n      dup6\n        /* \"#utility.yul\":3245:3260   */\n      lt\n        /* \"#utility.yul\":3237:3379   */\n      iszero\n      tag_317\n      jumpi\n        /* \"#utility.yul\":3319:3336   */\n      dup5\n      calldataload\n        /* \"#utility.yul\":3307:3337   */\n      dup5\n      mstore\n        /* \"#utility.yul\":3270:3282   */\n      swap4\n      dup6\n      add\n      swap4\n        /* \"#utility.yul\":3357:3369   */\n      swap3\n      dup6\n      add\n      swap3\n        /* \"#utility.yul\":3237:3379   */\n      jump(tag_315)\n    tag_317:\n        /* \"#utility.yul\":3398:3404   */\n      swap9\n        /* \"#utility.yul\":2295:3410   */\n      swap8\n      pop\n      pop\n      pop\n      pop\n      pop\n      pop\n      pop\n      pop\n      jump\t// out\n        /* \"#utility.yul\":3646:3906   */\n    tag_110:\n        /* \"#utility.yul\":3714:3720   */\n      0x00\n        /* \"#utility.yul\":3722:3728   */\n      dup1\n        /* \"#utility.yul\":3775:3777   */\n      0x40\n        /* \"#utility.yul\":3763:3772   */\n      dup4\n        /* \"#utility.yul\":3754:3761   */\n      dup6\n        /* \"#utility.yul\":3750:3773   */\n      sub\n        /* \"#utility.yul\":3746:3778   */\n      slt\n        /* \"#utility.yul\":3743:3795   */\n      iszero\n      tag_320\n      jumpi\n        /* \"#utility.yul\":3791:3792   */\n      0x00\n        /* \"#utility.yul\":3788:3789   */\n      dup1\n        /* \"#utility.yul\":3781:3793   */\n      revert\n        /* \"#utility.yul\":3743:3795   */\n    tag_320:\n        /* \"#utility.yul\":3814:3843   */\n      tag_321\n        /* \"#utility.yul\":3833:3842   */\n      dup4\n        /* \"#utility.yul\":3814:3843   */\n      tag_281\n      jump\t// in\n    tag_321:\n        /* \"#utility.yul\":3804:3843   */\n      swap2\n      pop\n        /* \"#utility.yul\":3862:3900   */\n      tag_322\n        /* \"#utility.yul\":3896:3898   */\n      0x20\n        /* \"#utility.yul\":3885:3894   */\n      dup5\n        /* \"#utility.yul\":3881:3899   */\n      add\n        /* \"#utility.yul\":3862:3900   */\n      tag_281\n      jump\t// in\n    tag_322:\n        /* \"#utility.yul\":3852:3900   */\n      swap1\n      pop\n        /* \"#utility.yul\":3646:3906   */\n      swap3\n      pop\n      swap3\n      swap1\n      pop\n      jump\t// out\n        /* \"#utility.yul\":3911:4291   */\n    tag_121:\n        /* \"#utility.yul\":3990:3991   */\n      0x01\n        /* \"#utility.yul\":3986:3998   */\n      dup2\n      dup2\n      shr\n      swap1\n        /* \"#utility.yul\":4033:4045   */\n      dup3\n      and\n      dup1\n        /* \"#utility.yul\":4054:4115   */\n      tag_324\n      jumpi\n        /* \"#utility.yul\":4108:4112   */\n      0x7f\n        /* \"#utility.yul\":4100:4106   */\n      dup3\n        /* \"#utility.yul\":4096:4113   */\n      and\n        /* \"#utility.yul\":4086:4113   */\n      swap2\n      pop\n        /* \"#utility.yul\":4054:4115   */\n    tag_324:\n        /* \"#utility.yul\":4161:4163   */\n      0x20\n        /* \"#utility.yul\":4153:4159   */\n      dup3\n        /* \"#utility.yul\":4150:4164   */\n      lt\n        /* \"#utility.yul\":4130:4148   */\n      dup2\n        /* \"#utility.yul\":4127:4165   */\n      sub\n        /* \"#utility.yul\":4124:4285   */\n      tag_325\n      jumpi\n        /* \"#utility.yul\":4207:4217   */\n      0x4e487b71\n        /* \"#utility.yul\":4202:4205   */\n      0xe0\n        /* \"#utility.yul\":4198:4218   */\n      shl\n        /* \"#utility.yul\":4195:4196   */\n      0x00\n        /* \"#utility.yul\":4188:4219   */\n      mstore\n        /* \"#utility.yul\":4242:4246   */\n      0x22\n        /* \"#utility.yul\":4239:4240   */\n      0x04\n        /* \"#utility.yul\":4232:4247   */\n      mstore\n        /* \"#utility.yul\":4270:4274   */\n      0x24\n        /* \"#utility.yul\":4267:4268   */\n      0x00\n        /* \"#utility.yul\":4260:4275   */\n      revert\n        /* \"#utility.yul\":4124:4285   */\n    tag_325:\n      pop\n        /* \"#utility.yul\":3911:4291   */\n      swap2\n      swap1\n      pop\n      jump\t// out\n        /* \"#utility.yul\":4656:4783   */\n    tag_283:\n        /* \"#utility.yul\":4717:4727   */\n      0x4e487b71\n        /* \"#utility.yul\":4712:4715   */\n      0xe0\n        /* \"#utility.yul\":4708:4728   */\n      shl\n        /* \"#utility.yul\":4705:4706   */\n      0x00\n        /* \"#utility.yul\":4698:4729   */\n      mstore\n        /* \"#utility.yul\":4748:4752   */\n      0x11\n        /* \"#utility.yul\":4745:4746   */\n      0x04\n        /* \"#utility.yul\":4738:4753   */\n      mstore\n        /* \"#utility.yul\":4772:4776   */\n      0x24\n        /* \"#utility.yul\":4769:4770   */\n      0x00\n        /* \"#utility.yul\":4762:4777   */\n      revert\n        /* \"#utility.yul\":4788:4916   */\n    tag_152:\n        /* \"#utility.yul\":4828:4831   */\n      0x00\n        /* \"#utility.yul\":4859:4860   */\n      dup3\n        /* \"#utility.yul\":4855:4861   */\n      not\n        /* \"#utility.yul\":4852:4853   */\n      dup3\n        /* \"#utility.yul\":4849:4862   */\n      gt\n        /* \"#utility.yul\":4846:4885   */\n      iszero\n      tag_330\n      jumpi\n        /* \"#utility.yul\":4865:4883   */\n      tag_330\n      tag_283\n      jump\t// in\n    tag_330:\n      pop\n        /* \"#utility.yul\":4901:4910   */\n      add\n      swap1\n        /* \"#utility.yul\":4788:4916   */\n      jump\t// out\n        /* \"#utility.yul\":5679:5806   */\n    tag_174:\n        /* \"#utility.yul\":5740:5750   */\n      0x4e487b71\n        /* \"#utility.yul\":5735:5738   */\n      0xe0\n        /* \"#utility.yul\":5731:5751   */\n      shl\n        /* \"#utility.yul\":5728:5729   */\n      0x00\n        /* \"#utility.yul\":5721:5752   */\n      mstore\n        /* \"#utility.yul\":5771:5775   */\n      0x32\n        /* \"#utility.yul\":5768:5769   */\n      0x04\n        /* \"#utility.yul\":5761:5776   */\n      mstore\n        /* \"#utility.yul\":5795:5799   */\n      0x24\n        /* \"#utility.yul\":5792:5793   */\n      0x00\n        /* \"#utility.yul\":5785:5800   */\n      revert\n        /* \"#utility.yul\":6214:6349   */\n    tag_181:\n        /* \"#utility.yul\":6253:6256   */\n      0x00\n        /* \"#utility.yul\":6274:6291   */\n      0x01\n      dup3\n      add\n        /* \"#utility.yul\":6271:6314   */\n      tag_337\n      jumpi\n        /* \"#utility.yul\":6294:6312   */\n      tag_337\n      tag_283\n      jump\t// in\n    tag_337:\n      pop\n        /* \"#utility.yul\":6341:6342   */\n      0x01\n        /* \"#utility.yul\":6330:6343   */\n      add\n      swap1\n        /* \"#utility.yul\":6214:6349   */\n      jump\t// out\n        /* \"#utility.yul\":6354:6522   */\n    tag_184:\n        /* \"#utility.yul\":6394:6401   */\n      0x00\n        /* \"#utility.yul\":6460:6461   */\n      dup2\n        /* \"#utility.yul\":6456:6457   */\n      0x00\n        /* \"#utility.yul\":6452:6458   */\n      not\n        /* \"#utility.yul\":6448:6462   */\n      div\n        /* \"#utility.yul\":6445:6446   */\n      dup4\n        /* \"#utility.yul\":6442:6463   */\n      gt\n        /* \"#utility.yul\":6437:6438   */\n      dup3\n        /* \"#utility.yul\":6430:6439   */\n      iszero\n        /* \"#utility.yul\":6423:6440   */\n      iszero\n        /* \"#utility.yul\":6419:6464   */\n      and\n        /* \"#utility.yul\":6416:6487   */\n      iszero\n      tag_340\n      jumpi\n        /* \"#utility.yul\":6467:6485   */\n      tag_340\n      tag_283\n      jump\t// in\n    tag_340:\n      pop\n        /* \"#utility.yul\":6507:6516   */\n      mul\n      swap1\n        /* \"#utility.yul\":6354:6522   */\n      jump\t// out\n        /* \"#utility.yul\":6527:7230   */\n    tag_187:\n        /* \"#utility.yul\":6697:6701   */\n      0x00\n        /* \"#utility.yul\":6745:6747   */\n      0x40\n        /* \"#utility.yul\":6734:6743   */\n      dup3\n        /* \"#utility.yul\":6730:6748   */\n      add\n        /* \"#utility.yul\":6775:6781   */\n      dup5\n        /* \"#utility.yul\":6764:6773   */\n      dup4\n        /* \"#utility.yul\":6757:6782   */\n      mstore\n        /* \"#utility.yul\":6801:6803   */\n      0x20\n        /* \"#utility.yul\":6839:6841   */\n      0x40\n        /* \"#utility.yul\":6834:6836   */\n      dup2\n        /* \"#utility.yul\":6823:6832   */\n      dup6\n        /* \"#utility.yul\":6819:6837   */\n      add\n        /* \"#utility.yul\":6812:6842   */\n      mstore\n        /* \"#utility.yul\":6862:6868   */\n      dup2\n        /* \"#utility.yul\":6897:6903   */\n      dup6\n        /* \"#utility.yul\":6891:6904   */\n      mload\n        /* \"#utility.yul\":6928:6934   */\n      dup1\n        /* \"#utility.yul\":6920:6926   */\n      dup5\n        /* \"#utility.yul\":6913:6935   */\n      mstore\n        /* \"#utility.yul\":6966:6968   */\n      0x60\n        /* \"#utility.yul\":6955:6964   */\n      dup7\n        /* \"#utility.yul\":6951:6969   */\n      add\n        /* \"#utility.yul\":6944:6969   */\n      swap2\n      pop\n        /* \"#utility.yul\":7004:7006   */\n      dup3\n        /* \"#utility.yul\":6996:7002   */\n      dup8\n        /* \"#utility.yul\":6992:7007   */\n      add\n        /* \"#utility.yul\":6978:7007   */\n      swap4\n      pop\n        /* \"#utility.yul\":7025:7026   */\n      0x00\n        /* \"#utility.yul\":7035:7204   */\n    tag_342:\n        /* \"#utility.yul\":7049:7055   */\n      dup2\n        /* \"#utility.yul\":7046:7047   */\n      dup2\n        /* \"#utility.yul\":7043:7056   */\n      lt\n        /* \"#utility.yul\":7035:7204   */\n      iszero\n      tag_344\n      jumpi\n        /* \"#utility.yul\":7110:7123   */\n      dup5\n      mload\n        /* \"#utility.yul\":7098:7124   */\n      dup4\n      mstore\n        /* \"#utility.yul\":7179:7194   */\n      swap4\n      dup4\n      add\n      swap4\n        /* \"#utility.yul\":7144:7156   */\n      swap2\n      dup4\n      add\n      swap2\n        /* \"#utility.yul\":7071:7072   */\n      0x01\n        /* \"#utility.yul\":7064:7073   */\n      add\n        /* \"#utility.yul\":7035:7204   */\n      jump(tag_342)\n    tag_344:\n      pop\n        /* \"#utility.yul\":7221:7224   */\n      swap1\n      swap8\n        /* \"#utility.yul\":6527:7230   */\n      swap7\n      pop\n      pop\n      pop\n      pop\n      pop\n      pop\n      pop\n      jump\t// out\n\n    auxdata: 0xa2646970667358221220c065b19666815d66263b2cfa2c2097bb471f71ba3a50d3b1b35f4c1a3370e0f064736f6c634300080d0033\n}\n",
    "bytecode": {
      "linkReferences": {},
      "object": "60806040523480156200001157600080fd5b506040518060400160405280600b81526020016a27b0b9b4b9902a37b5b2b760a91b8152506040518060400160405280600381526020016213d4d560ea1b81525081600390805190602001906200006a929190620000fe565b50805162000080906004906020840190620000fe565b5050506200009d62000097620000a860201b60201c565b620000ac565b6001600655620001e0565b3390565b600580546001600160a01b038381166001600160a01b0319831681179093556040519116919082907f8be0079c531659141344cd1fd0a4f28419497f9722a3daafe3b4186f6b6457e090600090a35050565b8280546200010c90620001a4565b90600052602060002090601f0160209004810192826200013057600085556200017b565b82601f106200014b57805160ff19168380011785556200017b565b828001600101855582156200017b579182015b828111156200017b5782518255916020019190600101906200015e565b50620001899291506200018d565b5090565b5b808211156200018957600081556001016200018e565b600181811c90821680620001b957607f821691505b602082108103620001da57634e487b7160e01b600052602260045260246000fd5b50919050565b61131980620001f06000396000f3fe608060405234801561001057600080fd5b506004361061018d5760003560e01c806370a08231116100e3578063a457c2d71161008c578063dd62ed3e11610066578063dd62ed3e1461033e578063e996487114610377578063f2fde38b1461038a57600080fd5b8063a457c2d714610305578063a9059cbb14610318578063c79476b51461032b57600080fd5b806395d89b41116100bd57806395d89b41146102d7578063983b2d56146102df5780639ff51675146102f257600080fd5b806370a0823114610281578063715018a6146102aa5780638da5cb5b146102b257600080fd5b80633092afd5116101455780633dd08c381161011f5780633dd08c381461023857806340c10f191461025b5780636ba4c1381461026e57600080fd5b80633092afd514610201578063313ce56714610216578063395093511461022557600080fd5b806318160ddd1161017657806318160ddd146101d357806323b872dd146101e55780632647cfac146101f857600080fd5b806306fdde0314610192578063095ea7b3146101b0575b600080fd5b61019a61039d565b6040516101a79190610fdf565b60405180910390f35b6101c36101be366004611050565b61042f565b60405190151581526020016101a7565b6002545b6040519081526020016101a7565b6101c36101f336600461107a565b610447565b6101d760095481565b61021461020f3660046110b6565b61046b565b005b604051601281526020016101a7565b6101c3610233366004611050565b6104f8565b6101c36102463660046110b6565b600a6020526000908152604090205460ff1681565b610214610269366004611050565b610537565b61021461027c3660046110ee565b610600565b6101d761028f3660046110b6565b6001600160a01b031660009081526020819052604090205490565b6102146107fc565b6005546001600160a01b03165b6040516001600160a01b0390911681526020016101a7565b61019a610810565b6102146102ed3660046110b6565b61081f565b6008546102bf906001600160a01b031681565b6101c3610313366004611050565b6108ab565b6101c3610326366004611050565b610955565b6007546102bf906001600160a01b031681565b6101d761034c3660046111ac565b6001600160a01b03918216600090815260016020908152604080832093909416825291909152205490565b61021461038536600461107a565b610963565b6102146103983660046110b6565b610a04565b6060600380546103ac906111df565b80601f01602080910402602001604051908101604052809291908181526020018280546103d8906111df565b80156104255780601f106103fa57610100808354040283529160200191610425565b820191906000526020600020905b81548152906001019060200180831161040857829003601f168201915b5050505050905090565b60003361043d818585610a94565b5060019392505050565b600033610455858285610bb8565b610460858585610c4a565b506001949350505050565b610473610e47565b6002600654036104ca5760405162461bcd60e51b815260206004820152601f60248201527f5265656e7472616e637947756172643a207265656e7472616e742063616c6c0060448201526064015b60405180910390fd5b600260069081556001600160a01b039091166000908152600a60205260409020805460ff1916905560019055565b3360008181526001602090815260408083206001600160a01b038716845290915281205490919061043d908290869061053290879061122f565b610a94565b6002600654036105895760405162461bcd60e51b815260206004820152601f60248201527f5265656e7472616e637947756172643a207265656e7472616e742063616c6c0060448201526064016104c1565b6002600655336000908152600a602052604090205460ff166105ed5760405162461bcd60e51b815260206004820152601a60248201527f4d75737420626520616e2061737369676e6564204d696e74657200000000000060448201526064016104c1565b6105f78282610ea1565b50506001600655565b6002600654036106525760405162461bcd60e51b815260206004820152601f60248201527f5265656e7472616e637947756172643a207265656e7472616e742063616c6c0060448201526064016104c1565b600260065580516106b05760405162461bcd60e51b815260206004820152602260248201527f4d757374206275726e206174206c65617374206f6e65204372617a792043616d604482015261195b60f21b60648201526084016104c1565b60005b815181101561078a5760075460085483516001600160a01b03928316926323b872dd9233929116908690869081106106ed576106ed611247565b60209081029190910101516040517fffffffff0000000000000000000000000000000000000000000000000000000060e086901b1681526001600160a01b0393841660048201529290911660248301526044820152606401600060405180830381600087803b15801561075f57600080fd5b505af1158015610773573d6000803e3d6000fd5b5050505080806107829061125d565b9150506106b3565b506107a333600954835161079e9190611276565b610ea1565b336001600160a01b03167fe95b1afb8a6019e43b6906420999d1c23995e338d5e7016e96f61b605fa96e2660095483516107dd9190611276565b836040516107ec929190611295565b60405180910390a2506001600655565b610804610e47565b61080e6000610f80565b565b6060600480546103ac906111df565b610827610e47565b6002600654036108795760405162461bcd60e51b815260206004820152601f60248201527f5265656e7472616e637947756172643a207265656e7472616e742063616c6c0060448201526064016104c1565b600260069081556001600160a01b039091166000908152600a60205260409020805460ff191660019081179091559055565b3360008181526001602090815260408083206001600160a01b0387168452909152812054909190838110156109485760405162461bcd60e51b815260206004820152602560248201527f45524332303a2064656372656173656420616c6c6f77616e63652062656c6f7760448201527f207a65726f00000000000000000000000000000000000000000000000000000060648201526084016104c1565b6104608286868403610a94565b60003361043d818585610c4a565b61096b610e47565b6002600654036109bd5760405162461bcd60e51b815260206004820152601f60248201527f5265656e7472616e637947756172643a207265656e7472616e742063616c6c0060448201526064016104c1565b600780546001600160a01b0394851673ffffffffffffffffffffffffffffffffffffffff199182161790915560088054939094169216919091179091556009556001600655565b610a0c610e47565b6001600160a01b038116610a885760405162461bcd60e51b815260206004820152602660248201527f4f776e61626c653a206e6577206f776e657220697320746865207a65726f206160448201527f646472657373000000000000000000000000000000000000000000000000000060648201526084016104c1565b610a9181610f80565b50565b6001600160a01b038316610af65760405162461bcd60e51b8152602060048201526024808201527f45524332303a20617070726f76652066726f6d20746865207a65726f206164646044820152637265737360e01b60648201526084016104c1565b6001600160a01b038216610b575760405162461bcd60e51b815260206004820152602260248201527f45524332303a20617070726f766520746f20746865207a65726f206164647265604482015261737360f01b60648201526084016104c1565b6001600160a01b0383811660008181526001602090815260408083209487168084529482529182902085905590518481527f8c5be1e5ebec7d5bd14f71427d1e84f3dd0314c0f7b2291e5b200ac8c7c3b925910160405180910390a3505050565b6001600160a01b038381166000908152600160209081526040808320938616835292905220546000198114610c445781811015610c375760405162461bcd60e51b815260206004820152601d60248201527f45524332303a20696e73756666696369656e7420616c6c6f77616e636500000060448201526064016104c1565b610c448484848403610a94565b50505050565b6001600160a01b038316610cc65760405162461bcd60e51b815260206004820152602560248201527f45524332303a207472616e736665722066726f6d20746865207a65726f20616460448201527f647265737300000000000000000000000000000000000000000000000000000060648201526084016104c1565b6001600160a01b038216610d285760405162461bcd60e51b815260206004820152602360248201527f45524332303a207472616e7366657220746f20746865207a65726f206164647260448201526265737360e81b60648201526084016104c1565b6001600160a01b03831660009081526020819052604090205481811015610db75760405162461bcd60e51b815260206004820152602660248201527f45524332303a207472616e7366657220616d6f756e742065786365656473206260448201527f616c616e6365000000000000000000000000000000000000000000000000000060648201526084016104c1565b6001600160a01b03808516600090815260208190526040808220858503905591851681529081208054849290610dee90849061122f565b92505081905550826001600160a01b0316846001600160a01b03167fddf252ad1be2c89b69c2b068fc378daa952ba7f163c4a11628f55a4df523b3ef84604051610e3a91815260200190565b60405180910390a3610c44565b6005546001600160a01b0316331461080e5760405162461bcd60e51b815260206004820181905260248201527f4f776e61626c653a2063616c6c6572206973206e6f7420746865206f776e657260448201526064016104c1565b6001600160a01b038216610ef75760405162461bcd60e51b815260206004820152601f60248201527f45524332303a206d696e7420746f20746865207a65726f20616464726573730060448201526064016104c1565b8060026000828254610f09919061122f565b90915550506001600160a01b03821660009081526020819052604081208054839290610f3690849061122f565b90915550506040518181526001600160a01b038316906000907fddf252ad1be2c89b69c2b068fc378daa952ba7f163c4a11628f55a4df523b3ef9060200160405180910390a35050565b600580546001600160a01b0383811673ffffffffffffffffffffffffffffffffffffffff19831681179093556040519116919082907f8be0079c531659141344cd1fd0a4f28419497f9722a3daafe3b4186f6b6457e090600090a35050565b600060208083528351808285015260005b8181101561100c57858101830151858201604001528201610ff0565b8181111561101e576000604083870101525b50601f01601f1916929092016040019392505050565b80356001600160a01b038116811461104b57600080fd5b919050565b6000806040838503121561106357600080fd5b61106c83611034565b946020939093013593505050565b60008060006060848603121561108f57600080fd5b61109884611034565b92506110a660208501611034565b9150604084013590509250925092565b6000602082840312156110c857600080fd5b6110d182611034565b9392505050565b634e487b7160e01b600052604160045260246000fd5b6000602080838503121561110157600080fd5b823567ffffffffffffffff8082111561111957600080fd5b818501915085601f83011261112d57600080fd5b81358181111561113f5761113f6110d8565b8060051b604051601f19603f83011681018181108582111715611164576111646110d8565b60405291825284820192508381018501918883111561118257600080fd5b938501935b828510156111a057843584529385019392850192611187565b98975050505050505050565b600080604083850312156111bf57600080fd5b6111c883611034565b91506111d660208401611034565b90509250929050565b600181811c908216806111f357607f821691505b60208210810361121357634e487b7160e01b600052602260045260246000fd5b50919050565b634e487b7160e01b600052601160045260246000fd5b6000821982111561124257611242611219565b500190565b634e487b7160e01b600052603260045260246000fd5b60006001820161126f5761126f611219565b5060010190565b600081600019048311821515161561129057611290611219565b500290565b6000604082018483526020604081850152818551808452606086019150828701935060005b818110156112d6578451835293830193918301916001016112ba565b509097965050505050505056fea2646970667358221220c065b19666815d66263b2cfa2c2097bb471f71ba3a50d3b1b35f4c1a3370e0f064736f6c634300080d0033",
      "opcodes": "PUSH1 0x80 PUSH1 0x40 MSTORE CALLVALUE DUP1 ISZERO PUSH3 0x11 JUMPI PUSH1 0x0 DUP1 REVERT JUMPDEST POP PUSH1 0x40 MLOAD DUP1 PUSH1 0x40 ADD PUSH1 0x40 MSTORE DUP1 PUSH1 0xB DUP2 MSTORE PUSH1 0x20 ADD PUSH11 0x27B0B9B4B9902A37B5B2B7 PUSH1 0xA9 SHL DUP2 MSTORE POP PUSH1 0x40 MLOAD DUP1 PUSH1 0x40 ADD PUSH1 0x40 MSTORE DUP1 PUSH1 0x3 DUP2 MSTORE PUSH1 0x20 ADD PUSH3 0x13D4D5 PUSH1 0xEA SHL DUP2 MSTORE POP DUP2 PUSH1 0x3 SWAP1 DUP1 MLOAD SWAP1 PUSH1 0x20 ADD SWAP1 PUSH3 0x6A SWAP3 SWAP2 SWAP1 PUSH3 0xFE JUMP JUMPDEST POP DUP1 MLOAD PUSH3 0x80 SWAP1 PUSH1 0x4 SWAP1 PUSH1 0x20 DUP5 ADD SWAP1 PUSH3 0xFE JUMP JUMPDEST POP POP POP PUSH3 0x9D PUSH3 0x97 PUSH3 0xA8 PUSH1 0x20 SHL PUSH1 0x20 SHR JUMP JUMPDEST PUSH3 0xAC JUMP JUMPDEST PUSH1 0x1 PUSH1 0x6 SSTORE PUSH3 0x1E0 JUMP JUMPDEST CALLER SWAP1 JUMP JUMPDEST PUSH1 0x5 DUP1 SLOAD PUSH1 0x1 PUSH1 0x1 PUSH1 0xA0 SHL SUB DUP4 DUP2 AND PUSH1 0x1 PUSH1 0x1 PUSH1 0xA0 SHL SUB NOT DUP4 AND DUP2 OR SWAP1 SWAP4 SSTORE PUSH1 0x40 MLOAD SWAP2 AND SWAP2 SWAP1 DUP3 SWAP1 PUSH32 0x8BE0079C531659141344CD1FD0A4F28419497F9722A3DAAFE3B4186F6B6457E0 SWAP1 PUSH1 0x0 SWAP1 LOG3 POP POP JUMP JUMPDEST DUP3 DUP1 SLOAD PUSH3 0x10C SWAP1 PUSH3 0x1A4 JUMP JUMPDEST SWAP1 PUSH1 0x0 MSTORE PUSH1 0x20 PUSH1 0x0 KECCAK256 SWAP1 PUSH1 0x1F ADD PUSH1 0x20 SWAP1 DIV DUP2 ADD SWAP3 DUP3 PUSH3 0x130 JUMPI PUSH1 0x0 DUP6 SSTORE PUSH3 0x17B JUMP JUMPDEST DUP3 PUSH1 0x1F LT PUSH3 0x14B JUMPI DUP1 MLOAD PUSH1 0xFF NOT AND DUP4 DUP1 ADD OR DUP6 SSTORE PUSH3 0x17B JUMP JUMPDEST DUP3 DUP1 ADD PUSH1 0x1 ADD DUP6 SSTORE DUP3 ISZERO PUSH3 0x17B JUMPI SWAP2 DUP3 ADD JUMPDEST DUP3 DUP2 GT ISZERO PUSH3 0x17B JUMPI DUP3 MLOAD DUP3 SSTORE SWAP2 PUSH1 0x20 ADD SWAP2 SWAP1 PUSH1 0x1 ADD SWAP1 PUSH3 0x15E JUMP JUMPDEST POP PUSH3 0x189 SWAP3 SWAP2 POP PUSH3 0x18D JUMP JUMPDEST POP SWAP1 JUMP JUMPDEST JUMPDEST DUP1 DUP3 GT ISZERO PUSH3 0x189 JUMPI PUSH1 0x0 DUP2 SSTORE PUSH1 0x1 ADD PUSH3 0x18E JUMP JUMPDEST PUSH1 0x1 DUP2 DUP2 SHR SWAP1 DUP3 AND DUP1 PUSH3 0x1B9 JUMPI PUSH1 0x7F DUP3 AND SWAP2 POP JUMPDEST PUSH1 0x20 DUP3 LT DUP2 SUB PUSH3 0x1DA JUMPI PUSH4 0x4E487B71 PUSH1 0xE0 SHL PUSH1 0x0 MSTORE PUSH1 0x22 PUSH1 0x4 MSTORE PUSH1 0x24 PUSH1 0x0 REVERT JUMPDEST POP SWAP2 SWAP1 POP JUMP JUMPDEST PUSH2 0x1319 DUP1 PUSH3 0x1F0 PUSH1 0x0 CODECOPY PUSH1 0x0 RETURN INVALID PUSH1 0x80 PUSH1 0x40 MSTORE CALLVALUE DUP1 ISZERO PUSH2 0x10 JUMPI PUSH1 0x0 DUP1 REVERT JUMPDEST POP PUSH1 0x4 CALLDATASIZE LT PUSH2 0x18D JUMPI PUSH1 0x0 CALLDATALOAD PUSH1 0xE0 SHR DUP1 PUSH4 0x70A08231 GT PUSH2 0xE3 JUMPI DUP1 PUSH4 0xA457C2D7 GT PUSH2 0x8C JUMPI DUP1 PUSH4 0xDD62ED3E GT PUSH2 0x66 JUMPI DUP1 PUSH4 0xDD62ED3E EQ PUSH2 0x33E JUMPI DUP1 PUSH4 0xE9964871 EQ PUSH2 0x377 JUMPI DUP1 PUSH4 0xF2FDE38B EQ PUSH2 0x38A JUMPI PUSH1 0x0 DUP1 REVERT JUMPDEST DUP1 PUSH4 0xA457C2D7 EQ PUSH2 0x305 JUMPI DUP1 PUSH4 0xA9059CBB EQ PUSH2 0x318 JUMPI DUP1 PUSH4 0xC79476B5 EQ PUSH2 0x32B JUMPI PUSH1 0x0 DUP1 REVERT JUMPDEST DUP1 PUSH4 0x95D89B41 GT PUSH2 0xBD JUMPI DUP1 PUSH4 0x95D89B41 EQ PUSH2 0x2D7 JUMPI DUP1 PUSH4 0x983B2D56 EQ PUSH2 0x2DF JUMPI DUP1 PUSH4 0x9FF51675 EQ PUSH2 0x2F2 JUMPI PUSH1 0x0 DUP1 REVERT JUMPDEST DUP1 PUSH4 0x70A08231 EQ PUSH2 0x281 JUMPI DUP1 PUSH4 0x715018A6 EQ PUSH2 0x2AA JUMPI DUP1 PUSH4 0x8DA5CB5B EQ PUSH2 0x2B2 JUMPI PUSH1 0x0 DUP1 REVERT JUMPDEST DUP1 PUSH4 0x3092AFD5 GT PUSH2 0x145 JUMPI DUP1 PUSH4 0x3DD08C38 GT PUSH2 0x11F JUMPI DUP1 PUSH4 0x3DD08C38 EQ PUSH2 0x238 JUMPI DUP1 PUSH4 0x40C10F19 EQ PUSH2 0x25B JUMPI DUP1 PUSH4 0x6BA4C138 EQ PUSH2 0x26E JUMPI PUSH1 0x0 DUP1 REVERT JUMPDEST DUP1 PUSH4 0x3092AFD5 EQ PUSH2 0x201 JUMPI DUP1 PUSH4 0x313CE567 EQ PUSH2 0x216 JUMPI DUP1 PUSH4 0x39509351 EQ PUSH2 0x225 JUMPI PUSH1 0x0 DUP1 REVERT JUMPDEST DUP1 PUSH4 0x18160DDD GT PUSH2 0x176 JUMPI DUP1 PUSH4 0x18160DDD EQ PUSH2 0x1D3 JUMPI DUP1 PUSH4 0x23B872DD EQ PUSH2 0x1E5 JUMPI DUP1 PUSH4 0x2647CFAC EQ PUSH2 0x1F8 JUMPI PUSH1 0x0 DUP1 REVERT JUMPDEST DUP1 PUSH4 0x6FDDE03 EQ PUSH2 0x192 JUMPI DUP1 PUSH4 0x95EA7B3 EQ PUSH2 0x1B0 JUMPI JUMPDEST PUSH1 0x0 DUP1 REVERT JUMPDEST PUSH2 0x19A PUSH2 0x39D JUMP JUMPDEST PUSH1 0x40 MLOAD PUSH2 0x1A7 SWAP2 SWAP1 PUSH2 0xFDF JUMP JUMPDEST PUSH1 0x40 MLOAD DUP1 SWAP2 SUB SWAP1 RETURN JUMPDEST PUSH2 0x1C3 PUSH2 0x1BE CALLDATASIZE PUSH1 0x4 PUSH2 0x1050 JUMP JUMPDEST PUSH2 0x42F JUMP JUMPDEST PUSH1 0x40 MLOAD SWAP1 ISZERO ISZERO DUP2 MSTORE PUSH1 0x20 ADD PUSH2 0x1A7 JUMP JUMPDEST PUSH1 0x2 SLOAD JUMPDEST PUSH1 0x40 MLOAD SWAP1 DUP2 MSTORE PUSH1 0x20 ADD PUSH2 0x1A7 JUMP JUMPDEST PUSH2 0x1C3 PUSH2 0x1F3 CALLDATASIZE PUSH1 0x4 PUSH2 0x107A JUMP JUMPDEST PUSH2 0x447 JUMP JUMPDEST PUSH2 0x1D7 PUSH1 0x9 SLOAD DUP2 JUMP JUMPDEST PUSH2 0x214 PUSH2 0x20F CALLDATASIZE PUSH1 0x4 PUSH2 0x10B6 JUMP JUMPDEST PUSH2 0x46B JUMP JUMPDEST STOP JUMPDEST PUSH1 0x40 MLOAD PUSH1 0x12 DUP2 MSTORE PUSH1 0x20 ADD PUSH2 0x1A7 JUMP JUMPDEST PUSH2 0x1C3 PUSH2 0x233 CALLDATASIZE PUSH1 0x4 PUSH2 0x1050 JUMP JUMPDEST PUSH2 0x4F8 JUMP JUMPDEST PUSH2 0x1C3 PUSH2 0x246 CALLDATASIZE PUSH1 0x4 PUSH2 0x10B6 JUMP JUMPDEST PUSH1 0xA PUSH1 0x20 MSTORE PUSH1 0x0 SWAP1 DUP2 MSTORE PUSH1 0x40 SWAP1 KECCAK256 SLOAD PUSH1 0xFF AND DUP2 JUMP JUMPDEST PUSH2 0x214 PUSH2 0x269 CALLDATASIZE PUSH1 0x4 PUSH2 0x1050 JUMP JUMPDEST PUSH2 0x537 JUMP JUMPDEST PUSH2 0x214 PUSH2 0x27C CALLDATASIZE PUSH1 0x4 PUSH2 0x10EE JUMP JUMPDEST PUSH2 0x600 JUMP JUMPDEST PUSH2 0x1D7 PUSH2 0x28F CALLDATASIZE PUSH1 0x4 PUSH2 0x10B6 JUMP JUMPDEST PUSH1 0x1 PUSH1 0x1 PUSH1 0xA0 SHL SUB AND PUSH1 0x0 SWAP1 DUP2 MSTORE PUSH1 0x20 DUP2 SWAP1 MSTORE PUSH1 0x40 SWAP1 KECCAK256 SLOAD SWAP1 JUMP JUMPDEST PUSH2 0x214 PUSH2 0x7FC JUMP JUMPDEST PUSH1 0x5 SLOAD PUSH1 0x1 PUSH1 0x1 PUSH1 0xA0 SHL SUB AND JUMPDEST PUSH1 0x40 MLOAD PUSH1 0x1 PUSH1 0x1 PUSH1 0xA0 SHL SUB SWAP1 SWAP2 AND DUP2 MSTORE PUSH1 0x20 ADD PUSH2 0x1A7 JUMP JUMPDEST PUSH2 0x19A PUSH2 0x810 JUMP JUMPDEST PUSH2 0x214 PUSH2 0x2ED CALLDATASIZE PUSH1 0x4 PUSH2 0x10B6 JUMP JUMPDEST PUSH2 0x81F JUMP JUMPDEST PUSH1 0x8 SLOAD PUSH2 0x2BF SWAP1 PUSH1 0x1 PUSH1 0x1 PUSH1 0xA0 SHL SUB AND DUP2 JUMP JUMPDEST PUSH2 0x1C3 PUSH2 0x313 CALLDATASIZE PUSH1 0x4 PUSH2 0x1050 JUMP JUMPDEST PUSH2 0x8AB JUMP JUMPDEST PUSH2 0x1C3 PUSH2 0x326 CALLDATASIZE PUSH1 0x4 PUSH2 0x1050 JUMP JUMPDEST PUSH2 0x955 JUMP JUMPDEST PUSH1 0x7 SLOAD PUSH2 0x2BF SWAP1 PUSH1 0x1 PUSH1 0x1 PUSH1 0xA0 SHL SUB AND DUP2 JUMP JUMPDEST PUSH2 0x1D7 PUSH2 0x34C CALLDATASIZE PUSH1 0x4 PUSH2 0x11AC JUMP JUMPDEST PUSH1 0x1 PUSH1 0x1 PUSH1 0xA0 SHL SUB SWAP2 DUP3 AND PUSH1 0x0 SWAP1 DUP2 MSTORE PUSH1 0x1 PUSH1 0x20 SWAP1 DUP2 MSTORE PUSH1 0x40 DUP1 DUP4 KECCAK256 SWAP4 SWAP1 SWAP5 AND DUP3 MSTORE SWAP2 SWAP1 SWAP2 MSTORE KECCAK256 SLOAD SWAP1 JUMP JUMPDEST PUSH2 0x214 PUSH2 0x385 CALLDATASIZE PUSH1 0x4 PUSH2 0x107A JUMP JUMPDEST PUSH2 0x963 JUMP JUMPDEST PUSH2 0x214 PUSH2 0x398 CALLDATASIZE PUSH1 0x4 PUSH2 0x10B6 JUMP JUMPDEST PUSH2 0xA04 JUMP JUMPDEST PUSH1 0x60 PUSH1 0x3 DUP1 SLOAD PUSH2 0x3AC SWAP1 PUSH2 0x11DF JUMP JUMPDEST DUP1 PUSH1 0x1F ADD PUSH1 0x20 DUP1 SWAP2 DIV MUL PUSH1 0x20 ADD PUSH1 0x40 MLOAD SWAP1 DUP2 ADD PUSH1 0x40 MSTORE DUP1 SWAP3 SWAP2 SWAP1 DUP2 DUP2 MSTORE PUSH1 0x20 ADD DUP3 DUP1 SLOAD PUSH2 0x3D8 SWAP1 PUSH2 0x11DF JUMP JUMPDEST DUP1 ISZERO PUSH2 0x425 JUMPI DUP1 PUSH1 0x1F LT PUSH2 0x3FA JUMPI PUSH2 0x100 DUP1 DUP4 SLOAD DIV MUL DUP4 MSTORE SWAP2 PUSH1 0x20 ADD SWAP2 PUSH2 0x425 JUMP JUMPDEST DUP3 ADD SWAP2 SWAP1 PUSH1 0x0 MSTORE PUSH1 0x20 PUSH1 0x0 KECCAK256 SWAP1 JUMPDEST DUP2 SLOAD DUP2 MSTORE SWAP1 PUSH1 0x1 ADD SWAP1 PUSH1 0x20 ADD DUP1 DUP4 GT PUSH2 0x408 JUMPI DUP3 SWAP1 SUB PUSH1 0x1F AND DUP3 ADD SWAP2 JUMPDEST POP POP POP POP POP SWAP1 POP SWAP1 JUMP JUMPDEST PUSH1 0x0 CALLER PUSH2 0x43D DUP2 DUP6 DUP6 PUSH2 0xA94 JUMP JUMPDEST POP PUSH1 0x1 SWAP4 SWAP3 POP POP POP JUMP JUMPDEST PUSH1 0x0 CALLER PUSH2 0x455 DUP6 DUP3 DUP6 PUSH2 0xBB8 JUMP JUMPDEST PUSH2 0x460 DUP6 DUP6 DUP6 PUSH2 0xC4A JUMP JUMPDEST POP PUSH1 0x1 SWAP5 SWAP4 POP POP POP POP JUMP JUMPDEST PUSH2 0x473 PUSH2 0xE47 JUMP JUMPDEST PUSH1 0x2 PUSH1 0x6 SLOAD SUB PUSH2 0x4CA JUMPI PUSH1 0x40 MLOAD PUSH3 0x461BCD PUSH1 0xE5 SHL DUP2 MSTORE PUSH1 0x20 PUSH1 0x4 DUP3 ADD MSTORE PUSH1 0x1F PUSH1 0x24 DUP3 ADD MSTORE PUSH32 0x5265656E7472616E637947756172643A207265656E7472616E742063616C6C00 PUSH1 0x44 DUP3 ADD MSTORE PUSH1 0x64 ADD JUMPDEST PUSH1 0x40 MLOAD DUP1 SWAP2 SUB SWAP1 REVERT JUMPDEST PUSH1 0x2 PUSH1 0x6 SWAP1 DUP2 SSTORE PUSH1 0x1 PUSH1 0x1 PUSH1 0xA0 SHL SUB SWAP1 SWAP2 AND PUSH1 0x0 SWAP1 DUP2 MSTORE PUSH1 0xA PUSH1 0x20 MSTORE PUSH1 0x40 SWAP1 KECCAK256 DUP1 SLOAD PUSH1 0xFF NOT AND SWAP1 SSTORE PUSH1 0x1 SWAP1 SSTORE JUMP JUMPDEST CALLER PUSH1 0x0 DUP2 DUP2 MSTORE PUSH1 0x1 PUSH1 0x20 SWAP1 DUP2 MSTORE PUSH1 0x40 DUP1 DUP4 KECCAK256 PUSH1 0x1 PUSH1 0x1 PUSH1 0xA0 SHL SUB DUP8 AND DUP5 MSTORE SWAP1 SWAP2 MSTORE DUP2 KECCAK256 SLOAD SWAP1 SWAP2 SWAP1 PUSH2 0x43D SWAP1 DUP3 SWAP1 DUP7 SWAP1 PUSH2 0x532 SWAP1 DUP8 SWAP1 PUSH2 0x122F JUMP JUMPDEST PUSH2 0xA94 JUMP JUMPDEST PUSH1 0x2 PUSH1 0x6 SLOAD SUB PUSH2 0x589 JUMPI PUSH1 0x40 MLOAD PUSH3 0x461BCD PUSH1 0xE5 SHL DUP2 MSTORE PUSH1 0x20 PUSH1 0x4 DUP3 ADD MSTORE PUSH1 0x1F PUSH1 0x24 DUP3 ADD MSTORE PUSH32 0x5265656E7472616E637947756172643A207265656E7472616E742063616C6C00 PUSH1 0x44 DUP3 ADD MSTORE PUSH1 0x64 ADD PUSH2 0x4C1 JUMP JUMPDEST PUSH1 0x2 PUSH1 0x6 SSTORE CALLER PUSH1 0x0 SWAP1 DUP2 MSTORE PUSH1 0xA PUSH1 0x20 MSTORE PUSH1 0x40 SWAP1 KECCAK256 SLOAD PUSH1 0xFF AND PUSH2 0x5ED JUMPI PUSH1 0x40 MLOAD PUSH3 0x461BCD PUSH1 0xE5 SHL DUP2 MSTORE PUSH1 0x20 PUSH1 0x4 DUP3 ADD MSTORE PUSH1 0x1A PUSH1 0x24 DUP3 ADD MSTORE PUSH32 0x4D75737420626520616E2061737369676E6564204D696E746572000000000000 PUSH1 0x44 DUP3 ADD MSTORE PUSH1 0x64 ADD PUSH2 0x4C1 JUMP JUMPDEST PUSH2 0x5F7 DUP3 DUP3 PUSH2 0xEA1 JUMP JUMPDEST POP POP PUSH1 0x1 PUSH1 0x6 SSTORE JUMP JUMPDEST PUSH1 0x2 PUSH1 0x6 SLOAD SUB PUSH2 0x652 JUMPI PUSH1 0x40 MLOAD PUSH3 0x461BCD PUSH1 0xE5 SHL DUP2 MSTORE PUSH1 0x20 PUSH1 0x4 DUP3 ADD MSTORE PUSH1 0x1F PUSH1 0x24 DUP3 ADD MSTORE PUSH32 0x5265656E7472616E637947756172643A207265656E7472616E742063616C6C00 PUSH1 0x44 DUP3 ADD MSTORE PUSH1 0x64 ADD PUSH2 0x4C1 JUMP JUMPDEST PUSH1 0x2 PUSH1 0x6 SSTORE DUP1 MLOAD PUSH2 0x6B0 JUMPI PUSH1 0x40 MLOAD PUSH3 0x461BCD PUSH1 0xE5 SHL DUP2 MSTORE PUSH1 0x20 PUSH1 0x4 DUP3 ADD MSTORE PUSH1 0x22 PUSH1 0x24 DUP3 ADD MSTORE PUSH32 0x4D757374206275726E206174206C65617374206F6E65204372617A792043616D PUSH1 0x44 DUP3 ADD MSTORE PUSH2 0x195B PUSH1 0xF2 SHL PUSH1 0x64 DUP3 ADD MSTORE PUSH1 0x84 ADD PUSH2 0x4C1 JUMP JUMPDEST PUSH1 0x0 JUMPDEST DUP2 MLOAD DUP2 LT ISZERO PUSH2 0x78A JUMPI PUSH1 0x7 SLOAD PUSH1 0x8 SLOAD DUP4 MLOAD PUSH1 0x1 PUSH1 0x1 PUSH1 0xA0 SHL SUB SWAP3 DUP4 AND SWAP3 PUSH4 0x23B872DD SWAP3 CALLER SWAP3 SWAP2 AND SWAP1 DUP7 SWAP1 DUP7 SWAP1 DUP2 LT PUSH2 0x6ED JUMPI PUSH2 0x6ED PUSH2 0x1247 JUMP JUMPDEST PUSH1 0x20 SWAP1 DUP2 MUL SWAP2 SWAP1 SWAP2 ADD ADD MLOAD PUSH1 0x40 MLOAD PUSH32 0xFFFFFFFF00000000000000000000000000000000000000000000000000000000 PUSH1 0xE0 DUP7 SWAP1 SHL AND DUP2 MSTORE PUSH1 0x1 PUSH1 0x1 PUSH1 0xA0 SHL SUB SWAP4 DUP5 AND PUSH1 0x4 DUP3 ADD MSTORE SWAP3 SWAP1 SWAP2 AND PUSH1 0x24 DUP4 ADD MSTORE PUSH1 0x44 DUP3 ADD MSTORE PUSH1 0x64 ADD PUSH1 0x0 PUSH1 0x40 MLOAD DUP1 DUP4 SUB DUP2 PUSH1 0x0 DUP8 DUP1 EXTCODESIZE ISZERO DUP1 ISZERO PUSH2 0x75F JUMPI PUSH1 0x0 DUP1 REVERT JUMPDEST POP GAS CALL ISZERO DUP1 ISZERO PUSH2 0x773 JUMPI RETURNDATASIZE PUSH1 0x0 DUP1 RETURNDATACOPY RETURNDATASIZE PUSH1 0x0 REVERT JUMPDEST POP POP POP POP DUP1 DUP1 PUSH2 0x782 SWAP1 PUSH2 0x125D JUMP JUMPDEST SWAP2 POP POP PUSH2 0x6B3 JUMP JUMPDEST POP PUSH2 0x7A3 CALLER PUSH1 0x9 SLOAD DUP4 MLOAD PUSH2 0x79E SWAP2 SWAP1 PUSH2 0x1276 JUMP JUMPDEST PUSH2 0xEA1 JUMP JUMPDEST CALLER PUSH1 0x1 PUSH1 0x1 PUSH1 0xA0 SHL SUB AND PUSH32 0xE95B1AFB8A6019E43B6906420999D1C23995E338D5E7016E96F61B605FA96E26 PUSH1 0x9 SLOAD DUP4 MLOAD PUSH2 0x7DD SWAP2 SWAP1 PUSH2 0x1276 JUMP JUMPDEST DUP4 PUSH1 0x40 MLOAD PUSH2 0x7EC SWAP3 SWAP2 SWAP1 PUSH2 0x1295 JUMP JUMPDEST PUSH1 0x40 MLOAD DUP1 SWAP2 SUB SWAP1 LOG2 POP PUSH1 0x1 PUSH1 0x6 SSTORE JUMP JUMPDEST PUSH2 0x804 PUSH2 0xE47 JUMP JUMPDEST PUSH2 0x80E PUSH1 0x0 PUSH2 0xF80 JUMP JUMPDEST JUMP JUMPDEST PUSH1 0x60 PUSH1 0x4 DUP1 SLOAD PUSH2 0x3AC SWAP1 PUSH2 0x11DF JUMP JUMPDEST PUSH2 0x827 PUSH2 0xE47 JUMP JUMPDEST PUSH1 0x2 PUSH1 0x6 SLOAD SUB PUSH2 0x879 JUMPI PUSH1 0x40 MLOAD PUSH3 0x461BCD PUSH1 0xE5 SHL DUP2 MSTORE PUSH1 0x20 PUSH1 0x4 DUP3 ADD MSTORE PUSH1 0x1F PUSH1 0x24 DUP3 ADD MSTORE PUSH32 0x5265656E7472616E637947756172643A207265656E7472616E742063616C6C00 PUSH1 0x44 DUP3 ADD MSTORE PUSH1 0x64 ADD PUSH2 0x4C1 JUMP JUMPDEST PUSH1 0x2 PUSH1 0x6 SWAP1 DUP2 SSTORE PUSH1 0x1 PUSH1 0x1 PUSH1 0xA0 SHL SUB SWAP1 SWAP2 AND PUSH1 0x0 SWAP1 DUP2 MSTORE PUSH1 0xA PUSH1 0x20 MSTORE PUSH1 0x40 SWAP1 KECCAK256 DUP1 SLOAD PUSH1 0xFF NOT AND PUSH1 0x1 SWAP1 DUP2 OR SWAP1 SWAP2 SSTORE SWAP1 SSTORE JUMP JUMPDEST CALLER PUSH1 0x0 DUP2 DUP2 MSTORE PUSH1 0x1 PUSH1 0x20 SWAP1 DUP2 MSTORE PUSH1 0x40 DUP1 DUP4 KECCAK256 PUSH1 0x1 PUSH1 0x1 PUSH1 0xA0 SHL SUB DUP8 AND DUP5 MSTORE SWAP1 SWAP2 MSTORE DUP2 KECCAK256 SLOAD SWAP1 SWAP2 SWAP1 DUP4 DUP2 LT ISZERO PUSH2 0x948 JUMPI PUSH1 0x40 MLOAD PUSH3 0x461BCD PUSH1 0xE5 SHL DUP2 MSTORE PUSH1 0x20 PUSH1 0x4 DUP3 ADD MSTORE PUSH1 0x25 PUSH1 0x24 DUP3 ADD MSTORE PUSH32 0x45524332303A2064656372656173656420616C6C6F77616E63652062656C6F77 PUSH1 0x44 DUP3 ADD MSTORE PUSH32 0x207A65726F000000000000000000000000000000000000000000000000000000 PUSH1 0x64 DUP3 ADD MSTORE PUSH1 0x84 ADD PUSH2 0x4C1 JUMP JUMPDEST PUSH2 0x460 DUP3 DUP7 DUP7 DUP5 SUB PUSH2 0xA94 JUMP JUMPDEST PUSH1 0x0 CALLER PUSH2 0x43D DUP2 DUP6 DUP6 PUSH2 0xC4A JUMP JUMPDEST PUSH2 0x96B PUSH2 0xE47 JUMP JUMPDEST PUSH1 0x2 PUSH1 0x6 SLOAD SUB PUSH2 0x9BD JUMPI PUSH1 0x40 MLOAD PUSH3 0x461BCD PUSH1 0xE5 SHL DUP2 MSTORE PUSH1 0x20 PUSH1 0x4 DUP3 ADD MSTORE PUSH1 0x1F PUSH1 0x24 DUP3 ADD MSTORE PUSH32 0x5265656E7472616E637947756172643A207265656E7472616E742063616C6C00 PUSH1 0x44 DUP3 ADD MSTORE PUSH1 0x64 ADD PUSH2 0x4C1 JUMP JUMPDEST PUSH1 0x7 DUP1 SLOAD PUSH1 0x1 PUSH1 0x1 PUSH1 0xA0 SHL SUB SWAP5 DUP6 AND PUSH20 0xFFFFFFFFFFFFFFFFFFFFFFFFFFFFFFFFFFFFFFFF NOT SWAP2 DUP3 AND OR SWAP1 SWAP2 SSTORE PUSH1 0x8 DUP1 SLOAD SWAP4 SWAP1 SWAP5 AND SWAP3 AND SWAP2 SWAP1 SWAP2 OR SWAP1 SWAP2 SSTORE PUSH1 0x9 SSTORE PUSH1 0x1 PUSH1 0x6 SSTORE JUMP JUMPDEST PUSH2 0xA0C PUSH2 0xE47 JUMP JUMPDEST PUSH1 0x1 PUSH1 0x1 PUSH1 0xA0 SHL SUB DUP2 AND PUSH2 0xA88 JUMPI PUSH1 0x40 MLOAD PUSH3 0x461BCD PUSH1 0xE5 SHL DUP2 MSTORE PUSH1 0x20 PUSH1 0x4 DUP3 ADD MSTORE PUSH1 0x26 PUSH1 0x24 DUP3 ADD MSTORE PUSH32 0x4F776E61626C653A206E6577206F776E657220697320746865207A65726F2061 PUSH1 0x44 DUP3 ADD MSTORE PUSH32 0x6464726573730000000000000000000000000000000000000000000000000000 PUSH1 0x64 DUP3 ADD MSTORE PUSH1 0x84 ADD PUSH2 0x4C1 JUMP JUMPDEST PUSH2 0xA91 DUP2 PUSH2 0xF80 JUMP JUMPDEST POP JUMP JUMPDEST PUSH1 0x1 PUSH1 0x1 PUSH1 0xA0 SHL SUB DUP4 AND PUSH2 0xAF6 JUMPI PUSH1 0x40 MLOAD PUSH3 0x461BCD PUSH1 0xE5 SHL DUP2 MSTORE PUSH1 0x20 PUSH1 0x4 DUP3 ADD MSTORE PUSH1 0x24 DUP1 DUP3 ADD MSTORE PUSH32 0x45524332303A20617070726F76652066726F6D20746865207A65726F20616464 PUSH1 0x44 DUP3 ADD MSTORE PUSH4 0x72657373 PUSH1 0xE0 SHL PUSH1 0x64 DUP3 ADD MSTORE PUSH1 0x84 ADD PUSH2 0x4C1 JUMP JUMPDEST PUSH1 0x1 PUSH1 0x1 PUSH1 0xA0 SHL SUB DUP3 AND PUSH2 0xB57 JUMPI PUSH1 0x40 MLOAD PUSH3 0x461BCD PUSH1 0xE5 SHL DUP2 MSTORE PUSH1 0x20 PUSH1 0x4 DUP3 ADD MSTORE PUSH1 0x22 PUSH1 0x24 DUP3 ADD MSTORE PUSH32 0x45524332303A20617070726F766520746F20746865207A65726F206164647265 PUSH1 0x44 DUP3 ADD MSTORE PUSH2 0x7373 PUSH1 0xF0 SHL PUSH1 0x64 DUP3 ADD MSTORE PUSH1 0x84 ADD PUSH2 0x4C1 JUMP JUMPDEST PUSH1 0x1 PUSH1 0x1 PUSH1 0xA0 SHL SUB DUP4 DUP2 AND PUSH1 0x0 DUP2 DUP2 MSTORE PUSH1 0x1 PUSH1 0x20 SWAP1 DUP2 MSTORE PUSH1 0x40 DUP1 DUP4 KECCAK256 SWAP5 DUP8 AND DUP1 DUP5 MSTORE SWAP5 DUP3 MSTORE SWAP2 DUP3 SWAP1 KECCAK256 DUP6 SWAP1 SSTORE SWAP1 MLOAD DUP5 DUP2 MSTORE PUSH32 0x8C5BE1E5EBEC7D5BD14F71427D1E84F3DD0314C0F7B2291E5B200AC8C7C3B925 SWAP2 ADD PUSH1 0x40 MLOAD DUP1 SWAP2 SUB SWAP1 LOG3 POP POP POP JUMP JUMPDEST PUSH1 0x1 PUSH1 0x1 PUSH1 0xA0 SHL SUB DUP4 DUP2 AND PUSH1 0x0 SWAP1 DUP2 MSTORE PUSH1 0x1 PUSH1 0x20 SWAP1 DUP2 MSTORE PUSH1 0x40 DUP1 DUP4 KECCAK256 SWAP4 DUP7 AND DUP4 MSTORE SWAP3 SWAP1 MSTORE KECCAK256 SLOAD PUSH1 0x0 NOT DUP2 EQ PUSH2 0xC44 JUMPI DUP2 DUP2 LT ISZERO PUSH2 0xC37 JUMPI PUSH1 0x40 MLOAD PUSH3 0x461BCD PUSH1 0xE5 SHL DUP2 MSTORE PUSH1 0x20 PUSH1 0x4 DUP3 ADD MSTORE PUSH1 0x1D PUSH1 0x24 DUP3 ADD MSTORE PUSH32 0x45524332303A20696E73756666696369656E7420616C6C6F77616E6365000000 PUSH1 0x44 DUP3 ADD MSTORE PUSH1 0x64 ADD PUSH2 0x4C1 JUMP JUMPDEST PUSH2 0xC44 DUP5 DUP5 DUP5 DUP5 SUB PUSH2 0xA94 JUMP JUMPDEST POP POP POP POP JUMP JUMPDEST PUSH1 0x1 PUSH1 0x1 PUSH1 0xA0 SHL SUB DUP4 AND PUSH2 0xCC6 JUMPI PUSH1 0x40 MLOAD PUSH3 0x461BCD PUSH1 0xE5 SHL DUP2 MSTORE PUSH1 0x20 PUSH1 0x4 DUP3 ADD MSTORE PUSH1 0x25 PUSH1 0x24 DUP3 ADD MSTORE PUSH32 0x45524332303A207472616E736665722066726F6D20746865207A65726F206164 PUSH1 0x44 DUP3 ADD MSTORE PUSH32 0x6472657373000000000000000000000000000000000000000000000000000000 PUSH1 0x64 DUP3 ADD MSTORE PUSH1 0x84 ADD PUSH2 0x4C1 JUMP JUMPDEST PUSH1 0x1 PUSH1 0x1 PUSH1 0xA0 SHL SUB DUP3 AND PUSH2 0xD28 JUMPI PUSH1 0x40 MLOAD PUSH3 0x461BCD PUSH1 0xE5 SHL DUP2 MSTORE PUSH1 0x20 PUSH1 0x4 DUP3 ADD MSTORE PUSH1 0x23 PUSH1 0x24 DUP3 ADD MSTORE PUSH32 0x45524332303A207472616E7366657220746F20746865207A65726F2061646472 PUSH1 0x44 DUP3 ADD MSTORE PUSH3 0x657373 PUSH1 0xE8 SHL PUSH1 0x64 DUP3 ADD MSTORE PUSH1 0x84 ADD PUSH2 0x4C1 JUMP JUMPDEST PUSH1 0x1 PUSH1 0x1 PUSH1 0xA0 SHL SUB DUP4 AND PUSH1 0x0 SWAP1 DUP2 MSTORE PUSH1 0x20 DUP2 SWAP1 MSTORE PUSH1 0x40 SWAP1 KECCAK256 SLOAD DUP2 DUP2 LT ISZERO PUSH2 0xDB7 JUMPI PUSH1 0x40 MLOAD PUSH3 0x461BCD PUSH1 0xE5 SHL DUP2 MSTORE PUSH1 0x20 PUSH1 0x4 DUP3 ADD MSTORE PUSH1 0x26 PUSH1 0x24 DUP3 ADD MSTORE PUSH32 0x45524332303A207472616E7366657220616D6F756E7420657863656564732062 PUSH1 0x44 DUP3 ADD MSTORE PUSH32 0x616C616E63650000000000000000000000000000000000000000000000000000 PUSH1 0x64 DUP3 ADD MSTORE PUSH1 0x84 ADD PUSH2 0x4C1 JUMP JUMPDEST PUSH1 0x1 PUSH1 0x1 PUSH1 0xA0 SHL SUB DUP1 DUP6 AND PUSH1 0x0 SWAP1 DUP2 MSTORE PUSH1 0x20 DUP2 SWAP1 MSTORE PUSH1 0x40 DUP1 DUP3 KECCAK256 DUP6 DUP6 SUB SWAP1 SSTORE SWAP2 DUP6 AND DUP2 MSTORE SWAP1 DUP2 KECCAK256 DUP1 SLOAD DUP5 SWAP3 SWAP1 PUSH2 0xDEE SWAP1 DUP5 SWAP1 PUSH2 0x122F JUMP JUMPDEST SWAP3 POP POP DUP2 SWAP1 SSTORE POP DUP3 PUSH1 0x1 PUSH1 0x1 PUSH1 0xA0 SHL SUB AND DUP5 PUSH1 0x1 PUSH1 0x1 PUSH1 0xA0 SHL SUB AND PUSH32 0xDDF252AD1BE2C89B69C2B068FC378DAA952BA7F163C4A11628F55A4DF523B3EF DUP5 PUSH1 0x40 MLOAD PUSH2 0xE3A SWAP2 DUP2 MSTORE PUSH1 0x20 ADD SWAP1 JUMP JUMPDEST PUSH1 0x40 MLOAD DUP1 SWAP2 SUB SWAP1 LOG3 PUSH2 0xC44 JUMP JUMPDEST PUSH1 0x5 SLOAD PUSH1 0x1 PUSH1 0x1 PUSH1 0xA0 SHL SUB AND CALLER EQ PUSH2 0x80E JUMPI PUSH1 0x40 MLOAD PUSH3 0x461BCD PUSH1 0xE5 SHL DUP2 MSTORE PUSH1 0x20 PUSH1 0x4 DUP3 ADD DUP2 SWAP1 MSTORE PUSH1 0x24 DUP3 ADD MSTORE PUSH32 0x4F776E61626C653A2063616C6C6572206973206E6F7420746865206F776E6572 PUSH1 0x44 DUP3 ADD MSTORE PUSH1 0x64 ADD PUSH2 0x4C1 JUMP JUMPDEST PUSH1 0x1 PUSH1 0x1 PUSH1 0xA0 SHL SUB DUP3 AND PUSH2 0xEF7 JUMPI PUSH1 0x40 MLOAD PUSH3 0x461BCD PUSH1 0xE5 SHL DUP2 MSTORE PUSH1 0x20 PUSH1 0x4 DUP3 ADD MSTORE PUSH1 0x1F PUSH1 0x24 DUP3 ADD MSTORE PUSH32 0x45524332303A206D696E7420746F20746865207A65726F206164647265737300 PUSH1 0x44 DUP3 ADD MSTORE PUSH1 0x64 ADD PUSH2 0x4C1 JUMP JUMPDEST DUP1 PUSH1 0x2 PUSH1 0x0 DUP3 DUP3 SLOAD PUSH2 0xF09 SWAP2 SWAP1 PUSH2 0x122F JUMP JUMPDEST SWAP1 SWAP2 SSTORE POP POP PUSH1 0x1 PUSH1 0x1 PUSH1 0xA0 SHL SUB DUP3 AND PUSH1 0x0 SWAP1 DUP2 MSTORE PUSH1 0x20 DUP2 SWAP1 MSTORE PUSH1 0x40 DUP2 KECCAK256 DUP1 SLOAD DUP4 SWAP3 SWAP1 PUSH2 0xF36 SWAP1 DUP5 SWAP1 PUSH2 0x122F JUMP JUMPDEST SWAP1 SWAP2 SSTORE POP POP PUSH1 0x40 MLOAD DUP2 DUP2 MSTORE PUSH1 0x1 PUSH1 0x1 PUSH1 0xA0 SHL SUB DUP4 AND SWAP1 PUSH1 0x0 SWAP1 PUSH32 0xDDF252AD1BE2C89B69C2B068FC378DAA952BA7F163C4A11628F55A4DF523B3EF SWAP1 PUSH1 0x20 ADD PUSH1 0x40 MLOAD DUP1 SWAP2 SUB SWAP1 LOG3 POP POP JUMP JUMPDEST PUSH1 0x5 DUP1 SLOAD PUSH1 0x1 PUSH1 0x1 PUSH1 0xA0 SHL SUB DUP4 DUP2 AND PUSH20 0xFFFFFFFFFFFFFFFFFFFFFFFFFFFFFFFFFFFFFFFF NOT DUP4 AND DUP2 OR SWAP1 SWAP4 SSTORE PUSH1 0x40 MLOAD SWAP2 AND SWAP2 SWAP1 DUP3 SWAP1 PUSH32 0x8BE0079C531659141344CD1FD0A4F28419497F9722A3DAAFE3B4186F6B6457E0 SWAP1 PUSH1 0x0 SWAP1 LOG3 POP POP JUMP JUMPDEST PUSH1 0x0 PUSH1 0x20 DUP1 DUP4 MSTORE DUP4 MLOAD DUP1 DUP3 DUP6 ADD MSTORE PUSH1 0x0 JUMPDEST DUP2 DUP2 LT ISZERO PUSH2 0x100C JUMPI DUP6 DUP2 ADD DUP4 ADD MLOAD DUP6 DUP3 ADD PUSH1 0x40 ADD MSTORE DUP3 ADD PUSH2 0xFF0 JUMP JUMPDEST DUP2 DUP2 GT ISZERO PUSH2 0x101E JUMPI PUSH1 0x0 PUSH1 0x40 DUP4 DUP8 ADD ADD MSTORE JUMPDEST POP PUSH1 0x1F ADD PUSH1 0x1F NOT AND SWAP3 SWAP1 SWAP3 ADD PUSH1 0x40 ADD SWAP4 SWAP3 POP POP POP JUMP JUMPDEST DUP1 CALLDATALOAD PUSH1 0x1 PUSH1 0x1 PUSH1 0xA0 SHL SUB DUP2 AND DUP2 EQ PUSH2 0x104B JUMPI PUSH1 0x0 DUP1 REVERT JUMPDEST SWAP2 SWAP1 POP JUMP JUMPDEST PUSH1 0x0 DUP1 PUSH1 0x40 DUP4 DUP6 SUB SLT ISZERO PUSH2 0x1063 JUMPI PUSH1 0x0 DUP1 REVERT JUMPDEST PUSH2 0x106C DUP4 PUSH2 0x1034 JUMP JUMPDEST SWAP5 PUSH1 0x20 SWAP4 SWAP1 SWAP4 ADD CALLDATALOAD SWAP4 POP POP POP JUMP JUMPDEST PUSH1 0x0 DUP1 PUSH1 0x0 PUSH1 0x60 DUP5 DUP7 SUB SLT ISZERO PUSH2 0x108F JUMPI PUSH1 0x0 DUP1 REVERT JUMPDEST PUSH2 0x1098 DUP5 PUSH2 0x1034 JUMP JUMPDEST SWAP3 POP PUSH2 0x10A6 PUSH1 0x20 DUP6 ADD PUSH2 0x1034 JUMP JUMPDEST SWAP2 POP PUSH1 0x40 DUP5 ADD CALLDATALOAD SWAP1 POP SWAP3 POP SWAP3 POP SWAP3 JUMP JUMPDEST PUSH1 0x0 PUSH1 0x20 DUP3 DUP5 SUB SLT ISZERO PUSH2 0x10C8 JUMPI PUSH1 0x0 DUP1 REVERT JUMPDEST PUSH2 0x10D1 DUP3 PUSH2 0x1034 JUMP JUMPDEST SWAP4 SWAP3 POP POP POP JUMP JUMPDEST PUSH4 0x4E487B71 PUSH1 0xE0 SHL PUSH1 0x0 MSTORE PUSH1 0x41 PUSH1 0x4 MSTORE PUSH1 0x24 PUSH1 0x0 REVERT JUMPDEST PUSH1 0x0 PUSH1 0x20 DUP1 DUP4 DUP6 SUB SLT ISZERO PUSH2 0x1101 JUMPI PUSH1 0x0 DUP1 REVERT JUMPDEST DUP3 CALLDATALOAD PUSH8 0xFFFFFFFFFFFFFFFF DUP1 DUP3 GT ISZERO PUSH2 0x1119 JUMPI PUSH1 0x0 DUP1 REVERT JUMPDEST DUP2 DUP6 ADD SWAP2 POP DUP6 PUSH1 0x1F DUP4 ADD SLT PUSH2 0x112D JUMPI PUSH1 0x0 DUP1 REVERT JUMPDEST DUP2 CALLDATALOAD DUP2 DUP2 GT ISZERO PUSH2 0x113F JUMPI PUSH2 0x113F PUSH2 0x10D8 JUMP JUMPDEST DUP1 PUSH1 0x5 SHL PUSH1 0x40 MLOAD PUSH1 0x1F NOT PUSH1 0x3F DUP4 ADD AND DUP2 ADD DUP2 DUP2 LT DUP6 DUP3 GT OR ISZERO PUSH2 0x1164 JUMPI PUSH2 0x1164 PUSH2 0x10D8 JUMP JUMPDEST PUSH1 0x40 MSTORE SWAP2 DUP3 MSTORE DUP5 DUP3 ADD SWAP3 POP DUP4 DUP2 ADD DUP6 ADD SWAP2 DUP9 DUP4 GT ISZERO PUSH2 0x1182 JUMPI PUSH1 0x0 DUP1 REVERT JUMPDEST SWAP4 DUP6 ADD SWAP4 JUMPDEST DUP3 DUP6 LT ISZERO PUSH2 0x11A0 JUMPI DUP5 CALLDATALOAD DUP5 MSTORE SWAP4 DUP6 ADD SWAP4 SWAP3 DUP6 ADD SWAP3 PUSH2 0x1187 JUMP JUMPDEST SWAP9 SWAP8 POP POP POP POP POP POP POP POP JUMP JUMPDEST PUSH1 0x0 DUP1 PUSH1 0x40 DUP4 DUP6 SUB SLT ISZERO PUSH2 0x11BF JUMPI PUSH1 0x0 DUP1 REVERT JUMPDEST PUSH2 0x11C8 DUP4 PUSH2 0x1034 JUMP JUMPDEST SWAP2 POP PUSH2 0x11D6 PUSH1 0x20 DUP5 ADD PUSH2 0x1034 JUMP JUMPDEST SWAP1 POP SWAP3 POP SWAP3 SWAP1 POP JUMP JUMPDEST PUSH1 0x1 DUP2 DUP2 SHR SWAP1 DUP3 AND DUP1 PUSH2 0x11F3 JUMPI PUSH1 0x7F DUP3 AND SWAP2 POP JUMPDEST PUSH1 0x20 DUP3 LT DUP2 SUB PUSH2 0x1213 JUMPI PUSH4 0x4E487B71 PUSH1 0xE0 SHL PUSH1 0x0 MSTORE PUSH1 0x22 PUSH1 0x4 MSTORE PUSH1 0x24 PUSH1 0x0 REVERT JUMPDEST POP SWAP2 SWAP1 POP JUMP JUMPDEST PUSH4 0x4E487B71 PUSH1 0xE0 SHL PUSH1 0x0 MSTORE PUSH1 0x11 PUSH1 0x4 MSTORE PUSH1 0x24 PUSH1 0x0 REVERT JUMPDEST PUSH1 0x0 DUP3 NOT DUP3 GT ISZERO PUSH2 0x1242 JUMPI PUSH2 0x1242 PUSH2 0x1219 JUMP JUMPDEST POP ADD SWAP1 JUMP JUMPDEST PUSH4 0x4E487B71 PUSH1 0xE0 SHL PUSH1 0x0 MSTORE PUSH1 0x32 PUSH1 0x4 MSTORE PUSH1 0x24 PUSH1 0x0 REVERT JUMPDEST PUSH1 0x0 PUSH1 0x1 DUP3 ADD PUSH2 0x126F JUMPI PUSH2 0x126F PUSH2 0x1219 JUMP JUMPDEST POP PUSH1 0x1 ADD SWAP1 JUMP JUMPDEST PUSH1 0x0 DUP2 PUSH1 0x0 NOT DIV DUP4 GT DUP3 ISZERO ISZERO AND ISZERO PUSH2 0x1290 JUMPI PUSH2 0x1290 PUSH2 0x1219 JUMP JUMPDEST POP MUL SWAP1 JUMP JUMPDEST PUSH1 0x0 PUSH1 0x40 DUP3 ADD DUP5 DUP4 MSTORE PUSH1 0x20 PUSH1 0x40 DUP2 DUP6 ADD MSTORE DUP2 DUP6 MLOAD DUP1 DUP5 MSTORE PUSH1 0x60 DUP7 ADD SWAP2 POP DUP3 DUP8 ADD SWAP4 POP PUSH1 0x0 JUMPDEST DUP2 DUP2 LT ISZERO PUSH2 0x12D6 JUMPI DUP5 MLOAD DUP4 MSTORE SWAP4 DUP4 ADD SWAP4 SWAP2 DUP4 ADD SWAP2 PUSH1 0x1 ADD PUSH2 0x12BA JUMP JUMPDEST POP SWAP1 SWAP8 SWAP7 POP POP POP POP POP POP POP JUMP INVALID LOG2 PUSH5 0x6970667358 0x22 SLT KECCAK256 0xC0 PUSH6 0xB19666815D66 0x26 EXTCODESIZE 0x2C STATICCALL 0x2C KECCAK256 SWAP8 0xBB SELFBALANCE 0x1F PUSH18 0xBA3A50D3B1B35F4C1A3370E0F064736F6C63 NUMBER STOP ADDMOD 0xD STOP CALLER "
    },
    "gasEstimates": {
      "creation": {
        "codeDepositCost": "977800",
        "executionCost": "infinite",
        "totalCost": "infinite"
      },
      "external": {
        "addMinter(address)": "73194",
        "allowance(address,address)": "infinite",
        "approve(address,uint256)": "24670",
        "balanceOf(address)": "2586",
        "claim(uint256[])": "infinite",
        "crazyCamels()": "2426",
        "decimals()": "245",
        "decreaseAllowance(address,uint256)": "26945",
        "increaseAllowance(address,uint256)": "27035",
        "mint(address,uint256)": "infinite",
        "minter(address)": "2576",
        "name()": "infinite",
        "oasisGraveyard()": "2426",
        "owner()": "2410",
        "removeMinter(address)": "73161",
        "renounceOwnership()": "infinite",
        "setStateVariables(address,address,uint256)": "infinite",
        "symbol()": "infinite",
        "tokensPerCrazyCamel()": "2385",
        "totalSupply()": "2327",
        "transfer(address,uint256)": "51249",
        "transferFrom(address,address,uint256)": "infinite",
        "transferOwnership(address)": "28412"
      }
    },
    "methodIdentifiers": {
      "addMinter(address)": "983b2d56",
      "allowance(address,address)": "dd62ed3e",
      "approve(address,uint256)": "095ea7b3",
      "balanceOf(address)": "70a08231",
      "claim(uint256[])": "6ba4c138",
      "crazyCamels()": "c79476b5",
      "decimals()": "313ce567",
      "decreaseAllowance(address,uint256)": "a457c2d7",
      "increaseAllowance(address,uint256)": "39509351",
      "mint(address,uint256)": "40c10f19",
      "minter(address)": "3dd08c38",
      "name()": "06fdde03",
      "oasisGraveyard()": "9ff51675",
      "owner()": "8da5cb5b",
      "removeMinter(address)": "3092afd5",
      "renounceOwnership()": "715018a6",
      "setStateVariables(address,address,uint256)": "e9964871",
      "symbol()": "95d89b41",
      "tokensPerCrazyCamel()": "2647cfac",
      "totalSupply()": "18160ddd",
      "transfer(address,uint256)": "a9059cbb",
      "transferFrom(address,address,uint256)": "23b872dd",
      "transferOwnership(address)": "f2fde38b"
    }
  },
  "storageLayout": {
    "storage": [
      {
        "astId": 3111,
        "contract": "OasisToken.sol:OasisToken",
        "label": "_balances",
        "offset": 0,
        "slot": "0",
        "type": "t_mapping(t_address,t_uint256)"
      },
      {
        "astId": 3117,
        "contract": "OasisToken.sol:OasisToken",
        "label": "_allowances",
        "offset": 0,
        "slot": "1",
        "type": "t_mapping(t_address,t_mapping(t_address,t_uint256))"
      },
      {
        "astId": 3119,
        "contract": "OasisToken.sol:OasisToken",
        "label": "_totalSupply",
        "offset": 0,
        "slot": "2",
        "type": "t_uint256"
      },
      {
        "astId": 3121,
        "contract": "OasisToken.sol:OasisToken",
        "label": "_name",
        "offset": 0,
        "slot": "3",
        "type": "t_string_storage"
      },
      {
        "astId": 3123,
        "contract": "OasisToken.sol:OasisToken",
        "label": "_symbol",
        "offset": 0,
        "slot": "4",
        "type": "t_string_storage"
      },
      {
        "astId": 1554,
        "contract": "OasisToken.sol:OasisToken",
        "label": "_owner",
        "offset": 0,
        "slot": "5",
        "type": "t_address"
      },
      {
        "astId": 3066,
        "contract": "OasisToken.sol:OasisToken",
        "label": "_status",
        "offset": 0,
        "slot": "6",
        "type": "t_uint256"
      },
      {
        "astId": 1374,
        "contract": "OasisToken.sol:OasisToken",
        "label": "crazyCamels",
        "offset": 0,
        "slot": "7",
        "type": "t_address"
      },
      {
        "astId": 1376,
        "contract": "OasisToken.sol:OasisToken",
        "label": "oasisGraveyard",
        "offset": 0,
        "slot": "8",
        "type": "t_address"
      },
      {
        "astId": 1378,
        "contract": "OasisToken.sol:OasisToken",
        "label": "tokensPerCrazyCamel",
        "offset": 0,
        "slot": "9",
        "type": "t_uint256"
      },
      {
        "astId": 1382,
        "contract": "OasisToken.sol:OasisToken",
        "label": "minter",
        "offset": 0,
        "slot": "10",
        "type": "t_mapping(t_address,t_bool)"
      }
    ],
    "types": {
      "t_address": {
        "encoding": "inplace",
        "label": "address",
        "numberOfBytes": "20"
      },
      "t_bool": {
        "encoding": "inplace",
        "label": "bool",
        "numberOfBytes": "1"
      },
      "t_mapping(t_address,t_bool)": {
        "encoding": "mapping",
        "key": "t_address",
        "label": "mapping(address => bool)",
        "numberOfBytes": "32",
        "value": "t_bool"
      },
      "t_mapping(t_address,t_mapping(t_address,t_uint256))": {
        "encoding": "mapping",
        "key": "t_address",
        "label": "mapping(address => mapping(address => uint256))",
        "numberOfBytes": "32",
        "value": "t_mapping(t_address,t_uint256)"
      },
      "t_mapping(t_address,t_uint256)": {
        "encoding": "mapping",
        "key": "t_address",
        "label": "mapping(address => uint256)",
        "numberOfBytes": "32",
        "value": "t_uint256"
      },
      "t_string_storage": {
        "encoding": "bytes",
        "label": "string",
        "numberOfBytes": "32"
      },
      "t_uint256": {
        "encoding": "inplace",
        "label": "uint256",
        "numberOfBytes": "32"
      }
    }
  },
  "userdoc": {
    "events": {
      "ClaimedOST(address,uint256,uint256[])": {
        "notice": "EVENTS ///"
      }
    },
    "kind": "user",
    "methods": {
      "claim(uint256[])": {
        "notice": "USER FUNCTIONS ///"
      },
      "constructor": {
        "notice": "CONSTRUCTOR ///"
      },
      "crazyCamels()": {
        "notice": "STATE VARIABLES ///"
      },
      "mint(address,uint256)": {
        "notice": "MINTER FUNCTIONS ///"
      },
      "setStateVariables(address,address,uint256)": {
        "notice": "OWNER FUNCTIONS ///"
      }
    },
    "notice": ". Standard ERC-20 for the Oasis. Mintable by assigned Minters or by burning a Crazy Camels NFT.",
    "version": 1
  }
}