{
  "abi": [
    {
      "inputs": [],
      "stateMutability": "nonpayable",
      "type": "constructor"
    },
    {
      "anonymous": false,
      "inputs": [
        {
          "indexed": true,
          "internalType": "address",
          "name": "owner",
          "type": "address"
        },
        {
          "indexed": true,
          "internalType": "address",
          "name": "spender",
          "type": "address"
        },
        {
          "indexed": false,
          "internalType": "uint256",
          "name": "value",
          "type": "uint256"
        }
      ],
      "name": "Approval",
      "type": "event"
    },
    {
      "anonymous": false,
      "inputs": [
        {
          "indexed": true,
          "internalType": "address",
          "name": "claimer",
          "type": "address"
        },
        {
          "indexed": true,
          "internalType": "uint256",
          "name": "ostAmount",
          "type": "uint256"
        },
        {
          "indexed": false,
          "internalType": "uint256[]",
          "name": "ccIds",
          "type": "uint256[]"
        }
      ],
      "name": "ClaimedOST",
      "type": "event"
    },
    {
      "anonymous": false,
      "inputs": [
        {
          "indexed": true,
          "internalType": "address",
          "name": "previousOwner",
          "type": "address"
        },
        {
          "indexed": true,
          "internalType": "address",
          "name": "newOwner",
          "type": "address"
        }
      ],
      "name": "OwnershipTransferred",
      "type": "event"
    },
    {
      "anonymous": false,
      "inputs": [
        {
          "indexed": true,
          "internalType": "address",
          "name": "from",
          "type": "address"
        },
        {
          "indexed": true,
          "internalType": "address",
          "name": "to",
          "type": "address"
        },
        {
          "indexed": false,
          "internalType": "uint256",
          "name": "value",
          "type": "uint256"
        }
      ],
      "name": "Transfer",
      "type": "event"
    },
    {
      "inputs": [
        {
          "internalType": "address",
          "name": "owner",
          "type": "address"
        },
        {
          "internalType": "address",
          "name": "spender",
          "type": "address"
        }
      ],
      "name": "allowance",
      "outputs": [
        {
          "internalType": "uint256",
          "name": "",
          "type": "uint256"
        }
      ],
      "stateMutability": "view",
      "type": "function"
    },
    {
      "inputs": [
        {
          "internalType": "address",
          "name": "spender",
          "type": "address"
        },
        {
          "internalType": "uint256",
          "name": "amount",
          "type": "uint256"
        }
      ],
      "name": "approve",
      "outputs": [
        {
          "internalType": "bool",
          "name": "",
          "type": "bool"
        }
      ],
      "stateMutability": "nonpayable",
      "type": "function"
    },
    {
      "inputs": [
        {
          "internalType": "address",
          "name": "account",
          "type": "address"
        }
      ],
      "name": "balanceOf",
      "outputs": [
        {
          "internalType": "uint256",
          "name": "",
          "type": "uint256"
        }
      ],
      "stateMutability": "view",
      "type": "function"
    },
    {
      "inputs": [
        {
          "internalType": "uint256[]",
          "name": "tokenIds",
          "type": "uint256[]"
        }
      ],
      "name": "claim",
      "outputs": [],
      "stateMutability": "nonpayable",
      "type": "function"
    },
    {
      "inputs": [],
      "name": "crazyCamels",
      "outputs": [
        {
          "internalType": "address",
          "name": "",
          "type": "address"
        }
      ],
      "stateMutability": "view",
      "type": "function"
    },
    {
      "inputs": [],
      "name": "decimals",
      "outputs": [
        {
          "internalType": "uint8",
          "name": "",
          "type": "uint8"
        }
      ],
      "stateMutability": "view",
      "type": "function"
    },
    {
      "inputs": [
        {
          "internalType": "address",
          "name": "spender",
          "type": "address"
        },
        {
          "internalType": "uint256",
          "name": "subtractedValue",
          "type": "uint256"
        }
      ],
      "name": "decreaseAllowance",
      "outputs": [
        {
          "internalType": "bool",
          "name": "",
          "type": "bool"
        }
      ],
      "stateMutability": "nonpayable",
      "type": "function"
    },
    {
      "inputs": [
        {
          "internalType": "address",
          "name": "spender",
          "type": "address"
        },
        {
          "internalType": "uint256",
          "name": "addedValue",
          "type": "uint256"
        }
      ],
      "name": "increaseAllowance",
      "outputs": [
        {
          "internalType": "bool",
          "name": "",
          "type": "bool"
        }
      ],
      "stateMutability": "nonpayable",
      "type": "function"
    },
    {
      "inputs": [
        {
          "internalType": "address",
          "name": "to",
          "type": "address"
        },
        {
          "internalType": "uint256",
          "name": "amount",
          "type": "uint256"
        }
      ],
      "name": "mint",
      "outputs": [],
      "stateMutability": "nonpayable",
      "type": "function"
    },
    {
      "inputs": [],
      "name": "name",
      "outputs": [
        {
          "internalType": "string",
          "name": "",
          "type": "string"
        }
      ],
      "stateMutability": "view",
      "type": "function"
    },
    {
      "inputs": [],
      "name": "oasisGraveyard",
      "outputs": [
        {
          "internalType": "address",
          "name": "",
          "type": "address"
        }
      ],
      "stateMutability": "view",
      "type": "function"
    },
    {
      "inputs": [],
      "name": "owner",
      "outputs": [
        {
          "internalType": "address",
          "name": "",
          "type": "address"
        }
      ],
      "stateMutability": "view",
      "type": "function"
    },
    {
      "inputs": [],
      "name": "renounceOwnership",
      "outputs": [],
      "stateMutability": "nonpayable",
      "type": "function"
    },
    {
      "inputs": [
        {
          "internalType": "address",
          "name": "_crazyCamels",
          "type": "address"
        },
        {
          "internalType": "address",
          "name": "_oasisGraveyard",
          "type": "address"
        },
        {
          "internalType": "uint256",
          "name": "_tokensPerCrazyCamel",
          "type": "uint256"
        }
      ],
      "name": "setStateVariables",
      "outputs": [],
      "stateMutability": "nonpayable",
      "type": "function"
    },
    {
      "inputs": [],
      "name": "symbol",
      "outputs": [
        {
          "internalType": "string",
          "name": "",
          "type": "string"
        }
      ],
      "stateMutability": "view",
      "type": "function"
    },
    {
      "inputs": [],
      "name": "tokensPerCrazyCamel",
      "outputs": [
        {
          "internalType": "uint256",
          "name": "",
          "type": "uint256"
        }
      ],
      "stateMutability": "view",
      "type": "function"
    },
    {
      "inputs": [],
      "name": "totalSupply",
      "outputs": [
        {
          "internalType": "uint256",
          "name": "",
          "type": "uint256"
        }
      ],
      "stateMutability": "view",
      "type": "function"
    },
    {
      "inputs": [
        {
          "internalType": "address",
          "name": "to",
          "type": "address"
        },
        {
          "internalType": "uint256",
          "name": "amount",
          "type": "uint256"
        }
      ],
      "name": "transfer",
      "outputs": [
        {
          "internalType": "bool",
          "name": "",
          "type": "bool"
        }
      ],
      "stateMutability": "nonpayable",
      "type": "function"
    },
    {
      "inputs": [
        {
          "internalType": "address",
          "name": "from",
          "type": "address"
        },
        {
          "internalType": "address",
          "name": "to",
          "type": "address"
        },
        {
          "internalType": "uint256",
          "name": "amount",
          "type": "uint256"
        }
      ],
      "name": "transferFrom",
      "outputs": [
        {
          "internalType": "bool",
          "name": "",
          "type": "bool"
        }
      ],
      "stateMutability": "nonpayable",
      "type": "function"
    },
    {
      "inputs": [
        {
          "internalType": "address",
          "name": "newOwner",
          "type": "address"
        }
      ],
      "name": "transferOwnership",
      "outputs": [],
      "stateMutability": "nonpayable",
      "type": "function"
    }
  ],
  "devdoc": {
    "kind": "dev",
    "methods": {
      "allowance(address,address)": {
        "details": "See {IERC20-allowance}."
      },
      "approve(address,uint256)": {
        "details": "See {IERC20-approve}. NOTE: If `amount` is the maximum `uint256`, the allowance is not updated on `transferFrom`. This is semantically equivalent to an infinite approval. Requirements: - `spender` cannot be the zero address."
      },
      "balanceOf(address)": {
        "details": "See {IERC20-balanceOf}."
      },
      "decimals()": {
        "details": "Returns the number of decimals used to get its user representation. For example, if `decimals` equals `2`, a balance of `505` tokens should be displayed to a user as `5.05` (`505 / 10 ** 2`). Tokens usually opt for a value of 18, imitating the relationship between Ether and Wei. This is the value {ERC20} uses, unless this function is overridden; NOTE: This information is only used for _display_ purposes: it in no way affects any of the arithmetic of the contract, including {IERC20-balanceOf} and {IERC20-transfer}."
      },
      "decreaseAllowance(address,uint256)": {
        "details": "Atomically decreases the allowance granted to `spender` by the caller. This is an alternative to {approve} that can be used as a mitigation for problems described in {IERC20-approve}. Emits an {Approval} event indicating the updated allowance. Requirements: - `spender` cannot be the zero address. - `spender` must have allowance for the caller of at least `subtractedValue`."
      },
      "increaseAllowance(address,uint256)": {
        "details": "Atomically increases the allowance granted to `spender` by the caller. This is an alternative to {approve} that can be used as a mitigation for problems described in {IERC20-approve}. Emits an {Approval} event indicating the updated allowance. Requirements: - `spender` cannot be the zero address."
      },
      "name()": {
        "details": "Returns the name of the token."
      },
      "owner()": {
        "details": "Returns the address of the current owner."
      },
      "renounceOwnership()": {
        "details": "Leaves the contract without owner. It will not be possible to call `onlyOwner` functions anymore. Can only be called by the current owner. NOTE: Renouncing ownership will leave the contract without an owner, thereby removing any functionality that is only available to the owner."
      },
      "symbol()": {
        "details": "Returns the symbol of the token, usually a shorter version of the name."
      },
      "totalSupply()": {
        "details": "See {IERC20-totalSupply}."
      },
      "transfer(address,uint256)": {
        "details": "See {IERC20-transfer}. Requirements: - `to` cannot be the zero address. - the caller must have a balance of at least `amount`."
      },
      "transferFrom(address,address,uint256)": {
        "details": "See {IERC20-transferFrom}. Emits an {Approval} event indicating the updated allowance. This is not required by the EIP. See the note at the beginning of {ERC20}. NOTE: Does not update the allowance if the current allowance is the maximum `uint256`. Requirements: - `from` and `to` cannot be the zero address. - `from` must have a balance of at least `amount`. - the caller must have allowance for ``from``'s tokens of at least `amount`."
      },
      "transferOwnership(address)": {
        "details": "Transfers ownership of the contract to a new account (`newOwner`). Can only be called by the current owner."
      }
    },
    "version": 1
  },
  "evm": {
    "assembly": "    /* \"OasisToken.sol\":233:1753  contract OasisToken is ERC20, Ownable {... */\n  mstore(0x40, 0x80)\n    /* \"OasisToken.sol\":564:607  constructor() ERC20(\"OasisToken\", \"OST\") {} */\n  callvalue\n  dup1\n  iszero\n  tag_1\n  jumpi\n  0x00\n  dup1\n  revert\ntag_1:\n  pop\n    /* \"@openzeppelin/contracts/token/ERC20/ERC20.sol\":1978:2091   */\n  mload(0x40)\n  dup1\n  0x40\n  add\n  0x40\n  mstore\n  dup1\n  0x0a\n  dup2\n  mstore\n  0x20\n  add\n  shl(0xb1, 0x27b0b9b4b9aa37b5b2b7)\n  dup2\n  mstore\n  pop\n  mload(0x40)\n  dup1\n  0x40\n  add\n  0x40\n  mstore\n  dup1\n  0x03\n  dup2\n  mstore\n  0x20\n  add\n  shl(0xea, 0x13d4d5)\n  dup2\n  mstore\n  pop\n    /* \"@openzeppelin/contracts/token/ERC20/ERC20.sol\":2052:2057   */\n  dup2\n    /* \"@openzeppelin/contracts/token/ERC20/ERC20.sol\":2044:2049   */\n  0x03\n    /* \"@openzeppelin/contracts/token/ERC20/ERC20.sol\":2044:2057   */\n  swap1\n  dup1\n  mload\n  swap1\n  0x20\n  add\n  swap1\n  tag_6\n  swap3\n  swap2\n  swap1\n  tag_7\n  jump\t// in\ntag_6:\n  pop\n    /* \"@openzeppelin/contracts/token/ERC20/ERC20.sol\":2067:2084   */\n  dup1\n  mload\n  tag_8\n  swap1\n    /* \"@openzeppelin/contracts/token/ERC20/ERC20.sol\":2067:2074   */\n  0x04\n  swap1\n    /* \"@openzeppelin/contracts/token/ERC20/ERC20.sol\":2067:2084   */\n  0x20\n  dup5\n  add\n  swap1\n  tag_7\n  jump\t// in\ntag_8:\n  pop\n    /* \"@openzeppelin/contracts/token/ERC20/ERC20.sol\":1978:2091   */\n  pop\n  pop\n    /* \"@openzeppelin/contracts/access/Ownable.sol\":936:968   */\n  tag_10\n    /* \"@openzeppelin/contracts/access/Ownable.sol\":955:967   */\n  tag_11\n    /* \"@openzeppelin/contracts/access/Ownable.sol\":955:965   */\n  shl(0x20, tag_12)\n    /* \"@openzeppelin/contracts/access/Ownable.sol\":955:967   */\n  0x20\n  shr\n  jump\t// in\ntag_11:\n    /* \"@openzeppelin/contracts/access/Ownable.sol\":936:954   */\n  tag_13\n    /* \"@openzeppelin/contracts/access/Ownable.sol\":936:968   */\n  jump\t// in\ntag_10:\n    /* \"OasisToken.sol\":233:1753  contract OasisToken is ERC20, Ownable {... */\n  jump(tag_29)\n    /* \"@openzeppelin/contracts/utils/Context.sol\":640:736   */\ntag_12:\n    /* \"@openzeppelin/contracts/utils/Context.sol\":719:729   */\n  caller\n  swap1\n    /* \"@openzeppelin/contracts/utils/Context.sol\":640:736   */\n  jump\t// out\n    /* \"@openzeppelin/contracts/access/Ownable.sol\":2433:2620   */\ntag_13:\n    /* \"@openzeppelin/contracts/access/Ownable.sol\":2525:2531   */\n  0x05\n  dup1\n  sload\n  sub(shl(0xa0, 0x01), 0x01)\n    /* \"@openzeppelin/contracts/access/Ownable.sol\":2541:2558   */\n  dup4\n  dup2\n  and\n  not(sub(shl(0xa0, 0x01), 0x01))\n  dup4\n  and\n  dup2\n  or\n  swap1\n  swap4\n  sstore\n    /* \"@openzeppelin/contracts/access/Ownable.sol\":2573:2613   */\n  mload(0x40)\n    /* \"@openzeppelin/contracts/access/Ownable.sol\":2525:2531   */\n  swap2\n  and\n  swap2\n    /* \"@openzeppelin/contracts/access/Ownable.sol\":2541:2558   */\n  swap1\n    /* \"@openzeppelin/contracts/access/Ownable.sol\":2525:2531   */\n  dup3\n  swap1\n    /* \"@openzeppelin/contracts/access/Ownable.sol\":2573:2613   */\n  0x8be0079c531659141344cd1fd0a4f28419497f9722a3daafe3b4186f6b6457e0\n  swap1\n    /* \"@openzeppelin/contracts/access/Ownable.sol\":2506:2522   */\n  0x00\n  swap1\n    /* \"@openzeppelin/contracts/access/Ownable.sol\":2573:2613   */\n  log3\n    /* \"@openzeppelin/contracts/access/Ownable.sol\":2496:2620   */\n  pop\n    /* \"@openzeppelin/contracts/access/Ownable.sol\":2433:2620   */\n  pop\n  jump\t// out\n    /* \"OasisToken.sol\":233:1753  contract OasisToken is ERC20, Ownable {... */\ntag_7:\n  dup3\n  dup1\n  sload\n  tag_18\n  swap1\n  tag_19\n  jump\t// in\ntag_18:\n  swap1\n  0x00\n  mstore\n  keccak256(0x00, 0x20)\n  swap1\n  0x1f\n  add\n  0x20\n  swap1\n  div\n  dup2\n  add\n  swap3\n  dup3\n  tag_21\n  jumpi\n  0x00\n  dup6\n  sstore\n  jump(tag_24)\ntag_21:\n  dup3\n  0x1f\n  lt\n  tag_22\n  jumpi\n  dup1\n  mload\n  not(0xff)\n  and\n  dup4\n  dup1\n  add\n  or\n  dup6\n  sstore\n  jump(tag_24)\ntag_22:\n  dup3\n  dup1\n  add\n  0x01\n  add\n  dup6\n  sstore\n  dup3\n  iszero\n  tag_24\n  jumpi\n  swap2\n  dup3\n  add\ntag_23:\n  dup3\n  dup2\n  gt\n  iszero\n  tag_24\n  jumpi\n  dup3\n  mload\n  dup3\n  sstore\n  swap2\n  0x20\n  add\n  swap2\n  swap1\n  0x01\n  add\n  swap1\n  jump(tag_23)\ntag_24:\n  pop\n  tag_25\n  swap3\n  swap2\n  pop\n  tag_26\n  jump\t// in\ntag_25:\n  pop\n  swap1\n  jump\t// out\ntag_26:\ntag_27:\n  dup1\n  dup3\n  gt\n  iszero\n  tag_25\n  jumpi\n  0x00\n  dup2\n  sstore\n  0x01\n  add\n  jump(tag_27)\n    /* \"#utility.yul\":14:394   */\ntag_19:\n    /* \"#utility.yul\":93:94   */\n  0x01\n    /* \"#utility.yul\":89:101   */\n  dup2\n  dup2\n  shr\n  swap1\n    /* \"#utility.yul\":136:148   */\n  dup3\n  and\n  dup1\n    /* \"#utility.yul\":157:218   */\n  tag_31\n  jumpi\n    /* \"#utility.yul\":211:215   */\n  0x7f\n    /* \"#utility.yul\":203:209   */\n  dup3\n    /* \"#utility.yul\":199:216   */\n  and\n    /* \"#utility.yul\":189:216   */\n  swap2\n  pop\n    /* \"#utility.yul\":157:218   */\ntag_31:\n    /* \"#utility.yul\":264:266   */\n  0x20\n    /* \"#utility.yul\":256:262   */\n  dup3\n    /* \"#utility.yul\":253:267   */\n  lt\n    /* \"#utility.yul\":233:251   */\n  dup2\n    /* \"#utility.yul\":230:268   */\n  sub\n    /* \"#utility.yul\":227:388   */\n  tag_32\n  jumpi\n    /* \"#utility.yul\":310:320   */\n  0x4e487b71\n    /* \"#utility.yul\":305:308   */\n  0xe0\n    /* \"#utility.yul\":301:321   */\n  shl\n    /* \"#utility.yul\":298:299   */\n  0x00\n    /* \"#utility.yul\":291:322   */\n  mstore\n    /* \"#utility.yul\":345:349   */\n  0x22\n    /* \"#utility.yul\":342:343   */\n  0x04\n    /* \"#utility.yul\":335:350   */\n  mstore\n    /* \"#utility.yul\":373:377   */\n  0x24\n    /* \"#utility.yul\":370:371   */\n  0x00\n    /* \"#utility.yul\":363:378   */\n  revert\n    /* \"#utility.yul\":227:388   */\ntag_32:\n  pop\n    /* \"#utility.yul\":14:394   */\n  swap2\n  swap1\n  pop\n  jump\t// out\ntag_29:\n    /* \"OasisToken.sol\":233:1753  contract OasisToken is ERC20, Ownable {... */\n  dataSize(sub_0)\n  dup1\n  dataOffset(sub_0)\n  0x00\n  codecopy\n  0x00\n  return\nstop\n\nsub_0: assembly {\n        /* \"OasisToken.sol\":233:1753  contract OasisToken is ERC20, Ownable {... */\n      mstore(0x40, 0x80)\n      callvalue\n      dup1\n      iszero\n      tag_1\n      jumpi\n      0x00\n      dup1\n      revert\n    tag_1:\n      pop\n      jumpi(tag_2, lt(calldatasize, 0x04))\n      shr(0xe0, calldataload(0x00))\n      dup1\n      0x715018a6\n      gt\n      tag_23\n      jumpi\n      dup1\n      0xa9059cbb\n      gt\n      tag_24\n      jumpi\n      dup1\n      0xdd62ed3e\n      gt\n      tag_25\n      jumpi\n      dup1\n      0xdd62ed3e\n      eq\n      tag_20\n      jumpi\n      dup1\n      0xe9964871\n      eq\n      tag_21\n      jumpi\n      dup1\n      0xf2fde38b\n      eq\n      tag_22\n      jumpi\n      0x00\n      dup1\n      revert\n    tag_25:\n      dup1\n      0xa9059cbb\n      eq\n      tag_18\n      jumpi\n      dup1\n      0xc79476b5\n      eq\n      tag_19\n      jumpi\n      0x00\n      dup1\n      revert\n    tag_24:\n      dup1\n      0x95d89b41\n      gt\n      tag_26\n      jumpi\n      dup1\n      0x95d89b41\n      eq\n      tag_15\n      jumpi\n      dup1\n      0x9ff51675\n      eq\n      tag_16\n      jumpi\n      dup1\n      0xa457c2d7\n      eq\n      tag_17\n      jumpi\n      0x00\n      dup1\n      revert\n    tag_26:\n      dup1\n      0x715018a6\n      eq\n      tag_13\n      jumpi\n      dup1\n      0x8da5cb5b\n      eq\n      tag_14\n      jumpi\n      0x00\n      dup1\n      revert\n    tag_23:\n      dup1\n      0x313ce567\n      gt\n      tag_27\n      jumpi\n      dup1\n      0x40c10f19\n      gt\n      tag_28\n      jumpi\n      dup1\n      0x40c10f19\n      eq\n      tag_10\n      jumpi\n      dup1\n      0x6ba4c138\n      eq\n      tag_11\n      jumpi\n      dup1\n      0x70a08231\n      eq\n      tag_12\n      jumpi\n      0x00\n      dup1\n      revert\n    tag_28:\n      dup1\n      0x313ce567\n      eq\n      tag_8\n      jumpi\n      dup1\n      0x39509351\n      eq\n      tag_9\n      jumpi\n      0x00\n      dup1\n      revert\n    tag_27:\n      dup1\n      0x18160ddd\n      gt\n      tag_29\n      jumpi\n      dup1\n      0x18160ddd\n      eq\n      tag_5\n      jumpi\n      dup1\n      0x23b872dd\n      eq\n      tag_6\n      jumpi\n      dup1\n      0x2647cfac\n      eq\n      tag_7\n      jumpi\n      0x00\n      dup1\n      revert\n    tag_29:\n      dup1\n      0x06fdde03\n      eq\n      tag_3\n      jumpi\n      dup1\n      0x095ea7b3\n      eq\n      tag_4\n      jumpi\n    tag_2:\n      0x00\n      dup1\n      revert\n        /* \"@openzeppelin/contracts/token/ERC20/ERC20.sol\":2156:2254   */\n    tag_3:\n      tag_30\n      tag_31\n      jump\t// in\n    tag_30:\n      mload(0x40)\n      tag_32\n      swap2\n      swap1\n      tag_33\n      jump\t// in\n    tag_32:\n      mload(0x40)\n      dup1\n      swap2\n      sub\n      swap1\n      return\n        /* \"@openzeppelin/contracts/token/ERC20/ERC20.sol\":4433:4630   */\n    tag_4:\n      tag_34\n      tag_35\n      calldatasize\n      0x04\n      tag_36\n      jump\t// in\n    tag_35:\n      tag_37\n      jump\t// in\n    tag_34:\n      mload(0x40)\n        /* \"#utility.yul\":1260:1274   */\n      swap1\n      iszero\n        /* \"#utility.yul\":1253:1275   */\n      iszero\n        /* \"#utility.yul\":1235:1276   */\n      dup2\n      mstore\n        /* \"#utility.yul\":1223:1225   */\n      0x20\n        /* \"#utility.yul\":1208:1226   */\n      add\n        /* \"@openzeppelin/contracts/token/ERC20/ERC20.sol\":4433:4630   */\n      tag_32\n        /* \"#utility.yul\":1095:1282   */\n      jump\n        /* \"@openzeppelin/contracts/token/ERC20/ERC20.sol\":3244:3350   */\n    tag_5:\n        /* \"@openzeppelin/contracts/token/ERC20/ERC20.sol\":3331:3343   */\n      sload(0x02)\n        /* \"@openzeppelin/contracts/token/ERC20/ERC20.sol\":3244:3350   */\n    tag_40:\n      mload(0x40)\n        /* \"#utility.yul\":1433:1458   */\n      swap1\n      dup2\n      mstore\n        /* \"#utility.yul\":1421:1423   */\n      0x20\n        /* \"#utility.yul\":1406:1424   */\n      add\n        /* \"@openzeppelin/contracts/token/ERC20/ERC20.sol\":3244:3350   */\n      tag_32\n        /* \"#utility.yul\":1287:1464   */\n      jump\n        /* \"@openzeppelin/contracts/token/ERC20/ERC20.sol\":5192:5478   */\n    tag_6:\n      tag_34\n      tag_45\n      calldatasize\n      0x04\n      tag_46\n      jump\t// in\n    tag_45:\n      tag_47\n      jump\t// in\n        /* \"OasisToken.sol\":309:343  uint256 public tokensPerCrazyCamel */\n    tag_7:\n      tag_40\n      sload(0x06)\n      dup2\n      jump\n        /* \"@openzeppelin/contracts/token/ERC20/ERC20.sol\":3093:3184   */\n    tag_8:\n      mload(0x40)\n        /* \"@openzeppelin/contracts/token/ERC20/ERC20.sol\":3175:3177   */\n      0x12\n        /* \"#utility.yul\":2072:2108   */\n      dup2\n      mstore\n        /* \"#utility.yul\":2060:2062   */\n      0x20\n        /* \"#utility.yul\":2045:2063   */\n      add\n        /* \"@openzeppelin/contracts/token/ERC20/ERC20.sol\":3093:3184   */\n      tag_32\n        /* \"#utility.yul\":1930:2114   */\n      jump\n        /* \"@openzeppelin/contracts/token/ERC20/ERC20.sol\":5873:6107   */\n    tag_9:\n      tag_34\n      tag_57\n      calldatasize\n      0x04\n      tag_36\n      jump\t// in\n    tag_57:\n      tag_58\n      jump\t// in\n        /* \"OasisToken.sol\":952:1047  function mint(address to, uint256 amount) public onlyOwner {... */\n    tag_10:\n      tag_60\n      tag_61\n      calldatasize\n      0x04\n      tag_36\n      jump\t// in\n    tag_61:\n      tag_62\n      jump\t// in\n    tag_60:\n      stop\n        /* \"OasisToken.sol\":1089:1750  function claim(uint256[] memory tokenIds) external {... */\n    tag_11:\n      tag_60\n      tag_64\n      calldatasize\n      0x04\n      tag_65\n      jump\t// in\n    tag_64:\n      tag_66\n      jump\t// in\n        /* \"@openzeppelin/contracts/token/ERC20/ERC20.sol\":3408:3533   */\n    tag_12:\n      tag_40\n      tag_68\n      calldatasize\n      0x04\n      tag_69\n      jump\t// in\n    tag_68:\n      sub(shl(0xa0, 0x01), 0x01)\n        /* \"@openzeppelin/contracts/token/ERC20/ERC20.sol\":3508:3526   */\n      and\n        /* \"@openzeppelin/contracts/token/ERC20/ERC20.sol\":3482:3489   */\n      0x00\n        /* \"@openzeppelin/contracts/token/ERC20/ERC20.sol\":3508:3526   */\n      swap1\n      dup2\n      mstore\n      0x20\n      dup2\n      swap1\n      mstore\n      0x40\n      swap1\n      keccak256\n      sload\n      swap1\n        /* \"@openzeppelin/contracts/token/ERC20/ERC20.sol\":3408:3533   */\n      jump\n        /* \"@openzeppelin/contracts/access/Ownable.sol\":1831:1932   */\n    tag_13:\n      tag_60\n      tag_73\n      jump\t// in\n        /* \"@openzeppelin/contracts/access/Ownable.sol\":1201:1286   */\n    tag_14:\n        /* \"@openzeppelin/contracts/access/Ownable.sol\":1273:1279   */\n      and(sub(shl(0xa0, 0x01), 0x01), sload(0x05))\n        /* \"@openzeppelin/contracts/access/Ownable.sol\":1201:1286   */\n    tag_74:\n      mload(0x40)\n      sub(shl(0xa0, 0x01), 0x01)\n        /* \"#utility.yul\":3787:3842   */\n      swap1\n      swap2\n      and\n        /* \"#utility.yul\":3769:3843   */\n      dup2\n      mstore\n        /* \"#utility.yul\":3757:3759   */\n      0x20\n        /* \"#utility.yul\":3742:3760   */\n      add\n        /* \"@openzeppelin/contracts/access/Ownable.sol\":1201:1286   */\n      tag_32\n        /* \"#utility.yul\":3623:3849   */\n      jump\n        /* \"@openzeppelin/contracts/token/ERC20/ERC20.sol\":2367:2469   */\n    tag_15:\n      tag_30\n      tag_79\n      jump\t// in\n        /* \"OasisToken.sol\":383:412  address public oasisGraveyard */\n    tag_16:\n      sload(0x08)\n      tag_74\n      swap1\n      sub(shl(0xa0, 0x01), 0x01)\n      and\n      dup2\n      jump\n        /* \"@openzeppelin/contracts/token/ERC20/ERC20.sol\":6594:7021   */\n    tag_17:\n      tag_34\n      tag_85\n      calldatasize\n      0x04\n      tag_36\n      jump\t// in\n    tag_85:\n      tag_86\n      jump\t// in\n        /* \"@openzeppelin/contracts/token/ERC20/ERC20.sol\":3729:3918   */\n    tag_18:\n      tag_34\n      tag_89\n      calldatasize\n      0x04\n      tag_36\n      jump\t// in\n    tag_89:\n      tag_90\n      jump\t// in\n        /* \"OasisToken.sol\":350:376  address public crazyCamels */\n    tag_19:\n      sload(0x07)\n      tag_74\n      swap1\n      sub(shl(0xa0, 0x01), 0x01)\n      and\n      dup2\n      jump\n        /* \"@openzeppelin/contracts/token/ERC20/ERC20.sol\":3976:4125   */\n    tag_20:\n      tag_40\n      tag_96\n      calldatasize\n      0x04\n      tag_97\n      jump\t// in\n    tag_96:\n      sub(shl(0xa0, 0x01), 0x01)\n        /* \"@openzeppelin/contracts/token/ERC20/ERC20.sol\":4091:4109   */\n      swap2\n      dup3\n      and\n        /* \"@openzeppelin/contracts/token/ERC20/ERC20.sol\":4065:4072   */\n      0x00\n        /* \"@openzeppelin/contracts/token/ERC20/ERC20.sol\":4091:4109   */\n      swap1\n      dup2\n      mstore\n        /* \"@openzeppelin/contracts/token/ERC20/ERC20.sol\":4091:4102   */\n      0x01\n        /* \"@openzeppelin/contracts/token/ERC20/ERC20.sol\":4091:4109   */\n      0x20\n      swap1\n      dup2\n      mstore\n      0x40\n      dup1\n      dup4\n      keccak256\n        /* \"@openzeppelin/contracts/token/ERC20/ERC20.sol\":4091:4118   */\n      swap4\n      swap1\n      swap5\n      and\n      dup3\n      mstore\n      swap2\n      swap1\n      swap2\n      mstore\n      keccak256\n      sload\n      swap1\n        /* \"@openzeppelin/contracts/token/ERC20/ERC20.sol\":3976:4125   */\n      jump\n        /* \"OasisToken.sol\":646:944  function setStateVariables(... */\n    tag_21:\n      tag_60\n      tag_101\n      calldatasize\n      0x04\n      tag_46\n      jump\t// in\n    tag_101:\n      tag_102\n      jump\t// in\n        /* \"@openzeppelin/contracts/access/Ownable.sol\":2081:2279   */\n    tag_22:\n      tag_60\n      tag_104\n      calldatasize\n      0x04\n      tag_69\n      jump\t// in\n    tag_104:\n      tag_105\n      jump\t// in\n        /* \"@openzeppelin/contracts/token/ERC20/ERC20.sol\":2156:2254   */\n    tag_31:\n        /* \"@openzeppelin/contracts/token/ERC20/ERC20.sol\":2210:2223   */\n      0x60\n        /* \"@openzeppelin/contracts/token/ERC20/ERC20.sol\":2242:2247   */\n      0x03\n        /* \"@openzeppelin/contracts/token/ERC20/ERC20.sol\":2235:2247   */\n      dup1\n      sload\n      tag_107\n      swap1\n      tag_108\n      jump\t// in\n    tag_107:\n      dup1\n      0x1f\n      add\n      0x20\n      dup1\n      swap2\n      div\n      mul\n      0x20\n      add\n      mload(0x40)\n      swap1\n      dup2\n      add\n      0x40\n      mstore\n      dup1\n      swap3\n      swap2\n      swap1\n      dup2\n      dup2\n      mstore\n      0x20\n      add\n      dup3\n      dup1\n      sload\n      tag_109\n      swap1\n      tag_108\n      jump\t// in\n    tag_109:\n      dup1\n      iszero\n      tag_110\n      jumpi\n      dup1\n      0x1f\n      lt\n      tag_111\n      jumpi\n      0x0100\n      dup1\n      dup4\n      sload\n      div\n      mul\n      dup4\n      mstore\n      swap2\n      0x20\n      add\n      swap2\n      jump(tag_110)\n    tag_111:\n      dup3\n      add\n      swap2\n      swap1\n      0x00\n      mstore\n      keccak256(0x00, 0x20)\n      swap1\n    tag_112:\n      dup2\n      sload\n      dup2\n      mstore\n      swap1\n      0x01\n      add\n      swap1\n      0x20\n      add\n      dup1\n      dup4\n      gt\n      tag_112\n      jumpi\n      dup3\n      swap1\n      sub\n      0x1f\n      and\n      dup3\n      add\n      swap2\n    tag_110:\n      pop\n      pop\n      pop\n      pop\n      pop\n      swap1\n      pop\n        /* \"@openzeppelin/contracts/token/ERC20/ERC20.sol\":2156:2254   */\n      swap1\n      jump\t// out\n        /* \"@openzeppelin/contracts/token/ERC20/ERC20.sol\":4433:4630   */\n    tag_37:\n        /* \"@openzeppelin/contracts/token/ERC20/ERC20.sol\":4516:4520   */\n      0x00\n        /* \"@openzeppelin/contracts/utils/Context.sol\":719:729   */\n      caller\n        /* \"@openzeppelin/contracts/token/ERC20/ERC20.sol\":4570:4602   */\n      tag_116\n        /* \"@openzeppelin/contracts/utils/Context.sol\":719:729   */\n      dup2\n        /* \"@openzeppelin/contracts/token/ERC20/ERC20.sol\":4586:4593   */\n      dup6\n        /* \"@openzeppelin/contracts/token/ERC20/ERC20.sol\":4595:4601   */\n      dup6\n        /* \"@openzeppelin/contracts/token/ERC20/ERC20.sol\":4570:4578   */\n      tag_117\n        /* \"@openzeppelin/contracts/token/ERC20/ERC20.sol\":4570:4602   */\n      jump\t// in\n    tag_116:\n      pop\n        /* \"@openzeppelin/contracts/token/ERC20/ERC20.sol\":4619:4623   */\n      0x01\n      swap4\n        /* \"@openzeppelin/contracts/token/ERC20/ERC20.sol\":4433:4630   */\n      swap3\n      pop\n      pop\n      pop\n      jump\t// out\n        /* \"@openzeppelin/contracts/token/ERC20/ERC20.sol\":5192:5478   */\n    tag_47:\n        /* \"@openzeppelin/contracts/token/ERC20/ERC20.sol\":5319:5323   */\n      0x00\n        /* \"@openzeppelin/contracts/utils/Context.sol\":719:729   */\n      caller\n        /* \"@openzeppelin/contracts/token/ERC20/ERC20.sol\":5375:5413   */\n      tag_121\n        /* \"@openzeppelin/contracts/token/ERC20/ERC20.sol\":5391:5395   */\n      dup6\n        /* \"@openzeppelin/contracts/utils/Context.sol\":719:729   */\n      dup3\n        /* \"@openzeppelin/contracts/token/ERC20/ERC20.sol\":5406:5412   */\n      dup6\n        /* \"@openzeppelin/contracts/token/ERC20/ERC20.sol\":5375:5390   */\n      tag_122\n        /* \"@openzeppelin/contracts/token/ERC20/ERC20.sol\":5375:5413   */\n      jump\t// in\n    tag_121:\n        /* \"@openzeppelin/contracts/token/ERC20/ERC20.sol\":5423:5450   */\n      tag_123\n        /* \"@openzeppelin/contracts/token/ERC20/ERC20.sol\":5433:5437   */\n      dup6\n        /* \"@openzeppelin/contracts/token/ERC20/ERC20.sol\":5439:5441   */\n      dup6\n        /* \"@openzeppelin/contracts/token/ERC20/ERC20.sol\":5443:5449   */\n      dup6\n        /* \"@openzeppelin/contracts/token/ERC20/ERC20.sol\":5423:5432   */\n      tag_124\n        /* \"@openzeppelin/contracts/token/ERC20/ERC20.sol\":5423:5450   */\n      jump\t// in\n    tag_123:\n      pop\n        /* \"@openzeppelin/contracts/token/ERC20/ERC20.sol\":5467:5471   */\n      0x01\n      swap5\n        /* \"@openzeppelin/contracts/token/ERC20/ERC20.sol\":5192:5478   */\n      swap4\n      pop\n      pop\n      pop\n      pop\n      jump\t// out\n        /* \"@openzeppelin/contracts/token/ERC20/ERC20.sol\":5873:6107   */\n    tag_58:\n        /* \"@openzeppelin/contracts/utils/Context.sol\":719:729   */\n      caller\n        /* \"@openzeppelin/contracts/token/ERC20/ERC20.sol\":5961:5965   */\n      0x00\n        /* \"@openzeppelin/contracts/token/ERC20/ERC20.sol\":4091:4109   */\n      dup2\n      dup2\n      mstore\n        /* \"@openzeppelin/contracts/token/ERC20/ERC20.sol\":4091:4102   */\n      0x01\n        /* \"@openzeppelin/contracts/token/ERC20/ERC20.sol\":4091:4109   */\n      0x20\n      swap1\n      dup2\n      mstore\n      0x40\n      dup1\n      dup4\n      keccak256\n      sub(shl(0xa0, 0x01), 0x01)\n        /* \"@openzeppelin/contracts/token/ERC20/ERC20.sol\":4091:4118   */\n      dup8\n      and\n      dup5\n      mstore\n      swap1\n      swap2\n      mstore\n      dup2\n      keccak256\n      sload\n        /* \"@openzeppelin/contracts/token/ERC20/ERC20.sol\":5961:5965   */\n      swap1\n      swap2\n        /* \"@openzeppelin/contracts/utils/Context.sol\":719:729   */\n      swap1\n        /* \"@openzeppelin/contracts/token/ERC20/ERC20.sol\":6015:6079   */\n      tag_116\n      swap1\n        /* \"@openzeppelin/contracts/utils/Context.sol\":719:729   */\n      dup3\n      swap1\n        /* \"@openzeppelin/contracts/token/ERC20/ERC20.sol\":4091:4118   */\n      dup7\n      swap1\n        /* \"@openzeppelin/contracts/token/ERC20/ERC20.sol\":6040:6078   */\n      tag_130\n      swap1\n        /* \"@openzeppelin/contracts/token/ERC20/ERC20.sol\":6068:6078   */\n      dup8\n      swap1\n        /* \"@openzeppelin/contracts/token/ERC20/ERC20.sol\":6040:6078   */\n      tag_131\n      jump\t// in\n    tag_130:\n        /* \"@openzeppelin/contracts/token/ERC20/ERC20.sol\":6015:6023   */\n      tag_117\n        /* \"@openzeppelin/contracts/token/ERC20/ERC20.sol\":6015:6079   */\n      jump\t// in\n        /* \"OasisToken.sol\":952:1047  function mint(address to, uint256 amount) public onlyOwner {... */\n    tag_62:\n        /* \"@openzeppelin/contracts/access/Ownable.sol\":1094:1107   */\n      tag_133\n        /* \"@openzeppelin/contracts/access/Ownable.sol\":1094:1105   */\n      tag_134\n        /* \"@openzeppelin/contracts/access/Ownable.sol\":1094:1107   */\n      jump\t// in\n    tag_133:\n        /* \"OasisToken.sol\":1022:1039  _mint(to, amount) */\n      tag_136\n        /* \"OasisToken.sol\":1028:1030  to */\n      dup3\n        /* \"OasisToken.sol\":1032:1038  amount */\n      dup3\n        /* \"OasisToken.sol\":1022:1027  _mint */\n      tag_137\n        /* \"OasisToken.sol\":1022:1039  _mint(to, amount) */\n      jump\t// in\n    tag_136:\n        /* \"OasisToken.sol\":952:1047  function mint(address to, uint256 amount) public onlyOwner {... */\n      pop\n      pop\n      jump\t// out\n        /* \"OasisToken.sol\":1089:1750  function claim(uint256[] memory tokenIds) external {... */\n    tag_66:\n        /* \"OasisToken.sol\":1172:1187  tokenIds.length */\n      dup1\n      mload\n        /* \"OasisToken.sol\":1215:1216  1 */\n      0x01\n        /* \"OasisToken.sol\":1202:1216  burnAmount < 1 */\n      dup2\n      lt\n        /* \"OasisToken.sol\":1198:1254  if (burnAmount < 1) revert(\"Must burn at least 1 token\") */\n      iszero\n      tag_139\n      jumpi\n        /* \"OasisToken.sol\":1218:1254  revert(\"Must burn at least 1 token\") */\n      mload(0x40)\n      shl(0xe5, 0x461bcd)\n      dup2\n      mstore\n        /* \"#utility.yul\":5099:5101   */\n      0x20\n        /* \"OasisToken.sol\":1218:1254  revert(\"Must burn at least 1 token\") */\n      0x04\n      dup3\n      add\n        /* \"#utility.yul\":5081:5102   */\n      mstore\n        /* \"#utility.yul\":5138:5140   */\n      0x1a\n        /* \"#utility.yul\":5118:5136   */\n      0x24\n      dup3\n      add\n        /* \"#utility.yul\":5111:5141   */\n      mstore\n        /* \"#utility.yul\":5177:5205   */\n      0x4d757374206275726e206174206c65617374203120746f6b656e000000000000\n        /* \"#utility.yul\":5157:5175   */\n      0x44\n      dup3\n      add\n        /* \"#utility.yul\":5150:5206   */\n      mstore\n        /* \"#utility.yul\":5223:5241   */\n      0x64\n      add\n        /* \"OasisToken.sol\":1218:1254  revert(\"Must burn at least 1 token\") */\n    tag_140:\n      mload(0x40)\n      dup1\n      swap2\n      sub\n      swap1\n      revert\n        /* \"OasisToken.sol\":1198:1254  if (burnAmount < 1) revert(\"Must burn at least 1 token\") */\n    tag_139:\n        /* \"OasisToken.sol\":1272:1281  uint256 i */\n      0x00\n        /* \"OasisToken.sol\":1267:1418  for (uint256 i = 0; i < burnAmount; i++)... */\n    tag_142:\n        /* \"OasisToken.sol\":1291:1301  burnAmount */\n      dup2\n        /* \"OasisToken.sol\":1287:1288  i */\n      dup2\n        /* \"OasisToken.sol\":1287:1301  i < burnAmount */\n      lt\n        /* \"OasisToken.sol\":1267:1418  for (uint256 i = 0; i < burnAmount; i++)... */\n      iszero\n      tag_143\n      jumpi\n        /* \"OasisToken.sol\":1333:1344  crazyCamels */\n      sload(0x07)\n        /* \"OasisToken.sol\":1358:1369  tokenIds[i] */\n      dup4\n      mload\n        /* \"OasisToken.sol\":1382:1386  this */\n      address\n      swap2\n      sub(shl(0xa0, 0x01), 0x01)\n        /* \"OasisToken.sol\":1333:1344  crazyCamels */\n      and\n      swap1\n        /* \"OasisToken.sol\":1325:1357  IERC721(crazyCamels).getApproved */\n      0x081812fc\n      swap1\n        /* \"OasisToken.sol\":1358:1366  tokenIds */\n      dup7\n      swap1\n        /* \"OasisToken.sol\":1367:1368  i */\n      dup6\n      swap1\n        /* \"OasisToken.sol\":1358:1369  tokenIds[i] */\n      dup2\n      lt\n      tag_146\n      jumpi\n      tag_146\n      tag_147\n      jump\t// in\n    tag_146:\n      0x20\n      mul\n      0x20\n      add\n      add\n      mload\n        /* \"OasisToken.sol\":1325:1370  IERC721(crazyCamels).getApproved(tokenIds[i]) */\n      mload(0x40)\n      dup3\n      0xffffffff\n      and\n      0xe0\n      shl\n      dup2\n      mstore\n      0x04\n      add\n      tag_148\n      swap2\n        /* \"#utility.yul\":1433:1458   */\n      dup2\n      mstore\n        /* \"#utility.yul\":1421:1423   */\n      0x20\n        /* \"#utility.yul\":1406:1424   */\n      add\n      swap1\n        /* \"#utility.yul\":1287:1464   */\n      jump\n        /* \"OasisToken.sol\":1325:1370  IERC721(crazyCamels).getApproved(tokenIds[i]) */\n    tag_148:\n      0x20\n      mload(0x40)\n      dup1\n      dup4\n      sub\n      dup2\n      dup7\n      gas\n      staticcall\n      iszero\n      dup1\n      iszero\n      tag_150\n      jumpi\n      returndatasize\n      0x00\n      dup1\n      returndatacopy\n      revert(0x00, returndatasize)\n    tag_150:\n      pop\n      pop\n      pop\n      pop\n      mload(0x40)\n      returndatasize\n      not(0x1f)\n      0x1f\n      dup3\n      add\n      and\n      dup3\n      add\n      dup1\n      0x40\n      mstore\n      pop\n      dup2\n      add\n      swap1\n      tag_151\n      swap2\n      swap1\n      tag_152\n      jump\t// in\n    tag_151:\n      sub(shl(0xa0, 0x01), 0x01)\n        /* \"OasisToken.sol\":1325:1387  IERC721(crazyCamels).getApproved(tokenIds[i]) != address(this) */\n      and\n      eq\n        /* \"OasisToken.sol\":1321:1418  if (IERC721(crazyCamels).getApproved(tokenIds[i]) != address(this)) revert(\"Must Approve Tokens\") */\n      tag_153\n      jumpi\n        /* \"OasisToken.sol\":1389:1418  revert(\"Must Approve Tokens\") */\n      mload(0x40)\n      shl(0xe5, 0x461bcd)\n      dup2\n      mstore\n        /* \"#utility.yul\":5842:5844   */\n      0x20\n        /* \"OasisToken.sol\":1389:1418  revert(\"Must Approve Tokens\") */\n      0x04\n      dup3\n      add\n        /* \"#utility.yul\":5824:5845   */\n      mstore\n        /* \"#utility.yul\":5881:5883   */\n      0x13\n        /* \"#utility.yul\":5861:5879   */\n      0x24\n      dup3\n      add\n        /* \"#utility.yul\":5854:5884   */\n      mstore\n        /* \"#utility.yul\":5920:5941   */\n      0x4d75737420417070726f766520546f6b656e7300000000000000000000000000\n        /* \"#utility.yul\":5900:5918   */\n      0x44\n      dup3\n      add\n        /* \"#utility.yul\":5893:5942   */\n      mstore\n        /* \"#utility.yul\":5959:5977   */\n      0x64\n      add\n        /* \"OasisToken.sol\":1389:1418  revert(\"Must Approve Tokens\") */\n      tag_140\n        /* \"#utility.yul\":5640:5983   */\n      jump\n        /* \"OasisToken.sol\":1321:1418  if (IERC721(crazyCamels).getApproved(tokenIds[i]) != address(this)) revert(\"Must Approve Tokens\") */\n    tag_153:\n        /* \"OasisToken.sol\":1303:1306  i++ */\n      dup1\n      tag_156\n      dup2\n      tag_157\n      jump\t// in\n    tag_156:\n      swap2\n      pop\n      pop\n        /* \"OasisToken.sol\":1267:1418  for (uint256 i = 0; i < burnAmount; i++)... */\n      jump(tag_142)\n    tag_143:\n      pop\n        /* \"OasisToken.sol\":1436:1445  uint256 i */\n      0x00\n        /* \"OasisToken.sol\":1431:1559  for (uint256 i = 0; i < burnAmount; i++)... */\n    tag_158:\n        /* \"OasisToken.sol\":1455:1465  burnAmount */\n      dup2\n        /* \"OasisToken.sol\":1451:1452  i */\n      dup2\n        /* \"OasisToken.sol\":1451:1465  i < burnAmount */\n      lt\n        /* \"OasisToken.sol\":1431:1559  for (uint256 i = 0; i < burnAmount; i++)... */\n      iszero\n      tag_159\n      jumpi\n        /* \"OasisToken.sol\":1493:1504  crazyCamels */\n      sload(0x07)\n        /* \"OasisToken.sol\":1531:1545  oasisGraveyard */\n      sload(0x08)\n        /* \"OasisToken.sol\":1547:1558  tokenIds[i] */\n      dup5\n      mload\n      sub(shl(0xa0, 0x01), 0x01)\n        /* \"OasisToken.sol\":1493:1504  crazyCamels */\n      swap3\n      dup4\n      and\n      swap3\n        /* \"OasisToken.sol\":1485:1518  IERC721(crazyCamels).transferFrom */\n      0x23b872dd\n      swap3\n        /* \"OasisToken.sol\":1519:1529  msg.sender */\n      caller\n      swap3\n        /* \"OasisToken.sol\":1531:1545  oasisGraveyard */\n      swap2\n      and\n      swap1\n        /* \"OasisToken.sol\":1547:1555  tokenIds */\n      dup8\n      swap1\n        /* \"OasisToken.sol\":1556:1557  i */\n      dup7\n      swap1\n        /* \"OasisToken.sol\":1547:1558  tokenIds[i] */\n      dup2\n      lt\n      tag_162\n      jumpi\n      tag_162\n      tag_147\n      jump\t// in\n    tag_162:\n      0x20\n      swap1\n      dup2\n      mul\n      swap2\n      swap1\n      swap2\n      add\n      add\n      mload\n        /* \"OasisToken.sol\":1485:1559  IERC721(crazyCamels).transferFrom(msg.sender, oasisGraveyard, tokenIds[i]) */\n      mload(0x40)\n      0xffffffff00000000000000000000000000000000000000000000000000000000\n      0xe0\n      dup7\n      swap1\n      shl\n      and\n      dup2\n      mstore\n      sub(shl(0xa0, 0x01), 0x01)\n        /* \"#utility.yul\":6409:6424   */\n      swap4\n      dup5\n      and\n        /* \"OasisToken.sol\":1485:1559  IERC721(crazyCamels).transferFrom(msg.sender, oasisGraveyard, tokenIds[i]) */\n      0x04\n      dup3\n      add\n        /* \"#utility.yul\":6391:6425   */\n      mstore\n        /* \"#utility.yul\":6461:6476   */\n      swap3\n      swap1\n      swap2\n      and\n        /* \"#utility.yul\":6441:6459   */\n      0x24\n      dup4\n      add\n        /* \"#utility.yul\":6434:6477   */\n      mstore\n        /* \"#utility.yul\":6493:6511   */\n      0x44\n      dup3\n      add\n        /* \"#utility.yul\":6486:6520   */\n      mstore\n        /* \"#utility.yul\":6303:6321   */\n      0x64\n      add\n        /* \"OasisToken.sol\":1485:1559  IERC721(crazyCamels).transferFrom(msg.sender, oasisGraveyard, tokenIds[i]) */\n      0x00\n      mload(0x40)\n      dup1\n      dup4\n      sub\n      dup2\n      0x00\n      dup8\n      dup1\n      extcodesize\n      iszero\n      dup1\n      iszero\n      tag_165\n      jumpi\n      0x00\n      dup1\n      revert\n    tag_165:\n      pop\n      gas\n      call\n      iszero\n      dup1\n      iszero\n      tag_167\n      jumpi\n      returndatasize\n      0x00\n      dup1\n      returndatacopy\n      revert(0x00, returndatasize)\n    tag_167:\n      pop\n      pop\n      pop\n      pop\n        /* \"OasisToken.sol\":1467:1470  i++ */\n      dup1\n      dup1\n      tag_168\n      swap1\n      tag_157\n      jump\t// in\n    tag_168:\n      swap2\n      pop\n      pop\n        /* \"OasisToken.sol\":1431:1559  for (uint256 i = 0; i < burnAmount; i++)... */\n      jump(tag_158)\n    tag_159:\n      pop\n        /* \"OasisToken.sol\":1572:1595  uint256 claimableAmount */\n      0x00\n        /* \"OasisToken.sol\":1611:1630  tokensPerCrazyCamel */\n      sload(0x06)\n        /* \"OasisToken.sol\":1598:1608  burnAmount */\n      dup3\n        /* \"OasisToken.sol\":1598:1630  burnAmount * tokensPerCrazyCamel */\n      tag_169\n      swap2\n      swap1\n      tag_170\n      jump\t// in\n    tag_169:\n        /* \"OasisToken.sol\":1572:1630  uint256 claimableAmount = burnAmount * tokensPerCrazyCamel */\n      swap1\n      pop\n        /* \"OasisToken.sol\":1641:1675  _mint(msg.sender, claimableAmount) */\n      tag_171\n        /* \"OasisToken.sol\":1647:1657  msg.sender */\n      caller\n        /* \"OasisToken.sol\":1659:1674  claimableAmount */\n      dup3\n        /* \"OasisToken.sol\":1641:1646  _mint */\n      tag_137\n        /* \"OasisToken.sol\":1641:1675  _mint(msg.sender, claimableAmount) */\n      jump\t// in\n    tag_171:\n        /* \"OasisToken.sol\":1716:1731  claimableAmount */\n      dup1\n        /* \"OasisToken.sol\":1704:1714  msg.sender */\n      caller\n      sub(shl(0xa0, 0x01), 0x01)\n        /* \"OasisToken.sol\":1693:1742  ClaimedOST(msg.sender, claimableAmount, tokenIds) */\n      and\n      0xe95b1afb8a6019e43b6906420999d1c23995e338d5e7016e96f61b605fa96e26\n        /* \"OasisToken.sol\":1733:1741  tokenIds */\n      dup6\n        /* \"OasisToken.sol\":1693:1742  ClaimedOST(msg.sender, claimableAmount, tokenIds) */\n      mload(0x40)\n      tag_172\n      swap2\n      swap1\n      tag_173\n      jump\t// in\n    tag_172:\n      mload(0x40)\n      dup1\n      swap2\n      sub\n      swap1\n      log3\n        /* \"OasisToken.sol\":1140:1750  {... */\n      pop\n      pop\n        /* \"OasisToken.sol\":1089:1750  function claim(uint256[] memory tokenIds) external {... */\n      pop\n      jump\t// out\n        /* \"@openzeppelin/contracts/access/Ownable.sol\":1831:1932   */\n    tag_73:\n        /* \"@openzeppelin/contracts/access/Ownable.sol\":1094:1107   */\n      tag_176\n        /* \"@openzeppelin/contracts/access/Ownable.sol\":1094:1105   */\n      tag_134\n        /* \"@openzeppelin/contracts/access/Ownable.sol\":1094:1107   */\n      jump\t// in\n    tag_176:\n        /* \"@openzeppelin/contracts/access/Ownable.sol\":1895:1925   */\n      tag_178\n        /* \"@openzeppelin/contracts/access/Ownable.sol\":1922:1923   */\n      0x00\n        /* \"@openzeppelin/contracts/access/Ownable.sol\":1895:1913   */\n      tag_179\n        /* \"@openzeppelin/contracts/access/Ownable.sol\":1895:1925   */\n      jump\t// in\n    tag_178:\n        /* \"@openzeppelin/contracts/access/Ownable.sol\":1831:1932   */\n      jump\t// out\n        /* \"@openzeppelin/contracts/token/ERC20/ERC20.sol\":2367:2469   */\n    tag_79:\n        /* \"@openzeppelin/contracts/token/ERC20/ERC20.sol\":2423:2436   */\n      0x60\n        /* \"@openzeppelin/contracts/token/ERC20/ERC20.sol\":2455:2462   */\n      0x04\n        /* \"@openzeppelin/contracts/token/ERC20/ERC20.sol\":2448:2462   */\n      dup1\n      sload\n      tag_107\n      swap1\n      tag_108\n      jump\t// in\n        /* \"@openzeppelin/contracts/token/ERC20/ERC20.sol\":6594:7021   */\n    tag_86:\n        /* \"@openzeppelin/contracts/utils/Context.sol\":719:729   */\n      caller\n        /* \"@openzeppelin/contracts/token/ERC20/ERC20.sol\":6687:6691   */\n      0x00\n        /* \"@openzeppelin/contracts/token/ERC20/ERC20.sol\":4091:4109   */\n      dup2\n      dup2\n      mstore\n        /* \"@openzeppelin/contracts/token/ERC20/ERC20.sol\":4091:4102   */\n      0x01\n        /* \"@openzeppelin/contracts/token/ERC20/ERC20.sol\":4091:4109   */\n      0x20\n      swap1\n      dup2\n      mstore\n      0x40\n      dup1\n      dup4\n      keccak256\n      sub(shl(0xa0, 0x01), 0x01)\n        /* \"@openzeppelin/contracts/token/ERC20/ERC20.sol\":4091:4118   */\n      dup8\n      and\n      dup5\n      mstore\n      swap1\n      swap2\n      mstore\n      dup2\n      keccak256\n      sload\n        /* \"@openzeppelin/contracts/token/ERC20/ERC20.sol\":6687:6691   */\n      swap1\n      swap2\n        /* \"@openzeppelin/contracts/utils/Context.sol\":719:729   */\n      swap1\n        /* \"@openzeppelin/contracts/token/ERC20/ERC20.sol\":6831:6846   */\n      dup4\n        /* \"@openzeppelin/contracts/token/ERC20/ERC20.sol\":6811:6827   */\n      dup2\n        /* \"@openzeppelin/contracts/token/ERC20/ERC20.sol\":6811:6846   */\n      lt\n      iszero\n        /* \"@openzeppelin/contracts/token/ERC20/ERC20.sol\":6803:6888   */\n      tag_190\n      jumpi\n      mload(0x40)\n      shl(0xe5, 0x461bcd)\n      dup2\n      mstore\n        /* \"#utility.yul\":7543:7545   */\n      0x20\n        /* \"@openzeppelin/contracts/token/ERC20/ERC20.sol\":6803:6888   */\n      0x04\n      dup3\n      add\n        /* \"#utility.yul\":7525:7546   */\n      mstore\n        /* \"#utility.yul\":7582:7584   */\n      0x25\n        /* \"#utility.yul\":7562:7580   */\n      0x24\n      dup3\n      add\n        /* \"#utility.yul\":7555:7585   */\n      mstore\n        /* \"#utility.yul\":7621:7655   */\n      0x45524332303a2064656372656173656420616c6c6f77616e63652062656c6f77\n        /* \"#utility.yul\":7601:7619   */\n      0x44\n      dup3\n      add\n        /* \"#utility.yul\":7594:7656   */\n      mstore\n        /* \"#utility.yul\":7692:7699   */\n      0x207a65726f000000000000000000000000000000000000000000000000000000\n        /* \"#utility.yul\":7672:7690   */\n      0x64\n      dup3\n      add\n        /* \"#utility.yul\":7665:7700   */\n      mstore\n        /* \"#utility.yul\":7717:7736   */\n      0x84\n      add\n        /* \"@openzeppelin/contracts/token/ERC20/ERC20.sol\":6803:6888   */\n      tag_140\n        /* \"#utility.yul\":7341:7742   */\n      jump\n        /* \"@openzeppelin/contracts/token/ERC20/ERC20.sol\":6803:6888   */\n    tag_190:\n        /* \"@openzeppelin/contracts/token/ERC20/ERC20.sol\":6922:6982   */\n      tag_123\n        /* \"@openzeppelin/contracts/token/ERC20/ERC20.sol\":6931:6936   */\n      dup3\n        /* \"@openzeppelin/contracts/token/ERC20/ERC20.sol\":6938:6945   */\n      dup7\n        /* \"@openzeppelin/contracts/token/ERC20/ERC20.sol\":6966:6981   */\n      dup7\n        /* \"@openzeppelin/contracts/token/ERC20/ERC20.sol\":6947:6963   */\n      dup5\n        /* \"@openzeppelin/contracts/token/ERC20/ERC20.sol\":6947:6981   */\n      sub\n        /* \"@openzeppelin/contracts/token/ERC20/ERC20.sol\":6922:6930   */\n      tag_117\n        /* \"@openzeppelin/contracts/token/ERC20/ERC20.sol\":6922:6982   */\n      jump\t// in\n        /* \"@openzeppelin/contracts/token/ERC20/ERC20.sol\":3729:3918   */\n    tag_90:\n        /* \"@openzeppelin/contracts/token/ERC20/ERC20.sol\":3808:3812   */\n      0x00\n        /* \"@openzeppelin/contracts/utils/Context.sol\":719:729   */\n      caller\n        /* \"@openzeppelin/contracts/token/ERC20/ERC20.sol\":3862:3890   */\n      tag_116\n        /* \"@openzeppelin/contracts/utils/Context.sol\":719:729   */\n      dup2\n        /* \"@openzeppelin/contracts/token/ERC20/ERC20.sol\":3879:3881   */\n      dup6\n        /* \"@openzeppelin/contracts/token/ERC20/ERC20.sol\":3883:3889   */\n      dup6\n        /* \"@openzeppelin/contracts/token/ERC20/ERC20.sol\":3862:3871   */\n      tag_124\n        /* \"@openzeppelin/contracts/token/ERC20/ERC20.sol\":3862:3890   */\n      jump\t// in\n        /* \"OasisToken.sol\":646:944  function setStateVariables(... */\n    tag_102:\n        /* \"@openzeppelin/contracts/access/Ownable.sol\":1094:1107   */\n      tag_199\n        /* \"@openzeppelin/contracts/access/Ownable.sol\":1094:1105   */\n      tag_134\n        /* \"@openzeppelin/contracts/access/Ownable.sol\":1094:1107   */\n      jump\t// in\n    tag_199:\n        /* \"OasisToken.sol\":814:825  crazyCamels */\n      0x07\n        /* \"OasisToken.sol\":814:840  crazyCamels = _crazyCamels */\n      dup1\n      sload\n      sub(shl(0xa0, 0x01), 0x01)\n      swap5\n      dup6\n      and\n      not(0xffffffffffffffffffffffffffffffffffffffff)\n      swap2\n      dup3\n      and\n      or\n      swap1\n      swap2\n      sstore\n        /* \"OasisToken.sol\":851:865  oasisGraveyard */\n      0x08\n        /* \"OasisToken.sol\":851:883  oasisGraveyard = _oasisGraveyard */\n      dup1\n      sload\n      swap4\n      swap1\n      swap5\n      and\n      swap3\n      and\n      swap2\n      swap1\n      swap2\n      or\n      swap1\n      swap2\n      sstore\n        /* \"OasisToken.sol\":894:913  tokensPerCrazyCamel */\n      0x06\n        /* \"OasisToken.sol\":894:936  tokensPerCrazyCamel = _tokensPerCrazyCamel */\n      sstore\n        /* \"OasisToken.sol\":646:944  function setStateVariables(... */\n      jump\t// out\n        /* \"@openzeppelin/contracts/access/Ownable.sol\":2081:2279   */\n    tag_105:\n        /* \"@openzeppelin/contracts/access/Ownable.sol\":1094:1107   */\n      tag_202\n        /* \"@openzeppelin/contracts/access/Ownable.sol\":1094:1105   */\n      tag_134\n        /* \"@openzeppelin/contracts/access/Ownable.sol\":1094:1107   */\n      jump\t// in\n    tag_202:\n      sub(shl(0xa0, 0x01), 0x01)\n        /* \"@openzeppelin/contracts/access/Ownable.sol\":2169:2191   */\n      dup2\n      and\n        /* \"@openzeppelin/contracts/access/Ownable.sol\":2161:2234   */\n      tag_204\n      jumpi\n      mload(0x40)\n      shl(0xe5, 0x461bcd)\n      dup2\n      mstore\n        /* \"#utility.yul\":7949:7951   */\n      0x20\n        /* \"@openzeppelin/contracts/access/Ownable.sol\":2161:2234   */\n      0x04\n      dup3\n      add\n        /* \"#utility.yul\":7931:7952   */\n      mstore\n        /* \"#utility.yul\":7988:7990   */\n      0x26\n        /* \"#utility.yul\":7968:7986   */\n      0x24\n      dup3\n      add\n        /* \"#utility.yul\":7961:7991   */\n      mstore\n        /* \"#utility.yul\":8027:8061   */\n      0x4f776e61626c653a206e6577206f776e657220697320746865207a65726f2061\n        /* \"#utility.yul\":8007:8025   */\n      0x44\n      dup3\n      add\n        /* \"#utility.yul\":8000:8062   */\n      mstore\n        /* \"#utility.yul\":8098:8106   */\n      0x6464726573730000000000000000000000000000000000000000000000000000\n        /* \"#utility.yul\":8078:8096   */\n      0x64\n      dup3\n      add\n        /* \"#utility.yul\":8071:8107   */\n      mstore\n        /* \"#utility.yul\":8124:8143   */\n      0x84\n      add\n        /* \"@openzeppelin/contracts/access/Ownable.sol\":2161:2234   */\n      tag_140\n        /* \"#utility.yul\":7747:8149   */\n      jump\n        /* \"@openzeppelin/contracts/access/Ownable.sol\":2161:2234   */\n    tag_204:\n        /* \"@openzeppelin/contracts/access/Ownable.sol\":2244:2272   */\n      tag_207\n        /* \"@openzeppelin/contracts/access/Ownable.sol\":2263:2271   */\n      dup2\n        /* \"@openzeppelin/contracts/access/Ownable.sol\":2244:2262   */\n      tag_179\n        /* \"@openzeppelin/contracts/access/Ownable.sol\":2244:2272   */\n      jump\t// in\n    tag_207:\n        /* \"@openzeppelin/contracts/access/Ownable.sol\":2081:2279   */\n      pop\n      jump\t// out\n        /* \"@openzeppelin/contracts/token/ERC20/ERC20.sol\":10110:10480   */\n    tag_117:\n      sub(shl(0xa0, 0x01), 0x01)\n        /* \"@openzeppelin/contracts/token/ERC20/ERC20.sol\":10241:10260   */\n      dup4\n      and\n        /* \"@openzeppelin/contracts/token/ERC20/ERC20.sol\":10233:10301   */\n      tag_210\n      jumpi\n      mload(0x40)\n      shl(0xe5, 0x461bcd)\n      dup2\n      mstore\n        /* \"#utility.yul\":8356:8358   */\n      0x20\n        /* \"@openzeppelin/contracts/token/ERC20/ERC20.sol\":10233:10301   */\n      0x04\n      dup3\n      add\n        /* \"#utility.yul\":8338:8359   */\n      mstore\n        /* \"#utility.yul\":8395:8397   */\n      0x24\n        /* \"#utility.yul\":8375:8393   */\n      dup1\n      dup3\n      add\n        /* \"#utility.yul\":8368:8398   */\n      mstore\n        /* \"#utility.yul\":8434:8468   */\n      0x45524332303a20617070726f76652066726f6d20746865207a65726f20616464\n        /* \"#utility.yul\":8414:8432   */\n      0x44\n      dup3\n      add\n        /* \"#utility.yul\":8407:8469   */\n      mstore\n      shl(0xe0, 0x72657373)\n        /* \"#utility.yul\":8485:8503   */\n      0x64\n      dup3\n      add\n        /* \"#utility.yul\":8478:8512   */\n      mstore\n        /* \"#utility.yul\":8529:8548   */\n      0x84\n      add\n        /* \"@openzeppelin/contracts/token/ERC20/ERC20.sol\":10233:10301   */\n      tag_140\n        /* \"#utility.yul\":8154:8554   */\n      jump\n        /* \"@openzeppelin/contracts/token/ERC20/ERC20.sol\":10233:10301   */\n    tag_210:\n      sub(shl(0xa0, 0x01), 0x01)\n        /* \"@openzeppelin/contracts/token/ERC20/ERC20.sol\":10319:10340   */\n      dup3\n      and\n        /* \"@openzeppelin/contracts/token/ERC20/ERC20.sol\":10311:10379   */\n      tag_213\n      jumpi\n      mload(0x40)\n      shl(0xe5, 0x461bcd)\n      dup2\n      mstore\n        /* \"#utility.yul\":8761:8763   */\n      0x20\n        /* \"@openzeppelin/contracts/token/ERC20/ERC20.sol\":10311:10379   */\n      0x04\n      dup3\n      add\n        /* \"#utility.yul\":8743:8764   */\n      mstore\n        /* \"#utility.yul\":8800:8802   */\n      0x22\n        /* \"#utility.yul\":8780:8798   */\n      0x24\n      dup3\n      add\n        /* \"#utility.yul\":8773:8803   */\n      mstore\n        /* \"#utility.yul\":8839:8873   */\n      0x45524332303a20617070726f766520746f20746865207a65726f206164647265\n        /* \"#utility.yul\":8819:8837   */\n      0x44\n      dup3\n      add\n        /* \"#utility.yul\":8812:8874   */\n      mstore\n      shl(0xf0, 0x7373)\n        /* \"#utility.yul\":8890:8908   */\n      0x64\n      dup3\n      add\n        /* \"#utility.yul\":8883:8915   */\n      mstore\n        /* \"#utility.yul\":8932:8951   */\n      0x84\n      add\n        /* \"@openzeppelin/contracts/token/ERC20/ERC20.sol\":10311:10379   */\n      tag_140\n        /* \"#utility.yul\":8559:8957   */\n      jump\n        /* \"@openzeppelin/contracts/token/ERC20/ERC20.sol\":10311:10379   */\n    tag_213:\n      sub(shl(0xa0, 0x01), 0x01)\n        /* \"@openzeppelin/contracts/token/ERC20/ERC20.sol\":10390:10408   */\n      dup4\n      dup2\n      and\n      0x00\n      dup2\n      dup2\n      mstore\n        /* \"@openzeppelin/contracts/token/ERC20/ERC20.sol\":10390:10401   */\n      0x01\n        /* \"@openzeppelin/contracts/token/ERC20/ERC20.sol\":10390:10408   */\n      0x20\n      swap1\n      dup2\n      mstore\n      0x40\n      dup1\n      dup4\n      keccak256\n        /* \"@openzeppelin/contracts/token/ERC20/ERC20.sol\":10390:10417   */\n      swap5\n      dup8\n      and\n      dup1\n      dup5\n      mstore\n      swap5\n      dup3\n      mstore\n      swap2\n      dup3\n      swap1\n      keccak256\n        /* \"@openzeppelin/contracts/token/ERC20/ERC20.sol\":10390:10426   */\n      dup6\n      swap1\n      sstore\n        /* \"@openzeppelin/contracts/token/ERC20/ERC20.sol\":10441:10473   */\n      swap1\n      mload\n        /* \"#utility.yul\":1433:1458   */\n      dup5\n      dup2\n      mstore\n        /* \"@openzeppelin/contracts/token/ERC20/ERC20.sol\":10441:10473   */\n      0x8c5be1e5ebec7d5bd14f71427d1e84f3dd0314c0f7b2291e5b200ac8c7c3b925\n      swap2\n        /* \"#utility.yul\":1406:1424   */\n      add\n        /* \"@openzeppelin/contracts/token/ERC20/ERC20.sol\":10441:10473   */\n      tag_172\n        /* \"#utility.yul\":1287:1464   */\n      jump\n        /* \"@openzeppelin/contracts/token/ERC20/ERC20.sol\":10761:11202   */\n    tag_122:\n      sub(shl(0xa0, 0x01), 0x01)\n        /* \"@openzeppelin/contracts/token/ERC20/ERC20.sol\":4091:4109   */\n      dup4\n      dup2\n      and\n        /* \"@openzeppelin/contracts/token/ERC20/ERC20.sol\":10891:10915   */\n      0x00\n        /* \"@openzeppelin/contracts/token/ERC20/ERC20.sol\":4091:4109   */\n      swap1\n      dup2\n      mstore\n        /* \"@openzeppelin/contracts/token/ERC20/ERC20.sol\":4091:4102   */\n      0x01\n        /* \"@openzeppelin/contracts/token/ERC20/ERC20.sol\":4091:4109   */\n      0x20\n      swap1\n      dup2\n      mstore\n      0x40\n      dup1\n      dup4\n      keccak256\n        /* \"@openzeppelin/contracts/token/ERC20/ERC20.sol\":4091:4118   */\n      swap4\n      dup7\n      and\n      dup4\n      mstore\n      swap3\n      swap1\n      mstore\n      keccak256\n      sload\n      not(0x00)\n        /* \"@openzeppelin/contracts/token/ERC20/ERC20.sol\":10957:10994   */\n      dup2\n      eq\n        /* \"@openzeppelin/contracts/token/ERC20/ERC20.sol\":10953:11196   */\n      tag_223\n      jumpi\n        /* \"@openzeppelin/contracts/token/ERC20/ERC20.sol\":11038:11044   */\n      dup2\n        /* \"@openzeppelin/contracts/token/ERC20/ERC20.sol\":11018:11034   */\n      dup2\n        /* \"@openzeppelin/contracts/token/ERC20/ERC20.sol\":11018:11044   */\n      lt\n      iszero\n        /* \"@openzeppelin/contracts/token/ERC20/ERC20.sol\":11010:11078   */\n      tag_220\n      jumpi\n      mload(0x40)\n      shl(0xe5, 0x461bcd)\n      dup2\n      mstore\n        /* \"#utility.yul\":9164:9166   */\n      0x20\n        /* \"@openzeppelin/contracts/token/ERC20/ERC20.sol\":11010:11078   */\n      0x04\n      dup3\n      add\n        /* \"#utility.yul\":9146:9167   */\n      mstore\n        /* \"#utility.yul\":9203:9205   */\n      0x1d\n        /* \"#utility.yul\":9183:9201   */\n      0x24\n      dup3\n      add\n        /* \"#utility.yul\":9176:9206   */\n      mstore\n        /* \"#utility.yul\":9242:9273   */\n      0x45524332303a20696e73756666696369656e7420616c6c6f77616e6365000000\n        /* \"#utility.yul\":9222:9240   */\n      0x44\n      dup3\n      add\n        /* \"#utility.yul\":9215:9274   */\n      mstore\n        /* \"#utility.yul\":9291:9309   */\n      0x64\n      add\n        /* \"@openzeppelin/contracts/token/ERC20/ERC20.sol\":11010:11078   */\n      tag_140\n        /* \"#utility.yul\":8962:9315   */\n      jump\n        /* \"@openzeppelin/contracts/token/ERC20/ERC20.sol\":11010:11078   */\n    tag_220:\n        /* \"@openzeppelin/contracts/token/ERC20/ERC20.sol\":11120:11171   */\n      tag_223\n        /* \"@openzeppelin/contracts/token/ERC20/ERC20.sol\":11129:11134   */\n      dup5\n        /* \"@openzeppelin/contracts/token/ERC20/ERC20.sol\":11136:11143   */\n      dup5\n        /* \"@openzeppelin/contracts/token/ERC20/ERC20.sol\":11164:11170   */\n      dup5\n        /* \"@openzeppelin/contracts/token/ERC20/ERC20.sol\":11145:11161   */\n      dup5\n        /* \"@openzeppelin/contracts/token/ERC20/ERC20.sol\":11145:11170   */\n      sub\n        /* \"@openzeppelin/contracts/token/ERC20/ERC20.sol\":11120:11128   */\n      tag_117\n        /* \"@openzeppelin/contracts/token/ERC20/ERC20.sol\":11120:11171   */\n      jump\t// in\n    tag_223:\n        /* \"@openzeppelin/contracts/token/ERC20/ERC20.sol\":10881:11202   */\n      pop\n        /* \"@openzeppelin/contracts/token/ERC20/ERC20.sol\":10761:11202   */\n      pop\n      pop\n      pop\n      jump\t// out\n        /* \"@openzeppelin/contracts/token/ERC20/ERC20.sol\":7475:8126   */\n    tag_124:\n      sub(shl(0xa0, 0x01), 0x01)\n        /* \"@openzeppelin/contracts/token/ERC20/ERC20.sol\":7601:7619   */\n      dup4\n      and\n        /* \"@openzeppelin/contracts/token/ERC20/ERC20.sol\":7593:7661   */\n      tag_225\n      jumpi\n      mload(0x40)\n      shl(0xe5, 0x461bcd)\n      dup2\n      mstore\n        /* \"#utility.yul\":9522:9524   */\n      0x20\n        /* \"@openzeppelin/contracts/token/ERC20/ERC20.sol\":7593:7661   */\n      0x04\n      dup3\n      add\n        /* \"#utility.yul\":9504:9525   */\n      mstore\n        /* \"#utility.yul\":9561:9563   */\n      0x25\n        /* \"#utility.yul\":9541:9559   */\n      0x24\n      dup3\n      add\n        /* \"#utility.yul\":9534:9564   */\n      mstore\n        /* \"#utility.yul\":9600:9634   */\n      0x45524332303a207472616e736665722066726f6d20746865207a65726f206164\n        /* \"#utility.yul\":9580:9598   */\n      0x44\n      dup3\n      add\n        /* \"#utility.yul\":9573:9635   */\n      mstore\n        /* \"#utility.yul\":9671:9678   */\n      0x6472657373000000000000000000000000000000000000000000000000000000\n        /* \"#utility.yul\":9651:9669   */\n      0x64\n      dup3\n      add\n        /* \"#utility.yul\":9644:9679   */\n      mstore\n        /* \"#utility.yul\":9696:9715   */\n      0x84\n      add\n        /* \"@openzeppelin/contracts/token/ERC20/ERC20.sol\":7593:7661   */\n      tag_140\n        /* \"#utility.yul\":9320:9721   */\n      jump\n        /* \"@openzeppelin/contracts/token/ERC20/ERC20.sol\":7593:7661   */\n    tag_225:\n      sub(shl(0xa0, 0x01), 0x01)\n        /* \"@openzeppelin/contracts/token/ERC20/ERC20.sol\":7679:7695   */\n      dup3\n      and\n        /* \"@openzeppelin/contracts/token/ERC20/ERC20.sol\":7671:7735   */\n      tag_228\n      jumpi\n      mload(0x40)\n      shl(0xe5, 0x461bcd)\n      dup2\n      mstore\n        /* \"#utility.yul\":9928:9930   */\n      0x20\n        /* \"@openzeppelin/contracts/token/ERC20/ERC20.sol\":7671:7735   */\n      0x04\n      dup3\n      add\n        /* \"#utility.yul\":9910:9931   */\n      mstore\n        /* \"#utility.yul\":9967:9969   */\n      0x23\n        /* \"#utility.yul\":9947:9965   */\n      0x24\n      dup3\n      add\n        /* \"#utility.yul\":9940:9970   */\n      mstore\n        /* \"#utility.yul\":10006:10040   */\n      0x45524332303a207472616e7366657220746f20746865207a65726f2061646472\n        /* \"#utility.yul\":9986:10004   */\n      0x44\n      dup3\n      add\n        /* \"#utility.yul\":9979:10041   */\n      mstore\n      shl(0xe8, 0x657373)\n        /* \"#utility.yul\":10057:10075   */\n      0x64\n      dup3\n      add\n        /* \"#utility.yul\":10050:10083   */\n      mstore\n        /* \"#utility.yul\":10100:10119   */\n      0x84\n      add\n        /* \"@openzeppelin/contracts/token/ERC20/ERC20.sol\":7671:7735   */\n      tag_140\n        /* \"#utility.yul\":9726:10125   */\n      jump\n        /* \"@openzeppelin/contracts/token/ERC20/ERC20.sol\":7671:7735   */\n    tag_228:\n      sub(shl(0xa0, 0x01), 0x01)\n        /* \"@openzeppelin/contracts/token/ERC20/ERC20.sol\":7817:7832   */\n      dup4\n      and\n        /* \"@openzeppelin/contracts/token/ERC20/ERC20.sol\":7795:7814   */\n      0x00\n        /* \"@openzeppelin/contracts/token/ERC20/ERC20.sol\":7817:7832   */\n      swap1\n      dup2\n      mstore\n      0x20\n      dup2\n      swap1\n      mstore\n      0x40\n      swap1\n      keccak256\n      sload\n        /* \"@openzeppelin/contracts/token/ERC20/ERC20.sol\":7850:7871   */\n      dup2\n      dup2\n      lt\n      iszero\n        /* \"@openzeppelin/contracts/token/ERC20/ERC20.sol\":7842:7914   */\n      tag_233\n      jumpi\n      mload(0x40)\n      shl(0xe5, 0x461bcd)\n      dup2\n      mstore\n        /* \"#utility.yul\":10332:10334   */\n      0x20\n        /* \"@openzeppelin/contracts/token/ERC20/ERC20.sol\":7842:7914   */\n      0x04\n      dup3\n      add\n        /* \"#utility.yul\":10314:10335   */\n      mstore\n        /* \"#utility.yul\":10371:10373   */\n      0x26\n        /* \"#utility.yul\":10351:10369   */\n      0x24\n      dup3\n      add\n        /* \"#utility.yul\":10344:10374   */\n      mstore\n        /* \"#utility.yul\":10410:10444   */\n      0x45524332303a207472616e7366657220616d6f756e7420657863656564732062\n        /* \"#utility.yul\":10390:10408   */\n      0x44\n      dup3\n      add\n        /* \"#utility.yul\":10383:10445   */\n      mstore\n        /* \"#utility.yul\":10481:10489   */\n      0x616c616e63650000000000000000000000000000000000000000000000000000\n        /* \"#utility.yul\":10461:10479   */\n      0x64\n      dup3\n      add\n        /* \"#utility.yul\":10454:10490   */\n      mstore\n        /* \"#utility.yul\":10507:10526   */\n      0x84\n      add\n        /* \"@openzeppelin/contracts/token/ERC20/ERC20.sol\":7842:7914   */\n      tag_140\n        /* \"#utility.yul\":10130:10532   */\n      jump\n        /* \"@openzeppelin/contracts/token/ERC20/ERC20.sol\":7842:7914   */\n    tag_233:\n      sub(shl(0xa0, 0x01), 0x01)\n        /* \"@openzeppelin/contracts/token/ERC20/ERC20.sol\":7948:7963   */\n      dup1\n      dup6\n      and\n        /* \"@openzeppelin/contracts/token/ERC20/ERC20.sol\":7948:7957   */\n      0x00\n        /* \"@openzeppelin/contracts/token/ERC20/ERC20.sol\":7948:7963   */\n      swap1\n      dup2\n      mstore\n      0x20\n      dup2\n      swap1\n      mstore\n      0x40\n      dup1\n      dup3\n      keccak256\n        /* \"@openzeppelin/contracts/token/ERC20/ERC20.sol\":7966:7986   */\n      dup6\n      dup6\n      sub\n        /* \"@openzeppelin/contracts/token/ERC20/ERC20.sol\":7948:7986   */\n      swap1\n      sstore\n        /* \"@openzeppelin/contracts/token/ERC20/ERC20.sol\":8006:8019   */\n      swap2\n      dup6\n      and\n      dup2\n      mstore\n      swap1\n      dup2\n      keccak256\n        /* \"@openzeppelin/contracts/token/ERC20/ERC20.sol\":8006:8029   */\n      dup1\n      sload\n        /* \"@openzeppelin/contracts/token/ERC20/ERC20.sol\":7980:7986   */\n      dup5\n      swap3\n        /* \"@openzeppelin/contracts/token/ERC20/ERC20.sol\":7948:7957   */\n      swap1\n        /* \"@openzeppelin/contracts/token/ERC20/ERC20.sol\":8006:8029   */\n      tag_236\n      swap1\n        /* \"@openzeppelin/contracts/token/ERC20/ERC20.sol\":7980:7986   */\n      dup5\n      swap1\n        /* \"@openzeppelin/contracts/token/ERC20/ERC20.sol\":8006:8029   */\n      tag_131\n      jump\t// in\n    tag_236:\n      swap3\n      pop\n      pop\n      dup2\n      swap1\n      sstore\n      pop\n        /* \"@openzeppelin/contracts/token/ERC20/ERC20.sol\":8060:8062   */\n      dup3\n      sub(shl(0xa0, 0x01), 0x01)\n        /* \"@openzeppelin/contracts/token/ERC20/ERC20.sol\":8045:8071   */\n      and\n        /* \"@openzeppelin/contracts/token/ERC20/ERC20.sol\":8054:8058   */\n      dup5\n      sub(shl(0xa0, 0x01), 0x01)\n        /* \"@openzeppelin/contracts/token/ERC20/ERC20.sol\":8045:8071   */\n      and\n      0xddf252ad1be2c89b69c2b068fc378daa952ba7f163c4a11628f55a4df523b3ef\n        /* \"@openzeppelin/contracts/token/ERC20/ERC20.sol\":8064:8070   */\n      dup5\n        /* \"@openzeppelin/contracts/token/ERC20/ERC20.sol\":8045:8071   */\n      mload(0x40)\n      tag_237\n      swap2\n        /* \"#utility.yul\":1433:1458   */\n      dup2\n      mstore\n        /* \"#utility.yul\":1421:1423   */\n      0x20\n        /* \"#utility.yul\":1406:1424   */\n      add\n      swap1\n        /* \"#utility.yul\":1287:1464   */\n      jump\n        /* \"@openzeppelin/contracts/token/ERC20/ERC20.sol\":8045:8071   */\n    tag_237:\n      mload(0x40)\n      dup1\n      swap2\n      sub\n      swap1\n      log3\n        /* \"@openzeppelin/contracts/token/ERC20/ERC20.sol\":8082:8119   */\n      tag_223\n        /* \"@openzeppelin/contracts/token/ERC20/ERC20.sol\":11786:11907   */\n      jump\n        /* \"@openzeppelin/contracts/access/Ownable.sol\":1359:1489   */\n    tag_134:\n        /* \"@openzeppelin/contracts/access/Ownable.sol\":1273:1279   */\n      and(sub(shl(0xa0, 0x01), 0x01), sload(0x05))\n        /* \"@openzeppelin/contracts/utils/Context.sol\":719:729   */\n      caller\n        /* \"@openzeppelin/contracts/access/Ownable.sol\":1422:1445   */\n      eq\n        /* \"@openzeppelin/contracts/access/Ownable.sol\":1414:1482   */\n      tag_178\n      jumpi\n      mload(0x40)\n      shl(0xe5, 0x461bcd)\n      dup2\n      mstore\n        /* \"#utility.yul\":10739:10741   */\n      0x20\n        /* \"@openzeppelin/contracts/access/Ownable.sol\":1414:1482   */\n      0x04\n      dup3\n      add\n        /* \"#utility.yul\":10721:10742   */\n      dup2\n      swap1\n      mstore\n        /* \"#utility.yul\":10758:10776   */\n      0x24\n      dup3\n      add\n        /* \"#utility.yul\":10751:10781   */\n      mstore\n        /* \"#utility.yul\":10817:10851   */\n      0x4f776e61626c653a2063616c6c6572206973206e6f7420746865206f776e6572\n        /* \"#utility.yul\":10797:10815   */\n      0x44\n      dup3\n      add\n        /* \"#utility.yul\":10790:10852   */\n      mstore\n        /* \"#utility.yul\":10869:10887   */\n      0x64\n      add\n        /* \"@openzeppelin/contracts/access/Ownable.sol\":1414:1482   */\n      tag_140\n        /* \"#utility.yul\":10537:10893   */\n      jump\n        /* \"@openzeppelin/contracts/token/ERC20/ERC20.sol\":8402:8791   */\n    tag_137:\n      sub(shl(0xa0, 0x01), 0x01)\n        /* \"@openzeppelin/contracts/token/ERC20/ERC20.sol\":8485:8506   */\n      dup3\n      and\n        /* \"@openzeppelin/contracts/token/ERC20/ERC20.sol\":8477:8542   */\n      tag_247\n      jumpi\n      mload(0x40)\n      shl(0xe5, 0x461bcd)\n      dup2\n      mstore\n        /* \"#utility.yul\":11100:11102   */\n      0x20\n        /* \"@openzeppelin/contracts/token/ERC20/ERC20.sol\":8477:8542   */\n      0x04\n      dup3\n      add\n        /* \"#utility.yul\":11082:11103   */\n      mstore\n        /* \"#utility.yul\":11139:11141   */\n      0x1f\n        /* \"#utility.yul\":11119:11137   */\n      0x24\n      dup3\n      add\n        /* \"#utility.yul\":11112:11142   */\n      mstore\n        /* \"#utility.yul\":11178:11211   */\n      0x45524332303a206d696e7420746f20746865207a65726f206164647265737300\n        /* \"#utility.yul\":11158:11176   */\n      0x44\n      dup3\n      add\n        /* \"#utility.yul\":11151:11212   */\n      mstore\n        /* \"#utility.yul\":11229:11247   */\n      0x64\n      add\n        /* \"@openzeppelin/contracts/token/ERC20/ERC20.sol\":8477:8542   */\n      tag_140\n        /* \"#utility.yul\":10898:11253   */\n      jump\n        /* \"@openzeppelin/contracts/token/ERC20/ERC20.sol\":8477:8542   */\n    tag_247:\n        /* \"@openzeppelin/contracts/token/ERC20/ERC20.sol\":8629:8635   */\n      dup1\n        /* \"@openzeppelin/contracts/token/ERC20/ERC20.sol\":8613:8625   */\n      0x02\n      0x00\n        /* \"@openzeppelin/contracts/token/ERC20/ERC20.sol\":8613:8635   */\n      dup3\n      dup3\n      sload\n      tag_251\n      swap2\n      swap1\n      tag_131\n      jump\t// in\n    tag_251:\n      swap1\n      swap2\n      sstore\n      pop\n      pop\n      sub(shl(0xa0, 0x01), 0x01)\n        /* \"@openzeppelin/contracts/token/ERC20/ERC20.sol\":8645:8663   */\n      dup3\n      and\n        /* \"@openzeppelin/contracts/token/ERC20/ERC20.sol\":8645:8654   */\n      0x00\n        /* \"@openzeppelin/contracts/token/ERC20/ERC20.sol\":8645:8663   */\n      swap1\n      dup2\n      mstore\n      0x20\n      dup2\n      swap1\n      mstore\n      0x40\n      dup2\n      keccak256\n        /* \"@openzeppelin/contracts/token/ERC20/ERC20.sol\":8645:8673   */\n      dup1\n      sload\n        /* \"@openzeppelin/contracts/token/ERC20/ERC20.sol\":8667:8673   */\n      dup4\n      swap3\n        /* \"@openzeppelin/contracts/token/ERC20/ERC20.sol\":8645:8654   */\n      swap1\n        /* \"@openzeppelin/contracts/token/ERC20/ERC20.sol\":8645:8673   */\n      tag_252\n      swap1\n        /* \"@openzeppelin/contracts/token/ERC20/ERC20.sol\":8667:8673   */\n      dup5\n      swap1\n        /* \"@openzeppelin/contracts/token/ERC20/ERC20.sol\":8645:8673   */\n      tag_131\n      jump\t// in\n    tag_252:\n      swap1\n      swap2\n      sstore\n      pop\n      pop\n        /* \"@openzeppelin/contracts/token/ERC20/ERC20.sol\":8688:8725   */\n      mload(0x40)\n        /* \"#utility.yul\":1433:1458   */\n      dup2\n      dup2\n      mstore\n      sub(shl(0xa0, 0x01), 0x01)\n        /* \"@openzeppelin/contracts/token/ERC20/ERC20.sol\":8688:8725   */\n      dup4\n      and\n      swap1\n        /* \"@openzeppelin/contracts/token/ERC20/ERC20.sol\":8705:8706   */\n      0x00\n      swap1\n        /* \"@openzeppelin/contracts/token/ERC20/ERC20.sol\":8688:8725   */\n      0xddf252ad1be2c89b69c2b068fc378daa952ba7f163c4a11628f55a4df523b3ef\n      swap1\n        /* \"#utility.yul\":1421:1423   */\n      0x20\n        /* \"#utility.yul\":1406:1424   */\n      add\n        /* \"@openzeppelin/contracts/token/ERC20/ERC20.sol\":8688:8725   */\n      mload(0x40)\n      dup1\n      swap2\n      sub\n      swap1\n      log3\n        /* \"OasisToken.sol\":952:1047  function mint(address to, uint256 amount) public onlyOwner {... */\n      pop\n      pop\n      jump\t// out\n        /* \"@openzeppelin/contracts/access/Ownable.sol\":2433:2620   */\n    tag_179:\n        /* \"@openzeppelin/contracts/access/Ownable.sol\":2525:2531   */\n      0x05\n      dup1\n      sload\n      sub(shl(0xa0, 0x01), 0x01)\n        /* \"@openzeppelin/contracts/access/Ownable.sol\":2541:2558   */\n      dup4\n      dup2\n      and\n      not(0xffffffffffffffffffffffffffffffffffffffff)\n      dup4\n      and\n      dup2\n      or\n      swap1\n      swap4\n      sstore\n        /* \"@openzeppelin/contracts/access/Ownable.sol\":2573:2613   */\n      mload(0x40)\n        /* \"@openzeppelin/contracts/access/Ownable.sol\":2525:2531   */\n      swap2\n      and\n      swap2\n        /* \"@openzeppelin/contracts/access/Ownable.sol\":2541:2558   */\n      swap1\n        /* \"@openzeppelin/contracts/access/Ownable.sol\":2525:2531   */\n      dup3\n      swap1\n        /* \"@openzeppelin/contracts/access/Ownable.sol\":2573:2613   */\n      0x8be0079c531659141344cd1fd0a4f28419497f9722a3daafe3b4186f6b6457e0\n      swap1\n        /* \"@openzeppelin/contracts/access/Ownable.sol\":2506:2522   */\n      0x00\n      swap1\n        /* \"@openzeppelin/contracts/access/Ownable.sol\":2573:2613   */\n      log3\n        /* \"@openzeppelin/contracts/access/Ownable.sol\":2496:2620   */\n      pop\n        /* \"@openzeppelin/contracts/access/Ownable.sol\":2433:2620   */\n      pop\n      jump\t// out\n        /* \"#utility.yul\":14:611   */\n    tag_33:\n        /* \"#utility.yul\":126:130   */\n      0x00\n        /* \"#utility.yul\":155:157   */\n      0x20\n        /* \"#utility.yul\":184:186   */\n      dup1\n        /* \"#utility.yul\":173:182   */\n      dup4\n        /* \"#utility.yul\":166:187   */\n      mstore\n        /* \"#utility.yul\":216:222   */\n      dup4\n        /* \"#utility.yul\":210:223   */\n      mload\n        /* \"#utility.yul\":259:265   */\n      dup1\n        /* \"#utility.yul\":254:256   */\n      dup3\n        /* \"#utility.yul\":243:252   */\n      dup6\n        /* \"#utility.yul\":239:257   */\n      add\n        /* \"#utility.yul\":232:266   */\n      mstore\n        /* \"#utility.yul\":284:285   */\n      0x00\n        /* \"#utility.yul\":294:434   */\n    tag_263:\n        /* \"#utility.yul\":308:314   */\n      dup2\n        /* \"#utility.yul\":305:306   */\n      dup2\n        /* \"#utility.yul\":302:315   */\n      lt\n        /* \"#utility.yul\":294:434   */\n      iszero\n      tag_265\n      jumpi\n        /* \"#utility.yul\":403:417   */\n      dup6\n      dup2\n      add\n        /* \"#utility.yul\":399:422   */\n      dup4\n      add\n        /* \"#utility.yul\":393:423   */\n      mload\n        /* \"#utility.yul\":369:386   */\n      dup6\n      dup3\n      add\n        /* \"#utility.yul\":388:390   */\n      0x40\n        /* \"#utility.yul\":365:391   */\n      add\n        /* \"#utility.yul\":358:424   */\n      mstore\n        /* \"#utility.yul\":323:333   */\n      dup3\n      add\n        /* \"#utility.yul\":294:434   */\n      jump(tag_263)\n    tag_265:\n        /* \"#utility.yul\":452:458   */\n      dup2\n        /* \"#utility.yul\":449:450   */\n      dup2\n        /* \"#utility.yul\":446:459   */\n      gt\n        /* \"#utility.yul\":443:534   */\n      iszero\n      tag_266\n      jumpi\n        /* \"#utility.yul\":522:523   */\n      0x00\n        /* \"#utility.yul\":517:519   */\n      0x40\n        /* \"#utility.yul\":508:514   */\n      dup4\n        /* \"#utility.yul\":497:506   */\n      dup8\n        /* \"#utility.yul\":493:515   */\n      add\n        /* \"#utility.yul\":489:520   */\n      add\n        /* \"#utility.yul\":482:524   */\n      mstore\n        /* \"#utility.yul\":443:534   */\n    tag_266:\n      pop\n        /* \"#utility.yul\":595:597   */\n      0x1f\n        /* \"#utility.yul\":574:589   */\n      add\n      not(0x1f)\n        /* \"#utility.yul\":570:599   */\n      and\n        /* \"#utility.yul\":555:600   */\n      swap3\n      swap1\n      swap3\n      add\n        /* \"#utility.yul\":602:604   */\n      0x40\n        /* \"#utility.yul\":551:605   */\n      add\n      swap4\n        /* \"#utility.yul\":14:611   */\n      swap3\n      pop\n      pop\n      pop\n      jump\t// out\n        /* \"#utility.yul\":616:770   */\n    tag_258:\n      sub(shl(0xa0, 0x01), 0x01)\n        /* \"#utility.yul\":695:700   */\n      dup2\n        /* \"#utility.yul\":691:745   */\n      and\n        /* \"#utility.yul\":684:689   */\n      dup2\n        /* \"#utility.yul\":681:746   */\n      eq\n        /* \"#utility.yul\":671:764   */\n      tag_207\n      jumpi\n        /* \"#utility.yul\":760:761   */\n      0x00\n        /* \"#utility.yul\":757:758   */\n      dup1\n        /* \"#utility.yul\":750:762   */\n      revert\n        /* \"#utility.yul\":775:1090   */\n    tag_36:\n        /* \"#utility.yul\":843:849   */\n      0x00\n        /* \"#utility.yul\":851:857   */\n      dup1\n        /* \"#utility.yul\":904:906   */\n      0x40\n        /* \"#utility.yul\":892:901   */\n      dup4\n        /* \"#utility.yul\":883:890   */\n      dup6\n        /* \"#utility.yul\":879:902   */\n      sub\n        /* \"#utility.yul\":875:907   */\n      slt\n        /* \"#utility.yul\":872:924   */\n      iszero\n      tag_270\n      jumpi\n        /* \"#utility.yul\":920:921   */\n      0x00\n        /* \"#utility.yul\":917:918   */\n      dup1\n        /* \"#utility.yul\":910:922   */\n      revert\n        /* \"#utility.yul\":872:924   */\n    tag_270:\n        /* \"#utility.yul\":959:968   */\n      dup3\n        /* \"#utility.yul\":946:969   */\n      calldataload\n        /* \"#utility.yul\":978:1009   */\n      tag_271\n        /* \"#utility.yul\":1003:1008   */\n      dup2\n        /* \"#utility.yul\":978:1009   */\n      tag_258\n      jump\t// in\n    tag_271:\n        /* \"#utility.yul\":1028:1033   */\n      swap5\n        /* \"#utility.yul\":1080:1082   */\n      0x20\n        /* \"#utility.yul\":1065:1083   */\n      swap4\n      swap1\n      swap4\n      add\n        /* \"#utility.yul\":1052:1084   */\n      calldataload\n      swap4\n      pop\n      pop\n      pop\n        /* \"#utility.yul\":775:1090   */\n      jump\t// out\n        /* \"#utility.yul\":1469:1925   */\n    tag_46:\n        /* \"#utility.yul\":1546:1552   */\n      0x00\n        /* \"#utility.yul\":1554:1560   */\n      dup1\n        /* \"#utility.yul\":1562:1568   */\n      0x00\n        /* \"#utility.yul\":1615:1617   */\n      0x60\n        /* \"#utility.yul\":1603:1612   */\n      dup5\n        /* \"#utility.yul\":1594:1601   */\n      dup7\n        /* \"#utility.yul\":1590:1613   */\n      sub\n        /* \"#utility.yul\":1586:1618   */\n      slt\n        /* \"#utility.yul\":1583:1635   */\n      iszero\n      tag_275\n      jumpi\n        /* \"#utility.yul\":1631:1632   */\n      0x00\n        /* \"#utility.yul\":1628:1629   */\n      dup1\n        /* \"#utility.yul\":1621:1633   */\n      revert\n        /* \"#utility.yul\":1583:1635   */\n    tag_275:\n        /* \"#utility.yul\":1670:1679   */\n      dup4\n        /* \"#utility.yul\":1657:1680   */\n      calldataload\n        /* \"#utility.yul\":1689:1720   */\n      tag_276\n        /* \"#utility.yul\":1714:1719   */\n      dup2\n        /* \"#utility.yul\":1689:1720   */\n      tag_258\n      jump\t// in\n    tag_276:\n        /* \"#utility.yul\":1739:1744   */\n      swap3\n      pop\n        /* \"#utility.yul\":1796:1798   */\n      0x20\n        /* \"#utility.yul\":1781:1799   */\n      dup5\n      add\n        /* \"#utility.yul\":1768:1800   */\n      calldataload\n        /* \"#utility.yul\":1809:1842   */\n      tag_277\n        /* \"#utility.yul\":1768:1800   */\n      dup2\n        /* \"#utility.yul\":1809:1842   */\n      tag_258\n      jump\t// in\n    tag_277:\n        /* \"#utility.yul\":1469:1925   */\n      swap3\n      swap6\n        /* \"#utility.yul\":1861:1868   */\n      swap3\n      swap5\n      pop\n      pop\n      pop\n        /* \"#utility.yul\":1915:1917   */\n      0x40\n        /* \"#utility.yul\":1900:1918   */\n      swap2\n      swap1\n      swap2\n      add\n        /* \"#utility.yul\":1887:1919   */\n      calldataload\n      swap1\n        /* \"#utility.yul\":1469:1925   */\n      jump\t// out\n        /* \"#utility.yul\":2119:2246   */\n    tag_259:\n        /* \"#utility.yul\":2180:2190   */\n      0x4e487b71\n        /* \"#utility.yul\":2175:2178   */\n      0xe0\n        /* \"#utility.yul\":2171:2191   */\n      shl\n        /* \"#utility.yul\":2168:2169   */\n      0x00\n        /* \"#utility.yul\":2161:2192   */\n      mstore\n        /* \"#utility.yul\":2211:2215   */\n      0x41\n        /* \"#utility.yul\":2208:2209   */\n      0x04\n        /* \"#utility.yul\":2201:2216   */\n      mstore\n        /* \"#utility.yul\":2235:2239   */\n      0x24\n        /* \"#utility.yul\":2232:2233   */\n      0x00\n        /* \"#utility.yul\":2225:2240   */\n      revert\n        /* \"#utility.yul\":2251:3366   */\n    tag_65:\n        /* \"#utility.yul\":2335:2341   */\n      0x00\n        /* \"#utility.yul\":2366:2368   */\n      0x20\n        /* \"#utility.yul\":2409:2411   */\n      dup1\n        /* \"#utility.yul\":2397:2406   */\n      dup4\n        /* \"#utility.yul\":2388:2395   */\n      dup6\n        /* \"#utility.yul\":2384:2407   */\n      sub\n        /* \"#utility.yul\":2380:2412   */\n      slt\n        /* \"#utility.yul\":2377:2429   */\n      iszero\n      tag_281\n      jumpi\n        /* \"#utility.yul\":2425:2426   */\n      0x00\n        /* \"#utility.yul\":2422:2423   */\n      dup1\n        /* \"#utility.yul\":2415:2427   */\n      revert\n        /* \"#utility.yul\":2377:2429   */\n    tag_281:\n        /* \"#utility.yul\":2465:2474   */\n      dup3\n        /* \"#utility.yul\":2452:2475   */\n      calldataload\n        /* \"#utility.yul\":2494:2512   */\n      0xffffffffffffffff\n        /* \"#utility.yul\":2535:2537   */\n      dup1\n        /* \"#utility.yul\":2527:2533   */\n      dup3\n        /* \"#utility.yul\":2524:2538   */\n      gt\n        /* \"#utility.yul\":2521:2555   */\n      iszero\n      tag_282\n      jumpi\n        /* \"#utility.yul\":2551:2552   */\n      0x00\n        /* \"#utility.yul\":2548:2549   */\n      dup1\n        /* \"#utility.yul\":2541:2553   */\n      revert\n        /* \"#utility.yul\":2521:2555   */\n    tag_282:\n        /* \"#utility.yul\":2589:2595   */\n      dup2\n        /* \"#utility.yul\":2578:2587   */\n      dup6\n        /* \"#utility.yul\":2574:2596   */\n      add\n        /* \"#utility.yul\":2564:2596   */\n      swap2\n      pop\n        /* \"#utility.yul\":2634:2641   */\n      dup6\n        /* \"#utility.yul\":2627:2631   */\n      0x1f\n        /* \"#utility.yul\":2623:2625   */\n      dup4\n        /* \"#utility.yul\":2619:2632   */\n      add\n        /* \"#utility.yul\":2615:2642   */\n      slt\n        /* \"#utility.yul\":2605:2660   */\n      tag_283\n      jumpi\n        /* \"#utility.yul\":2656:2657   */\n      0x00\n        /* \"#utility.yul\":2653:2654   */\n      dup1\n        /* \"#utility.yul\":2646:2658   */\n      revert\n        /* \"#utility.yul\":2605:2660   */\n    tag_283:\n        /* \"#utility.yul\":2692:2694   */\n      dup2\n        /* \"#utility.yul\":2679:2695   */\n      calldataload\n        /* \"#utility.yul\":2714:2716   */\n      dup2\n        /* \"#utility.yul\":2710:2712   */\n      dup2\n        /* \"#utility.yul\":2707:2717   */\n      gt\n        /* \"#utility.yul\":2704:2740   */\n      iszero\n      tag_285\n      jumpi\n        /* \"#utility.yul\":2720:2738   */\n      tag_285\n      tag_259\n      jump\t// in\n    tag_285:\n        /* \"#utility.yul\":2766:2768   */\n      dup1\n        /* \"#utility.yul\":2763:2764   */\n      0x05\n        /* \"#utility.yul\":2759:2769   */\n      shl\n        /* \"#utility.yul\":2798:2800   */\n      0x40\n        /* \"#utility.yul\":2792:2801   */\n      mload\n        /* \"#utility.yul\":2861:2863   */\n      0x1f\n        /* \"#utility.yul\":2857:2864   */\n      not\n        /* \"#utility.yul\":2852:2854   */\n      0x3f\n        /* \"#utility.yul\":2848:2850   */\n      dup4\n        /* \"#utility.yul\":2844:2855   */\n      add\n        /* \"#utility.yul\":2840:2865   */\n      and\n        /* \"#utility.yul\":2832:2838   */\n      dup2\n        /* \"#utility.yul\":2828:2866   */\n      add\n        /* \"#utility.yul\":2916:2922   */\n      dup2\n        /* \"#utility.yul\":2904:2914   */\n      dup2\n        /* \"#utility.yul\":2901:2923   */\n      lt\n        /* \"#utility.yul\":2896:2898   */\n      dup6\n        /* \"#utility.yul\":2884:2894   */\n      dup3\n        /* \"#utility.yul\":2881:2899   */\n      gt\n        /* \"#utility.yul\":2878:2924   */\n      or\n        /* \"#utility.yul\":2875:2947   */\n      iszero\n      tag_287\n      jumpi\n        /* \"#utility.yul\":2927:2945   */\n      tag_287\n      tag_259\n      jump\t// in\n    tag_287:\n        /* \"#utility.yul\":2963:2965   */\n      0x40\n        /* \"#utility.yul\":2956:2978   */\n      mstore\n        /* \"#utility.yul\":3013:3031   */\n      swap2\n      dup3\n      mstore\n        /* \"#utility.yul\":3047:3062   */\n      dup5\n      dup3\n      add\n      swap3\n      pop\n        /* \"#utility.yul\":3089:3100   */\n      dup4\n      dup2\n      add\n        /* \"#utility.yul\":3085:3105   */\n      dup6\n      add\n      swap2\n        /* \"#utility.yul\":3117:3136   */\n      dup9\n      dup4\n      gt\n        /* \"#utility.yul\":3114:3153   */\n      iszero\n      tag_288\n      jumpi\n        /* \"#utility.yul\":3149:3150   */\n      0x00\n        /* \"#utility.yul\":3146:3147   */\n      dup1\n        /* \"#utility.yul\":3139:3151   */\n      revert\n        /* \"#utility.yul\":3114:3153   */\n    tag_288:\n        /* \"#utility.yul\":3173:3184   */\n      swap4\n      dup6\n      add\n      swap4\n        /* \"#utility.yul\":3193:3335   */\n    tag_289:\n        /* \"#utility.yul\":3209:3215   */\n      dup3\n        /* \"#utility.yul\":3204:3207   */\n      dup6\n        /* \"#utility.yul\":3201:3216   */\n      lt\n        /* \"#utility.yul\":3193:3335   */\n      iszero\n      tag_291\n      jumpi\n        /* \"#utility.yul\":3275:3292   */\n      dup5\n      calldataload\n        /* \"#utility.yul\":3263:3293   */\n      dup5\n      mstore\n        /* \"#utility.yul\":3226:3238   */\n      swap4\n      dup6\n      add\n      swap4\n        /* \"#utility.yul\":3313:3325   */\n      swap3\n      dup6\n      add\n      swap3\n        /* \"#utility.yul\":3193:3335   */\n      jump(tag_289)\n    tag_291:\n        /* \"#utility.yul\":3354:3360   */\n      swap9\n        /* \"#utility.yul\":2251:3366   */\n      swap8\n      pop\n      pop\n      pop\n      pop\n      pop\n      pop\n      pop\n      pop\n      jump\t// out\n        /* \"#utility.yul\":3371:3618   */\n    tag_69:\n        /* \"#utility.yul\":3430:3436   */\n      0x00\n        /* \"#utility.yul\":3483:3485   */\n      0x20\n        /* \"#utility.yul\":3471:3480   */\n      dup3\n        /* \"#utility.yul\":3462:3469   */\n      dup5\n        /* \"#utility.yul\":3458:3481   */\n      sub\n        /* \"#utility.yul\":3454:3486   */\n      slt\n        /* \"#utility.yul\":3451:3503   */\n      iszero\n      tag_293\n      jumpi\n        /* \"#utility.yul\":3499:3500   */\n      0x00\n        /* \"#utility.yul\":3496:3497   */\n      dup1\n        /* \"#utility.yul\":3489:3501   */\n      revert\n        /* \"#utility.yul\":3451:3503   */\n    tag_293:\n        /* \"#utility.yul\":3538:3547   */\n      dup2\n        /* \"#utility.yul\":3525:3548   */\n      calldataload\n        /* \"#utility.yul\":3557:3588   */\n      tag_294\n        /* \"#utility.yul\":3582:3587   */\n      dup2\n        /* \"#utility.yul\":3557:3588   */\n      tag_258\n      jump\t// in\n    tag_294:\n        /* \"#utility.yul\":3607:3612   */\n      swap4\n        /* \"#utility.yul\":3371:3618   */\n      swap3\n      pop\n      pop\n      pop\n      jump\t// out\n        /* \"#utility.yul\":3854:4242   */\n    tag_97:\n        /* \"#utility.yul\":3922:3928   */\n      0x00\n        /* \"#utility.yul\":3930:3936   */\n      dup1\n        /* \"#utility.yul\":3983:3985   */\n      0x40\n        /* \"#utility.yul\":3971:3980   */\n      dup4\n        /* \"#utility.yul\":3962:3969   */\n      dup6\n        /* \"#utility.yul\":3958:3981   */\n      sub\n        /* \"#utility.yul\":3954:3986   */\n      slt\n        /* \"#utility.yul\":3951:4003   */\n      iszero\n      tag_297\n      jumpi\n        /* \"#utility.yul\":3999:4000   */\n      0x00\n        /* \"#utility.yul\":3996:3997   */\n      dup1\n        /* \"#utility.yul\":3989:4001   */\n      revert\n        /* \"#utility.yul\":3951:4003   */\n    tag_297:\n        /* \"#utility.yul\":4038:4047   */\n      dup3\n        /* \"#utility.yul\":4025:4048   */\n      calldataload\n        /* \"#utility.yul\":4057:4088   */\n      tag_298\n        /* \"#utility.yul\":4082:4087   */\n      dup2\n        /* \"#utility.yul\":4057:4088   */\n      tag_258\n      jump\t// in\n    tag_298:\n        /* \"#utility.yul\":4107:4112   */\n      swap2\n      pop\n        /* \"#utility.yul\":4164:4166   */\n      0x20\n        /* \"#utility.yul\":4149:4167   */\n      dup4\n      add\n        /* \"#utility.yul\":4136:4168   */\n      calldataload\n        /* \"#utility.yul\":4177:4210   */\n      tag_299\n        /* \"#utility.yul\":4136:4168   */\n      dup2\n        /* \"#utility.yul\":4177:4210   */\n      tag_258\n      jump\t// in\n    tag_299:\n        /* \"#utility.yul\":4229:4236   */\n      dup1\n        /* \"#utility.yul\":4219:4236   */\n      swap2\n      pop\n      pop\n        /* \"#utility.yul\":3854:4242   */\n      swap3\n      pop\n      swap3\n      swap1\n      pop\n      jump\t// out\n        /* \"#utility.yul\":4247:4627   */\n    tag_108:\n        /* \"#utility.yul\":4326:4327   */\n      0x01\n        /* \"#utility.yul\":4322:4334   */\n      dup2\n      dup2\n      shr\n      swap1\n        /* \"#utility.yul\":4369:4381   */\n      dup3\n      and\n      dup1\n        /* \"#utility.yul\":4390:4451   */\n      tag_301\n      jumpi\n        /* \"#utility.yul\":4444:4448   */\n      0x7f\n        /* \"#utility.yul\":4436:4442   */\n      dup3\n        /* \"#utility.yul\":4432:4449   */\n      and\n        /* \"#utility.yul\":4422:4449   */\n      swap2\n      pop\n        /* \"#utility.yul\":4390:4451   */\n    tag_301:\n        /* \"#utility.yul\":4497:4499   */\n      0x20\n        /* \"#utility.yul\":4489:4495   */\n      dup3\n        /* \"#utility.yul\":4486:4500   */\n      lt\n        /* \"#utility.yul\":4466:4484   */\n      dup2\n        /* \"#utility.yul\":4463:4501   */\n      sub\n        /* \"#utility.yul\":4460:4621   */\n      tag_302\n      jumpi\n        /* \"#utility.yul\":4543:4553   */\n      0x4e487b71\n        /* \"#utility.yul\":4538:4541   */\n      0xe0\n        /* \"#utility.yul\":4534:4554   */\n      shl\n        /* \"#utility.yul\":4531:4532   */\n      0x00\n        /* \"#utility.yul\":4524:4555   */\n      mstore\n        /* \"#utility.yul\":4578:4582   */\n      0x22\n        /* \"#utility.yul\":4575:4576   */\n      0x04\n        /* \"#utility.yul\":4568:4583   */\n      mstore\n        /* \"#utility.yul\":4606:4610   */\n      0x24\n        /* \"#utility.yul\":4603:4604   */\n      0x00\n        /* \"#utility.yul\":4596:4611   */\n      revert\n        /* \"#utility.yul\":4460:4621   */\n    tag_302:\n      pop\n        /* \"#utility.yul\":4247:4627   */\n      swap2\n      swap1\n      pop\n      jump\t// out\n        /* \"#utility.yul\":4632:4759   */\n    tag_260:\n        /* \"#utility.yul\":4693:4703   */\n      0x4e487b71\n        /* \"#utility.yul\":4688:4691   */\n      0xe0\n        /* \"#utility.yul\":4684:4704   */\n      shl\n        /* \"#utility.yul\":4681:4682   */\n      0x00\n        /* \"#utility.yul\":4674:4705   */\n      mstore\n        /* \"#utility.yul\":4724:4728   */\n      0x11\n        /* \"#utility.yul\":4721:4722   */\n      0x04\n        /* \"#utility.yul\":4714:4729   */\n      mstore\n        /* \"#utility.yul\":4748:4752   */\n      0x24\n        /* \"#utility.yul\":4745:4746   */\n      0x00\n        /* \"#utility.yul\":4738:4753   */\n      revert\n        /* \"#utility.yul\":4764:4892   */\n    tag_131:\n        /* \"#utility.yul\":4804:4807   */\n      0x00\n        /* \"#utility.yul\":4835:4836   */\n      dup3\n        /* \"#utility.yul\":4831:4837   */\n      not\n        /* \"#utility.yul\":4828:4829   */\n      dup3\n        /* \"#utility.yul\":4825:4838   */\n      gt\n        /* \"#utility.yul\":4822:4861   */\n      iszero\n      tag_306\n      jumpi\n        /* \"#utility.yul\":4841:4859   */\n      tag_306\n      tag_260\n      jump\t// in\n    tag_306:\n      pop\n        /* \"#utility.yul\":4877:4886   */\n      add\n      swap1\n        /* \"#utility.yul\":4764:4892   */\n      jump\t// out\n        /* \"#utility.yul\":5252:5379   */\n    tag_147:\n        /* \"#utility.yul\":5313:5323   */\n      0x4e487b71\n        /* \"#utility.yul\":5308:5311   */\n      0xe0\n        /* \"#utility.yul\":5304:5324   */\n      shl\n        /* \"#utility.yul\":5301:5302   */\n      0x00\n        /* \"#utility.yul\":5294:5325   */\n      mstore\n        /* \"#utility.yul\":5344:5348   */\n      0x32\n        /* \"#utility.yul\":5341:5342   */\n      0x04\n        /* \"#utility.yul\":5334:5349   */\n      mstore\n        /* \"#utility.yul\":5368:5372   */\n      0x24\n        /* \"#utility.yul\":5365:5366   */\n      0x00\n        /* \"#utility.yul\":5358:5373   */\n      revert\n        /* \"#utility.yul\":5384:5635   */\n    tag_152:\n        /* \"#utility.yul\":5454:5460   */\n      0x00\n        /* \"#utility.yul\":5507:5509   */\n      0x20\n        /* \"#utility.yul\":5495:5504   */\n      dup3\n        /* \"#utility.yul\":5486:5493   */\n      dup5\n        /* \"#utility.yul\":5482:5505   */\n      sub\n        /* \"#utility.yul\":5478:5510   */\n      slt\n        /* \"#utility.yul\":5475:5527   */\n      iszero\n      tag_310\n      jumpi\n        /* \"#utility.yul\":5523:5524   */\n      0x00\n        /* \"#utility.yul\":5520:5521   */\n      dup1\n        /* \"#utility.yul\":5513:5525   */\n      revert\n        /* \"#utility.yul\":5475:5527   */\n    tag_310:\n        /* \"#utility.yul\":5555:5564   */\n      dup2\n        /* \"#utility.yul\":5549:5565   */\n      mload\n        /* \"#utility.yul\":5574:5605   */\n      tag_294\n        /* \"#utility.yul\":5599:5604   */\n      dup2\n        /* \"#utility.yul\":5574:5605   */\n      tag_258\n      jump\t// in\n        /* \"#utility.yul\":5988:6123   */\n    tag_157:\n        /* \"#utility.yul\":6027:6030   */\n      0x00\n        /* \"#utility.yul\":6048:6065   */\n      0x01\n      dup3\n      add\n        /* \"#utility.yul\":6045:6088   */\n      tag_315\n      jumpi\n        /* \"#utility.yul\":6068:6086   */\n      tag_315\n      tag_260\n      jump\t// in\n    tag_315:\n      pop\n        /* \"#utility.yul\":6115:6116   */\n      0x01\n        /* \"#utility.yul\":6104:6117   */\n      add\n      swap1\n        /* \"#utility.yul\":5988:6123   */\n      jump\t// out\n        /* \"#utility.yul\":6531:6699   */\n    tag_170:\n        /* \"#utility.yul\":6571:6578   */\n      0x00\n        /* \"#utility.yul\":6637:6638   */\n      dup2\n        /* \"#utility.yul\":6633:6634   */\n      0x00\n        /* \"#utility.yul\":6629:6635   */\n      not\n        /* \"#utility.yul\":6625:6639   */\n      div\n        /* \"#utility.yul\":6622:6623   */\n      dup4\n        /* \"#utility.yul\":6619:6640   */\n      gt\n        /* \"#utility.yul\":6614:6615   */\n      dup3\n        /* \"#utility.yul\":6607:6616   */\n      iszero\n        /* \"#utility.yul\":6600:6617   */\n      iszero\n        /* \"#utility.yul\":6596:6641   */\n      and\n        /* \"#utility.yul\":6593:6664   */\n      iszero\n      tag_319\n      jumpi\n        /* \"#utility.yul\":6644:6662   */\n      tag_319\n      tag_260\n      jump\t// in\n    tag_319:\n      pop\n        /* \"#utility.yul\":6684:6693   */\n      mul\n      swap1\n        /* \"#utility.yul\":6531:6699   */\n      jump\t// out\n        /* \"#utility.yul\":6704:7336   */\n    tag_173:\n        /* \"#utility.yul\":6875:6877   */\n      0x20\n        /* \"#utility.yul\":6927:6948   */\n      dup1\n      dup3\n      mstore\n        /* \"#utility.yul\":6997:7010   */\n      dup3\n      mload\n        /* \"#utility.yul\":6900:6918   */\n      dup3\n      dup3\n      add\n        /* \"#utility.yul\":7019:7041   */\n      dup2\n      swap1\n      mstore\n        /* \"#utility.yul\":6846:6850   */\n      0x00\n      swap2\n        /* \"#utility.yul\":6875:6877   */\n      swap1\n        /* \"#utility.yul\":7098:7113   */\n      dup5\n      dup3\n      add\n      swap1\n        /* \"#utility.yul\":7072:7074   */\n      0x40\n        /* \"#utility.yul\":7057:7075   */\n      dup6\n      add\n      swap1\n        /* \"#utility.yul\":6846:6850   */\n      dup5\n        /* \"#utility.yul\":7141:7310   */\n    tag_321:\n        /* \"#utility.yul\":7155:7161   */\n      dup2\n        /* \"#utility.yul\":7152:7153   */\n      dup2\n        /* \"#utility.yul\":7149:7162   */\n      lt\n        /* \"#utility.yul\":7141:7310   */\n      iszero\n      tag_323\n      jumpi\n        /* \"#utility.yul\":7216:7229   */\n      dup4\n      mload\n        /* \"#utility.yul\":7204:7230   */\n      dup4\n      mstore\n        /* \"#utility.yul\":7285:7300   */\n      swap3\n      dup5\n      add\n      swap3\n        /* \"#utility.yul\":7250:7262   */\n      swap2\n      dup5\n      add\n      swap2\n        /* \"#utility.yul\":7177:7178   */\n      0x01\n        /* \"#utility.yul\":7170:7179   */\n      add\n        /* \"#utility.yul\":7141:7310   */\n      jump(tag_321)\n    tag_323:\n      pop\n        /* \"#utility.yul\":7327:7330   */\n      swap1\n      swap7\n        /* \"#utility.yul\":6704:7336   */\n      swap6\n      pop\n      pop\n      pop\n      pop\n      pop\n      pop\n      jump\t// out\n\n    auxdata: 0xa2646970667358221220f3828605b45bbc58ddcb26007886ab8fd5c4649e3eca8603cfeffb3f11eeb49364736f6c634300080d0033\n}\n",
    "bytecode": {
      "linkReferences": {},
      "object": "60806040523480156200001157600080fd5b506040518060400160405280600a81526020016927b0b9b4b9aa37b5b2b760b11b8152506040518060400160405280600381526020016213d4d560ea1b815250816003908051906020019062000069929190620000f8565b5080516200007f906004906020840190620000f8565b5050506200009c62000096620000a260201b60201c565b620000a6565b620001da565b3390565b600580546001600160a01b038381166001600160a01b0319831681179093556040519116919082907f8be0079c531659141344cd1fd0a4f28419497f9722a3daafe3b4186f6b6457e090600090a35050565b82805462000106906200019e565b90600052602060002090601f0160209004810192826200012a576000855562000175565b82601f106200014557805160ff191683800117855562000175565b8280016001018555821562000175579182015b828111156200017557825182559160200191906001019062000158565b506200018392915062000187565b5090565b5b8082111562000183576000815560010162000188565b600181811c90821680620001b357607f821691505b602082108103620001d457634e487b7160e01b600052602260045260246000fd5b50919050565b61113c80620001ea6000396000f3fe608060405234801561001057600080fd5b506004361061016c5760003560e01c8063715018a6116100cd578063a9059cbb11610081578063dd62ed3e11610066578063dd62ed3e146102d4578063e99648711461030d578063f2fde38b1461032057600080fd5b8063a9059cbb146102ae578063c79476b5146102c157600080fd5b806395d89b41116100b257806395d89b41146102805780639ff5167514610288578063a457c2d71461029b57600080fd5b8063715018a6146102535780638da5cb5b1461025b57600080fd5b8063313ce5671161012457806340c10f191161010957806340c10f19146102025780636ba4c1381461021757806370a082311461022a57600080fd5b8063313ce567146101e057806339509351146101ef57600080fd5b806318160ddd1161015557806318160ddd146101b257806323b872dd146101c45780632647cfac146101d757600080fd5b806306fdde0314610171578063095ea7b31461018f575b600080fd5b610179610333565b6040516101869190610de7565b60405180910390f35b6101a261019d366004610e51565b6103c5565b6040519015158152602001610186565b6002545b604051908152602001610186565b6101a26101d2366004610e7d565b6103dd565b6101b660065481565b60405160128152602001610186565b6101a26101fd366004610e51565b610401565b610215610210366004610e51565b610440565b005b610215610225366004610ed4565b610456565b6101b6610238366004610f92565b6001600160a01b031660009081526020819052604090205490565b6102156106ef565b6005546001600160a01b03165b6040516001600160a01b039091168152602001610186565b610179610703565b600854610268906001600160a01b031681565b6101a26102a9366004610e51565b610712565b6101a26102bc366004610e51565b6107bc565b600754610268906001600160a01b031681565b6101b66102e2366004610fb6565b6001600160a01b03918216600090815260016020908152604080832093909416825291909152205490565b61021561031b366004610e7d565b6107ca565b61021561032e366004610f92565b610814565b60606003805461034290610fef565b80601f016020809104026020016040519081016040528092919081815260200182805461036e90610fef565b80156103bb5780601f10610390576101008083540402835291602001916103bb565b820191906000526020600020905b81548152906001019060200180831161039e57829003601f168201915b5050505050905090565b6000336103d38185856108a4565b5060019392505050565b6000336103eb8582856109c0565b6103f6858585610a52565b506001949350505050565b3360008181526001602090815260408083206001600160a01b03871684529091528120549091906103d3908290869061043b90879061103f565b6108a4565b610448610c4f565b6104528282610ca9565b5050565b805160018110156104ae5760405162461bcd60e51b815260206004820152601a60248201527f4d757374206275726e206174206c65617374203120746f6b656e00000000000060448201526064015b60405180910390fd5b60005b818110156105b157600754835130916001600160a01b03169063081812fc908690859081106104e2576104e2611057565b60200260200101516040518263ffffffff1660e01b815260040161050891815260200190565b602060405180830381865afa158015610525573d6000803e3d6000fd5b505050506040513d601f19601f82011682018060405250810190610549919061106d565b6001600160a01b03161461059f5760405162461bcd60e51b815260206004820152601360248201527f4d75737420417070726f766520546f6b656e730000000000000000000000000060448201526064016104a5565b806105a98161108a565b9150506104b1565b5060005b8181101561068b5760075460085484516001600160a01b03928316926323b872dd9233929116908790869081106105ee576105ee611057565b60209081029190910101516040517fffffffff0000000000000000000000000000000000000000000000000000000060e086901b1681526001600160a01b0393841660048201529290911660248301526044820152606401600060405180830381600087803b15801561066057600080fd5b505af1158015610674573d6000803e3d6000fd5b5050505080806106839061108a565b9150506105b5565b5060006006548261069c91906110a3565b90506106a83382610ca9565b80336001600160a01b03167fe95b1afb8a6019e43b6906420999d1c23995e338d5e7016e96f61b605fa96e26856040516106e291906110c2565b60405180910390a3505050565b6106f7610c4f565b6107016000610d88565b565b60606004805461034290610fef565b3360008181526001602090815260408083206001600160a01b0387168452909152812054909190838110156107af5760405162461bcd60e51b815260206004820152602560248201527f45524332303a2064656372656173656420616c6c6f77616e63652062656c6f7760448201527f207a65726f00000000000000000000000000000000000000000000000000000060648201526084016104a5565b6103f682868684036108a4565b6000336103d3818585610a52565b6107d2610c4f565b600780546001600160a01b0394851673ffffffffffffffffffffffffffffffffffffffff19918216179091556008805493909416921691909117909155600655565b61081c610c4f565b6001600160a01b0381166108985760405162461bcd60e51b815260206004820152602660248201527f4f776e61626c653a206e6577206f776e657220697320746865207a65726f206160448201527f646472657373000000000000000000000000000000000000000000000000000060648201526084016104a5565b6108a181610d88565b50565b6001600160a01b0383166109065760405162461bcd60e51b8152602060048201526024808201527f45524332303a20617070726f76652066726f6d20746865207a65726f206164646044820152637265737360e01b60648201526084016104a5565b6001600160a01b0382166109675760405162461bcd60e51b815260206004820152602260248201527f45524332303a20617070726f766520746f20746865207a65726f206164647265604482015261737360f01b60648201526084016104a5565b6001600160a01b0383811660008181526001602090815260408083209487168084529482529182902085905590518481527f8c5be1e5ebec7d5bd14f71427d1e84f3dd0314c0f7b2291e5b200ac8c7c3b92591016106e2565b6001600160a01b038381166000908152600160209081526040808320938616835292905220546000198114610a4c5781811015610a3f5760405162461bcd60e51b815260206004820152601d60248201527f45524332303a20696e73756666696369656e7420616c6c6f77616e636500000060448201526064016104a5565b610a4c84848484036108a4565b50505050565b6001600160a01b038316610ace5760405162461bcd60e51b815260206004820152602560248201527f45524332303a207472616e736665722066726f6d20746865207a65726f20616460448201527f647265737300000000000000000000000000000000000000000000000000000060648201526084016104a5565b6001600160a01b038216610b305760405162461bcd60e51b815260206004820152602360248201527f45524332303a207472616e7366657220746f20746865207a65726f206164647260448201526265737360e81b60648201526084016104a5565b6001600160a01b03831660009081526020819052604090205481811015610bbf5760405162461bcd60e51b815260206004820152602660248201527f45524332303a207472616e7366657220616d6f756e742065786365656473206260448201527f616c616e6365000000000000000000000000000000000000000000000000000060648201526084016104a5565b6001600160a01b03808516600090815260208190526040808220858503905591851681529081208054849290610bf690849061103f565b92505081905550826001600160a01b0316846001600160a01b03167fddf252ad1be2c89b69c2b068fc378daa952ba7f163c4a11628f55a4df523b3ef84604051610c4291815260200190565b60405180910390a3610a4c565b6005546001600160a01b031633146107015760405162461bcd60e51b815260206004820181905260248201527f4f776e61626c653a2063616c6c6572206973206e6f7420746865206f776e657260448201526064016104a5565b6001600160a01b038216610cff5760405162461bcd60e51b815260206004820152601f60248201527f45524332303a206d696e7420746f20746865207a65726f20616464726573730060448201526064016104a5565b8060026000828254610d11919061103f565b90915550506001600160a01b03821660009081526020819052604081208054839290610d3e90849061103f565b90915550506040518181526001600160a01b038316906000907fddf252ad1be2c89b69c2b068fc378daa952ba7f163c4a11628f55a4df523b3ef9060200160405180910390a35050565b600580546001600160a01b0383811673ffffffffffffffffffffffffffffffffffffffff19831681179093556040519116919082907f8be0079c531659141344cd1fd0a4f28419497f9722a3daafe3b4186f6b6457e090600090a35050565b600060208083528351808285015260005b81811015610e1457858101830151858201604001528201610df8565b81811115610e26576000604083870101525b50601f01601f1916929092016040019392505050565b6001600160a01b03811681146108a157600080fd5b60008060408385031215610e6457600080fd5b8235610e6f81610e3c565b946020939093013593505050565b600080600060608486031215610e9257600080fd5b8335610e9d81610e3c565b92506020840135610ead81610e3c565b929592945050506040919091013590565b634e487b7160e01b600052604160045260246000fd5b60006020808385031215610ee757600080fd5b823567ffffffffffffffff80821115610eff57600080fd5b818501915085601f830112610f1357600080fd5b813581811115610f2557610f25610ebe565b8060051b604051601f19603f83011681018181108582111715610f4a57610f4a610ebe565b604052918252848201925083810185019188831115610f6857600080fd5b938501935b82851015610f8657843584529385019392850192610f6d565b98975050505050505050565b600060208284031215610fa457600080fd5b8135610faf81610e3c565b9392505050565b60008060408385031215610fc957600080fd5b8235610fd481610e3c565b91506020830135610fe481610e3c565b809150509250929050565b600181811c9082168061100357607f821691505b60208210810361102357634e487b7160e01b600052602260045260246000fd5b50919050565b634e487b7160e01b600052601160045260246000fd5b6000821982111561105257611052611029565b500190565b634e487b7160e01b600052603260045260246000fd5b60006020828403121561107f57600080fd5b8151610faf81610e3c565b60006001820161109c5761109c611029565b5060010190565b60008160001904831182151516156110bd576110bd611029565b500290565b6020808252825182820181905260009190848201906040850190845b818110156110fa578351835292840192918401916001016110de565b5090969550505050505056fea2646970667358221220f3828605b45bbc58ddcb26007886ab8fd5c4649e3eca8603cfeffb3f11eeb49364736f6c634300080d0033",
      "opcodes": "PUSH1 0x80 PUSH1 0x40 MSTORE CALLVALUE DUP1 ISZERO PUSH3 0x11 JUMPI PUSH1 0x0 DUP1 REVERT JUMPDEST POP PUSH1 0x40 MLOAD DUP1 PUSH1 0x40 ADD PUSH1 0x40 MSTORE DUP1 PUSH1 0xA DUP2 MSTORE PUSH1 0x20 ADD PUSH10 0x27B0B9B4B9AA37B5B2B7 PUSH1 0xB1 SHL DUP2 MSTORE POP PUSH1 0x40 MLOAD DUP1 PUSH1 0x40 ADD PUSH1 0x40 MSTORE DUP1 PUSH1 0x3 DUP2 MSTORE PUSH1 0x20 ADD PUSH3 0x13D4D5 PUSH1 0xEA SHL DUP2 MSTORE POP DUP2 PUSH1 0x3 SWAP1 DUP1 MLOAD SWAP1 PUSH1 0x20 ADD SWAP1 PUSH3 0x69 SWAP3 SWAP2 SWAP1 PUSH3 0xF8 JUMP JUMPDEST POP DUP1 MLOAD PUSH3 0x7F SWAP1 PUSH1 0x4 SWAP1 PUSH1 0x20 DUP5 ADD SWAP1 PUSH3 0xF8 JUMP JUMPDEST POP POP POP PUSH3 0x9C PUSH3 0x96 PUSH3 0xA2 PUSH1 0x20 SHL PUSH1 0x20 SHR JUMP JUMPDEST PUSH3 0xA6 JUMP JUMPDEST PUSH3 0x1DA JUMP JUMPDEST CALLER SWAP1 JUMP JUMPDEST PUSH1 0x5 DUP1 SLOAD PUSH1 0x1 PUSH1 0x1 PUSH1 0xA0 SHL SUB DUP4 DUP2 AND PUSH1 0x1 PUSH1 0x1 PUSH1 0xA0 SHL SUB NOT DUP4 AND DUP2 OR SWAP1 SWAP4 SSTORE PUSH1 0x40 MLOAD SWAP2 AND SWAP2 SWAP1 DUP3 SWAP1 PUSH32 0x8BE0079C531659141344CD1FD0A4F28419497F9722A3DAAFE3B4186F6B6457E0 SWAP1 PUSH1 0x0 SWAP1 LOG3 POP POP JUMP JUMPDEST DUP3 DUP1 SLOAD PUSH3 0x106 SWAP1 PUSH3 0x19E JUMP JUMPDEST SWAP1 PUSH1 0x0 MSTORE PUSH1 0x20 PUSH1 0x0 KECCAK256 SWAP1 PUSH1 0x1F ADD PUSH1 0x20 SWAP1 DIV DUP2 ADD SWAP3 DUP3 PUSH3 0x12A JUMPI PUSH1 0x0 DUP6 SSTORE PUSH3 0x175 JUMP JUMPDEST DUP3 PUSH1 0x1F LT PUSH3 0x145 JUMPI DUP1 MLOAD PUSH1 0xFF NOT AND DUP4 DUP1 ADD OR DUP6 SSTORE PUSH3 0x175 JUMP JUMPDEST DUP3 DUP1 ADD PUSH1 0x1 ADD DUP6 SSTORE DUP3 ISZERO PUSH3 0x175 JUMPI SWAP2 DUP3 ADD JUMPDEST DUP3 DUP2 GT ISZERO PUSH3 0x175 JUMPI DUP3 MLOAD DUP3 SSTORE SWAP2 PUSH1 0x20 ADD SWAP2 SWAP1 PUSH1 0x1 ADD SWAP1 PUSH3 0x158 JUMP JUMPDEST POP PUSH3 0x183 SWAP3 SWAP2 POP PUSH3 0x187 JUMP JUMPDEST POP SWAP1 JUMP JUMPDEST JUMPDEST DUP1 DUP3 GT ISZERO PUSH3 0x183 JUMPI PUSH1 0x0 DUP2 SSTORE PUSH1 0x1 ADD PUSH3 0x188 JUMP JUMPDEST PUSH1 0x1 DUP2 DUP2 SHR SWAP1 DUP3 AND DUP1 PUSH3 0x1B3 JUMPI PUSH1 0x7F DUP3 AND SWAP2 POP JUMPDEST PUSH1 0x20 DUP3 LT DUP2 SUB PUSH3 0x1D4 JUMPI PUSH4 0x4E487B71 PUSH1 0xE0 SHL PUSH1 0x0 MSTORE PUSH1 0x22 PUSH1 0x4 MSTORE PUSH1 0x24 PUSH1 0x0 REVERT JUMPDEST POP SWAP2 SWAP1 POP JUMP JUMPDEST PUSH2 0x113C DUP1 PUSH3 0x1EA PUSH1 0x0 CODECOPY PUSH1 0x0 RETURN INVALID PUSH1 0x80 PUSH1 0x40 MSTORE CALLVALUE DUP1 ISZERO PUSH2 0x10 JUMPI PUSH1 0x0 DUP1 REVERT JUMPDEST POP PUSH1 0x4 CALLDATASIZE LT PUSH2 0x16C JUMPI PUSH1 0x0 CALLDATALOAD PUSH1 0xE0 SHR DUP1 PUSH4 0x715018A6 GT PUSH2 0xCD JUMPI DUP1 PUSH4 0xA9059CBB GT PUSH2 0x81 JUMPI DUP1 PUSH4 0xDD62ED3E GT PUSH2 0x66 JUMPI DUP1 PUSH4 0xDD62ED3E EQ PUSH2 0x2D4 JUMPI DUP1 PUSH4 0xE9964871 EQ PUSH2 0x30D JUMPI DUP1 PUSH4 0xF2FDE38B EQ PUSH2 0x320 JUMPI PUSH1 0x0 DUP1 REVERT JUMPDEST DUP1 PUSH4 0xA9059CBB EQ PUSH2 0x2AE JUMPI DUP1 PUSH4 0xC79476B5 EQ PUSH2 0x2C1 JUMPI PUSH1 0x0 DUP1 REVERT JUMPDEST DUP1 PUSH4 0x95D89B41 GT PUSH2 0xB2 JUMPI DUP1 PUSH4 0x95D89B41 EQ PUSH2 0x280 JUMPI DUP1 PUSH4 0x9FF51675 EQ PUSH2 0x288 JUMPI DUP1 PUSH4 0xA457C2D7 EQ PUSH2 0x29B JUMPI PUSH1 0x0 DUP1 REVERT JUMPDEST DUP1 PUSH4 0x715018A6 EQ PUSH2 0x253 JUMPI DUP1 PUSH4 0x8DA5CB5B EQ PUSH2 0x25B JUMPI PUSH1 0x0 DUP1 REVERT JUMPDEST DUP1 PUSH4 0x313CE567 GT PUSH2 0x124 JUMPI DUP1 PUSH4 0x40C10F19 GT PUSH2 0x109 JUMPI DUP1 PUSH4 0x40C10F19 EQ PUSH2 0x202 JUMPI DUP1 PUSH4 0x6BA4C138 EQ PUSH2 0x217 JUMPI DUP1 PUSH4 0x70A08231 EQ PUSH2 0x22A JUMPI PUSH1 0x0 DUP1 REVERT JUMPDEST DUP1 PUSH4 0x313CE567 EQ PUSH2 0x1E0 JUMPI DUP1 PUSH4 0x39509351 EQ PUSH2 0x1EF JUMPI PUSH1 0x0 DUP1 REVERT JUMPDEST DUP1 PUSH4 0x18160DDD GT PUSH2 0x155 JUMPI DUP1 PUSH4 0x18160DDD EQ PUSH2 0x1B2 JUMPI DUP1 PUSH4 0x23B872DD EQ PUSH2 0x1C4 JUMPI DUP1 PUSH4 0x2647CFAC EQ PUSH2 0x1D7 JUMPI PUSH1 0x0 DUP1 REVERT JUMPDEST DUP1 PUSH4 0x6FDDE03 EQ PUSH2 0x171 JUMPI DUP1 PUSH4 0x95EA7B3 EQ PUSH2 0x18F JUMPI JUMPDEST PUSH1 0x0 DUP1 REVERT JUMPDEST PUSH2 0x179 PUSH2 0x333 JUMP JUMPDEST PUSH1 0x40 MLOAD PUSH2 0x186 SWAP2 SWAP1 PUSH2 0xDE7 JUMP JUMPDEST PUSH1 0x40 MLOAD DUP1 SWAP2 SUB SWAP1 RETURN JUMPDEST PUSH2 0x1A2 PUSH2 0x19D CALLDATASIZE PUSH1 0x4 PUSH2 0xE51 JUMP JUMPDEST PUSH2 0x3C5 JUMP JUMPDEST PUSH1 0x40 MLOAD SWAP1 ISZERO ISZERO DUP2 MSTORE PUSH1 0x20 ADD PUSH2 0x186 JUMP JUMPDEST PUSH1 0x2 SLOAD JUMPDEST PUSH1 0x40 MLOAD SWAP1 DUP2 MSTORE PUSH1 0x20 ADD PUSH2 0x186 JUMP JUMPDEST PUSH2 0x1A2 PUSH2 0x1D2 CALLDATASIZE PUSH1 0x4 PUSH2 0xE7D JUMP JUMPDEST PUSH2 0x3DD JUMP JUMPDEST PUSH2 0x1B6 PUSH1 0x6 SLOAD DUP2 JUMP JUMPDEST PUSH1 0x40 MLOAD PUSH1 0x12 DUP2 MSTORE PUSH1 0x20 ADD PUSH2 0x186 JUMP JUMPDEST PUSH2 0x1A2 PUSH2 0x1FD CALLDATASIZE PUSH1 0x4 PUSH2 0xE51 JUMP JUMPDEST PUSH2 0x401 JUMP JUMPDEST PUSH2 0x215 PUSH2 0x210 CALLDATASIZE PUSH1 0x4 PUSH2 0xE51 JUMP JUMPDEST PUSH2 0x440 JUMP JUMPDEST STOP JUMPDEST PUSH2 0x215 PUSH2 0x225 CALLDATASIZE PUSH1 0x4 PUSH2 0xED4 JUMP JUMPDEST PUSH2 0x456 JUMP JUMPDEST PUSH2 0x1B6 PUSH2 0x238 CALLDATASIZE PUSH1 0x4 PUSH2 0xF92 JUMP JUMPDEST PUSH1 0x1 PUSH1 0x1 PUSH1 0xA0 SHL SUB AND PUSH1 0x0 SWAP1 DUP2 MSTORE PUSH1 0x20 DUP2 SWAP1 MSTORE PUSH1 0x40 SWAP1 KECCAK256 SLOAD SWAP1 JUMP JUMPDEST PUSH2 0x215 PUSH2 0x6EF JUMP JUMPDEST PUSH1 0x5 SLOAD PUSH1 0x1 PUSH1 0x1 PUSH1 0xA0 SHL SUB AND JUMPDEST PUSH1 0x40 MLOAD PUSH1 0x1 PUSH1 0x1 PUSH1 0xA0 SHL SUB SWAP1 SWAP2 AND DUP2 MSTORE PUSH1 0x20 ADD PUSH2 0x186 JUMP JUMPDEST PUSH2 0x179 PUSH2 0x703 JUMP JUMPDEST PUSH1 0x8 SLOAD PUSH2 0x268 SWAP1 PUSH1 0x1 PUSH1 0x1 PUSH1 0xA0 SHL SUB AND DUP2 JUMP JUMPDEST PUSH2 0x1A2 PUSH2 0x2A9 CALLDATASIZE PUSH1 0x4 PUSH2 0xE51 JUMP JUMPDEST PUSH2 0x712 JUMP JUMPDEST PUSH2 0x1A2 PUSH2 0x2BC CALLDATASIZE PUSH1 0x4 PUSH2 0xE51 JUMP JUMPDEST PUSH2 0x7BC JUMP JUMPDEST PUSH1 0x7 SLOAD PUSH2 0x268 SWAP1 PUSH1 0x1 PUSH1 0x1 PUSH1 0xA0 SHL SUB AND DUP2 JUMP JUMPDEST PUSH2 0x1B6 PUSH2 0x2E2 CALLDATASIZE PUSH1 0x4 PUSH2 0xFB6 JUMP JUMPDEST PUSH1 0x1 PUSH1 0x1 PUSH1 0xA0 SHL SUB SWAP2 DUP3 AND PUSH1 0x0 SWAP1 DUP2 MSTORE PUSH1 0x1 PUSH1 0x20 SWAP1 DUP2 MSTORE PUSH1 0x40 DUP1 DUP4 KECCAK256 SWAP4 SWAP1 SWAP5 AND DUP3 MSTORE SWAP2 SWAP1 SWAP2 MSTORE KECCAK256 SLOAD SWAP1 JUMP JUMPDEST PUSH2 0x215 PUSH2 0x31B CALLDATASIZE PUSH1 0x4 PUSH2 0xE7D JUMP JUMPDEST PUSH2 0x7CA JUMP JUMPDEST PUSH2 0x215 PUSH2 0x32E CALLDATASIZE PUSH1 0x4 PUSH2 0xF92 JUMP JUMPDEST PUSH2 0x814 JUMP JUMPDEST PUSH1 0x60 PUSH1 0x3 DUP1 SLOAD PUSH2 0x342 SWAP1 PUSH2 0xFEF JUMP JUMPDEST DUP1 PUSH1 0x1F ADD PUSH1 0x20 DUP1 SWAP2 DIV MUL PUSH1 0x20 ADD PUSH1 0x40 MLOAD SWAP1 DUP2 ADD PUSH1 0x40 MSTORE DUP1 SWAP3 SWAP2 SWAP1 DUP2 DUP2 MSTORE PUSH1 0x20 ADD DUP3 DUP1 SLOAD PUSH2 0x36E SWAP1 PUSH2 0xFEF JUMP JUMPDEST DUP1 ISZERO PUSH2 0x3BB JUMPI DUP1 PUSH1 0x1F LT PUSH2 0x390 JUMPI PUSH2 0x100 DUP1 DUP4 SLOAD DIV MUL DUP4 MSTORE SWAP2 PUSH1 0x20 ADD SWAP2 PUSH2 0x3BB JUMP JUMPDEST DUP3 ADD SWAP2 SWAP1 PUSH1 0x0 MSTORE PUSH1 0x20 PUSH1 0x0 KECCAK256 SWAP1 JUMPDEST DUP2 SLOAD DUP2 MSTORE SWAP1 PUSH1 0x1 ADD SWAP1 PUSH1 0x20 ADD DUP1 DUP4 GT PUSH2 0x39E JUMPI DUP3 SWAP1 SUB PUSH1 0x1F AND DUP3 ADD SWAP2 JUMPDEST POP POP POP POP POP SWAP1 POP SWAP1 JUMP JUMPDEST PUSH1 0x0 CALLER PUSH2 0x3D3 DUP2 DUP6 DUP6 PUSH2 0x8A4 JUMP JUMPDEST POP PUSH1 0x1 SWAP4 SWAP3 POP POP POP JUMP JUMPDEST PUSH1 0x0 CALLER PUSH2 0x3EB DUP6 DUP3 DUP6 PUSH2 0x9C0 JUMP JUMPDEST PUSH2 0x3F6 DUP6 DUP6 DUP6 PUSH2 0xA52 JUMP JUMPDEST POP PUSH1 0x1 SWAP5 SWAP4 POP POP POP POP JUMP JUMPDEST CALLER PUSH1 0x0 DUP2 DUP2 MSTORE PUSH1 0x1 PUSH1 0x20 SWAP1 DUP2 MSTORE PUSH1 0x40 DUP1 DUP4 KECCAK256 PUSH1 0x1 PUSH1 0x1 PUSH1 0xA0 SHL SUB DUP8 AND DUP5 MSTORE SWAP1 SWAP2 MSTORE DUP2 KECCAK256 SLOAD SWAP1 SWAP2 SWAP1 PUSH2 0x3D3 SWAP1 DUP3 SWAP1 DUP7 SWAP1 PUSH2 0x43B SWAP1 DUP8 SWAP1 PUSH2 0x103F JUMP JUMPDEST PUSH2 0x8A4 JUMP JUMPDEST PUSH2 0x448 PUSH2 0xC4F JUMP JUMPDEST PUSH2 0x452 DUP3 DUP3 PUSH2 0xCA9 JUMP JUMPDEST POP POP JUMP JUMPDEST DUP1 MLOAD PUSH1 0x1 DUP2 LT ISZERO PUSH2 0x4AE JUMPI PUSH1 0x40 MLOAD PUSH3 0x461BCD PUSH1 0xE5 SHL DUP2 MSTORE PUSH1 0x20 PUSH1 0x4 DUP3 ADD MSTORE PUSH1 0x1A PUSH1 0x24 DUP3 ADD MSTORE PUSH32 0x4D757374206275726E206174206C65617374203120746F6B656E000000000000 PUSH1 0x44 DUP3 ADD MSTORE PUSH1 0x64 ADD JUMPDEST PUSH1 0x40 MLOAD DUP1 SWAP2 SUB SWAP1 REVERT JUMPDEST PUSH1 0x0 JUMPDEST DUP2 DUP2 LT ISZERO PUSH2 0x5B1 JUMPI PUSH1 0x7 SLOAD DUP4 MLOAD ADDRESS SWAP2 PUSH1 0x1 PUSH1 0x1 PUSH1 0xA0 SHL SUB AND SWAP1 PUSH4 0x81812FC SWAP1 DUP7 SWAP1 DUP6 SWAP1 DUP2 LT PUSH2 0x4E2 JUMPI PUSH2 0x4E2 PUSH2 0x1057 JUMP JUMPDEST PUSH1 0x20 MUL PUSH1 0x20 ADD ADD MLOAD PUSH1 0x40 MLOAD DUP3 PUSH4 0xFFFFFFFF AND PUSH1 0xE0 SHL DUP2 MSTORE PUSH1 0x4 ADD PUSH2 0x508 SWAP2 DUP2 MSTORE PUSH1 0x20 ADD SWAP1 JUMP JUMPDEST PUSH1 0x20 PUSH1 0x40 MLOAD DUP1 DUP4 SUB DUP2 DUP7 GAS STATICCALL ISZERO DUP1 ISZERO PUSH2 0x525 JUMPI RETURNDATASIZE PUSH1 0x0 DUP1 RETURNDATACOPY RETURNDATASIZE PUSH1 0x0 REVERT JUMPDEST POP POP POP POP PUSH1 0x40 MLOAD RETURNDATASIZE PUSH1 0x1F NOT PUSH1 0x1F DUP3 ADD AND DUP3 ADD DUP1 PUSH1 0x40 MSTORE POP DUP2 ADD SWAP1 PUSH2 0x549 SWAP2 SWAP1 PUSH2 0x106D JUMP JUMPDEST PUSH1 0x1 PUSH1 0x1 PUSH1 0xA0 SHL SUB AND EQ PUSH2 0x59F JUMPI PUSH1 0x40 MLOAD PUSH3 0x461BCD PUSH1 0xE5 SHL DUP2 MSTORE PUSH1 0x20 PUSH1 0x4 DUP3 ADD MSTORE PUSH1 0x13 PUSH1 0x24 DUP3 ADD MSTORE PUSH32 0x4D75737420417070726F766520546F6B656E7300000000000000000000000000 PUSH1 0x44 DUP3 ADD MSTORE PUSH1 0x64 ADD PUSH2 0x4A5 JUMP JUMPDEST DUP1 PUSH2 0x5A9 DUP2 PUSH2 0x108A JUMP JUMPDEST SWAP2 POP POP PUSH2 0x4B1 JUMP JUMPDEST POP PUSH1 0x0 JUMPDEST DUP2 DUP2 LT ISZERO PUSH2 0x68B JUMPI PUSH1 0x7 SLOAD PUSH1 0x8 SLOAD DUP5 MLOAD PUSH1 0x1 PUSH1 0x1 PUSH1 0xA0 SHL SUB SWAP3 DUP4 AND SWAP3 PUSH4 0x23B872DD SWAP3 CALLER SWAP3 SWAP2 AND SWAP1 DUP8 SWAP1 DUP7 SWAP1 DUP2 LT PUSH2 0x5EE JUMPI PUSH2 0x5EE PUSH2 0x1057 JUMP JUMPDEST PUSH1 0x20 SWAP1 DUP2 MUL SWAP2 SWAP1 SWAP2 ADD ADD MLOAD PUSH1 0x40 MLOAD PUSH32 0xFFFFFFFF00000000000000000000000000000000000000000000000000000000 PUSH1 0xE0 DUP7 SWAP1 SHL AND DUP2 MSTORE PUSH1 0x1 PUSH1 0x1 PUSH1 0xA0 SHL SUB SWAP4 DUP5 AND PUSH1 0x4 DUP3 ADD MSTORE SWAP3 SWAP1 SWAP2 AND PUSH1 0x24 DUP4 ADD MSTORE PUSH1 0x44 DUP3 ADD MSTORE PUSH1 0x64 ADD PUSH1 0x0 PUSH1 0x40 MLOAD DUP1 DUP4 SUB DUP2 PUSH1 0x0 DUP8 DUP1 EXTCODESIZE ISZERO DUP1 ISZERO PUSH2 0x660 JUMPI PUSH1 0x0 DUP1 REVERT JUMPDEST POP GAS CALL ISZERO DUP1 ISZERO PUSH2 0x674 JUMPI RETURNDATASIZE PUSH1 0x0 DUP1 RETURNDATACOPY RETURNDATASIZE PUSH1 0x0 REVERT JUMPDEST POP POP POP POP DUP1 DUP1 PUSH2 0x683 SWAP1 PUSH2 0x108A JUMP JUMPDEST SWAP2 POP POP PUSH2 0x5B5 JUMP JUMPDEST POP PUSH1 0x0 PUSH1 0x6 SLOAD DUP3 PUSH2 0x69C SWAP2 SWAP1 PUSH2 0x10A3 JUMP JUMPDEST SWAP1 POP PUSH2 0x6A8 CALLER DUP3 PUSH2 0xCA9 JUMP JUMPDEST DUP1 CALLER PUSH1 0x1 PUSH1 0x1 PUSH1 0xA0 SHL SUB AND PUSH32 0xE95B1AFB8A6019E43B6906420999D1C23995E338D5E7016E96F61B605FA96E26 DUP6 PUSH1 0x40 MLOAD PUSH2 0x6E2 SWAP2 SWAP1 PUSH2 0x10C2 JUMP JUMPDEST PUSH1 0x40 MLOAD DUP1 SWAP2 SUB SWAP1 LOG3 POP POP POP JUMP JUMPDEST PUSH2 0x6F7 PUSH2 0xC4F JUMP JUMPDEST PUSH2 0x701 PUSH1 0x0 PUSH2 0xD88 JUMP JUMPDEST JUMP JUMPDEST PUSH1 0x60 PUSH1 0x4 DUP1 SLOAD PUSH2 0x342 SWAP1 PUSH2 0xFEF JUMP JUMPDEST CALLER PUSH1 0x0 DUP2 DUP2 MSTORE PUSH1 0x1 PUSH1 0x20 SWAP1 DUP2 MSTORE PUSH1 0x40 DUP1 DUP4 KECCAK256 PUSH1 0x1 PUSH1 0x1 PUSH1 0xA0 SHL SUB DUP8 AND DUP5 MSTORE SWAP1 SWAP2 MSTORE DUP2 KECCAK256 SLOAD SWAP1 SWAP2 SWAP1 DUP4 DUP2 LT ISZERO PUSH2 0x7AF JUMPI PUSH1 0x40 MLOAD PUSH3 0x461BCD PUSH1 0xE5 SHL DUP2 MSTORE PUSH1 0x20 PUSH1 0x4 DUP3 ADD MSTORE PUSH1 0x25 PUSH1 0x24 DUP3 ADD MSTORE PUSH32 0x45524332303A2064656372656173656420616C6C6F77616E63652062656C6F77 PUSH1 0x44 DUP3 ADD MSTORE PUSH32 0x207A65726F000000000000000000000000000000000000000000000000000000 PUSH1 0x64 DUP3 ADD MSTORE PUSH1 0x84 ADD PUSH2 0x4A5 JUMP JUMPDEST PUSH2 0x3F6 DUP3 DUP7 DUP7 DUP5 SUB PUSH2 0x8A4 JUMP JUMPDEST PUSH1 0x0 CALLER PUSH2 0x3D3 DUP2 DUP6 DUP6 PUSH2 0xA52 JUMP JUMPDEST PUSH2 0x7D2 PUSH2 0xC4F JUMP JUMPDEST PUSH1 0x7 DUP1 SLOAD PUSH1 0x1 PUSH1 0x1 PUSH1 0xA0 SHL SUB SWAP5 DUP6 AND PUSH20 0xFFFFFFFFFFFFFFFFFFFFFFFFFFFFFFFFFFFFFFFF NOT SWAP2 DUP3 AND OR SWAP1 SWAP2 SSTORE PUSH1 0x8 DUP1 SLOAD SWAP4 SWAP1 SWAP5 AND SWAP3 AND SWAP2 SWAP1 SWAP2 OR SWAP1 SWAP2 SSTORE PUSH1 0x6 SSTORE JUMP JUMPDEST PUSH2 0x81C PUSH2 0xC4F JUMP JUMPDEST PUSH1 0x1 PUSH1 0x1 PUSH1 0xA0 SHL SUB DUP2 AND PUSH2 0x898 JUMPI PUSH1 0x40 MLOAD PUSH3 0x461BCD PUSH1 0xE5 SHL DUP2 MSTORE PUSH1 0x20 PUSH1 0x4 DUP3 ADD MSTORE PUSH1 0x26 PUSH1 0x24 DUP3 ADD MSTORE PUSH32 0x4F776E61626C653A206E6577206F776E657220697320746865207A65726F2061 PUSH1 0x44 DUP3 ADD MSTORE PUSH32 0x6464726573730000000000000000000000000000000000000000000000000000 PUSH1 0x64 DUP3 ADD MSTORE PUSH1 0x84 ADD PUSH2 0x4A5 JUMP JUMPDEST PUSH2 0x8A1 DUP2 PUSH2 0xD88 JUMP JUMPDEST POP JUMP JUMPDEST PUSH1 0x1 PUSH1 0x1 PUSH1 0xA0 SHL SUB DUP4 AND PUSH2 0x906 JUMPI PUSH1 0x40 MLOAD PUSH3 0x461BCD PUSH1 0xE5 SHL DUP2 MSTORE PUSH1 0x20 PUSH1 0x4 DUP3 ADD MSTORE PUSH1 0x24 DUP1 DUP3 ADD MSTORE PUSH32 0x45524332303A20617070726F76652066726F6D20746865207A65726F20616464 PUSH1 0x44 DUP3 ADD MSTORE PUSH4 0x72657373 PUSH1 0xE0 SHL PUSH1 0x64 DUP3 ADD MSTORE PUSH1 0x84 ADD PUSH2 0x4A5 JUMP JUMPDEST PUSH1 0x1 PUSH1 0x1 PUSH1 0xA0 SHL SUB DUP3 AND PUSH2 0x967 JUMPI PUSH1 0x40 MLOAD PUSH3 0x461BCD PUSH1 0xE5 SHL DUP2 MSTORE PUSH1 0x20 PUSH1 0x4 DUP3 ADD MSTORE PUSH1 0x22 PUSH1 0x24 DUP3 ADD MSTORE PUSH32 0x45524332303A20617070726F766520746F20746865207A65726F206164647265 PUSH1 0x44 DUP3 ADD MSTORE PUSH2 0x7373 PUSH1 0xF0 SHL PUSH1 0x64 DUP3 ADD MSTORE PUSH1 0x84 ADD PUSH2 0x4A5 JUMP JUMPDEST PUSH1 0x1 PUSH1 0x1 PUSH1 0xA0 SHL SUB DUP4 DUP2 AND PUSH1 0x0 DUP2 DUP2 MSTORE PUSH1 0x1 PUSH1 0x20 SWAP1 DUP2 MSTORE PUSH1 0x40 DUP1 DUP4 KECCAK256 SWAP5 DUP8 AND DUP1 DUP5 MSTORE SWAP5 DUP3 MSTORE SWAP2 DUP3 SWAP1 KECCAK256 DUP6 SWAP1 SSTORE SWAP1 MLOAD DUP5 DUP2 MSTORE PUSH32 0x8C5BE1E5EBEC7D5BD14F71427D1E84F3DD0314C0F7B2291E5B200AC8C7C3B925 SWAP2 ADD PUSH2 0x6E2 JUMP JUMPDEST PUSH1 0x1 PUSH1 0x1 PUSH1 0xA0 SHL SUB DUP4 DUP2 AND PUSH1 0x0 SWAP1 DUP2 MSTORE PUSH1 0x1 PUSH1 0x20 SWAP1 DUP2 MSTORE PUSH1 0x40 DUP1 DUP4 KECCAK256 SWAP4 DUP7 AND DUP4 MSTORE SWAP3 SWAP1 MSTORE KECCAK256 SLOAD PUSH1 0x0 NOT DUP2 EQ PUSH2 0xA4C JUMPI DUP2 DUP2 LT ISZERO PUSH2 0xA3F JUMPI PUSH1 0x40 MLOAD PUSH3 0x461BCD PUSH1 0xE5 SHL DUP2 MSTORE PUSH1 0x20 PUSH1 0x4 DUP3 ADD MSTORE PUSH1 0x1D PUSH1 0x24 DUP3 ADD MSTORE PUSH32 0x45524332303A20696E73756666696369656E7420616C6C6F77616E6365000000 PUSH1 0x44 DUP3 ADD MSTORE PUSH1 0x64 ADD PUSH2 0x4A5 JUMP JUMPDEST PUSH2 0xA4C DUP5 DUP5 DUP5 DUP5 SUB PUSH2 0x8A4 JUMP JUMPDEST POP POP POP POP JUMP JUMPDEST PUSH1 0x1 PUSH1 0x1 PUSH1 0xA0 SHL SUB DUP4 AND PUSH2 0xACE JUMPI PUSH1 0x40 MLOAD PUSH3 0x461BCD PUSH1 0xE5 SHL DUP2 MSTORE PUSH1 0x20 PUSH1 0x4 DUP3 ADD MSTORE PUSH1 0x25 PUSH1 0x24 DUP3 ADD MSTORE PUSH32 0x45524332303A207472616E736665722066726F6D20746865207A65726F206164 PUSH1 0x44 DUP3 ADD MSTORE PUSH32 0x6472657373000000000000000000000000000000000000000000000000000000 PUSH1 0x64 DUP3 ADD MSTORE PUSH1 0x84 ADD PUSH2 0x4A5 JUMP JUMPDEST PUSH1 0x1 PUSH1 0x1 PUSH1 0xA0 SHL SUB DUP3 AND PUSH2 0xB30 JUMPI PUSH1 0x40 MLOAD PUSH3 0x461BCD PUSH1 0xE5 SHL DUP2 MSTORE PUSH1 0x20 PUSH1 0x4 DUP3 ADD MSTORE PUSH1 0x23 PUSH1 0x24 DUP3 ADD MSTORE PUSH32 0x45524332303A207472616E7366657220746F20746865207A65726F2061646472 PUSH1 0x44 DUP3 ADD MSTORE PUSH3 0x657373 PUSH1 0xE8 SHL PUSH1 0x64 DUP3 ADD MSTORE PUSH1 0x84 ADD PUSH2 0x4A5 JUMP JUMPDEST PUSH1 0x1 PUSH1 0x1 PUSH1 0xA0 SHL SUB DUP4 AND PUSH1 0x0 SWAP1 DUP2 MSTORE PUSH1 0x20 DUP2 SWAP1 MSTORE PUSH1 0x40 SWAP1 KECCAK256 SLOAD DUP2 DUP2 LT ISZERO PUSH2 0xBBF JUMPI PUSH1 0x40 MLOAD PUSH3 0x461BCD PUSH1 0xE5 SHL DUP2 MSTORE PUSH1 0x20 PUSH1 0x4 DUP3 ADD MSTORE PUSH1 0x26 PUSH1 0x24 DUP3 ADD MSTORE PUSH32 0x45524332303A207472616E7366657220616D6F756E7420657863656564732062 PUSH1 0x44 DUP3 ADD MSTORE PUSH32 0x616C616E63650000000000000000000000000000000000000000000000000000 PUSH1 0x64 DUP3 ADD MSTORE PUSH1 0x84 ADD PUSH2 0x4A5 JUMP JUMPDEST PUSH1 0x1 PUSH1 0x1 PUSH1 0xA0 SHL SUB DUP1 DUP6 AND PUSH1 0x0 SWAP1 DUP2 MSTORE PUSH1 0x20 DUP2 SWAP1 MSTORE PUSH1 0x40 DUP1 DUP3 KECCAK256 DUP6 DUP6 SUB SWAP1 SSTORE SWAP2 DUP6 AND DUP2 MSTORE SWAP1 DUP2 KECCAK256 DUP1 SLOAD DUP5 SWAP3 SWAP1 PUSH2 0xBF6 SWAP1 DUP5 SWAP1 PUSH2 0x103F JUMP JUMPDEST SWAP3 POP POP DUP2 SWAP1 SSTORE POP DUP3 PUSH1 0x1 PUSH1 0x1 PUSH1 0xA0 SHL SUB AND DUP5 PUSH1 0x1 PUSH1 0x1 PUSH1 0xA0 SHL SUB AND PUSH32 0xDDF252AD1BE2C89B69C2B068FC378DAA952BA7F163C4A11628F55A4DF523B3EF DUP5 PUSH1 0x40 MLOAD PUSH2 0xC42 SWAP2 DUP2 MSTORE PUSH1 0x20 ADD SWAP1 JUMP JUMPDEST PUSH1 0x40 MLOAD DUP1 SWAP2 SUB SWAP1 LOG3 PUSH2 0xA4C JUMP JUMPDEST PUSH1 0x5 SLOAD PUSH1 0x1 PUSH1 0x1 PUSH1 0xA0 SHL SUB AND CALLER EQ PUSH2 0x701 JUMPI PUSH1 0x40 MLOAD PUSH3 0x461BCD PUSH1 0xE5 SHL DUP2 MSTORE PUSH1 0x20 PUSH1 0x4 DUP3 ADD DUP2 SWAP1 MSTORE PUSH1 0x24 DUP3 ADD MSTORE PUSH32 0x4F776E61626C653A2063616C6C6572206973206E6F7420746865206F776E6572 PUSH1 0x44 DUP3 ADD MSTORE PUSH1 0x64 ADD PUSH2 0x4A5 JUMP JUMPDEST PUSH1 0x1 PUSH1 0x1 PUSH1 0xA0 SHL SUB DUP3 AND PUSH2 0xCFF JUMPI PUSH1 0x40 MLOAD PUSH3 0x461BCD PUSH1 0xE5 SHL DUP2 MSTORE PUSH1 0x20 PUSH1 0x4 DUP3 ADD MSTORE PUSH1 0x1F PUSH1 0x24 DUP3 ADD MSTORE PUSH32 0x45524332303A206D696E7420746F20746865207A65726F206164647265737300 PUSH1 0x44 DUP3 ADD MSTORE PUSH1 0x64 ADD PUSH2 0x4A5 JUMP JUMPDEST DUP1 PUSH1 0x2 PUSH1 0x0 DUP3 DUP3 SLOAD PUSH2 0xD11 SWAP2 SWAP1 PUSH2 0x103F JUMP JUMPDEST SWAP1 SWAP2 SSTORE POP POP PUSH1 0x1 PUSH1 0x1 PUSH1 0xA0 SHL SUB DUP3 AND PUSH1 0x0 SWAP1 DUP2 MSTORE PUSH1 0x20 DUP2 SWAP1 MSTORE PUSH1 0x40 DUP2 KECCAK256 DUP1 SLOAD DUP4 SWAP3 SWAP1 PUSH2 0xD3E SWAP1 DUP5 SWAP1 PUSH2 0x103F JUMP JUMPDEST SWAP1 SWAP2 SSTORE POP POP PUSH1 0x40 MLOAD DUP2 DUP2 MSTORE PUSH1 0x1 PUSH1 0x1 PUSH1 0xA0 SHL SUB DUP4 AND SWAP1 PUSH1 0x0 SWAP1 PUSH32 0xDDF252AD1BE2C89B69C2B068FC378DAA952BA7F163C4A11628F55A4DF523B3EF SWAP1 PUSH1 0x20 ADD PUSH1 0x40 MLOAD DUP1 SWAP2 SUB SWAP1 LOG3 POP POP JUMP JUMPDEST PUSH1 0x5 DUP1 SLOAD PUSH1 0x1 PUSH1 0x1 PUSH1 0xA0 SHL SUB DUP4 DUP2 AND PUSH20 0xFFFFFFFFFFFFFFFFFFFFFFFFFFFFFFFFFFFFFFFF NOT DUP4 AND DUP2 OR SWAP1 SWAP4 SSTORE PUSH1 0x40 MLOAD SWAP2 AND SWAP2 SWAP1 DUP3 SWAP1 PUSH32 0x8BE0079C531659141344CD1FD0A4F28419497F9722A3DAAFE3B4186F6B6457E0 SWAP1 PUSH1 0x0 SWAP1 LOG3 POP POP JUMP JUMPDEST PUSH1 0x0 PUSH1 0x20 DUP1 DUP4 MSTORE DUP4 MLOAD DUP1 DUP3 DUP6 ADD MSTORE PUSH1 0x0 JUMPDEST DUP2 DUP2 LT ISZERO PUSH2 0xE14 JUMPI DUP6 DUP2 ADD DUP4 ADD MLOAD DUP6 DUP3 ADD PUSH1 0x40 ADD MSTORE DUP3 ADD PUSH2 0xDF8 JUMP JUMPDEST DUP2 DUP2 GT ISZERO PUSH2 0xE26 JUMPI PUSH1 0x0 PUSH1 0x40 DUP4 DUP8 ADD ADD MSTORE JUMPDEST POP PUSH1 0x1F ADD PUSH1 0x1F NOT AND SWAP3 SWAP1 SWAP3 ADD PUSH1 0x40 ADD SWAP4 SWAP3 POP POP POP JUMP JUMPDEST PUSH1 0x1 PUSH1 0x1 PUSH1 0xA0 SHL SUB DUP2 AND DUP2 EQ PUSH2 0x8A1 JUMPI PUSH1 0x0 DUP1 REVERT JUMPDEST PUSH1 0x0 DUP1 PUSH1 0x40 DUP4 DUP6 SUB SLT ISZERO PUSH2 0xE64 JUMPI PUSH1 0x0 DUP1 REVERT JUMPDEST DUP3 CALLDATALOAD PUSH2 0xE6F DUP2 PUSH2 0xE3C JUMP JUMPDEST SWAP5 PUSH1 0x20 SWAP4 SWAP1 SWAP4 ADD CALLDATALOAD SWAP4 POP POP POP JUMP JUMPDEST PUSH1 0x0 DUP1 PUSH1 0x0 PUSH1 0x60 DUP5 DUP7 SUB SLT ISZERO PUSH2 0xE92 JUMPI PUSH1 0x0 DUP1 REVERT JUMPDEST DUP4 CALLDATALOAD PUSH2 0xE9D DUP2 PUSH2 0xE3C JUMP JUMPDEST SWAP3 POP PUSH1 0x20 DUP5 ADD CALLDATALOAD PUSH2 0xEAD DUP2 PUSH2 0xE3C JUMP JUMPDEST SWAP3 SWAP6 SWAP3 SWAP5 POP POP POP PUSH1 0x40 SWAP2 SWAP1 SWAP2 ADD CALLDATALOAD SWAP1 JUMP JUMPDEST PUSH4 0x4E487B71 PUSH1 0xE0 SHL PUSH1 0x0 MSTORE PUSH1 0x41 PUSH1 0x4 MSTORE PUSH1 0x24 PUSH1 0x0 REVERT JUMPDEST PUSH1 0x0 PUSH1 0x20 DUP1 DUP4 DUP6 SUB SLT ISZERO PUSH2 0xEE7 JUMPI PUSH1 0x0 DUP1 REVERT JUMPDEST DUP3 CALLDATALOAD PUSH8 0xFFFFFFFFFFFFFFFF DUP1 DUP3 GT ISZERO PUSH2 0xEFF JUMPI PUSH1 0x0 DUP1 REVERT JUMPDEST DUP2 DUP6 ADD SWAP2 POP DUP6 PUSH1 0x1F DUP4 ADD SLT PUSH2 0xF13 JUMPI PUSH1 0x0 DUP1 REVERT JUMPDEST DUP2 CALLDATALOAD DUP2 DUP2 GT ISZERO PUSH2 0xF25 JUMPI PUSH2 0xF25 PUSH2 0xEBE JUMP JUMPDEST DUP1 PUSH1 0x5 SHL PUSH1 0x40 MLOAD PUSH1 0x1F NOT PUSH1 0x3F DUP4 ADD AND DUP2 ADD DUP2 DUP2 LT DUP6 DUP3 GT OR ISZERO PUSH2 0xF4A JUMPI PUSH2 0xF4A PUSH2 0xEBE JUMP JUMPDEST PUSH1 0x40 MSTORE SWAP2 DUP3 MSTORE DUP5 DUP3 ADD SWAP3 POP DUP4 DUP2 ADD DUP6 ADD SWAP2 DUP9 DUP4 GT ISZERO PUSH2 0xF68 JUMPI PUSH1 0x0 DUP1 REVERT JUMPDEST SWAP4 DUP6 ADD SWAP4 JUMPDEST DUP3 DUP6 LT ISZERO PUSH2 0xF86 JUMPI DUP5 CALLDATALOAD DUP5 MSTORE SWAP4 DUP6 ADD SWAP4 SWAP3 DUP6 ADD SWAP3 PUSH2 0xF6D JUMP JUMPDEST SWAP9 SWAP8 POP POP POP POP POP POP POP POP JUMP JUMPDEST PUSH1 0x0 PUSH1 0x20 DUP3 DUP5 SUB SLT ISZERO PUSH2 0xFA4 JUMPI PUSH1 0x0 DUP1 REVERT JUMPDEST DUP2 CALLDATALOAD PUSH2 0xFAF DUP2 PUSH2 0xE3C JUMP JUMPDEST SWAP4 SWAP3 POP POP POP JUMP JUMPDEST PUSH1 0x0 DUP1 PUSH1 0x40 DUP4 DUP6 SUB SLT ISZERO PUSH2 0xFC9 JUMPI PUSH1 0x0 DUP1 REVERT JUMPDEST DUP3 CALLDATALOAD PUSH2 0xFD4 DUP2 PUSH2 0xE3C JUMP JUMPDEST SWAP2 POP PUSH1 0x20 DUP4 ADD CALLDATALOAD PUSH2 0xFE4 DUP2 PUSH2 0xE3C JUMP JUMPDEST DUP1 SWAP2 POP POP SWAP3 POP SWAP3 SWAP1 POP JUMP JUMPDEST PUSH1 0x1 DUP2 DUP2 SHR SWAP1 DUP3 AND DUP1 PUSH2 0x1003 JUMPI PUSH1 0x7F DUP3 AND SWAP2 POP JUMPDEST PUSH1 0x20 DUP3 LT DUP2 SUB PUSH2 0x1023 JUMPI PUSH4 0x4E487B71 PUSH1 0xE0 SHL PUSH1 0x0 MSTORE PUSH1 0x22 PUSH1 0x4 MSTORE PUSH1 0x24 PUSH1 0x0 REVERT JUMPDEST POP SWAP2 SWAP1 POP JUMP JUMPDEST PUSH4 0x4E487B71 PUSH1 0xE0 SHL PUSH1 0x0 MSTORE PUSH1 0x11 PUSH1 0x4 MSTORE PUSH1 0x24 PUSH1 0x0 REVERT JUMPDEST PUSH1 0x0 DUP3 NOT DUP3 GT ISZERO PUSH2 0x1052 JUMPI PUSH2 0x1052 PUSH2 0x1029 JUMP JUMPDEST POP ADD SWAP1 JUMP JUMPDEST PUSH4 0x4E487B71 PUSH1 0xE0 SHL PUSH1 0x0 MSTORE PUSH1 0x32 PUSH1 0x4 MSTORE PUSH1 0x24 PUSH1 0x0 REVERT JUMPDEST PUSH1 0x0 PUSH1 0x20 DUP3 DUP5 SUB SLT ISZERO PUSH2 0x107F JUMPI PUSH1 0x0 DUP1 REVERT JUMPDEST DUP2 MLOAD PUSH2 0xFAF DUP2 PUSH2 0xE3C JUMP JUMPDEST PUSH1 0x0 PUSH1 0x1 DUP3 ADD PUSH2 0x109C JUMPI PUSH2 0x109C PUSH2 0x1029 JUMP JUMPDEST POP PUSH1 0x1 ADD SWAP1 JUMP JUMPDEST PUSH1 0x0 DUP2 PUSH1 0x0 NOT DIV DUP4 GT DUP3 ISZERO ISZERO AND ISZERO PUSH2 0x10BD JUMPI PUSH2 0x10BD PUSH2 0x1029 JUMP JUMPDEST POP MUL SWAP1 JUMP JUMPDEST PUSH1 0x20 DUP1 DUP3 MSTORE DUP3 MLOAD DUP3 DUP3 ADD DUP2 SWAP1 MSTORE PUSH1 0x0 SWAP2 SWAP1 DUP5 DUP3 ADD SWAP1 PUSH1 0x40 DUP6 ADD SWAP1 DUP5 JUMPDEST DUP2 DUP2 LT ISZERO PUSH2 0x10FA JUMPI DUP4 MLOAD DUP4 MSTORE SWAP3 DUP5 ADD SWAP3 SWAP2 DUP5 ADD SWAP2 PUSH1 0x1 ADD PUSH2 0x10DE JUMP JUMPDEST POP SWAP1 SWAP7 SWAP6 POP POP POP POP POP POP JUMP INVALID LOG2 PUSH5 0x6970667358 0x22 SLT KECCAK256 RETURN DUP3 DUP7 SDIV 0xB4 JUMPDEST 0xBC PC 0xDD 0xCB 0x26 STOP PUSH25 0x86AB8FD5C4649E3ECA8603CFEFFB3F11EEB49364736F6C6343 STOP ADDMOD 0xD STOP CALLER "
    },
    "gasEstimates": {
      "creation": {
        "codeDepositCost": "882400",
        "executionCost": "infinite",
        "totalCost": "infinite"
      },
      "external": {
        "allowance(address,address)": "infinite",
        "approve(address,uint256)": "24676",
        "balanceOf(address)": "2623",
        "claim(uint256[])": "infinite",
        "crazyCamels()": "2404",
        "decimals()": "223",
        "decreaseAllowance(address,uint256)": "26995",
        "increaseAllowance(address,uint256)": "27019",
        "mint(address,uint256)": "infinite",
        "name()": "infinite",
        "oasisGraveyard()": "2404",
        "owner()": "2388",
        "renounceOwnership()": "infinite",
        "setStateVariables(address,address,uint256)": "infinite",
        "symbol()": "infinite",
        "tokensPerCrazyCamel()": "2385",
        "totalSupply()": "2327",
        "transfer(address,uint256)": "51221",
        "transferFrom(address,address,uint256)": "infinite",
        "transferOwnership(address)": "infinite"
      }
    },
    "methodIdentifiers": {
      "allowance(address,address)": "dd62ed3e",
      "approve(address,uint256)": "095ea7b3",
      "balanceOf(address)": "70a08231",
      "claim(uint256[])": "6ba4c138",
      "crazyCamels()": "c79476b5",
      "decimals()": "313ce567",
      "decreaseAllowance(address,uint256)": "a457c2d7",
      "increaseAllowance(address,uint256)": "39509351",
      "mint(address,uint256)": "40c10f19",
      "name()": "06fdde03",
      "oasisGraveyard()": "9ff51675",
      "owner()": "8da5cb5b",
      "renounceOwnership()": "715018a6",
      "setStateVariables(address,address,uint256)": "e9964871",
      "symbol()": "95d89b41",
      "tokensPerCrazyCamel()": "2647cfac",
      "totalSupply()": "18160ddd",
      "transfer(address,uint256)": "a9059cbb",
      "transferFrom(address,address,uint256)": "23b872dd",
      "transferOwnership(address)": "f2fde38b"
    }
  },
  "storageLayout": {
    "storage": [
      {
        "astId": 2294,
        "contract": "OasisToken.sol:OasisToken",
        "label": "_balances",
        "offset": 0,
        "slot": "0",
        "type": "t_mapping(t_address,t_uint256)"
      },
      {
        "astId": 2300,
        "contract": "OasisToken.sol:OasisToken",
        "label": "_allowances",
        "offset": 0,
        "slot": "1",
        "type": "t_mapping(t_address,t_mapping(t_address,t_uint256))"
      },
      {
        "astId": 2302,
        "contract": "OasisToken.sol:OasisToken",
        "label": "_totalSupply",
        "offset": 0,
        "slot": "2",
        "type": "t_uint256"
      },
      {
        "astId": 2304,
        "contract": "OasisToken.sol:OasisToken",
        "label": "_name",
        "offset": 0,
        "slot": "3",
        "type": "t_string_storage"
      },
      {
        "astId": 2306,
        "contract": "OasisToken.sol:OasisToken",
        "label": "_symbol",
        "offset": 0,
        "slot": "4",
        "type": "t_string_storage"
      },
      {
        "astId": 1118,
        "contract": "OasisToken.sol:OasisToken",
        "label": "_owner",
        "offset": 0,
        "slot": "5",
        "type": "t_address"
      },
      {
        "astId": 954,
        "contract": "OasisToken.sol:OasisToken",
        "label": "tokensPerCrazyCamel",
        "offset": 0,
        "slot": "6",
        "type": "t_uint256"
      },
      {
        "astId": 956,
        "contract": "OasisToken.sol:OasisToken",
        "label": "crazyCamels",
        "offset": 0,
        "slot": "7",
        "type": "t_address"
      },
      {
        "astId": 958,
        "contract": "OasisToken.sol:OasisToken",
        "label": "oasisGraveyard",
        "offset": 0,
        "slot": "8",
        "type": "t_address"
      }
    ],
    "types": {
      "t_address": {
        "encoding": "inplace",
        "label": "address",
        "numberOfBytes": "20"
      },
      "t_mapping(t_address,t_mapping(t_address,t_uint256))": {
        "encoding": "mapping",
        "key": "t_address",
        "label": "mapping(address => mapping(address => uint256))",
        "numberOfBytes": "32",
        "value": "t_mapping(t_address,t_uint256)"
      },
      "t_mapping(t_address,t_uint256)": {
        "encoding": "mapping",
        "key": "t_address",
        "label": "mapping(address => uint256)",
        "numberOfBytes": "32",
        "value": "t_uint256"
      },
      "t_string_storage": {
        "encoding": "bytes",
        "label": "string",
        "numberOfBytes": "32"
      },
      "t_uint256": {
        "encoding": "inplace",
        "label": "uint256",
        "numberOfBytes": "32"
      }
    }
  },
  "userdoc": {
    "events": {
      "ClaimedOST(address,uint256,uint256[])": {
        "notice": "EVENTS ///"
      }
    },
    "kind": "user",
    "methods": {
      "claim(uint256[])": {
        "notice": "EXTERNAL FUNCTIONS ///"
      },
      "constructor": {
        "notice": "CONSTRUCTOR ///"
      },
      "setStateVariables(address,address,uint256)": {
        "notice": "OWNER FUNCTIONS ///"
      },
      "tokensPerCrazyCamel()": {
        "notice": "STATE VARIABLES ///"
      }
    },
    "version": 1
  }
}