{
  "abi": [
    {
      "inputs": [
        {
          "internalType": "address",
          "name": "_crazyCamels",
          "type": "address"
        },
        {
          "internalType": "address",
          "name": "_oasisGraveyard",
          "type": "address"
        },
        {
          "internalType": "uint128",
          "name": "_tokensPerCrazyCamel",
          "type": "uint128"
        }
      ],
      "stateMutability": "nonpayable",
      "type": "constructor"
    },
    {
      "inputs": [],
      "name": "InvalidArguments",
      "type": "error"
    },
    {
      "inputs": [],
      "name": "NotMinter",
      "type": "error"
    },
    {
      "anonymous": false,
      "inputs": [
        {
          "indexed": true,
          "internalType": "address",
          "name": "owner",
          "type": "address"
        },
        {
          "indexed": true,
          "internalType": "address",
          "name": "spender",
          "type": "address"
        },
        {
          "indexed": false,
          "internalType": "uint256",
          "name": "value",
          "type": "uint256"
        }
      ],
      "name": "Approval",
      "type": "event"
    },
    {
      "anonymous": false,
      "inputs": [
        {
          "indexed": true,
          "internalType": "address",
          "name": "claimer",
          "type": "address"
        },
        {
          "indexed": true,
          "internalType": "uint256",
          "name": "camelsBurned",
          "type": "uint256"
        }
      ],
      "name": "Claimed",
      "type": "event"
    },
    {
      "anonymous": false,
      "inputs": [
        {
          "indexed": true,
          "internalType": "address",
          "name": "previousOwner",
          "type": "address"
        },
        {
          "indexed": true,
          "internalType": "address",
          "name": "newOwner",
          "type": "address"
        }
      ],
      "name": "OwnershipTransferred",
      "type": "event"
    },
    {
      "anonymous": false,
      "inputs": [
        {
          "indexed": true,
          "internalType": "address",
          "name": "from",
          "type": "address"
        },
        {
          "indexed": true,
          "internalType": "address",
          "name": "to",
          "type": "address"
        },
        {
          "indexed": false,
          "internalType": "uint256",
          "name": "value",
          "type": "uint256"
        }
      ],
      "name": "Transfer",
      "type": "event"
    },
    {
      "inputs": [
        {
          "internalType": "address",
          "name": "_minter",
          "type": "address"
        }
      ],
      "name": "addMinter",
      "outputs": [],
      "stateMutability": "nonpayable",
      "type": "function"
    },
    {
      "inputs": [
        {
          "internalType": "address",
          "name": "owner",
          "type": "address"
        },
        {
          "internalType": "address",
          "name": "spender",
          "type": "address"
        }
      ],
      "name": "allowance",
      "outputs": [
        {
          "internalType": "uint256",
          "name": "",
          "type": "uint256"
        }
      ],
      "stateMutability": "view",
      "type": "function"
    },
    {
      "inputs": [
        {
          "internalType": "address",
          "name": "spender",
          "type": "address"
        },
        {
          "internalType": "uint256",
          "name": "amount",
          "type": "uint256"
        }
      ],
      "name": "approve",
      "outputs": [
        {
          "internalType": "bool",
          "name": "",
          "type": "bool"
        }
      ],
      "stateMutability": "nonpayable",
      "type": "function"
    },
    {
      "inputs": [
        {
          "internalType": "address",
          "name": "account",
          "type": "address"
        }
      ],
      "name": "balanceOf",
      "outputs": [
        {
          "internalType": "uint256",
          "name": "",
          "type": "uint256"
        }
      ],
      "stateMutability": "view",
      "type": "function"
    },
    {
      "inputs": [
        {
          "internalType": "uint256[]",
          "name": "_tokenIds",
          "type": "uint256[]"
        }
      ],
      "name": "claim",
      "outputs": [],
      "stateMutability": "nonpayable",
      "type": "function"
    },
    {
      "inputs": [],
      "name": "crazyCamels",
      "outputs": [
        {
          "internalType": "address",
          "name": "",
          "type": "address"
        }
      ],
      "stateMutability": "view",
      "type": "function"
    },
    {
      "inputs": [],
      "name": "decimals",
      "outputs": [
        {
          "internalType": "uint8",
          "name": "",
          "type": "uint8"
        }
      ],
      "stateMutability": "view",
      "type": "function"
    },
    {
      "inputs": [
        {
          "internalType": "address",
          "name": "spender",
          "type": "address"
        },
        {
          "internalType": "uint256",
          "name": "subtractedValue",
          "type": "uint256"
        }
      ],
      "name": "decreaseAllowance",
      "outputs": [
        {
          "internalType": "bool",
          "name": "",
          "type": "bool"
        }
      ],
      "stateMutability": "nonpayable",
      "type": "function"
    },
    {
      "inputs": [
        {
          "internalType": "address",
          "name": "spender",
          "type": "address"
        },
        {
          "internalType": "uint256",
          "name": "addedValue",
          "type": "uint256"
        }
      ],
      "name": "increaseAllowance",
      "outputs": [
        {
          "internalType": "bool",
          "name": "",
          "type": "bool"
        }
      ],
      "stateMutability": "nonpayable",
      "type": "function"
    },
    {
      "inputs": [
        {
          "internalType": "address",
          "name": "_to",
          "type": "address"
        },
        {
          "internalType": "uint256",
          "name": "_amount",
          "type": "uint256"
        }
      ],
      "name": "mint",
      "outputs": [],
      "stateMutability": "nonpayable",
      "type": "function"
    },
    {
      "inputs": [
        {
          "internalType": "address",
          "name": "",
          "type": "address"
        }
      ],
      "name": "minter",
      "outputs": [
        {
          "internalType": "bool",
          "name": "",
          "type": "bool"
        }
      ],
      "stateMutability": "view",
      "type": "function"
    },
    {
      "inputs": [],
      "name": "name",
      "outputs": [
        {
          "internalType": "string",
          "name": "",
          "type": "string"
        }
      ],
      "stateMutability": "view",
      "type": "function"
    },
    {
      "inputs": [],
      "name": "oasisGraveyard",
      "outputs": [
        {
          "internalType": "address",
          "name": "",
          "type": "address"
        }
      ],
      "stateMutability": "view",
      "type": "function"
    },
    {
      "inputs": [],
      "name": "owner",
      "outputs": [
        {
          "internalType": "address",
          "name": "",
          "type": "address"
        }
      ],
      "stateMutability": "view",
      "type": "function"
    },
    {
      "inputs": [
        {
          "internalType": "address",
          "name": "_minter",
          "type": "address"
        }
      ],
      "name": "removeMinter",
      "outputs": [],
      "stateMutability": "nonpayable",
      "type": "function"
    },
    {
      "inputs": [],
      "name": "renounceOwnership",
      "outputs": [],
      "stateMutability": "nonpayable",
      "type": "function"
    },
    {
      "inputs": [],
      "name": "symbol",
      "outputs": [
        {
          "internalType": "string",
          "name": "",
          "type": "string"
        }
      ],
      "stateMutability": "view",
      "type": "function"
    },
    {
      "inputs": [],
      "name": "tokensPerCrazyCamel",
      "outputs": [
        {
          "internalType": "uint128",
          "name": "",
          "type": "uint128"
        }
      ],
      "stateMutability": "view",
      "type": "function"
    },
    {
      "inputs": [],
      "name": "totalSupply",
      "outputs": [
        {
          "internalType": "uint256",
          "name": "",
          "type": "uint256"
        }
      ],
      "stateMutability": "view",
      "type": "function"
    },
    {
      "inputs": [
        {
          "internalType": "address",
          "name": "to",
          "type": "address"
        },
        {
          "internalType": "uint256",
          "name": "amount",
          "type": "uint256"
        }
      ],
      "name": "transfer",
      "outputs": [
        {
          "internalType": "bool",
          "name": "",
          "type": "bool"
        }
      ],
      "stateMutability": "nonpayable",
      "type": "function"
    },
    {
      "inputs": [
        {
          "internalType": "address",
          "name": "from",
          "type": "address"
        },
        {
          "internalType": "address",
          "name": "to",
          "type": "address"
        },
        {
          "internalType": "uint256",
          "name": "amount",
          "type": "uint256"
        }
      ],
      "name": "transferFrom",
      "outputs": [
        {
          "internalType": "bool",
          "name": "",
          "type": "bool"
        }
      ],
      "stateMutability": "nonpayable",
      "type": "function"
    },
    {
      "inputs": [
        {
          "internalType": "address",
          "name": "newOwner",
          "type": "address"
        }
      ],
      "name": "transferOwnership",
      "outputs": [],
      "stateMutability": "nonpayable",
      "type": "function"
    }
  ],
  "devdoc": {
    "author": ". 0xFirekeeper",
    "kind": "dev",
    "methods": {
      "allowance(address,address)": {
        "details": "See {IERC20-allowance}."
      },
      "approve(address,uint256)": {
        "details": "See {IERC20-approve}. NOTE: If `amount` is the maximum `uint256`, the allowance is not updated on `transferFrom`. This is semantically equivalent to an infinite approval. Requirements: - `spender` cannot be the zero address."
      },
      "balanceOf(address)": {
        "details": "See {IERC20-balanceOf}."
      },
      "decimals()": {
        "details": "Returns the number of decimals used to get its user representation. For example, if `decimals` equals `2`, a balance of `505` tokens should be displayed to a user as `5.05` (`505 / 10 ** 2`). Tokens usually opt for a value of 18, imitating the relationship between Ether and Wei. This is the value {ERC20} uses, unless this function is overridden; NOTE: This information is only used for _display_ purposes: it in no way affects any of the arithmetic of the contract, including {IERC20-balanceOf} and {IERC20-transfer}."
      },
      "decreaseAllowance(address,uint256)": {
        "details": "Atomically decreases the allowance granted to `spender` by the caller. This is an alternative to {approve} that can be used as a mitigation for problems described in {IERC20-approve}. Emits an {Approval} event indicating the updated allowance. Requirements: - `spender` cannot be the zero address. - `spender` must have allowance for the caller of at least `subtractedValue`."
      },
      "increaseAllowance(address,uint256)": {
        "details": "Atomically increases the allowance granted to `spender` by the caller. This is an alternative to {approve} that can be used as a mitigation for problems described in {IERC20-approve}. Emits an {Approval} event indicating the updated allowance. Requirements: - `spender` cannot be the zero address."
      },
      "name()": {
        "details": "Returns the name of the token."
      },
      "owner()": {
        "details": "Returns the address of the current owner."
      },
      "renounceOwnership()": {
        "details": "Leaves the contract without owner. It will not be possible to call `onlyOwner` functions anymore. Can only be called by the current owner. NOTE: Renouncing ownership will leave the contract without an owner, thereby removing any functionality that is only available to the owner."
      },
      "symbol()": {
        "details": "Returns the symbol of the token, usually a shorter version of the name."
      },
      "totalSupply()": {
        "details": "See {IERC20-totalSupply}."
      },
      "transfer(address,uint256)": {
        "details": "See {IERC20-transfer}. Requirements: - `to` cannot be the zero address. - the caller must have a balance of at least `amount`."
      },
      "transferFrom(address,address,uint256)": {
        "details": "See {IERC20-transferFrom}. Emits an {Approval} event indicating the updated allowance. This is not required by the EIP. See the note at the beginning of {ERC20}. NOTE: Does not update the allowance if the current allowance is the maximum `uint256`. Requirements: - `from` and `to` cannot be the zero address. - `from` must have a balance of at least `amount`. - the caller must have allowance for ``from``'s tokens of at least `amount`."
      },
      "transferOwnership(address)": {
        "details": "Transfers ownership of the contract to a new account (`newOwner`). Can only be called by the current owner."
      }
    },
    "title": ". Oasis Token",
    "version": 1
  },
  "evm": {
    "assembly": "    /* \"OasisToken.sol\":407:2033  contract OasisToken is ERC20, Ownable {... */\n  mstore(0x40, 0xe0)\n    /* \"OasisToken.sol\":875:1167  constructor(... */\n  callvalue\n  dup1\n  iszero\n  tag_1\n  jumpi\n  0x00\n  dup1\n  revert\ntag_1:\n  pop\n  mload(0x40)\n  sub(codesize, bytecodeSize)\n  dup1\n  bytecodeSize\n  dup4\n  codecopy\n  dup2\n  add\n  0x40\n  dup2\n  swap1\n  mstore\n  tag_2\n  swap2\n  tag_3\n  jump\t// in\ntag_2:\n    /* \"@openzeppelin/contracts/token/ERC20/ERC20.sol\":1978:2091   */\n  mload(0x40)\n  dup1\n  0x40\n  add\n  0x40\n  mstore\n  dup1\n  0x0b\n  dup2\n  mstore\n  0x20\n  add\n  shl(0xa9, 0x27b0b9b4b9902a37b5b2b7)\n  dup2\n  mstore\n  pop\n  mload(0x40)\n  dup1\n  0x40\n  add\n  0x40\n  mstore\n  dup1\n  0x03\n  dup2\n  mstore\n  0x20\n  add\n  shl(0xea, 0x13d4d5)\n  dup2\n  mstore\n  pop\n    /* \"@openzeppelin/contracts/token/ERC20/ERC20.sol\":2052:2057   */\n  dup2\n    /* \"@openzeppelin/contracts/token/ERC20/ERC20.sol\":2044:2049   */\n  0x03\n    /* \"@openzeppelin/contracts/token/ERC20/ERC20.sol\":2044:2057   */\n  swap1\n  dup1\n  mload\n  swap1\n  0x20\n  add\n  swap1\n  tag_8\n  swap3\n  swap2\n  swap1\n  tag_9\n  jump\t// in\ntag_8:\n  pop\n    /* \"@openzeppelin/contracts/token/ERC20/ERC20.sol\":2067:2084   */\n  dup1\n  mload\n  tag_10\n  swap1\n    /* \"@openzeppelin/contracts/token/ERC20/ERC20.sol\":2067:2074   */\n  0x04\n  swap1\n    /* \"@openzeppelin/contracts/token/ERC20/ERC20.sol\":2067:2084   */\n  0x20\n  dup5\n  add\n  swap1\n  tag_9\n  jump\t// in\ntag_10:\n  pop\n    /* \"@openzeppelin/contracts/token/ERC20/ERC20.sol\":1978:2091   */\n  pop\n  pop\n    /* \"@openzeppelin/contracts/access/Ownable.sol\":936:968   */\n  tag_12\n    /* \"@openzeppelin/contracts/access/Ownable.sol\":955:967   */\n  tag_13\n    /* \"@openzeppelin/contracts/access/Ownable.sol\":955:965   */\n  shl(0x20, tag_14)\n    /* \"@openzeppelin/contracts/access/Ownable.sol\":955:967   */\n  0x20\n  shr\n  jump\t// in\ntag_13:\n    /* \"@openzeppelin/contracts/access/Ownable.sol\":936:954   */\n  tag_15\n    /* \"@openzeppelin/contracts/access/Ownable.sol\":936:968   */\n  jump\t// in\ntag_12:\n  sub(shl(0xa0, 0x01), 0x01)\n    /* \"OasisToken.sol\":1037:1063  crazyCamels = _crazyCamels */\n  swap3\n  dup4\n  and\n  0x80\n  mstore\n    /* \"OasisToken.sol\":1074:1106  oasisGraveyard = _oasisGraveyard */\n  swap2\n  and\n  0xa0\n  mstore\n  sub(shl(0x80, 0x01), 0x01)\n    /* \"OasisToken.sol\":1117:1159  tokensPerCrazyCamel = _tokensPerCrazyCamel */\n  and\n  0xc0\n  mstore\n    /* \"OasisToken.sol\":407:2033  contract OasisToken is ERC20, Ownable {... */\n  jump(tag_32)\n    /* \"@openzeppelin/contracts/utils/Context.sol\":640:736   */\ntag_14:\n    /* \"@openzeppelin/contracts/utils/Context.sol\":719:729   */\n  caller\n  swap1\n    /* \"@openzeppelin/contracts/utils/Context.sol\":640:736   */\n  jump\t// out\n    /* \"@openzeppelin/contracts/access/Ownable.sol\":2433:2620   */\ntag_15:\n    /* \"@openzeppelin/contracts/access/Ownable.sol\":2525:2531   */\n  0x05\n  dup1\n  sload\n  sub(shl(0xa0, 0x01), 0x01)\n    /* \"@openzeppelin/contracts/access/Ownable.sol\":2541:2558   */\n  dup4\n  dup2\n  and\n  not(sub(shl(0xa0, 0x01), 0x01))\n  dup4\n  and\n  dup2\n  or\n  swap1\n  swap4\n  sstore\n    /* \"@openzeppelin/contracts/access/Ownable.sol\":2573:2613   */\n  mload(0x40)\n    /* \"@openzeppelin/contracts/access/Ownable.sol\":2525:2531   */\n  swap2\n  and\n  swap2\n    /* \"@openzeppelin/contracts/access/Ownable.sol\":2541:2558   */\n  swap1\n    /* \"@openzeppelin/contracts/access/Ownable.sol\":2525:2531   */\n  dup3\n  swap1\n    /* \"@openzeppelin/contracts/access/Ownable.sol\":2573:2613   */\n  0x8be0079c531659141344cd1fd0a4f28419497f9722a3daafe3b4186f6b6457e0\n  swap1\n    /* \"@openzeppelin/contracts/access/Ownable.sol\":2506:2522   */\n  0x00\n  swap1\n    /* \"@openzeppelin/contracts/access/Ownable.sol\":2573:2613   */\n  log3\n    /* \"@openzeppelin/contracts/access/Ownable.sol\":2496:2620   */\n  pop\n    /* \"@openzeppelin/contracts/access/Ownable.sol\":2433:2620   */\n  pop\n  jump\t// out\n    /* \"OasisToken.sol\":407:2033  contract OasisToken is ERC20, Ownable {... */\ntag_9:\n  dup3\n  dup1\n  sload\n  tag_20\n  swap1\n  tag_21\n  jump\t// in\ntag_20:\n  swap1\n  0x00\n  mstore\n  keccak256(0x00, 0x20)\n  swap1\n  0x1f\n  add\n  0x20\n  swap1\n  div\n  dup2\n  add\n  swap3\n  dup3\n  tag_23\n  jumpi\n  0x00\n  dup6\n  sstore\n  jump(tag_26)\ntag_23:\n  dup3\n  0x1f\n  lt\n  tag_24\n  jumpi\n  dup1\n  mload\n  not(0xff)\n  and\n  dup4\n  dup1\n  add\n  or\n  dup6\n  sstore\n  jump(tag_26)\ntag_24:\n  dup3\n  dup1\n  add\n  0x01\n  add\n  dup6\n  sstore\n  dup3\n  iszero\n  tag_26\n  jumpi\n  swap2\n  dup3\n  add\ntag_25:\n  dup3\n  dup2\n  gt\n  iszero\n  tag_26\n  jumpi\n  dup3\n  mload\n  dup3\n  sstore\n  swap2\n  0x20\n  add\n  swap2\n  swap1\n  0x01\n  add\n  swap1\n  jump(tag_25)\ntag_26:\n  pop\n  tag_27\n  swap3\n  swap2\n  pop\n  tag_28\n  jump\t// in\ntag_27:\n  pop\n  swap1\n  jump\t// out\ntag_28:\ntag_29:\n  dup1\n  dup3\n  gt\n  iszero\n  tag_27\n  jumpi\n  0x00\n  dup2\n  sstore\n  0x01\n  add\n  jump(tag_29)\n    /* \"#utility.yul\":14:191   */\ntag_31:\n    /* \"#utility.yul\":93:106   */\n  dup1\n  mload\n  sub(shl(0xa0, 0x01), 0x01)\n    /* \"#utility.yul\":135:166   */\n  dup2\n  and\n    /* \"#utility.yul\":125:167   */\n  dup2\n  eq\n    /* \"#utility.yul\":115:185   */\n  tag_34\n  jumpi\n    /* \"#utility.yul\":181:182   */\n  0x00\n    /* \"#utility.yul\":178:179   */\n  dup1\n    /* \"#utility.yul\":171:183   */\n  revert\n    /* \"#utility.yul\":115:185   */\ntag_34:\n    /* \"#utility.yul\":14:191   */\n  swap2\n  swap1\n  pop\n  jump\t// out\n    /* \"#utility.yul\":196:656   */\ntag_3:\n    /* \"#utility.yul\":284:290   */\n  0x00\n    /* \"#utility.yul\":292:298   */\n  dup1\n    /* \"#utility.yul\":300:306   */\n  0x00\n    /* \"#utility.yul\":353:355   */\n  0x60\n    /* \"#utility.yul\":341:350   */\n  dup5\n    /* \"#utility.yul\":332:339   */\n  dup7\n    /* \"#utility.yul\":328:351   */\n  sub\n    /* \"#utility.yul\":324:356   */\n  slt\n    /* \"#utility.yul\":321:373   */\n  iszero\n  tag_36\n  jumpi\n    /* \"#utility.yul\":369:370   */\n  0x00\n    /* \"#utility.yul\":366:367   */\n  dup1\n    /* \"#utility.yul\":359:371   */\n  revert\n    /* \"#utility.yul\":321:373   */\ntag_36:\n    /* \"#utility.yul\":392:432   */\n  tag_37\n    /* \"#utility.yul\":422:431   */\n  dup5\n    /* \"#utility.yul\":392:432   */\n  tag_31\n  jump\t// in\ntag_37:\n    /* \"#utility.yul\":382:432   */\n  swap3\n  pop\n    /* \"#utility.yul\":451:500   */\n  tag_38\n    /* \"#utility.yul\":496:498   */\n  0x20\n    /* \"#utility.yul\":485:494   */\n  dup6\n    /* \"#utility.yul\":481:499   */\n  add\n    /* \"#utility.yul\":451:500   */\n  tag_31\n  jump\t// in\ntag_38:\n    /* \"#utility.yul\":543:545   */\n  0x40\n    /* \"#utility.yul\":528:546   */\n  dup6\n  add\n    /* \"#utility.yul\":522:547   */\n  mload\n    /* \"#utility.yul\":441:500   */\n  swap1\n  swap3\n  pop\n  sub(shl(0x80, 0x01), 0x01)\n    /* \"#utility.yul\":576:607   */\n  dup2\n  and\n    /* \"#utility.yul\":566:608   */\n  dup2\n  eq\n    /* \"#utility.yul\":556:626   */\n  tag_39\n  jumpi\n    /* \"#utility.yul\":622:623   */\n  0x00\n    /* \"#utility.yul\":619:620   */\n  dup1\n    /* \"#utility.yul\":612:624   */\n  revert\n    /* \"#utility.yul\":556:626   */\ntag_39:\n    /* \"#utility.yul\":645:650   */\n  dup1\n    /* \"#utility.yul\":635:650   */\n  swap2\n  pop\n  pop\n    /* \"#utility.yul\":196:656   */\n  swap3\n  pop\n  swap3\n  pop\n  swap3\n  jump\t// out\n    /* \"#utility.yul\":661:1041   */\ntag_21:\n    /* \"#utility.yul\":740:741   */\n  0x01\n    /* \"#utility.yul\":736:748   */\n  dup2\n  dup2\n  shr\n  swap1\n    /* \"#utility.yul\":783:795   */\n  dup3\n  and\n  dup1\n    /* \"#utility.yul\":804:865   */\n  tag_41\n  jumpi\n    /* \"#utility.yul\":858:862   */\n  0x7f\n    /* \"#utility.yul\":850:856   */\n  dup3\n    /* \"#utility.yul\":846:863   */\n  and\n    /* \"#utility.yul\":836:863   */\n  swap2\n  pop\n    /* \"#utility.yul\":804:865   */\ntag_41:\n    /* \"#utility.yul\":911:913   */\n  0x20\n    /* \"#utility.yul\":903:909   */\n  dup3\n    /* \"#utility.yul\":900:914   */\n  lt\n    /* \"#utility.yul\":880:898   */\n  dup2\n    /* \"#utility.yul\":877:915   */\n  sub\n    /* \"#utility.yul\":874:1035   */\n  tag_42\n  jumpi\n    /* \"#utility.yul\":957:967   */\n  0x4e487b71\n    /* \"#utility.yul\":952:955   */\n  0xe0\n    /* \"#utility.yul\":948:968   */\n  shl\n    /* \"#utility.yul\":945:946   */\n  0x00\n    /* \"#utility.yul\":938:969   */\n  mstore\n    /* \"#utility.yul\":992:996   */\n  0x22\n    /* \"#utility.yul\":989:990   */\n  0x04\n    /* \"#utility.yul\":982:997   */\n  mstore\n    /* \"#utility.yul\":1020:1024   */\n  0x24\n    /* \"#utility.yul\":1017:1018   */\n  0x00\n    /* \"#utility.yul\":1010:1025   */\n  revert\n    /* \"#utility.yul\":874:1035   */\ntag_42:\n  pop\n    /* \"#utility.yul\":661:1041   */\n  swap2\n  swap1\n  pop\n  jump\t// out\ntag_32:\n    /* \"OasisToken.sol\":407:2033  contract OasisToken is ERC20, Ownable {... */\n  mload(0x80)\n  mload(0xa0)\n  mload(0xc0)\n  codecopy(0x00, dataOffset(sub_0), dataSize(sub_0))\n  0x00\n  assignImmutable(\"0x0da4425557c65a29889667ac39c67d10899ec154bd3e7c1c69e4d6d026946edf\")\n  0x00\n  assignImmutable(\"0x840fecb9bca2c4e63427c4b817f3137cd391e6a160600107c90b96ae83fdac7e\")\n  0x00\n  assignImmutable(\"0x0f973c39283b1fe0b6023d23f4989242f6ef078aaf0fbe84c965d84e4c0b2387\")\n  return(0x00, dataSize(sub_0))\nstop\n\nsub_0: assembly {\n        /* \"OasisToken.sol\":407:2033  contract OasisToken is ERC20, Ownable {... */\n      mstore(0x40, 0x80)\n      callvalue\n      dup1\n      iszero\n      tag_1\n      jumpi\n      0x00\n      dup1\n      revert\n    tag_1:\n      pop\n      jumpi(tag_2, lt(calldatasize, 0x04))\n      shr(0xe0, calldataload(0x00))\n      dup1\n      0x70a08231\n      gt\n      tag_25\n      jumpi\n      dup1\n      0x9ff51675\n      gt\n      tag_26\n      jumpi\n      dup1\n      0xc79476b5\n      gt\n      tag_27\n      jumpi\n      dup1\n      0xc79476b5\n      eq\n      tag_22\n      jumpi\n      dup1\n      0xdd62ed3e\n      eq\n      tag_23\n      jumpi\n      dup1\n      0xf2fde38b\n      eq\n      tag_24\n      jumpi\n      0x00\n      dup1\n      revert\n    tag_27:\n      dup1\n      0x9ff51675\n      eq\n      tag_19\n      jumpi\n      dup1\n      0xa457c2d7\n      eq\n      tag_20\n      jumpi\n      dup1\n      0xa9059cbb\n      eq\n      tag_21\n      jumpi\n      0x00\n      dup1\n      revert\n    tag_26:\n      dup1\n      0x8da5cb5b\n      gt\n      tag_28\n      jumpi\n      dup1\n      0x8da5cb5b\n      eq\n      tag_16\n      jumpi\n      dup1\n      0x95d89b41\n      eq\n      tag_17\n      jumpi\n      dup1\n      0x983b2d56\n      eq\n      tag_18\n      jumpi\n      0x00\n      dup1\n      revert\n    tag_28:\n      dup1\n      0x70a08231\n      eq\n      tag_14\n      jumpi\n      dup1\n      0x715018a6\n      eq\n      tag_15\n      jumpi\n      0x00\n      dup1\n      revert\n    tag_25:\n      dup1\n      0x3092afd5\n      gt\n      tag_29\n      jumpi\n      dup1\n      0x3dd08c38\n      gt\n      tag_30\n      jumpi\n      dup1\n      0x3dd08c38\n      eq\n      tag_11\n      jumpi\n      dup1\n      0x40c10f19\n      eq\n      tag_12\n      jumpi\n      dup1\n      0x6ba4c138\n      eq\n      tag_13\n      jumpi\n      0x00\n      dup1\n      revert\n    tag_30:\n      dup1\n      0x3092afd5\n      eq\n      tag_8\n      jumpi\n      dup1\n      0x313ce567\n      eq\n      tag_9\n      jumpi\n      dup1\n      0x39509351\n      eq\n      tag_10\n      jumpi\n      0x00\n      dup1\n      revert\n    tag_29:\n      dup1\n      0x18160ddd\n      gt\n      tag_31\n      jumpi\n      dup1\n      0x18160ddd\n      eq\n      tag_5\n      jumpi\n      dup1\n      0x23b872dd\n      eq\n      tag_6\n      jumpi\n      dup1\n      0x2647cfac\n      eq\n      tag_7\n      jumpi\n      0x00\n      dup1\n      revert\n    tag_31:\n      dup1\n      0x06fdde03\n      eq\n      tag_3\n      jumpi\n      dup1\n      0x095ea7b3\n      eq\n      tag_4\n      jumpi\n    tag_2:\n      0x00\n      dup1\n      revert\n        /* \"@openzeppelin/contracts/token/ERC20/ERC20.sol\":2156:2254   */\n    tag_3:\n      tag_32\n      tag_33\n      jump\t// in\n    tag_32:\n      mload(0x40)\n      tag_34\n      swap2\n      swap1\n      tag_35\n      jump\t// in\n    tag_34:\n      mload(0x40)\n      dup1\n      swap2\n      sub\n      swap1\n      return\n        /* \"@openzeppelin/contracts/token/ERC20/ERC20.sol\":4433:4630   */\n    tag_4:\n      tag_36\n      tag_37\n      calldatasize\n      0x04\n      tag_38\n      jump\t// in\n    tag_37:\n      tag_39\n      jump\t// in\n    tag_36:\n      mload(0x40)\n        /* \"#utility.yul\":1241:1255   */\n      swap1\n      iszero\n        /* \"#utility.yul\":1234:1256   */\n      iszero\n        /* \"#utility.yul\":1216:1257   */\n      dup2\n      mstore\n        /* \"#utility.yul\":1204:1206   */\n      0x20\n        /* \"#utility.yul\":1189:1207   */\n      add\n        /* \"@openzeppelin/contracts/token/ERC20/ERC20.sol\":4433:4630   */\n      tag_34\n        /* \"#utility.yul\":1076:1263   */\n      jump\n        /* \"@openzeppelin/contracts/token/ERC20/ERC20.sol\":3244:3350   */\n    tag_5:\n        /* \"@openzeppelin/contracts/token/ERC20/ERC20.sol\":3331:3343   */\n      sload(0x02)\n        /* \"@openzeppelin/contracts/token/ERC20/ERC20.sol\":3244:3350   */\n    tag_42:\n      mload(0x40)\n        /* \"#utility.yul\":1414:1439   */\n      swap1\n      dup2\n      mstore\n        /* \"#utility.yul\":1402:1404   */\n      0x20\n        /* \"#utility.yul\":1387:1405   */\n      add\n        /* \"@openzeppelin/contracts/token/ERC20/ERC20.sol\":3244:3350   */\n      tag_34\n        /* \"#utility.yul\":1268:1445   */\n      jump\n        /* \"@openzeppelin/contracts/token/ERC20/ERC20.sol\":5192:5478   */\n    tag_6:\n      tag_36\n      tag_47\n      calldatasize\n      0x04\n      tag_48\n      jump\t// in\n    tag_47:\n      tag_49\n      jump\t// in\n        /* \"OasisToken.sol\":651:695  uint128 public immutable tokensPerCrazyCamel */\n    tag_7:\n      tag_51\n      immutable(\"0x0da4425557c65a29889667ac39c67d10899ec154bd3e7c1c69e4d6d026946edf\")\n      dup2\n      jump\n    tag_51:\n      mload(0x40)\n        /* \"#utility.yul\":1959:1993   */\n      0xffffffffffffffffffffffffffffffff\n        /* \"#utility.yul\":1947:1994   */\n      swap1\n      swap2\n      and\n        /* \"#utility.yul\":1929:1995   */\n      dup2\n      mstore\n        /* \"#utility.yul\":1917:1919   */\n      0x20\n        /* \"#utility.yul\":1902:1920   */\n      add\n        /* \"OasisToken.sol\":651:695  uint128 public immutable tokensPerCrazyCamel */\n      tag_34\n        /* \"#utility.yul\":1783:2001   */\n      jump\n        /* \"OasisToken.sol\":1310:1410  function removeMinter(address _minter) external onlyOwner {... */\n    tag_8:\n      tag_55\n      tag_56\n      calldatasize\n      0x04\n      tag_57\n      jump\t// in\n    tag_56:\n      tag_58\n      jump\t// in\n    tag_55:\n      stop\n        /* \"@openzeppelin/contracts/token/ERC20/ERC20.sol\":3093:3184   */\n    tag_9:\n      mload(0x40)\n        /* \"@openzeppelin/contracts/token/ERC20/ERC20.sol\":3175:3177   */\n      0x12\n        /* \"#utility.yul\":2339:2375   */\n      dup2\n      mstore\n        /* \"#utility.yul\":2327:2329   */\n      0x20\n        /* \"#utility.yul\":2312:2330   */\n      add\n        /* \"@openzeppelin/contracts/token/ERC20/ERC20.sol\":3093:3184   */\n      tag_34\n        /* \"#utility.yul\":2197:2381   */\n      jump\n        /* \"@openzeppelin/contracts/token/ERC20/ERC20.sol\":5873:6107   */\n    tag_10:\n      tag_36\n      tag_64\n      calldatasize\n      0x04\n      tag_38\n      jump\t// in\n    tag_64:\n      tag_65\n      jump\t// in\n        /* \"OasisToken.sol\":702:740  mapping(address => bool) public minter */\n    tag_11:\n      tag_36\n      tag_68\n      calldatasize\n      0x04\n      tag_57\n      jump\t// in\n    tag_68:\n      mstore(0x20, 0x06)\n      0x00\n      swap1\n      dup2\n      mstore\n      0x40\n      swap1\n      keccak256\n      sload\n      0xff\n      and\n      dup2\n      jump\n        /* \"OasisToken.sol\":1450:1595  function mint(address _to, uint256 _amount) external {... */\n    tag_12:\n      tag_55\n      tag_72\n      calldatasize\n      0x04\n      tag_38\n      jump\t// in\n    tag_72:\n      tag_73\n      jump\t// in\n        /* \"OasisToken.sol\":1633:2030  function claim(uint256[] calldata _tokenIds) external {... */\n    tag_13:\n      tag_55\n      tag_75\n      calldatasize\n      0x04\n      tag_76\n      jump\t// in\n    tag_75:\n      tag_77\n      jump\t// in\n        /* \"@openzeppelin/contracts/token/ERC20/ERC20.sol\":3408:3533   */\n    tag_14:\n      tag_42\n      tag_79\n      calldatasize\n      0x04\n      tag_57\n      jump\t// in\n    tag_79:\n      sub(shl(0xa0, 0x01), 0x01)\n        /* \"@openzeppelin/contracts/token/ERC20/ERC20.sol\":3508:3526   */\n      and\n        /* \"@openzeppelin/contracts/token/ERC20/ERC20.sol\":3482:3489   */\n      0x00\n        /* \"@openzeppelin/contracts/token/ERC20/ERC20.sol\":3508:3526   */\n      swap1\n      dup2\n      mstore\n      0x20\n      dup2\n      swap1\n      mstore\n      0x40\n      swap1\n      keccak256\n      sload\n      swap1\n        /* \"@openzeppelin/contracts/token/ERC20/ERC20.sol\":3408:3533   */\n      jump\n        /* \"@openzeppelin/contracts/access/Ownable.sol\":1831:1932   */\n    tag_15:\n      tag_55\n      tag_83\n      jump\t// in\n        /* \"@openzeppelin/contracts/access/Ownable.sol\":1201:1286   */\n    tag_16:\n        /* \"@openzeppelin/contracts/access/Ownable.sol\":1273:1279   */\n      and(sub(shl(0xa0, 0x01), 0x01), sload(0x05))\n        /* \"@openzeppelin/contracts/access/Ownable.sol\":1201:1286   */\n    tag_84:\n      mload(0x40)\n      sub(shl(0xa0, 0x01), 0x01)\n        /* \"#utility.yul\":3170:3225   */\n      swap1\n      swap2\n      and\n        /* \"#utility.yul\":3152:3226   */\n      dup2\n      mstore\n        /* \"#utility.yul\":3140:3142   */\n      0x20\n        /* \"#utility.yul\":3125:3143   */\n      add\n        /* \"@openzeppelin/contracts/access/Ownable.sol\":1201:1286   */\n      tag_34\n        /* \"#utility.yul\":3006:3232   */\n      jump\n        /* \"@openzeppelin/contracts/token/ERC20/ERC20.sol\":2367:2469   */\n    tag_17:\n      tag_32\n      tag_89\n      jump\t// in\n        /* \"OasisToken.sol\":1206:1302  function addMinter(address _minter) external onlyOwner {... */\n    tag_18:\n      tag_55\n      tag_92\n      calldatasize\n      0x04\n      tag_57\n      jump\t// in\n    tag_92:\n      tag_93\n      jump\t// in\n        /* \"OasisToken.sol\":605:644  address public immutable oasisGraveyard */\n    tag_19:\n      tag_84\n      immutable(\"0x840fecb9bca2c4e63427c4b817f3137cd391e6a160600107c90b96ae83fdac7e\")\n      dup2\n      jump\n        /* \"@openzeppelin/contracts/token/ERC20/ERC20.sol\":6594:7021   */\n    tag_20:\n      tag_36\n      tag_98\n      calldatasize\n      0x04\n      tag_38\n      jump\t// in\n    tag_98:\n      tag_99\n      jump\t// in\n        /* \"@openzeppelin/contracts/token/ERC20/ERC20.sol\":3729:3918   */\n    tag_21:\n      tag_36\n      tag_102\n      calldatasize\n      0x04\n      tag_38\n      jump\t// in\n    tag_102:\n      tag_103\n      jump\t// in\n        /* \"OasisToken.sol\":562:598  address public immutable crazyCamels */\n    tag_22:\n      tag_84\n      immutable(\"0x0f973c39283b1fe0b6023d23f4989242f6ef078aaf0fbe84c965d84e4c0b2387\")\n      dup2\n      jump\n        /* \"@openzeppelin/contracts/token/ERC20/ERC20.sol\":3976:4125   */\n    tag_23:\n      tag_42\n      tag_109\n      calldatasize\n      0x04\n      tag_110\n      jump\t// in\n    tag_109:\n      sub(shl(0xa0, 0x01), 0x01)\n        /* \"@openzeppelin/contracts/token/ERC20/ERC20.sol\":4091:4109   */\n      swap2\n      dup3\n      and\n        /* \"@openzeppelin/contracts/token/ERC20/ERC20.sol\":4065:4072   */\n      0x00\n        /* \"@openzeppelin/contracts/token/ERC20/ERC20.sol\":4091:4109   */\n      swap1\n      dup2\n      mstore\n        /* \"@openzeppelin/contracts/token/ERC20/ERC20.sol\":4091:4102   */\n      0x01\n        /* \"@openzeppelin/contracts/token/ERC20/ERC20.sol\":4091:4109   */\n      0x20\n      swap1\n      dup2\n      mstore\n      0x40\n      dup1\n      dup4\n      keccak256\n        /* \"@openzeppelin/contracts/token/ERC20/ERC20.sol\":4091:4118   */\n      swap4\n      swap1\n      swap5\n      and\n      dup3\n      mstore\n      swap2\n      swap1\n      swap2\n      mstore\n      keccak256\n      sload\n      swap1\n        /* \"@openzeppelin/contracts/token/ERC20/ERC20.sol\":3976:4125   */\n      jump\n        /* \"@openzeppelin/contracts/access/Ownable.sol\":2081:2279   */\n    tag_24:\n      tag_55\n      tag_114\n      calldatasize\n      0x04\n      tag_57\n      jump\t// in\n    tag_114:\n      tag_115\n      jump\t// in\n        /* \"@openzeppelin/contracts/token/ERC20/ERC20.sol\":2156:2254   */\n    tag_33:\n        /* \"@openzeppelin/contracts/token/ERC20/ERC20.sol\":2210:2223   */\n      0x60\n        /* \"@openzeppelin/contracts/token/ERC20/ERC20.sol\":2242:2247   */\n      0x03\n        /* \"@openzeppelin/contracts/token/ERC20/ERC20.sol\":2235:2247   */\n      dup1\n      sload\n      tag_117\n      swap1\n      tag_118\n      jump\t// in\n    tag_117:\n      dup1\n      0x1f\n      add\n      0x20\n      dup1\n      swap2\n      div\n      mul\n      0x20\n      add\n      mload(0x40)\n      swap1\n      dup2\n      add\n      0x40\n      mstore\n      dup1\n      swap3\n      swap2\n      swap1\n      dup2\n      dup2\n      mstore\n      0x20\n      add\n      dup3\n      dup1\n      sload\n      tag_119\n      swap1\n      tag_118\n      jump\t// in\n    tag_119:\n      dup1\n      iszero\n      tag_120\n      jumpi\n      dup1\n      0x1f\n      lt\n      tag_121\n      jumpi\n      0x0100\n      dup1\n      dup4\n      sload\n      div\n      mul\n      dup4\n      mstore\n      swap2\n      0x20\n      add\n      swap2\n      jump(tag_120)\n    tag_121:\n      dup3\n      add\n      swap2\n      swap1\n      0x00\n      mstore\n      keccak256(0x00, 0x20)\n      swap1\n    tag_122:\n      dup2\n      sload\n      dup2\n      mstore\n      swap1\n      0x01\n      add\n      swap1\n      0x20\n      add\n      dup1\n      dup4\n      gt\n      tag_122\n      jumpi\n      dup3\n      swap1\n      sub\n      0x1f\n      and\n      dup3\n      add\n      swap2\n    tag_120:\n      pop\n      pop\n      pop\n      pop\n      pop\n      swap1\n      pop\n        /* \"@openzeppelin/contracts/token/ERC20/ERC20.sol\":2156:2254   */\n      swap1\n      jump\t// out\n        /* \"@openzeppelin/contracts/token/ERC20/ERC20.sol\":4433:4630   */\n    tag_39:\n        /* \"@openzeppelin/contracts/token/ERC20/ERC20.sol\":4516:4520   */\n      0x00\n        /* \"@openzeppelin/contracts/utils/Context.sol\":719:729   */\n      caller\n        /* \"@openzeppelin/contracts/token/ERC20/ERC20.sol\":4570:4602   */\n      tag_126\n        /* \"@openzeppelin/contracts/utils/Context.sol\":719:729   */\n      dup2\n        /* \"@openzeppelin/contracts/token/ERC20/ERC20.sol\":4586:4593   */\n      dup6\n        /* \"@openzeppelin/contracts/token/ERC20/ERC20.sol\":4595:4601   */\n      dup6\n        /* \"@openzeppelin/contracts/token/ERC20/ERC20.sol\":4570:4578   */\n      tag_127\n        /* \"@openzeppelin/contracts/token/ERC20/ERC20.sol\":4570:4602   */\n      jump\t// in\n    tag_126:\n      pop\n        /* \"@openzeppelin/contracts/token/ERC20/ERC20.sol\":4619:4623   */\n      0x01\n      swap4\n        /* \"@openzeppelin/contracts/token/ERC20/ERC20.sol\":4433:4630   */\n      swap3\n      pop\n      pop\n      pop\n      jump\t// out\n        /* \"@openzeppelin/contracts/token/ERC20/ERC20.sol\":5192:5478   */\n    tag_49:\n        /* \"@openzeppelin/contracts/token/ERC20/ERC20.sol\":5319:5323   */\n      0x00\n        /* \"@openzeppelin/contracts/utils/Context.sol\":719:729   */\n      caller\n        /* \"@openzeppelin/contracts/token/ERC20/ERC20.sol\":5375:5413   */\n      tag_131\n        /* \"@openzeppelin/contracts/token/ERC20/ERC20.sol\":5391:5395   */\n      dup6\n        /* \"@openzeppelin/contracts/utils/Context.sol\":719:729   */\n      dup3\n        /* \"@openzeppelin/contracts/token/ERC20/ERC20.sol\":5406:5412   */\n      dup6\n        /* \"@openzeppelin/contracts/token/ERC20/ERC20.sol\":5375:5390   */\n      tag_132\n        /* \"@openzeppelin/contracts/token/ERC20/ERC20.sol\":5375:5413   */\n      jump\t// in\n    tag_131:\n        /* \"@openzeppelin/contracts/token/ERC20/ERC20.sol\":5423:5450   */\n      tag_133\n        /* \"@openzeppelin/contracts/token/ERC20/ERC20.sol\":5433:5437   */\n      dup6\n        /* \"@openzeppelin/contracts/token/ERC20/ERC20.sol\":5439:5441   */\n      dup6\n        /* \"@openzeppelin/contracts/token/ERC20/ERC20.sol\":5443:5449   */\n      dup6\n        /* \"@openzeppelin/contracts/token/ERC20/ERC20.sol\":5423:5432   */\n      tag_134\n        /* \"@openzeppelin/contracts/token/ERC20/ERC20.sol\":5423:5450   */\n      jump\t// in\n    tag_133:\n      pop\n        /* \"@openzeppelin/contracts/token/ERC20/ERC20.sol\":5467:5471   */\n      0x01\n      swap5\n        /* \"@openzeppelin/contracts/token/ERC20/ERC20.sol\":5192:5478   */\n      swap4\n      pop\n      pop\n      pop\n      pop\n      jump\t// out\n        /* \"OasisToken.sol\":1310:1410  function removeMinter(address _minter) external onlyOwner {... */\n    tag_58:\n        /* \"@openzeppelin/contracts/access/Ownable.sol\":1094:1107   */\n      tag_136\n        /* \"@openzeppelin/contracts/access/Ownable.sol\":1094:1105   */\n      tag_137\n        /* \"@openzeppelin/contracts/access/Ownable.sol\":1094:1107   */\n      jump\t// in\n    tag_136:\n      sub(shl(0xa0, 0x01), 0x01)\n        /* \"OasisToken.sol\":1379:1394  minter[_minter] */\n      and\n        /* \"OasisToken.sol\":1397:1402  false */\n      0x00\n        /* \"OasisToken.sol\":1379:1394  minter[_minter] */\n      swap1\n      dup2\n      mstore\n        /* \"OasisToken.sol\":1379:1385  minter */\n      0x06\n        /* \"OasisToken.sol\":1379:1394  minter[_minter] */\n      0x20\n      mstore\n      0x40\n      swap1\n      keccak256\n        /* \"OasisToken.sol\":1379:1402  minter[_minter] = false */\n      dup1\n      sload\n      not(0xff)\n      and\n      swap1\n      sstore\n        /* \"OasisToken.sol\":1310:1410  function removeMinter(address _minter) external onlyOwner {... */\n      jump\t// out\n        /* \"@openzeppelin/contracts/token/ERC20/ERC20.sol\":5873:6107   */\n    tag_65:\n        /* \"@openzeppelin/contracts/utils/Context.sol\":719:729   */\n      caller\n        /* \"@openzeppelin/contracts/token/ERC20/ERC20.sol\":5961:5965   */\n      0x00\n        /* \"@openzeppelin/contracts/token/ERC20/ERC20.sol\":4091:4109   */\n      dup2\n      dup2\n      mstore\n        /* \"@openzeppelin/contracts/token/ERC20/ERC20.sol\":4091:4102   */\n      0x01\n        /* \"@openzeppelin/contracts/token/ERC20/ERC20.sol\":4091:4109   */\n      0x20\n      swap1\n      dup2\n      mstore\n      0x40\n      dup1\n      dup4\n      keccak256\n      sub(shl(0xa0, 0x01), 0x01)\n        /* \"@openzeppelin/contracts/token/ERC20/ERC20.sol\":4091:4118   */\n      dup8\n      and\n      dup5\n      mstore\n      swap1\n      swap2\n      mstore\n      dup2\n      keccak256\n      sload\n        /* \"@openzeppelin/contracts/token/ERC20/ERC20.sol\":5961:5965   */\n      swap1\n      swap2\n        /* \"@openzeppelin/contracts/utils/Context.sol\":719:729   */\n      swap1\n        /* \"@openzeppelin/contracts/token/ERC20/ERC20.sol\":6015:6079   */\n      tag_126\n      swap1\n        /* \"@openzeppelin/contracts/utils/Context.sol\":719:729   */\n      dup3\n      swap1\n        /* \"@openzeppelin/contracts/token/ERC20/ERC20.sol\":4091:4118   */\n      dup7\n      swap1\n        /* \"@openzeppelin/contracts/token/ERC20/ERC20.sol\":6040:6078   */\n      tag_144\n      swap1\n        /* \"@openzeppelin/contracts/token/ERC20/ERC20.sol\":6068:6078   */\n      dup8\n      swap1\n        /* \"@openzeppelin/contracts/token/ERC20/ERC20.sol\":6040:6078   */\n      tag_145\n      jump\t// in\n    tag_144:\n        /* \"@openzeppelin/contracts/token/ERC20/ERC20.sol\":6015:6023   */\n      tag_127\n        /* \"@openzeppelin/contracts/token/ERC20/ERC20.sol\":6015:6079   */\n      jump\t// in\n        /* \"OasisToken.sol\":1450:1595  function mint(address _to, uint256 _amount) external {... */\n    tag_73:\n        /* \"OasisToken.sol\":1526:1536  msg.sender */\n      caller\n        /* \"OasisToken.sol\":1519:1537  minter[msg.sender] */\n      0x00\n      swap1\n      dup2\n      mstore\n        /* \"OasisToken.sol\":1519:1525  minter */\n      0x06\n        /* \"OasisToken.sol\":1519:1537  minter[msg.sender] */\n      0x20\n      mstore\n      0x40\n      swap1\n      keccak256\n      sload\n      0xff\n      and\n        /* \"OasisToken.sol\":1514:1557  if (!minter[msg.sender]) revert NotMinter() */\n      tag_147\n      jumpi\n        /* \"OasisToken.sol\":1546:1557  NotMinter() */\n      mload(0x40)\n      shl(0xe2, 0x3e34a41b)\n      dup2\n      mstore\n      0x04\n      add\n      mload(0x40)\n      dup1\n      swap2\n      sub\n      swap1\n      revert\n        /* \"OasisToken.sol\":1514:1557  if (!minter[msg.sender]) revert NotMinter() */\n    tag_147:\n        /* \"OasisToken.sol\":1568:1587  _mint(_to, _amount) */\n      tag_148\n        /* \"OasisToken.sol\":1574:1577  _to */\n      dup3\n        /* \"OasisToken.sol\":1579:1586  _amount */\n      dup3\n        /* \"OasisToken.sol\":1568:1573  _mint */\n      tag_149\n        /* \"OasisToken.sol\":1568:1587  _mint(_to, _amount) */\n      jump\t// in\n    tag_148:\n        /* \"OasisToken.sol\":1450:1595  function mint(address _to, uint256 _amount) external {... */\n      pop\n      pop\n      jump\t// out\n        /* \"OasisToken.sol\":1633:2030  function claim(uint256[] calldata _tokenIds) external {... */\n    tag_77:\n        /* \"OasisToken.sol\":1702:1703  1 */\n      0x01\n        /* \"OasisToken.sol\":1702:1722  1 > _tokenIds.length */\n      dup2\n      lt\n        /* \"OasisToken.sol\":1698:1749  if (1 > _tokenIds.length) revert InvalidArguments() */\n      iszero\n      tag_151\n      jumpi\n        /* \"OasisToken.sol\":1731:1749  InvalidArguments() */\n      mload(0x40)\n      shl(0xe2, 0x17dbc4cb)\n      dup2\n      mstore\n      0x04\n      add\n      mload(0x40)\n      dup1\n      swap2\n      sub\n      swap1\n      revert\n        /* \"OasisToken.sol\":1698:1749  if (1 > _tokenIds.length) revert InvalidArguments() */\n    tag_151:\n        /* \"OasisToken.sol\":1767:1776  uint256 i */\n      0x00\n        /* \"OasisToken.sol\":1762:1897  for (uint256 i = 0; i < _tokenIds.length; i++)... */\n    tag_152:\n        /* \"OasisToken.sol\":1782:1802  i < _tokenIds.length */\n      dup2\n      dup2\n      lt\n        /* \"OasisToken.sol\":1762:1897  for (uint256 i = 0; i < _tokenIds.length; i++)... */\n      iszero\n      tag_153\n      jumpi\n        /* \"OasisToken.sol\":1830:1841  crazyCamels */\n      immutable(\"0x0f973c39283b1fe0b6023d23f4989242f6ef078aaf0fbe84c965d84e4c0b2387\")\n      sub(shl(0xa0, 0x01), 0x01)\n        /* \"OasisToken.sol\":1822:1855  IERC721(crazyCamels).transferFrom */\n      and\n      0x23b872dd\n        /* \"OasisToken.sol\":1856:1866  msg.sender */\n      caller\n        /* \"OasisToken.sol\":1868:1882  oasisGraveyard */\n      immutable(\"0x840fecb9bca2c4e63427c4b817f3137cd391e6a160600107c90b96ae83fdac7e\")\n        /* \"OasisToken.sol\":1884:1893  _tokenIds */\n      dup7\n      dup7\n        /* \"OasisToken.sol\":1894:1895  i */\n      dup7\n        /* \"OasisToken.sol\":1884:1896  _tokenIds[i] */\n      dup2\n      dup2\n      lt\n      tag_156\n      jumpi\n      tag_156\n      tag_157\n      jump\t// in\n    tag_156:\n        /* \"OasisToken.sol\":1822:1897  IERC721(crazyCamels).transferFrom(msg.sender, oasisGraveyard, _tokenIds[i]) */\n      mload(0x40)\n      0xffffffff00000000000000000000000000000000000000000000000000000000\n      0xe0\n      dup9\n      swap1\n      shl\n      and\n      dup2\n      mstore\n      sub(shl(0xa0, 0x01), 0x01)\n        /* \"#utility.yul\":4565:4580   */\n      swap6\n      dup7\n      and\n        /* \"OasisToken.sol\":1822:1897  IERC721(crazyCamels).transferFrom(msg.sender, oasisGraveyard, _tokenIds[i]) */\n      0x04\n      dup3\n      add\n        /* \"#utility.yul\":4547:4581   */\n      mstore\n        /* \"#utility.yul\":4617:4632   */\n      swap5\n      swap1\n      swap4\n      and\n        /* \"#utility.yul\":4597:4615   */\n      0x24\n      dup6\n      add\n        /* \"#utility.yul\":4590:4633   */\n      mstore\n      pop\n        /* \"OasisToken.sol\":1884:1896  _tokenIds[i] */\n      0x20\n      swap1\n      swap2\n      mul\n      add\n      calldataload\n        /* \"#utility.yul\":4649:4667   */\n      0x44\n      dup3\n      add\n        /* \"#utility.yul\":4642:4676   */\n      mstore\n        /* \"#utility.yul\":4459:4477   */\n      0x64\n      add\n        /* \"OasisToken.sol\":1822:1897  IERC721(crazyCamels).transferFrom(msg.sender, oasisGraveyard, _tokenIds[i]) */\n      0x00\n      mload(0x40)\n      dup1\n      dup4\n      sub\n      dup2\n      0x00\n      dup8\n      dup1\n      extcodesize\n      iszero\n      dup1\n      iszero\n      tag_160\n      jumpi\n      0x00\n      dup1\n      revert\n    tag_160:\n      pop\n      gas\n      call\n      iszero\n      dup1\n      iszero\n      tag_162\n      jumpi\n      returndatasize\n      0x00\n      dup1\n      returndatacopy\n      revert(0x00, returndatasize)\n    tag_162:\n      pop\n      pop\n      pop\n      pop\n        /* \"OasisToken.sol\":1804:1807  i++ */\n      dup1\n      dup1\n      tag_163\n      swap1\n      tag_164\n      jump\t// in\n    tag_163:\n      swap2\n      pop\n      pop\n        /* \"OasisToken.sol\":1762:1897  for (uint256 i = 0; i < _tokenIds.length; i++)... */\n      jump(tag_152)\n    tag_153:\n      pop\n        /* \"OasisToken.sol\":1910:1967  _mint(msg.sender, _tokenIds.length * tokensPerCrazyCamel) */\n      tag_165\n        /* \"OasisToken.sol\":1916:1926  msg.sender */\n      caller\n        /* \"OasisToken.sol\":1928:1966  _tokenIds.length * tokensPerCrazyCamel */\n      tag_166\n      0xffffffffffffffffffffffffffffffff\n        /* \"OasisToken.sol\":1947:1966  tokensPerCrazyCamel */\n      immutable(\"0x0da4425557c65a29889667ac39c67d10899ec154bd3e7c1c69e4d6d026946edf\")\n        /* \"OasisToken.sol\":1928:1966  _tokenIds.length * tokensPerCrazyCamel */\n      and\n        /* \"OasisToken.sol\":1928:1937  _tokenIds */\n      dup5\n        /* \"OasisToken.sol\":1928:1966  _tokenIds.length * tokensPerCrazyCamel */\n      tag_167\n      jump\t// in\n    tag_166:\n        /* \"OasisToken.sol\":1910:1915  _mint */\n      tag_149\n        /* \"OasisToken.sol\":1910:1967  _mint(msg.sender, _tokenIds.length * tokensPerCrazyCamel) */\n      jump\t// in\n    tag_165:\n        /* \"OasisToken.sol\":1985:2022  Claimed(msg.sender, _tokenIds.length) */\n      mload(0x40)\n        /* \"OasisToken.sol\":2005:2014  _tokenIds */\n      dup2\n      swap1\n        /* \"OasisToken.sol\":1993:2003  msg.sender */\n      caller\n      swap1\n        /* \"OasisToken.sol\":1985:2022  Claimed(msg.sender, _tokenIds.length) */\n      0xd8138f8a3f377c5259ca548e70e4c2de94f129f5a11036a15b69513cba2b426a\n      swap1\n      0x00\n      swap1\n      log3\n        /* \"OasisToken.sol\":1633:2030  function claim(uint256[] calldata _tokenIds) external {... */\n      pop\n      pop\n      jump\t// out\n        /* \"@openzeppelin/contracts/access/Ownable.sol\":1831:1932   */\n    tag_83:\n        /* \"@openzeppelin/contracts/access/Ownable.sol\":1094:1107   */\n      tag_170\n        /* \"@openzeppelin/contracts/access/Ownable.sol\":1094:1105   */\n      tag_137\n        /* \"@openzeppelin/contracts/access/Ownable.sol\":1094:1107   */\n      jump\t// in\n    tag_170:\n        /* \"@openzeppelin/contracts/access/Ownable.sol\":1895:1925   */\n      tag_172\n        /* \"@openzeppelin/contracts/access/Ownable.sol\":1922:1923   */\n      0x00\n        /* \"@openzeppelin/contracts/access/Ownable.sol\":1895:1913   */\n      tag_173\n        /* \"@openzeppelin/contracts/access/Ownable.sol\":1895:1925   */\n      jump\t// in\n    tag_172:\n        /* \"@openzeppelin/contracts/access/Ownable.sol\":1831:1932   */\n      jump\t// out\n        /* \"@openzeppelin/contracts/token/ERC20/ERC20.sol\":2367:2469   */\n    tag_89:\n        /* \"@openzeppelin/contracts/token/ERC20/ERC20.sol\":2423:2436   */\n      0x60\n        /* \"@openzeppelin/contracts/token/ERC20/ERC20.sol\":2455:2462   */\n      0x04\n        /* \"@openzeppelin/contracts/token/ERC20/ERC20.sol\":2448:2462   */\n      dup1\n      sload\n      tag_117\n      swap1\n      tag_118\n      jump\t// in\n        /* \"OasisToken.sol\":1206:1302  function addMinter(address _minter) external onlyOwner {... */\n    tag_93:\n        /* \"@openzeppelin/contracts/access/Ownable.sol\":1094:1107   */\n      tag_182\n        /* \"@openzeppelin/contracts/access/Ownable.sol\":1094:1105   */\n      tag_137\n        /* \"@openzeppelin/contracts/access/Ownable.sol\":1094:1107   */\n      jump\t// in\n    tag_182:\n      sub(shl(0xa0, 0x01), 0x01)\n        /* \"OasisToken.sol\":1272:1287  minter[_minter] */\n      and\n      0x00\n      swap1\n      dup2\n      mstore\n        /* \"OasisToken.sol\":1272:1278  minter */\n      0x06\n        /* \"OasisToken.sol\":1272:1287  minter[_minter] */\n      0x20\n      mstore\n      0x40\n      swap1\n      keccak256\n        /* \"OasisToken.sol\":1272:1294  minter[_minter] = true */\n      dup1\n      sload\n      not(0xff)\n      and\n        /* \"OasisToken.sol\":1290:1294  true */\n      0x01\n        /* \"OasisToken.sol\":1272:1294  minter[_minter] = true */\n      or\n      swap1\n      sstore\n        /* \"OasisToken.sol\":1206:1302  function addMinter(address _minter) external onlyOwner {... */\n      jump\t// out\n        /* \"@openzeppelin/contracts/token/ERC20/ERC20.sol\":6594:7021   */\n    tag_99:\n        /* \"@openzeppelin/contracts/utils/Context.sol\":719:729   */\n      caller\n        /* \"@openzeppelin/contracts/token/ERC20/ERC20.sol\":6687:6691   */\n      0x00\n        /* \"@openzeppelin/contracts/token/ERC20/ERC20.sol\":4091:4109   */\n      dup2\n      dup2\n      mstore\n        /* \"@openzeppelin/contracts/token/ERC20/ERC20.sol\":4091:4102   */\n      0x01\n        /* \"@openzeppelin/contracts/token/ERC20/ERC20.sol\":4091:4109   */\n      0x20\n      swap1\n      dup2\n      mstore\n      0x40\n      dup1\n      dup4\n      keccak256\n      sub(shl(0xa0, 0x01), 0x01)\n        /* \"@openzeppelin/contracts/token/ERC20/ERC20.sol\":4091:4118   */\n      dup8\n      and\n      dup5\n      mstore\n      swap1\n      swap2\n      mstore\n      dup2\n      keccak256\n      sload\n        /* \"@openzeppelin/contracts/token/ERC20/ERC20.sol\":6687:6691   */\n      swap1\n      swap2\n        /* \"@openzeppelin/contracts/utils/Context.sol\":719:729   */\n      swap1\n        /* \"@openzeppelin/contracts/token/ERC20/ERC20.sol\":6831:6846   */\n      dup4\n        /* \"@openzeppelin/contracts/token/ERC20/ERC20.sol\":6811:6827   */\n      dup2\n        /* \"@openzeppelin/contracts/token/ERC20/ERC20.sol\":6811:6846   */\n      lt\n      iszero\n        /* \"@openzeppelin/contracts/token/ERC20/ERC20.sol\":6803:6888   */\n      tag_187\n      jumpi\n      mload(0x40)\n      shl(0xe5, 0x461bcd)\n      dup2\n      mstore\n        /* \"#utility.yul\":5202:5204   */\n      0x20\n        /* \"@openzeppelin/contracts/token/ERC20/ERC20.sol\":6803:6888   */\n      0x04\n      dup3\n      add\n        /* \"#utility.yul\":5184:5205   */\n      mstore\n        /* \"#utility.yul\":5241:5243   */\n      0x25\n        /* \"#utility.yul\":5221:5239   */\n      0x24\n      dup3\n      add\n        /* \"#utility.yul\":5214:5244   */\n      mstore\n        /* \"#utility.yul\":5280:5314   */\n      0x45524332303a2064656372656173656420616c6c6f77616e63652062656c6f77\n        /* \"#utility.yul\":5260:5278   */\n      0x44\n      dup3\n      add\n        /* \"#utility.yul\":5253:5315   */\n      mstore\n        /* \"#utility.yul\":5351:5358   */\n      0x207a65726f000000000000000000000000000000000000000000000000000000\n        /* \"#utility.yul\":5331:5349   */\n      0x64\n      dup3\n      add\n        /* \"#utility.yul\":5324:5359   */\n      mstore\n        /* \"#utility.yul\":5376:5395   */\n      0x84\n      add\n        /* \"@openzeppelin/contracts/token/ERC20/ERC20.sol\":6803:6888   */\n    tag_188:\n      mload(0x40)\n      dup1\n      swap2\n      sub\n      swap1\n      revert\n    tag_187:\n        /* \"@openzeppelin/contracts/token/ERC20/ERC20.sol\":6922:6982   */\n      tag_133\n        /* \"@openzeppelin/contracts/token/ERC20/ERC20.sol\":6931:6936   */\n      dup3\n        /* \"@openzeppelin/contracts/token/ERC20/ERC20.sol\":6938:6945   */\n      dup7\n        /* \"@openzeppelin/contracts/token/ERC20/ERC20.sol\":6966:6981   */\n      dup7\n        /* \"@openzeppelin/contracts/token/ERC20/ERC20.sol\":6947:6963   */\n      dup5\n        /* \"@openzeppelin/contracts/token/ERC20/ERC20.sol\":6947:6981   */\n      sub\n        /* \"@openzeppelin/contracts/token/ERC20/ERC20.sol\":6922:6930   */\n      tag_127\n        /* \"@openzeppelin/contracts/token/ERC20/ERC20.sol\":6922:6982   */\n      jump\t// in\n        /* \"@openzeppelin/contracts/token/ERC20/ERC20.sol\":3729:3918   */\n    tag_103:\n        /* \"@openzeppelin/contracts/token/ERC20/ERC20.sol\":3808:3812   */\n      0x00\n        /* \"@openzeppelin/contracts/utils/Context.sol\":719:729   */\n      caller\n        /* \"@openzeppelin/contracts/token/ERC20/ERC20.sol\":3862:3890   */\n      tag_126\n        /* \"@openzeppelin/contracts/utils/Context.sol\":719:729   */\n      dup2\n        /* \"@openzeppelin/contracts/token/ERC20/ERC20.sol\":3879:3881   */\n      dup6\n        /* \"@openzeppelin/contracts/token/ERC20/ERC20.sol\":3883:3889   */\n      dup6\n        /* \"@openzeppelin/contracts/token/ERC20/ERC20.sol\":3862:3871   */\n      tag_134\n        /* \"@openzeppelin/contracts/token/ERC20/ERC20.sol\":3862:3890   */\n      jump\t// in\n        /* \"@openzeppelin/contracts/access/Ownable.sol\":2081:2279   */\n    tag_115:\n        /* \"@openzeppelin/contracts/access/Ownable.sol\":1094:1107   */\n      tag_196\n        /* \"@openzeppelin/contracts/access/Ownable.sol\":1094:1105   */\n      tag_137\n        /* \"@openzeppelin/contracts/access/Ownable.sol\":1094:1107   */\n      jump\t// in\n    tag_196:\n      sub(shl(0xa0, 0x01), 0x01)\n        /* \"@openzeppelin/contracts/access/Ownable.sol\":2169:2191   */\n      dup2\n      and\n        /* \"@openzeppelin/contracts/access/Ownable.sol\":2161:2234   */\n      tag_198\n      jumpi\n      mload(0x40)\n      shl(0xe5, 0x461bcd)\n      dup2\n      mstore\n        /* \"#utility.yul\":5608:5610   */\n      0x20\n        /* \"@openzeppelin/contracts/access/Ownable.sol\":2161:2234   */\n      0x04\n      dup3\n      add\n        /* \"#utility.yul\":5590:5611   */\n      mstore\n        /* \"#utility.yul\":5647:5649   */\n      0x26\n        /* \"#utility.yul\":5627:5645   */\n      0x24\n      dup3\n      add\n        /* \"#utility.yul\":5620:5650   */\n      mstore\n        /* \"#utility.yul\":5686:5720   */\n      0x4f776e61626c653a206e6577206f776e657220697320746865207a65726f2061\n        /* \"#utility.yul\":5666:5684   */\n      0x44\n      dup3\n      add\n        /* \"#utility.yul\":5659:5721   */\n      mstore\n        /* \"#utility.yul\":5757:5765   */\n      0x6464726573730000000000000000000000000000000000000000000000000000\n        /* \"#utility.yul\":5737:5755   */\n      0x64\n      dup3\n      add\n        /* \"#utility.yul\":5730:5766   */\n      mstore\n        /* \"#utility.yul\":5783:5802   */\n      0x84\n      add\n        /* \"@openzeppelin/contracts/access/Ownable.sol\":2161:2234   */\n      tag_188\n        /* \"#utility.yul\":5406:5808   */\n      jump\n        /* \"@openzeppelin/contracts/access/Ownable.sol\":2161:2234   */\n    tag_198:\n        /* \"@openzeppelin/contracts/access/Ownable.sol\":2244:2272   */\n      tag_201\n        /* \"@openzeppelin/contracts/access/Ownable.sol\":2263:2271   */\n      dup2\n        /* \"@openzeppelin/contracts/access/Ownable.sol\":2244:2262   */\n      tag_173\n        /* \"@openzeppelin/contracts/access/Ownable.sol\":2244:2272   */\n      jump\t// in\n    tag_201:\n        /* \"@openzeppelin/contracts/access/Ownable.sol\":2081:2279   */\n      pop\n      jump\t// out\n        /* \"@openzeppelin/contracts/token/ERC20/ERC20.sol\":10110:10480   */\n    tag_127:\n      sub(shl(0xa0, 0x01), 0x01)\n        /* \"@openzeppelin/contracts/token/ERC20/ERC20.sol\":10241:10260   */\n      dup4\n      and\n        /* \"@openzeppelin/contracts/token/ERC20/ERC20.sol\":10233:10301   */\n      tag_204\n      jumpi\n      mload(0x40)\n      shl(0xe5, 0x461bcd)\n      dup2\n      mstore\n        /* \"#utility.yul\":6015:6017   */\n      0x20\n        /* \"@openzeppelin/contracts/token/ERC20/ERC20.sol\":10233:10301   */\n      0x04\n      dup3\n      add\n        /* \"#utility.yul\":5997:6018   */\n      mstore\n        /* \"#utility.yul\":6054:6056   */\n      0x24\n        /* \"#utility.yul\":6034:6052   */\n      dup1\n      dup3\n      add\n        /* \"#utility.yul\":6027:6057   */\n      mstore\n        /* \"#utility.yul\":6093:6127   */\n      0x45524332303a20617070726f76652066726f6d20746865207a65726f20616464\n        /* \"#utility.yul\":6073:6091   */\n      0x44\n      dup3\n      add\n        /* \"#utility.yul\":6066:6128   */\n      mstore\n      shl(0xe0, 0x72657373)\n        /* \"#utility.yul\":6144:6162   */\n      0x64\n      dup3\n      add\n        /* \"#utility.yul\":6137:6171   */\n      mstore\n        /* \"#utility.yul\":6188:6207   */\n      0x84\n      add\n        /* \"@openzeppelin/contracts/token/ERC20/ERC20.sol\":10233:10301   */\n      tag_188\n        /* \"#utility.yul\":5813:6213   */\n      jump\n        /* \"@openzeppelin/contracts/token/ERC20/ERC20.sol\":10233:10301   */\n    tag_204:\n      sub(shl(0xa0, 0x01), 0x01)\n        /* \"@openzeppelin/contracts/token/ERC20/ERC20.sol\":10319:10340   */\n      dup3\n      and\n        /* \"@openzeppelin/contracts/token/ERC20/ERC20.sol\":10311:10379   */\n      tag_207\n      jumpi\n      mload(0x40)\n      shl(0xe5, 0x461bcd)\n      dup2\n      mstore\n        /* \"#utility.yul\":6420:6422   */\n      0x20\n        /* \"@openzeppelin/contracts/token/ERC20/ERC20.sol\":10311:10379   */\n      0x04\n      dup3\n      add\n        /* \"#utility.yul\":6402:6423   */\n      mstore\n        /* \"#utility.yul\":6459:6461   */\n      0x22\n        /* \"#utility.yul\":6439:6457   */\n      0x24\n      dup3\n      add\n        /* \"#utility.yul\":6432:6462   */\n      mstore\n        /* \"#utility.yul\":6498:6532   */\n      0x45524332303a20617070726f766520746f20746865207a65726f206164647265\n        /* \"#utility.yul\":6478:6496   */\n      0x44\n      dup3\n      add\n        /* \"#utility.yul\":6471:6533   */\n      mstore\n      shl(0xf0, 0x7373)\n        /* \"#utility.yul\":6549:6567   */\n      0x64\n      dup3\n      add\n        /* \"#utility.yul\":6542:6574   */\n      mstore\n        /* \"#utility.yul\":6591:6610   */\n      0x84\n      add\n        /* \"@openzeppelin/contracts/token/ERC20/ERC20.sol\":10311:10379   */\n      tag_188\n        /* \"#utility.yul\":6218:6616   */\n      jump\n        /* \"@openzeppelin/contracts/token/ERC20/ERC20.sol\":10311:10379   */\n    tag_207:\n      sub(shl(0xa0, 0x01), 0x01)\n        /* \"@openzeppelin/contracts/token/ERC20/ERC20.sol\":10390:10408   */\n      dup4\n      dup2\n      and\n      0x00\n      dup2\n      dup2\n      mstore\n        /* \"@openzeppelin/contracts/token/ERC20/ERC20.sol\":10390:10401   */\n      0x01\n        /* \"@openzeppelin/contracts/token/ERC20/ERC20.sol\":10390:10408   */\n      0x20\n      swap1\n      dup2\n      mstore\n      0x40\n      dup1\n      dup4\n      keccak256\n        /* \"@openzeppelin/contracts/token/ERC20/ERC20.sol\":10390:10417   */\n      swap5\n      dup8\n      and\n      dup1\n      dup5\n      mstore\n      swap5\n      dup3\n      mstore\n      swap2\n      dup3\n      swap1\n      keccak256\n        /* \"@openzeppelin/contracts/token/ERC20/ERC20.sol\":10390:10426   */\n      dup6\n      swap1\n      sstore\n        /* \"@openzeppelin/contracts/token/ERC20/ERC20.sol\":10441:10473   */\n      swap1\n      mload\n        /* \"#utility.yul\":1414:1439   */\n      dup5\n      dup2\n      mstore\n        /* \"@openzeppelin/contracts/token/ERC20/ERC20.sol\":10441:10473   */\n      0x8c5be1e5ebec7d5bd14f71427d1e84f3dd0314c0f7b2291e5b200ac8c7c3b925\n      swap2\n        /* \"#utility.yul\":1387:1405   */\n      add\n        /* \"@openzeppelin/contracts/token/ERC20/ERC20.sol\":10441:10473   */\n      mload(0x40)\n      dup1\n      swap2\n      sub\n      swap1\n      log3\n        /* \"@openzeppelin/contracts/token/ERC20/ERC20.sol\":10110:10480   */\n      pop\n      pop\n      pop\n      jump\t// out\n        /* \"@openzeppelin/contracts/token/ERC20/ERC20.sol\":10761:11202   */\n    tag_132:\n      sub(shl(0xa0, 0x01), 0x01)\n        /* \"@openzeppelin/contracts/token/ERC20/ERC20.sol\":4091:4109   */\n      dup4\n      dup2\n      and\n        /* \"@openzeppelin/contracts/token/ERC20/ERC20.sol\":10891:10915   */\n      0x00\n        /* \"@openzeppelin/contracts/token/ERC20/ERC20.sol\":4091:4109   */\n      swap1\n      dup2\n      mstore\n        /* \"@openzeppelin/contracts/token/ERC20/ERC20.sol\":4091:4102   */\n      0x01\n        /* \"@openzeppelin/contracts/token/ERC20/ERC20.sol\":4091:4109   */\n      0x20\n      swap1\n      dup2\n      mstore\n      0x40\n      dup1\n      dup4\n      keccak256\n        /* \"@openzeppelin/contracts/token/ERC20/ERC20.sol\":4091:4118   */\n      swap4\n      dup7\n      and\n      dup4\n      mstore\n      swap3\n      swap1\n      mstore\n      keccak256\n      sload\n      not(0x00)\n        /* \"@openzeppelin/contracts/token/ERC20/ERC20.sol\":10957:10994   */\n      dup2\n      eq\n        /* \"@openzeppelin/contracts/token/ERC20/ERC20.sol\":10953:11196   */\n      tag_217\n      jumpi\n        /* \"@openzeppelin/contracts/token/ERC20/ERC20.sol\":11038:11044   */\n      dup2\n        /* \"@openzeppelin/contracts/token/ERC20/ERC20.sol\":11018:11034   */\n      dup2\n        /* \"@openzeppelin/contracts/token/ERC20/ERC20.sol\":11018:11044   */\n      lt\n      iszero\n        /* \"@openzeppelin/contracts/token/ERC20/ERC20.sol\":11010:11078   */\n      tag_214\n      jumpi\n      mload(0x40)\n      shl(0xe5, 0x461bcd)\n      dup2\n      mstore\n        /* \"#utility.yul\":6823:6825   */\n      0x20\n        /* \"@openzeppelin/contracts/token/ERC20/ERC20.sol\":11010:11078   */\n      0x04\n      dup3\n      add\n        /* \"#utility.yul\":6805:6826   */\n      mstore\n        /* \"#utility.yul\":6862:6864   */\n      0x1d\n        /* \"#utility.yul\":6842:6860   */\n      0x24\n      dup3\n      add\n        /* \"#utility.yul\":6835:6865   */\n      mstore\n        /* \"#utility.yul\":6901:6932   */\n      0x45524332303a20696e73756666696369656e7420616c6c6f77616e6365000000\n        /* \"#utility.yul\":6881:6899   */\n      0x44\n      dup3\n      add\n        /* \"#utility.yul\":6874:6933   */\n      mstore\n        /* \"#utility.yul\":6950:6968   */\n      0x64\n      add\n        /* \"@openzeppelin/contracts/token/ERC20/ERC20.sol\":11010:11078   */\n      tag_188\n        /* \"#utility.yul\":6621:6974   */\n      jump\n        /* \"@openzeppelin/contracts/token/ERC20/ERC20.sol\":11010:11078   */\n    tag_214:\n        /* \"@openzeppelin/contracts/token/ERC20/ERC20.sol\":11120:11171   */\n      tag_217\n        /* \"@openzeppelin/contracts/token/ERC20/ERC20.sol\":11129:11134   */\n      dup5\n        /* \"@openzeppelin/contracts/token/ERC20/ERC20.sol\":11136:11143   */\n      dup5\n        /* \"@openzeppelin/contracts/token/ERC20/ERC20.sol\":11164:11170   */\n      dup5\n        /* \"@openzeppelin/contracts/token/ERC20/ERC20.sol\":11145:11161   */\n      dup5\n        /* \"@openzeppelin/contracts/token/ERC20/ERC20.sol\":11145:11170   */\n      sub\n        /* \"@openzeppelin/contracts/token/ERC20/ERC20.sol\":11120:11128   */\n      tag_127\n        /* \"@openzeppelin/contracts/token/ERC20/ERC20.sol\":11120:11171   */\n      jump\t// in\n    tag_217:\n        /* \"@openzeppelin/contracts/token/ERC20/ERC20.sol\":10881:11202   */\n      pop\n        /* \"@openzeppelin/contracts/token/ERC20/ERC20.sol\":10761:11202   */\n      pop\n      pop\n      pop\n      jump\t// out\n        /* \"@openzeppelin/contracts/token/ERC20/ERC20.sol\":7475:8126   */\n    tag_134:\n      sub(shl(0xa0, 0x01), 0x01)\n        /* \"@openzeppelin/contracts/token/ERC20/ERC20.sol\":7601:7619   */\n      dup4\n      and\n        /* \"@openzeppelin/contracts/token/ERC20/ERC20.sol\":7593:7661   */\n      tag_219\n      jumpi\n      mload(0x40)\n      shl(0xe5, 0x461bcd)\n      dup2\n      mstore\n        /* \"#utility.yul\":7181:7183   */\n      0x20\n        /* \"@openzeppelin/contracts/token/ERC20/ERC20.sol\":7593:7661   */\n      0x04\n      dup3\n      add\n        /* \"#utility.yul\":7163:7184   */\n      mstore\n        /* \"#utility.yul\":7220:7222   */\n      0x25\n        /* \"#utility.yul\":7200:7218   */\n      0x24\n      dup3\n      add\n        /* \"#utility.yul\":7193:7223   */\n      mstore\n        /* \"#utility.yul\":7259:7293   */\n      0x45524332303a207472616e736665722066726f6d20746865207a65726f206164\n        /* \"#utility.yul\":7239:7257   */\n      0x44\n      dup3\n      add\n        /* \"#utility.yul\":7232:7294   */\n      mstore\n        /* \"#utility.yul\":7330:7337   */\n      0x6472657373000000000000000000000000000000000000000000000000000000\n        /* \"#utility.yul\":7310:7328   */\n      0x64\n      dup3\n      add\n        /* \"#utility.yul\":7303:7338   */\n      mstore\n        /* \"#utility.yul\":7355:7374   */\n      0x84\n      add\n        /* \"@openzeppelin/contracts/token/ERC20/ERC20.sol\":7593:7661   */\n      tag_188\n        /* \"#utility.yul\":6979:7380   */\n      jump\n        /* \"@openzeppelin/contracts/token/ERC20/ERC20.sol\":7593:7661   */\n    tag_219:\n      sub(shl(0xa0, 0x01), 0x01)\n        /* \"@openzeppelin/contracts/token/ERC20/ERC20.sol\":7679:7695   */\n      dup3\n      and\n        /* \"@openzeppelin/contracts/token/ERC20/ERC20.sol\":7671:7735   */\n      tag_222\n      jumpi\n      mload(0x40)\n      shl(0xe5, 0x461bcd)\n      dup2\n      mstore\n        /* \"#utility.yul\":7587:7589   */\n      0x20\n        /* \"@openzeppelin/contracts/token/ERC20/ERC20.sol\":7671:7735   */\n      0x04\n      dup3\n      add\n        /* \"#utility.yul\":7569:7590   */\n      mstore\n        /* \"#utility.yul\":7626:7628   */\n      0x23\n        /* \"#utility.yul\":7606:7624   */\n      0x24\n      dup3\n      add\n        /* \"#utility.yul\":7599:7629   */\n      mstore\n        /* \"#utility.yul\":7665:7699   */\n      0x45524332303a207472616e7366657220746f20746865207a65726f2061646472\n        /* \"#utility.yul\":7645:7663   */\n      0x44\n      dup3\n      add\n        /* \"#utility.yul\":7638:7700   */\n      mstore\n      shl(0xe8, 0x657373)\n        /* \"#utility.yul\":7716:7734   */\n      0x64\n      dup3\n      add\n        /* \"#utility.yul\":7709:7742   */\n      mstore\n        /* \"#utility.yul\":7759:7778   */\n      0x84\n      add\n        /* \"@openzeppelin/contracts/token/ERC20/ERC20.sol\":7671:7735   */\n      tag_188\n        /* \"#utility.yul\":7385:7784   */\n      jump\n        /* \"@openzeppelin/contracts/token/ERC20/ERC20.sol\":7671:7735   */\n    tag_222:\n      sub(shl(0xa0, 0x01), 0x01)\n        /* \"@openzeppelin/contracts/token/ERC20/ERC20.sol\":7817:7832   */\n      dup4\n      and\n        /* \"@openzeppelin/contracts/token/ERC20/ERC20.sol\":7795:7814   */\n      0x00\n        /* \"@openzeppelin/contracts/token/ERC20/ERC20.sol\":7817:7832   */\n      swap1\n      dup2\n      mstore\n      0x20\n      dup2\n      swap1\n      mstore\n      0x40\n      swap1\n      keccak256\n      sload\n        /* \"@openzeppelin/contracts/token/ERC20/ERC20.sol\":7850:7871   */\n      dup2\n      dup2\n      lt\n      iszero\n        /* \"@openzeppelin/contracts/token/ERC20/ERC20.sol\":7842:7914   */\n      tag_227\n      jumpi\n      mload(0x40)\n      shl(0xe5, 0x461bcd)\n      dup2\n      mstore\n        /* \"#utility.yul\":7991:7993   */\n      0x20\n        /* \"@openzeppelin/contracts/token/ERC20/ERC20.sol\":7842:7914   */\n      0x04\n      dup3\n      add\n        /* \"#utility.yul\":7973:7994   */\n      mstore\n        /* \"#utility.yul\":8030:8032   */\n      0x26\n        /* \"#utility.yul\":8010:8028   */\n      0x24\n      dup3\n      add\n        /* \"#utility.yul\":8003:8033   */\n      mstore\n        /* \"#utility.yul\":8069:8103   */\n      0x45524332303a207472616e7366657220616d6f756e7420657863656564732062\n        /* \"#utility.yul\":8049:8067   */\n      0x44\n      dup3\n      add\n        /* \"#utility.yul\":8042:8104   */\n      mstore\n        /* \"#utility.yul\":8140:8148   */\n      0x616c616e63650000000000000000000000000000000000000000000000000000\n        /* \"#utility.yul\":8120:8138   */\n      0x64\n      dup3\n      add\n        /* \"#utility.yul\":8113:8149   */\n      mstore\n        /* \"#utility.yul\":8166:8185   */\n      0x84\n      add\n        /* \"@openzeppelin/contracts/token/ERC20/ERC20.sol\":7842:7914   */\n      tag_188\n        /* \"#utility.yul\":7789:8191   */\n      jump\n        /* \"@openzeppelin/contracts/token/ERC20/ERC20.sol\":7842:7914   */\n    tag_227:\n      sub(shl(0xa0, 0x01), 0x01)\n        /* \"@openzeppelin/contracts/token/ERC20/ERC20.sol\":7948:7963   */\n      dup1\n      dup6\n      and\n        /* \"@openzeppelin/contracts/token/ERC20/ERC20.sol\":7948:7957   */\n      0x00\n        /* \"@openzeppelin/contracts/token/ERC20/ERC20.sol\":7948:7963   */\n      swap1\n      dup2\n      mstore\n      0x20\n      dup2\n      swap1\n      mstore\n      0x40\n      dup1\n      dup3\n      keccak256\n        /* \"@openzeppelin/contracts/token/ERC20/ERC20.sol\":7966:7986   */\n      dup6\n      dup6\n      sub\n        /* \"@openzeppelin/contracts/token/ERC20/ERC20.sol\":7948:7986   */\n      swap1\n      sstore\n        /* \"@openzeppelin/contracts/token/ERC20/ERC20.sol\":8006:8019   */\n      swap2\n      dup6\n      and\n      dup2\n      mstore\n      swap1\n      dup2\n      keccak256\n        /* \"@openzeppelin/contracts/token/ERC20/ERC20.sol\":8006:8029   */\n      dup1\n      sload\n        /* \"@openzeppelin/contracts/token/ERC20/ERC20.sol\":7980:7986   */\n      dup5\n      swap3\n        /* \"@openzeppelin/contracts/token/ERC20/ERC20.sol\":7948:7957   */\n      swap1\n        /* \"@openzeppelin/contracts/token/ERC20/ERC20.sol\":8006:8029   */\n      tag_230\n      swap1\n        /* \"@openzeppelin/contracts/token/ERC20/ERC20.sol\":7980:7986   */\n      dup5\n      swap1\n        /* \"@openzeppelin/contracts/token/ERC20/ERC20.sol\":8006:8029   */\n      tag_145\n      jump\t// in\n    tag_230:\n      swap3\n      pop\n      pop\n      dup2\n      swap1\n      sstore\n      pop\n        /* \"@openzeppelin/contracts/token/ERC20/ERC20.sol\":8060:8062   */\n      dup3\n      sub(shl(0xa0, 0x01), 0x01)\n        /* \"@openzeppelin/contracts/token/ERC20/ERC20.sol\":8045:8071   */\n      and\n        /* \"@openzeppelin/contracts/token/ERC20/ERC20.sol\":8054:8058   */\n      dup5\n      sub(shl(0xa0, 0x01), 0x01)\n        /* \"@openzeppelin/contracts/token/ERC20/ERC20.sol\":8045:8071   */\n      and\n      0xddf252ad1be2c89b69c2b068fc378daa952ba7f163c4a11628f55a4df523b3ef\n        /* \"@openzeppelin/contracts/token/ERC20/ERC20.sol\":8064:8070   */\n      dup5\n        /* \"@openzeppelin/contracts/token/ERC20/ERC20.sol\":8045:8071   */\n      mload(0x40)\n      tag_231\n      swap2\n        /* \"#utility.yul\":1414:1439   */\n      dup2\n      mstore\n        /* \"#utility.yul\":1402:1404   */\n      0x20\n        /* \"#utility.yul\":1387:1405   */\n      add\n      swap1\n        /* \"#utility.yul\":1268:1445   */\n      jump\n        /* \"@openzeppelin/contracts/token/ERC20/ERC20.sol\":8045:8071   */\n    tag_231:\n      mload(0x40)\n      dup1\n      swap2\n      sub\n      swap1\n      log3\n        /* \"@openzeppelin/contracts/token/ERC20/ERC20.sol\":8082:8119   */\n      tag_217\n        /* \"@openzeppelin/contracts/token/ERC20/ERC20.sol\":11786:11907   */\n      jump\n        /* \"@openzeppelin/contracts/access/Ownable.sol\":1359:1489   */\n    tag_137:\n        /* \"@openzeppelin/contracts/access/Ownable.sol\":1273:1279   */\n      and(sub(shl(0xa0, 0x01), 0x01), sload(0x05))\n        /* \"@openzeppelin/contracts/utils/Context.sol\":719:729   */\n      caller\n        /* \"@openzeppelin/contracts/access/Ownable.sol\":1422:1445   */\n      eq\n        /* \"@openzeppelin/contracts/access/Ownable.sol\":1414:1482   */\n      tag_172\n      jumpi\n      mload(0x40)\n      shl(0xe5, 0x461bcd)\n      dup2\n      mstore\n        /* \"#utility.yul\":8398:8400   */\n      0x20\n        /* \"@openzeppelin/contracts/access/Ownable.sol\":1414:1482   */\n      0x04\n      dup3\n      add\n        /* \"#utility.yul\":8380:8401   */\n      dup2\n      swap1\n      mstore\n        /* \"#utility.yul\":8417:8435   */\n      0x24\n      dup3\n      add\n        /* \"#utility.yul\":8410:8440   */\n      mstore\n        /* \"#utility.yul\":8476:8510   */\n      0x4f776e61626c653a2063616c6c6572206973206e6f7420746865206f776e6572\n        /* \"#utility.yul\":8456:8474   */\n      0x44\n      dup3\n      add\n        /* \"#utility.yul\":8449:8511   */\n      mstore\n        /* \"#utility.yul\":8528:8546   */\n      0x64\n      add\n        /* \"@openzeppelin/contracts/access/Ownable.sol\":1414:1482   */\n      tag_188\n        /* \"#utility.yul\":8196:8552   */\n      jump\n        /* \"@openzeppelin/contracts/token/ERC20/ERC20.sol\":8402:8791   */\n    tag_149:\n      sub(shl(0xa0, 0x01), 0x01)\n        /* \"@openzeppelin/contracts/token/ERC20/ERC20.sol\":8485:8506   */\n      dup3\n      and\n        /* \"@openzeppelin/contracts/token/ERC20/ERC20.sol\":8477:8542   */\n      tag_241\n      jumpi\n      mload(0x40)\n      shl(0xe5, 0x461bcd)\n      dup2\n      mstore\n        /* \"#utility.yul\":8759:8761   */\n      0x20\n        /* \"@openzeppelin/contracts/token/ERC20/ERC20.sol\":8477:8542   */\n      0x04\n      dup3\n      add\n        /* \"#utility.yul\":8741:8762   */\n      mstore\n        /* \"#utility.yul\":8798:8800   */\n      0x1f\n        /* \"#utility.yul\":8778:8796   */\n      0x24\n      dup3\n      add\n        /* \"#utility.yul\":8771:8801   */\n      mstore\n        /* \"#utility.yul\":8837:8870   */\n      0x45524332303a206d696e7420746f20746865207a65726f206164647265737300\n        /* \"#utility.yul\":8817:8835   */\n      0x44\n      dup3\n      add\n        /* \"#utility.yul\":8810:8871   */\n      mstore\n        /* \"#utility.yul\":8888:8906   */\n      0x64\n      add\n        /* \"@openzeppelin/contracts/token/ERC20/ERC20.sol\":8477:8542   */\n      tag_188\n        /* \"#utility.yul\":8557:8912   */\n      jump\n        /* \"@openzeppelin/contracts/token/ERC20/ERC20.sol\":8477:8542   */\n    tag_241:\n        /* \"@openzeppelin/contracts/token/ERC20/ERC20.sol\":8629:8635   */\n      dup1\n        /* \"@openzeppelin/contracts/token/ERC20/ERC20.sol\":8613:8625   */\n      0x02\n      0x00\n        /* \"@openzeppelin/contracts/token/ERC20/ERC20.sol\":8613:8635   */\n      dup3\n      dup3\n      sload\n      tag_245\n      swap2\n      swap1\n      tag_145\n      jump\t// in\n    tag_245:\n      swap1\n      swap2\n      sstore\n      pop\n      pop\n      sub(shl(0xa0, 0x01), 0x01)\n        /* \"@openzeppelin/contracts/token/ERC20/ERC20.sol\":8645:8663   */\n      dup3\n      and\n        /* \"@openzeppelin/contracts/token/ERC20/ERC20.sol\":8645:8654   */\n      0x00\n        /* \"@openzeppelin/contracts/token/ERC20/ERC20.sol\":8645:8663   */\n      swap1\n      dup2\n      mstore\n      0x20\n      dup2\n      swap1\n      mstore\n      0x40\n      dup2\n      keccak256\n        /* \"@openzeppelin/contracts/token/ERC20/ERC20.sol\":8645:8673   */\n      dup1\n      sload\n        /* \"@openzeppelin/contracts/token/ERC20/ERC20.sol\":8667:8673   */\n      dup4\n      swap3\n        /* \"@openzeppelin/contracts/token/ERC20/ERC20.sol\":8645:8654   */\n      swap1\n        /* \"@openzeppelin/contracts/token/ERC20/ERC20.sol\":8645:8673   */\n      tag_246\n      swap1\n        /* \"@openzeppelin/contracts/token/ERC20/ERC20.sol\":8667:8673   */\n      dup5\n      swap1\n        /* \"@openzeppelin/contracts/token/ERC20/ERC20.sol\":8645:8673   */\n      tag_145\n      jump\t// in\n    tag_246:\n      swap1\n      swap2\n      sstore\n      pop\n      pop\n        /* \"@openzeppelin/contracts/token/ERC20/ERC20.sol\":8688:8725   */\n      mload(0x40)\n        /* \"#utility.yul\":1414:1439   */\n      dup2\n      dup2\n      mstore\n      sub(shl(0xa0, 0x01), 0x01)\n        /* \"@openzeppelin/contracts/token/ERC20/ERC20.sol\":8688:8725   */\n      dup4\n      and\n      swap1\n        /* \"@openzeppelin/contracts/token/ERC20/ERC20.sol\":8705:8706   */\n      0x00\n      swap1\n        /* \"@openzeppelin/contracts/token/ERC20/ERC20.sol\":8688:8725   */\n      0xddf252ad1be2c89b69c2b068fc378daa952ba7f163c4a11628f55a4df523b3ef\n      swap1\n        /* \"#utility.yul\":1402:1404   */\n      0x20\n        /* \"#utility.yul\":1387:1405   */\n      add\n        /* \"@openzeppelin/contracts/token/ERC20/ERC20.sol\":8688:8725   */\n      mload(0x40)\n      dup1\n      swap2\n      sub\n      swap1\n      log3\n        /* \"OasisToken.sol\":1450:1595  function mint(address _to, uint256 _amount) external {... */\n      pop\n      pop\n      jump\t// out\n        /* \"@openzeppelin/contracts/access/Ownable.sol\":2433:2620   */\n    tag_173:\n        /* \"@openzeppelin/contracts/access/Ownable.sol\":2525:2531   */\n      0x05\n      dup1\n      sload\n      sub(shl(0xa0, 0x01), 0x01)\n        /* \"@openzeppelin/contracts/access/Ownable.sol\":2541:2558   */\n      dup4\n      dup2\n      and\n      0xffffffffffffffffffffffff0000000000000000000000000000000000000000\n      dup4\n      and\n      dup2\n      or\n      swap1\n      swap4\n      sstore\n        /* \"@openzeppelin/contracts/access/Ownable.sol\":2573:2613   */\n      mload(0x40)\n        /* \"@openzeppelin/contracts/access/Ownable.sol\":2525:2531   */\n      swap2\n      and\n      swap2\n        /* \"@openzeppelin/contracts/access/Ownable.sol\":2541:2558   */\n      swap1\n        /* \"@openzeppelin/contracts/access/Ownable.sol\":2525:2531   */\n      dup3\n      swap1\n        /* \"@openzeppelin/contracts/access/Ownable.sol\":2573:2613   */\n      0x8be0079c531659141344cd1fd0a4f28419497f9722a3daafe3b4186f6b6457e0\n      swap1\n        /* \"@openzeppelin/contracts/access/Ownable.sol\":2506:2522   */\n      0x00\n      swap1\n        /* \"@openzeppelin/contracts/access/Ownable.sol\":2573:2613   */\n      log3\n        /* \"@openzeppelin/contracts/access/Ownable.sol\":2496:2620   */\n      pop\n        /* \"@openzeppelin/contracts/access/Ownable.sol\":2433:2620   */\n      pop\n      jump\t// out\n        /* \"#utility.yul\":14:611   */\n    tag_35:\n        /* \"#utility.yul\":126:130   */\n      0x00\n        /* \"#utility.yul\":155:157   */\n      0x20\n        /* \"#utility.yul\":184:186   */\n      dup1\n        /* \"#utility.yul\":173:182   */\n      dup4\n        /* \"#utility.yul\":166:187   */\n      mstore\n        /* \"#utility.yul\":216:222   */\n      dup4\n        /* \"#utility.yul\":210:223   */\n      mload\n        /* \"#utility.yul\":259:265   */\n      dup1\n        /* \"#utility.yul\":254:256   */\n      dup3\n        /* \"#utility.yul\":243:252   */\n      dup6\n        /* \"#utility.yul\":239:257   */\n      add\n        /* \"#utility.yul\":232:266   */\n      mstore\n        /* \"#utility.yul\":284:285   */\n      0x00\n        /* \"#utility.yul\":294:434   */\n    tag_256:\n        /* \"#utility.yul\":308:314   */\n      dup2\n        /* \"#utility.yul\":305:306   */\n      dup2\n        /* \"#utility.yul\":302:315   */\n      lt\n        /* \"#utility.yul\":294:434   */\n      iszero\n      tag_258\n      jumpi\n        /* \"#utility.yul\":403:417   */\n      dup6\n      dup2\n      add\n        /* \"#utility.yul\":399:422   */\n      dup4\n      add\n        /* \"#utility.yul\":393:423   */\n      mload\n        /* \"#utility.yul\":369:386   */\n      dup6\n      dup3\n      add\n        /* \"#utility.yul\":388:390   */\n      0x40\n        /* \"#utility.yul\":365:391   */\n      add\n        /* \"#utility.yul\":358:424   */\n      mstore\n        /* \"#utility.yul\":323:333   */\n      dup3\n      add\n        /* \"#utility.yul\":294:434   */\n      jump(tag_256)\n    tag_258:\n        /* \"#utility.yul\":452:458   */\n      dup2\n        /* \"#utility.yul\":449:450   */\n      dup2\n        /* \"#utility.yul\":446:459   */\n      gt\n        /* \"#utility.yul\":443:534   */\n      iszero\n      tag_259\n      jumpi\n        /* \"#utility.yul\":522:523   */\n      0x00\n        /* \"#utility.yul\":517:519   */\n      0x40\n        /* \"#utility.yul\":508:514   */\n      dup4\n        /* \"#utility.yul\":497:506   */\n      dup8\n        /* \"#utility.yul\":493:515   */\n      add\n        /* \"#utility.yul\":489:520   */\n      add\n        /* \"#utility.yul\":482:524   */\n      mstore\n        /* \"#utility.yul\":443:534   */\n    tag_259:\n      pop\n        /* \"#utility.yul\":595:597   */\n      0x1f\n        /* \"#utility.yul\":574:589   */\n      add\n      not(0x1f)\n        /* \"#utility.yul\":570:599   */\n      and\n        /* \"#utility.yul\":555:600   */\n      swap3\n      swap1\n      swap3\n      add\n        /* \"#utility.yul\":602:604   */\n      0x40\n        /* \"#utility.yul\":551:605   */\n      add\n      swap4\n        /* \"#utility.yul\":14:611   */\n      swap3\n      pop\n      pop\n      pop\n      jump\t// out\n        /* \"#utility.yul\":616:812   */\n    tag_252:\n        /* \"#utility.yul\":684:704   */\n      dup1\n      calldataload\n      sub(shl(0xa0, 0x01), 0x01)\n        /* \"#utility.yul\":733:787   */\n      dup2\n      and\n        /* \"#utility.yul\":723:788   */\n      dup2\n      eq\n        /* \"#utility.yul\":713:806   */\n      tag_261\n      jumpi\n        /* \"#utility.yul\":802:803   */\n      0x00\n        /* \"#utility.yul\":799:800   */\n      dup1\n        /* \"#utility.yul\":792:804   */\n      revert\n        /* \"#utility.yul\":713:806   */\n    tag_261:\n        /* \"#utility.yul\":616:812   */\n      swap2\n      swap1\n      pop\n      jump\t// out\n        /* \"#utility.yul\":817:1071   */\n    tag_38:\n        /* \"#utility.yul\":885:891   */\n      0x00\n        /* \"#utility.yul\":893:899   */\n      dup1\n        /* \"#utility.yul\":946:948   */\n      0x40\n        /* \"#utility.yul\":934:943   */\n      dup4\n        /* \"#utility.yul\":925:932   */\n      dup6\n        /* \"#utility.yul\":921:944   */\n      sub\n        /* \"#utility.yul\":917:949   */\n      slt\n        /* \"#utility.yul\":914:966   */\n      iszero\n      tag_263\n      jumpi\n        /* \"#utility.yul\":962:963   */\n      0x00\n        /* \"#utility.yul\":959:960   */\n      dup1\n        /* \"#utility.yul\":952:964   */\n      revert\n        /* \"#utility.yul\":914:966   */\n    tag_263:\n        /* \"#utility.yul\":985:1014   */\n      tag_264\n        /* \"#utility.yul\":1004:1013   */\n      dup4\n        /* \"#utility.yul\":985:1014   */\n      tag_252\n      jump\t// in\n    tag_264:\n        /* \"#utility.yul\":975:1014   */\n      swap5\n        /* \"#utility.yul\":1061:1063   */\n      0x20\n        /* \"#utility.yul\":1046:1064   */\n      swap4\n      swap1\n      swap4\n      add\n        /* \"#utility.yul\":1033:1065   */\n      calldataload\n      swap4\n      pop\n      pop\n      pop\n        /* \"#utility.yul\":817:1071   */\n      jump\t// out\n        /* \"#utility.yul\":1450:1778   */\n    tag_48:\n        /* \"#utility.yul\":1527:1533   */\n      0x00\n        /* \"#utility.yul\":1535:1541   */\n      dup1\n        /* \"#utility.yul\":1543:1549   */\n      0x00\n        /* \"#utility.yul\":1596:1598   */\n      0x60\n        /* \"#utility.yul\":1584:1593   */\n      dup5\n        /* \"#utility.yul\":1575:1582   */\n      dup7\n        /* \"#utility.yul\":1571:1594   */\n      sub\n        /* \"#utility.yul\":1567:1599   */\n      slt\n        /* \"#utility.yul\":1564:1616   */\n      iszero\n      tag_268\n      jumpi\n        /* \"#utility.yul\":1612:1613   */\n      0x00\n        /* \"#utility.yul\":1609:1610   */\n      dup1\n        /* \"#utility.yul\":1602:1614   */\n      revert\n        /* \"#utility.yul\":1564:1616   */\n    tag_268:\n        /* \"#utility.yul\":1635:1664   */\n      tag_269\n        /* \"#utility.yul\":1654:1663   */\n      dup5\n        /* \"#utility.yul\":1635:1664   */\n      tag_252\n      jump\t// in\n    tag_269:\n        /* \"#utility.yul\":1625:1664   */\n      swap3\n      pop\n        /* \"#utility.yul\":1683:1721   */\n      tag_270\n        /* \"#utility.yul\":1717:1719   */\n      0x20\n        /* \"#utility.yul\":1706:1715   */\n      dup6\n        /* \"#utility.yul\":1702:1720   */\n      add\n        /* \"#utility.yul\":1683:1721   */\n      tag_252\n      jump\t// in\n    tag_270:\n        /* \"#utility.yul\":1673:1721   */\n      swap2\n      pop\n        /* \"#utility.yul\":1768:1770   */\n      0x40\n        /* \"#utility.yul\":1757:1766   */\n      dup5\n        /* \"#utility.yul\":1753:1771   */\n      add\n        /* \"#utility.yul\":1740:1772   */\n      calldataload\n        /* \"#utility.yul\":1730:1772   */\n      swap1\n      pop\n        /* \"#utility.yul\":1450:1778   */\n      swap3\n      pop\n      swap3\n      pop\n      swap3\n      jump\t// out\n        /* \"#utility.yul\":2006:2192   */\n    tag_57:\n        /* \"#utility.yul\":2065:2071   */\n      0x00\n        /* \"#utility.yul\":2118:2120   */\n      0x20\n        /* \"#utility.yul\":2106:2115   */\n      dup3\n        /* \"#utility.yul\":2097:2104   */\n      dup5\n        /* \"#utility.yul\":2093:2116   */\n      sub\n        /* \"#utility.yul\":2089:2121   */\n      slt\n        /* \"#utility.yul\":2086:2138   */\n      iszero\n      tag_273\n      jumpi\n        /* \"#utility.yul\":2134:2135   */\n      0x00\n        /* \"#utility.yul\":2131:2132   */\n      dup1\n        /* \"#utility.yul\":2124:2136   */\n      revert\n        /* \"#utility.yul\":2086:2138   */\n    tag_273:\n        /* \"#utility.yul\":2157:2186   */\n      tag_274\n        /* \"#utility.yul\":2176:2185   */\n      dup3\n        /* \"#utility.yul\":2157:2186   */\n      tag_252\n      jump\t// in\n    tag_274:\n        /* \"#utility.yul\":2147:2186   */\n      swap4\n        /* \"#utility.yul\":2006:2192   */\n      swap3\n      pop\n      pop\n      pop\n      jump\t// out\n        /* \"#utility.yul\":2386:3001   */\n    tag_76:\n        /* \"#utility.yul\":2472:2478   */\n      0x00\n        /* \"#utility.yul\":2480:2486   */\n      dup1\n        /* \"#utility.yul\":2533:2535   */\n      0x20\n        /* \"#utility.yul\":2521:2530   */\n      dup4\n        /* \"#utility.yul\":2512:2519   */\n      dup6\n        /* \"#utility.yul\":2508:2531   */\n      sub\n        /* \"#utility.yul\":2504:2536   */\n      slt\n        /* \"#utility.yul\":2501:2553   */\n      iszero\n      tag_277\n      jumpi\n        /* \"#utility.yul\":2549:2550   */\n      0x00\n        /* \"#utility.yul\":2546:2547   */\n      dup1\n        /* \"#utility.yul\":2539:2551   */\n      revert\n        /* \"#utility.yul\":2501:2553   */\n    tag_277:\n        /* \"#utility.yul\":2589:2598   */\n      dup3\n        /* \"#utility.yul\":2576:2599   */\n      calldataload\n        /* \"#utility.yul\":2618:2636   */\n      0xffffffffffffffff\n        /* \"#utility.yul\":2659:2661   */\n      dup1\n        /* \"#utility.yul\":2651:2657   */\n      dup3\n        /* \"#utility.yul\":2648:2662   */\n      gt\n        /* \"#utility.yul\":2645:2679   */\n      iszero\n      tag_278\n      jumpi\n        /* \"#utility.yul\":2675:2676   */\n      0x00\n        /* \"#utility.yul\":2672:2673   */\n      dup1\n        /* \"#utility.yul\":2665:2677   */\n      revert\n        /* \"#utility.yul\":2645:2679   */\n    tag_278:\n        /* \"#utility.yul\":2713:2719   */\n      dup2\n        /* \"#utility.yul\":2702:2711   */\n      dup6\n        /* \"#utility.yul\":2698:2720   */\n      add\n        /* \"#utility.yul\":2688:2720   */\n      swap2\n      pop\n        /* \"#utility.yul\":2758:2765   */\n      dup6\n        /* \"#utility.yul\":2751:2755   */\n      0x1f\n        /* \"#utility.yul\":2747:2749   */\n      dup4\n        /* \"#utility.yul\":2743:2756   */\n      add\n        /* \"#utility.yul\":2739:2766   */\n      slt\n        /* \"#utility.yul\":2729:2784   */\n      tag_279\n      jumpi\n        /* \"#utility.yul\":2780:2781   */\n      0x00\n        /* \"#utility.yul\":2777:2778   */\n      dup1\n        /* \"#utility.yul\":2770:2782   */\n      revert\n        /* \"#utility.yul\":2729:2784   */\n    tag_279:\n        /* \"#utility.yul\":2820:2822   */\n      dup2\n        /* \"#utility.yul\":2807:2823   */\n      calldataload\n        /* \"#utility.yul\":2846:2848   */\n      dup2\n        /* \"#utility.yul\":2838:2844   */\n      dup2\n        /* \"#utility.yul\":2835:2849   */\n      gt\n        /* \"#utility.yul\":2832:2866   */\n      iszero\n      tag_280\n      jumpi\n        /* \"#utility.yul\":2862:2863   */\n      0x00\n        /* \"#utility.yul\":2859:2860   */\n      dup1\n        /* \"#utility.yul\":2852:2864   */\n      revert\n        /* \"#utility.yul\":2832:2866   */\n    tag_280:\n        /* \"#utility.yul\":2915:2922   */\n      dup7\n        /* \"#utility.yul\":2910:2912   */\n      0x20\n        /* \"#utility.yul\":2900:2906   */\n      dup3\n        /* \"#utility.yul\":2897:2898   */\n      0x05\n        /* \"#utility.yul\":2893:2907   */\n      shl\n        /* \"#utility.yul\":2889:2891   */\n      dup6\n        /* \"#utility.yul\":2885:2908   */\n      add\n        /* \"#utility.yul\":2881:2913   */\n      add\n        /* \"#utility.yul\":2878:2923   */\n      gt\n        /* \"#utility.yul\":2875:2940   */\n      iszero\n      tag_281\n      jumpi\n        /* \"#utility.yul\":2936:2937   */\n      0x00\n        /* \"#utility.yul\":2933:2934   */\n      dup1\n        /* \"#utility.yul\":2926:2938   */\n      revert\n        /* \"#utility.yul\":2875:2940   */\n    tag_281:\n        /* \"#utility.yul\":2967:2969   */\n      0x20\n        /* \"#utility.yul\":2959:2970   */\n      swap3\n      swap1\n      swap3\n      add\n      swap7\n        /* \"#utility.yul\":2989:2995   */\n      swap2\n      swap6\n      pop\n        /* \"#utility.yul\":2386:3001   */\n      swap1\n      swap4\n      pop\n      pop\n      pop\n      pop\n      jump\t// out\n        /* \"#utility.yul\":3237:3497   */\n    tag_110:\n        /* \"#utility.yul\":3305:3311   */\n      0x00\n        /* \"#utility.yul\":3313:3319   */\n      dup1\n        /* \"#utility.yul\":3366:3368   */\n      0x40\n        /* \"#utility.yul\":3354:3363   */\n      dup4\n        /* \"#utility.yul\":3345:3352   */\n      dup6\n        /* \"#utility.yul\":3341:3364   */\n      sub\n        /* \"#utility.yul\":3337:3369   */\n      slt\n        /* \"#utility.yul\":3334:3386   */\n      iszero\n      tag_284\n      jumpi\n        /* \"#utility.yul\":3382:3383   */\n      0x00\n        /* \"#utility.yul\":3379:3380   */\n      dup1\n        /* \"#utility.yul\":3372:3384   */\n      revert\n        /* \"#utility.yul\":3334:3386   */\n    tag_284:\n        /* \"#utility.yul\":3405:3434   */\n      tag_285\n        /* \"#utility.yul\":3424:3433   */\n      dup4\n        /* \"#utility.yul\":3405:3434   */\n      tag_252\n      jump\t// in\n    tag_285:\n        /* \"#utility.yul\":3395:3434   */\n      swap2\n      pop\n        /* \"#utility.yul\":3453:3491   */\n      tag_286\n        /* \"#utility.yul\":3487:3489   */\n      0x20\n        /* \"#utility.yul\":3476:3485   */\n      dup5\n        /* \"#utility.yul\":3472:3490   */\n      add\n        /* \"#utility.yul\":3453:3491   */\n      tag_252\n      jump\t// in\n    tag_286:\n        /* \"#utility.yul\":3443:3491   */\n      swap1\n      pop\n        /* \"#utility.yul\":3237:3497   */\n      swap3\n      pop\n      swap3\n      swap1\n      pop\n      jump\t// out\n        /* \"#utility.yul\":3502:3882   */\n    tag_118:\n        /* \"#utility.yul\":3581:3582   */\n      0x01\n        /* \"#utility.yul\":3577:3589   */\n      dup2\n      dup2\n      shr\n      swap1\n        /* \"#utility.yul\":3624:3636   */\n      dup3\n      and\n      dup1\n        /* \"#utility.yul\":3645:3706   */\n      tag_288\n      jumpi\n        /* \"#utility.yul\":3699:3703   */\n      0x7f\n        /* \"#utility.yul\":3691:3697   */\n      dup3\n        /* \"#utility.yul\":3687:3704   */\n      and\n        /* \"#utility.yul\":3677:3704   */\n      swap2\n      pop\n        /* \"#utility.yul\":3645:3706   */\n    tag_288:\n        /* \"#utility.yul\":3752:3754   */\n      0x20\n        /* \"#utility.yul\":3744:3750   */\n      dup3\n        /* \"#utility.yul\":3741:3755   */\n      lt\n        /* \"#utility.yul\":3721:3739   */\n      dup2\n        /* \"#utility.yul\":3718:3756   */\n      sub\n        /* \"#utility.yul\":3715:3876   */\n      tag_289\n      jumpi\n        /* \"#utility.yul\":3798:3808   */\n      0x4e487b71\n        /* \"#utility.yul\":3793:3796   */\n      0xe0\n        /* \"#utility.yul\":3789:3809   */\n      shl\n        /* \"#utility.yul\":3786:3787   */\n      0x00\n        /* \"#utility.yul\":3779:3810   */\n      mstore\n        /* \"#utility.yul\":3833:3837   */\n      0x22\n        /* \"#utility.yul\":3830:3831   */\n      0x04\n        /* \"#utility.yul\":3823:3838   */\n      mstore\n        /* \"#utility.yul\":3861:3865   */\n      0x24\n        /* \"#utility.yul\":3858:3859   */\n      0x00\n        /* \"#utility.yul\":3851:3866   */\n      revert\n        /* \"#utility.yul\":3715:3876   */\n    tag_289:\n      pop\n        /* \"#utility.yul\":3502:3882   */\n      swap2\n      swap1\n      pop\n      jump\t// out\n        /* \"#utility.yul\":3887:4014   */\n    tag_253:\n        /* \"#utility.yul\":3948:3958   */\n      0x4e487b71\n        /* \"#utility.yul\":3943:3946   */\n      0xe0\n        /* \"#utility.yul\":3939:3959   */\n      shl\n        /* \"#utility.yul\":3936:3937   */\n      0x00\n        /* \"#utility.yul\":3929:3960   */\n      mstore\n        /* \"#utility.yul\":3979:3983   */\n      0x11\n        /* \"#utility.yul\":3976:3977   */\n      0x04\n        /* \"#utility.yul\":3969:3984   */\n      mstore\n        /* \"#utility.yul\":4003:4007   */\n      0x24\n        /* \"#utility.yul\":4000:4001   */\n      0x00\n        /* \"#utility.yul\":3993:4008   */\n      revert\n        /* \"#utility.yul\":4019:4147   */\n    tag_145:\n        /* \"#utility.yul\":4059:4062   */\n      0x00\n        /* \"#utility.yul\":4090:4091   */\n      dup3\n        /* \"#utility.yul\":4086:4092   */\n      not\n        /* \"#utility.yul\":4083:4084   */\n      dup3\n        /* \"#utility.yul\":4080:4093   */\n      gt\n        /* \"#utility.yul\":4077:4116   */\n      iszero\n      tag_293\n      jumpi\n        /* \"#utility.yul\":4096:4114   */\n      tag_293\n      tag_253\n      jump\t// in\n    tag_293:\n      pop\n        /* \"#utility.yul\":4132:4141   */\n      add\n      swap1\n        /* \"#utility.yul\":4019:4147   */\n      jump\t// out\n        /* \"#utility.yul\":4152:4279   */\n    tag_157:\n        /* \"#utility.yul\":4213:4223   */\n      0x4e487b71\n        /* \"#utility.yul\":4208:4211   */\n      0xe0\n        /* \"#utility.yul\":4204:4224   */\n      shl\n        /* \"#utility.yul\":4201:4202   */\n      0x00\n        /* \"#utility.yul\":4194:4225   */\n      mstore\n        /* \"#utility.yul\":4244:4248   */\n      0x32\n        /* \"#utility.yul\":4241:4242   */\n      0x04\n        /* \"#utility.yul\":4234:4249   */\n      mstore\n        /* \"#utility.yul\":4268:4272   */\n      0x24\n        /* \"#utility.yul\":4265:4266   */\n      0x00\n        /* \"#utility.yul\":4258:4273   */\n      revert\n        /* \"#utility.yul\":4687:4822   */\n    tag_164:\n        /* \"#utility.yul\":4726:4729   */\n      0x00\n        /* \"#utility.yul\":4747:4764   */\n      0x01\n      dup3\n      add\n        /* \"#utility.yul\":4744:4787   */\n      tag_298\n      jumpi\n        /* \"#utility.yul\":4767:4785   */\n      tag_298\n      tag_253\n      jump\t// in\n    tag_298:\n      pop\n        /* \"#utility.yul\":4814:4815   */\n      0x01\n        /* \"#utility.yul\":4803:4816   */\n      add\n      swap1\n        /* \"#utility.yul\":4687:4822   */\n      jump\t// out\n        /* \"#utility.yul\":4827:4995   */\n    tag_167:\n        /* \"#utility.yul\":4867:4874   */\n      0x00\n        /* \"#utility.yul\":4933:4934   */\n      dup2\n        /* \"#utility.yul\":4929:4930   */\n      0x00\n        /* \"#utility.yul\":4925:4931   */\n      not\n        /* \"#utility.yul\":4921:4935   */\n      div\n        /* \"#utility.yul\":4918:4919   */\n      dup4\n        /* \"#utility.yul\":4915:4936   */\n      gt\n        /* \"#utility.yul\":4910:4911   */\n      dup3\n        /* \"#utility.yul\":4903:4912   */\n      iszero\n        /* \"#utility.yul\":4896:4913   */\n      iszero\n        /* \"#utility.yul\":4892:4937   */\n      and\n        /* \"#utility.yul\":4889:4960   */\n      iszero\n      tag_301\n      jumpi\n        /* \"#utility.yul\":4940:4958   */\n      tag_301\n      tag_253\n      jump\t// in\n    tag_301:\n      pop\n        /* \"#utility.yul\":4980:4989   */\n      mul\n      swap1\n        /* \"#utility.yul\":4827:4995   */\n      jump\t// out\n\n    auxdata: 0xa264697066735822122094dd9ec1bdba0cb6e85ce7fa8bf21895b907785233e275f0b045e657f53e34d164736f6c634300080d0033\n}\n",
    "bytecode": {
      "linkReferences": {},
      "object": "60e06040523480156200001157600080fd5b5060405162001352380380620013528339810160408190526200003491620001fd565b6040518060400160405280600b81526020016a27b0b9b4b9902a37b5b2b760a91b8152506040518060400160405280600381526020016213d4d560ea1b81525081600390805190602001906200008c9291906200013a565b508051620000a29060049060208401906200013a565b505050620000bf620000b9620000e460201b60201c565b620000e8565b6001600160a01b03928316608052911660a0526001600160801b031660c05262000293565b3390565b600580546001600160a01b038381166001600160a01b0319831681179093556040519116919082907f8be0079c531659141344cd1fd0a4f28419497f9722a3daafe3b4186f6b6457e090600090a35050565b828054620001489062000257565b90600052602060002090601f0160209004810192826200016c5760008555620001b7565b82601f106200018757805160ff1916838001178555620001b7565b82800160010185558215620001b7579182015b82811115620001b75782518255916020019190600101906200019a565b50620001c5929150620001c9565b5090565b5b80821115620001c55760008155600101620001ca565b80516001600160a01b0381168114620001f857600080fd5b919050565b6000806000606084860312156200021357600080fd5b6200021e84620001e0565b92506200022e60208501620001e0565b60408501519092506001600160801b03811681146200024c57600080fd5b809150509250925092565b600181811c908216806200026c57607f821691505b6020821081036200028d57634e487b7160e01b600052602260045260246000fd5b50919050565b60805160a05160c05161107a620002d8600039600081816101f2015261069f01526000818161032b01526105b90152600081816103780152610589015261107a6000f3fe608060405234801561001057600080fd5b50600436106101825760003560e01c806370a08231116100d85780639ff516751161008c578063c79476b511610066578063c79476b514610373578063dd62ed3e1461039a578063f2fde38b146103d357600080fd5b80639ff5167514610326578063a457c2d71461034d578063a9059cbb1461036057600080fd5b80638da5cb5b116100bd5780638da5cb5b146102e657806395d89b411461030b578063983b2d561461031357600080fd5b806370a08231146102b5578063715018a6146102de57600080fd5b80633092afd51161013a5780633dd08c38116101145780633dd08c381461026c57806340c10f191461028f5780636ba4c138146102a257600080fd5b80633092afd514610235578063313ce5671461024a578063395093511461025957600080fd5b806318160ddd1161016b57806318160ddd146101c857806323b872dd146101da5780632647cfac146101ed57600080fd5b806306fdde0314610187578063095ea7b3146101a5575b600080fd5b61018f6103e6565b60405161019c9190610ded565b60405180910390f35b6101b86101b3366004610e5e565b610478565b604051901515815260200161019c565b6002545b60405190815260200161019c565b6101b86101e8366004610e88565b610490565b6102147f000000000000000000000000000000000000000000000000000000000000000081565b6040516fffffffffffffffffffffffffffffffff909116815260200161019c565b610248610243366004610ec4565b6104b4565b005b6040516012815260200161019c565b6101b8610267366004610e5e565b6104dd565b6101b861027a366004610ec4565b60066020526000908152604090205460ff1681565b61024861029d366004610e5e565b61051c565b6102486102b0366004610ee6565b61055a565b6101cc6102c3366004610ec4565b6001600160a01b031660009081526020819052604090205490565b6102486106fb565b6005546001600160a01b03165b6040516001600160a01b03909116815260200161019c565b61018f61070f565b610248610321366004610ec4565b61071e565b6102f37f000000000000000000000000000000000000000000000000000000000000000081565b6101b861035b366004610e5e565b61074a565b6101b861036e366004610e5e565b6107f9565b6102f37f000000000000000000000000000000000000000000000000000000000000000081565b6101cc6103a8366004610f5b565b6001600160a01b03918216600090815260016020908152604080832093909416825291909152205490565b6102486103e1366004610ec4565b610807565b6060600380546103f590610f8e565b80601f016020809104026020016040519081016040528092919081815260200182805461042190610f8e565b801561046e5780601f106104435761010080835404028352916020019161046e565b820191906000526020600020905b81548152906001019060200180831161045157829003601f168201915b5050505050905090565b600033610486818585610897565b5060019392505050565b60003361049e8582856109bb565b6104a9858585610a4d565b506001949350505050565b6104bc610c4a565b6001600160a01b03166000908152600660205260409020805460ff19169055565b3360008181526001602090815260408083206001600160a01b03871684529091528120549091906104869082908690610517908790610fde565b610897565b3360009081526006602052604090205460ff1661054c57604051633e34a41b60e21b815260040160405180910390fd5b6105568282610ca4565b5050565b600181101561057c576040516317dbc4cb60e21b815260040160405180910390fd5b60005b81811015610684577f00000000000000000000000000000000000000000000000000000000000000006001600160a01b03166323b872dd337f00000000000000000000000000000000000000000000000000000000000000008686868181106105ea576105ea610ff6565b6040517fffffffff0000000000000000000000000000000000000000000000000000000060e088901b1681526001600160a01b03958616600482015294909316602485015250602090910201356044820152606401600060405180830381600087803b15801561065957600080fd5b505af115801561066d573d6000803e3d6000fd5b50505050808061067c9061100c565b91505061057f565b506106ca336106c56fffffffffffffffffffffffffffffffff7f00000000000000000000000000000000000000000000000000000000000000001684611025565b610ca4565b604051819033907fd8138f8a3f377c5259ca548e70e4c2de94f129f5a11036a15b69513cba2b426a90600090a35050565b610703610c4a565b61070d6000610d83565b565b6060600480546103f590610f8e565b610726610c4a565b6001600160a01b03166000908152600660205260409020805460ff19166001179055565b3360008181526001602090815260408083206001600160a01b0387168452909152812054909190838110156107ec5760405162461bcd60e51b815260206004820152602560248201527f45524332303a2064656372656173656420616c6c6f77616e63652062656c6f7760448201527f207a65726f00000000000000000000000000000000000000000000000000000060648201526084015b60405180910390fd5b6104a98286868403610897565b600033610486818585610a4d565b61080f610c4a565b6001600160a01b03811661088b5760405162461bcd60e51b815260206004820152602660248201527f4f776e61626c653a206e6577206f776e657220697320746865207a65726f206160448201527f646472657373000000000000000000000000000000000000000000000000000060648201526084016107e3565b61089481610d83565b50565b6001600160a01b0383166108f95760405162461bcd60e51b8152602060048201526024808201527f45524332303a20617070726f76652066726f6d20746865207a65726f206164646044820152637265737360e01b60648201526084016107e3565b6001600160a01b03821661095a5760405162461bcd60e51b815260206004820152602260248201527f45524332303a20617070726f766520746f20746865207a65726f206164647265604482015261737360f01b60648201526084016107e3565b6001600160a01b0383811660008181526001602090815260408083209487168084529482529182902085905590518481527f8c5be1e5ebec7d5bd14f71427d1e84f3dd0314c0f7b2291e5b200ac8c7c3b925910160405180910390a3505050565b6001600160a01b038381166000908152600160209081526040808320938616835292905220546000198114610a475781811015610a3a5760405162461bcd60e51b815260206004820152601d60248201527f45524332303a20696e73756666696369656e7420616c6c6f77616e636500000060448201526064016107e3565b610a478484848403610897565b50505050565b6001600160a01b038316610ac95760405162461bcd60e51b815260206004820152602560248201527f45524332303a207472616e736665722066726f6d20746865207a65726f20616460448201527f647265737300000000000000000000000000000000000000000000000000000060648201526084016107e3565b6001600160a01b038216610b2b5760405162461bcd60e51b815260206004820152602360248201527f45524332303a207472616e7366657220746f20746865207a65726f206164647260448201526265737360e81b60648201526084016107e3565b6001600160a01b03831660009081526020819052604090205481811015610bba5760405162461bcd60e51b815260206004820152602660248201527f45524332303a207472616e7366657220616d6f756e742065786365656473206260448201527f616c616e6365000000000000000000000000000000000000000000000000000060648201526084016107e3565b6001600160a01b03808516600090815260208190526040808220858503905591851681529081208054849290610bf1908490610fde565b92505081905550826001600160a01b0316846001600160a01b03167fddf252ad1be2c89b69c2b068fc378daa952ba7f163c4a11628f55a4df523b3ef84604051610c3d91815260200190565b60405180910390a3610a47565b6005546001600160a01b0316331461070d5760405162461bcd60e51b815260206004820181905260248201527f4f776e61626c653a2063616c6c6572206973206e6f7420746865206f776e657260448201526064016107e3565b6001600160a01b038216610cfa5760405162461bcd60e51b815260206004820152601f60248201527f45524332303a206d696e7420746f20746865207a65726f20616464726573730060448201526064016107e3565b8060026000828254610d0c9190610fde565b90915550506001600160a01b03821660009081526020819052604081208054839290610d39908490610fde565b90915550506040518181526001600160a01b038316906000907fddf252ad1be2c89b69c2b068fc378daa952ba7f163c4a11628f55a4df523b3ef9060200160405180910390a35050565b600580546001600160a01b038381167fffffffffffffffffffffffff0000000000000000000000000000000000000000831681179093556040519116919082907f8be0079c531659141344cd1fd0a4f28419497f9722a3daafe3b4186f6b6457e090600090a35050565b600060208083528351808285015260005b81811015610e1a57858101830151858201604001528201610dfe565b81811115610e2c576000604083870101525b50601f01601f1916929092016040019392505050565b80356001600160a01b0381168114610e5957600080fd5b919050565b60008060408385031215610e7157600080fd5b610e7a83610e42565b946020939093013593505050565b600080600060608486031215610e9d57600080fd5b610ea684610e42565b9250610eb460208501610e42565b9150604084013590509250925092565b600060208284031215610ed657600080fd5b610edf82610e42565b9392505050565b60008060208385031215610ef957600080fd5b823567ffffffffffffffff80821115610f1157600080fd5b818501915085601f830112610f2557600080fd5b813581811115610f3457600080fd5b8660208260051b8501011115610f4957600080fd5b60209290920196919550909350505050565b60008060408385031215610f6e57600080fd5b610f7783610e42565b9150610f8560208401610e42565b90509250929050565b600181811c90821680610fa257607f821691505b602082108103610fc257634e487b7160e01b600052602260045260246000fd5b50919050565b634e487b7160e01b600052601160045260246000fd5b60008219821115610ff157610ff1610fc8565b500190565b634e487b7160e01b600052603260045260246000fd5b60006001820161101e5761101e610fc8565b5060010190565b600081600019048311821515161561103f5761103f610fc8565b50029056fea264697066735822122094dd9ec1bdba0cb6e85ce7fa8bf21895b907785233e275f0b045e657f53e34d164736f6c634300080d0033",
      "opcodes": "PUSH1 0xE0 PUSH1 0x40 MSTORE CALLVALUE DUP1 ISZERO PUSH3 0x11 JUMPI PUSH1 0x0 DUP1 REVERT JUMPDEST POP PUSH1 0x40 MLOAD PUSH3 0x1352 CODESIZE SUB DUP1 PUSH3 0x1352 DUP4 CODECOPY DUP2 ADD PUSH1 0x40 DUP2 SWAP1 MSTORE PUSH3 0x34 SWAP2 PUSH3 0x1FD JUMP JUMPDEST PUSH1 0x40 MLOAD DUP1 PUSH1 0x40 ADD PUSH1 0x40 MSTORE DUP1 PUSH1 0xB DUP2 MSTORE PUSH1 0x20 ADD PUSH11 0x27B0B9B4B9902A37B5B2B7 PUSH1 0xA9 SHL DUP2 MSTORE POP PUSH1 0x40 MLOAD DUP1 PUSH1 0x40 ADD PUSH1 0x40 MSTORE DUP1 PUSH1 0x3 DUP2 MSTORE PUSH1 0x20 ADD PUSH3 0x13D4D5 PUSH1 0xEA SHL DUP2 MSTORE POP DUP2 PUSH1 0x3 SWAP1 DUP1 MLOAD SWAP1 PUSH1 0x20 ADD SWAP1 PUSH3 0x8C SWAP3 SWAP2 SWAP1 PUSH3 0x13A JUMP JUMPDEST POP DUP1 MLOAD PUSH3 0xA2 SWAP1 PUSH1 0x4 SWAP1 PUSH1 0x20 DUP5 ADD SWAP1 PUSH3 0x13A JUMP JUMPDEST POP POP POP PUSH3 0xBF PUSH3 0xB9 PUSH3 0xE4 PUSH1 0x20 SHL PUSH1 0x20 SHR JUMP JUMPDEST PUSH3 0xE8 JUMP JUMPDEST PUSH1 0x1 PUSH1 0x1 PUSH1 0xA0 SHL SUB SWAP3 DUP4 AND PUSH1 0x80 MSTORE SWAP2 AND PUSH1 0xA0 MSTORE PUSH1 0x1 PUSH1 0x1 PUSH1 0x80 SHL SUB AND PUSH1 0xC0 MSTORE PUSH3 0x293 JUMP JUMPDEST CALLER SWAP1 JUMP JUMPDEST PUSH1 0x5 DUP1 SLOAD PUSH1 0x1 PUSH1 0x1 PUSH1 0xA0 SHL SUB DUP4 DUP2 AND PUSH1 0x1 PUSH1 0x1 PUSH1 0xA0 SHL SUB NOT DUP4 AND DUP2 OR SWAP1 SWAP4 SSTORE PUSH1 0x40 MLOAD SWAP2 AND SWAP2 SWAP1 DUP3 SWAP1 PUSH32 0x8BE0079C531659141344CD1FD0A4F28419497F9722A3DAAFE3B4186F6B6457E0 SWAP1 PUSH1 0x0 SWAP1 LOG3 POP POP JUMP JUMPDEST DUP3 DUP1 SLOAD PUSH3 0x148 SWAP1 PUSH3 0x257 JUMP JUMPDEST SWAP1 PUSH1 0x0 MSTORE PUSH1 0x20 PUSH1 0x0 KECCAK256 SWAP1 PUSH1 0x1F ADD PUSH1 0x20 SWAP1 DIV DUP2 ADD SWAP3 DUP3 PUSH3 0x16C JUMPI PUSH1 0x0 DUP6 SSTORE PUSH3 0x1B7 JUMP JUMPDEST DUP3 PUSH1 0x1F LT PUSH3 0x187 JUMPI DUP1 MLOAD PUSH1 0xFF NOT AND DUP4 DUP1 ADD OR DUP6 SSTORE PUSH3 0x1B7 JUMP JUMPDEST DUP3 DUP1 ADD PUSH1 0x1 ADD DUP6 SSTORE DUP3 ISZERO PUSH3 0x1B7 JUMPI SWAP2 DUP3 ADD JUMPDEST DUP3 DUP2 GT ISZERO PUSH3 0x1B7 JUMPI DUP3 MLOAD DUP3 SSTORE SWAP2 PUSH1 0x20 ADD SWAP2 SWAP1 PUSH1 0x1 ADD SWAP1 PUSH3 0x19A JUMP JUMPDEST POP PUSH3 0x1C5 SWAP3 SWAP2 POP PUSH3 0x1C9 JUMP JUMPDEST POP SWAP1 JUMP JUMPDEST JUMPDEST DUP1 DUP3 GT ISZERO PUSH3 0x1C5 JUMPI PUSH1 0x0 DUP2 SSTORE PUSH1 0x1 ADD PUSH3 0x1CA JUMP JUMPDEST DUP1 MLOAD PUSH1 0x1 PUSH1 0x1 PUSH1 0xA0 SHL SUB DUP2 AND DUP2 EQ PUSH3 0x1F8 JUMPI PUSH1 0x0 DUP1 REVERT JUMPDEST SWAP2 SWAP1 POP JUMP JUMPDEST PUSH1 0x0 DUP1 PUSH1 0x0 PUSH1 0x60 DUP5 DUP7 SUB SLT ISZERO PUSH3 0x213 JUMPI PUSH1 0x0 DUP1 REVERT JUMPDEST PUSH3 0x21E DUP5 PUSH3 0x1E0 JUMP JUMPDEST SWAP3 POP PUSH3 0x22E PUSH1 0x20 DUP6 ADD PUSH3 0x1E0 JUMP JUMPDEST PUSH1 0x40 DUP6 ADD MLOAD SWAP1 SWAP3 POP PUSH1 0x1 PUSH1 0x1 PUSH1 0x80 SHL SUB DUP2 AND DUP2 EQ PUSH3 0x24C JUMPI PUSH1 0x0 DUP1 REVERT JUMPDEST DUP1 SWAP2 POP POP SWAP3 POP SWAP3 POP SWAP3 JUMP JUMPDEST PUSH1 0x1 DUP2 DUP2 SHR SWAP1 DUP3 AND DUP1 PUSH3 0x26C JUMPI PUSH1 0x7F DUP3 AND SWAP2 POP JUMPDEST PUSH1 0x20 DUP3 LT DUP2 SUB PUSH3 0x28D JUMPI PUSH4 0x4E487B71 PUSH1 0xE0 SHL PUSH1 0x0 MSTORE PUSH1 0x22 PUSH1 0x4 MSTORE PUSH1 0x24 PUSH1 0x0 REVERT JUMPDEST POP SWAP2 SWAP1 POP JUMP JUMPDEST PUSH1 0x80 MLOAD PUSH1 0xA0 MLOAD PUSH1 0xC0 MLOAD PUSH2 0x107A PUSH3 0x2D8 PUSH1 0x0 CODECOPY PUSH1 0x0 DUP2 DUP2 PUSH2 0x1F2 ADD MSTORE PUSH2 0x69F ADD MSTORE PUSH1 0x0 DUP2 DUP2 PUSH2 0x32B ADD MSTORE PUSH2 0x5B9 ADD MSTORE PUSH1 0x0 DUP2 DUP2 PUSH2 0x378 ADD MSTORE PUSH2 0x589 ADD MSTORE PUSH2 0x107A PUSH1 0x0 RETURN INVALID PUSH1 0x80 PUSH1 0x40 MSTORE CALLVALUE DUP1 ISZERO PUSH2 0x10 JUMPI PUSH1 0x0 DUP1 REVERT JUMPDEST POP PUSH1 0x4 CALLDATASIZE LT PUSH2 0x182 JUMPI PUSH1 0x0 CALLDATALOAD PUSH1 0xE0 SHR DUP1 PUSH4 0x70A08231 GT PUSH2 0xD8 JUMPI DUP1 PUSH4 0x9FF51675 GT PUSH2 0x8C JUMPI DUP1 PUSH4 0xC79476B5 GT PUSH2 0x66 JUMPI DUP1 PUSH4 0xC79476B5 EQ PUSH2 0x373 JUMPI DUP1 PUSH4 0xDD62ED3E EQ PUSH2 0x39A JUMPI DUP1 PUSH4 0xF2FDE38B EQ PUSH2 0x3D3 JUMPI PUSH1 0x0 DUP1 REVERT JUMPDEST DUP1 PUSH4 0x9FF51675 EQ PUSH2 0x326 JUMPI DUP1 PUSH4 0xA457C2D7 EQ PUSH2 0x34D JUMPI DUP1 PUSH4 0xA9059CBB EQ PUSH2 0x360 JUMPI PUSH1 0x0 DUP1 REVERT JUMPDEST DUP1 PUSH4 0x8DA5CB5B GT PUSH2 0xBD JUMPI DUP1 PUSH4 0x8DA5CB5B EQ PUSH2 0x2E6 JUMPI DUP1 PUSH4 0x95D89B41 EQ PUSH2 0x30B JUMPI DUP1 PUSH4 0x983B2D56 EQ PUSH2 0x313 JUMPI PUSH1 0x0 DUP1 REVERT JUMPDEST DUP1 PUSH4 0x70A08231 EQ PUSH2 0x2B5 JUMPI DUP1 PUSH4 0x715018A6 EQ PUSH2 0x2DE JUMPI PUSH1 0x0 DUP1 REVERT JUMPDEST DUP1 PUSH4 0x3092AFD5 GT PUSH2 0x13A JUMPI DUP1 PUSH4 0x3DD08C38 GT PUSH2 0x114 JUMPI DUP1 PUSH4 0x3DD08C38 EQ PUSH2 0x26C JUMPI DUP1 PUSH4 0x40C10F19 EQ PUSH2 0x28F JUMPI DUP1 PUSH4 0x6BA4C138 EQ PUSH2 0x2A2 JUMPI PUSH1 0x0 DUP1 REVERT JUMPDEST DUP1 PUSH4 0x3092AFD5 EQ PUSH2 0x235 JUMPI DUP1 PUSH4 0x313CE567 EQ PUSH2 0x24A JUMPI DUP1 PUSH4 0x39509351 EQ PUSH2 0x259 JUMPI PUSH1 0x0 DUP1 REVERT JUMPDEST DUP1 PUSH4 0x18160DDD GT PUSH2 0x16B JUMPI DUP1 PUSH4 0x18160DDD EQ PUSH2 0x1C8 JUMPI DUP1 PUSH4 0x23B872DD EQ PUSH2 0x1DA JUMPI DUP1 PUSH4 0x2647CFAC EQ PUSH2 0x1ED JUMPI PUSH1 0x0 DUP1 REVERT JUMPDEST DUP1 PUSH4 0x6FDDE03 EQ PUSH2 0x187 JUMPI DUP1 PUSH4 0x95EA7B3 EQ PUSH2 0x1A5 JUMPI JUMPDEST PUSH1 0x0 DUP1 REVERT JUMPDEST PUSH2 0x18F PUSH2 0x3E6 JUMP JUMPDEST PUSH1 0x40 MLOAD PUSH2 0x19C SWAP2 SWAP1 PUSH2 0xDED JUMP JUMPDEST PUSH1 0x40 MLOAD DUP1 SWAP2 SUB SWAP1 RETURN JUMPDEST PUSH2 0x1B8 PUSH2 0x1B3 CALLDATASIZE PUSH1 0x4 PUSH2 0xE5E JUMP JUMPDEST PUSH2 0x478 JUMP JUMPDEST PUSH1 0x40 MLOAD SWAP1 ISZERO ISZERO DUP2 MSTORE PUSH1 0x20 ADD PUSH2 0x19C JUMP JUMPDEST PUSH1 0x2 SLOAD JUMPDEST PUSH1 0x40 MLOAD SWAP1 DUP2 MSTORE PUSH1 0x20 ADD PUSH2 0x19C JUMP JUMPDEST PUSH2 0x1B8 PUSH2 0x1E8 CALLDATASIZE PUSH1 0x4 PUSH2 0xE88 JUMP JUMPDEST PUSH2 0x490 JUMP JUMPDEST PUSH2 0x214 PUSH32 0x0 DUP2 JUMP JUMPDEST PUSH1 0x40 MLOAD PUSH16 0xFFFFFFFFFFFFFFFFFFFFFFFFFFFFFFFF SWAP1 SWAP2 AND DUP2 MSTORE PUSH1 0x20 ADD PUSH2 0x19C JUMP JUMPDEST PUSH2 0x248 PUSH2 0x243 CALLDATASIZE PUSH1 0x4 PUSH2 0xEC4 JUMP JUMPDEST PUSH2 0x4B4 JUMP JUMPDEST STOP JUMPDEST PUSH1 0x40 MLOAD PUSH1 0x12 DUP2 MSTORE PUSH1 0x20 ADD PUSH2 0x19C JUMP JUMPDEST PUSH2 0x1B8 PUSH2 0x267 CALLDATASIZE PUSH1 0x4 PUSH2 0xE5E JUMP JUMPDEST PUSH2 0x4DD JUMP JUMPDEST PUSH2 0x1B8 PUSH2 0x27A CALLDATASIZE PUSH1 0x4 PUSH2 0xEC4 JUMP JUMPDEST PUSH1 0x6 PUSH1 0x20 MSTORE PUSH1 0x0 SWAP1 DUP2 MSTORE PUSH1 0x40 SWAP1 KECCAK256 SLOAD PUSH1 0xFF AND DUP2 JUMP JUMPDEST PUSH2 0x248 PUSH2 0x29D CALLDATASIZE PUSH1 0x4 PUSH2 0xE5E JUMP JUMPDEST PUSH2 0x51C JUMP JUMPDEST PUSH2 0x248 PUSH2 0x2B0 CALLDATASIZE PUSH1 0x4 PUSH2 0xEE6 JUMP JUMPDEST PUSH2 0x55A JUMP JUMPDEST PUSH2 0x1CC PUSH2 0x2C3 CALLDATASIZE PUSH1 0x4 PUSH2 0xEC4 JUMP JUMPDEST PUSH1 0x1 PUSH1 0x1 PUSH1 0xA0 SHL SUB AND PUSH1 0x0 SWAP1 DUP2 MSTORE PUSH1 0x20 DUP2 SWAP1 MSTORE PUSH1 0x40 SWAP1 KECCAK256 SLOAD SWAP1 JUMP JUMPDEST PUSH2 0x248 PUSH2 0x6FB JUMP JUMPDEST PUSH1 0x5 SLOAD PUSH1 0x1 PUSH1 0x1 PUSH1 0xA0 SHL SUB AND JUMPDEST PUSH1 0x40 MLOAD PUSH1 0x1 PUSH1 0x1 PUSH1 0xA0 SHL SUB SWAP1 SWAP2 AND DUP2 MSTORE PUSH1 0x20 ADD PUSH2 0x19C JUMP JUMPDEST PUSH2 0x18F PUSH2 0x70F JUMP JUMPDEST PUSH2 0x248 PUSH2 0x321 CALLDATASIZE PUSH1 0x4 PUSH2 0xEC4 JUMP JUMPDEST PUSH2 0x71E JUMP JUMPDEST PUSH2 0x2F3 PUSH32 0x0 DUP2 JUMP JUMPDEST PUSH2 0x1B8 PUSH2 0x35B CALLDATASIZE PUSH1 0x4 PUSH2 0xE5E JUMP JUMPDEST PUSH2 0x74A JUMP JUMPDEST PUSH2 0x1B8 PUSH2 0x36E CALLDATASIZE PUSH1 0x4 PUSH2 0xE5E JUMP JUMPDEST PUSH2 0x7F9 JUMP JUMPDEST PUSH2 0x2F3 PUSH32 0x0 DUP2 JUMP JUMPDEST PUSH2 0x1CC PUSH2 0x3A8 CALLDATASIZE PUSH1 0x4 PUSH2 0xF5B JUMP JUMPDEST PUSH1 0x1 PUSH1 0x1 PUSH1 0xA0 SHL SUB SWAP2 DUP3 AND PUSH1 0x0 SWAP1 DUP2 MSTORE PUSH1 0x1 PUSH1 0x20 SWAP1 DUP2 MSTORE PUSH1 0x40 DUP1 DUP4 KECCAK256 SWAP4 SWAP1 SWAP5 AND DUP3 MSTORE SWAP2 SWAP1 SWAP2 MSTORE KECCAK256 SLOAD SWAP1 JUMP JUMPDEST PUSH2 0x248 PUSH2 0x3E1 CALLDATASIZE PUSH1 0x4 PUSH2 0xEC4 JUMP JUMPDEST PUSH2 0x807 JUMP JUMPDEST PUSH1 0x60 PUSH1 0x3 DUP1 SLOAD PUSH2 0x3F5 SWAP1 PUSH2 0xF8E JUMP JUMPDEST DUP1 PUSH1 0x1F ADD PUSH1 0x20 DUP1 SWAP2 DIV MUL PUSH1 0x20 ADD PUSH1 0x40 MLOAD SWAP1 DUP2 ADD PUSH1 0x40 MSTORE DUP1 SWAP3 SWAP2 SWAP1 DUP2 DUP2 MSTORE PUSH1 0x20 ADD DUP3 DUP1 SLOAD PUSH2 0x421 SWAP1 PUSH2 0xF8E JUMP JUMPDEST DUP1 ISZERO PUSH2 0x46E JUMPI DUP1 PUSH1 0x1F LT PUSH2 0x443 JUMPI PUSH2 0x100 DUP1 DUP4 SLOAD DIV MUL DUP4 MSTORE SWAP2 PUSH1 0x20 ADD SWAP2 PUSH2 0x46E JUMP JUMPDEST DUP3 ADD SWAP2 SWAP1 PUSH1 0x0 MSTORE PUSH1 0x20 PUSH1 0x0 KECCAK256 SWAP1 JUMPDEST DUP2 SLOAD DUP2 MSTORE SWAP1 PUSH1 0x1 ADD SWAP1 PUSH1 0x20 ADD DUP1 DUP4 GT PUSH2 0x451 JUMPI DUP3 SWAP1 SUB PUSH1 0x1F AND DUP3 ADD SWAP2 JUMPDEST POP POP POP POP POP SWAP1 POP SWAP1 JUMP JUMPDEST PUSH1 0x0 CALLER PUSH2 0x486 DUP2 DUP6 DUP6 PUSH2 0x897 JUMP JUMPDEST POP PUSH1 0x1 SWAP4 SWAP3 POP POP POP JUMP JUMPDEST PUSH1 0x0 CALLER PUSH2 0x49E DUP6 DUP3 DUP6 PUSH2 0x9BB JUMP JUMPDEST PUSH2 0x4A9 DUP6 DUP6 DUP6 PUSH2 0xA4D JUMP JUMPDEST POP PUSH1 0x1 SWAP5 SWAP4 POP POP POP POP JUMP JUMPDEST PUSH2 0x4BC PUSH2 0xC4A JUMP JUMPDEST PUSH1 0x1 PUSH1 0x1 PUSH1 0xA0 SHL SUB AND PUSH1 0x0 SWAP1 DUP2 MSTORE PUSH1 0x6 PUSH1 0x20 MSTORE PUSH1 0x40 SWAP1 KECCAK256 DUP1 SLOAD PUSH1 0xFF NOT AND SWAP1 SSTORE JUMP JUMPDEST CALLER PUSH1 0x0 DUP2 DUP2 MSTORE PUSH1 0x1 PUSH1 0x20 SWAP1 DUP2 MSTORE PUSH1 0x40 DUP1 DUP4 KECCAK256 PUSH1 0x1 PUSH1 0x1 PUSH1 0xA0 SHL SUB DUP8 AND DUP5 MSTORE SWAP1 SWAP2 MSTORE DUP2 KECCAK256 SLOAD SWAP1 SWAP2 SWAP1 PUSH2 0x486 SWAP1 DUP3 SWAP1 DUP7 SWAP1 PUSH2 0x517 SWAP1 DUP8 SWAP1 PUSH2 0xFDE JUMP JUMPDEST PUSH2 0x897 JUMP JUMPDEST CALLER PUSH1 0x0 SWAP1 DUP2 MSTORE PUSH1 0x6 PUSH1 0x20 MSTORE PUSH1 0x40 SWAP1 KECCAK256 SLOAD PUSH1 0xFF AND PUSH2 0x54C JUMPI PUSH1 0x40 MLOAD PUSH4 0x3E34A41B PUSH1 0xE2 SHL DUP2 MSTORE PUSH1 0x4 ADD PUSH1 0x40 MLOAD DUP1 SWAP2 SUB SWAP1 REVERT JUMPDEST PUSH2 0x556 DUP3 DUP3 PUSH2 0xCA4 JUMP JUMPDEST POP POP JUMP JUMPDEST PUSH1 0x1 DUP2 LT ISZERO PUSH2 0x57C JUMPI PUSH1 0x40 MLOAD PUSH4 0x17DBC4CB PUSH1 0xE2 SHL DUP2 MSTORE PUSH1 0x4 ADD PUSH1 0x40 MLOAD DUP1 SWAP2 SUB SWAP1 REVERT JUMPDEST PUSH1 0x0 JUMPDEST DUP2 DUP2 LT ISZERO PUSH2 0x684 JUMPI PUSH32 0x0 PUSH1 0x1 PUSH1 0x1 PUSH1 0xA0 SHL SUB AND PUSH4 0x23B872DD CALLER PUSH32 0x0 DUP7 DUP7 DUP7 DUP2 DUP2 LT PUSH2 0x5EA JUMPI PUSH2 0x5EA PUSH2 0xFF6 JUMP JUMPDEST PUSH1 0x40 MLOAD PUSH32 0xFFFFFFFF00000000000000000000000000000000000000000000000000000000 PUSH1 0xE0 DUP9 SWAP1 SHL AND DUP2 MSTORE PUSH1 0x1 PUSH1 0x1 PUSH1 0xA0 SHL SUB SWAP6 DUP7 AND PUSH1 0x4 DUP3 ADD MSTORE SWAP5 SWAP1 SWAP4 AND PUSH1 0x24 DUP6 ADD MSTORE POP PUSH1 0x20 SWAP1 SWAP2 MUL ADD CALLDATALOAD PUSH1 0x44 DUP3 ADD MSTORE PUSH1 0x64 ADD PUSH1 0x0 PUSH1 0x40 MLOAD DUP1 DUP4 SUB DUP2 PUSH1 0x0 DUP8 DUP1 EXTCODESIZE ISZERO DUP1 ISZERO PUSH2 0x659 JUMPI PUSH1 0x0 DUP1 REVERT JUMPDEST POP GAS CALL ISZERO DUP1 ISZERO PUSH2 0x66D JUMPI RETURNDATASIZE PUSH1 0x0 DUP1 RETURNDATACOPY RETURNDATASIZE PUSH1 0x0 REVERT JUMPDEST POP POP POP POP DUP1 DUP1 PUSH2 0x67C SWAP1 PUSH2 0x100C JUMP JUMPDEST SWAP2 POP POP PUSH2 0x57F JUMP JUMPDEST POP PUSH2 0x6CA CALLER PUSH2 0x6C5 PUSH16 0xFFFFFFFFFFFFFFFFFFFFFFFFFFFFFFFF PUSH32 0x0 AND DUP5 PUSH2 0x1025 JUMP JUMPDEST PUSH2 0xCA4 JUMP JUMPDEST PUSH1 0x40 MLOAD DUP2 SWAP1 CALLER SWAP1 PUSH32 0xD8138F8A3F377C5259CA548E70E4C2DE94F129F5A11036A15B69513CBA2B426A SWAP1 PUSH1 0x0 SWAP1 LOG3 POP POP JUMP JUMPDEST PUSH2 0x703 PUSH2 0xC4A JUMP JUMPDEST PUSH2 0x70D PUSH1 0x0 PUSH2 0xD83 JUMP JUMPDEST JUMP JUMPDEST PUSH1 0x60 PUSH1 0x4 DUP1 SLOAD PUSH2 0x3F5 SWAP1 PUSH2 0xF8E JUMP JUMPDEST PUSH2 0x726 PUSH2 0xC4A JUMP JUMPDEST PUSH1 0x1 PUSH1 0x1 PUSH1 0xA0 SHL SUB AND PUSH1 0x0 SWAP1 DUP2 MSTORE PUSH1 0x6 PUSH1 0x20 MSTORE PUSH1 0x40 SWAP1 KECCAK256 DUP1 SLOAD PUSH1 0xFF NOT AND PUSH1 0x1 OR SWAP1 SSTORE JUMP JUMPDEST CALLER PUSH1 0x0 DUP2 DUP2 MSTORE PUSH1 0x1 PUSH1 0x20 SWAP1 DUP2 MSTORE PUSH1 0x40 DUP1 DUP4 KECCAK256 PUSH1 0x1 PUSH1 0x1 PUSH1 0xA0 SHL SUB DUP8 AND DUP5 MSTORE SWAP1 SWAP2 MSTORE DUP2 KECCAK256 SLOAD SWAP1 SWAP2 SWAP1 DUP4 DUP2 LT ISZERO PUSH2 0x7EC JUMPI PUSH1 0x40 MLOAD PUSH3 0x461BCD PUSH1 0xE5 SHL DUP2 MSTORE PUSH1 0x20 PUSH1 0x4 DUP3 ADD MSTORE PUSH1 0x25 PUSH1 0x24 DUP3 ADD MSTORE PUSH32 0x45524332303A2064656372656173656420616C6C6F77616E63652062656C6F77 PUSH1 0x44 DUP3 ADD MSTORE PUSH32 0x207A65726F000000000000000000000000000000000000000000000000000000 PUSH1 0x64 DUP3 ADD MSTORE PUSH1 0x84 ADD JUMPDEST PUSH1 0x40 MLOAD DUP1 SWAP2 SUB SWAP1 REVERT JUMPDEST PUSH2 0x4A9 DUP3 DUP7 DUP7 DUP5 SUB PUSH2 0x897 JUMP JUMPDEST PUSH1 0x0 CALLER PUSH2 0x486 DUP2 DUP6 DUP6 PUSH2 0xA4D JUMP JUMPDEST PUSH2 0x80F PUSH2 0xC4A JUMP JUMPDEST PUSH1 0x1 PUSH1 0x1 PUSH1 0xA0 SHL SUB DUP2 AND PUSH2 0x88B JUMPI PUSH1 0x40 MLOAD PUSH3 0x461BCD PUSH1 0xE5 SHL DUP2 MSTORE PUSH1 0x20 PUSH1 0x4 DUP3 ADD MSTORE PUSH1 0x26 PUSH1 0x24 DUP3 ADD MSTORE PUSH32 0x4F776E61626C653A206E6577206F776E657220697320746865207A65726F2061 PUSH1 0x44 DUP3 ADD MSTORE PUSH32 0x6464726573730000000000000000000000000000000000000000000000000000 PUSH1 0x64 DUP3 ADD MSTORE PUSH1 0x84 ADD PUSH2 0x7E3 JUMP JUMPDEST PUSH2 0x894 DUP2 PUSH2 0xD83 JUMP JUMPDEST POP JUMP JUMPDEST PUSH1 0x1 PUSH1 0x1 PUSH1 0xA0 SHL SUB DUP4 AND PUSH2 0x8F9 JUMPI PUSH1 0x40 MLOAD PUSH3 0x461BCD PUSH1 0xE5 SHL DUP2 MSTORE PUSH1 0x20 PUSH1 0x4 DUP3 ADD MSTORE PUSH1 0x24 DUP1 DUP3 ADD MSTORE PUSH32 0x45524332303A20617070726F76652066726F6D20746865207A65726F20616464 PUSH1 0x44 DUP3 ADD MSTORE PUSH4 0x72657373 PUSH1 0xE0 SHL PUSH1 0x64 DUP3 ADD MSTORE PUSH1 0x84 ADD PUSH2 0x7E3 JUMP JUMPDEST PUSH1 0x1 PUSH1 0x1 PUSH1 0xA0 SHL SUB DUP3 AND PUSH2 0x95A JUMPI PUSH1 0x40 MLOAD PUSH3 0x461BCD PUSH1 0xE5 SHL DUP2 MSTORE PUSH1 0x20 PUSH1 0x4 DUP3 ADD MSTORE PUSH1 0x22 PUSH1 0x24 DUP3 ADD MSTORE PUSH32 0x45524332303A20617070726F766520746F20746865207A65726F206164647265 PUSH1 0x44 DUP3 ADD MSTORE PUSH2 0x7373 PUSH1 0xF0 SHL PUSH1 0x64 DUP3 ADD MSTORE PUSH1 0x84 ADD PUSH2 0x7E3 JUMP JUMPDEST PUSH1 0x1 PUSH1 0x1 PUSH1 0xA0 SHL SUB DUP4 DUP2 AND PUSH1 0x0 DUP2 DUP2 MSTORE PUSH1 0x1 PUSH1 0x20 SWAP1 DUP2 MSTORE PUSH1 0x40 DUP1 DUP4 KECCAK256 SWAP5 DUP8 AND DUP1 DUP5 MSTORE SWAP5 DUP3 MSTORE SWAP2 DUP3 SWAP1 KECCAK256 DUP6 SWAP1 SSTORE SWAP1 MLOAD DUP5 DUP2 MSTORE PUSH32 0x8C5BE1E5EBEC7D5BD14F71427D1E84F3DD0314C0F7B2291E5B200AC8C7C3B925 SWAP2 ADD PUSH1 0x40 MLOAD DUP1 SWAP2 SUB SWAP1 LOG3 POP POP POP JUMP JUMPDEST PUSH1 0x1 PUSH1 0x1 PUSH1 0xA0 SHL SUB DUP4 DUP2 AND PUSH1 0x0 SWAP1 DUP2 MSTORE PUSH1 0x1 PUSH1 0x20 SWAP1 DUP2 MSTORE PUSH1 0x40 DUP1 DUP4 KECCAK256 SWAP4 DUP7 AND DUP4 MSTORE SWAP3 SWAP1 MSTORE KECCAK256 SLOAD PUSH1 0x0 NOT DUP2 EQ PUSH2 0xA47 JUMPI DUP2 DUP2 LT ISZERO PUSH2 0xA3A JUMPI PUSH1 0x40 MLOAD PUSH3 0x461BCD PUSH1 0xE5 SHL DUP2 MSTORE PUSH1 0x20 PUSH1 0x4 DUP3 ADD MSTORE PUSH1 0x1D PUSH1 0x24 DUP3 ADD MSTORE PUSH32 0x45524332303A20696E73756666696369656E7420616C6C6F77616E6365000000 PUSH1 0x44 DUP3 ADD MSTORE PUSH1 0x64 ADD PUSH2 0x7E3 JUMP JUMPDEST PUSH2 0xA47 DUP5 DUP5 DUP5 DUP5 SUB PUSH2 0x897 JUMP JUMPDEST POP POP POP POP JUMP JUMPDEST PUSH1 0x1 PUSH1 0x1 PUSH1 0xA0 SHL SUB DUP4 AND PUSH2 0xAC9 JUMPI PUSH1 0x40 MLOAD PUSH3 0x461BCD PUSH1 0xE5 SHL DUP2 MSTORE PUSH1 0x20 PUSH1 0x4 DUP3 ADD MSTORE PUSH1 0x25 PUSH1 0x24 DUP3 ADD MSTORE PUSH32 0x45524332303A207472616E736665722066726F6D20746865207A65726F206164 PUSH1 0x44 DUP3 ADD MSTORE PUSH32 0x6472657373000000000000000000000000000000000000000000000000000000 PUSH1 0x64 DUP3 ADD MSTORE PUSH1 0x84 ADD PUSH2 0x7E3 JUMP JUMPDEST PUSH1 0x1 PUSH1 0x1 PUSH1 0xA0 SHL SUB DUP3 AND PUSH2 0xB2B JUMPI PUSH1 0x40 MLOAD PUSH3 0x461BCD PUSH1 0xE5 SHL DUP2 MSTORE PUSH1 0x20 PUSH1 0x4 DUP3 ADD MSTORE PUSH1 0x23 PUSH1 0x24 DUP3 ADD MSTORE PUSH32 0x45524332303A207472616E7366657220746F20746865207A65726F2061646472 PUSH1 0x44 DUP3 ADD MSTORE PUSH3 0x657373 PUSH1 0xE8 SHL PUSH1 0x64 DUP3 ADD MSTORE PUSH1 0x84 ADD PUSH2 0x7E3 JUMP JUMPDEST PUSH1 0x1 PUSH1 0x1 PUSH1 0xA0 SHL SUB DUP4 AND PUSH1 0x0 SWAP1 DUP2 MSTORE PUSH1 0x20 DUP2 SWAP1 MSTORE PUSH1 0x40 SWAP1 KECCAK256 SLOAD DUP2 DUP2 LT ISZERO PUSH2 0xBBA JUMPI PUSH1 0x40 MLOAD PUSH3 0x461BCD PUSH1 0xE5 SHL DUP2 MSTORE PUSH1 0x20 PUSH1 0x4 DUP3 ADD MSTORE PUSH1 0x26 PUSH1 0x24 DUP3 ADD MSTORE PUSH32 0x45524332303A207472616E7366657220616D6F756E7420657863656564732062 PUSH1 0x44 DUP3 ADD MSTORE PUSH32 0x616C616E63650000000000000000000000000000000000000000000000000000 PUSH1 0x64 DUP3 ADD MSTORE PUSH1 0x84 ADD PUSH2 0x7E3 JUMP JUMPDEST PUSH1 0x1 PUSH1 0x1 PUSH1 0xA0 SHL SUB DUP1 DUP6 AND PUSH1 0x0 SWAP1 DUP2 MSTORE PUSH1 0x20 DUP2 SWAP1 MSTORE PUSH1 0x40 DUP1 DUP3 KECCAK256 DUP6 DUP6 SUB SWAP1 SSTORE SWAP2 DUP6 AND DUP2 MSTORE SWAP1 DUP2 KECCAK256 DUP1 SLOAD DUP5 SWAP3 SWAP1 PUSH2 0xBF1 SWAP1 DUP5 SWAP1 PUSH2 0xFDE JUMP JUMPDEST SWAP3 POP POP DUP2 SWAP1 SSTORE POP DUP3 PUSH1 0x1 PUSH1 0x1 PUSH1 0xA0 SHL SUB AND DUP5 PUSH1 0x1 PUSH1 0x1 PUSH1 0xA0 SHL SUB AND PUSH32 0xDDF252AD1BE2C89B69C2B068FC378DAA952BA7F163C4A11628F55A4DF523B3EF DUP5 PUSH1 0x40 MLOAD PUSH2 0xC3D SWAP2 DUP2 MSTORE PUSH1 0x20 ADD SWAP1 JUMP JUMPDEST PUSH1 0x40 MLOAD DUP1 SWAP2 SUB SWAP1 LOG3 PUSH2 0xA47 JUMP JUMPDEST PUSH1 0x5 SLOAD PUSH1 0x1 PUSH1 0x1 PUSH1 0xA0 SHL SUB AND CALLER EQ PUSH2 0x70D JUMPI PUSH1 0x40 MLOAD PUSH3 0x461BCD PUSH1 0xE5 SHL DUP2 MSTORE PUSH1 0x20 PUSH1 0x4 DUP3 ADD DUP2 SWAP1 MSTORE PUSH1 0x24 DUP3 ADD MSTORE PUSH32 0x4F776E61626C653A2063616C6C6572206973206E6F7420746865206F776E6572 PUSH1 0x44 DUP3 ADD MSTORE PUSH1 0x64 ADD PUSH2 0x7E3 JUMP JUMPDEST PUSH1 0x1 PUSH1 0x1 PUSH1 0xA0 SHL SUB DUP3 AND PUSH2 0xCFA JUMPI PUSH1 0x40 MLOAD PUSH3 0x461BCD PUSH1 0xE5 SHL DUP2 MSTORE PUSH1 0x20 PUSH1 0x4 DUP3 ADD MSTORE PUSH1 0x1F PUSH1 0x24 DUP3 ADD MSTORE PUSH32 0x45524332303A206D696E7420746F20746865207A65726F206164647265737300 PUSH1 0x44 DUP3 ADD MSTORE PUSH1 0x64 ADD PUSH2 0x7E3 JUMP JUMPDEST DUP1 PUSH1 0x2 PUSH1 0x0 DUP3 DUP3 SLOAD PUSH2 0xD0C SWAP2 SWAP1 PUSH2 0xFDE JUMP JUMPDEST SWAP1 SWAP2 SSTORE POP POP PUSH1 0x1 PUSH1 0x1 PUSH1 0xA0 SHL SUB DUP3 AND PUSH1 0x0 SWAP1 DUP2 MSTORE PUSH1 0x20 DUP2 SWAP1 MSTORE PUSH1 0x40 DUP2 KECCAK256 DUP1 SLOAD DUP4 SWAP3 SWAP1 PUSH2 0xD39 SWAP1 DUP5 SWAP1 PUSH2 0xFDE JUMP JUMPDEST SWAP1 SWAP2 SSTORE POP POP PUSH1 0x40 MLOAD DUP2 DUP2 MSTORE PUSH1 0x1 PUSH1 0x1 PUSH1 0xA0 SHL SUB DUP4 AND SWAP1 PUSH1 0x0 SWAP1 PUSH32 0xDDF252AD1BE2C89B69C2B068FC378DAA952BA7F163C4A11628F55A4DF523B3EF SWAP1 PUSH1 0x20 ADD PUSH1 0x40 MLOAD DUP1 SWAP2 SUB SWAP1 LOG3 POP POP JUMP JUMPDEST PUSH1 0x5 DUP1 SLOAD PUSH1 0x1 PUSH1 0x1 PUSH1 0xA0 SHL SUB DUP4 DUP2 AND PUSH32 0xFFFFFFFFFFFFFFFFFFFFFFFF0000000000000000000000000000000000000000 DUP4 AND DUP2 OR SWAP1 SWAP4 SSTORE PUSH1 0x40 MLOAD SWAP2 AND SWAP2 SWAP1 DUP3 SWAP1 PUSH32 0x8BE0079C531659141344CD1FD0A4F28419497F9722A3DAAFE3B4186F6B6457E0 SWAP1 PUSH1 0x0 SWAP1 LOG3 POP POP JUMP JUMPDEST PUSH1 0x0 PUSH1 0x20 DUP1 DUP4 MSTORE DUP4 MLOAD DUP1 DUP3 DUP6 ADD MSTORE PUSH1 0x0 JUMPDEST DUP2 DUP2 LT ISZERO PUSH2 0xE1A JUMPI DUP6 DUP2 ADD DUP4 ADD MLOAD DUP6 DUP3 ADD PUSH1 0x40 ADD MSTORE DUP3 ADD PUSH2 0xDFE JUMP JUMPDEST DUP2 DUP2 GT ISZERO PUSH2 0xE2C JUMPI PUSH1 0x0 PUSH1 0x40 DUP4 DUP8 ADD ADD MSTORE JUMPDEST POP PUSH1 0x1F ADD PUSH1 0x1F NOT AND SWAP3 SWAP1 SWAP3 ADD PUSH1 0x40 ADD SWAP4 SWAP3 POP POP POP JUMP JUMPDEST DUP1 CALLDATALOAD PUSH1 0x1 PUSH1 0x1 PUSH1 0xA0 SHL SUB DUP2 AND DUP2 EQ PUSH2 0xE59 JUMPI PUSH1 0x0 DUP1 REVERT JUMPDEST SWAP2 SWAP1 POP JUMP JUMPDEST PUSH1 0x0 DUP1 PUSH1 0x40 DUP4 DUP6 SUB SLT ISZERO PUSH2 0xE71 JUMPI PUSH1 0x0 DUP1 REVERT JUMPDEST PUSH2 0xE7A DUP4 PUSH2 0xE42 JUMP JUMPDEST SWAP5 PUSH1 0x20 SWAP4 SWAP1 SWAP4 ADD CALLDATALOAD SWAP4 POP POP POP JUMP JUMPDEST PUSH1 0x0 DUP1 PUSH1 0x0 PUSH1 0x60 DUP5 DUP7 SUB SLT ISZERO PUSH2 0xE9D JUMPI PUSH1 0x0 DUP1 REVERT JUMPDEST PUSH2 0xEA6 DUP5 PUSH2 0xE42 JUMP JUMPDEST SWAP3 POP PUSH2 0xEB4 PUSH1 0x20 DUP6 ADD PUSH2 0xE42 JUMP JUMPDEST SWAP2 POP PUSH1 0x40 DUP5 ADD CALLDATALOAD SWAP1 POP SWAP3 POP SWAP3 POP SWAP3 JUMP JUMPDEST PUSH1 0x0 PUSH1 0x20 DUP3 DUP5 SUB SLT ISZERO PUSH2 0xED6 JUMPI PUSH1 0x0 DUP1 REVERT JUMPDEST PUSH2 0xEDF DUP3 PUSH2 0xE42 JUMP JUMPDEST SWAP4 SWAP3 POP POP POP JUMP JUMPDEST PUSH1 0x0 DUP1 PUSH1 0x20 DUP4 DUP6 SUB SLT ISZERO PUSH2 0xEF9 JUMPI PUSH1 0x0 DUP1 REVERT JUMPDEST DUP3 CALLDATALOAD PUSH8 0xFFFFFFFFFFFFFFFF DUP1 DUP3 GT ISZERO PUSH2 0xF11 JUMPI PUSH1 0x0 DUP1 REVERT JUMPDEST DUP2 DUP6 ADD SWAP2 POP DUP6 PUSH1 0x1F DUP4 ADD SLT PUSH2 0xF25 JUMPI PUSH1 0x0 DUP1 REVERT JUMPDEST DUP2 CALLDATALOAD DUP2 DUP2 GT ISZERO PUSH2 0xF34 JUMPI PUSH1 0x0 DUP1 REVERT JUMPDEST DUP7 PUSH1 0x20 DUP3 PUSH1 0x5 SHL DUP6 ADD ADD GT ISZERO PUSH2 0xF49 JUMPI PUSH1 0x0 DUP1 REVERT JUMPDEST PUSH1 0x20 SWAP3 SWAP1 SWAP3 ADD SWAP7 SWAP2 SWAP6 POP SWAP1 SWAP4 POP POP POP POP JUMP JUMPDEST PUSH1 0x0 DUP1 PUSH1 0x40 DUP4 DUP6 SUB SLT ISZERO PUSH2 0xF6E JUMPI PUSH1 0x0 DUP1 REVERT JUMPDEST PUSH2 0xF77 DUP4 PUSH2 0xE42 JUMP JUMPDEST SWAP2 POP PUSH2 0xF85 PUSH1 0x20 DUP5 ADD PUSH2 0xE42 JUMP JUMPDEST SWAP1 POP SWAP3 POP SWAP3 SWAP1 POP JUMP JUMPDEST PUSH1 0x1 DUP2 DUP2 SHR SWAP1 DUP3 AND DUP1 PUSH2 0xFA2 JUMPI PUSH1 0x7F DUP3 AND SWAP2 POP JUMPDEST PUSH1 0x20 DUP3 LT DUP2 SUB PUSH2 0xFC2 JUMPI PUSH4 0x4E487B71 PUSH1 0xE0 SHL PUSH1 0x0 MSTORE PUSH1 0x22 PUSH1 0x4 MSTORE PUSH1 0x24 PUSH1 0x0 REVERT JUMPDEST POP SWAP2 SWAP1 POP JUMP JUMPDEST PUSH4 0x4E487B71 PUSH1 0xE0 SHL PUSH1 0x0 MSTORE PUSH1 0x11 PUSH1 0x4 MSTORE PUSH1 0x24 PUSH1 0x0 REVERT JUMPDEST PUSH1 0x0 DUP3 NOT DUP3 GT ISZERO PUSH2 0xFF1 JUMPI PUSH2 0xFF1 PUSH2 0xFC8 JUMP JUMPDEST POP ADD SWAP1 JUMP JUMPDEST PUSH4 0x4E487B71 PUSH1 0xE0 SHL PUSH1 0x0 MSTORE PUSH1 0x32 PUSH1 0x4 MSTORE PUSH1 0x24 PUSH1 0x0 REVERT JUMPDEST PUSH1 0x0 PUSH1 0x1 DUP3 ADD PUSH2 0x101E JUMPI PUSH2 0x101E PUSH2 0xFC8 JUMP JUMPDEST POP PUSH1 0x1 ADD SWAP1 JUMP JUMPDEST PUSH1 0x0 DUP2 PUSH1 0x0 NOT DIV DUP4 GT DUP3 ISZERO ISZERO AND ISZERO PUSH2 0x103F JUMPI PUSH2 0x103F PUSH2 0xFC8 JUMP JUMPDEST POP MUL SWAP1 JUMP INVALID LOG2 PUSH5 0x6970667358 0x22 SLT KECCAK256 SWAP5 0xDD SWAP15 0xC1 0xBD 0xBA 0xC 0xB6 0xE8 0x5C 0xE7 STATICCALL DUP12 CALLCODE XOR SWAP6 0xB9 SMOD PUSH25 0x5233E275F0B045E657F53E34D164736F6C634300080D003300 "
    },
    "gasEstimates": {
      "creation": {
        "codeDepositCost": "843600",
        "executionCost": "infinite",
        "totalCost": "infinite"
      },
      "external": {
        "addMinter(address)": "26863",
        "allowance(address,address)": "infinite",
        "approve(address,uint256)": "24670",
        "balanceOf(address)": "2586",
        "claim(uint256[])": "infinite",
        "crazyCamels()": "infinite",
        "decimals()": "245",
        "decreaseAllowance(address,uint256)": "26967",
        "increaseAllowance(address,uint256)": "27035",
        "mint(address,uint256)": "infinite",
        "minter(address)": "2576",
        "name()": "infinite",
        "oasisGraveyard()": "infinite",
        "owner()": "2365",
        "removeMinter(address)": "26814",
        "renounceOwnership()": "infinite",
        "symbol()": "infinite",
        "tokensPerCrazyCamel()": "infinite",
        "totalSupply()": "2327",
        "transfer(address,uint256)": "51271",
        "transferFrom(address,address,uint256)": "infinite",
        "transferOwnership(address)": "28409"
      }
    },
    "methodIdentifiers": {
      "addMinter(address)": "983b2d56",
      "allowance(address,address)": "dd62ed3e",
      "approve(address,uint256)": "095ea7b3",
      "balanceOf(address)": "70a08231",
      "claim(uint256[])": "6ba4c138",
      "crazyCamels()": "c79476b5",
      "decimals()": "313ce567",
      "decreaseAllowance(address,uint256)": "a457c2d7",
      "increaseAllowance(address,uint256)": "39509351",
      "mint(address,uint256)": "40c10f19",
      "minter(address)": "3dd08c38",
      "name()": "06fdde03",
      "oasisGraveyard()": "9ff51675",
      "owner()": "8da5cb5b",
      "removeMinter(address)": "3092afd5",
      "renounceOwnership()": "715018a6",
      "symbol()": "95d89b41",
      "tokensPerCrazyCamel()": "2647cfac",
      "totalSupply()": "18160ddd",
      "transfer(address,uint256)": "a9059cbb",
      "transferFrom(address,address,uint256)": "23b872dd",
      "transferOwnership(address)": "f2fde38b"
    }
  },
  "storageLayout": {
    "storage": [
      {
        "astId": 3870,
        "contract": "OasisToken.sol:OasisToken",
        "label": "_balances",
        "offset": 0,
        "slot": "0",
        "type": "t_mapping(t_address,t_uint256)"
      },
      {
        "astId": 3876,
        "contract": "OasisToken.sol:OasisToken",
        "label": "_allowances",
        "offset": 0,
        "slot": "1",
        "type": "t_mapping(t_address,t_mapping(t_address,t_uint256))"
      },
      {
        "astId": 3878,
        "contract": "OasisToken.sol:OasisToken",
        "label": "_totalSupply",
        "offset": 0,
        "slot": "2",
        "type": "t_uint256"
      },
      {
        "astId": 3880,
        "contract": "OasisToken.sol:OasisToken",
        "label": "_name",
        "offset": 0,
        "slot": "3",
        "type": "t_string_storage"
      },
      {
        "astId": 3882,
        "contract": "OasisToken.sol:OasisToken",
        "label": "_symbol",
        "offset": 0,
        "slot": "4",
        "type": "t_string_storage"
      },
      {
        "astId": 1838,
        "contract": "OasisToken.sol:OasisToken",
        "label": "_owner",
        "offset": 0,
        "slot": "5",
        "type": "t_address"
      },
      {
        "astId": 1687,
        "contract": "OasisToken.sol:OasisToken",
        "label": "minter",
        "offset": 0,
        "slot": "6",
        "type": "t_mapping(t_address,t_bool)"
      }
    ],
    "types": {
      "t_address": {
        "encoding": "inplace",
        "label": "address",
        "numberOfBytes": "20"
      },
      "t_bool": {
        "encoding": "inplace",
        "label": "bool",
        "numberOfBytes": "1"
      },
      "t_mapping(t_address,t_bool)": {
        "encoding": "mapping",
        "key": "t_address",
        "label": "mapping(address => bool)",
        "numberOfBytes": "32",
        "value": "t_bool"
      },
      "t_mapping(t_address,t_mapping(t_address,t_uint256))": {
        "encoding": "mapping",
        "key": "t_address",
        "label": "mapping(address => mapping(address => uint256))",
        "numberOfBytes": "32",
        "value": "t_mapping(t_address,t_uint256)"
      },
      "t_mapping(t_address,t_uint256)": {
        "encoding": "mapping",
        "key": "t_address",
        "label": "mapping(address => uint256)",
        "numberOfBytes": "32",
        "value": "t_uint256"
      },
      "t_string_storage": {
        "encoding": "bytes",
        "label": "string",
        "numberOfBytes": "32"
      },
      "t_uint256": {
        "encoding": "inplace",
        "label": "uint256",
        "numberOfBytes": "32"
      }
    }
  },
  "userdoc": {
    "errors": {
      "NotMinter()": [
        {
          "notice": "ERRORS ///"
        }
      ]
    },
    "events": {
      "Claimed(address,uint256)": {
        "notice": "EVENTS ///"
      }
    },
    "kind": "user",
    "methods": {
      "addMinter(address)": {
        "notice": "OWNER FUNCTIONS ///"
      },
      "claim(uint256[])": {
        "notice": "USER FUNCTIONS ///"
      },
      "constructor": {
        "notice": "CONSTRUCTOR ///"
      },
      "crazyCamels()": {
        "notice": "STATE VARIABLES ///"
      },
      "mint(address,uint256)": {
        "notice": "MINTER FUNCTIONS ///"
      }
    },
    "notice": ". Standard ERC-20 for the Oasis. Mintable by assigned Minters or by burning a Crazy Camels NFT.",
    "version": 1
  }
}