{
  "abi": [
    {
      "inputs": [],
      "name": "ContractBalanceTooLow",
      "type": "error"
    },
    {
      "inputs": [],
      "name": "DoesNotOwnNFT",
      "type": "error"
    },
    {
      "inputs": [],
      "name": "InactiveCollection",
      "type": "error"
    },
    {
      "inputs": [],
      "name": "InactiveLoan",
      "type": "error"
    },
    {
      "inputs": [],
      "name": "LoanActive",
      "type": "error"
    },
    {
      "inputs": [],
      "name": "LoanInactive",
      "type": "error"
    },
    {
      "inputs": [],
      "name": "NoCollateral",
      "type": "error"
    },
    {
      "inputs": [],
      "name": "TokenNotApproved",
      "type": "error"
    },
    {
      "inputs": [],
      "name": "UserBalanceTooLow",
      "type": "error"
    },
    {
      "anonymous": false,
      "inputs": [
        {
          "indexed": true,
          "internalType": "address",
          "name": "previousOwner",
          "type": "address"
        },
        {
          "indexed": true,
          "internalType": "address",
          "name": "newOwner",
          "type": "address"
        }
      ],
      "name": "OwnershipTransferred",
      "type": "event"
    },
    {
      "anonymous": false,
      "inputs": [
        {
          "indexed": false,
          "internalType": "address",
          "name": "account",
          "type": "address"
        }
      ],
      "name": "Paused",
      "type": "event"
    },
    {
      "anonymous": false,
      "inputs": [
        {
          "indexed": false,
          "internalType": "address",
          "name": "account",
          "type": "address"
        }
      ],
      "name": "Unpaused",
      "type": "event"
    },
    {
      "inputs": [
        {
          "internalType": "address",
          "name": "_collection",
          "type": "address"
        },
        {
          "internalType": "uint256",
          "name": "_floor",
          "type": "uint256"
        }
      ],
      "name": "addCollection",
      "outputs": [],
      "stateMutability": "nonpayable",
      "type": "function"
    },
    {
      "inputs": [
        {
          "internalType": "address",
          "name": "_collection",
          "type": "address"
        },
        {
          "internalType": "uint256[]",
          "name": "_tokenIds",
          "type": "uint256[]"
        }
      ],
      "name": "borrow",
      "outputs": [],
      "stateMutability": "payable",
      "type": "function"
    },
    {
      "inputs": [
        {
          "internalType": "address",
          "name": "",
          "type": "address"
        }
      ],
      "name": "collection",
      "outputs": [
        {
          "internalType": "bool",
          "name": "isActive",
          "type": "bool"
        },
        {
          "internalType": "uint256",
          "name": "floor",
          "type": "uint256"
        }
      ],
      "stateMutability": "view",
      "type": "function"
    },
    {
      "inputs": [],
      "name": "deposit",
      "outputs": [],
      "stateMutability": "payable",
      "type": "function"
    },
    {
      "inputs": [
        {
          "internalType": "address",
          "name": "_user",
          "type": "address"
        },
        {
          "internalType": "address",
          "name": "_collection",
          "type": "address"
        },
        {
          "internalType": "uint256",
          "name": "_tokenAmount",
          "type": "uint256"
        }
      ],
      "name": "getBorrowAmount",
      "outputs": [
        {
          "internalType": "uint256",
          "name": "borrowAmount_",
          "type": "uint256"
        }
      ],
      "stateMutability": "view",
      "type": "function"
    },
    {
      "inputs": [
        {
          "internalType": "address",
          "name": "",
          "type": "address"
        }
      ],
      "name": "loan",
      "outputs": [
        {
          "internalType": "bool",
          "name": "isActive",
          "type": "bool"
        },
        {
          "internalType": "uint256",
          "name": "loanStart",
          "type": "uint256"
        },
        {
          "internalType": "address",
          "name": "collection",
          "type": "address"
        },
        {
          "internalType": "uint256",
          "name": "borrowAmount",
          "type": "uint256"
        }
      ],
      "stateMutability": "view",
      "type": "function"
    },
    {
      "inputs": [],
      "name": "owner",
      "outputs": [
        {
          "internalType": "address",
          "name": "",
          "type": "address"
        }
      ],
      "stateMutability": "view",
      "type": "function"
    },
    {
      "inputs": [],
      "name": "pause",
      "outputs": [],
      "stateMutability": "nonpayable",
      "type": "function"
    },
    {
      "inputs": [],
      "name": "paused",
      "outputs": [
        {
          "internalType": "bool",
          "name": "",
          "type": "bool"
        }
      ],
      "stateMutability": "view",
      "type": "function"
    },
    {
      "inputs": [
        {
          "internalType": "address",
          "name": "_collection",
          "type": "address"
        }
      ],
      "name": "removeCollection",
      "outputs": [],
      "stateMutability": "nonpayable",
      "type": "function"
    },
    {
      "inputs": [],
      "name": "renounceOwnership",
      "outputs": [],
      "stateMutability": "nonpayable",
      "type": "function"
    },
    {
      "inputs": [],
      "name": "repay",
      "outputs": [],
      "stateMutability": "payable",
      "type": "function"
    },
    {
      "inputs": [
        {
          "internalType": "address",
          "name": "_collection",
          "type": "address"
        },
        {
          "internalType": "uint256",
          "name": "_floor",
          "type": "uint256"
        }
      ],
      "name": "setCollectionFloor",
      "outputs": [],
      "stateMutability": "nonpayable",
      "type": "function"
    },
    {
      "inputs": [
        {
          "components": [
            {
              "internalType": "address",
              "name": "evolvedCamels",
              "type": "address"
            },
            {
              "internalType": "uint256",
              "name": "loanDuration",
              "type": "uint256"
            },
            {
              "internalType": "uint256",
              "name": "borrowFee",
              "type": "uint256"
            },
            {
              "internalType": "uint256",
              "name": "nonEvolvedRate",
              "type": "uint256"
            },
            {
              "internalType": "uint256",
              "name": "evolvedRate",
              "type": "uint256"
            },
            {
              "internalType": "uint256",
              "name": "cavalryRate",
              "type": "uint256"
            },
            {
              "internalType": "uint256",
              "name": "innerCircleRate",
              "type": "uint256"
            },
            {
              "internalType": "uint256",
              "name": "evolvedBalance",
              "type": "uint256"
            },
            {
              "internalType": "uint256",
              "name": "cavalryBalance",
              "type": "uint256"
            },
            {
              "internalType": "uint256",
              "name": "innerCircleBalance",
              "type": "uint256"
            },
            {
              "internalType": "uint256",
              "name": "gracePeriod",
              "type": "uint256"
            },
            {
              "internalType": "uint256",
              "name": "lateFee",
              "type": "uint256"
            }
          ],
          "internalType": "struct OasisLend.StateVariables",
          "name": "_stateVariables",
          "type": "tuple"
        }
      ],
      "name": "setStateVariables",
      "outputs": [],
      "stateMutability": "nonpayable",
      "type": "function"
    },
    {
      "inputs": [],
      "name": "stateVariables",
      "outputs": [
        {
          "internalType": "address",
          "name": "evolvedCamels",
          "type": "address"
        },
        {
          "internalType": "uint256",
          "name": "loanDuration",
          "type": "uint256"
        },
        {
          "internalType": "uint256",
          "name": "borrowFee",
          "type": "uint256"
        },
        {
          "internalType": "uint256",
          "name": "nonEvolvedRate",
          "type": "uint256"
        },
        {
          "internalType": "uint256",
          "name": "evolvedRate",
          "type": "uint256"
        },
        {
          "internalType": "uint256",
          "name": "cavalryRate",
          "type": "uint256"
        },
        {
          "internalType": "uint256",
          "name": "innerCircleRate",
          "type": "uint256"
        },
        {
          "internalType": "uint256",
          "name": "evolvedBalance",
          "type": "uint256"
        },
        {
          "internalType": "uint256",
          "name": "cavalryBalance",
          "type": "uint256"
        },
        {
          "internalType": "uint256",
          "name": "innerCircleBalance",
          "type": "uint256"
        },
        {
          "internalType": "uint256",
          "name": "gracePeriod",
          "type": "uint256"
        },
        {
          "internalType": "uint256",
          "name": "lateFee",
          "type": "uint256"
        }
      ],
      "stateMutability": "view",
      "type": "function"
    },
    {
      "inputs": [
        {
          "internalType": "address",
          "name": "newOwner",
          "type": "address"
        }
      ],
      "name": "transferOwnership",
      "outputs": [],
      "stateMutability": "nonpayable",
      "type": "function"
    },
    {
      "inputs": [],
      "name": "unpause",
      "outputs": [],
      "stateMutability": "nonpayable",
      "type": "function"
    }
  ],
  "devdoc": {
    "kind": "dev",
    "methods": {
      "owner()": {
        "details": "Returns the address of the current owner."
      },
      "paused()": {
        "details": "Returns true if the contract is paused, and false otherwise."
      },
      "renounceOwnership()": {
        "details": "Leaves the contract without owner. It will not be possible to call `onlyOwner` functions anymore. Can only be called by the current owner. NOTE: Renouncing ownership will leave the contract without an owner, thereby removing any functionality that is only available to the owner."
      },
      "transferOwnership(address)": {
        "details": "Transfers ownership of the contract to a new account (`newOwner`). Can only be called by the current owner."
      }
    },
    "version": 1
  },
  "evm": {
    "assembly": "    /* \"OasisLend.sol\":288:6826  contract OasisLend is Ownable, Pausable {... */\n  mstore(0x40, 0x80)\n  callvalue\n  dup1\n  iszero\n  tag_1\n  jumpi\n  0x00\n  dup1\n  revert\ntag_1:\n  pop\n    /* \"@openzeppelin/contracts/access/Ownable.sol\":936:968   */\n  tag_5\n    /* \"@openzeppelin/contracts/utils/Context.sol\":719:729   */\n  caller\n    /* \"@openzeppelin/contracts/access/Ownable.sol\":936:954   */\n  tag_8\n    /* \"@openzeppelin/contracts/access/Ownable.sol\":936:968   */\n  jump\t// in\ntag_5:\n    /* \"@openzeppelin/contracts/security/Pausable.sol\":1006:1011   */\n  0x00\n    /* \"@openzeppelin/contracts/security/Pausable.sol\":996:1011   */\n  dup1\n  sload\n  not(shl(0xa0, 0xff))\n  and\n  swap1\n  sstore\n    /* \"OasisLend.sol\":288:6826  contract OasisLend is Ownable, Pausable {... */\n  jump(tag_10)\n    /* \"@openzeppelin/contracts/access/Ownable.sol\":2433:2620   */\ntag_8:\n    /* \"@openzeppelin/contracts/access/Ownable.sol\":2506:2522   */\n  0x00\n    /* \"@openzeppelin/contracts/access/Ownable.sol\":2525:2531   */\n  dup1\n  sload\n  sub(shl(0xa0, 0x01), 0x01)\n    /* \"@openzeppelin/contracts/access/Ownable.sol\":2541:2558   */\n  dup4\n  dup2\n  and\n  not(sub(shl(0xa0, 0x01), 0x01))\n  dup4\n  and\n  dup2\n  or\n  dup5\n  sstore\n    /* \"@openzeppelin/contracts/access/Ownable.sol\":2573:2613   */\n  mload(0x40)\n    /* \"@openzeppelin/contracts/access/Ownable.sol\":2525:2531   */\n  swap2\n  swap1\n  swap3\n  and\n  swap3\n  dup4\n  swap2\n    /* \"@openzeppelin/contracts/access/Ownable.sol\":2573:2613   */\n  0x8be0079c531659141344cd1fd0a4f28419497f9722a3daafe3b4186f6b6457e0\n  swap2\n    /* \"@openzeppelin/contracts/access/Ownable.sol\":2506:2522   */\n  swap1\n    /* \"@openzeppelin/contracts/access/Ownable.sol\":2573:2613   */\n  log3\n    /* \"@openzeppelin/contracts/access/Ownable.sol\":2496:2620   */\n  pop\n    /* \"@openzeppelin/contracts/access/Ownable.sol\":2433:2620   */\n  pop\n  jump\t// out\n    /* \"OasisLend.sol\":288:6826  contract OasisLend is Ownable, Pausable {... */\ntag_10:\n  dataSize(sub_0)\n  dup1\n  dataOffset(sub_0)\n  0x00\n  codecopy\n  0x00\n  return\nstop\n\nsub_0: assembly {\n        /* \"OasisLend.sol\":288:6826  contract OasisLend is Ownable, Pausable {... */\n      mstore(0x40, 0x80)\n      jumpi(tag_1, lt(calldatasize, 0x04))\n      shr(0xe0, calldataload(0x00))\n      dup1\n      0x715018a6\n      gt\n      tag_19\n      jumpi\n      dup1\n      0xb5e2ebc6\n      gt\n      tag_20\n      jumpi\n      dup1\n      0xe94886d2\n      gt\n      tag_21\n      jumpi\n      dup1\n      0xe94886d2\n      eq\n      tag_16\n      jumpi\n      dup1\n      0xf2fde38b\n      eq\n      tag_17\n      jumpi\n      dup1\n      0xfdd7a4eb\n      eq\n      tag_18\n      jumpi\n      0x00\n      dup1\n      revert\n    tag_21:\n      dup1\n      0xb5e2ebc6\n      eq\n      tag_14\n      jumpi\n      dup1\n      0xd0e30db0\n      eq\n      tag_15\n      jumpi\n      0x00\n      dup1\n      revert\n    tag_20:\n      dup1\n      0x715018a6\n      eq\n      tag_10\n      jumpi\n      dup1\n      0x8456cb59\n      eq\n      tag_11\n      jumpi\n      dup1\n      0x8a3cf3a1\n      eq\n      tag_12\n      jumpi\n      dup1\n      0x8da5cb5b\n      eq\n      tag_13\n      jumpi\n      0x00\n      dup1\n      revert\n    tag_19:\n      dup1\n      0x4bd4705f\n      gt\n      tag_22\n      jumpi\n      dup1\n      0x4bd4705f\n      eq\n      tag_6\n      jumpi\n      dup1\n      0x5028d05a\n      eq\n      tag_7\n      jumpi\n      dup1\n      0x53a75e25\n      eq\n      tag_8\n      jumpi\n      dup1\n      0x5c975abb\n      eq\n      tag_9\n      jumpi\n      0x00\n      dup1\n      revert\n    tag_22:\n      dup1\n      0x19f101fa\n      eq\n      tag_2\n      jumpi\n      dup1\n      0x3f4ba83a\n      eq\n      tag_3\n      jumpi\n      dup1\n      0x402d8883\n      eq\n      tag_4\n      jumpi\n      dup1\n      0x4a68dbf0\n      eq\n      tag_5\n      jumpi\n    tag_1:\n      0x00\n      dup1\n      revert\n        /* \"OasisLend.sol\":1861:2047  function addCollection(address _collection, uint256 _floor) external onlyOwner {... */\n    tag_2:\n      callvalue\n      dup1\n      iszero\n      tag_23\n      jumpi\n      0x00\n      dup1\n      revert\n    tag_23:\n      pop\n      tag_24\n      tag_25\n      calldatasize\n      0x04\n      tag_26\n      jump\t// in\n    tag_25:\n      tag_27\n      jump\t// in\n    tag_24:\n      stop\n        /* \"OasisLend.sol\":1588:1653  function unpause() public onlyOwner {... */\n    tag_3:\n      callvalue\n      dup1\n      iszero\n      tag_28\n      jumpi\n      0x00\n      dup1\n      revert\n    tag_28:\n      pop\n      tag_24\n      tag_30\n      jump\t// in\n        /* \"OasisLend.sol\":4268:5298  function repay() external payable {... */\n    tag_4:\n      tag_24\n      tag_32\n      jump\t// in\n        /* \"OasisLend.sol\":2367:4260  function borrow(address _collection, uint256[] memory _tokenIds) external payable whenNotPaused {... */\n    tag_5:\n      tag_24\n      tag_34\n      calldatasize\n      0x04\n      tag_35\n      jump\t// in\n    tag_34:\n      tag_36\n      jump\t// in\n        /* \"OasisLend.sol\":1717:1853  function setStateVariables(StateVariables memory _stateVariables) external onlyOwner {... */\n    tag_6:\n      callvalue\n      dup1\n      iszero\n      tag_37\n      jumpi\n      0x00\n      dup1\n      revert\n    tag_37:\n      pop\n      tag_24\n      tag_39\n      calldatasize\n      0x04\n      tag_40\n      jump\t// in\n    tag_39:\n      tag_41\n      jump\t// in\n        /* \"OasisLend.sol\":2055:2180  function removeCollection(address _collection) external onlyOwner {... */\n    tag_7:\n      callvalue\n      dup1\n      iszero\n      tag_42\n      jumpi\n      0x00\n      dup1\n      revert\n    tag_42:\n      pop\n      tag_24\n      tag_44\n      calldatasize\n      0x04\n      tag_45\n      jump\t// in\n    tag_44:\n      tag_46\n      jump\t// in\n        /* \"OasisLend.sol\":656:692  StateVariables public stateVariables */\n    tag_8:\n      callvalue\n      dup1\n      iszero\n      tag_47\n      jumpi\n      0x00\n      dup1\n      revert\n    tag_47:\n      pop\n      sload(0x01)\n      sload(0x02)\n      sload(0x03)\n      sload(0x04)\n      sload(0x05)\n      sload(0x06)\n      sload(0x07)\n      sload(0x08)\n      sload(0x09)\n      sload(0x0a)\n      sload(0x0b)\n      sload(0x0c)\n      tag_48\n      swap12\n      sub(shl(0xa0, 0x01), 0x01)\n      and\n      swap11\n      swap10\n      swap9\n      swap8\n      swap7\n      swap6\n      swap5\n      swap4\n      swap3\n      swap2\n      swap1\n      dup13\n      jump\n    tag_48:\n      0x40\n      dup1\n      mload\n      sub(shl(0xa0, 0x01), 0x01)\n        /* \"#utility.yul\":4222:4277   */\n      swap1\n      swap14\n      and\n        /* \"#utility.yul\":4204:4278   */\n      dup14\n      mstore\n        /* \"#utility.yul\":4309:4311   */\n      0x20\n        /* \"#utility.yul\":4294:4312   */\n      dup14\n      add\n        /* \"#utility.yul\":4287:4321   */\n      swap12\n      swap1\n      swap12\n      mstore\n        /* \"#utility.yul\":4337:4355   */\n      swap10\n      dup12\n      add\n        /* \"#utility.yul\":4330:4364   */\n      swap9\n      swap1\n      swap9\n      mstore\n        /* \"#utility.yul\":4395:4397   */\n      0x60\n        /* \"#utility.yul\":4380:4398   */\n      dup11\n      add\n        /* \"#utility.yul\":4373:4407   */\n      swap7\n      swap1\n      swap7\n      mstore\n        /* \"#utility.yul\":4438:4441   */\n      0x80\n        /* \"#utility.yul\":4423:4442   */\n      dup10\n      add\n        /* \"#utility.yul\":4416:4451   */\n      swap5\n      swap1\n      swap5\n      mstore\n        /* \"#utility.yul\":4482:4485   */\n      0xa0\n        /* \"#utility.yul\":4467:4486   */\n      dup9\n      add\n        /* \"#utility.yul\":4460:4495   */\n      swap3\n      swap1\n      swap3\n      mstore\n        /* \"#utility.yul\":4526:4529   */\n      0xc0\n        /* \"#utility.yul\":4511:4530   */\n      dup8\n      add\n        /* \"#utility.yul\":4504:4539   */\n      mstore\n        /* \"#utility.yul\":4570:4573   */\n      0xe0\n        /* \"#utility.yul\":4555:4574   */\n      dup7\n      add\n        /* \"#utility.yul\":4548:4583   */\n      mstore\n        /* \"#utility.yul\":4614:4617   */\n      0x0100\n        /* \"#utility.yul\":4599:4618   */\n      dup6\n      add\n        /* \"#utility.yul\":4592:4627   */\n      mstore\n        /* \"#utility.yul\":4658:4661   */\n      0x0120\n        /* \"#utility.yul\":4643:4662   */\n      dup5\n      add\n        /* \"#utility.yul\":4636:4671   */\n      mstore\n        /* \"#utility.yul\":4702:4705   */\n      0x0140\n        /* \"#utility.yul\":4687:4706   */\n      dup4\n      add\n        /* \"#utility.yul\":4680:4716   */\n      mstore\n        /* \"#utility.yul\":4747:4750   */\n      0x0160\n        /* \"#utility.yul\":4732:4751   */\n      dup3\n      add\n        /* \"#utility.yul\":4725:4761   */\n      mstore\n        /* \"#utility.yul\":4191:4194   */\n      0x0180\n        /* \"#utility.yul\":4176:4195   */\n      add\n        /* \"OasisLend.sol\":656:692  StateVariables public stateVariables */\n    tag_50:\n      mload(0x40)\n      dup1\n      swap2\n      sub\n      swap1\n      return\n        /* \"@openzeppelin/contracts/security/Pausable.sol\":1615:1699   */\n    tag_9:\n      callvalue\n      dup1\n      iszero\n      tag_52\n      jumpi\n      0x00\n      dup1\n      revert\n    tag_52:\n      pop\n        /* \"@openzeppelin/contracts/security/Pausable.sol\":1662:1666   */\n      0x00\n        /* \"@openzeppelin/contracts/security/Pausable.sol\":1685:1692   */\n      sload\n      shl(0xa0, 0x01)\n      swap1\n      div\n      0xff\n      and\n        /* \"@openzeppelin/contracts/security/Pausable.sol\":1615:1699   */\n      mload(0x40)\n        /* \"#utility.yul\":4937:4951   */\n      swap1\n      iszero\n        /* \"#utility.yul\":4930:4952   */\n      iszero\n        /* \"#utility.yul\":4912:4953   */\n      dup2\n      mstore\n        /* \"#utility.yul\":4900:4902   */\n      0x20\n        /* \"#utility.yul\":4885:4903   */\n      add\n        /* \"@openzeppelin/contracts/security/Pausable.sol\":1615:1699   */\n      tag_50\n        /* \"#utility.yul\":4772:4959   */\n      jump\n        /* \"@openzeppelin/contracts/access/Ownable.sol\":1831:1932   */\n    tag_10:\n      callvalue\n      dup1\n      iszero\n      tag_57\n      jumpi\n      0x00\n      dup1\n      revert\n    tag_57:\n      pop\n      tag_24\n      tag_59\n      jump\t// in\n        /* \"OasisLend.sol\":1519:1580  function pause() public onlyOwner {... */\n    tag_11:\n      callvalue\n      dup1\n      iszero\n      tag_60\n      jumpi\n      0x00\n      dup1\n      revert\n    tag_60:\n      pop\n      tag_24\n      tag_62\n      jump\t// in\n        /* \"OasisLend.sol\":5306:6214  function getBorrowAmount(... */\n    tag_12:\n      callvalue\n      dup1\n      iszero\n      tag_63\n      jumpi\n      0x00\n      dup1\n      revert\n    tag_63:\n      pop\n      tag_64\n      tag_65\n      calldatasize\n      0x04\n      tag_66\n      jump\t// in\n    tag_65:\n      tag_67\n      jump\t// in\n    tag_64:\n      mload(0x40)\n        /* \"#utility.yul\":5571:5596   */\n      swap1\n      dup2\n      mstore\n        /* \"#utility.yul\":5559:5561   */\n      0x20\n        /* \"#utility.yul\":5544:5562   */\n      add\n        /* \"OasisLend.sol\":5306:6214  function getBorrowAmount(... */\n      tag_50\n        /* \"#utility.yul\":5425:5602   */\n      jump\n        /* \"@openzeppelin/contracts/access/Ownable.sol\":1201:1286   */\n    tag_13:\n      callvalue\n      dup1\n      iszero\n      tag_70\n      jumpi\n      0x00\n      dup1\n      revert\n    tag_70:\n      pop\n        /* \"@openzeppelin/contracts/access/Ownable.sol\":1247:1254   */\n      0x00\n        /* \"@openzeppelin/contracts/access/Ownable.sol\":1273:1279   */\n      sload\n        /* \"@openzeppelin/contracts/access/Ownable.sol\":1201:1286   */\n      mload(0x40)\n      sub(shl(0xa0, 0x01), 0x01)\n        /* \"@openzeppelin/contracts/access/Ownable.sol\":1273:1279   */\n      swap1\n      swap2\n      and\n        /* \"#utility.yul\":5753:5827   */\n      dup2\n      mstore\n        /* \"#utility.yul\":5741:5743   */\n      0x20\n        /* \"#utility.yul\":5726:5744   */\n      add\n        /* \"@openzeppelin/contracts/access/Ownable.sol\":1201:1286   */\n      tag_50\n        /* \"#utility.yul\":5607:5833   */\n      jump\n        /* \"OasisLend.sol\":754:790  mapping(address => Loan) public loan */\n    tag_14:\n      callvalue\n      dup1\n      iszero\n      tag_75\n      jumpi\n      0x00\n      dup1\n      revert\n    tag_75:\n      pop\n      tag_76\n      tag_77\n      calldatasize\n      0x04\n      tag_45\n      jump\t// in\n    tag_77:\n      mstore(0x20, 0x0e)\n      0x00\n      swap1\n      dup2\n      mstore\n      0x40\n      swap1\n      keccak256\n      dup1\n      sload\n      0x01\n      dup3\n      add\n      sload\n      0x02\n      dup4\n      add\n      sload\n      0x04\n      swap1\n      swap4\n      add\n      sload\n      0xff\n      swap1\n      swap3\n      and\n      swap3\n      swap1\n      swap2\n      sub(shl(0xa0, 0x01), 0x01)\n      swap1\n      swap2\n      and\n      swap1\n      dup5\n      jump\n    tag_76:\n      mload(0x40)\n      tag_50\n      swap5\n      swap4\n      swap3\n      swap2\n      swap1\n        /* \"#utility.yul\":6088:6102   */\n      swap4\n      iszero\n        /* \"#utility.yul\":6081:6103   */\n      iszero\n        /* \"#utility.yul\":6063:6104   */\n      dup5\n      mstore\n        /* \"#utility.yul\":6135:6137   */\n      0x20\n        /* \"#utility.yul\":6120:6138   */\n      dup5\n      add\n        /* \"#utility.yul\":6113:6147   */\n      swap3\n      swap1\n      swap3\n      mstore\n      sub(shl(0xa0, 0x01), 0x01)\n        /* \"#utility.yul\":6183:6238   */\n      and\n        /* \"#utility.yul\":6178:6180   */\n      0x40\n        /* \"#utility.yul\":6163:6181   */\n      dup4\n      add\n        /* \"#utility.yul\":6156:6239   */\n      mstore\n        /* \"#utility.yul\":6270:6272   */\n      0x60\n        /* \"#utility.yul\":6255:6273   */\n      dup3\n      add\n        /* \"#utility.yul\":6248:6282   */\n      mstore\n        /* \"#utility.yul\":6050:6053   */\n      0x80\n        /* \"#utility.yul\":6035:6054   */\n      add\n      swap1\n        /* \"#utility.yul\":5838:6288   */\n      jump\n        /* \"OasisLend.sol\":1661:1709  function deposit() external payable onlyOwner {} */\n    tag_15:\n      tag_24\n      tag_82\n      jump\t// in\n        /* \"OasisLend.sol\":699:747  mapping(address => Collection) public collection */\n    tag_16:\n      callvalue\n      dup1\n      iszero\n      tag_83\n      jumpi\n      0x00\n      dup1\n      revert\n    tag_83:\n      pop\n      tag_84\n      tag_85\n      calldatasize\n      0x04\n      tag_45\n      jump\t// in\n    tag_85:\n      mstore(0x20, 0x0d)\n      0x00\n      swap1\n      dup2\n      mstore\n      0x40\n      swap1\n      keccak256\n      dup1\n      sload\n      0x01\n      swap1\n      swap2\n      add\n      sload\n      0xff\n      swap1\n      swap2\n      and\n      swap1\n      dup3\n      jump\n    tag_84:\n      0x40\n      dup1\n      mload\n        /* \"#utility.yul\":6486:6500   */\n      swap3\n      iszero\n        /* \"#utility.yul\":6479:6501   */\n      iszero\n        /* \"#utility.yul\":6461:6502   */\n      dup4\n      mstore\n        /* \"#utility.yul\":6533:6535   */\n      0x20\n        /* \"#utility.yul\":6518:6536   */\n      dup4\n      add\n        /* \"#utility.yul\":6511:6545   */\n      swap2\n      swap1\n      swap2\n      mstore\n        /* \"#utility.yul\":6434:6452   */\n      add\n        /* \"OasisLend.sol\":699:747  mapping(address => Collection) public collection */\n      tag_50\n        /* \"#utility.yul\":6293:6551   */\n      jump\n        /* \"@openzeppelin/contracts/access/Ownable.sol\":2081:2279   */\n    tag_17:\n      callvalue\n      dup1\n      iszero\n      tag_89\n      jumpi\n      0x00\n      dup1\n      revert\n    tag_89:\n      pop\n      tag_24\n      tag_91\n      calldatasize\n      0x04\n      tag_45\n      jump\t// in\n    tag_91:\n      tag_92\n      jump\t// in\n        /* \"OasisLend.sol\":2188:2329  function setCollectionFloor(address _collection, uint256 _floor) external onlyOwner {... */\n    tag_18:\n      callvalue\n      dup1\n      iszero\n      tag_93\n      jumpi\n      0x00\n      dup1\n      revert\n    tag_93:\n      pop\n      tag_24\n      tag_95\n      calldatasize\n      0x04\n      tag_26\n      jump\t// in\n    tag_95:\n      tag_96\n      jump\t// in\n        /* \"OasisLend.sol\":1861:2047  function addCollection(address _collection, uint256 _floor) external onlyOwner {... */\n    tag_27:\n        /* \"@openzeppelin/contracts/access/Ownable.sol\":1094:1107   */\n      tag_98\n        /* \"@openzeppelin/contracts/access/Ownable.sol\":1094:1105   */\n      tag_99\n        /* \"@openzeppelin/contracts/access/Ownable.sol\":1094:1107   */\n      jump\t// in\n    tag_98:\n      sub(shl(0xa0, 0x01), 0x01)\n        /* \"OasisLend.sol\":1951:1974  collection[_collection] */\n      swap1\n      swap2\n      and\n      0x00\n      swap1\n      dup2\n      mstore\n        /* \"OasisLend.sol\":1951:1961  collection */\n      0x0d\n        /* \"OasisLend.sol\":1951:1974  collection[_collection] */\n      0x20\n      mstore\n      0x40\n      swap1\n      keccak256\n        /* \"OasisLend.sol\":1951:1990  collection[_collection].isActive = true */\n      dup1\n      sload\n      not(0xff)\n      and\n        /* \"OasisLend.sol\":1986:1990  true */\n      0x01\n        /* \"OasisLend.sol\":1951:1990  collection[_collection].isActive = true */\n      swap1\n      dup2\n      or\n      dup3\n      sstore\n        /* \"OasisLend.sol\":2001:2030  collection[_collection].floor */\n      add\n        /* \"OasisLend.sol\":2001:2039  collection[_collection].floor = _floor */\n      sstore\n        /* \"OasisLend.sol\":1861:2047  function addCollection(address _collection, uint256 _floor) external onlyOwner {... */\n      jump\t// out\n        /* \"OasisLend.sol\":1588:1653  function unpause() public onlyOwner {... */\n    tag_30:\n        /* \"@openzeppelin/contracts/access/Ownable.sol\":1094:1107   */\n      tag_102\n        /* \"@openzeppelin/contracts/access/Ownable.sol\":1094:1105   */\n      tag_99\n        /* \"@openzeppelin/contracts/access/Ownable.sol\":1094:1107   */\n      jump\t// in\n    tag_102:\n        /* \"OasisLend.sol\":1635:1645  _unpause() */\n      tag_104\n        /* \"OasisLend.sol\":1635:1643  _unpause */\n      tag_105\n        /* \"OasisLend.sol\":1635:1645  _unpause() */\n      jump\t// in\n    tag_104:\n        /* \"OasisLend.sol\":1588:1653  function unpause() public onlyOwner {... */\n      jump\t// out\n        /* \"OasisLend.sol\":4268:5298  function repay() external payable {... */\n    tag_32:\n        /* \"OasisLend.sol\":4359:4369  msg.sender */\n      caller\n        /* \"OasisLend.sol\":4354:4370  loan[msg.sender] */\n      0x00\n      swap1\n      dup2\n      mstore\n        /* \"OasisLend.sol\":4354:4358  loan */\n      0x0e\n        /* \"OasisLend.sol\":4354:4370  loan[msg.sender] */\n      0x20\n      mstore\n      0x40\n      swap1\n      keccak256\n        /* \"OasisLend.sol\":4354:4379  loan[msg.sender].isActive */\n      sload\n      0xff\n      and\n        /* \"OasisLend.sol\":4349:4402  if (!loan[msg.sender].isActive) revert LoanInactive() */\n      tag_107\n      jumpi\n        /* \"OasisLend.sol\":4388:4402  LoanInactive() */\n      mload(0x40)\n      shl(0xe1, 0x2d763031)\n      dup2\n      mstore\n      0x04\n      add\n      mload(0x40)\n      dup1\n      swap2\n      sub\n      swap1\n      revert\n        /* \"OasisLend.sol\":4349:4402  if (!loan[msg.sender].isActive) revert LoanInactive() */\n    tag_107:\n        /* \"OasisLend.sol\":4468:4478  msg.sender */\n      caller\n        /* \"OasisLend.sol\":4463:4479  loan[msg.sender] */\n      0x00\n      swap1\n      dup2\n      mstore\n        /* \"OasisLend.sol\":4463:4467  loan */\n      0x0e\n        /* \"OasisLend.sol\":4463:4479  loan[msg.sender] */\n      0x20\n      swap1\n      dup2\n      mstore\n      0x40\n      swap2\n      dup3\n      swap1\n      keccak256\n        /* \"OasisLend.sol\":4452:4480  _isTooLate(loan[msg.sender]) */\n      dup3\n      mload\n      0xa0\n      dup2\n      add\n      dup5\n      mstore\n      dup2\n      sload\n      0xff\n      and\n      iszero\n      iszero\n      dup2\n      mstore\n      0x01\n      dup3\n      add\n      sload\n      dup2\n      dup5\n      add\n      mstore\n      0x02\n      dup3\n      add\n      sload\n      sub(shl(0xa0, 0x01), 0x01)\n      and\n      dup2\n      dup6\n      add\n      mstore\n      0x03\n      dup3\n      add\n      dup1\n      sload\n      dup6\n      mload\n      dup2\n      dup7\n      mul\n      dup2\n      add\n      dup7\n      add\n      swap1\n      swap7\n      mstore\n      dup1\n      dup7\n      mstore\n      tag_108\n      swap6\n      swap3\n      swap5\n      0x60\n      dup7\n      add\n      swap4\n      swap3\n      swap2\n      swap1\n      dup4\n      add\n      dup3\n      dup3\n      dup1\n      iszero\n      tag_109\n      jumpi\n      0x20\n      mul\n      dup3\n      add\n      swap2\n      swap1\n      0x00\n      mstore\n      keccak256(0x00, 0x20)\n      swap1\n    tag_110:\n      dup2\n      sload\n      dup2\n      mstore\n      0x20\n      add\n      swap1\n      0x01\n      add\n      swap1\n      dup1\n      dup4\n      gt\n      tag_110\n      jumpi\n    tag_109:\n      pop\n      pop\n      pop\n      pop\n      pop\n      dup2\n      mstore\n      0x20\n      add\n      0x04\n      dup3\n      add\n      sload\n      dup2\n      mstore\n      pop\n      pop\n        /* \"OasisLend.sol\":4452:4462  _isTooLate */\n      tag_111\n        /* \"OasisLend.sol\":4452:4480  _isTooLate(loan[msg.sender]) */\n      jump\t// in\n    tag_108:\n        /* \"OasisLend.sol\":4448:4578  if (_isTooLate(loan[msg.sender])) {... */\n      iszero\n      tag_112\n      jumpi\n        /* \"OasisLend.sol\":4502:4512  msg.sender */\n      caller\n        /* \"OasisLend.sol\":4525:4530  false */\n      0x00\n        /* \"OasisLend.sol\":4497:4513  loan[msg.sender] */\n      swap1\n      dup2\n      mstore\n        /* \"OasisLend.sol\":4497:4501  loan */\n      0x0e\n        /* \"OasisLend.sol\":4497:4513  loan[msg.sender] */\n      0x20\n      mstore\n      0x40\n      swap1\n      dup2\n      swap1\n      keccak256\n        /* \"OasisLend.sol\":4497:4530  loan[msg.sender].isActive = false */\n      dup1\n      sload\n      not(0xff)\n      and\n      swap1\n      sstore\n        /* \"OasisLend.sol\":4552:4566  LoanInactive() */\n      dup1\n      mload\n      shl(0xe1, 0x2d763031)\n      dup2\n      mstore\n      swap1\n      mload\n      swap1\n      dup2\n      swap1\n      sub\n      0x04\n      add\n      swap1\n      revert\n        /* \"OasisLend.sol\":4448:4578  if (_isTooLate(loan[msg.sender])) {... */\n    tag_112:\n        /* \"OasisLend.sol\":4672:4682  msg.sender */\n      caller\n        /* \"OasisLend.sol\":4638:4656  uint256 owedAmount */\n      0x00\n        /* \"OasisLend.sol\":4667:4683  loan[msg.sender] */\n      swap1\n      dup2\n      mstore\n        /* \"OasisLend.sol\":4667:4671  loan */\n      0x0e\n        /* \"OasisLend.sol\":4667:4683  loan[msg.sender] */\n      0x20\n      swap1\n      dup2\n      mstore\n      0x40\n      dup1\n      dup4\n      keccak256\n        /* \"OasisLend.sol\":4659:4684  _isLate(loan[msg.sender]) */\n      dup2\n      mload\n      0xa0\n      dup2\n      add\n      dup4\n      mstore\n      dup2\n      sload\n      0xff\n      and\n      iszero\n      iszero\n      dup2\n      mstore\n      0x01\n      dup3\n      add\n      sload\n      dup2\n      dup6\n      add\n      mstore\n      0x02\n      dup3\n      add\n      sload\n      sub(shl(0xa0, 0x01), 0x01)\n      and\n      dup2\n      dup5\n      add\n      mstore\n      0x03\n      dup3\n      add\n      dup1\n      sload\n      dup5\n      mload\n      dup2\n      dup8\n      mul\n      dup2\n      add\n      dup8\n      add\n      swap1\n      swap6\n      mstore\n      dup1\n      dup6\n      mstore\n      tag_113\n      swap6\n      swap3\n      swap5\n      0x60\n      dup7\n      add\n      swap4\n      swap1\n      swap3\n      swap2\n      swap1\n      dup4\n      add\n      dup3\n      dup3\n      dup1\n      iszero\n      tag_114\n      jumpi\n      0x20\n      mul\n      dup3\n      add\n      swap2\n      swap1\n      0x00\n      mstore\n      keccak256(0x00, 0x20)\n      swap1\n    tag_115:\n      dup2\n      sload\n      dup2\n      mstore\n      0x20\n      add\n      swap1\n      0x01\n      add\n      swap1\n      dup1\n      dup4\n      gt\n      tag_115\n      jumpi\n    tag_114:\n      pop\n      pop\n      pop\n      pop\n      pop\n      dup2\n      mstore\n      0x20\n      add\n      0x04\n      dup3\n      add\n      sload\n      dup2\n      mstore\n      pop\n      pop\n        /* \"OasisLend.sol\":4659:4666  _isLate */\n      tag_116\n        /* \"OasisLend.sol\":4659:4684  _isLate(loan[msg.sender]) */\n      jump\t// in\n    tag_113:\n        /* \"OasisLend.sol\":4659:4799  _isLate(loan[msg.sender])... */\n      tag_117\n      jumpi\n        /* \"OasisLend.sol\":4775:4785  msg.sender */\n      caller\n        /* \"OasisLend.sol\":4770:4786  loan[msg.sender] */\n      0x00\n      swap1\n      dup2\n      mstore\n        /* \"OasisLend.sol\":4770:4774  loan */\n      0x0e\n        /* \"OasisLend.sol\":4770:4786  loan[msg.sender] */\n      0x20\n      mstore\n      0x40\n      swap1\n      keccak256\n        /* \"OasisLend.sol\":4770:4799  loan[msg.sender].borrowAmount */\n      0x04\n      add\n      sload\n        /* \"OasisLend.sol\":4659:4799  _isLate(loan[msg.sender])... */\n      jump(tag_119)\n    tag_117:\n        /* \"OasisLend.sol\":4732:4754  stateVariables.lateFee */\n      sload(0x0c)\n        /* \"OasisLend.sol\":4705:4715  msg.sender */\n      caller\n        /* \"OasisLend.sol\":4700:4716  loan[msg.sender] */\n      0x00\n      swap1\n      dup2\n      mstore\n        /* \"OasisLend.sol\":4700:4704  loan */\n      0x0e\n        /* \"OasisLend.sol\":4700:4716  loan[msg.sender] */\n      0x20\n      mstore\n      0x40\n      swap1\n      keccak256\n        /* \"OasisLend.sol\":4700:4729  loan[msg.sender].borrowAmount */\n      0x04\n      add\n      sload\n        /* \"OasisLend.sol\":4700:4754  loan[msg.sender].borrowAmount + stateVariables.lateFee */\n      tag_119\n      swap2\n        /* \"OasisLend.sol\":4732:4754  stateVariables.lateFee */\n      swap1\n        /* \"OasisLend.sol\":4700:4754  loan[msg.sender].borrowAmount + stateVariables.lateFee */\n      tag_120\n      jump\t// in\n    tag_119:\n        /* \"OasisLend.sol\":4638:4799  uint256 owedAmount = _isLate(loan[msg.sender])... */\n      swap1\n      pop\n        /* \"OasisLend.sol\":4876:4885  msg.value */\n      callvalue\n        /* \"OasisLend.sol\":4863:4873  owedAmount */\n      dup2\n        /* \"OasisLend.sol\":4863:4885  owedAmount < msg.value */\n      lt\n        /* \"OasisLend.sol\":4859:4913  if (owedAmount < msg.value) revert UserBalanceTooLow() */\n      iszero\n      tag_121\n      jumpi\n        /* \"OasisLend.sol\":4894:4913  UserBalanceTooLow() */\n      mload(0x40)\n      shl(0xe0, 0x4ddc3b85)\n      dup2\n      mstore\n      0x04\n      add\n      mload(0x40)\n      dup1\n      swap2\n      sub\n      swap1\n      revert\n        /* \"OasisLend.sol\":4859:4913  if (owedAmount < msg.value) revert UserBalanceTooLow() */\n    tag_121:\n        /* \"OasisLend.sol\":5279:5289  msg.sender */\n      caller\n        /* \"OasisLend.sol\":5274:5290  loan[msg.sender] */\n      0x00\n      swap1\n      dup2\n      mstore\n        /* \"OasisLend.sol\":5274:5278  loan */\n      0x0e\n        /* \"OasisLend.sol\":5274:5290  loan[msg.sender] */\n      0x20\n      mstore\n      0x40\n      dup2\n      keccak256\n        /* \"OasisLend.sol\":5267:5290  delete loan[msg.sender] */\n      dup1\n      sload\n      not(0xff)\n      and\n      dup2\n      sstore\n      0x01\n      dup2\n      add\n      dup3\n      swap1\n      sstore\n      0x02\n      dup2\n      add\n      dup1\n      sload\n      not(sub(shl(0xa0, 0x01), 0x01))\n      and\n      swap1\n      sstore\n        /* \"OasisLend.sol\":5274:5290  loan[msg.sender] */\n      swap1\n        /* \"OasisLend.sol\":5267:5290  delete loan[msg.sender] */\n      tag_122\n      0x03\n      dup4\n      add\n        /* \"OasisLend.sol\":5274:5290  loan[msg.sender] */\n      dup3\n        /* \"OasisLend.sol\":5267:5290  delete loan[msg.sender] */\n      tag_123\n      jump\t// in\n    tag_122:\n      0x04\n      dup3\n      add\n      0x00\n      swap1\n      sstore\n      pop\n      pop\n        /* \"OasisLend.sol\":4302:5298  {... */\n      pop\n        /* \"OasisLend.sol\":4268:5298  function repay() external payable {... */\n      jump\t// out\n        /* \"OasisLend.sol\":2367:4260  function borrow(address _collection, uint256[] memory _tokenIds) external payable whenNotPaused {... */\n    tag_36:\n        /* \"@openzeppelin/contracts/security/Pausable.sol\":1239:1258   */\n      tag_125\n        /* \"@openzeppelin/contracts/security/Pausable.sol\":1239:1256   */\n      tag_126\n        /* \"@openzeppelin/contracts/security/Pausable.sol\":1239:1258   */\n      jump\t// in\n    tag_125:\n        /* \"OasisLend.sol\":2529:2539  msg.sender */\n      caller\n        /* \"OasisLend.sol\":2524:2540  loan[msg.sender] */\n      0x00\n      swap1\n      dup2\n      mstore\n        /* \"OasisLend.sol\":2524:2528  loan */\n      0x0e\n        /* \"OasisLend.sol\":2524:2540  loan[msg.sender] */\n      0x20\n      mstore\n      0x40\n      swap1\n      keccak256\n        /* \"OasisLend.sol\":2524:2549  loan[msg.sender].isActive */\n      sload\n      0xff\n      and\n        /* \"OasisLend.sol\":2520:2570  if (loan[msg.sender].isActive) revert LoanActive() */\n      iszero\n      tag_128\n      jumpi\n        /* \"OasisLend.sol\":2558:2570  LoanActive() */\n      mload(0x40)\n      shl(0xe2, 0x1563d41f)\n      dup2\n      mstore\n      0x04\n      add\n      mload(0x40)\n      dup1\n      swap2\n      sub\n      swap1\n      revert\n        /* \"OasisLend.sol\":2520:2570  if (loan[msg.sender].isActive) revert LoanActive() */\n    tag_128:\n      sub(shl(0xa0, 0x01), 0x01)\n        /* \"OasisLend.sol\":2635:2658  collection[_collection] */\n      dup3\n      and\n      0x00\n      swap1\n      dup2\n      mstore\n        /* \"OasisLend.sol\":2635:2645  collection */\n      0x0d\n        /* \"OasisLend.sol\":2635:2658  collection[_collection] */\n      0x20\n      mstore\n      0x40\n      swap1\n      keccak256\n        /* \"OasisLend.sol\":2635:2667  collection[_collection].isActive */\n      sload\n      0xff\n      and\n        /* \"OasisLend.sol\":2630:2696  if (!collection[_collection].isActive) revert InactiveCollection() */\n      tag_129\n      jumpi\n        /* \"OasisLend.sol\":2676:2696  InactiveCollection() */\n      mload(0x40)\n      shl(0xe0, 0x24ff36dd)\n      dup2\n      mstore\n      0x04\n      add\n      mload(0x40)\n      dup1\n      swap2\n      sub\n      swap1\n      revert\n        /* \"OasisLend.sol\":2630:2696  if (!collection[_collection].isActive) revert InactiveCollection() */\n    tag_129:\n        /* \"OasisLend.sol\":2787:2811  stateVariables.borrowFee */\n      sload(0x03)\n        /* \"OasisLend.sol\":2775:2784  msg.value */\n      callvalue\n        /* \"OasisLend.sol\":2775:2811  msg.value < stateVariables.borrowFee */\n      lt\n        /* \"OasisLend.sol\":2771:2839  if (msg.value < stateVariables.borrowFee) revert UserBalanceTooLow() */\n      iszero\n      tag_130\n      jumpi\n        /* \"OasisLend.sol\":2820:2839  UserBalanceTooLow() */\n      mload(0x40)\n      shl(0xe0, 0x4ddc3b85)\n      dup2\n      mstore\n      0x04\n      add\n      mload(0x40)\n      dup1\n      swap2\n      sub\n      swap1\n      revert\n        /* \"OasisLend.sol\":2771:2839  if (msg.value < stateVariables.borrowFee) revert UserBalanceTooLow() */\n    tag_130:\n        /* \"OasisLend.sol\":2950:2966  _tokenIds.length */\n      dup1\n      mload\n        /* \"OasisLend.sol\":2998:2999  1 */\n      0x01\n        /* \"OasisLend.sol\":2981:2999  amountOfTokens < 1 */\n      dup2\n      lt\n        /* \"OasisLend.sol\":2977:3022  if (amountOfTokens < 1) revert NoCollateral() */\n      iszero\n      tag_131\n      jumpi\n        /* \"OasisLend.sol\":3008:3022  NoCollateral() */\n      mload(0x40)\n      shl(0xe0, 0x8dc8d9b3)\n      dup2\n      mstore\n      0x04\n      add\n      mload(0x40)\n      dup1\n      swap2\n      sub\n      swap1\n      revert\n        /* \"OasisLend.sol\":2977:3022  if (amountOfTokens < 1) revert NoCollateral() */\n    tag_131:\n      sub(shl(0xa0, 0x01), 0x01)\n        /* \"OasisLend.sol\":3155:3178  collection[_collection] */\n      dup4\n      and\n        /* \"OasisLend.sol\":3114:3135  uint256 maxLoanAmount */\n      0x00\n        /* \"OasisLend.sol\":3155:3178  collection[_collection] */\n      swap1\n      dup2\n      mstore\n        /* \"OasisLend.sol\":3155:3165  collection */\n      0x0d\n        /* \"OasisLend.sol\":3155:3178  collection[_collection] */\n      0x20\n      mstore\n      0x40\n      dup2\n      keccak256\n        /* \"OasisLend.sol\":3155:3184  collection[_collection].floor */\n      0x01\n      add\n      sload\n        /* \"OasisLend.sol\":3138:3184  amountOfTokens * collection[_collection].floor */\n      tag_132\n      swap1\n        /* \"OasisLend.sol\":3138:3152  amountOfTokens */\n      dup4\n        /* \"OasisLend.sol\":3138:3184  amountOfTokens * collection[_collection].floor */\n      tag_133\n      jump\t// in\n    tag_132:\n        /* \"OasisLend.sol\":3114:3184  uint256 maxLoanAmount = amountOfTokens * collection[_collection].floor */\n      swap1\n      pop\n        /* \"OasisLend.sol\":3215:3236  address(this).balance */\n      selfbalance\n        /* \"OasisLend.sol\":3199:3212  maxLoanAmount */\n      dup2\n        /* \"OasisLend.sol\":3199:3236  maxLoanAmount > address(this).balance */\n      gt\n        /* \"OasisLend.sol\":3195:3268  if (maxLoanAmount > address(this).balance) revert ContractBalanceTooLow() */\n      iszero\n      tag_134\n      jumpi\n        /* \"OasisLend.sol\":3245:3268  ContractBalanceTooLow() */\n      mload(0x40)\n      shl(0xe1, 0x1af4d599)\n      dup2\n      mstore\n      0x04\n      add\n      mload(0x40)\n      dup1\n      swap2\n      sub\n      swap1\n      revert\n        /* \"OasisLend.sol\":3195:3268  if (maxLoanAmount > address(this).balance) revert ContractBalanceTooLow() */\n    tag_134:\n        /* \"OasisLend.sol\":3351:3360  uint256 i */\n      0x00\n        /* \"OasisLend.sol\":3346:3488  for (uint256 i = 0; i < amountOfTokens; i++)... */\n    tag_135:\n        /* \"OasisLend.sol\":3370:3384  amountOfTokens */\n      dup3\n        /* \"OasisLend.sol\":3366:3367  i */\n      dup2\n        /* \"OasisLend.sol\":3366:3384  i < amountOfTokens */\n      lt\n        /* \"OasisLend.sol\":3346:3488  for (uint256 i = 0; i < amountOfTokens; i++)... */\n      iszero\n      tag_136\n      jumpi\n        /* \"OasisLend.sol\":3430:3441  _collection */\n      dup5\n      sub(shl(0xa0, 0x01), 0x01)\n        /* \"OasisLend.sol\":3422:3450  IERC721(_collection).ownerOf */\n      and\n      0x6352211e\n        /* \"OasisLend.sol\":3451:3460  _tokenIds */\n      dup6\n        /* \"OasisLend.sol\":3461:3462  i */\n      dup4\n        /* \"OasisLend.sol\":3451:3463  _tokenIds[i] */\n      dup2\n      mload\n      dup2\n      lt\n      tag_139\n      jumpi\n      tag_139\n      tag_140\n      jump\t// in\n    tag_139:\n      0x20\n      mul\n      0x20\n      add\n      add\n      mload\n        /* \"OasisLend.sol\":3422:3464  IERC721(_collection).ownerOf(_tokenIds[i]) */\n      mload(0x40)\n      dup3\n      0xffffffff\n      and\n      0xe0\n      shl\n      dup2\n      mstore\n      0x04\n      add\n      tag_141\n      swap2\n        /* \"#utility.yul\":5571:5596   */\n      dup2\n      mstore\n        /* \"#utility.yul\":5559:5561   */\n      0x20\n        /* \"#utility.yul\":5544:5562   */\n      add\n      swap1\n        /* \"#utility.yul\":5425:5602   */\n      jump\n        /* \"OasisLend.sol\":3422:3464  IERC721(_collection).ownerOf(_tokenIds[i]) */\n    tag_141:\n      0x20\n      mload(0x40)\n      dup1\n      dup4\n      sub\n      dup2\n      dup7\n      gas\n      staticcall\n      iszero\n      dup1\n      iszero\n      tag_143\n      jumpi\n      returndatasize\n      0x00\n      dup1\n      returndatacopy\n      revert(0x00, returndatasize)\n    tag_143:\n      pop\n      pop\n      pop\n      pop\n      mload(0x40)\n      returndatasize\n      not(0x1f)\n      0x1f\n      dup3\n      add\n      and\n      dup3\n      add\n      dup1\n      0x40\n      mstore\n      pop\n      dup2\n      add\n      swap1\n      tag_144\n      swap2\n      swap1\n      tag_145\n      jump\t// in\n    tag_144:\n      sub(shl(0xa0, 0x01), 0x01)\n        /* \"OasisLend.sol\":3408:3464  msg.sender != IERC721(_collection).ownerOf(_tokenIds[i]) */\n      and\n        /* \"OasisLend.sol\":3408:3418  msg.sender */\n      caller\n      sub(shl(0xa0, 0x01), 0x01)\n        /* \"OasisLend.sol\":3408:3464  msg.sender != IERC721(_collection).ownerOf(_tokenIds[i]) */\n      and\n      eq\n        /* \"OasisLend.sol\":3404:3488  if (msg.sender != IERC721(_collection).ownerOf(_tokenIds[i])) revert DoesNotOwnNFT() */\n      tag_146\n      jumpi\n        /* \"OasisLend.sol\":3473:3488  DoesNotOwnNFT() */\n      mload(0x40)\n      shl(0xe1, 0x657e268f)\n      dup2\n      mstore\n      0x04\n      add\n      mload(0x40)\n      dup1\n      swap2\n      sub\n      swap1\n      revert\n        /* \"OasisLend.sol\":3404:3488  if (msg.sender != IERC721(_collection).ownerOf(_tokenIds[i])) revert DoesNotOwnNFT() */\n    tag_146:\n        /* \"OasisLend.sol\":3386:3389  i++ */\n      dup1\n      tag_147\n      dup2\n      tag_148\n      jump\t// in\n    tag_147:\n      swap2\n      pop\n      pop\n        /* \"OasisLend.sol\":3346:3488  for (uint256 i = 0; i < amountOfTokens; i++)... */\n      jump(tag_135)\n    tag_136:\n      pop\n        /* \"OasisLend.sol\":3563:3572  uint256 i */\n      0x00\n        /* \"OasisLend.sol\":3558:3710  for (uint256 i = 0; i < amountOfTokens; i++)... */\n    tag_149:\n        /* \"OasisLend.sol\":3582:3596  amountOfTokens */\n      dup3\n        /* \"OasisLend.sol\":3578:3579  i */\n      dup2\n        /* \"OasisLend.sol\":3578:3596  i < amountOfTokens */\n      lt\n        /* \"OasisLend.sol\":3558:3710  for (uint256 i = 0; i < amountOfTokens; i++)... */\n      iszero\n      tag_150\n      jumpi\n        /* \"OasisLend.sol\":3678:3682  this */\n      address\n      sub(shl(0xa0, 0x01), 0x01)\n        /* \"OasisLend.sol\":3620:3683  IERC721(_collection).getApproved(_tokenIds[i]) == address(this) */\n      and\n        /* \"OasisLend.sol\":3628:3639  _collection */\n      dup6\n      sub(shl(0xa0, 0x01), 0x01)\n        /* \"OasisLend.sol\":3620:3652  IERC721(_collection).getApproved */\n      and\n      0x081812fc\n        /* \"OasisLend.sol\":3653:3662  _tokenIds */\n      dup7\n        /* \"OasisLend.sol\":3663:3664  i */\n      dup5\n        /* \"OasisLend.sol\":3653:3665  _tokenIds[i] */\n      dup2\n      mload\n      dup2\n      lt\n      tag_153\n      jumpi\n      tag_153\n      tag_140\n      jump\t// in\n    tag_153:\n      0x20\n      mul\n      0x20\n      add\n      add\n      mload\n        /* \"OasisLend.sol\":3620:3666  IERC721(_collection).getApproved(_tokenIds[i]) */\n      mload(0x40)\n      dup3\n      0xffffffff\n      and\n      0xe0\n      shl\n      dup2\n      mstore\n      0x04\n      add\n      tag_154\n      swap2\n        /* \"#utility.yul\":5571:5596   */\n      dup2\n      mstore\n        /* \"#utility.yul\":5559:5561   */\n      0x20\n        /* \"#utility.yul\":5544:5562   */\n      add\n      swap1\n        /* \"#utility.yul\":5425:5602   */\n      jump\n        /* \"OasisLend.sol\":3620:3666  IERC721(_collection).getApproved(_tokenIds[i]) */\n    tag_154:\n      0x20\n      mload(0x40)\n      dup1\n      dup4\n      sub\n      dup2\n      dup7\n      gas\n      staticcall\n      iszero\n      dup1\n      iszero\n      tag_156\n      jumpi\n      returndatasize\n      0x00\n      dup1\n      returndatacopy\n      revert(0x00, returndatasize)\n    tag_156:\n      pop\n      pop\n      pop\n      pop\n      mload(0x40)\n      returndatasize\n      not(0x1f)\n      0x1f\n      dup3\n      add\n      and\n      dup3\n      add\n      dup1\n      0x40\n      mstore\n      pop\n      dup2\n      add\n      swap1\n      tag_157\n      swap2\n      swap1\n      tag_145\n      jump\t// in\n    tag_157:\n      sub(shl(0xa0, 0x01), 0x01)\n        /* \"OasisLend.sol\":3620:3683  IERC721(_collection).getApproved(_tokenIds[i]) == address(this) */\n      and\n      sub\n        /* \"OasisLend.sol\":3616:3710  if (IERC721(_collection).getApproved(_tokenIds[i]) == address(this)) revert TokenNotApproved() */\n      tag_158\n      jumpi\n        /* \"OasisLend.sol\":3692:3710  TokenNotApproved() */\n      mload(0x40)\n      shl(0xe0, 0x32da96a3)\n      dup2\n      mstore\n      0x04\n      add\n      mload(0x40)\n      dup1\n      swap2\n      sub\n      swap1\n      revert\n        /* \"OasisLend.sol\":3616:3710  if (IERC721(_collection).getApproved(_tokenIds[i]) == address(this)) revert TokenNotApproved() */\n    tag_158:\n        /* \"OasisLend.sol\":3598:3601  i++ */\n      dup1\n      tag_159\n      dup2\n      tag_148\n      jump\t// in\n    tag_159:\n      swap2\n      pop\n      pop\n        /* \"OasisLend.sol\":3558:3710  for (uint256 i = 0; i < amountOfTokens; i++)... */\n      jump(tag_149)\n    tag_150:\n      pop\n        /* \"OasisLend.sol\":3794:3803  uint256 i */\n      0x00\n        /* \"OasisLend.sol\":3789:3921  for (uint256 i = 0; i < amountOfTokens; i++)... */\n    tag_160:\n        /* \"OasisLend.sol\":3813:3827  amountOfTokens */\n      dup3\n        /* \"OasisLend.sol\":3809:3810  i */\n      dup2\n        /* \"OasisLend.sol\":3809:3827  i < amountOfTokens */\n      lt\n        /* \"OasisLend.sol\":3789:3921  for (uint256 i = 0; i < amountOfTokens; i++)... */\n      iszero\n      tag_161\n      jumpi\n        /* \"OasisLend.sol\":3855:3866  _collection */\n      dup5\n      sub(shl(0xa0, 0x01), 0x01)\n        /* \"OasisLend.sol\":3847:3880  IERC721(_collection).transferFrom */\n      and\n      0x23b872dd\n        /* \"OasisLend.sol\":3881:3891  msg.sender */\n      caller\n        /* \"OasisLend.sol\":3901:3905  this */\n      address\n        /* \"OasisLend.sol\":3908:3917  _tokenIds */\n      dup8\n        /* \"OasisLend.sol\":3918:3919  i */\n      dup6\n        /* \"OasisLend.sol\":3908:3920  _tokenIds[i] */\n      dup2\n      mload\n      dup2\n      lt\n      tag_164\n      jumpi\n      tag_164\n      tag_140\n      jump\t// in\n    tag_164:\n      0x20\n      swap1\n      dup2\n      mul\n      swap2\n      swap1\n      swap2\n      add\n      add\n      mload\n        /* \"OasisLend.sol\":3847:3921  IERC721(_collection).transferFrom(msg.sender, address(this), _tokenIds[i]) */\n      mload(0x40)\n      0xffffffff00000000000000000000000000000000000000000000000000000000\n      0xe0\n      dup7\n      swap1\n      shl\n      and\n      dup2\n      mstore\n      sub(shl(0xa0, 0x01), 0x01)\n        /* \"#utility.yul\":7803:7818   */\n      swap4\n      dup5\n      and\n        /* \"OasisLend.sol\":3847:3921  IERC721(_collection).transferFrom(msg.sender, address(this), _tokenIds[i]) */\n      0x04\n      dup3\n      add\n        /* \"#utility.yul\":7785:7819   */\n      mstore\n        /* \"#utility.yul\":7855:7870   */\n      swap3\n      swap1\n      swap2\n      and\n        /* \"#utility.yul\":7835:7853   */\n      0x24\n      dup4\n      add\n        /* \"#utility.yul\":7828:7871   */\n      mstore\n        /* \"#utility.yul\":7887:7905   */\n      0x44\n      dup3\n      add\n        /* \"#utility.yul\":7880:7914   */\n      mstore\n        /* \"#utility.yul\":7697:7715   */\n      0x64\n      add\n        /* \"OasisLend.sol\":3847:3921  IERC721(_collection).transferFrom(msg.sender, address(this), _tokenIds[i]) */\n      0x00\n      mload(0x40)\n      dup1\n      dup4\n      sub\n      dup2\n      0x00\n      dup8\n      dup1\n      extcodesize\n      iszero\n      dup1\n      iszero\n      tag_167\n      jumpi\n      0x00\n      dup1\n      revert\n    tag_167:\n      pop\n      gas\n      call\n      iszero\n      dup1\n      iszero\n      tag_169\n      jumpi\n      returndatasize\n      0x00\n      dup1\n      returndatacopy\n      revert(0x00, returndatasize)\n    tag_169:\n      pop\n      pop\n      pop\n      pop\n        /* \"OasisLend.sol\":3829:3832  i++ */\n      dup1\n      dup1\n      tag_170\n      swap1\n      tag_148\n      jump\t// in\n    tag_170:\n      swap2\n      pop\n      pop\n        /* \"OasisLend.sol\":3789:3921  for (uint256 i = 0; i < amountOfTokens; i++)... */\n      jump(tag_160)\n    tag_161:\n      pop\n        /* \"OasisLend.sol\":3991:4011  uint256 borrowAmount */\n      0x00\n        /* \"OasisLend.sol\":4014:4070  getBorrowAmount(msg.sender, _collection, amountOfTokens) */\n      tag_171\n        /* \"OasisLend.sol\":4030:4040  msg.sender */\n      caller\n        /* \"OasisLend.sol\":4042:4053  _collection */\n      dup7\n        /* \"OasisLend.sol\":4055:4069  amountOfTokens */\n      dup6\n        /* \"OasisLend.sol\":4014:4029  getBorrowAmount */\n      tag_67\n        /* \"OasisLend.sol\":4014:4070  getBorrowAmount(msg.sender, _collection, amountOfTokens) */\n      jump\t// in\n    tag_171:\n        /* \"OasisLend.sol\":4081:4123  payable(msg.sender).transfer(borrowAmount) */\n      mload(0x40)\n        /* \"OasisLend.sol\":3991:4070  uint256 borrowAmount = getBorrowAmount(msg.sender, _collection, amountOfTokens) */\n      swap1\n      swap2\n      pop\n        /* \"OasisLend.sol\":4089:4099  msg.sender */\n      caller\n      swap1\n        /* \"OasisLend.sol\":4081:4123  payable(msg.sender).transfer(borrowAmount) */\n      dup3\n      iszero\n      0x08fc\n      mul\n      swap1\n        /* \"OasisLend.sol\":3991:4070  uint256 borrowAmount = getBorrowAmount(msg.sender, _collection, amountOfTokens) */\n      dup4\n      swap1\n        /* \"OasisLend.sol\":4081:4123  payable(msg.sender).transfer(borrowAmount) */\n      0x00\n      dup2\n      dup2\n      dup2\n        /* \"OasisLend.sol\":3991:4070  uint256 borrowAmount = getBorrowAmount(msg.sender, _collection, amountOfTokens) */\n      dup6\n        /* \"OasisLend.sol\":4089:4099  msg.sender */\n      dup9\n        /* \"OasisLend.sol\":4081:4123  payable(msg.sender).transfer(borrowAmount) */\n      dup9\n      call\n      swap4\n      pop\n      pop\n      pop\n      pop\n      iszero\n      dup1\n      iszero\n      tag_173\n      jumpi\n      returndatasize\n      0x00\n      dup1\n      returndatacopy\n      revert(0x00, returndatasize)\n    tag_173:\n      pop\n        /* \"OasisLend.sol\":4187:4252  Loan(true, block.timestamp, _collection, _tokenIds, borrowAmount) */\n      0x40\n      dup1\n      mload\n      0xa0\n      dup2\n      add\n      dup3\n      mstore\n        /* \"OasisLend.sol\":4192:4196  true */\n      0x01\n        /* \"OasisLend.sol\":4187:4252  Loan(true, block.timestamp, _collection, _tokenIds, borrowAmount) */\n      dup1\n      dup3\n      mstore\n        /* \"OasisLend.sol\":4198:4213  block.timestamp */\n      timestamp\n        /* \"OasisLend.sol\":4187:4252  Loan(true, block.timestamp, _collection, _tokenIds, borrowAmount) */\n      0x20\n      dup1\n      dup5\n      add\n      swap2\n      dup3\n      mstore\n      sub(shl(0xa0, 0x01), 0x01)\n      dup11\n      dup2\n      and\n      dup6\n      dup8\n      add\n      swap1\n      dup2\n      mstore\n      0x60\n      dup7\n      add\n      dup12\n      dup2\n      mstore\n      0x80\n      dup8\n      add\n      dup10\n      swap1\n      mstore\n        /* \"OasisLend.sol\":4173:4183  msg.sender */\n      caller\n      0x00\n        /* \"OasisLend.sol\":4168:4184  loan[msg.sender] */\n      swap1\n      dup2\n      mstore\n        /* \"OasisLend.sol\":4168:4172  loan */\n      0x0e\n        /* \"OasisLend.sol\":4168:4184  loan[msg.sender] */\n      dup6\n      mstore\n      swap8\n      swap1\n      swap8\n      keccak256\n        /* \"OasisLend.sol\":4168:4252  loan[msg.sender] = Loan(true, block.timestamp, _collection, _tokenIds, borrowAmount) */\n      dup7\n      mload\n      dup2\n      sload\n      not(0xff)\n      and\n      swap1\n      iszero\n      iszero\n      or\n      dup2\n      sstore\n      swap4\n      mload\n      swap5\n      dup5\n      add\n      swap5\n      swap1\n      swap5\n      sstore\n      swap3\n      mload\n      0x02\n      dup4\n      add\n      dup1\n      sload\n      not(sub(shl(0xa0, 0x01), 0x01))\n      and\n      swap2\n      swap1\n      swap5\n      and\n      or\n      swap1\n      swap3\n      sstore\n      swap3\n      mload\n      dup1\n      mload\n        /* \"OasisLend.sol\":4187:4252  Loan(true, block.timestamp, _collection, _tokenIds, borrowAmount) */\n      swap3\n      swap4\n        /* \"OasisLend.sol\":4168:4184  loan[msg.sender] */\n      swap3\n        /* \"OasisLend.sol\":4168:4252  loan[msg.sender] = Loan(true, block.timestamp, _collection, _tokenIds, borrowAmount) */\n      tag_174\n      swap3\n      0x03\n      dup6\n      add\n      swap3\n      add\n      swap1\n      tag_175\n      jump\t// in\n    tag_174:\n      pop\n      0x80\n      dup3\n      add\n      mload\n      dup2\n      0x04\n      add\n      sstore\n      swap1\n      pop\n      pop\n        /* \"OasisLend.sol\":2463:4260  {... */\n      pop\n      pop\n      pop\n        /* \"OasisLend.sol\":2367:4260  function borrow(address _collection, uint256[] memory _tokenIds) external payable whenNotPaused {... */\n      pop\n      pop\n      jump\t// out\n        /* \"OasisLend.sol\":1717:1853  function setStateVariables(StateVariables memory _stateVariables) external onlyOwner {... */\n    tag_41:\n        /* \"@openzeppelin/contracts/access/Ownable.sol\":1094:1107   */\n      tag_177\n        /* \"@openzeppelin/contracts/access/Ownable.sol\":1094:1105   */\n      tag_99\n        /* \"@openzeppelin/contracts/access/Ownable.sol\":1094:1107   */\n      jump\t// in\n    tag_177:\n        /* \"OasisLend.sol\":1813:1845  stateVariables = _stateVariables */\n      dup1\n      mload\n        /* \"OasisLend.sol\":1813:1827  stateVariables */\n      0x01\n        /* \"OasisLend.sol\":1813:1845  stateVariables = _stateVariables */\n      dup1\n      sload\n      not(sub(shl(0xa0, 0x01), 0x01))\n      and\n      sub(shl(0xa0, 0x01), 0x01)\n      swap1\n      swap3\n      and\n      swap2\n      swap1\n      swap2\n      or\n      swap1\n      sstore\n      0x20\n      dup2\n      add\n      mload\n      0x02\n      sstore\n      0x40\n      dup2\n      add\n      mload\n      0x03\n      sstore\n      0x60\n      dup2\n      add\n      mload\n      0x04\n      sstore\n      0x80\n      dup2\n      add\n      mload\n      0x05\n      sstore\n      0xa0\n      dup2\n      add\n      mload\n      0x06\n      sstore\n      0xc0\n      dup2\n      add\n      mload\n      0x07\n      sstore\n      0xe0\n      dup2\n      add\n      mload\n      0x08\n      sstore\n      0x0100\n      dup2\n      add\n      mload\n      0x09\n      sstore\n      0x0120\n      dup2\n      add\n      mload\n      0x0a\n      sstore\n      0x0140\n      dup2\n      add\n      mload\n      0x0b\n      sstore\n      0x0160\n      add\n      mload\n      0x0c\n      sstore\n        /* \"OasisLend.sol\":1717:1853  function setStateVariables(StateVariables memory _stateVariables) external onlyOwner {... */\n      jump\t// out\n        /* \"OasisLend.sol\":2055:2180  function removeCollection(address _collection) external onlyOwner {... */\n    tag_46:\n        /* \"@openzeppelin/contracts/access/Ownable.sol\":1094:1107   */\n      tag_180\n        /* \"@openzeppelin/contracts/access/Ownable.sol\":1094:1105   */\n      tag_99\n        /* \"@openzeppelin/contracts/access/Ownable.sol\":1094:1107   */\n      jump\t// in\n    tag_180:\n      sub(shl(0xa0, 0x01), 0x01)\n        /* \"OasisLend.sol\":2132:2155  collection[_collection] */\n      and\n        /* \"OasisLend.sol\":2167:2172  false */\n      0x00\n        /* \"OasisLend.sol\":2132:2155  collection[_collection] */\n      swap1\n      dup2\n      mstore\n        /* \"OasisLend.sol\":2132:2142  collection */\n      0x0d\n        /* \"OasisLend.sol\":2132:2155  collection[_collection] */\n      0x20\n      mstore\n      0x40\n      swap1\n      keccak256\n        /* \"OasisLend.sol\":2132:2172  collection[_collection].isActive = false */\n      dup1\n      sload\n      not(0xff)\n      and\n      swap1\n      sstore\n        /* \"OasisLend.sol\":2055:2180  function removeCollection(address _collection) external onlyOwner {... */\n      jump\t// out\n        /* \"@openzeppelin/contracts/access/Ownable.sol\":1831:1932   */\n    tag_59:\n        /* \"@openzeppelin/contracts/access/Ownable.sol\":1094:1107   */\n      tag_184\n        /* \"@openzeppelin/contracts/access/Ownable.sol\":1094:1105   */\n      tag_99\n        /* \"@openzeppelin/contracts/access/Ownable.sol\":1094:1107   */\n      jump\t// in\n    tag_184:\n        /* \"@openzeppelin/contracts/access/Ownable.sol\":1895:1925   */\n      tag_104\n        /* \"@openzeppelin/contracts/access/Ownable.sol\":1922:1923   */\n      0x00\n        /* \"@openzeppelin/contracts/access/Ownable.sol\":1895:1913   */\n      tag_187\n        /* \"@openzeppelin/contracts/access/Ownable.sol\":1895:1925   */\n      jump\t// in\n        /* \"OasisLend.sol\":1519:1580  function pause() public onlyOwner {... */\n    tag_62:\n        /* \"@openzeppelin/contracts/access/Ownable.sol\":1094:1107   */\n      tag_189\n        /* \"@openzeppelin/contracts/access/Ownable.sol\":1094:1105   */\n      tag_99\n        /* \"@openzeppelin/contracts/access/Ownable.sol\":1094:1107   */\n      jump\t// in\n    tag_189:\n        /* \"OasisLend.sol\":1564:1572  _pause() */\n      tag_104\n        /* \"OasisLend.sol\":1564:1570  _pause */\n      tag_192\n        /* \"OasisLend.sol\":1564:1572  _pause() */\n      jump\t// in\n        /* \"OasisLend.sol\":5306:6214  function getBorrowAmount(... */\n    tag_67:\n        /* \"OasisLend.sol\":5504:5518  stateVariables */\n      0x01\n        /* \"OasisLend.sol\":5504:5532  stateVariables.evolvedCamels */\n      sload\n        /* \"OasisLend.sol\":5496:5550  IERC721(stateVariables.evolvedCamels).balanceOf(_user) */\n      mload(0x40)\n      shl(0xe0, 0x70a08231)\n      dup2\n      mstore\n      sub(shl(0xa0, 0x01), 0x01)\n        /* \"#utility.yul\":5771:5826   */\n      dup6\n      dup2\n      and\n        /* \"OasisLend.sol\":5496:5550  IERC721(stateVariables.evolvedCamels).balanceOf(_user) */\n      0x04\n      dup4\n      add\n        /* \"#utility.yul\":5753:5827   */\n      mstore\n        /* \"OasisLend.sol\":5444:5465  uint256 borrowAmount_ */\n      0x00\n      swap3\n      dup4\n      swap3\n        /* \"OasisLend.sol\":5504:5532  stateVariables.evolvedCamels */\n      swap2\n      and\n      swap1\n        /* \"OasisLend.sol\":5496:5543  IERC721(stateVariables.evolvedCamels).balanceOf */\n      0x70a08231\n      swap1\n        /* \"#utility.yul\":5726:5744   */\n      0x24\n      add\n        /* \"OasisLend.sol\":5496:5550  IERC721(stateVariables.evolvedCamels).balanceOf(_user) */\n      0x20\n      mload(0x40)\n      dup1\n      dup4\n      sub\n      dup2\n      dup7\n      gas\n      staticcall\n      iszero\n      dup1\n      iszero\n      tag_196\n      jumpi\n      returndatasize\n      0x00\n      dup1\n      returndatacopy\n      revert(0x00, returndatasize)\n    tag_196:\n      pop\n      pop\n      pop\n      pop\n      mload(0x40)\n      returndatasize\n      not(0x1f)\n      0x1f\n      dup3\n      add\n      and\n      dup3\n      add\n      dup1\n      0x40\n      mstore\n      pop\n      dup2\n      add\n      swap1\n      tag_197\n      swap2\n      swap1\n      tag_198\n      jump\t// in\n    tag_197:\n      sub(shl(0xa0, 0x01), 0x01)\n        /* \"OasisLend.sol\":5587:5610  collection[_collection] */\n      dup6\n      and\n        /* \"OasisLend.sol\":5561:5584  uint256 collectionFloor */\n      0x00\n        /* \"OasisLend.sol\":5587:5610  collection[_collection] */\n      swap1\n      dup2\n      mstore\n        /* \"OasisLend.sol\":5587:5597  collection */\n      0x0d\n        /* \"OasisLend.sol\":5587:5610  collection[_collection] */\n      0x20\n      mstore\n      0x40\n      dup2\n      keccak256\n        /* \"OasisLend.sol\":5587:5616  collection[_collection].floor */\n      0x01\n      add\n      sload\n        /* \"OasisLend.sol\":5478:5550  uint256 ecOwned = IERC721(stateVariables.evolvedCamels).balanceOf(_user) */\n      swap2\n      swap3\n      pop\n        /* \"OasisLend.sol\":5653:5683  _tokenAmount * collectionFloor */\n      tag_199\n        /* \"OasisLend.sol\":5587:5616  collection[_collection].floor */\n      dup3\n        /* \"OasisLend.sol\":5653:5665  _tokenAmount */\n      dup7\n        /* \"OasisLend.sol\":5653:5683  _tokenAmount * collectionFloor */\n      tag_133\n      jump\t// in\n    tag_199:\n        /* \"OasisLend.sol\":5711:5744  stateVariables.innerCircleBalance */\n      sload(0x0a)\n        /* \"OasisLend.sol\":5627:5683  uint256 totalFloorValue = _tokenAmount * collectionFloor */\n      swap1\n      swap2\n      pop\n        /* \"OasisLend.sol\":5700:5744  ecOwned >= stateVariables.innerCircleBalance */\n      dup4\n      lt\n        /* \"OasisLend.sol\":5696:6207  if (ecOwned >= stateVariables.innerCircleBalance) {... */\n      tag_200\n      jumpi\n        /* \"OasisLend.sol\":5787:5817  stateVariables.innerCircleRate */\n      sload(0x07)\n        /* \"OasisLend.sol\":5821:5824  100 */\n      0x64\n      swap1\n        /* \"OasisLend.sol\":5769:5817  totalFloorValue * stateVariables.innerCircleRate */\n      tag_201\n      swap1\n        /* \"OasisLend.sol\":5769:5784  totalFloorValue */\n      dup4\n        /* \"OasisLend.sol\":5769:5817  totalFloorValue * stateVariables.innerCircleRate */\n      tag_133\n      jump\t// in\n    tag_201:\n        /* \"OasisLend.sol\":5768:5824  (totalFloorValue * stateVariables.innerCircleRate) / 100 */\n      tag_202\n      swap2\n      swap1\n      tag_203\n      jump\t// in\n    tag_202:\n        /* \"OasisLend.sol\":5761:5824  return (totalFloorValue * stateVariables.innerCircleRate) / 100 */\n      swap4\n      pop\n      pop\n      pop\n      pop\n      jump(tag_193)\n        /* \"OasisLend.sol\":5696:6207  if (ecOwned >= stateVariables.innerCircleBalance) {... */\n    tag_200:\n        /* \"OasisLend.sol\":5857:5886  stateVariables.cavalryBalance */\n      sload(0x09)\n        /* \"OasisLend.sol\":5846:5886  ecOwned >= stateVariables.cavalryBalance */\n      dup4\n      lt\n        /* \"OasisLend.sol\":5842:6207  if (ecOwned >= stateVariables.cavalryBalance) {... */\n      tag_205\n      jumpi\n        /* \"OasisLend.sol\":5929:5955  stateVariables.cavalryRate */\n      sload(0x06)\n        /* \"OasisLend.sol\":5959:5962  100 */\n      0x64\n      swap1\n        /* \"OasisLend.sol\":5911:5955  totalFloorValue * stateVariables.cavalryRate */\n      tag_201\n      swap1\n        /* \"OasisLend.sol\":5911:5926  totalFloorValue */\n      dup4\n        /* \"OasisLend.sol\":5911:5955  totalFloorValue * stateVariables.cavalryRate */\n      tag_133\n      jump\t// in\n        /* \"OasisLend.sol\":5842:6207  if (ecOwned >= stateVariables.cavalryBalance) {... */\n    tag_205:\n        /* \"OasisLend.sol\":5995:6024  stateVariables.evolvedBalance */\n      sload(0x08)\n        /* \"OasisLend.sol\":5984:6024  ecOwned >= stateVariables.evolvedBalance */\n      dup4\n      lt\n        /* \"OasisLend.sol\":5980:6207  if (ecOwned >= stateVariables.evolvedBalance) {... */\n      tag_209\n      jumpi\n        /* \"OasisLend.sol\":6067:6093  stateVariables.evolvedRate */\n      sload(0x05)\n        /* \"OasisLend.sol\":6097:6100  100 */\n      0x64\n      swap1\n        /* \"OasisLend.sol\":6049:6093  totalFloorValue * stateVariables.evolvedRate */\n      tag_201\n      swap1\n        /* \"OasisLend.sol\":6049:6064  totalFloorValue */\n      dup4\n        /* \"OasisLend.sol\":6049:6093  totalFloorValue * stateVariables.evolvedRate */\n      tag_133\n      jump\t// in\n        /* \"OasisLend.sol\":5980:6207  if (ecOwned >= stateVariables.evolvedBalance) {... */\n    tag_209:\n        /* \"OasisLend.sol\":6159:6188  stateVariables.nonEvolvedRate */\n      sload(0x04)\n        /* \"OasisLend.sol\":6192:6195  100 */\n      0x64\n      swap1\n        /* \"OasisLend.sol\":6141:6188  totalFloorValue * stateVariables.nonEvolvedRate */\n      tag_201\n      swap1\n        /* \"OasisLend.sol\":6141:6156  totalFloorValue */\n      dup4\n        /* \"OasisLend.sol\":6141:6188  totalFloorValue * stateVariables.nonEvolvedRate */\n      tag_133\n      jump\t// in\n        /* \"OasisLend.sol\":5306:6214  function getBorrowAmount(... */\n    tag_193:\n      swap4\n      swap3\n      pop\n      pop\n      pop\n      jump\t// out\n        /* \"OasisLend.sol\":1661:1709  function deposit() external payable onlyOwner {} */\n    tag_82:\n        /* \"@openzeppelin/contracts/access/Ownable.sol\":1094:1107   */\n      tag_104\n        /* \"@openzeppelin/contracts/access/Ownable.sol\":1094:1105   */\n      tag_99\n        /* \"@openzeppelin/contracts/access/Ownable.sol\":1094:1107   */\n      jump\t// in\n        /* \"@openzeppelin/contracts/access/Ownable.sol\":2081:2279   */\n    tag_92:\n        /* \"@openzeppelin/contracts/access/Ownable.sol\":1094:1107   */\n      tag_220\n        /* \"@openzeppelin/contracts/access/Ownable.sol\":1094:1105   */\n      tag_99\n        /* \"@openzeppelin/contracts/access/Ownable.sol\":1094:1107   */\n      jump\t// in\n    tag_220:\n      sub(shl(0xa0, 0x01), 0x01)\n        /* \"@openzeppelin/contracts/access/Ownable.sol\":2169:2191   */\n      dup2\n      and\n        /* \"@openzeppelin/contracts/access/Ownable.sol\":2161:2234   */\n      tag_222\n      jumpi\n      mload(0x40)\n      shl(0xe5, 0x461bcd)\n      dup2\n      mstore\n        /* \"#utility.yul\":8538:8540   */\n      0x20\n        /* \"@openzeppelin/contracts/access/Ownable.sol\":2161:2234   */\n      0x04\n      dup3\n      add\n        /* \"#utility.yul\":8520:8541   */\n      mstore\n        /* \"#utility.yul\":8577:8579   */\n      0x26\n        /* \"#utility.yul\":8557:8575   */\n      0x24\n      dup3\n      add\n        /* \"#utility.yul\":8550:8580   */\n      mstore\n        /* \"#utility.yul\":8616:8650   */\n      0x4f776e61626c653a206e6577206f776e657220697320746865207a65726f2061\n        /* \"#utility.yul\":8596:8614   */\n      0x44\n      dup3\n      add\n        /* \"#utility.yul\":8589:8651   */\n      mstore\n        /* \"#utility.yul\":8687:8695   */\n      0x6464726573730000000000000000000000000000000000000000000000000000\n        /* \"#utility.yul\":8667:8685   */\n      0x64\n      dup3\n      add\n        /* \"#utility.yul\":8660:8696   */\n      mstore\n        /* \"#utility.yul\":8713:8732   */\n      0x84\n      add\n        /* \"@openzeppelin/contracts/access/Ownable.sol\":2161:2234   */\n    tag_223:\n      mload(0x40)\n      dup1\n      swap2\n      sub\n      swap1\n      revert\n    tag_222:\n        /* \"@openzeppelin/contracts/access/Ownable.sol\":2244:2272   */\n      tag_225\n        /* \"@openzeppelin/contracts/access/Ownable.sol\":2263:2271   */\n      dup2\n        /* \"@openzeppelin/contracts/access/Ownable.sol\":2244:2262   */\n      tag_187\n        /* \"@openzeppelin/contracts/access/Ownable.sol\":2244:2272   */\n      jump\t// in\n    tag_225:\n        /* \"@openzeppelin/contracts/access/Ownable.sol\":2081:2279   */\n      pop\n      jump\t// out\n        /* \"OasisLend.sol\":2188:2329  function setCollectionFloor(address _collection, uint256 _floor) external onlyOwner {... */\n    tag_96:\n        /* \"@openzeppelin/contracts/access/Ownable.sol\":1094:1107   */\n      tag_227\n        /* \"@openzeppelin/contracts/access/Ownable.sol\":1094:1105   */\n      tag_99\n        /* \"@openzeppelin/contracts/access/Ownable.sol\":1094:1107   */\n      jump\t// in\n    tag_227:\n      sub(shl(0xa0, 0x01), 0x01)\n        /* \"OasisLend.sol\":2283:2306  collection[_collection] */\n      swap1\n      swap2\n      and\n      0x00\n      swap1\n      dup2\n      mstore\n        /* \"OasisLend.sol\":2283:2293  collection */\n      0x0d\n        /* \"OasisLend.sol\":2283:2306  collection[_collection] */\n      0x20\n      mstore\n      0x40\n      swap1\n      keccak256\n        /* \"OasisLend.sol\":2283:2312  collection[_collection].floor */\n      0x01\n      add\n        /* \"OasisLend.sol\":2283:2321  collection[_collection].floor = _floor */\n      sstore\n        /* \"OasisLend.sol\":2188:2329  function setCollectionFloor(address _collection, uint256 _floor) external onlyOwner {... */\n      jump\t// out\n        /* \"@openzeppelin/contracts/access/Ownable.sol\":1359:1489   */\n    tag_99:\n        /* \"@openzeppelin/contracts/access/Ownable.sol\":1247:1254   */\n      0x00\n        /* \"@openzeppelin/contracts/access/Ownable.sol\":1273:1279   */\n      sload\n      sub(shl(0xa0, 0x01), 0x01)\n      and\n        /* \"@openzeppelin/contracts/utils/Context.sol\":719:729   */\n      caller\n        /* \"@openzeppelin/contracts/access/Ownable.sol\":1422:1445   */\n      eq\n        /* \"@openzeppelin/contracts/access/Ownable.sol\":1414:1482   */\n      tag_104\n      jumpi\n      mload(0x40)\n      shl(0xe5, 0x461bcd)\n      dup2\n      mstore\n        /* \"#utility.yul\":8945:8947   */\n      0x20\n        /* \"@openzeppelin/contracts/access/Ownable.sol\":1414:1482   */\n      0x04\n      dup3\n      add\n        /* \"#utility.yul\":8927:8948   */\n      dup2\n      swap1\n      mstore\n        /* \"#utility.yul\":8964:8982   */\n      0x24\n      dup3\n      add\n        /* \"#utility.yul\":8957:8987   */\n      mstore\n        /* \"#utility.yul\":9023:9057   */\n      0x4f776e61626c653a2063616c6c6572206973206e6f7420746865206f776e6572\n        /* \"#utility.yul\":9003:9021   */\n      0x44\n      dup3\n      add\n        /* \"#utility.yul\":8996:9058   */\n      mstore\n        /* \"#utility.yul\":9075:9093   */\n      0x64\n      add\n        /* \"@openzeppelin/contracts/access/Ownable.sol\":1414:1482   */\n      tag_223\n        /* \"#utility.yul\":8743:9099   */\n      jump\n        /* \"@openzeppelin/contracts/security/Pausable.sol\":2433:2550   */\n    tag_105:\n        /* \"@openzeppelin/contracts/security/Pausable.sol\":1486:1502   */\n      tag_237\n        /* \"@openzeppelin/contracts/security/Pausable.sol\":1486:1500   */\n      tag_238\n        /* \"@openzeppelin/contracts/security/Pausable.sol\":1486:1502   */\n      jump\t// in\n    tag_237:\n        /* \"@openzeppelin/contracts/security/Pausable.sol\":2501:2506   */\n      0x00\n        /* \"@openzeppelin/contracts/security/Pausable.sol\":2491:2506   */\n      dup1\n      sload\n      not(shl(0xa0, 0xff))\n      and\n      swap1\n      sstore\n        /* \"@openzeppelin/contracts/security/Pausable.sol\":2521:2543   */\n      0x5db9ee0a495bf2e6ff9c91a7834c1ba4fdd244a5e8aa4e537bd38aeae4b073aa\n        /* \"@openzeppelin/contracts/utils/Context.sol\":719:729   */\n      caller\n        /* \"@openzeppelin/contracts/security/Pausable.sol\":2530:2542   */\n    tag_240:\n        /* \"@openzeppelin/contracts/security/Pausable.sol\":2521:2543   */\n      mload(0x40)\n      sub(shl(0xa0, 0x01), 0x01)\n        /* \"#utility.yul\":5771:5826   */\n      swap1\n      swap2\n      and\n        /* \"#utility.yul\":5753:5827   */\n      dup2\n      mstore\n        /* \"#utility.yul\":5741:5743   */\n      0x20\n        /* \"#utility.yul\":5726:5744   */\n      add\n        /* \"@openzeppelin/contracts/security/Pausable.sol\":2521:2543   */\n      mload(0x40)\n      dup1\n      swap2\n      sub\n      swap1\n      log1\n        /* \"@openzeppelin/contracts/security/Pausable.sol\":2433:2550   */\n      jump\t// out\n        /* \"OasisLend.sol\":6594:6823  function _isTooLate(Loan memory _loan) internal view returns (bool isActive_) {... */\n    tag_111:\n        /* \"OasisLend.sol\":6753:6779  stateVariables.gracePeriod */\n      sload(0x0b)\n        /* \"OasisLend.sol\":6723:6750  stateVariables.loanDuration */\n      sload(0x02)\n        /* \"OasisLend.sol\":6705:6720  _loan.loanStart */\n      0x20\n      dup4\n      add\n      mload\n        /* \"OasisLend.sol\":6656:6670  bool isActive_ */\n      0x00\n      swap3\n        /* \"OasisLend.sol\":6753:6779  stateVariables.gracePeriod */\n      swap2\n        /* \"OasisLend.sol\":6705:6750  _loan.loanStart + stateVariables.loanDuration */\n      tag_243\n      swap2\n      tag_120\n      jump\t// in\n    tag_243:\n        /* \"OasisLend.sol\":6705:6779  _loan.loanStart + stateVariables.loanDuration + stateVariables.gracePeriod */\n      tag_244\n      swap2\n      swap1\n      tag_120\n      jump\t// in\n    tag_244:\n        /* \"OasisLend.sol\":6687:6702  block.timestamp */\n      timestamp\n        /* \"OasisLend.sol\":6687:6779  block.timestamp > _loan.loanStart + stateVariables.loanDuration + stateVariables.gracePeriod */\n      gt\n        /* \"OasisLend.sol\":6683:6792  if (block.timestamp > _loan.loanStart + stateVariables.loanDuration + stateVariables.gracePeriod) return true */\n      iszero\n      tag_245\n      jumpi\n      pop\n        /* \"OasisLend.sol\":6788:6792  true */\n      0x01\n      swap2\n        /* \"OasisLend.sol\":6594:6823  function _isTooLate(Loan memory _loan) internal view returns (bool isActive_) {... */\n      swap1\n      pop\n      jump\t// out\n        /* \"OasisLend.sol\":6683:6792  if (block.timestamp > _loan.loanStart + stateVariables.loanDuration + stateVariables.gracePeriod) return true */\n    tag_245:\n      pop\n        /* \"OasisLend.sol\":6810:6815  false */\n      0x00\n      swap2\n        /* \"OasisLend.sol\":6594:6823  function _isTooLate(Loan memory _loan) internal view returns (bool isActive_) {... */\n      swap1\n      pop\n      jump\t// out\n        /* \"OasisLend.sol\":6256:6586  function _isLate(Loan memory _loan) internal view returns (bool isActive_) {... */\n    tag_116:\n        /* \"OasisLend.sol\":6396:6423  stateVariables.loanDuration */\n      sload(0x02)\n        /* \"OasisLend.sol\":6378:6393  _loan.loanStart */\n      0x20\n      dup3\n      add\n      mload\n        /* \"OasisLend.sol\":6315:6329  bool isActive_ */\n      0x00\n      swap2\n        /* \"OasisLend.sol\":6378:6423  _loan.loanStart + stateVariables.loanDuration */\n      tag_247\n      swap2\n      tag_120\n      jump\t// in\n    tag_247:\n        /* \"OasisLend.sol\":6360:6375  block.timestamp */\n      timestamp\n        /* \"OasisLend.sol\":6360:6423  block.timestamp > _loan.loanStart + stateVariables.loanDuration */\n      gt\n        /* \"OasisLend.sol\":6360:6532  block.timestamp > _loan.loanStart + stateVariables.loanDuration &&... */\n      dup1\n      iszero\n      tag_248\n      jumpi\n      pop\n        /* \"OasisLend.sol\":6506:6532  stateVariables.gracePeriod */\n      sload(0x0b)\n        /* \"OasisLend.sol\":6476:6503  stateVariables.loanDuration */\n      sload(0x02)\n        /* \"OasisLend.sol\":6458:6473  _loan.loanStart */\n      0x20\n      dup5\n      add\n      mload\n        /* \"OasisLend.sol\":6458:6503  _loan.loanStart + stateVariables.loanDuration */\n      tag_249\n      swap2\n        /* \"OasisLend.sol\":6476:6503  stateVariables.loanDuration */\n      swap1\n        /* \"OasisLend.sol\":6458:6503  _loan.loanStart + stateVariables.loanDuration */\n      tag_120\n      jump\t// in\n    tag_249:\n        /* \"OasisLend.sol\":6458:6532  _loan.loanStart + stateVariables.loanDuration + stateVariables.gracePeriod */\n      tag_250\n      swap2\n      swap1\n      tag_120\n      jump\t// in\n    tag_250:\n        /* \"OasisLend.sol\":6440:6455  block.timestamp */\n      timestamp\n        /* \"OasisLend.sol\":6440:6532  block.timestamp < _loan.loanStart + stateVariables.loanDuration + stateVariables.gracePeriod */\n      lt\n        /* \"OasisLend.sol\":6360:6532  block.timestamp > _loan.loanStart + stateVariables.loanDuration &&... */\n    tag_248:\n        /* \"OasisLend.sol\":6342:6555  if (... */\n      iszero\n      tag_245\n      jumpi\n      pop\n        /* \"OasisLend.sol\":6551:6555  true */\n      0x01\n      swap2\n        /* \"OasisLend.sol\":6256:6586  function _isLate(Loan memory _loan) internal view returns (bool isActive_) {... */\n      swap1\n      pop\n      jump\t// out\n        /* \"@openzeppelin/contracts/security/Pausable.sol\":1767:1873   */\n    tag_126:\n        /* \"@openzeppelin/contracts/security/Pausable.sol\":1662:1666   */\n      0x00\n        /* \"@openzeppelin/contracts/security/Pausable.sol\":1685:1692   */\n      sload\n      shl(0xa0, 0x01)\n      swap1\n      div\n      0xff\n      and\n        /* \"@openzeppelin/contracts/security/Pausable.sol\":1836:1845   */\n      iszero\n        /* \"@openzeppelin/contracts/security/Pausable.sol\":1828:1866   */\n      tag_104\n      jumpi\n      mload(0x40)\n      shl(0xe5, 0x461bcd)\n      dup2\n      mstore\n        /* \"#utility.yul\":9306:9308   */\n      0x20\n        /* \"@openzeppelin/contracts/security/Pausable.sol\":1828:1866   */\n      0x04\n      dup3\n      add\n        /* \"#utility.yul\":9288:9309   */\n      mstore\n        /* \"#utility.yul\":9345:9347   */\n      0x10\n        /* \"#utility.yul\":9325:9343   */\n      0x24\n      dup3\n      add\n        /* \"#utility.yul\":9318:9348   */\n      mstore\n        /* \"#utility.yul\":9384:9402   */\n      0x5061757361626c653a2070617573656400000000000000000000000000000000\n        /* \"#utility.yul\":9364:9382   */\n      0x44\n      dup3\n      add\n        /* \"#utility.yul\":9357:9403   */\n      mstore\n        /* \"#utility.yul\":9420:9438   */\n      0x64\n      add\n        /* \"@openzeppelin/contracts/security/Pausable.sol\":1828:1866   */\n      tag_223\n        /* \"#utility.yul\":9104:9444   */\n      jump\n        /* \"@openzeppelin/contracts/access/Ownable.sol\":2433:2620   */\n    tag_187:\n        /* \"@openzeppelin/contracts/access/Ownable.sol\":2506:2522   */\n      0x00\n        /* \"@openzeppelin/contracts/access/Ownable.sol\":2525:2531   */\n      dup1\n      sload\n      sub(shl(0xa0, 0x01), 0x01)\n        /* \"@openzeppelin/contracts/access/Ownable.sol\":2541:2558   */\n      dup4\n      dup2\n      and\n      not(sub(shl(0xa0, 0x01), 0x01))\n      dup4\n      and\n      dup2\n      or\n      dup5\n      sstore\n        /* \"@openzeppelin/contracts/access/Ownable.sol\":2573:2613   */\n      mload(0x40)\n        /* \"@openzeppelin/contracts/access/Ownable.sol\":2525:2531   */\n      swap2\n      swap1\n      swap3\n      and\n      swap3\n      dup4\n      swap2\n        /* \"@openzeppelin/contracts/access/Ownable.sol\":2573:2613   */\n      0x8be0079c531659141344cd1fd0a4f28419497f9722a3daafe3b4186f6b6457e0\n      swap2\n        /* \"@openzeppelin/contracts/access/Ownable.sol\":2506:2522   */\n      swap1\n        /* \"@openzeppelin/contracts/access/Ownable.sol\":2573:2613   */\n      log3\n        /* \"@openzeppelin/contracts/access/Ownable.sol\":2496:2620   */\n      pop\n        /* \"@openzeppelin/contracts/access/Ownable.sol\":2433:2620   */\n      pop\n      jump\t// out\n        /* \"@openzeppelin/contracts/security/Pausable.sol\":2186:2301   */\n    tag_192:\n        /* \"@openzeppelin/contracts/security/Pausable.sol\":1239:1258   */\n      tag_259\n        /* \"@openzeppelin/contracts/security/Pausable.sol\":1239:1256   */\n      tag_126\n        /* \"@openzeppelin/contracts/security/Pausable.sol\":1239:1258   */\n      jump\t// in\n    tag_259:\n        /* \"@openzeppelin/contracts/security/Pausable.sol\":2245:2252   */\n      0x00\n        /* \"@openzeppelin/contracts/security/Pausable.sol\":2245:2259   */\n      dup1\n      sload\n      not(shl(0xa0, 0xff))\n      and\n      shl(0xa0, 0x01)\n      or\n      swap1\n      sstore\n        /* \"@openzeppelin/contracts/security/Pausable.sol\":2274:2294   */\n      0x62e78cea01bee320cd4e420270b5ea74000d11b0c9f74754ebdbfc544b05a258\n        /* \"@openzeppelin/contracts/security/Pausable.sol\":2281:2293   */\n      tag_240\n        /* \"@openzeppelin/contracts/utils/Context.sol\":719:729   */\n      caller\n      swap1\n        /* \"@openzeppelin/contracts/utils/Context.sol\":640:736   */\n      jump\n        /* \"@openzeppelin/contracts/security/Pausable.sol\":1945:2051   */\n    tag_238:\n        /* \"@openzeppelin/contracts/security/Pausable.sol\":1662:1666   */\n      0x00\n        /* \"@openzeppelin/contracts/security/Pausable.sol\":1685:1692   */\n      sload\n      shl(0xa0, 0x01)\n      swap1\n      div\n      0xff\n      and\n        /* \"@openzeppelin/contracts/security/Pausable.sol\":2003:2044   */\n      tag_104\n      jumpi\n      mload(0x40)\n      shl(0xe5, 0x461bcd)\n      dup2\n      mstore\n        /* \"#utility.yul\":9651:9653   */\n      0x20\n        /* \"@openzeppelin/contracts/security/Pausable.sol\":2003:2044   */\n      0x04\n      dup3\n      add\n        /* \"#utility.yul\":9633:9654   */\n      mstore\n        /* \"#utility.yul\":9690:9692   */\n      0x14\n        /* \"#utility.yul\":9670:9688   */\n      0x24\n      dup3\n      add\n        /* \"#utility.yul\":9663:9693   */\n      mstore\n        /* \"#utility.yul\":9729:9751   */\n      0x5061757361626c653a206e6f7420706175736564000000000000000000000000\n        /* \"#utility.yul\":9709:9727   */\n      0x44\n      dup3\n      add\n        /* \"#utility.yul\":9702:9752   */\n      mstore\n        /* \"#utility.yul\":9769:9787   */\n      0x64\n      add\n        /* \"@openzeppelin/contracts/security/Pausable.sol\":2003:2044   */\n      tag_223\n        /* \"#utility.yul\":9449:9793   */\n      jump\n    tag_123:\n      pop\n      dup1\n      sload\n      0x00\n      dup3\n      sstore\n      swap1\n      0x00\n      mstore\n      keccak256(0x00, 0x20)\n      swap1\n      dup2\n      add\n      swap1\n      tag_225\n      swap2\n      swap1\n      tag_271\n      jump\t// in\n    tag_175:\n      dup3\n      dup1\n      sload\n      dup3\n      dup3\n      sstore\n      swap1\n      0x00\n      mstore\n      keccak256(0x00, 0x20)\n      swap1\n      dup2\n      add\n      swap3\n      dup3\n      iszero\n      tag_274\n      jumpi\n      swap2\n      0x20\n      mul\n      dup3\n      add\n    tag_273:\n      dup3\n      dup2\n      gt\n      iszero\n      tag_274\n      jumpi\n      dup3\n      mload\n      dup3\n      sstore\n      swap2\n      0x20\n      add\n      swap2\n      swap1\n      0x01\n      add\n      swap1\n      jump(tag_273)\n    tag_274:\n      pop\n      tag_275\n      swap3\n      swap2\n      pop\n      tag_271\n      jump\t// in\n    tag_275:\n      pop\n      swap1\n      jump\t// out\n    tag_271:\n    tag_276:\n      dup1\n      dup3\n      gt\n      iszero\n      tag_275\n      jumpi\n      0x00\n      dup2\n      sstore\n      0x01\n      add\n      jump(tag_276)\n        /* \"#utility.yul\":14:168   */\n    tag_278:\n      sub(shl(0xa0, 0x01), 0x01)\n        /* \"#utility.yul\":93:98   */\n      dup2\n        /* \"#utility.yul\":89:143   */\n      and\n        /* \"#utility.yul\":82:87   */\n      dup2\n        /* \"#utility.yul\":79:144   */\n      eq\n        /* \"#utility.yul\":69:162   */\n      tag_225\n      jumpi\n        /* \"#utility.yul\":158:159   */\n      0x00\n        /* \"#utility.yul\":155:156   */\n      dup1\n        /* \"#utility.yul\":148:160   */\n      revert\n        /* \"#utility.yul\":173:307   */\n    tag_279:\n        /* \"#utility.yul\":241:261   */\n      dup1\n      calldataload\n        /* \"#utility.yul\":270:301   */\n      tag_288\n        /* \"#utility.yul\":241:261   */\n      dup2\n        /* \"#utility.yul\":270:301   */\n      tag_278\n      jump\t// in\n    tag_288:\n        /* \"#utility.yul\":173:307   */\n      swap2\n      swap1\n      pop\n      jump\t// out\n        /* \"#utility.yul\":312:627   */\n    tag_26:\n        /* \"#utility.yul\":380:386   */\n      0x00\n        /* \"#utility.yul\":388:394   */\n      dup1\n        /* \"#utility.yul\":441:443   */\n      0x40\n        /* \"#utility.yul\":429:438   */\n      dup4\n        /* \"#utility.yul\":420:427   */\n      dup6\n        /* \"#utility.yul\":416:439   */\n      sub\n        /* \"#utility.yul\":412:444   */\n      slt\n        /* \"#utility.yul\":409:461   */\n      iszero\n      tag_290\n      jumpi\n        /* \"#utility.yul\":457:458   */\n      0x00\n        /* \"#utility.yul\":454:455   */\n      dup1\n        /* \"#utility.yul\":447:459   */\n      revert\n        /* \"#utility.yul\":409:461   */\n    tag_290:\n        /* \"#utility.yul\":496:505   */\n      dup3\n        /* \"#utility.yul\":483:506   */\n      calldataload\n        /* \"#utility.yul\":515:546   */\n      tag_291\n        /* \"#utility.yul\":540:545   */\n      dup2\n        /* \"#utility.yul\":515:546   */\n      tag_278\n      jump\t// in\n    tag_291:\n        /* \"#utility.yul\":565:570   */\n      swap5\n        /* \"#utility.yul\":617:619   */\n      0x20\n        /* \"#utility.yul\":602:620   */\n      swap4\n      swap1\n      swap4\n      add\n        /* \"#utility.yul\":589:621   */\n      calldataload\n      swap4\n      pop\n      pop\n      pop\n        /* \"#utility.yul\":312:627   */\n      jump\t// out\n        /* \"#utility.yul\":632:759   */\n    tag_280:\n        /* \"#utility.yul\":693:703   */\n      0x4e487b71\n        /* \"#utility.yul\":688:691   */\n      0xe0\n        /* \"#utility.yul\":684:704   */\n      shl\n        /* \"#utility.yul\":681:682   */\n      0x00\n        /* \"#utility.yul\":674:705   */\n      mstore\n        /* \"#utility.yul\":724:728   */\n      0x41\n        /* \"#utility.yul\":721:722   */\n      0x04\n        /* \"#utility.yul\":714:729   */\n      mstore\n        /* \"#utility.yul\":748:752   */\n      0x24\n        /* \"#utility.yul\":745:746   */\n      0x00\n        /* \"#utility.yul\":738:753   */\n      revert\n        /* \"#utility.yul\":764:1016   */\n    tag_281:\n        /* \"#utility.yul\":836:838   */\n      0x40\n        /* \"#utility.yul\":830:839   */\n      mload\n        /* \"#utility.yul\":878:881   */\n      0x0180\n        /* \"#utility.yul\":866:882   */\n      dup2\n      add\n        /* \"#utility.yul\":912:930   */\n      0xffffffffffffffff\n        /* \"#utility.yul\":897:931   */\n      dup2\n      gt\n        /* \"#utility.yul\":933:955   */\n      dup3\n      dup3\n      lt\n        /* \"#utility.yul\":894:956   */\n      or\n        /* \"#utility.yul\":891:979   */\n      iszero\n      tag_295\n      jumpi\n        /* \"#utility.yul\":959:977   */\n      tag_295\n      tag_280\n      jump\t// in\n    tag_295:\n        /* \"#utility.yul\":995:997   */\n      0x40\n        /* \"#utility.yul\":988:1010   */\n      mstore\n        /* \"#utility.yul\":764:1016   */\n      swap1\n      jump\t// out\n        /* \"#utility.yul\":1021:1296   */\n    tag_282:\n        /* \"#utility.yul\":1092:1094   */\n      0x40\n        /* \"#utility.yul\":1086:1095   */\n      mload\n        /* \"#utility.yul\":1157:1159   */\n      0x1f\n        /* \"#utility.yul\":1138:1151   */\n      dup3\n      add\n      not(0x1f)\n        /* \"#utility.yul\":1134:1161   */\n      and\n        /* \"#utility.yul\":1122:1162   */\n      dup2\n      add\n        /* \"#utility.yul\":1192:1210   */\n      0xffffffffffffffff\n        /* \"#utility.yul\":1177:1211   */\n      dup2\n      gt\n        /* \"#utility.yul\":1213:1235   */\n      dup3\n      dup3\n      lt\n        /* \"#utility.yul\":1174:1236   */\n      or\n        /* \"#utility.yul\":1171:1259   */\n      iszero\n      tag_298\n      jumpi\n        /* \"#utility.yul\":1239:1257   */\n      tag_298\n      tag_280\n      jump\t// in\n    tag_298:\n        /* \"#utility.yul\":1275:1277   */\n      0x40\n        /* \"#utility.yul\":1268:1290   */\n      mstore\n        /* \"#utility.yul\":1021:1296   */\n      swap2\n      swap1\n      pop\n      jump\t// out\n        /* \"#utility.yul\":1301:2382   */\n    tag_35:\n        /* \"#utility.yul\":1394:1400   */\n      0x00\n        /* \"#utility.yul\":1402:1408   */\n      dup1\n        /* \"#utility.yul\":1455:1457   */\n      0x40\n        /* \"#utility.yul\":1443:1452   */\n      dup4\n        /* \"#utility.yul\":1434:1441   */\n      dup6\n        /* \"#utility.yul\":1430:1453   */\n      sub\n        /* \"#utility.yul\":1426:1458   */\n      slt\n        /* \"#utility.yul\":1423:1475   */\n      iszero\n      tag_300\n      jumpi\n        /* \"#utility.yul\":1471:1472   */\n      0x00\n        /* \"#utility.yul\":1468:1469   */\n      dup1\n        /* \"#utility.yul\":1461:1473   */\n      revert\n        /* \"#utility.yul\":1423:1475   */\n    tag_300:\n        /* \"#utility.yul\":1510:1519   */\n      dup3\n        /* \"#utility.yul\":1497:1520   */\n      calldataload\n        /* \"#utility.yul\":1529:1560   */\n      tag_301\n        /* \"#utility.yul\":1554:1559   */\n      dup2\n        /* \"#utility.yul\":1529:1560   */\n      tag_278\n      jump\t// in\n    tag_301:\n        /* \"#utility.yul\":1579:1584   */\n      swap2\n      pop\n        /* \"#utility.yul\":1603:1605   */\n      0x20\n        /* \"#utility.yul\":1641:1659   */\n      dup4\n      dup2\n      add\n        /* \"#utility.yul\":1628:1660   */\n      calldataload\n        /* \"#utility.yul\":1679:1697   */\n      0xffffffffffffffff\n        /* \"#utility.yul\":1709:1723   */\n      dup1\n      dup3\n      gt\n        /* \"#utility.yul\":1706:1740   */\n      iszero\n      tag_302\n      jumpi\n        /* \"#utility.yul\":1736:1737   */\n      0x00\n        /* \"#utility.yul\":1733:1734   */\n      dup1\n        /* \"#utility.yul\":1726:1738   */\n      revert\n        /* \"#utility.yul\":1706:1740   */\n    tag_302:\n        /* \"#utility.yul\":1774:1780   */\n      dup2\n        /* \"#utility.yul\":1763:1772   */\n      dup7\n        /* \"#utility.yul\":1759:1781   */\n      add\n        /* \"#utility.yul\":1749:1781   */\n      swap2\n      pop\n        /* \"#utility.yul\":1819:1826   */\n      dup7\n        /* \"#utility.yul\":1812:1816   */\n      0x1f\n        /* \"#utility.yul\":1808:1810   */\n      dup4\n        /* \"#utility.yul\":1804:1817   */\n      add\n        /* \"#utility.yul\":1800:1827   */\n      slt\n        /* \"#utility.yul\":1790:1845   */\n      tag_303\n      jumpi\n        /* \"#utility.yul\":1841:1842   */\n      0x00\n        /* \"#utility.yul\":1838:1839   */\n      dup1\n        /* \"#utility.yul\":1831:1843   */\n      revert\n        /* \"#utility.yul\":1790:1845   */\n    tag_303:\n        /* \"#utility.yul\":1877:1879   */\n      dup2\n        /* \"#utility.yul\":1864:1880   */\n      calldataload\n        /* \"#utility.yul\":1899:1901   */\n      dup2\n        /* \"#utility.yul\":1895:1897   */\n      dup2\n        /* \"#utility.yul\":1892:1902   */\n      gt\n        /* \"#utility.yul\":1889:1925   */\n      iszero\n      tag_305\n      jumpi\n        /* \"#utility.yul\":1905:1923   */\n      tag_305\n      tag_280\n      jump\t// in\n    tag_305:\n        /* \"#utility.yul\":1951:1953   */\n      dup1\n        /* \"#utility.yul\":1948:1949   */\n      0x05\n        /* \"#utility.yul\":1944:1954   */\n      shl\n        /* \"#utility.yul\":1934:1954   */\n      swap2\n      pop\n        /* \"#utility.yul\":1974:2002   */\n      tag_306\n        /* \"#utility.yul\":1998:2000   */\n      dup5\n        /* \"#utility.yul\":1994:1996   */\n      dup4\n        /* \"#utility.yul\":1990:2001   */\n      add\n        /* \"#utility.yul\":1974:2002   */\n      tag_282\n      jump\t// in\n    tag_306:\n        /* \"#utility.yul\":2036:2051   */\n      dup2\n      dup2\n      mstore\n        /* \"#utility.yul\":2106:2117   */\n      swap2\n      dup4\n      add\n        /* \"#utility.yul\":2102:2122   */\n      dup5\n      add\n      swap2\n        /* \"#utility.yul\":2067:2079   */\n      dup5\n      dup2\n      add\n      swap1\n        /* \"#utility.yul\":2134:2153   */\n      dup10\n      dup5\n      gt\n        /* \"#utility.yul\":2131:2170   */\n      iszero\n      tag_307\n      jumpi\n        /* \"#utility.yul\":2166:2167   */\n      0x00\n        /* \"#utility.yul\":2163:2164   */\n      dup1\n        /* \"#utility.yul\":2156:2168   */\n      revert\n        /* \"#utility.yul\":2131:2170   */\n    tag_307:\n        /* \"#utility.yul\":2190:2201   */\n      swap4\n      dup6\n      add\n      swap4\n        /* \"#utility.yul\":2210:2352   */\n    tag_308:\n        /* \"#utility.yul\":2226:2232   */\n      dup4\n        /* \"#utility.yul\":2221:2224   */\n      dup6\n        /* \"#utility.yul\":2218:2233   */\n      lt\n        /* \"#utility.yul\":2210:2352   */\n      iszero\n      tag_310\n      jumpi\n        /* \"#utility.yul\":2292:2309   */\n      dup5\n      calldataload\n        /* \"#utility.yul\":2280:2310   */\n      dup3\n      mstore\n        /* \"#utility.yul\":2243:2255   */\n      swap4\n      dup6\n      add\n      swap4\n        /* \"#utility.yul\":2330:2342   */\n      swap1\n      dup6\n      add\n      swap1\n        /* \"#utility.yul\":2210:2352   */\n      jump(tag_308)\n    tag_310:\n        /* \"#utility.yul\":2371:2376   */\n      dup1\n        /* \"#utility.yul\":2361:2376   */\n      swap7\n      pop\n      pop\n      pop\n      pop\n      pop\n      pop\n      pop\n        /* \"#utility.yul\":1301:2382   */\n      swap3\n      pop\n      swap3\n      swap1\n      pop\n      jump\t// out\n        /* \"#utility.yul\":2387:3490   */\n    tag_40:\n        /* \"#utility.yul\":2478:2484   */\n      0x00\n        /* \"#utility.yul\":2531:2534   */\n      0x0180\n        /* \"#utility.yul\":2519:2528   */\n      dup3\n        /* \"#utility.yul\":2510:2517   */\n      dup5\n        /* \"#utility.yul\":2506:2529   */\n      sub\n        /* \"#utility.yul\":2502:2535   */\n      slt\n        /* \"#utility.yul\":2499:2552   */\n      iszero\n      tag_312\n      jumpi\n        /* \"#utility.yul\":2548:2549   */\n      0x00\n        /* \"#utility.yul\":2545:2546   */\n      dup1\n        /* \"#utility.yul\":2538:2550   */\n      revert\n        /* \"#utility.yul\":2499:2552   */\n    tag_312:\n        /* \"#utility.yul\":2574:2596   */\n      tag_313\n      tag_281\n      jump\t// in\n    tag_313:\n        /* \"#utility.yul\":2619:2648   */\n      tag_314\n        /* \"#utility.yul\":2638:2647   */\n      dup4\n        /* \"#utility.yul\":2619:2648   */\n      tag_279\n      jump\t// in\n    tag_314:\n        /* \"#utility.yul\":2612:2617   */\n      dup2\n        /* \"#utility.yul\":2605:2649   */\n      mstore\n        /* \"#utility.yul\":2709:2711   */\n      0x20\n        /* \"#utility.yul\":2698:2707   */\n      dup4\n        /* \"#utility.yul\":2694:2712   */\n      add\n        /* \"#utility.yul\":2681:2713   */\n      calldataload\n        /* \"#utility.yul\":2676:2678   */\n      0x20\n        /* \"#utility.yul\":2669:2674   */\n      dup3\n        /* \"#utility.yul\":2665:2679   */\n      add\n        /* \"#utility.yul\":2658:2714   */\n      mstore\n        /* \"#utility.yul\":2774:2776   */\n      0x40\n        /* \"#utility.yul\":2763:2772   */\n      dup4\n        /* \"#utility.yul\":2759:2777   */\n      add\n        /* \"#utility.yul\":2746:2778   */\n      calldataload\n        /* \"#utility.yul\":2741:2743   */\n      0x40\n        /* \"#utility.yul\":2734:2739   */\n      dup3\n        /* \"#utility.yul\":2730:2744   */\n      add\n        /* \"#utility.yul\":2723:2779   */\n      mstore\n        /* \"#utility.yul\":2839:2841   */\n      0x60\n        /* \"#utility.yul\":2828:2837   */\n      dup4\n        /* \"#utility.yul\":2824:2842   */\n      add\n        /* \"#utility.yul\":2811:2843   */\n      calldataload\n        /* \"#utility.yul\":2806:2808   */\n      0x60\n        /* \"#utility.yul\":2799:2804   */\n      dup3\n        /* \"#utility.yul\":2795:2809   */\n      add\n        /* \"#utility.yul\":2788:2844   */\n      mstore\n        /* \"#utility.yul\":2905:2908   */\n      0x80\n        /* \"#utility.yul\":2894:2903   */\n      dup4\n        /* \"#utility.yul\":2890:2909   */\n      add\n        /* \"#utility.yul\":2877:2910   */\n      calldataload\n        /* \"#utility.yul\":2871:2874   */\n      0x80\n        /* \"#utility.yul\":2864:2869   */\n      dup3\n        /* \"#utility.yul\":2860:2875   */\n      add\n        /* \"#utility.yul\":2853:2911   */\n      mstore\n        /* \"#utility.yul\":2972:2975   */\n      0xa0\n        /* \"#utility.yul\":2961:2970   */\n      dup4\n        /* \"#utility.yul\":2957:2976   */\n      add\n        /* \"#utility.yul\":2944:2977   */\n      calldataload\n        /* \"#utility.yul\":2938:2941   */\n      0xa0\n        /* \"#utility.yul\":2931:2936   */\n      dup3\n        /* \"#utility.yul\":2927:2942   */\n      add\n        /* \"#utility.yul\":2920:2978   */\n      mstore\n        /* \"#utility.yul\":3039:3042   */\n      0xc0\n        /* \"#utility.yul\":3028:3037   */\n      dup4\n        /* \"#utility.yul\":3024:3043   */\n      add\n        /* \"#utility.yul\":3011:3044   */\n      calldataload\n        /* \"#utility.yul\":3005:3008   */\n      0xc0\n        /* \"#utility.yul\":2998:3003   */\n      dup3\n        /* \"#utility.yul\":2994:3009   */\n      add\n        /* \"#utility.yul\":2987:3045   */\n      mstore\n        /* \"#utility.yul\":3106:3109   */\n      0xe0\n        /* \"#utility.yul\":3095:3104   */\n      dup4\n        /* \"#utility.yul\":3091:3110   */\n      add\n        /* \"#utility.yul\":3078:3111   */\n      calldataload\n        /* \"#utility.yul\":3072:3075   */\n      0xe0\n        /* \"#utility.yul\":3065:3070   */\n      dup3\n        /* \"#utility.yul\":3061:3076   */\n      add\n        /* \"#utility.yul\":3054:3112   */\n      mstore\n        /* \"#utility.yul\":3131:3134   */\n      0x0100\n        /* \"#utility.yul\":3194:3196   */\n      dup1\n        /* \"#utility.yul\":3183:3192   */\n      dup5\n        /* \"#utility.yul\":3179:3197   */\n      add\n        /* \"#utility.yul\":3166:3198   */\n      calldataload\n        /* \"#utility.yul\":3161:3163   */\n      dup2\n        /* \"#utility.yul\":3154:3159   */\n      dup4\n        /* \"#utility.yul\":3150:3164   */\n      add\n        /* \"#utility.yul\":3143:3199   */\n      mstore\n      pop\n        /* \"#utility.yul\":3218:3221   */\n      0x0120\n        /* \"#utility.yul\":3281:3283   */\n      dup1\n        /* \"#utility.yul\":3270:3279   */\n      dup5\n        /* \"#utility.yul\":3266:3284   */\n      add\n        /* \"#utility.yul\":3253:3285   */\n      calldataload\n        /* \"#utility.yul\":3248:3250   */\n      dup2\n        /* \"#utility.yul\":3241:3246   */\n      dup4\n        /* \"#utility.yul\":3237:3251   */\n      add\n        /* \"#utility.yul\":3230:3286   */\n      mstore\n      pop\n        /* \"#utility.yul\":3305:3308   */\n      0x0140\n        /* \"#utility.yul\":3368:3370   */\n      dup1\n        /* \"#utility.yul\":3357:3366   */\n      dup5\n        /* \"#utility.yul\":3353:3371   */\n      add\n        /* \"#utility.yul\":3340:3372   */\n      calldataload\n        /* \"#utility.yul\":3335:3337   */\n      dup2\n        /* \"#utility.yul\":3328:3333   */\n      dup4\n        /* \"#utility.yul\":3324:3338   */\n      add\n        /* \"#utility.yul\":3317:3373   */\n      mstore\n      pop\n        /* \"#utility.yul\":3392:3395   */\n      0x0160\n        /* \"#utility.yul\":3455:3457   */\n      dup1\n        /* \"#utility.yul\":3444:3453   */\n      dup5\n        /* \"#utility.yul\":3440:3458   */\n      add\n        /* \"#utility.yul\":3427:3459   */\n      calldataload\n        /* \"#utility.yul\":3422:3424   */\n      dup2\n        /* \"#utility.yul\":3415:3420   */\n      dup4\n        /* \"#utility.yul\":3411:3425   */\n      add\n        /* \"#utility.yul\":3404:3460   */\n      mstore\n      pop\n        /* \"#utility.yul\":3479:3484   */\n      dup1\n        /* \"#utility.yul\":3469:3484   */\n      swap2\n      pop\n      pop\n        /* \"#utility.yul\":2387:3490   */\n      swap3\n      swap2\n      pop\n      pop\n      jump\t// out\n        /* \"#utility.yul\":3495:3742   */\n    tag_45:\n        /* \"#utility.yul\":3554:3560   */\n      0x00\n        /* \"#utility.yul\":3607:3609   */\n      0x20\n        /* \"#utility.yul\":3595:3604   */\n      dup3\n        /* \"#utility.yul\":3586:3593   */\n      dup5\n        /* \"#utility.yul\":3582:3605   */\n      sub\n        /* \"#utility.yul\":3578:3610   */\n      slt\n        /* \"#utility.yul\":3575:3627   */\n      iszero\n      tag_316\n      jumpi\n        /* \"#utility.yul\":3623:3624   */\n      0x00\n        /* \"#utility.yul\":3620:3621   */\n      dup1\n        /* \"#utility.yul\":3613:3625   */\n      revert\n        /* \"#utility.yul\":3575:3627   */\n    tag_316:\n        /* \"#utility.yul\":3662:3671   */\n      dup2\n        /* \"#utility.yul\":3649:3672   */\n      calldataload\n        /* \"#utility.yul\":3681:3712   */\n      tag_193\n        /* \"#utility.yul\":3706:3711   */\n      dup2\n        /* \"#utility.yul\":3681:3712   */\n      tag_278\n      jump\t// in\n        /* \"#utility.yul\":4964:5420   */\n    tag_66:\n        /* \"#utility.yul\":5041:5047   */\n      0x00\n        /* \"#utility.yul\":5049:5055   */\n      dup1\n        /* \"#utility.yul\":5057:5063   */\n      0x00\n        /* \"#utility.yul\":5110:5112   */\n      0x60\n        /* \"#utility.yul\":5098:5107   */\n      dup5\n        /* \"#utility.yul\":5089:5096   */\n      dup7\n        /* \"#utility.yul\":5085:5108   */\n      sub\n        /* \"#utility.yul\":5081:5113   */\n      slt\n        /* \"#utility.yul\":5078:5130   */\n      iszero\n      tag_321\n      jumpi\n        /* \"#utility.yul\":5126:5127   */\n      0x00\n        /* \"#utility.yul\":5123:5124   */\n      dup1\n        /* \"#utility.yul\":5116:5128   */\n      revert\n        /* \"#utility.yul\":5078:5130   */\n    tag_321:\n        /* \"#utility.yul\":5165:5174   */\n      dup4\n        /* \"#utility.yul\":5152:5175   */\n      calldataload\n        /* \"#utility.yul\":5184:5215   */\n      tag_322\n        /* \"#utility.yul\":5209:5214   */\n      dup2\n        /* \"#utility.yul\":5184:5215   */\n      tag_278\n      jump\t// in\n    tag_322:\n        /* \"#utility.yul\":5234:5239   */\n      swap3\n      pop\n        /* \"#utility.yul\":5291:5293   */\n      0x20\n        /* \"#utility.yul\":5276:5294   */\n      dup5\n      add\n        /* \"#utility.yul\":5263:5295   */\n      calldataload\n        /* \"#utility.yul\":5304:5337   */\n      tag_323\n        /* \"#utility.yul\":5263:5295   */\n      dup2\n        /* \"#utility.yul\":5304:5337   */\n      tag_278\n      jump\t// in\n    tag_323:\n        /* \"#utility.yul\":4964:5420   */\n      swap3\n      swap6\n        /* \"#utility.yul\":5356:5363   */\n      swap3\n      swap5\n      pop\n      pop\n      pop\n        /* \"#utility.yul\":5410:5412   */\n      0x40\n        /* \"#utility.yul\":5395:5413   */\n      swap2\n      swap1\n      swap2\n      add\n        /* \"#utility.yul\":5382:5414   */\n      calldataload\n      swap1\n        /* \"#utility.yul\":4964:5420   */\n      jump\t// out\n        /* \"#utility.yul\":6556:6683   */\n    tag_283:\n        /* \"#utility.yul\":6617:6627   */\n      0x4e487b71\n        /* \"#utility.yul\":6612:6615   */\n      0xe0\n        /* \"#utility.yul\":6608:6628   */\n      shl\n        /* \"#utility.yul\":6605:6606   */\n      0x00\n        /* \"#utility.yul\":6598:6629   */\n      mstore\n        /* \"#utility.yul\":6648:6652   */\n      0x11\n        /* \"#utility.yul\":6645:6646   */\n      0x04\n        /* \"#utility.yul\":6638:6653   */\n      mstore\n        /* \"#utility.yul\":6672:6676   */\n      0x24\n        /* \"#utility.yul\":6669:6670   */\n      0x00\n        /* \"#utility.yul\":6662:6677   */\n      revert\n        /* \"#utility.yul\":6688:6816   */\n    tag_120:\n        /* \"#utility.yul\":6728:6731   */\n      0x00\n        /* \"#utility.yul\":6759:6760   */\n      dup3\n        /* \"#utility.yul\":6755:6761   */\n      not\n        /* \"#utility.yul\":6752:6753   */\n      dup3\n        /* \"#utility.yul\":6749:6762   */\n      gt\n        /* \"#utility.yul\":6746:6785   */\n      iszero\n      tag_331\n      jumpi\n        /* \"#utility.yul\":6765:6783   */\n      tag_331\n      tag_283\n      jump\t// in\n    tag_331:\n      pop\n        /* \"#utility.yul\":6801:6810   */\n      add\n      swap1\n        /* \"#utility.yul\":6688:6816   */\n      jump\t// out\n        /* \"#utility.yul\":6821:6989   */\n    tag_133:\n        /* \"#utility.yul\":6861:6868   */\n      0x00\n        /* \"#utility.yul\":6927:6928   */\n      dup2\n        /* \"#utility.yul\":6923:6924   */\n      0x00\n        /* \"#utility.yul\":6919:6925   */\n      not\n        /* \"#utility.yul\":6915:6929   */\n      div\n        /* \"#utility.yul\":6912:6913   */\n      dup4\n        /* \"#utility.yul\":6909:6930   */\n      gt\n        /* \"#utility.yul\":6904:6905   */\n      dup3\n        /* \"#utility.yul\":6897:6906   */\n      iszero\n        /* \"#utility.yul\":6890:6907   */\n      iszero\n        /* \"#utility.yul\":6886:6931   */\n      and\n        /* \"#utility.yul\":6883:6954   */\n      iszero\n      tag_334\n      jumpi\n        /* \"#utility.yul\":6934:6952   */\n      tag_334\n      tag_283\n      jump\t// in\n    tag_334:\n      pop\n        /* \"#utility.yul\":6974:6983   */\n      mul\n      swap1\n        /* \"#utility.yul\":6821:6989   */\n      jump\t// out\n        /* \"#utility.yul\":6994:7121   */\n    tag_140:\n        /* \"#utility.yul\":7055:7065   */\n      0x4e487b71\n        /* \"#utility.yul\":7050:7053   */\n      0xe0\n        /* \"#utility.yul\":7046:7066   */\n      shl\n        /* \"#utility.yul\":7043:7044   */\n      0x00\n        /* \"#utility.yul\":7036:7067   */\n      mstore\n        /* \"#utility.yul\":7086:7090   */\n      0x32\n        /* \"#utility.yul\":7083:7084   */\n      0x04\n        /* \"#utility.yul\":7076:7091   */\n      mstore\n        /* \"#utility.yul\":7110:7114   */\n      0x24\n        /* \"#utility.yul\":7107:7108   */\n      0x00\n        /* \"#utility.yul\":7100:7115   */\n      revert\n        /* \"#utility.yul\":7126:7377   */\n    tag_145:\n        /* \"#utility.yul\":7196:7202   */\n      0x00\n        /* \"#utility.yul\":7249:7251   */\n      0x20\n        /* \"#utility.yul\":7237:7246   */\n      dup3\n        /* \"#utility.yul\":7228:7235   */\n      dup5\n        /* \"#utility.yul\":7224:7247   */\n      sub\n        /* \"#utility.yul\":7220:7252   */\n      slt\n        /* \"#utility.yul\":7217:7269   */\n      iszero\n      tag_337\n      jumpi\n        /* \"#utility.yul\":7265:7266   */\n      0x00\n        /* \"#utility.yul\":7262:7263   */\n      dup1\n        /* \"#utility.yul\":7255:7267   */\n      revert\n        /* \"#utility.yul\":7217:7269   */\n    tag_337:\n        /* \"#utility.yul\":7297:7306   */\n      dup2\n        /* \"#utility.yul\":7291:7307   */\n      mload\n        /* \"#utility.yul\":7316:7347   */\n      tag_193\n        /* \"#utility.yul\":7341:7346   */\n      dup2\n        /* \"#utility.yul\":7316:7347   */\n      tag_278\n      jump\t// in\n        /* \"#utility.yul\":7382:7517   */\n    tag_148:\n        /* \"#utility.yul\":7421:7424   */\n      0x00\n        /* \"#utility.yul\":7442:7459   */\n      0x01\n      dup3\n      add\n        /* \"#utility.yul\":7439:7482   */\n      tag_341\n      jumpi\n        /* \"#utility.yul\":7462:7480   */\n      tag_341\n      tag_283\n      jump\t// in\n    tag_341:\n      pop\n        /* \"#utility.yul\":7509:7510   */\n      0x01\n        /* \"#utility.yul\":7498:7511   */\n      add\n      swap1\n        /* \"#utility.yul\":7382:7517   */\n      jump\t// out\n        /* \"#utility.yul\":7925:8109   */\n    tag_198:\n        /* \"#utility.yul\":7995:8001   */\n      0x00\n        /* \"#utility.yul\":8048:8050   */\n      0x20\n        /* \"#utility.yul\":8036:8045   */\n      dup3\n        /* \"#utility.yul\":8027:8034   */\n      dup5\n        /* \"#utility.yul\":8023:8046   */\n      sub\n        /* \"#utility.yul\":8019:8051   */\n      slt\n        /* \"#utility.yul\":8016:8068   */\n      iszero\n      tag_344\n      jumpi\n        /* \"#utility.yul\":8064:8065   */\n      0x00\n        /* \"#utility.yul\":8061:8062   */\n      dup1\n        /* \"#utility.yul\":8054:8066   */\n      revert\n        /* \"#utility.yul\":8016:8068   */\n    tag_344:\n      pop\n        /* \"#utility.yul\":8087:8103   */\n      mload\n      swap2\n        /* \"#utility.yul\":7925:8109   */\n      swap1\n      pop\n      jump\t// out\n        /* \"#utility.yul\":8114:8331   */\n    tag_203:\n        /* \"#utility.yul\":8154:8155   */\n      0x00\n        /* \"#utility.yul\":8180:8181   */\n      dup3\n        /* \"#utility.yul\":8170:8302   */\n      tag_346\n      jumpi\n        /* \"#utility.yul\":8224:8234   */\n      0x4e487b71\n        /* \"#utility.yul\":8219:8222   */\n      0xe0\n        /* \"#utility.yul\":8215:8235   */\n      shl\n        /* \"#utility.yul\":8212:8213   */\n      0x00\n        /* \"#utility.yul\":8205:8236   */\n      mstore\n        /* \"#utility.yul\":8259:8263   */\n      0x12\n        /* \"#utility.yul\":8256:8257   */\n      0x04\n        /* \"#utility.yul\":8249:8264   */\n      mstore\n        /* \"#utility.yul\":8287:8291   */\n      0x24\n        /* \"#utility.yul\":8284:8285   */\n      0x00\n        /* \"#utility.yul\":8277:8292   */\n      revert\n        /* \"#utility.yul\":8170:8302   */\n    tag_346:\n      pop\n        /* \"#utility.yul\":8316:8325   */\n      div\n      swap1\n        /* \"#utility.yul\":8114:8331   */\n      jump\t// out\n\n    auxdata: 0xa2646970667358221220e7d78dd1d4af746fbee2ca99ed1c9d1d92d0d81ac4e90859527cfc2a549aa69e64736f6c634300080d0033\n}\n",
    "bytecode": {
      "linkReferences": {},
      "object": "608060405234801561001057600080fd5b5061001a3361002c565b6000805460ff60a01b1916905561007c565b600080546001600160a01b038381166001600160a01b0319831681178455604051919092169283917f8be0079c531659141344cd1fd0a4f28419497f9722a3daafe3b4186f6b6457e09190a35050565b61144d8061008b6000396000f3fe60806040526004361061010e5760003560e01c8063715018a6116100a5578063b5e2ebc611610074578063e94886d211610059578063e94886d21461038e578063f2fde38b146103df578063fdd7a4eb146103ff57600080fd5b8063b5e2ebc614610303578063d0e30db01461038657600080fd5b8063715018a6146102835780638456cb59146102985780638a3cf3a1146102ad5780638da5cb5b146102db57600080fd5b80634bd4705f116100e15780634bd4705f146101655780635028d05a1461018557806353a75e25146101a55780635c975abb1461025957600080fd5b806319f101fa146101135780633f4ba83a14610135578063402d88831461014a5780634a68dbf014610152575b600080fd5b34801561011f57600080fd5b5061013361012e3660046110e7565b61041f565b005b34801561014157600080fd5b50610133610451565b610133610463565b610133610160366004611184565b6106c5565b34801561017157600080fd5b5061013361018036600461123f565b610b21565b34801561019157600080fd5b506101336101a03660046112e5565b610ba7565b3480156101b157600080fd5b50600154600254600354600454600554600654600754600854600954600a54600b54600c546101f19b6001600160a01b03169a999897969594939291908c565b604080516001600160a01b03909d168d5260208d019b909b52998b019890985260608a0196909652608089019490945260a088019290925260c087015260e0860152610100850152610120840152610140830152610160820152610180015b60405180910390f35b34801561026557600080fd5b50600054600160a01b900460ff166040519015158152602001610250565b34801561028f57600080fd5b50610133610bd0565b3480156102a457600080fd5b50610133610be2565b3480156102b957600080fd5b506102cd6102c8366004611302565b610bf2565b604051908152602001610250565b3480156102e757600080fd5b506000546040516001600160a01b039091168152602001610250565b34801561030f57600080fd5b5061035561031e3660046112e5565b600e60205260009081526040902080546001820154600283015460049093015460ff9092169290916001600160a01b039091169084565b6040516102509493929190931515845260208401929092526001600160a01b03166040830152606082015260800190565b610133610d06565b34801561039a57600080fd5b506103c86103a93660046112e5565b600d602052600090815260409020805460019091015460ff9091169082565b604080519215158352602083019190915201610250565b3480156103eb57600080fd5b506101336103fa3660046112e5565b610d0e565b34801561040b57600080fd5b5061013361041a3660046110e7565b610da3565b610427610dca565b6001600160a01b039091166000908152600d60205260409020805460ff1916600190811782550155565b610459610dca565b610461610e24565b565b336000908152600e602052604090205460ff1661049357604051632d76303160e11b815260040160405180910390fd5b336000908152600e6020908152604091829020825160a081018452815460ff161515815260018201548184015260028201546001600160a01b03168185015260038201805485518186028101860190965280865261053c959294606086019392919083018282801561052457602002820191906000526020600020905b815481526020019060010190808311610510575b50505050508152602001600482015481525050610e79565b1561057257336000908152600e602052604090819020805460ff191690558051632d76303160e11b815290519081900360040190fd5b336000908152600e60209081526040808320815160a081018352815460ff161515815260018201548185015260028201546001600160a01b03168184015260038201805484518187028101870190955280855261061b95929460608601939092919083018282801561060357602002820191906000526020600020905b8154815260200190600101908083116105ef575b50505050508152602001600482015481525050610eb2565b61063757336000908152600e6020526040902060040154610657565b600c54336000908152600e60205260409020600401546106579190611359565b90503481101561067a57604051634ddc3b8560e01b815260040160405180910390fd5b336000908152600e60205260408120805460ff19168155600181018290556002810180546001600160a01b0319169055906106b86003830182611044565b6004820160009055505050565b6106cd610efe565b336000908152600e602052604090205460ff16156106fe57604051631563d41f60e21b815260040160405180910390fd5b6001600160a01b0382166000908152600d602052604090205460ff16610737576040516324ff36dd60e01b815260040160405180910390fd5b60035434101561075a57604051634ddc3b8560e01b815260040160405180910390fd5b8051600181101561077e57604051638dc8d9b360e01b815260040160405180910390fd5b6001600160a01b0383166000908152600d60205260408120600101546107a49083611371565b9050478111156107c757604051631af4d59960e11b815260040160405180910390fd5b60005b8281101561089d57846001600160a01b0316636352211e8583815181106107f3576107f3611390565b60200260200101516040518263ffffffff1660e01b815260040161081991815260200190565b602060405180830381865afa158015610836573d6000803e3d6000fd5b505050506040513d601f19601f8201168201806040525081019061085a91906113a6565b6001600160a01b0316336001600160a01b03161461088b5760405163657e268f60e11b815260040160405180910390fd5b80610895816113c3565b9150506107ca565b5060005b8281101561097457306001600160a01b0316856001600160a01b031663081812fc8684815181106108d4576108d4611390565b60200260200101516040518263ffffffff1660e01b81526004016108fa91815260200190565b602060405180830381865afa158015610917573d6000803e3d6000fd5b505050506040513d601f19601f8201168201806040525081019061093b91906113a6565b6001600160a01b031603610962576040516332da96a360e01b815260040160405180910390fd5b8061096c816113c3565b9150506108a1565b5060005b82811015610a4057846001600160a01b03166323b872dd33308785815181106109a3576109a3611390565b60209081029190910101516040517fffffffff0000000000000000000000000000000000000000000000000000000060e086901b1681526001600160a01b0393841660048201529290911660248301526044820152606401600060405180830381600087803b158015610a1557600080fd5b505af1158015610a29573d6000803e3d6000fd5b505050508080610a38906113c3565b915050610978565b506000610a4e338685610bf2565b604051909150339082156108fc029083906000818181858888f19350505050158015610a7e573d6000803e3d6000fd5b506040805160a08101825260018082524260208084019182526001600160a01b038a8116858701908152606086018b815260808701899052336000908152600e8552979097208651815460ff191690151517815593519484019490945592516002830180546001600160a01b031916919094161790925592518051929392610b0c9260038501920190611062565b50608082015181600401559050505050505050565b610b29610dca565b8051600180546001600160a01b0319166001600160a01b03909216919091179055602081015160025560408101516003556060810151600455608081015160055560a081015160065560c081015160075560e0810151600855610100810151600955610120810151600a55610140810151600b556101600151600c55565b610baf610dca565b6001600160a01b03166000908152600d60205260409020805460ff19169055565b610bd8610dca565b6104616000610f58565b610bea610dca565b610461610fa8565b6001546040516370a0823160e01b81526001600160a01b03858116600483015260009283929116906370a0823190602401602060405180830381865afa158015610c40573d6000803e3d6000fd5b505050506040513d601f19601f82011682018060405250810190610c6491906113dc565b6001600160a01b0385166000908152600d6020526040812060010154919250610c8d8286611371565b600a549091508310610cbd57600754606490610ca99083611371565b610cb391906113f5565b9350505050610cff565b6009548310610cd657600654606490610ca99083611371565b6008548310610cef57600554606490610ca99083611371565b600454606490610ca99083611371565b9392505050565b610461610dca565b610d16610dca565b6001600160a01b038116610d975760405162461bcd60e51b815260206004820152602660248201527f4f776e61626c653a206e6577206f776e657220697320746865207a65726f206160448201527f646472657373000000000000000000000000000000000000000000000000000060648201526084015b60405180910390fd5b610da081610f58565b50565b610dab610dca565b6001600160a01b039091166000908152600d6020526040902060010155565b6000546001600160a01b031633146104615760405162461bcd60e51b815260206004820181905260248201527f4f776e61626c653a2063616c6c6572206973206e6f7420746865206f776e65726044820152606401610d8e565b610e2c610feb565b6000805460ff60a01b191690557f5db9ee0a495bf2e6ff9c91a7834c1ba4fdd244a5e8aa4e537bd38aeae4b073aa335b6040516001600160a01b03909116815260200160405180910390a1565b600b54600254602083015160009291610e9191611359565b610e9b9190611359565b421115610eaa57506001919050565b506000919050565b6002546020820151600091610ec691611359565b42118015610ef15750600b546002546020840151610ee49190611359565b610eee9190611359565b42105b15610eaa57506001919050565b600054600160a01b900460ff16156104615760405162461bcd60e51b815260206004820152601060248201527f5061757361626c653a20706175736564000000000000000000000000000000006044820152606401610d8e565b600080546001600160a01b038381166001600160a01b0319831681178455604051919092169283917f8be0079c531659141344cd1fd0a4f28419497f9722a3daafe3b4186f6b6457e09190a35050565b610fb0610efe565b6000805460ff60a01b1916600160a01b1790557f62e78cea01bee320cd4e420270b5ea74000d11b0c9f74754ebdbfc544b05a258610e5c3390565b600054600160a01b900460ff166104615760405162461bcd60e51b815260206004820152601460248201527f5061757361626c653a206e6f74207061757365640000000000000000000000006044820152606401610d8e565b5080546000825590600052602060002090810190610da091906110ad565b82805482825590600052602060002090810192821561109d579160200282015b8281111561109d578251825591602001919060010190611082565b506110a99291506110ad565b5090565b5b808211156110a957600081556001016110ae565b6001600160a01b0381168114610da057600080fd5b80356110e2816110c2565b919050565b600080604083850312156110fa57600080fd5b8235611105816110c2565b946020939093013593505050565b634e487b7160e01b600052604160045260246000fd5b604051610180810167ffffffffffffffff8111828210171561114d5761114d611113565b60405290565b604051601f8201601f1916810167ffffffffffffffff8111828210171561117c5761117c611113565b604052919050565b6000806040838503121561119757600080fd5b82356111a2816110c2565b915060208381013567ffffffffffffffff808211156111c057600080fd5b818601915086601f8301126111d457600080fd5b8135818111156111e6576111e6611113565b8060051b91506111f7848301611153565b818152918301840191848101908984111561121157600080fd5b938501935b8385101561122f57843582529385019390850190611216565b8096505050505050509250929050565b6000610180828403121561125257600080fd5b61125a611129565b611263836110d7565b81526020830135602082015260408301356040820152606083013560608201526080830135608082015260a083013560a082015260c083013560c082015260e083013560e08201526101008084013581830152506101208084013581830152506101408084013581830152506101608084013581830152508091505092915050565b6000602082840312156112f757600080fd5b8135610cff816110c2565b60008060006060848603121561131757600080fd5b8335611322816110c2565b92506020840135611332816110c2565b929592945050506040919091013590565b634e487b7160e01b600052601160045260246000fd5b6000821982111561136c5761136c611343565b500190565b600081600019048311821515161561138b5761138b611343565b500290565b634e487b7160e01b600052603260045260246000fd5b6000602082840312156113b857600080fd5b8151610cff816110c2565b6000600182016113d5576113d5611343565b5060010190565b6000602082840312156113ee57600080fd5b5051919050565b60008261141257634e487b7160e01b600052601260045260246000fd5b50049056fea2646970667358221220e7d78dd1d4af746fbee2ca99ed1c9d1d92d0d81ac4e90859527cfc2a549aa69e64736f6c634300080d0033",
      "opcodes": "PUSH1 0x80 PUSH1 0x40 MSTORE CALLVALUE DUP1 ISZERO PUSH2 0x10 JUMPI PUSH1 0x0 DUP1 REVERT JUMPDEST POP PUSH2 0x1A CALLER PUSH2 0x2C JUMP JUMPDEST PUSH1 0x0 DUP1 SLOAD PUSH1 0xFF PUSH1 0xA0 SHL NOT AND SWAP1 SSTORE PUSH2 0x7C JUMP JUMPDEST PUSH1 0x0 DUP1 SLOAD PUSH1 0x1 PUSH1 0x1 PUSH1 0xA0 SHL SUB DUP4 DUP2 AND PUSH1 0x1 PUSH1 0x1 PUSH1 0xA0 SHL SUB NOT DUP4 AND DUP2 OR DUP5 SSTORE PUSH1 0x40 MLOAD SWAP2 SWAP1 SWAP3 AND SWAP3 DUP4 SWAP2 PUSH32 0x8BE0079C531659141344CD1FD0A4F28419497F9722A3DAAFE3B4186F6B6457E0 SWAP2 SWAP1 LOG3 POP POP JUMP JUMPDEST PUSH2 0x144D DUP1 PUSH2 0x8B PUSH1 0x0 CODECOPY PUSH1 0x0 RETURN INVALID PUSH1 0x80 PUSH1 0x40 MSTORE PUSH1 0x4 CALLDATASIZE LT PUSH2 0x10E JUMPI PUSH1 0x0 CALLDATALOAD PUSH1 0xE0 SHR DUP1 PUSH4 0x715018A6 GT PUSH2 0xA5 JUMPI DUP1 PUSH4 0xB5E2EBC6 GT PUSH2 0x74 JUMPI DUP1 PUSH4 0xE94886D2 GT PUSH2 0x59 JUMPI DUP1 PUSH4 0xE94886D2 EQ PUSH2 0x38E JUMPI DUP1 PUSH4 0xF2FDE38B EQ PUSH2 0x3DF JUMPI DUP1 PUSH4 0xFDD7A4EB EQ PUSH2 0x3FF JUMPI PUSH1 0x0 DUP1 REVERT JUMPDEST DUP1 PUSH4 0xB5E2EBC6 EQ PUSH2 0x303 JUMPI DUP1 PUSH4 0xD0E30DB0 EQ PUSH2 0x386 JUMPI PUSH1 0x0 DUP1 REVERT JUMPDEST DUP1 PUSH4 0x715018A6 EQ PUSH2 0x283 JUMPI DUP1 PUSH4 0x8456CB59 EQ PUSH2 0x298 JUMPI DUP1 PUSH4 0x8A3CF3A1 EQ PUSH2 0x2AD JUMPI DUP1 PUSH4 0x8DA5CB5B EQ PUSH2 0x2DB JUMPI PUSH1 0x0 DUP1 REVERT JUMPDEST DUP1 PUSH4 0x4BD4705F GT PUSH2 0xE1 JUMPI DUP1 PUSH4 0x4BD4705F EQ PUSH2 0x165 JUMPI DUP1 PUSH4 0x5028D05A EQ PUSH2 0x185 JUMPI DUP1 PUSH4 0x53A75E25 EQ PUSH2 0x1A5 JUMPI DUP1 PUSH4 0x5C975ABB EQ PUSH2 0x259 JUMPI PUSH1 0x0 DUP1 REVERT JUMPDEST DUP1 PUSH4 0x19F101FA EQ PUSH2 0x113 JUMPI DUP1 PUSH4 0x3F4BA83A EQ PUSH2 0x135 JUMPI DUP1 PUSH4 0x402D8883 EQ PUSH2 0x14A JUMPI DUP1 PUSH4 0x4A68DBF0 EQ PUSH2 0x152 JUMPI JUMPDEST PUSH1 0x0 DUP1 REVERT JUMPDEST CALLVALUE DUP1 ISZERO PUSH2 0x11F JUMPI PUSH1 0x0 DUP1 REVERT JUMPDEST POP PUSH2 0x133 PUSH2 0x12E CALLDATASIZE PUSH1 0x4 PUSH2 0x10E7 JUMP JUMPDEST PUSH2 0x41F JUMP JUMPDEST STOP JUMPDEST CALLVALUE DUP1 ISZERO PUSH2 0x141 JUMPI PUSH1 0x0 DUP1 REVERT JUMPDEST POP PUSH2 0x133 PUSH2 0x451 JUMP JUMPDEST PUSH2 0x133 PUSH2 0x463 JUMP JUMPDEST PUSH2 0x133 PUSH2 0x160 CALLDATASIZE PUSH1 0x4 PUSH2 0x1184 JUMP JUMPDEST PUSH2 0x6C5 JUMP JUMPDEST CALLVALUE DUP1 ISZERO PUSH2 0x171 JUMPI PUSH1 0x0 DUP1 REVERT JUMPDEST POP PUSH2 0x133 PUSH2 0x180 CALLDATASIZE PUSH1 0x4 PUSH2 0x123F JUMP JUMPDEST PUSH2 0xB21 JUMP JUMPDEST CALLVALUE DUP1 ISZERO PUSH2 0x191 JUMPI PUSH1 0x0 DUP1 REVERT JUMPDEST POP PUSH2 0x133 PUSH2 0x1A0 CALLDATASIZE PUSH1 0x4 PUSH2 0x12E5 JUMP JUMPDEST PUSH2 0xBA7 JUMP JUMPDEST CALLVALUE DUP1 ISZERO PUSH2 0x1B1 JUMPI PUSH1 0x0 DUP1 REVERT JUMPDEST POP PUSH1 0x1 SLOAD PUSH1 0x2 SLOAD PUSH1 0x3 SLOAD PUSH1 0x4 SLOAD PUSH1 0x5 SLOAD PUSH1 0x6 SLOAD PUSH1 0x7 SLOAD PUSH1 0x8 SLOAD PUSH1 0x9 SLOAD PUSH1 0xA SLOAD PUSH1 0xB SLOAD PUSH1 0xC SLOAD PUSH2 0x1F1 SWAP12 PUSH1 0x1 PUSH1 0x1 PUSH1 0xA0 SHL SUB AND SWAP11 SWAP10 SWAP9 SWAP8 SWAP7 SWAP6 SWAP5 SWAP4 SWAP3 SWAP2 SWAP1 DUP13 JUMP JUMPDEST PUSH1 0x40 DUP1 MLOAD PUSH1 0x1 PUSH1 0x1 PUSH1 0xA0 SHL SUB SWAP1 SWAP14 AND DUP14 MSTORE PUSH1 0x20 DUP14 ADD SWAP12 SWAP1 SWAP12 MSTORE SWAP10 DUP12 ADD SWAP9 SWAP1 SWAP9 MSTORE PUSH1 0x60 DUP11 ADD SWAP7 SWAP1 SWAP7 MSTORE PUSH1 0x80 DUP10 ADD SWAP5 SWAP1 SWAP5 MSTORE PUSH1 0xA0 DUP9 ADD SWAP3 SWAP1 SWAP3 MSTORE PUSH1 0xC0 DUP8 ADD MSTORE PUSH1 0xE0 DUP7 ADD MSTORE PUSH2 0x100 DUP6 ADD MSTORE PUSH2 0x120 DUP5 ADD MSTORE PUSH2 0x140 DUP4 ADD MSTORE PUSH2 0x160 DUP3 ADD MSTORE PUSH2 0x180 ADD JUMPDEST PUSH1 0x40 MLOAD DUP1 SWAP2 SUB SWAP1 RETURN JUMPDEST CALLVALUE DUP1 ISZERO PUSH2 0x265 JUMPI PUSH1 0x0 DUP1 REVERT JUMPDEST POP PUSH1 0x0 SLOAD PUSH1 0x1 PUSH1 0xA0 SHL SWAP1 DIV PUSH1 0xFF AND PUSH1 0x40 MLOAD SWAP1 ISZERO ISZERO DUP2 MSTORE PUSH1 0x20 ADD PUSH2 0x250 JUMP JUMPDEST CALLVALUE DUP1 ISZERO PUSH2 0x28F JUMPI PUSH1 0x0 DUP1 REVERT JUMPDEST POP PUSH2 0x133 PUSH2 0xBD0 JUMP JUMPDEST CALLVALUE DUP1 ISZERO PUSH2 0x2A4 JUMPI PUSH1 0x0 DUP1 REVERT JUMPDEST POP PUSH2 0x133 PUSH2 0xBE2 JUMP JUMPDEST CALLVALUE DUP1 ISZERO PUSH2 0x2B9 JUMPI PUSH1 0x0 DUP1 REVERT JUMPDEST POP PUSH2 0x2CD PUSH2 0x2C8 CALLDATASIZE PUSH1 0x4 PUSH2 0x1302 JUMP JUMPDEST PUSH2 0xBF2 JUMP JUMPDEST PUSH1 0x40 MLOAD SWAP1 DUP2 MSTORE PUSH1 0x20 ADD PUSH2 0x250 JUMP JUMPDEST CALLVALUE DUP1 ISZERO PUSH2 0x2E7 JUMPI PUSH1 0x0 DUP1 REVERT JUMPDEST POP PUSH1 0x0 SLOAD PUSH1 0x40 MLOAD PUSH1 0x1 PUSH1 0x1 PUSH1 0xA0 SHL SUB SWAP1 SWAP2 AND DUP2 MSTORE PUSH1 0x20 ADD PUSH2 0x250 JUMP JUMPDEST CALLVALUE DUP1 ISZERO PUSH2 0x30F JUMPI PUSH1 0x0 DUP1 REVERT JUMPDEST POP PUSH2 0x355 PUSH2 0x31E CALLDATASIZE PUSH1 0x4 PUSH2 0x12E5 JUMP JUMPDEST PUSH1 0xE PUSH1 0x20 MSTORE PUSH1 0x0 SWAP1 DUP2 MSTORE PUSH1 0x40 SWAP1 KECCAK256 DUP1 SLOAD PUSH1 0x1 DUP3 ADD SLOAD PUSH1 0x2 DUP4 ADD SLOAD PUSH1 0x4 SWAP1 SWAP4 ADD SLOAD PUSH1 0xFF SWAP1 SWAP3 AND SWAP3 SWAP1 SWAP2 PUSH1 0x1 PUSH1 0x1 PUSH1 0xA0 SHL SUB SWAP1 SWAP2 AND SWAP1 DUP5 JUMP JUMPDEST PUSH1 0x40 MLOAD PUSH2 0x250 SWAP5 SWAP4 SWAP3 SWAP2 SWAP1 SWAP4 ISZERO ISZERO DUP5 MSTORE PUSH1 0x20 DUP5 ADD SWAP3 SWAP1 SWAP3 MSTORE PUSH1 0x1 PUSH1 0x1 PUSH1 0xA0 SHL SUB AND PUSH1 0x40 DUP4 ADD MSTORE PUSH1 0x60 DUP3 ADD MSTORE PUSH1 0x80 ADD SWAP1 JUMP JUMPDEST PUSH2 0x133 PUSH2 0xD06 JUMP JUMPDEST CALLVALUE DUP1 ISZERO PUSH2 0x39A JUMPI PUSH1 0x0 DUP1 REVERT JUMPDEST POP PUSH2 0x3C8 PUSH2 0x3A9 CALLDATASIZE PUSH1 0x4 PUSH2 0x12E5 JUMP JUMPDEST PUSH1 0xD PUSH1 0x20 MSTORE PUSH1 0x0 SWAP1 DUP2 MSTORE PUSH1 0x40 SWAP1 KECCAK256 DUP1 SLOAD PUSH1 0x1 SWAP1 SWAP2 ADD SLOAD PUSH1 0xFF SWAP1 SWAP2 AND SWAP1 DUP3 JUMP JUMPDEST PUSH1 0x40 DUP1 MLOAD SWAP3 ISZERO ISZERO DUP4 MSTORE PUSH1 0x20 DUP4 ADD SWAP2 SWAP1 SWAP2 MSTORE ADD PUSH2 0x250 JUMP JUMPDEST CALLVALUE DUP1 ISZERO PUSH2 0x3EB JUMPI PUSH1 0x0 DUP1 REVERT JUMPDEST POP PUSH2 0x133 PUSH2 0x3FA CALLDATASIZE PUSH1 0x4 PUSH2 0x12E5 JUMP JUMPDEST PUSH2 0xD0E JUMP JUMPDEST CALLVALUE DUP1 ISZERO PUSH2 0x40B JUMPI PUSH1 0x0 DUP1 REVERT JUMPDEST POP PUSH2 0x133 PUSH2 0x41A CALLDATASIZE PUSH1 0x4 PUSH2 0x10E7 JUMP JUMPDEST PUSH2 0xDA3 JUMP JUMPDEST PUSH2 0x427 PUSH2 0xDCA JUMP JUMPDEST PUSH1 0x1 PUSH1 0x1 PUSH1 0xA0 SHL SUB SWAP1 SWAP2 AND PUSH1 0x0 SWAP1 DUP2 MSTORE PUSH1 0xD PUSH1 0x20 MSTORE PUSH1 0x40 SWAP1 KECCAK256 DUP1 SLOAD PUSH1 0xFF NOT AND PUSH1 0x1 SWAP1 DUP2 OR DUP3 SSTORE ADD SSTORE JUMP JUMPDEST PUSH2 0x459 PUSH2 0xDCA JUMP JUMPDEST PUSH2 0x461 PUSH2 0xE24 JUMP JUMPDEST JUMP JUMPDEST CALLER PUSH1 0x0 SWAP1 DUP2 MSTORE PUSH1 0xE PUSH1 0x20 MSTORE PUSH1 0x40 SWAP1 KECCAK256 SLOAD PUSH1 0xFF AND PUSH2 0x493 JUMPI PUSH1 0x40 MLOAD PUSH4 0x2D763031 PUSH1 0xE1 SHL DUP2 MSTORE PUSH1 0x4 ADD PUSH1 0x40 MLOAD DUP1 SWAP2 SUB SWAP1 REVERT JUMPDEST CALLER PUSH1 0x0 SWAP1 DUP2 MSTORE PUSH1 0xE PUSH1 0x20 SWAP1 DUP2 MSTORE PUSH1 0x40 SWAP2 DUP3 SWAP1 KECCAK256 DUP3 MLOAD PUSH1 0xA0 DUP2 ADD DUP5 MSTORE DUP2 SLOAD PUSH1 0xFF AND ISZERO ISZERO DUP2 MSTORE PUSH1 0x1 DUP3 ADD SLOAD DUP2 DUP5 ADD MSTORE PUSH1 0x2 DUP3 ADD SLOAD PUSH1 0x1 PUSH1 0x1 PUSH1 0xA0 SHL SUB AND DUP2 DUP6 ADD MSTORE PUSH1 0x3 DUP3 ADD DUP1 SLOAD DUP6 MLOAD DUP2 DUP7 MUL DUP2 ADD DUP7 ADD SWAP1 SWAP7 MSTORE DUP1 DUP7 MSTORE PUSH2 0x53C SWAP6 SWAP3 SWAP5 PUSH1 0x60 DUP7 ADD SWAP4 SWAP3 SWAP2 SWAP1 DUP4 ADD DUP3 DUP3 DUP1 ISZERO PUSH2 0x524 JUMPI PUSH1 0x20 MUL DUP3 ADD SWAP2 SWAP1 PUSH1 0x0 MSTORE PUSH1 0x20 PUSH1 0x0 KECCAK256 SWAP1 JUMPDEST DUP2 SLOAD DUP2 MSTORE PUSH1 0x20 ADD SWAP1 PUSH1 0x1 ADD SWAP1 DUP1 DUP4 GT PUSH2 0x510 JUMPI JUMPDEST POP POP POP POP POP DUP2 MSTORE PUSH1 0x20 ADD PUSH1 0x4 DUP3 ADD SLOAD DUP2 MSTORE POP POP PUSH2 0xE79 JUMP JUMPDEST ISZERO PUSH2 0x572 JUMPI CALLER PUSH1 0x0 SWAP1 DUP2 MSTORE PUSH1 0xE PUSH1 0x20 MSTORE PUSH1 0x40 SWAP1 DUP2 SWAP1 KECCAK256 DUP1 SLOAD PUSH1 0xFF NOT AND SWAP1 SSTORE DUP1 MLOAD PUSH4 0x2D763031 PUSH1 0xE1 SHL DUP2 MSTORE SWAP1 MLOAD SWAP1 DUP2 SWAP1 SUB PUSH1 0x4 ADD SWAP1 REVERT JUMPDEST CALLER PUSH1 0x0 SWAP1 DUP2 MSTORE PUSH1 0xE PUSH1 0x20 SWAP1 DUP2 MSTORE PUSH1 0x40 DUP1 DUP4 KECCAK256 DUP2 MLOAD PUSH1 0xA0 DUP2 ADD DUP4 MSTORE DUP2 SLOAD PUSH1 0xFF AND ISZERO ISZERO DUP2 MSTORE PUSH1 0x1 DUP3 ADD SLOAD DUP2 DUP6 ADD MSTORE PUSH1 0x2 DUP3 ADD SLOAD PUSH1 0x1 PUSH1 0x1 PUSH1 0xA0 SHL SUB AND DUP2 DUP5 ADD MSTORE PUSH1 0x3 DUP3 ADD DUP1 SLOAD DUP5 MLOAD DUP2 DUP8 MUL DUP2 ADD DUP8 ADD SWAP1 SWAP6 MSTORE DUP1 DUP6 MSTORE PUSH2 0x61B SWAP6 SWAP3 SWAP5 PUSH1 0x60 DUP7 ADD SWAP4 SWAP1 SWAP3 SWAP2 SWAP1 DUP4 ADD DUP3 DUP3 DUP1 ISZERO PUSH2 0x603 JUMPI PUSH1 0x20 MUL DUP3 ADD SWAP2 SWAP1 PUSH1 0x0 MSTORE PUSH1 0x20 PUSH1 0x0 KECCAK256 SWAP1 JUMPDEST DUP2 SLOAD DUP2 MSTORE PUSH1 0x20 ADD SWAP1 PUSH1 0x1 ADD SWAP1 DUP1 DUP4 GT PUSH2 0x5EF JUMPI JUMPDEST POP POP POP POP POP DUP2 MSTORE PUSH1 0x20 ADD PUSH1 0x4 DUP3 ADD SLOAD DUP2 MSTORE POP POP PUSH2 0xEB2 JUMP JUMPDEST PUSH2 0x637 JUMPI CALLER PUSH1 0x0 SWAP1 DUP2 MSTORE PUSH1 0xE PUSH1 0x20 MSTORE PUSH1 0x40 SWAP1 KECCAK256 PUSH1 0x4 ADD SLOAD PUSH2 0x657 JUMP JUMPDEST PUSH1 0xC SLOAD CALLER PUSH1 0x0 SWAP1 DUP2 MSTORE PUSH1 0xE PUSH1 0x20 MSTORE PUSH1 0x40 SWAP1 KECCAK256 PUSH1 0x4 ADD SLOAD PUSH2 0x657 SWAP2 SWAP1 PUSH2 0x1359 JUMP JUMPDEST SWAP1 POP CALLVALUE DUP2 LT ISZERO PUSH2 0x67A JUMPI PUSH1 0x40 MLOAD PUSH4 0x4DDC3B85 PUSH1 0xE0 SHL DUP2 MSTORE PUSH1 0x4 ADD PUSH1 0x40 MLOAD DUP1 SWAP2 SUB SWAP1 REVERT JUMPDEST CALLER PUSH1 0x0 SWAP1 DUP2 MSTORE PUSH1 0xE PUSH1 0x20 MSTORE PUSH1 0x40 DUP2 KECCAK256 DUP1 SLOAD PUSH1 0xFF NOT AND DUP2 SSTORE PUSH1 0x1 DUP2 ADD DUP3 SWAP1 SSTORE PUSH1 0x2 DUP2 ADD DUP1 SLOAD PUSH1 0x1 PUSH1 0x1 PUSH1 0xA0 SHL SUB NOT AND SWAP1 SSTORE SWAP1 PUSH2 0x6B8 PUSH1 0x3 DUP4 ADD DUP3 PUSH2 0x1044 JUMP JUMPDEST PUSH1 0x4 DUP3 ADD PUSH1 0x0 SWAP1 SSTORE POP POP POP JUMP JUMPDEST PUSH2 0x6CD PUSH2 0xEFE JUMP JUMPDEST CALLER PUSH1 0x0 SWAP1 DUP2 MSTORE PUSH1 0xE PUSH1 0x20 MSTORE PUSH1 0x40 SWAP1 KECCAK256 SLOAD PUSH1 0xFF AND ISZERO PUSH2 0x6FE JUMPI PUSH1 0x40 MLOAD PUSH4 0x1563D41F PUSH1 0xE2 SHL DUP2 MSTORE PUSH1 0x4 ADD PUSH1 0x40 MLOAD DUP1 SWAP2 SUB SWAP1 REVERT JUMPDEST PUSH1 0x1 PUSH1 0x1 PUSH1 0xA0 SHL SUB DUP3 AND PUSH1 0x0 SWAP1 DUP2 MSTORE PUSH1 0xD PUSH1 0x20 MSTORE PUSH1 0x40 SWAP1 KECCAK256 SLOAD PUSH1 0xFF AND PUSH2 0x737 JUMPI PUSH1 0x40 MLOAD PUSH4 0x24FF36DD PUSH1 0xE0 SHL DUP2 MSTORE PUSH1 0x4 ADD PUSH1 0x40 MLOAD DUP1 SWAP2 SUB SWAP1 REVERT JUMPDEST PUSH1 0x3 SLOAD CALLVALUE LT ISZERO PUSH2 0x75A JUMPI PUSH1 0x40 MLOAD PUSH4 0x4DDC3B85 PUSH1 0xE0 SHL DUP2 MSTORE PUSH1 0x4 ADD PUSH1 0x40 MLOAD DUP1 SWAP2 SUB SWAP1 REVERT JUMPDEST DUP1 MLOAD PUSH1 0x1 DUP2 LT ISZERO PUSH2 0x77E JUMPI PUSH1 0x40 MLOAD PUSH4 0x8DC8D9B3 PUSH1 0xE0 SHL DUP2 MSTORE PUSH1 0x4 ADD PUSH1 0x40 MLOAD DUP1 SWAP2 SUB SWAP1 REVERT JUMPDEST PUSH1 0x1 PUSH1 0x1 PUSH1 0xA0 SHL SUB DUP4 AND PUSH1 0x0 SWAP1 DUP2 MSTORE PUSH1 0xD PUSH1 0x20 MSTORE PUSH1 0x40 DUP2 KECCAK256 PUSH1 0x1 ADD SLOAD PUSH2 0x7A4 SWAP1 DUP4 PUSH2 0x1371 JUMP JUMPDEST SWAP1 POP SELFBALANCE DUP2 GT ISZERO PUSH2 0x7C7 JUMPI PUSH1 0x40 MLOAD PUSH4 0x1AF4D599 PUSH1 0xE1 SHL DUP2 MSTORE PUSH1 0x4 ADD PUSH1 0x40 MLOAD DUP1 SWAP2 SUB SWAP1 REVERT JUMPDEST PUSH1 0x0 JUMPDEST DUP3 DUP2 LT ISZERO PUSH2 0x89D JUMPI DUP5 PUSH1 0x1 PUSH1 0x1 PUSH1 0xA0 SHL SUB AND PUSH4 0x6352211E DUP6 DUP4 DUP2 MLOAD DUP2 LT PUSH2 0x7F3 JUMPI PUSH2 0x7F3 PUSH2 0x1390 JUMP JUMPDEST PUSH1 0x20 MUL PUSH1 0x20 ADD ADD MLOAD PUSH1 0x40 MLOAD DUP3 PUSH4 0xFFFFFFFF AND PUSH1 0xE0 SHL DUP2 MSTORE PUSH1 0x4 ADD PUSH2 0x819 SWAP2 DUP2 MSTORE PUSH1 0x20 ADD SWAP1 JUMP JUMPDEST PUSH1 0x20 PUSH1 0x40 MLOAD DUP1 DUP4 SUB DUP2 DUP7 GAS STATICCALL ISZERO DUP1 ISZERO PUSH2 0x836 JUMPI RETURNDATASIZE PUSH1 0x0 DUP1 RETURNDATACOPY RETURNDATASIZE PUSH1 0x0 REVERT JUMPDEST POP POP POP POP PUSH1 0x40 MLOAD RETURNDATASIZE PUSH1 0x1F NOT PUSH1 0x1F DUP3 ADD AND DUP3 ADD DUP1 PUSH1 0x40 MSTORE POP DUP2 ADD SWAP1 PUSH2 0x85A SWAP2 SWAP1 PUSH2 0x13A6 JUMP JUMPDEST PUSH1 0x1 PUSH1 0x1 PUSH1 0xA0 SHL SUB AND CALLER PUSH1 0x1 PUSH1 0x1 PUSH1 0xA0 SHL SUB AND EQ PUSH2 0x88B JUMPI PUSH1 0x40 MLOAD PUSH4 0x657E268F PUSH1 0xE1 SHL DUP2 MSTORE PUSH1 0x4 ADD PUSH1 0x40 MLOAD DUP1 SWAP2 SUB SWAP1 REVERT JUMPDEST DUP1 PUSH2 0x895 DUP2 PUSH2 0x13C3 JUMP JUMPDEST SWAP2 POP POP PUSH2 0x7CA JUMP JUMPDEST POP PUSH1 0x0 JUMPDEST DUP3 DUP2 LT ISZERO PUSH2 0x974 JUMPI ADDRESS PUSH1 0x1 PUSH1 0x1 PUSH1 0xA0 SHL SUB AND DUP6 PUSH1 0x1 PUSH1 0x1 PUSH1 0xA0 SHL SUB AND PUSH4 0x81812FC DUP7 DUP5 DUP2 MLOAD DUP2 LT PUSH2 0x8D4 JUMPI PUSH2 0x8D4 PUSH2 0x1390 JUMP JUMPDEST PUSH1 0x20 MUL PUSH1 0x20 ADD ADD MLOAD PUSH1 0x40 MLOAD DUP3 PUSH4 0xFFFFFFFF AND PUSH1 0xE0 SHL DUP2 MSTORE PUSH1 0x4 ADD PUSH2 0x8FA SWAP2 DUP2 MSTORE PUSH1 0x20 ADD SWAP1 JUMP JUMPDEST PUSH1 0x20 PUSH1 0x40 MLOAD DUP1 DUP4 SUB DUP2 DUP7 GAS STATICCALL ISZERO DUP1 ISZERO PUSH2 0x917 JUMPI RETURNDATASIZE PUSH1 0x0 DUP1 RETURNDATACOPY RETURNDATASIZE PUSH1 0x0 REVERT JUMPDEST POP POP POP POP PUSH1 0x40 MLOAD RETURNDATASIZE PUSH1 0x1F NOT PUSH1 0x1F DUP3 ADD AND DUP3 ADD DUP1 PUSH1 0x40 MSTORE POP DUP2 ADD SWAP1 PUSH2 0x93B SWAP2 SWAP1 PUSH2 0x13A6 JUMP JUMPDEST PUSH1 0x1 PUSH1 0x1 PUSH1 0xA0 SHL SUB AND SUB PUSH2 0x962 JUMPI PUSH1 0x40 MLOAD PUSH4 0x32DA96A3 PUSH1 0xE0 SHL DUP2 MSTORE PUSH1 0x4 ADD PUSH1 0x40 MLOAD DUP1 SWAP2 SUB SWAP1 REVERT JUMPDEST DUP1 PUSH2 0x96C DUP2 PUSH2 0x13C3 JUMP JUMPDEST SWAP2 POP POP PUSH2 0x8A1 JUMP JUMPDEST POP PUSH1 0x0 JUMPDEST DUP3 DUP2 LT ISZERO PUSH2 0xA40 JUMPI DUP5 PUSH1 0x1 PUSH1 0x1 PUSH1 0xA0 SHL SUB AND PUSH4 0x23B872DD CALLER ADDRESS DUP8 DUP6 DUP2 MLOAD DUP2 LT PUSH2 0x9A3 JUMPI PUSH2 0x9A3 PUSH2 0x1390 JUMP JUMPDEST PUSH1 0x20 SWAP1 DUP2 MUL SWAP2 SWAP1 SWAP2 ADD ADD MLOAD PUSH1 0x40 MLOAD PUSH32 0xFFFFFFFF00000000000000000000000000000000000000000000000000000000 PUSH1 0xE0 DUP7 SWAP1 SHL AND DUP2 MSTORE PUSH1 0x1 PUSH1 0x1 PUSH1 0xA0 SHL SUB SWAP4 DUP5 AND PUSH1 0x4 DUP3 ADD MSTORE SWAP3 SWAP1 SWAP2 AND PUSH1 0x24 DUP4 ADD MSTORE PUSH1 0x44 DUP3 ADD MSTORE PUSH1 0x64 ADD PUSH1 0x0 PUSH1 0x40 MLOAD DUP1 DUP4 SUB DUP2 PUSH1 0x0 DUP8 DUP1 EXTCODESIZE ISZERO DUP1 ISZERO PUSH2 0xA15 JUMPI PUSH1 0x0 DUP1 REVERT JUMPDEST POP GAS CALL ISZERO DUP1 ISZERO PUSH2 0xA29 JUMPI RETURNDATASIZE PUSH1 0x0 DUP1 RETURNDATACOPY RETURNDATASIZE PUSH1 0x0 REVERT JUMPDEST POP POP POP POP DUP1 DUP1 PUSH2 0xA38 SWAP1 PUSH2 0x13C3 JUMP JUMPDEST SWAP2 POP POP PUSH2 0x978 JUMP JUMPDEST POP PUSH1 0x0 PUSH2 0xA4E CALLER DUP7 DUP6 PUSH2 0xBF2 JUMP JUMPDEST PUSH1 0x40 MLOAD SWAP1 SWAP2 POP CALLER SWAP1 DUP3 ISZERO PUSH2 0x8FC MUL SWAP1 DUP4 SWAP1 PUSH1 0x0 DUP2 DUP2 DUP2 DUP6 DUP9 DUP9 CALL SWAP4 POP POP POP POP ISZERO DUP1 ISZERO PUSH2 0xA7E JUMPI RETURNDATASIZE PUSH1 0x0 DUP1 RETURNDATACOPY RETURNDATASIZE PUSH1 0x0 REVERT JUMPDEST POP PUSH1 0x40 DUP1 MLOAD PUSH1 0xA0 DUP2 ADD DUP3 MSTORE PUSH1 0x1 DUP1 DUP3 MSTORE TIMESTAMP PUSH1 0x20 DUP1 DUP5 ADD SWAP2 DUP3 MSTORE PUSH1 0x1 PUSH1 0x1 PUSH1 0xA0 SHL SUB DUP11 DUP2 AND DUP6 DUP8 ADD SWAP1 DUP2 MSTORE PUSH1 0x60 DUP7 ADD DUP12 DUP2 MSTORE PUSH1 0x80 DUP8 ADD DUP10 SWAP1 MSTORE CALLER PUSH1 0x0 SWAP1 DUP2 MSTORE PUSH1 0xE DUP6 MSTORE SWAP8 SWAP1 SWAP8 KECCAK256 DUP7 MLOAD DUP2 SLOAD PUSH1 0xFF NOT AND SWAP1 ISZERO ISZERO OR DUP2 SSTORE SWAP4 MLOAD SWAP5 DUP5 ADD SWAP5 SWAP1 SWAP5 SSTORE SWAP3 MLOAD PUSH1 0x2 DUP4 ADD DUP1 SLOAD PUSH1 0x1 PUSH1 0x1 PUSH1 0xA0 SHL SUB NOT AND SWAP2 SWAP1 SWAP5 AND OR SWAP1 SWAP3 SSTORE SWAP3 MLOAD DUP1 MLOAD SWAP3 SWAP4 SWAP3 PUSH2 0xB0C SWAP3 PUSH1 0x3 DUP6 ADD SWAP3 ADD SWAP1 PUSH2 0x1062 JUMP JUMPDEST POP PUSH1 0x80 DUP3 ADD MLOAD DUP2 PUSH1 0x4 ADD SSTORE SWAP1 POP POP POP POP POP POP POP JUMP JUMPDEST PUSH2 0xB29 PUSH2 0xDCA JUMP JUMPDEST DUP1 MLOAD PUSH1 0x1 DUP1 SLOAD PUSH1 0x1 PUSH1 0x1 PUSH1 0xA0 SHL SUB NOT AND PUSH1 0x1 PUSH1 0x1 PUSH1 0xA0 SHL SUB SWAP1 SWAP3 AND SWAP2 SWAP1 SWAP2 OR SWAP1 SSTORE PUSH1 0x20 DUP2 ADD MLOAD PUSH1 0x2 SSTORE PUSH1 0x40 DUP2 ADD MLOAD PUSH1 0x3 SSTORE PUSH1 0x60 DUP2 ADD MLOAD PUSH1 0x4 SSTORE PUSH1 0x80 DUP2 ADD MLOAD PUSH1 0x5 SSTORE PUSH1 0xA0 DUP2 ADD MLOAD PUSH1 0x6 SSTORE PUSH1 0xC0 DUP2 ADD MLOAD PUSH1 0x7 SSTORE PUSH1 0xE0 DUP2 ADD MLOAD PUSH1 0x8 SSTORE PUSH2 0x100 DUP2 ADD MLOAD PUSH1 0x9 SSTORE PUSH2 0x120 DUP2 ADD MLOAD PUSH1 0xA SSTORE PUSH2 0x140 DUP2 ADD MLOAD PUSH1 0xB SSTORE PUSH2 0x160 ADD MLOAD PUSH1 0xC SSTORE JUMP JUMPDEST PUSH2 0xBAF PUSH2 0xDCA JUMP JUMPDEST PUSH1 0x1 PUSH1 0x1 PUSH1 0xA0 SHL SUB AND PUSH1 0x0 SWAP1 DUP2 MSTORE PUSH1 0xD PUSH1 0x20 MSTORE PUSH1 0x40 SWAP1 KECCAK256 DUP1 SLOAD PUSH1 0xFF NOT AND SWAP1 SSTORE JUMP JUMPDEST PUSH2 0xBD8 PUSH2 0xDCA JUMP JUMPDEST PUSH2 0x461 PUSH1 0x0 PUSH2 0xF58 JUMP JUMPDEST PUSH2 0xBEA PUSH2 0xDCA JUMP JUMPDEST PUSH2 0x461 PUSH2 0xFA8 JUMP JUMPDEST PUSH1 0x1 SLOAD PUSH1 0x40 MLOAD PUSH4 0x70A08231 PUSH1 0xE0 SHL DUP2 MSTORE PUSH1 0x1 PUSH1 0x1 PUSH1 0xA0 SHL SUB DUP6 DUP2 AND PUSH1 0x4 DUP4 ADD MSTORE PUSH1 0x0 SWAP3 DUP4 SWAP3 SWAP2 AND SWAP1 PUSH4 0x70A08231 SWAP1 PUSH1 0x24 ADD PUSH1 0x20 PUSH1 0x40 MLOAD DUP1 DUP4 SUB DUP2 DUP7 GAS STATICCALL ISZERO DUP1 ISZERO PUSH2 0xC40 JUMPI RETURNDATASIZE PUSH1 0x0 DUP1 RETURNDATACOPY RETURNDATASIZE PUSH1 0x0 REVERT JUMPDEST POP POP POP POP PUSH1 0x40 MLOAD RETURNDATASIZE PUSH1 0x1F NOT PUSH1 0x1F DUP3 ADD AND DUP3 ADD DUP1 PUSH1 0x40 MSTORE POP DUP2 ADD SWAP1 PUSH2 0xC64 SWAP2 SWAP1 PUSH2 0x13DC JUMP JUMPDEST PUSH1 0x1 PUSH1 0x1 PUSH1 0xA0 SHL SUB DUP6 AND PUSH1 0x0 SWAP1 DUP2 MSTORE PUSH1 0xD PUSH1 0x20 MSTORE PUSH1 0x40 DUP2 KECCAK256 PUSH1 0x1 ADD SLOAD SWAP2 SWAP3 POP PUSH2 0xC8D DUP3 DUP7 PUSH2 0x1371 JUMP JUMPDEST PUSH1 0xA SLOAD SWAP1 SWAP2 POP DUP4 LT PUSH2 0xCBD JUMPI PUSH1 0x7 SLOAD PUSH1 0x64 SWAP1 PUSH2 0xCA9 SWAP1 DUP4 PUSH2 0x1371 JUMP JUMPDEST PUSH2 0xCB3 SWAP2 SWAP1 PUSH2 0x13F5 JUMP JUMPDEST SWAP4 POP POP POP POP PUSH2 0xCFF JUMP JUMPDEST PUSH1 0x9 SLOAD DUP4 LT PUSH2 0xCD6 JUMPI PUSH1 0x6 SLOAD PUSH1 0x64 SWAP1 PUSH2 0xCA9 SWAP1 DUP4 PUSH2 0x1371 JUMP JUMPDEST PUSH1 0x8 SLOAD DUP4 LT PUSH2 0xCEF JUMPI PUSH1 0x5 SLOAD PUSH1 0x64 SWAP1 PUSH2 0xCA9 SWAP1 DUP4 PUSH2 0x1371 JUMP JUMPDEST PUSH1 0x4 SLOAD PUSH1 0x64 SWAP1 PUSH2 0xCA9 SWAP1 DUP4 PUSH2 0x1371 JUMP JUMPDEST SWAP4 SWAP3 POP POP POP JUMP JUMPDEST PUSH2 0x461 PUSH2 0xDCA JUMP JUMPDEST PUSH2 0xD16 PUSH2 0xDCA JUMP JUMPDEST PUSH1 0x1 PUSH1 0x1 PUSH1 0xA0 SHL SUB DUP2 AND PUSH2 0xD97 JUMPI PUSH1 0x40 MLOAD PUSH3 0x461BCD PUSH1 0xE5 SHL DUP2 MSTORE PUSH1 0x20 PUSH1 0x4 DUP3 ADD MSTORE PUSH1 0x26 PUSH1 0x24 DUP3 ADD MSTORE PUSH32 0x4F776E61626C653A206E6577206F776E657220697320746865207A65726F2061 PUSH1 0x44 DUP3 ADD MSTORE PUSH32 0x6464726573730000000000000000000000000000000000000000000000000000 PUSH1 0x64 DUP3 ADD MSTORE PUSH1 0x84 ADD JUMPDEST PUSH1 0x40 MLOAD DUP1 SWAP2 SUB SWAP1 REVERT JUMPDEST PUSH2 0xDA0 DUP2 PUSH2 0xF58 JUMP JUMPDEST POP JUMP JUMPDEST PUSH2 0xDAB PUSH2 0xDCA JUMP JUMPDEST PUSH1 0x1 PUSH1 0x1 PUSH1 0xA0 SHL SUB SWAP1 SWAP2 AND PUSH1 0x0 SWAP1 DUP2 MSTORE PUSH1 0xD PUSH1 0x20 MSTORE PUSH1 0x40 SWAP1 KECCAK256 PUSH1 0x1 ADD SSTORE JUMP JUMPDEST PUSH1 0x0 SLOAD PUSH1 0x1 PUSH1 0x1 PUSH1 0xA0 SHL SUB AND CALLER EQ PUSH2 0x461 JUMPI PUSH1 0x40 MLOAD PUSH3 0x461BCD PUSH1 0xE5 SHL DUP2 MSTORE PUSH1 0x20 PUSH1 0x4 DUP3 ADD DUP2 SWAP1 MSTORE PUSH1 0x24 DUP3 ADD MSTORE PUSH32 0x4F776E61626C653A2063616C6C6572206973206E6F7420746865206F776E6572 PUSH1 0x44 DUP3 ADD MSTORE PUSH1 0x64 ADD PUSH2 0xD8E JUMP JUMPDEST PUSH2 0xE2C PUSH2 0xFEB JUMP JUMPDEST PUSH1 0x0 DUP1 SLOAD PUSH1 0xFF PUSH1 0xA0 SHL NOT AND SWAP1 SSTORE PUSH32 0x5DB9EE0A495BF2E6FF9C91A7834C1BA4FDD244A5E8AA4E537BD38AEAE4B073AA CALLER JUMPDEST PUSH1 0x40 MLOAD PUSH1 0x1 PUSH1 0x1 PUSH1 0xA0 SHL SUB SWAP1 SWAP2 AND DUP2 MSTORE PUSH1 0x20 ADD PUSH1 0x40 MLOAD DUP1 SWAP2 SUB SWAP1 LOG1 JUMP JUMPDEST PUSH1 0xB SLOAD PUSH1 0x2 SLOAD PUSH1 0x20 DUP4 ADD MLOAD PUSH1 0x0 SWAP3 SWAP2 PUSH2 0xE91 SWAP2 PUSH2 0x1359 JUMP JUMPDEST PUSH2 0xE9B SWAP2 SWAP1 PUSH2 0x1359 JUMP JUMPDEST TIMESTAMP GT ISZERO PUSH2 0xEAA JUMPI POP PUSH1 0x1 SWAP2 SWAP1 POP JUMP JUMPDEST POP PUSH1 0x0 SWAP2 SWAP1 POP JUMP JUMPDEST PUSH1 0x2 SLOAD PUSH1 0x20 DUP3 ADD MLOAD PUSH1 0x0 SWAP2 PUSH2 0xEC6 SWAP2 PUSH2 0x1359 JUMP JUMPDEST TIMESTAMP GT DUP1 ISZERO PUSH2 0xEF1 JUMPI POP PUSH1 0xB SLOAD PUSH1 0x2 SLOAD PUSH1 0x20 DUP5 ADD MLOAD PUSH2 0xEE4 SWAP2 SWAP1 PUSH2 0x1359 JUMP JUMPDEST PUSH2 0xEEE SWAP2 SWAP1 PUSH2 0x1359 JUMP JUMPDEST TIMESTAMP LT JUMPDEST ISZERO PUSH2 0xEAA JUMPI POP PUSH1 0x1 SWAP2 SWAP1 POP JUMP JUMPDEST PUSH1 0x0 SLOAD PUSH1 0x1 PUSH1 0xA0 SHL SWAP1 DIV PUSH1 0xFF AND ISZERO PUSH2 0x461 JUMPI PUSH1 0x40 MLOAD PUSH3 0x461BCD PUSH1 0xE5 SHL DUP2 MSTORE PUSH1 0x20 PUSH1 0x4 DUP3 ADD MSTORE PUSH1 0x10 PUSH1 0x24 DUP3 ADD MSTORE PUSH32 0x5061757361626C653A2070617573656400000000000000000000000000000000 PUSH1 0x44 DUP3 ADD MSTORE PUSH1 0x64 ADD PUSH2 0xD8E JUMP JUMPDEST PUSH1 0x0 DUP1 SLOAD PUSH1 0x1 PUSH1 0x1 PUSH1 0xA0 SHL SUB DUP4 DUP2 AND PUSH1 0x1 PUSH1 0x1 PUSH1 0xA0 SHL SUB NOT DUP4 AND DUP2 OR DUP5 SSTORE PUSH1 0x40 MLOAD SWAP2 SWAP1 SWAP3 AND SWAP3 DUP4 SWAP2 PUSH32 0x8BE0079C531659141344CD1FD0A4F28419497F9722A3DAAFE3B4186F6B6457E0 SWAP2 SWAP1 LOG3 POP POP JUMP JUMPDEST PUSH2 0xFB0 PUSH2 0xEFE JUMP JUMPDEST PUSH1 0x0 DUP1 SLOAD PUSH1 0xFF PUSH1 0xA0 SHL NOT AND PUSH1 0x1 PUSH1 0xA0 SHL OR SWAP1 SSTORE PUSH32 0x62E78CEA01BEE320CD4E420270B5EA74000D11B0C9F74754EBDBFC544B05A258 PUSH2 0xE5C CALLER SWAP1 JUMP JUMPDEST PUSH1 0x0 SLOAD PUSH1 0x1 PUSH1 0xA0 SHL SWAP1 DIV PUSH1 0xFF AND PUSH2 0x461 JUMPI PUSH1 0x40 MLOAD PUSH3 0x461BCD PUSH1 0xE5 SHL DUP2 MSTORE PUSH1 0x20 PUSH1 0x4 DUP3 ADD MSTORE PUSH1 0x14 PUSH1 0x24 DUP3 ADD MSTORE PUSH32 0x5061757361626C653A206E6F7420706175736564000000000000000000000000 PUSH1 0x44 DUP3 ADD MSTORE PUSH1 0x64 ADD PUSH2 0xD8E JUMP JUMPDEST POP DUP1 SLOAD PUSH1 0x0 DUP3 SSTORE SWAP1 PUSH1 0x0 MSTORE PUSH1 0x20 PUSH1 0x0 KECCAK256 SWAP1 DUP2 ADD SWAP1 PUSH2 0xDA0 SWAP2 SWAP1 PUSH2 0x10AD JUMP JUMPDEST DUP3 DUP1 SLOAD DUP3 DUP3 SSTORE SWAP1 PUSH1 0x0 MSTORE PUSH1 0x20 PUSH1 0x0 KECCAK256 SWAP1 DUP2 ADD SWAP3 DUP3 ISZERO PUSH2 0x109D JUMPI SWAP2 PUSH1 0x20 MUL DUP3 ADD JUMPDEST DUP3 DUP2 GT ISZERO PUSH2 0x109D JUMPI DUP3 MLOAD DUP3 SSTORE SWAP2 PUSH1 0x20 ADD SWAP2 SWAP1 PUSH1 0x1 ADD SWAP1 PUSH2 0x1082 JUMP JUMPDEST POP PUSH2 0x10A9 SWAP3 SWAP2 POP PUSH2 0x10AD JUMP JUMPDEST POP SWAP1 JUMP JUMPDEST JUMPDEST DUP1 DUP3 GT ISZERO PUSH2 0x10A9 JUMPI PUSH1 0x0 DUP2 SSTORE PUSH1 0x1 ADD PUSH2 0x10AE JUMP JUMPDEST PUSH1 0x1 PUSH1 0x1 PUSH1 0xA0 SHL SUB DUP2 AND DUP2 EQ PUSH2 0xDA0 JUMPI PUSH1 0x0 DUP1 REVERT JUMPDEST DUP1 CALLDATALOAD PUSH2 0x10E2 DUP2 PUSH2 0x10C2 JUMP JUMPDEST SWAP2 SWAP1 POP JUMP JUMPDEST PUSH1 0x0 DUP1 PUSH1 0x40 DUP4 DUP6 SUB SLT ISZERO PUSH2 0x10FA JUMPI PUSH1 0x0 DUP1 REVERT JUMPDEST DUP3 CALLDATALOAD PUSH2 0x1105 DUP2 PUSH2 0x10C2 JUMP JUMPDEST SWAP5 PUSH1 0x20 SWAP4 SWAP1 SWAP4 ADD CALLDATALOAD SWAP4 POP POP POP JUMP JUMPDEST PUSH4 0x4E487B71 PUSH1 0xE0 SHL PUSH1 0x0 MSTORE PUSH1 0x41 PUSH1 0x4 MSTORE PUSH1 0x24 PUSH1 0x0 REVERT JUMPDEST PUSH1 0x40 MLOAD PUSH2 0x180 DUP2 ADD PUSH8 0xFFFFFFFFFFFFFFFF DUP2 GT DUP3 DUP3 LT OR ISZERO PUSH2 0x114D JUMPI PUSH2 0x114D PUSH2 0x1113 JUMP JUMPDEST PUSH1 0x40 MSTORE SWAP1 JUMP JUMPDEST PUSH1 0x40 MLOAD PUSH1 0x1F DUP3 ADD PUSH1 0x1F NOT AND DUP2 ADD PUSH8 0xFFFFFFFFFFFFFFFF DUP2 GT DUP3 DUP3 LT OR ISZERO PUSH2 0x117C JUMPI PUSH2 0x117C PUSH2 0x1113 JUMP JUMPDEST PUSH1 0x40 MSTORE SWAP2 SWAP1 POP JUMP JUMPDEST PUSH1 0x0 DUP1 PUSH1 0x40 DUP4 DUP6 SUB SLT ISZERO PUSH2 0x1197 JUMPI PUSH1 0x0 DUP1 REVERT JUMPDEST DUP3 CALLDATALOAD PUSH2 0x11A2 DUP2 PUSH2 0x10C2 JUMP JUMPDEST SWAP2 POP PUSH1 0x20 DUP4 DUP2 ADD CALLDATALOAD PUSH8 0xFFFFFFFFFFFFFFFF DUP1 DUP3 GT ISZERO PUSH2 0x11C0 JUMPI PUSH1 0x0 DUP1 REVERT JUMPDEST DUP2 DUP7 ADD SWAP2 POP DUP7 PUSH1 0x1F DUP4 ADD SLT PUSH2 0x11D4 JUMPI PUSH1 0x0 DUP1 REVERT JUMPDEST DUP2 CALLDATALOAD DUP2 DUP2 GT ISZERO PUSH2 0x11E6 JUMPI PUSH2 0x11E6 PUSH2 0x1113 JUMP JUMPDEST DUP1 PUSH1 0x5 SHL SWAP2 POP PUSH2 0x11F7 DUP5 DUP4 ADD PUSH2 0x1153 JUMP JUMPDEST DUP2 DUP2 MSTORE SWAP2 DUP4 ADD DUP5 ADD SWAP2 DUP5 DUP2 ADD SWAP1 DUP10 DUP5 GT ISZERO PUSH2 0x1211 JUMPI PUSH1 0x0 DUP1 REVERT JUMPDEST SWAP4 DUP6 ADD SWAP4 JUMPDEST DUP4 DUP6 LT ISZERO PUSH2 0x122F JUMPI DUP5 CALLDATALOAD DUP3 MSTORE SWAP4 DUP6 ADD SWAP4 SWAP1 DUP6 ADD SWAP1 PUSH2 0x1216 JUMP JUMPDEST DUP1 SWAP7 POP POP POP POP POP POP POP SWAP3 POP SWAP3 SWAP1 POP JUMP JUMPDEST PUSH1 0x0 PUSH2 0x180 DUP3 DUP5 SUB SLT ISZERO PUSH2 0x1252 JUMPI PUSH1 0x0 DUP1 REVERT JUMPDEST PUSH2 0x125A PUSH2 0x1129 JUMP JUMPDEST PUSH2 0x1263 DUP4 PUSH2 0x10D7 JUMP JUMPDEST DUP2 MSTORE PUSH1 0x20 DUP4 ADD CALLDATALOAD PUSH1 0x20 DUP3 ADD MSTORE PUSH1 0x40 DUP4 ADD CALLDATALOAD PUSH1 0x40 DUP3 ADD MSTORE PUSH1 0x60 DUP4 ADD CALLDATALOAD PUSH1 0x60 DUP3 ADD MSTORE PUSH1 0x80 DUP4 ADD CALLDATALOAD PUSH1 0x80 DUP3 ADD MSTORE PUSH1 0xA0 DUP4 ADD CALLDATALOAD PUSH1 0xA0 DUP3 ADD MSTORE PUSH1 0xC0 DUP4 ADD CALLDATALOAD PUSH1 0xC0 DUP3 ADD MSTORE PUSH1 0xE0 DUP4 ADD CALLDATALOAD PUSH1 0xE0 DUP3 ADD MSTORE PUSH2 0x100 DUP1 DUP5 ADD CALLDATALOAD DUP2 DUP4 ADD MSTORE POP PUSH2 0x120 DUP1 DUP5 ADD CALLDATALOAD DUP2 DUP4 ADD MSTORE POP PUSH2 0x140 DUP1 DUP5 ADD CALLDATALOAD DUP2 DUP4 ADD MSTORE POP PUSH2 0x160 DUP1 DUP5 ADD CALLDATALOAD DUP2 DUP4 ADD MSTORE POP DUP1 SWAP2 POP POP SWAP3 SWAP2 POP POP JUMP JUMPDEST PUSH1 0x0 PUSH1 0x20 DUP3 DUP5 SUB SLT ISZERO PUSH2 0x12F7 JUMPI PUSH1 0x0 DUP1 REVERT JUMPDEST DUP2 CALLDATALOAD PUSH2 0xCFF DUP2 PUSH2 0x10C2 JUMP JUMPDEST PUSH1 0x0 DUP1 PUSH1 0x0 PUSH1 0x60 DUP5 DUP7 SUB SLT ISZERO PUSH2 0x1317 JUMPI PUSH1 0x0 DUP1 REVERT JUMPDEST DUP4 CALLDATALOAD PUSH2 0x1322 DUP2 PUSH2 0x10C2 JUMP JUMPDEST SWAP3 POP PUSH1 0x20 DUP5 ADD CALLDATALOAD PUSH2 0x1332 DUP2 PUSH2 0x10C2 JUMP JUMPDEST SWAP3 SWAP6 SWAP3 SWAP5 POP POP POP PUSH1 0x40 SWAP2 SWAP1 SWAP2 ADD CALLDATALOAD SWAP1 JUMP JUMPDEST PUSH4 0x4E487B71 PUSH1 0xE0 SHL PUSH1 0x0 MSTORE PUSH1 0x11 PUSH1 0x4 MSTORE PUSH1 0x24 PUSH1 0x0 REVERT JUMPDEST PUSH1 0x0 DUP3 NOT DUP3 GT ISZERO PUSH2 0x136C JUMPI PUSH2 0x136C PUSH2 0x1343 JUMP JUMPDEST POP ADD SWAP1 JUMP JUMPDEST PUSH1 0x0 DUP2 PUSH1 0x0 NOT DIV DUP4 GT DUP3 ISZERO ISZERO AND ISZERO PUSH2 0x138B JUMPI PUSH2 0x138B PUSH2 0x1343 JUMP JUMPDEST POP MUL SWAP1 JUMP JUMPDEST PUSH4 0x4E487B71 PUSH1 0xE0 SHL PUSH1 0x0 MSTORE PUSH1 0x32 PUSH1 0x4 MSTORE PUSH1 0x24 PUSH1 0x0 REVERT JUMPDEST PUSH1 0x0 PUSH1 0x20 DUP3 DUP5 SUB SLT ISZERO PUSH2 0x13B8 JUMPI PUSH1 0x0 DUP1 REVERT JUMPDEST DUP2 MLOAD PUSH2 0xCFF DUP2 PUSH2 0x10C2 JUMP JUMPDEST PUSH1 0x0 PUSH1 0x1 DUP3 ADD PUSH2 0x13D5 JUMPI PUSH2 0x13D5 PUSH2 0x1343 JUMP JUMPDEST POP PUSH1 0x1 ADD SWAP1 JUMP JUMPDEST PUSH1 0x0 PUSH1 0x20 DUP3 DUP5 SUB SLT ISZERO PUSH2 0x13EE JUMPI PUSH1 0x0 DUP1 REVERT JUMPDEST POP MLOAD SWAP2 SWAP1 POP JUMP JUMPDEST PUSH1 0x0 DUP3 PUSH2 0x1412 JUMPI PUSH4 0x4E487B71 PUSH1 0xE0 SHL PUSH1 0x0 MSTORE PUSH1 0x12 PUSH1 0x4 MSTORE PUSH1 0x24 PUSH1 0x0 REVERT JUMPDEST POP DIV SWAP1 JUMP INVALID LOG2 PUSH5 0x6970667358 0x22 SLT KECCAK256 0xE7 0xD7 DUP14 0xD1 0xD4 0xAF PUSH21 0x6FBEE2CA99ED1C9D1D92D0D81AC4E90859527CFC2A SLOAD SWAP11 0xA6 SWAP15 PUSH5 0x736F6C6343 STOP ADDMOD 0xD STOP CALLER "
    },
    "gasEstimates": {
      "creation": {
        "codeDepositCost": "1039400",
        "executionCost": "51145",
        "totalCost": "1090545"
      },
      "external": {
        "addCollection(address,uint256)": "48928",
        "borrow(address,uint256[])": "infinite",
        "collection(address)": "4717",
        "deposit()": "infinite",
        "getBorrowAmount(address,address,uint256)": "infinite",
        "loan(address)": "9035",
        "owner()": "2390",
        "pause()": "infinite",
        "paused()": "2398",
        "removeCollection(address)": "26807",
        "renounceOwnership()": "infinite",
        "repay()": "infinite",
        "setCollectionFloor(address,uint256)": "24768",
        "setStateVariables((address,uint256,uint256,uint256,uint256,uint256,uint256,uint256,uint256,uint256,uint256,uint256))": "270475",
        "stateVariables()": "25772",
        "transferOwnership(address)": "infinite",
        "unpause()": "infinite"
      },
      "internal": {
        "_isLate(struct OasisLend.Loan memory)": "infinite",
        "_isTooLate(struct OasisLend.Loan memory)": "infinite"
      }
    },
    "methodIdentifiers": {
      "addCollection(address,uint256)": "19f101fa",
      "borrow(address,uint256[])": "4a68dbf0",
      "collection(address)": "e94886d2",
      "deposit()": "d0e30db0",
      "getBorrowAmount(address,address,uint256)": "8a3cf3a1",
      "loan(address)": "b5e2ebc6",
      "owner()": "8da5cb5b",
      "pause()": "8456cb59",
      "paused()": "5c975abb",
      "removeCollection(address)": "5028d05a",
      "renounceOwnership()": "715018a6",
      "repay()": "402d8883",
      "setCollectionFloor(address,uint256)": "fdd7a4eb",
      "setStateVariables((address,uint256,uint256,uint256,uint256,uint256,uint256,uint256,uint256,uint256,uint256,uint256))": "4bd4705f",
      "stateVariables()": "53a75e25",
      "transferOwnership(address)": "f2fde38b",
      "unpause()": "3f4ba83a"
    }
  },
  "storageLayout": {
    "storage": [
      {
        "astId": 6132,
        "contract": "OasisLend.sol:OasisLend",
        "label": "_owner",
        "offset": 0,
        "slot": "0",
        "type": "t_address"
      },
      {
        "astId": 7571,
        "contract": "OasisLend.sol:OasisLend",
        "label": "_paused",
        "offset": 20,
        "slot": "0",
        "type": "t_bool"
      },
      {
        "astId": 3887,
        "contract": "OasisLend.sol:OasisLend",
        "label": "stateVariables",
        "offset": 0,
        "slot": "1",
        "type": "t_struct(StateVariables)3922_storage"
      },
      {
        "astId": 3892,
        "contract": "OasisLend.sol:OasisLend",
        "label": "collection",
        "offset": 0,
        "slot": "13",
        "type": "t_mapping(t_address,t_struct(Collection)3927_storage)"
      },
      {
        "astId": 3897,
        "contract": "OasisLend.sol:OasisLend",
        "label": "loan",
        "offset": 0,
        "slot": "14",
        "type": "t_mapping(t_address,t_struct(Loan)3939_storage)"
      }
    ],
    "types": {
      "t_address": {
        "encoding": "inplace",
        "label": "address",
        "numberOfBytes": "20"
      },
      "t_array(t_uint256)dyn_storage": {
        "base": "t_uint256",
        "encoding": "dynamic_array",
        "label": "uint256[]",
        "numberOfBytes": "32"
      },
      "t_bool": {
        "encoding": "inplace",
        "label": "bool",
        "numberOfBytes": "1"
      },
      "t_mapping(t_address,t_struct(Collection)3927_storage)": {
        "encoding": "mapping",
        "key": "t_address",
        "label": "mapping(address => struct OasisLend.Collection)",
        "numberOfBytes": "32",
        "value": "t_struct(Collection)3927_storage"
      },
      "t_mapping(t_address,t_struct(Loan)3939_storage)": {
        "encoding": "mapping",
        "key": "t_address",
        "label": "mapping(address => struct OasisLend.Loan)",
        "numberOfBytes": "32",
        "value": "t_struct(Loan)3939_storage"
      },
      "t_struct(Collection)3927_storage": {
        "encoding": "inplace",
        "label": "struct OasisLend.Collection",
        "members": [
          {
            "astId": 3924,
            "contract": "OasisLend.sol:OasisLend",
            "label": "isActive",
            "offset": 0,
            "slot": "0",
            "type": "t_bool"
          },
          {
            "astId": 3926,
            "contract": "OasisLend.sol:OasisLend",
            "label": "floor",
            "offset": 0,
            "slot": "1",
            "type": "t_uint256"
          }
        ],
        "numberOfBytes": "64"
      },
      "t_struct(Loan)3939_storage": {
        "encoding": "inplace",
        "label": "struct OasisLend.Loan",
        "members": [
          {
            "astId": 3929,
            "contract": "OasisLend.sol:OasisLend",
            "label": "isActive",
            "offset": 0,
            "slot": "0",
            "type": "t_bool"
          },
          {
            "astId": 3931,
            "contract": "OasisLend.sol:OasisLend",
            "label": "loanStart",
            "offset": 0,
            "slot": "1",
            "type": "t_uint256"
          },
          {
            "astId": 3933,
            "contract": "OasisLend.sol:OasisLend",
            "label": "collection",
            "offset": 0,
            "slot": "2",
            "type": "t_address"
          },
          {
            "astId": 3936,
            "contract": "OasisLend.sol:OasisLend",
            "label": "tokenIds",
            "offset": 0,
            "slot": "3",
            "type": "t_array(t_uint256)dyn_storage"
          },
          {
            "astId": 3938,
            "contract": "OasisLend.sol:OasisLend",
            "label": "borrowAmount",
            "offset": 0,
            "slot": "4",
            "type": "t_uint256"
          }
        ],
        "numberOfBytes": "160"
      },
      "t_struct(StateVariables)3922_storage": {
        "encoding": "inplace",
        "label": "struct OasisLend.StateVariables",
        "members": [
          {
            "astId": 3899,
            "contract": "OasisLend.sol:OasisLend",
            "label": "evolvedCamels",
            "offset": 0,
            "slot": "0",
            "type": "t_address"
          },
          {
            "astId": 3901,
            "contract": "OasisLend.sol:OasisLend",
            "label": "loanDuration",
            "offset": 0,
            "slot": "1",
            "type": "t_uint256"
          },
          {
            "astId": 3903,
            "contract": "OasisLend.sol:OasisLend",
            "label": "borrowFee",
            "offset": 0,
            "slot": "2",
            "type": "t_uint256"
          },
          {
            "astId": 3905,
            "contract": "OasisLend.sol:OasisLend",
            "label": "nonEvolvedRate",
            "offset": 0,
            "slot": "3",
            "type": "t_uint256"
          },
          {
            "astId": 3907,
            "contract": "OasisLend.sol:OasisLend",
            "label": "evolvedRate",
            "offset": 0,
            "slot": "4",
            "type": "t_uint256"
          },
          {
            "astId": 3909,
            "contract": "OasisLend.sol:OasisLend",
            "label": "cavalryRate",
            "offset": 0,
            "slot": "5",
            "type": "t_uint256"
          },
          {
            "astId": 3911,
            "contract": "OasisLend.sol:OasisLend",
            "label": "innerCircleRate",
            "offset": 0,
            "slot": "6",
            "type": "t_uint256"
          },
          {
            "astId": 3913,
            "contract": "OasisLend.sol:OasisLend",
            "label": "evolvedBalance",
            "offset": 0,
            "slot": "7",
            "type": "t_uint256"
          },
          {
            "astId": 3915,
            "contract": "OasisLend.sol:OasisLend",
            "label": "cavalryBalance",
            "offset": 0,
            "slot": "8",
            "type": "t_uint256"
          },
          {
            "astId": 3917,
            "contract": "OasisLend.sol:OasisLend",
            "label": "innerCircleBalance",
            "offset": 0,
            "slot": "9",
            "type": "t_uint256"
          },
          {
            "astId": 3919,
            "contract": "OasisLend.sol:OasisLend",
            "label": "gracePeriod",
            "offset": 0,
            "slot": "10",
            "type": "t_uint256"
          },
          {
            "astId": 3921,
            "contract": "OasisLend.sol:OasisLend",
            "label": "lateFee",
            "offset": 0,
            "slot": "11",
            "type": "t_uint256"
          }
        ],
        "numberOfBytes": "384"
      },
      "t_uint256": {
        "encoding": "inplace",
        "label": "uint256",
        "numberOfBytes": "32"
      }
    }
  },
  "userdoc": {
    "errors": {
      "DoesNotOwnNFT()": [
        {
          "notice": "ERRORS ///"
        }
      ]
    },
    "kind": "user",
    "methods": {
      "borrow(address,uint256[])": {
        "notice": "USER FUNCTIONS ///"
      },
      "pause()": {
        "notice": "OWNER FUNCTIONS ///"
      },
      "stateVariables()": {
        "notice": "STATE VARIABLES ///"
      }
    },
    "version": 1
  }
}