{
  "abi": [
    {
      "inputs": [
        {
          "internalType": "contract OasisStaking",
          "name": "_oasisStaking",
          "type": "address"
        },
        {
          "internalType": "contract IERC721Enumerable",
          "name": "_evolvedCamels",
          "type": "address"
        }
      ],
      "stateMutability": "nonpayable",
      "type": "constructor"
    },
    {
      "inputs": [
        {
          "internalType": "address",
          "name": "_address",
          "type": "address"
        }
      ],
      "name": "GetStakedTokenIds",
      "outputs": [
        {
          "internalType": "uint256[]",
          "name": "stakedTokenIds_",
          "type": "uint256[]"
        }
      ],
      "stateMutability": "view",
      "type": "function"
    },
    {
      "inputs": [],
      "name": "evolvedCamels",
      "outputs": [
        {
          "internalType": "contract IERC721Enumerable",
          "name": "",
          "type": "address"
        }
      ],
      "stateMutability": "view",
      "type": "function"
    },
    {
      "inputs": [],
      "name": "oasisStaking",
      "outputs": [
        {
          "internalType": "contract OasisStaking",
          "name": "",
          "type": "address"
        }
      ],
      "stateMutability": "view",
      "type": "function"
    }
  ],
  "devdoc": {
    "kind": "dev",
    "methods": {},
    "version": 1
  },
  "evm": {
    "assembly": "    /* \"OasisHelper.sol\":173:1433  contract OasisHelper {... */\n  mstore(0x40, 0xc0)\n    /* \"OasisHelper.sol\":307:469  constructor(OasisStaking _oasisStaking, IERC721Enumerable _evolvedCamels) {... */\n  callvalue\n  dup1\n  iszero\n  tag_1\n  jumpi\n  0x00\n  dup1\n  revert\ntag_1:\n  pop\n  mload(0x40)\n  sub(codesize, bytecodeSize)\n  dup1\n  bytecodeSize\n  dup4\n  codecopy\n  dup2\n  add\n  0x40\n  dup2\n  swap1\n  mstore\n  tag_2\n  swap2\n  tag_3\n  jump\t// in\ntag_2:\n  sub(shl(0xa0, 0x01), 0x01)\n    /* \"OasisHelper.sol\":392:420  oasisStaking = _oasisStaking */\n  swap2\n  dup3\n  and\n  0x80\n  mstore\n    /* \"OasisHelper.sol\":431:461  evolvedCamels = _evolvedCamels */\n  and\n  0xa0\n  mstore\n    /* \"OasisHelper.sol\":173:1433  contract OasisHelper {... */\n  jump(tag_8)\n    /* \"#utility.yul\":14:159   */\ntag_7:\n  sub(shl(0xa0, 0x01), 0x01)\n    /* \"#utility.yul\":103:134   */\n  dup2\n  and\n    /* \"#utility.yul\":93:135   */\n  dup2\n  eq\n    /* \"#utility.yul\":83:153   */\n  tag_10\n  jumpi\n    /* \"#utility.yul\":149:150   */\n  0x00\n    /* \"#utility.yul\":146:147   */\n  dup1\n    /* \"#utility.yul\":139:151   */\n  revert\n    /* \"#utility.yul\":83:153   */\ntag_10:\n    /* \"#utility.yul\":14:159   */\n  pop\n  jump\t// out\n    /* \"#utility.yul\":164:624   */\ntag_3:\n    /* \"#utility.yul\":290:296   */\n  0x00\n    /* \"#utility.yul\":298:304   */\n  dup1\n    /* \"#utility.yul\":351:353   */\n  0x40\n    /* \"#utility.yul\":339:348   */\n  dup4\n    /* \"#utility.yul\":330:337   */\n  dup6\n    /* \"#utility.yul\":326:349   */\n  sub\n    /* \"#utility.yul\":322:354   */\n  slt\n    /* \"#utility.yul\":319:371   */\n  iszero\n  tag_12\n  jumpi\n    /* \"#utility.yul\":367:368   */\n  0x00\n    /* \"#utility.yul\":364:365   */\n  dup1\n    /* \"#utility.yul\":357:369   */\n  revert\n    /* \"#utility.yul\":319:371   */\ntag_12:\n    /* \"#utility.yul\":399:408   */\n  dup3\n    /* \"#utility.yul\":393:409   */\n  mload\n    /* \"#utility.yul\":418:463   */\n  tag_13\n    /* \"#utility.yul\":457:462   */\n  dup2\n    /* \"#utility.yul\":418:463   */\n  tag_7\n  jump\t// in\ntag_13:\n    /* \"#utility.yul\":532:534   */\n  0x20\n    /* \"#utility.yul\":517:535   */\n  dup5\n  add\n    /* \"#utility.yul\":511:536   */\n  mload\n    /* \"#utility.yul\":482:487   */\n  swap1\n  swap3\n  pop\n    /* \"#utility.yul\":545:592   */\n  tag_14\n    /* \"#utility.yul\":511:536   */\n  dup2\n    /* \"#utility.yul\":545:592   */\n  tag_7\n  jump\t// in\ntag_14:\n    /* \"#utility.yul\":611:618   */\n  dup1\n    /* \"#utility.yul\":601:618   */\n  swap2\n  pop\n  pop\n    /* \"#utility.yul\":164:624   */\n  swap3\n  pop\n  swap3\n  swap1\n  pop\n  jump\t// out\ntag_8:\n    /* \"OasisHelper.sol\":173:1433  contract OasisHelper {... */\n  mload(0x80)\n  mload(0xa0)\n  codecopy(0x00, dataOffset(sub_0), dataSize(sub_0))\n  0x00\n  assignImmutable(\"0x75d928d3801dea4a51b9bb5f48992384bb605d7496d58ffa134807d0bf38cdd3\")\n  0x00\n  assignImmutable(\"0x70263c1360b81ed9c82e245d9afb62d92ee76beca262ad1e70f218cac7d0fcd0\")\n  return(0x00, dataSize(sub_0))\nstop\n\nsub_0: assembly {\n        /* \"OasisHelper.sol\":173:1433  contract OasisHelper {... */\n      mstore(0x40, 0x80)\n      callvalue\n      dup1\n      iszero\n      tag_1\n      jumpi\n      0x00\n      dup1\n      revert\n    tag_1:\n      pop\n      jumpi(tag_2, lt(calldatasize, 0x04))\n      shr(0xe0, calldataload(0x00))\n      dup1\n      0x81c33b93\n      eq\n      tag_3\n      jumpi\n      dup1\n      0xac24a5ca\n      eq\n      tag_4\n      jumpi\n      dup1\n      0xc6647ed9\n      eq\n      tag_5\n      jumpi\n    tag_2:\n      0x00\n      dup1\n      revert\n        /* \"OasisHelper.sol\":250:298  IERC721Enumerable public immutable evolvedCamels */\n    tag_3:\n      tag_6\n      immutable(\"0x75d928d3801dea4a51b9bb5f48992384bb605d7496d58ffa134807d0bf38cdd3\")\n      dup2\n      jump\n    tag_6:\n      mload(0x40)\n      sub(shl(0xa0, 0x01), 0x01)\n        /* \"#utility.yul\":204:259   */\n      swap1\n      swap2\n      and\n        /* \"#utility.yul\":186:260   */\n      dup2\n      mstore\n        /* \"#utility.yul\":174:176   */\n      0x20\n        /* \"#utility.yul\":159:177   */\n      add\n        /* \"OasisHelper.sol\":250:298  IERC721Enumerable public immutable evolvedCamels */\n    tag_8:\n      mload(0x40)\n      dup1\n      swap2\n      sub\n      swap1\n      return\n        /* \"OasisHelper.sol\":477:1430  function GetStakedTokenIds(address _address) external view returns (uint256[] memory stakedTokenIds_) {... */\n    tag_4:\n      tag_10\n      tag_11\n      calldatasize\n      0x04\n      tag_12\n      jump\t// in\n    tag_11:\n      tag_13\n      jump\t// in\n    tag_10:\n      mload(0x40)\n      tag_8\n      swap2\n      swap1\n      tag_15\n      jump\t// in\n        /* \"OasisHelper.sol\":201:243  OasisStaking public immutable oasisStaking */\n    tag_5:\n      tag_6\n      immutable(\"0x70263c1360b81ed9c82e245d9afb62d92ee76beca262ad1e70f218cac7d0fcd0\")\n      dup2\n      jump\n        /* \"OasisHelper.sol\":477:1430  function GetStakedTokenIds(address _address) external view returns (uint256[] memory stakedTokenIds_) {... */\n    tag_13:\n        /* \"OasisHelper.sol\":615:661  evolvedCamels.balanceOf(address(oasisStaking)) */\n      mload(0x40)\n      shl(0xe0, 0x70a08231)\n      dup2\n      mstore\n      sub(shl(0xa0, 0x01), 0x01)\n        /* \"OasisHelper.sol\":647:659  oasisStaking */\n      immutable(\"0x70263c1360b81ed9c82e245d9afb62d92ee76beca262ad1e70f218cac7d0fcd0\")\n        /* \"#utility.yul\":204:259   */\n      dup2\n      and\n        /* \"OasisHelper.sol\":615:661  evolvedCamels.balanceOf(address(oasisStaking)) */\n      0x04\n      dup4\n      add\n        /* \"#utility.yul\":186:260   */\n      mstore\n        /* \"OasisHelper.sol\":545:577  uint256[] memory stakedTokenIds_ */\n      0x60\n      swap2\n      0x00\n      swap2\n        /* \"OasisHelper.sol\":615:628  evolvedCamels */\n      immutable(\"0x75d928d3801dea4a51b9bb5f48992384bb605d7496d58ffa134807d0bf38cdd3\")\n        /* \"OasisHelper.sol\":615:638  evolvedCamels.balanceOf */\n      and\n      swap1\n      0x70a08231\n      swap1\n        /* \"#utility.yul\":159:177   */\n      0x24\n      add\n        /* \"OasisHelper.sol\":615:661  evolvedCamels.balanceOf(address(oasisStaking)) */\n      0x20\n      mload(0x40)\n      dup1\n      dup4\n      sub\n      dup2\n      dup7\n      gas\n      staticcall\n      iszero\n      dup1\n      iszero\n      tag_24\n      jumpi\n      returndatasize\n      0x00\n      dup1\n      returndatacopy\n      revert(0x00, returndatasize)\n    tag_24:\n      pop\n      pop\n      pop\n      pop\n      mload(0x40)\n      returndatasize\n      not(0x1f)\n      0x1f\n      dup3\n      add\n      and\n      dup3\n      add\n      dup1\n      0x40\n      mstore\n      pop\n      dup2\n      add\n      swap1\n      tag_25\n      swap2\n      swap1\n      tag_26\n      jump\t// in\n    tag_25:\n        /* \"OasisHelper.sol\":697:733  oasisStaking.userStakeInfo(_address) */\n      mload(0x40)\n      shl(0xe0, 0x4ead4327)\n      dup2\n      mstore\n      sub(shl(0xa0, 0x01), 0x01)\n        /* \"#utility.yul\":204:259   */\n      dup6\n      dup2\n      and\n        /* \"OasisHelper.sol\":697:733  oasisStaking.userStakeInfo(_address) */\n      0x04\n      dup4\n      add\n        /* \"#utility.yul\":186:260   */\n      mstore\n        /* \"OasisHelper.sol\":590:661  uint256 contractStaked = evolvedCamels.balanceOf(address(oasisStaking)) */\n      swap2\n      swap3\n      pop\n        /* \"OasisHelper.sol\":673:691  uint256 userStaked */\n      0x00\n      swap2\n        /* \"OasisHelper.sol\":697:709  oasisStaking */\n      immutable(\"0x70263c1360b81ed9c82e245d9afb62d92ee76beca262ad1e70f218cac7d0fcd0\")\n        /* \"OasisHelper.sol\":697:723  oasisStaking.userStakeInfo */\n      and\n      swap1\n      0x4ead4327\n      swap1\n        /* \"#utility.yul\":159:177   */\n      0x24\n      add\n        /* \"OasisHelper.sol\":697:733  oasisStaking.userStakeInfo(_address) */\n      0x40\n      dup1\n      mload\n      dup1\n      dup4\n      sub\n      dup2\n      dup7\n      gas\n      staticcall\n      iszero\n      dup1\n      iszero\n      tag_29\n      jumpi\n      returndatasize\n      0x00\n      dup1\n      returndatacopy\n      revert(0x00, returndatasize)\n    tag_29:\n      pop\n      pop\n      pop\n      pop\n      mload(0x40)\n      returndatasize\n      not(0x1f)\n      0x1f\n      dup3\n      add\n      and\n      dup3\n      add\n      dup1\n      0x40\n      mstore\n      pop\n      dup2\n      add\n      swap1\n      tag_30\n      swap2\n      swap1\n      tag_31\n      jump\t// in\n    tag_30:\n        /* \"OasisHelper.sol\":672:733  (uint256 userStaked, ) = oasisStaking.userStakeInfo(_address) */\n      pop\n      swap1\n      pop\n        /* \"OasisHelper.sol\":746:777  uint256[] memory stakedTokenIds */\n      0x00\n        /* \"OasisHelper.sol\":794:804  userStaked */\n      dup2\n        /* \"OasisHelper.sol\":780:805  new uint256[](userStaked) */\n      0xffffffffffffffff\n      dup2\n      gt\n      iszero\n      tag_33\n      jumpi\n      tag_33\n      tag_34\n      jump\t// in\n    tag_33:\n      mload(0x40)\n      swap1\n      dup1\n      dup3\n      mstore\n      dup1\n      0x20\n      mul\n      0x20\n      add\n      dup3\n      add\n      0x40\n      mstore\n      dup1\n      iszero\n      tag_35\n      jumpi\n      dup2\n      0x20\n      add\n      0x20\n      dup3\n      mul\n      dup1\n      calldatasize\n      dup4\n      calldatacopy\n      add\n      swap1\n      pop\n    tag_35:\n      pop\n        /* \"OasisHelper.sol\":746:805  uint256[] memory stakedTokenIds = new uint256[](userStaked) */\n      swap1\n      pop\n        /* \"OasisHelper.sol\":816:838  uint256 currentTokenId */\n      0x00\n        /* \"OasisHelper.sol\":849:877  address currentTokenIdStaker */\n      dup1\n        /* \"OasisHelper.sol\":888:908  uint256 currentIndex */\n      0x00\n        /* \"OasisHelper.sol\":928:937  uint256 i */\n      dup1\n        /* \"OasisHelper.sol\":923:1389  for (uint256 i = 0; i < contractStaked; i++) {... */\n    tag_36:\n        /* \"OasisHelper.sol\":947:961  contractStaked */\n      dup7\n        /* \"OasisHelper.sol\":943:944  i */\n      dup2\n        /* \"OasisHelper.sol\":943:961  i < contractStaked */\n      lt\n        /* \"OasisHelper.sol\":923:1389  for (uint256 i = 0; i < contractStaked; i++) {... */\n      iszero\n      tag_37\n      jumpi\n        /* \"OasisHelper.sol\":1000:1059  evolvedCamels.tokenOfOwnerByIndex(address(oasisStaking), i) */\n      mload(0x40)\n      shl(0xe0, 0x2f745c59)\n      dup2\n      mstore\n      sub(shl(0xa0, 0x01), 0x01)\n        /* \"OasisHelper.sol\":1042:1054  oasisStaking */\n      immutable(\"0x70263c1360b81ed9c82e245d9afb62d92ee76beca262ad1e70f218cac7d0fcd0\")\n        /* \"#utility.yul\":2565:2620   */\n      dup2\n      and\n        /* \"OasisHelper.sol\":1000:1059  evolvedCamels.tokenOfOwnerByIndex(address(oasisStaking), i) */\n      0x04\n      dup4\n      add\n        /* \"#utility.yul\":2547:2621   */\n      mstore\n        /* \"#utility.yul\":2637:2655   */\n      0x24\n      dup3\n      add\n        /* \"#utility.yul\":2630:2664   */\n      dup4\n      swap1\n      mstore\n        /* \"OasisHelper.sol\":1000:1013  evolvedCamels */\n      immutable(\"0x75d928d3801dea4a51b9bb5f48992384bb605d7496d58ffa134807d0bf38cdd3\")\n        /* \"OasisHelper.sol\":1000:1033  evolvedCamels.tokenOfOwnerByIndex */\n      and\n      swap1\n      0x2f745c59\n      swap1\n        /* \"#utility.yul\":2520:2538   */\n      0x44\n      add\n        /* \"OasisHelper.sol\":1000:1059  evolvedCamels.tokenOfOwnerByIndex(address(oasisStaking), i) */\n      0x20\n      mload(0x40)\n      dup1\n      dup4\n      sub\n      dup2\n      dup7\n      gas\n      staticcall\n      iszero\n      dup1\n      iszero\n      tag_42\n      jumpi\n      returndatasize\n      0x00\n      dup1\n      returndatacopy\n      revert(0x00, returndatasize)\n    tag_42:\n      pop\n      pop\n      pop\n      pop\n      mload(0x40)\n      returndatasize\n      not(0x1f)\n      0x1f\n      dup3\n      add\n      and\n      dup3\n      add\n      dup1\n      0x40\n      mstore\n      pop\n      dup2\n      add\n      swap1\n      tag_43\n      swap2\n      swap1\n      tag_26\n      jump\t// in\n    tag_43:\n        /* \"OasisHelper.sol\":1097:1139  oasisStaking.stakerAddress(currentTokenId) */\n      mload(0x40)\n      shl(0xe0, 0x94067045)\n      dup2\n      mstore\n      0x04\n      dup2\n      add\n        /* \"#utility.yul\":2821:2846   */\n      dup3\n      swap1\n      mstore\n        /* \"OasisHelper.sol\":983:1059  currentTokenId = evolvedCamels.tokenOfOwnerByIndex(address(oasisStaking), i) */\n      swap1\n      swap5\n      pop\n        /* \"OasisHelper.sol\":1097:1109  oasisStaking */\n      immutable(\"0x70263c1360b81ed9c82e245d9afb62d92ee76beca262ad1e70f218cac7d0fcd0\")\n      sub(shl(0xa0, 0x01), 0x01)\n        /* \"OasisHelper.sol\":1097:1123  oasisStaking.stakerAddress */\n      and\n      swap1\n      0x94067045\n      swap1\n        /* \"#utility.yul\":2794:2812   */\n      0x24\n      add\n        /* \"OasisHelper.sol\":1097:1139  oasisStaking.stakerAddress(currentTokenId) */\n      0x20\n      mload(0x40)\n      dup1\n      dup4\n      sub\n      dup2\n      dup7\n      gas\n      staticcall\n      iszero\n      dup1\n      iszero\n      tag_47\n      jumpi\n      returndatasize\n      0x00\n      dup1\n      returndatacopy\n      revert(0x00, returndatasize)\n    tag_47:\n      pop\n      pop\n      pop\n      pop\n      mload(0x40)\n      returndatasize\n      not(0x1f)\n      0x1f\n      dup3\n      add\n      and\n      dup3\n      add\n      dup1\n      0x40\n      mstore\n      pop\n      dup2\n      add\n      swap1\n      tag_48\n      swap2\n      swap1\n      tag_49\n      jump\t// in\n    tag_48:\n        /* \"OasisHelper.sol\":1074:1139  currentTokenIdStaker = oasisStaking.stakerAddress(currentTokenId) */\n      swap3\n      pop\n        /* \"OasisHelper.sol\":1182:1190  _address */\n      dup9\n      sub(shl(0xa0, 0x01), 0x01)\n        /* \"OasisHelper.sol\":1158:1190  currentTokenIdStaker == _address */\n      and\n        /* \"OasisHelper.sol\":1158:1178  currentTokenIdStaker */\n      dup4\n      sub(shl(0xa0, 0x01), 0x01)\n        /* \"OasisHelper.sol\":1158:1190  currentTokenIdStaker == _address */\n      and\n      sub\n        /* \"OasisHelper.sol\":1154:1378  if (currentTokenIdStaker == _address) {... */\n      tag_56\n      jumpi\n        /* \"OasisHelper.sol\":1242:1256  currentTokenId */\n      dup4\n        /* \"OasisHelper.sol\":1211:1225  stakedTokenIds */\n      dup6\n        /* \"OasisHelper.sol\":1226:1238  currentIndex */\n      dup4\n        /* \"OasisHelper.sol\":1211:1239  stakedTokenIds[currentIndex] */\n      dup2\n      mload\n      dup2\n      lt\n      tag_52\n      jumpi\n      tag_52\n      tag_53\n      jump\t// in\n    tag_52:\n      0x20\n      swap1\n      dup2\n      mul\n      swap2\n      swap1\n      swap2\n      add\n      add\n        /* \"OasisHelper.sol\":1211:1256  stakedTokenIds[currentIndex] = currentTokenId */\n      mstore\n        /* \"OasisHelper.sol\":1290:1306  currentIndex + 1 */\n      tag_54\n        /* \"OasisHelper.sol\":1290:1302  currentIndex */\n      dup3\n        /* \"OasisHelper.sol\":1305:1306  1 */\n      0x01\n        /* \"OasisHelper.sol\":1290:1306  currentIndex + 1 */\n      tag_55\n      jump\t// in\n    tag_54:\n        /* \"OasisHelper.sol\":1275:1306  currentIndex = currentIndex + 1 */\n      swap2\n      pop\n        /* \"OasisHelper.sol\":1325:1362  if (currentIndex == userStaked) break */\n      dup6\n      dup3\n      eq\n        /* \"OasisHelper.sol\":1357:1362  break */\n      tag_37\n        /* \"OasisHelper.sol\":1325:1362  if (currentIndex == userStaked) break */\n      jumpi\n    tag_56:\n        /* \"OasisHelper.sol\":963:966  i++ */\n      dup1\n      tag_57\n      dup2\n      tag_58\n      jump\t// in\n    tag_57:\n      swap2\n      pop\n      pop\n        /* \"OasisHelper.sol\":923:1389  for (uint256 i = 0; i < contractStaked; i++) {... */\n      jump(tag_36)\n    tag_37:\n      pop\n        /* \"OasisHelper.sol\":1408:1422  stakedTokenIds */\n      swap3\n      swap8\n        /* \"OasisHelper.sol\":477:1430  function GetStakedTokenIds(address _address) external view returns (uint256[] memory stakedTokenIds_) {... */\n      swap7\n      pop\n      pop\n      pop\n      pop\n      pop\n      pop\n      pop\n      jump\t// out\n        /* \"#utility.yul\":271:425   */\n    tag_59:\n      sub(shl(0xa0, 0x01), 0x01)\n        /* \"#utility.yul\":350:355   */\n      dup2\n        /* \"#utility.yul\":346:400   */\n      and\n        /* \"#utility.yul\":339:344   */\n      dup2\n        /* \"#utility.yul\":336:401   */\n      eq\n        /* \"#utility.yul\":326:419   */\n      tag_64\n      jumpi\n        /* \"#utility.yul\":415:416   */\n      0x00\n        /* \"#utility.yul\":412:413   */\n      dup1\n        /* \"#utility.yul\":405:417   */\n      revert\n        /* \"#utility.yul\":326:419   */\n    tag_64:\n        /* \"#utility.yul\":271:425   */\n      pop\n      jump\t// out\n        /* \"#utility.yul\":430:677   */\n    tag_12:\n        /* \"#utility.yul\":489:495   */\n      0x00\n        /* \"#utility.yul\":542:544   */\n      0x20\n        /* \"#utility.yul\":530:539   */\n      dup3\n        /* \"#utility.yul\":521:528   */\n      dup5\n        /* \"#utility.yul\":517:540   */\n      sub\n        /* \"#utility.yul\":513:545   */\n      slt\n        /* \"#utility.yul\":510:562   */\n      iszero\n      tag_66\n      jumpi\n        /* \"#utility.yul\":558:559   */\n      0x00\n        /* \"#utility.yul\":555:556   */\n      dup1\n        /* \"#utility.yul\":548:560   */\n      revert\n        /* \"#utility.yul\":510:562   */\n    tag_66:\n        /* \"#utility.yul\":597:606   */\n      dup2\n        /* \"#utility.yul\":584:607   */\n      calldataload\n        /* \"#utility.yul\":616:647   */\n      tag_67\n        /* \"#utility.yul\":641:646   */\n      dup2\n        /* \"#utility.yul\":616:647   */\n      tag_59\n      jump\t// in\n    tag_67:\n        /* \"#utility.yul\":666:671   */\n      swap4\n        /* \"#utility.yul\":430:677   */\n      swap3\n      pop\n      pop\n      pop\n      jump\t// out\n        /* \"#utility.yul\":682:1314   */\n    tag_15:\n        /* \"#utility.yul\":853:855   */\n      0x20\n        /* \"#utility.yul\":905:926   */\n      dup1\n      dup3\n      mstore\n        /* \"#utility.yul\":975:988   */\n      dup3\n      mload\n        /* \"#utility.yul\":878:896   */\n      dup3\n      dup3\n      add\n        /* \"#utility.yul\":997:1019   */\n      dup2\n      swap1\n      mstore\n        /* \"#utility.yul\":824:828   */\n      0x00\n      swap2\n        /* \"#utility.yul\":853:855   */\n      swap1\n        /* \"#utility.yul\":1076:1091   */\n      dup5\n      dup3\n      add\n      swap1\n        /* \"#utility.yul\":1050:1052   */\n      0x40\n        /* \"#utility.yul\":1035:1053   */\n      dup6\n      add\n      swap1\n        /* \"#utility.yul\":824:828   */\n      dup5\n        /* \"#utility.yul\":1119:1288   */\n    tag_69:\n        /* \"#utility.yul\":1133:1139   */\n      dup2\n        /* \"#utility.yul\":1130:1131   */\n      dup2\n        /* \"#utility.yul\":1127:1140   */\n      lt\n        /* \"#utility.yul\":1119:1288   */\n      iszero\n      tag_71\n      jumpi\n        /* \"#utility.yul\":1194:1207   */\n      dup4\n      mload\n        /* \"#utility.yul\":1182:1208   */\n      dup4\n      mstore\n        /* \"#utility.yul\":1263:1278   */\n      swap3\n      dup5\n      add\n      swap3\n        /* \"#utility.yul\":1228:1240   */\n      swap2\n      dup5\n      add\n      swap2\n        /* \"#utility.yul\":1155:1156   */\n      0x01\n        /* \"#utility.yul\":1148:1157   */\n      add\n        /* \"#utility.yul\":1119:1288   */\n      jump(tag_69)\n    tag_71:\n      pop\n        /* \"#utility.yul\":1305:1308   */\n      swap1\n      swap7\n        /* \"#utility.yul\":682:1314   */\n      swap6\n      pop\n      pop\n      pop\n      pop\n      pop\n      pop\n      jump\t// out\n        /* \"#utility.yul\":1802:1986   */\n    tag_26:\n        /* \"#utility.yul\":1872:1878   */\n      0x00\n        /* \"#utility.yul\":1925:1927   */\n      0x20\n        /* \"#utility.yul\":1913:1922   */\n      dup3\n        /* \"#utility.yul\":1904:1911   */\n      dup5\n        /* \"#utility.yul\":1900:1923   */\n      sub\n        /* \"#utility.yul\":1896:1928   */\n      slt\n        /* \"#utility.yul\":1893:1945   */\n      iszero\n      tag_75\n      jumpi\n        /* \"#utility.yul\":1941:1942   */\n      0x00\n        /* \"#utility.yul\":1938:1939   */\n      dup1\n        /* \"#utility.yul\":1931:1943   */\n      revert\n        /* \"#utility.yul\":1893:1945   */\n    tag_75:\n      pop\n        /* \"#utility.yul\":1964:1980   */\n      mload\n      swap2\n        /* \"#utility.yul\":1802:1986   */\n      swap1\n      pop\n      jump\t// out\n        /* \"#utility.yul\":1991:2236   */\n    tag_31:\n        /* \"#utility.yul\":2070:2076   */\n      0x00\n        /* \"#utility.yul\":2078:2084   */\n      dup1\n        /* \"#utility.yul\":2131:2133   */\n      0x40\n        /* \"#utility.yul\":2119:2128   */\n      dup4\n        /* \"#utility.yul\":2110:2117   */\n      dup6\n        /* \"#utility.yul\":2106:2129   */\n      sub\n        /* \"#utility.yul\":2102:2134   */\n      slt\n        /* \"#utility.yul\":2099:2151   */\n      iszero\n      tag_77\n      jumpi\n        /* \"#utility.yul\":2147:2148   */\n      0x00\n        /* \"#utility.yul\":2144:2145   */\n      dup1\n        /* \"#utility.yul\":2137:2149   */\n      revert\n        /* \"#utility.yul\":2099:2151   */\n    tag_77:\n      pop\n      pop\n        /* \"#utility.yul\":2170:2186   */\n      dup1\n      mload\n        /* \"#utility.yul\":2226:2228   */\n      0x20\n        /* \"#utility.yul\":2211:2229   */\n      swap1\n      swap2\n      add\n        /* \"#utility.yul\":2205:2230   */\n      mload\n        /* \"#utility.yul\":2170:2186   */\n      swap1\n      swap3\n        /* \"#utility.yul\":2205:2230   */\n      swap1\n      swap2\n      pop\n        /* \"#utility.yul\":1991:2236   */\n      jump\t// out\n        /* \"#utility.yul\":2241:2368   */\n    tag_34:\n        /* \"#utility.yul\":2302:2312   */\n      0x4e487b71\n        /* \"#utility.yul\":2297:2300   */\n      0xe0\n        /* \"#utility.yul\":2293:2313   */\n      shl\n        /* \"#utility.yul\":2290:2291   */\n      0x00\n        /* \"#utility.yul\":2283:2314   */\n      mstore\n        /* \"#utility.yul\":2333:2337   */\n      0x41\n        /* \"#utility.yul\":2330:2331   */\n      0x04\n        /* \"#utility.yul\":2323:2338   */\n      mstore\n        /* \"#utility.yul\":2357:2361   */\n      0x24\n        /* \"#utility.yul\":2354:2355   */\n      0x00\n        /* \"#utility.yul\":2347:2362   */\n      revert\n        /* \"#utility.yul\":2857:3108   */\n    tag_49:\n        /* \"#utility.yul\":2927:2933   */\n      0x00\n        /* \"#utility.yul\":2980:2982   */\n      0x20\n        /* \"#utility.yul\":2968:2977   */\n      dup3\n        /* \"#utility.yul\":2959:2966   */\n      dup5\n        /* \"#utility.yul\":2955:2978   */\n      sub\n        /* \"#utility.yul\":2951:2983   */\n      slt\n        /* \"#utility.yul\":2948:3000   */\n      iszero\n      tag_82\n      jumpi\n        /* \"#utility.yul\":2996:2997   */\n      0x00\n        /* \"#utility.yul\":2993:2994   */\n      dup1\n        /* \"#utility.yul\":2986:2998   */\n      revert\n        /* \"#utility.yul\":2948:3000   */\n    tag_82:\n        /* \"#utility.yul\":3028:3037   */\n      dup2\n        /* \"#utility.yul\":3022:3038   */\n      mload\n        /* \"#utility.yul\":3047:3078   */\n      tag_67\n        /* \"#utility.yul\":3072:3077   */\n      dup2\n        /* \"#utility.yul\":3047:3078   */\n      tag_59\n      jump\t// in\n        /* \"#utility.yul\":3113:3240   */\n    tag_53:\n        /* \"#utility.yul\":3174:3184   */\n      0x4e487b71\n        /* \"#utility.yul\":3169:3172   */\n      0xe0\n        /* \"#utility.yul\":3165:3185   */\n      shl\n        /* \"#utility.yul\":3162:3163   */\n      0x00\n        /* \"#utility.yul\":3155:3186   */\n      mstore\n        /* \"#utility.yul\":3205:3209   */\n      0x32\n        /* \"#utility.yul\":3202:3203   */\n      0x04\n        /* \"#utility.yul\":3195:3210   */\n      mstore\n        /* \"#utility.yul\":3229:3233   */\n      0x24\n        /* \"#utility.yul\":3226:3227   */\n      0x00\n        /* \"#utility.yul\":3219:3234   */\n      revert\n        /* \"#utility.yul\":3245:3372   */\n    tag_60:\n        /* \"#utility.yul\":3306:3316   */\n      0x4e487b71\n        /* \"#utility.yul\":3301:3304   */\n      0xe0\n        /* \"#utility.yul\":3297:3317   */\n      shl\n        /* \"#utility.yul\":3294:3295   */\n      0x00\n        /* \"#utility.yul\":3287:3318   */\n      mstore\n        /* \"#utility.yul\":3337:3341   */\n      0x11\n        /* \"#utility.yul\":3334:3335   */\n      0x04\n        /* \"#utility.yul\":3327:3342   */\n      mstore\n        /* \"#utility.yul\":3361:3365   */\n      0x24\n        /* \"#utility.yul\":3358:3359   */\n      0x00\n        /* \"#utility.yul\":3351:3366   */\n      revert\n        /* \"#utility.yul\":3377:3505   */\n    tag_55:\n        /* \"#utility.yul\":3417:3420   */\n      0x00\n        /* \"#utility.yul\":3448:3449   */\n      dup3\n        /* \"#utility.yul\":3444:3450   */\n      not\n        /* \"#utility.yul\":3441:3442   */\n      dup3\n        /* \"#utility.yul\":3438:3451   */\n      gt\n        /* \"#utility.yul\":3435:3474   */\n      iszero\n      tag_88\n      jumpi\n        /* \"#utility.yul\":3454:3472   */\n      tag_88\n      tag_60\n      jump\t// in\n    tag_88:\n      pop\n        /* \"#utility.yul\":3490:3499   */\n      add\n      swap1\n        /* \"#utility.yul\":3377:3505   */\n      jump\t// out\n        /* \"#utility.yul\":3510:3645   */\n    tag_58:\n        /* \"#utility.yul\":3549:3552   */\n      0x00\n        /* \"#utility.yul\":3570:3587   */\n      0x01\n      dup3\n      add\n        /* \"#utility.yul\":3567:3610   */\n      tag_91\n      jumpi\n        /* \"#utility.yul\":3590:3608   */\n      tag_91\n      tag_60\n      jump\t// in\n    tag_91:\n      pop\n        /* \"#utility.yul\":3637:3638   */\n      0x01\n        /* \"#utility.yul\":3626:3639   */\n      add\n      swap1\n        /* \"#utility.yul\":3510:3645   */\n      jump\t// out\n\n    auxdata: 0xa2646970667358221220fc5224b4da0cb7e3f8c0e1e99a0db08ddf7a5915e36b8f9463d849cd38bb26b564736f6c634300080d0033\n}\n",
    "bytecode": {
      "linkReferences": {},
      "object": "60c060405234801561001057600080fd5b5060405161067a38038061067a83398101604081905261002f9161005e565b6001600160a01b039182166080521660a052610098565b6001600160a01b038116811461005b57600080fd5b50565b6000806040838503121561007157600080fd5b825161007c81610046565b602084015190925061008d81610046565b809150509250929050565b60805160a0516105966100e460003960008181604b0152818161011601526102af01526000818160af0152818160e8015281816101a601528181610280015261033301526105966000f3fe608060405234801561001057600080fd5b50600436106100415760003560e01c806381c33b9314610046578063ac24a5ca1461008a578063c6647ed9146100aa575b600080fd5b61006d7f000000000000000000000000000000000000000000000000000000000000000081565b6040516001600160a01b0390911681526020015b60405180910390f35b61009d61009836600461042b565b6100d1565b604051610081919061044f565b61006d7f000000000000000000000000000000000000000000000000000000000000000081565b6040516370a0823160e01b81526001600160a01b037f0000000000000000000000000000000000000000000000000000000000000000811660048301526060916000917f000000000000000000000000000000000000000000000000000000000000000016906370a0823190602401602060405180830381865afa15801561015d573d6000803e3d6000fd5b505050506040513d601f19601f820116820180604052508101906101819190610493565b604051634ead432760e01b81526001600160a01b0385811660048301529192506000917f00000000000000000000000000000000000000000000000000000000000000001690634ead4327906024016040805180830381865afa1580156101ec573d6000803e3d6000fd5b505050506040513d601f19601f8201168201806040525081019061021091906104ac565b50905060008167ffffffffffffffff81111561022e5761022e6104d0565b604051908082528060200260200182016040528015610257578160200160208202803683370190505b5090506000806000805b8681101561040657604051632f745c5960e01b81526001600160a01b037f000000000000000000000000000000000000000000000000000000000000000081166004830152602482018390527f00000000000000000000000000000000000000000000000000000000000000001690632f745c5990604401602060405180830381865afa1580156102f6573d6000803e3d6000fd5b505050506040513d601f19601f8201168201806040525081019061031a9190610493565b604051639406704560e01b8152600481018290529094507f00000000000000000000000000000000000000000000000000000000000000006001600160a01b031690639406704590602401602060405180830381865afa158015610382573d6000803e3d6000fd5b505050506040513d601f19601f820116820180604052508101906103a691906104e6565b9250886001600160a01b0316836001600160a01b0316036103f457838583815181106103d4576103d4610503565b60209081029190910101526103ea82600161052f565b9150858214610406575b806103fe81610547565b915050610261565b5092979650505050505050565b6001600160a01b038116811461042857600080fd5b50565b60006020828403121561043d57600080fd5b813561044881610413565b9392505050565b6020808252825182820181905260009190848201906040850190845b818110156104875783518352928401929184019160010161046b565b50909695505050505050565b6000602082840312156104a557600080fd5b5051919050565b600080604083850312156104bf57600080fd5b505080516020909101519092909150565b634e487b7160e01b600052604160045260246000fd5b6000602082840312156104f857600080fd5b815161044881610413565b634e487b7160e01b600052603260045260246000fd5b634e487b7160e01b600052601160045260246000fd5b6000821982111561054257610542610519565b500190565b60006001820161055957610559610519565b506001019056fea2646970667358221220fc5224b4da0cb7e3f8c0e1e99a0db08ddf7a5915e36b8f9463d849cd38bb26b564736f6c634300080d0033",
      "opcodes": "PUSH1 0xC0 PUSH1 0x40 MSTORE CALLVALUE DUP1 ISZERO PUSH2 0x10 JUMPI PUSH1 0x0 DUP1 REVERT JUMPDEST POP PUSH1 0x40 MLOAD PUSH2 0x67A CODESIZE SUB DUP1 PUSH2 0x67A DUP4 CODECOPY DUP2 ADD PUSH1 0x40 DUP2 SWAP1 MSTORE PUSH2 0x2F SWAP2 PUSH2 0x5E JUMP JUMPDEST PUSH1 0x1 PUSH1 0x1 PUSH1 0xA0 SHL SUB SWAP2 DUP3 AND PUSH1 0x80 MSTORE AND PUSH1 0xA0 MSTORE PUSH2 0x98 JUMP JUMPDEST PUSH1 0x1 PUSH1 0x1 PUSH1 0xA0 SHL SUB DUP2 AND DUP2 EQ PUSH2 0x5B JUMPI PUSH1 0x0 DUP1 REVERT JUMPDEST POP JUMP JUMPDEST PUSH1 0x0 DUP1 PUSH1 0x40 DUP4 DUP6 SUB SLT ISZERO PUSH2 0x71 JUMPI PUSH1 0x0 DUP1 REVERT JUMPDEST DUP3 MLOAD PUSH2 0x7C DUP2 PUSH2 0x46 JUMP JUMPDEST PUSH1 0x20 DUP5 ADD MLOAD SWAP1 SWAP3 POP PUSH2 0x8D DUP2 PUSH2 0x46 JUMP JUMPDEST DUP1 SWAP2 POP POP SWAP3 POP SWAP3 SWAP1 POP JUMP JUMPDEST PUSH1 0x80 MLOAD PUSH1 0xA0 MLOAD PUSH2 0x596 PUSH2 0xE4 PUSH1 0x0 CODECOPY PUSH1 0x0 DUP2 DUP2 PUSH1 0x4B ADD MSTORE DUP2 DUP2 PUSH2 0x116 ADD MSTORE PUSH2 0x2AF ADD MSTORE PUSH1 0x0 DUP2 DUP2 PUSH1 0xAF ADD MSTORE DUP2 DUP2 PUSH1 0xE8 ADD MSTORE DUP2 DUP2 PUSH2 0x1A6 ADD MSTORE DUP2 DUP2 PUSH2 0x280 ADD MSTORE PUSH2 0x333 ADD MSTORE PUSH2 0x596 PUSH1 0x0 RETURN INVALID PUSH1 0x80 PUSH1 0x40 MSTORE CALLVALUE DUP1 ISZERO PUSH2 0x10 JUMPI PUSH1 0x0 DUP1 REVERT JUMPDEST POP PUSH1 0x4 CALLDATASIZE LT PUSH2 0x41 JUMPI PUSH1 0x0 CALLDATALOAD PUSH1 0xE0 SHR DUP1 PUSH4 0x81C33B93 EQ PUSH2 0x46 JUMPI DUP1 PUSH4 0xAC24A5CA EQ PUSH2 0x8A JUMPI DUP1 PUSH4 0xC6647ED9 EQ PUSH2 0xAA JUMPI JUMPDEST PUSH1 0x0 DUP1 REVERT JUMPDEST PUSH2 0x6D PUSH32 0x0 DUP2 JUMP JUMPDEST PUSH1 0x40 MLOAD PUSH1 0x1 PUSH1 0x1 PUSH1 0xA0 SHL SUB SWAP1 SWAP2 AND DUP2 MSTORE PUSH1 0x20 ADD JUMPDEST PUSH1 0x40 MLOAD DUP1 SWAP2 SUB SWAP1 RETURN JUMPDEST PUSH2 0x9D PUSH2 0x98 CALLDATASIZE PUSH1 0x4 PUSH2 0x42B JUMP JUMPDEST PUSH2 0xD1 JUMP JUMPDEST PUSH1 0x40 MLOAD PUSH2 0x81 SWAP2 SWAP1 PUSH2 0x44F JUMP JUMPDEST PUSH2 0x6D PUSH32 0x0 DUP2 JUMP JUMPDEST PUSH1 0x40 MLOAD PUSH4 0x70A08231 PUSH1 0xE0 SHL DUP2 MSTORE PUSH1 0x1 PUSH1 0x1 PUSH1 0xA0 SHL SUB PUSH32 0x0 DUP2 AND PUSH1 0x4 DUP4 ADD MSTORE PUSH1 0x60 SWAP2 PUSH1 0x0 SWAP2 PUSH32 0x0 AND SWAP1 PUSH4 0x70A08231 SWAP1 PUSH1 0x24 ADD PUSH1 0x20 PUSH1 0x40 MLOAD DUP1 DUP4 SUB DUP2 DUP7 GAS STATICCALL ISZERO DUP1 ISZERO PUSH2 0x15D JUMPI RETURNDATASIZE PUSH1 0x0 DUP1 RETURNDATACOPY RETURNDATASIZE PUSH1 0x0 REVERT JUMPDEST POP POP POP POP PUSH1 0x40 MLOAD RETURNDATASIZE PUSH1 0x1F NOT PUSH1 0x1F DUP3 ADD AND DUP3 ADD DUP1 PUSH1 0x40 MSTORE POP DUP2 ADD SWAP1 PUSH2 0x181 SWAP2 SWAP1 PUSH2 0x493 JUMP JUMPDEST PUSH1 0x40 MLOAD PUSH4 0x4EAD4327 PUSH1 0xE0 SHL DUP2 MSTORE PUSH1 0x1 PUSH1 0x1 PUSH1 0xA0 SHL SUB DUP6 DUP2 AND PUSH1 0x4 DUP4 ADD MSTORE SWAP2 SWAP3 POP PUSH1 0x0 SWAP2 PUSH32 0x0 AND SWAP1 PUSH4 0x4EAD4327 SWAP1 PUSH1 0x24 ADD PUSH1 0x40 DUP1 MLOAD DUP1 DUP4 SUB DUP2 DUP7 GAS STATICCALL ISZERO DUP1 ISZERO PUSH2 0x1EC JUMPI RETURNDATASIZE PUSH1 0x0 DUP1 RETURNDATACOPY RETURNDATASIZE PUSH1 0x0 REVERT JUMPDEST POP POP POP POP PUSH1 0x40 MLOAD RETURNDATASIZE PUSH1 0x1F NOT PUSH1 0x1F DUP3 ADD AND DUP3 ADD DUP1 PUSH1 0x40 MSTORE POP DUP2 ADD SWAP1 PUSH2 0x210 SWAP2 SWAP1 PUSH2 0x4AC JUMP JUMPDEST POP SWAP1 POP PUSH1 0x0 DUP2 PUSH8 0xFFFFFFFFFFFFFFFF DUP2 GT ISZERO PUSH2 0x22E JUMPI PUSH2 0x22E PUSH2 0x4D0 JUMP JUMPDEST PUSH1 0x40 MLOAD SWAP1 DUP1 DUP3 MSTORE DUP1 PUSH1 0x20 MUL PUSH1 0x20 ADD DUP3 ADD PUSH1 0x40 MSTORE DUP1 ISZERO PUSH2 0x257 JUMPI DUP2 PUSH1 0x20 ADD PUSH1 0x20 DUP3 MUL DUP1 CALLDATASIZE DUP4 CALLDATACOPY ADD SWAP1 POP JUMPDEST POP SWAP1 POP PUSH1 0x0 DUP1 PUSH1 0x0 DUP1 JUMPDEST DUP7 DUP2 LT ISZERO PUSH2 0x406 JUMPI PUSH1 0x40 MLOAD PUSH4 0x2F745C59 PUSH1 0xE0 SHL DUP2 MSTORE PUSH1 0x1 PUSH1 0x1 PUSH1 0xA0 SHL SUB PUSH32 0x0 DUP2 AND PUSH1 0x4 DUP4 ADD MSTORE PUSH1 0x24 DUP3 ADD DUP4 SWAP1 MSTORE PUSH32 0x0 AND SWAP1 PUSH4 0x2F745C59 SWAP1 PUSH1 0x44 ADD PUSH1 0x20 PUSH1 0x40 MLOAD DUP1 DUP4 SUB DUP2 DUP7 GAS STATICCALL ISZERO DUP1 ISZERO PUSH2 0x2F6 JUMPI RETURNDATASIZE PUSH1 0x0 DUP1 RETURNDATACOPY RETURNDATASIZE PUSH1 0x0 REVERT JUMPDEST POP POP POP POP PUSH1 0x40 MLOAD RETURNDATASIZE PUSH1 0x1F NOT PUSH1 0x1F DUP3 ADD AND DUP3 ADD DUP1 PUSH1 0x40 MSTORE POP DUP2 ADD SWAP1 PUSH2 0x31A SWAP2 SWAP1 PUSH2 0x493 JUMP JUMPDEST PUSH1 0x40 MLOAD PUSH4 0x94067045 PUSH1 0xE0 SHL DUP2 MSTORE PUSH1 0x4 DUP2 ADD DUP3 SWAP1 MSTORE SWAP1 SWAP5 POP PUSH32 0x0 PUSH1 0x1 PUSH1 0x1 PUSH1 0xA0 SHL SUB AND SWAP1 PUSH4 0x94067045 SWAP1 PUSH1 0x24 ADD PUSH1 0x20 PUSH1 0x40 MLOAD DUP1 DUP4 SUB DUP2 DUP7 GAS STATICCALL ISZERO DUP1 ISZERO PUSH2 0x382 JUMPI RETURNDATASIZE PUSH1 0x0 DUP1 RETURNDATACOPY RETURNDATASIZE PUSH1 0x0 REVERT JUMPDEST POP POP POP POP PUSH1 0x40 MLOAD RETURNDATASIZE PUSH1 0x1F NOT PUSH1 0x1F DUP3 ADD AND DUP3 ADD DUP1 PUSH1 0x40 MSTORE POP DUP2 ADD SWAP1 PUSH2 0x3A6 SWAP2 SWAP1 PUSH2 0x4E6 JUMP JUMPDEST SWAP3 POP DUP9 PUSH1 0x1 PUSH1 0x1 PUSH1 0xA0 SHL SUB AND DUP4 PUSH1 0x1 PUSH1 0x1 PUSH1 0xA0 SHL SUB AND SUB PUSH2 0x3F4 JUMPI DUP4 DUP6 DUP4 DUP2 MLOAD DUP2 LT PUSH2 0x3D4 JUMPI PUSH2 0x3D4 PUSH2 0x503 JUMP JUMPDEST PUSH1 0x20 SWAP1 DUP2 MUL SWAP2 SWAP1 SWAP2 ADD ADD MSTORE PUSH2 0x3EA DUP3 PUSH1 0x1 PUSH2 0x52F JUMP JUMPDEST SWAP2 POP DUP6 DUP3 EQ PUSH2 0x406 JUMPI JUMPDEST DUP1 PUSH2 0x3FE DUP2 PUSH2 0x547 JUMP JUMPDEST SWAP2 POP POP PUSH2 0x261 JUMP JUMPDEST POP SWAP3 SWAP8 SWAP7 POP POP POP POP POP POP POP JUMP JUMPDEST PUSH1 0x1 PUSH1 0x1 PUSH1 0xA0 SHL SUB DUP2 AND DUP2 EQ PUSH2 0x428 JUMPI PUSH1 0x0 DUP1 REVERT JUMPDEST POP JUMP JUMPDEST PUSH1 0x0 PUSH1 0x20 DUP3 DUP5 SUB SLT ISZERO PUSH2 0x43D JUMPI PUSH1 0x0 DUP1 REVERT JUMPDEST DUP2 CALLDATALOAD PUSH2 0x448 DUP2 PUSH2 0x413 JUMP JUMPDEST SWAP4 SWAP3 POP POP POP JUMP JUMPDEST PUSH1 0x20 DUP1 DUP3 MSTORE DUP3 MLOAD DUP3 DUP3 ADD DUP2 SWAP1 MSTORE PUSH1 0x0 SWAP2 SWAP1 DUP5 DUP3 ADD SWAP1 PUSH1 0x40 DUP6 ADD SWAP1 DUP5 JUMPDEST DUP2 DUP2 LT ISZERO PUSH2 0x487 JUMPI DUP4 MLOAD DUP4 MSTORE SWAP3 DUP5 ADD SWAP3 SWAP2 DUP5 ADD SWAP2 PUSH1 0x1 ADD PUSH2 0x46B JUMP JUMPDEST POP SWAP1 SWAP7 SWAP6 POP POP POP POP POP POP JUMP JUMPDEST PUSH1 0x0 PUSH1 0x20 DUP3 DUP5 SUB SLT ISZERO PUSH2 0x4A5 JUMPI PUSH1 0x0 DUP1 REVERT JUMPDEST POP MLOAD SWAP2 SWAP1 POP JUMP JUMPDEST PUSH1 0x0 DUP1 PUSH1 0x40 DUP4 DUP6 SUB SLT ISZERO PUSH2 0x4BF JUMPI PUSH1 0x0 DUP1 REVERT JUMPDEST POP POP DUP1 MLOAD PUSH1 0x20 SWAP1 SWAP2 ADD MLOAD SWAP1 SWAP3 SWAP1 SWAP2 POP JUMP JUMPDEST PUSH4 0x4E487B71 PUSH1 0xE0 SHL PUSH1 0x0 MSTORE PUSH1 0x41 PUSH1 0x4 MSTORE PUSH1 0x24 PUSH1 0x0 REVERT JUMPDEST PUSH1 0x0 PUSH1 0x20 DUP3 DUP5 SUB SLT ISZERO PUSH2 0x4F8 JUMPI PUSH1 0x0 DUP1 REVERT JUMPDEST DUP2 MLOAD PUSH2 0x448 DUP2 PUSH2 0x413 JUMP JUMPDEST PUSH4 0x4E487B71 PUSH1 0xE0 SHL PUSH1 0x0 MSTORE PUSH1 0x32 PUSH1 0x4 MSTORE PUSH1 0x24 PUSH1 0x0 REVERT JUMPDEST PUSH4 0x4E487B71 PUSH1 0xE0 SHL PUSH1 0x0 MSTORE PUSH1 0x11 PUSH1 0x4 MSTORE PUSH1 0x24 PUSH1 0x0 REVERT JUMPDEST PUSH1 0x0 DUP3 NOT DUP3 GT ISZERO PUSH2 0x542 JUMPI PUSH2 0x542 PUSH2 0x519 JUMP JUMPDEST POP ADD SWAP1 JUMP JUMPDEST PUSH1 0x0 PUSH1 0x1 DUP3 ADD PUSH2 0x559 JUMPI PUSH2 0x559 PUSH2 0x519 JUMP JUMPDEST POP PUSH1 0x1 ADD SWAP1 JUMP INVALID LOG2 PUSH5 0x6970667358 0x22 SLT KECCAK256 0xFC MSTORE 0x24 0xB4 0xDA 0xC 0xB7 0xE3 0xF8 0xC0 0xE1 0xE9 SWAP11 0xD 0xB0 DUP14 0xDF PUSH27 0x5915E36B8F9463D849CD38BB26B564736F6C634300080D00330000 "
    },
    "gasEstimates": {
      "creation": {
        "codeDepositCost": "286000",
        "executionCost": "infinite",
        "totalCost": "infinite"
      },
      "external": {
        "GetStakedTokenIds(address)": "infinite",
        "evolvedCamels()": "infinite",
        "oasisStaking()": "infinite"
      }
    },
    "methodIdentifiers": {
      "GetStakedTokenIds(address)": "ac24a5ca",
      "evolvedCamels()": "81c33b93",
      "oasisStaking()": "c6647ed9"
    }
  },
  "storageLayout": {
    "storage": [],
    "types": null
  },
  "userdoc": {
    "kind": "user",
    "methods": {},
    "version": 1
  }
}