{
  "abi": [
    {
      "inputs": [
        {
          "internalType": "address",
          "name": "_crazyCamels",
          "type": "address"
        }
      ],
      "stateMutability": "nonpayable",
      "type": "constructor"
    },
    {
      "inputs": [],
      "name": "buriedCamels",
      "outputs": [
        {
          "internalType": "uint256",
          "name": "",
          "type": "uint256"
        }
      ],
      "stateMutability": "view",
      "type": "function"
    },
    {
      "inputs": [],
      "name": "crazyCamels",
      "outputs": [
        {
          "internalType": "address",
          "name": "",
          "type": "address"
        }
      ],
      "stateMutability": "view",
      "type": "function"
    }
  ],
  "devdoc": {
    "kind": "dev",
    "methods": {},
    "version": 1
  },
  "evm": {
    "assembly": "    /* \"OasisGraveyard.sol\":120:411  contract OasisGraveyard {... */\n  mstore(0x40, 0xa0)\n    /* \"OasisGraveyard.sol\":196:275  constructor(address _crazyCamels) {... */\n  callvalue\n  dup1\n  iszero\n  tag_1\n  jumpi\n  0x00\n  dup1\n  revert\ntag_1:\n  pop\n  mload(0x40)\n  sub(codesize, bytecodeSize)\n  dup1\n  bytecodeSize\n  dup4\n  codecopy\n  dup2\n  add\n  0x40\n  dup2\n  swap1\n  mstore\n  tag_2\n  swap2\n  tag_3\n  jump\t// in\ntag_2:\n  sub(shl(0xa0, 0x01), 0x01)\n    /* \"OasisGraveyard.sol\":241:267  crazyCamels = _crazyCamels */\n  and\n  0x80\n  mstore\n    /* \"OasisGraveyard.sol\":120:411  contract OasisGraveyard {... */\n  jump(tag_7)\n    /* \"#utility.yul\":14:304   */\ntag_3:\n    /* \"#utility.yul\":84:90   */\n  0x00\n    /* \"#utility.yul\":137:139   */\n  0x20\n    /* \"#utility.yul\":125:134   */\n  dup3\n    /* \"#utility.yul\":116:123   */\n  dup5\n    /* \"#utility.yul\":112:135   */\n  sub\n    /* \"#utility.yul\":108:140   */\n  slt\n    /* \"#utility.yul\":105:157   */\n  iszero\n  tag_9\n  jumpi\n    /* \"#utility.yul\":153:154   */\n  0x00\n    /* \"#utility.yul\":150:151   */\n  dup1\n    /* \"#utility.yul\":143:155   */\n  revert\n    /* \"#utility.yul\":105:157   */\ntag_9:\n    /* \"#utility.yul\":179:195   */\n  dup2\n  mload\n  sub(shl(0xa0, 0x01), 0x01)\n    /* \"#utility.yul\":224:255   */\n  dup2\n  and\n    /* \"#utility.yul\":214:256   */\n  dup2\n  eq\n    /* \"#utility.yul\":204:274   */\n  tag_10\n  jumpi\n    /* \"#utility.yul\":270:271   */\n  0x00\n    /* \"#utility.yul\":267:268   */\n  dup1\n    /* \"#utility.yul\":260:272   */\n  revert\n    /* \"#utility.yul\":204:274   */\ntag_10:\n    /* \"#utility.yul\":293:298   */\n  swap4\n    /* \"#utility.yul\":14:304   */\n  swap3\n  pop\n  pop\n  pop\n  jump\t// out\ntag_7:\n    /* \"OasisGraveyard.sol\":120:411  contract OasisGraveyard {... */\n  mload(0x80)\n  codecopy(0x00, dataOffset(sub_0), dataSize(sub_0))\n  0x00\n  assignImmutable(\"0x037d752242ae8d900ca1c2dba9512ed3f691680bee2a7d598ed49320619901d7\")\n  return(0x00, dataSize(sub_0))\nstop\n\nsub_0: assembly {\n        /* \"OasisGraveyard.sol\":120:411  contract OasisGraveyard {... */\n      mstore(0x40, 0x80)\n      callvalue\n      dup1\n      iszero\n      tag_1\n      jumpi\n      0x00\n      dup1\n      revert\n    tag_1:\n      pop\n      jumpi(tag_2, lt(calldatasize, 0x04))\n      shr(0xe0, calldataload(0x00))\n      dup1\n      0x14f4771d\n      eq\n      tag_3\n      jumpi\n      dup1\n      0xc79476b5\n      eq\n      tag_4\n      jumpi\n    tag_2:\n      0x00\n      dup1\n      revert\n        /* \"OasisGraveyard.sol\":283:408  function buriedCamels() public view returns (uint256) {... */\n    tag_3:\n      tag_5\n      tag_6\n      jump\t// in\n    tag_5:\n      mload(0x40)\n        /* \"#utility.yul\":160:185   */\n      swap1\n      dup2\n      mstore\n        /* \"#utility.yul\":148:150   */\n      0x20\n        /* \"#utility.yul\":133:151   */\n      add\n        /* \"OasisGraveyard.sol\":283:408  function buriedCamels() public view returns (uint256) {... */\n    tag_7:\n      mload(0x40)\n      dup1\n      swap2\n      sub\n      swap1\n      return\n        /* \"OasisGraveyard.sol\":151:187  address public immutable crazyCamels */\n    tag_4:\n      tag_9\n      immutable(\"0x037d752242ae8d900ca1c2dba9512ed3f691680bee2a7d598ed49320619901d7\")\n      dup2\n      jump\n    tag_9:\n      mload(0x40)\n        /* \"#utility.yul\":372:414   */\n      0xffffffffffffffffffffffffffffffffffffffff\n        /* \"#utility.yul\":360:415   */\n      swap1\n      swap2\n      and\n        /* \"#utility.yul\":342:416   */\n      dup2\n      mstore\n        /* \"#utility.yul\":330:332   */\n      0x20\n        /* \"#utility.yul\":315:333   */\n      add\n        /* \"OasisGraveyard.sol\":151:187  address public immutable crazyCamels */\n      tag_7\n        /* \"#utility.yul\":196:422   */\n      jump\n        /* \"OasisGraveyard.sol\":283:408  function buriedCamels() public view returns (uint256) {... */\n    tag_6:\n        /* \"OasisGraveyard.sol\":355:400  IERC721(crazyCamels).balanceOf(address(this)) */\n      mload(0x40)\n      shl(0xe0, 0x70a08231)\n      dup2\n      mstore\n        /* \"OasisGraveyard.sol\":394:398  this */\n      address\n        /* \"OasisGraveyard.sol\":355:400  IERC721(crazyCamels).balanceOf(address(this)) */\n      0x04\n      dup3\n      add\n        /* \"#utility.yul\":342:416   */\n      mstore\n        /* \"OasisGraveyard.sol\":328:335  uint256 */\n      0x00\n      swap1\n        /* \"OasisGraveyard.sol\":363:374  crazyCamels */\n      immutable(\"0x037d752242ae8d900ca1c2dba9512ed3f691680bee2a7d598ed49320619901d7\")\n        /* \"OasisGraveyard.sol\":355:385  IERC721(crazyCamels).balanceOf */\n      0xffffffffffffffffffffffffffffffffffffffff\n      and\n      swap1\n      0x70a08231\n      swap1\n        /* \"#utility.yul\":315:333   */\n      0x24\n      add\n        /* \"OasisGraveyard.sol\":355:400  IERC721(crazyCamels).balanceOf(address(this)) */\n      0x20\n      mload(0x40)\n      dup1\n      dup4\n      sub\n      dup2\n      dup7\n      gas\n      staticcall\n      iszero\n      dup1\n      iszero\n      tag_16\n      jumpi\n      returndatasize\n      0x00\n      dup1\n      returndatacopy\n      revert(0x00, returndatasize)\n    tag_16:\n      pop\n      pop\n      pop\n      pop\n      mload(0x40)\n      returndatasize\n      not(0x1f)\n      0x1f\n      dup3\n      add\n      and\n      dup3\n      add\n      dup1\n      0x40\n      mstore\n      pop\n      dup2\n      add\n      swap1\n      tag_17\n      swap2\n      swap1\n      tag_18\n      jump\t// in\n    tag_17:\n        /* \"OasisGraveyard.sol\":348:400  return IERC721(crazyCamels).balanceOf(address(this)) */\n      swap1\n      pop\n        /* \"OasisGraveyard.sol\":283:408  function buriedCamels() public view returns (uint256) {... */\n      swap1\n      jump\t// out\n        /* \"#utility.yul\":427:611   */\n    tag_18:\n        /* \"#utility.yul\":497:503   */\n      0x00\n        /* \"#utility.yul\":550:552   */\n      0x20\n        /* \"#utility.yul\":538:547   */\n      dup3\n        /* \"#utility.yul\":529:536   */\n      dup5\n        /* \"#utility.yul\":525:548   */\n      sub\n        /* \"#utility.yul\":521:553   */\n      slt\n        /* \"#utility.yul\":518:570   */\n      iszero\n      tag_23\n      jumpi\n        /* \"#utility.yul\":566:567   */\n      0x00\n        /* \"#utility.yul\":563:564   */\n      dup1\n        /* \"#utility.yul\":556:568   */\n      revert\n        /* \"#utility.yul\":518:570   */\n    tag_23:\n      pop\n        /* \"#utility.yul\":589:605   */\n      mload\n      swap2\n        /* \"#utility.yul\":427:611   */\n      swap1\n      pop\n      jump\t// out\n\n    auxdata: 0xa26469706673582212206cdab5b030556fdee7f0740b33eb2b531aee5de4854bbcc4d635037af78fabbf64736f6c634300080d0033\n}\n",
    "bytecode": {
      "linkReferences": {},
      "object": "60a060405234801561001057600080fd5b5060405161021e38038061021e83398101604081905261002f91610040565b6001600160a01b0316608052610070565b60006020828403121561005257600080fd5b81516001600160a01b038116811461006957600080fd5b9392505050565b60805161018e61009060003960008181605b015260ba015261018e6000f3fe608060405234801561001057600080fd5b50600436106100365760003560e01c806314f4771d1461003b578063c79476b514610056575b600080fd5b6100436100a2565b6040519081526020015b60405180910390f35b61007d7f000000000000000000000000000000000000000000000000000000000000000081565b60405173ffffffffffffffffffffffffffffffffffffffff909116815260200161004d565b6040516370a0823160e01b81523060048201526000907f000000000000000000000000000000000000000000000000000000000000000073ffffffffffffffffffffffffffffffffffffffff16906370a0823190602401602060405180830381865afa158015610116573d6000803e3d6000fd5b505050506040513d601f19601f8201168201806040525081019061013a919061013f565b905090565b60006020828403121561015157600080fd5b505191905056fea26469706673582212206cdab5b030556fdee7f0740b33eb2b531aee5de4854bbcc4d635037af78fabbf64736f6c634300080d0033",
      "opcodes": "PUSH1 0xA0 PUSH1 0x40 MSTORE CALLVALUE DUP1 ISZERO PUSH2 0x10 JUMPI PUSH1 0x0 DUP1 REVERT JUMPDEST POP PUSH1 0x40 MLOAD PUSH2 0x21E CODESIZE SUB DUP1 PUSH2 0x21E DUP4 CODECOPY DUP2 ADD PUSH1 0x40 DUP2 SWAP1 MSTORE PUSH2 0x2F SWAP2 PUSH2 0x40 JUMP JUMPDEST PUSH1 0x1 PUSH1 0x1 PUSH1 0xA0 SHL SUB AND PUSH1 0x80 MSTORE PUSH2 0x70 JUMP JUMPDEST PUSH1 0x0 PUSH1 0x20 DUP3 DUP5 SUB SLT ISZERO PUSH2 0x52 JUMPI PUSH1 0x0 DUP1 REVERT JUMPDEST DUP2 MLOAD PUSH1 0x1 PUSH1 0x1 PUSH1 0xA0 SHL SUB DUP2 AND DUP2 EQ PUSH2 0x69 JUMPI PUSH1 0x0 DUP1 REVERT JUMPDEST SWAP4 SWAP3 POP POP POP JUMP JUMPDEST PUSH1 0x80 MLOAD PUSH2 0x18E PUSH2 0x90 PUSH1 0x0 CODECOPY PUSH1 0x0 DUP2 DUP2 PUSH1 0x5B ADD MSTORE PUSH1 0xBA ADD MSTORE PUSH2 0x18E PUSH1 0x0 RETURN INVALID PUSH1 0x80 PUSH1 0x40 MSTORE CALLVALUE DUP1 ISZERO PUSH2 0x10 JUMPI PUSH1 0x0 DUP1 REVERT JUMPDEST POP PUSH1 0x4 CALLDATASIZE LT PUSH2 0x36 JUMPI PUSH1 0x0 CALLDATALOAD PUSH1 0xE0 SHR DUP1 PUSH4 0x14F4771D EQ PUSH2 0x3B JUMPI DUP1 PUSH4 0xC79476B5 EQ PUSH2 0x56 JUMPI JUMPDEST PUSH1 0x0 DUP1 REVERT JUMPDEST PUSH2 0x43 PUSH2 0xA2 JUMP JUMPDEST PUSH1 0x40 MLOAD SWAP1 DUP2 MSTORE PUSH1 0x20 ADD JUMPDEST PUSH1 0x40 MLOAD DUP1 SWAP2 SUB SWAP1 RETURN JUMPDEST PUSH2 0x7D PUSH32 0x0 DUP2 JUMP JUMPDEST PUSH1 0x40 MLOAD PUSH20 0xFFFFFFFFFFFFFFFFFFFFFFFFFFFFFFFFFFFFFFFF SWAP1 SWAP2 AND DUP2 MSTORE PUSH1 0x20 ADD PUSH2 0x4D JUMP JUMPDEST PUSH1 0x40 MLOAD PUSH4 0x70A08231 PUSH1 0xE0 SHL DUP2 MSTORE ADDRESS PUSH1 0x4 DUP3 ADD MSTORE PUSH1 0x0 SWAP1 PUSH32 0x0 PUSH20 0xFFFFFFFFFFFFFFFFFFFFFFFFFFFFFFFFFFFFFFFF AND SWAP1 PUSH4 0x70A08231 SWAP1 PUSH1 0x24 ADD PUSH1 0x20 PUSH1 0x40 MLOAD DUP1 DUP4 SUB DUP2 DUP7 GAS STATICCALL ISZERO DUP1 ISZERO PUSH2 0x116 JUMPI RETURNDATASIZE PUSH1 0x0 DUP1 RETURNDATACOPY RETURNDATASIZE PUSH1 0x0 REVERT JUMPDEST POP POP POP POP PUSH1 0x40 MLOAD RETURNDATASIZE PUSH1 0x1F NOT PUSH1 0x1F DUP3 ADD AND DUP3 ADD DUP1 PUSH1 0x40 MSTORE POP DUP2 ADD SWAP1 PUSH2 0x13A SWAP2 SWAP1 PUSH2 0x13F JUMP JUMPDEST SWAP1 POP SWAP1 JUMP JUMPDEST PUSH1 0x0 PUSH1 0x20 DUP3 DUP5 SUB SLT ISZERO PUSH2 0x151 JUMPI PUSH1 0x0 DUP1 REVERT JUMPDEST POP MLOAD SWAP2 SWAP1 POP JUMP INVALID LOG2 PUSH5 0x6970667358 0x22 SLT KECCAK256 PUSH13 0xDAB5B030556FDEE7F0740B33EB 0x2B MSTORE8 BYTE 0xEE 0x5D 0xE4 DUP6 0x4B 0xBC 0xC4 0xD6 CALLDATALOAD SUB PUSH27 0xF78FABBF64736F6C634300080D0033000000000000000000000000 "
    },
    "gasEstimates": {
      "creation": {
        "codeDepositCost": "79600",
        "executionCost": "infinite",
        "totalCost": "infinite"
      },
      "external": {
        "buriedCamels()": "infinite",
        "crazyCamels()": "infinite"
      }
    },
    "methodIdentifiers": {
      "buriedCamels()": "14f4771d",
      "crazyCamels()": "c79476b5"
    }
  },
  "storageLayout": {
    "storage": [],
    "types": null
  },
  "userdoc": {
    "kind": "user",
    "methods": {},
    "version": 1
  }
}