{
  "abi": [
    {
      "inputs": [
        {
          "internalType": "address",
          "name": "_crazyCamels",
          "type": "address"
        },
        {
          "internalType": "address",
          "name": "_ost",
          "type": "address"
        }
      ],
      "stateMutability": "nonpayable",
      "type": "constructor"
    },
    {
      "inputs": [],
      "name": "buriedCamels",
      "outputs": [
        {
          "internalType": "uint256",
          "name": "crazyCamels_",
          "type": "uint256"
        }
      ],
      "stateMutability": "view",
      "type": "function"
    },
    {
      "inputs": [],
      "name": "buriedOasisTokens",
      "outputs": [
        {
          "internalType": "uint256",
          "name": "ost_",
          "type": "uint256"
        }
      ],
      "stateMutability": "view",
      "type": "function"
    },
    {
      "inputs": [],
      "name": "crazyCamels",
      "outputs": [
        {
          "internalType": "address",
          "name": "",
          "type": "address"
        }
      ],
      "stateMutability": "view",
      "type": "function"
    },
    {
      "inputs": [],
      "name": "ost",
      "outputs": [
        {
          "internalType": "address",
          "name": "",
          "type": "address"
        }
      ],
      "stateMutability": "view",
      "type": "function"
    }
  ],
  "devdoc": {
    "kind": "dev",
    "methods": {},
    "version": 1
  },
  "evm": {
    "assembly": "    /* \"OasisGraveyard.sol\":177:685  contract OasisGraveyard {... */\n  mstore(0x40, 0xc0)\n    /* \"OasisGraveyard.sol\":288:402  constructor(address _crazyCamels, address _ost) {... */\n  callvalue\n  dup1\n  iszero\n  tag_1\n  jumpi\n  0x00\n  dup1\n  revert\ntag_1:\n  pop\n  mload(0x40)\n  sub(codesize, bytecodeSize)\n  dup1\n  bytecodeSize\n  dup4\n  codecopy\n  dup2\n  add\n  0x40\n  dup2\n  swap1\n  mstore\n  tag_2\n  swap2\n  tag_3\n  jump\t// in\ntag_2:\n  sub(shl(0xa0, 0x01), 0x01)\n    /* \"OasisGraveyard.sol\":347:373  crazyCamels = _crazyCamels */\n  swap2\n  dup3\n  and\n  0x80\n  mstore\n    /* \"OasisGraveyard.sol\":384:394  ost = _ost */\n  and\n  0xa0\n  mstore\n    /* \"OasisGraveyard.sol\":177:685  contract OasisGraveyard {... */\n  jump(tag_8)\n    /* \"#utility.yul\":14:191   */\ntag_7:\n    /* \"#utility.yul\":93:106   */\n  dup1\n  mload\n  sub(shl(0xa0, 0x01), 0x01)\n    /* \"#utility.yul\":135:166   */\n  dup2\n  and\n    /* \"#utility.yul\":125:167   */\n  dup2\n  eq\n    /* \"#utility.yul\":115:185   */\n  tag_10\n  jumpi\n    /* \"#utility.yul\":181:182   */\n  0x00\n    /* \"#utility.yul\":178:179   */\n  dup1\n    /* \"#utility.yul\":171:183   */\n  revert\n    /* \"#utility.yul\":115:185   */\ntag_10:\n    /* \"#utility.yul\":14:191   */\n  swap2\n  swap1\n  pop\n  jump\t// out\n    /* \"#utility.yul\":196:489   */\ntag_3:\n    /* \"#utility.yul\":275:281   */\n  0x00\n    /* \"#utility.yul\":283:289   */\n  dup1\n    /* \"#utility.yul\":336:338   */\n  0x40\n    /* \"#utility.yul\":324:333   */\n  dup4\n    /* \"#utility.yul\":315:322   */\n  dup6\n    /* \"#utility.yul\":311:334   */\n  sub\n    /* \"#utility.yul\":307:339   */\n  slt\n    /* \"#utility.yul\":304:356   */\n  iszero\n  tag_12\n  jumpi\n    /* \"#utility.yul\":352:353   */\n  0x00\n    /* \"#utility.yul\":349:350   */\n  dup1\n    /* \"#utility.yul\":342:354   */\n  revert\n    /* \"#utility.yul\":304:356   */\ntag_12:\n    /* \"#utility.yul\":375:415   */\n  tag_13\n    /* \"#utility.yul\":405:414   */\n  dup4\n    /* \"#utility.yul\":375:415   */\n  tag_7\n  jump\t// in\ntag_13:\n    /* \"#utility.yul\":365:415   */\n  swap2\n  pop\n    /* \"#utility.yul\":434:483   */\n  tag_14\n    /* \"#utility.yul\":479:481   */\n  0x20\n    /* \"#utility.yul\":468:477   */\n  dup5\n    /* \"#utility.yul\":464:482   */\n  add\n    /* \"#utility.yul\":434:483   */\n  tag_7\n  jump\t// in\ntag_14:\n    /* \"#utility.yul\":424:483   */\n  swap1\n  pop\n    /* \"#utility.yul\":196:489   */\n  swap3\n  pop\n  swap3\n  swap1\n  pop\n  jump\t// out\ntag_8:\n    /* \"OasisGraveyard.sol\":177:685  contract OasisGraveyard {... */\n  mload(0x80)\n  mload(0xa0)\n  codecopy(0x00, dataOffset(sub_0), dataSize(sub_0))\n  0x00\n  assignImmutable(\"0x32da71dbd53bc029835bc5ecdd3e688035cc92bb61b1811d1685e67ba974e19f\")\n  0x00\n  assignImmutable(\"0x6b3e710f3089a74ecb6b0f5948e5ff07a3db6ba4da475d2be17624ba96b95b\")\n  return(0x00, dataSize(sub_0))\nstop\n\nsub_0: assembly {\n        /* \"OasisGraveyard.sol\":177:685  contract OasisGraveyard {... */\n      mstore(0x40, 0x80)\n      callvalue\n      dup1\n      iszero\n      tag_1\n      jumpi\n      0x00\n      dup1\n      revert\n    tag_1:\n      pop\n      jumpi(tag_2, lt(calldatasize, 0x04))\n      shr(0xe0, calldataload(0x00))\n      dup1\n      0x14f4771d\n      eq\n      tag_3\n      jumpi\n      dup1\n      0x2de69d3f\n      eq\n      tag_4\n      jumpi\n      dup1\n      0xa756fdd0\n      eq\n      tag_5\n      jumpi\n      dup1\n      0xc79476b5\n      eq\n      tag_6\n      jumpi\n    tag_2:\n      0x00\n      dup1\n      revert\n        /* \"OasisGraveyard.sol\":410:548  function buriedCamels() public view returns (uint256 crazyCamels_) {... */\n    tag_3:\n      tag_7\n      tag_8\n      jump\t// in\n    tag_7:\n      mload(0x40)\n        /* \"#utility.yul\":160:185   */\n      swap1\n      dup2\n      mstore\n        /* \"#utility.yul\":148:150   */\n      0x20\n        /* \"#utility.yul\":133:151   */\n      add\n        /* \"OasisGraveyard.sol\":410:548  function buriedCamels() public view returns (uint256 crazyCamels_) {... */\n    tag_9:\n      mload(0x40)\n      dup1\n      swap2\n      sub\n      swap1\n      return\n        /* \"OasisGraveyard.sol\":556:682  function buriedOasisTokens() public view returns (uint256 ost_) {... */\n    tag_4:\n      tag_7\n      tag_12\n      jump\t// in\n        /* \"OasisGraveyard.sol\":251:279  address public immutable ost */\n    tag_5:\n      tag_14\n      immutable(\"0x32da71dbd53bc029835bc5ecdd3e688035cc92bb61b1811d1685e67ba974e19f\")\n      dup2\n      jump\n    tag_14:\n      mload(0x40)\n        /* \"#utility.yul\":372:414   */\n      0xffffffffffffffffffffffffffffffffffffffff\n        /* \"#utility.yul\":360:415   */\n      swap1\n      swap2\n      and\n        /* \"#utility.yul\":342:416   */\n      dup2\n      mstore\n        /* \"#utility.yul\":330:332   */\n      0x20\n        /* \"#utility.yul\":315:333   */\n      add\n        /* \"OasisGraveyard.sol\":251:279  address public immutable ost */\n      tag_9\n        /* \"#utility.yul\":196:422   */\n      jump\n        /* \"OasisGraveyard.sol\":208:244  address public immutable crazyCamels */\n    tag_6:\n      tag_14\n      immutable(\"0x6b3e710f3089a74ecb6b0f5948e5ff07a3db6ba4da475d2be17624ba96b95b\")\n      dup2\n      jump\n        /* \"OasisGraveyard.sol\":410:548  function buriedCamels() public view returns (uint256 crazyCamels_) {... */\n    tag_8:\n        /* \"OasisGraveyard.sol\":495:540  IERC721(crazyCamels).balanceOf(address(this)) */\n      mload(0x40)\n      shl(0xe0, 0x70a08231)\n      dup2\n      mstore\n        /* \"OasisGraveyard.sol\":534:538  this */\n      address\n        /* \"OasisGraveyard.sol\":495:540  IERC721(crazyCamels).balanceOf(address(this)) */\n      0x04\n      dup3\n      add\n        /* \"#utility.yul\":342:416   */\n      mstore\n        /* \"OasisGraveyard.sol\":455:475  uint256 crazyCamels_ */\n      0x00\n      swap1\n        /* \"OasisGraveyard.sol\":503:514  crazyCamels */\n      immutable(\"0x6b3e710f3089a74ecb6b0f5948e5ff07a3db6ba4da475d2be17624ba96b95b\")\n        /* \"OasisGraveyard.sol\":495:525  IERC721(crazyCamels).balanceOf */\n      0xffffffffffffffffffffffffffffffffffffffff\n      and\n      swap1\n      0x70a08231\n      swap1\n        /* \"#utility.yul\":315:333   */\n      0x24\n      add\n        /* \"OasisGraveyard.sol\":495:540  IERC721(crazyCamels).balanceOf(address(this)) */\n    tag_22:\n      0x20\n      mload(0x40)\n      dup1\n      dup4\n      sub\n      dup2\n      dup7\n      gas\n      staticcall\n      iszero\n      dup1\n      iszero\n      tag_24\n      jumpi\n      returndatasize\n      0x00\n      dup1\n      returndatacopy\n      revert(0x00, returndatasize)\n    tag_24:\n      pop\n      pop\n      pop\n      pop\n      mload(0x40)\n      returndatasize\n      not(0x1f)\n      0x1f\n      dup3\n      add\n      and\n      dup3\n      add\n      dup1\n      0x40\n      mstore\n      pop\n      dup2\n      add\n      swap1\n      tag_25\n      swap2\n      swap1\n      tag_26\n      jump\t// in\n    tag_25:\n        /* \"OasisGraveyard.sol\":488:540  return IERC721(crazyCamels).balanceOf(address(this)) */\n      swap1\n      pop\n        /* \"OasisGraveyard.sol\":410:548  function buriedCamels() public view returns (uint256 crazyCamels_) {... */\n      swap1\n      jump\t// out\n        /* \"OasisGraveyard.sol\":556:682  function buriedOasisTokens() public view returns (uint256 ost_) {... */\n    tag_12:\n        /* \"OasisGraveyard.sol\":638:674  IERC20(ost).balanceOf(address(this)) */\n      mload(0x40)\n      shl(0xe0, 0x70a08231)\n      dup2\n      mstore\n        /* \"OasisGraveyard.sol\":668:672  this */\n      address\n        /* \"OasisGraveyard.sol\":638:674  IERC20(ost).balanceOf(address(this)) */\n      0x04\n      dup3\n      add\n        /* \"#utility.yul\":342:416   */\n      mstore\n        /* \"OasisGraveyard.sol\":606:618  uint256 ost_ */\n      0x00\n      swap1\n        /* \"OasisGraveyard.sol\":645:648  ost */\n      immutable(\"0x32da71dbd53bc029835bc5ecdd3e688035cc92bb61b1811d1685e67ba974e19f\")\n        /* \"OasisGraveyard.sol\":638:659  IERC20(ost).balanceOf */\n      0xffffffffffffffffffffffffffffffffffffffff\n      and\n      swap1\n      0x70a08231\n      swap1\n        /* \"#utility.yul\":315:333   */\n      0x24\n      add\n        /* \"OasisGraveyard.sol\":638:674  IERC20(ost).balanceOf(address(this)) */\n      tag_22\n        /* \"#utility.yul\":196:422   */\n      jump\n        /* \"#utility.yul\":427:611   */\n    tag_26:\n        /* \"#utility.yul\":497:503   */\n      0x00\n        /* \"#utility.yul\":550:552   */\n      0x20\n        /* \"#utility.yul\":538:547   */\n      dup3\n        /* \"#utility.yul\":529:536   */\n      dup5\n        /* \"#utility.yul\":525:548   */\n      sub\n        /* \"#utility.yul\":521:553   */\n      slt\n        /* \"#utility.yul\":518:570   */\n      iszero\n      tag_36\n      jumpi\n        /* \"#utility.yul\":566:567   */\n      0x00\n        /* \"#utility.yul\":563:564   */\n      dup1\n        /* \"#utility.yul\":556:568   */\n      revert\n        /* \"#utility.yul\":518:570   */\n    tag_36:\n      pop\n        /* \"#utility.yul\":589:605   */\n      mload\n      swap2\n        /* \"#utility.yul\":427:611   */\n      swap1\n      pop\n      jump\t// out\n\n    auxdata: 0xa2646970667358221220e02311cffcde6186caa251a9cb337dbcbc495dee86c5a24632758e57435a96e264736f6c634300080d0033\n}\n",
    "bytecode": {
      "linkReferences": {},
      "object": "60c060405234801561001057600080fd5b506040516102f53803806102f583398101604081905261002f91610062565b6001600160a01b039182166080521660a052610095565b80516001600160a01b038116811461005d57600080fd5b919050565b6000806040838503121561007557600080fd5b61007e83610046565b915061008c60208401610046565b90509250929050565b60805160a0516102306100c5600039600081816079015261019d01526000818160c5015260ff01526102306000f3fe608060405234801561001057600080fd5b506004361061004c5760003560e01c806314f4771d146100515780632de69d3f1461006c578063a756fdd014610074578063c79476b5146100c0575b600080fd5b6100596100e7565b6040519081526020015b60405180910390f35b610059610185565b61009b7f000000000000000000000000000000000000000000000000000000000000000081565b60405173ffffffffffffffffffffffffffffffffffffffff9091168152602001610063565b61009b7f000000000000000000000000000000000000000000000000000000000000000081565b6040516370a0823160e01b81523060048201526000907f000000000000000000000000000000000000000000000000000000000000000073ffffffffffffffffffffffffffffffffffffffff16906370a08231906024015b602060405180830381865afa15801561015c573d6000803e3d6000fd5b505050506040513d601f19601f8201168201806040525081019061018091906101e1565b905090565b6040516370a0823160e01b81523060048201526000907f000000000000000000000000000000000000000000000000000000000000000073ffffffffffffffffffffffffffffffffffffffff16906370a082319060240161013f565b6000602082840312156101f357600080fd5b505191905056fea2646970667358221220e02311cffcde6186caa251a9cb337dbcbc495dee86c5a24632758e57435a96e264736f6c634300080d0033",
      "opcodes": "PUSH1 0xC0 PUSH1 0x40 MSTORE CALLVALUE DUP1 ISZERO PUSH2 0x10 JUMPI PUSH1 0x0 DUP1 REVERT JUMPDEST POP PUSH1 0x40 MLOAD PUSH2 0x2F5 CODESIZE SUB DUP1 PUSH2 0x2F5 DUP4 CODECOPY DUP2 ADD PUSH1 0x40 DUP2 SWAP1 MSTORE PUSH2 0x2F SWAP2 PUSH2 0x62 JUMP JUMPDEST PUSH1 0x1 PUSH1 0x1 PUSH1 0xA0 SHL SUB SWAP2 DUP3 AND PUSH1 0x80 MSTORE AND PUSH1 0xA0 MSTORE PUSH2 0x95 JUMP JUMPDEST DUP1 MLOAD PUSH1 0x1 PUSH1 0x1 PUSH1 0xA0 SHL SUB DUP2 AND DUP2 EQ PUSH2 0x5D JUMPI PUSH1 0x0 DUP1 REVERT JUMPDEST SWAP2 SWAP1 POP JUMP JUMPDEST PUSH1 0x0 DUP1 PUSH1 0x40 DUP4 DUP6 SUB SLT ISZERO PUSH2 0x75 JUMPI PUSH1 0x0 DUP1 REVERT JUMPDEST PUSH2 0x7E DUP4 PUSH2 0x46 JUMP JUMPDEST SWAP2 POP PUSH2 0x8C PUSH1 0x20 DUP5 ADD PUSH2 0x46 JUMP JUMPDEST SWAP1 POP SWAP3 POP SWAP3 SWAP1 POP JUMP JUMPDEST PUSH1 0x80 MLOAD PUSH1 0xA0 MLOAD PUSH2 0x230 PUSH2 0xC5 PUSH1 0x0 CODECOPY PUSH1 0x0 DUP2 DUP2 PUSH1 0x79 ADD MSTORE PUSH2 0x19D ADD MSTORE PUSH1 0x0 DUP2 DUP2 PUSH1 0xC5 ADD MSTORE PUSH1 0xFF ADD MSTORE PUSH2 0x230 PUSH1 0x0 RETURN INVALID PUSH1 0x80 PUSH1 0x40 MSTORE CALLVALUE DUP1 ISZERO PUSH2 0x10 JUMPI PUSH1 0x0 DUP1 REVERT JUMPDEST POP PUSH1 0x4 CALLDATASIZE LT PUSH2 0x4C JUMPI PUSH1 0x0 CALLDATALOAD PUSH1 0xE0 SHR DUP1 PUSH4 0x14F4771D EQ PUSH2 0x51 JUMPI DUP1 PUSH4 0x2DE69D3F EQ PUSH2 0x6C JUMPI DUP1 PUSH4 0xA756FDD0 EQ PUSH2 0x74 JUMPI DUP1 PUSH4 0xC79476B5 EQ PUSH2 0xC0 JUMPI JUMPDEST PUSH1 0x0 DUP1 REVERT JUMPDEST PUSH2 0x59 PUSH2 0xE7 JUMP JUMPDEST PUSH1 0x40 MLOAD SWAP1 DUP2 MSTORE PUSH1 0x20 ADD JUMPDEST PUSH1 0x40 MLOAD DUP1 SWAP2 SUB SWAP1 RETURN JUMPDEST PUSH2 0x59 PUSH2 0x185 JUMP JUMPDEST PUSH2 0x9B PUSH32 0x0 DUP2 JUMP JUMPDEST PUSH1 0x40 MLOAD PUSH20 0xFFFFFFFFFFFFFFFFFFFFFFFFFFFFFFFFFFFFFFFF SWAP1 SWAP2 AND DUP2 MSTORE PUSH1 0x20 ADD PUSH2 0x63 JUMP JUMPDEST PUSH2 0x9B PUSH32 0x0 DUP2 JUMP JUMPDEST PUSH1 0x40 MLOAD PUSH4 0x70A08231 PUSH1 0xE0 SHL DUP2 MSTORE ADDRESS PUSH1 0x4 DUP3 ADD MSTORE PUSH1 0x0 SWAP1 PUSH32 0x0 PUSH20 0xFFFFFFFFFFFFFFFFFFFFFFFFFFFFFFFFFFFFFFFF AND SWAP1 PUSH4 0x70A08231 SWAP1 PUSH1 0x24 ADD JUMPDEST PUSH1 0x20 PUSH1 0x40 MLOAD DUP1 DUP4 SUB DUP2 DUP7 GAS STATICCALL ISZERO DUP1 ISZERO PUSH2 0x15C JUMPI RETURNDATASIZE PUSH1 0x0 DUP1 RETURNDATACOPY RETURNDATASIZE PUSH1 0x0 REVERT JUMPDEST POP POP POP POP PUSH1 0x40 MLOAD RETURNDATASIZE PUSH1 0x1F NOT PUSH1 0x1F DUP3 ADD AND DUP3 ADD DUP1 PUSH1 0x40 MSTORE POP DUP2 ADD SWAP1 PUSH2 0x180 SWAP2 SWAP1 PUSH2 0x1E1 JUMP JUMPDEST SWAP1 POP SWAP1 JUMP JUMPDEST PUSH1 0x40 MLOAD PUSH4 0x70A08231 PUSH1 0xE0 SHL DUP2 MSTORE ADDRESS PUSH1 0x4 DUP3 ADD MSTORE PUSH1 0x0 SWAP1 PUSH32 0x0 PUSH20 0xFFFFFFFFFFFFFFFFFFFFFFFFFFFFFFFFFFFFFFFF AND SWAP1 PUSH4 0x70A08231 SWAP1 PUSH1 0x24 ADD PUSH2 0x13F JUMP JUMPDEST PUSH1 0x0 PUSH1 0x20 DUP3 DUP5 SUB SLT ISZERO PUSH2 0x1F3 JUMPI PUSH1 0x0 DUP1 REVERT JUMPDEST POP MLOAD SWAP2 SWAP1 POP JUMP INVALID LOG2 PUSH5 0x6970667358 0x22 SLT KECCAK256 0xE0 0x23 GT 0xCF 0xFC 0xDE PUSH2 0x86CA LOG2 MLOAD 0xA9 0xCB CALLER PUSH30 0xBCBC495DEE86C5A24632758E57435A96E264736F6C634300080D00330000 "
    },
    "gasEstimates": {
      "creation": {
        "codeDepositCost": "112000",
        "executionCost": "infinite",
        "totalCost": "infinite"
      },
      "external": {
        "buriedCamels()": "infinite",
        "buriedOasisTokens()": "infinite",
        "crazyCamels()": "infinite",
        "ost()": "infinite"
      }
    },
    "methodIdentifiers": {
      "buriedCamels()": "14f4771d",
      "buriedOasisTokens()": "2de69d3f",
      "crazyCamels()": "c79476b5",
      "ost()": "a756fdd0"
    }
  },
  "storageLayout": {
    "storage": [],
    "types": null
  },
  "userdoc": {
    "kind": "user",
    "methods": {},
    "version": 1
  }
}