{
  "abi": [
    {
      "inputs": [
        {
          "internalType": "contract IERC721",
          "name": "_nftCollection",
          "type": "address"
        },
        {
          "internalType": "contract IERC20",
          "name": "_rewardsToken",
          "type": "address"
        }
      ],
      "stateMutability": "nonpayable",
      "type": "constructor"
    },
    {
      "anonymous": false,
      "inputs": [
        {
          "indexed": true,
          "internalType": "address",
          "name": "previousOwner",
          "type": "address"
        },
        {
          "indexed": true,
          "internalType": "address",
          "name": "newOwner",
          "type": "address"
        }
      ],
      "name": "OwnershipTransferred",
      "type": "event"
    },
    {
      "inputs": [],
      "name": "claimRewards",
      "outputs": [],
      "stateMutability": "nonpayable",
      "type": "function"
    },
    {
      "inputs": [],
      "name": "evolvedCamels",
      "outputs": [
        {
          "internalType": "contract IERC721",
          "name": "",
          "type": "address"
        }
      ],
      "stateMutability": "view",
      "type": "function"
    },
    {
      "inputs": [],
      "name": "oasisToken",
      "outputs": [
        {
          "internalType": "contract IERC20",
          "name": "",
          "type": "address"
        }
      ],
      "stateMutability": "view",
      "type": "function"
    },
    {
      "inputs": [],
      "name": "owner",
      "outputs": [
        {
          "internalType": "address",
          "name": "",
          "type": "address"
        }
      ],
      "stateMutability": "view",
      "type": "function"
    },
    {
      "inputs": [],
      "name": "renounceOwnership",
      "outputs": [],
      "stateMutability": "nonpayable",
      "type": "function"
    },
    {
      "inputs": [
        {
          "internalType": "uint256",
          "name": "_newValue",
          "type": "uint256"
        }
      ],
      "name": "setRewardsPerHour",
      "outputs": [],
      "stateMutability": "nonpayable",
      "type": "function"
    },
    {
      "inputs": [
        {
          "internalType": "uint256[]",
          "name": "_tokenIds",
          "type": "uint256[]"
        }
      ],
      "name": "stake",
      "outputs": [],
      "stateMutability": "nonpayable",
      "type": "function"
    },
    {
      "inputs": [
        {
          "internalType": "uint256",
          "name": "",
          "type": "uint256"
        }
      ],
      "name": "stakerAddress",
      "outputs": [
        {
          "internalType": "address",
          "name": "",
          "type": "address"
        }
      ],
      "stateMutability": "view",
      "type": "function"
    },
    {
      "inputs": [
        {
          "internalType": "address",
          "name": "",
          "type": "address"
        }
      ],
      "name": "stakers",
      "outputs": [
        {
          "internalType": "uint256",
          "name": "amountStaked",
          "type": "uint256"
        },
        {
          "internalType": "uint256",
          "name": "timeOfLastUpdate",
          "type": "uint256"
        },
        {
          "internalType": "uint256",
          "name": "unclaimedRewards",
          "type": "uint256"
        }
      ],
      "stateMutability": "view",
      "type": "function"
    },
    {
      "inputs": [
        {
          "internalType": "uint256",
          "name": "",
          "type": "uint256"
        }
      ],
      "name": "stakersArray",
      "outputs": [
        {
          "internalType": "address",
          "name": "",
          "type": "address"
        }
      ],
      "stateMutability": "view",
      "type": "function"
    },
    {
      "inputs": [
        {
          "internalType": "address",
          "name": "newOwner",
          "type": "address"
        }
      ],
      "name": "transferOwnership",
      "outputs": [],
      "stateMutability": "nonpayable",
      "type": "function"
    },
    {
      "inputs": [
        {
          "internalType": "address",
          "name": "_user",
          "type": "address"
        }
      ],
      "name": "userStakeInfo",
      "outputs": [
        {
          "internalType": "uint256",
          "name": "_tokensStaked",
          "type": "uint256"
        },
        {
          "internalType": "uint256",
          "name": "_availableRewards",
          "type": "uint256"
        }
      ],
      "stateMutability": "view",
      "type": "function"
    },
    {
      "inputs": [
        {
          "internalType": "uint256[]",
          "name": "_tokenIds",
          "type": "uint256[]"
        }
      ],
      "name": "withdraw",
      "outputs": [],
      "stateMutability": "nonpayable",
      "type": "function"
    }
  ],
  "devdoc": {
    "kind": "dev",
    "methods": {
      "owner()": {
        "details": "Returns the address of the current owner."
      },
      "renounceOwnership()": {
        "details": "Leaves the contract without owner. It will not be possible to call `onlyOwner` functions anymore. Can only be called by the current owner. NOTE: Renouncing ownership will leave the contract without an owner, thereby removing any functionality that is only available to the owner."
      },
      "transferOwnership(address)": {
        "details": "Transfers ownership of the contract to a new account (`newOwner`). Can only be called by the current owner."
      }
    },
    "version": 1
  },
  "evm": {
    "assembly": "    /* \"OasisStaking.sol\":365:4637  contract OasisStaking is Ownable, ReentrancyGuard {... */\n  mstore(0x40, 0xc0)\n    /* \"OasisStaking.sol\":728:749  100000000000000000000 */\n  0x056bc75e2d63100000\n    /* \"OasisStaking.sol\":695:749  uint256 private rewardsPerHour = 100000000000000000000 */\n  0x02\n  sstore\n    /* \"OasisStaking.sol\":926:1070  constructor(IERC721 _nftCollection, IERC20 _rewardsToken) {... */\n  callvalue\n  dup1\n  iszero\n  tag_1\n  jumpi\n  0x00\n  dup1\n  revert\ntag_1:\n  pop\n  mload(0x40)\n  sub(codesize, bytecodeSize)\n  dup1\n  bytecodeSize\n  dup4\n  codecopy\n  dup2\n  add\n  0x40\n  dup2\n  swap1\n  mstore\n  tag_2\n  swap2\n  tag_3\n  jump\t// in\ntag_2:\n    /* \"@openzeppelin/contracts/access/Ownable.sol\":936:968   */\n  tag_8\n    /* \"@openzeppelin/contracts/utils/Context.sol\":719:729   */\n  caller\n    /* \"@openzeppelin/contracts/access/Ownable.sol\":936:954   */\n  tag_11\n    /* \"@openzeppelin/contracts/access/Ownable.sol\":936:968   */\n  jump\t// in\ntag_8:\n    /* \"@openzeppelin/contracts/security/ReentrancyGuard.sol\":1701:1702   */\n  0x01\n    /* \"@openzeppelin/contracts/security/ReentrancyGuard.sol\":1806:1828   */\n  dup1\n  sstore\n  sub(shl(0xa0, 0x01), 0x01)\n    /* \"OasisStaking.sol\":995:1025  evolvedCamels = _nftCollection */\n  swap2\n  dup3\n  and\n  0xa0\n  mstore\n    /* \"OasisStaking.sol\":1036:1062  oasisToken = _rewardsToken */\n  and\n  0x80\n  mstore\n    /* \"OasisStaking.sol\":365:4637  contract OasisStaking is Ownable, ReentrancyGuard {... */\n  jump(tag_18)\n    /* \"@openzeppelin/contracts/access/Ownable.sol\":2433:2620   */\ntag_11:\n    /* \"@openzeppelin/contracts/access/Ownable.sol\":2506:2522   */\n  0x00\n    /* \"@openzeppelin/contracts/access/Ownable.sol\":2525:2531   */\n  dup1\n  sload\n  sub(shl(0xa0, 0x01), 0x01)\n    /* \"@openzeppelin/contracts/access/Ownable.sol\":2541:2558   */\n  dup4\n  dup2\n  and\n  not(sub(shl(0xa0, 0x01), 0x01))\n  dup4\n  and\n  dup2\n  or\n  dup5\n  sstore\n    /* \"@openzeppelin/contracts/access/Ownable.sol\":2573:2613   */\n  mload(0x40)\n    /* \"@openzeppelin/contracts/access/Ownable.sol\":2525:2531   */\n  swap2\n  swap1\n  swap3\n  and\n  swap3\n  dup4\n  swap2\n    /* \"@openzeppelin/contracts/access/Ownable.sol\":2573:2613   */\n  0x8be0079c531659141344cd1fd0a4f28419497f9722a3daafe3b4186f6b6457e0\n  swap2\n    /* \"@openzeppelin/contracts/access/Ownable.sol\":2506:2522   */\n  swap1\n    /* \"@openzeppelin/contracts/access/Ownable.sol\":2573:2613   */\n  log3\n    /* \"@openzeppelin/contracts/access/Ownable.sol\":2496:2620   */\n  pop\n    /* \"@openzeppelin/contracts/access/Ownable.sol\":2433:2620   */\n  pop\n  jump\t// out\n    /* \"#utility.yul\":14:154   */\ntag_17:\n  sub(shl(0xa0, 0x01), 0x01)\n    /* \"#utility.yul\":98:129   */\n  dup2\n  and\n    /* \"#utility.yul\":88:130   */\n  dup2\n  eq\n    /* \"#utility.yul\":78:148   */\n  tag_20\n  jumpi\n    /* \"#utility.yul\":144:145   */\n  0x00\n    /* \"#utility.yul\":141:142   */\n  dup1\n    /* \"#utility.yul\":134:146   */\n  revert\n    /* \"#utility.yul\":78:148   */\ntag_20:\n    /* \"#utility.yul\":14:154   */\n  pop\n  jump\t// out\n    /* \"#utility.yul\":159:593   */\ntag_3:\n    /* \"#utility.yul\":269:275   */\n  0x00\n    /* \"#utility.yul\":277:283   */\n  dup1\n    /* \"#utility.yul\":330:332   */\n  0x40\n    /* \"#utility.yul\":318:327   */\n  dup4\n    /* \"#utility.yul\":309:316   */\n  dup6\n    /* \"#utility.yul\":305:328   */\n  sub\n    /* \"#utility.yul\":301:333   */\n  slt\n    /* \"#utility.yul\":298:350   */\n  iszero\n  tag_22\n  jumpi\n    /* \"#utility.yul\":346:347   */\n  0x00\n    /* \"#utility.yul\":343:344   */\n  dup1\n    /* \"#utility.yul\":336:348   */\n  revert\n    /* \"#utility.yul\":298:350   */\ntag_22:\n    /* \"#utility.yul\":378:387   */\n  dup3\n    /* \"#utility.yul\":372:388   */\n  mload\n    /* \"#utility.yul\":397:437   */\n  tag_23\n    /* \"#utility.yul\":431:436   */\n  dup2\n    /* \"#utility.yul\":397:437   */\n  tag_17\n  jump\t// in\ntag_23:\n    /* \"#utility.yul\":506:508   */\n  0x20\n    /* \"#utility.yul\":491:509   */\n  dup5\n  add\n    /* \"#utility.yul\":485:510   */\n  mload\n    /* \"#utility.yul\":456:461   */\n  swap1\n  swap3\n  pop\n    /* \"#utility.yul\":519:561   */\n  tag_24\n    /* \"#utility.yul\":485:510   */\n  dup2\n    /* \"#utility.yul\":519:561   */\n  tag_17\n  jump\t// in\ntag_24:\n    /* \"#utility.yul\":580:587   */\n  dup1\n    /* \"#utility.yul\":570:587   */\n  swap2\n  pop\n  pop\n    /* \"#utility.yul\":159:593   */\n  swap3\n  pop\n  swap3\n  swap1\n  pop\n  jump\t// out\ntag_18:\n    /* \"OasisStaking.sol\":365:4637  contract OasisStaking is Ownable, ReentrancyGuard {... */\n  mload(0x80)\n  mload(0xa0)\n  codecopy(0x00, dataOffset(sub_0), dataSize(sub_0))\n  0x00\n  assignImmutable(\"0x291500c35eac273edf1383236ae1a1a69cf25e5f57ccfcc5d18cfe4f7447b6c5\")\n  0x00\n  assignImmutable(\"0x790e30e0a856d950d8905fd7673eb6446701065a282cdc694fb9ecc6e0e5f6fa\")\n  return(0x00, dataSize(sub_0))\nstop\n\nsub_0: assembly {\n        /* \"OasisStaking.sol\":365:4637  contract OasisStaking is Ownable, ReentrancyGuard {... */\n      mstore(0x40, 0x80)\n      callvalue\n      dup1\n      iszero\n      tag_1\n      jumpi\n      0x00\n      dup1\n      revert\n    tag_1:\n      pop\n      jumpi(tag_2, lt(calldatasize, 0x04))\n      shr(0xe0, calldataload(0x00))\n      dup1\n      0x8da5cb5b\n      gt\n      tag_16\n      jumpi\n      dup1\n      0x983d95ce\n      gt\n      tag_17\n      jumpi\n      dup1\n      0x983d95ce\n      eq\n      tag_12\n      jumpi\n      dup1\n      0xa24c4e6b\n      eq\n      tag_13\n      jumpi\n      dup1\n      0xb5a5e509\n      eq\n      tag_14\n      jumpi\n      dup1\n      0xf2fde38b\n      eq\n      tag_15\n      jumpi\n      0x00\n      dup1\n      revert\n    tag_17:\n      dup1\n      0x8da5cb5b\n      eq\n      tag_9\n      jumpi\n      dup1\n      0x9168ae72\n      eq\n      tag_10\n      jumpi\n      dup1\n      0x94067045\n      eq\n      tag_11\n      jumpi\n      0x00\n      dup1\n      revert\n    tag_16:\n      dup1\n      0x5357e916\n      gt\n      tag_18\n      jumpi\n      dup1\n      0x5357e916\n      eq\n      tag_6\n      jumpi\n      dup1\n      0x715018a6\n      eq\n      tag_7\n      jumpi\n      dup1\n      0x81c33b93\n      eq\n      tag_8\n      jumpi\n      0x00\n      dup1\n      revert\n    tag_18:\n      dup1\n      0x0fbf0a93\n      eq\n      tag_3\n      jumpi\n      dup1\n      0x372500ab\n      eq\n      tag_4\n      jumpi\n      dup1\n      0x4ead4327\n      eq\n      tag_5\n      jumpi\n    tag_2:\n      0x00\n      dup1\n      revert\n        /* \"OasisStaking.sol\":1108:1887  function stake(uint256[] calldata _tokenIds) external nonReentrant {... */\n    tag_3:\n      tag_19\n      tag_20\n      calldatasize\n      0x04\n      tag_21\n      jump\t// in\n    tag_20:\n      tag_22\n      jump\t// in\n    tag_19:\n      stop\n        /* \"OasisStaking.sol\":2924:3322  function claimRewards() external {... */\n    tag_4:\n      tag_19\n      tag_24\n      jump\t// in\n        /* \"OasisStaking.sol\":3831:4020  function userStakeInfo(address _user) public view returns (uint256 _tokensStaked, uint256 _availableRewards) {... */\n    tag_5:\n      tag_25\n      tag_26\n      calldatasize\n      0x04\n      tag_27\n      jump\t// in\n    tag_26:\n      tag_28\n      jump\t// in\n    tag_25:\n      0x40\n      dup1\n      mload\n        /* \"#utility.yul\":1219:1244   */\n      swap3\n      dup4\n      mstore\n        /* \"#utility.yul\":1275:1277   */\n      0x20\n        /* \"#utility.yul\":1260:1278   */\n      dup4\n      add\n        /* \"#utility.yul\":1253:1287   */\n      swap2\n      swap1\n      swap2\n      mstore\n        /* \"#utility.yul\":1192:1210   */\n      add\n        /* \"OasisStaking.sol\":3831:4020  function userStakeInfo(address _user) public view returns (uint256 _tokensStaked, uint256 _availableRewards) {... */\n    tag_29:\n      mload(0x40)\n      dup1\n      swap2\n      sub\n      swap1\n      return\n        /* \"OasisStaking.sol\":861:890  address[] public stakersArray */\n    tag_6:\n      tag_31\n      tag_32\n      calldatasize\n      0x04\n      tag_33\n      jump\t// in\n    tag_32:\n      tag_34\n      jump\t// in\n    tag_31:\n      mload(0x40)\n      sub(shl(0xa0, 0x01), 0x01)\n        /* \"#utility.yul\":1647:1702   */\n      swap1\n      swap2\n      and\n        /* \"#utility.yul\":1629:1703   */\n      dup2\n      mstore\n        /* \"#utility.yul\":1617:1619   */\n      0x20\n        /* \"#utility.yul\":1602:1620   */\n      add\n        /* \"OasisStaking.sol\":861:890  address[] public stakersArray */\n      tag_29\n        /* \"#utility.yul\":1483:1709   */\n      jump\n        /* \"@openzeppelin/contracts/access/Ownable.sol\":1831:1932   */\n    tag_7:\n      tag_19\n      tag_38\n      jump\t// in\n        /* \"OasisStaking.sol\":648:686  IERC721 public immutable evolvedCamels */\n    tag_8:\n      tag_31\n      immutable(\"0x291500c35eac273edf1383236ae1a1a69cf25e5f57ccfcc5d18cfe4f7447b6c5\")\n      dup2\n      jump\n        /* \"@openzeppelin/contracts/access/Ownable.sol\":1201:1286   */\n    tag_9:\n        /* \"@openzeppelin/contracts/access/Ownable.sol\":1247:1254   */\n      0x00\n        /* \"@openzeppelin/contracts/access/Ownable.sol\":1273:1279   */\n      sload\n      sub(shl(0xa0, 0x01), 0x01)\n      and\n        /* \"@openzeppelin/contracts/access/Ownable.sol\":1201:1286   */\n      jump(tag_31)\n        /* \"OasisStaking.sol\":756:797  mapping(address => Staker) public stakers */\n    tag_10:\n      tag_46\n      tag_47\n      calldatasize\n      0x04\n      tag_27\n      jump\t// in\n    tag_47:\n      mstore(0x20, 0x03)\n      0x00\n      swap1\n      dup2\n      mstore\n      0x40\n      swap1\n      keccak256\n      dup1\n      sload\n      0x01\n      dup3\n      add\n      sload\n      0x02\n      swap1\n      swap3\n      add\n      sload\n      swap1\n      swap2\n      swap1\n      dup4\n      jump\n    tag_46:\n      0x40\n      dup1\n      mload\n        /* \"#utility.yul\":2163:2188   */\n      swap4\n      dup5\n      mstore\n        /* \"#utility.yul\":2219:2221   */\n      0x20\n        /* \"#utility.yul\":2204:2222   */\n      dup5\n      add\n        /* \"#utility.yul\":2197:2231   */\n      swap3\n      swap1\n      swap3\n      mstore\n        /* \"#utility.yul\":2247:2265   */\n      swap1\n      dup3\n      add\n        /* \"#utility.yul\":2240:2274   */\n      mstore\n        /* \"#utility.yul\":2151:2153   */\n      0x60\n        /* \"#utility.yul\":2136:2154   */\n      add\n        /* \"OasisStaking.sol\":756:797  mapping(address => Staker) public stakers */\n      tag_29\n        /* \"#utility.yul\":1961:2280   */\n      jump\n        /* \"OasisStaking.sol\":804:852  mapping(uint256 => address) public stakerAddress */\n    tag_11:\n      tag_31\n      tag_52\n      calldatasize\n      0x04\n      tag_33\n      jump\t// in\n    tag_52:\n      mstore(0x20, 0x04)\n      0x00\n      swap1\n      dup2\n      mstore\n      0x40\n      swap1\n      keccak256\n      sload\n      sub(shl(0xa0, 0x01), 0x01)\n      and\n      dup2\n      jump\n        /* \"OasisStaking.sol\":1895:2916  function withdraw(uint256[] calldata _tokenIds) external nonReentrant {... */\n    tag_12:\n      tag_19\n      tag_56\n      calldatasize\n      0x04\n      tag_21\n      jump\t// in\n    tag_56:\n      tag_57\n      jump\t// in\n        /* \"OasisStaking.sol\":607:641  IERC20 public immutable oasisToken */\n    tag_13:\n      tag_31\n      immutable(\"0x790e30e0a856d950d8905fd7673eb6446701065a282cdc694fb9ecc6e0e5f6fa\")\n      dup2\n      jump\n        /* \"OasisStaking.sol\":3361:3793  function setRewardsPerHour(uint256 _newValue) public onlyOwner {... */\n    tag_14:\n      tag_19\n      tag_63\n      calldatasize\n      0x04\n      tag_33\n      jump\t// in\n    tag_63:\n      tag_64\n      jump\t// in\n        /* \"@openzeppelin/contracts/access/Ownable.sol\":2081:2279   */\n    tag_15:\n      tag_19\n      tag_66\n      calldatasize\n      0x04\n      tag_27\n      jump\t// in\n    tag_66:\n      tag_67\n      jump\t// in\n        /* \"OasisStaking.sol\":1108:1887  function stake(uint256[] calldata _tokenIds) external nonReentrant {... */\n    tag_22:\n        /* \"@openzeppelin/contracts/security/ReentrancyGuard.sol\":1744:1745   */\n      0x02\n        /* \"@openzeppelin/contracts/security/ReentrancyGuard.sol\":2325:2332   */\n      sload(0x01)\n        /* \"@openzeppelin/contracts/security/ReentrancyGuard.sol\":2325:2344   */\n      sub\n        /* \"@openzeppelin/contracts/security/ReentrancyGuard.sol\":2317:2380   */\n      tag_69\n      jumpi\n      mload(0x40)\n      shl(0xe5, 0x461bcd)\n      dup2\n      mstore\n        /* \"#utility.yul\":2733:2735   */\n      0x20\n        /* \"@openzeppelin/contracts/security/ReentrancyGuard.sol\":2317:2380   */\n      0x04\n      dup3\n      add\n        /* \"#utility.yul\":2715:2736   */\n      mstore\n        /* \"#utility.yul\":2772:2774   */\n      0x1f\n        /* \"#utility.yul\":2752:2770   */\n      0x24\n      dup3\n      add\n        /* \"#utility.yul\":2745:2775   */\n      mstore\n        /* \"#utility.yul\":2811:2844   */\n      0x5265656e7472616e637947756172643a207265656e7472616e742063616c6c00\n        /* \"#utility.yul\":2791:2809   */\n      0x44\n      dup3\n      add\n        /* \"#utility.yul\":2784:2845   */\n      mstore\n        /* \"#utility.yul\":2862:2880   */\n      0x64\n      add\n        /* \"@openzeppelin/contracts/security/ReentrancyGuard.sol\":2317:2380   */\n    tag_70:\n      mload(0x40)\n      dup1\n      swap2\n      sub\n      swap1\n      revert\n    tag_69:\n        /* \"@openzeppelin/contracts/security/ReentrancyGuard.sol\":1744:1745   */\n      0x02\n        /* \"@openzeppelin/contracts/security/ReentrancyGuard.sol\":2455:2462   */\n      0x01\n        /* \"@openzeppelin/contracts/security/ReentrancyGuard.sol\":2455:2473   */\n      sstore\n        /* \"OasisStaking.sol\":1198:1208  msg.sender */\n      caller\n        /* \"OasisStaking.sol\":1225:1226  0 */\n      0x00\n        /* \"OasisStaking.sol\":1190:1209  stakers[msg.sender] */\n      swap1\n      dup2\n      mstore\n        /* \"OasisStaking.sol\":1190:1197  stakers */\n      0x03\n        /* \"OasisStaking.sol\":1190:1209  stakers[msg.sender] */\n      0x20\n      mstore\n      0x40\n      swap1\n      keccak256\n        /* \"OasisStaking.sol\":1190:1222  stakers[msg.sender].amountStaked */\n      sload\n        /* \"OasisStaking.sol\":1190:1226  stakers[msg.sender].amountStaked > 0 */\n      iszero\n        /* \"OasisStaking.sol\":1186:1425  if (stakers[msg.sender].amountStaked > 0) {... */\n      tag_73\n      jumpi\n        /* \"OasisStaking.sol\":1243:1258  uint256 rewards */\n      0x00\n        /* \"OasisStaking.sol\":1261:1289  calculateRewards(msg.sender) */\n      tag_74\n        /* \"OasisStaking.sol\":1278:1288  msg.sender */\n      caller\n        /* \"OasisStaking.sol\":1261:1277  calculateRewards */\n      tag_75\n        /* \"OasisStaking.sol\":1261:1289  calculateRewards(msg.sender) */\n      jump\t// in\n    tag_74:\n        /* \"OasisStaking.sol\":1312:1322  msg.sender */\n      caller\n        /* \"OasisStaking.sol\":1304:1323  stakers[msg.sender] */\n      0x00\n      swap1\n      dup2\n      mstore\n        /* \"OasisStaking.sol\":1304:1311  stakers */\n      0x03\n        /* \"OasisStaking.sol\":1304:1323  stakers[msg.sender] */\n      0x20\n      mstore\n      0x40\n      dup2\n      keccak256\n        /* \"OasisStaking.sol\":1304:1340  stakers[msg.sender].unclaimedRewards */\n      0x02\n      add\n        /* \"OasisStaking.sol\":1304:1351  stakers[msg.sender].unclaimedRewards += rewards */\n      dup1\n      sload\n        /* \"OasisStaking.sol\":1243:1289  uint256 rewards = calculateRewards(msg.sender) */\n      swap3\n      swap4\n      pop\n      dup4\n      swap3\n        /* \"OasisStaking.sol\":1304:1340  stakers[msg.sender].unclaimedRewards */\n      swap1\n      swap2\n        /* \"OasisStaking.sol\":1304:1323  stakers[msg.sender] */\n      swap1\n        /* \"OasisStaking.sol\":1304:1351  stakers[msg.sender].unclaimedRewards += rewards */\n      tag_76\n      swap1\n        /* \"OasisStaking.sol\":1243:1289  uint256 rewards = calculateRewards(msg.sender) */\n      dup5\n      swap1\n        /* \"OasisStaking.sol\":1304:1351  stakers[msg.sender].unclaimedRewards += rewards */\n      tag_77\n      jump\t// in\n    tag_76:\n      swap1\n      swap2\n      sstore\n      pop\n        /* \"OasisStaking.sol\":1186:1425  if (stakers[msg.sender].amountStaked > 0) {... */\n      tag_78\n      swap2\n      pop\n      pop\n      jump\n    tag_73:\n        /* \"OasisStaking.sol\":1384:1396  stakersArray */\n      0x05\n        /* \"OasisStaking.sol\":1384:1413  stakersArray.push(msg.sender) */\n      dup1\n      sload\n      0x01\n      dup2\n      add\n      dup3\n      sstore\n      0x00\n      swap2\n      swap1\n      swap2\n      mstore\n      0x036b6384b5eca791c62761152d0c79bb0604c104a5fb6f4eb0703f3154bb3db0\n      add\n      dup1\n      sload\n      not(sub(shl(0xa0, 0x01), 0x01))\n      and\n        /* \"OasisStaking.sol\":1402:1412  msg.sender */\n      caller\n        /* \"OasisStaking.sol\":1384:1413  stakersArray.push(msg.sender) */\n      or\n      swap1\n      sstore\n        /* \"OasisStaking.sol\":1186:1425  if (stakers[msg.sender].amountStaked > 0) {... */\n    tag_78:\n        /* \"OasisStaking.sol\":1449:1458  _tokenIds */\n      dup1\n        /* \"OasisStaking.sol\":1435:1446  uint256 len */\n      0x00\n        /* \"OasisStaking.sol\":1476:1765  for (uint256 i; i < len; ++i) {... */\n    tag_80:\n        /* \"OasisStaking.sol\":1496:1499  len */\n      dup2\n        /* \"OasisStaking.sol\":1492:1493  i */\n      dup2\n        /* \"OasisStaking.sol\":1492:1499  i < len */\n      lt\n        /* \"OasisStaking.sol\":1476:1765  for (uint256 i; i < len; ++i) {... */\n      iszero\n      tag_81\n      jumpi\n        /* \"OasisStaking.sol\":1568:1578  msg.sender */\n      caller\n        /* \"OasisStaking.sol\":1529:1542  evolvedCamels */\n      immutable(\"0x291500c35eac273edf1383236ae1a1a69cf25e5f57ccfcc5d18cfe4f7447b6c5\")\n      sub(shl(0xa0, 0x01), 0x01)\n        /* \"OasisStaking.sol\":1529:1550  evolvedCamels.ownerOf */\n      and\n      0x6352211e\n        /* \"OasisStaking.sol\":1551:1560  _tokenIds */\n      dup7\n      dup7\n        /* \"OasisStaking.sol\":1561:1562  i */\n      dup6\n        /* \"OasisStaking.sol\":1551:1563  _tokenIds[i] */\n      dup2\n      dup2\n      lt\n      tag_84\n      jumpi\n      tag_84\n      tag_85\n      jump\t// in\n    tag_84:\n      swap1\n      pop\n      0x20\n      mul\n      add\n      calldataload\n        /* \"OasisStaking.sol\":1529:1564  evolvedCamels.ownerOf(_tokenIds[i]) */\n      mload(0x40)\n      dup3\n      0xffffffff\n      and\n      0xe0\n      shl\n      dup2\n      mstore\n      0x04\n      add\n      tag_86\n      swap2\n        /* \"#utility.yul\":3434:3459   */\n      dup2\n      mstore\n        /* \"#utility.yul\":3422:3424   */\n      0x20\n        /* \"#utility.yul\":3407:3425   */\n      add\n      swap1\n        /* \"#utility.yul\":3288:3465   */\n      jump\n        /* \"OasisStaking.sol\":1529:1564  evolvedCamels.ownerOf(_tokenIds[i]) */\n    tag_86:\n      0x20\n      mload(0x40)\n      dup1\n      dup4\n      sub\n      dup2\n      dup7\n      gas\n      staticcall\n      iszero\n      dup1\n      iszero\n      tag_89\n      jumpi\n      returndatasize\n      0x00\n      dup1\n      returndatacopy\n      revert(0x00, returndatasize)\n    tag_89:\n      pop\n      pop\n      pop\n      pop\n      mload(0x40)\n      returndatasize\n      not(0x1f)\n      0x1f\n      dup3\n      add\n      and\n      dup3\n      add\n      dup1\n      0x40\n      mstore\n      pop\n      dup2\n      add\n      swap1\n      tag_90\n      swap2\n      swap1\n      tag_91\n      jump\t// in\n    tag_90:\n      sub(shl(0xa0, 0x01), 0x01)\n        /* \"OasisStaking.sol\":1529:1578  evolvedCamels.ownerOf(_tokenIds[i]) == msg.sender */\n      and\n      eq\n        /* \"OasisStaking.sol\":1521:1616  require(evolvedCamels.ownerOf(_tokenIds[i]) == msg.sender, \"Can't stake tokens you don't own!\") */\n      tag_92\n      jumpi\n      mload(0x40)\n      shl(0xe5, 0x461bcd)\n      dup2\n      mstore\n        /* \"#utility.yul\":3928:3930   */\n      0x20\n        /* \"OasisStaking.sol\":1521:1616  require(evolvedCamels.ownerOf(_tokenIds[i]) == msg.sender, \"Can't stake tokens you don't own!\") */\n      0x04\n      dup3\n      add\n        /* \"#utility.yul\":3910:3931   */\n      mstore\n        /* \"#utility.yul\":3967:3969   */\n      0x21\n        /* \"#utility.yul\":3947:3965   */\n      0x24\n      dup3\n      add\n        /* \"#utility.yul\":3940:3970   */\n      mstore\n        /* \"#utility.yul\":4006:4040   */\n      0x43616e2774207374616b6520746f6b656e7320796f7520646f6e2774206f776e\n        /* \"#utility.yul\":3986:4004   */\n      0x44\n      dup3\n      add\n        /* \"#utility.yul\":3979:4041   */\n      mstore\n      shl(0xf8, 0x21)\n        /* \"#utility.yul\":4057:4075   */\n      0x64\n      dup3\n      add\n        /* \"#utility.yul\":4050:4081   */\n      mstore\n        /* \"#utility.yul\":4098:4117   */\n      0x84\n      add\n        /* \"OasisStaking.sol\":1521:1616  require(evolvedCamels.ownerOf(_tokenIds[i]) == msg.sender, \"Can't stake tokens you don't own!\") */\n      tag_70\n        /* \"#utility.yul\":3726:4123   */\n      jump\n        /* \"OasisStaking.sol\":1521:1616  require(evolvedCamels.ownerOf(_tokenIds[i]) == msg.sender, \"Can't stake tokens you don't own!\") */\n    tag_92:\n        /* \"OasisStaking.sol\":1631:1644  evolvedCamels */\n      immutable(\"0x291500c35eac273edf1383236ae1a1a69cf25e5f57ccfcc5d18cfe4f7447b6c5\")\n      sub(shl(0xa0, 0x01), 0x01)\n        /* \"OasisStaking.sol\":1631:1657  evolvedCamels.transferFrom */\n      and\n      0x23b872dd\n        /* \"OasisStaking.sol\":1658:1668  msg.sender */\n      caller\n        /* \"OasisStaking.sol\":1678:1682  this */\n      address\n        /* \"OasisStaking.sol\":1685:1694  _tokenIds */\n      dup8\n      dup8\n        /* \"OasisStaking.sol\":1695:1696  i */\n      dup7\n        /* \"OasisStaking.sol\":1685:1697  _tokenIds[i] */\n      dup2\n      dup2\n      lt\n      tag_96\n      jumpi\n      tag_96\n      tag_85\n      jump\t// in\n    tag_96:\n        /* \"OasisStaking.sol\":1631:1698  evolvedCamels.transferFrom(msg.sender, address(this), _tokenIds[i]) */\n      mload(0x40)\n      0xffffffff00000000000000000000000000000000000000000000000000000000\n      0xe0\n      dup9\n      swap1\n      shl\n      and\n      dup2\n      mstore\n      sub(shl(0xa0, 0x01), 0x01)\n        /* \"#utility.yul\":4409:4424   */\n      swap6\n      dup7\n      and\n        /* \"OasisStaking.sol\":1631:1698  evolvedCamels.transferFrom(msg.sender, address(this), _tokenIds[i]) */\n      0x04\n      dup3\n      add\n        /* \"#utility.yul\":4391:4425   */\n      mstore\n        /* \"#utility.yul\":4461:4476   */\n      swap5\n      swap1\n      swap4\n      and\n        /* \"#utility.yul\":4441:4459   */\n      0x24\n      dup6\n      add\n        /* \"#utility.yul\":4434:4477   */\n      mstore\n      pop\n        /* \"OasisStaking.sol\":1685:1697  _tokenIds[i] */\n      0x20\n      swap1\n      swap2\n      mul\n      add\n      calldataload\n        /* \"#utility.yul\":4493:4511   */\n      0x44\n      dup3\n      add\n        /* \"#utility.yul\":4486:4520   */\n      mstore\n        /* \"#utility.yul\":4303:4321   */\n      0x64\n      add\n        /* \"OasisStaking.sol\":1631:1698  evolvedCamels.transferFrom(msg.sender, address(this), _tokenIds[i]) */\n      0x00\n      mload(0x40)\n      dup1\n      dup4\n      sub\n      dup2\n      0x00\n      dup8\n      dup1\n      extcodesize\n      iszero\n      dup1\n      iszero\n      tag_99\n      jumpi\n      0x00\n      dup1\n      revert\n    tag_99:\n      pop\n      gas\n      call\n      iszero\n      dup1\n      iszero\n      tag_101\n      jumpi\n      returndatasize\n      0x00\n      dup1\n      returndatacopy\n      revert(0x00, returndatasize)\n    tag_101:\n      pop\n      pop\n      pop\n      pop\n        /* \"OasisStaking.sol\":1743:1753  msg.sender */\n      caller\n        /* \"OasisStaking.sol\":1713:1726  stakerAddress */\n      0x04\n        /* \"OasisStaking.sol\":1713:1740  stakerAddress[_tokenIds[i]] */\n      0x00\n        /* \"OasisStaking.sol\":1727:1736  _tokenIds */\n      dup7\n      dup7\n        /* \"OasisStaking.sol\":1737:1738  i */\n      dup6\n        /* \"OasisStaking.sol\":1727:1739  _tokenIds[i] */\n      dup2\n      dup2\n      lt\n      tag_103\n      jumpi\n      tag_103\n      tag_85\n      jump\t// in\n    tag_103:\n      swap1\n      pop\n      0x20\n      mul\n      add\n      calldataload\n        /* \"OasisStaking.sol\":1713:1740  stakerAddress[_tokenIds[i]] */\n      dup2\n      mstore\n      0x20\n      add\n      swap1\n      dup2\n      mstore\n      0x20\n      add\n      0x00\n      keccak256\n      0x00\n        /* \"OasisStaking.sol\":1713:1753  stakerAddress[_tokenIds[i]] = msg.sender */\n      0x0100\n      exp\n      dup2\n      sload\n      dup2\n      sub(shl(0xa0, 0x01), 0x01)\n      mul\n      not\n      and\n      swap1\n      dup4\n      sub(shl(0xa0, 0x01), 0x01)\n      and\n      mul\n      or\n      swap1\n      sstore\n      pop\n        /* \"OasisStaking.sol\":1501:1504  ++i */\n      dup1\n      tag_104\n      swap1\n      tag_105\n      jump\t// in\n    tag_104:\n      swap1\n      pop\n        /* \"OasisStaking.sol\":1476:1765  for (uint256 i; i < len; ++i) {... */\n      jump(tag_80)\n    tag_81:\n      pop\n        /* \"OasisStaking.sol\":1783:1793  msg.sender */\n      caller\n        /* \"OasisStaking.sol\":1775:1794  stakers[msg.sender] */\n      0x00\n      swap1\n      dup2\n      mstore\n        /* \"OasisStaking.sol\":1775:1782  stakers */\n      0x03\n        /* \"OasisStaking.sol\":1775:1794  stakers[msg.sender] */\n      0x20\n      mstore\n      0x40\n      dup2\n      keccak256\n        /* \"OasisStaking.sol\":1775:1814  stakers[msg.sender].amountStaked += len */\n      dup1\n      sload\n        /* \"OasisStaking.sol\":1811:1814  len */\n      dup4\n      swap3\n        /* \"OasisStaking.sol\":1775:1794  stakers[msg.sender] */\n      swap1\n        /* \"OasisStaking.sol\":1775:1814  stakers[msg.sender].amountStaked += len */\n      tag_106\n      swap1\n        /* \"OasisStaking.sol\":1811:1814  len */\n      dup5\n      swap1\n        /* \"OasisStaking.sol\":1775:1814  stakers[msg.sender].amountStaked += len */\n      tag_77\n      jump\t// in\n    tag_106:\n      swap1\n      swap2\n      sstore\n      pop\n      pop\n        /* \"OasisStaking.sol\":1833:1843  msg.sender */\n      caller\n        /* \"OasisStaking.sol\":1825:1844  stakers[msg.sender] */\n      0x00\n      swap1\n      dup2\n      mstore\n        /* \"OasisStaking.sol\":1825:1832  stakers */\n      0x03\n        /* \"OasisStaking.sol\":1825:1844  stakers[msg.sender] */\n      0x20\n      mstore\n      0x40\n      swap1\n      keccak256\n        /* \"OasisStaking.sol\":1864:1879  block.timestamp */\n      timestamp\n        /* \"OasisStaking.sol\":1825:1861  stakers[msg.sender].timeOfLastUpdate */\n      0x01\n      swap2\n      dup3\n      add\n        /* \"OasisStaking.sol\":1825:1879  stakers[msg.sender].timeOfLastUpdate = block.timestamp */\n      sstore\n        /* \"@openzeppelin/contracts/security/ReentrancyGuard.sol\":2628:2650   */\n      dup1\n      sstore\n      pop\n      pop\n      pop\n        /* \"OasisStaking.sol\":1108:1887  function stake(uint256[] calldata _tokenIds) external nonReentrant {... */\n      jump\t// out\n        /* \"OasisStaking.sol\":2924:3322  function claimRewards() external {... */\n    tag_24:\n        /* \"OasisStaking.sol\":3025:3035  msg.sender */\n      caller\n        /* \"OasisStaking.sol\":2968:2983  uint256 rewards */\n      0x00\n        /* \"OasisStaking.sol\":3017:3036  stakers[msg.sender] */\n      dup2\n      dup2\n      mstore\n        /* \"OasisStaking.sol\":3017:3024  stakers */\n      0x03\n        /* \"OasisStaking.sol\":3017:3036  stakers[msg.sender] */\n      0x20\n      mstore\n      0x40\n      dup2\n      keccak256\n        /* \"OasisStaking.sol\":3017:3053  stakers[msg.sender].unclaimedRewards */\n      0x02\n      add\n      sload\n        /* \"OasisStaking.sol\":2968:2983  uint256 rewards */\n      swap1\n      swap2\n        /* \"OasisStaking.sol\":2986:3014  calculateRewards(msg.sender) */\n      tag_108\n      swap1\n        /* \"OasisStaking.sol\":2986:3002  calculateRewards */\n      tag_75\n        /* \"OasisStaking.sol\":2986:3014  calculateRewards(msg.sender) */\n      jump\t// in\n    tag_108:\n        /* \"OasisStaking.sol\":2986:3053  calculateRewards(msg.sender) + stakers[msg.sender].unclaimedRewards */\n      tag_109\n      swap2\n      swap1\n      tag_77\n      jump\t// in\n    tag_109:\n        /* \"OasisStaking.sol\":2968:3053  uint256 rewards = calculateRewards(msg.sender) + stakers[msg.sender].unclaimedRewards */\n      swap1\n      pop\n        /* \"OasisStaking.sol\":3082:3083  0 */\n      0x00\n        /* \"OasisStaking.sol\":3072:3079  rewards */\n      dup2\n        /* \"OasisStaking.sol\":3072:3083  rewards > 0 */\n      gt\n        /* \"OasisStaking.sol\":3064:3116  require(rewards > 0, \"You have no rewards to claim\") */\n      tag_110\n      jumpi\n      mload(0x40)\n      shl(0xe5, 0x461bcd)\n      dup2\n      mstore\n        /* \"#utility.yul\":4873:4875   */\n      0x20\n        /* \"OasisStaking.sol\":3064:3116  require(rewards > 0, \"You have no rewards to claim\") */\n      0x04\n      dup3\n      add\n        /* \"#utility.yul\":4855:4876   */\n      mstore\n        /* \"#utility.yul\":4912:4914   */\n      0x1c\n        /* \"#utility.yul\":4892:4910   */\n      0x24\n      dup3\n      add\n        /* \"#utility.yul\":4885:4915   */\n      mstore\n        /* \"#utility.yul\":4951:4981   */\n      0x596f752068617665206e6f207265776172647320746f20636c61696d00000000\n        /* \"#utility.yul\":4931:4949   */\n      0x44\n      dup3\n      add\n        /* \"#utility.yul\":4924:4982   */\n      mstore\n        /* \"#utility.yul\":4999:5017   */\n      0x64\n      add\n        /* \"OasisStaking.sol\":3064:3116  require(rewards > 0, \"You have no rewards to claim\") */\n      tag_70\n        /* \"#utility.yul\":4671:5023   */\n      jump\n        /* \"OasisStaking.sol\":3064:3116  require(rewards > 0, \"You have no rewards to claim\") */\n    tag_110:\n        /* \"OasisStaking.sol\":3135:3145  msg.sender */\n      caller\n        /* \"OasisStaking.sol\":3127:3146  stakers[msg.sender] */\n      0x00\n      dup2\n      dup2\n      mstore\n        /* \"OasisStaking.sol\":3127:3134  stakers */\n      0x03\n        /* \"OasisStaking.sol\":3127:3146  stakers[msg.sender] */\n      0x20\n      mstore\n      0x40\n      dup1\n      dup3\n      keccak256\n        /* \"OasisStaking.sol\":3166:3181  block.timestamp */\n      timestamp\n        /* \"OasisStaking.sol\":3127:3163  stakers[msg.sender].timeOfLastUpdate */\n      0x01\n      dup3\n      add\n        /* \"OasisStaking.sol\":3127:3181  stakers[msg.sender].timeOfLastUpdate = block.timestamp */\n      sstore\n        /* \"OasisStaking.sol\":3192:3228  stakers[msg.sender].unclaimedRewards */\n      0x02\n      add\n        /* \"OasisStaking.sol\":3192:3232  stakers[msg.sender].unclaimedRewards = 0 */\n      swap2\n      swap1\n      swap2\n      sstore\n        /* \"OasisStaking.sol\":3248:3288  oasisToken.transfer(msg.sender, rewards) */\n      mload\n      shl(0xe0, 0xa9059cbb)\n      dup2\n      mstore\n      0x04\n      dup2\n      add\n        /* \"#utility.yul\":5202:5276   */\n      swap2\n      swap1\n      swap2\n      mstore\n        /* \"#utility.yul\":5292:5310   */\n      0x24\n      dup2\n      add\n        /* \"#utility.yul\":5285:5319   */\n      dup3\n      swap1\n      mstore\n      sub(shl(0xa0, 0x01), 0x01)\n        /* \"OasisStaking.sol\":3248:3258  oasisToken */\n      immutable(\"0x790e30e0a856d950d8905fd7673eb6446701065a282cdc694fb9ecc6e0e5f6fa\")\n        /* \"OasisStaking.sol\":3248:3267  oasisToken.transfer */\n      and\n      swap1\n      0xa9059cbb\n      swap1\n        /* \"#utility.yul\":5175:5193   */\n      0x44\n      add\n        /* \"OasisStaking.sol\":3248:3288  oasisToken.transfer(msg.sender, rewards) */\n      0x20\n      mload(0x40)\n      dup1\n      dup4\n      sub\n      dup2\n      0x00\n      dup8\n      gas\n      call\n      iszero\n      dup1\n      iszero\n      tag_116\n      jumpi\n      returndatasize\n      0x00\n      dup1\n      returndatacopy\n      revert(0x00, returndatasize)\n    tag_116:\n      pop\n      pop\n      pop\n      pop\n      mload(0x40)\n      returndatasize\n      not(0x1f)\n      0x1f\n      dup3\n      add\n      and\n      dup3\n      add\n      dup1\n      0x40\n      mstore\n      pop\n      dup2\n      add\n      swap1\n      tag_117\n      swap2\n      swap1\n      tag_118\n      jump\t// in\n    tag_117:\n        /* \"OasisStaking.sol\":3243:3314  if (!oasisToken.transfer(msg.sender, rewards)) revert(\"Transfer issue\") */\n      tag_119\n      jumpi\n        /* \"OasisStaking.sol\":3290:3314  revert(\"Transfer issue\") */\n      mload(0x40)\n      shl(0xe5, 0x461bcd)\n      dup2\n      mstore\n        /* \"#utility.yul\":5814:5816   */\n      0x20\n        /* \"OasisStaking.sol\":3290:3314  revert(\"Transfer issue\") */\n      0x04\n      dup3\n      add\n        /* \"#utility.yul\":5796:5817   */\n      mstore\n        /* \"#utility.yul\":5853:5855   */\n      0x0e\n        /* \"#utility.yul\":5833:5851   */\n      0x24\n      dup3\n      add\n        /* \"#utility.yul\":5826:5856   */\n      mstore\n        /* \"#utility.yul\":5892:5908   */\n      0x5472616e73666572206973737565000000000000000000000000000000000000\n        /* \"#utility.yul\":5872:5890   */\n      0x44\n      dup3\n      add\n        /* \"#utility.yul\":5865:5909   */\n      mstore\n        /* \"#utility.yul\":5926:5944   */\n      0x64\n      add\n        /* \"OasisStaking.sol\":3290:3314  revert(\"Transfer issue\") */\n      tag_70\n        /* \"#utility.yul\":5612:5950   */\n      jump\n        /* \"OasisStaking.sol\":3243:3314  if (!oasisToken.transfer(msg.sender, rewards)) revert(\"Transfer issue\") */\n    tag_119:\n        /* \"OasisStaking.sol\":2957:3322  {... */\n      pop\n        /* \"OasisStaking.sol\":2924:3322  function claimRewards() external {... */\n      jump\t// out\n        /* \"OasisStaking.sol\":3831:4020  function userStakeInfo(address _user) public view returns (uint256 _tokensStaked, uint256 _availableRewards) {... */\n    tag_28:\n      sub(shl(0xa0, 0x01), 0x01)\n        /* \"OasisStaking.sol\":3959:3973  stakers[_user] */\n      dup2\n      and\n        /* \"OasisStaking.sol\":3890:3911  uint256 _tokensStaked */\n      0x00\n        /* \"OasisStaking.sol\":3959:3973  stakers[_user] */\n      swap1\n      dup2\n      mstore\n        /* \"OasisStaking.sol\":3959:3966  stakers */\n      0x03\n        /* \"OasisStaking.sol\":3959:3973  stakers[_user] */\n      0x20\n      mstore\n      0x40\n      dup2\n      keccak256\n        /* \"OasisStaking.sol\":3959:3986  stakers[_user].amountStaked */\n      sload\n        /* \"OasisStaking.sol\":3890:3911  uint256 _tokensStaked */\n      dup2\n      swap1\n        /* \"OasisStaking.sol\":3988:4011  availableRewards(_user) */\n      tag_123\n        /* \"OasisStaking.sol\":3967:3972  _user */\n      dup5\n        /* \"OasisStaking.sol\":3988:4004  availableRewards */\n      tag_124\n        /* \"OasisStaking.sol\":3988:4011  availableRewards(_user) */\n      jump\t// in\n    tag_123:\n        /* \"OasisStaking.sol\":3951:4012  return (stakers[_user].amountStaked, availableRewards(_user)) */\n      swap2\n      pop\n      swap2\n      pop\n        /* \"OasisStaking.sol\":3831:4020  function userStakeInfo(address _user) public view returns (uint256 _tokensStaked, uint256 _availableRewards) {... */\n      swap2\n      pop\n      swap2\n      jump\t// out\n        /* \"OasisStaking.sol\":861:890  address[] public stakersArray */\n    tag_34:\n      0x05\n      dup2\n      dup2\n      sload\n      dup2\n      lt\n      tag_125\n      jumpi\n      0x00\n      dup1\n      revert\n    tag_125:\n      0x00\n      swap2\n      dup3\n      mstore\n      0x20\n      swap1\n      swap2\n      keccak256\n      add\n      sload\n      sub(shl(0xa0, 0x01), 0x01)\n      and\n      swap1\n      pop\n      dup2\n      jump\t// out\n        /* \"@openzeppelin/contracts/access/Ownable.sol\":1831:1932   */\n    tag_38:\n        /* \"@openzeppelin/contracts/access/Ownable.sol\":1094:1107   */\n      tag_128\n        /* \"@openzeppelin/contracts/access/Ownable.sol\":1094:1105   */\n      tag_129\n        /* \"@openzeppelin/contracts/access/Ownable.sol\":1094:1107   */\n      jump\t// in\n    tag_128:\n        /* \"@openzeppelin/contracts/access/Ownable.sol\":1895:1925   */\n      tag_131\n        /* \"@openzeppelin/contracts/access/Ownable.sol\":1922:1923   */\n      0x00\n        /* \"@openzeppelin/contracts/access/Ownable.sol\":1895:1913   */\n      tag_132\n        /* \"@openzeppelin/contracts/access/Ownable.sol\":1895:1925   */\n      jump\t// in\n    tag_131:\n        /* \"@openzeppelin/contracts/access/Ownable.sol\":1831:1932   */\n      jump\t// out\n        /* \"OasisStaking.sol\":1895:2916  function withdraw(uint256[] calldata _tokenIds) external nonReentrant {... */\n    tag_57:\n        /* \"@openzeppelin/contracts/security/ReentrancyGuard.sol\":1744:1745   */\n      0x02\n        /* \"@openzeppelin/contracts/security/ReentrancyGuard.sol\":2325:2332   */\n      sload(0x01)\n        /* \"@openzeppelin/contracts/security/ReentrancyGuard.sol\":2325:2344   */\n      sub\n        /* \"@openzeppelin/contracts/security/ReentrancyGuard.sol\":2317:2380   */\n      tag_135\n      jumpi\n      mload(0x40)\n      shl(0xe5, 0x461bcd)\n      dup2\n      mstore\n        /* \"#utility.yul\":2733:2735   */\n      0x20\n        /* \"@openzeppelin/contracts/security/ReentrancyGuard.sol\":2317:2380   */\n      0x04\n      dup3\n      add\n        /* \"#utility.yul\":2715:2736   */\n      mstore\n        /* \"#utility.yul\":2772:2774   */\n      0x1f\n        /* \"#utility.yul\":2752:2770   */\n      0x24\n      dup3\n      add\n        /* \"#utility.yul\":2745:2775   */\n      mstore\n        /* \"#utility.yul\":2811:2844   */\n      0x5265656e7472616e637947756172643a207265656e7472616e742063616c6c00\n        /* \"#utility.yul\":2791:2809   */\n      0x44\n      dup3\n      add\n        /* \"#utility.yul\":2784:2845   */\n      mstore\n        /* \"#utility.yul\":2862:2880   */\n      0x64\n      add\n        /* \"@openzeppelin/contracts/security/ReentrancyGuard.sol\":2317:2380   */\n      tag_70\n        /* \"#utility.yul\":2531:2886   */\n      jump\n        /* \"@openzeppelin/contracts/security/ReentrancyGuard.sol\":2317:2380   */\n    tag_135:\n        /* \"@openzeppelin/contracts/security/ReentrancyGuard.sol\":1744:1745   */\n      0x02\n        /* \"@openzeppelin/contracts/security/ReentrancyGuard.sol\":2455:2462   */\n      0x01\n        /* \"@openzeppelin/contracts/security/ReentrancyGuard.sol\":2455:2473   */\n      sstore\n        /* \"OasisStaking.sol\":1992:2002  msg.sender */\n      caller\n        /* \"OasisStaking.sol\":2019:2020  0 */\n      0x00\n        /* \"OasisStaking.sol\":1984:2003  stakers[msg.sender] */\n      swap1\n      dup2\n      mstore\n        /* \"OasisStaking.sol\":1984:1991  stakers */\n      0x03\n        /* \"OasisStaking.sol\":1984:2003  stakers[msg.sender] */\n      0x20\n      mstore\n      0x40\n      swap1\n      keccak256\n        /* \"OasisStaking.sol\":1984:2016  stakers[msg.sender].amountStaked */\n      sload\n        /* \"OasisStaking.sol\":1976:2050  require(stakers[msg.sender].amountStaked > 0, \"You have no tokens staked\") */\n      tag_138\n      jumpi\n      mload(0x40)\n      shl(0xe5, 0x461bcd)\n      dup2\n      mstore\n        /* \"#utility.yul\":6157:6159   */\n      0x20\n        /* \"OasisStaking.sol\":1976:2050  require(stakers[msg.sender].amountStaked > 0, \"You have no tokens staked\") */\n      0x04\n      dup3\n      add\n        /* \"#utility.yul\":6139:6160   */\n      mstore\n        /* \"#utility.yul\":6196:6198   */\n      0x19\n        /* \"#utility.yul\":6176:6194   */\n      0x24\n      dup3\n      add\n        /* \"#utility.yul\":6169:6199   */\n      mstore\n        /* \"#utility.yul\":6235:6262   */\n      0x596f752068617665206e6f20746f6b656e73207374616b656400000000000000\n        /* \"#utility.yul\":6215:6233   */\n      0x44\n      dup3\n      add\n        /* \"#utility.yul\":6208:6263   */\n      mstore\n        /* \"#utility.yul\":6280:6298   */\n      0x64\n      add\n        /* \"OasisStaking.sol\":1976:2050  require(stakers[msg.sender].amountStaked > 0, \"You have no tokens staked\") */\n      tag_70\n        /* \"#utility.yul\":5955:6304   */\n      jump\n        /* \"OasisStaking.sol\":1976:2050  require(stakers[msg.sender].amountStaked > 0, \"You have no tokens staked\") */\n    tag_138:\n        /* \"OasisStaking.sol\":2061:2076  uint256 rewards */\n      0x00\n        /* \"OasisStaking.sol\":2079:2107  calculateRewards(msg.sender) */\n      tag_141\n        /* \"OasisStaking.sol\":2096:2106  msg.sender */\n      caller\n        /* \"OasisStaking.sol\":2079:2095  calculateRewards */\n      tag_75\n        /* \"OasisStaking.sol\":2079:2107  calculateRewards(msg.sender) */\n      jump\t// in\n    tag_141:\n        /* \"OasisStaking.sol\":2126:2136  msg.sender */\n      caller\n        /* \"OasisStaking.sol\":2118:2137  stakers[msg.sender] */\n      0x00\n      swap1\n      dup2\n      mstore\n        /* \"OasisStaking.sol\":2118:2125  stakers */\n      0x03\n        /* \"OasisStaking.sol\":2118:2137  stakers[msg.sender] */\n      0x20\n      mstore\n      0x40\n      dup2\n      keccak256\n        /* \"OasisStaking.sol\":2118:2154  stakers[msg.sender].unclaimedRewards */\n      0x02\n      add\n        /* \"OasisStaking.sol\":2118:2165  stakers[msg.sender].unclaimedRewards += rewards */\n      dup1\n      sload\n        /* \"OasisStaking.sol\":2061:2107  uint256 rewards = calculateRewards(msg.sender) */\n      swap3\n      swap4\n      pop\n      dup4\n      swap3\n        /* \"OasisStaking.sol\":2118:2154  stakers[msg.sender].unclaimedRewards */\n      swap1\n      swap2\n        /* \"OasisStaking.sol\":2118:2137  stakers[msg.sender] */\n      swap1\n        /* \"OasisStaking.sol\":2118:2165  stakers[msg.sender].unclaimedRewards += rewards */\n      tag_142\n      swap1\n        /* \"OasisStaking.sol\":2061:2107  uint256 rewards = calculateRewards(msg.sender) */\n      dup5\n      swap1\n        /* \"OasisStaking.sol\":2118:2165  stakers[msg.sender].unclaimedRewards += rewards */\n      tag_77\n      jump\t// in\n    tag_142:\n      swap1\n      swap2\n      sstore\n      pop\n        /* \"OasisStaking.sol\":2190:2199  _tokenIds */\n      dup3\n      swap1\n      pop\n        /* \"OasisStaking.sol\":2176:2187  uint256 len */\n      0x00\n        /* \"OasisStaking.sol\":2217:2461  for (uint256 i; i < len; ++i) {... */\n    tag_143:\n        /* \"OasisStaking.sol\":2237:2240  len */\n      dup2\n        /* \"OasisStaking.sol\":2233:2234  i */\n      dup2\n        /* \"OasisStaking.sol\":2233:2240  i < len */\n      lt\n        /* \"OasisStaking.sol\":2217:2461  for (uint256 i; i < len; ++i) {... */\n      iszero\n      tag_144\n      jumpi\n        /* \"OasisStaking.sol\":2301:2311  msg.sender */\n      caller\n        /* \"OasisStaking.sol\":2270:2283  stakerAddress */\n      0x04\n        /* \"OasisStaking.sol\":2270:2297  stakerAddress[_tokenIds[i]] */\n      0x00\n        /* \"OasisStaking.sol\":2284:2293  _tokenIds */\n      dup8\n      dup8\n        /* \"OasisStaking.sol\":2294:2295  i */\n      dup6\n        /* \"OasisStaking.sol\":2284:2296  _tokenIds[i] */\n      dup2\n      dup2\n      lt\n      tag_147\n      jumpi\n      tag_147\n      tag_85\n      jump\t// in\n    tag_147:\n      0x20\n      swap1\n      dup2\n      mul\n      swap3\n      swap1\n      swap3\n      add\n      calldataload\n        /* \"OasisStaking.sol\":2270:2297  stakerAddress[_tokenIds[i]] */\n      dup4\n      mstore\n      pop\n      dup2\n      add\n      swap2\n      swap1\n      swap2\n      mstore\n      0x40\n      add\n      0x00\n      keccak256\n      sload\n      sub(shl(0xa0, 0x01), 0x01)\n      and\n        /* \"OasisStaking.sol\":2270:2311  stakerAddress[_tokenIds[i]] == msg.sender */\n      eq\n        /* \"OasisStaking.sol\":2262:2312  require(stakerAddress[_tokenIds[i]] == msg.sender) */\n      tag_148\n      jumpi\n      0x00\n      dup1\n      revert\n    tag_148:\n        /* \"OasisStaking.sol\":2365:2366  0 */\n      0x00\n        /* \"OasisStaking.sol\":2327:2340  stakerAddress */\n      0x04\n        /* \"OasisStaking.sol\":2327:2354  stakerAddress[_tokenIds[i]] */\n      0x00\n        /* \"OasisStaking.sol\":2341:2350  _tokenIds */\n      dup8\n      dup8\n        /* \"OasisStaking.sol\":2351:2352  i */\n      dup6\n        /* \"OasisStaking.sol\":2341:2353  _tokenIds[i] */\n      dup2\n      dup2\n      lt\n      tag_150\n      jumpi\n      tag_150\n      tag_85\n      jump\t// in\n    tag_150:\n      0x20\n      swap1\n      dup2\n      mul\n      swap3\n      swap1\n      swap3\n      add\n      calldataload\n        /* \"OasisStaking.sol\":2327:2354  stakerAddress[_tokenIds[i]] */\n      dup4\n      mstore\n      pop\n      dup2\n      add\n      swap2\n      swap1\n      swap2\n      mstore\n      0x40\n      add\n      0x00\n      keccak256\n        /* \"OasisStaking.sol\":2327:2367  stakerAddress[_tokenIds[i]] = address(0) */\n      dup1\n      sload\n      not(sub(shl(0xa0, 0x01), 0x01))\n      and\n      sub(shl(0xa0, 0x01), 0x01)\n      swap3\n      dup4\n      and\n      or\n      swap1\n      sstore\n        /* \"OasisStaking.sol\":2382:2395  evolvedCamels */\n      immutable(\"0x291500c35eac273edf1383236ae1a1a69cf25e5f57ccfcc5d18cfe4f7447b6c5\")\n        /* \"OasisStaking.sol\":2382:2408  evolvedCamels.transferFrom */\n      and\n      0x23b872dd\n        /* \"OasisStaking.sol\":2417:2421  this */\n      address\n        /* \"OasisStaking.sol\":2424:2434  msg.sender */\n      caller\n        /* \"OasisStaking.sol\":2436:2445  _tokenIds */\n      dup9\n      dup9\n        /* \"OasisStaking.sol\":2446:2447  i */\n      dup7\n        /* \"OasisStaking.sol\":2436:2448  _tokenIds[i] */\n      dup2\n      dup2\n      lt\n      tag_152\n      jumpi\n      tag_152\n      tag_85\n      jump\t// in\n    tag_152:\n        /* \"OasisStaking.sol\":2382:2449  evolvedCamels.transferFrom(address(this), msg.sender, _tokenIds[i]) */\n      mload(0x40)\n      0xffffffff00000000000000000000000000000000000000000000000000000000\n      0xe0\n      dup9\n      swap1\n      shl\n      and\n      dup2\n      mstore\n      sub(shl(0xa0, 0x01), 0x01)\n        /* \"#utility.yul\":4409:4424   */\n      swap6\n      dup7\n      and\n        /* \"OasisStaking.sol\":2382:2449  evolvedCamels.transferFrom(address(this), msg.sender, _tokenIds[i]) */\n      0x04\n      dup3\n      add\n        /* \"#utility.yul\":4391:4425   */\n      mstore\n        /* \"#utility.yul\":4461:4476   */\n      swap5\n      swap1\n      swap4\n      and\n        /* \"#utility.yul\":4441:4459   */\n      0x24\n      dup6\n      add\n        /* \"#utility.yul\":4434:4477   */\n      mstore\n      pop\n        /* \"OasisStaking.sol\":2436:2448  _tokenIds[i] */\n      0x20\n      swap1\n      swap2\n      mul\n      add\n      calldataload\n        /* \"#utility.yul\":4493:4511   */\n      0x44\n      dup3\n      add\n        /* \"#utility.yul\":4486:4520   */\n      mstore\n        /* \"#utility.yul\":4303:4321   */\n      0x64\n      add\n        /* \"OasisStaking.sol\":2382:2449  evolvedCamels.transferFrom(address(this), msg.sender, _tokenIds[i]) */\n      0x00\n      mload(0x40)\n      dup1\n      dup4\n      sub\n      dup2\n      0x00\n      dup8\n      dup1\n      extcodesize\n      iszero\n      dup1\n      iszero\n      tag_154\n      jumpi\n      0x00\n      dup1\n      revert\n    tag_154:\n      pop\n      gas\n      call\n      iszero\n      dup1\n      iszero\n      tag_156\n      jumpi\n      returndatasize\n      0x00\n      dup1\n      returndatacopy\n      revert(0x00, returndatasize)\n    tag_156:\n      pop\n      pop\n      pop\n      pop\n        /* \"OasisStaking.sol\":2242:2245  ++i */\n      dup1\n      tag_157\n      swap1\n      tag_105\n      jump\t// in\n    tag_157:\n      swap1\n      pop\n        /* \"OasisStaking.sol\":2217:2461  for (uint256 i; i < len; ++i) {... */\n      jump(tag_143)\n    tag_144:\n      pop\n        /* \"OasisStaking.sol\":2479:2489  msg.sender */\n      caller\n        /* \"OasisStaking.sol\":2471:2490  stakers[msg.sender] */\n      0x00\n      swap1\n      dup2\n      mstore\n        /* \"OasisStaking.sol\":2471:2478  stakers */\n      0x03\n        /* \"OasisStaking.sol\":2471:2490  stakers[msg.sender] */\n      0x20\n      mstore\n      0x40\n      dup2\n      keccak256\n        /* \"OasisStaking.sol\":2471:2510  stakers[msg.sender].amountStaked -= len */\n      dup1\n      sload\n        /* \"OasisStaking.sol\":2507:2510  len */\n      dup4\n      swap3\n        /* \"OasisStaking.sol\":2471:2490  stakers[msg.sender] */\n      swap1\n        /* \"OasisStaking.sol\":2471:2510  stakers[msg.sender].amountStaked -= len */\n      tag_158\n      swap1\n        /* \"OasisStaking.sol\":2507:2510  len */\n      dup5\n      swap1\n        /* \"OasisStaking.sol\":2471:2510  stakers[msg.sender].amountStaked -= len */\n      tag_159\n      jump\t// in\n    tag_158:\n      swap1\n      swap2\n      sstore\n      pop\n      pop\n        /* \"OasisStaking.sol\":2529:2539  msg.sender */\n      caller\n        /* \"OasisStaking.sol\":2521:2540  stakers[msg.sender] */\n      0x00\n      swap1\n      dup2\n      mstore\n        /* \"OasisStaking.sol\":2521:2528  stakers */\n      0x03\n        /* \"OasisStaking.sol\":2521:2540  stakers[msg.sender] */\n      0x20\n      mstore\n      0x40\n      dup2\n      keccak256\n        /* \"OasisStaking.sol\":2560:2575  block.timestamp */\n      timestamp\n        /* \"OasisStaking.sol\":2521:2557  stakers[msg.sender].timeOfLastUpdate */\n      0x01\n      dup3\n      add\n        /* \"OasisStaking.sol\":2521:2575  stakers[msg.sender].timeOfLastUpdate = block.timestamp */\n      sstore\n        /* \"OasisStaking.sol\":2590:2622  stakers[msg.sender].amountStaked */\n      sload\n        /* \"OasisStaking.sol\":2590:2627  stakers[msg.sender].amountStaked == 0 */\n      swap1\n      sub\n        /* \"OasisStaking.sol\":2586:2909  if (stakers[msg.sender].amountStaked == 0) {... */\n      tag_160\n      jumpi\n        /* \"OasisStaking.sol\":2649:2658  uint256 i */\n      0x00\n        /* \"OasisStaking.sol\":2644:2898  for (uint256 i; i < stakersArray.length; ++i) {... */\n    tag_161:\n        /* \"OasisStaking.sol\":2664:2676  stakersArray */\n      0x05\n        /* \"OasisStaking.sol\":2664:2683  stakersArray.length */\n      sload\n        /* \"OasisStaking.sol\":2660:2683  i < stakersArray.length */\n      dup2\n      lt\n        /* \"OasisStaking.sol\":2644:2898  for (uint256 i; i < stakersArray.length; ++i) {... */\n      iszero\n      tag_162\n      jumpi\n        /* \"OasisStaking.sol\":2732:2742  msg.sender */\n      caller\n      sub(shl(0xa0, 0x01), 0x01)\n        /* \"OasisStaking.sol\":2713:2742  stakersArray[i] == msg.sender */\n      and\n        /* \"OasisStaking.sol\":2713:2725  stakersArray */\n      0x05\n        /* \"OasisStaking.sol\":2726:2727  i */\n      dup3\n        /* \"OasisStaking.sol\":2713:2728  stakersArray[i] */\n      dup2\n      sload\n      dup2\n      lt\n      tag_165\n      jumpi\n      tag_165\n      tag_85\n      jump\t// in\n    tag_165:\n      0x00\n      swap2\n      dup3\n      mstore\n      0x20\n      swap1\n      swap2\n      keccak256\n      add\n      sload\n      sub(shl(0xa0, 0x01), 0x01)\n      and\n        /* \"OasisStaking.sol\":2713:2742  stakersArray[i] == msg.sender */\n      sub\n        /* \"OasisStaking.sol\":2709:2883  if (stakersArray[i] == msg.sender) {... */\n      tag_167\n      jumpi\n        /* \"OasisStaking.sol\":2785:2797  stakersArray */\n      0x05\n        /* \"OasisStaking.sol\":2798:2817  stakersArray.length */\n      dup1\n      sload\n        /* \"OasisStaking.sol\":2798:2821  stakersArray.length - 1 */\n      tag_168\n      swap1\n        /* \"OasisStaking.sol\":2820:2821  1 */\n      0x01\n      swap1\n        /* \"OasisStaking.sol\":2798:2821  stakersArray.length - 1 */\n      tag_159\n      jump\t// in\n    tag_168:\n        /* \"OasisStaking.sol\":2785:2822  stakersArray[stakersArray.length - 1] */\n      dup2\n      sload\n      dup2\n      lt\n      tag_170\n      jumpi\n      tag_170\n      tag_85\n      jump\t// in\n    tag_170:\n      0x00\n      swap2\n      dup3\n      mstore\n      0x20\n      swap1\n      swap2\n      keccak256\n      add\n      sload\n        /* \"OasisStaking.sol\":2767:2779  stakersArray */\n      0x05\n        /* \"OasisStaking.sol\":2767:2782  stakersArray[i] */\n      dup1\n      sload\n      sub(shl(0xa0, 0x01), 0x01)\n        /* \"OasisStaking.sol\":2785:2822  stakersArray[stakersArray.length - 1] */\n      swap1\n      swap3\n      and\n      swap2\n        /* \"OasisStaking.sol\":2780:2781  i */\n      dup4\n      swap1\n        /* \"OasisStaking.sol\":2767:2782  stakersArray[i] */\n      dup2\n      lt\n      tag_173\n      jumpi\n      tag_173\n      tag_85\n      jump\t// in\n    tag_173:\n      swap1\n      0x00\n      mstore\n      keccak256(0x00, 0x20)\n      add\n      0x00\n        /* \"OasisStaking.sol\":2767:2822  stakersArray[i] = stakersArray[stakersArray.length - 1] */\n      0x0100\n      exp\n      dup2\n      sload\n      dup2\n      sub(shl(0xa0, 0x01), 0x01)\n      mul\n      not\n      and\n      swap1\n      dup4\n      sub(shl(0xa0, 0x01), 0x01)\n      and\n      mul\n      or\n      swap1\n      sstore\n      pop\n        /* \"OasisStaking.sol\":2845:2857  stakersArray */\n      0x05\n        /* \"OasisStaking.sol\":2845:2863  stakersArray.pop() */\n      dup1\n      sload\n      dup1\n      tag_176\n      jumpi\n      tag_176\n      tag_177\n      jump\t// in\n    tag_176:\n      0x00\n      dup3\n      dup2\n      mstore\n      0x20\n      swap1\n      keccak256\n      dup2\n      add\n      not(0x00)\n      swap1\n      dup2\n      add\n      dup1\n      sload\n      not(sub(shl(0xa0, 0x01), 0x01))\n      and\n      swap1\n      sstore\n      add\n      swap1\n      sstore\n        /* \"OasisStaking.sol\":2709:2883  if (stakersArray[i] == msg.sender) {... */\n    tag_167:\n        /* \"OasisStaking.sol\":2685:2688  ++i */\n      tag_179\n      dup2\n      tag_105\n      jump\t// in\n    tag_179:\n      swap1\n      pop\n        /* \"OasisStaking.sol\":2644:2898  for (uint256 i; i < stakersArray.length; ++i) {... */\n      jump(tag_161)\n    tag_162:\n      pop\n        /* \"OasisStaking.sol\":2586:2909  if (stakers[msg.sender].amountStaked == 0) {... */\n    tag_160:\n      pop\n      pop\n        /* \"@openzeppelin/contracts/security/ReentrancyGuard.sol\":1701:1702   */\n      0x01\n        /* \"@openzeppelin/contracts/security/ReentrancyGuard.sol\":2628:2650   */\n      dup1\n      sstore\n      pop\n      pop\n        /* \"OasisStaking.sol\":1895:2916  function withdraw(uint256[] calldata _tokenIds) external nonReentrant {... */\n      jump\t// out\n        /* \"OasisStaking.sol\":3361:3793  function setRewardsPerHour(uint256 _newValue) public onlyOwner {... */\n    tag_64:\n        /* \"@openzeppelin/contracts/access/Ownable.sol\":1094:1107   */\n      tag_181\n        /* \"@openzeppelin/contracts/access/Ownable.sol\":1094:1105   */\n      tag_129\n        /* \"@openzeppelin/contracts/access/Ownable.sol\":1094:1107   */\n      jump\t// in\n    tag_181:\n        /* \"OasisStaking.sol\":3435:3460  address[] memory _stakers */\n      0x00\n        /* \"OasisStaking.sol\":3463:3475  stakersArray */\n      0x05\n        /* \"OasisStaking.sol\":3435:3475  address[] memory _stakers = stakersArray */\n      dup1\n      sload\n      dup1\n      0x20\n      mul\n      0x20\n      add\n      mload(0x40)\n      swap1\n      dup2\n      add\n      0x40\n      mstore\n      dup1\n      swap3\n      swap2\n      swap1\n      dup2\n      dup2\n      mstore\n      0x20\n      add\n      dup3\n      dup1\n      sload\n      dup1\n      iszero\n      tag_183\n      jumpi\n      0x20\n      mul\n      dup3\n      add\n      swap2\n      swap1\n      0x00\n      mstore\n      keccak256(0x00, 0x20)\n      swap1\n    tag_184:\n      dup2\n      sload\n      sub(shl(0xa0, 0x01), 0x01)\n      and\n      dup2\n      mstore\n      0x01\n      swap1\n      swap2\n      add\n      swap1\n      0x20\n      add\n      dup1\n      dup4\n      gt\n      tag_184\n      jumpi\n    tag_183:\n      pop\n      pop\n        /* \"OasisStaking.sol\":3500:3515  _stakers.length */\n      dup4\n      mload\n        /* \"OasisStaking.sol\":3435:3475  address[] memory _stakers = stakersArray */\n      swap4\n      swap5\n      pop\n        /* \"OasisStaking.sol\":3486:3497  uint256 len */\n      0x00\n      swap3\n      pop\n      pop\n      pop\n        /* \"OasisStaking.sol\":3526:3749  for (uint256 i; i < len; ++i) {... */\n    tag_185:\n        /* \"OasisStaking.sol\":3546:3549  len */\n      dup2\n        /* \"OasisStaking.sol\":3542:3543  i */\n      dup2\n        /* \"OasisStaking.sol\":3542:3549  i < len */\n      lt\n        /* \"OasisStaking.sol\":3526:3749  for (uint256 i; i < len; ++i) {... */\n      iszero\n      tag_186\n      jumpi\n        /* \"OasisStaking.sol\":3571:3583  address user */\n      0x00\n        /* \"OasisStaking.sol\":3586:3594  _stakers */\n      dup4\n        /* \"OasisStaking.sol\":3595:3596  i */\n      dup3\n        /* \"OasisStaking.sol\":3586:3597  _stakers[i] */\n      dup2\n      mload\n      dup2\n      lt\n      tag_189\n      jumpi\n      tag_189\n      tag_85\n      jump\t// in\n    tag_189:\n      0x20\n      mul\n      0x20\n      add\n      add\n      mload\n        /* \"OasisStaking.sol\":3571:3597  address user = _stakers[i] */\n      swap1\n      pop\n        /* \"OasisStaking.sol\":3646:3668  calculateRewards(user) */\n      tag_190\n        /* \"OasisStaking.sol\":3663:3667  user */\n      dup2\n        /* \"OasisStaking.sol\":3646:3662  calculateRewards */\n      tag_75\n        /* \"OasisStaking.sol\":3646:3668  calculateRewards(user) */\n      jump\t// in\n    tag_190:\n      sub(shl(0xa0, 0x01), 0x01)\n        /* \"OasisStaking.sol\":3612:3625  stakers[user] */\n      dup3\n      and\n      0x00\n      swap1\n      dup2\n      mstore\n        /* \"OasisStaking.sol\":3612:3619  stakers */\n      0x03\n        /* \"OasisStaking.sol\":3612:3625  stakers[user] */\n      0x20\n      mstore\n      0x40\n      dup2\n      keccak256\n        /* \"OasisStaking.sol\":3612:3642  stakers[user].unclaimedRewards */\n      0x02\n      add\n        /* \"OasisStaking.sol\":3612:3668  stakers[user].unclaimedRewards += calculateRewards(user) */\n      dup1\n      sload\n        /* \"OasisStaking.sol\":3612:3642  stakers[user].unclaimedRewards */\n      swap1\n      swap2\n        /* \"OasisStaking.sol\":3612:3625  stakers[user] */\n      swap1\n        /* \"OasisStaking.sol\":3612:3668  stakers[user].unclaimedRewards += calculateRewards(user) */\n      tag_191\n      swap1\n      dup5\n      swap1\n      tag_77\n      jump\t// in\n    tag_191:\n      swap1\n      swap2\n      sstore\n      pop\n      pop\n        /* \"OasisStaking.sol\":3691:3701  msg.sender */\n      caller\n        /* \"OasisStaking.sol\":3683:3702  stakers[msg.sender] */\n      0x00\n      swap1\n      dup2\n      mstore\n        /* \"OasisStaking.sol\":3683:3690  stakers */\n      0x03\n        /* \"OasisStaking.sol\":3683:3702  stakers[msg.sender] */\n      0x20\n      mstore\n      0x40\n      swap1\n      keccak256\n        /* \"OasisStaking.sol\":3722:3737  block.timestamp */\n      timestamp\n        /* \"OasisStaking.sol\":3683:3719  stakers[msg.sender].timeOfLastUpdate */\n      0x01\n      swap1\n      swap2\n      add\n        /* \"OasisStaking.sol\":3683:3737  stakers[msg.sender].timeOfLastUpdate = block.timestamp */\n      sstore\n      pop\n        /* \"OasisStaking.sol\":3551:3554  ++i */\n      tag_192\n      dup2\n      tag_105\n      jump\t// in\n    tag_192:\n      swap1\n      pop\n        /* \"OasisStaking.sol\":3526:3749  for (uint256 i; i < len; ++i) {... */\n      jump(tag_185)\n    tag_186:\n      pop\n      pop\n      pop\n        /* \"OasisStaking.sol\":3759:3773  rewardsPerHour */\n      0x02\n        /* \"OasisStaking.sol\":3759:3785  rewardsPerHour = _newValue */\n      sstore\n        /* \"OasisStaking.sol\":3361:3793  function setRewardsPerHour(uint256 _newValue) public onlyOwner {... */\n      jump\t// out\n        /* \"@openzeppelin/contracts/access/Ownable.sol\":2081:2279   */\n    tag_67:\n        /* \"@openzeppelin/contracts/access/Ownable.sol\":1094:1107   */\n      tag_194\n        /* \"@openzeppelin/contracts/access/Ownable.sol\":1094:1105   */\n      tag_129\n        /* \"@openzeppelin/contracts/access/Ownable.sol\":1094:1107   */\n      jump\t// in\n    tag_194:\n      sub(shl(0xa0, 0x01), 0x01)\n        /* \"@openzeppelin/contracts/access/Ownable.sol\":2169:2191   */\n      dup2\n      and\n        /* \"@openzeppelin/contracts/access/Ownable.sol\":2161:2234   */\n      tag_196\n      jumpi\n      mload(0x40)\n      shl(0xe5, 0x461bcd)\n      dup2\n      mstore\n        /* \"#utility.yul\":6773:6775   */\n      0x20\n        /* \"@openzeppelin/contracts/access/Ownable.sol\":2161:2234   */\n      0x04\n      dup3\n      add\n        /* \"#utility.yul\":6755:6776   */\n      mstore\n        /* \"#utility.yul\":6812:6814   */\n      0x26\n        /* \"#utility.yul\":6792:6810   */\n      0x24\n      dup3\n      add\n        /* \"#utility.yul\":6785:6815   */\n      mstore\n        /* \"#utility.yul\":6851:6885   */\n      0x4f776e61626c653a206e6577206f776e657220697320746865207a65726f2061\n        /* \"#utility.yul\":6831:6849   */\n      0x44\n      dup3\n      add\n        /* \"#utility.yul\":6824:6886   */\n      mstore\n        /* \"#utility.yul\":6922:6930   */\n      0x6464726573730000000000000000000000000000000000000000000000000000\n        /* \"#utility.yul\":6902:6920   */\n      0x64\n      dup3\n      add\n        /* \"#utility.yul\":6895:6931   */\n      mstore\n        /* \"#utility.yul\":6948:6967   */\n      0x84\n      add\n        /* \"@openzeppelin/contracts/access/Ownable.sol\":2161:2234   */\n      tag_70\n        /* \"#utility.yul\":6571:6973   */\n      jump\n        /* \"@openzeppelin/contracts/access/Ownable.sol\":2161:2234   */\n    tag_196:\n        /* \"@openzeppelin/contracts/access/Ownable.sol\":2244:2272   */\n      tag_119\n        /* \"@openzeppelin/contracts/access/Ownable.sol\":2263:2271   */\n      dup2\n        /* \"@openzeppelin/contracts/access/Ownable.sol\":2244:2262   */\n      tag_132\n        /* \"@openzeppelin/contracts/access/Ownable.sol\":2244:2272   */\n      jump\t// in\n        /* \"OasisStaking.sol\":4377:4634  function calculateRewards(address _staker) internal view returns (uint256 _rewards) {... */\n    tag_75:\n      sub(shl(0xa0, 0x01), 0x01)\n        /* \"OasisStaking.sol\":4495:4511  stakers[_staker] */\n      dup2\n      and\n        /* \"OasisStaking.sol\":4443:4459  uint256 _rewards */\n      0x00\n        /* \"OasisStaking.sol\":4495:4511  stakers[_staker] */\n      swap1\n      dup2\n      mstore\n        /* \"OasisStaking.sol\":4495:4502  stakers */\n      0x03\n        /* \"OasisStaking.sol\":4495:4511  stakers[_staker] */\n      0x20\n      swap1\n      dup2\n      mstore\n      0x40\n      dup1\n      dup4\n      keccak256\n        /* \"OasisStaking.sol\":4472:4511  Staker memory staker = stakers[_staker] */\n      dup2\n      mload\n      0x60\n      dup2\n      add\n      dup4\n      mstore\n      dup2\n      sload\n      dup1\n      dup3\n      mstore\n      0x01\n      dup4\n      add\n      sload\n      swap5\n      dup3\n      add\n      dup6\n      swap1\n      mstore\n      0x02\n      swap3\n      dup4\n      add\n      sload\n      swap4\n      dup3\n      add\n      swap4\n      swap1\n      swap4\n      mstore\n        /* \"OasisStaking.sol\":4603:4617  rewardsPerHour */\n      swap1\n      sload\n        /* \"OasisStaking.sol\":4472:4511  Staker memory staker = stakers[_staker] */\n      swap1\n      swap3\n        /* \"OasisStaking.sol\":4621:4625  3600 */\n      0x0e10\n      swap3\n        /* \"OasisStaking.sol\":4472:4511  Staker memory staker = stakers[_staker] */\n      swap1\n        /* \"OasisStaking.sol\":4534:4575  block.timestamp - staker.timeOfLastUpdate */\n      tag_201\n      swap1\n        /* \"OasisStaking.sol\":4534:4549  block.timestamp */\n      timestamp\n        /* \"OasisStaking.sol\":4534:4575  block.timestamp - staker.timeOfLastUpdate */\n      tag_159\n      jump\t// in\n    tag_201:\n        /* \"OasisStaking.sol\":4533:4598  (block.timestamp - staker.timeOfLastUpdate) * staker.amountStaked */\n      tag_202\n      swap2\n      swap1\n      tag_203\n      jump\t// in\n    tag_202:\n        /* \"OasisStaking.sol\":4531:4617  (((block.timestamp - staker.timeOfLastUpdate) * staker.amountStaked)) * rewardsPerHour */\n      tag_204\n      swap2\n      swap1\n      tag_203\n      jump\t// in\n    tag_204:\n        /* \"OasisStaking.sol\":4530:4625  ((((block.timestamp - staker.timeOfLastUpdate) * staker.amountStaked)) * rewardsPerHour) / 3600 */\n      tag_205\n      swap2\n      swap1\n      tag_206\n      jump\t// in\n    tag_205:\n        /* \"OasisStaking.sol\":4522:4626  return (((((block.timestamp - staker.timeOfLastUpdate) * staker.amountStaked)) * rewardsPerHour) / 3600) */\n      swap4\n        /* \"OasisStaking.sol\":4377:4634  function calculateRewards(address _staker) internal view returns (uint256 _rewards) {... */\n      swap3\n      pop\n      pop\n      pop\n      jump\t// out\n        /* \"OasisStaking.sol\":4028:4335  function availableRewards(address _user) internal view returns (uint256) {... */\n    tag_124:\n      sub(shl(0xa0, 0x01), 0x01)\n        /* \"OasisStaking.sol\":4116:4130  stakers[_user] */\n      dup2\n      and\n        /* \"OasisStaking.sol\":4092:4099  uint256 */\n      0x00\n        /* \"OasisStaking.sol\":4116:4130  stakers[_user] */\n      swap1\n      dup2\n      mstore\n        /* \"OasisStaking.sol\":4116:4123  stakers */\n      0x03\n        /* \"OasisStaking.sol\":4116:4130  stakers[_user] */\n      0x20\n      mstore\n      0x40\n      dup2\n      keccak256\n        /* \"OasisStaking.sol\":4116:4143  stakers[_user].amountStaked */\n      sload\n        /* \"OasisStaking.sol\":4116:4148  stakers[_user].amountStaked == 0 */\n      dup2\n      sub\n        /* \"OasisStaking.sol\":4112:4215  if (stakers[_user].amountStaked == 0) {... */\n      tag_208\n      jumpi\n      pop\n      sub(shl(0xa0, 0x01), 0x01)\n        /* \"OasisStaking.sol\":4172:4186  stakers[_user] */\n      and\n      0x00\n      swap1\n      dup2\n      mstore\n        /* \"OasisStaking.sol\":4172:4179  stakers */\n      0x03\n        /* \"OasisStaking.sol\":4172:4186  stakers[_user] */\n      0x20\n      mstore\n      0x40\n      swap1\n      keccak256\n        /* \"OasisStaking.sol\":4172:4203  stakers[_user].unclaimedRewards */\n      0x02\n      add\n      sload\n      swap1\n        /* \"OasisStaking.sol\":4028:4335  function availableRewards(address _user) internal view returns (uint256) {... */\n      jump\t// out\n        /* \"OasisStaking.sol\":4112:4215  if (stakers[_user].amountStaked == 0) {... */\n    tag_208:\n        /* \"OasisStaking.sol\":4225:4241  uint256 _rewards */\n      0x00\n        /* \"OasisStaking.sol\":4278:4301  calculateRewards(_user) */\n      tag_209\n        /* \"OasisStaking.sol\":4295:4300  _user */\n      dup4\n        /* \"OasisStaking.sol\":4278:4294  calculateRewards */\n      tag_75\n        /* \"OasisStaking.sol\":4278:4301  calculateRewards(_user) */\n      jump\t// in\n    tag_209:\n      sub(shl(0xa0, 0x01), 0x01)\n        /* \"OasisStaking.sol\":4244:4258  stakers[_user] */\n      dup5\n      and\n      0x00\n      swap1\n      dup2\n      mstore\n        /* \"OasisStaking.sol\":4244:4251  stakers */\n      0x03\n        /* \"OasisStaking.sol\":4244:4258  stakers[_user] */\n      0x20\n      mstore\n      0x40\n      swap1\n      keccak256\n        /* \"OasisStaking.sol\":4244:4275  stakers[_user].unclaimedRewards */\n      0x02\n      add\n      sload\n        /* \"OasisStaking.sol\":4244:4301  stakers[_user].unclaimedRewards + calculateRewards(_user) */\n      tag_205\n      swap2\n      swap1\n      tag_77\n      jump\t// in\n        /* \"@openzeppelin/contracts/access/Ownable.sol\":1359:1489   */\n    tag_129:\n        /* \"@openzeppelin/contracts/access/Ownable.sol\":1247:1254   */\n      0x00\n        /* \"@openzeppelin/contracts/access/Ownable.sol\":1273:1279   */\n      sload\n      sub(shl(0xa0, 0x01), 0x01)\n      and\n        /* \"@openzeppelin/contracts/utils/Context.sol\":719:729   */\n      caller\n        /* \"@openzeppelin/contracts/access/Ownable.sol\":1422:1445   */\n      eq\n        /* \"@openzeppelin/contracts/access/Ownable.sol\":1414:1482   */\n      tag_131\n      jumpi\n      mload(0x40)\n      shl(0xe5, 0x461bcd)\n      dup2\n      mstore\n        /* \"#utility.yul\":7575:7577   */\n      0x20\n        /* \"@openzeppelin/contracts/access/Ownable.sol\":1414:1482   */\n      0x04\n      dup3\n      add\n        /* \"#utility.yul\":7557:7578   */\n      dup2\n      swap1\n      mstore\n        /* \"#utility.yul\":7594:7612   */\n      0x24\n      dup3\n      add\n        /* \"#utility.yul\":7587:7617   */\n      mstore\n        /* \"#utility.yul\":7653:7687   */\n      0x4f776e61626c653a2063616c6c6572206973206e6f7420746865206f776e6572\n        /* \"#utility.yul\":7633:7651   */\n      0x44\n      dup3\n      add\n        /* \"#utility.yul\":7626:7688   */\n      mstore\n        /* \"#utility.yul\":7705:7723   */\n      0x64\n      add\n        /* \"@openzeppelin/contracts/access/Ownable.sol\":1414:1482   */\n      tag_70\n        /* \"#utility.yul\":7373:7729   */\n      jump\n        /* \"@openzeppelin/contracts/access/Ownable.sol\":2433:2620   */\n    tag_132:\n        /* \"@openzeppelin/contracts/access/Ownable.sol\":2506:2522   */\n      0x00\n        /* \"@openzeppelin/contracts/access/Ownable.sol\":2525:2531   */\n      dup1\n      sload\n      sub(shl(0xa0, 0x01), 0x01)\n        /* \"@openzeppelin/contracts/access/Ownable.sol\":2541:2558   */\n      dup4\n      dup2\n      and\n      not(sub(shl(0xa0, 0x01), 0x01))\n      dup4\n      and\n      dup2\n      or\n      dup5\n      sstore\n        /* \"@openzeppelin/contracts/access/Ownable.sol\":2573:2613   */\n      mload(0x40)\n        /* \"@openzeppelin/contracts/access/Ownable.sol\":2525:2531   */\n      swap2\n      swap1\n      swap3\n      and\n      swap3\n      dup4\n      swap2\n        /* \"@openzeppelin/contracts/access/Ownable.sol\":2573:2613   */\n      0x8be0079c531659141344cd1fd0a4f28419497f9722a3daafe3b4186f6b6457e0\n      swap2\n        /* \"@openzeppelin/contracts/access/Ownable.sol\":2506:2522   */\n      swap1\n        /* \"@openzeppelin/contracts/access/Ownable.sol\":2573:2613   */\n      log3\n        /* \"@openzeppelin/contracts/access/Ownable.sol\":2496:2620   */\n      pop\n        /* \"@openzeppelin/contracts/access/Ownable.sol\":2433:2620   */\n      pop\n      jump\t// out\n        /* \"#utility.yul\":14:629   */\n    tag_21:\n        /* \"#utility.yul\":100:106   */\n      0x00\n        /* \"#utility.yul\":108:114   */\n      dup1\n        /* \"#utility.yul\":161:163   */\n      0x20\n        /* \"#utility.yul\":149:158   */\n      dup4\n        /* \"#utility.yul\":140:147   */\n      dup6\n        /* \"#utility.yul\":136:159   */\n      sub\n        /* \"#utility.yul\":132:164   */\n      slt\n        /* \"#utility.yul\":129:181   */\n      iszero\n      tag_224\n      jumpi\n        /* \"#utility.yul\":177:178   */\n      0x00\n        /* \"#utility.yul\":174:175   */\n      dup1\n        /* \"#utility.yul\":167:179   */\n      revert\n        /* \"#utility.yul\":129:181   */\n    tag_224:\n        /* \"#utility.yul\":217:226   */\n      dup3\n        /* \"#utility.yul\":204:227   */\n      calldataload\n        /* \"#utility.yul\":246:264   */\n      0xffffffffffffffff\n        /* \"#utility.yul\":287:289   */\n      dup1\n        /* \"#utility.yul\":279:285   */\n      dup3\n        /* \"#utility.yul\":276:290   */\n      gt\n        /* \"#utility.yul\":273:307   */\n      iszero\n      tag_225\n      jumpi\n        /* \"#utility.yul\":303:304   */\n      0x00\n        /* \"#utility.yul\":300:301   */\n      dup1\n        /* \"#utility.yul\":293:305   */\n      revert\n        /* \"#utility.yul\":273:307   */\n    tag_225:\n        /* \"#utility.yul\":341:347   */\n      dup2\n        /* \"#utility.yul\":330:339   */\n      dup6\n        /* \"#utility.yul\":326:348   */\n      add\n        /* \"#utility.yul\":316:348   */\n      swap2\n      pop\n        /* \"#utility.yul\":386:393   */\n      dup6\n        /* \"#utility.yul\":379:383   */\n      0x1f\n        /* \"#utility.yul\":375:377   */\n      dup4\n        /* \"#utility.yul\":371:384   */\n      add\n        /* \"#utility.yul\":367:394   */\n      slt\n        /* \"#utility.yul\":357:412   */\n      tag_226\n      jumpi\n        /* \"#utility.yul\":408:409   */\n      0x00\n        /* \"#utility.yul\":405:406   */\n      dup1\n        /* \"#utility.yul\":398:410   */\n      revert\n        /* \"#utility.yul\":357:412   */\n    tag_226:\n        /* \"#utility.yul\":448:450   */\n      dup2\n        /* \"#utility.yul\":435:451   */\n      calldataload\n        /* \"#utility.yul\":474:476   */\n      dup2\n        /* \"#utility.yul\":466:472   */\n      dup2\n        /* \"#utility.yul\":463:477   */\n      gt\n        /* \"#utility.yul\":460:494   */\n      iszero\n      tag_227\n      jumpi\n        /* \"#utility.yul\":490:491   */\n      0x00\n        /* \"#utility.yul\":487:488   */\n      dup1\n        /* \"#utility.yul\":480:492   */\n      revert\n        /* \"#utility.yul\":460:494   */\n    tag_227:\n        /* \"#utility.yul\":543:550   */\n      dup7\n        /* \"#utility.yul\":538:540   */\n      0x20\n        /* \"#utility.yul\":528:534   */\n      dup3\n        /* \"#utility.yul\":525:526   */\n      0x05\n        /* \"#utility.yul\":521:535   */\n      shl\n        /* \"#utility.yul\":517:519   */\n      dup6\n        /* \"#utility.yul\":513:536   */\n      add\n        /* \"#utility.yul\":509:541   */\n      add\n        /* \"#utility.yul\":506:551   */\n      gt\n        /* \"#utility.yul\":503:568   */\n      iszero\n      tag_228\n      jumpi\n        /* \"#utility.yul\":564:565   */\n      0x00\n        /* \"#utility.yul\":561:562   */\n      dup1\n        /* \"#utility.yul\":554:566   */\n      revert\n        /* \"#utility.yul\":503:568   */\n    tag_228:\n        /* \"#utility.yul\":595:597   */\n      0x20\n        /* \"#utility.yul\":587:598   */\n      swap3\n      swap1\n      swap3\n      add\n      swap7\n        /* \"#utility.yul\":617:623   */\n      swap2\n      swap6\n      pop\n        /* \"#utility.yul\":14:629   */\n      swap1\n      swap4\n      pop\n      pop\n      pop\n      pop\n      jump\t// out\n        /* \"#utility.yul\":634:788   */\n    tag_220:\n      sub(shl(0xa0, 0x01), 0x01)\n        /* \"#utility.yul\":713:718   */\n      dup2\n        /* \"#utility.yul\":709:763   */\n      and\n        /* \"#utility.yul\":702:707   */\n      dup2\n        /* \"#utility.yul\":699:764   */\n      eq\n        /* \"#utility.yul\":689:782   */\n      tag_119\n      jumpi\n        /* \"#utility.yul\":778:779   */\n      0x00\n        /* \"#utility.yul\":775:776   */\n      dup1\n        /* \"#utility.yul\":768:780   */\n      revert\n        /* \"#utility.yul\":793:1040   */\n    tag_27:\n        /* \"#utility.yul\":852:858   */\n      0x00\n        /* \"#utility.yul\":905:907   */\n      0x20\n        /* \"#utility.yul\":893:902   */\n      dup3\n        /* \"#utility.yul\":884:891   */\n      dup5\n        /* \"#utility.yul\":880:903   */\n      sub\n        /* \"#utility.yul\":876:908   */\n      slt\n        /* \"#utility.yul\":873:925   */\n      iszero\n      tag_232\n      jumpi\n        /* \"#utility.yul\":921:922   */\n      0x00\n        /* \"#utility.yul\":918:919   */\n      dup1\n        /* \"#utility.yul\":911:923   */\n      revert\n        /* \"#utility.yul\":873:925   */\n    tag_232:\n        /* \"#utility.yul\":960:969   */\n      dup2\n        /* \"#utility.yul\":947:970   */\n      calldataload\n        /* \"#utility.yul\":979:1010   */\n      tag_205\n        /* \"#utility.yul\":1004:1009   */\n      dup2\n        /* \"#utility.yul\":979:1010   */\n      tag_220\n      jump\t// in\n        /* \"#utility.yul\":1298:1478   */\n    tag_33:\n        /* \"#utility.yul\":1357:1363   */\n      0x00\n        /* \"#utility.yul\":1410:1412   */\n      0x20\n        /* \"#utility.yul\":1398:1407   */\n      dup3\n        /* \"#utility.yul\":1389:1396   */\n      dup5\n        /* \"#utility.yul\":1385:1408   */\n      sub\n        /* \"#utility.yul\":1381:1413   */\n      slt\n        /* \"#utility.yul\":1378:1430   */\n      iszero\n      tag_236\n      jumpi\n        /* \"#utility.yul\":1426:1427   */\n      0x00\n        /* \"#utility.yul\":1423:1424   */\n      dup1\n        /* \"#utility.yul\":1416:1428   */\n      revert\n        /* \"#utility.yul\":1378:1430   */\n    tag_236:\n      pop\n        /* \"#utility.yul\":1449:1472   */\n      calldataload\n      swap2\n        /* \"#utility.yul\":1298:1478   */\n      swap1\n      pop\n      jump\t// out\n        /* \"#utility.yul\":2891:3018   */\n    tag_221:\n        /* \"#utility.yul\":2952:2962   */\n      0x4e487b71\n        /* \"#utility.yul\":2947:2950   */\n      0xe0\n        /* \"#utility.yul\":2943:2963   */\n      shl\n        /* \"#utility.yul\":2940:2941   */\n      0x00\n        /* \"#utility.yul\":2933:2964   */\n      mstore\n        /* \"#utility.yul\":2983:2987   */\n      0x11\n        /* \"#utility.yul\":2980:2981   */\n      0x04\n        /* \"#utility.yul\":2973:2988   */\n      mstore\n        /* \"#utility.yul\":3007:3011   */\n      0x24\n        /* \"#utility.yul\":3004:3005   */\n      0x00\n        /* \"#utility.yul\":2997:3012   */\n      revert\n        /* \"#utility.yul\":3023:3151   */\n    tag_77:\n        /* \"#utility.yul\":3063:3066   */\n      0x00\n        /* \"#utility.yul\":3094:3095   */\n      dup3\n        /* \"#utility.yul\":3090:3096   */\n      not\n        /* \"#utility.yul\":3087:3088   */\n      dup3\n        /* \"#utility.yul\":3084:3097   */\n      gt\n        /* \"#utility.yul\":3081:3120   */\n      iszero\n      tag_245\n      jumpi\n        /* \"#utility.yul\":3100:3118   */\n      tag_245\n      tag_221\n      jump\t// in\n    tag_245:\n      pop\n        /* \"#utility.yul\":3136:3145   */\n      add\n      swap1\n        /* \"#utility.yul\":3023:3151   */\n      jump\t// out\n        /* \"#utility.yul\":3156:3283   */\n    tag_85:\n        /* \"#utility.yul\":3217:3227   */\n      0x4e487b71\n        /* \"#utility.yul\":3212:3215   */\n      0xe0\n        /* \"#utility.yul\":3208:3228   */\n      shl\n        /* \"#utility.yul\":3205:3206   */\n      0x00\n        /* \"#utility.yul\":3198:3229   */\n      mstore\n        /* \"#utility.yul\":3248:3252   */\n      0x32\n        /* \"#utility.yul\":3245:3246   */\n      0x04\n        /* \"#utility.yul\":3238:3253   */\n      mstore\n        /* \"#utility.yul\":3272:3276   */\n      0x24\n        /* \"#utility.yul\":3269:3270   */\n      0x00\n        /* \"#utility.yul\":3262:3277   */\n      revert\n        /* \"#utility.yul\":3470:3721   */\n    tag_91:\n        /* \"#utility.yul\":3540:3546   */\n      0x00\n        /* \"#utility.yul\":3593:3595   */\n      0x20\n        /* \"#utility.yul\":3581:3590   */\n      dup3\n        /* \"#utility.yul\":3572:3579   */\n      dup5\n        /* \"#utility.yul\":3568:3591   */\n      sub\n        /* \"#utility.yul\":3564:3596   */\n      slt\n        /* \"#utility.yul\":3561:3613   */\n      iszero\n      tag_249\n      jumpi\n        /* \"#utility.yul\":3609:3610   */\n      0x00\n        /* \"#utility.yul\":3606:3607   */\n      dup1\n        /* \"#utility.yul\":3599:3611   */\n      revert\n        /* \"#utility.yul\":3561:3613   */\n    tag_249:\n        /* \"#utility.yul\":3641:3650   */\n      dup2\n        /* \"#utility.yul\":3635:3651   */\n      mload\n        /* \"#utility.yul\":3660:3691   */\n      tag_205\n        /* \"#utility.yul\":3685:3690   */\n      dup2\n        /* \"#utility.yul\":3660:3691   */\n      tag_220\n      jump\t// in\n        /* \"#utility.yul\":4531:4666   */\n    tag_105:\n        /* \"#utility.yul\":4570:4573   */\n      0x00\n        /* \"#utility.yul\":4591:4608   */\n      0x01\n      dup3\n      add\n        /* \"#utility.yul\":4588:4631   */\n      tag_255\n      jumpi\n        /* \"#utility.yul\":4611:4629   */\n      tag_255\n      tag_221\n      jump\t// in\n    tag_255:\n      pop\n        /* \"#utility.yul\":4658:4659   */\n      0x01\n        /* \"#utility.yul\":4647:4660   */\n      add\n      swap1\n        /* \"#utility.yul\":4531:4666   */\n      jump\t// out\n        /* \"#utility.yul\":5330:5607   */\n    tag_118:\n        /* \"#utility.yul\":5397:5403   */\n      0x00\n        /* \"#utility.yul\":5450:5452   */\n      0x20\n        /* \"#utility.yul\":5438:5447   */\n      dup3\n        /* \"#utility.yul\":5429:5436   */\n      dup5\n        /* \"#utility.yul\":5425:5448   */\n      sub\n        /* \"#utility.yul\":5421:5453   */\n      slt\n        /* \"#utility.yul\":5418:5470   */\n      iszero\n      tag_259\n      jumpi\n        /* \"#utility.yul\":5466:5467   */\n      0x00\n        /* \"#utility.yul\":5463:5464   */\n      dup1\n        /* \"#utility.yul\":5456:5468   */\n      revert\n        /* \"#utility.yul\":5418:5470   */\n    tag_259:\n        /* \"#utility.yul\":5498:5507   */\n      dup2\n        /* \"#utility.yul\":5492:5508   */\n      mload\n        /* \"#utility.yul\":5551:5556   */\n      dup1\n        /* \"#utility.yul\":5544:5557   */\n      iszero\n        /* \"#utility.yul\":5537:5558   */\n      iszero\n        /* \"#utility.yul\":5530:5535   */\n      dup2\n        /* \"#utility.yul\":5527:5559   */\n      eq\n        /* \"#utility.yul\":5517:5577   */\n      tag_205\n      jumpi\n        /* \"#utility.yul\":5573:5574   */\n      0x00\n        /* \"#utility.yul\":5570:5571   */\n      dup1\n        /* \"#utility.yul\":5563:5575   */\n      revert\n        /* \"#utility.yul\":6309:6434   */\n    tag_159:\n        /* \"#utility.yul\":6349:6353   */\n      0x00\n        /* \"#utility.yul\":6377:6378   */\n      dup3\n        /* \"#utility.yul\":6374:6375   */\n      dup3\n        /* \"#utility.yul\":6371:6379   */\n      lt\n        /* \"#utility.yul\":6368:6402   */\n      iszero\n      tag_265\n      jumpi\n        /* \"#utility.yul\":6382:6400   */\n      tag_265\n      tag_221\n      jump\t// in\n    tag_265:\n      pop\n        /* \"#utility.yul\":6419:6428   */\n      sub\n      swap1\n        /* \"#utility.yul\":6309:6434   */\n      jump\t// out\n        /* \"#utility.yul\":6439:6566   */\n    tag_177:\n        /* \"#utility.yul\":6500:6510   */\n      0x4e487b71\n        /* \"#utility.yul\":6495:6498   */\n      0xe0\n        /* \"#utility.yul\":6491:6511   */\n      shl\n        /* \"#utility.yul\":6488:6489   */\n      0x00\n        /* \"#utility.yul\":6481:6512   */\n      mstore\n        /* \"#utility.yul\":6531:6535   */\n      0x31\n        /* \"#utility.yul\":6528:6529   */\n      0x04\n        /* \"#utility.yul\":6521:6536   */\n      mstore\n        /* \"#utility.yul\":6555:6559   */\n      0x24\n        /* \"#utility.yul\":6552:6553   */\n      0x00\n        /* \"#utility.yul\":6545:6560   */\n      revert\n        /* \"#utility.yul\":6978:7146   */\n    tag_203:\n        /* \"#utility.yul\":7018:7025   */\n      0x00\n        /* \"#utility.yul\":7084:7085   */\n      dup2\n        /* \"#utility.yul\":7080:7081   */\n      0x00\n        /* \"#utility.yul\":7076:7082   */\n      not\n        /* \"#utility.yul\":7072:7086   */\n      div\n        /* \"#utility.yul\":7069:7070   */\n      dup4\n        /* \"#utility.yul\":7066:7087   */\n      gt\n        /* \"#utility.yul\":7061:7062   */\n      dup3\n        /* \"#utility.yul\":7054:7063   */\n      iszero\n        /* \"#utility.yul\":7047:7064   */\n      iszero\n        /* \"#utility.yul\":7043:7088   */\n      and\n        /* \"#utility.yul\":7040:7111   */\n      iszero\n      tag_270\n      jumpi\n        /* \"#utility.yul\":7091:7109   */\n      tag_270\n      tag_221\n      jump\t// in\n    tag_270:\n      pop\n        /* \"#utility.yul\":7131:7140   */\n      mul\n      swap1\n        /* \"#utility.yul\":6978:7146   */\n      jump\t// out\n        /* \"#utility.yul\":7151:7368   */\n    tag_206:\n        /* \"#utility.yul\":7191:7192   */\n      0x00\n        /* \"#utility.yul\":7217:7218   */\n      dup3\n        /* \"#utility.yul\":7207:7339   */\n      tag_272\n      jumpi\n        /* \"#utility.yul\":7261:7271   */\n      0x4e487b71\n        /* \"#utility.yul\":7256:7259   */\n      0xe0\n        /* \"#utility.yul\":7252:7272   */\n      shl\n        /* \"#utility.yul\":7249:7250   */\n      0x00\n        /* \"#utility.yul\":7242:7273   */\n      mstore\n        /* \"#utility.yul\":7296:7300   */\n      0x12\n        /* \"#utility.yul\":7293:7294   */\n      0x04\n        /* \"#utility.yul\":7286:7301   */\n      mstore\n        /* \"#utility.yul\":7324:7328   */\n      0x24\n        /* \"#utility.yul\":7321:7322   */\n      0x00\n        /* \"#utility.yul\":7314:7329   */\n      revert\n        /* \"#utility.yul\":7207:7339   */\n    tag_272:\n      pop\n        /* \"#utility.yul\":7353:7362   */\n      div\n      swap1\n        /* \"#utility.yul\":7151:7368   */\n      jump\t// out\n\n    auxdata: 0xa26469706673582212207877dcd4037c10af73f47b5172a70a118deb91b4ff8f26b96b5425ec430607ea64736f6c634300080d0033\n}\n",
    "bytecode": {
      "linkReferences": {},
      "object": "60c060405268056bc75e2d6310000060025534801561001d57600080fd5b506040516111c63803806111c683398101604081905261003c916100c8565b61004533610060565b600180556001600160a01b0391821660a05216608052610102565b600080546001600160a01b038381166001600160a01b0319831681178455604051919092169283917f8be0079c531659141344cd1fd0a4f28419497f9722a3daafe3b4186f6b6457e09190a35050565b6001600160a01b03811681146100c557600080fd5b50565b600080604083850312156100db57600080fd5b82516100e6816100b0565b60208401519092506100f7816100b0565b809150509250929050565b60805160a051611083610143600039600081816101660152818161036d015281816104740152610949015260008181610224015261069a01526110836000f3fe608060405234801561001057600080fd5b50600436106100df5760003560e01c80638da5cb5b1161008c578063983d95ce11610066578063983d95ce1461020c578063a24c4e6b1461021f578063b5a5e50914610246578063f2fde38b1461025957600080fd5b80638da5cb5b146101885780639168ae721461019957806394067045146101e357600080fd5b80635357e916116100bd5780635357e9161461012e578063715018a61461015957806381c33b931461016157600080fd5b80630fbf0a93146100e4578063372500ab146100f95780634ead432714610101575b600080fd5b6100f76100f2366004610e83565b61026c565b005b6100f76105df565b61011461010f366004610f0d565b610756565b604080519283526020830191909152015b60405180910390f35b61014161013c366004610f2a565b610783565b6040516001600160a01b039091168152602001610125565b6100f76107ad565b6101417f000000000000000000000000000000000000000000000000000000000000000081565b6000546001600160a01b0316610141565b6101c86101a7366004610f0d565b60036020526000908152604090208054600182015460029092015490919083565b60408051938452602084019290925290820152606001610125565b6101416101f1366004610f2a565b6004602052600090815260409020546001600160a01b031681565b6100f761021a366004610e83565b6107c1565b6101417f000000000000000000000000000000000000000000000000000000000000000081565b6100f7610254366004610f2a565b610b69565b6100f7610267366004610f0d565b610c65565b6002600154036102c35760405162461bcd60e51b815260206004820152601f60248201527f5265656e7472616e637947756172643a207265656e7472616e742063616c6c0060448201526064015b60405180910390fd5b6002600155336000908152600360205260409020541561031b5760006102e833610cf2565b3360009081526003602052604081206002018054929350839290919061030f908490610f59565b9091555061035e915050565b600580546001810182556000919091527f036b6384b5eca791c62761152d0c79bb0604c104a5fb6f4eb0703f3154bb3db00180546001600160a01b031916331790555b8060005b8181101561059d57337f00000000000000000000000000000000000000000000000000000000000000006001600160a01b0316636352211e8686858181106103ac576103ac610f71565b905060200201356040518263ffffffff1660e01b81526004016103d191815260200190565b602060405180830381865afa1580156103ee573d6000803e3d6000fd5b505050506040513d601f19601f820116820180604052508101906104129190610f87565b6001600160a01b0316146104725760405162461bcd60e51b815260206004820152602160248201527f43616e2774207374616b6520746f6b656e7320796f7520646f6e2774206f776e6044820152602160f81b60648201526084016102ba565b7f00000000000000000000000000000000000000000000000000000000000000006001600160a01b03166323b872dd33308787868181106104b5576104b5610f71565b6040517fffffffff0000000000000000000000000000000000000000000000000000000060e088901b1681526001600160a01b03958616600482015294909316602485015250602090910201356044820152606401600060405180830381600087803b15801561052457600080fd5b505af1158015610538573d6000803e3d6000fd5b50505050336004600086868581811061055357610553610f71565b90506020020135815260200190815260200160002060006101000a8154816001600160a01b0302191690836001600160a01b031602179055508061059690610fa4565b9050610362565b5033600090815260036020526040812080548392906105bd908490610f59565b9091555050336000908152600360205260409020426001918201558055505050565b3360008181526003602052604081206002015490916105fd90610cf2565b6106079190610f59565b9050600081116106595760405162461bcd60e51b815260206004820152601c60248201527f596f752068617665206e6f207265776172647320746f20636c61696d0000000060448201526064016102ba565b33600081815260036020526040808220426001820155600201919091555163a9059cbb60e01b81526004810191909152602481018290526001600160a01b037f0000000000000000000000000000000000000000000000000000000000000000169063a9059cbb906044016020604051808303816000875af11580156106e3573d6000803e3d6000fd5b505050506040513d601f19601f820116820180604052508101906107079190610fbd565b6107535760405162461bcd60e51b815260206004820152600e60248201527f5472616e7366657220697373756500000000000000000000000000000000000060448201526064016102ba565b50565b6001600160a01b038116600090815260036020526040812054819061077a84610d6a565b91509150915091565b6005818154811061079357600080fd5b6000918252602090912001546001600160a01b0316905081565b6107b5610dd9565b6107bf6000610e33565b565b6002600154036108135760405162461bcd60e51b815260206004820152601f60248201527f5265656e7472616e637947756172643a207265656e7472616e742063616c6c0060448201526064016102ba565b6002600155336000908152600360205260409020546108745760405162461bcd60e51b815260206004820152601960248201527f596f752068617665206e6f20746f6b656e73207374616b65640000000000000060448201526064016102ba565b600061087f33610cf2565b336000908152600360205260408120600201805492935083929091906108a6908490610f59565b9091555082905060005b81811015610a1a5733600460008787858181106108cf576108cf610f71565b60209081029290920135835250810191909152604001600020546001600160a01b0316146108fc57600080fd5b60006004600087878581811061091457610914610f71565b6020908102929092013583525081019190915260400160002080546001600160a01b0319166001600160a01b039283161790557f0000000000000000000000000000000000000000000000000000000000000000166323b872dd303388888681811061098257610982610f71565b6040517fffffffff0000000000000000000000000000000000000000000000000000000060e088901b1681526001600160a01b03958616600482015294909316602485015250602090910201356044820152606401600060405180830381600087803b1580156109f157600080fd5b505af1158015610a05573d6000803e3d6000fd5b5050505080610a1390610fa4565b90506108b0565b503360009081526003602052604081208054839290610a3a908490610fdf565b9091555050336000908152600360205260408120426001820155549003610b5f5760005b600554811015610b5d57336001600160a01b031660058281548110610a8557610a85610f71565b6000918252602090912001546001600160a01b031603610b4d5760058054610aaf90600190610fdf565b81548110610abf57610abf610f71565b600091825260209091200154600580546001600160a01b039092169183908110610aeb57610aeb610f71565b9060005260206000200160006101000a8154816001600160a01b0302191690836001600160a01b031602179055506005805480610b2a57610b2a610ff6565b600082815260209020810160001990810180546001600160a01b03191690550190555b610b5681610fa4565b9050610a5e565b505b5050600180555050565b610b71610dd9565b60006005805480602002602001604051908101604052809291908181526020018280548015610bc957602002820191906000526020600020905b81546001600160a01b03168152600190910190602001808311610bab575b505083519394506000925050505b81811015610c5d576000838281518110610bf357610bf3610f71565b60200260200101519050610c0681610cf2565b6001600160a01b03821660009081526003602052604081206002018054909190610c31908490610f59565b90915550503360009081526003602052604090204260019091015550610c5681610fa4565b9050610bd7565b505050600255565b610c6d610dd9565b6001600160a01b038116610ce95760405162461bcd60e51b815260206004820152602660248201527f4f776e61626c653a206e6577206f776e657220697320746865207a65726f206160448201527f646472657373000000000000000000000000000000000000000000000000000060648201526084016102ba565b61075381610e33565b6001600160a01b03811660009081526003602090815260408083208151606081018352815480825260018301549482018590526002928301549382019390935290549092610e109290610d459042610fdf565b610d4f919061100c565b610d59919061100c565b610d63919061102b565b9392505050565b6001600160a01b0381166000908152600360205260408120548103610da857506001600160a01b031660009081526003602052604090206002015490565b6000610db383610cf2565b6001600160a01b038416600090815260036020526040902060020154610d639190610f59565b6000546001600160a01b031633146107bf5760405162461bcd60e51b815260206004820181905260248201527f4f776e61626c653a2063616c6c6572206973206e6f7420746865206f776e657260448201526064016102ba565b600080546001600160a01b038381166001600160a01b0319831681178455604051919092169283917f8be0079c531659141344cd1fd0a4f28419497f9722a3daafe3b4186f6b6457e09190a35050565b60008060208385031215610e9657600080fd5b823567ffffffffffffffff80821115610eae57600080fd5b818501915085601f830112610ec257600080fd5b813581811115610ed157600080fd5b8660208260051b8501011115610ee657600080fd5b60209290920196919550909350505050565b6001600160a01b038116811461075357600080fd5b600060208284031215610f1f57600080fd5b8135610d6381610ef8565b600060208284031215610f3c57600080fd5b5035919050565b634e487b7160e01b600052601160045260246000fd5b60008219821115610f6c57610f6c610f43565b500190565b634e487b7160e01b600052603260045260246000fd5b600060208284031215610f9957600080fd5b8151610d6381610ef8565b600060018201610fb657610fb6610f43565b5060010190565b600060208284031215610fcf57600080fd5b81518015158114610d6357600080fd5b600082821015610ff157610ff1610f43565b500390565b634e487b7160e01b600052603160045260246000fd5b600081600019048311821515161561102657611026610f43565b500290565b60008261104857634e487b7160e01b600052601260045260246000fd5b50049056fea26469706673582212207877dcd4037c10af73f47b5172a70a118deb91b4ff8f26b96b5425ec430607ea64736f6c634300080d0033",
      "opcodes": "PUSH1 0xC0 PUSH1 0x40 MSTORE PUSH9 0x56BC75E2D63100000 PUSH1 0x2 SSTORE CALLVALUE DUP1 ISZERO PUSH2 0x1D JUMPI PUSH1 0x0 DUP1 REVERT JUMPDEST POP PUSH1 0x40 MLOAD PUSH2 0x11C6 CODESIZE SUB DUP1 PUSH2 0x11C6 DUP4 CODECOPY DUP2 ADD PUSH1 0x40 DUP2 SWAP1 MSTORE PUSH2 0x3C SWAP2 PUSH2 0xC8 JUMP JUMPDEST PUSH2 0x45 CALLER PUSH2 0x60 JUMP JUMPDEST PUSH1 0x1 DUP1 SSTORE PUSH1 0x1 PUSH1 0x1 PUSH1 0xA0 SHL SUB SWAP2 DUP3 AND PUSH1 0xA0 MSTORE AND PUSH1 0x80 MSTORE PUSH2 0x102 JUMP JUMPDEST PUSH1 0x0 DUP1 SLOAD PUSH1 0x1 PUSH1 0x1 PUSH1 0xA0 SHL SUB DUP4 DUP2 AND PUSH1 0x1 PUSH1 0x1 PUSH1 0xA0 SHL SUB NOT DUP4 AND DUP2 OR DUP5 SSTORE PUSH1 0x40 MLOAD SWAP2 SWAP1 SWAP3 AND SWAP3 DUP4 SWAP2 PUSH32 0x8BE0079C531659141344CD1FD0A4F28419497F9722A3DAAFE3B4186F6B6457E0 SWAP2 SWAP1 LOG3 POP POP JUMP JUMPDEST PUSH1 0x1 PUSH1 0x1 PUSH1 0xA0 SHL SUB DUP2 AND DUP2 EQ PUSH2 0xC5 JUMPI PUSH1 0x0 DUP1 REVERT JUMPDEST POP JUMP JUMPDEST PUSH1 0x0 DUP1 PUSH1 0x40 DUP4 DUP6 SUB SLT ISZERO PUSH2 0xDB JUMPI PUSH1 0x0 DUP1 REVERT JUMPDEST DUP3 MLOAD PUSH2 0xE6 DUP2 PUSH2 0xB0 JUMP JUMPDEST PUSH1 0x20 DUP5 ADD MLOAD SWAP1 SWAP3 POP PUSH2 0xF7 DUP2 PUSH2 0xB0 JUMP JUMPDEST DUP1 SWAP2 POP POP SWAP3 POP SWAP3 SWAP1 POP JUMP JUMPDEST PUSH1 0x80 MLOAD PUSH1 0xA0 MLOAD PUSH2 0x1083 PUSH2 0x143 PUSH1 0x0 CODECOPY PUSH1 0x0 DUP2 DUP2 PUSH2 0x166 ADD MSTORE DUP2 DUP2 PUSH2 0x36D ADD MSTORE DUP2 DUP2 PUSH2 0x474 ADD MSTORE PUSH2 0x949 ADD MSTORE PUSH1 0x0 DUP2 DUP2 PUSH2 0x224 ADD MSTORE PUSH2 0x69A ADD MSTORE PUSH2 0x1083 PUSH1 0x0 RETURN INVALID PUSH1 0x80 PUSH1 0x40 MSTORE CALLVALUE DUP1 ISZERO PUSH2 0x10 JUMPI PUSH1 0x0 DUP1 REVERT JUMPDEST POP PUSH1 0x4 CALLDATASIZE LT PUSH2 0xDF JUMPI PUSH1 0x0 CALLDATALOAD PUSH1 0xE0 SHR DUP1 PUSH4 0x8DA5CB5B GT PUSH2 0x8C JUMPI DUP1 PUSH4 0x983D95CE GT PUSH2 0x66 JUMPI DUP1 PUSH4 0x983D95CE EQ PUSH2 0x20C JUMPI DUP1 PUSH4 0xA24C4E6B EQ PUSH2 0x21F JUMPI DUP1 PUSH4 0xB5A5E509 EQ PUSH2 0x246 JUMPI DUP1 PUSH4 0xF2FDE38B EQ PUSH2 0x259 JUMPI PUSH1 0x0 DUP1 REVERT JUMPDEST DUP1 PUSH4 0x8DA5CB5B EQ PUSH2 0x188 JUMPI DUP1 PUSH4 0x9168AE72 EQ PUSH2 0x199 JUMPI DUP1 PUSH4 0x94067045 EQ PUSH2 0x1E3 JUMPI PUSH1 0x0 DUP1 REVERT JUMPDEST DUP1 PUSH4 0x5357E916 GT PUSH2 0xBD JUMPI DUP1 PUSH4 0x5357E916 EQ PUSH2 0x12E JUMPI DUP1 PUSH4 0x715018A6 EQ PUSH2 0x159 JUMPI DUP1 PUSH4 0x81C33B93 EQ PUSH2 0x161 JUMPI PUSH1 0x0 DUP1 REVERT JUMPDEST DUP1 PUSH4 0xFBF0A93 EQ PUSH2 0xE4 JUMPI DUP1 PUSH4 0x372500AB EQ PUSH2 0xF9 JUMPI DUP1 PUSH4 0x4EAD4327 EQ PUSH2 0x101 JUMPI JUMPDEST PUSH1 0x0 DUP1 REVERT JUMPDEST PUSH2 0xF7 PUSH2 0xF2 CALLDATASIZE PUSH1 0x4 PUSH2 0xE83 JUMP JUMPDEST PUSH2 0x26C JUMP JUMPDEST STOP JUMPDEST PUSH2 0xF7 PUSH2 0x5DF JUMP JUMPDEST PUSH2 0x114 PUSH2 0x10F CALLDATASIZE PUSH1 0x4 PUSH2 0xF0D JUMP JUMPDEST PUSH2 0x756 JUMP JUMPDEST PUSH1 0x40 DUP1 MLOAD SWAP3 DUP4 MSTORE PUSH1 0x20 DUP4 ADD SWAP2 SWAP1 SWAP2 MSTORE ADD JUMPDEST PUSH1 0x40 MLOAD DUP1 SWAP2 SUB SWAP1 RETURN JUMPDEST PUSH2 0x141 PUSH2 0x13C CALLDATASIZE PUSH1 0x4 PUSH2 0xF2A JUMP JUMPDEST PUSH2 0x783 JUMP JUMPDEST PUSH1 0x40 MLOAD PUSH1 0x1 PUSH1 0x1 PUSH1 0xA0 SHL SUB SWAP1 SWAP2 AND DUP2 MSTORE PUSH1 0x20 ADD PUSH2 0x125 JUMP JUMPDEST PUSH2 0xF7 PUSH2 0x7AD JUMP JUMPDEST PUSH2 0x141 PUSH32 0x0 DUP2 JUMP JUMPDEST PUSH1 0x0 SLOAD PUSH1 0x1 PUSH1 0x1 PUSH1 0xA0 SHL SUB AND PUSH2 0x141 JUMP JUMPDEST PUSH2 0x1C8 PUSH2 0x1A7 CALLDATASIZE PUSH1 0x4 PUSH2 0xF0D JUMP JUMPDEST PUSH1 0x3 PUSH1 0x20 MSTORE PUSH1 0x0 SWAP1 DUP2 MSTORE PUSH1 0x40 SWAP1 KECCAK256 DUP1 SLOAD PUSH1 0x1 DUP3 ADD SLOAD PUSH1 0x2 SWAP1 SWAP3 ADD SLOAD SWAP1 SWAP2 SWAP1 DUP4 JUMP JUMPDEST PUSH1 0x40 DUP1 MLOAD SWAP4 DUP5 MSTORE PUSH1 0x20 DUP5 ADD SWAP3 SWAP1 SWAP3 MSTORE SWAP1 DUP3 ADD MSTORE PUSH1 0x60 ADD PUSH2 0x125 JUMP JUMPDEST PUSH2 0x141 PUSH2 0x1F1 CALLDATASIZE PUSH1 0x4 PUSH2 0xF2A JUMP JUMPDEST PUSH1 0x4 PUSH1 0x20 MSTORE PUSH1 0x0 SWAP1 DUP2 MSTORE PUSH1 0x40 SWAP1 KECCAK256 SLOAD PUSH1 0x1 PUSH1 0x1 PUSH1 0xA0 SHL SUB AND DUP2 JUMP JUMPDEST PUSH2 0xF7 PUSH2 0x21A CALLDATASIZE PUSH1 0x4 PUSH2 0xE83 JUMP JUMPDEST PUSH2 0x7C1 JUMP JUMPDEST PUSH2 0x141 PUSH32 0x0 DUP2 JUMP JUMPDEST PUSH2 0xF7 PUSH2 0x254 CALLDATASIZE PUSH1 0x4 PUSH2 0xF2A JUMP JUMPDEST PUSH2 0xB69 JUMP JUMPDEST PUSH2 0xF7 PUSH2 0x267 CALLDATASIZE PUSH1 0x4 PUSH2 0xF0D JUMP JUMPDEST PUSH2 0xC65 JUMP JUMPDEST PUSH1 0x2 PUSH1 0x1 SLOAD SUB PUSH2 0x2C3 JUMPI PUSH1 0x40 MLOAD PUSH3 0x461BCD PUSH1 0xE5 SHL DUP2 MSTORE PUSH1 0x20 PUSH1 0x4 DUP3 ADD MSTORE PUSH1 0x1F PUSH1 0x24 DUP3 ADD MSTORE PUSH32 0x5265656E7472616E637947756172643A207265656E7472616E742063616C6C00 PUSH1 0x44 DUP3 ADD MSTORE PUSH1 0x64 ADD JUMPDEST PUSH1 0x40 MLOAD DUP1 SWAP2 SUB SWAP1 REVERT JUMPDEST PUSH1 0x2 PUSH1 0x1 SSTORE CALLER PUSH1 0x0 SWAP1 DUP2 MSTORE PUSH1 0x3 PUSH1 0x20 MSTORE PUSH1 0x40 SWAP1 KECCAK256 SLOAD ISZERO PUSH2 0x31B JUMPI PUSH1 0x0 PUSH2 0x2E8 CALLER PUSH2 0xCF2 JUMP JUMPDEST CALLER PUSH1 0x0 SWAP1 DUP2 MSTORE PUSH1 0x3 PUSH1 0x20 MSTORE PUSH1 0x40 DUP2 KECCAK256 PUSH1 0x2 ADD DUP1 SLOAD SWAP3 SWAP4 POP DUP4 SWAP3 SWAP1 SWAP2 SWAP1 PUSH2 0x30F SWAP1 DUP5 SWAP1 PUSH2 0xF59 JUMP JUMPDEST SWAP1 SWAP2 SSTORE POP PUSH2 0x35E SWAP2 POP POP JUMP JUMPDEST PUSH1 0x5 DUP1 SLOAD PUSH1 0x1 DUP2 ADD DUP3 SSTORE PUSH1 0x0 SWAP2 SWAP1 SWAP2 MSTORE PUSH32 0x36B6384B5ECA791C62761152D0C79BB0604C104A5FB6F4EB0703F3154BB3DB0 ADD DUP1 SLOAD PUSH1 0x1 PUSH1 0x1 PUSH1 0xA0 SHL SUB NOT AND CALLER OR SWAP1 SSTORE JUMPDEST DUP1 PUSH1 0x0 JUMPDEST DUP2 DUP2 LT ISZERO PUSH2 0x59D JUMPI CALLER PUSH32 0x0 PUSH1 0x1 PUSH1 0x1 PUSH1 0xA0 SHL SUB AND PUSH4 0x6352211E DUP7 DUP7 DUP6 DUP2 DUP2 LT PUSH2 0x3AC JUMPI PUSH2 0x3AC PUSH2 0xF71 JUMP JUMPDEST SWAP1 POP PUSH1 0x20 MUL ADD CALLDATALOAD PUSH1 0x40 MLOAD DUP3 PUSH4 0xFFFFFFFF AND PUSH1 0xE0 SHL DUP2 MSTORE PUSH1 0x4 ADD PUSH2 0x3D1 SWAP2 DUP2 MSTORE PUSH1 0x20 ADD SWAP1 JUMP JUMPDEST PUSH1 0x20 PUSH1 0x40 MLOAD DUP1 DUP4 SUB DUP2 DUP7 GAS STATICCALL ISZERO DUP1 ISZERO PUSH2 0x3EE JUMPI RETURNDATASIZE PUSH1 0x0 DUP1 RETURNDATACOPY RETURNDATASIZE PUSH1 0x0 REVERT JUMPDEST POP POP POP POP PUSH1 0x40 MLOAD RETURNDATASIZE PUSH1 0x1F NOT PUSH1 0x1F DUP3 ADD AND DUP3 ADD DUP1 PUSH1 0x40 MSTORE POP DUP2 ADD SWAP1 PUSH2 0x412 SWAP2 SWAP1 PUSH2 0xF87 JUMP JUMPDEST PUSH1 0x1 PUSH1 0x1 PUSH1 0xA0 SHL SUB AND EQ PUSH2 0x472 JUMPI PUSH1 0x40 MLOAD PUSH3 0x461BCD PUSH1 0xE5 SHL DUP2 MSTORE PUSH1 0x20 PUSH1 0x4 DUP3 ADD MSTORE PUSH1 0x21 PUSH1 0x24 DUP3 ADD MSTORE PUSH32 0x43616E2774207374616B6520746F6B656E7320796F7520646F6E2774206F776E PUSH1 0x44 DUP3 ADD MSTORE PUSH1 0x21 PUSH1 0xF8 SHL PUSH1 0x64 DUP3 ADD MSTORE PUSH1 0x84 ADD PUSH2 0x2BA JUMP JUMPDEST PUSH32 0x0 PUSH1 0x1 PUSH1 0x1 PUSH1 0xA0 SHL SUB AND PUSH4 0x23B872DD CALLER ADDRESS DUP8 DUP8 DUP7 DUP2 DUP2 LT PUSH2 0x4B5 JUMPI PUSH2 0x4B5 PUSH2 0xF71 JUMP JUMPDEST PUSH1 0x40 MLOAD PUSH32 0xFFFFFFFF00000000000000000000000000000000000000000000000000000000 PUSH1 0xE0 DUP9 SWAP1 SHL AND DUP2 MSTORE PUSH1 0x1 PUSH1 0x1 PUSH1 0xA0 SHL SUB SWAP6 DUP7 AND PUSH1 0x4 DUP3 ADD MSTORE SWAP5 SWAP1 SWAP4 AND PUSH1 0x24 DUP6 ADD MSTORE POP PUSH1 0x20 SWAP1 SWAP2 MUL ADD CALLDATALOAD PUSH1 0x44 DUP3 ADD MSTORE PUSH1 0x64 ADD PUSH1 0x0 PUSH1 0x40 MLOAD DUP1 DUP4 SUB DUP2 PUSH1 0x0 DUP8 DUP1 EXTCODESIZE ISZERO DUP1 ISZERO PUSH2 0x524 JUMPI PUSH1 0x0 DUP1 REVERT JUMPDEST POP GAS CALL ISZERO DUP1 ISZERO PUSH2 0x538 JUMPI RETURNDATASIZE PUSH1 0x0 DUP1 RETURNDATACOPY RETURNDATASIZE PUSH1 0x0 REVERT JUMPDEST POP POP POP POP CALLER PUSH1 0x4 PUSH1 0x0 DUP7 DUP7 DUP6 DUP2 DUP2 LT PUSH2 0x553 JUMPI PUSH2 0x553 PUSH2 0xF71 JUMP JUMPDEST SWAP1 POP PUSH1 0x20 MUL ADD CALLDATALOAD DUP2 MSTORE PUSH1 0x20 ADD SWAP1 DUP2 MSTORE PUSH1 0x20 ADD PUSH1 0x0 KECCAK256 PUSH1 0x0 PUSH2 0x100 EXP DUP2 SLOAD DUP2 PUSH1 0x1 PUSH1 0x1 PUSH1 0xA0 SHL SUB MUL NOT AND SWAP1 DUP4 PUSH1 0x1 PUSH1 0x1 PUSH1 0xA0 SHL SUB AND MUL OR SWAP1 SSTORE POP DUP1 PUSH2 0x596 SWAP1 PUSH2 0xFA4 JUMP JUMPDEST SWAP1 POP PUSH2 0x362 JUMP JUMPDEST POP CALLER PUSH1 0x0 SWAP1 DUP2 MSTORE PUSH1 0x3 PUSH1 0x20 MSTORE PUSH1 0x40 DUP2 KECCAK256 DUP1 SLOAD DUP4 SWAP3 SWAP1 PUSH2 0x5BD SWAP1 DUP5 SWAP1 PUSH2 0xF59 JUMP JUMPDEST SWAP1 SWAP2 SSTORE POP POP CALLER PUSH1 0x0 SWAP1 DUP2 MSTORE PUSH1 0x3 PUSH1 0x20 MSTORE PUSH1 0x40 SWAP1 KECCAK256 TIMESTAMP PUSH1 0x1 SWAP2 DUP3 ADD SSTORE DUP1 SSTORE POP POP POP JUMP JUMPDEST CALLER PUSH1 0x0 DUP2 DUP2 MSTORE PUSH1 0x3 PUSH1 0x20 MSTORE PUSH1 0x40 DUP2 KECCAK256 PUSH1 0x2 ADD SLOAD SWAP1 SWAP2 PUSH2 0x5FD SWAP1 PUSH2 0xCF2 JUMP JUMPDEST PUSH2 0x607 SWAP2 SWAP1 PUSH2 0xF59 JUMP JUMPDEST SWAP1 POP PUSH1 0x0 DUP2 GT PUSH2 0x659 JUMPI PUSH1 0x40 MLOAD PUSH3 0x461BCD PUSH1 0xE5 SHL DUP2 MSTORE PUSH1 0x20 PUSH1 0x4 DUP3 ADD MSTORE PUSH1 0x1C PUSH1 0x24 DUP3 ADD MSTORE PUSH32 0x596F752068617665206E6F207265776172647320746F20636C61696D00000000 PUSH1 0x44 DUP3 ADD MSTORE PUSH1 0x64 ADD PUSH2 0x2BA JUMP JUMPDEST CALLER PUSH1 0x0 DUP2 DUP2 MSTORE PUSH1 0x3 PUSH1 0x20 MSTORE PUSH1 0x40 DUP1 DUP3 KECCAK256 TIMESTAMP PUSH1 0x1 DUP3 ADD SSTORE PUSH1 0x2 ADD SWAP2 SWAP1 SWAP2 SSTORE MLOAD PUSH4 0xA9059CBB PUSH1 0xE0 SHL DUP2 MSTORE PUSH1 0x4 DUP2 ADD SWAP2 SWAP1 SWAP2 MSTORE PUSH1 0x24 DUP2 ADD DUP3 SWAP1 MSTORE PUSH1 0x1 PUSH1 0x1 PUSH1 0xA0 SHL SUB PUSH32 0x0 AND SWAP1 PUSH4 0xA9059CBB SWAP1 PUSH1 0x44 ADD PUSH1 0x20 PUSH1 0x40 MLOAD DUP1 DUP4 SUB DUP2 PUSH1 0x0 DUP8 GAS CALL ISZERO DUP1 ISZERO PUSH2 0x6E3 JUMPI RETURNDATASIZE PUSH1 0x0 DUP1 RETURNDATACOPY RETURNDATASIZE PUSH1 0x0 REVERT JUMPDEST POP POP POP POP PUSH1 0x40 MLOAD RETURNDATASIZE PUSH1 0x1F NOT PUSH1 0x1F DUP3 ADD AND DUP3 ADD DUP1 PUSH1 0x40 MSTORE POP DUP2 ADD SWAP1 PUSH2 0x707 SWAP2 SWAP1 PUSH2 0xFBD JUMP JUMPDEST PUSH2 0x753 JUMPI PUSH1 0x40 MLOAD PUSH3 0x461BCD PUSH1 0xE5 SHL DUP2 MSTORE PUSH1 0x20 PUSH1 0x4 DUP3 ADD MSTORE PUSH1 0xE PUSH1 0x24 DUP3 ADD MSTORE PUSH32 0x5472616E73666572206973737565000000000000000000000000000000000000 PUSH1 0x44 DUP3 ADD MSTORE PUSH1 0x64 ADD PUSH2 0x2BA JUMP JUMPDEST POP JUMP JUMPDEST PUSH1 0x1 PUSH1 0x1 PUSH1 0xA0 SHL SUB DUP2 AND PUSH1 0x0 SWAP1 DUP2 MSTORE PUSH1 0x3 PUSH1 0x20 MSTORE PUSH1 0x40 DUP2 KECCAK256 SLOAD DUP2 SWAP1 PUSH2 0x77A DUP5 PUSH2 0xD6A JUMP JUMPDEST SWAP2 POP SWAP2 POP SWAP2 POP SWAP2 JUMP JUMPDEST PUSH1 0x5 DUP2 DUP2 SLOAD DUP2 LT PUSH2 0x793 JUMPI PUSH1 0x0 DUP1 REVERT JUMPDEST PUSH1 0x0 SWAP2 DUP3 MSTORE PUSH1 0x20 SWAP1 SWAP2 KECCAK256 ADD SLOAD PUSH1 0x1 PUSH1 0x1 PUSH1 0xA0 SHL SUB AND SWAP1 POP DUP2 JUMP JUMPDEST PUSH2 0x7B5 PUSH2 0xDD9 JUMP JUMPDEST PUSH2 0x7BF PUSH1 0x0 PUSH2 0xE33 JUMP JUMPDEST JUMP JUMPDEST PUSH1 0x2 PUSH1 0x1 SLOAD SUB PUSH2 0x813 JUMPI PUSH1 0x40 MLOAD PUSH3 0x461BCD PUSH1 0xE5 SHL DUP2 MSTORE PUSH1 0x20 PUSH1 0x4 DUP3 ADD MSTORE PUSH1 0x1F PUSH1 0x24 DUP3 ADD MSTORE PUSH32 0x5265656E7472616E637947756172643A207265656E7472616E742063616C6C00 PUSH1 0x44 DUP3 ADD MSTORE PUSH1 0x64 ADD PUSH2 0x2BA JUMP JUMPDEST PUSH1 0x2 PUSH1 0x1 SSTORE CALLER PUSH1 0x0 SWAP1 DUP2 MSTORE PUSH1 0x3 PUSH1 0x20 MSTORE PUSH1 0x40 SWAP1 KECCAK256 SLOAD PUSH2 0x874 JUMPI PUSH1 0x40 MLOAD PUSH3 0x461BCD PUSH1 0xE5 SHL DUP2 MSTORE PUSH1 0x20 PUSH1 0x4 DUP3 ADD MSTORE PUSH1 0x19 PUSH1 0x24 DUP3 ADD MSTORE PUSH32 0x596F752068617665206E6F20746F6B656E73207374616B656400000000000000 PUSH1 0x44 DUP3 ADD MSTORE PUSH1 0x64 ADD PUSH2 0x2BA JUMP JUMPDEST PUSH1 0x0 PUSH2 0x87F CALLER PUSH2 0xCF2 JUMP JUMPDEST CALLER PUSH1 0x0 SWAP1 DUP2 MSTORE PUSH1 0x3 PUSH1 0x20 MSTORE PUSH1 0x40 DUP2 KECCAK256 PUSH1 0x2 ADD DUP1 SLOAD SWAP3 SWAP4 POP DUP4 SWAP3 SWAP1 SWAP2 SWAP1 PUSH2 0x8A6 SWAP1 DUP5 SWAP1 PUSH2 0xF59 JUMP JUMPDEST SWAP1 SWAP2 SSTORE POP DUP3 SWAP1 POP PUSH1 0x0 JUMPDEST DUP2 DUP2 LT ISZERO PUSH2 0xA1A JUMPI CALLER PUSH1 0x4 PUSH1 0x0 DUP8 DUP8 DUP6 DUP2 DUP2 LT PUSH2 0x8CF JUMPI PUSH2 0x8CF PUSH2 0xF71 JUMP JUMPDEST PUSH1 0x20 SWAP1 DUP2 MUL SWAP3 SWAP1 SWAP3 ADD CALLDATALOAD DUP4 MSTORE POP DUP2 ADD SWAP2 SWAP1 SWAP2 MSTORE PUSH1 0x40 ADD PUSH1 0x0 KECCAK256 SLOAD PUSH1 0x1 PUSH1 0x1 PUSH1 0xA0 SHL SUB AND EQ PUSH2 0x8FC JUMPI PUSH1 0x0 DUP1 REVERT JUMPDEST PUSH1 0x0 PUSH1 0x4 PUSH1 0x0 DUP8 DUP8 DUP6 DUP2 DUP2 LT PUSH2 0x914 JUMPI PUSH2 0x914 PUSH2 0xF71 JUMP JUMPDEST PUSH1 0x20 SWAP1 DUP2 MUL SWAP3 SWAP1 SWAP3 ADD CALLDATALOAD DUP4 MSTORE POP DUP2 ADD SWAP2 SWAP1 SWAP2 MSTORE PUSH1 0x40 ADD PUSH1 0x0 KECCAK256 DUP1 SLOAD PUSH1 0x1 PUSH1 0x1 PUSH1 0xA0 SHL SUB NOT AND PUSH1 0x1 PUSH1 0x1 PUSH1 0xA0 SHL SUB SWAP3 DUP4 AND OR SWAP1 SSTORE PUSH32 0x0 AND PUSH4 0x23B872DD ADDRESS CALLER DUP9 DUP9 DUP7 DUP2 DUP2 LT PUSH2 0x982 JUMPI PUSH2 0x982 PUSH2 0xF71 JUMP JUMPDEST PUSH1 0x40 MLOAD PUSH32 0xFFFFFFFF00000000000000000000000000000000000000000000000000000000 PUSH1 0xE0 DUP9 SWAP1 SHL AND DUP2 MSTORE PUSH1 0x1 PUSH1 0x1 PUSH1 0xA0 SHL SUB SWAP6 DUP7 AND PUSH1 0x4 DUP3 ADD MSTORE SWAP5 SWAP1 SWAP4 AND PUSH1 0x24 DUP6 ADD MSTORE POP PUSH1 0x20 SWAP1 SWAP2 MUL ADD CALLDATALOAD PUSH1 0x44 DUP3 ADD MSTORE PUSH1 0x64 ADD PUSH1 0x0 PUSH1 0x40 MLOAD DUP1 DUP4 SUB DUP2 PUSH1 0x0 DUP8 DUP1 EXTCODESIZE ISZERO DUP1 ISZERO PUSH2 0x9F1 JUMPI PUSH1 0x0 DUP1 REVERT JUMPDEST POP GAS CALL ISZERO DUP1 ISZERO PUSH2 0xA05 JUMPI RETURNDATASIZE PUSH1 0x0 DUP1 RETURNDATACOPY RETURNDATASIZE PUSH1 0x0 REVERT JUMPDEST POP POP POP POP DUP1 PUSH2 0xA13 SWAP1 PUSH2 0xFA4 JUMP JUMPDEST SWAP1 POP PUSH2 0x8B0 JUMP JUMPDEST POP CALLER PUSH1 0x0 SWAP1 DUP2 MSTORE PUSH1 0x3 PUSH1 0x20 MSTORE PUSH1 0x40 DUP2 KECCAK256 DUP1 SLOAD DUP4 SWAP3 SWAP1 PUSH2 0xA3A SWAP1 DUP5 SWAP1 PUSH2 0xFDF JUMP JUMPDEST SWAP1 SWAP2 SSTORE POP POP CALLER PUSH1 0x0 SWAP1 DUP2 MSTORE PUSH1 0x3 PUSH1 0x20 MSTORE PUSH1 0x40 DUP2 KECCAK256 TIMESTAMP PUSH1 0x1 DUP3 ADD SSTORE SLOAD SWAP1 SUB PUSH2 0xB5F JUMPI PUSH1 0x0 JUMPDEST PUSH1 0x5 SLOAD DUP2 LT ISZERO PUSH2 0xB5D JUMPI CALLER PUSH1 0x1 PUSH1 0x1 PUSH1 0xA0 SHL SUB AND PUSH1 0x5 DUP3 DUP2 SLOAD DUP2 LT PUSH2 0xA85 JUMPI PUSH2 0xA85 PUSH2 0xF71 JUMP JUMPDEST PUSH1 0x0 SWAP2 DUP3 MSTORE PUSH1 0x20 SWAP1 SWAP2 KECCAK256 ADD SLOAD PUSH1 0x1 PUSH1 0x1 PUSH1 0xA0 SHL SUB AND SUB PUSH2 0xB4D JUMPI PUSH1 0x5 DUP1 SLOAD PUSH2 0xAAF SWAP1 PUSH1 0x1 SWAP1 PUSH2 0xFDF JUMP JUMPDEST DUP2 SLOAD DUP2 LT PUSH2 0xABF JUMPI PUSH2 0xABF PUSH2 0xF71 JUMP JUMPDEST PUSH1 0x0 SWAP2 DUP3 MSTORE PUSH1 0x20 SWAP1 SWAP2 KECCAK256 ADD SLOAD PUSH1 0x5 DUP1 SLOAD PUSH1 0x1 PUSH1 0x1 PUSH1 0xA0 SHL SUB SWAP1 SWAP3 AND SWAP2 DUP4 SWAP1 DUP2 LT PUSH2 0xAEB JUMPI PUSH2 0xAEB PUSH2 0xF71 JUMP JUMPDEST SWAP1 PUSH1 0x0 MSTORE PUSH1 0x20 PUSH1 0x0 KECCAK256 ADD PUSH1 0x0 PUSH2 0x100 EXP DUP2 SLOAD DUP2 PUSH1 0x1 PUSH1 0x1 PUSH1 0xA0 SHL SUB MUL NOT AND SWAP1 DUP4 PUSH1 0x1 PUSH1 0x1 PUSH1 0xA0 SHL SUB AND MUL OR SWAP1 SSTORE POP PUSH1 0x5 DUP1 SLOAD DUP1 PUSH2 0xB2A JUMPI PUSH2 0xB2A PUSH2 0xFF6 JUMP JUMPDEST PUSH1 0x0 DUP3 DUP2 MSTORE PUSH1 0x20 SWAP1 KECCAK256 DUP2 ADD PUSH1 0x0 NOT SWAP1 DUP2 ADD DUP1 SLOAD PUSH1 0x1 PUSH1 0x1 PUSH1 0xA0 SHL SUB NOT AND SWAP1 SSTORE ADD SWAP1 SSTORE JUMPDEST PUSH2 0xB56 DUP2 PUSH2 0xFA4 JUMP JUMPDEST SWAP1 POP PUSH2 0xA5E JUMP JUMPDEST POP JUMPDEST POP POP PUSH1 0x1 DUP1 SSTORE POP POP JUMP JUMPDEST PUSH2 0xB71 PUSH2 0xDD9 JUMP JUMPDEST PUSH1 0x0 PUSH1 0x5 DUP1 SLOAD DUP1 PUSH1 0x20 MUL PUSH1 0x20 ADD PUSH1 0x40 MLOAD SWAP1 DUP2 ADD PUSH1 0x40 MSTORE DUP1 SWAP3 SWAP2 SWAP1 DUP2 DUP2 MSTORE PUSH1 0x20 ADD DUP3 DUP1 SLOAD DUP1 ISZERO PUSH2 0xBC9 JUMPI PUSH1 0x20 MUL DUP3 ADD SWAP2 SWAP1 PUSH1 0x0 MSTORE PUSH1 0x20 PUSH1 0x0 KECCAK256 SWAP1 JUMPDEST DUP2 SLOAD PUSH1 0x1 PUSH1 0x1 PUSH1 0xA0 SHL SUB AND DUP2 MSTORE PUSH1 0x1 SWAP1 SWAP2 ADD SWAP1 PUSH1 0x20 ADD DUP1 DUP4 GT PUSH2 0xBAB JUMPI JUMPDEST POP POP DUP4 MLOAD SWAP4 SWAP5 POP PUSH1 0x0 SWAP3 POP POP POP JUMPDEST DUP2 DUP2 LT ISZERO PUSH2 0xC5D JUMPI PUSH1 0x0 DUP4 DUP3 DUP2 MLOAD DUP2 LT PUSH2 0xBF3 JUMPI PUSH2 0xBF3 PUSH2 0xF71 JUMP JUMPDEST PUSH1 0x20 MUL PUSH1 0x20 ADD ADD MLOAD SWAP1 POP PUSH2 0xC06 DUP2 PUSH2 0xCF2 JUMP JUMPDEST PUSH1 0x1 PUSH1 0x1 PUSH1 0xA0 SHL SUB DUP3 AND PUSH1 0x0 SWAP1 DUP2 MSTORE PUSH1 0x3 PUSH1 0x20 MSTORE PUSH1 0x40 DUP2 KECCAK256 PUSH1 0x2 ADD DUP1 SLOAD SWAP1 SWAP2 SWAP1 PUSH2 0xC31 SWAP1 DUP5 SWAP1 PUSH2 0xF59 JUMP JUMPDEST SWAP1 SWAP2 SSTORE POP POP CALLER PUSH1 0x0 SWAP1 DUP2 MSTORE PUSH1 0x3 PUSH1 0x20 MSTORE PUSH1 0x40 SWAP1 KECCAK256 TIMESTAMP PUSH1 0x1 SWAP1 SWAP2 ADD SSTORE POP PUSH2 0xC56 DUP2 PUSH2 0xFA4 JUMP JUMPDEST SWAP1 POP PUSH2 0xBD7 JUMP JUMPDEST POP POP POP PUSH1 0x2 SSTORE JUMP JUMPDEST PUSH2 0xC6D PUSH2 0xDD9 JUMP JUMPDEST PUSH1 0x1 PUSH1 0x1 PUSH1 0xA0 SHL SUB DUP2 AND PUSH2 0xCE9 JUMPI PUSH1 0x40 MLOAD PUSH3 0x461BCD PUSH1 0xE5 SHL DUP2 MSTORE PUSH1 0x20 PUSH1 0x4 DUP3 ADD MSTORE PUSH1 0x26 PUSH1 0x24 DUP3 ADD MSTORE PUSH32 0x4F776E61626C653A206E6577206F776E657220697320746865207A65726F2061 PUSH1 0x44 DUP3 ADD MSTORE PUSH32 0x6464726573730000000000000000000000000000000000000000000000000000 PUSH1 0x64 DUP3 ADD MSTORE PUSH1 0x84 ADD PUSH2 0x2BA JUMP JUMPDEST PUSH2 0x753 DUP2 PUSH2 0xE33 JUMP JUMPDEST PUSH1 0x1 PUSH1 0x1 PUSH1 0xA0 SHL SUB DUP2 AND PUSH1 0x0 SWAP1 DUP2 MSTORE PUSH1 0x3 PUSH1 0x20 SWAP1 DUP2 MSTORE PUSH1 0x40 DUP1 DUP4 KECCAK256 DUP2 MLOAD PUSH1 0x60 DUP2 ADD DUP4 MSTORE DUP2 SLOAD DUP1 DUP3 MSTORE PUSH1 0x1 DUP4 ADD SLOAD SWAP5 DUP3 ADD DUP6 SWAP1 MSTORE PUSH1 0x2 SWAP3 DUP4 ADD SLOAD SWAP4 DUP3 ADD SWAP4 SWAP1 SWAP4 MSTORE SWAP1 SLOAD SWAP1 SWAP3 PUSH2 0xE10 SWAP3 SWAP1 PUSH2 0xD45 SWAP1 TIMESTAMP PUSH2 0xFDF JUMP JUMPDEST PUSH2 0xD4F SWAP2 SWAP1 PUSH2 0x100C JUMP JUMPDEST PUSH2 0xD59 SWAP2 SWAP1 PUSH2 0x100C JUMP JUMPDEST PUSH2 0xD63 SWAP2 SWAP1 PUSH2 0x102B JUMP JUMPDEST SWAP4 SWAP3 POP POP POP JUMP JUMPDEST PUSH1 0x1 PUSH1 0x1 PUSH1 0xA0 SHL SUB DUP2 AND PUSH1 0x0 SWAP1 DUP2 MSTORE PUSH1 0x3 PUSH1 0x20 MSTORE PUSH1 0x40 DUP2 KECCAK256 SLOAD DUP2 SUB PUSH2 0xDA8 JUMPI POP PUSH1 0x1 PUSH1 0x1 PUSH1 0xA0 SHL SUB AND PUSH1 0x0 SWAP1 DUP2 MSTORE PUSH1 0x3 PUSH1 0x20 MSTORE PUSH1 0x40 SWAP1 KECCAK256 PUSH1 0x2 ADD SLOAD SWAP1 JUMP JUMPDEST PUSH1 0x0 PUSH2 0xDB3 DUP4 PUSH2 0xCF2 JUMP JUMPDEST PUSH1 0x1 PUSH1 0x1 PUSH1 0xA0 SHL SUB DUP5 AND PUSH1 0x0 SWAP1 DUP2 MSTORE PUSH1 0x3 PUSH1 0x20 MSTORE PUSH1 0x40 SWAP1 KECCAK256 PUSH1 0x2 ADD SLOAD PUSH2 0xD63 SWAP2 SWAP1 PUSH2 0xF59 JUMP JUMPDEST PUSH1 0x0 SLOAD PUSH1 0x1 PUSH1 0x1 PUSH1 0xA0 SHL SUB AND CALLER EQ PUSH2 0x7BF JUMPI PUSH1 0x40 MLOAD PUSH3 0x461BCD PUSH1 0xE5 SHL DUP2 MSTORE PUSH1 0x20 PUSH1 0x4 DUP3 ADD DUP2 SWAP1 MSTORE PUSH1 0x24 DUP3 ADD MSTORE PUSH32 0x4F776E61626C653A2063616C6C6572206973206E6F7420746865206F776E6572 PUSH1 0x44 DUP3 ADD MSTORE PUSH1 0x64 ADD PUSH2 0x2BA JUMP JUMPDEST PUSH1 0x0 DUP1 SLOAD PUSH1 0x1 PUSH1 0x1 PUSH1 0xA0 SHL SUB DUP4 DUP2 AND PUSH1 0x1 PUSH1 0x1 PUSH1 0xA0 SHL SUB NOT DUP4 AND DUP2 OR DUP5 SSTORE PUSH1 0x40 MLOAD SWAP2 SWAP1 SWAP3 AND SWAP3 DUP4 SWAP2 PUSH32 0x8BE0079C531659141344CD1FD0A4F28419497F9722A3DAAFE3B4186F6B6457E0 SWAP2 SWAP1 LOG3 POP POP JUMP JUMPDEST PUSH1 0x0 DUP1 PUSH1 0x20 DUP4 DUP6 SUB SLT ISZERO PUSH2 0xE96 JUMPI PUSH1 0x0 DUP1 REVERT JUMPDEST DUP3 CALLDATALOAD PUSH8 0xFFFFFFFFFFFFFFFF DUP1 DUP3 GT ISZERO PUSH2 0xEAE JUMPI PUSH1 0x0 DUP1 REVERT JUMPDEST DUP2 DUP6 ADD SWAP2 POP DUP6 PUSH1 0x1F DUP4 ADD SLT PUSH2 0xEC2 JUMPI PUSH1 0x0 DUP1 REVERT JUMPDEST DUP2 CALLDATALOAD DUP2 DUP2 GT ISZERO PUSH2 0xED1 JUMPI PUSH1 0x0 DUP1 REVERT JUMPDEST DUP7 PUSH1 0x20 DUP3 PUSH1 0x5 SHL DUP6 ADD ADD GT ISZERO PUSH2 0xEE6 JUMPI PUSH1 0x0 DUP1 REVERT JUMPDEST PUSH1 0x20 SWAP3 SWAP1 SWAP3 ADD SWAP7 SWAP2 SWAP6 POP SWAP1 SWAP4 POP POP POP POP JUMP JUMPDEST PUSH1 0x1 PUSH1 0x1 PUSH1 0xA0 SHL SUB DUP2 AND DUP2 EQ PUSH2 0x753 JUMPI PUSH1 0x0 DUP1 REVERT JUMPDEST PUSH1 0x0 PUSH1 0x20 DUP3 DUP5 SUB SLT ISZERO PUSH2 0xF1F JUMPI PUSH1 0x0 DUP1 REVERT JUMPDEST DUP2 CALLDATALOAD PUSH2 0xD63 DUP2 PUSH2 0xEF8 JUMP JUMPDEST PUSH1 0x0 PUSH1 0x20 DUP3 DUP5 SUB SLT ISZERO PUSH2 0xF3C JUMPI PUSH1 0x0 DUP1 REVERT JUMPDEST POP CALLDATALOAD SWAP2 SWAP1 POP JUMP JUMPDEST PUSH4 0x4E487B71 PUSH1 0xE0 SHL PUSH1 0x0 MSTORE PUSH1 0x11 PUSH1 0x4 MSTORE PUSH1 0x24 PUSH1 0x0 REVERT JUMPDEST PUSH1 0x0 DUP3 NOT DUP3 GT ISZERO PUSH2 0xF6C JUMPI PUSH2 0xF6C PUSH2 0xF43 JUMP JUMPDEST POP ADD SWAP1 JUMP JUMPDEST PUSH4 0x4E487B71 PUSH1 0xE0 SHL PUSH1 0x0 MSTORE PUSH1 0x32 PUSH1 0x4 MSTORE PUSH1 0x24 PUSH1 0x0 REVERT JUMPDEST PUSH1 0x0 PUSH1 0x20 DUP3 DUP5 SUB SLT ISZERO PUSH2 0xF99 JUMPI PUSH1 0x0 DUP1 REVERT JUMPDEST DUP2 MLOAD PUSH2 0xD63 DUP2 PUSH2 0xEF8 JUMP JUMPDEST PUSH1 0x0 PUSH1 0x1 DUP3 ADD PUSH2 0xFB6 JUMPI PUSH2 0xFB6 PUSH2 0xF43 JUMP JUMPDEST POP PUSH1 0x1 ADD SWAP1 JUMP JUMPDEST PUSH1 0x0 PUSH1 0x20 DUP3 DUP5 SUB SLT ISZERO PUSH2 0xFCF JUMPI PUSH1 0x0 DUP1 REVERT JUMPDEST DUP2 MLOAD DUP1 ISZERO ISZERO DUP2 EQ PUSH2 0xD63 JUMPI PUSH1 0x0 DUP1 REVERT JUMPDEST PUSH1 0x0 DUP3 DUP3 LT ISZERO PUSH2 0xFF1 JUMPI PUSH2 0xFF1 PUSH2 0xF43 JUMP JUMPDEST POP SUB SWAP1 JUMP JUMPDEST PUSH4 0x4E487B71 PUSH1 0xE0 SHL PUSH1 0x0 MSTORE PUSH1 0x31 PUSH1 0x4 MSTORE PUSH1 0x24 PUSH1 0x0 REVERT JUMPDEST PUSH1 0x0 DUP2 PUSH1 0x0 NOT DIV DUP4 GT DUP3 ISZERO ISZERO AND ISZERO PUSH2 0x1026 JUMPI PUSH2 0x1026 PUSH2 0xF43 JUMP JUMPDEST POP MUL SWAP1 JUMP JUMPDEST PUSH1 0x0 DUP3 PUSH2 0x1048 JUMPI PUSH4 0x4E487B71 PUSH1 0xE0 SHL PUSH1 0x0 MSTORE PUSH1 0x12 PUSH1 0x4 MSTORE PUSH1 0x24 PUSH1 0x0 REVERT JUMPDEST POP DIV SWAP1 JUMP INVALID LOG2 PUSH5 0x6970667358 0x22 SLT KECCAK256 PUSH25 0x77DCD4037C10AF73F47B5172A70A118DEB91B4FF8F26B96B54 0x25 0xEC NUMBER MOD SMOD 0xEA PUSH5 0x736F6C6343 STOP ADDMOD 0xD STOP CALLER "
    },
    "gasEstimates": {
      "creation": {
        "codeDepositCost": "845400",
        "executionCost": "infinite",
        "totalCost": "infinite"
      },
      "external": {
        "claimRewards()": "infinite",
        "evolvedCamels()": "infinite",
        "oasisToken()": "infinite",
        "owner()": "2354",
        "renounceOwnership()": "infinite",
        "setRewardsPerHour(uint256)": "infinite",
        "stake(uint256[])": "infinite",
        "stakerAddress(uint256)": "2544",
        "stakers(address)": "6833",
        "stakersArray(uint256)": "4637",
        "transferOwnership(address)": "infinite",
        "userStakeInfo(address)": "infinite",
        "withdraw(uint256[])": "infinite"
      },
      "internal": {
        "availableRewards(address)": "infinite",
        "calculateRewards(address)": "infinite"
      }
    },
    "methodIdentifiers": {
      "claimRewards()": "372500ab",
      "evolvedCamels()": "81c33b93",
      "oasisToken()": "a24c4e6b",
      "owner()": "8da5cb5b",
      "renounceOwnership()": "715018a6",
      "setRewardsPerHour(uint256)": "b5a5e509",
      "stake(uint256[])": "0fbf0a93",
      "stakerAddress(uint256)": "94067045",
      "stakers(address)": "9168ae72",
      "stakersArray(uint256)": "5357e916",
      "transferOwnership(address)": "f2fde38b",
      "userStakeInfo(address)": "4ead4327",
      "withdraw(uint256[])": "983d95ce"
    }
  },
  "storageLayout": {
    "storage": [
      {
        "astId": 2000,
        "contract": "OasisStaking.sol:OasisStaking",
        "label": "_owner",
        "offset": 0,
        "slot": "0",
        "type": "t_address"
      },
      {
        "astId": 4129,
        "contract": "OasisStaking.sol:OasisStaking",
        "label": "_status",
        "offset": 0,
        "slot": "1",
        "type": "t_uint256"
      },
      {
        "astId": 1330,
        "contract": "OasisStaking.sol:OasisStaking",
        "label": "rewardsPerHour",
        "offset": 0,
        "slot": "2",
        "type": "t_uint256"
      },
      {
        "astId": 1335,
        "contract": "OasisStaking.sol:OasisStaking",
        "label": "stakers",
        "offset": 0,
        "slot": "3",
        "type": "t_mapping(t_address,t_struct(Staker)1320_storage)"
      },
      {
        "astId": 1339,
        "contract": "OasisStaking.sol:OasisStaking",
        "label": "stakerAddress",
        "offset": 0,
        "slot": "4",
        "type": "t_mapping(t_uint256,t_address)"
      },
      {
        "astId": 1342,
        "contract": "OasisStaking.sol:OasisStaking",
        "label": "stakersArray",
        "offset": 0,
        "slot": "5",
        "type": "t_array(t_address)dyn_storage"
      }
    ],
    "types": {
      "t_address": {
        "encoding": "inplace",
        "label": "address",
        "numberOfBytes": "20"
      },
      "t_array(t_address)dyn_storage": {
        "base": "t_address",
        "encoding": "dynamic_array",
        "label": "address[]",
        "numberOfBytes": "32"
      },
      "t_mapping(t_address,t_struct(Staker)1320_storage)": {
        "encoding": "mapping",
        "key": "t_address",
        "label": "mapping(address => struct OasisStaking.Staker)",
        "numberOfBytes": "32",
        "value": "t_struct(Staker)1320_storage"
      },
      "t_mapping(t_uint256,t_address)": {
        "encoding": "mapping",
        "key": "t_uint256",
        "label": "mapping(uint256 => address)",
        "numberOfBytes": "32",
        "value": "t_address"
      },
      "t_struct(Staker)1320_storage": {
        "encoding": "inplace",
        "label": "struct OasisStaking.Staker",
        "members": [
          {
            "astId": 1315,
            "contract": "OasisStaking.sol:OasisStaking",
            "label": "amountStaked",
            "offset": 0,
            "slot": "0",
            "type": "t_uint256"
          },
          {
            "astId": 1317,
            "contract": "OasisStaking.sol:OasisStaking",
            "label": "timeOfLastUpdate",
            "offset": 0,
            "slot": "1",
            "type": "t_uint256"
          },
          {
            "astId": 1319,
            "contract": "OasisStaking.sol:OasisStaking",
            "label": "unclaimedRewards",
            "offset": 0,
            "slot": "2",
            "type": "t_uint256"
          }
        ],
        "numberOfBytes": "96"
      },
      "t_uint256": {
        "encoding": "inplace",
        "label": "uint256",
        "numberOfBytes": "32"
      }
    }
  },
  "userdoc": {
    "kind": "user",
    "methods": {
      "constructor": {
        "notice": "CONSTRUCTOR ///"
      },
      "oasisToken()": {
        "notice": "STATE VARIABLES ///"
      },
      "setRewardsPerHour(uint256)": {
        "notice": "OWNER FUNCTIONS ///"
      },
      "stake(uint256[])": {
        "notice": "USER FUNCTIONS ///"
      },
      "userStakeInfo(address)": {
        "notice": "VIEW FUNCTIONS ///"
      }
    },
    "version": 1
  }
}