{
  "abi": [
    {
      "anonymous": false,
      "inputs": [
        {
          "indexed": true,
          "internalType": "address",
          "name": "previousOwner",
          "type": "address"
        },
        {
          "indexed": true,
          "internalType": "address",
          "name": "newOwner",
          "type": "address"
        }
      ],
      "name": "OwnershipTransferred",
      "type": "event"
    },
    {
      "anonymous": false,
      "inputs": [
        {
          "indexed": false,
          "internalType": "address",
          "name": "account",
          "type": "address"
        }
      ],
      "name": "Paused",
      "type": "event"
    },
    {
      "anonymous": false,
      "inputs": [
        {
          "indexed": true,
          "internalType": "address",
          "name": "buyer",
          "type": "address"
        },
        {
          "indexed": true,
          "internalType": "uint256",
          "name": "ostSpent",
          "type": "uint256"
        },
        {
          "indexed": false,
          "internalType": "uint256",
          "name": "ecId",
          "type": "uint256"
        },
        {
          "indexed": false,
          "internalType": "uint256",
          "name": "ecsLeft",
          "type": "uint256"
        }
      ],
      "name": "PurchasedEC",
      "type": "event"
    },
    {
      "anonymous": false,
      "inputs": [
        {
          "indexed": false,
          "internalType": "address",
          "name": "account",
          "type": "address"
        }
      ],
      "name": "Unpaused",
      "type": "event"
    },
    {
      "inputs": [],
      "name": "ec",
      "outputs": [
        {
          "internalType": "address",
          "name": "",
          "type": "address"
        }
      ],
      "stateMutability": "view",
      "type": "function"
    },
    {
      "inputs": [
        {
          "internalType": "uint256",
          "name": "",
          "type": "uint256"
        }
      ],
      "name": "ecTokenIds",
      "outputs": [
        {
          "internalType": "uint256",
          "name": "",
          "type": "uint256"
        }
      ],
      "stateMutability": "view",
      "type": "function"
    },
    {
      "inputs": [],
      "name": "getEcLeft",
      "outputs": [
        {
          "internalType": "uint256",
          "name": "ecsLeft_",
          "type": "uint256"
        }
      ],
      "stateMutability": "view",
      "type": "function"
    },
    {
      "inputs": [],
      "name": "getOstPricePerEc",
      "outputs": [
        {
          "internalType": "uint256",
          "name": "ostPricePerEc_",
          "type": "uint256"
        }
      ],
      "stateMutability": "view",
      "type": "function"
    },
    {
      "inputs": [],
      "name": "oasisGraveyard",
      "outputs": [
        {
          "internalType": "address",
          "name": "",
          "type": "address"
        }
      ],
      "stateMutability": "view",
      "type": "function"
    },
    {
      "inputs": [],
      "name": "ost",
      "outputs": [
        {
          "internalType": "address",
          "name": "",
          "type": "address"
        }
      ],
      "stateMutability": "view",
      "type": "function"
    },
    {
      "inputs": [],
      "name": "ostPricePerEc",
      "outputs": [
        {
          "internalType": "uint256",
          "name": "",
          "type": "uint256"
        }
      ],
      "stateMutability": "view",
      "type": "function"
    },
    {
      "inputs": [],
      "name": "owner",
      "outputs": [
        {
          "internalType": "address",
          "name": "",
          "type": "address"
        }
      ],
      "stateMutability": "view",
      "type": "function"
    },
    {
      "inputs": [],
      "name": "pause",
      "outputs": [],
      "stateMutability": "nonpayable",
      "type": "function"
    },
    {
      "inputs": [],
      "name": "paused",
      "outputs": [
        {
          "internalType": "bool",
          "name": "",
          "type": "bool"
        }
      ],
      "stateMutability": "view",
      "type": "function"
    },
    {
      "inputs": [],
      "name": "purchaseEC",
      "outputs": [],
      "stateMutability": "nonpayable",
      "type": "function"
    },
    {
      "inputs": [],
      "name": "renounceOwnership",
      "outputs": [],
      "stateMutability": "nonpayable",
      "type": "function"
    },
    {
      "inputs": [
        {
          "internalType": "address",
          "name": "_treasury",
          "type": "address"
        },
        {
          "internalType": "address",
          "name": "_ec",
          "type": "address"
        },
        {
          "internalType": "address",
          "name": "_ost",
          "type": "address"
        },
        {
          "internalType": "uint256[]",
          "name": "_ecTokenIds",
          "type": "uint256[]"
        },
        {
          "internalType": "uint256",
          "name": "_ostPricePerEc",
          "type": "uint256"
        },
        {
          "internalType": "address",
          "name": "_oasisGraveyard",
          "type": "address"
        }
      ],
      "name": "setStateVariables",
      "outputs": [],
      "stateMutability": "nonpayable",
      "type": "function"
    },
    {
      "inputs": [
        {
          "internalType": "address",
          "name": "newOwner",
          "type": "address"
        }
      ],
      "name": "transferOwnership",
      "outputs": [],
      "stateMutability": "nonpayable",
      "type": "function"
    },
    {
      "inputs": [],
      "name": "treasury",
      "outputs": [
        {
          "internalType": "address",
          "name": "",
          "type": "address"
        }
      ],
      "stateMutability": "view",
      "type": "function"
    },
    {
      "inputs": [],
      "name": "unpause",
      "outputs": [],
      "stateMutability": "nonpayable",
      "type": "function"
    }
  ],
  "devdoc": {
    "kind": "dev",
    "methods": {
      "owner()": {
        "details": "Returns the address of the current owner."
      },
      "paused()": {
        "details": "Returns true if the contract is paused, and false otherwise."
      },
      "renounceOwnership()": {
        "details": "Leaves the contract without owner. It will not be possible to call `onlyOwner` functions anymore. Can only be called by the current owner. NOTE: Renouncing ownership will leave the contract without an owner, thereby removing any functionality that is only available to the owner."
      },
      "transferOwnership(address)": {
        "details": "Transfers ownership of the contract to a new account (`newOwner`). Can only be called by the current owner."
      }
    },
    "version": 1
  },
  "evm": {
    "assembly": "    /* \"OasisShop.sol\":352:2449  contract OasisShop is Pausable, Ownable, ReentrancyGuard {... */\n  mstore(0x40, 0x80)\n  callvalue\n  dup1\n  iszero\n  tag_1\n  jumpi\n  0x00\n  dup1\n  revert\ntag_1:\n  pop\n    /* \"@openzeppelin/contracts/security/Pausable.sol\":1006:1011   */\n  0x00\n    /* \"@openzeppelin/contracts/security/Pausable.sol\":996:1011   */\n  dup1\n  sload\n  not(0xff)\n  and\n  swap1\n  sstore\n    /* \"@openzeppelin/contracts/access/Ownable.sol\":936:968   */\n  tag_7\n    /* \"@openzeppelin/contracts/utils/Context.sol\":719:729   */\n  caller\n    /* \"@openzeppelin/contracts/access/Ownable.sol\":936:954   */\n  tag_10\n    /* \"@openzeppelin/contracts/access/Ownable.sol\":936:968   */\n  jump\t// in\ntag_7:\n    /* \"@openzeppelin/contracts/security/ReentrancyGuard.sol\":1701:1702   */\n  0x01\n    /* \"@openzeppelin/contracts/security/ReentrancyGuard.sol\":1806:1828   */\n  dup1\n  sstore\n    /* \"OasisShop.sol\":352:2449  contract OasisShop is Pausable, Ownable, ReentrancyGuard {... */\n  jump(tag_12)\n    /* \"@openzeppelin/contracts/access/Ownable.sol\":2433:2620   */\ntag_10:\n    /* \"@openzeppelin/contracts/access/Ownable.sol\":2506:2522   */\n  0x00\n    /* \"@openzeppelin/contracts/access/Ownable.sol\":2525:2531   */\n  dup1\n  sload\n  sub(shl(0xa0, 0x01), 0x01)\n    /* \"@openzeppelin/contracts/access/Ownable.sol\":2541:2558   */\n  dup4\n  dup2\n  and\n    /* \"@openzeppelin/contracts/access/Ownable.sol\":2525:2531   */\n  0x0100\n    /* \"@openzeppelin/contracts/access/Ownable.sol\":2541:2558   */\n  dup2\n  dup2\n  mul\n  not(sub(shl(0xa8, 0x01), 0x0100))\n  dup6\n  and\n  or\n  dup6\n  sstore\n    /* \"@openzeppelin/contracts/access/Ownable.sol\":2573:2613   */\n  mload(0x40)\n    /* \"@openzeppelin/contracts/access/Ownable.sol\":2525:2531   */\n  swap4\n  div\n  swap2\n  swap1\n  swap2\n  and\n  swap3\n    /* \"@openzeppelin/contracts/access/Ownable.sol\":2541:2558   */\n  swap1\n  swap2\n    /* \"@openzeppelin/contracts/access/Ownable.sol\":2525:2531   */\n  dup4\n  swap2\n    /* \"@openzeppelin/contracts/access/Ownable.sol\":2573:2613   */\n  0x8be0079c531659141344cd1fd0a4f28419497f9722a3daafe3b4186f6b6457e0\n  swap2\n  log3\n    /* \"@openzeppelin/contracts/access/Ownable.sol\":2496:2620   */\n  pop\n    /* \"@openzeppelin/contracts/access/Ownable.sol\":2433:2620   */\n  pop\n  jump\t// out\n    /* \"OasisShop.sol\":352:2449  contract OasisShop is Pausable, Ownable, ReentrancyGuard {... */\ntag_12:\n  dataSize(sub_0)\n  dup1\n  dataOffset(sub_0)\n  0x00\n  codecopy\n  0x00\n  return\nstop\n\nsub_0: assembly {\n        /* \"OasisShop.sol\":352:2449  contract OasisShop is Pausable, Ownable, ReentrancyGuard {... */\n      mstore(0x40, 0x80)\n      callvalue\n      dup1\n      iszero\n      tag_1\n      jumpi\n      0x00\n      dup1\n      revert\n    tag_1:\n      pop\n      jumpi(tag_2, lt(calldatasize, 0x04))\n      shr(0xe0, calldataload(0x00))\n      dup1\n      0x8da5cb5b\n      gt\n      tag_19\n      jumpi\n      dup1\n      0xbb90edb6\n      gt\n      tag_20\n      jumpi\n      dup1\n      0xbb90edb6\n      eq\n      tag_15\n      jumpi\n      dup1\n      0xd9d8422c\n      eq\n      tag_16\n      jumpi\n      dup1\n      0xf2fde38b\n      eq\n      tag_17\n      jumpi\n      dup1\n      0xf83b5dce\n      eq\n      tag_18\n      jumpi\n      0x00\n      dup1\n      revert\n    tag_20:\n      dup1\n      0x8da5cb5b\n      eq\n      tag_11\n      jumpi\n      dup1\n      0x968bca7b\n      eq\n      tag_12\n      jumpi\n      dup1\n      0x9ff51675\n      eq\n      tag_13\n      jumpi\n      dup1\n      0xa756fdd0\n      eq\n      tag_14\n      jumpi\n      0x00\n      dup1\n      revert\n    tag_19:\n      dup1\n      0x5c975abb\n      gt\n      tag_21\n      jumpi\n      dup1\n      0x5c975abb\n      eq\n      tag_7\n      jumpi\n      dup1\n      0x61d027b3\n      eq\n      tag_8\n      jumpi\n      dup1\n      0x715018a6\n      eq\n      tag_9\n      jumpi\n      dup1\n      0x8456cb59\n      eq\n      tag_10\n      jumpi\n      0x00\n      dup1\n      revert\n    tag_21:\n      dup1\n      0x1667e9e9\n      eq\n      tag_3\n      jumpi\n      dup1\n      0x3f4ba83a\n      eq\n      tag_4\n      jumpi\n      dup1\n      0x4087d1fa\n      eq\n      tag_5\n      jumpi\n      dup1\n      0x5ad77013\n      eq\n      tag_6\n      jumpi\n    tag_2:\n      0x00\n      dup1\n      revert\n        /* \"OasisShop.sol\":1443:2211  function purchaseEC() external whenNotPaused nonReentrant {... */\n    tag_3:\n      tag_22\n      tag_23\n      jump\t// in\n    tag_22:\n      stop\n        /* \"OasisShop.sol\":874:952  function unpause() public onlyOwner nonReentrant {... */\n    tag_4:\n      tag_22\n      tag_25\n      jump\t// in\n        /* \"OasisShop.sol\":2332:2446  function getOstPricePerEc() external view returns (uint256 ostPricePerEc_) {... */\n    tag_5:\n        /* \"OasisShop.sol\":2425:2438  ostPricePerEc */\n      sload(0x06)\n        /* \"OasisShop.sol\":2332:2446  function getOstPricePerEc() external view returns (uint256 ostPricePerEc_) {... */\n    tag_26:\n      mload(0x40)\n        /* \"#utility.yul\":160:185   */\n      swap1\n      dup2\n      mstore\n        /* \"#utility.yul\":148:150   */\n      0x20\n        /* \"#utility.yul\":133:151   */\n      add\n        /* \"OasisShop.sol\":2332:2446  function getOstPricePerEc() external view returns (uint256 ostPricePerEc_) {... */\n    tag_28:\n      mload(0x40)\n      dup1\n      swap2\n      sub\n      swap1\n      return\n        /* \"OasisShop.sol\":560:588  uint256 public ostPricePerEc */\n    tag_6:\n      tag_26\n      sload(0x06)\n      dup2\n      jump\n        /* \"@openzeppelin/contracts/security/Pausable.sol\":1615:1699   */\n    tag_7:\n        /* \"@openzeppelin/contracts/security/Pausable.sol\":1662:1666   */\n      0x00\n        /* \"@openzeppelin/contracts/security/Pausable.sol\":1685:1692   */\n      sload\n      0xff\n      and\n        /* \"@openzeppelin/contracts/security/Pausable.sol\":1615:1699   */\n      mload(0x40)\n        /* \"#utility.yul\":361:375   */\n      swap1\n      iszero\n        /* \"#utility.yul\":354:376   */\n      iszero\n        /* \"#utility.yul\":336:377   */\n      dup2\n      mstore\n        /* \"#utility.yul\":324:326   */\n      0x20\n        /* \"#utility.yul\":309:327   */\n      add\n        /* \"@openzeppelin/contracts/security/Pausable.sol\":1615:1699   */\n      tag_28\n        /* \"#utility.yul\":196:383   */\n      jump\n        /* \"OasisShop.sol\":447:470  address public treasury */\n    tag_8:\n      sload(0x02)\n      tag_37\n      swap1\n      sub(shl(0xa0, 0x01), 0x01)\n      and\n      dup2\n      jump\n    tag_37:\n      mload(0x40)\n      sub(shl(0xa0, 0x01), 0x01)\n        /* \"#utility.yul\":552:607   */\n      swap1\n      swap2\n      and\n        /* \"#utility.yul\":534:608   */\n      dup2\n      mstore\n        /* \"#utility.yul\":522:524   */\n      0x20\n        /* \"#utility.yul\":507:525   */\n      add\n        /* \"OasisShop.sol\":447:470  address public treasury */\n      tag_28\n        /* \"#utility.yul\":388:614   */\n      jump\n        /* \"@openzeppelin/contracts/access/Ownable.sol\":1831:1932   */\n    tag_9:\n      tag_22\n      tag_42\n      jump\t// in\n        /* \"OasisShop.sol\":792:866  function pause() public onlyOwner nonReentrant {... */\n    tag_10:\n      tag_22\n      tag_44\n      jump\t// in\n        /* \"@openzeppelin/contracts/access/Ownable.sol\":1201:1286   */\n    tag_11:\n        /* \"@openzeppelin/contracts/access/Ownable.sol\":1247:1254   */\n      0x00\n        /* \"@openzeppelin/contracts/access/Ownable.sol\":1273:1279   */\n      sload\n      0x0100\n      swap1\n      div\n      sub(shl(0xa0, 0x01), 0x01)\n      and\n        /* \"@openzeppelin/contracts/access/Ownable.sol\":1201:1286   */\n      jump(tag_37)\n        /* \"OasisShop.sol\":526:553  uint256[] public ecTokenIds */\n    tag_12:\n      tag_26\n      tag_49\n      calldatasize\n      0x04\n      tag_50\n      jump\t// in\n    tag_49:\n      tag_51\n      jump\t// in\n        /* \"OasisShop.sol\":595:624  address public oasisGraveyard */\n    tag_13:\n      sload(0x07)\n      tag_37\n      swap1\n      sub(shl(0xa0, 0x01), 0x01)\n      and\n      dup2\n      jump\n        /* \"OasisShop.sol\":501:519  address public ost */\n    tag_14:\n      sload(0x04)\n      tag_37\n      swap1\n      sub(shl(0xa0, 0x01), 0x01)\n      and\n      dup2\n      jump\n        /* \"OasisShop.sol\":2219:2324  function getEcLeft() external view returns (uint256 ecsLeft_) {... */\n    tag_15:\n        /* \"OasisShop.sol\":2299:2309  ecTokenIds */\n      0x05\n        /* \"OasisShop.sol\":2299:2316  ecTokenIds.length */\n      sload\n        /* \"OasisShop.sol\":2219:2324  function getEcLeft() external view returns (uint256 ecsLeft_) {... */\n      jump(tag_26)\n        /* \"OasisShop.sol\":960:1401  function setStateVariables(... */\n    tag_16:\n      tag_22\n      tag_63\n      calldatasize\n      0x04\n      tag_64\n      jump\t// in\n    tag_63:\n      tag_65\n      jump\t// in\n        /* \"@openzeppelin/contracts/access/Ownable.sol\":2081:2279   */\n    tag_17:\n      tag_22\n      tag_67\n      calldatasize\n      0x04\n      tag_68\n      jump\t// in\n    tag_67:\n      tag_69\n      jump\t// in\n        /* \"OasisShop.sol\":477:494  address public ec */\n    tag_18:\n      sload(0x03)\n      tag_37\n      swap1\n      sub(shl(0xa0, 0x01), 0x01)\n      and\n      dup2\n      jump\n        /* \"OasisShop.sol\":1443:2211  function purchaseEC() external whenNotPaused nonReentrant {... */\n    tag_23:\n        /* \"@openzeppelin/contracts/security/Pausable.sol\":1239:1258   */\n      tag_74\n        /* \"@openzeppelin/contracts/security/Pausable.sol\":1239:1256   */\n      tag_75\n        /* \"@openzeppelin/contracts/security/Pausable.sol\":1239:1258   */\n      jump\t// in\n    tag_74:\n        /* \"@openzeppelin/contracts/security/ReentrancyGuard.sol\":1744:1745   */\n      0x02\n        /* \"@openzeppelin/contracts/security/ReentrancyGuard.sol\":2325:2332   */\n      sload(0x01)\n        /* \"@openzeppelin/contracts/security/ReentrancyGuard.sol\":2325:2344   */\n      sub\n        /* \"@openzeppelin/contracts/security/ReentrancyGuard.sol\":2317:2380   */\n      tag_77\n      jumpi\n      mload(0x40)\n      shl(0xe5, 0x461bcd)\n      dup2\n      mstore\n        /* \"#utility.yul\":3017:3019   */\n      0x20\n        /* \"@openzeppelin/contracts/security/ReentrancyGuard.sol\":2317:2380   */\n      0x04\n      dup3\n      add\n        /* \"#utility.yul\":2999:3020   */\n      mstore\n        /* \"#utility.yul\":3056:3058   */\n      0x1f\n        /* \"#utility.yul\":3036:3054   */\n      0x24\n      dup3\n      add\n        /* \"#utility.yul\":3029:3059   */\n      mstore\n        /* \"#utility.yul\":3095:3128   */\n      0x5265656e7472616e637947756172643a207265656e7472616e742063616c6c00\n        /* \"#utility.yul\":3075:3093   */\n      0x44\n      dup3\n      add\n        /* \"#utility.yul\":3068:3129   */\n      mstore\n        /* \"#utility.yul\":3146:3164   */\n      0x64\n      add\n        /* \"@openzeppelin/contracts/security/ReentrancyGuard.sol\":2317:2380   */\n    tag_78:\n      mload(0x40)\n      dup1\n      swap2\n      sub\n      swap1\n      revert\n    tag_77:\n        /* \"@openzeppelin/contracts/security/ReentrancyGuard.sol\":1744:1745   */\n      0x02\n        /* \"@openzeppelin/contracts/security/ReentrancyGuard.sol\":2455:2462   */\n      0x01\n        /* \"@openzeppelin/contracts/security/ReentrancyGuard.sol\":2455:2473   */\n      swap1\n      dup2\n      sstore\n        /* \"OasisShop.sol\":1516:1526  ecTokenIds */\n      0x05\n        /* \"OasisShop.sol\":1516:1533  ecTokenIds.length */\n      sload\n        /* \"OasisShop.sol\":1516:1537  ecTokenIds.length < 1 */\n      lt\n        /* \"OasisShop.sol\":1512:1574  if (ecTokenIds.length < 1) revert(\"No available EC Token Ids\") */\n      iszero\n      tag_81\n      jumpi\n        /* \"OasisShop.sol\":1539:1574  revert(\"No available EC Token Ids\") */\n      mload(0x40)\n      shl(0xe5, 0x461bcd)\n      dup2\n      mstore\n        /* \"#utility.yul\":3377:3379   */\n      0x20\n        /* \"OasisShop.sol\":1539:1574  revert(\"No available EC Token Ids\") */\n      0x04\n      dup3\n      add\n        /* \"#utility.yul\":3359:3380   */\n      mstore\n        /* \"#utility.yul\":3416:3418   */\n      0x19\n        /* \"#utility.yul\":3396:3414   */\n      0x24\n      dup3\n      add\n        /* \"#utility.yul\":3389:3419   */\n      mstore\n        /* \"#utility.yul\":3455:3482   */\n      0x4e6f20617661696c61626c6520454320546f6b656e2049647300000000000000\n        /* \"#utility.yul\":3435:3453   */\n      0x44\n      dup3\n      add\n        /* \"#utility.yul\":3428:3483   */\n      mstore\n        /* \"#utility.yul\":3500:3518   */\n      0x64\n      add\n        /* \"OasisShop.sol\":1539:1574  revert(\"No available EC Token Ids\") */\n      tag_78\n        /* \"#utility.yul\":3175:3524   */\n      jump\n        /* \"OasisShop.sol\":1512:1574  if (ecTokenIds.length < 1) revert(\"No available EC Token Ids\") */\n    tag_81:\n        /* \"OasisShop.sol\":1597:1599  ec */\n      sload(0x03)\n        /* \"OasisShop.sol\":1611:1619  treasury */\n      sload(0x02)\n        /* \"OasisShop.sol\":1589:1620  IERC721(ec).balanceOf(treasury) */\n      mload(0x40)\n      shl(0xe0, 0x70a08231)\n      dup2\n      mstore\n      sub(shl(0xa0, 0x01), 0x01)\n        /* \"OasisShop.sol\":1611:1619  treasury */\n      swap2\n      dup3\n      and\n        /* \"OasisShop.sol\":1589:1620  IERC721(ec).balanceOf(treasury) */\n      0x04\n      dup3\n      add\n        /* \"#utility.yul\":534:608   */\n      mstore\n        /* \"OasisShop.sol\":1623:1624  1 */\n      0x01\n      swap3\n        /* \"OasisShop.sol\":1597:1599  ec */\n      swap2\n      swap1\n      swap2\n      and\n      swap1\n        /* \"OasisShop.sol\":1589:1610  IERC721(ec).balanceOf */\n      0x70a08231\n      swap1\n        /* \"#utility.yul\":507:525   */\n      0x24\n      add\n        /* \"OasisShop.sol\":1589:1620  IERC721(ec).balanceOf(treasury) */\n      0x20\n      mload(0x40)\n      dup1\n      dup4\n      sub\n      dup2\n      dup7\n      gas\n      staticcall\n      iszero\n      dup1\n      iszero\n      tag_86\n      jumpi\n      returndatasize\n      0x00\n      dup1\n      returndatacopy\n      revert(0x00, returndatasize)\n    tag_86:\n      pop\n      pop\n      pop\n      pop\n      mload(0x40)\n      returndatasize\n      not(0x1f)\n      0x1f\n      dup3\n      add\n      and\n      dup3\n      add\n      dup1\n      0x40\n      mstore\n      pop\n      dup2\n      add\n      swap1\n      tag_87\n      swap2\n      swap1\n      tag_88\n      jump\t// in\n    tag_87:\n        /* \"OasisShop.sol\":1589:1624  IERC721(ec).balanceOf(treasury) < 1 */\n      lt\n        /* \"OasisShop.sol\":1585:1655  if (IERC721(ec).balanceOf(treasury) < 1) revert(\"Treasury has no ECs\") */\n      iszero\n      tag_89\n      jumpi\n        /* \"OasisShop.sol\":1626:1655  revert(\"Treasury has no ECs\") */\n      mload(0x40)\n      shl(0xe5, 0x461bcd)\n      dup2\n      mstore\n        /* \"#utility.yul\":3920:3922   */\n      0x20\n        /* \"OasisShop.sol\":1626:1655  revert(\"Treasury has no ECs\") */\n      0x04\n      dup3\n      add\n        /* \"#utility.yul\":3902:3923   */\n      mstore\n        /* \"#utility.yul\":3959:3961   */\n      0x13\n        /* \"#utility.yul\":3939:3957   */\n      0x24\n      dup3\n      add\n        /* \"#utility.yul\":3932:3962   */\n      mstore\n        /* \"#utility.yul\":3998:4019   */\n      0x547265617375727920686173206e6f2045437300000000000000000000000000\n        /* \"#utility.yul\":3978:3996   */\n      0x44\n      dup3\n      add\n        /* \"#utility.yul\":3971:4020   */\n      mstore\n        /* \"#utility.yul\":4037:4055   */\n      0x64\n      add\n        /* \"OasisShop.sol\":1626:1655  revert(\"Treasury has no ECs\") */\n      tag_78\n        /* \"#utility.yul\":3718:4061   */\n      jump\n        /* \"OasisShop.sol\":1585:1655  if (IERC721(ec).balanceOf(treasury) < 1) revert(\"Treasury has no ECs\") */\n    tag_89:\n        /* \"OasisShop.sol\":1706:1719  ostPricePerEc */\n      sload(0x06)\n        /* \"OasisShop.sol\":1677:1680  ost */\n      0x04\n      dup1\n      sload\n        /* \"OasisShop.sol\":1670:1703  IERC20(ost).balanceOf(msg.sender) */\n      mload(0x40)\n      shl(0xe0, 0x70a08231)\n      dup2\n      mstore\n        /* \"OasisShop.sol\":1692:1702  msg.sender */\n      caller\n        /* \"OasisShop.sol\":1670:1703  IERC20(ost).balanceOf(msg.sender) */\n      swap3\n      dup2\n      add\n        /* \"#utility.yul\":534:608   */\n      swap3\n      swap1\n      swap3\n      mstore\n      sub(shl(0xa0, 0x01), 0x01)\n        /* \"OasisShop.sol\":1677:1680  ost */\n      and\n      swap1\n        /* \"OasisShop.sol\":1670:1691  IERC20(ost).balanceOf */\n      0x70a08231\n      swap1\n        /* \"#utility.yul\":507:525   */\n      0x24\n      add\n        /* \"OasisShop.sol\":1670:1703  IERC20(ost).balanceOf(msg.sender) */\n      0x20\n      mload(0x40)\n      dup1\n      dup4\n      sub\n      dup2\n      dup7\n      gas\n      staticcall\n      iszero\n      dup1\n      iszero\n      tag_94\n      jumpi\n      returndatasize\n      0x00\n      dup1\n      returndatacopy\n      revert(0x00, returndatasize)\n    tag_94:\n      pop\n      pop\n      pop\n      pop\n      mload(0x40)\n      returndatasize\n      not(0x1f)\n      0x1f\n      dup3\n      add\n      and\n      dup3\n      add\n      dup1\n      0x40\n      mstore\n      pop\n      dup2\n      add\n      swap1\n      tag_95\n      swap2\n      swap1\n      tag_88\n      jump\t// in\n    tag_95:\n        /* \"OasisShop.sol\":1670:1719  IERC20(ost).balanceOf(msg.sender) < ostPricePerEc */\n      lt\n        /* \"OasisShop.sol\":1666:1753  if (IERC20(ost).balanceOf(msg.sender) < ostPricePerEc) revert(\"Not Enough $OST Tokens\") */\n      iszero\n      tag_96\n      jumpi\n        /* \"OasisShop.sol\":1721:1753  revert(\"Not Enough $OST Tokens\") */\n      mload(0x40)\n      shl(0xe5, 0x461bcd)\n      dup2\n      mstore\n        /* \"#utility.yul\":4268:4270   */\n      0x20\n        /* \"OasisShop.sol\":1721:1753  revert(\"Not Enough $OST Tokens\") */\n      0x04\n      dup3\n      add\n        /* \"#utility.yul\":4250:4271   */\n      mstore\n        /* \"#utility.yul\":4307:4309   */\n      0x16\n        /* \"#utility.yul\":4287:4305   */\n      0x24\n      dup3\n      add\n        /* \"#utility.yul\":4280:4310   */\n      mstore\n        /* \"#utility.yul\":4346:4370   */\n      0x4e6f7420456e6f75676820244f535420546f6b656e7300000000000000000000\n        /* \"#utility.yul\":4326:4344   */\n      0x44\n      dup3\n      add\n        /* \"#utility.yul\":4319:4371   */\n      mstore\n        /* \"#utility.yul\":4388:4406   */\n      0x64\n      add\n        /* \"OasisShop.sol\":1721:1753  revert(\"Not Enough $OST Tokens\") */\n      tag_78\n        /* \"#utility.yul\":4066:4412   */\n      jump\n        /* \"OasisShop.sol\":1666:1753  if (IERC20(ost).balanceOf(msg.sender) < ostPricePerEc) revert(\"Not Enough $OST Tokens\") */\n    tag_96:\n        /* \"OasisShop.sol\":1788:1798  ecTokenIds */\n      0x05\n        /* \"OasisShop.sol\":1799:1816  ecTokenIds.length */\n      dup1\n      sload\n        /* \"OasisShop.sol\":1766:1785  uint256 lastTokenId */\n      0x00\n      swap2\n        /* \"OasisShop.sol\":1788:1798  ecTokenIds */\n      swap1\n        /* \"OasisShop.sol\":1799:1820  ecTokenIds.length - 1 */\n      tag_99\n      swap1\n        /* \"OasisShop.sol\":1819:1820  1 */\n      0x01\n      swap1\n        /* \"OasisShop.sol\":1799:1820  ecTokenIds.length - 1 */\n      tag_100\n      jump\t// in\n    tag_99:\n        /* \"OasisShop.sol\":1788:1821  ecTokenIds[ecTokenIds.length - 1] */\n      dup2\n      sload\n      dup2\n      lt\n      tag_102\n      jumpi\n      tag_102\n      tag_103\n      jump\t// in\n    tag_102:\n      0x00\n      swap2\n      dup3\n      mstore\n      0x20\n      swap1\n      swap2\n      keccak256\n      add\n      sload\n        /* \"OasisShop.sol\":1889:1902  ostPricePerEc */\n      sload(0x06)\n        /* \"OasisShop.sol\":1845:1848  ost */\n      0x04\n      dup1\n      sload\n        /* \"OasisShop.sol\":1838:1886  IERC20(ost).allowance(msg.sender, address(this)) */\n      mload(0x40)\n      shl(0xe1, 0x6eb1769f)\n      dup2\n      mstore\n        /* \"OasisShop.sol\":1860:1870  msg.sender */\n      caller\n        /* \"OasisShop.sol\":1838:1886  IERC20(ost).allowance(msg.sender, address(this)) */\n      swap3\n      dup2\n      add\n        /* \"#utility.yul\":5011:5045   */\n      swap3\n      swap1\n      swap3\n      mstore\n        /* \"OasisShop.sol\":1880:1884  this */\n      address\n        /* \"#utility.yul\":5061:5079   */\n      0x24\n      dup4\n      add\n        /* \"#utility.yul\":5054:5097   */\n      mstore\n        /* \"OasisShop.sol\":1788:1821  ecTokenIds[ecTokenIds.length - 1] */\n      swap3\n      swap4\n      pop\n        /* \"OasisShop.sol\":1889:1902  ostPricePerEc */\n      swap1\n      swap2\n      sub(shl(0xa0, 0x01), 0x01)\n        /* \"OasisShop.sol\":1845:1848  ost */\n      and\n      swap1\n        /* \"OasisShop.sol\":1838:1859  IERC20(ost).allowance */\n      0xdd62ed3e\n      swap1\n        /* \"#utility.yul\":4923:4941   */\n      0x44\n      add\n        /* \"OasisShop.sol\":1838:1886  IERC20(ost).allowance(msg.sender, address(this)) */\n      0x20\n      mload(0x40)\n      dup1\n      dup4\n      sub\n      dup2\n      dup7\n      gas\n      staticcall\n      iszero\n      dup1\n      iszero\n      tag_108\n      jumpi\n      returndatasize\n      0x00\n      dup1\n      returndatacopy\n      revert(0x00, returndatasize)\n    tag_108:\n      pop\n      pop\n      pop\n      pop\n      mload(0x40)\n      returndatasize\n      not(0x1f)\n      0x1f\n      dup3\n      add\n      and\n      dup3\n      add\n      dup1\n      0x40\n      mstore\n      pop\n      dup2\n      add\n      swap1\n      tag_109\n      swap2\n      swap1\n      tag_88\n      jump\t// in\n    tag_109:\n        /* \"OasisShop.sol\":1838:1902  IERC20(ost).allowance(msg.sender, address(this)) < ostPricePerEc */\n      lt\n        /* \"OasisShop.sol\":1834:1938  if (IERC20(ost).allowance(msg.sender, address(this)) < ostPricePerEc) revert(\"Not enough OST allowance\") */\n      iszero\n      tag_110\n      jumpi\n        /* \"OasisShop.sol\":1904:1938  revert(\"Not enough OST allowance\") */\n      mload(0x40)\n      shl(0xe5, 0x461bcd)\n      dup2\n      mstore\n        /* \"#utility.yul\":5310:5312   */\n      0x20\n        /* \"OasisShop.sol\":1904:1938  revert(\"Not enough OST allowance\") */\n      0x04\n      dup3\n      add\n        /* \"#utility.yul\":5292:5313   */\n      mstore\n        /* \"#utility.yul\":5349:5351   */\n      0x18\n        /* \"#utility.yul\":5329:5347   */\n      0x24\n      dup3\n      add\n        /* \"#utility.yul\":5322:5352   */\n      mstore\n        /* \"#utility.yul\":5388:5414   */\n      0x4e6f7420656e6f756768204f535420616c6c6f77616e63650000000000000000\n        /* \"#utility.yul\":5368:5386   */\n      0x44\n      dup3\n      add\n        /* \"#utility.yul\":5361:5415   */\n      mstore\n        /* \"#utility.yul\":5432:5450   */\n      0x64\n      add\n        /* \"OasisShop.sol\":1904:1938  revert(\"Not enough OST allowance\") */\n      tag_78\n        /* \"#utility.yul\":5108:5456   */\n      jump\n        /* \"OasisShop.sol\":1834:1938  if (IERC20(ost).allowance(msg.sender, address(this)) < ostPricePerEc) revert(\"Not enough OST allowance\") */\n    tag_110:\n        /* \"OasisShop.sol\":1956:1959  ost */\n      0x04\n      dup1\n      sload\n        /* \"OasisShop.sol\":1986:2000  oasisGraveyard */\n      sload(0x07)\n        /* \"OasisShop.sol\":2002:2015  ostPricePerEc */\n      sload(0x06)\n        /* \"OasisShop.sol\":1949:2016  IERC20(ost).transferFrom(msg.sender, oasisGraveyard, ostPricePerEc) */\n      mload(0x40)\n      shl(0xe0, 0x23b872dd)\n      dup2\n      mstore\n        /* \"OasisShop.sol\":1974:1984  msg.sender */\n      caller\n        /* \"OasisShop.sol\":1949:2016  IERC20(ost).transferFrom(msg.sender, oasisGraveyard, ostPricePerEc) */\n      swap5\n      dup2\n      add\n        /* \"#utility.yul\":5724:5758   */\n      swap5\n      swap1\n      swap5\n      mstore\n      sub(shl(0xa0, 0x01), 0x01)\n        /* \"OasisShop.sol\":1986:2000  oasisGraveyard */\n      swap2\n      dup3\n      and\n        /* \"#utility.yul\":5774:5792   */\n      0x24\n      dup6\n      add\n        /* \"#utility.yul\":5767:5810   */\n      mstore\n        /* \"#utility.yul\":5826:5844   */\n      0x44\n      dup5\n      add\n        /* \"#utility.yul\":5819:5853   */\n      mstore\n        /* \"OasisShop.sol\":1956:1959  ost */\n      and\n      swap1\n        /* \"OasisShop.sol\":1949:1973  IERC20(ost).transferFrom */\n      0x23b872dd\n      swap1\n        /* \"#utility.yul\":5636:5654   */\n      0x64\n      add\n        /* \"OasisShop.sol\":1949:2016  IERC20(ost).transferFrom(msg.sender, oasisGraveyard, ostPricePerEc) */\n      0x20\n      mload(0x40)\n      dup1\n      dup4\n      sub\n      dup2\n      0x00\n      dup8\n      gas\n      call\n      iszero\n      dup1\n      iszero\n      tag_116\n      jumpi\n      returndatasize\n      0x00\n      dup1\n      returndatacopy\n      revert(0x00, returndatasize)\n    tag_116:\n      pop\n      pop\n      pop\n      pop\n      mload(0x40)\n      returndatasize\n      not(0x1f)\n      0x1f\n      dup3\n      add\n      and\n      dup3\n      add\n      dup1\n      0x40\n      mstore\n      pop\n      dup2\n      add\n      swap1\n      tag_117\n      swap2\n      swap1\n      tag_118\n      jump\t// in\n    tag_117:\n      pop\n        /* \"OasisShop.sol\":2037:2039  ec */\n      sload(0x03)\n        /* \"OasisShop.sol\":2054:2062  treasury */\n      sload(0x02)\n        /* \"OasisShop.sol\":2029:2088  IERC721(ec).transferFrom(treasury, msg.sender, lastTokenId) */\n      mload(0x40)\n      shl(0xe0, 0x23b872dd)\n      dup2\n      mstore\n      sub(shl(0xa0, 0x01), 0x01)\n        /* \"OasisShop.sol\":2054:2062  treasury */\n      swap2\n      dup3\n      and\n        /* \"OasisShop.sol\":2029:2088  IERC721(ec).transferFrom(treasury, msg.sender, lastTokenId) */\n      0x04\n      dup3\n      add\n        /* \"#utility.yul\":5724:5758   */\n      mstore\n        /* \"OasisShop.sol\":2064:2074  msg.sender */\n      caller\n        /* \"#utility.yul\":5774:5792   */\n      0x24\n      dup3\n      add\n        /* \"#utility.yul\":5767:5810   */\n      mstore\n        /* \"#utility.yul\":5826:5844   */\n      0x44\n      dup2\n      add\n        /* \"#utility.yul\":5819:5853   */\n      dup5\n      swap1\n      mstore\n        /* \"OasisShop.sol\":2037:2039  ec */\n      swap2\n      and\n      swap1\n        /* \"OasisShop.sol\":2029:2053  IERC721(ec).transferFrom */\n      0x23b872dd\n      swap1\n        /* \"#utility.yul\":5636:5654   */\n      0x64\n      add\n        /* \"OasisShop.sol\":2029:2088  IERC721(ec).transferFrom(treasury, msg.sender, lastTokenId) */\n      0x00\n      mload(0x40)\n      dup1\n      dup4\n      sub\n      dup2\n      0x00\n      dup8\n      dup1\n      extcodesize\n      iszero\n      dup1\n      iszero\n      tag_120\n      jumpi\n      0x00\n      dup1\n      revert\n    tag_120:\n      pop\n      gas\n      call\n      iszero\n      dup1\n      iszero\n      tag_122\n      jumpi\n      returndatasize\n      0x00\n      dup1\n      returndatacopy\n      revert(0x00, returndatasize)\n    tag_122:\n      pop\n      pop\n      pop\n      pop\n        /* \"OasisShop.sol\":2099:2109  ecTokenIds */\n      0x05\n        /* \"OasisShop.sol\":2099:2115  ecTokenIds.pop() */\n      dup1\n      sload\n      dup1\n      tag_124\n      jumpi\n      tag_124\n      tag_125\n      jump\t// in\n    tag_124:\n      0x00\n      dup3\n      dup2\n      mstore\n      0x20\n      dup2\n      keccak256\n      dup3\n      add\n      not(0x00)\n      swap1\n      dup2\n      add\n      swap2\n      swap1\n      swap2\n      sstore\n      add\n      swap1\n      sstore\n        /* \"OasisShop.sol\":2157:2170  ostPricePerEc */\n      sload(0x06)\n        /* \"OasisShop.sol\":2185:2195  ecTokenIds */\n      0x05\n        /* \"OasisShop.sol\":2185:2202  ecTokenIds.length */\n      sload\n        /* \"OasisShop.sol\":2133:2203  PurchasedEC(msg.sender, ostPricePerEc, lastTokenId, ecTokenIds.length) */\n      mload(0x40)\n        /* \"OasisShop.sol\":2145:2155  msg.sender */\n      caller\n      swap2\n        /* \"OasisShop.sol\":2133:2203  PurchasedEC(msg.sender, ostPricePerEc, lastTokenId, ecTokenIds.length) */\n      0xc3d823b0fd39622c70d38dfecc16e12ed37a78328fa6236acf1f379b35fb060d\n      swap2\n      tag_127\n      swap2\n        /* \"OasisShop.sol\":2172:2183  lastTokenId */\n      dup7\n        /* \"#utility.yul\":6452:6477   */\n      dup3\n      mstore\n        /* \"#utility.yul\":6508:6510   */\n      0x20\n        /* \"#utility.yul\":6493:6511   */\n      dup3\n      add\n        /* \"#utility.yul\":6486:6520   */\n      mstore\n        /* \"#utility.yul\":6440:6442   */\n      0x40\n        /* \"#utility.yul\":6425:6443   */\n      add\n      swap1\n        /* \"#utility.yul\":6278:6526   */\n      jump\n        /* \"OasisShop.sol\":2133:2203  PurchasedEC(msg.sender, ostPricePerEc, lastTokenId, ecTokenIds.length) */\n    tag_127:\n      mload(0x40)\n      dup1\n      swap2\n      sub\n      swap1\n      log3\n      pop\n        /* \"@openzeppelin/contracts/security/ReentrancyGuard.sol\":1701:1702   */\n      0x01\n        /* \"@openzeppelin/contracts/security/ReentrancyGuard.sol\":2628:2650   */\n      dup1\n      sstore\n        /* \"OasisShop.sol\":1443:2211  function purchaseEC() external whenNotPaused nonReentrant {... */\n      jump\t// out\n        /* \"OasisShop.sol\":874:952  function unpause() public onlyOwner nonReentrant {... */\n    tag_25:\n        /* \"@openzeppelin/contracts/access/Ownable.sol\":1094:1107   */\n      tag_130\n        /* \"@openzeppelin/contracts/access/Ownable.sol\":1094:1105   */\n      tag_131\n        /* \"@openzeppelin/contracts/access/Ownable.sol\":1094:1107   */\n      jump\t// in\n    tag_130:\n        /* \"@openzeppelin/contracts/security/ReentrancyGuard.sol\":1744:1745   */\n      0x02\n        /* \"@openzeppelin/contracts/security/ReentrancyGuard.sol\":2325:2332   */\n      sload(0x01)\n        /* \"@openzeppelin/contracts/security/ReentrancyGuard.sol\":2325:2344   */\n      sub\n        /* \"@openzeppelin/contracts/security/ReentrancyGuard.sol\":2317:2380   */\n      tag_133\n      jumpi\n      mload(0x40)\n      shl(0xe5, 0x461bcd)\n      dup2\n      mstore\n        /* \"#utility.yul\":3017:3019   */\n      0x20\n        /* \"@openzeppelin/contracts/security/ReentrancyGuard.sol\":2317:2380   */\n      0x04\n      dup3\n      add\n        /* \"#utility.yul\":2999:3020   */\n      mstore\n        /* \"#utility.yul\":3056:3058   */\n      0x1f\n        /* \"#utility.yul\":3036:3054   */\n      0x24\n      dup3\n      add\n        /* \"#utility.yul\":3029:3059   */\n      mstore\n        /* \"#utility.yul\":3095:3128   */\n      0x5265656e7472616e637947756172643a207265656e7472616e742063616c6c00\n        /* \"#utility.yul\":3075:3093   */\n      0x44\n      dup3\n      add\n        /* \"#utility.yul\":3068:3129   */\n      mstore\n        /* \"#utility.yul\":3146:3164   */\n      0x64\n      add\n        /* \"@openzeppelin/contracts/security/ReentrancyGuard.sol\":2317:2380   */\n      tag_78\n        /* \"#utility.yul\":2815:3170   */\n      jump\n        /* \"@openzeppelin/contracts/security/ReentrancyGuard.sol\":2317:2380   */\n    tag_133:\n        /* \"@openzeppelin/contracts/security/ReentrancyGuard.sol\":1744:1745   */\n      0x02\n        /* \"@openzeppelin/contracts/security/ReentrancyGuard.sol\":2455:2462   */\n      0x01\n        /* \"@openzeppelin/contracts/security/ReentrancyGuard.sol\":2455:2473   */\n      sstore\n        /* \"OasisShop.sol\":934:944  _unpause() */\n      tag_136\n        /* \"OasisShop.sol\":934:942  _unpause */\n      tag_137\n        /* \"OasisShop.sol\":934:944  _unpause() */\n      jump\t// in\n    tag_136:\n        /* \"@openzeppelin/contracts/security/ReentrancyGuard.sol\":1701:1702   */\n      0x01\n        /* \"@openzeppelin/contracts/security/ReentrancyGuard.sol\":2628:2650   */\n      dup1\n      sstore\n        /* \"OasisShop.sol\":874:952  function unpause() public onlyOwner nonReentrant {... */\n      jump\t// out\n        /* \"@openzeppelin/contracts/access/Ownable.sol\":1831:1932   */\n    tag_42:\n        /* \"@openzeppelin/contracts/access/Ownable.sol\":1094:1107   */\n      tag_141\n        /* \"@openzeppelin/contracts/access/Ownable.sol\":1094:1105   */\n      tag_131\n        /* \"@openzeppelin/contracts/access/Ownable.sol\":1094:1107   */\n      jump\t// in\n    tag_141:\n        /* \"@openzeppelin/contracts/access/Ownable.sol\":1895:1925   */\n      tag_143\n        /* \"@openzeppelin/contracts/access/Ownable.sol\":1922:1923   */\n      0x00\n        /* \"@openzeppelin/contracts/access/Ownable.sol\":1895:1913   */\n      tag_144\n        /* \"@openzeppelin/contracts/access/Ownable.sol\":1895:1925   */\n      jump\t// in\n    tag_143:\n        /* \"@openzeppelin/contracts/access/Ownable.sol\":1831:1932   */\n      jump\t// out\n        /* \"OasisShop.sol\":792:866  function pause() public onlyOwner nonReentrant {... */\n    tag_44:\n        /* \"@openzeppelin/contracts/access/Ownable.sol\":1094:1107   */\n      tag_146\n        /* \"@openzeppelin/contracts/access/Ownable.sol\":1094:1105   */\n      tag_131\n        /* \"@openzeppelin/contracts/access/Ownable.sol\":1094:1107   */\n      jump\t// in\n    tag_146:\n        /* \"@openzeppelin/contracts/security/ReentrancyGuard.sol\":1744:1745   */\n      0x02\n        /* \"@openzeppelin/contracts/security/ReentrancyGuard.sol\":2325:2332   */\n      sload(0x01)\n        /* \"@openzeppelin/contracts/security/ReentrancyGuard.sol\":2325:2344   */\n      sub\n        /* \"@openzeppelin/contracts/security/ReentrancyGuard.sol\":2317:2380   */\n      tag_148\n      jumpi\n      mload(0x40)\n      shl(0xe5, 0x461bcd)\n      dup2\n      mstore\n        /* \"#utility.yul\":3017:3019   */\n      0x20\n        /* \"@openzeppelin/contracts/security/ReentrancyGuard.sol\":2317:2380   */\n      0x04\n      dup3\n      add\n        /* \"#utility.yul\":2999:3020   */\n      mstore\n        /* \"#utility.yul\":3056:3058   */\n      0x1f\n        /* \"#utility.yul\":3036:3054   */\n      0x24\n      dup3\n      add\n        /* \"#utility.yul\":3029:3059   */\n      mstore\n        /* \"#utility.yul\":3095:3128   */\n      0x5265656e7472616e637947756172643a207265656e7472616e742063616c6c00\n        /* \"#utility.yul\":3075:3093   */\n      0x44\n      dup3\n      add\n        /* \"#utility.yul\":3068:3129   */\n      mstore\n        /* \"#utility.yul\":3146:3164   */\n      0x64\n      add\n        /* \"@openzeppelin/contracts/security/ReentrancyGuard.sol\":2317:2380   */\n      tag_78\n        /* \"#utility.yul\":2815:3170   */\n      jump\n        /* \"@openzeppelin/contracts/security/ReentrancyGuard.sol\":2317:2380   */\n    tag_148:\n        /* \"@openzeppelin/contracts/security/ReentrancyGuard.sol\":1744:1745   */\n      0x02\n        /* \"@openzeppelin/contracts/security/ReentrancyGuard.sol\":2455:2462   */\n      0x01\n        /* \"@openzeppelin/contracts/security/ReentrancyGuard.sol\":2455:2473   */\n      sstore\n        /* \"OasisShop.sol\":850:858  _pause() */\n      tag_136\n        /* \"OasisShop.sol\":850:856  _pause */\n      tag_152\n        /* \"OasisShop.sol\":850:858  _pause() */\n      jump\t// in\n        /* \"OasisShop.sol\":526:553  uint256[] public ecTokenIds */\n    tag_51:\n      0x05\n      dup2\n      dup2\n      sload\n      dup2\n      lt\n      tag_154\n      jumpi\n      0x00\n      dup1\n      revert\n    tag_154:\n      0x00\n      swap2\n      dup3\n      mstore\n      0x20\n      swap1\n      swap2\n      keccak256\n      add\n      sload\n      swap1\n      pop\n      dup2\n      jump\t// out\n        /* \"OasisShop.sol\":960:1401  function setStateVariables(... */\n    tag_65:\n        /* \"@openzeppelin/contracts/access/Ownable.sol\":1094:1107   */\n      tag_158\n        /* \"@openzeppelin/contracts/access/Ownable.sol\":1094:1105   */\n      tag_131\n        /* \"@openzeppelin/contracts/access/Ownable.sol\":1094:1107   */\n      jump\t// in\n    tag_158:\n        /* \"@openzeppelin/contracts/security/ReentrancyGuard.sol\":1744:1745   */\n      0x02\n        /* \"@openzeppelin/contracts/security/ReentrancyGuard.sol\":2325:2332   */\n      sload(0x01)\n        /* \"@openzeppelin/contracts/security/ReentrancyGuard.sol\":2325:2344   */\n      sub\n        /* \"@openzeppelin/contracts/security/ReentrancyGuard.sol\":2317:2380   */\n      tag_160\n      jumpi\n      mload(0x40)\n      shl(0xe5, 0x461bcd)\n      dup2\n      mstore\n        /* \"#utility.yul\":3017:3019   */\n      0x20\n        /* \"@openzeppelin/contracts/security/ReentrancyGuard.sol\":2317:2380   */\n      0x04\n      dup3\n      add\n        /* \"#utility.yul\":2999:3020   */\n      mstore\n        /* \"#utility.yul\":3056:3058   */\n      0x1f\n        /* \"#utility.yul\":3036:3054   */\n      0x24\n      dup3\n      add\n        /* \"#utility.yul\":3029:3059   */\n      mstore\n        /* \"#utility.yul\":3095:3128   */\n      0x5265656e7472616e637947756172643a207265656e7472616e742063616c6c00\n        /* \"#utility.yul\":3075:3093   */\n      0x44\n      dup3\n      add\n        /* \"#utility.yul\":3068:3129   */\n      mstore\n        /* \"#utility.yul\":3146:3164   */\n      0x64\n      add\n        /* \"@openzeppelin/contracts/security/ReentrancyGuard.sol\":2317:2380   */\n      tag_78\n        /* \"#utility.yul\":2815:3170   */\n      jump\n        /* \"@openzeppelin/contracts/security/ReentrancyGuard.sol\":2317:2380   */\n    tag_160:\n        /* \"@openzeppelin/contracts/security/ReentrancyGuard.sol\":1744:1745   */\n      0x02\n        /* \"@openzeppelin/contracts/security/ReentrancyGuard.sol\":2455:2462   */\n      0x01\n        /* \"@openzeppelin/contracts/security/ReentrancyGuard.sol\":2455:2473   */\n      dup2\n      swap1\n      sstore\n        /* \"OasisShop.sol\":1214:1234  treasury = _treasury */\n      dup1\n      sload\n      sub(shl(0xa0, 0x01), 0x01)\n      dup1\n      dup10\n      and\n      not(0xffffffffffffffffffffffffffffffffffffffff)\n      swap3\n      dup4\n      and\n      or\n      swap1\n      swap3\n      sstore\n        /* \"OasisShop.sol\":1245:1247  ec */\n      0x03\n        /* \"OasisShop.sol\":1245:1253  ec = _ec */\n      dup1\n      sload\n      dup9\n      dup5\n      and\n      swap1\n      dup4\n      and\n      or\n      swap1\n      sstore\n        /* \"OasisShop.sol\":1264:1267  ost */\n      0x04\n        /* \"OasisShop.sol\":1264:1274  ost = _ost */\n      dup1\n      sload\n      swap3\n      dup8\n      and\n      swap3\n      swap1\n      swap2\n      and\n      swap2\n      swap1\n      swap2\n      or\n      swap1\n      sstore\n        /* \"OasisShop.sol\":1285:1309  ecTokenIds = _ecTokenIds */\n      dup3\n      mload\n      tag_163\n      swap1\n        /* \"OasisShop.sol\":1285:1295  ecTokenIds */\n      0x05\n      swap1\n        /* \"OasisShop.sol\":1285:1309  ecTokenIds = _ecTokenIds */\n      0x20\n      dup7\n      add\n      swap1\n      tag_164\n      jump\t// in\n    tag_163:\n      pop\n        /* \"OasisShop.sol\":1320:1333  ostPricePerEc */\n      0x06\n        /* \"OasisShop.sol\":1320:1350  ostPricePerEc = _ostPricePerEc */\n      swap2\n      swap1\n      swap2\n      sstore\n        /* \"OasisShop.sol\":1361:1375  oasisGraveyard */\n      0x07\n        /* \"OasisShop.sol\":1361:1393  oasisGraveyard = _oasisGraveyard */\n      dup1\n      sload\n      not(0xffffffffffffffffffffffffffffffffffffffff)\n      and\n      sub(shl(0xa0, 0x01), 0x01)\n      swap1\n      swap3\n      and\n      swap2\n      swap1\n      swap2\n      or\n      swap1\n      sstore\n      pop\n      pop\n      0x01\n        /* \"@openzeppelin/contracts/security/ReentrancyGuard.sol\":2628:2650   */\n      dup1\n      sstore\n      pop\n      pop\n        /* \"OasisShop.sol\":960:1401  function setStateVariables(... */\n      jump\t// out\n        /* \"@openzeppelin/contracts/access/Ownable.sol\":2081:2279   */\n    tag_69:\n        /* \"@openzeppelin/contracts/access/Ownable.sol\":1094:1107   */\n      tag_166\n        /* \"@openzeppelin/contracts/access/Ownable.sol\":1094:1105   */\n      tag_131\n        /* \"@openzeppelin/contracts/access/Ownable.sol\":1094:1107   */\n      jump\t// in\n    tag_166:\n      sub(shl(0xa0, 0x01), 0x01)\n        /* \"@openzeppelin/contracts/access/Ownable.sol\":2169:2191   */\n      dup2\n      and\n        /* \"@openzeppelin/contracts/access/Ownable.sol\":2161:2234   */\n      tag_168\n      jumpi\n      mload(0x40)\n      shl(0xe5, 0x461bcd)\n      dup2\n      mstore\n        /* \"#utility.yul\":6733:6735   */\n      0x20\n        /* \"@openzeppelin/contracts/access/Ownable.sol\":2161:2234   */\n      0x04\n      dup3\n      add\n        /* \"#utility.yul\":6715:6736   */\n      mstore\n        /* \"#utility.yul\":6772:6774   */\n      0x26\n        /* \"#utility.yul\":6752:6770   */\n      0x24\n      dup3\n      add\n        /* \"#utility.yul\":6745:6775   */\n      mstore\n        /* \"#utility.yul\":6811:6845   */\n      0x4f776e61626c653a206e6577206f776e657220697320746865207a65726f2061\n        /* \"#utility.yul\":6791:6809   */\n      0x44\n      dup3\n      add\n        /* \"#utility.yul\":6784:6846   */\n      mstore\n        /* \"#utility.yul\":6882:6890   */\n      0x6464726573730000000000000000000000000000000000000000000000000000\n        /* \"#utility.yul\":6862:6880   */\n      0x64\n      dup3\n      add\n        /* \"#utility.yul\":6855:6891   */\n      mstore\n        /* \"#utility.yul\":6908:6927   */\n      0x84\n      add\n        /* \"@openzeppelin/contracts/access/Ownable.sol\":2161:2234   */\n      tag_78\n        /* \"#utility.yul\":6531:6933   */\n      jump\n        /* \"@openzeppelin/contracts/access/Ownable.sol\":2161:2234   */\n    tag_168:\n        /* \"@openzeppelin/contracts/access/Ownable.sol\":2244:2272   */\n      tag_171\n        /* \"@openzeppelin/contracts/access/Ownable.sol\":2263:2271   */\n      dup2\n        /* \"@openzeppelin/contracts/access/Ownable.sol\":2244:2262   */\n      tag_144\n        /* \"@openzeppelin/contracts/access/Ownable.sol\":2244:2272   */\n      jump\t// in\n    tag_171:\n        /* \"@openzeppelin/contracts/access/Ownable.sol\":2081:2279   */\n      pop\n      jump\t// out\n        /* \"@openzeppelin/contracts/security/Pausable.sol\":1767:1873   */\n    tag_75:\n        /* \"@openzeppelin/contracts/security/Pausable.sol\":1662:1666   */\n      0x00\n        /* \"@openzeppelin/contracts/security/Pausable.sol\":1685:1692   */\n      sload\n      0xff\n      and\n        /* \"@openzeppelin/contracts/security/Pausable.sol\":1836:1845   */\n      iszero\n        /* \"@openzeppelin/contracts/security/Pausable.sol\":1828:1866   */\n      tag_143\n      jumpi\n      mload(0x40)\n      shl(0xe5, 0x461bcd)\n      dup2\n      mstore\n        /* \"#utility.yul\":7140:7142   */\n      0x20\n        /* \"@openzeppelin/contracts/security/Pausable.sol\":1828:1866   */\n      0x04\n      dup3\n      add\n        /* \"#utility.yul\":7122:7143   */\n      mstore\n        /* \"#utility.yul\":7179:7181   */\n      0x10\n        /* \"#utility.yul\":7159:7177   */\n      0x24\n      dup3\n      add\n        /* \"#utility.yul\":7152:7182   */\n      mstore\n        /* \"#utility.yul\":7218:7236   */\n      0x5061757361626c653a2070617573656400000000000000000000000000000000\n        /* \"#utility.yul\":7198:7216   */\n      0x44\n      dup3\n      add\n        /* \"#utility.yul\":7191:7237   */\n      mstore\n        /* \"#utility.yul\":7254:7272   */\n      0x64\n      add\n        /* \"@openzeppelin/contracts/security/Pausable.sol\":1828:1866   */\n      tag_78\n        /* \"#utility.yul\":6938:7278   */\n      jump\n        /* \"@openzeppelin/contracts/access/Ownable.sol\":1359:1489   */\n    tag_131:\n        /* \"@openzeppelin/contracts/access/Ownable.sol\":1247:1254   */\n      0x00\n        /* \"@openzeppelin/contracts/access/Ownable.sol\":1273:1279   */\n      sload\n      sub(shl(0xa0, 0x01), 0x01)\n      0x0100\n      swap1\n      swap2\n      div\n      and\n        /* \"@openzeppelin/contracts/utils/Context.sol\":719:729   */\n      caller\n        /* \"@openzeppelin/contracts/access/Ownable.sol\":1422:1445   */\n      eq\n        /* \"@openzeppelin/contracts/access/Ownable.sol\":1414:1482   */\n      tag_143\n      jumpi\n      mload(0x40)\n      shl(0xe5, 0x461bcd)\n      dup2\n      mstore\n        /* \"#utility.yul\":7485:7487   */\n      0x20\n        /* \"@openzeppelin/contracts/access/Ownable.sol\":1414:1482   */\n      0x04\n      dup3\n      add\n        /* \"#utility.yul\":7467:7488   */\n      dup2\n      swap1\n      mstore\n        /* \"#utility.yul\":7504:7522   */\n      0x24\n      dup3\n      add\n        /* \"#utility.yul\":7497:7527   */\n      mstore\n        /* \"#utility.yul\":7563:7597   */\n      0x4f776e61626c653a2063616c6c6572206973206e6f7420746865206f776e6572\n        /* \"#utility.yul\":7543:7561   */\n      0x44\n      dup3\n      add\n        /* \"#utility.yul\":7536:7598   */\n      mstore\n        /* \"#utility.yul\":7615:7633   */\n      0x64\n      add\n        /* \"@openzeppelin/contracts/access/Ownable.sol\":1414:1482   */\n      tag_78\n        /* \"#utility.yul\":7283:7639   */\n      jump\n        /* \"@openzeppelin/contracts/security/Pausable.sol\":2433:2550   */\n    tag_137:\n        /* \"@openzeppelin/contracts/security/Pausable.sol\":1486:1502   */\n      tag_185\n        /* \"@openzeppelin/contracts/security/Pausable.sol\":1486:1500   */\n      tag_186\n        /* \"@openzeppelin/contracts/security/Pausable.sol\":1486:1502   */\n      jump\t// in\n    tag_185:\n        /* \"@openzeppelin/contracts/security/Pausable.sol\":2501:2506   */\n      0x00\n        /* \"@openzeppelin/contracts/security/Pausable.sol\":2491:2506   */\n      dup1\n      sload\n      not(0xff)\n      and\n      swap1\n      sstore\n        /* \"@openzeppelin/contracts/security/Pausable.sol\":2521:2543   */\n      0x5db9ee0a495bf2e6ff9c91a7834c1ba4fdd244a5e8aa4e537bd38aeae4b073aa\n        /* \"@openzeppelin/contracts/utils/Context.sol\":719:729   */\n      caller\n        /* \"@openzeppelin/contracts/security/Pausable.sol\":2530:2542   */\n    tag_188:\n        /* \"@openzeppelin/contracts/security/Pausable.sol\":2521:2543   */\n      mload(0x40)\n      sub(shl(0xa0, 0x01), 0x01)\n        /* \"#utility.yul\":552:607   */\n      swap1\n      swap2\n      and\n        /* \"#utility.yul\":534:608   */\n      dup2\n      mstore\n        /* \"#utility.yul\":522:524   */\n      0x20\n        /* \"#utility.yul\":507:525   */\n      add\n        /* \"@openzeppelin/contracts/security/Pausable.sol\":2521:2543   */\n      mload(0x40)\n      dup1\n      swap2\n      sub\n      swap1\n      log1\n        /* \"@openzeppelin/contracts/security/Pausable.sol\":2433:2550   */\n      jump\t// out\n        /* \"@openzeppelin/contracts/access/Ownable.sol\":2433:2620   */\n    tag_144:\n        /* \"@openzeppelin/contracts/access/Ownable.sol\":2506:2522   */\n      0x00\n        /* \"@openzeppelin/contracts/access/Ownable.sol\":2525:2531   */\n      dup1\n      sload\n      sub(shl(0xa0, 0x01), 0x01)\n        /* \"@openzeppelin/contracts/access/Ownable.sol\":2541:2558   */\n      dup4\n      dup2\n      and\n        /* \"@openzeppelin/contracts/access/Ownable.sol\":2525:2531   */\n      0x0100\n        /* \"@openzeppelin/contracts/access/Ownable.sol\":2541:2558   */\n      dup2\n      dup2\n      mul\n      0xffffffffffffffffffffff0000000000000000000000000000000000000000ff\n      dup6\n      and\n      or\n      dup6\n      sstore\n        /* \"@openzeppelin/contracts/access/Ownable.sol\":2573:2613   */\n      mload(0x40)\n        /* \"@openzeppelin/contracts/access/Ownable.sol\":2525:2531   */\n      swap4\n      div\n      swap2\n      swap1\n      swap2\n      and\n      swap3\n        /* \"@openzeppelin/contracts/access/Ownable.sol\":2541:2558   */\n      swap1\n      swap2\n        /* \"@openzeppelin/contracts/access/Ownable.sol\":2525:2531   */\n      dup4\n      swap2\n        /* \"@openzeppelin/contracts/access/Ownable.sol\":2573:2613   */\n      0x8be0079c531659141344cd1fd0a4f28419497f9722a3daafe3b4186f6b6457e0\n      swap2\n      log3\n        /* \"@openzeppelin/contracts/access/Ownable.sol\":2496:2620   */\n      pop\n        /* \"@openzeppelin/contracts/access/Ownable.sol\":2433:2620   */\n      pop\n      jump\t// out\n        /* \"@openzeppelin/contracts/security/Pausable.sol\":2186:2301   */\n    tag_152:\n        /* \"@openzeppelin/contracts/security/Pausable.sol\":1239:1258   */\n      tag_192\n        /* \"@openzeppelin/contracts/security/Pausable.sol\":1239:1256   */\n      tag_75\n        /* \"@openzeppelin/contracts/security/Pausable.sol\":1239:1258   */\n      jump\t// in\n    tag_192:\n        /* \"@openzeppelin/contracts/security/Pausable.sol\":2245:2252   */\n      0x00\n        /* \"@openzeppelin/contracts/security/Pausable.sol\":2245:2259   */\n      dup1\n      sload\n      not(0xff)\n      and\n        /* \"@openzeppelin/contracts/security/Pausable.sol\":2255:2259   */\n      0x01\n        /* \"@openzeppelin/contracts/security/Pausable.sol\":2245:2259   */\n      or\n      swap1\n      sstore\n        /* \"@openzeppelin/contracts/security/Pausable.sol\":2274:2294   */\n      0x62e78cea01bee320cd4e420270b5ea74000d11b0c9f74754ebdbfc544b05a258\n        /* \"@openzeppelin/contracts/security/Pausable.sol\":2281:2293   */\n      tag_188\n        /* \"@openzeppelin/contracts/utils/Context.sol\":719:729   */\n      caller\n      swap1\n        /* \"@openzeppelin/contracts/utils/Context.sol\":640:736   */\n      jump\n        /* \"@openzeppelin/contracts/security/Pausable.sol\":1945:2051   */\n    tag_186:\n        /* \"@openzeppelin/contracts/security/Pausable.sol\":1662:1666   */\n      0x00\n        /* \"@openzeppelin/contracts/security/Pausable.sol\":1685:1692   */\n      sload\n      0xff\n      and\n        /* \"@openzeppelin/contracts/security/Pausable.sol\":2003:2044   */\n      tag_143\n      jumpi\n      mload(0x40)\n      shl(0xe5, 0x461bcd)\n      dup2\n      mstore\n        /* \"#utility.yul\":7846:7848   */\n      0x20\n        /* \"@openzeppelin/contracts/security/Pausable.sol\":2003:2044   */\n      0x04\n      dup3\n      add\n        /* \"#utility.yul\":7828:7849   */\n      mstore\n        /* \"#utility.yul\":7885:7887   */\n      0x14\n        /* \"#utility.yul\":7865:7883   */\n      0x24\n      dup3\n      add\n        /* \"#utility.yul\":7858:7888   */\n      mstore\n        /* \"#utility.yul\":7924:7946   */\n      0x5061757361626c653a206e6f7420706175736564000000000000000000000000\n        /* \"#utility.yul\":7904:7922   */\n      0x44\n      dup3\n      add\n        /* \"#utility.yul\":7897:7947   */\n      mstore\n        /* \"#utility.yul\":7964:7982   */\n      0x64\n      add\n        /* \"@openzeppelin/contracts/security/Pausable.sol\":2003:2044   */\n      tag_78\n        /* \"#utility.yul\":7644:7988   */\n      jump\n    tag_164:\n      dup3\n      dup1\n      sload\n      dup3\n      dup3\n      sstore\n      swap1\n      0x00\n      mstore\n      keccak256(0x00, 0x20)\n      swap1\n      dup2\n      add\n      swap3\n      dup3\n      iszero\n      tag_204\n      jumpi\n      swap2\n      0x20\n      mul\n      dup3\n      add\n    tag_203:\n      dup3\n      dup2\n      gt\n      iszero\n      tag_204\n      jumpi\n      dup3\n      mload\n      dup3\n      sstore\n      swap2\n      0x20\n      add\n      swap2\n      swap1\n      0x01\n      add\n      swap1\n      jump(tag_203)\n    tag_204:\n      pop\n      tag_205\n      swap3\n      swap2\n      pop\n      tag_206\n      jump\t// in\n    tag_205:\n      pop\n      swap1\n      jump\t// out\n    tag_206:\n    tag_207:\n      dup1\n      dup3\n      gt\n      iszero\n      tag_205\n      jumpi\n      0x00\n      dup2\n      sstore\n      0x01\n      add\n      jump(tag_207)\n        /* \"#utility.yul\":619:799   */\n    tag_50:\n        /* \"#utility.yul\":678:684   */\n      0x00\n        /* \"#utility.yul\":731:733   */\n      0x20\n        /* \"#utility.yul\":719:728   */\n      dup3\n        /* \"#utility.yul\":710:717   */\n      dup5\n        /* \"#utility.yul\":706:729   */\n      sub\n        /* \"#utility.yul\":702:734   */\n      slt\n        /* \"#utility.yul\":699:751   */\n      iszero\n      tag_216\n      jumpi\n        /* \"#utility.yul\":747:748   */\n      0x00\n        /* \"#utility.yul\":744:745   */\n      dup1\n        /* \"#utility.yul\":737:749   */\n      revert\n        /* \"#utility.yul\":699:751   */\n    tag_216:\n      pop\n        /* \"#utility.yul\":770:793   */\n      calldataload\n      swap2\n        /* \"#utility.yul\":619:799   */\n      swap1\n      pop\n      jump\t// out\n        /* \"#utility.yul\":804:1000   */\n    tag_209:\n        /* \"#utility.yul\":872:892   */\n      dup1\n      calldataload\n      sub(shl(0xa0, 0x01), 0x01)\n        /* \"#utility.yul\":921:975   */\n      dup2\n      and\n        /* \"#utility.yul\":911:976   */\n      dup2\n      eq\n        /* \"#utility.yul\":901:994   */\n      tag_218\n      jumpi\n        /* \"#utility.yul\":990:991   */\n      0x00\n        /* \"#utility.yul\":987:988   */\n      dup1\n        /* \"#utility.yul\":980:992   */\n      revert\n        /* \"#utility.yul\":901:994   */\n    tag_218:\n        /* \"#utility.yul\":804:1000   */\n      swap2\n      swap1\n      pop\n      jump\t// out\n        /* \"#utility.yul\":1005:1132   */\n    tag_210:\n        /* \"#utility.yul\":1066:1076   */\n      0x4e487b71\n        /* \"#utility.yul\":1061:1064   */\n      0xe0\n        /* \"#utility.yul\":1057:1077   */\n      shl\n        /* \"#utility.yul\":1054:1055   */\n      0x00\n        /* \"#utility.yul\":1047:1078   */\n      mstore\n        /* \"#utility.yul\":1097:1101   */\n      0x41\n        /* \"#utility.yul\":1094:1095   */\n      0x04\n        /* \"#utility.yul\":1087:1102   */\n      mstore\n        /* \"#utility.yul\":1121:1125   */\n      0x24\n        /* \"#utility.yul\":1118:1119   */\n      0x00\n        /* \"#utility.yul\":1111:1126   */\n      revert\n        /* \"#utility.yul\":1137:2619   */\n    tag_64:\n        /* \"#utility.yul\":1266:1272   */\n      0x00\n        /* \"#utility.yul\":1274:1280   */\n      dup1\n        /* \"#utility.yul\":1282:1288   */\n      0x00\n        /* \"#utility.yul\":1290:1296   */\n      dup1\n        /* \"#utility.yul\":1298:1304   */\n      0x00\n        /* \"#utility.yul\":1306:1312   */\n      dup1\n        /* \"#utility.yul\":1359:1362   */\n      0xc0\n        /* \"#utility.yul\":1347:1356   */\n      dup8\n        /* \"#utility.yul\":1338:1345   */\n      dup10\n        /* \"#utility.yul\":1334:1357   */\n      sub\n        /* \"#utility.yul\":1330:1363   */\n      slt\n        /* \"#utility.yul\":1327:1380   */\n      iszero\n      tag_221\n      jumpi\n        /* \"#utility.yul\":1376:1377   */\n      0x00\n        /* \"#utility.yul\":1373:1374   */\n      dup1\n        /* \"#utility.yul\":1366:1378   */\n      revert\n        /* \"#utility.yul\":1327:1380   */\n    tag_221:\n        /* \"#utility.yul\":1399:1428   */\n      tag_222\n        /* \"#utility.yul\":1418:1427   */\n      dup8\n        /* \"#utility.yul\":1399:1428   */\n      tag_209\n      jump\t// in\n    tag_222:\n        /* \"#utility.yul\":1389:1428   */\n      swap6\n      pop\n        /* \"#utility.yul\":1447:1449   */\n      0x20\n        /* \"#utility.yul\":1468:1506   */\n      tag_223\n        /* \"#utility.yul\":1502:1504   */\n      dup2\n        /* \"#utility.yul\":1491:1500   */\n      dup10\n        /* \"#utility.yul\":1487:1505   */\n      add\n        /* \"#utility.yul\":1468:1506   */\n      tag_209\n      jump\t// in\n    tag_223:\n        /* \"#utility.yul\":1458:1506   */\n      swap6\n      pop\n        /* \"#utility.yul\":1525:1563   */\n      tag_224\n        /* \"#utility.yul\":1559:1561   */\n      0x40\n        /* \"#utility.yul\":1548:1557   */\n      dup10\n        /* \"#utility.yul\":1544:1562   */\n      add\n        /* \"#utility.yul\":1525:1563   */\n      tag_209\n      jump\t// in\n    tag_224:\n        /* \"#utility.yul\":1515:1563   */\n      swap5\n      pop\n        /* \"#utility.yul\":1614:1616   */\n      0x60\n        /* \"#utility.yul\":1603:1612   */\n      dup9\n        /* \"#utility.yul\":1599:1617   */\n      add\n        /* \"#utility.yul\":1586:1618   */\n      calldataload\n        /* \"#utility.yul\":1637:1655   */\n      0xffffffffffffffff\n        /* \"#utility.yul\":1678:1680   */\n      dup1\n        /* \"#utility.yul\":1670:1676   */\n      dup3\n        /* \"#utility.yul\":1667:1681   */\n      gt\n        /* \"#utility.yul\":1664:1698   */\n      iszero\n      tag_225\n      jumpi\n        /* \"#utility.yul\":1694:1695   */\n      0x00\n        /* \"#utility.yul\":1691:1692   */\n      dup1\n        /* \"#utility.yul\":1684:1696   */\n      revert\n        /* \"#utility.yul\":1664:1698   */\n    tag_225:\n        /* \"#utility.yul\":1732:1738   */\n      dup2\n        /* \"#utility.yul\":1721:1730   */\n      dup11\n        /* \"#utility.yul\":1717:1739   */\n      add\n        /* \"#utility.yul\":1707:1739   */\n      swap2\n      pop\n        /* \"#utility.yul\":1777:1784   */\n      dup11\n        /* \"#utility.yul\":1770:1774   */\n      0x1f\n        /* \"#utility.yul\":1766:1768   */\n      dup4\n        /* \"#utility.yul\":1762:1775   */\n      add\n        /* \"#utility.yul\":1758:1785   */\n      slt\n        /* \"#utility.yul\":1748:1803   */\n      tag_226\n      jumpi\n        /* \"#utility.yul\":1799:1800   */\n      0x00\n        /* \"#utility.yul\":1796:1797   */\n      dup1\n        /* \"#utility.yul\":1789:1801   */\n      revert\n        /* \"#utility.yul\":1748:1803   */\n    tag_226:\n        /* \"#utility.yul\":1835:1837   */\n      dup2\n        /* \"#utility.yul\":1822:1838   */\n      calldataload\n        /* \"#utility.yul\":1857:1859   */\n      dup2\n        /* \"#utility.yul\":1853:1855   */\n      dup2\n        /* \"#utility.yul\":1850:1860   */\n      gt\n        /* \"#utility.yul\":1847:1883   */\n      iszero\n      tag_228\n      jumpi\n        /* \"#utility.yul\":1863:1881   */\n      tag_228\n      tag_210\n      jump\t// in\n    tag_228:\n        /* \"#utility.yul\":1909:1911   */\n      dup1\n        /* \"#utility.yul\":1906:1907   */\n      0x05\n        /* \"#utility.yul\":1902:1912   */\n      shl\n        /* \"#utility.yul\":1941:1943   */\n      0x40\n        /* \"#utility.yul\":1935:1944   */\n      mload\n        /* \"#utility.yul\":2004:2006   */\n      0x1f\n        /* \"#utility.yul\":2000:2007   */\n      not\n        /* \"#utility.yul\":1995:1997   */\n      0x3f\n        /* \"#utility.yul\":1991:1993   */\n      dup4\n        /* \"#utility.yul\":1987:1998   */\n      add\n        /* \"#utility.yul\":1983:2008   */\n      and\n        /* \"#utility.yul\":1975:1981   */\n      dup2\n        /* \"#utility.yul\":1971:2009   */\n      add\n        /* \"#utility.yul\":2059:2065   */\n      dup2\n        /* \"#utility.yul\":2047:2057   */\n      dup2\n        /* \"#utility.yul\":2044:2066   */\n      lt\n        /* \"#utility.yul\":2039:2041   */\n      dup6\n        /* \"#utility.yul\":2027:2037   */\n      dup3\n        /* \"#utility.yul\":2024:2042   */\n      gt\n        /* \"#utility.yul\":2021:2067   */\n      or\n        /* \"#utility.yul\":2018:2090   */\n      iszero\n      tag_230\n      jumpi\n        /* \"#utility.yul\":2070:2088   */\n      tag_230\n      tag_210\n      jump\t// in\n    tag_230:\n        /* \"#utility.yul\":2106:2108   */\n      0x40\n        /* \"#utility.yul\":2099:2121   */\n      mstore\n        /* \"#utility.yul\":2156:2174   */\n      swap2\n      dup3\n      mstore\n        /* \"#utility.yul\":2190:2205   */\n      dup5\n      dup3\n      add\n      swap3\n      pop\n        /* \"#utility.yul\":2232:2243   */\n      dup4\n      dup2\n      add\n        /* \"#utility.yul\":2228:2248   */\n      dup6\n      add\n      swap2\n        /* \"#utility.yul\":2260:2279   */\n      dup14\n      dup4\n      gt\n        /* \"#utility.yul\":2257:2296   */\n      iszero\n      tag_231\n      jumpi\n        /* \"#utility.yul\":2292:2293   */\n      0x00\n        /* \"#utility.yul\":2289:2290   */\n      dup1\n        /* \"#utility.yul\":2282:2294   */\n      revert\n        /* \"#utility.yul\":2257:2296   */\n    tag_231:\n        /* \"#utility.yul\":2316:2327   */\n      swap4\n      dup6\n      add\n      swap4\n        /* \"#utility.yul\":2336:2478   */\n    tag_232:\n        /* \"#utility.yul\":2352:2358   */\n      dup3\n        /* \"#utility.yul\":2347:2350   */\n      dup6\n        /* \"#utility.yul\":2344:2359   */\n      lt\n        /* \"#utility.yul\":2336:2478   */\n      iszero\n      tag_234\n      jumpi\n        /* \"#utility.yul\":2418:2435   */\n      dup5\n      calldataload\n        /* \"#utility.yul\":2406:2436   */\n      dup5\n      mstore\n        /* \"#utility.yul\":2369:2381   */\n      swap4\n      dup6\n      add\n      swap4\n        /* \"#utility.yul\":2456:2468   */\n      swap3\n      dup6\n      add\n      swap3\n        /* \"#utility.yul\":2336:2478   */\n      jump(tag_232)\n    tag_234:\n        /* \"#utility.yul\":2497:2503   */\n      swap8\n      pop\n      pop\n      pop\n      pop\n        /* \"#utility.yul\":2550:2553   */\n      0x80\n        /* \"#utility.yul\":2535:2554   */\n      dup10\n      add\n        /* \"#utility.yul\":2522:2555   */\n      calldataload\n      swap4\n      pop\n        /* \"#utility.yul\":2574:2613   */\n      tag_235\n      swap2\n      pop\n      pop\n        /* \"#utility.yul\":2608:2611   */\n      0xa0\n        /* \"#utility.yul\":2593:2612   */\n      dup9\n      add\n        /* \"#utility.yul\":2574:2613   */\n      tag_209\n      jump\t// in\n    tag_235:\n        /* \"#utility.yul\":2564:2613   */\n      swap1\n      pop\n        /* \"#utility.yul\":1137:2619   */\n      swap3\n      swap6\n      pop\n      swap3\n      swap6\n      pop\n      swap3\n      swap6\n      jump\t// out\n        /* \"#utility.yul\":2624:2810   */\n    tag_68:\n        /* \"#utility.yul\":2683:2689   */\n      0x00\n        /* \"#utility.yul\":2736:2738   */\n      0x20\n        /* \"#utility.yul\":2724:2733   */\n      dup3\n        /* \"#utility.yul\":2715:2722   */\n      dup5\n        /* \"#utility.yul\":2711:2734   */\n      sub\n        /* \"#utility.yul\":2707:2739   */\n      slt\n        /* \"#utility.yul\":2704:2756   */\n      iszero\n      tag_237\n      jumpi\n        /* \"#utility.yul\":2752:2753   */\n      0x00\n        /* \"#utility.yul\":2749:2750   */\n      dup1\n        /* \"#utility.yul\":2742:2754   */\n      revert\n        /* \"#utility.yul\":2704:2756   */\n    tag_237:\n        /* \"#utility.yul\":2775:2804   */\n      tag_238\n        /* \"#utility.yul\":2794:2803   */\n      dup3\n        /* \"#utility.yul\":2775:2804   */\n      tag_209\n      jump\t// in\n    tag_238:\n        /* \"#utility.yul\":2765:2804   */\n      swap4\n        /* \"#utility.yul\":2624:2810   */\n      swap3\n      pop\n      pop\n      pop\n      jump\t// out\n        /* \"#utility.yul\":3529:3713   */\n    tag_88:\n        /* \"#utility.yul\":3599:3605   */\n      0x00\n        /* \"#utility.yul\":3652:3654   */\n      0x20\n        /* \"#utility.yul\":3640:3649   */\n      dup3\n        /* \"#utility.yul\":3631:3638   */\n      dup5\n        /* \"#utility.yul\":3627:3650   */\n      sub\n        /* \"#utility.yul\":3623:3655   */\n      slt\n        /* \"#utility.yul\":3620:3672   */\n      iszero\n      tag_242\n      jumpi\n        /* \"#utility.yul\":3668:3669   */\n      0x00\n        /* \"#utility.yul\":3665:3666   */\n      dup1\n        /* \"#utility.yul\":3658:3670   */\n      revert\n        /* \"#utility.yul\":3620:3672   */\n    tag_242:\n      pop\n        /* \"#utility.yul\":3691:3707   */\n      mload\n      swap2\n        /* \"#utility.yul\":3529:3713   */\n      swap1\n      pop\n      jump\t// out\n        /* \"#utility.yul\":4417:4639   */\n    tag_100:\n        /* \"#utility.yul\":4457:4461   */\n      0x00\n        /* \"#utility.yul\":4485:4486   */\n      dup3\n        /* \"#utility.yul\":4482:4483   */\n      dup3\n        /* \"#utility.yul\":4479:4487   */\n      lt\n        /* \"#utility.yul\":4476:4607   */\n      iszero\n      tag_246\n      jumpi\n        /* \"#utility.yul\":4529:4539   */\n      0x4e487b71\n        /* \"#utility.yul\":4524:4527   */\n      0xe0\n        /* \"#utility.yul\":4520:4540   */\n      shl\n        /* \"#utility.yul\":4517:4518   */\n      0x00\n        /* \"#utility.yul\":4510:4541   */\n      mstore\n        /* \"#utility.yul\":4564:4568   */\n      0x11\n        /* \"#utility.yul\":4561:4562   */\n      0x04\n        /* \"#utility.yul\":4554:4569   */\n      mstore\n        /* \"#utility.yul\":4592:4596   */\n      0x24\n        /* \"#utility.yul\":4589:4590   */\n      0x00\n        /* \"#utility.yul\":4582:4597   */\n      revert\n        /* \"#utility.yul\":4476:4607   */\n    tag_246:\n      pop\n        /* \"#utility.yul\":4624:4633   */\n      sub\n      swap1\n        /* \"#utility.yul\":4417:4639   */\n      jump\t// out\n        /* \"#utility.yul\":4644:4771   */\n    tag_103:\n        /* \"#utility.yul\":4705:4715   */\n      0x4e487b71\n        /* \"#utility.yul\":4700:4703   */\n      0xe0\n        /* \"#utility.yul\":4696:4716   */\n      shl\n        /* \"#utility.yul\":4693:4694   */\n      0x00\n        /* \"#utility.yul\":4686:4717   */\n      mstore\n        /* \"#utility.yul\":4736:4740   */\n      0x32\n        /* \"#utility.yul\":4733:4734   */\n      0x04\n        /* \"#utility.yul\":4726:4741   */\n      mstore\n        /* \"#utility.yul\":4760:4764   */\n      0x24\n        /* \"#utility.yul\":4757:4758   */\n      0x00\n        /* \"#utility.yul\":4750:4765   */\n      revert\n        /* \"#utility.yul\":5864:6141   */\n    tag_118:\n        /* \"#utility.yul\":5931:5937   */\n      0x00\n        /* \"#utility.yul\":5984:5986   */\n      0x20\n        /* \"#utility.yul\":5972:5981   */\n      dup3\n        /* \"#utility.yul\":5963:5970   */\n      dup5\n        /* \"#utility.yul\":5959:5982   */\n      sub\n        /* \"#utility.yul\":5955:5987   */\n      slt\n        /* \"#utility.yul\":5952:6004   */\n      iszero\n      tag_252\n      jumpi\n        /* \"#utility.yul\":6000:6001   */\n      0x00\n        /* \"#utility.yul\":5997:5998   */\n      dup1\n        /* \"#utility.yul\":5990:6002   */\n      revert\n        /* \"#utility.yul\":5952:6004   */\n    tag_252:\n        /* \"#utility.yul\":6032:6041   */\n      dup2\n        /* \"#utility.yul\":6026:6042   */\n      mload\n        /* \"#utility.yul\":6085:6090   */\n      dup1\n        /* \"#utility.yul\":6078:6091   */\n      iszero\n        /* \"#utility.yul\":6071:6092   */\n      iszero\n        /* \"#utility.yul\":6064:6069   */\n      dup2\n        /* \"#utility.yul\":6061:6093   */\n      eq\n        /* \"#utility.yul\":6051:6111   */\n      tag_238\n      jumpi\n        /* \"#utility.yul\":6107:6108   */\n      0x00\n        /* \"#utility.yul\":6104:6105   */\n      dup1\n        /* \"#utility.yul\":6097:6109   */\n      revert\n        /* \"#utility.yul\":6146:6273   */\n    tag_125:\n        /* \"#utility.yul\":6207:6217   */\n      0x4e487b71\n        /* \"#utility.yul\":6202:6205   */\n      0xe0\n        /* \"#utility.yul\":6198:6218   */\n      shl\n        /* \"#utility.yul\":6195:6196   */\n      0x00\n        /* \"#utility.yul\":6188:6219   */\n      mstore\n        /* \"#utility.yul\":6238:6242   */\n      0x31\n        /* \"#utility.yul\":6235:6236   */\n      0x04\n        /* \"#utility.yul\":6228:6243   */\n      mstore\n        /* \"#utility.yul\":6262:6266   */\n      0x24\n        /* \"#utility.yul\":6259:6260   */\n      0x00\n        /* \"#utility.yul\":6252:6267   */\n      revert\n\n    auxdata: 0xa2646970667358221220987974a9b7872959ef894476e31038ff32a59dcb7afc02ec7075a5a1f683fc2564736f6c634300080d0033\n}\n",
    "bytecode": {
      "linkReferences": {},
      "object": "608060405234801561001057600080fd5b506000805460ff191690556100243361002d565b60018055610086565b600080546001600160a01b03838116610100818102610100600160a81b0319851617855560405193049190911692909183917f8be0079c531659141344cd1fd0a4f28419497f9722a3daafe3b4186f6b6457e091a35050565b610de0806100956000396000f3fe608060405234801561001057600080fd5b50600436106101005760003560e01c80638da5cb5b11610097578063bb90edb611610066578063bb90edb6146101d7578063d9d8422c146101df578063f2fde38b146101f2578063f83b5dce1461020557600080fd5b80638da5cb5b14610188578063968bca7b1461019e5780639ff51675146101b1578063a756fdd0146101c457600080fd5b80635c975abb116100d35780635c975abb1461013757806361d027b31461014d578063715018a6146101785780638456cb591461018057600080fd5b80631667e9e9146101055780633f4ba83a1461010f5780634087d1fa146101175780635ad770131461012e575b600080fd5b61010d610218565b005b61010d6106b1565b6006545b6040519081526020015b60405180910390f35b61011b60065481565b60005460ff166040519015158152602001610125565b600254610160906001600160a01b031681565b6040516001600160a01b039091168152602001610125565b61010d61071e565b61010d610732565b60005461010090046001600160a01b0316610160565b61011b6101ac366004610ba7565b610799565b600754610160906001600160a01b031681565b600454610160906001600160a01b031681565b60055461011b565b61010d6101ed366004610bf2565b6107ba565b61010d610200366004610cfc565b6108b3565b600354610160906001600160a01b031681565b610220610943565b6002600154036102775760405162461bcd60e51b815260206004820152601f60248201527f5265656e7472616e637947756172643a207265656e7472616e742063616c6c0060448201526064015b60405180910390fd5b6002600190815560055410156102cf5760405162461bcd60e51b815260206004820152601960248201527f4e6f20617661696c61626c6520454320546f6b656e2049647300000000000000604482015260640161026e565b6003546002546040516370a0823160e01b81526001600160a01b03918216600482015260019291909116906370a0823190602401602060405180830381865afa158015610320573d6000803e3d6000fd5b505050506040513d601f19601f820116820180604052508101906103449190610d1e565b10156103925760405162461bcd60e51b815260206004820152601360248201527f547265617375727920686173206e6f2045437300000000000000000000000000604482015260640161026e565b600654600480546040516370a0823160e01b815233928101929092526001600160a01b0316906370a0823190602401602060405180830381865afa1580156103de573d6000803e3d6000fd5b505050506040513d601f19601f820116820180604052508101906104029190610d1e565b10156104505760405162461bcd60e51b815260206004820152601660248201527f4e6f7420456e6f75676820244f535420546f6b656e7300000000000000000000604482015260640161026e565b600580546000919061046490600190610d37565b8154811061047457610474610d5c565b60009182526020909120015460065460048054604051636eb1769f60e11b8152339281019290925230602483015292935090916001600160a01b03169063dd62ed3e90604401602060405180830381865afa1580156104d7573d6000803e3d6000fd5b505050506040513d601f19601f820116820180604052508101906104fb9190610d1e565b10156105495760405162461bcd60e51b815260206004820152601860248201527f4e6f7420656e6f756768204f535420616c6c6f77616e63650000000000000000604482015260640161026e565b600480546007546006546040516323b872dd60e01b815233948101949094526001600160a01b039182166024850152604484015216906323b872dd906064016020604051808303816000875af11580156105a7573d6000803e3d6000fd5b505050506040513d601f19601f820116820180604052508101906105cb9190610d72565b506003546002546040516323b872dd60e01b81526001600160a01b039182166004820152336024820152604481018490529116906323b872dd90606401600060405180830381600087803b15801561062257600080fd5b505af1158015610636573d6000803e3d6000fd5b50505050600580548061064b5761064b610d94565b60008281526020812082016000199081019190915501905560065460055460405133917fc3d823b0fd39622c70d38dfecc16e12ed37a78328fa6236acf1f379b35fb060d916106a291868252602082015260400190565b60405180910390a35060018055565b6106b9610996565b60026001540361070b5760405162461bcd60e51b815260206004820152601f60248201527f5265656e7472616e637947756172643a207265656e7472616e742063616c6c00604482015260640161026e565b60026001556107186109f6565b60018055565b610726610996565b6107306000610a48565b565b61073a610996565b60026001540361078c5760405162461bcd60e51b815260206004820152601f60248201527f5265656e7472616e637947756172643a207265656e7472616e742063616c6c00604482015260640161026e565b6002600155610718610ab8565b600581815481106107a957600080fd5b600091825260209091200154905081565b6107c2610996565b6002600154036108145760405162461bcd60e51b815260206004820152601f60248201527f5265656e7472616e637947756172643a207265656e7472616e742063616c6c00604482015260640161026e565b6002600181905580546001600160a01b0380891673ffffffffffffffffffffffffffffffffffffffff19928316179092556003805488841690831617905560048054928716929091169190911790558251610876906005906020860190610b47565b506006919091556007805473ffffffffffffffffffffffffffffffffffffffff19166001600160a01b039092169190911790555050600180555050565b6108bb610996565b6001600160a01b0381166109375760405162461bcd60e51b815260206004820152602660248201527f4f776e61626c653a206e6577206f776e657220697320746865207a65726f206160448201527f6464726573730000000000000000000000000000000000000000000000000000606482015260840161026e565b61094081610a48565b50565b60005460ff16156107305760405162461bcd60e51b815260206004820152601060248201527f5061757361626c653a2070617573656400000000000000000000000000000000604482015260640161026e565b6000546001600160a01b036101009091041633146107305760405162461bcd60e51b815260206004820181905260248201527f4f776e61626c653a2063616c6c6572206973206e6f7420746865206f776e6572604482015260640161026e565b6109fe610af5565b6000805460ff191690557f5db9ee0a495bf2e6ff9c91a7834c1ba4fdd244a5e8aa4e537bd38aeae4b073aa335b6040516001600160a01b03909116815260200160405180910390a1565b600080546001600160a01b038381166101008181027fffffffffffffffffffffff0000000000000000000000000000000000000000ff851617855560405193049190911692909183917f8be0079c531659141344cd1fd0a4f28419497f9722a3daafe3b4186f6b6457e091a35050565b610ac0610943565b6000805460ff191660011790557f62e78cea01bee320cd4e420270b5ea74000d11b0c9f74754ebdbfc544b05a258610a2b3390565b60005460ff166107305760405162461bcd60e51b815260206004820152601460248201527f5061757361626c653a206e6f7420706175736564000000000000000000000000604482015260640161026e565b828054828255906000526020600020908101928215610b82579160200282015b82811115610b82578251825591602001919060010190610b67565b50610b8e929150610b92565b5090565b5b80821115610b8e5760008155600101610b93565b600060208284031215610bb957600080fd5b5035919050565b80356001600160a01b0381168114610bd757600080fd5b919050565b634e487b7160e01b600052604160045260246000fd5b60008060008060008060c08789031215610c0b57600080fd5b610c1487610bc0565b95506020610c23818901610bc0565b9550610c3160408901610bc0565b9450606088013567ffffffffffffffff80821115610c4e57600080fd5b818a0191508a601f830112610c6257600080fd5b813581811115610c7457610c74610bdc565b8060051b604051601f19603f83011681018181108582111715610c9957610c99610bdc565b60405291825284820192508381018501918d831115610cb757600080fd5b938501935b82851015610cd557843584529385019392850192610cbc565b975050505060808901359350610cf091505060a08801610bc0565b90509295509295509295565b600060208284031215610d0e57600080fd5b610d1782610bc0565b9392505050565b600060208284031215610d3057600080fd5b5051919050565b600082821015610d5757634e487b7160e01b600052601160045260246000fd5b500390565b634e487b7160e01b600052603260045260246000fd5b600060208284031215610d8457600080fd5b81518015158114610d1757600080fd5b634e487b7160e01b600052603160045260246000fdfea2646970667358221220987974a9b7872959ef894476e31038ff32a59dcb7afc02ec7075a5a1f683fc2564736f6c634300080d0033",
      "opcodes": "PUSH1 0x80 PUSH1 0x40 MSTORE CALLVALUE DUP1 ISZERO PUSH2 0x10 JUMPI PUSH1 0x0 DUP1 REVERT JUMPDEST POP PUSH1 0x0 DUP1 SLOAD PUSH1 0xFF NOT AND SWAP1 SSTORE PUSH2 0x24 CALLER PUSH2 0x2D JUMP JUMPDEST PUSH1 0x1 DUP1 SSTORE PUSH2 0x86 JUMP JUMPDEST PUSH1 0x0 DUP1 SLOAD PUSH1 0x1 PUSH1 0x1 PUSH1 0xA0 SHL SUB DUP4 DUP2 AND PUSH2 0x100 DUP2 DUP2 MUL PUSH2 0x100 PUSH1 0x1 PUSH1 0xA8 SHL SUB NOT DUP6 AND OR DUP6 SSTORE PUSH1 0x40 MLOAD SWAP4 DIV SWAP2 SWAP1 SWAP2 AND SWAP3 SWAP1 SWAP2 DUP4 SWAP2 PUSH32 0x8BE0079C531659141344CD1FD0A4F28419497F9722A3DAAFE3B4186F6B6457E0 SWAP2 LOG3 POP POP JUMP JUMPDEST PUSH2 0xDE0 DUP1 PUSH2 0x95 PUSH1 0x0 CODECOPY PUSH1 0x0 RETURN INVALID PUSH1 0x80 PUSH1 0x40 MSTORE CALLVALUE DUP1 ISZERO PUSH2 0x10 JUMPI PUSH1 0x0 DUP1 REVERT JUMPDEST POP PUSH1 0x4 CALLDATASIZE LT PUSH2 0x100 JUMPI PUSH1 0x0 CALLDATALOAD PUSH1 0xE0 SHR DUP1 PUSH4 0x8DA5CB5B GT PUSH2 0x97 JUMPI DUP1 PUSH4 0xBB90EDB6 GT PUSH2 0x66 JUMPI DUP1 PUSH4 0xBB90EDB6 EQ PUSH2 0x1D7 JUMPI DUP1 PUSH4 0xD9D8422C EQ PUSH2 0x1DF JUMPI DUP1 PUSH4 0xF2FDE38B EQ PUSH2 0x1F2 JUMPI DUP1 PUSH4 0xF83B5DCE EQ PUSH2 0x205 JUMPI PUSH1 0x0 DUP1 REVERT JUMPDEST DUP1 PUSH4 0x8DA5CB5B EQ PUSH2 0x188 JUMPI DUP1 PUSH4 0x968BCA7B EQ PUSH2 0x19E JUMPI DUP1 PUSH4 0x9FF51675 EQ PUSH2 0x1B1 JUMPI DUP1 PUSH4 0xA756FDD0 EQ PUSH2 0x1C4 JUMPI PUSH1 0x0 DUP1 REVERT JUMPDEST DUP1 PUSH4 0x5C975ABB GT PUSH2 0xD3 JUMPI DUP1 PUSH4 0x5C975ABB EQ PUSH2 0x137 JUMPI DUP1 PUSH4 0x61D027B3 EQ PUSH2 0x14D JUMPI DUP1 PUSH4 0x715018A6 EQ PUSH2 0x178 JUMPI DUP1 PUSH4 0x8456CB59 EQ PUSH2 0x180 JUMPI PUSH1 0x0 DUP1 REVERT JUMPDEST DUP1 PUSH4 0x1667E9E9 EQ PUSH2 0x105 JUMPI DUP1 PUSH4 0x3F4BA83A EQ PUSH2 0x10F JUMPI DUP1 PUSH4 0x4087D1FA EQ PUSH2 0x117 JUMPI DUP1 PUSH4 0x5AD77013 EQ PUSH2 0x12E JUMPI JUMPDEST PUSH1 0x0 DUP1 REVERT JUMPDEST PUSH2 0x10D PUSH2 0x218 JUMP JUMPDEST STOP JUMPDEST PUSH2 0x10D PUSH2 0x6B1 JUMP JUMPDEST PUSH1 0x6 SLOAD JUMPDEST PUSH1 0x40 MLOAD SWAP1 DUP2 MSTORE PUSH1 0x20 ADD JUMPDEST PUSH1 0x40 MLOAD DUP1 SWAP2 SUB SWAP1 RETURN JUMPDEST PUSH2 0x11B PUSH1 0x6 SLOAD DUP2 JUMP JUMPDEST PUSH1 0x0 SLOAD PUSH1 0xFF AND PUSH1 0x40 MLOAD SWAP1 ISZERO ISZERO DUP2 MSTORE PUSH1 0x20 ADD PUSH2 0x125 JUMP JUMPDEST PUSH1 0x2 SLOAD PUSH2 0x160 SWAP1 PUSH1 0x1 PUSH1 0x1 PUSH1 0xA0 SHL SUB AND DUP2 JUMP JUMPDEST PUSH1 0x40 MLOAD PUSH1 0x1 PUSH1 0x1 PUSH1 0xA0 SHL SUB SWAP1 SWAP2 AND DUP2 MSTORE PUSH1 0x20 ADD PUSH2 0x125 JUMP JUMPDEST PUSH2 0x10D PUSH2 0x71E JUMP JUMPDEST PUSH2 0x10D PUSH2 0x732 JUMP JUMPDEST PUSH1 0x0 SLOAD PUSH2 0x100 SWAP1 DIV PUSH1 0x1 PUSH1 0x1 PUSH1 0xA0 SHL SUB AND PUSH2 0x160 JUMP JUMPDEST PUSH2 0x11B PUSH2 0x1AC CALLDATASIZE PUSH1 0x4 PUSH2 0xBA7 JUMP JUMPDEST PUSH2 0x799 JUMP JUMPDEST PUSH1 0x7 SLOAD PUSH2 0x160 SWAP1 PUSH1 0x1 PUSH1 0x1 PUSH1 0xA0 SHL SUB AND DUP2 JUMP JUMPDEST PUSH1 0x4 SLOAD PUSH2 0x160 SWAP1 PUSH1 0x1 PUSH1 0x1 PUSH1 0xA0 SHL SUB AND DUP2 JUMP JUMPDEST PUSH1 0x5 SLOAD PUSH2 0x11B JUMP JUMPDEST PUSH2 0x10D PUSH2 0x1ED CALLDATASIZE PUSH1 0x4 PUSH2 0xBF2 JUMP JUMPDEST PUSH2 0x7BA JUMP JUMPDEST PUSH2 0x10D PUSH2 0x200 CALLDATASIZE PUSH1 0x4 PUSH2 0xCFC JUMP JUMPDEST PUSH2 0x8B3 JUMP JUMPDEST PUSH1 0x3 SLOAD PUSH2 0x160 SWAP1 PUSH1 0x1 PUSH1 0x1 PUSH1 0xA0 SHL SUB AND DUP2 JUMP JUMPDEST PUSH2 0x220 PUSH2 0x943 JUMP JUMPDEST PUSH1 0x2 PUSH1 0x1 SLOAD SUB PUSH2 0x277 JUMPI PUSH1 0x40 MLOAD PUSH3 0x461BCD PUSH1 0xE5 SHL DUP2 MSTORE PUSH1 0x20 PUSH1 0x4 DUP3 ADD MSTORE PUSH1 0x1F PUSH1 0x24 DUP3 ADD MSTORE PUSH32 0x5265656E7472616E637947756172643A207265656E7472616E742063616C6C00 PUSH1 0x44 DUP3 ADD MSTORE PUSH1 0x64 ADD JUMPDEST PUSH1 0x40 MLOAD DUP1 SWAP2 SUB SWAP1 REVERT JUMPDEST PUSH1 0x2 PUSH1 0x1 SWAP1 DUP2 SSTORE PUSH1 0x5 SLOAD LT ISZERO PUSH2 0x2CF JUMPI PUSH1 0x40 MLOAD PUSH3 0x461BCD PUSH1 0xE5 SHL DUP2 MSTORE PUSH1 0x20 PUSH1 0x4 DUP3 ADD MSTORE PUSH1 0x19 PUSH1 0x24 DUP3 ADD MSTORE PUSH32 0x4E6F20617661696C61626C6520454320546F6B656E2049647300000000000000 PUSH1 0x44 DUP3 ADD MSTORE PUSH1 0x64 ADD PUSH2 0x26E JUMP JUMPDEST PUSH1 0x3 SLOAD PUSH1 0x2 SLOAD PUSH1 0x40 MLOAD PUSH4 0x70A08231 PUSH1 0xE0 SHL DUP2 MSTORE PUSH1 0x1 PUSH1 0x1 PUSH1 0xA0 SHL SUB SWAP2 DUP3 AND PUSH1 0x4 DUP3 ADD MSTORE PUSH1 0x1 SWAP3 SWAP2 SWAP1 SWAP2 AND SWAP1 PUSH4 0x70A08231 SWAP1 PUSH1 0x24 ADD PUSH1 0x20 PUSH1 0x40 MLOAD DUP1 DUP4 SUB DUP2 DUP7 GAS STATICCALL ISZERO DUP1 ISZERO PUSH2 0x320 JUMPI RETURNDATASIZE PUSH1 0x0 DUP1 RETURNDATACOPY RETURNDATASIZE PUSH1 0x0 REVERT JUMPDEST POP POP POP POP PUSH1 0x40 MLOAD RETURNDATASIZE PUSH1 0x1F NOT PUSH1 0x1F DUP3 ADD AND DUP3 ADD DUP1 PUSH1 0x40 MSTORE POP DUP2 ADD SWAP1 PUSH2 0x344 SWAP2 SWAP1 PUSH2 0xD1E JUMP JUMPDEST LT ISZERO PUSH2 0x392 JUMPI PUSH1 0x40 MLOAD PUSH3 0x461BCD PUSH1 0xE5 SHL DUP2 MSTORE PUSH1 0x20 PUSH1 0x4 DUP3 ADD MSTORE PUSH1 0x13 PUSH1 0x24 DUP3 ADD MSTORE PUSH32 0x547265617375727920686173206E6F2045437300000000000000000000000000 PUSH1 0x44 DUP3 ADD MSTORE PUSH1 0x64 ADD PUSH2 0x26E JUMP JUMPDEST PUSH1 0x6 SLOAD PUSH1 0x4 DUP1 SLOAD PUSH1 0x40 MLOAD PUSH4 0x70A08231 PUSH1 0xE0 SHL DUP2 MSTORE CALLER SWAP3 DUP2 ADD SWAP3 SWAP1 SWAP3 MSTORE PUSH1 0x1 PUSH1 0x1 PUSH1 0xA0 SHL SUB AND SWAP1 PUSH4 0x70A08231 SWAP1 PUSH1 0x24 ADD PUSH1 0x20 PUSH1 0x40 MLOAD DUP1 DUP4 SUB DUP2 DUP7 GAS STATICCALL ISZERO DUP1 ISZERO PUSH2 0x3DE JUMPI RETURNDATASIZE PUSH1 0x0 DUP1 RETURNDATACOPY RETURNDATASIZE PUSH1 0x0 REVERT JUMPDEST POP POP POP POP PUSH1 0x40 MLOAD RETURNDATASIZE PUSH1 0x1F NOT PUSH1 0x1F DUP3 ADD AND DUP3 ADD DUP1 PUSH1 0x40 MSTORE POP DUP2 ADD SWAP1 PUSH2 0x402 SWAP2 SWAP1 PUSH2 0xD1E JUMP JUMPDEST LT ISZERO PUSH2 0x450 JUMPI PUSH1 0x40 MLOAD PUSH3 0x461BCD PUSH1 0xE5 SHL DUP2 MSTORE PUSH1 0x20 PUSH1 0x4 DUP3 ADD MSTORE PUSH1 0x16 PUSH1 0x24 DUP3 ADD MSTORE PUSH32 0x4E6F7420456E6F75676820244F535420546F6B656E7300000000000000000000 PUSH1 0x44 DUP3 ADD MSTORE PUSH1 0x64 ADD PUSH2 0x26E JUMP JUMPDEST PUSH1 0x5 DUP1 SLOAD PUSH1 0x0 SWAP2 SWAP1 PUSH2 0x464 SWAP1 PUSH1 0x1 SWAP1 PUSH2 0xD37 JUMP JUMPDEST DUP2 SLOAD DUP2 LT PUSH2 0x474 JUMPI PUSH2 0x474 PUSH2 0xD5C JUMP JUMPDEST PUSH1 0x0 SWAP2 DUP3 MSTORE PUSH1 0x20 SWAP1 SWAP2 KECCAK256 ADD SLOAD PUSH1 0x6 SLOAD PUSH1 0x4 DUP1 SLOAD PUSH1 0x40 MLOAD PUSH4 0x6EB1769F PUSH1 0xE1 SHL DUP2 MSTORE CALLER SWAP3 DUP2 ADD SWAP3 SWAP1 SWAP3 MSTORE ADDRESS PUSH1 0x24 DUP4 ADD MSTORE SWAP3 SWAP4 POP SWAP1 SWAP2 PUSH1 0x1 PUSH1 0x1 PUSH1 0xA0 SHL SUB AND SWAP1 PUSH4 0xDD62ED3E SWAP1 PUSH1 0x44 ADD PUSH1 0x20 PUSH1 0x40 MLOAD DUP1 DUP4 SUB DUP2 DUP7 GAS STATICCALL ISZERO DUP1 ISZERO PUSH2 0x4D7 JUMPI RETURNDATASIZE PUSH1 0x0 DUP1 RETURNDATACOPY RETURNDATASIZE PUSH1 0x0 REVERT JUMPDEST POP POP POP POP PUSH1 0x40 MLOAD RETURNDATASIZE PUSH1 0x1F NOT PUSH1 0x1F DUP3 ADD AND DUP3 ADD DUP1 PUSH1 0x40 MSTORE POP DUP2 ADD SWAP1 PUSH2 0x4FB SWAP2 SWAP1 PUSH2 0xD1E JUMP JUMPDEST LT ISZERO PUSH2 0x549 JUMPI PUSH1 0x40 MLOAD PUSH3 0x461BCD PUSH1 0xE5 SHL DUP2 MSTORE PUSH1 0x20 PUSH1 0x4 DUP3 ADD MSTORE PUSH1 0x18 PUSH1 0x24 DUP3 ADD MSTORE PUSH32 0x4E6F7420656E6F756768204F535420616C6C6F77616E63650000000000000000 PUSH1 0x44 DUP3 ADD MSTORE PUSH1 0x64 ADD PUSH2 0x26E JUMP JUMPDEST PUSH1 0x4 DUP1 SLOAD PUSH1 0x7 SLOAD PUSH1 0x6 SLOAD PUSH1 0x40 MLOAD PUSH4 0x23B872DD PUSH1 0xE0 SHL DUP2 MSTORE CALLER SWAP5 DUP2 ADD SWAP5 SWAP1 SWAP5 MSTORE PUSH1 0x1 PUSH1 0x1 PUSH1 0xA0 SHL SUB SWAP2 DUP3 AND PUSH1 0x24 DUP6 ADD MSTORE PUSH1 0x44 DUP5 ADD MSTORE AND SWAP1 PUSH4 0x23B872DD SWAP1 PUSH1 0x64 ADD PUSH1 0x20 PUSH1 0x40 MLOAD DUP1 DUP4 SUB DUP2 PUSH1 0x0 DUP8 GAS CALL ISZERO DUP1 ISZERO PUSH2 0x5A7 JUMPI RETURNDATASIZE PUSH1 0x0 DUP1 RETURNDATACOPY RETURNDATASIZE PUSH1 0x0 REVERT JUMPDEST POP POP POP POP PUSH1 0x40 MLOAD RETURNDATASIZE PUSH1 0x1F NOT PUSH1 0x1F DUP3 ADD AND DUP3 ADD DUP1 PUSH1 0x40 MSTORE POP DUP2 ADD SWAP1 PUSH2 0x5CB SWAP2 SWAP1 PUSH2 0xD72 JUMP JUMPDEST POP PUSH1 0x3 SLOAD PUSH1 0x2 SLOAD PUSH1 0x40 MLOAD PUSH4 0x23B872DD PUSH1 0xE0 SHL DUP2 MSTORE PUSH1 0x1 PUSH1 0x1 PUSH1 0xA0 SHL SUB SWAP2 DUP3 AND PUSH1 0x4 DUP3 ADD MSTORE CALLER PUSH1 0x24 DUP3 ADD MSTORE PUSH1 0x44 DUP2 ADD DUP5 SWAP1 MSTORE SWAP2 AND SWAP1 PUSH4 0x23B872DD SWAP1 PUSH1 0x64 ADD PUSH1 0x0 PUSH1 0x40 MLOAD DUP1 DUP4 SUB DUP2 PUSH1 0x0 DUP8 DUP1 EXTCODESIZE ISZERO DUP1 ISZERO PUSH2 0x622 JUMPI PUSH1 0x0 DUP1 REVERT JUMPDEST POP GAS CALL ISZERO DUP1 ISZERO PUSH2 0x636 JUMPI RETURNDATASIZE PUSH1 0x0 DUP1 RETURNDATACOPY RETURNDATASIZE PUSH1 0x0 REVERT JUMPDEST POP POP POP POP PUSH1 0x5 DUP1 SLOAD DUP1 PUSH2 0x64B JUMPI PUSH2 0x64B PUSH2 0xD94 JUMP JUMPDEST PUSH1 0x0 DUP3 DUP2 MSTORE PUSH1 0x20 DUP2 KECCAK256 DUP3 ADD PUSH1 0x0 NOT SWAP1 DUP2 ADD SWAP2 SWAP1 SWAP2 SSTORE ADD SWAP1 SSTORE PUSH1 0x6 SLOAD PUSH1 0x5 SLOAD PUSH1 0x40 MLOAD CALLER SWAP2 PUSH32 0xC3D823B0FD39622C70D38DFECC16E12ED37A78328FA6236ACF1F379B35FB060D SWAP2 PUSH2 0x6A2 SWAP2 DUP7 DUP3 MSTORE PUSH1 0x20 DUP3 ADD MSTORE PUSH1 0x40 ADD SWAP1 JUMP JUMPDEST PUSH1 0x40 MLOAD DUP1 SWAP2 SUB SWAP1 LOG3 POP PUSH1 0x1 DUP1 SSTORE JUMP JUMPDEST PUSH2 0x6B9 PUSH2 0x996 JUMP JUMPDEST PUSH1 0x2 PUSH1 0x1 SLOAD SUB PUSH2 0x70B JUMPI PUSH1 0x40 MLOAD PUSH3 0x461BCD PUSH1 0xE5 SHL DUP2 MSTORE PUSH1 0x20 PUSH1 0x4 DUP3 ADD MSTORE PUSH1 0x1F PUSH1 0x24 DUP3 ADD MSTORE PUSH32 0x5265656E7472616E637947756172643A207265656E7472616E742063616C6C00 PUSH1 0x44 DUP3 ADD MSTORE PUSH1 0x64 ADD PUSH2 0x26E JUMP JUMPDEST PUSH1 0x2 PUSH1 0x1 SSTORE PUSH2 0x718 PUSH2 0x9F6 JUMP JUMPDEST PUSH1 0x1 DUP1 SSTORE JUMP JUMPDEST PUSH2 0x726 PUSH2 0x996 JUMP JUMPDEST PUSH2 0x730 PUSH1 0x0 PUSH2 0xA48 JUMP JUMPDEST JUMP JUMPDEST PUSH2 0x73A PUSH2 0x996 JUMP JUMPDEST PUSH1 0x2 PUSH1 0x1 SLOAD SUB PUSH2 0x78C JUMPI PUSH1 0x40 MLOAD PUSH3 0x461BCD PUSH1 0xE5 SHL DUP2 MSTORE PUSH1 0x20 PUSH1 0x4 DUP3 ADD MSTORE PUSH1 0x1F PUSH1 0x24 DUP3 ADD MSTORE PUSH32 0x5265656E7472616E637947756172643A207265656E7472616E742063616C6C00 PUSH1 0x44 DUP3 ADD MSTORE PUSH1 0x64 ADD PUSH2 0x26E JUMP JUMPDEST PUSH1 0x2 PUSH1 0x1 SSTORE PUSH2 0x718 PUSH2 0xAB8 JUMP JUMPDEST PUSH1 0x5 DUP2 DUP2 SLOAD DUP2 LT PUSH2 0x7A9 JUMPI PUSH1 0x0 DUP1 REVERT JUMPDEST PUSH1 0x0 SWAP2 DUP3 MSTORE PUSH1 0x20 SWAP1 SWAP2 KECCAK256 ADD SLOAD SWAP1 POP DUP2 JUMP JUMPDEST PUSH2 0x7C2 PUSH2 0x996 JUMP JUMPDEST PUSH1 0x2 PUSH1 0x1 SLOAD SUB PUSH2 0x814 JUMPI PUSH1 0x40 MLOAD PUSH3 0x461BCD PUSH1 0xE5 SHL DUP2 MSTORE PUSH1 0x20 PUSH1 0x4 DUP3 ADD MSTORE PUSH1 0x1F PUSH1 0x24 DUP3 ADD MSTORE PUSH32 0x5265656E7472616E637947756172643A207265656E7472616E742063616C6C00 PUSH1 0x44 DUP3 ADD MSTORE PUSH1 0x64 ADD PUSH2 0x26E JUMP JUMPDEST PUSH1 0x2 PUSH1 0x1 DUP2 SWAP1 SSTORE DUP1 SLOAD PUSH1 0x1 PUSH1 0x1 PUSH1 0xA0 SHL SUB DUP1 DUP10 AND PUSH20 0xFFFFFFFFFFFFFFFFFFFFFFFFFFFFFFFFFFFFFFFF NOT SWAP3 DUP4 AND OR SWAP1 SWAP3 SSTORE PUSH1 0x3 DUP1 SLOAD DUP9 DUP5 AND SWAP1 DUP4 AND OR SWAP1 SSTORE PUSH1 0x4 DUP1 SLOAD SWAP3 DUP8 AND SWAP3 SWAP1 SWAP2 AND SWAP2 SWAP1 SWAP2 OR SWAP1 SSTORE DUP3 MLOAD PUSH2 0x876 SWAP1 PUSH1 0x5 SWAP1 PUSH1 0x20 DUP7 ADD SWAP1 PUSH2 0xB47 JUMP JUMPDEST POP PUSH1 0x6 SWAP2 SWAP1 SWAP2 SSTORE PUSH1 0x7 DUP1 SLOAD PUSH20 0xFFFFFFFFFFFFFFFFFFFFFFFFFFFFFFFFFFFFFFFF NOT AND PUSH1 0x1 PUSH1 0x1 PUSH1 0xA0 SHL SUB SWAP1 SWAP3 AND SWAP2 SWAP1 SWAP2 OR SWAP1 SSTORE POP POP PUSH1 0x1 DUP1 SSTORE POP POP JUMP JUMPDEST PUSH2 0x8BB PUSH2 0x996 JUMP JUMPDEST PUSH1 0x1 PUSH1 0x1 PUSH1 0xA0 SHL SUB DUP2 AND PUSH2 0x937 JUMPI PUSH1 0x40 MLOAD PUSH3 0x461BCD PUSH1 0xE5 SHL DUP2 MSTORE PUSH1 0x20 PUSH1 0x4 DUP3 ADD MSTORE PUSH1 0x26 PUSH1 0x24 DUP3 ADD MSTORE PUSH32 0x4F776E61626C653A206E6577206F776E657220697320746865207A65726F2061 PUSH1 0x44 DUP3 ADD MSTORE PUSH32 0x6464726573730000000000000000000000000000000000000000000000000000 PUSH1 0x64 DUP3 ADD MSTORE PUSH1 0x84 ADD PUSH2 0x26E JUMP JUMPDEST PUSH2 0x940 DUP2 PUSH2 0xA48 JUMP JUMPDEST POP JUMP JUMPDEST PUSH1 0x0 SLOAD PUSH1 0xFF AND ISZERO PUSH2 0x730 JUMPI PUSH1 0x40 MLOAD PUSH3 0x461BCD PUSH1 0xE5 SHL DUP2 MSTORE PUSH1 0x20 PUSH1 0x4 DUP3 ADD MSTORE PUSH1 0x10 PUSH1 0x24 DUP3 ADD MSTORE PUSH32 0x5061757361626C653A2070617573656400000000000000000000000000000000 PUSH1 0x44 DUP3 ADD MSTORE PUSH1 0x64 ADD PUSH2 0x26E JUMP JUMPDEST PUSH1 0x0 SLOAD PUSH1 0x1 PUSH1 0x1 PUSH1 0xA0 SHL SUB PUSH2 0x100 SWAP1 SWAP2 DIV AND CALLER EQ PUSH2 0x730 JUMPI PUSH1 0x40 MLOAD PUSH3 0x461BCD PUSH1 0xE5 SHL DUP2 MSTORE PUSH1 0x20 PUSH1 0x4 DUP3 ADD DUP2 SWAP1 MSTORE PUSH1 0x24 DUP3 ADD MSTORE PUSH32 0x4F776E61626C653A2063616C6C6572206973206E6F7420746865206F776E6572 PUSH1 0x44 DUP3 ADD MSTORE PUSH1 0x64 ADD PUSH2 0x26E JUMP JUMPDEST PUSH2 0x9FE PUSH2 0xAF5 JUMP JUMPDEST PUSH1 0x0 DUP1 SLOAD PUSH1 0xFF NOT AND SWAP1 SSTORE PUSH32 0x5DB9EE0A495BF2E6FF9C91A7834C1BA4FDD244A5E8AA4E537BD38AEAE4B073AA CALLER JUMPDEST PUSH1 0x40 MLOAD PUSH1 0x1 PUSH1 0x1 PUSH1 0xA0 SHL SUB SWAP1 SWAP2 AND DUP2 MSTORE PUSH1 0x20 ADD PUSH1 0x40 MLOAD DUP1 SWAP2 SUB SWAP1 LOG1 JUMP JUMPDEST PUSH1 0x0 DUP1 SLOAD PUSH1 0x1 PUSH1 0x1 PUSH1 0xA0 SHL SUB DUP4 DUP2 AND PUSH2 0x100 DUP2 DUP2 MUL PUSH32 0xFFFFFFFFFFFFFFFFFFFFFF0000000000000000000000000000000000000000FF DUP6 AND OR DUP6 SSTORE PUSH1 0x40 MLOAD SWAP4 DIV SWAP2 SWAP1 SWAP2 AND SWAP3 SWAP1 SWAP2 DUP4 SWAP2 PUSH32 0x8BE0079C531659141344CD1FD0A4F28419497F9722A3DAAFE3B4186F6B6457E0 SWAP2 LOG3 POP POP JUMP JUMPDEST PUSH2 0xAC0 PUSH2 0x943 JUMP JUMPDEST PUSH1 0x0 DUP1 SLOAD PUSH1 0xFF NOT AND PUSH1 0x1 OR SWAP1 SSTORE PUSH32 0x62E78CEA01BEE320CD4E420270B5EA74000D11B0C9F74754EBDBFC544B05A258 PUSH2 0xA2B CALLER SWAP1 JUMP JUMPDEST PUSH1 0x0 SLOAD PUSH1 0xFF AND PUSH2 0x730 JUMPI PUSH1 0x40 MLOAD PUSH3 0x461BCD PUSH1 0xE5 SHL DUP2 MSTORE PUSH1 0x20 PUSH1 0x4 DUP3 ADD MSTORE PUSH1 0x14 PUSH1 0x24 DUP3 ADD MSTORE PUSH32 0x5061757361626C653A206E6F7420706175736564000000000000000000000000 PUSH1 0x44 DUP3 ADD MSTORE PUSH1 0x64 ADD PUSH2 0x26E JUMP JUMPDEST DUP3 DUP1 SLOAD DUP3 DUP3 SSTORE SWAP1 PUSH1 0x0 MSTORE PUSH1 0x20 PUSH1 0x0 KECCAK256 SWAP1 DUP2 ADD SWAP3 DUP3 ISZERO PUSH2 0xB82 JUMPI SWAP2 PUSH1 0x20 MUL DUP3 ADD JUMPDEST DUP3 DUP2 GT ISZERO PUSH2 0xB82 JUMPI DUP3 MLOAD DUP3 SSTORE SWAP2 PUSH1 0x20 ADD SWAP2 SWAP1 PUSH1 0x1 ADD SWAP1 PUSH2 0xB67 JUMP JUMPDEST POP PUSH2 0xB8E SWAP3 SWAP2 POP PUSH2 0xB92 JUMP JUMPDEST POP SWAP1 JUMP JUMPDEST JUMPDEST DUP1 DUP3 GT ISZERO PUSH2 0xB8E JUMPI PUSH1 0x0 DUP2 SSTORE PUSH1 0x1 ADD PUSH2 0xB93 JUMP JUMPDEST PUSH1 0x0 PUSH1 0x20 DUP3 DUP5 SUB SLT ISZERO PUSH2 0xBB9 JUMPI PUSH1 0x0 DUP1 REVERT JUMPDEST POP CALLDATALOAD SWAP2 SWAP1 POP JUMP JUMPDEST DUP1 CALLDATALOAD PUSH1 0x1 PUSH1 0x1 PUSH1 0xA0 SHL SUB DUP2 AND DUP2 EQ PUSH2 0xBD7 JUMPI PUSH1 0x0 DUP1 REVERT JUMPDEST SWAP2 SWAP1 POP JUMP JUMPDEST PUSH4 0x4E487B71 PUSH1 0xE0 SHL PUSH1 0x0 MSTORE PUSH1 0x41 PUSH1 0x4 MSTORE PUSH1 0x24 PUSH1 0x0 REVERT JUMPDEST PUSH1 0x0 DUP1 PUSH1 0x0 DUP1 PUSH1 0x0 DUP1 PUSH1 0xC0 DUP8 DUP10 SUB SLT ISZERO PUSH2 0xC0B JUMPI PUSH1 0x0 DUP1 REVERT JUMPDEST PUSH2 0xC14 DUP8 PUSH2 0xBC0 JUMP JUMPDEST SWAP6 POP PUSH1 0x20 PUSH2 0xC23 DUP2 DUP10 ADD PUSH2 0xBC0 JUMP JUMPDEST SWAP6 POP PUSH2 0xC31 PUSH1 0x40 DUP10 ADD PUSH2 0xBC0 JUMP JUMPDEST SWAP5 POP PUSH1 0x60 DUP9 ADD CALLDATALOAD PUSH8 0xFFFFFFFFFFFFFFFF DUP1 DUP3 GT ISZERO PUSH2 0xC4E JUMPI PUSH1 0x0 DUP1 REVERT JUMPDEST DUP2 DUP11 ADD SWAP2 POP DUP11 PUSH1 0x1F DUP4 ADD SLT PUSH2 0xC62 JUMPI PUSH1 0x0 DUP1 REVERT JUMPDEST DUP2 CALLDATALOAD DUP2 DUP2 GT ISZERO PUSH2 0xC74 JUMPI PUSH2 0xC74 PUSH2 0xBDC JUMP JUMPDEST DUP1 PUSH1 0x5 SHL PUSH1 0x40 MLOAD PUSH1 0x1F NOT PUSH1 0x3F DUP4 ADD AND DUP2 ADD DUP2 DUP2 LT DUP6 DUP3 GT OR ISZERO PUSH2 0xC99 JUMPI PUSH2 0xC99 PUSH2 0xBDC JUMP JUMPDEST PUSH1 0x40 MSTORE SWAP2 DUP3 MSTORE DUP5 DUP3 ADD SWAP3 POP DUP4 DUP2 ADD DUP6 ADD SWAP2 DUP14 DUP4 GT ISZERO PUSH2 0xCB7 JUMPI PUSH1 0x0 DUP1 REVERT JUMPDEST SWAP4 DUP6 ADD SWAP4 JUMPDEST DUP3 DUP6 LT ISZERO PUSH2 0xCD5 JUMPI DUP5 CALLDATALOAD DUP5 MSTORE SWAP4 DUP6 ADD SWAP4 SWAP3 DUP6 ADD SWAP3 PUSH2 0xCBC JUMP JUMPDEST SWAP8 POP POP POP POP PUSH1 0x80 DUP10 ADD CALLDATALOAD SWAP4 POP PUSH2 0xCF0 SWAP2 POP POP PUSH1 0xA0 DUP9 ADD PUSH2 0xBC0 JUMP JUMPDEST SWAP1 POP SWAP3 SWAP6 POP SWAP3 SWAP6 POP SWAP3 SWAP6 JUMP JUMPDEST PUSH1 0x0 PUSH1 0x20 DUP3 DUP5 SUB SLT ISZERO PUSH2 0xD0E JUMPI PUSH1 0x0 DUP1 REVERT JUMPDEST PUSH2 0xD17 DUP3 PUSH2 0xBC0 JUMP JUMPDEST SWAP4 SWAP3 POP POP POP JUMP JUMPDEST PUSH1 0x0 PUSH1 0x20 DUP3 DUP5 SUB SLT ISZERO PUSH2 0xD30 JUMPI PUSH1 0x0 DUP1 REVERT JUMPDEST POP MLOAD SWAP2 SWAP1 POP JUMP JUMPDEST PUSH1 0x0 DUP3 DUP3 LT ISZERO PUSH2 0xD57 JUMPI PUSH4 0x4E487B71 PUSH1 0xE0 SHL PUSH1 0x0 MSTORE PUSH1 0x11 PUSH1 0x4 MSTORE PUSH1 0x24 PUSH1 0x0 REVERT JUMPDEST POP SUB SWAP1 JUMP JUMPDEST PUSH4 0x4E487B71 PUSH1 0xE0 SHL PUSH1 0x0 MSTORE PUSH1 0x32 PUSH1 0x4 MSTORE PUSH1 0x24 PUSH1 0x0 REVERT JUMPDEST PUSH1 0x0 PUSH1 0x20 DUP3 DUP5 SUB SLT ISZERO PUSH2 0xD84 JUMPI PUSH1 0x0 DUP1 REVERT JUMPDEST DUP2 MLOAD DUP1 ISZERO ISZERO DUP2 EQ PUSH2 0xD17 JUMPI PUSH1 0x0 DUP1 REVERT JUMPDEST PUSH4 0x4E487B71 PUSH1 0xE0 SHL PUSH1 0x0 MSTORE PUSH1 0x31 PUSH1 0x4 MSTORE PUSH1 0x24 PUSH1 0x0 REVERT INVALID LOG2 PUSH5 0x6970667358 0x22 SLT KECCAK256 SWAP9 PUSH26 0x74A9B7872959EF894476E31038FF32A59DCB7AFC02EC7075A5A1 0xF6 DUP4 0xFC 0x25 PUSH5 0x736F6C6343 STOP ADDMOD 0xD STOP CALLER "
    },
    "gasEstimates": {
      "creation": {
        "codeDepositCost": "710400",
        "executionCost": "72928",
        "totalCost": "783328"
      },
      "external": {
        "ec()": "2425",
        "ecTokenIds(uint256)": "4609",
        "getEcLeft()": "2303",
        "getOstPricePerEc()": "2338",
        "oasisGraveyard()": "2404",
        "ost()": "2426",
        "ostPricePerEc()": "2374",
        "owner()": "2365",
        "pause()": "infinite",
        "paused()": "2315",
        "purchaseEC()": "infinite",
        "renounceOwnership()": "infinite",
        "setStateVariables(address,address,address,uint256[],uint256,address)": "infinite",
        "transferOwnership(address)": "28420",
        "treasury()": "2382",
        "unpause()": "infinite"
      }
    },
    "methodIdentifiers": {
      "ec()": "f83b5dce",
      "ecTokenIds(uint256)": "968bca7b",
      "getEcLeft()": "bb90edb6",
      "getOstPricePerEc()": "4087d1fa",
      "oasisGraveyard()": "9ff51675",
      "ost()": "a756fdd0",
      "ostPricePerEc()": "5ad77013",
      "owner()": "8da5cb5b",
      "pause()": "8456cb59",
      "paused()": "5c975abb",
      "purchaseEC()": "1667e9e9",
      "renounceOwnership()": "715018a6",
      "setStateVariables(address,address,address,uint256[],uint256,address)": "d9d8422c",
      "transferOwnership(address)": "f2fde38b",
      "treasury()": "61d027b3",
      "unpause()": "3f4ba83a"
    }
  },
  "storageLayout": {
    "storage": [
      {
        "astId": 2208,
        "contract": "OasisShop.sol:OasisShop",
        "label": "_paused",
        "offset": 0,
        "slot": "0",
        "type": "t_bool"
      },
      {
        "astId": 1138,
        "contract": "OasisShop.sol:OasisShop",
        "label": "_owner",
        "offset": 1,
        "slot": "0",
        "type": "t_address"
      },
      {
        "astId": 2309,
        "contract": "OasisShop.sol:OasisShop",
        "label": "_status",
        "offset": 0,
        "slot": "1",
        "type": "t_uint256"
      },
      {
        "astId": 739,
        "contract": "OasisShop.sol:OasisShop",
        "label": "treasury",
        "offset": 0,
        "slot": "2",
        "type": "t_address"
      },
      {
        "astId": 741,
        "contract": "OasisShop.sol:OasisShop",
        "label": "ec",
        "offset": 0,
        "slot": "3",
        "type": "t_address"
      },
      {
        "astId": 743,
        "contract": "OasisShop.sol:OasisShop",
        "label": "ost",
        "offset": 0,
        "slot": "4",
        "type": "t_address"
      },
      {
        "astId": 746,
        "contract": "OasisShop.sol:OasisShop",
        "label": "ecTokenIds",
        "offset": 0,
        "slot": "5",
        "type": "t_array(t_uint256)dyn_storage"
      },
      {
        "astId": 748,
        "contract": "OasisShop.sol:OasisShop",
        "label": "ostPricePerEc",
        "offset": 0,
        "slot": "6",
        "type": "t_uint256"
      },
      {
        "astId": 750,
        "contract": "OasisShop.sol:OasisShop",
        "label": "oasisGraveyard",
        "offset": 0,
        "slot": "7",
        "type": "t_address"
      }
    ],
    "types": {
      "t_address": {
        "encoding": "inplace",
        "label": "address",
        "numberOfBytes": "20"
      },
      "t_array(t_uint256)dyn_storage": {
        "base": "t_uint256",
        "encoding": "dynamic_array",
        "label": "uint256[]",
        "numberOfBytes": "32"
      },
      "t_bool": {
        "encoding": "inplace",
        "label": "bool",
        "numberOfBytes": "1"
      },
      "t_uint256": {
        "encoding": "inplace",
        "label": "uint256",
        "numberOfBytes": "32"
      }
    }
  },
  "userdoc": {
    "events": {
      "PurchasedEC(address,uint256,uint256,uint256)": {
        "notice": "EVENTS ///"
      }
    },
    "kind": "user",
    "methods": {
      "pause()": {
        "notice": "OWNER FUNCTIONS ///"
      },
      "purchaseEC()": {
        "notice": "EXTERNAL FUNCTIONS ///"
      },
      "treasury()": {
        "notice": "STATE VARIABLES ///"
      }
    },
    "version": 1
  }
}