{
  "abi": [
    {
      "anonymous": false,
      "inputs": [
        {
          "indexed": true,
          "internalType": "address",
          "name": "previousOwner",
          "type": "address"
        },
        {
          "indexed": true,
          "internalType": "address",
          "name": "newOwner",
          "type": "address"
        }
      ],
      "name": "OwnershipTransferred",
      "type": "event"
    },
    {
      "anonymous": false,
      "inputs": [
        {
          "indexed": false,
          "internalType": "address",
          "name": "account",
          "type": "address"
        }
      ],
      "name": "Paused",
      "type": "event"
    },
    {
      "anonymous": false,
      "inputs": [
        {
          "indexed": true,
          "internalType": "address",
          "name": "buyer",
          "type": "address"
        },
        {
          "indexed": true,
          "internalType": "address",
          "name": "itemAddress",
          "type": "address"
        },
        {
          "components": [
            {
              "internalType": "bool",
              "name": "isActive",
              "type": "bool"
            },
            {
              "internalType": "bool",
              "name": "is721",
              "type": "bool"
            },
            {
              "internalType": "bool",
              "name": "is20",
              "type": "bool"
            },
            {
              "internalType": "bool",
              "name": "withWei",
              "type": "bool"
            },
            {
              "internalType": "bool",
              "name": "withOst",
              "type": "bool"
            },
            {
              "internalType": "uint256",
              "name": "weiPrice",
              "type": "uint256"
            },
            {
              "internalType": "uint256",
              "name": "ostPrice",
              "type": "uint256"
            }
          ],
          "indexed": false,
          "internalType": "struct OasisShop.ShopItem",
          "name": "item",
          "type": "tuple"
        },
        {
          "indexed": false,
          "internalType": "uint256",
          "name": "quantity",
          "type": "uint256"
        }
      ],
      "name": "PurchasedShopItems",
      "type": "event"
    },
    {
      "anonymous": false,
      "inputs": [
        {
          "indexed": false,
          "internalType": "address",
          "name": "account",
          "type": "address"
        }
      ],
      "name": "Unpaused",
      "type": "event"
    },
    {
      "inputs": [
        {
          "internalType": "address",
          "name": "_contract",
          "type": "address"
        },
        {
          "internalType": "bool",
          "name": "_isActive",
          "type": "bool"
        },
        {
          "internalType": "bool",
          "name": "_is721",
          "type": "bool"
        },
        {
          "internalType": "bool",
          "name": "_is20",
          "type": "bool"
        },
        {
          "internalType": "bool",
          "name": "_withWei",
          "type": "bool"
        },
        {
          "internalType": "bool",
          "name": "_withOst",
          "type": "bool"
        },
        {
          "internalType": "uint256",
          "name": "_weiPrice",
          "type": "uint256"
        },
        {
          "internalType": "uint256",
          "name": "_ostPrice",
          "type": "uint256"
        }
      ],
      "name": "addShopItem",
      "outputs": [],
      "stateMutability": "nonpayable",
      "type": "function"
    },
    {
      "inputs": [],
      "name": "oasisGraveyard",
      "outputs": [
        {
          "internalType": "address",
          "name": "",
          "type": "address"
        }
      ],
      "stateMutability": "view",
      "type": "function"
    },
    {
      "inputs": [],
      "name": "ost",
      "outputs": [
        {
          "internalType": "address",
          "name": "",
          "type": "address"
        }
      ],
      "stateMutability": "view",
      "type": "function"
    },
    {
      "inputs": [],
      "name": "owner",
      "outputs": [
        {
          "internalType": "address",
          "name": "",
          "type": "address"
        }
      ],
      "stateMutability": "view",
      "type": "function"
    },
    {
      "inputs": [],
      "name": "pause",
      "outputs": [],
      "stateMutability": "nonpayable",
      "type": "function"
    },
    {
      "inputs": [],
      "name": "paused",
      "outputs": [
        {
          "internalType": "bool",
          "name": "",
          "type": "bool"
        }
      ],
      "stateMutability": "view",
      "type": "function"
    },
    {
      "inputs": [
        {
          "internalType": "address",
          "name": "_contract",
          "type": "address"
        },
        {
          "internalType": "uint256",
          "name": "_quantity",
          "type": "uint256"
        }
      ],
      "name": "purchaseWithEth",
      "outputs": [],
      "stateMutability": "payable",
      "type": "function"
    },
    {
      "inputs": [
        {
          "internalType": "address",
          "name": "_contract",
          "type": "address"
        },
        {
          "internalType": "uint256",
          "name": "_quantity",
          "type": "uint256"
        }
      ],
      "name": "purchaseWithOst",
      "outputs": [],
      "stateMutability": "nonpayable",
      "type": "function"
    },
    {
      "inputs": [
        {
          "internalType": "address",
          "name": "_contract",
          "type": "address"
        }
      ],
      "name": "removeShopIem",
      "outputs": [],
      "stateMutability": "nonpayable",
      "type": "function"
    },
    {
      "inputs": [],
      "name": "renounceOwnership",
      "outputs": [],
      "stateMutability": "nonpayable",
      "type": "function"
    },
    {
      "inputs": [
        {
          "internalType": "address",
          "name": "_oasisGraveyard",
          "type": "address"
        },
        {
          "internalType": "address",
          "name": "_treasury",
          "type": "address"
        },
        {
          "internalType": "address",
          "name": "_ost",
          "type": "address"
        }
      ],
      "name": "setStateVariables",
      "outputs": [],
      "stateMutability": "nonpayable",
      "type": "function"
    },
    {
      "inputs": [
        {
          "internalType": "address",
          "name": "",
          "type": "address"
        }
      ],
      "name": "shopItems",
      "outputs": [
        {
          "internalType": "bool",
          "name": "isActive",
          "type": "bool"
        },
        {
          "internalType": "bool",
          "name": "is721",
          "type": "bool"
        },
        {
          "internalType": "bool",
          "name": "is20",
          "type": "bool"
        },
        {
          "internalType": "bool",
          "name": "withWei",
          "type": "bool"
        },
        {
          "internalType": "bool",
          "name": "withOst",
          "type": "bool"
        },
        {
          "internalType": "uint256",
          "name": "weiPrice",
          "type": "uint256"
        },
        {
          "internalType": "uint256",
          "name": "ostPrice",
          "type": "uint256"
        }
      ],
      "stateMutability": "view",
      "type": "function"
    },
    {
      "inputs": [
        {
          "internalType": "address",
          "name": "newOwner",
          "type": "address"
        }
      ],
      "name": "transferOwnership",
      "outputs": [],
      "stateMutability": "nonpayable",
      "type": "function"
    },
    {
      "inputs": [],
      "name": "treasury",
      "outputs": [
        {
          "internalType": "address",
          "name": "",
          "type": "address"
        }
      ],
      "stateMutability": "view",
      "type": "function"
    },
    {
      "inputs": [],
      "name": "unpause",
      "outputs": [],
      "stateMutability": "nonpayable",
      "type": "function"
    }
  ],
  "devdoc": {
    "author": ". 0xFirekeeper",
    "kind": "dev",
    "methods": {
      "owner()": {
        "details": "Returns the address of the current owner."
      },
      "paused()": {
        "details": "Returns true if the contract is paused, and false otherwise."
      },
      "renounceOwnership()": {
        "details": "Leaves the contract without owner. It will not be possible to call `onlyOwner` functions anymore. Can only be called by the current owner. NOTE: Renouncing ownership will leave the contract without an owner, thereby removing any functionality that is only available to the owner."
      },
      "transferOwnership(address)": {
        "details": "Transfers ownership of the contract to a new account (`newOwner`). Can only be called by the current owner."
      }
    },
    "title": ". Oasis Shop",
    "version": 1
  },
  "evm": {
    "assembly": "    /* \"OasisShop.sol\":620:6785  contract OasisShop is Pausable, Ownable, ReentrancyGuard {... */\n  mstore(0x40, 0x80)\n    /* \"OasisShop.sol\":886:887  0 */\n  0x00\n    /* \"OasisShop.sol\":862:887  uint256 private nonce = 0 */\n  0x06\n  sstore\n    /* \"OasisShop.sol\":620:6785  contract OasisShop is Pausable, Ownable, ReentrancyGuard {... */\n  callvalue\n  dup1\n  iszero\n  tag_1\n  jumpi\n  0x00\n  dup1\n  revert\ntag_1:\n  pop\n    /* \"@openzeppelin/contracts/security/Pausable.sol\":1006:1011   */\n  0x00\n    /* \"@openzeppelin/contracts/security/Pausable.sol\":996:1011   */\n  dup1\n  sload\n  not(0xff)\n  and\n  swap1\n  sstore\n    /* \"@openzeppelin/contracts/access/Ownable.sol\":936:968   */\n  tag_7\n    /* \"@openzeppelin/contracts/utils/Context.sol\":719:729   */\n  caller\n    /* \"@openzeppelin/contracts/access/Ownable.sol\":936:954   */\n  tag_10\n    /* \"@openzeppelin/contracts/access/Ownable.sol\":936:968   */\n  jump\t// in\ntag_7:\n    /* \"@openzeppelin/contracts/security/ReentrancyGuard.sol\":1701:1702   */\n  0x01\n    /* \"@openzeppelin/contracts/security/ReentrancyGuard.sol\":1806:1828   */\n  dup1\n  sstore\n    /* \"OasisShop.sol\":620:6785  contract OasisShop is Pausable, Ownable, ReentrancyGuard {... */\n  jump(tag_12)\n    /* \"@openzeppelin/contracts/access/Ownable.sol\":2433:2620   */\ntag_10:\n    /* \"@openzeppelin/contracts/access/Ownable.sol\":2506:2522   */\n  0x00\n    /* \"@openzeppelin/contracts/access/Ownable.sol\":2525:2531   */\n  dup1\n  sload\n  sub(shl(0xa0, 0x01), 0x01)\n    /* \"@openzeppelin/contracts/access/Ownable.sol\":2541:2558   */\n  dup4\n  dup2\n  and\n    /* \"@openzeppelin/contracts/access/Ownable.sol\":2525:2531   */\n  0x0100\n    /* \"@openzeppelin/contracts/access/Ownable.sol\":2541:2558   */\n  dup2\n  dup2\n  mul\n  not(sub(shl(0xa8, 0x01), 0x0100))\n  dup6\n  and\n  or\n  dup6\n  sstore\n    /* \"@openzeppelin/contracts/access/Ownable.sol\":2573:2613   */\n  mload(0x40)\n    /* \"@openzeppelin/contracts/access/Ownable.sol\":2525:2531   */\n  swap4\n  div\n  swap2\n  swap1\n  swap2\n  and\n  swap3\n    /* \"@openzeppelin/contracts/access/Ownable.sol\":2541:2558   */\n  swap1\n  swap2\n    /* \"@openzeppelin/contracts/access/Ownable.sol\":2525:2531   */\n  dup4\n  swap2\n    /* \"@openzeppelin/contracts/access/Ownable.sol\":2573:2613   */\n  0x8be0079c531659141344cd1fd0a4f28419497f9722a3daafe3b4186f6b6457e0\n  swap2\n  log3\n    /* \"@openzeppelin/contracts/access/Ownable.sol\":2496:2620   */\n  pop\n    /* \"@openzeppelin/contracts/access/Ownable.sol\":2433:2620   */\n  pop\n  jump\t// out\n    /* \"OasisShop.sol\":620:6785  contract OasisShop is Pausable, Ownable, ReentrancyGuard {... */\ntag_12:\n  dataSize(sub_0)\n  dup1\n  dataOffset(sub_0)\n  0x00\n  codecopy\n  0x00\n  return\nstop\n\nsub_0: assembly {\n        /* \"OasisShop.sol\":620:6785  contract OasisShop is Pausable, Ownable, ReentrancyGuard {... */\n      mstore(0x40, 0x80)\n      jumpi(tag_1, lt(calldatasize, 0x04))\n      shr(0xe0, calldataload(0x00))\n      dup1\n      0x7c1c43e2\n      gt\n      tag_17\n      jumpi\n      dup1\n      0xa756fdd0\n      gt\n      tag_18\n      jumpi\n      dup1\n      0xa756fdd0\n      eq\n      tag_13\n      jumpi\n      dup1\n      0xbd40f1f3\n      eq\n      tag_14\n      jumpi\n      dup1\n      0xddc643ce\n      eq\n      tag_15\n      jumpi\n      dup1\n      0xf2fde38b\n      eq\n      tag_16\n      jumpi\n      0x00\n      dup1\n      revert\n    tag_18:\n      dup1\n      0x7c1c43e2\n      eq\n      tag_9\n      jumpi\n      dup1\n      0x8456cb59\n      eq\n      tag_10\n      jumpi\n      dup1\n      0x8da5cb5b\n      eq\n      tag_11\n      jumpi\n      dup1\n      0x9ff51675\n      eq\n      tag_12\n      jumpi\n      0x00\n      dup1\n      revert\n    tag_17:\n      dup1\n      0x6094be2d\n      gt\n      tag_19\n      jumpi\n      dup1\n      0x6094be2d\n      eq\n      tag_5\n      jumpi\n      dup1\n      0x61d027b3\n      eq\n      tag_6\n      jumpi\n      dup1\n      0x715018a6\n      eq\n      tag_7\n      jumpi\n      dup1\n      0x78db4589\n      eq\n      tag_8\n      jumpi\n      0x00\n      dup1\n      revert\n    tag_19:\n      dup1\n      0x25455706\n      eq\n      tag_2\n      jumpi\n      dup1\n      0x3f4ba83a\n      eq\n      tag_3\n      jumpi\n      dup1\n      0x5c975abb\n      eq\n      tag_4\n      jumpi\n    tag_1:\n      0x00\n      dup1\n      revert\n        /* \"OasisShop.sol\":1455:1709  function setStateVariables(... */\n    tag_2:\n      callvalue\n      dup1\n      iszero\n      tag_20\n      jumpi\n      0x00\n      dup1\n      revert\n    tag_20:\n      pop\n      tag_21\n      tag_22\n      calldatasize\n      0x04\n      tag_23\n      jump\t// in\n    tag_22:\n      tag_24\n      jump\t// in\n    tag_21:\n      stop\n        /* \"OasisShop.sol\":1369:1447  function unpause() public onlyOwner nonReentrant {... */\n    tag_3:\n      callvalue\n      dup1\n      iszero\n      tag_25\n      jumpi\n      0x00\n      dup1\n      revert\n    tag_25:\n      pop\n      tag_21\n      tag_27\n      jump\t// in\n        /* \"@openzeppelin/contracts/security/Pausable.sol\":1615:1699   */\n    tag_4:\n      callvalue\n      dup1\n      iszero\n      tag_28\n      jumpi\n      0x00\n      dup1\n      revert\n    tag_28:\n      pop\n        /* \"@openzeppelin/contracts/security/Pausable.sol\":1662:1666   */\n      0x00\n        /* \"@openzeppelin/contracts/security/Pausable.sol\":1685:1692   */\n      sload\n      0xff\n      and\n        /* \"@openzeppelin/contracts/security/Pausable.sol\":1615:1699   */\n      mload(0x40)\n        /* \"#utility.yul\":719:733   */\n      swap1\n      iszero\n        /* \"#utility.yul\":712:734   */\n      iszero\n        /* \"#utility.yul\":694:735   */\n      dup2\n      mstore\n        /* \"#utility.yul\":682:684   */\n      0x20\n        /* \"#utility.yul\":667:685   */\n      add\n        /* \"@openzeppelin/contracts/security/Pausable.sol\":1615:1699   */\n    tag_31:\n      mload(0x40)\n      dup1\n      swap2\n      sub\n      swap1\n      return\n        /* \"OasisShop.sol\":2479:4530  function purchaseWithOst(address _contract, uint256 _quantity) external whenNotPaused nonReentrant {... */\n    tag_5:\n      callvalue\n      dup1\n      iszero\n      tag_33\n      jumpi\n      0x00\n      dup1\n      revert\n    tag_33:\n      pop\n      tag_21\n      tag_35\n      calldatasize\n      0x04\n      tag_36\n      jump\t// in\n    tag_35:\n      tag_37\n      jump\t// in\n        /* \"OasisShop.sol\":751:774  address public treasury */\n    tag_6:\n      callvalue\n      dup1\n      iszero\n      tag_38\n      jumpi\n      0x00\n      dup1\n      revert\n    tag_38:\n      pop\n      sload(0x03)\n      tag_39\n      swap1\n      sub(shl(0xa0, 0x01), 0x01)\n      and\n      dup2\n      jump\n    tag_39:\n      mload(0x40)\n      sub(shl(0xa0, 0x01), 0x01)\n        /* \"#utility.yul\":1169:1224   */\n      swap1\n      swap2\n      and\n        /* \"#utility.yul\":1151:1225   */\n      dup2\n      mstore\n        /* \"#utility.yul\":1139:1141   */\n      0x20\n        /* \"#utility.yul\":1124:1142   */\n      add\n        /* \"OasisShop.sol\":751:774  address public treasury */\n      tag_31\n        /* \"#utility.yul\":1005:1231   */\n      jump\n        /* \"@openzeppelin/contracts/access/Ownable.sol\":1831:1932   */\n    tag_7:\n      callvalue\n      dup1\n      iszero\n      tag_43\n      jumpi\n      0x00\n      dup1\n      revert\n    tag_43:\n      pop\n      tag_21\n      tag_45\n      jump\t// in\n        /* \"OasisShop.sol\":2321:2441  function removeShopIem(address _contract) external onlyOwner nonReentrant {... */\n    tag_8:\n      callvalue\n      dup1\n      iszero\n      tag_46\n      jumpi\n      0x00\n      dup1\n      revert\n    tag_46:\n      pop\n      tag_21\n      tag_48\n      calldatasize\n      0x04\n      tag_49\n      jump\t// in\n    tag_48:\n      tag_50\n      jump\t// in\n        /* \"OasisShop.sol\":808:853  mapping(address => ShopItem) public shopItems */\n    tag_9:\n      callvalue\n      dup1\n      iszero\n      tag_51\n      jumpi\n      0x00\n      dup1\n      revert\n    tag_51:\n      pop\n      tag_52\n      tag_53\n      calldatasize\n      0x04\n      tag_49\n      jump\t// in\n    tag_53:\n      mstore(0x20, 0x05)\n      0x00\n      swap1\n      dup2\n      mstore\n      0x40\n      swap1\n      keccak256\n      dup1\n      sload\n      0x01\n      dup3\n      add\n      sload\n      0x02\n      swap1\n      swap3\n      add\n      sload\n      0xff\n      dup1\n      dup4\n      and\n      swap4\n      0x0100\n      dup5\n      div\n      dup3\n      and\n      swap4\n      0x010000\n      dup2\n      div\n      dup4\n      and\n      swap4\n      0x01000000\n      dup3\n      div\n      dup5\n      and\n      swap4\n      0x0100000000\n      swap1\n      swap3\n      div\n      swap1\n      swap2\n      and\n      swap2\n      swap1\n      dup8\n      jump\n    tag_52:\n      0x40\n      dup1\n      mload\n        /* \"#utility.yul\":1737:1751   */\n      swap8\n      iszero\n        /* \"#utility.yul\":1730:1752   */\n      iszero\n        /* \"#utility.yul\":1712:1753   */\n      dup9\n      mstore\n        /* \"#utility.yul\":1796:1810   */\n      swap6\n      iszero\n        /* \"#utility.yul\":1789:1811   */\n      iszero\n        /* \"#utility.yul\":1784:1786   */\n      0x20\n        /* \"#utility.yul\":1769:1787   */\n      dup9\n      add\n        /* \"#utility.yul\":1762:1812   */\n      mstore\n        /* \"#utility.yul\":1855:1869   */\n      swap4\n      iszero\n        /* \"#utility.yul\":1848:1870   */\n      iszero\n        /* \"#utility.yul\":1828:1846   */\n      swap5\n      dup7\n      add\n        /* \"#utility.yul\":1821:1871   */\n      swap5\n      swap1\n      swap5\n      mstore\n        /* \"#utility.yul\":1914:1928   */\n      swap1\n      iszero\n        /* \"#utility.yul\":1907:1929   */\n      iszero\n        /* \"#utility.yul\":1902:1904   */\n      0x60\n        /* \"#utility.yul\":1887:1905   */\n      dup6\n      add\n        /* \"#utility.yul\":1880:1930   */\n      mstore\n        /* \"#utility.yul\":1974:1988   */\n      iszero\n        /* \"#utility.yul\":1967:1989   */\n      iszero\n        /* \"#utility.yul\":1961:1964   */\n      0x80\n        /* \"#utility.yul\":1946:1965   */\n      dup5\n      add\n        /* \"#utility.yul\":1939:1990   */\n      mstore\n        /* \"#utility.yul\":2021:2024   */\n      0xa0\n        /* \"#utility.yul\":2006:2025   */\n      dup4\n      add\n        /* \"#utility.yul\":1999:2034   */\n      swap2\n      swap1\n      swap2\n      mstore\n        /* \"#utility.yul\":2065:2068   */\n      0xc0\n        /* \"#utility.yul\":2050:2069   */\n      dup3\n      add\n        /* \"#utility.yul\":2043:2078   */\n      mstore\n        /* \"#utility.yul\":1699:1702   */\n      0xe0\n        /* \"#utility.yul\":1684:1703   */\n      add\n        /* \"OasisShop.sol\":808:853  mapping(address => ShopItem) public shopItems */\n      tag_31\n        /* \"#utility.yul\":1427:2084   */\n      jump\n        /* \"OasisShop.sol\":1287:1361  function pause() public onlyOwner nonReentrant {... */\n    tag_10:\n      callvalue\n      dup1\n      iszero\n      tag_57\n      jumpi\n      0x00\n      dup1\n      revert\n    tag_57:\n      pop\n      tag_21\n      tag_59\n      jump\t// in\n        /* \"@openzeppelin/contracts/access/Ownable.sol\":1201:1286   */\n    tag_11:\n      callvalue\n      dup1\n      iszero\n      tag_60\n      jumpi\n      0x00\n      dup1\n      revert\n    tag_60:\n      pop\n        /* \"@openzeppelin/contracts/access/Ownable.sol\":1247:1254   */\n      0x00\n        /* \"@openzeppelin/contracts/access/Ownable.sol\":1273:1279   */\n      sload\n      0x0100\n      swap1\n      div\n      sub(shl(0xa0, 0x01), 0x01)\n      and\n        /* \"@openzeppelin/contracts/access/Ownable.sol\":1201:1286   */\n      jump(tag_39)\n        /* \"OasisShop.sol\":715:744  address public oasisGraveyard */\n    tag_12:\n      callvalue\n      dup1\n      iszero\n      tag_64\n      jumpi\n      0x00\n      dup1\n      revert\n    tag_64:\n      pop\n      sload(0x02)\n      tag_39\n      swap1\n      sub(shl(0xa0, 0x01), 0x01)\n      and\n      dup2\n      jump\n        /* \"OasisShop.sol\":781:799  address public ost */\n    tag_13:\n      callvalue\n      dup1\n      iszero\n      tag_68\n      jumpi\n      0x00\n      dup1\n      revert\n    tag_68:\n      pop\n      sload(0x04)\n      tag_39\n      swap1\n      sub(shl(0xa0, 0x01), 0x01)\n      and\n      dup2\n      jump\n        /* \"OasisShop.sol\":1717:2313  function addShopItem(... */\n    tag_14:\n      callvalue\n      dup1\n      iszero\n      tag_72\n      jumpi\n      0x00\n      dup1\n      revert\n    tag_72:\n      pop\n      tag_21\n      tag_74\n      calldatasize\n      0x04\n      tag_75\n      jump\t// in\n    tag_74:\n      tag_76\n      jump\t// in\n        /* \"OasisShop.sol\":4538:6385  function purchaseWithEth(address _contract, uint256 _quantity) external payable whenNotPaused nonReentrant {... */\n    tag_15:\n      tag_21\n      tag_78\n      calldatasize\n      0x04\n      tag_36\n      jump\t// in\n    tag_78:\n      tag_79\n      jump\t// in\n        /* \"@openzeppelin/contracts/access/Ownable.sol\":2081:2279   */\n    tag_16:\n      callvalue\n      dup1\n      iszero\n      tag_80\n      jumpi\n      0x00\n      dup1\n      revert\n    tag_80:\n      pop\n      tag_21\n      tag_82\n      calldatasize\n      0x04\n      tag_49\n      jump\t// in\n    tag_82:\n      tag_83\n      jump\t// in\n        /* \"OasisShop.sol\":1455:1709  function setStateVariables(... */\n    tag_24:\n        /* \"@openzeppelin/contracts/access/Ownable.sol\":1094:1107   */\n      tag_85\n        /* \"@openzeppelin/contracts/access/Ownable.sol\":1094:1105   */\n      tag_86\n        /* \"@openzeppelin/contracts/access/Ownable.sol\":1094:1107   */\n      jump\t// in\n    tag_85:\n        /* \"@openzeppelin/contracts/security/ReentrancyGuard.sol\":1744:1745   */\n      0x02\n        /* \"@openzeppelin/contracts/security/ReentrancyGuard.sol\":2325:2332   */\n      sload(0x01)\n        /* \"@openzeppelin/contracts/security/ReentrancyGuard.sol\":2325:2344   */\n      sub\n        /* \"@openzeppelin/contracts/security/ReentrancyGuard.sol\":2317:2380   */\n      tag_88\n      jumpi\n      mload(0x40)\n      shl(0xe5, 0x461bcd)\n      dup2\n      mstore\n        /* \"#utility.yul\":3415:3417   */\n      0x20\n        /* \"@openzeppelin/contracts/security/ReentrancyGuard.sol\":2317:2380   */\n      0x04\n      dup3\n      add\n        /* \"#utility.yul\":3397:3418   */\n      mstore\n        /* \"#utility.yul\":3454:3456   */\n      0x1f\n        /* \"#utility.yul\":3434:3452   */\n      0x24\n      dup3\n      add\n        /* \"#utility.yul\":3427:3457   */\n      mstore\n        /* \"#utility.yul\":3493:3526   */\n      0x5265656e7472616e637947756172643a207265656e7472616e742063616c6c00\n        /* \"#utility.yul\":3473:3491   */\n      0x44\n      dup3\n      add\n        /* \"#utility.yul\":3466:3527   */\n      mstore\n        /* \"#utility.yul\":3544:3562   */\n      0x64\n      add\n        /* \"@openzeppelin/contracts/security/ReentrancyGuard.sol\":2317:2380   */\n    tag_89:\n      mload(0x40)\n      dup1\n      swap2\n      sub\n      swap1\n      revert\n    tag_88:\n        /* \"@openzeppelin/contracts/security/ReentrancyGuard.sol\":1744:1745   */\n      0x02\n        /* \"OasisShop.sol\":1617:1649  oasisGraveyard = _oasisGraveyard */\n      dup1\n      sload\n      sub(shl(0xa0, 0x01), 0x01)\n      swap5\n      dup6\n      and\n      0xffffffffffffffffffffffff0000000000000000000000000000000000000000\n      swap2\n      dup3\n      and\n      or\n      swap1\n      swap2\n      sstore\n        /* \"OasisShop.sol\":1660:1668  treasury */\n      0x03\n        /* \"OasisShop.sol\":1660:1680  treasury = _treasury */\n      dup1\n      sload\n      swap4\n      dup6\n      and\n      swap4\n      dup3\n      and\n      swap4\n      swap1\n      swap4\n      or\n      swap1\n      swap3\n      sstore\n        /* \"OasisShop.sol\":1691:1694  ost */\n      0x04\n        /* \"OasisShop.sol\":1691:1701  ost = _ost */\n      dup1\n      sload\n      swap2\n      swap1\n      swap4\n      and\n      swap2\n      and\n      or\n      swap1\n      sstore\n        /* \"@openzeppelin/contracts/security/ReentrancyGuard.sol\":2455:2462   */\n      0x01\n        /* \"@openzeppelin/contracts/security/ReentrancyGuard.sol\":2628:2650   */\n      dup1\n      sstore\n        /* \"OasisShop.sol\":1455:1709  function setStateVariables(... */\n      jump\t// out\n        /* \"OasisShop.sol\":1369:1447  function unpause() public onlyOwner nonReentrant {... */\n    tag_27:\n        /* \"@openzeppelin/contracts/access/Ownable.sol\":1094:1107   */\n      tag_93\n        /* \"@openzeppelin/contracts/access/Ownable.sol\":1094:1105   */\n      tag_86\n        /* \"@openzeppelin/contracts/access/Ownable.sol\":1094:1107   */\n      jump\t// in\n    tag_93:\n        /* \"@openzeppelin/contracts/security/ReentrancyGuard.sol\":1744:1745   */\n      0x02\n        /* \"@openzeppelin/contracts/security/ReentrancyGuard.sol\":2325:2332   */\n      sload(0x01)\n        /* \"@openzeppelin/contracts/security/ReentrancyGuard.sol\":2325:2344   */\n      sub\n        /* \"@openzeppelin/contracts/security/ReentrancyGuard.sol\":2317:2380   */\n      tag_95\n      jumpi\n      mload(0x40)\n      shl(0xe5, 0x461bcd)\n      dup2\n      mstore\n        /* \"#utility.yul\":3415:3417   */\n      0x20\n        /* \"@openzeppelin/contracts/security/ReentrancyGuard.sol\":2317:2380   */\n      0x04\n      dup3\n      add\n        /* \"#utility.yul\":3397:3418   */\n      mstore\n        /* \"#utility.yul\":3454:3456   */\n      0x1f\n        /* \"#utility.yul\":3434:3452   */\n      0x24\n      dup3\n      add\n        /* \"#utility.yul\":3427:3457   */\n      mstore\n        /* \"#utility.yul\":3493:3526   */\n      0x5265656e7472616e637947756172643a207265656e7472616e742063616c6c00\n        /* \"#utility.yul\":3473:3491   */\n      0x44\n      dup3\n      add\n        /* \"#utility.yul\":3466:3527   */\n      mstore\n        /* \"#utility.yul\":3544:3562   */\n      0x64\n      add\n        /* \"@openzeppelin/contracts/security/ReentrancyGuard.sol\":2317:2380   */\n      tag_89\n        /* \"#utility.yul\":3213:3568   */\n      jump\n        /* \"@openzeppelin/contracts/security/ReentrancyGuard.sol\":2317:2380   */\n    tag_95:\n        /* \"@openzeppelin/contracts/security/ReentrancyGuard.sol\":1744:1745   */\n      0x02\n        /* \"@openzeppelin/contracts/security/ReentrancyGuard.sol\":2455:2462   */\n      0x01\n        /* \"@openzeppelin/contracts/security/ReentrancyGuard.sol\":2455:2473   */\n      sstore\n        /* \"OasisShop.sol\":1429:1439  _unpause() */\n      tag_98\n        /* \"OasisShop.sol\":1429:1437  _unpause */\n      tag_99\n        /* \"OasisShop.sol\":1429:1439  _unpause() */\n      jump\t// in\n    tag_98:\n        /* \"@openzeppelin/contracts/security/ReentrancyGuard.sol\":1701:1702   */\n      0x01\n        /* \"@openzeppelin/contracts/security/ReentrancyGuard.sol\":2628:2650   */\n      dup1\n      sstore\n        /* \"OasisShop.sol\":1369:1447  function unpause() public onlyOwner nonReentrant {... */\n      jump\t// out\n        /* \"OasisShop.sol\":2479:4530  function purchaseWithOst(address _contract, uint256 _quantity) external whenNotPaused nonReentrant {... */\n    tag_37:\n        /* \"@openzeppelin/contracts/security/Pausable.sol\":1239:1258   */\n      tag_102\n        /* \"@openzeppelin/contracts/security/Pausable.sol\":1239:1256   */\n      tag_103\n        /* \"@openzeppelin/contracts/security/Pausable.sol\":1239:1258   */\n      jump\t// in\n    tag_102:\n        /* \"@openzeppelin/contracts/security/ReentrancyGuard.sol\":1744:1745   */\n      0x02\n        /* \"@openzeppelin/contracts/security/ReentrancyGuard.sol\":2325:2332   */\n      sload(0x01)\n        /* \"@openzeppelin/contracts/security/ReentrancyGuard.sol\":2325:2344   */\n      sub\n        /* \"@openzeppelin/contracts/security/ReentrancyGuard.sol\":2317:2380   */\n      tag_105\n      jumpi\n      mload(0x40)\n      shl(0xe5, 0x461bcd)\n      dup2\n      mstore\n        /* \"#utility.yul\":3415:3417   */\n      0x20\n        /* \"@openzeppelin/contracts/security/ReentrancyGuard.sol\":2317:2380   */\n      0x04\n      dup3\n      add\n        /* \"#utility.yul\":3397:3418   */\n      mstore\n        /* \"#utility.yul\":3454:3456   */\n      0x1f\n        /* \"#utility.yul\":3434:3452   */\n      0x24\n      dup3\n      add\n        /* \"#utility.yul\":3427:3457   */\n      mstore\n        /* \"#utility.yul\":3493:3526   */\n      0x5265656e7472616e637947756172643a207265656e7472616e742063616c6c00\n        /* \"#utility.yul\":3473:3491   */\n      0x44\n      dup3\n      add\n        /* \"#utility.yul\":3466:3527   */\n      mstore\n        /* \"#utility.yul\":3544:3562   */\n      0x64\n      add\n        /* \"@openzeppelin/contracts/security/ReentrancyGuard.sol\":2317:2380   */\n      tag_89\n        /* \"#utility.yul\":3213:3568   */\n      jump\n        /* \"@openzeppelin/contracts/security/ReentrancyGuard.sol\":2317:2380   */\n    tag_105:\n        /* \"@openzeppelin/contracts/security/ReentrancyGuard.sol\":1744:1745   */\n      0x02\n        /* \"@openzeppelin/contracts/security/ReentrancyGuard.sol\":2455:2462   */\n      0x01\n        /* \"@openzeppelin/contracts/security/ReentrancyGuard.sol\":2455:2473   */\n      sstore\n      sub(shl(0xa0, 0x01), 0x01)\n        /* \"OasisShop.sol\":2597:2617  shopItems[_contract] */\n      dup3\n      and\n      0x00\n      swap1\n      dup2\n      mstore\n        /* \"OasisShop.sol\":2597:2606  shopItems */\n      0x05\n        /* \"OasisShop.sol\":2597:2617  shopItems[_contract] */\n      0x20\n      mstore\n      0x40\n      swap1\n      keccak256\n        /* \"OasisShop.sol\":2597:2626  shopItems[_contract].isActive */\n      sload\n      0xff\n      and\n        /* \"OasisShop.sol\":2589:2655  require(shopItems[_contract].isActive, \"This item is not active.\") */\n      tag_108\n      jumpi\n      mload(0x40)\n      shl(0xe5, 0x461bcd)\n      dup2\n      mstore\n        /* \"#utility.yul\":3775:3777   */\n      0x20\n        /* \"OasisShop.sol\":2589:2655  require(shopItems[_contract].isActive, \"This item is not active.\") */\n      0x04\n      dup3\n      add\n        /* \"#utility.yul\":3757:3778   */\n      mstore\n        /* \"#utility.yul\":3814:3816   */\n      0x18\n        /* \"#utility.yul\":3794:3812   */\n      0x24\n      dup3\n      add\n        /* \"#utility.yul\":3787:3817   */\n      mstore\n        /* \"#utility.yul\":3853:3879   */\n      0x54686973206974656d206973206e6f74206163746976652e0000000000000000\n        /* \"#utility.yul\":3833:3851   */\n      0x44\n      dup3\n      add\n        /* \"#utility.yul\":3826:3880   */\n      mstore\n        /* \"#utility.yul\":3897:3915   */\n      0x64\n      add\n        /* \"OasisShop.sol\":2589:2655  require(shopItems[_contract].isActive, \"This item is not active.\") */\n      tag_89\n        /* \"#utility.yul\":3573:3921   */\n      jump\n        /* \"OasisShop.sol\":2589:2655  require(shopItems[_contract].isActive, \"This item is not active.\") */\n    tag_108:\n      sub(shl(0xa0, 0x01), 0x01)\n        /* \"OasisShop.sol\":2674:2694  shopItems[_contract] */\n      dup3\n      and\n      0x00\n      swap1\n      dup2\n      mstore\n        /* \"OasisShop.sol\":2674:2683  shopItems */\n      0x05\n        /* \"OasisShop.sol\":2674:2694  shopItems[_contract] */\n      0x20\n      mstore\n      0x40\n      swap1\n      keccak256\n        /* \"OasisShop.sol\":2674:2702  shopItems[_contract].withOst */\n      sload\n      0x0100000000\n      swap1\n      div\n      0xff\n      and\n        /* \"OasisShop.sol\":2666:2747  require(shopItems[_contract].withOst, \"This item cannot be purchased with $OST.\") */\n      tag_111\n      jumpi\n      mload(0x40)\n      shl(0xe5, 0x461bcd)\n      dup2\n      mstore\n        /* \"#utility.yul\":4128:4130   */\n      0x20\n        /* \"OasisShop.sol\":2666:2747  require(shopItems[_contract].withOst, \"This item cannot be purchased with $OST.\") */\n      0x04\n      dup3\n      add\n        /* \"#utility.yul\":4110:4131   */\n      mstore\n        /* \"#utility.yul\":4167:4169   */\n      0x28\n        /* \"#utility.yul\":4147:4165   */\n      0x24\n      dup3\n      add\n        /* \"#utility.yul\":4140:4170   */\n      mstore\n        /* \"#utility.yul\":4206:4240   */\n      0x54686973206974656d2063616e6e6f7420626520707572636861736564207769\n        /* \"#utility.yul\":4186:4204   */\n      0x44\n      dup3\n      add\n        /* \"#utility.yul\":4179:4241   */\n      mstore\n        /* \"#utility.yul\":4277:4287   */\n      0x746820244f53542e000000000000000000000000000000000000000000000000\n        /* \"#utility.yul\":4257:4275   */\n      0x64\n      dup3\n      add\n        /* \"#utility.yul\":4250:4288   */\n      mstore\n        /* \"#utility.yul\":4305:4324   */\n      0x84\n      add\n        /* \"OasisShop.sol\":2666:2747  require(shopItems[_contract].withOst, \"This item cannot be purchased with $OST.\") */\n      tag_89\n        /* \"#utility.yul\":3926:4330   */\n      jump\n        /* \"OasisShop.sol\":2666:2747  require(shopItems[_contract].withOst, \"This item cannot be purchased with $OST.\") */\n    tag_111:\n        /* \"OasisShop.sol\":2778:2779  0 */\n      0x00\n        /* \"OasisShop.sol\":2766:2775  _quantity */\n      dup2\n        /* \"OasisShop.sol\":2766:2779  _quantity > 0 */\n      gt\n        /* \"OasisShop.sol\":2758:2820  require(_quantity > 0, \"You must at least purchase one item.\") */\n      tag_114\n      jumpi\n      mload(0x40)\n      shl(0xe5, 0x461bcd)\n      dup2\n      mstore\n        /* \"#utility.yul\":4537:4539   */\n      0x20\n        /* \"OasisShop.sol\":2758:2820  require(_quantity > 0, \"You must at least purchase one item.\") */\n      0x04\n      dup3\n      add\n        /* \"#utility.yul\":4519:4540   */\n      mstore\n        /* \"#utility.yul\":4576:4578   */\n      0x24\n        /* \"#utility.yul\":4556:4574   */\n      dup1\n      dup3\n      add\n        /* \"#utility.yul\":4549:4579   */\n      mstore\n        /* \"#utility.yul\":4615:4649   */\n      0x596f75206d757374206174206c65617374207075726368617365206f6e652069\n        /* \"#utility.yul\":4595:4613   */\n      0x44\n      dup3\n      add\n        /* \"#utility.yul\":4588:4650   */\n      mstore\n      shl(0xe1, 0x3a32b697)\n        /* \"#utility.yul\":4666:4684   */\n      0x64\n      dup3\n      add\n        /* \"#utility.yul\":4659:4693   */\n      mstore\n        /* \"#utility.yul\":4710:4729   */\n      0x84\n      add\n        /* \"OasisShop.sol\":2758:2820  require(_quantity > 0, \"You must at least purchase one item.\") */\n      tag_89\n        /* \"#utility.yul\":4335:4735   */\n      jump\n        /* \"OasisShop.sol\":2758:2820  require(_quantity > 0, \"You must at least purchase one item.\") */\n    tag_114:\n      sub(shl(0xa0, 0x01), 0x01)\n        /* \"OasisShop.sol\":2856:2876  shopItems[_contract] */\n      dup3\n      and\n        /* \"OasisShop.sol\":2833:2853  ShopItem memory item */\n      0x00\n        /* \"OasisShop.sol\":2856:2876  shopItems[_contract] */\n      swap1\n      dup2\n      mstore\n        /* \"OasisShop.sol\":2856:2865  shopItems */\n      0x05\n        /* \"OasisShop.sol\":2856:2876  shopItems[_contract] */\n      0x20\n      swap1\n      dup2\n      mstore\n      0x40\n      swap2\n      dup3\n      swap1\n      keccak256\n        /* \"OasisShop.sol\":2833:2876  ShopItem memory item = shopItems[_contract] */\n      dup3\n      mload\n      0xe0\n      dup2\n      add\n      dup5\n      mstore\n      dup2\n      sload\n      0xff\n      dup1\n      dup3\n      and\n      iszero\n      iszero\n      dup4\n      mstore\n      0x0100\n      dup3\n      div\n      dup2\n      and\n      iszero\n      iszero\n      swap5\n      dup4\n      add\n      swap5\n      swap1\n      swap5\n      mstore\n      0x010000\n      dup2\n      div\n      dup5\n      and\n      iszero\n      dup1\n      iszero\n      swap6\n      dup4\n      add\n      swap6\n      swap1\n      swap6\n      mstore\n      0x01000000\n      dup2\n      div\n      dup5\n      and\n      iszero\n      iszero\n      0x60\n      dup4\n      add\n      mstore\n      0x0100000000\n      swap1\n      div\n      swap1\n      swap3\n      and\n      iszero\n      iszero\n      0x80\n      dup4\n      add\n      mstore\n      0x01\n      dup2\n      add\n      sload\n      0xa0\n      dup4\n      add\n      mstore\n      0x02\n      add\n      sload\n      0xc0\n      dup3\n      add\n      mstore\n      swap1\n        /* \"OasisShop.sol\":2889:4447  if (item.is20) {... */\n      tag_117\n      jumpi\n        /* \"OasisShop.sol\":2975:2983  treasury */\n      sload(0x03)\n        /* \"OasisShop.sol\":2947:2984  IERC20(_contract).balanceOf(treasury) */\n      mload(0x40)\n      shl(0xe0, 0x70a08231)\n      dup2\n      mstore\n      sub(shl(0xa0, 0x01), 0x01)\n        /* \"OasisShop.sol\":2975:2983  treasury */\n      swap2\n      dup3\n      and\n        /* \"OasisShop.sol\":2947:2984  IERC20(_contract).balanceOf(treasury) */\n      0x04\n      dup3\n      add\n        /* \"#utility.yul\":1151:1225   */\n      mstore\n        /* \"OasisShop.sol\":2919:2944  uint256 treasuryBalance20 */\n      0x00\n      swap2\n        /* \"OasisShop.sol\":2947:2974  IERC20(_contract).balanceOf */\n      dup6\n      and\n      swap1\n      0x70a08231\n      swap1\n        /* \"#utility.yul\":1124:1142   */\n      0x24\n      add\n        /* \"OasisShop.sol\":2947:2984  IERC20(_contract).balanceOf(treasury) */\n      0x20\n      mload(0x40)\n      dup1\n      dup4\n      sub\n      dup2\n      dup7\n      gas\n      staticcall\n      iszero\n      dup1\n      iszero\n      tag_120\n      jumpi\n      returndatasize\n      0x00\n      dup1\n      returndatacopy\n      revert(0x00, returndatasize)\n    tag_120:\n      pop\n      pop\n      pop\n      pop\n      mload(0x40)\n      returndatasize\n      not(0x1f)\n      0x1f\n      dup3\n      add\n      and\n      dup3\n      add\n      dup1\n      0x40\n      mstore\n      pop\n      dup2\n      add\n      swap1\n      tag_121\n      swap2\n      swap1\n      tag_122\n      jump\t// in\n    tag_121:\n        /* \"OasisShop.sol\":3031:3034  ost */\n      0x04\n      dup1\n      sload\n        /* \"OasisShop.sol\":3024:3057  IERC20(ost).balanceOf(msg.sender) */\n      mload(0x40)\n      shl(0xe0, 0x70a08231)\n      dup2\n      mstore\n        /* \"OasisShop.sol\":3046:3056  msg.sender */\n      caller\n        /* \"OasisShop.sol\":3024:3057  IERC20(ost).balanceOf(msg.sender) */\n      swap3\n      dup2\n      add\n        /* \"#utility.yul\":1151:1225   */\n      swap3\n      swap1\n      swap3\n      mstore\n        /* \"OasisShop.sol\":2919:2984  uint256 treasuryBalance20 = IERC20(_contract).balanceOf(treasury) */\n      swap2\n      swap3\n      pop\n        /* \"OasisShop.sol\":2999:3021  uint256 userBalanceOst */\n      0x00\n      swap2\n      sub(shl(0xa0, 0x01), 0x01)\n        /* \"OasisShop.sol\":3031:3034  ost */\n      and\n      swap1\n        /* \"OasisShop.sol\":3024:3045  IERC20(ost).balanceOf */\n      0x70a08231\n      swap1\n        /* \"#utility.yul\":1124:1142   */\n      0x24\n      add\n        /* \"OasisShop.sol\":3024:3057  IERC20(ost).balanceOf(msg.sender) */\n      0x20\n      mload(0x40)\n      dup1\n      dup4\n      sub\n      dup2\n      dup7\n      gas\n      staticcall\n      iszero\n      dup1\n      iszero\n      tag_125\n      jumpi\n      returndatasize\n      0x00\n      dup1\n      returndatacopy\n      revert(0x00, returndatasize)\n    tag_125:\n      pop\n      pop\n      pop\n      pop\n      mload(0x40)\n      returndatasize\n      not(0x1f)\n      0x1f\n      dup3\n      add\n      and\n      dup3\n      add\n      dup1\n      0x40\n      mstore\n      pop\n      dup2\n      add\n      swap1\n      tag_126\n      swap2\n      swap1\n      tag_122\n      jump\t// in\n    tag_126:\n        /* \"OasisShop.sol\":2999:3057  uint256 userBalanceOst = IERC20(ost).balanceOf(msg.sender) */\n      swap1\n      pop\n        /* \"OasisShop.sol\":3072:3093  uint256 totalOstPrice */\n      0x00\n        /* \"OasisShop.sol\":3112:3121  _quantity */\n      dup5\n        /* \"OasisShop.sol\":3096:3100  item */\n      dup5\n        /* \"OasisShop.sol\":3096:3109  item.ostPrice */\n      0xc0\n      add\n      mload\n        /* \"OasisShop.sol\":3096:3121  item.ostPrice * _quantity */\n      tag_127\n      swap2\n      swap1\n      tag_128\n      jump\t// in\n    tag_127:\n        /* \"OasisShop.sol\":3072:3121  uint256 totalOstPrice = item.ostPrice * _quantity */\n      swap1\n      pop\n        /* \"OasisShop.sol\":3162:3171  _quantity */\n      dup5\n        /* \"OasisShop.sol\":3142:3159  treasuryBalance20 */\n      dup4\n        /* \"OasisShop.sol\":3142:3171  treasuryBalance20 < _quantity */\n      lt\n        /* \"OasisShop.sol\":3138:3220  if (treasuryBalance20 < _quantity) revert(\"Treasury does not have enough tokens.\") */\n      iszero\n      tag_129\n      jumpi\n        /* \"OasisShop.sol\":3173:3220  revert(\"Treasury does not have enough tokens.\") */\n      mload(0x40)\n      shl(0xe5, 0x461bcd)\n      dup2\n      mstore\n        /* \"#utility.yul\":5436:5438   */\n      0x20\n        /* \"OasisShop.sol\":3173:3220  revert(\"Treasury does not have enough tokens.\") */\n      0x04\n      dup3\n      add\n        /* \"#utility.yul\":5418:5439   */\n      mstore\n        /* \"#utility.yul\":5475:5477   */\n      0x25\n        /* \"#utility.yul\":5455:5473   */\n      0x24\n      dup3\n      add\n        /* \"#utility.yul\":5448:5478   */\n      mstore\n        /* \"#utility.yul\":5514:5548   */\n      0x547265617375727920646f6573206e6f74206861766520656e6f75676820746f\n        /* \"#utility.yul\":5494:5512   */\n      0x44\n      dup3\n      add\n        /* \"#utility.yul\":5487:5549   */\n      mstore\n      shl(0xd9, 0x35b2b73997)\n        /* \"#utility.yul\":5565:5583   */\n      0x64\n      dup3\n      add\n        /* \"#utility.yul\":5558:5593   */\n      mstore\n        /* \"#utility.yul\":5610:5629   */\n      0x84\n      add\n        /* \"OasisShop.sol\":3173:3220  revert(\"Treasury does not have enough tokens.\") */\n      tag_89\n        /* \"#utility.yul\":5234:5635   */\n      jump\n        /* \"OasisShop.sol\":3138:3220  if (treasuryBalance20 < _quantity) revert(\"Treasury does not have enough tokens.\") */\n    tag_129:\n        /* \"OasisShop.sol\":3256:3269  totalOstPrice */\n      dup1\n        /* \"OasisShop.sol\":3239:3253  userBalanceOst */\n      dup3\n        /* \"OasisShop.sol\":3239:3269  userBalanceOst < totalOstPrice */\n      lt\n        /* \"OasisShop.sol\":3235:3304  if (userBalanceOst < totalOstPrice) revert(\"Not enough $OST tokens.\") */\n      iszero\n      tag_132\n      jumpi\n        /* \"OasisShop.sol\":3271:3304  revert(\"Not enough $OST tokens.\") */\n      mload(0x40)\n      shl(0xe5, 0x461bcd)\n      dup2\n      mstore\n        /* \"#utility.yul\":5842:5844   */\n      0x20\n        /* \"OasisShop.sol\":3271:3304  revert(\"Not enough $OST tokens.\") */\n      0x04\n      dup3\n      add\n        /* \"#utility.yul\":5824:5845   */\n      mstore\n        /* \"#utility.yul\":5881:5883   */\n      0x17\n        /* \"#utility.yul\":5861:5879   */\n      0x24\n      dup3\n      add\n        /* \"#utility.yul\":5854:5884   */\n      mstore\n        /* \"#utility.yul\":5920:5945   */\n      0x4e6f7420656e6f75676820244f535420746f6b656e732e000000000000000000\n        /* \"#utility.yul\":5900:5918   */\n      0x44\n      dup3\n      add\n        /* \"#utility.yul\":5893:5946   */\n      mstore\n        /* \"#utility.yul\":5963:5981   */\n      0x64\n      add\n        /* \"OasisShop.sol\":3271:3304  revert(\"Not enough $OST tokens.\") */\n      tag_89\n        /* \"#utility.yul\":5640:5987   */\n      jump\n        /* \"OasisShop.sol\":3235:3304  if (userBalanceOst < totalOstPrice) revert(\"Not enough $OST tokens.\") */\n    tag_132:\n        /* \"OasisShop.sol\":3352:3360  treasury */\n      sload(0x03)\n        /* \"OasisShop.sol\":3321:3384  IERC20(_contract).transferFrom(treasury, msg.sender, _quantity) */\n      mload(0x40)\n      shl(0xe0, 0x23b872dd)\n      dup2\n      mstore\n      sub(shl(0xa0, 0x01), 0x01)\n        /* \"OasisShop.sol\":3352:3360  treasury */\n      swap2\n      dup3\n      and\n        /* \"OasisShop.sol\":3321:3384  IERC20(_contract).transferFrom(treasury, msg.sender, _quantity) */\n      0x04\n      dup3\n      add\n        /* \"#utility.yul\":6255:6289   */\n      mstore\n        /* \"OasisShop.sol\":3362:3372  msg.sender */\n      caller\n        /* \"#utility.yul\":6305:6323   */\n      0x24\n      dup3\n      add\n        /* \"#utility.yul\":6298:6341   */\n      mstore\n        /* \"#utility.yul\":6357:6375   */\n      0x44\n      dup2\n      add\n        /* \"#utility.yul\":6350:6384   */\n      dup8\n      swap1\n      mstore\n        /* \"OasisShop.sol\":3321:3351  IERC20(_contract).transferFrom */\n      swap1\n      dup8\n      and\n      swap1\n      0x23b872dd\n      swap1\n        /* \"#utility.yul\":6167:6185   */\n      0x64\n      add\n        /* \"OasisShop.sol\":3321:3384  IERC20(_contract).transferFrom(treasury, msg.sender, _quantity) */\n      0x20\n      mload(0x40)\n      dup1\n      dup4\n      sub\n      dup2\n      0x00\n      dup8\n      gas\n      call\n      iszero\n      dup1\n      iszero\n      tag_138\n      jumpi\n      returndatasize\n      0x00\n      dup1\n      returndatacopy\n      revert(0x00, returndatasize)\n    tag_138:\n      pop\n      pop\n      pop\n      pop\n      mload(0x40)\n      returndatasize\n      not(0x1f)\n      0x1f\n      dup3\n      add\n      and\n      dup3\n      add\n      dup1\n      0x40\n      mstore\n      pop\n      dup2\n      add\n      swap1\n      tag_139\n      swap2\n      swap1\n      tag_140\n      jump\t// in\n    tag_139:\n      pop\n        /* \"OasisShop.sol\":3406:3409  ost */\n      0x04\n      dup1\n      sload\n        /* \"OasisShop.sol\":3436:3450  oasisGraveyard */\n      sload(0x02)\n        /* \"OasisShop.sol\":3399:3466  IERC20(ost).transferFrom(msg.sender, oasisGraveyard, totalOstPrice) */\n      mload(0x40)\n      shl(0xe0, 0x23b872dd)\n      dup2\n      mstore\n        /* \"OasisShop.sol\":3424:3434  msg.sender */\n      caller\n        /* \"OasisShop.sol\":3399:3466  IERC20(ost).transferFrom(msg.sender, oasisGraveyard, totalOstPrice) */\n      swap4\n      dup2\n      add\n        /* \"#utility.yul\":6255:6289   */\n      swap4\n      swap1\n      swap4\n      mstore\n      sub(shl(0xa0, 0x01), 0x01)\n        /* \"OasisShop.sol\":3436:3450  oasisGraveyard */\n      swap1\n      dup2\n      and\n        /* \"#utility.yul\":6305:6323   */\n      0x24\n      dup5\n      add\n        /* \"#utility.yul\":6298:6341   */\n      mstore\n        /* \"#utility.yul\":6357:6375   */\n      0x44\n      dup4\n      add\n        /* \"#utility.yul\":6350:6384   */\n      dup5\n      swap1\n      mstore\n        /* \"OasisShop.sol\":3406:3409  ost */\n      and\n      swap1\n        /* \"OasisShop.sol\":3399:3423  IERC20(ost).transferFrom */\n      0x23b872dd\n      swap1\n        /* \"#utility.yul\":6167:6185   */\n      0x64\n      add\n        /* \"OasisShop.sol\":3399:3466  IERC20(ost).transferFrom(msg.sender, oasisGraveyard, totalOstPrice) */\n    tag_141:\n      0x20\n      mload(0x40)\n      dup1\n      dup4\n      sub\n      dup2\n      0x00\n      dup8\n      gas\n      call\n      iszero\n      dup1\n      iszero\n      tag_143\n      jumpi\n      returndatasize\n      0x00\n      dup1\n      returndatacopy\n      revert(0x00, returndatasize)\n    tag_143:\n      pop\n      pop\n      pop\n      pop\n      mload(0x40)\n      returndatasize\n      not(0x1f)\n      0x1f\n      dup3\n      add\n      and\n      dup3\n      add\n      dup1\n      0x40\n      mstore\n      pop\n      dup2\n      add\n      swap1\n      tag_144\n      swap2\n      swap1\n      tag_140\n      jump\t// in\n    tag_144:\n      pop\n        /* \"OasisShop.sol\":2904:3478  {... */\n      pop\n      pop\n      pop\n        /* \"OasisShop.sol\":2889:4447  if (item.is20) {... */\n      jump(tag_183)\n    tag_117:\n        /* \"OasisShop.sol\":3488:3492  item */\n      dup1\n        /* \"OasisShop.sol\":3488:3498  item.is721 */\n      0x20\n      add\n      mload\n        /* \"OasisShop.sol\":3484:4447  if (item.is721) {... */\n      iszero\n      tag_146\n      jumpi\n        /* \"OasisShop.sol\":3573:3581  treasury */\n      sload(0x03)\n        /* \"OasisShop.sol\":3544:3582  IERC721(_contract).balanceOf(treasury) */\n      mload(0x40)\n      shl(0xe0, 0x70a08231)\n      dup2\n      mstore\n      sub(shl(0xa0, 0x01), 0x01)\n        /* \"OasisShop.sol\":3573:3581  treasury */\n      swap2\n      dup3\n      and\n        /* \"OasisShop.sol\":3544:3582  IERC721(_contract).balanceOf(treasury) */\n      0x04\n      dup3\n      add\n        /* \"#utility.yul\":1151:1225   */\n      mstore\n        /* \"OasisShop.sol\":3515:3541  uint256 treasuryBalance721 */\n      0x00\n      swap2\n        /* \"OasisShop.sol\":3544:3572  IERC721(_contract).balanceOf */\n      dup6\n      and\n      swap1\n      0x70a08231\n      swap1\n        /* \"#utility.yul\":1124:1142   */\n      0x24\n      add\n        /* \"OasisShop.sol\":3544:3582  IERC721(_contract).balanceOf(treasury) */\n      0x20\n      mload(0x40)\n      dup1\n      dup4\n      sub\n      dup2\n      dup7\n      gas\n      staticcall\n      iszero\n      dup1\n      iszero\n      tag_149\n      jumpi\n      returndatasize\n      0x00\n      dup1\n      returndatacopy\n      revert(0x00, returndatasize)\n    tag_149:\n      pop\n      pop\n      pop\n      pop\n      mload(0x40)\n      returndatasize\n      not(0x1f)\n      0x1f\n      dup3\n      add\n      and\n      dup3\n      add\n      dup1\n      0x40\n      mstore\n      pop\n      dup2\n      add\n      swap1\n      tag_150\n      swap2\n      swap1\n      tag_122\n      jump\t// in\n    tag_150:\n        /* \"OasisShop.sol\":3629:3632  ost */\n      0x04\n      dup1\n      sload\n        /* \"OasisShop.sol\":3622:3655  IERC20(ost).balanceOf(msg.sender) */\n      mload(0x40)\n      shl(0xe0, 0x70a08231)\n      dup2\n      mstore\n        /* \"OasisShop.sol\":3644:3654  msg.sender */\n      caller\n        /* \"OasisShop.sol\":3622:3655  IERC20(ost).balanceOf(msg.sender) */\n      swap3\n      dup2\n      add\n        /* \"#utility.yul\":1151:1225   */\n      swap3\n      swap1\n      swap3\n      mstore\n        /* \"OasisShop.sol\":3515:3582  uint256 treasuryBalance721 = IERC721(_contract).balanceOf(treasury) */\n      swap2\n      swap3\n      pop\n        /* \"OasisShop.sol\":3597:3619  uint256 userBalanceOst */\n      0x00\n      swap2\n      sub(shl(0xa0, 0x01), 0x01)\n        /* \"OasisShop.sol\":3629:3632  ost */\n      and\n      swap1\n        /* \"OasisShop.sol\":3622:3643  IERC20(ost).balanceOf */\n      0x70a08231\n      swap1\n        /* \"#utility.yul\":1124:1142   */\n      0x24\n      add\n        /* \"OasisShop.sol\":3622:3655  IERC20(ost).balanceOf(msg.sender) */\n      0x20\n      mload(0x40)\n      dup1\n      dup4\n      sub\n      dup2\n      dup7\n      gas\n      staticcall\n      iszero\n      dup1\n      iszero\n      tag_153\n      jumpi\n      returndatasize\n      0x00\n      dup1\n      returndatacopy\n      revert(0x00, returndatasize)\n    tag_153:\n      pop\n      pop\n      pop\n      pop\n      mload(0x40)\n      returndatasize\n      not(0x1f)\n      0x1f\n      dup3\n      add\n      and\n      dup3\n      add\n      dup1\n      0x40\n      mstore\n      pop\n      dup2\n      add\n      swap1\n      tag_154\n      swap2\n      swap1\n      tag_122\n      jump\t// in\n    tag_154:\n        /* \"OasisShop.sol\":3597:3655  uint256 userBalanceOst = IERC20(ost).balanceOf(msg.sender) */\n      swap1\n      pop\n        /* \"OasisShop.sol\":3670:3691  uint256 totalOstPrice */\n      0x00\n        /* \"OasisShop.sol\":3710:3719  _quantity */\n      dup5\n        /* \"OasisShop.sol\":3694:3698  item */\n      dup5\n        /* \"OasisShop.sol\":3694:3707  item.ostPrice */\n      0xc0\n      add\n      mload\n        /* \"OasisShop.sol\":3694:3719  item.ostPrice * _quantity */\n      tag_155\n      swap2\n      swap1\n      tag_128\n      jump\t// in\n    tag_155:\n        /* \"OasisShop.sol\":3670:3719  uint256 totalOstPrice = item.ostPrice * _quantity */\n      swap1\n      pop\n        /* \"OasisShop.sol\":3761:3770  _quantity */\n      dup5\n        /* \"OasisShop.sol\":3740:3758  treasuryBalance721 */\n      dup4\n        /* \"OasisShop.sol\":3740:3770  treasuryBalance721 < _quantity */\n      lt\n        /* \"OasisShop.sol\":3736:3817  if (treasuryBalance721 < _quantity) revert(\"Treasury does not have enough NFTs.\") */\n      iszero\n      tag_156\n      jumpi\n        /* \"OasisShop.sol\":3772:3817  revert(\"Treasury does not have enough NFTs.\") */\n      mload(0x40)\n      shl(0xe5, 0x461bcd)\n      dup2\n      mstore\n        /* \"#utility.yul\":6847:6849   */\n      0x20\n        /* \"OasisShop.sol\":3772:3817  revert(\"Treasury does not have enough NFTs.\") */\n      0x04\n      dup3\n      add\n        /* \"#utility.yul\":6829:6850   */\n      mstore\n        /* \"#utility.yul\":6886:6888   */\n      0x23\n        /* \"#utility.yul\":6866:6884   */\n      0x24\n      dup3\n      add\n        /* \"#utility.yul\":6859:6889   */\n      mstore\n        /* \"#utility.yul\":6925:6959   */\n      0x547265617375727920646f6573206e6f74206861766520656e6f756768204e46\n        /* \"#utility.yul\":6905:6923   */\n      0x44\n      dup3\n      add\n        /* \"#utility.yul\":6898:6960   */\n      mstore\n      shl(0xe9, 0x2a3997)\n        /* \"#utility.yul\":6976:6994   */\n      0x64\n      dup3\n      add\n        /* \"#utility.yul\":6969:7002   */\n      mstore\n        /* \"#utility.yul\":7019:7038   */\n      0x84\n      add\n        /* \"OasisShop.sol\":3772:3817  revert(\"Treasury does not have enough NFTs.\") */\n      tag_89\n        /* \"#utility.yul\":6645:7044   */\n      jump\n        /* \"OasisShop.sol\":3736:3817  if (treasuryBalance721 < _quantity) revert(\"Treasury does not have enough NFTs.\") */\n    tag_156:\n        /* \"OasisShop.sol\":3853:3866  totalOstPrice */\n      dup1\n        /* \"OasisShop.sol\":3836:3850  userBalanceOst */\n      dup3\n        /* \"OasisShop.sol\":3836:3866  userBalanceOst < totalOstPrice */\n      lt\n        /* \"OasisShop.sol\":3832:3901  if (userBalanceOst < totalOstPrice) revert(\"Not enough $OST tokens.\") */\n      iszero\n      tag_159\n      jumpi\n        /* \"OasisShop.sol\":3868:3901  revert(\"Not enough $OST tokens.\") */\n      mload(0x40)\n      shl(0xe5, 0x461bcd)\n      dup2\n      mstore\n        /* \"#utility.yul\":5842:5844   */\n      0x20\n        /* \"OasisShop.sol\":3868:3901  revert(\"Not enough $OST tokens.\") */\n      0x04\n      dup3\n      add\n        /* \"#utility.yul\":5824:5845   */\n      mstore\n        /* \"#utility.yul\":5881:5883   */\n      0x17\n        /* \"#utility.yul\":5861:5879   */\n      0x24\n      dup3\n      add\n        /* \"#utility.yul\":5854:5884   */\n      mstore\n        /* \"#utility.yul\":5920:5945   */\n      0x4e6f7420656e6f75676820244f535420746f6b656e732e000000000000000000\n        /* \"#utility.yul\":5900:5918   */\n      0x44\n      dup3\n      add\n        /* \"#utility.yul\":5893:5946   */\n      mstore\n        /* \"#utility.yul\":5963:5981   */\n      0x64\n      add\n        /* \"OasisShop.sol\":3868:3901  revert(\"Not enough $OST tokens.\") */\n      tag_89\n        /* \"#utility.yul\":5640:5987   */\n      jump\n        /* \"OasisShop.sol\":3832:3901  if (userBalanceOst < totalOstPrice) revert(\"Not enough $OST tokens.\") */\n    tag_159:\n        /* \"OasisShop.sol\":3923:3932  uint256 i */\n      0x00\n        /* \"OasisShop.sol\":3918:4275  for (uint256 i = 0; i < _quantity; i++) {... */\n    tag_161:\n        /* \"OasisShop.sol\":3942:3951  _quantity */\n      dup6\n        /* \"OasisShop.sol\":3938:3939  i */\n      dup2\n        /* \"OasisShop.sol\":3938:3951  i < _quantity */\n      lt\n        /* \"OasisShop.sol\":3918:4275  for (uint256 i = 0; i < _quantity; i++) {... */\n      iszero\n      tag_139\n      jumpi\n        /* \"OasisShop.sol\":3977:4001  uint256 randomTokenIndex */\n      0x00\n        /* \"OasisShop.sol\":4004:4051  generateRandomNumber(0, treasuryBalance721 - i) */\n      tag_164\n        /* \"OasisShop.sol\":3977:4001  uint256 randomTokenIndex */\n      dup2\n        /* \"OasisShop.sol\":4028:4050  treasuryBalance721 - i */\n      tag_165\n        /* \"OasisShop.sol\":4049:4050  i */\n      dup5\n        /* \"OasisShop.sol\":4028:4046  treasuryBalance721 */\n      dup9\n        /* \"OasisShop.sol\":4028:4050  treasuryBalance721 - i */\n      tag_166\n      jump\t// in\n    tag_165:\n        /* \"OasisShop.sol\":4004:4024  generateRandomNumber */\n      tag_167\n        /* \"OasisShop.sol\":4004:4051  generateRandomNumber(0, treasuryBalance721 - i) */\n      jump\t// in\n    tag_164:\n        /* \"OasisShop.sol\":4143:4151  treasury */\n      sload(0x03)\n        /* \"OasisShop.sol\":4094:4170  IERC721Enumerable(_contract).tokenOfOwnerByIndex(treasury, randomTokenIndex) */\n      mload(0x40)\n      shl(0xe0, 0x2f745c59)\n      dup2\n      mstore\n      sub(shl(0xa0, 0x01), 0x01)\n        /* \"OasisShop.sol\":4143:4151  treasury */\n      swap2\n      dup3\n      and\n        /* \"OasisShop.sol\":4094:4170  IERC721Enumerable(_contract).tokenOfOwnerByIndex(treasury, randomTokenIndex) */\n      0x04\n      dup3\n      add\n        /* \"#utility.yul\":7353:7427   */\n      mstore\n        /* \"#utility.yul\":7443:7461   */\n      0x24\n      dup2\n      add\n        /* \"#utility.yul\":7436:7470   */\n      dup4\n      swap1\n      mstore\n        /* \"OasisShop.sol\":3977:4051  uint256 randomTokenIndex = generateRandomNumber(0, treasuryBalance721 - i) */\n      swap2\n      swap3\n      pop\n        /* \"OasisShop.sol\":4070:4091  uint256 randomTokenId */\n      0x00\n      swap2\n        /* \"OasisShop.sol\":4094:4142  IERC721Enumerable(_contract).tokenOfOwnerByIndex */\n      swap1\n      dup11\n      and\n      swap1\n      0x2f745c59\n      swap1\n        /* \"#utility.yul\":7326:7344   */\n      0x44\n      add\n        /* \"OasisShop.sol\":4094:4170  IERC721Enumerable(_contract).tokenOfOwnerByIndex(treasury, randomTokenIndex) */\n      0x20\n      mload(0x40)\n      dup1\n      dup4\n      sub\n      dup2\n      dup7\n      gas\n      staticcall\n      iszero\n      dup1\n      iszero\n      tag_171\n      jumpi\n      returndatasize\n      0x00\n      dup1\n      returndatacopy\n      revert(0x00, returndatasize)\n    tag_171:\n      pop\n      pop\n      pop\n      pop\n      mload(0x40)\n      returndatasize\n      not(0x1f)\n      0x1f\n      dup3\n      add\n      and\n      dup3\n      add\n      dup1\n      0x40\n      mstore\n      pop\n      dup2\n      add\n      swap1\n      tag_172\n      swap2\n      swap1\n      tag_122\n      jump\t// in\n    tag_172:\n        /* \"OasisShop.sol\":4223:4231  treasury */\n      sload(0x03)\n        /* \"OasisShop.sol\":4191:4259  IERC721(_contract).transferFrom(treasury, msg.sender, randomTokenId) */\n      mload(0x40)\n      shl(0xe0, 0x23b872dd)\n      dup2\n      mstore\n      sub(shl(0xa0, 0x01), 0x01)\n        /* \"OasisShop.sol\":4223:4231  treasury */\n      swap2\n      dup3\n      and\n        /* \"OasisShop.sol\":4191:4259  IERC721(_contract).transferFrom(treasury, msg.sender, randomTokenId) */\n      0x04\n      dup3\n      add\n        /* \"#utility.yul\":6255:6289   */\n      mstore\n        /* \"OasisShop.sol\":4233:4243  msg.sender */\n      caller\n        /* \"#utility.yul\":6305:6323   */\n      0x24\n      dup3\n      add\n        /* \"#utility.yul\":6298:6341   */\n      mstore\n        /* \"#utility.yul\":6357:6375   */\n      0x44\n      dup2\n      add\n        /* \"#utility.yul\":6350:6384   */\n      dup4\n      swap1\n      mstore\n        /* \"OasisShop.sol\":4070:4170  uint256 randomTokenId = IERC721Enumerable(_contract).tokenOfOwnerByIndex(treasury, randomTokenIndex) */\n      swap2\n      swap3\n      pop\n        /* \"OasisShop.sol\":4191:4222  IERC721(_contract).transferFrom */\n      dup11\n      and\n      swap1\n      0x23b872dd\n      swap1\n        /* \"#utility.yul\":6167:6185   */\n      0x64\n      add\n        /* \"OasisShop.sol\":4191:4259  IERC721(_contract).transferFrom(treasury, msg.sender, randomTokenId) */\n      0x00\n      mload(0x40)\n      dup1\n      dup4\n      sub\n      dup2\n      0x00\n      dup8\n      dup1\n      extcodesize\n      iszero\n      dup1\n      iszero\n      tag_174\n      jumpi\n      0x00\n      dup1\n      revert\n    tag_174:\n      pop\n      gas\n      call\n      iszero\n      dup1\n      iszero\n      tag_176\n      jumpi\n      returndatasize\n      0x00\n      dup1\n      returndatacopy\n      revert(0x00, returndatasize)\n    tag_176:\n      pop\n      pop\n      pop\n      pop\n        /* \"OasisShop.sol\":3958:4275  {... */\n      pop\n      pop\n        /* \"OasisShop.sol\":3953:3956  i++ */\n      dup1\n      dup1\n      tag_177\n      swap1\n      tag_178\n      jump\t// in\n    tag_177:\n      swap2\n      pop\n      pop\n        /* \"OasisShop.sol\":3918:4275  for (uint256 i = 0; i < _quantity; i++) {... */\n      jump(tag_161)\n        /* \"OasisShop.sol\":3484:4447  if (item.is721) {... */\n    tag_146:\n        /* \"OasisShop.sol\":4389:4435  revert(\"This type of token is not supported.\") */\n      mload(0x40)\n      shl(0xe5, 0x461bcd)\n      dup2\n      mstore\n        /* \"#utility.yul\":7823:7825   */\n      0x20\n        /* \"OasisShop.sol\":4389:4435  revert(\"This type of token is not supported.\") */\n      0x04\n      dup3\n      add\n        /* \"#utility.yul\":7805:7826   */\n      mstore\n        /* \"#utility.yul\":7862:7864   */\n      0x24\n        /* \"#utility.yul\":7842:7860   */\n      dup1\n      dup3\n      add\n        /* \"#utility.yul\":7835:7865   */\n      mstore\n        /* \"#utility.yul\":7901:7935   */\n      0x546869732074797065206f6620746f6b656e206973206e6f7420737570706f72\n        /* \"#utility.yul\":7881:7899   */\n      0x44\n      dup3\n      add\n        /* \"#utility.yul\":7874:7936   */\n      mstore\n      shl(0xe1, 0x3a32b217)\n        /* \"#utility.yul\":7952:7970   */\n      0x64\n      dup3\n      add\n        /* \"#utility.yul\":7945:7979   */\n      mstore\n        /* \"#utility.yul\":7996:8015   */\n      0x84\n      add\n        /* \"OasisShop.sol\":4389:4435  revert(\"This type of token is not supported.\") */\n      tag_89\n        /* \"#utility.yul\":7621:8021   */\n      jump\n        /* \"OasisShop.sol\":3484:4447  if (item.is721) {... */\n    tag_183:\n        /* \"OasisShop.sol\":4464:4522  PurchasedShopItems(msg.sender, _contract, item, _quantity) */\n      0x40\n      dup1\n      mload\n        /* \"#utility.yul\":8283:8296   */\n      dup3\n      mload\n        /* \"#utility.yul\":8276:8297   */\n      iszero\n        /* \"#utility.yul\":8269:8298   */\n      iszero\n        /* \"#utility.yul\":8251:8299   */\n      dup2\n      mstore\n        /* \"#utility.yul\":8369:8373   */\n      0x20\n        /* \"#utility.yul\":8357:8374   */\n      dup1\n      dup5\n      add\n        /* \"#utility.yul\":8351:8375   */\n      mload\n        /* \"#utility.yul\":8344:8376   */\n      iszero\n        /* \"#utility.yul\":8337:8377   */\n      iszero\n        /* \"#utility.yul\":8315:8335   */\n      swap1\n      dup3\n      add\n        /* \"#utility.yul\":8308:8378   */\n      mstore\n        /* \"#utility.yul\":8436:8453   */\n      dup3\n      dup3\n      add\n        /* \"#utility.yul\":8430:8454   */\n      mload\n        /* \"#utility.yul\":8423:8455   */\n      iszero\n        /* \"#utility.yul\":8416:8456   */\n      iszero\n        /* \"#utility.yul\":8394:8414   */\n      dup2\n      dup4\n      add\n        /* \"#utility.yul\":8387:8457   */\n      mstore\n        /* \"#utility.yul\":8527:8531   */\n      0x60\n        /* \"#utility.yul\":8515:8532   */\n      dup1\n      dup5\n      add\n        /* \"#utility.yul\":8509:8533   */\n      mload\n        /* \"#utility.yul\":8502:8534   */\n      iszero\n        /* \"#utility.yul\":8495:8535   */\n      iszero\n        /* \"#utility.yul\":8473:8493   */\n      swap1\n      dup3\n      add\n        /* \"#utility.yul\":8466:8536   */\n      mstore\n        /* \"#utility.yul\":8606:8610   */\n      0x80\n        /* \"#utility.yul\":8594:8611   */\n      dup1\n      dup5\n      add\n        /* \"#utility.yul\":8588:8612   */\n      mload\n        /* \"#utility.yul\":8581:8613   */\n      iszero\n        /* \"#utility.yul\":8574:8614   */\n      iszero\n        /* \"#utility.yul\":8552:8572   */\n      swap1\n      dup3\n      add\n        /* \"#utility.yul\":8545:8615   */\n      mstore\n        /* \"#utility.yul\":8671:8675   */\n      0xa0\n        /* \"#utility.yul\":8659:8676   */\n      dup1\n      dup5\n      add\n        /* \"#utility.yul\":8653:8677   */\n      mload\n        /* \"#utility.yul\":8631:8651   */\n      swap1\n      dup3\n      add\n        /* \"#utility.yul\":8624:8678   */\n      mstore\n        /* \"#utility.yul\":8734:8738   */\n      0xc0\n        /* \"#utility.yul\":8722:8739   */\n      dup1\n      dup5\n      add\n        /* \"#utility.yul\":8716:8740   */\n      mload\n        /* \"#utility.yul\":8694:8714   */\n      swap1\n      dup3\n      add\n        /* \"#utility.yul\":8687:8741   */\n      mstore\n        /* \"#utility.yul\":8772:8775   */\n      0xe0\n        /* \"#utility.yul\":8757:8776   */\n      dup2\n      add\n        /* \"#utility.yul\":8750:8785   */\n      dup5\n      swap1\n      mstore\n        /* \"OasisShop.sol\":4464:4522  PurchasedShopItems(msg.sender, _contract, item, _quantity) */\n      swap1\n      mload\n      sub(shl(0xa0, 0x01), 0x01)\n      dup6\n      and\n      swap2\n        /* \"OasisShop.sol\":4483:4493  msg.sender */\n      caller\n      swap2\n        /* \"OasisShop.sol\":4464:4522  PurchasedShopItems(msg.sender, _contract, item, _quantity) */\n      0x17bd9f4542e1e14fce075ce4e8a7f7819657693f5105ba9cc81a3dbae6beed5a\n      swap2\n      dup2\n      swap1\n      sub\n        /* \"#utility.yul\":8238:8241   */\n      0x0100\n        /* \"OasisShop.sol\":4464:4522  PurchasedShopItems(msg.sender, _contract, item, _quantity) */\n      add\n      swap1\n      log3\n      pop\n      pop\n        /* \"@openzeppelin/contracts/security/ReentrancyGuard.sol\":1701:1702   */\n      0x01\n        /* \"@openzeppelin/contracts/security/ReentrancyGuard.sol\":2628:2650   */\n      dup1\n      sstore\n      pop\n        /* \"OasisShop.sol\":2479:4530  function purchaseWithOst(address _contract, uint256 _quantity) external whenNotPaused nonReentrant {... */\n      jump\t// out\n        /* \"@openzeppelin/contracts/access/Ownable.sol\":1831:1932   */\n    tag_45:\n        /* \"@openzeppelin/contracts/access/Ownable.sol\":1094:1107   */\n      tag_189\n        /* \"@openzeppelin/contracts/access/Ownable.sol\":1094:1105   */\n      tag_86\n        /* \"@openzeppelin/contracts/access/Ownable.sol\":1094:1107   */\n      jump\t// in\n    tag_189:\n        /* \"@openzeppelin/contracts/access/Ownable.sol\":1895:1925   */\n      tag_191\n        /* \"@openzeppelin/contracts/access/Ownable.sol\":1922:1923   */\n      0x00\n        /* \"@openzeppelin/contracts/access/Ownable.sol\":1895:1913   */\n      tag_192\n        /* \"@openzeppelin/contracts/access/Ownable.sol\":1895:1925   */\n      jump\t// in\n    tag_191:\n        /* \"@openzeppelin/contracts/access/Ownable.sol\":1831:1932   */\n      jump\t// out\n        /* \"OasisShop.sol\":2321:2441  function removeShopIem(address _contract) external onlyOwner nonReentrant {... */\n    tag_50:\n        /* \"@openzeppelin/contracts/access/Ownable.sol\":1094:1107   */\n      tag_194\n        /* \"@openzeppelin/contracts/access/Ownable.sol\":1094:1105   */\n      tag_86\n        /* \"@openzeppelin/contracts/access/Ownable.sol\":1094:1107   */\n      jump\t// in\n    tag_194:\n        /* \"@openzeppelin/contracts/security/ReentrancyGuard.sol\":1744:1745   */\n      0x02\n        /* \"@openzeppelin/contracts/security/ReentrancyGuard.sol\":2325:2332   */\n      sload(0x01)\n        /* \"@openzeppelin/contracts/security/ReentrancyGuard.sol\":2325:2344   */\n      sub\n        /* \"@openzeppelin/contracts/security/ReentrancyGuard.sol\":2317:2380   */\n      tag_196\n      jumpi\n      mload(0x40)\n      shl(0xe5, 0x461bcd)\n      dup2\n      mstore\n        /* \"#utility.yul\":3415:3417   */\n      0x20\n        /* \"@openzeppelin/contracts/security/ReentrancyGuard.sol\":2317:2380   */\n      0x04\n      dup3\n      add\n        /* \"#utility.yul\":3397:3418   */\n      mstore\n        /* \"#utility.yul\":3454:3456   */\n      0x1f\n        /* \"#utility.yul\":3434:3452   */\n      0x24\n      dup3\n      add\n        /* \"#utility.yul\":3427:3457   */\n      mstore\n        /* \"#utility.yul\":3493:3526   */\n      0x5265656e7472616e637947756172643a207265656e7472616e742063616c6c00\n        /* \"#utility.yul\":3473:3491   */\n      0x44\n      dup3\n      add\n        /* \"#utility.yul\":3466:3527   */\n      mstore\n        /* \"#utility.yul\":3544:3562   */\n      0x64\n      add\n        /* \"@openzeppelin/contracts/security/ReentrancyGuard.sol\":2317:2380   */\n      tag_89\n        /* \"#utility.yul\":3213:3568   */\n      jump\n        /* \"@openzeppelin/contracts/security/ReentrancyGuard.sol\":2317:2380   */\n    tag_196:\n        /* \"@openzeppelin/contracts/security/ReentrancyGuard.sol\":1744:1745   */\n      0x02\n        /* \"@openzeppelin/contracts/security/ReentrancyGuard.sol\":2455:2462   */\n      0x01\n        /* \"@openzeppelin/contracts/security/ReentrancyGuard.sol\":2455:2473   */\n      dup2\n      dup2\n      sstore\n      sub(shl(0xa0, 0x01), 0x01)\n        /* \"OasisShop.sol\":2413:2433  shopItems[_contract] */\n      swap1\n      swap3\n      and\n      0x00\n      swap1\n      dup2\n      mstore\n        /* \"OasisShop.sol\":2413:2422  shopItems */\n      0x05\n        /* \"OasisShop.sol\":2413:2433  shopItems[_contract] */\n      0x20\n      mstore\n      0x40\n      dup2\n      keccak256\n        /* \"OasisShop.sol\":2406:2433  delete shopItems[_contract] */\n      dup1\n      sload\n      not(0xffffffffff)\n      and\n      dup2\n      sstore\n      dup1\n      dup5\n      add\n      dup3\n      swap1\n      sstore\n      swap1\n      swap2\n      add\n      sstore\n        /* \"@openzeppelin/contracts/security/ReentrancyGuard.sol\":2628:2650   */\n      dup1\n      sstore\n        /* \"OasisShop.sol\":2321:2441  function removeShopIem(address _contract) external onlyOwner nonReentrant {... */\n      jump\t// out\n        /* \"OasisShop.sol\":1287:1361  function pause() public onlyOwner nonReentrant {... */\n    tag_59:\n        /* \"@openzeppelin/contracts/access/Ownable.sol\":1094:1107   */\n      tag_200\n        /* \"@openzeppelin/contracts/access/Ownable.sol\":1094:1105   */\n      tag_86\n        /* \"@openzeppelin/contracts/access/Ownable.sol\":1094:1107   */\n      jump\t// in\n    tag_200:\n        /* \"@openzeppelin/contracts/security/ReentrancyGuard.sol\":1744:1745   */\n      0x02\n        /* \"@openzeppelin/contracts/security/ReentrancyGuard.sol\":2325:2332   */\n      sload(0x01)\n        /* \"@openzeppelin/contracts/security/ReentrancyGuard.sol\":2325:2344   */\n      sub\n        /* \"@openzeppelin/contracts/security/ReentrancyGuard.sol\":2317:2380   */\n      tag_202\n      jumpi\n      mload(0x40)\n      shl(0xe5, 0x461bcd)\n      dup2\n      mstore\n        /* \"#utility.yul\":3415:3417   */\n      0x20\n        /* \"@openzeppelin/contracts/security/ReentrancyGuard.sol\":2317:2380   */\n      0x04\n      dup3\n      add\n        /* \"#utility.yul\":3397:3418   */\n      mstore\n        /* \"#utility.yul\":3454:3456   */\n      0x1f\n        /* \"#utility.yul\":3434:3452   */\n      0x24\n      dup3\n      add\n        /* \"#utility.yul\":3427:3457   */\n      mstore\n        /* \"#utility.yul\":3493:3526   */\n      0x5265656e7472616e637947756172643a207265656e7472616e742063616c6c00\n        /* \"#utility.yul\":3473:3491   */\n      0x44\n      dup3\n      add\n        /* \"#utility.yul\":3466:3527   */\n      mstore\n        /* \"#utility.yul\":3544:3562   */\n      0x64\n      add\n        /* \"@openzeppelin/contracts/security/ReentrancyGuard.sol\":2317:2380   */\n      tag_89\n        /* \"#utility.yul\":3213:3568   */\n      jump\n        /* \"@openzeppelin/contracts/security/ReentrancyGuard.sol\":2317:2380   */\n    tag_202:\n        /* \"@openzeppelin/contracts/security/ReentrancyGuard.sol\":1744:1745   */\n      0x02\n        /* \"@openzeppelin/contracts/security/ReentrancyGuard.sol\":2455:2462   */\n      0x01\n        /* \"@openzeppelin/contracts/security/ReentrancyGuard.sol\":2455:2473   */\n      sstore\n        /* \"OasisShop.sol\":1345:1353  _pause() */\n      tag_98\n        /* \"OasisShop.sol\":1345:1351  _pause */\n      tag_206\n        /* \"OasisShop.sol\":1345:1353  _pause() */\n      jump\t// in\n        /* \"OasisShop.sol\":1717:2313  function addShopItem(... */\n    tag_76:\n        /* \"@openzeppelin/contracts/access/Ownable.sol\":1094:1107   */\n      tag_209\n        /* \"@openzeppelin/contracts/access/Ownable.sol\":1094:1105   */\n      tag_86\n        /* \"@openzeppelin/contracts/access/Ownable.sol\":1094:1107   */\n      jump\t// in\n    tag_209:\n        /* \"@openzeppelin/contracts/security/ReentrancyGuard.sol\":1744:1745   */\n      0x02\n        /* \"@openzeppelin/contracts/security/ReentrancyGuard.sol\":2325:2332   */\n      sload(0x01)\n        /* \"@openzeppelin/contracts/security/ReentrancyGuard.sol\":2325:2344   */\n      sub\n        /* \"@openzeppelin/contracts/security/ReentrancyGuard.sol\":2317:2380   */\n      tag_211\n      jumpi\n      mload(0x40)\n      shl(0xe5, 0x461bcd)\n      dup2\n      mstore\n        /* \"#utility.yul\":3415:3417   */\n      0x20\n        /* \"@openzeppelin/contracts/security/ReentrancyGuard.sol\":2317:2380   */\n      0x04\n      dup3\n      add\n        /* \"#utility.yul\":3397:3418   */\n      mstore\n        /* \"#utility.yul\":3454:3456   */\n      0x1f\n        /* \"#utility.yul\":3434:3452   */\n      0x24\n      dup3\n      add\n        /* \"#utility.yul\":3427:3457   */\n      mstore\n        /* \"#utility.yul\":3493:3526   */\n      0x5265656e7472616e637947756172643a207265656e7472616e742063616c6c00\n        /* \"#utility.yul\":3473:3491   */\n      0x44\n      dup3\n      add\n        /* \"#utility.yul\":3466:3527   */\n      mstore\n        /* \"#utility.yul\":3544:3562   */\n      0x64\n      add\n        /* \"@openzeppelin/contracts/security/ReentrancyGuard.sol\":2317:2380   */\n      tag_89\n        /* \"#utility.yul\":3213:3568   */\n      jump\n        /* \"@openzeppelin/contracts/security/ReentrancyGuard.sol\":2317:2380   */\n    tag_211:\n        /* \"@openzeppelin/contracts/security/ReentrancyGuard.sol\":1744:1745   */\n      0x02\n        /* \"@openzeppelin/contracts/security/ReentrancyGuard.sol\":2455:2462   */\n      0x01\n        /* \"@openzeppelin/contracts/security/ReentrancyGuard.sol\":2455:2473   */\n      sstore\n      sub(shl(0xa0, 0x01), 0x01)\n        /* \"OasisShop.sol\":2010:2033  _contract != address(0) */\n      dup9\n      and\n      iszero\n      dup1\n      iszero\n      swap1\n        /* \"OasisShop.sol\":2010:2063  _contract != address(0) &&... */\n      tag_214\n      jumpi\n      pop\n        /* \"OasisShop.sol\":2054:2063  _isActive */\n      dup7\n        /* \"OasisShop.sol\":2010:2063  _contract != address(0) &&... */\n    tag_214:\n        /* \"OasisShop.sol\":2010:2101  _contract != address(0) &&... */\n      dup1\n      iszero\n      tag_215\n      jumpi\n      pop\n        /* \"OasisShop.sol\":2094:2100  _is721 */\n      dup6\n        /* \"OasisShop.sol\":2085:2100  _is20 != _is721 */\n      iszero\n      iszero\n        /* \"OasisShop.sol\":2085:2090  _is20 */\n      dup6\n        /* \"OasisShop.sol\":2085:2100  _is20 != _is721 */\n      iszero\n      iszero\n      eq\n      iszero\n        /* \"OasisShop.sol\":2010:2101  _contract != address(0) &&... */\n    tag_215:\n        /* \"OasisShop.sol\":2010:2182  _contract != address(0) &&... */\n      dup1\n      iszero\n      tag_219\n      jumpi\n      pop\n        /* \"OasisShop.sol\":2124:2132  _withWei */\n      dup4\n        /* \"OasisShop.sol\":2124:2149  _withWei && _weiPrice > 0 */\n      dup1\n      iszero\n      tag_217\n      jumpi\n      pop\n        /* \"OasisShop.sol\":2148:2149  0 */\n      0x00\n        /* \"OasisShop.sol\":2136:2145  _weiPrice */\n      dup3\n        /* \"OasisShop.sol\":2136:2149  _weiPrice > 0 */\n      gt\n        /* \"OasisShop.sol\":2124:2149  _withWei && _weiPrice > 0 */\n    tag_217:\n        /* \"OasisShop.sol\":2123:2181  (_withWei && _weiPrice > 0) || (_withOst && _ostPrice > 0) */\n      dup1\n      tag_219\n      jumpi\n      pop\n        /* \"OasisShop.sol\":2155:2163  _withOst */\n      dup3\n        /* \"OasisShop.sol\":2155:2180  _withOst && _ostPrice > 0 */\n      dup1\n      iszero\n      tag_219\n      jumpi\n      pop\n        /* \"OasisShop.sol\":2179:2180  0 */\n      0x00\n        /* \"OasisShop.sol\":2167:2176  _ostPrice */\n      dup2\n        /* \"OasisShop.sol\":2167:2180  _ostPrice > 0 */\n      gt\n        /* \"OasisShop.sol\":2155:2180  _withOst && _ostPrice > 0 */\n    tag_219:\n        /* \"OasisShop.sol\":1988:2193  require(... */\n      tag_220\n      jumpi\n      0x00\n      dup1\n      revert\n    tag_220:\n        /* \"OasisShop.sol\":2229:2305  ShopItem(_isActive, _is721, _is20, _withWei, _withOst, _weiPrice, _ostPrice) */\n      0x40\n      dup1\n      mload\n      0xe0\n      dup2\n      add\n      dup3\n      mstore\n      swap8\n      iszero\n      iszero\n      dup9\n      mstore\n      swap6\n      iszero\n      iszero\n      0x20\n      dup1\n      dup10\n      add\n      swap2\n      dup3\n      mstore\n      swap6\n      iszero\n      iszero\n      dup9\n      dup9\n      add\n      swap1\n      dup2\n      mstore\n      swap5\n      iszero\n      iszero\n      0x60\n      dup10\n      add\n      swap1\n      dup2\n      mstore\n      swap4\n      iszero\n      iszero\n      0x80\n      dup10\n      add\n      swap1\n      dup2\n      mstore\n      0xa0\n      dup10\n      add\n      swap4\n      dup5\n      mstore\n      0xc0\n      dup10\n      add\n      swap3\n      dup4\n      mstore\n      sub(shl(0xa0, 0x01), 0x01)\n        /* \"OasisShop.sol\":2206:2226  shopItems[_contract] */\n      swap1\n      swap10\n      and\n      0x00\n      swap1\n      dup2\n      mstore\n        /* \"OasisShop.sol\":2206:2215  shopItems */\n      0x05\n        /* \"OasisShop.sol\":2206:2226  shopItems[_contract] */\n      swap1\n      swap7\n      mstore\n      swap6\n      swap1\n      swap5\n      keccak256\n        /* \"OasisShop.sol\":2206:2305  shopItems[_contract] = ShopItem(_isActive, _is721, _is20, _withWei, _withOst, _weiPrice, _ostPrice) */\n      swap6\n      mload\n      dup7\n      sload\n      swap6\n      mload\n      swap4\n      mload\n      swap3\n      mload\n      swap8\n      mload\n      iszero\n      iszero\n      0x0100000000\n      mul\n      not(0xff00000000)\n      swap9\n      iszero\n      iszero\n      0x01000000\n      mul\n      not(0xff000000)\n      swap5\n      iszero\n      iszero\n      0x010000\n      mul\n      swap5\n      swap1\n      swap5\n      and\n      not(0xffff0000)\n      swap6\n      iszero\n      iszero\n      0x0100\n      mul\n      not(0xff00)\n      swap4\n      iszero\n      iszero\n      swap4\n      swap1\n      swap4\n      and\n      not(0xffff)\n      swap1\n      swap9\n      and\n      swap8\n      swap1\n      swap8\n      or\n      swap2\n      swap1\n      swap2\n      or\n      swap4\n      swap1\n      swap4\n      and\n      swap5\n      swap1\n      swap5\n      or\n      or\n      swap5\n      swap1\n      swap5\n      and\n      swap4\n      swap1\n      swap4\n      or\n      dup3\n      sstore\n      mload\n      0x01\n      dup1\n      dup4\n      add\n      swap2\n      swap1\n      swap2\n      sstore\n      swap2\n      mload\n      0x02\n      swap1\n      swap2\n      add\n      sstore\n        /* \"@openzeppelin/contracts/security/ReentrancyGuard.sol\":2628:2650   */\n      dup1\n      sstore\n        /* \"OasisShop.sol\":1717:2313  function addShopItem(... */\n      jump\t// out\n        /* \"OasisShop.sol\":4538:6385  function purchaseWithEth(address _contract, uint256 _quantity) external payable whenNotPaused nonReentrant {... */\n    tag_79:\n        /* \"@openzeppelin/contracts/security/Pausable.sol\":1239:1258   */\n      tag_222\n        /* \"@openzeppelin/contracts/security/Pausable.sol\":1239:1256   */\n      tag_103\n        /* \"@openzeppelin/contracts/security/Pausable.sol\":1239:1258   */\n      jump\t// in\n    tag_222:\n        /* \"@openzeppelin/contracts/security/ReentrancyGuard.sol\":1744:1745   */\n      0x02\n        /* \"@openzeppelin/contracts/security/ReentrancyGuard.sol\":2325:2332   */\n      sload(0x01)\n        /* \"@openzeppelin/contracts/security/ReentrancyGuard.sol\":2325:2344   */\n      sub\n        /* \"@openzeppelin/contracts/security/ReentrancyGuard.sol\":2317:2380   */\n      tag_224\n      jumpi\n      mload(0x40)\n      shl(0xe5, 0x461bcd)\n      dup2\n      mstore\n        /* \"#utility.yul\":3415:3417   */\n      0x20\n        /* \"@openzeppelin/contracts/security/ReentrancyGuard.sol\":2317:2380   */\n      0x04\n      dup3\n      add\n        /* \"#utility.yul\":3397:3418   */\n      mstore\n        /* \"#utility.yul\":3454:3456   */\n      0x1f\n        /* \"#utility.yul\":3434:3452   */\n      0x24\n      dup3\n      add\n        /* \"#utility.yul\":3427:3457   */\n      mstore\n        /* \"#utility.yul\":3493:3526   */\n      0x5265656e7472616e637947756172643a207265656e7472616e742063616c6c00\n        /* \"#utility.yul\":3473:3491   */\n      0x44\n      dup3\n      add\n        /* \"#utility.yul\":3466:3527   */\n      mstore\n        /* \"#utility.yul\":3544:3562   */\n      0x64\n      add\n        /* \"@openzeppelin/contracts/security/ReentrancyGuard.sol\":2317:2380   */\n      tag_89\n        /* \"#utility.yul\":3213:3568   */\n      jump\n        /* \"@openzeppelin/contracts/security/ReentrancyGuard.sol\":2317:2380   */\n    tag_224:\n        /* \"@openzeppelin/contracts/security/ReentrancyGuard.sol\":1744:1745   */\n      0x02\n        /* \"@openzeppelin/contracts/security/ReentrancyGuard.sol\":2455:2462   */\n      0x01\n        /* \"@openzeppelin/contracts/security/ReentrancyGuard.sol\":2455:2473   */\n      sstore\n      sub(shl(0xa0, 0x01), 0x01)\n        /* \"OasisShop.sol\":4664:4684  shopItems[_contract] */\n      dup3\n      and\n      0x00\n      swap1\n      dup2\n      mstore\n        /* \"OasisShop.sol\":4664:4673  shopItems */\n      0x05\n        /* \"OasisShop.sol\":4664:4684  shopItems[_contract] */\n      0x20\n      mstore\n      0x40\n      swap1\n      keccak256\n        /* \"OasisShop.sol\":4664:4693  shopItems[_contract].isActive */\n      sload\n      0xff\n      and\n        /* \"OasisShop.sol\":4656:4722  require(shopItems[_contract].isActive, \"This item is not active.\") */\n      tag_227\n      jumpi\n      mload(0x40)\n      shl(0xe5, 0x461bcd)\n      dup2\n      mstore\n        /* \"#utility.yul\":3775:3777   */\n      0x20\n        /* \"OasisShop.sol\":4656:4722  require(shopItems[_contract].isActive, \"This item is not active.\") */\n      0x04\n      dup3\n      add\n        /* \"#utility.yul\":3757:3778   */\n      mstore\n        /* \"#utility.yul\":3814:3816   */\n      0x18\n        /* \"#utility.yul\":3794:3812   */\n      0x24\n      dup3\n      add\n        /* \"#utility.yul\":3787:3817   */\n      mstore\n        /* \"#utility.yul\":3853:3879   */\n      0x54686973206974656d206973206e6f74206163746976652e0000000000000000\n        /* \"#utility.yul\":3833:3851   */\n      0x44\n      dup3\n      add\n        /* \"#utility.yul\":3826:3880   */\n      mstore\n        /* \"#utility.yul\":3897:3915   */\n      0x64\n      add\n        /* \"OasisShop.sol\":4656:4722  require(shopItems[_contract].isActive, \"This item is not active.\") */\n      tag_89\n        /* \"#utility.yul\":3573:3921   */\n      jump\n        /* \"OasisShop.sol\":4656:4722  require(shopItems[_contract].isActive, \"This item is not active.\") */\n    tag_227:\n      sub(shl(0xa0, 0x01), 0x01)\n        /* \"OasisShop.sol\":4741:4761  shopItems[_contract] */\n      dup3\n      and\n      0x00\n      swap1\n      dup2\n      mstore\n        /* \"OasisShop.sol\":4741:4750  shopItems */\n      0x05\n        /* \"OasisShop.sol\":4741:4761  shopItems[_contract] */\n      0x20\n      mstore\n      0x40\n      swap1\n      keccak256\n        /* \"OasisShop.sol\":4741:4769  shopItems[_contract].withWei */\n      sload\n      0x01000000\n      swap1\n      div\n      0xff\n      and\n        /* \"OasisShop.sol\":4733:4814  require(shopItems[_contract].withWei, \"This item cannot be purchased with $ETH.\") */\n      tag_229\n      jumpi\n      mload(0x40)\n      shl(0xe5, 0x461bcd)\n      dup2\n      mstore\n        /* \"#utility.yul\":8998:9000   */\n      0x20\n        /* \"OasisShop.sol\":4733:4814  require(shopItems[_contract].withWei, \"This item cannot be purchased with $ETH.\") */\n      0x04\n      dup3\n      add\n        /* \"#utility.yul\":8980:9001   */\n      mstore\n        /* \"#utility.yul\":9037:9039   */\n      0x28\n        /* \"#utility.yul\":9017:9035   */\n      0x24\n      dup3\n      add\n        /* \"#utility.yul\":9010:9040   */\n      mstore\n        /* \"#utility.yul\":9076:9110   */\n      0x54686973206974656d2063616e6e6f7420626520707572636861736564207769\n        /* \"#utility.yul\":9056:9074   */\n      0x44\n      dup3\n      add\n        /* \"#utility.yul\":9049:9111   */\n      mstore\n        /* \"#utility.yul\":9147:9157   */\n      0x746820244554482e000000000000000000000000000000000000000000000000\n        /* \"#utility.yul\":9127:9145   */\n      0x64\n      dup3\n      add\n        /* \"#utility.yul\":9120:9158   */\n      mstore\n        /* \"#utility.yul\":9175:9194   */\n      0x84\n      add\n        /* \"OasisShop.sol\":4733:4814  require(shopItems[_contract].withWei, \"This item cannot be purchased with $ETH.\") */\n      tag_89\n        /* \"#utility.yul\":8796:9200   */\n      jump\n        /* \"OasisShop.sol\":4733:4814  require(shopItems[_contract].withWei, \"This item cannot be purchased with $ETH.\") */\n    tag_229:\n        /* \"OasisShop.sol\":4845:4846  0 */\n      0x00\n        /* \"OasisShop.sol\":4833:4842  _quantity */\n      dup2\n        /* \"OasisShop.sol\":4833:4846  _quantity > 0 */\n      gt\n        /* \"OasisShop.sol\":4825:4887  require(_quantity > 0, \"You must at least purchase one item.\") */\n      tag_232\n      jumpi\n      mload(0x40)\n      shl(0xe5, 0x461bcd)\n      dup2\n      mstore\n        /* \"#utility.yul\":4537:4539   */\n      0x20\n        /* \"OasisShop.sol\":4825:4887  require(_quantity > 0, \"You must at least purchase one item.\") */\n      0x04\n      dup3\n      add\n        /* \"#utility.yul\":4519:4540   */\n      mstore\n        /* \"#utility.yul\":4576:4578   */\n      0x24\n        /* \"#utility.yul\":4556:4574   */\n      dup1\n      dup3\n      add\n        /* \"#utility.yul\":4549:4579   */\n      mstore\n        /* \"#utility.yul\":4615:4649   */\n      0x596f75206d757374206174206c65617374207075726368617365206f6e652069\n        /* \"#utility.yul\":4595:4613   */\n      0x44\n      dup3\n      add\n        /* \"#utility.yul\":4588:4650   */\n      mstore\n      shl(0xe1, 0x3a32b697)\n        /* \"#utility.yul\":4666:4684   */\n      0x64\n      dup3\n      add\n        /* \"#utility.yul\":4659:4693   */\n      mstore\n        /* \"#utility.yul\":4710:4729   */\n      0x84\n      add\n        /* \"OasisShop.sol\":4825:4887  require(_quantity > 0, \"You must at least purchase one item.\") */\n      tag_89\n        /* \"#utility.yul\":4335:4735   */\n      jump\n        /* \"OasisShop.sol\":4825:4887  require(_quantity > 0, \"You must at least purchase one item.\") */\n    tag_232:\n      sub(shl(0xa0, 0x01), 0x01)\n        /* \"OasisShop.sol\":4923:4943  shopItems[_contract] */\n      dup3\n      and\n        /* \"OasisShop.sol\":4900:4920  ShopItem memory item */\n      0x00\n        /* \"OasisShop.sol\":4923:4943  shopItems[_contract] */\n      swap1\n      dup2\n      mstore\n        /* \"OasisShop.sol\":4923:4932  shopItems */\n      0x05\n        /* \"OasisShop.sol\":4923:4943  shopItems[_contract] */\n      0x20\n      swap1\n      dup2\n      mstore\n      0x40\n      swap2\n      dup3\n      swap1\n      keccak256\n        /* \"OasisShop.sol\":4900:4943  ShopItem memory item = shopItems[_contract] */\n      dup3\n      mload\n      0xe0\n      dup2\n      add\n      dup5\n      mstore\n      dup2\n      sload\n      0xff\n      dup1\n      dup3\n      and\n      iszero\n      iszero\n      dup4\n      mstore\n      0x0100\n      dup3\n      div\n      dup2\n      and\n      iszero\n      iszero\n      swap5\n      dup4\n      add\n      swap5\n      swap1\n      swap5\n      mstore\n      0x010000\n      dup2\n      div\n      dup5\n      and\n      iszero\n      dup1\n      iszero\n      swap6\n      dup4\n      add\n      swap6\n      swap1\n      swap6\n      mstore\n      0x01000000\n      dup2\n      div\n      dup5\n      and\n      iszero\n      iszero\n      0x60\n      dup4\n      add\n      mstore\n      0x0100000000\n      swap1\n      div\n      swap1\n      swap3\n      and\n      iszero\n      iszero\n      0x80\n      dup4\n      add\n      mstore\n      0x01\n      dup2\n      add\n      sload\n      0xa0\n      dup4\n      add\n      mstore\n      0x02\n      add\n      sload\n      0xc0\n      dup3\n      add\n      mstore\n      swap1\n        /* \"OasisShop.sol\":4956:6302  if (item.is20) {... */\n      tag_234\n      jumpi\n        /* \"OasisShop.sol\":5042:5050  treasury */\n      sload(0x03)\n        /* \"OasisShop.sol\":5014:5051  IERC20(_contract).balanceOf(treasury) */\n      mload(0x40)\n      shl(0xe0, 0x70a08231)\n      dup2\n      mstore\n      sub(shl(0xa0, 0x01), 0x01)\n        /* \"OasisShop.sol\":5042:5050  treasury */\n      swap2\n      dup3\n      and\n        /* \"OasisShop.sol\":5014:5051  IERC20(_contract).balanceOf(treasury) */\n      0x04\n      dup3\n      add\n        /* \"#utility.yul\":1151:1225   */\n      mstore\n        /* \"OasisShop.sol\":4986:5011  uint256 treasuryBalance20 */\n      0x00\n      swap2\n        /* \"OasisShop.sol\":5014:5041  IERC20(_contract).balanceOf */\n      dup6\n      and\n      swap1\n      0x70a08231\n      swap1\n        /* \"#utility.yul\":1124:1142   */\n      0x24\n      add\n        /* \"OasisShop.sol\":5014:5051  IERC20(_contract).balanceOf(treasury) */\n      0x20\n      mload(0x40)\n      dup1\n      dup4\n      sub\n      dup2\n      dup7\n      gas\n      staticcall\n      iszero\n      dup1\n      iszero\n      tag_237\n      jumpi\n      returndatasize\n      0x00\n      dup1\n      returndatacopy\n      revert(0x00, returndatasize)\n    tag_237:\n      pop\n      pop\n      pop\n      pop\n      mload(0x40)\n      returndatasize\n      not(0x1f)\n      0x1f\n      dup3\n      add\n      and\n      dup3\n      add\n      dup1\n      0x40\n      mstore\n      pop\n      dup2\n      add\n      swap1\n      tag_238\n      swap2\n      swap1\n      tag_122\n      jump\t// in\n    tag_238:\n        /* \"OasisShop.sol\":4986:5051  uint256 treasuryBalance20 = IERC20(_contract).balanceOf(treasury) */\n      swap1\n      pop\n        /* \"OasisShop.sol\":5066:5088  uint256 userBalanceWei */\n      0x00\n        /* \"OasisShop.sol\":5091:5100  msg.value */\n      callvalue\n        /* \"OasisShop.sol\":5066:5100  uint256 userBalanceWei = msg.value */\n      swap1\n      pop\n        /* \"OasisShop.sol\":5115:5136  uint256 totalWeiPrice */\n      0x00\n        /* \"OasisShop.sol\":5155:5164  _quantity */\n      dup5\n        /* \"OasisShop.sol\":5139:5143  item */\n      dup5\n        /* \"OasisShop.sol\":5139:5152  item.weiPrice */\n      0xa0\n      add\n      mload\n        /* \"OasisShop.sol\":5139:5164  item.weiPrice * _quantity */\n      tag_239\n      swap2\n      swap1\n      tag_128\n      jump\t// in\n    tag_239:\n        /* \"OasisShop.sol\":5115:5164  uint256 totalWeiPrice = item.weiPrice * _quantity */\n      swap1\n      pop\n        /* \"OasisShop.sol\":5205:5214  _quantity */\n      dup5\n        /* \"OasisShop.sol\":5185:5202  treasuryBalance20 */\n      dup4\n        /* \"OasisShop.sol\":5185:5214  treasuryBalance20 < _quantity */\n      lt\n        /* \"OasisShop.sol\":5181:5263  if (treasuryBalance20 < _quantity) revert(\"Treasury does not have enough tokens.\") */\n      iszero\n      tag_240\n      jumpi\n        /* \"OasisShop.sol\":5216:5263  revert(\"Treasury does not have enough tokens.\") */\n      mload(0x40)\n      shl(0xe5, 0x461bcd)\n      dup2\n      mstore\n        /* \"#utility.yul\":5436:5438   */\n      0x20\n        /* \"OasisShop.sol\":5216:5263  revert(\"Treasury does not have enough tokens.\") */\n      0x04\n      dup3\n      add\n        /* \"#utility.yul\":5418:5439   */\n      mstore\n        /* \"#utility.yul\":5475:5477   */\n      0x25\n        /* \"#utility.yul\":5455:5473   */\n      0x24\n      dup3\n      add\n        /* \"#utility.yul\":5448:5478   */\n      mstore\n        /* \"#utility.yul\":5514:5548   */\n      0x547265617375727920646f6573206e6f74206861766520656e6f75676820746f\n        /* \"#utility.yul\":5494:5512   */\n      0x44\n      dup3\n      add\n        /* \"#utility.yul\":5487:5549   */\n      mstore\n      shl(0xd9, 0x35b2b73997)\n        /* \"#utility.yul\":5565:5583   */\n      0x64\n      dup3\n      add\n        /* \"#utility.yul\":5558:5593   */\n      mstore\n        /* \"#utility.yul\":5610:5629   */\n      0x84\n      add\n        /* \"OasisShop.sol\":5216:5263  revert(\"Treasury does not have enough tokens.\") */\n      tag_89\n        /* \"#utility.yul\":5234:5635   */\n      jump\n        /* \"OasisShop.sol\":5181:5263  if (treasuryBalance20 < _quantity) revert(\"Treasury does not have enough tokens.\") */\n    tag_240:\n        /* \"OasisShop.sol\":5299:5312  totalWeiPrice */\n      dup1\n        /* \"OasisShop.sol\":5282:5296  userBalanceWei */\n      dup3\n        /* \"OasisShop.sol\":5282:5312  userBalanceWei < totalWeiPrice */\n      lt\n        /* \"OasisShop.sol\":5278:5347  if (userBalanceWei < totalWeiPrice) revert(\"Not enough $ETH tokens.\") */\n      iszero\n      tag_242\n      jumpi\n        /* \"OasisShop.sol\":5314:5347  revert(\"Not enough $ETH tokens.\") */\n      mload(0x40)\n      shl(0xe5, 0x461bcd)\n      dup2\n      mstore\n        /* \"#utility.yul\":9407:9409   */\n      0x20\n        /* \"OasisShop.sol\":5314:5347  revert(\"Not enough $ETH tokens.\") */\n      0x04\n      dup3\n      add\n        /* \"#utility.yul\":9389:9410   */\n      mstore\n        /* \"#utility.yul\":9446:9448   */\n      0x17\n        /* \"#utility.yul\":9426:9444   */\n      0x24\n      dup3\n      add\n        /* \"#utility.yul\":9419:9449   */\n      mstore\n        /* \"#utility.yul\":9485:9510   */\n      0x4e6f7420656e6f756768202445544820746f6b656e732e000000000000000000\n        /* \"#utility.yul\":9465:9483   */\n      0x44\n      dup3\n      add\n        /* \"#utility.yul\":9458:9511   */\n      mstore\n        /* \"#utility.yul\":9528:9546   */\n      0x64\n      add\n        /* \"OasisShop.sol\":5314:5347  revert(\"Not enough $ETH tokens.\") */\n      tag_89\n        /* \"#utility.yul\":9205:9552   */\n      jump\n        /* \"OasisShop.sol\":5278:5347  if (userBalanceWei < totalWeiPrice) revert(\"Not enough $ETH tokens.\") */\n    tag_242:\n        /* \"OasisShop.sol\":5395:5403  treasury */\n      sload(0x03)\n        /* \"OasisShop.sol\":5364:5427  IERC20(_contract).transferFrom(treasury, msg.sender, _quantity) */\n      mload(0x40)\n      shl(0xe0, 0x23b872dd)\n      dup2\n      mstore\n      sub(shl(0xa0, 0x01), 0x01)\n        /* \"OasisShop.sol\":5395:5403  treasury */\n      swap2\n      dup3\n      and\n        /* \"OasisShop.sol\":5364:5427  IERC20(_contract).transferFrom(treasury, msg.sender, _quantity) */\n      0x04\n      dup3\n      add\n        /* \"#utility.yul\":6255:6289   */\n      mstore\n        /* \"OasisShop.sol\":5405:5415  msg.sender */\n      caller\n        /* \"#utility.yul\":6305:6323   */\n      0x24\n      dup3\n      add\n        /* \"#utility.yul\":6298:6341   */\n      mstore\n        /* \"#utility.yul\":6357:6375   */\n      0x44\n      dup2\n      add\n        /* \"#utility.yul\":6350:6384   */\n      dup8\n      swap1\n      mstore\n        /* \"OasisShop.sol\":5364:5394  IERC20(_contract).transferFrom */\n      swap1\n      dup8\n      and\n      swap1\n      0x23b872dd\n      swap1\n        /* \"#utility.yul\":6167:6185   */\n      0x64\n      add\n        /* \"OasisShop.sol\":5364:5427  IERC20(_contract).transferFrom(treasury, msg.sender, _quantity) */\n      tag_141\n        /* \"#utility.yul\":5992:6390   */\n      jump\n        /* \"OasisShop.sol\":4956:6302  if (item.is20) {... */\n    tag_234:\n        /* \"OasisShop.sol\":5449:5453  item */\n      dup1\n        /* \"OasisShop.sol\":5449:5459  item.is721 */\n      0x20\n      add\n      mload\n        /* \"OasisShop.sol\":5445:6302  if (item.is721) {... */\n      iszero\n      tag_146\n      jumpi\n        /* \"OasisShop.sol\":5534:5542  treasury */\n      sload(0x03)\n        /* \"OasisShop.sol\":5505:5543  IERC721(_contract).balanceOf(treasury) */\n      mload(0x40)\n      shl(0xe0, 0x70a08231)\n      dup2\n      mstore\n      sub(shl(0xa0, 0x01), 0x01)\n        /* \"OasisShop.sol\":5534:5542  treasury */\n      swap2\n      dup3\n      and\n        /* \"OasisShop.sol\":5505:5543  IERC721(_contract).balanceOf(treasury) */\n      0x04\n      dup3\n      add\n        /* \"#utility.yul\":1151:1225   */\n      mstore\n        /* \"OasisShop.sol\":5476:5502  uint256 treasuryBalance721 */\n      0x00\n      swap2\n        /* \"OasisShop.sol\":5505:5533  IERC721(_contract).balanceOf */\n      dup6\n      and\n      swap1\n      0x70a08231\n      swap1\n        /* \"#utility.yul\":1124:1142   */\n      0x24\n      add\n        /* \"OasisShop.sol\":5505:5543  IERC721(_contract).balanceOf(treasury) */\n      0x20\n      mload(0x40)\n      dup1\n      dup4\n      sub\n      dup2\n      dup7\n      gas\n      staticcall\n      iszero\n      dup1\n      iszero\n      tag_253\n      jumpi\n      returndatasize\n      0x00\n      dup1\n      returndatacopy\n      revert(0x00, returndatasize)\n    tag_253:\n      pop\n      pop\n      pop\n      pop\n      mload(0x40)\n      returndatasize\n      not(0x1f)\n      0x1f\n      dup3\n      add\n      and\n      dup3\n      add\n      dup1\n      0x40\n      mstore\n      pop\n      dup2\n      add\n      swap1\n      tag_254\n      swap2\n      swap1\n      tag_122\n      jump\t// in\n    tag_254:\n        /* \"OasisShop.sol\":5476:5543  uint256 treasuryBalance721 = IERC721(_contract).balanceOf(treasury) */\n      swap1\n      pop\n        /* \"OasisShop.sol\":5558:5580  uint256 userBalanceWei */\n      0x00\n        /* \"OasisShop.sol\":5583:5592  msg.value */\n      callvalue\n        /* \"OasisShop.sol\":5558:5592  uint256 userBalanceWei = msg.value */\n      swap1\n      pop\n        /* \"OasisShop.sol\":5607:5628  uint256 totalWeiPrice */\n      0x00\n        /* \"OasisShop.sol\":5647:5656  _quantity */\n      dup5\n        /* \"OasisShop.sol\":5631:5635  item */\n      dup5\n        /* \"OasisShop.sol\":5631:5644  item.weiPrice */\n      0xa0\n      add\n      mload\n        /* \"OasisShop.sol\":5631:5656  item.weiPrice * _quantity */\n      tag_255\n      swap2\n      swap1\n      tag_128\n      jump\t// in\n    tag_255:\n        /* \"OasisShop.sol\":5607:5656  uint256 totalWeiPrice = item.weiPrice * _quantity */\n      swap1\n      pop\n        /* \"OasisShop.sol\":5698:5707  _quantity */\n      dup5\n        /* \"OasisShop.sol\":5677:5695  treasuryBalance721 */\n      dup4\n        /* \"OasisShop.sol\":5677:5707  treasuryBalance721 < _quantity */\n      lt\n        /* \"OasisShop.sol\":5673:5754  if (treasuryBalance721 < _quantity) revert(\"Treasury does not have enough NFTs.\") */\n      iszero\n      tag_256\n      jumpi\n        /* \"OasisShop.sol\":5709:5754  revert(\"Treasury does not have enough NFTs.\") */\n      mload(0x40)\n      shl(0xe5, 0x461bcd)\n      dup2\n      mstore\n        /* \"#utility.yul\":6847:6849   */\n      0x20\n        /* \"OasisShop.sol\":5709:5754  revert(\"Treasury does not have enough NFTs.\") */\n      0x04\n      dup3\n      add\n        /* \"#utility.yul\":6829:6850   */\n      mstore\n        /* \"#utility.yul\":6886:6888   */\n      0x23\n        /* \"#utility.yul\":6866:6884   */\n      0x24\n      dup3\n      add\n        /* \"#utility.yul\":6859:6889   */\n      mstore\n        /* \"#utility.yul\":6925:6959   */\n      0x547265617375727920646f6573206e6f74206861766520656e6f756768204e46\n        /* \"#utility.yul\":6905:6923   */\n      0x44\n      dup3\n      add\n        /* \"#utility.yul\":6898:6960   */\n      mstore\n      shl(0xe9, 0x2a3997)\n        /* \"#utility.yul\":6976:6994   */\n      0x64\n      dup3\n      add\n        /* \"#utility.yul\":6969:7002   */\n      mstore\n        /* \"#utility.yul\":7019:7038   */\n      0x84\n      add\n        /* \"OasisShop.sol\":5709:5754  revert(\"Treasury does not have enough NFTs.\") */\n      tag_89\n        /* \"#utility.yul\":6645:7044   */\n      jump\n        /* \"OasisShop.sol\":5673:5754  if (treasuryBalance721 < _quantity) revert(\"Treasury does not have enough NFTs.\") */\n    tag_256:\n        /* \"OasisShop.sol\":5790:5803  totalWeiPrice */\n      dup1\n        /* \"OasisShop.sol\":5773:5787  userBalanceWei */\n      dup3\n        /* \"OasisShop.sol\":5773:5803  userBalanceWei < totalWeiPrice */\n      lt\n        /* \"OasisShop.sol\":5769:5838  if (userBalanceWei < totalWeiPrice) revert(\"Not enough $ETH tokens.\") */\n      iszero\n      tag_258\n      jumpi\n        /* \"OasisShop.sol\":5805:5838  revert(\"Not enough $ETH tokens.\") */\n      mload(0x40)\n      shl(0xe5, 0x461bcd)\n      dup2\n      mstore\n        /* \"#utility.yul\":9407:9409   */\n      0x20\n        /* \"OasisShop.sol\":5805:5838  revert(\"Not enough $ETH tokens.\") */\n      0x04\n      dup3\n      add\n        /* \"#utility.yul\":9389:9410   */\n      mstore\n        /* \"#utility.yul\":9446:9448   */\n      0x17\n        /* \"#utility.yul\":9426:9444   */\n      0x24\n      dup3\n      add\n        /* \"#utility.yul\":9419:9449   */\n      mstore\n        /* \"#utility.yul\":9485:9510   */\n      0x4e6f7420656e6f756768202445544820746f6b656e732e000000000000000000\n        /* \"#utility.yul\":9465:9483   */\n      0x44\n      dup3\n      add\n        /* \"#utility.yul\":9458:9511   */\n      mstore\n        /* \"#utility.yul\":9528:9546   */\n      0x64\n      add\n        /* \"OasisShop.sol\":5805:5838  revert(\"Not enough $ETH tokens.\") */\n      tag_89\n        /* \"#utility.yul\":9205:9552   */\n      jump\n        /* \"OasisShop.sol\":5769:5838  if (userBalanceWei < totalWeiPrice) revert(\"Not enough $ETH tokens.\") */\n    tag_258:\n        /* \"OasisShop.sol\":5860:5869  uint256 i */\n      0x00\n        /* \"OasisShop.sol\":5855:6212  for (uint256 i = 0; i < _quantity; i++) {... */\n    tag_260:\n        /* \"OasisShop.sol\":5879:5888  _quantity */\n      dup6\n        /* \"OasisShop.sol\":5875:5876  i */\n      dup2\n        /* \"OasisShop.sol\":5875:5888  i < _quantity */\n      lt\n        /* \"OasisShop.sol\":5855:6212  for (uint256 i = 0; i < _quantity; i++) {... */\n      iszero\n      tag_144\n      jumpi\n        /* \"OasisShop.sol\":5914:5938  uint256 randomTokenIndex */\n      0x00\n        /* \"OasisShop.sol\":5941:5988  generateRandomNumber(0, treasuryBalance721 - i) */\n      tag_263\n        /* \"OasisShop.sol\":5914:5938  uint256 randomTokenIndex */\n      dup2\n        /* \"OasisShop.sol\":5965:5987  treasuryBalance721 - i */\n      tag_165\n        /* \"OasisShop.sol\":5986:5987  i */\n      dup5\n        /* \"OasisShop.sol\":5965:5983  treasuryBalance721 */\n      dup9\n        /* \"OasisShop.sol\":5965:5987  treasuryBalance721 - i */\n      tag_166\n      jump\t// in\n        /* \"OasisShop.sol\":5941:5988  generateRandomNumber(0, treasuryBalance721 - i) */\n    tag_263:\n        /* \"OasisShop.sol\":6080:6088  treasury */\n      sload(0x03)\n        /* \"OasisShop.sol\":6031:6107  IERC721Enumerable(_contract).tokenOfOwnerByIndex(treasury, randomTokenIndex) */\n      mload(0x40)\n      shl(0xe0, 0x2f745c59)\n      dup2\n      mstore\n      sub(shl(0xa0, 0x01), 0x01)\n        /* \"OasisShop.sol\":6080:6088  treasury */\n      swap2\n      dup3\n      and\n        /* \"OasisShop.sol\":6031:6107  IERC721Enumerable(_contract).tokenOfOwnerByIndex(treasury, randomTokenIndex) */\n      0x04\n      dup3\n      add\n        /* \"#utility.yul\":7353:7427   */\n      mstore\n        /* \"#utility.yul\":7443:7461   */\n      0x24\n      dup2\n      add\n        /* \"#utility.yul\":7436:7470   */\n      dup4\n      swap1\n      mstore\n        /* \"OasisShop.sol\":5914:5988  uint256 randomTokenIndex = generateRandomNumber(0, treasuryBalance721 - i) */\n      swap2\n      swap3\n      pop\n        /* \"OasisShop.sol\":6007:6028  uint256 randomTokenId */\n      0x00\n      swap2\n        /* \"OasisShop.sol\":6031:6079  IERC721Enumerable(_contract).tokenOfOwnerByIndex */\n      swap1\n      dup11\n      and\n      swap1\n      0x2f745c59\n      swap1\n        /* \"#utility.yul\":7326:7344   */\n      0x44\n      add\n        /* \"OasisShop.sol\":6031:6107  IERC721Enumerable(_contract).tokenOfOwnerByIndex(treasury, randomTokenIndex) */\n      0x20\n      mload(0x40)\n      dup1\n      dup4\n      sub\n      dup2\n      dup7\n      gas\n      staticcall\n      iszero\n      dup1\n      iszero\n      tag_267\n      jumpi\n      returndatasize\n      0x00\n      dup1\n      returndatacopy\n      revert(0x00, returndatasize)\n    tag_267:\n      pop\n      pop\n      pop\n      pop\n      mload(0x40)\n      returndatasize\n      not(0x1f)\n      0x1f\n      dup3\n      add\n      and\n      dup3\n      add\n      dup1\n      0x40\n      mstore\n      pop\n      dup2\n      add\n      swap1\n      tag_268\n      swap2\n      swap1\n      tag_122\n      jump\t// in\n    tag_268:\n        /* \"OasisShop.sol\":6160:6168  treasury */\n      sload(0x03)\n        /* \"OasisShop.sol\":6128:6196  IERC721(_contract).transferFrom(treasury, msg.sender, randomTokenId) */\n      mload(0x40)\n      shl(0xe0, 0x23b872dd)\n      dup2\n      mstore\n      sub(shl(0xa0, 0x01), 0x01)\n        /* \"OasisShop.sol\":6160:6168  treasury */\n      swap2\n      dup3\n      and\n        /* \"OasisShop.sol\":6128:6196  IERC721(_contract).transferFrom(treasury, msg.sender, randomTokenId) */\n      0x04\n      dup3\n      add\n        /* \"#utility.yul\":6255:6289   */\n      mstore\n        /* \"OasisShop.sol\":6170:6180  msg.sender */\n      caller\n        /* \"#utility.yul\":6305:6323   */\n      0x24\n      dup3\n      add\n        /* \"#utility.yul\":6298:6341   */\n      mstore\n        /* \"#utility.yul\":6357:6375   */\n      0x44\n      dup2\n      add\n        /* \"#utility.yul\":6350:6384   */\n      dup4\n      swap1\n      mstore\n        /* \"OasisShop.sol\":6007:6107  uint256 randomTokenId = IERC721Enumerable(_contract).tokenOfOwnerByIndex(treasury, randomTokenIndex) */\n      swap2\n      swap3\n      pop\n        /* \"OasisShop.sol\":6128:6159  IERC721(_contract).transferFrom */\n      dup11\n      and\n      swap1\n      0x23b872dd\n      swap1\n        /* \"#utility.yul\":6167:6185   */\n      0x64\n      add\n        /* \"OasisShop.sol\":6128:6196  IERC721(_contract).transferFrom(treasury, msg.sender, randomTokenId) */\n      0x00\n      mload(0x40)\n      dup1\n      dup4\n      sub\n      dup2\n      0x00\n      dup8\n      dup1\n      extcodesize\n      iszero\n      dup1\n      iszero\n      tag_270\n      jumpi\n      0x00\n      dup1\n      revert\n    tag_270:\n      pop\n      gas\n      call\n      iszero\n      dup1\n      iszero\n      tag_272\n      jumpi\n      returndatasize\n      0x00\n      dup1\n      returndatacopy\n      revert(0x00, returndatasize)\n    tag_272:\n      pop\n      pop\n      pop\n      pop\n        /* \"OasisShop.sol\":5895:6212  {... */\n      pop\n      pop\n        /* \"OasisShop.sol\":5890:5893  i++ */\n      dup1\n      dup1\n      tag_273\n      swap1\n      tag_178\n      jump\t// in\n    tag_273:\n      swap2\n      pop\n      pop\n        /* \"OasisShop.sol\":5855:6212  for (uint256 i = 0; i < _quantity; i++) {... */\n      jump(tag_260)\n        /* \"@openzeppelin/contracts/access/Ownable.sol\":2081:2279   */\n    tag_83:\n        /* \"@openzeppelin/contracts/access/Ownable.sol\":1094:1107   */\n      tag_278\n        /* \"@openzeppelin/contracts/access/Ownable.sol\":1094:1105   */\n      tag_86\n        /* \"@openzeppelin/contracts/access/Ownable.sol\":1094:1107   */\n      jump\t// in\n    tag_278:\n      sub(shl(0xa0, 0x01), 0x01)\n        /* \"@openzeppelin/contracts/access/Ownable.sol\":2169:2191   */\n      dup2\n      and\n        /* \"@openzeppelin/contracts/access/Ownable.sol\":2161:2234   */\n      tag_280\n      jumpi\n      mload(0x40)\n      shl(0xe5, 0x461bcd)\n      dup2\n      mstore\n        /* \"#utility.yul\":9759:9761   */\n      0x20\n        /* \"@openzeppelin/contracts/access/Ownable.sol\":2161:2234   */\n      0x04\n      dup3\n      add\n        /* \"#utility.yul\":9741:9762   */\n      mstore\n        /* \"#utility.yul\":9798:9800   */\n      0x26\n        /* \"#utility.yul\":9778:9796   */\n      0x24\n      dup3\n      add\n        /* \"#utility.yul\":9771:9801   */\n      mstore\n        /* \"#utility.yul\":9837:9871   */\n      0x4f776e61626c653a206e6577206f776e657220697320746865207a65726f2061\n        /* \"#utility.yul\":9817:9835   */\n      0x44\n      dup3\n      add\n        /* \"#utility.yul\":9810:9872   */\n      mstore\n        /* \"#utility.yul\":9908:9916   */\n      0x6464726573730000000000000000000000000000000000000000000000000000\n        /* \"#utility.yul\":9888:9906   */\n      0x64\n      dup3\n      add\n        /* \"#utility.yul\":9881:9917   */\n      mstore\n        /* \"#utility.yul\":9934:9953   */\n      0x84\n      add\n        /* \"@openzeppelin/contracts/access/Ownable.sol\":2161:2234   */\n      tag_89\n        /* \"#utility.yul\":9557:9959   */\n      jump\n        /* \"@openzeppelin/contracts/access/Ownable.sol\":2161:2234   */\n    tag_280:\n        /* \"@openzeppelin/contracts/access/Ownable.sol\":2244:2272   */\n      tag_283\n        /* \"@openzeppelin/contracts/access/Ownable.sol\":2263:2271   */\n      dup2\n        /* \"@openzeppelin/contracts/access/Ownable.sol\":2244:2262   */\n      tag_192\n        /* \"@openzeppelin/contracts/access/Ownable.sol\":2244:2272   */\n      jump\t// in\n    tag_283:\n        /* \"@openzeppelin/contracts/access/Ownable.sol\":2081:2279   */\n      pop\n      jump\t// out\n        /* \"@openzeppelin/contracts/access/Ownable.sol\":1359:1489   */\n    tag_86:\n        /* \"@openzeppelin/contracts/access/Ownable.sol\":1247:1254   */\n      0x00\n        /* \"@openzeppelin/contracts/access/Ownable.sol\":1273:1279   */\n      sload\n      sub(shl(0xa0, 0x01), 0x01)\n      0x0100\n      swap1\n      swap2\n      div\n      and\n        /* \"@openzeppelin/contracts/utils/Context.sol\":719:729   */\n      caller\n        /* \"@openzeppelin/contracts/access/Ownable.sol\":1422:1445   */\n      eq\n        /* \"@openzeppelin/contracts/access/Ownable.sol\":1414:1482   */\n      tag_191\n      jumpi\n      mload(0x40)\n      shl(0xe5, 0x461bcd)\n      dup2\n      mstore\n        /* \"#utility.yul\":10166:10168   */\n      0x20\n        /* \"@openzeppelin/contracts/access/Ownable.sol\":1414:1482   */\n      0x04\n      dup3\n      add\n        /* \"#utility.yul\":10148:10169   */\n      dup2\n      swap1\n      mstore\n        /* \"#utility.yul\":10185:10203   */\n      0x24\n      dup3\n      add\n        /* \"#utility.yul\":10178:10208   */\n      mstore\n        /* \"#utility.yul\":10244:10278   */\n      0x4f776e61626c653a2063616c6c6572206973206e6f7420746865206f776e6572\n        /* \"#utility.yul\":10224:10242   */\n      0x44\n      dup3\n      add\n        /* \"#utility.yul\":10217:10279   */\n      mstore\n        /* \"#utility.yul\":10296:10314   */\n      0x64\n      add\n        /* \"@openzeppelin/contracts/access/Ownable.sol\":1414:1482   */\n      tag_89\n        /* \"#utility.yul\":9964:10320   */\n      jump\n        /* \"@openzeppelin/contracts/security/Pausable.sol\":2433:2550   */\n    tag_99:\n        /* \"@openzeppelin/contracts/security/Pausable.sol\":1486:1502   */\n      tag_292\n        /* \"@openzeppelin/contracts/security/Pausable.sol\":1486:1500   */\n      tag_293\n        /* \"@openzeppelin/contracts/security/Pausable.sol\":1486:1502   */\n      jump\t// in\n    tag_292:\n        /* \"@openzeppelin/contracts/security/Pausable.sol\":2501:2506   */\n      0x00\n        /* \"@openzeppelin/contracts/security/Pausable.sol\":2491:2506   */\n      dup1\n      sload\n      not(0xff)\n      and\n      swap1\n      sstore\n        /* \"@openzeppelin/contracts/security/Pausable.sol\":2521:2543   */\n      0x5db9ee0a495bf2e6ff9c91a7834c1ba4fdd244a5e8aa4e537bd38aeae4b073aa\n        /* \"@openzeppelin/contracts/utils/Context.sol\":719:729   */\n      caller\n        /* \"@openzeppelin/contracts/security/Pausable.sol\":2530:2542   */\n    tag_295:\n        /* \"@openzeppelin/contracts/security/Pausable.sol\":2521:2543   */\n      mload(0x40)\n      sub(shl(0xa0, 0x01), 0x01)\n        /* \"#utility.yul\":1169:1224   */\n      swap1\n      swap2\n      and\n        /* \"#utility.yul\":1151:1225   */\n      dup2\n      mstore\n        /* \"#utility.yul\":1139:1141   */\n      0x20\n        /* \"#utility.yul\":1124:1142   */\n      add\n        /* \"@openzeppelin/contracts/security/Pausable.sol\":2521:2543   */\n      mload(0x40)\n      dup1\n      swap2\n      sub\n      swap1\n      log1\n        /* \"@openzeppelin/contracts/security/Pausable.sol\":2433:2550   */\n      jump\t// out\n        /* \"@openzeppelin/contracts/security/Pausable.sol\":1767:1873   */\n    tag_103:\n        /* \"@openzeppelin/contracts/security/Pausable.sol\":1662:1666   */\n      0x00\n        /* \"@openzeppelin/contracts/security/Pausable.sol\":1685:1692   */\n      sload\n      0xff\n      and\n        /* \"@openzeppelin/contracts/security/Pausable.sol\":1836:1845   */\n      iszero\n        /* \"@openzeppelin/contracts/security/Pausable.sol\":1828:1866   */\n      tag_191\n      jumpi\n      mload(0x40)\n      shl(0xe5, 0x461bcd)\n      dup2\n      mstore\n        /* \"#utility.yul\":10527:10529   */\n      0x20\n        /* \"@openzeppelin/contracts/security/Pausable.sol\":1828:1866   */\n      0x04\n      dup3\n      add\n        /* \"#utility.yul\":10509:10530   */\n      mstore\n        /* \"#utility.yul\":10566:10568   */\n      0x10\n        /* \"#utility.yul\":10546:10564   */\n      0x24\n      dup3\n      add\n        /* \"#utility.yul\":10539:10569   */\n      mstore\n        /* \"#utility.yul\":10605:10623   */\n      0x5061757361626c653a2070617573656400000000000000000000000000000000\n        /* \"#utility.yul\":10585:10603   */\n      0x44\n      dup3\n      add\n        /* \"#utility.yul\":10578:10624   */\n      mstore\n        /* \"#utility.yul\":10641:10659   */\n      0x64\n      add\n        /* \"@openzeppelin/contracts/security/Pausable.sol\":1828:1866   */\n      tag_89\n        /* \"#utility.yul\":10325:10665   */\n      jump\n        /* \"OasisShop.sol\":6427:6782  function generateRandomNumber(uint256 _minIncluded, uint256 _maxExcluded) internal returns (uint256 randomNumber_) {... */\n    tag_167:\n        /* \"OasisShop.sol\":6519:6540  uint256 randomNumber_ */\n      0x00\n        /* \"OasisShop.sol\":6553:6573  uint256 randomnumber */\n      dup1\n        /* \"OasisShop.sol\":6651:6663  _maxExcluded */\n      dup3\n        /* \"OasisShop.sol\":6611:6626  block.timestamp */\n      timestamp\n        /* \"OasisShop.sol\":6628:6638  msg.sender */\n      caller\n        /* \"OasisShop.sol\":6640:6645  nonce */\n      sload(0x06)\n        /* \"OasisShop.sol\":6594:6646  abi.encodePacked(block.timestamp, msg.sender, nonce) */\n      add(0x20, mload(0x40))\n      tag_303\n      swap4\n      swap3\n      swap2\n      swap1\n        /* \"#utility.yul\":10855:10874   */\n      swap3\n      dup4\n      mstore\n        /* \"#utility.yul\":10912:10914   */\n      0x60\n        /* \"#utility.yul\":10908:10923   */\n      swap2\n      swap1\n      swap2\n      shl\n      not(0xffffffffffffffffffffffff)\n        /* \"#utility.yul\":10904:10957   */\n      and\n        /* \"#utility.yul\":10899:10901   */\n      0x20\n        /* \"#utility.yul\":10890:10902   */\n      dup4\n      add\n        /* \"#utility.yul\":10883:10958   */\n      mstore\n        /* \"#utility.yul\":10983:10985   */\n      0x34\n        /* \"#utility.yul\":10974:10986   */\n      dup3\n      add\n        /* \"#utility.yul\":10967:10995   */\n      mstore\n        /* \"#utility.yul\":11020:11022   */\n      0x54\n        /* \"#utility.yul\":11011:11023   */\n      add\n      swap1\n        /* \"#utility.yul\":10670:11029   */\n      jump\n        /* \"OasisShop.sol\":6594:6646  abi.encodePacked(block.timestamp, msg.sender, nonce) */\n    tag_303:\n      mload(0x40)\n      0x20\n      dup2\n      dup4\n      sub\n      sub\n      dup2\n      mstore\n      swap1\n      0x40\n      mstore\n        /* \"OasisShop.sol\":6584:6647  keccak256(abi.encodePacked(block.timestamp, msg.sender, nonce)) */\n      dup1\n      mload\n      swap1\n      0x20\n      add\n      keccak256\n        /* \"OasisShop.sol\":6576:6648  uint256(keccak256(abi.encodePacked(block.timestamp, msg.sender, nonce))) */\n      0x00\n      shr\n        /* \"OasisShop.sol\":6576:6663  uint256(keccak256(abi.encodePacked(block.timestamp, msg.sender, nonce))) % _maxExcluded */\n      tag_305\n      swap2\n      swap1\n      tag_306\n      jump\t// in\n    tag_305:\n        /* \"OasisShop.sol\":6553:6663  uint256 randomnumber = uint256(keccak256(abi.encodePacked(block.timestamp, msg.sender, nonce))) % _maxExcluded */\n      swap1\n      pop\n        /* \"OasisShop.sol\":6689:6716  randomnumber + _minIncluded */\n      tag_307\n        /* \"OasisShop.sol\":6704:6716  _minIncluded */\n      dup5\n        /* \"OasisShop.sol\":6553:6663  uint256 randomnumber = uint256(keccak256(abi.encodePacked(block.timestamp, msg.sender, nonce))) % _maxExcluded */\n      dup3\n        /* \"OasisShop.sol\":6689:6716  randomnumber + _minIncluded */\n      tag_308\n      jump\t// in\n    tag_307:\n        /* \"OasisShop.sol\":6674:6716  randomnumber = randomnumber + _minIncluded */\n      swap1\n      pop\n        /* \"OasisShop.sol\":6735:6740  nonce */\n      sload(0x06)\n        /* \"OasisShop.sol\":6743:6744  1 */\n      0x01\n        /* \"OasisShop.sol\":6735:6744  nonce + 1 */\n      tag_309\n      swap2\n      swap1\n      tag_308\n      jump\t// in\n    tag_309:\n        /* \"OasisShop.sol\":6727:6732  nonce */\n      0x06\n        /* \"OasisShop.sol\":6727:6744  nonce = nonce + 1 */\n      sstore\n        /* \"OasisShop.sol\":6762:6774  randomnumber */\n      swap4\n        /* \"OasisShop.sol\":6427:6782  function generateRandomNumber(uint256 _minIncluded, uint256 _maxExcluded) internal returns (uint256 randomNumber_) {... */\n      swap3\n      pop\n      pop\n      pop\n      jump\t// out\n        /* \"@openzeppelin/contracts/access/Ownable.sol\":2433:2620   */\n    tag_192:\n        /* \"@openzeppelin/contracts/access/Ownable.sol\":2506:2522   */\n      0x00\n        /* \"@openzeppelin/contracts/access/Ownable.sol\":2525:2531   */\n      dup1\n      sload\n      sub(shl(0xa0, 0x01), 0x01)\n        /* \"@openzeppelin/contracts/access/Ownable.sol\":2541:2558   */\n      dup4\n      dup2\n      and\n        /* \"@openzeppelin/contracts/access/Ownable.sol\":2525:2531   */\n      0x0100\n        /* \"@openzeppelin/contracts/access/Ownable.sol\":2541:2558   */\n      dup2\n      dup2\n      mul\n      0xffffffffffffffffffffff0000000000000000000000000000000000000000ff\n      dup6\n      and\n      or\n      dup6\n      sstore\n        /* \"@openzeppelin/contracts/access/Ownable.sol\":2573:2613   */\n      mload(0x40)\n        /* \"@openzeppelin/contracts/access/Ownable.sol\":2525:2531   */\n      swap4\n      div\n      swap2\n      swap1\n      swap2\n      and\n      swap3\n        /* \"@openzeppelin/contracts/access/Ownable.sol\":2541:2558   */\n      swap1\n      swap2\n        /* \"@openzeppelin/contracts/access/Ownable.sol\":2525:2531   */\n      dup4\n      swap2\n        /* \"@openzeppelin/contracts/access/Ownable.sol\":2573:2613   */\n      0x8be0079c531659141344cd1fd0a4f28419497f9722a3daafe3b4186f6b6457e0\n      swap2\n      log3\n        /* \"@openzeppelin/contracts/access/Ownable.sol\":2496:2620   */\n      pop\n        /* \"@openzeppelin/contracts/access/Ownable.sol\":2433:2620   */\n      pop\n      jump\t// out\n        /* \"@openzeppelin/contracts/security/Pausable.sol\":2186:2301   */\n    tag_206:\n        /* \"@openzeppelin/contracts/security/Pausable.sol\":1239:1258   */\n      tag_312\n        /* \"@openzeppelin/contracts/security/Pausable.sol\":1239:1256   */\n      tag_103\n        /* \"@openzeppelin/contracts/security/Pausable.sol\":1239:1258   */\n      jump\t// in\n    tag_312:\n        /* \"@openzeppelin/contracts/security/Pausable.sol\":2245:2252   */\n      0x00\n        /* \"@openzeppelin/contracts/security/Pausable.sol\":2245:2259   */\n      dup1\n      sload\n      not(0xff)\n      and\n        /* \"@openzeppelin/contracts/security/Pausable.sol\":2255:2259   */\n      0x01\n        /* \"@openzeppelin/contracts/security/Pausable.sol\":2245:2259   */\n      or\n      swap1\n      sstore\n        /* \"@openzeppelin/contracts/security/Pausable.sol\":2274:2294   */\n      0x62e78cea01bee320cd4e420270b5ea74000d11b0c9f74754ebdbfc544b05a258\n        /* \"@openzeppelin/contracts/security/Pausable.sol\":2281:2293   */\n      tag_295\n        /* \"@openzeppelin/contracts/utils/Context.sol\":719:729   */\n      caller\n      swap1\n        /* \"@openzeppelin/contracts/utils/Context.sol\":640:736   */\n      jump\n        /* \"@openzeppelin/contracts/security/Pausable.sol\":1945:2051   */\n    tag_293:\n        /* \"@openzeppelin/contracts/security/Pausable.sol\":1662:1666   */\n      0x00\n        /* \"@openzeppelin/contracts/security/Pausable.sol\":1685:1692   */\n      sload\n      0xff\n      and\n        /* \"@openzeppelin/contracts/security/Pausable.sol\":2003:2044   */\n      tag_191\n      jumpi\n      mload(0x40)\n      shl(0xe5, 0x461bcd)\n      dup2\n      mstore\n        /* \"#utility.yul\":11583:11585   */\n      0x20\n        /* \"@openzeppelin/contracts/security/Pausable.sol\":2003:2044   */\n      0x04\n      dup3\n      add\n        /* \"#utility.yul\":11565:11586   */\n      mstore\n        /* \"#utility.yul\":11622:11624   */\n      0x14\n        /* \"#utility.yul\":11602:11620   */\n      0x24\n      dup3\n      add\n        /* \"#utility.yul\":11595:11625   */\n      mstore\n        /* \"#utility.yul\":11661:11683   */\n      0x5061757361626c653a206e6f7420706175736564000000000000000000000000\n        /* \"#utility.yul\":11641:11659   */\n      0x44\n      dup3\n      add\n        /* \"#utility.yul\":11634:11684   */\n      mstore\n        /* \"#utility.yul\":11701:11719   */\n      0x64\n      add\n        /* \"@openzeppelin/contracts/security/Pausable.sol\":2003:2044   */\n      tag_89\n        /* \"#utility.yul\":11381:11725   */\n      jump\n        /* \"#utility.yul\":14:210   */\n    tag_322:\n        /* \"#utility.yul\":82:102   */\n      dup1\n      calldataload\n      sub(shl(0xa0, 0x01), 0x01)\n        /* \"#utility.yul\":131:185   */\n      dup2\n      and\n        /* \"#utility.yul\":121:186   */\n      dup2\n      eq\n        /* \"#utility.yul\":111:204   */\n      tag_327\n      jumpi\n        /* \"#utility.yul\":200:201   */\n      0x00\n        /* \"#utility.yul\":197:198   */\n      dup1\n        /* \"#utility.yul\":190:202   */\n      revert\n        /* \"#utility.yul\":111:204   */\n    tag_327:\n        /* \"#utility.yul\":14:210   */\n      swap2\n      swap1\n      pop\n      jump\t// out\n        /* \"#utility.yul\":215:549   */\n    tag_23:\n        /* \"#utility.yul\":292:298   */\n      0x00\n        /* \"#utility.yul\":300:306   */\n      dup1\n        /* \"#utility.yul\":308:314   */\n      0x00\n        /* \"#utility.yul\":361:363   */\n      0x60\n        /* \"#utility.yul\":349:358   */\n      dup5\n        /* \"#utility.yul\":340:347   */\n      dup7\n        /* \"#utility.yul\":336:359   */\n      sub\n        /* \"#utility.yul\":332:364   */\n      slt\n        /* \"#utility.yul\":329:381   */\n      iszero\n      tag_329\n      jumpi\n        /* \"#utility.yul\":377:378   */\n      0x00\n        /* \"#utility.yul\":374:375   */\n      dup1\n        /* \"#utility.yul\":367:379   */\n      revert\n        /* \"#utility.yul\":329:381   */\n    tag_329:\n        /* \"#utility.yul\":400:429   */\n      tag_330\n        /* \"#utility.yul\":419:428   */\n      dup5\n        /* \"#utility.yul\":400:429   */\n      tag_322\n      jump\t// in\n    tag_330:\n        /* \"#utility.yul\":390:429   */\n      swap3\n      pop\n        /* \"#utility.yul\":448:486   */\n      tag_331\n        /* \"#utility.yul\":482:484   */\n      0x20\n        /* \"#utility.yul\":471:480   */\n      dup6\n        /* \"#utility.yul\":467:485   */\n      add\n        /* \"#utility.yul\":448:486   */\n      tag_322\n      jump\t// in\n    tag_331:\n        /* \"#utility.yul\":438:486   */\n      swap2\n      pop\n        /* \"#utility.yul\":505:543   */\n      tag_332\n        /* \"#utility.yul\":539:541   */\n      0x40\n        /* \"#utility.yul\":528:537   */\n      dup6\n        /* \"#utility.yul\":524:542   */\n      add\n        /* \"#utility.yul\":505:543   */\n      tag_322\n      jump\t// in\n    tag_332:\n        /* \"#utility.yul\":495:543   */\n      swap1\n      pop\n        /* \"#utility.yul\":215:549   */\n      swap3\n      pop\n      swap3\n      pop\n      swap3\n      jump\t// out\n        /* \"#utility.yul\":746:1000   */\n    tag_36:\n        /* \"#utility.yul\":814:820   */\n      0x00\n        /* \"#utility.yul\":822:828   */\n      dup1\n        /* \"#utility.yul\":875:877   */\n      0x40\n        /* \"#utility.yul\":863:872   */\n      dup4\n        /* \"#utility.yul\":854:861   */\n      dup6\n        /* \"#utility.yul\":850:873   */\n      sub\n        /* \"#utility.yul\":846:878   */\n      slt\n        /* \"#utility.yul\":843:895   */\n      iszero\n      tag_335\n      jumpi\n        /* \"#utility.yul\":891:892   */\n      0x00\n        /* \"#utility.yul\":888:889   */\n      dup1\n        /* \"#utility.yul\":881:893   */\n      revert\n        /* \"#utility.yul\":843:895   */\n    tag_335:\n        /* \"#utility.yul\":914:943   */\n      tag_336\n        /* \"#utility.yul\":933:942   */\n      dup4\n        /* \"#utility.yul\":914:943   */\n      tag_322\n      jump\t// in\n    tag_336:\n        /* \"#utility.yul\":904:943   */\n      swap5\n        /* \"#utility.yul\":990:992   */\n      0x20\n        /* \"#utility.yul\":975:993   */\n      swap4\n      swap1\n      swap4\n      add\n        /* \"#utility.yul\":962:994   */\n      calldataload\n      swap4\n      pop\n      pop\n      pop\n        /* \"#utility.yul\":746:1000   */\n      jump\t// out\n        /* \"#utility.yul\":1236:1422   */\n    tag_49:\n        /* \"#utility.yul\":1295:1301   */\n      0x00\n        /* \"#utility.yul\":1348:1350   */\n      0x20\n        /* \"#utility.yul\":1336:1345   */\n      dup3\n        /* \"#utility.yul\":1327:1334   */\n      dup5\n        /* \"#utility.yul\":1323:1346   */\n      sub\n        /* \"#utility.yul\":1319:1351   */\n      slt\n        /* \"#utility.yul\":1316:1368   */\n      iszero\n      tag_339\n      jumpi\n        /* \"#utility.yul\":1364:1365   */\n      0x00\n        /* \"#utility.yul\":1361:1362   */\n      dup1\n        /* \"#utility.yul\":1354:1366   */\n      revert\n        /* \"#utility.yul\":1316:1368   */\n    tag_339:\n        /* \"#utility.yul\":1387:1416   */\n      tag_340\n        /* \"#utility.yul\":1406:1415   */\n      dup3\n        /* \"#utility.yul\":1387:1416   */\n      tag_322\n      jump\t// in\n    tag_340:\n        /* \"#utility.yul\":1377:1416   */\n      swap4\n        /* \"#utility.yul\":1236:1422   */\n      swap3\n      pop\n      pop\n      pop\n      jump\t// out\n        /* \"#utility.yul\":2089:2207   */\n    tag_323:\n        /* \"#utility.yul\":2175:2180   */\n      dup1\n        /* \"#utility.yul\":2168:2181   */\n      iszero\n        /* \"#utility.yul\":2161:2182   */\n      iszero\n        /* \"#utility.yul\":2154:2159   */\n      dup2\n        /* \"#utility.yul\":2151:2183   */\n      eq\n        /* \"#utility.yul\":2141:2201   */\n      tag_283\n      jumpi\n        /* \"#utility.yul\":2197:2198   */\n      0x00\n        /* \"#utility.yul\":2194:2195   */\n      dup1\n        /* \"#utility.yul\":2187:2199   */\n      revert\n        /* \"#utility.yul\":2212:3208   */\n    tag_75:\n        /* \"#utility.yul\":2319:2325   */\n      0x00\n        /* \"#utility.yul\":2327:2333   */\n      dup1\n        /* \"#utility.yul\":2335:2341   */\n      0x00\n        /* \"#utility.yul\":2343:2349   */\n      dup1\n        /* \"#utility.yul\":2351:2357   */\n      0x00\n        /* \"#utility.yul\":2359:2365   */\n      dup1\n        /* \"#utility.yul\":2367:2373   */\n      0x00\n        /* \"#utility.yul\":2375:2381   */\n      dup1\n        /* \"#utility.yul\":2428:2431   */\n      0x0100\n        /* \"#utility.yul\":2416:2425   */\n      dup10\n        /* \"#utility.yul\":2407:2414   */\n      dup12\n        /* \"#utility.yul\":2403:2426   */\n      sub\n        /* \"#utility.yul\":2399:2432   */\n      slt\n        /* \"#utility.yul\":2396:2449   */\n      iszero\n      tag_345\n      jumpi\n        /* \"#utility.yul\":2445:2446   */\n      0x00\n        /* \"#utility.yul\":2442:2443   */\n      dup1\n        /* \"#utility.yul\":2435:2447   */\n      revert\n        /* \"#utility.yul\":2396:2449   */\n    tag_345:\n        /* \"#utility.yul\":2468:2497   */\n      tag_346\n        /* \"#utility.yul\":2487:2496   */\n      dup10\n        /* \"#utility.yul\":2468:2497   */\n      tag_322\n      jump\t// in\n    tag_346:\n        /* \"#utility.yul\":2458:2497   */\n      swap8\n      pop\n        /* \"#utility.yul\":2547:2549   */\n      0x20\n        /* \"#utility.yul\":2536:2545   */\n      dup10\n        /* \"#utility.yul\":2532:2550   */\n      add\n        /* \"#utility.yul\":2519:2551   */\n      calldataload\n        /* \"#utility.yul\":2560:2588   */\n      tag_347\n        /* \"#utility.yul\":2582:2587   */\n      dup2\n        /* \"#utility.yul\":2560:2588   */\n      tag_323\n      jump\t// in\n    tag_347:\n        /* \"#utility.yul\":2607:2612   */\n      swap7\n      pop\n        /* \"#utility.yul\":2664:2666   */\n      0x40\n        /* \"#utility.yul\":2649:2667   */\n      dup10\n      add\n        /* \"#utility.yul\":2636:2668   */\n      calldataload\n        /* \"#utility.yul\":2677:2707   */\n      tag_348\n        /* \"#utility.yul\":2636:2668   */\n      dup2\n        /* \"#utility.yul\":2677:2707   */\n      tag_323\n      jump\t// in\n    tag_348:\n        /* \"#utility.yul\":2726:2733   */\n      swap6\n      pop\n        /* \"#utility.yul\":2785:2787   */\n      0x60\n        /* \"#utility.yul\":2770:2788   */\n      dup10\n      add\n        /* \"#utility.yul\":2757:2789   */\n      calldataload\n        /* \"#utility.yul\":2798:2828   */\n      tag_349\n        /* \"#utility.yul\":2757:2789   */\n      dup2\n        /* \"#utility.yul\":2798:2828   */\n      tag_323\n      jump\t// in\n    tag_349:\n        /* \"#utility.yul\":2847:2854   */\n      swap5\n      pop\n        /* \"#utility.yul\":2906:2909   */\n      0x80\n        /* \"#utility.yul\":2891:2910   */\n      dup10\n      add\n        /* \"#utility.yul\":2878:2911   */\n      calldataload\n        /* \"#utility.yul\":2920:2950   */\n      tag_350\n        /* \"#utility.yul\":2878:2911   */\n      dup2\n        /* \"#utility.yul\":2920:2950   */\n      tag_323\n      jump\t// in\n    tag_350:\n        /* \"#utility.yul\":2969:2976   */\n      swap4\n      pop\n        /* \"#utility.yul\":3028:3031   */\n      0xa0\n        /* \"#utility.yul\":3013:3032   */\n      dup10\n      add\n        /* \"#utility.yul\":3000:3033   */\n      calldataload\n        /* \"#utility.yul\":3042:3072   */\n      tag_351\n        /* \"#utility.yul\":3000:3033   */\n      dup2\n        /* \"#utility.yul\":3042:3072   */\n      tag_323\n      jump\t// in\n    tag_351:\n        /* \"#utility.yul\":2212:3208   */\n      swap8\n      swap11\n      swap7\n      swap10\n      pop\n      swap5\n      swap8\n      swap4\n      swap7\n      swap3\n      swap6\n        /* \"#utility.yul\":3091:3098   */\n      swap3\n      swap5\n      pop\n      pop\n      pop\n        /* \"#utility.yul\":3145:3148   */\n      0xc0\n        /* \"#utility.yul\":3130:3149   */\n      dup3\n      add\n        /* \"#utility.yul\":3117:3150   */\n      calldataload\n      swap2\n        /* \"#utility.yul\":3197:3200   */\n      0xe0\n        /* \"#utility.yul\":3182:3201   */\n      add\n        /* \"#utility.yul\":3169:3202   */\n      calldataload\n      swap1\n        /* \"#utility.yul\":2212:3208   */\n      jump\t// out\n        /* \"#utility.yul\":4740:4924   */\n    tag_122:\n        /* \"#utility.yul\":4810:4816   */\n      0x00\n        /* \"#utility.yul\":4863:4865   */\n      0x20\n        /* \"#utility.yul\":4851:4860   */\n      dup3\n        /* \"#utility.yul\":4842:4849   */\n      dup5\n        /* \"#utility.yul\":4838:4861   */\n      sub\n        /* \"#utility.yul\":4834:4866   */\n      slt\n        /* \"#utility.yul\":4831:4883   */\n      iszero\n      tag_357\n      jumpi\n        /* \"#utility.yul\":4879:4880   */\n      0x00\n        /* \"#utility.yul\":4876:4877   */\n      dup1\n        /* \"#utility.yul\":4869:4881   */\n      revert\n        /* \"#utility.yul\":4831:4883   */\n    tag_357:\n      pop\n        /* \"#utility.yul\":4902:4918   */\n      mload\n      swap2\n        /* \"#utility.yul\":4740:4924   */\n      swap1\n      pop\n      jump\t// out\n        /* \"#utility.yul\":4929:5056   */\n    tag_324:\n        /* \"#utility.yul\":4990:5000   */\n      0x4e487b71\n        /* \"#utility.yul\":4985:4988   */\n      0xe0\n        /* \"#utility.yul\":4981:5001   */\n      shl\n        /* \"#utility.yul\":4978:4979   */\n      0x00\n        /* \"#utility.yul\":4971:5002   */\n      mstore\n        /* \"#utility.yul\":5021:5025   */\n      0x11\n        /* \"#utility.yul\":5018:5019   */\n      0x04\n        /* \"#utility.yul\":5011:5026   */\n      mstore\n        /* \"#utility.yul\":5045:5049   */\n      0x24\n        /* \"#utility.yul\":5042:5043   */\n      0x00\n        /* \"#utility.yul\":5035:5050   */\n      revert\n        /* \"#utility.yul\":5061:5229   */\n    tag_128:\n        /* \"#utility.yul\":5101:5108   */\n      0x00\n        /* \"#utility.yul\":5167:5168   */\n      dup2\n        /* \"#utility.yul\":5163:5164   */\n      0x00\n        /* \"#utility.yul\":5159:5165   */\n      not\n        /* \"#utility.yul\":5155:5169   */\n      div\n        /* \"#utility.yul\":5152:5153   */\n      dup4\n        /* \"#utility.yul\":5149:5170   */\n      gt\n        /* \"#utility.yul\":5144:5145   */\n      dup3\n        /* \"#utility.yul\":5137:5146   */\n      iszero\n        /* \"#utility.yul\":5130:5147   */\n      iszero\n        /* \"#utility.yul\":5126:5171   */\n      and\n        /* \"#utility.yul\":5123:5194   */\n      iszero\n      tag_361\n      jumpi\n        /* \"#utility.yul\":5174:5192   */\n      tag_361\n      tag_324\n      jump\t// in\n    tag_361:\n      pop\n        /* \"#utility.yul\":5214:5223   */\n      mul\n      swap1\n        /* \"#utility.yul\":5061:5229   */\n      jump\t// out\n        /* \"#utility.yul\":6395:6640   */\n    tag_140:\n        /* \"#utility.yul\":6462:6468   */\n      0x00\n        /* \"#utility.yul\":6515:6517   */\n      0x20\n        /* \"#utility.yul\":6503:6512   */\n      dup3\n        /* \"#utility.yul\":6494:6501   */\n      dup5\n        /* \"#utility.yul\":6490:6513   */\n      sub\n        /* \"#utility.yul\":6486:6518   */\n      slt\n        /* \"#utility.yul\":6483:6535   */\n      iszero\n      tag_366\n      jumpi\n        /* \"#utility.yul\":6531:6532   */\n      0x00\n        /* \"#utility.yul\":6528:6529   */\n      dup1\n        /* \"#utility.yul\":6521:6533   */\n      revert\n        /* \"#utility.yul\":6483:6535   */\n    tag_366:\n        /* \"#utility.yul\":6563:6572   */\n      dup2\n        /* \"#utility.yul\":6557:6573   */\n      mload\n        /* \"#utility.yul\":6582:6610   */\n      tag_340\n        /* \"#utility.yul\":6604:6609   */\n      dup2\n        /* \"#utility.yul\":6582:6610   */\n      tag_323\n      jump\t// in\n        /* \"#utility.yul\":7049:7174   */\n    tag_166:\n        /* \"#utility.yul\":7089:7093   */\n      0x00\n        /* \"#utility.yul\":7117:7118   */\n      dup3\n        /* \"#utility.yul\":7114:7115   */\n      dup3\n        /* \"#utility.yul\":7111:7119   */\n      lt\n        /* \"#utility.yul\":7108:7142   */\n      iszero\n      tag_371\n      jumpi\n        /* \"#utility.yul\":7122:7140   */\n      tag_371\n      tag_324\n      jump\t// in\n    tag_371:\n      pop\n        /* \"#utility.yul\":7159:7168   */\n      sub\n      swap1\n        /* \"#utility.yul\":7049:7174   */\n      jump\t// out\n        /* \"#utility.yul\":7481:7616   */\n    tag_178:\n        /* \"#utility.yul\":7520:7523   */\n      0x00\n        /* \"#utility.yul\":7541:7558   */\n      0x01\n      dup3\n      add\n        /* \"#utility.yul\":7538:7581   */\n      tag_375\n      jumpi\n        /* \"#utility.yul\":7561:7579   */\n      tag_375\n      tag_324\n      jump\t// in\n    tag_375:\n      pop\n        /* \"#utility.yul\":7608:7609   */\n      0x01\n        /* \"#utility.yul\":7597:7610   */\n      add\n      swap1\n        /* \"#utility.yul\":7481:7616   */\n      jump\t// out\n        /* \"#utility.yul\":11034:11243   */\n    tag_306:\n        /* \"#utility.yul\":11066:11067   */\n      0x00\n        /* \"#utility.yul\":11092:11093   */\n      dup3\n        /* \"#utility.yul\":11082:11214   */\n      tag_385\n      jumpi\n        /* \"#utility.yul\":11136:11146   */\n      0x4e487b71\n        /* \"#utility.yul\":11131:11134   */\n      0xe0\n        /* \"#utility.yul\":11127:11147   */\n      shl\n        /* \"#utility.yul\":11124:11125   */\n      0x00\n        /* \"#utility.yul\":11117:11148   */\n      mstore\n        /* \"#utility.yul\":11171:11175   */\n      0x12\n        /* \"#utility.yul\":11168:11169   */\n      0x04\n        /* \"#utility.yul\":11161:11176   */\n      mstore\n        /* \"#utility.yul\":11199:11203   */\n      0x24\n        /* \"#utility.yul\":11196:11197   */\n      0x00\n        /* \"#utility.yul\":11189:11204   */\n      revert\n        /* \"#utility.yul\":11082:11214   */\n    tag_385:\n      pop\n        /* \"#utility.yul\":11228:11237   */\n      mod\n      swap1\n        /* \"#utility.yul\":11034:11243   */\n      jump\t// out\n        /* \"#utility.yul\":11248:11376   */\n    tag_308:\n        /* \"#utility.yul\":11288:11291   */\n      0x00\n        /* \"#utility.yul\":11319:11320   */\n      dup3\n        /* \"#utility.yul\":11315:11321   */\n      not\n        /* \"#utility.yul\":11312:11313   */\n      dup3\n        /* \"#utility.yul\":11309:11322   */\n      gt\n        /* \"#utility.yul\":11306:11345   */\n      iszero\n      tag_388\n      jumpi\n        /* \"#utility.yul\":11325:11343   */\n      tag_388\n      tag_324\n      jump\t// in\n    tag_388:\n      pop\n        /* \"#utility.yul\":11361:11370   */\n      add\n      swap1\n        /* \"#utility.yul\":11248:11376   */\n      jump\t// out\n\n    auxdata: 0xa26469706673582212209247335675e37e0b0db05b27253f88d91d3b7d297a58901ecb60e6ec3f37b03164736f6c634300080d0033\n}\n",
    "bytecode": {
      "linkReferences": {},
      "object": "6080604052600060065534801561001557600080fd5b506000805460ff1916905561002933610032565b6001805561008b565b600080546001600160a01b03838116610100818102610100600160a81b0319851617855560405193049190911692909183917f8be0079c531659141344cd1fd0a4f28419497f9722a3daafe3b4186f6b6457e091a35050565b611b4d8061009a6000396000f3fe6080604052600436106100e85760003560e01c80637c1c43e21161008a578063a756fdd011610059578063a756fdd0146102d8578063bd40f1f3146102f8578063ddc643ce14610318578063f2fde38b1461032b57600080fd5b80637c1c43e2146101d95780638456cb59146102805780638da5cb5b146102955780639ff51675146102b857600080fd5b80636094be2d116100c65780636094be2d1461014c57806361d027b31461016c578063715018a6146101a457806378db4589146101b957600080fd5b806325455706146100ed5780633f4ba83a1461010f5780635c975abb14610124575b600080fd5b3480156100f957600080fd5b5061010d610108366004611912565b61034b565b005b34801561011b57600080fd5b5061010d610405565b34801561013057600080fd5b5060005460ff1660405190151581526020015b60405180910390f35b34801561015857600080fd5b5061010d610167366004611955565b610472565b34801561017857600080fd5b5060035461018c906001600160a01b031681565b6040516001600160a01b039091168152602001610143565b3480156101b057600080fd5b5061010d610d1d565b3480156101c557600080fd5b5061010d6101d436600461197f565b610d31565b3480156101e557600080fd5b506102416101f436600461197f565b60056020526000908152604090208054600182015460029092015460ff80831693610100840482169362010000810483169363010000008204841693640100000000909204909116919087565b60408051971515885295151560208801529315159486019490945290151560608501521515608084015260a083019190915260c082015260e001610143565b34801561028c57600080fd5b5061010d610dc5565b3480156102a157600080fd5b5060005461010090046001600160a01b031661018c565b3480156102c457600080fd5b5060025461018c906001600160a01b031681565b3480156102e457600080fd5b5060045461018c906001600160a01b031681565b34801561030457600080fd5b5061010d6103133660046119af565b610e2c565b61010d610326366004611955565b610fc5565b34801561033757600080fd5b5061010d61034636600461197f565b6115da565b61035361166a565b6002600154036103aa5760405162461bcd60e51b815260206004820152601f60248201527f5265656e7472616e637947756172643a207265656e7472616e742063616c6c0060448201526064015b60405180910390fd5b600280546001600160a01b039485167fffffffffffffffffffffffff00000000000000000000000000000000000000009182161790915560038054938516938216939093179092556004805491909316911617905560018055565b61040d61166a565b60026001540361045f5760405162461bcd60e51b815260206004820152601f60248201527f5265656e7472616e637947756172643a207265656e7472616e742063616c6c0060448201526064016103a1565b600260015561046c6116ca565b60018055565b61047a61171c565b6002600154036104cc5760405162461bcd60e51b815260206004820152601f60248201527f5265656e7472616e637947756172643a207265656e7472616e742063616c6c0060448201526064016103a1565b60026001556001600160a01b03821660009081526005602052604090205460ff166105395760405162461bcd60e51b815260206004820152601860248201527f54686973206974656d206973206e6f74206163746976652e000000000000000060448201526064016103a1565b6001600160a01b038216600090815260056020526040902054640100000000900460ff166105cf5760405162461bcd60e51b815260206004820152602860248201527f54686973206974656d2063616e6e6f742062652070757263686173656420776960448201527f746820244f53542e00000000000000000000000000000000000000000000000060648201526084016103a1565b6000811161062b5760405162461bcd60e51b8152602060048201526024808201527f596f75206d757374206174206c65617374207075726368617365206f6e6520696044820152633a32b69760e11b60648201526084016103a1565b6001600160a01b038216600090815260056020908152604091829020825160e081018452815460ff808216151583526101008204811615159483019490945262010000810484161580159583019590955263010000008104841615156060830152640100000000900490921615156080830152600181015460a08301526002015460c082015290610966576003546040516370a0823160e01b81526001600160a01b0391821660048201526000918516906370a0823190602401602060405180830381865afa158015610702573d6000803e3d6000fd5b505050506040513d601f19601f820116820180604052508101906107269190611a42565b600480546040516370a0823160e01b815233928101929092529192506000916001600160a01b0316906370a0823190602401602060405180830381865afa158015610775573d6000803e3d6000fd5b505050506040513d601f19601f820116820180604052508101906107999190611a42565b90506000848460c001516107ad9190611a71565b90508483101561080d5760405162461bcd60e51b815260206004820152602560248201527f547265617375727920646f6573206e6f74206861766520656e6f75676820746f60448201526435b2b7399760d91b60648201526084016103a1565b8082101561085d5760405162461bcd60e51b815260206004820152601760248201527f4e6f7420656e6f75676820244f535420746f6b656e732e00000000000000000060448201526064016103a1565b6003546040516323b872dd60e01b81526001600160a01b03918216600482015233602482015260448101879052908716906323b872dd906064016020604051808303816000875af11580156108b6573d6000803e3d6000fd5b505050506040513d601f19601f820116820180604052508101906108da9190611a90565b50600480546002546040516323b872dd60e01b815233938101939093526001600160a01b0390811660248401526044830184905216906323b872dd906064015b6020604051808303816000875af1158015610939573d6000803e3d6000fd5b505050506040513d601f19601f8201168201806040525081019061095d9190611a90565b50505050610c87565b806020015115610c33576003546040516370a0823160e01b81526001600160a01b0391821660048201526000918516906370a0823190602401602060405180830381865afa1580156109bc573d6000803e3d6000fd5b505050506040513d601f19601f820116820180604052508101906109e09190611a42565b600480546040516370a0823160e01b815233928101929092529192506000916001600160a01b0316906370a0823190602401602060405180830381865afa158015610a2f573d6000803e3d6000fd5b505050506040513d601f19601f82011682018060405250810190610a539190611a42565b90506000848460c00151610a679190611a71565b905084831015610ac55760405162461bcd60e51b815260206004820152602360248201527f547265617375727920646f6573206e6f74206861766520656e6f756768204e466044820152622a399760e91b60648201526084016103a1565b80821015610b155760405162461bcd60e51b815260206004820152601760248201527f4e6f7420656e6f75676820244f535420746f6b656e732e00000000000000000060448201526064016103a1565b60005b858110156108da576000610b3581610b308488611aad565b61176f565b600354604051632f745c5960e01b81526001600160a01b03918216600482015260248101839052919250600091908a1690632f745c5990604401602060405180830381865afa158015610b8c573d6000803e3d6000fd5b505050506040513d601f19601f82011682018060405250810190610bb09190611a42565b6003546040516323b872dd60e01b81526001600160a01b039182166004820152336024820152604481018390529192508a16906323b872dd90606401600060405180830381600087803b158015610c0657600080fd5b505af1158015610c1a573d6000803e3d6000fd5b5050505050508080610c2b90611ac4565b915050610b18565b60405162461bcd60e51b8152602060048201526024808201527f546869732074797065206f6620746f6b656e206973206e6f7420737570706f726044820152633a32b21760e11b60648201526084016103a1565b604080518251151581526020808401511515908201528282015115158183015260608084015115159082015260808084015115159082015260a0808401519082015260c0808401519082015260e0810184905290516001600160a01b0385169133917f17bd9f4542e1e14fce075ce4e8a7f7819657693f5105ba9cc81a3dbae6beed5a918190036101000190a350506001805550565b610d2561166a565b610d2f60006117f7565b565b610d3961166a565b600260015403610d8b5760405162461bcd60e51b815260206004820152601f60248201527f5265656e7472616e637947756172643a207265656e7472616e742063616c6c0060448201526064016103a1565b600260018181556001600160a01b039092166000908152600560205260408120805464ffffffffff19168155808401829055909101558055565b610dcd61166a565b600260015403610e1f5760405162461bcd60e51b815260206004820152601f60248201527f5265656e7472616e637947756172643a207265656e7472616e742063616c6c0060448201526064016103a1565b600260015561046c611867565b610e3461166a565b600260015403610e865760405162461bcd60e51b815260206004820152601f60248201527f5265656e7472616e637947756172643a207265656e7472616e742063616c6c0060448201526064016103a1565b60026001556001600160a01b03881615801590610ea05750865b8015610eb0575085151585151514155b8015610ed75750838015610ec45750600082115b80610ed75750828015610ed75750600081115b610ee057600080fd5b6040805160e08101825297151588529515156020808901918252951515888801908152941515606089019081529315156080890190815260a0890193845260c089019283526001600160a01b03909916600090815260059096529590942095518654955193519251975115156401000000000264ff000000001998151563010000000263ff0000001994151562010000029490941663ffff0000199515156101000261ff00199315159390931661ffff199098169790971791909117939093169490941717949094169390931782555160018083019190915591516002909101558055565b610fcd61171c565b60026001540361101f5760405162461bcd60e51b815260206004820152601f60248201527f5265656e7472616e637947756172643a207265656e7472616e742063616c6c0060448201526064016103a1565b60026001556001600160a01b03821660009081526005602052604090205460ff1661108c5760405162461bcd60e51b815260206004820152601860248201527f54686973206974656d206973206e6f74206163746976652e000000000000000060448201526064016103a1565b6001600160a01b0382166000908152600560205260409020546301000000900460ff166111215760405162461bcd60e51b815260206004820152602860248201527f54686973206974656d2063616e6e6f742062652070757263686173656420776960448201527f746820244554482e00000000000000000000000000000000000000000000000060648201526084016103a1565b6000811161117d5760405162461bcd60e51b8152602060048201526024808201527f596f75206d757374206174206c65617374207075726368617365206f6e6520696044820152633a32b69760e11b60648201526084016103a1565b6001600160a01b038216600090815260056020908152604091829020825160e081018452815460ff808216151583526101008204811615159483019490945262010000810484161580159583019590955263010000008104841615156060830152640100000000900490921615156080830152600181015460a08301526002015460c082015290611380576003546040516370a0823160e01b81526001600160a01b0391821660048201526000918516906370a0823190602401602060405180830381865afa158015611254573d6000803e3d6000fd5b505050506040513d601f19601f820116820180604052508101906112789190611a42565b905060003490506000848460a001516112919190611a71565b9050848310156112f15760405162461bcd60e51b815260206004820152602560248201527f547265617375727920646f6573206e6f74206861766520656e6f75676820746f60448201526435b2b7399760d91b60648201526084016103a1565b808210156113415760405162461bcd60e51b815260206004820152601760248201527f4e6f7420656e6f756768202445544820746f6b656e732e00000000000000000060448201526064016103a1565b6003546040516323b872dd60e01b81526001600160a01b03918216600482015233602482015260448101879052908716906323b872dd9060640161091a565b806020015115610c33576003546040516370a0823160e01b81526001600160a01b0391821660048201526000918516906370a0823190602401602060405180830381865afa1580156113d6573d6000803e3d6000fd5b505050506040513d601f19601f820116820180604052508101906113fa9190611a42565b905060003490506000848460a001516114139190611a71565b9050848310156114715760405162461bcd60e51b815260206004820152602360248201527f547265617375727920646f6573206e6f74206861766520656e6f756768204e466044820152622a399760e91b60648201526084016103a1565b808210156114c15760405162461bcd60e51b815260206004820152601760248201527f4e6f7420656e6f756768202445544820746f6b656e732e00000000000000000060448201526064016103a1565b60005b8581101561095d5760006114dc81610b308488611aad565b600354604051632f745c5960e01b81526001600160a01b03918216600482015260248101839052919250600091908a1690632f745c5990604401602060405180830381865afa158015611533573d6000803e3d6000fd5b505050506040513d601f19601f820116820180604052508101906115579190611a42565b6003546040516323b872dd60e01b81526001600160a01b039182166004820152336024820152604481018390529192508a16906323b872dd90606401600060405180830381600087803b1580156115ad57600080fd5b505af11580156115c1573d6000803e3d6000fd5b50505050505080806115d290611ac4565b9150506114c4565b6115e261166a565b6001600160a01b03811661165e5760405162461bcd60e51b815260206004820152602660248201527f4f776e61626c653a206e6577206f776e657220697320746865207a65726f206160448201527f646472657373000000000000000000000000000000000000000000000000000060648201526084016103a1565b611667816117f7565b50565b6000546001600160a01b03610100909104163314610d2f5760405162461bcd60e51b815260206004820181905260248201527f4f776e61626c653a2063616c6c6572206973206e6f7420746865206f776e657260448201526064016103a1565b6116d26118a4565b6000805460ff191690557f5db9ee0a495bf2e6ff9c91a7834c1ba4fdd244a5e8aa4e537bd38aeae4b073aa335b6040516001600160a01b03909116815260200160405180910390a1565b60005460ff1615610d2f5760405162461bcd60e51b815260206004820152601060248201527f5061757361626c653a207061757365640000000000000000000000000000000060448201526064016103a1565b6000808242336006546040516020016117ad9392919092835260609190911b6bffffffffffffffffffffffff19166020830152603482015260540190565b6040516020818303038152906040528051906020012060001c6117d09190611add565b90506117dc8482611aff565b905060065460016117ed9190611aff565b6006559392505050565b600080546001600160a01b038381166101008181027fffffffffffffffffffffff0000000000000000000000000000000000000000ff851617855560405193049190911692909183917f8be0079c531659141344cd1fd0a4f28419497f9722a3daafe3b4186f6b6457e091a35050565b61186f61171c565b6000805460ff191660011790557f62e78cea01bee320cd4e420270b5ea74000d11b0c9f74754ebdbfc544b05a2586116ff3390565b60005460ff16610d2f5760405162461bcd60e51b815260206004820152601460248201527f5061757361626c653a206e6f742070617573656400000000000000000000000060448201526064016103a1565b80356001600160a01b038116811461190d57600080fd5b919050565b60008060006060848603121561192757600080fd5b611930846118f6565b925061193e602085016118f6565b915061194c604085016118f6565b90509250925092565b6000806040838503121561196857600080fd5b611971836118f6565b946020939093013593505050565b60006020828403121561199157600080fd5b61199a826118f6565b9392505050565b801515811461166757600080fd5b600080600080600080600080610100898b0312156119cc57600080fd5b6119d5896118f6565b975060208901356119e5816119a1565b965060408901356119f5816119a1565b95506060890135611a05816119a1565b94506080890135611a15816119a1565b935060a0890135611a25816119a1565b979a969950949793969295929450505060c08201359160e0013590565b600060208284031215611a5457600080fd5b5051919050565b634e487b7160e01b600052601160045260246000fd5b6000816000190483118215151615611a8b57611a8b611a5b565b500290565b600060208284031215611aa257600080fd5b815161199a816119a1565b600082821015611abf57611abf611a5b565b500390565b600060018201611ad657611ad6611a5b565b5060010190565b600082611afa57634e487b7160e01b600052601260045260246000fd5b500690565b60008219821115611b1257611b12611a5b565b50019056fea26469706673582212209247335675e37e0b0db05b27253f88d91d3b7d297a58901ecb60e6ec3f37b03164736f6c634300080d0033",
      "opcodes": "PUSH1 0x80 PUSH1 0x40 MSTORE PUSH1 0x0 PUSH1 0x6 SSTORE CALLVALUE DUP1 ISZERO PUSH2 0x15 JUMPI PUSH1 0x0 DUP1 REVERT JUMPDEST POP PUSH1 0x0 DUP1 SLOAD PUSH1 0xFF NOT AND SWAP1 SSTORE PUSH2 0x29 CALLER PUSH2 0x32 JUMP JUMPDEST PUSH1 0x1 DUP1 SSTORE PUSH2 0x8B JUMP JUMPDEST PUSH1 0x0 DUP1 SLOAD PUSH1 0x1 PUSH1 0x1 PUSH1 0xA0 SHL SUB DUP4 DUP2 AND PUSH2 0x100 DUP2 DUP2 MUL PUSH2 0x100 PUSH1 0x1 PUSH1 0xA8 SHL SUB NOT DUP6 AND OR DUP6 SSTORE PUSH1 0x40 MLOAD SWAP4 DIV SWAP2 SWAP1 SWAP2 AND SWAP3 SWAP1 SWAP2 DUP4 SWAP2 PUSH32 0x8BE0079C531659141344CD1FD0A4F28419497F9722A3DAAFE3B4186F6B6457E0 SWAP2 LOG3 POP POP JUMP JUMPDEST PUSH2 0x1B4D DUP1 PUSH2 0x9A PUSH1 0x0 CODECOPY PUSH1 0x0 RETURN INVALID PUSH1 0x80 PUSH1 0x40 MSTORE PUSH1 0x4 CALLDATASIZE LT PUSH2 0xE8 JUMPI PUSH1 0x0 CALLDATALOAD PUSH1 0xE0 SHR DUP1 PUSH4 0x7C1C43E2 GT PUSH2 0x8A JUMPI DUP1 PUSH4 0xA756FDD0 GT PUSH2 0x59 JUMPI DUP1 PUSH4 0xA756FDD0 EQ PUSH2 0x2D8 JUMPI DUP1 PUSH4 0xBD40F1F3 EQ PUSH2 0x2F8 JUMPI DUP1 PUSH4 0xDDC643CE EQ PUSH2 0x318 JUMPI DUP1 PUSH4 0xF2FDE38B EQ PUSH2 0x32B JUMPI PUSH1 0x0 DUP1 REVERT JUMPDEST DUP1 PUSH4 0x7C1C43E2 EQ PUSH2 0x1D9 JUMPI DUP1 PUSH4 0x8456CB59 EQ PUSH2 0x280 JUMPI DUP1 PUSH4 0x8DA5CB5B EQ PUSH2 0x295 JUMPI DUP1 PUSH4 0x9FF51675 EQ PUSH2 0x2B8 JUMPI PUSH1 0x0 DUP1 REVERT JUMPDEST DUP1 PUSH4 0x6094BE2D GT PUSH2 0xC6 JUMPI DUP1 PUSH4 0x6094BE2D EQ PUSH2 0x14C JUMPI DUP1 PUSH4 0x61D027B3 EQ PUSH2 0x16C JUMPI DUP1 PUSH4 0x715018A6 EQ PUSH2 0x1A4 JUMPI DUP1 PUSH4 0x78DB4589 EQ PUSH2 0x1B9 JUMPI PUSH1 0x0 DUP1 REVERT JUMPDEST DUP1 PUSH4 0x25455706 EQ PUSH2 0xED JUMPI DUP1 PUSH4 0x3F4BA83A EQ PUSH2 0x10F JUMPI DUP1 PUSH4 0x5C975ABB EQ PUSH2 0x124 JUMPI JUMPDEST PUSH1 0x0 DUP1 REVERT JUMPDEST CALLVALUE DUP1 ISZERO PUSH2 0xF9 JUMPI PUSH1 0x0 DUP1 REVERT JUMPDEST POP PUSH2 0x10D PUSH2 0x108 CALLDATASIZE PUSH1 0x4 PUSH2 0x1912 JUMP JUMPDEST PUSH2 0x34B JUMP JUMPDEST STOP JUMPDEST CALLVALUE DUP1 ISZERO PUSH2 0x11B JUMPI PUSH1 0x0 DUP1 REVERT JUMPDEST POP PUSH2 0x10D PUSH2 0x405 JUMP JUMPDEST CALLVALUE DUP1 ISZERO PUSH2 0x130 JUMPI PUSH1 0x0 DUP1 REVERT JUMPDEST POP PUSH1 0x0 SLOAD PUSH1 0xFF AND PUSH1 0x40 MLOAD SWAP1 ISZERO ISZERO DUP2 MSTORE PUSH1 0x20 ADD JUMPDEST PUSH1 0x40 MLOAD DUP1 SWAP2 SUB SWAP1 RETURN JUMPDEST CALLVALUE DUP1 ISZERO PUSH2 0x158 JUMPI PUSH1 0x0 DUP1 REVERT JUMPDEST POP PUSH2 0x10D PUSH2 0x167 CALLDATASIZE PUSH1 0x4 PUSH2 0x1955 JUMP JUMPDEST PUSH2 0x472 JUMP JUMPDEST CALLVALUE DUP1 ISZERO PUSH2 0x178 JUMPI PUSH1 0x0 DUP1 REVERT JUMPDEST POP PUSH1 0x3 SLOAD PUSH2 0x18C SWAP1 PUSH1 0x1 PUSH1 0x1 PUSH1 0xA0 SHL SUB AND DUP2 JUMP JUMPDEST PUSH1 0x40 MLOAD PUSH1 0x1 PUSH1 0x1 PUSH1 0xA0 SHL SUB SWAP1 SWAP2 AND DUP2 MSTORE PUSH1 0x20 ADD PUSH2 0x143 JUMP JUMPDEST CALLVALUE DUP1 ISZERO PUSH2 0x1B0 JUMPI PUSH1 0x0 DUP1 REVERT JUMPDEST POP PUSH2 0x10D PUSH2 0xD1D JUMP JUMPDEST CALLVALUE DUP1 ISZERO PUSH2 0x1C5 JUMPI PUSH1 0x0 DUP1 REVERT JUMPDEST POP PUSH2 0x10D PUSH2 0x1D4 CALLDATASIZE PUSH1 0x4 PUSH2 0x197F JUMP JUMPDEST PUSH2 0xD31 JUMP JUMPDEST CALLVALUE DUP1 ISZERO PUSH2 0x1E5 JUMPI PUSH1 0x0 DUP1 REVERT JUMPDEST POP PUSH2 0x241 PUSH2 0x1F4 CALLDATASIZE PUSH1 0x4 PUSH2 0x197F JUMP JUMPDEST PUSH1 0x5 PUSH1 0x20 MSTORE PUSH1 0x0 SWAP1 DUP2 MSTORE PUSH1 0x40 SWAP1 KECCAK256 DUP1 SLOAD PUSH1 0x1 DUP3 ADD SLOAD PUSH1 0x2 SWAP1 SWAP3 ADD SLOAD PUSH1 0xFF DUP1 DUP4 AND SWAP4 PUSH2 0x100 DUP5 DIV DUP3 AND SWAP4 PUSH3 0x10000 DUP2 DIV DUP4 AND SWAP4 PUSH4 0x1000000 DUP3 DIV DUP5 AND SWAP4 PUSH5 0x100000000 SWAP1 SWAP3 DIV SWAP1 SWAP2 AND SWAP2 SWAP1 DUP8 JUMP JUMPDEST PUSH1 0x40 DUP1 MLOAD SWAP8 ISZERO ISZERO DUP9 MSTORE SWAP6 ISZERO ISZERO PUSH1 0x20 DUP9 ADD MSTORE SWAP4 ISZERO ISZERO SWAP5 DUP7 ADD SWAP5 SWAP1 SWAP5 MSTORE SWAP1 ISZERO ISZERO PUSH1 0x60 DUP6 ADD MSTORE ISZERO ISZERO PUSH1 0x80 DUP5 ADD MSTORE PUSH1 0xA0 DUP4 ADD SWAP2 SWAP1 SWAP2 MSTORE PUSH1 0xC0 DUP3 ADD MSTORE PUSH1 0xE0 ADD PUSH2 0x143 JUMP JUMPDEST CALLVALUE DUP1 ISZERO PUSH2 0x28C JUMPI PUSH1 0x0 DUP1 REVERT JUMPDEST POP PUSH2 0x10D PUSH2 0xDC5 JUMP JUMPDEST CALLVALUE DUP1 ISZERO PUSH2 0x2A1 JUMPI PUSH1 0x0 DUP1 REVERT JUMPDEST POP PUSH1 0x0 SLOAD PUSH2 0x100 SWAP1 DIV PUSH1 0x1 PUSH1 0x1 PUSH1 0xA0 SHL SUB AND PUSH2 0x18C JUMP JUMPDEST CALLVALUE DUP1 ISZERO PUSH2 0x2C4 JUMPI PUSH1 0x0 DUP1 REVERT JUMPDEST POP PUSH1 0x2 SLOAD PUSH2 0x18C SWAP1 PUSH1 0x1 PUSH1 0x1 PUSH1 0xA0 SHL SUB AND DUP2 JUMP JUMPDEST CALLVALUE DUP1 ISZERO PUSH2 0x2E4 JUMPI PUSH1 0x0 DUP1 REVERT JUMPDEST POP PUSH1 0x4 SLOAD PUSH2 0x18C SWAP1 PUSH1 0x1 PUSH1 0x1 PUSH1 0xA0 SHL SUB AND DUP2 JUMP JUMPDEST CALLVALUE DUP1 ISZERO PUSH2 0x304 JUMPI PUSH1 0x0 DUP1 REVERT JUMPDEST POP PUSH2 0x10D PUSH2 0x313 CALLDATASIZE PUSH1 0x4 PUSH2 0x19AF JUMP JUMPDEST PUSH2 0xE2C JUMP JUMPDEST PUSH2 0x10D PUSH2 0x326 CALLDATASIZE PUSH1 0x4 PUSH2 0x1955 JUMP JUMPDEST PUSH2 0xFC5 JUMP JUMPDEST CALLVALUE DUP1 ISZERO PUSH2 0x337 JUMPI PUSH1 0x0 DUP1 REVERT JUMPDEST POP PUSH2 0x10D PUSH2 0x346 CALLDATASIZE PUSH1 0x4 PUSH2 0x197F JUMP JUMPDEST PUSH2 0x15DA JUMP JUMPDEST PUSH2 0x353 PUSH2 0x166A JUMP JUMPDEST PUSH1 0x2 PUSH1 0x1 SLOAD SUB PUSH2 0x3AA JUMPI PUSH1 0x40 MLOAD PUSH3 0x461BCD PUSH1 0xE5 SHL DUP2 MSTORE PUSH1 0x20 PUSH1 0x4 DUP3 ADD MSTORE PUSH1 0x1F PUSH1 0x24 DUP3 ADD MSTORE PUSH32 0x5265656E7472616E637947756172643A207265656E7472616E742063616C6C00 PUSH1 0x44 DUP3 ADD MSTORE PUSH1 0x64 ADD JUMPDEST PUSH1 0x40 MLOAD DUP1 SWAP2 SUB SWAP1 REVERT JUMPDEST PUSH1 0x2 DUP1 SLOAD PUSH1 0x1 PUSH1 0x1 PUSH1 0xA0 SHL SUB SWAP5 DUP6 AND PUSH32 0xFFFFFFFFFFFFFFFFFFFFFFFF0000000000000000000000000000000000000000 SWAP2 DUP3 AND OR SWAP1 SWAP2 SSTORE PUSH1 0x3 DUP1 SLOAD SWAP4 DUP6 AND SWAP4 DUP3 AND SWAP4 SWAP1 SWAP4 OR SWAP1 SWAP3 SSTORE PUSH1 0x4 DUP1 SLOAD SWAP2 SWAP1 SWAP4 AND SWAP2 AND OR SWAP1 SSTORE PUSH1 0x1 DUP1 SSTORE JUMP JUMPDEST PUSH2 0x40D PUSH2 0x166A JUMP JUMPDEST PUSH1 0x2 PUSH1 0x1 SLOAD SUB PUSH2 0x45F JUMPI PUSH1 0x40 MLOAD PUSH3 0x461BCD PUSH1 0xE5 SHL DUP2 MSTORE PUSH1 0x20 PUSH1 0x4 DUP3 ADD MSTORE PUSH1 0x1F PUSH1 0x24 DUP3 ADD MSTORE PUSH32 0x5265656E7472616E637947756172643A207265656E7472616E742063616C6C00 PUSH1 0x44 DUP3 ADD MSTORE PUSH1 0x64 ADD PUSH2 0x3A1 JUMP JUMPDEST PUSH1 0x2 PUSH1 0x1 SSTORE PUSH2 0x46C PUSH2 0x16CA JUMP JUMPDEST PUSH1 0x1 DUP1 SSTORE JUMP JUMPDEST PUSH2 0x47A PUSH2 0x171C JUMP JUMPDEST PUSH1 0x2 PUSH1 0x1 SLOAD SUB PUSH2 0x4CC JUMPI PUSH1 0x40 MLOAD PUSH3 0x461BCD PUSH1 0xE5 SHL DUP2 MSTORE PUSH1 0x20 PUSH1 0x4 DUP3 ADD MSTORE PUSH1 0x1F PUSH1 0x24 DUP3 ADD MSTORE PUSH32 0x5265656E7472616E637947756172643A207265656E7472616E742063616C6C00 PUSH1 0x44 DUP3 ADD MSTORE PUSH1 0x64 ADD PUSH2 0x3A1 JUMP JUMPDEST PUSH1 0x2 PUSH1 0x1 SSTORE PUSH1 0x1 PUSH1 0x1 PUSH1 0xA0 SHL SUB DUP3 AND PUSH1 0x0 SWAP1 DUP2 MSTORE PUSH1 0x5 PUSH1 0x20 MSTORE PUSH1 0x40 SWAP1 KECCAK256 SLOAD PUSH1 0xFF AND PUSH2 0x539 JUMPI PUSH1 0x40 MLOAD PUSH3 0x461BCD PUSH1 0xE5 SHL DUP2 MSTORE PUSH1 0x20 PUSH1 0x4 DUP3 ADD MSTORE PUSH1 0x18 PUSH1 0x24 DUP3 ADD MSTORE PUSH32 0x54686973206974656D206973206E6F74206163746976652E0000000000000000 PUSH1 0x44 DUP3 ADD MSTORE PUSH1 0x64 ADD PUSH2 0x3A1 JUMP JUMPDEST PUSH1 0x1 PUSH1 0x1 PUSH1 0xA0 SHL SUB DUP3 AND PUSH1 0x0 SWAP1 DUP2 MSTORE PUSH1 0x5 PUSH1 0x20 MSTORE PUSH1 0x40 SWAP1 KECCAK256 SLOAD PUSH5 0x100000000 SWAP1 DIV PUSH1 0xFF AND PUSH2 0x5CF JUMPI PUSH1 0x40 MLOAD PUSH3 0x461BCD PUSH1 0xE5 SHL DUP2 MSTORE PUSH1 0x20 PUSH1 0x4 DUP3 ADD MSTORE PUSH1 0x28 PUSH1 0x24 DUP3 ADD MSTORE PUSH32 0x54686973206974656D2063616E6E6F7420626520707572636861736564207769 PUSH1 0x44 DUP3 ADD MSTORE PUSH32 0x746820244F53542E000000000000000000000000000000000000000000000000 PUSH1 0x64 DUP3 ADD MSTORE PUSH1 0x84 ADD PUSH2 0x3A1 JUMP JUMPDEST PUSH1 0x0 DUP2 GT PUSH2 0x62B JUMPI PUSH1 0x40 MLOAD PUSH3 0x461BCD PUSH1 0xE5 SHL DUP2 MSTORE PUSH1 0x20 PUSH1 0x4 DUP3 ADD MSTORE PUSH1 0x24 DUP1 DUP3 ADD MSTORE PUSH32 0x596F75206D757374206174206C65617374207075726368617365206F6E652069 PUSH1 0x44 DUP3 ADD MSTORE PUSH4 0x3A32B697 PUSH1 0xE1 SHL PUSH1 0x64 DUP3 ADD MSTORE PUSH1 0x84 ADD PUSH2 0x3A1 JUMP JUMPDEST PUSH1 0x1 PUSH1 0x1 PUSH1 0xA0 SHL SUB DUP3 AND PUSH1 0x0 SWAP1 DUP2 MSTORE PUSH1 0x5 PUSH1 0x20 SWAP1 DUP2 MSTORE PUSH1 0x40 SWAP2 DUP3 SWAP1 KECCAK256 DUP3 MLOAD PUSH1 0xE0 DUP2 ADD DUP5 MSTORE DUP2 SLOAD PUSH1 0xFF DUP1 DUP3 AND ISZERO ISZERO DUP4 MSTORE PUSH2 0x100 DUP3 DIV DUP2 AND ISZERO ISZERO SWAP5 DUP4 ADD SWAP5 SWAP1 SWAP5 MSTORE PUSH3 0x10000 DUP2 DIV DUP5 AND ISZERO DUP1 ISZERO SWAP6 DUP4 ADD SWAP6 SWAP1 SWAP6 MSTORE PUSH4 0x1000000 DUP2 DIV DUP5 AND ISZERO ISZERO PUSH1 0x60 DUP4 ADD MSTORE PUSH5 0x100000000 SWAP1 DIV SWAP1 SWAP3 AND ISZERO ISZERO PUSH1 0x80 DUP4 ADD MSTORE PUSH1 0x1 DUP2 ADD SLOAD PUSH1 0xA0 DUP4 ADD MSTORE PUSH1 0x2 ADD SLOAD PUSH1 0xC0 DUP3 ADD MSTORE SWAP1 PUSH2 0x966 JUMPI PUSH1 0x3 SLOAD PUSH1 0x40 MLOAD PUSH4 0x70A08231 PUSH1 0xE0 SHL DUP2 MSTORE PUSH1 0x1 PUSH1 0x1 PUSH1 0xA0 SHL SUB SWAP2 DUP3 AND PUSH1 0x4 DUP3 ADD MSTORE PUSH1 0x0 SWAP2 DUP6 AND SWAP1 PUSH4 0x70A08231 SWAP1 PUSH1 0x24 ADD PUSH1 0x20 PUSH1 0x40 MLOAD DUP1 DUP4 SUB DUP2 DUP7 GAS STATICCALL ISZERO DUP1 ISZERO PUSH2 0x702 JUMPI RETURNDATASIZE PUSH1 0x0 DUP1 RETURNDATACOPY RETURNDATASIZE PUSH1 0x0 REVERT JUMPDEST POP POP POP POP PUSH1 0x40 MLOAD RETURNDATASIZE PUSH1 0x1F NOT PUSH1 0x1F DUP3 ADD AND DUP3 ADD DUP1 PUSH1 0x40 MSTORE POP DUP2 ADD SWAP1 PUSH2 0x726 SWAP2 SWAP1 PUSH2 0x1A42 JUMP JUMPDEST PUSH1 0x4 DUP1 SLOAD PUSH1 0x40 MLOAD PUSH4 0x70A08231 PUSH1 0xE0 SHL DUP2 MSTORE CALLER SWAP3 DUP2 ADD SWAP3 SWAP1 SWAP3 MSTORE SWAP2 SWAP3 POP PUSH1 0x0 SWAP2 PUSH1 0x1 PUSH1 0x1 PUSH1 0xA0 SHL SUB AND SWAP1 PUSH4 0x70A08231 SWAP1 PUSH1 0x24 ADD PUSH1 0x20 PUSH1 0x40 MLOAD DUP1 DUP4 SUB DUP2 DUP7 GAS STATICCALL ISZERO DUP1 ISZERO PUSH2 0x775 JUMPI RETURNDATASIZE PUSH1 0x0 DUP1 RETURNDATACOPY RETURNDATASIZE PUSH1 0x0 REVERT JUMPDEST POP POP POP POP PUSH1 0x40 MLOAD RETURNDATASIZE PUSH1 0x1F NOT PUSH1 0x1F DUP3 ADD AND DUP3 ADD DUP1 PUSH1 0x40 MSTORE POP DUP2 ADD SWAP1 PUSH2 0x799 SWAP2 SWAP1 PUSH2 0x1A42 JUMP JUMPDEST SWAP1 POP PUSH1 0x0 DUP5 DUP5 PUSH1 0xC0 ADD MLOAD PUSH2 0x7AD SWAP2 SWAP1 PUSH2 0x1A71 JUMP JUMPDEST SWAP1 POP DUP5 DUP4 LT ISZERO PUSH2 0x80D JUMPI PUSH1 0x40 MLOAD PUSH3 0x461BCD PUSH1 0xE5 SHL DUP2 MSTORE PUSH1 0x20 PUSH1 0x4 DUP3 ADD MSTORE PUSH1 0x25 PUSH1 0x24 DUP3 ADD MSTORE PUSH32 0x547265617375727920646F6573206E6F74206861766520656E6F75676820746F PUSH1 0x44 DUP3 ADD MSTORE PUSH5 0x35B2B73997 PUSH1 0xD9 SHL PUSH1 0x64 DUP3 ADD MSTORE PUSH1 0x84 ADD PUSH2 0x3A1 JUMP JUMPDEST DUP1 DUP3 LT ISZERO PUSH2 0x85D JUMPI PUSH1 0x40 MLOAD PUSH3 0x461BCD PUSH1 0xE5 SHL DUP2 MSTORE PUSH1 0x20 PUSH1 0x4 DUP3 ADD MSTORE PUSH1 0x17 PUSH1 0x24 DUP3 ADD MSTORE PUSH32 0x4E6F7420656E6F75676820244F535420746F6B656E732E000000000000000000 PUSH1 0x44 DUP3 ADD MSTORE PUSH1 0x64 ADD PUSH2 0x3A1 JUMP JUMPDEST PUSH1 0x3 SLOAD PUSH1 0x40 MLOAD PUSH4 0x23B872DD PUSH1 0xE0 SHL DUP2 MSTORE PUSH1 0x1 PUSH1 0x1 PUSH1 0xA0 SHL SUB SWAP2 DUP3 AND PUSH1 0x4 DUP3 ADD MSTORE CALLER PUSH1 0x24 DUP3 ADD MSTORE PUSH1 0x44 DUP2 ADD DUP8 SWAP1 MSTORE SWAP1 DUP8 AND SWAP1 PUSH4 0x23B872DD SWAP1 PUSH1 0x64 ADD PUSH1 0x20 PUSH1 0x40 MLOAD DUP1 DUP4 SUB DUP2 PUSH1 0x0 DUP8 GAS CALL ISZERO DUP1 ISZERO PUSH2 0x8B6 JUMPI RETURNDATASIZE PUSH1 0x0 DUP1 RETURNDATACOPY RETURNDATASIZE PUSH1 0x0 REVERT JUMPDEST POP POP POP POP PUSH1 0x40 MLOAD RETURNDATASIZE PUSH1 0x1F NOT PUSH1 0x1F DUP3 ADD AND DUP3 ADD DUP1 PUSH1 0x40 MSTORE POP DUP2 ADD SWAP1 PUSH2 0x8DA SWAP2 SWAP1 PUSH2 0x1A90 JUMP JUMPDEST POP PUSH1 0x4 DUP1 SLOAD PUSH1 0x2 SLOAD PUSH1 0x40 MLOAD PUSH4 0x23B872DD PUSH1 0xE0 SHL DUP2 MSTORE CALLER SWAP4 DUP2 ADD SWAP4 SWAP1 SWAP4 MSTORE PUSH1 0x1 PUSH1 0x1 PUSH1 0xA0 SHL SUB SWAP1 DUP2 AND PUSH1 0x24 DUP5 ADD MSTORE PUSH1 0x44 DUP4 ADD DUP5 SWAP1 MSTORE AND SWAP1 PUSH4 0x23B872DD SWAP1 PUSH1 0x64 ADD JUMPDEST PUSH1 0x20 PUSH1 0x40 MLOAD DUP1 DUP4 SUB DUP2 PUSH1 0x0 DUP8 GAS CALL ISZERO DUP1 ISZERO PUSH2 0x939 JUMPI RETURNDATASIZE PUSH1 0x0 DUP1 RETURNDATACOPY RETURNDATASIZE PUSH1 0x0 REVERT JUMPDEST POP POP POP POP PUSH1 0x40 MLOAD RETURNDATASIZE PUSH1 0x1F NOT PUSH1 0x1F DUP3 ADD AND DUP3 ADD DUP1 PUSH1 0x40 MSTORE POP DUP2 ADD SWAP1 PUSH2 0x95D SWAP2 SWAP1 PUSH2 0x1A90 JUMP JUMPDEST POP POP POP POP PUSH2 0xC87 JUMP JUMPDEST DUP1 PUSH1 0x20 ADD MLOAD ISZERO PUSH2 0xC33 JUMPI PUSH1 0x3 SLOAD PUSH1 0x40 MLOAD PUSH4 0x70A08231 PUSH1 0xE0 SHL DUP2 MSTORE PUSH1 0x1 PUSH1 0x1 PUSH1 0xA0 SHL SUB SWAP2 DUP3 AND PUSH1 0x4 DUP3 ADD MSTORE PUSH1 0x0 SWAP2 DUP6 AND SWAP1 PUSH4 0x70A08231 SWAP1 PUSH1 0x24 ADD PUSH1 0x20 PUSH1 0x40 MLOAD DUP1 DUP4 SUB DUP2 DUP7 GAS STATICCALL ISZERO DUP1 ISZERO PUSH2 0x9BC JUMPI RETURNDATASIZE PUSH1 0x0 DUP1 RETURNDATACOPY RETURNDATASIZE PUSH1 0x0 REVERT JUMPDEST POP POP POP POP PUSH1 0x40 MLOAD RETURNDATASIZE PUSH1 0x1F NOT PUSH1 0x1F DUP3 ADD AND DUP3 ADD DUP1 PUSH1 0x40 MSTORE POP DUP2 ADD SWAP1 PUSH2 0x9E0 SWAP2 SWAP1 PUSH2 0x1A42 JUMP JUMPDEST PUSH1 0x4 DUP1 SLOAD PUSH1 0x40 MLOAD PUSH4 0x70A08231 PUSH1 0xE0 SHL DUP2 MSTORE CALLER SWAP3 DUP2 ADD SWAP3 SWAP1 SWAP3 MSTORE SWAP2 SWAP3 POP PUSH1 0x0 SWAP2 PUSH1 0x1 PUSH1 0x1 PUSH1 0xA0 SHL SUB AND SWAP1 PUSH4 0x70A08231 SWAP1 PUSH1 0x24 ADD PUSH1 0x20 PUSH1 0x40 MLOAD DUP1 DUP4 SUB DUP2 DUP7 GAS STATICCALL ISZERO DUP1 ISZERO PUSH2 0xA2F JUMPI RETURNDATASIZE PUSH1 0x0 DUP1 RETURNDATACOPY RETURNDATASIZE PUSH1 0x0 REVERT JUMPDEST POP POP POP POP PUSH1 0x40 MLOAD RETURNDATASIZE PUSH1 0x1F NOT PUSH1 0x1F DUP3 ADD AND DUP3 ADD DUP1 PUSH1 0x40 MSTORE POP DUP2 ADD SWAP1 PUSH2 0xA53 SWAP2 SWAP1 PUSH2 0x1A42 JUMP JUMPDEST SWAP1 POP PUSH1 0x0 DUP5 DUP5 PUSH1 0xC0 ADD MLOAD PUSH2 0xA67 SWAP2 SWAP1 PUSH2 0x1A71 JUMP JUMPDEST SWAP1 POP DUP5 DUP4 LT ISZERO PUSH2 0xAC5 JUMPI PUSH1 0x40 MLOAD PUSH3 0x461BCD PUSH1 0xE5 SHL DUP2 MSTORE PUSH1 0x20 PUSH1 0x4 DUP3 ADD MSTORE PUSH1 0x23 PUSH1 0x24 DUP3 ADD MSTORE PUSH32 0x547265617375727920646F6573206E6F74206861766520656E6F756768204E46 PUSH1 0x44 DUP3 ADD MSTORE PUSH3 0x2A3997 PUSH1 0xE9 SHL PUSH1 0x64 DUP3 ADD MSTORE PUSH1 0x84 ADD PUSH2 0x3A1 JUMP JUMPDEST DUP1 DUP3 LT ISZERO PUSH2 0xB15 JUMPI PUSH1 0x40 MLOAD PUSH3 0x461BCD PUSH1 0xE5 SHL DUP2 MSTORE PUSH1 0x20 PUSH1 0x4 DUP3 ADD MSTORE PUSH1 0x17 PUSH1 0x24 DUP3 ADD MSTORE PUSH32 0x4E6F7420656E6F75676820244F535420746F6B656E732E000000000000000000 PUSH1 0x44 DUP3 ADD MSTORE PUSH1 0x64 ADD PUSH2 0x3A1 JUMP JUMPDEST PUSH1 0x0 JUMPDEST DUP6 DUP2 LT ISZERO PUSH2 0x8DA JUMPI PUSH1 0x0 PUSH2 0xB35 DUP2 PUSH2 0xB30 DUP5 DUP9 PUSH2 0x1AAD JUMP JUMPDEST PUSH2 0x176F JUMP JUMPDEST PUSH1 0x3 SLOAD PUSH1 0x40 MLOAD PUSH4 0x2F745C59 PUSH1 0xE0 SHL DUP2 MSTORE PUSH1 0x1 PUSH1 0x1 PUSH1 0xA0 SHL SUB SWAP2 DUP3 AND PUSH1 0x4 DUP3 ADD MSTORE PUSH1 0x24 DUP2 ADD DUP4 SWAP1 MSTORE SWAP2 SWAP3 POP PUSH1 0x0 SWAP2 SWAP1 DUP11 AND SWAP1 PUSH4 0x2F745C59 SWAP1 PUSH1 0x44 ADD PUSH1 0x20 PUSH1 0x40 MLOAD DUP1 DUP4 SUB DUP2 DUP7 GAS STATICCALL ISZERO DUP1 ISZERO PUSH2 0xB8C JUMPI RETURNDATASIZE PUSH1 0x0 DUP1 RETURNDATACOPY RETURNDATASIZE PUSH1 0x0 REVERT JUMPDEST POP POP POP POP PUSH1 0x40 MLOAD RETURNDATASIZE PUSH1 0x1F NOT PUSH1 0x1F DUP3 ADD AND DUP3 ADD DUP1 PUSH1 0x40 MSTORE POP DUP2 ADD SWAP1 PUSH2 0xBB0 SWAP2 SWAP1 PUSH2 0x1A42 JUMP JUMPDEST PUSH1 0x3 SLOAD PUSH1 0x40 MLOAD PUSH4 0x23B872DD PUSH1 0xE0 SHL DUP2 MSTORE PUSH1 0x1 PUSH1 0x1 PUSH1 0xA0 SHL SUB SWAP2 DUP3 AND PUSH1 0x4 DUP3 ADD MSTORE CALLER PUSH1 0x24 DUP3 ADD MSTORE PUSH1 0x44 DUP2 ADD DUP4 SWAP1 MSTORE SWAP2 SWAP3 POP DUP11 AND SWAP1 PUSH4 0x23B872DD SWAP1 PUSH1 0x64 ADD PUSH1 0x0 PUSH1 0x40 MLOAD DUP1 DUP4 SUB DUP2 PUSH1 0x0 DUP8 DUP1 EXTCODESIZE ISZERO DUP1 ISZERO PUSH2 0xC06 JUMPI PUSH1 0x0 DUP1 REVERT JUMPDEST POP GAS CALL ISZERO DUP1 ISZERO PUSH2 0xC1A JUMPI RETURNDATASIZE PUSH1 0x0 DUP1 RETURNDATACOPY RETURNDATASIZE PUSH1 0x0 REVERT JUMPDEST POP POP POP POP POP POP DUP1 DUP1 PUSH2 0xC2B SWAP1 PUSH2 0x1AC4 JUMP JUMPDEST SWAP2 POP POP PUSH2 0xB18 JUMP JUMPDEST PUSH1 0x40 MLOAD PUSH3 0x461BCD PUSH1 0xE5 SHL DUP2 MSTORE PUSH1 0x20 PUSH1 0x4 DUP3 ADD MSTORE PUSH1 0x24 DUP1 DUP3 ADD MSTORE PUSH32 0x546869732074797065206F6620746F6B656E206973206E6F7420737570706F72 PUSH1 0x44 DUP3 ADD MSTORE PUSH4 0x3A32B217 PUSH1 0xE1 SHL PUSH1 0x64 DUP3 ADD MSTORE PUSH1 0x84 ADD PUSH2 0x3A1 JUMP JUMPDEST PUSH1 0x40 DUP1 MLOAD DUP3 MLOAD ISZERO ISZERO DUP2 MSTORE PUSH1 0x20 DUP1 DUP5 ADD MLOAD ISZERO ISZERO SWAP1 DUP3 ADD MSTORE DUP3 DUP3 ADD MLOAD ISZERO ISZERO DUP2 DUP4 ADD MSTORE PUSH1 0x60 DUP1 DUP5 ADD MLOAD ISZERO ISZERO SWAP1 DUP3 ADD MSTORE PUSH1 0x80 DUP1 DUP5 ADD MLOAD ISZERO ISZERO SWAP1 DUP3 ADD MSTORE PUSH1 0xA0 DUP1 DUP5 ADD MLOAD SWAP1 DUP3 ADD MSTORE PUSH1 0xC0 DUP1 DUP5 ADD MLOAD SWAP1 DUP3 ADD MSTORE PUSH1 0xE0 DUP2 ADD DUP5 SWAP1 MSTORE SWAP1 MLOAD PUSH1 0x1 PUSH1 0x1 PUSH1 0xA0 SHL SUB DUP6 AND SWAP2 CALLER SWAP2 PUSH32 0x17BD9F4542E1E14FCE075CE4E8A7F7819657693F5105BA9CC81A3DBAE6BEED5A SWAP2 DUP2 SWAP1 SUB PUSH2 0x100 ADD SWAP1 LOG3 POP POP PUSH1 0x1 DUP1 SSTORE POP JUMP JUMPDEST PUSH2 0xD25 PUSH2 0x166A JUMP JUMPDEST PUSH2 0xD2F PUSH1 0x0 PUSH2 0x17F7 JUMP JUMPDEST JUMP JUMPDEST PUSH2 0xD39 PUSH2 0x166A JUMP JUMPDEST PUSH1 0x2 PUSH1 0x1 SLOAD SUB PUSH2 0xD8B JUMPI PUSH1 0x40 MLOAD PUSH3 0x461BCD PUSH1 0xE5 SHL DUP2 MSTORE PUSH1 0x20 PUSH1 0x4 DUP3 ADD MSTORE PUSH1 0x1F PUSH1 0x24 DUP3 ADD MSTORE PUSH32 0x5265656E7472616E637947756172643A207265656E7472616E742063616C6C00 PUSH1 0x44 DUP3 ADD MSTORE PUSH1 0x64 ADD PUSH2 0x3A1 JUMP JUMPDEST PUSH1 0x2 PUSH1 0x1 DUP2 DUP2 SSTORE PUSH1 0x1 PUSH1 0x1 PUSH1 0xA0 SHL SUB SWAP1 SWAP3 AND PUSH1 0x0 SWAP1 DUP2 MSTORE PUSH1 0x5 PUSH1 0x20 MSTORE PUSH1 0x40 DUP2 KECCAK256 DUP1 SLOAD PUSH5 0xFFFFFFFFFF NOT AND DUP2 SSTORE DUP1 DUP5 ADD DUP3 SWAP1 SSTORE SWAP1 SWAP2 ADD SSTORE DUP1 SSTORE JUMP JUMPDEST PUSH2 0xDCD PUSH2 0x166A JUMP JUMPDEST PUSH1 0x2 PUSH1 0x1 SLOAD SUB PUSH2 0xE1F JUMPI PUSH1 0x40 MLOAD PUSH3 0x461BCD PUSH1 0xE5 SHL DUP2 MSTORE PUSH1 0x20 PUSH1 0x4 DUP3 ADD MSTORE PUSH1 0x1F PUSH1 0x24 DUP3 ADD MSTORE PUSH32 0x5265656E7472616E637947756172643A207265656E7472616E742063616C6C00 PUSH1 0x44 DUP3 ADD MSTORE PUSH1 0x64 ADD PUSH2 0x3A1 JUMP JUMPDEST PUSH1 0x2 PUSH1 0x1 SSTORE PUSH2 0x46C PUSH2 0x1867 JUMP JUMPDEST PUSH2 0xE34 PUSH2 0x166A JUMP JUMPDEST PUSH1 0x2 PUSH1 0x1 SLOAD SUB PUSH2 0xE86 JUMPI PUSH1 0x40 MLOAD PUSH3 0x461BCD PUSH1 0xE5 SHL DUP2 MSTORE PUSH1 0x20 PUSH1 0x4 DUP3 ADD MSTORE PUSH1 0x1F PUSH1 0x24 DUP3 ADD MSTORE PUSH32 0x5265656E7472616E637947756172643A207265656E7472616E742063616C6C00 PUSH1 0x44 DUP3 ADD MSTORE PUSH1 0x64 ADD PUSH2 0x3A1 JUMP JUMPDEST PUSH1 0x2 PUSH1 0x1 SSTORE PUSH1 0x1 PUSH1 0x1 PUSH1 0xA0 SHL SUB DUP9 AND ISZERO DUP1 ISZERO SWAP1 PUSH2 0xEA0 JUMPI POP DUP7 JUMPDEST DUP1 ISZERO PUSH2 0xEB0 JUMPI POP DUP6 ISZERO ISZERO DUP6 ISZERO ISZERO EQ ISZERO JUMPDEST DUP1 ISZERO PUSH2 0xED7 JUMPI POP DUP4 DUP1 ISZERO PUSH2 0xEC4 JUMPI POP PUSH1 0x0 DUP3 GT JUMPDEST DUP1 PUSH2 0xED7 JUMPI POP DUP3 DUP1 ISZERO PUSH2 0xED7 JUMPI POP PUSH1 0x0 DUP2 GT JUMPDEST PUSH2 0xEE0 JUMPI PUSH1 0x0 DUP1 REVERT JUMPDEST PUSH1 0x40 DUP1 MLOAD PUSH1 0xE0 DUP2 ADD DUP3 MSTORE SWAP8 ISZERO ISZERO DUP9 MSTORE SWAP6 ISZERO ISZERO PUSH1 0x20 DUP1 DUP10 ADD SWAP2 DUP3 MSTORE SWAP6 ISZERO ISZERO DUP9 DUP9 ADD SWAP1 DUP2 MSTORE SWAP5 ISZERO ISZERO PUSH1 0x60 DUP10 ADD SWAP1 DUP2 MSTORE SWAP4 ISZERO ISZERO PUSH1 0x80 DUP10 ADD SWAP1 DUP2 MSTORE PUSH1 0xA0 DUP10 ADD SWAP4 DUP5 MSTORE PUSH1 0xC0 DUP10 ADD SWAP3 DUP4 MSTORE PUSH1 0x1 PUSH1 0x1 PUSH1 0xA0 SHL SUB SWAP1 SWAP10 AND PUSH1 0x0 SWAP1 DUP2 MSTORE PUSH1 0x5 SWAP1 SWAP7 MSTORE SWAP6 SWAP1 SWAP5 KECCAK256 SWAP6 MLOAD DUP7 SLOAD SWAP6 MLOAD SWAP4 MLOAD SWAP3 MLOAD SWAP8 MLOAD ISZERO ISZERO PUSH5 0x100000000 MUL PUSH5 0xFF00000000 NOT SWAP9 ISZERO ISZERO PUSH4 0x1000000 MUL PUSH4 0xFF000000 NOT SWAP5 ISZERO ISZERO PUSH3 0x10000 MUL SWAP5 SWAP1 SWAP5 AND PUSH4 0xFFFF0000 NOT SWAP6 ISZERO ISZERO PUSH2 0x100 MUL PUSH2 0xFF00 NOT SWAP4 ISZERO ISZERO SWAP4 SWAP1 SWAP4 AND PUSH2 0xFFFF NOT SWAP1 SWAP9 AND SWAP8 SWAP1 SWAP8 OR SWAP2 SWAP1 SWAP2 OR SWAP4 SWAP1 SWAP4 AND SWAP5 SWAP1 SWAP5 OR OR SWAP5 SWAP1 SWAP5 AND SWAP4 SWAP1 SWAP4 OR DUP3 SSTORE MLOAD PUSH1 0x1 DUP1 DUP4 ADD SWAP2 SWAP1 SWAP2 SSTORE SWAP2 MLOAD PUSH1 0x2 SWAP1 SWAP2 ADD SSTORE DUP1 SSTORE JUMP JUMPDEST PUSH2 0xFCD PUSH2 0x171C JUMP JUMPDEST PUSH1 0x2 PUSH1 0x1 SLOAD SUB PUSH2 0x101F JUMPI PUSH1 0x40 MLOAD PUSH3 0x461BCD PUSH1 0xE5 SHL DUP2 MSTORE PUSH1 0x20 PUSH1 0x4 DUP3 ADD MSTORE PUSH1 0x1F PUSH1 0x24 DUP3 ADD MSTORE PUSH32 0x5265656E7472616E637947756172643A207265656E7472616E742063616C6C00 PUSH1 0x44 DUP3 ADD MSTORE PUSH1 0x64 ADD PUSH2 0x3A1 JUMP JUMPDEST PUSH1 0x2 PUSH1 0x1 SSTORE PUSH1 0x1 PUSH1 0x1 PUSH1 0xA0 SHL SUB DUP3 AND PUSH1 0x0 SWAP1 DUP2 MSTORE PUSH1 0x5 PUSH1 0x20 MSTORE PUSH1 0x40 SWAP1 KECCAK256 SLOAD PUSH1 0xFF AND PUSH2 0x108C JUMPI PUSH1 0x40 MLOAD PUSH3 0x461BCD PUSH1 0xE5 SHL DUP2 MSTORE PUSH1 0x20 PUSH1 0x4 DUP3 ADD MSTORE PUSH1 0x18 PUSH1 0x24 DUP3 ADD MSTORE PUSH32 0x54686973206974656D206973206E6F74206163746976652E0000000000000000 PUSH1 0x44 DUP3 ADD MSTORE PUSH1 0x64 ADD PUSH2 0x3A1 JUMP JUMPDEST PUSH1 0x1 PUSH1 0x1 PUSH1 0xA0 SHL SUB DUP3 AND PUSH1 0x0 SWAP1 DUP2 MSTORE PUSH1 0x5 PUSH1 0x20 MSTORE PUSH1 0x40 SWAP1 KECCAK256 SLOAD PUSH4 0x1000000 SWAP1 DIV PUSH1 0xFF AND PUSH2 0x1121 JUMPI PUSH1 0x40 MLOAD PUSH3 0x461BCD PUSH1 0xE5 SHL DUP2 MSTORE PUSH1 0x20 PUSH1 0x4 DUP3 ADD MSTORE PUSH1 0x28 PUSH1 0x24 DUP3 ADD MSTORE PUSH32 0x54686973206974656D2063616E6E6F7420626520707572636861736564207769 PUSH1 0x44 DUP3 ADD MSTORE PUSH32 0x746820244554482E000000000000000000000000000000000000000000000000 PUSH1 0x64 DUP3 ADD MSTORE PUSH1 0x84 ADD PUSH2 0x3A1 JUMP JUMPDEST PUSH1 0x0 DUP2 GT PUSH2 0x117D JUMPI PUSH1 0x40 MLOAD PUSH3 0x461BCD PUSH1 0xE5 SHL DUP2 MSTORE PUSH1 0x20 PUSH1 0x4 DUP3 ADD MSTORE PUSH1 0x24 DUP1 DUP3 ADD MSTORE PUSH32 0x596F75206D757374206174206C65617374207075726368617365206F6E652069 PUSH1 0x44 DUP3 ADD MSTORE PUSH4 0x3A32B697 PUSH1 0xE1 SHL PUSH1 0x64 DUP3 ADD MSTORE PUSH1 0x84 ADD PUSH2 0x3A1 JUMP JUMPDEST PUSH1 0x1 PUSH1 0x1 PUSH1 0xA0 SHL SUB DUP3 AND PUSH1 0x0 SWAP1 DUP2 MSTORE PUSH1 0x5 PUSH1 0x20 SWAP1 DUP2 MSTORE PUSH1 0x40 SWAP2 DUP3 SWAP1 KECCAK256 DUP3 MLOAD PUSH1 0xE0 DUP2 ADD DUP5 MSTORE DUP2 SLOAD PUSH1 0xFF DUP1 DUP3 AND ISZERO ISZERO DUP4 MSTORE PUSH2 0x100 DUP3 DIV DUP2 AND ISZERO ISZERO SWAP5 DUP4 ADD SWAP5 SWAP1 SWAP5 MSTORE PUSH3 0x10000 DUP2 DIV DUP5 AND ISZERO DUP1 ISZERO SWAP6 DUP4 ADD SWAP6 SWAP1 SWAP6 MSTORE PUSH4 0x1000000 DUP2 DIV DUP5 AND ISZERO ISZERO PUSH1 0x60 DUP4 ADD MSTORE PUSH5 0x100000000 SWAP1 DIV SWAP1 SWAP3 AND ISZERO ISZERO PUSH1 0x80 DUP4 ADD MSTORE PUSH1 0x1 DUP2 ADD SLOAD PUSH1 0xA0 DUP4 ADD MSTORE PUSH1 0x2 ADD SLOAD PUSH1 0xC0 DUP3 ADD MSTORE SWAP1 PUSH2 0x1380 JUMPI PUSH1 0x3 SLOAD PUSH1 0x40 MLOAD PUSH4 0x70A08231 PUSH1 0xE0 SHL DUP2 MSTORE PUSH1 0x1 PUSH1 0x1 PUSH1 0xA0 SHL SUB SWAP2 DUP3 AND PUSH1 0x4 DUP3 ADD MSTORE PUSH1 0x0 SWAP2 DUP6 AND SWAP1 PUSH4 0x70A08231 SWAP1 PUSH1 0x24 ADD PUSH1 0x20 PUSH1 0x40 MLOAD DUP1 DUP4 SUB DUP2 DUP7 GAS STATICCALL ISZERO DUP1 ISZERO PUSH2 0x1254 JUMPI RETURNDATASIZE PUSH1 0x0 DUP1 RETURNDATACOPY RETURNDATASIZE PUSH1 0x0 REVERT JUMPDEST POP POP POP POP PUSH1 0x40 MLOAD RETURNDATASIZE PUSH1 0x1F NOT PUSH1 0x1F DUP3 ADD AND DUP3 ADD DUP1 PUSH1 0x40 MSTORE POP DUP2 ADD SWAP1 PUSH2 0x1278 SWAP2 SWAP1 PUSH2 0x1A42 JUMP JUMPDEST SWAP1 POP PUSH1 0x0 CALLVALUE SWAP1 POP PUSH1 0x0 DUP5 DUP5 PUSH1 0xA0 ADD MLOAD PUSH2 0x1291 SWAP2 SWAP1 PUSH2 0x1A71 JUMP JUMPDEST SWAP1 POP DUP5 DUP4 LT ISZERO PUSH2 0x12F1 JUMPI PUSH1 0x40 MLOAD PUSH3 0x461BCD PUSH1 0xE5 SHL DUP2 MSTORE PUSH1 0x20 PUSH1 0x4 DUP3 ADD MSTORE PUSH1 0x25 PUSH1 0x24 DUP3 ADD MSTORE PUSH32 0x547265617375727920646F6573206E6F74206861766520656E6F75676820746F PUSH1 0x44 DUP3 ADD MSTORE PUSH5 0x35B2B73997 PUSH1 0xD9 SHL PUSH1 0x64 DUP3 ADD MSTORE PUSH1 0x84 ADD PUSH2 0x3A1 JUMP JUMPDEST DUP1 DUP3 LT ISZERO PUSH2 0x1341 JUMPI PUSH1 0x40 MLOAD PUSH3 0x461BCD PUSH1 0xE5 SHL DUP2 MSTORE PUSH1 0x20 PUSH1 0x4 DUP3 ADD MSTORE PUSH1 0x17 PUSH1 0x24 DUP3 ADD MSTORE PUSH32 0x4E6F7420656E6F756768202445544820746F6B656E732E000000000000000000 PUSH1 0x44 DUP3 ADD MSTORE PUSH1 0x64 ADD PUSH2 0x3A1 JUMP JUMPDEST PUSH1 0x3 SLOAD PUSH1 0x40 MLOAD PUSH4 0x23B872DD PUSH1 0xE0 SHL DUP2 MSTORE PUSH1 0x1 PUSH1 0x1 PUSH1 0xA0 SHL SUB SWAP2 DUP3 AND PUSH1 0x4 DUP3 ADD MSTORE CALLER PUSH1 0x24 DUP3 ADD MSTORE PUSH1 0x44 DUP2 ADD DUP8 SWAP1 MSTORE SWAP1 DUP8 AND SWAP1 PUSH4 0x23B872DD SWAP1 PUSH1 0x64 ADD PUSH2 0x91A JUMP JUMPDEST DUP1 PUSH1 0x20 ADD MLOAD ISZERO PUSH2 0xC33 JUMPI PUSH1 0x3 SLOAD PUSH1 0x40 MLOAD PUSH4 0x70A08231 PUSH1 0xE0 SHL DUP2 MSTORE PUSH1 0x1 PUSH1 0x1 PUSH1 0xA0 SHL SUB SWAP2 DUP3 AND PUSH1 0x4 DUP3 ADD MSTORE PUSH1 0x0 SWAP2 DUP6 AND SWAP1 PUSH4 0x70A08231 SWAP1 PUSH1 0x24 ADD PUSH1 0x20 PUSH1 0x40 MLOAD DUP1 DUP4 SUB DUP2 DUP7 GAS STATICCALL ISZERO DUP1 ISZERO PUSH2 0x13D6 JUMPI RETURNDATASIZE PUSH1 0x0 DUP1 RETURNDATACOPY RETURNDATASIZE PUSH1 0x0 REVERT JUMPDEST POP POP POP POP PUSH1 0x40 MLOAD RETURNDATASIZE PUSH1 0x1F NOT PUSH1 0x1F DUP3 ADD AND DUP3 ADD DUP1 PUSH1 0x40 MSTORE POP DUP2 ADD SWAP1 PUSH2 0x13FA SWAP2 SWAP1 PUSH2 0x1A42 JUMP JUMPDEST SWAP1 POP PUSH1 0x0 CALLVALUE SWAP1 POP PUSH1 0x0 DUP5 DUP5 PUSH1 0xA0 ADD MLOAD PUSH2 0x1413 SWAP2 SWAP1 PUSH2 0x1A71 JUMP JUMPDEST SWAP1 POP DUP5 DUP4 LT ISZERO PUSH2 0x1471 JUMPI PUSH1 0x40 MLOAD PUSH3 0x461BCD PUSH1 0xE5 SHL DUP2 MSTORE PUSH1 0x20 PUSH1 0x4 DUP3 ADD MSTORE PUSH1 0x23 PUSH1 0x24 DUP3 ADD MSTORE PUSH32 0x547265617375727920646F6573206E6F74206861766520656E6F756768204E46 PUSH1 0x44 DUP3 ADD MSTORE PUSH3 0x2A3997 PUSH1 0xE9 SHL PUSH1 0x64 DUP3 ADD MSTORE PUSH1 0x84 ADD PUSH2 0x3A1 JUMP JUMPDEST DUP1 DUP3 LT ISZERO PUSH2 0x14C1 JUMPI PUSH1 0x40 MLOAD PUSH3 0x461BCD PUSH1 0xE5 SHL DUP2 MSTORE PUSH1 0x20 PUSH1 0x4 DUP3 ADD MSTORE PUSH1 0x17 PUSH1 0x24 DUP3 ADD MSTORE PUSH32 0x4E6F7420656E6F756768202445544820746F6B656E732E000000000000000000 PUSH1 0x44 DUP3 ADD MSTORE PUSH1 0x64 ADD PUSH2 0x3A1 JUMP JUMPDEST PUSH1 0x0 JUMPDEST DUP6 DUP2 LT ISZERO PUSH2 0x95D JUMPI PUSH1 0x0 PUSH2 0x14DC DUP2 PUSH2 0xB30 DUP5 DUP9 PUSH2 0x1AAD JUMP JUMPDEST PUSH1 0x3 SLOAD PUSH1 0x40 MLOAD PUSH4 0x2F745C59 PUSH1 0xE0 SHL DUP2 MSTORE PUSH1 0x1 PUSH1 0x1 PUSH1 0xA0 SHL SUB SWAP2 DUP3 AND PUSH1 0x4 DUP3 ADD MSTORE PUSH1 0x24 DUP2 ADD DUP4 SWAP1 MSTORE SWAP2 SWAP3 POP PUSH1 0x0 SWAP2 SWAP1 DUP11 AND SWAP1 PUSH4 0x2F745C59 SWAP1 PUSH1 0x44 ADD PUSH1 0x20 PUSH1 0x40 MLOAD DUP1 DUP4 SUB DUP2 DUP7 GAS STATICCALL ISZERO DUP1 ISZERO PUSH2 0x1533 JUMPI RETURNDATASIZE PUSH1 0x0 DUP1 RETURNDATACOPY RETURNDATASIZE PUSH1 0x0 REVERT JUMPDEST POP POP POP POP PUSH1 0x40 MLOAD RETURNDATASIZE PUSH1 0x1F NOT PUSH1 0x1F DUP3 ADD AND DUP3 ADD DUP1 PUSH1 0x40 MSTORE POP DUP2 ADD SWAP1 PUSH2 0x1557 SWAP2 SWAP1 PUSH2 0x1A42 JUMP JUMPDEST PUSH1 0x3 SLOAD PUSH1 0x40 MLOAD PUSH4 0x23B872DD PUSH1 0xE0 SHL DUP2 MSTORE PUSH1 0x1 PUSH1 0x1 PUSH1 0xA0 SHL SUB SWAP2 DUP3 AND PUSH1 0x4 DUP3 ADD MSTORE CALLER PUSH1 0x24 DUP3 ADD MSTORE PUSH1 0x44 DUP2 ADD DUP4 SWAP1 MSTORE SWAP2 SWAP3 POP DUP11 AND SWAP1 PUSH4 0x23B872DD SWAP1 PUSH1 0x64 ADD PUSH1 0x0 PUSH1 0x40 MLOAD DUP1 DUP4 SUB DUP2 PUSH1 0x0 DUP8 DUP1 EXTCODESIZE ISZERO DUP1 ISZERO PUSH2 0x15AD JUMPI PUSH1 0x0 DUP1 REVERT JUMPDEST POP GAS CALL ISZERO DUP1 ISZERO PUSH2 0x15C1 JUMPI RETURNDATASIZE PUSH1 0x0 DUP1 RETURNDATACOPY RETURNDATASIZE PUSH1 0x0 REVERT JUMPDEST POP POP POP POP POP POP DUP1 DUP1 PUSH2 0x15D2 SWAP1 PUSH2 0x1AC4 JUMP JUMPDEST SWAP2 POP POP PUSH2 0x14C4 JUMP JUMPDEST PUSH2 0x15E2 PUSH2 0x166A JUMP JUMPDEST PUSH1 0x1 PUSH1 0x1 PUSH1 0xA0 SHL SUB DUP2 AND PUSH2 0x165E JUMPI PUSH1 0x40 MLOAD PUSH3 0x461BCD PUSH1 0xE5 SHL DUP2 MSTORE PUSH1 0x20 PUSH1 0x4 DUP3 ADD MSTORE PUSH1 0x26 PUSH1 0x24 DUP3 ADD MSTORE PUSH32 0x4F776E61626C653A206E6577206F776E657220697320746865207A65726F2061 PUSH1 0x44 DUP3 ADD MSTORE PUSH32 0x6464726573730000000000000000000000000000000000000000000000000000 PUSH1 0x64 DUP3 ADD MSTORE PUSH1 0x84 ADD PUSH2 0x3A1 JUMP JUMPDEST PUSH2 0x1667 DUP2 PUSH2 0x17F7 JUMP JUMPDEST POP JUMP JUMPDEST PUSH1 0x0 SLOAD PUSH1 0x1 PUSH1 0x1 PUSH1 0xA0 SHL SUB PUSH2 0x100 SWAP1 SWAP2 DIV AND CALLER EQ PUSH2 0xD2F JUMPI PUSH1 0x40 MLOAD PUSH3 0x461BCD PUSH1 0xE5 SHL DUP2 MSTORE PUSH1 0x20 PUSH1 0x4 DUP3 ADD DUP2 SWAP1 MSTORE PUSH1 0x24 DUP3 ADD MSTORE PUSH32 0x4F776E61626C653A2063616C6C6572206973206E6F7420746865206F776E6572 PUSH1 0x44 DUP3 ADD MSTORE PUSH1 0x64 ADD PUSH2 0x3A1 JUMP JUMPDEST PUSH2 0x16D2 PUSH2 0x18A4 JUMP JUMPDEST PUSH1 0x0 DUP1 SLOAD PUSH1 0xFF NOT AND SWAP1 SSTORE PUSH32 0x5DB9EE0A495BF2E6FF9C91A7834C1BA4FDD244A5E8AA4E537BD38AEAE4B073AA CALLER JUMPDEST PUSH1 0x40 MLOAD PUSH1 0x1 PUSH1 0x1 PUSH1 0xA0 SHL SUB SWAP1 SWAP2 AND DUP2 MSTORE PUSH1 0x20 ADD PUSH1 0x40 MLOAD DUP1 SWAP2 SUB SWAP1 LOG1 JUMP JUMPDEST PUSH1 0x0 SLOAD PUSH1 0xFF AND ISZERO PUSH2 0xD2F JUMPI PUSH1 0x40 MLOAD PUSH3 0x461BCD PUSH1 0xE5 SHL DUP2 MSTORE PUSH1 0x20 PUSH1 0x4 DUP3 ADD MSTORE PUSH1 0x10 PUSH1 0x24 DUP3 ADD MSTORE PUSH32 0x5061757361626C653A2070617573656400000000000000000000000000000000 PUSH1 0x44 DUP3 ADD MSTORE PUSH1 0x64 ADD PUSH2 0x3A1 JUMP JUMPDEST PUSH1 0x0 DUP1 DUP3 TIMESTAMP CALLER PUSH1 0x6 SLOAD PUSH1 0x40 MLOAD PUSH1 0x20 ADD PUSH2 0x17AD SWAP4 SWAP3 SWAP2 SWAP1 SWAP3 DUP4 MSTORE PUSH1 0x60 SWAP2 SWAP1 SWAP2 SHL PUSH12 0xFFFFFFFFFFFFFFFFFFFFFFFF NOT AND PUSH1 0x20 DUP4 ADD MSTORE PUSH1 0x34 DUP3 ADD MSTORE PUSH1 0x54 ADD SWAP1 JUMP JUMPDEST PUSH1 0x40 MLOAD PUSH1 0x20 DUP2 DUP4 SUB SUB DUP2 MSTORE SWAP1 PUSH1 0x40 MSTORE DUP1 MLOAD SWAP1 PUSH1 0x20 ADD KECCAK256 PUSH1 0x0 SHR PUSH2 0x17D0 SWAP2 SWAP1 PUSH2 0x1ADD JUMP JUMPDEST SWAP1 POP PUSH2 0x17DC DUP5 DUP3 PUSH2 0x1AFF JUMP JUMPDEST SWAP1 POP PUSH1 0x6 SLOAD PUSH1 0x1 PUSH2 0x17ED SWAP2 SWAP1 PUSH2 0x1AFF JUMP JUMPDEST PUSH1 0x6 SSTORE SWAP4 SWAP3 POP POP POP JUMP JUMPDEST PUSH1 0x0 DUP1 SLOAD PUSH1 0x1 PUSH1 0x1 PUSH1 0xA0 SHL SUB DUP4 DUP2 AND PUSH2 0x100 DUP2 DUP2 MUL PUSH32 0xFFFFFFFFFFFFFFFFFFFFFF0000000000000000000000000000000000000000FF DUP6 AND OR DUP6 SSTORE PUSH1 0x40 MLOAD SWAP4 DIV SWAP2 SWAP1 SWAP2 AND SWAP3 SWAP1 SWAP2 DUP4 SWAP2 PUSH32 0x8BE0079C531659141344CD1FD0A4F28419497F9722A3DAAFE3B4186F6B6457E0 SWAP2 LOG3 POP POP JUMP JUMPDEST PUSH2 0x186F PUSH2 0x171C JUMP JUMPDEST PUSH1 0x0 DUP1 SLOAD PUSH1 0xFF NOT AND PUSH1 0x1 OR SWAP1 SSTORE PUSH32 0x62E78CEA01BEE320CD4E420270B5EA74000D11B0C9F74754EBDBFC544B05A258 PUSH2 0x16FF CALLER SWAP1 JUMP JUMPDEST PUSH1 0x0 SLOAD PUSH1 0xFF AND PUSH2 0xD2F JUMPI PUSH1 0x40 MLOAD PUSH3 0x461BCD PUSH1 0xE5 SHL DUP2 MSTORE PUSH1 0x20 PUSH1 0x4 DUP3 ADD MSTORE PUSH1 0x14 PUSH1 0x24 DUP3 ADD MSTORE PUSH32 0x5061757361626C653A206E6F7420706175736564000000000000000000000000 PUSH1 0x44 DUP3 ADD MSTORE PUSH1 0x64 ADD PUSH2 0x3A1 JUMP JUMPDEST DUP1 CALLDATALOAD PUSH1 0x1 PUSH1 0x1 PUSH1 0xA0 SHL SUB DUP2 AND DUP2 EQ PUSH2 0x190D JUMPI PUSH1 0x0 DUP1 REVERT JUMPDEST SWAP2 SWAP1 POP JUMP JUMPDEST PUSH1 0x0 DUP1 PUSH1 0x0 PUSH1 0x60 DUP5 DUP7 SUB SLT ISZERO PUSH2 0x1927 JUMPI PUSH1 0x0 DUP1 REVERT JUMPDEST PUSH2 0x1930 DUP5 PUSH2 0x18F6 JUMP JUMPDEST SWAP3 POP PUSH2 0x193E PUSH1 0x20 DUP6 ADD PUSH2 0x18F6 JUMP JUMPDEST SWAP2 POP PUSH2 0x194C PUSH1 0x40 DUP6 ADD PUSH2 0x18F6 JUMP JUMPDEST SWAP1 POP SWAP3 POP SWAP3 POP SWAP3 JUMP JUMPDEST PUSH1 0x0 DUP1 PUSH1 0x40 DUP4 DUP6 SUB SLT ISZERO PUSH2 0x1968 JUMPI PUSH1 0x0 DUP1 REVERT JUMPDEST PUSH2 0x1971 DUP4 PUSH2 0x18F6 JUMP JUMPDEST SWAP5 PUSH1 0x20 SWAP4 SWAP1 SWAP4 ADD CALLDATALOAD SWAP4 POP POP POP JUMP JUMPDEST PUSH1 0x0 PUSH1 0x20 DUP3 DUP5 SUB SLT ISZERO PUSH2 0x1991 JUMPI PUSH1 0x0 DUP1 REVERT JUMPDEST PUSH2 0x199A DUP3 PUSH2 0x18F6 JUMP JUMPDEST SWAP4 SWAP3 POP POP POP JUMP JUMPDEST DUP1 ISZERO ISZERO DUP2 EQ PUSH2 0x1667 JUMPI PUSH1 0x0 DUP1 REVERT JUMPDEST PUSH1 0x0 DUP1 PUSH1 0x0 DUP1 PUSH1 0x0 DUP1 PUSH1 0x0 DUP1 PUSH2 0x100 DUP10 DUP12 SUB SLT ISZERO PUSH2 0x19CC JUMPI PUSH1 0x0 DUP1 REVERT JUMPDEST PUSH2 0x19D5 DUP10 PUSH2 0x18F6 JUMP JUMPDEST SWAP8 POP PUSH1 0x20 DUP10 ADD CALLDATALOAD PUSH2 0x19E5 DUP2 PUSH2 0x19A1 JUMP JUMPDEST SWAP7 POP PUSH1 0x40 DUP10 ADD CALLDATALOAD PUSH2 0x19F5 DUP2 PUSH2 0x19A1 JUMP JUMPDEST SWAP6 POP PUSH1 0x60 DUP10 ADD CALLDATALOAD PUSH2 0x1A05 DUP2 PUSH2 0x19A1 JUMP JUMPDEST SWAP5 POP PUSH1 0x80 DUP10 ADD CALLDATALOAD PUSH2 0x1A15 DUP2 PUSH2 0x19A1 JUMP JUMPDEST SWAP4 POP PUSH1 0xA0 DUP10 ADD CALLDATALOAD PUSH2 0x1A25 DUP2 PUSH2 0x19A1 JUMP JUMPDEST SWAP8 SWAP11 SWAP7 SWAP10 POP SWAP5 SWAP8 SWAP4 SWAP7 SWAP3 SWAP6 SWAP3 SWAP5 POP POP POP PUSH1 0xC0 DUP3 ADD CALLDATALOAD SWAP2 PUSH1 0xE0 ADD CALLDATALOAD SWAP1 JUMP JUMPDEST PUSH1 0x0 PUSH1 0x20 DUP3 DUP5 SUB SLT ISZERO PUSH2 0x1A54 JUMPI PUSH1 0x0 DUP1 REVERT JUMPDEST POP MLOAD SWAP2 SWAP1 POP JUMP JUMPDEST PUSH4 0x4E487B71 PUSH1 0xE0 SHL PUSH1 0x0 MSTORE PUSH1 0x11 PUSH1 0x4 MSTORE PUSH1 0x24 PUSH1 0x0 REVERT JUMPDEST PUSH1 0x0 DUP2 PUSH1 0x0 NOT DIV DUP4 GT DUP3 ISZERO ISZERO AND ISZERO PUSH2 0x1A8B JUMPI PUSH2 0x1A8B PUSH2 0x1A5B JUMP JUMPDEST POP MUL SWAP1 JUMP JUMPDEST PUSH1 0x0 PUSH1 0x20 DUP3 DUP5 SUB SLT ISZERO PUSH2 0x1AA2 JUMPI PUSH1 0x0 DUP1 REVERT JUMPDEST DUP2 MLOAD PUSH2 0x199A DUP2 PUSH2 0x19A1 JUMP JUMPDEST PUSH1 0x0 DUP3 DUP3 LT ISZERO PUSH2 0x1ABF JUMPI PUSH2 0x1ABF PUSH2 0x1A5B JUMP JUMPDEST POP SUB SWAP1 JUMP JUMPDEST PUSH1 0x0 PUSH1 0x1 DUP3 ADD PUSH2 0x1AD6 JUMPI PUSH2 0x1AD6 PUSH2 0x1A5B JUMP JUMPDEST POP PUSH1 0x1 ADD SWAP1 JUMP JUMPDEST PUSH1 0x0 DUP3 PUSH2 0x1AFA JUMPI PUSH4 0x4E487B71 PUSH1 0xE0 SHL PUSH1 0x0 MSTORE PUSH1 0x12 PUSH1 0x4 MSTORE PUSH1 0x24 PUSH1 0x0 REVERT JUMPDEST POP MOD SWAP1 JUMP JUMPDEST PUSH1 0x0 DUP3 NOT DUP3 GT ISZERO PUSH2 0x1B12 JUMPI PUSH2 0x1B12 PUSH2 0x1A5B JUMP JUMPDEST POP ADD SWAP1 JUMP INVALID LOG2 PUSH5 0x6970667358 0x22 SLT KECCAK256 SWAP3 SELFBALANCE CALLER JUMP PUSH22 0xE37E0B0DB05B27253F88D91D3B7D297A58901ECB60E6 0xEC EXTCODEHASH CALLDATACOPY 0xB0 BALANCE PUSH5 0x736F6C6343 STOP ADDMOD 0xD STOP CALLER "
    },
    "gasEstimates": {
      "creation": {
        "codeDepositCost": "1397800",
        "executionCost": "78651",
        "totalCost": "1476451"
      },
      "external": {
        "addShopItem(address,bool,bool,bool,bool,bool,uint256,uint256)": "infinite",
        "oasisGraveyard()": "2426",
        "ost()": "2359",
        "owner()": "2409",
        "pause()": "infinite",
        "paused()": "2349",
        "purchaseWithEth(address,uint256)": "infinite",
        "purchaseWithOst(address,uint256)": "infinite",
        "removeShopIem(address)": "83239",
        "renounceOwnership()": "infinite",
        "setStateVariables(address,address,address)": "infinite",
        "shopItems(address)": "7020",
        "transferOwnership(address)": "28442",
        "treasury()": "2382",
        "unpause()": "infinite"
      },
      "internal": {
        "generateRandomNumber(uint256,uint256)": "infinite"
      }
    },
    "methodIdentifiers": {
      "addShopItem(address,bool,bool,bool,bool,bool,uint256,uint256)": "bd40f1f3",
      "oasisGraveyard()": "9ff51675",
      "ost()": "a756fdd0",
      "owner()": "8da5cb5b",
      "pause()": "8456cb59",
      "paused()": "5c975abb",
      "purchaseWithEth(address,uint256)": "ddc643ce",
      "purchaseWithOst(address,uint256)": "6094be2d",
      "removeShopIem(address)": "78db4589",
      "renounceOwnership()": "715018a6",
      "setStateVariables(address,address,address)": "25455706",
      "shopItems(address)": "7c1c43e2",
      "transferOwnership(address)": "f2fde38b",
      "treasury()": "61d027b3",
      "unpause()": "3f4ba83a"
    }
  },
  "storageLayout": {
    "storage": [
      {
        "astId": 2962,
        "contract": "OasisShop.sol:OasisShop",
        "label": "_paused",
        "offset": 0,
        "slot": "0",
        "type": "t_bool"
      },
      {
        "astId": 1554,
        "contract": "OasisShop.sol:OasisShop",
        "label": "_owner",
        "offset": 1,
        "slot": "0",
        "type": "t_address"
      },
      {
        "astId": 3066,
        "contract": "OasisShop.sol:OasisShop",
        "label": "_status",
        "offset": 0,
        "slot": "1",
        "type": "t_uint256"
      },
      {
        "astId": 735,
        "contract": "OasisShop.sol:OasisShop",
        "label": "oasisGraveyard",
        "offset": 0,
        "slot": "2",
        "type": "t_address"
      },
      {
        "astId": 737,
        "contract": "OasisShop.sol:OasisShop",
        "label": "treasury",
        "offset": 0,
        "slot": "3",
        "type": "t_address"
      },
      {
        "astId": 739,
        "contract": "OasisShop.sol:OasisShop",
        "label": "ost",
        "offset": 0,
        "slot": "4",
        "type": "t_address"
      },
      {
        "astId": 744,
        "contract": "OasisShop.sol:OasisShop",
        "label": "shopItems",
        "offset": 0,
        "slot": "5",
        "type": "t_mapping(t_address,t_struct(ShopItem)762_storage)"
      },
      {
        "astId": 747,
        "contract": "OasisShop.sol:OasisShop",
        "label": "nonce",
        "offset": 0,
        "slot": "6",
        "type": "t_uint256"
      }
    ],
    "types": {
      "t_address": {
        "encoding": "inplace",
        "label": "address",
        "numberOfBytes": "20"
      },
      "t_bool": {
        "encoding": "inplace",
        "label": "bool",
        "numberOfBytes": "1"
      },
      "t_mapping(t_address,t_struct(ShopItem)762_storage)": {
        "encoding": "mapping",
        "key": "t_address",
        "label": "mapping(address => struct OasisShop.ShopItem)",
        "numberOfBytes": "32",
        "value": "t_struct(ShopItem)762_storage"
      },
      "t_struct(ShopItem)762_storage": {
        "encoding": "inplace",
        "label": "struct OasisShop.ShopItem",
        "members": [
          {
            "astId": 749,
            "contract": "OasisShop.sol:OasisShop",
            "label": "isActive",
            "offset": 0,
            "slot": "0",
            "type": "t_bool"
          },
          {
            "astId": 751,
            "contract": "OasisShop.sol:OasisShop",
            "label": "is721",
            "offset": 1,
            "slot": "0",
            "type": "t_bool"
          },
          {
            "astId": 753,
            "contract": "OasisShop.sol:OasisShop",
            "label": "is20",
            "offset": 2,
            "slot": "0",
            "type": "t_bool"
          },
          {
            "astId": 755,
            "contract": "OasisShop.sol:OasisShop",
            "label": "withWei",
            "offset": 3,
            "slot": "0",
            "type": "t_bool"
          },
          {
            "astId": 757,
            "contract": "OasisShop.sol:OasisShop",
            "label": "withOst",
            "offset": 4,
            "slot": "0",
            "type": "t_bool"
          },
          {
            "astId": 759,
            "contract": "OasisShop.sol:OasisShop",
            "label": "weiPrice",
            "offset": 0,
            "slot": "1",
            "type": "t_uint256"
          },
          {
            "astId": 761,
            "contract": "OasisShop.sol:OasisShop",
            "label": "ostPrice",
            "offset": 0,
            "slot": "2",
            "type": "t_uint256"
          }
        ],
        "numberOfBytes": "96"
      },
      "t_uint256": {
        "encoding": "inplace",
        "label": "uint256",
        "numberOfBytes": "32"
      }
    }
  },
  "userdoc": {
    "events": {
      "PurchasedShopItems(address,address,(bool,bool,bool,bool,bool,uint256,uint256),uint256)": {
        "notice": "EVENTS ///"
      }
    },
    "kind": "user",
    "methods": {
      "oasisGraveyard()": {
        "notice": "STATE VARIABLES ///"
      },
      "pause()": {
        "notice": "OWNER FUNCTIONS ///"
      },
      "purchaseWithOst(address,uint256)": {
        "notice": "USER FUNCTIONS ///"
      }
    },
    "notice": ". Scalable Shop for the Oasis. You can add any ERC-20 or ERC-721 Enumerable to it. Users can purchase with $ETH or $OST.",
    "version": 1
  }
}