{
  "abi": [
    {
      "inputs": [
        {
          "internalType": "address",
          "name": "_oasisGraveyard",
          "type": "address"
        },
        {
          "internalType": "address",
          "name": "_treasury",
          "type": "address"
        },
        {
          "internalType": "address",
          "name": "_ost",
          "type": "address"
        }
      ],
      "stateMutability": "nonpayable",
      "type": "constructor"
    },
    {
      "inputs": [],
      "name": "InvalidArguments",
      "type": "error"
    },
    {
      "inputs": [],
      "name": "TransferFailed",
      "type": "error"
    },
    {
      "inputs": [],
      "name": "TreasuryBalanceTooLow",
      "type": "error"
    },
    {
      "inputs": [],
      "name": "UserBalanceTooLow",
      "type": "error"
    },
    {
      "anonymous": false,
      "inputs": [
        {
          "indexed": true,
          "internalType": "address",
          "name": "previousOwner",
          "type": "address"
        },
        {
          "indexed": true,
          "internalType": "address",
          "name": "newOwner",
          "type": "address"
        }
      ],
      "name": "OwnershipTransferred",
      "type": "event"
    },
    {
      "anonymous": false,
      "inputs": [
        {
          "indexed": false,
          "internalType": "address",
          "name": "account",
          "type": "address"
        }
      ],
      "name": "Paused",
      "type": "event"
    },
    {
      "anonymous": false,
      "inputs": [
        {
          "indexed": true,
          "internalType": "address",
          "name": "buyer",
          "type": "address"
        },
        {
          "indexed": true,
          "internalType": "address",
          "name": "itemContract",
          "type": "address"
        },
        {
          "indexed": true,
          "internalType": "uint256",
          "name": "quantity",
          "type": "uint256"
        }
      ],
      "name": "PurchasedItems",
      "type": "event"
    },
    {
      "anonymous": false,
      "inputs": [
        {
          "indexed": false,
          "internalType": "address",
          "name": "account",
          "type": "address"
        }
      ],
      "name": "Unpaused",
      "type": "event"
    },
    {
      "inputs": [
        {
          "internalType": "address",
          "name": "_contract",
          "type": "address"
        },
        {
          "internalType": "bool",
          "name": "_isActive",
          "type": "bool"
        },
        {
          "internalType": "bool",
          "name": "_is721",
          "type": "bool"
        },
        {
          "internalType": "bool",
          "name": "_is20",
          "type": "bool"
        },
        {
          "internalType": "bool",
          "name": "_withOst",
          "type": "bool"
        },
        {
          "internalType": "uint128",
          "name": "_price",
          "type": "uint128"
        }
      ],
      "name": "addItem",
      "outputs": [],
      "stateMutability": "nonpayable",
      "type": "function"
    },
    {
      "inputs": [],
      "name": "oasisGraveyard",
      "outputs": [
        {
          "internalType": "address",
          "name": "",
          "type": "address"
        }
      ],
      "stateMutability": "view",
      "type": "function"
    },
    {
      "inputs": [],
      "name": "ost",
      "outputs": [
        {
          "internalType": "address",
          "name": "",
          "type": "address"
        }
      ],
      "stateMutability": "view",
      "type": "function"
    },
    {
      "inputs": [],
      "name": "owner",
      "outputs": [
        {
          "internalType": "address",
          "name": "",
          "type": "address"
        }
      ],
      "stateMutability": "view",
      "type": "function"
    },
    {
      "inputs": [],
      "name": "pause",
      "outputs": [],
      "stateMutability": "nonpayable",
      "type": "function"
    },
    {
      "inputs": [],
      "name": "paused",
      "outputs": [
        {
          "internalType": "bool",
          "name": "",
          "type": "bool"
        }
      ],
      "stateMutability": "view",
      "type": "function"
    },
    {
      "inputs": [
        {
          "internalType": "address",
          "name": "_contract",
          "type": "address"
        },
        {
          "internalType": "uint256",
          "name": "_quantity",
          "type": "uint256"
        }
      ],
      "name": "purchase",
      "outputs": [],
      "stateMutability": "payable",
      "type": "function"
    },
    {
      "inputs": [
        {
          "internalType": "address",
          "name": "_contract",
          "type": "address"
        }
      ],
      "name": "removeItem",
      "outputs": [],
      "stateMutability": "nonpayable",
      "type": "function"
    },
    {
      "inputs": [],
      "name": "renounceOwnership",
      "outputs": [],
      "stateMutability": "nonpayable",
      "type": "function"
    },
    {
      "inputs": [
        {
          "internalType": "address",
          "name": "",
          "type": "address"
        }
      ],
      "name": "shopItems",
      "outputs": [
        {
          "internalType": "bool",
          "name": "isActive",
          "type": "bool"
        },
        {
          "internalType": "bool",
          "name": "is721",
          "type": "bool"
        },
        {
          "internalType": "bool",
          "name": "is20",
          "type": "bool"
        },
        {
          "internalType": "bool",
          "name": "withOst",
          "type": "bool"
        },
        {
          "internalType": "uint128",
          "name": "price",
          "type": "uint128"
        }
      ],
      "stateMutability": "view",
      "type": "function"
    },
    {
      "inputs": [
        {
          "internalType": "address",
          "name": "newOwner",
          "type": "address"
        }
      ],
      "name": "transferOwnership",
      "outputs": [],
      "stateMutability": "nonpayable",
      "type": "function"
    },
    {
      "inputs": [],
      "name": "treasury",
      "outputs": [
        {
          "internalType": "address",
          "name": "",
          "type": "address"
        }
      ],
      "stateMutability": "view",
      "type": "function"
    },
    {
      "inputs": [],
      "name": "unpause",
      "outputs": [],
      "stateMutability": "nonpayable",
      "type": "function"
    },
    {
      "inputs": [],
      "name": "withdraw",
      "outputs": [],
      "stateMutability": "nonpayable",
      "type": "function"
    }
  ],
  "devdoc": {
    "author": ". 0xFirekeeper",
    "kind": "dev",
    "methods": {
      "owner()": {
        "details": "Returns the address of the current owner."
      },
      "paused()": {
        "details": "Returns true if the contract is paused, and false otherwise."
      },
      "renounceOwnership()": {
        "details": "Leaves the contract without owner. It will not be possible to call `onlyOwner` functions anymore. Can only be called by the current owner. NOTE: Renouncing ownership will leave the contract without an owner, thereby removing any functionality that is only available to the owner."
      },
      "transferOwnership(address)": {
        "details": "Transfers ownership of the contract to a new account (`newOwner`). Can only be called by the current owner."
      }
    },
    "title": ". Oasis Shop",
    "version": 1
  },
  "evm": {
    "assembly": "    /* \"OasisShop.sol\":495:4454  contract OasisShop is Pausable, Ownable {... */\n  mstore(0x40, 0xe0)\n    /* \"OasisShop.sol\":1226:1433  constructor(... */\n  callvalue\n  dup1\n  iszero\n  tag_1\n  jumpi\n  0x00\n  dup1\n  revert\ntag_1:\n  pop\n  mload(0x40)\n  sub(codesize, bytecodeSize)\n  dup1\n  bytecodeSize\n  dup4\n  codecopy\n  dup2\n  add\n  0x40\n  dup2\n  swap1\n  mstore\n  tag_2\n  swap2\n  tag_3\n  jump\t// in\ntag_2:\n    /* \"@openzeppelin/contracts/security/Pausable.sol\":1006:1011   */\n  0x00\n    /* \"@openzeppelin/contracts/security/Pausable.sol\":996:1011   */\n  dup1\n  sload\n  not(0xff)\n  and\n  swap1\n  sstore\n    /* \"@openzeppelin/contracts/access/Ownable.sol\":936:968   */\n  tag_9\n    /* \"@openzeppelin/contracts/utils/Context.sol\":719:729   */\n  caller\n    /* \"@openzeppelin/contracts/access/Ownable.sol\":936:954   */\n  tag_12\n    /* \"@openzeppelin/contracts/access/Ownable.sol\":936:968   */\n  jump\t// in\ntag_9:\n  sub(shl(0xa0, 0x01), 0x01)\n    /* \"OasisShop.sol\":1341:1373  oasisGraveyard = _oasisGraveyard */\n  swap3\n  dup4\n  and\n  0x80\n  mstore\n    /* \"OasisShop.sol\":1384:1404  treasury = _treasury */\n  swap1\n  dup3\n  and\n  0xa0\n  mstore\n    /* \"OasisShop.sol\":1415:1425  ost = _ost */\n  and\n  0xc0\n  mstore\n    /* \"OasisShop.sol\":495:4454  contract OasisShop is Pausable, Ownable {... */\n  jump(tag_18)\n    /* \"@openzeppelin/contracts/access/Ownable.sol\":2433:2620   */\ntag_12:\n    /* \"@openzeppelin/contracts/access/Ownable.sol\":2506:2522   */\n  0x00\n    /* \"@openzeppelin/contracts/access/Ownable.sol\":2525:2531   */\n  dup1\n  sload\n  sub(shl(0xa0, 0x01), 0x01)\n    /* \"@openzeppelin/contracts/access/Ownable.sol\":2541:2558   */\n  dup4\n  dup2\n  and\n    /* \"@openzeppelin/contracts/access/Ownable.sol\":2525:2531   */\n  0x0100\n    /* \"@openzeppelin/contracts/access/Ownable.sol\":2541:2558   */\n  dup2\n  dup2\n  mul\n  not(sub(shl(0xa8, 0x01), 0x0100))\n  dup6\n  and\n  or\n  dup6\n  sstore\n    /* \"@openzeppelin/contracts/access/Ownable.sol\":2573:2613   */\n  mload(0x40)\n    /* \"@openzeppelin/contracts/access/Ownable.sol\":2525:2531   */\n  swap4\n  div\n  swap2\n  swap1\n  swap2\n  and\n  swap3\n    /* \"@openzeppelin/contracts/access/Ownable.sol\":2541:2558   */\n  swap1\n  swap2\n    /* \"@openzeppelin/contracts/access/Ownable.sol\":2525:2531   */\n  dup4\n  swap2\n    /* \"@openzeppelin/contracts/access/Ownable.sol\":2573:2613   */\n  0x8be0079c531659141344cd1fd0a4f28419497f9722a3daafe3b4186f6b6457e0\n  swap2\n  log3\n    /* \"@openzeppelin/contracts/access/Ownable.sol\":2496:2620   */\n  pop\n    /* \"@openzeppelin/contracts/access/Ownable.sol\":2433:2620   */\n  pop\n  jump\t// out\n    /* \"#utility.yul\":14:191   */\ntag_17:\n    /* \"#utility.yul\":93:106   */\n  dup1\n  mload\n  sub(shl(0xa0, 0x01), 0x01)\n    /* \"#utility.yul\":135:166   */\n  dup2\n  and\n    /* \"#utility.yul\":125:167   */\n  dup2\n  eq\n    /* \"#utility.yul\":115:185   */\n  tag_20\n  jumpi\n    /* \"#utility.yul\":181:182   */\n  0x00\n    /* \"#utility.yul\":178:179   */\n  dup1\n    /* \"#utility.yul\":171:183   */\n  revert\n    /* \"#utility.yul\":115:185   */\ntag_20:\n    /* \"#utility.yul\":14:191   */\n  swap2\n  swap1\n  pop\n  jump\t// out\n    /* \"#utility.yul\":196:574   */\ntag_3:\n    /* \"#utility.yul\":284:290   */\n  0x00\n    /* \"#utility.yul\":292:298   */\n  dup1\n    /* \"#utility.yul\":300:306   */\n  0x00\n    /* \"#utility.yul\":353:355   */\n  0x60\n    /* \"#utility.yul\":341:350   */\n  dup5\n    /* \"#utility.yul\":332:339   */\n  dup7\n    /* \"#utility.yul\":328:351   */\n  sub\n    /* \"#utility.yul\":324:356   */\n  slt\n    /* \"#utility.yul\":321:373   */\n  iszero\n  tag_22\n  jumpi\n    /* \"#utility.yul\":369:370   */\n  0x00\n    /* \"#utility.yul\":366:367   */\n  dup1\n    /* \"#utility.yul\":359:371   */\n  revert\n    /* \"#utility.yul\":321:373   */\ntag_22:\n    /* \"#utility.yul\":392:432   */\n  tag_23\n    /* \"#utility.yul\":422:431   */\n  dup5\n    /* \"#utility.yul\":392:432   */\n  tag_17\n  jump\t// in\ntag_23:\n    /* \"#utility.yul\":382:432   */\n  swap3\n  pop\n    /* \"#utility.yul\":451:500   */\n  tag_24\n    /* \"#utility.yul\":496:498   */\n  0x20\n    /* \"#utility.yul\":485:494   */\n  dup6\n    /* \"#utility.yul\":481:499   */\n  add\n    /* \"#utility.yul\":451:500   */\n  tag_17\n  jump\t// in\ntag_24:\n    /* \"#utility.yul\":441:500   */\n  swap2\n  pop\n    /* \"#utility.yul\":519:568   */\n  tag_25\n    /* \"#utility.yul\":564:566   */\n  0x40\n    /* \"#utility.yul\":553:562   */\n  dup6\n    /* \"#utility.yul\":549:567   */\n  add\n    /* \"#utility.yul\":519:568   */\n  tag_17\n  jump\t// in\ntag_25:\n    /* \"#utility.yul\":509:568   */\n  swap1\n  pop\n    /* \"#utility.yul\":196:574   */\n  swap3\n  pop\n  swap3\n  pop\n  swap3\n  jump\t// out\ntag_18:\n    /* \"OasisShop.sol\":495:4454  contract OasisShop is Pausable, Ownable {... */\n  mload(0x80)\n  mload(0xa0)\n  mload(0xc0)\n  codecopy(0x00, dataOffset(sub_0), dataSize(sub_0))\n  0x00\n  assignImmutable(\"0x7468eddb0720a03646876d25045fa535478c57a57b912a197efd90e8d667279c\")\n  0x00\n  assignImmutable(\"0x7a91009c6f7b1a275e5fe1d4c73bd6d7322fe5a62b5031b46ed03b8b1a3c30b8\")\n  0x00\n  assignImmutable(\"0x6899d1fa68cf48634632762f4cd0ec59d591ccbdd349962c4ae5d93ddad42969\")\n  return(0x00, dataSize(sub_0))\nstop\n\nsub_0: assembly {\n        /* \"OasisShop.sol\":495:4454  contract OasisShop is Pausable, Ownable {... */\n      mstore(0x40, 0x80)\n      jumpi(tag_1, lt(calldatasize, 0x04))\n      shr(0xe0, calldataload(0x00))\n      dup1\n      0x8456cb59\n      gt\n      tag_16\n      jumpi\n      dup1\n      0x9ff51675\n      gt\n      tag_17\n      jumpi\n      dup1\n      0x9ff51675\n      eq\n      tag_12\n      jumpi\n      dup1\n      0xa756fdd0\n      eq\n      tag_13\n      jumpi\n      dup1\n      0xabe210c9\n      eq\n      tag_14\n      jumpi\n      dup1\n      0xf2fde38b\n      eq\n      tag_15\n      jumpi\n      0x00\n      dup1\n      revert\n    tag_17:\n      dup1\n      0x8456cb59\n      eq\n      tag_9\n      jumpi\n      dup1\n      0x8da5cb5b\n      eq\n      tag_10\n      jumpi\n      dup1\n      0x8de93222\n      eq\n      tag_11\n      jumpi\n      0x00\n      dup1\n      revert\n    tag_16:\n      dup1\n      0x5c975abb\n      gt\n      tag_18\n      jumpi\n      dup1\n      0x5c975abb\n      eq\n      tag_5\n      jumpi\n      dup1\n      0x61d027b3\n      eq\n      tag_6\n      jumpi\n      dup1\n      0x715018a6\n      eq\n      tag_7\n      jumpi\n      dup1\n      0x7c1c43e2\n      eq\n      tag_8\n      jumpi\n      0x00\n      dup1\n      revert\n    tag_18:\n      dup1\n      0x399fa840\n      eq\n      tag_2\n      jumpi\n      dup1\n      0x3ccfd60b\n      eq\n      tag_3\n      jumpi\n      dup1\n      0x3f4ba83a\n      eq\n      tag_4\n      jumpi\n    tag_1:\n      0x00\n      dup1\n      revert\n        /* \"OasisShop.sol\":2001:2105  function removeItem(address _contract) external onlyOwner {... */\n    tag_2:\n      callvalue\n      dup1\n      iszero\n      tag_19\n      jumpi\n      0x00\n      dup1\n      revert\n    tag_19:\n      pop\n      tag_20\n      tag_21\n      calldatasize\n      0x04\n      tag_22\n      jump\t// in\n    tag_21:\n      tag_23\n      jump\t// in\n    tag_20:\n      stop\n        /* \"OasisShop.sol\":2113:2219  function withdraw() external onlyOwner {... */\n    tag_3:\n      callvalue\n      dup1\n      iszero\n      tag_24\n      jumpi\n      0x00\n      dup1\n      revert\n    tag_24:\n      pop\n      tag_20\n      tag_26\n      jump\t// in\n        /* \"OasisShop.sol\":1543:1610  function unpause() external onlyOwner {... */\n    tag_4:\n      callvalue\n      dup1\n      iszero\n      tag_27\n      jumpi\n      0x00\n      dup1\n      revert\n    tag_27:\n      pop\n      tag_20\n      tag_29\n      jump\t// in\n        /* \"@openzeppelin/contracts/security/Pausable.sol\":1615:1699   */\n    tag_5:\n      callvalue\n      dup1\n      iszero\n      tag_30\n      jumpi\n      0x00\n      dup1\n      revert\n    tag_30:\n      pop\n        /* \"@openzeppelin/contracts/security/Pausable.sol\":1662:1666   */\n      0x00\n        /* \"@openzeppelin/contracts/security/Pausable.sol\":1685:1692   */\n      sload\n      0xff\n      and\n        /* \"@openzeppelin/contracts/security/Pausable.sol\":1615:1699   */\n      mload(0x40)\n        /* \"#utility.yul\":571:585   */\n      swap1\n      iszero\n        /* \"#utility.yul\":564:586   */\n      iszero\n        /* \"#utility.yul\":546:587   */\n      dup2\n      mstore\n        /* \"#utility.yul\":534:536   */\n      0x20\n        /* \"#utility.yul\":519:537   */\n      add\n        /* \"@openzeppelin/contracts/security/Pausable.sol\":1615:1699   */\n    tag_33:\n      mload(0x40)\n      dup1\n      swap2\n      sub\n      swap1\n      return\n        /* \"OasisShop.sol\":771:804  address public immutable treasury */\n    tag_6:\n      callvalue\n      dup1\n      iszero\n      tag_35\n      jumpi\n      0x00\n      dup1\n      revert\n    tag_35:\n      pop\n      tag_36\n      immutable(\"0x7a91009c6f7b1a275e5fe1d4c73bd6d7322fe5a62b5031b46ed03b8b1a3c30b8\")\n      dup2\n      jump\n    tag_36:\n      mload(0x40)\n      sub(shl(0xa0, 0x01), 0x01)\n        /* \"#utility.yul\":762:817   */\n      swap1\n      swap2\n      and\n        /* \"#utility.yul\":744:818   */\n      dup2\n      mstore\n        /* \"#utility.yul\":732:734   */\n      0x20\n        /* \"#utility.yul\":717:735   */\n      add\n        /* \"OasisShop.sol\":771:804  address public immutable treasury */\n      tag_33\n        /* \"#utility.yul\":598:824   */\n      jump\n        /* \"@openzeppelin/contracts/access/Ownable.sol\":1831:1932   */\n    tag_7:\n      callvalue\n      dup1\n      iszero\n      tag_40\n      jumpi\n      0x00\n      dup1\n      revert\n    tag_40:\n      pop\n      tag_20\n      tag_42\n      jump\t// in\n        /* \"OasisShop.sol\":848:893  mapping(address => ShopItem) public shopItems */\n    tag_8:\n      callvalue\n      dup1\n      iszero\n      tag_43\n      jumpi\n      0x00\n      dup1\n      revert\n    tag_43:\n      pop\n      tag_44\n      tag_45\n      calldatasize\n      0x04\n      tag_22\n      jump\t// in\n    tag_45:\n      mstore(0x20, 0x01)\n      0x00\n      swap1\n      dup2\n      mstore\n      0x40\n      swap1\n      keccak256\n      sload\n      0xff\n      dup1\n      dup3\n      and\n      swap2\n      0x0100\n      dup2\n      div\n      dup3\n      and\n      swap2\n      0x010000\n      dup3\n      div\n      dup2\n      and\n      swap2\n      0x01000000\n      dup2\n      div\n      swap1\n      swap2\n      and\n      swap1\n      0x0100000000\n      swap1\n      div\n      sub(shl(0x80, 0x01), 0x01)\n      and\n      dup6\n      jump\n    tag_44:\n      0x40\n      dup1\n      mload\n        /* \"#utility.yul\":1089:1103   */\n      swap6\n      iszero\n        /* \"#utility.yul\":1082:1104   */\n      iszero\n        /* \"#utility.yul\":1064:1105   */\n      dup7\n      mstore\n        /* \"#utility.yul\":1148:1162   */\n      swap4\n      iszero\n        /* \"#utility.yul\":1141:1163   */\n      iszero\n        /* \"#utility.yul\":1136:1138   */\n      0x20\n        /* \"#utility.yul\":1121:1139   */\n      dup7\n      add\n        /* \"#utility.yul\":1114:1164   */\n      mstore\n        /* \"#utility.yul\":1207:1221   */\n      swap2\n      iszero\n        /* \"#utility.yul\":1200:1222   */\n      iszero\n        /* \"#utility.yul\":1180:1198   */\n      swap3\n      dup5\n      add\n        /* \"#utility.yul\":1173:1223   */\n      swap3\n      swap1\n      swap3\n      mstore\n        /* \"#utility.yul\":1266:1280   */\n      swap1\n      iszero\n        /* \"#utility.yul\":1259:1281   */\n      iszero\n        /* \"#utility.yul\":1254:1256   */\n      0x60\n        /* \"#utility.yul\":1239:1257   */\n      dup4\n      add\n        /* \"#utility.yul\":1232:1282   */\n      mstore\n      sub(shl(0x80, 0x01), 0x01)\n        /* \"#utility.yul\":1319:1366   */\n      and\n        /* \"#utility.yul\":1313:1316   */\n      0x80\n        /* \"#utility.yul\":1298:1317   */\n      dup3\n      add\n        /* \"#utility.yul\":1291:1367   */\n      mstore\n        /* \"#utility.yul\":1051:1054   */\n      0xa0\n        /* \"#utility.yul\":1036:1055   */\n      add\n        /* \"OasisShop.sol\":848:893  mapping(address => ShopItem) public shopItems */\n      tag_33\n        /* \"#utility.yul\":829:1373   */\n      jump\n        /* \"OasisShop.sol\":1472:1535  function pause() external onlyOwner {... */\n    tag_9:\n      callvalue\n      dup1\n      iszero\n      tag_49\n      jumpi\n      0x00\n      dup1\n      revert\n    tag_49:\n      pop\n      tag_20\n      tag_51\n      jump\t// in\n        /* \"@openzeppelin/contracts/access/Ownable.sol\":1201:1286   */\n    tag_10:\n      callvalue\n      dup1\n      iszero\n      tag_52\n      jumpi\n      0x00\n      dup1\n      revert\n    tag_52:\n      pop\n        /* \"@openzeppelin/contracts/access/Ownable.sol\":1247:1254   */\n      0x00\n        /* \"@openzeppelin/contracts/access/Ownable.sol\":1273:1279   */\n      sload\n      0x0100\n      swap1\n      div\n      sub(shl(0xa0, 0x01), 0x01)\n      and\n        /* \"@openzeppelin/contracts/access/Ownable.sol\":1201:1286   */\n      jump(tag_36)\n        /* \"OasisShop.sol\":2257:3766  function purchase(address _contract, uint256 _quantity) external payable whenNotPaused {... */\n    tag_11:\n      tag_20\n      tag_57\n      calldatasize\n      0x04\n      tag_58\n      jump\t// in\n    tag_57:\n      tag_59\n      jump\t// in\n        /* \"OasisShop.sol\":725:764  address public immutable oasisGraveyard */\n    tag_12:\n      callvalue\n      dup1\n      iszero\n      tag_60\n      jumpi\n      0x00\n      dup1\n      revert\n    tag_60:\n      pop\n      tag_36\n      immutable(\"0x6899d1fa68cf48634632762f4cd0ec59d591ccbdd349962c4ae5d93ddad42969\")\n      dup2\n      jump\n        /* \"OasisShop.sol\":811:839  address public immutable ost */\n    tag_13:\n      callvalue\n      dup1\n      iszero\n      tag_64\n      jumpi\n      0x00\n      dup1\n      revert\n    tag_64:\n      pop\n      tag_36\n      immutable(\"0x7468eddb0720a03646876d25045fa535478c57a57b912a197efd90e8d667279c\")\n      dup2\n      jump\n        /* \"OasisShop.sol\":1618:1993  function addItem(... */\n    tag_14:\n      callvalue\n      dup1\n      iszero\n      tag_68\n      jumpi\n      0x00\n      dup1\n      revert\n    tag_68:\n      pop\n      tag_20\n      tag_70\n      calldatasize\n      0x04\n      tag_71\n      jump\t// in\n    tag_70:\n      tag_72\n      jump\t// in\n        /* \"@openzeppelin/contracts/access/Ownable.sol\":2081:2279   */\n    tag_15:\n      callvalue\n      dup1\n      iszero\n      tag_73\n      jumpi\n      0x00\n      dup1\n      revert\n    tag_73:\n      pop\n      tag_20\n      tag_75\n      calldatasize\n      0x04\n      tag_22\n      jump\t// in\n    tag_75:\n      tag_76\n      jump\t// in\n        /* \"OasisShop.sol\":2001:2105  function removeItem(address _contract) external onlyOwner {... */\n    tag_23:\n        /* \"@openzeppelin/contracts/access/Ownable.sol\":1094:1107   */\n      tag_78\n        /* \"@openzeppelin/contracts/access/Ownable.sol\":1094:1105   */\n      tag_79\n        /* \"@openzeppelin/contracts/access/Ownable.sol\":1094:1107   */\n      jump\t// in\n    tag_78:\n      sub(shl(0xa0, 0x01), 0x01)\n        /* \"OasisShop.sol\":2077:2097  shopItems[_contract] */\n      and\n      0x00\n      swap1\n      dup2\n      mstore\n        /* \"OasisShop.sol\":2077:2086  shopItems */\n      0x01\n        /* \"OasisShop.sol\":2077:2097  shopItems[_contract] */\n      0x20\n      mstore\n      0x40\n      swap1\n      keccak256\n        /* \"OasisShop.sol\":2070:2097  delete shopItems[_contract] */\n      dup1\n      sload\n      0xffffffffffffffffffffffff0000000000000000000000000000000000000000\n      and\n      swap1\n      sstore\n        /* \"OasisShop.sol\":2001:2105  function removeItem(address _contract) external onlyOwner {... */\n      jump\t// out\n        /* \"OasisShop.sol\":2113:2219  function withdraw() external onlyOwner {... */\n    tag_26:\n        /* \"@openzeppelin/contracts/access/Ownable.sol\":1094:1107   */\n      tag_82\n        /* \"@openzeppelin/contracts/access/Ownable.sol\":1094:1105   */\n      tag_79\n        /* \"@openzeppelin/contracts/access/Ownable.sol\":1094:1107   */\n      jump\t// in\n    tag_82:\n        /* \"@openzeppelin/contracts/access/Ownable.sol\":1247:1254   */\n      0x00\n        /* \"@openzeppelin/contracts/access/Ownable.sol\":1273:1279   */\n      sload\n      0x0100\n      swap1\n      div\n      sub(shl(0xa0, 0x01), 0x01)\n      and\n      sub(shl(0xa0, 0x01), 0x01)\n        /* \"OasisShop.sol\":2163:2188  payable(owner()).transfer */\n      and\n        /* \"OasisShop.sol\":2163:2211  payable(owner()).transfer(address(this).balance) */\n      0x08fc\n        /* \"OasisShop.sol\":2189:2210  address(this).balance */\n      selfbalance\n        /* \"OasisShop.sol\":2163:2211  payable(owner()).transfer(address(this).balance) */\n      swap1\n      dup2\n      iszero\n      mul\n      swap1\n      mload(0x40)\n      0x00\n      mload(0x40)\n      dup1\n      dup4\n      sub\n      dup2\n      dup6\n      dup9\n      dup9\n      call\n      swap4\n      pop\n      pop\n      pop\n      pop\n      iszero\n      dup1\n      iszero\n      tag_86\n      jumpi\n      returndatasize\n      0x00\n      dup1\n      returndatacopy\n      revert(0x00, returndatasize)\n    tag_86:\n      pop\n        /* \"OasisShop.sol\":2113:2219  function withdraw() external onlyOwner {... */\n      jump\t// out\n        /* \"OasisShop.sol\":1543:1610  function unpause() external onlyOwner {... */\n    tag_29:\n        /* \"@openzeppelin/contracts/access/Ownable.sol\":1094:1107   */\n      tag_88\n        /* \"@openzeppelin/contracts/access/Ownable.sol\":1094:1105   */\n      tag_79\n        /* \"@openzeppelin/contracts/access/Ownable.sol\":1094:1107   */\n      jump\t// in\n    tag_88:\n        /* \"OasisShop.sol\":1592:1602  _unpause() */\n      tag_90\n        /* \"OasisShop.sol\":1592:1600  _unpause */\n      tag_91\n        /* \"OasisShop.sol\":1592:1602  _unpause() */\n      jump\t// in\n    tag_90:\n        /* \"OasisShop.sol\":1543:1610  function unpause() external onlyOwner {... */\n      jump\t// out\n        /* \"@openzeppelin/contracts/access/Ownable.sol\":1831:1932   */\n    tag_42:\n        /* \"@openzeppelin/contracts/access/Ownable.sol\":1094:1107   */\n      tag_94\n        /* \"@openzeppelin/contracts/access/Ownable.sol\":1094:1105   */\n      tag_79\n        /* \"@openzeppelin/contracts/access/Ownable.sol\":1094:1107   */\n      jump\t// in\n    tag_94:\n        /* \"@openzeppelin/contracts/access/Ownable.sol\":1895:1925   */\n      tag_90\n        /* \"@openzeppelin/contracts/access/Ownable.sol\":1922:1923   */\n      0x00\n        /* \"@openzeppelin/contracts/access/Ownable.sol\":1895:1913   */\n      tag_97\n        /* \"@openzeppelin/contracts/access/Ownable.sol\":1895:1925   */\n      jump\t// in\n        /* \"OasisShop.sol\":1472:1535  function pause() external onlyOwner {... */\n    tag_51:\n        /* \"@openzeppelin/contracts/access/Ownable.sol\":1094:1107   */\n      tag_99\n        /* \"@openzeppelin/contracts/access/Ownable.sol\":1094:1105   */\n      tag_79\n        /* \"@openzeppelin/contracts/access/Ownable.sol\":1094:1107   */\n      jump\t// in\n    tag_99:\n        /* \"OasisShop.sol\":1519:1527  _pause() */\n      tag_90\n        /* \"OasisShop.sol\":1519:1525  _pause */\n      tag_102\n        /* \"OasisShop.sol\":1519:1527  _pause() */\n      jump\t// in\n        /* \"OasisShop.sol\":2257:3766  function purchase(address _contract, uint256 _quantity) external payable whenNotPaused {... */\n    tag_59:\n        /* \"@openzeppelin/contracts/security/Pausable.sol\":1239:1258   */\n      tag_105\n        /* \"@openzeppelin/contracts/security/Pausable.sol\":1239:1256   */\n      tag_106\n        /* \"@openzeppelin/contracts/security/Pausable.sol\":1239:1258   */\n      jump\t// in\n    tag_105:\n      sub(shl(0xa0, 0x01), 0x01)\n        /* \"OasisShop.sol\":2399:2419  shopItems[_contract] */\n      dup3\n      and\n        /* \"OasisShop.sol\":2376:2396  ShopItem memory item */\n      0x00\n        /* \"OasisShop.sol\":2399:2419  shopItems[_contract] */\n      swap1\n      dup2\n      mstore\n        /* \"OasisShop.sol\":2399:2408  shopItems */\n      0x01\n        /* \"OasisShop.sol\":2399:2419  shopItems[_contract] */\n      0x20\n      dup2\n      dup2\n      mstore\n      0x40\n      swap3\n      dup4\n      swap1\n      keccak256\n        /* \"OasisShop.sol\":2376:2419  ShopItem memory item = shopItems[_contract] */\n      dup4\n      mload\n      0xa0\n      dup2\n      add\n      dup6\n      mstore\n      swap1\n      sload\n      0xff\n      dup1\n      dup3\n      and\n      iszero\n      iszero\n      dup4\n      mstore\n      0x0100\n      dup3\n      div\n      dup2\n      and\n      iszero\n      iszero\n      swap4\n      dup4\n      add\n      swap4\n      swap1\n      swap4\n      mstore\n      0x010000\n      dup2\n      div\n      dup4\n      and\n      iszero\n      iszero\n      swap5\n      dup3\n      add\n      swap5\n      swap1\n      swap5\n      mstore\n      0x01000000\n      dup5\n      div\n      swap1\n      swap2\n      and\n      iszero\n      iszero\n      0x60\n      dup3\n      add\n      mstore\n      0x0100000000\n      swap1\n      swap3\n      div\n      sub(shl(0x80, 0x01), 0x01)\n      and\n      0x80\n      dup4\n      add\n      mstore\n      dup3\n      lt\n      dup1\n        /* \"OasisShop.sol\":2459:2490  1 > _quantity || !item.isActive */\n      tag_108\n      jumpi\n      pop\n        /* \"OasisShop.sol\":2477:2490  item.isActive */\n      dup1\n      mload\n        /* \"OasisShop.sol\":2476:2490  !item.isActive */\n      iszero\n        /* \"OasisShop.sol\":2459:2490  1 > _quantity || !item.isActive */\n    tag_108:\n        /* \"OasisShop.sol\":2455:2517  if (1 > _quantity || !item.isActive) revert InvalidArguments() */\n      iszero\n      tag_109\n      jumpi\n        /* \"OasisShop.sol\":2499:2517  InvalidArguments() */\n      mload(0x40)\n      shl(0xe2, 0x17dbc4cb)\n      dup2\n      mstore\n      0x04\n      add\n      mload(0x40)\n      dup1\n      swap2\n      sub\n      swap1\n      revert\n        /* \"OasisShop.sol\":2455:2517  if (1 > _quantity || !item.isActive) revert InvalidArguments() */\n    tag_109:\n        /* \"OasisShop.sol\":2568:2585  uint256 totalCost */\n      0x00\n        /* \"OasisShop.sol\":2601:2610  _quantity */\n      dup3\n        /* \"OasisShop.sol\":2588:2592  item */\n      dup3\n        /* \"OasisShop.sol\":2588:2598  item.price */\n      0x80\n      add\n      mload\n      sub(shl(0x80, 0x01), 0x01)\n        /* \"OasisShop.sol\":2588:2610  item.price * _quantity */\n      and\n      tag_110\n      swap2\n      swap1\n      tag_111\n      jump\t// in\n    tag_110:\n        /* \"OasisShop.sol\":2568:2610  uint256 totalCost = item.price * _quantity */\n      swap1\n      pop\n        /* \"OasisShop.sol\":2621:2640  uint256 userBalance */\n      0x00\n        /* \"OasisShop.sol\":2643:2647  item */\n      dup3\n        /* \"OasisShop.sol\":2643:2655  item.withOst */\n      0x60\n      add\n      mload\n        /* \"OasisShop.sol\":2643:2703  item.withOst ? IERC20(ost).balanceOf(msg.sender) : msg.value */\n      tag_112\n      jumpi\n        /* \"OasisShop.sol\":2694:2703  msg.value */\n      callvalue\n        /* \"OasisShop.sol\":2643:2703  item.withOst ? IERC20(ost).balanceOf(msg.sender) : msg.value */\n      jump(tag_117)\n    tag_112:\n        /* \"OasisShop.sol\":2658:2691  IERC20(ost).balanceOf(msg.sender) */\n      mload(0x40)\n      shl(0xe0, 0x70a08231)\n      dup2\n      mstore\n        /* \"OasisShop.sol\":2680:2690  msg.sender */\n      caller\n        /* \"OasisShop.sol\":2658:2691  IERC20(ost).balanceOf(msg.sender) */\n      0x04\n      dup3\n      add\n        /* \"#utility.yul\":744:818   */\n      mstore\n        /* \"OasisShop.sol\":2665:2668  ost */\n      immutable(\"0x7468eddb0720a03646876d25045fa535478c57a57b912a197efd90e8d667279c\")\n      sub(shl(0xa0, 0x01), 0x01)\n        /* \"OasisShop.sol\":2658:2679  IERC20(ost).balanceOf */\n      and\n      swap1\n      0x70a08231\n      swap1\n        /* \"#utility.yul\":717:735   */\n      0x24\n      add\n        /* \"OasisShop.sol\":2658:2691  IERC20(ost).balanceOf(msg.sender) */\n      0x20\n      mload(0x40)\n      dup1\n      dup4\n      sub\n      dup2\n      dup7\n      gas\n      staticcall\n      iszero\n      dup1\n      iszero\n      tag_116\n      jumpi\n      returndatasize\n      0x00\n      dup1\n      returndatacopy\n      revert(0x00, returndatasize)\n    tag_116:\n      pop\n      pop\n      pop\n      pop\n      mload(0x40)\n      returndatasize\n      not(0x1f)\n      0x1f\n      dup3\n      add\n      and\n      dup3\n      add\n      dup1\n      0x40\n      mstore\n      pop\n      dup2\n      add\n      swap1\n      tag_117\n      swap2\n      swap1\n      tag_118\n      jump\t// in\n    tag_117:\n        /* \"OasisShop.sol\":2621:2703  uint256 userBalance = item.withOst ? IERC20(ost).balanceOf(msg.sender) : msg.value */\n      swap1\n      pop\n        /* \"OasisShop.sol\":2732:2741  totalCost */\n      dup2\n        /* \"OasisShop.sol\":2718:2729  userBalance */\n      dup2\n        /* \"OasisShop.sol\":2718:2741  userBalance < totalCost */\n      lt\n        /* \"OasisShop.sol\":2714:2769  if (userBalance < totalCost) revert UserBalanceTooLow() */\n      iszero\n      tag_119\n      jumpi\n        /* \"OasisShop.sol\":2750:2769  UserBalanceTooLow() */\n      mload(0x40)\n      shl(0xe0, 0x4ddc3b85)\n      dup2\n      mstore\n      0x04\n      add\n      mload(0x40)\n      dup1\n      swap2\n      sub\n      swap1\n      revert\n        /* \"OasisShop.sol\":2714:2769  if (userBalance < totalCost) revert UserBalanceTooLow() */\n    tag_119:\n        /* \"OasisShop.sol\":2818:2822  item */\n      dup3\n        /* \"OasisShop.sol\":2818:2830  item.withOst */\n      0x60\n      add\n      mload\n        /* \"OasisShop.sol\":2814:2938  if (item.withOst)... */\n      iszero\n      tag_127\n      jumpi\n        /* \"OasisShop.sol\":2850:2913  IERC20(ost).transferFrom(msg.sender, oasisGraveyard, totalCost) */\n      mload(0x40)\n      shl(0xe0, 0x23b872dd)\n      dup2\n      mstore\n        /* \"OasisShop.sol\":2875:2885  msg.sender */\n      caller\n        /* \"OasisShop.sol\":2850:2913  IERC20(ost).transferFrom(msg.sender, oasisGraveyard, totalCost) */\n      0x04\n      dup3\n      add\n        /* \"#utility.yul\":3442:3476   */\n      mstore\n      sub(shl(0xa0, 0x01), 0x01)\n        /* \"OasisShop.sol\":2887:2901  oasisGraveyard */\n      immutable(\"0x6899d1fa68cf48634632762f4cd0ec59d591ccbdd349962c4ae5d93ddad42969\")\n        /* \"#utility.yul\":3512:3527   */\n      dup2\n      and\n        /* \"#utility.yul\":3492:3510   */\n      0x24\n      dup4\n      add\n        /* \"#utility.yul\":3485:3528   */\n      mstore\n        /* \"#utility.yul\":3544:3562   */\n      0x44\n      dup3\n      add\n        /* \"#utility.yul\":3537:3571   */\n      dup5\n      swap1\n      mstore\n        /* \"OasisShop.sol\":2857:2860  ost */\n      immutable(\"0x7468eddb0720a03646876d25045fa535478c57a57b912a197efd90e8d667279c\")\n        /* \"OasisShop.sol\":2850:2874  IERC20(ost).transferFrom */\n      and\n      swap1\n      0x23b872dd\n      swap1\n        /* \"#utility.yul\":3354:3372   */\n      0x64\n      add\n        /* \"OasisShop.sol\":2850:2913  IERC20(ost).transferFrom(msg.sender, oasisGraveyard, totalCost) */\n      0x20\n      mload(0x40)\n      dup1\n      dup4\n      sub\n      dup2\n      0x00\n      dup8\n      gas\n      call\n      iszero\n      dup1\n      iszero\n      tag_124\n      jumpi\n      returndatasize\n      0x00\n      dup1\n      returndatacopy\n      revert(0x00, returndatasize)\n    tag_124:\n      pop\n      pop\n      pop\n      pop\n      mload(0x40)\n      returndatasize\n      not(0x1f)\n      0x1f\n      dup3\n      add\n      and\n      dup3\n      add\n      dup1\n      0x40\n      mstore\n      pop\n      dup2\n      add\n      swap1\n      tag_125\n      swap2\n      swap1\n      tag_126\n      jump\t// in\n    tag_125:\n        /* \"OasisShop.sol\":2845:2938  if (!IERC20(ost).transferFrom(msg.sender, oasisGraveyard, totalCost)) revert TransferFailed() */\n      tag_127\n      jumpi\n        /* \"OasisShop.sol\":2922:2938  TransferFailed() */\n      mload(0x40)\n      shl(0xe3, 0x12171d83)\n      dup2\n      mstore\n      0x04\n      add\n      mload(0x40)\n      dup1\n      swap2\n      sub\n      swap1\n      revert\n        /* \"OasisShop.sol\":2845:2938  if (!IERC20(ost).transferFrom(msg.sender, oasisGraveyard, totalCost)) revert TransferFailed() */\n    tag_127:\n        /* \"OasisShop.sol\":2983:2987  item */\n      dup3\n        /* \"OasisShop.sol\":2983:2992  item.is20 */\n      0x40\n      add\n      mload\n        /* \"OasisShop.sol\":2979:3693  if (item.is20) {... */\n      iszero\n      tag_128\n      jumpi\n        /* \"OasisShop.sol\":3066:3103  IERC20(_contract).balanceOf(treasury) */\n      mload(0x40)\n      shl(0xe0, 0x70a08231)\n      dup2\n      mstore\n      sub(shl(0xa0, 0x01), 0x01)\n        /* \"OasisShop.sol\":3094:3102  treasury */\n      immutable(\"0x7a91009c6f7b1a275e5fe1d4c73bd6d7322fe5a62b5031b46ed03b8b1a3c30b8\")\n        /* \"#utility.yul\":762:817   */\n      dup2\n      and\n        /* \"OasisShop.sol\":3066:3103  IERC20(_contract).balanceOf(treasury) */\n      0x04\n      dup4\n      add\n        /* \"#utility.yul\":744:818   */\n      mstore\n        /* \"OasisShop.sol\":3066:3093  IERC20(_contract).balanceOf */\n      dup7\n      and\n      swap1\n      0x70a08231\n      swap1\n        /* \"#utility.yul\":717:735   */\n      0x24\n      add\n        /* \"OasisShop.sol\":3066:3103  IERC20(_contract).balanceOf(treasury) */\n      0x20\n      mload(0x40)\n      dup1\n      dup4\n      sub\n      dup2\n      dup7\n      gas\n      staticcall\n      iszero\n      dup1\n      iszero\n      tag_131\n      jumpi\n      returndatasize\n      0x00\n      dup1\n      returndatacopy\n      revert(0x00, returndatasize)\n    tag_131:\n      pop\n      pop\n      pop\n      pop\n      mload(0x40)\n      returndatasize\n      not(0x1f)\n      0x1f\n      dup3\n      add\n      and\n      dup3\n      add\n      dup1\n      0x40\n      mstore\n      pop\n      dup2\n      add\n      swap1\n      tag_132\n      swap2\n      swap1\n      tag_118\n      jump\t// in\n    tag_132:\n        /* \"OasisShop.sol\":3054:3063  _quantity */\n      dup5\n        /* \"OasisShop.sol\":3054:3103  _quantity > IERC20(_contract).balanceOf(treasury) */\n      gt\n        /* \"OasisShop.sol\":3050:3135  if (_quantity > IERC20(_contract).balanceOf(treasury)) revert TreasuryBalanceTooLow() */\n      iszero\n      tag_133\n      jumpi\n        /* \"OasisShop.sol\":3112:3135  TreasuryBalanceTooLow() */\n      mload(0x40)\n      shl(0xe4, 0x06e112e3)\n      dup2\n      mstore\n      0x04\n      add\n      mload(0x40)\n      dup1\n      swap2\n      sub\n      swap1\n      revert\n        /* \"OasisShop.sol\":3050:3135  if (_quantity > IERC20(_contract).balanceOf(treasury)) revert TreasuryBalanceTooLow() */\n    tag_133:\n        /* \"OasisShop.sol\":3196:3259  IERC20(_contract).transferFrom(treasury, msg.sender, _quantity) */\n      mload(0x40)\n      shl(0xe0, 0x23b872dd)\n      dup2\n      mstore\n      sub(shl(0xa0, 0x01), 0x01)\n        /* \"OasisShop.sol\":3227:3235  treasury */\n      immutable(\"0x7a91009c6f7b1a275e5fe1d4c73bd6d7322fe5a62b5031b46ed03b8b1a3c30b8\")\n        /* \"#utility.yul\":3460:3475   */\n      dup2\n      and\n        /* \"OasisShop.sol\":3196:3259  IERC20(_contract).transferFrom(treasury, msg.sender, _quantity) */\n      0x04\n      dup4\n      add\n        /* \"#utility.yul\":3442:3476   */\n      mstore\n        /* \"OasisShop.sol\":3237:3247  msg.sender */\n      caller\n        /* \"#utility.yul\":3492:3510   */\n      0x24\n      dup4\n      add\n        /* \"#utility.yul\":3485:3528   */\n      mstore\n        /* \"#utility.yul\":3544:3562   */\n      0x44\n      dup3\n      add\n        /* \"#utility.yul\":3537:3571   */\n      dup7\n      swap1\n      mstore\n        /* \"OasisShop.sol\":3196:3226  IERC20(_contract).transferFrom */\n      dup7\n      and\n      swap1\n      0x23b872dd\n      swap1\n        /* \"#utility.yul\":3354:3372   */\n      0x64\n      add\n        /* \"OasisShop.sol\":3196:3259  IERC20(_contract).transferFrom(treasury, msg.sender, _quantity) */\n      0x20\n      mload(0x40)\n      dup1\n      dup4\n      sub\n      dup2\n      0x00\n      dup8\n      gas\n      call\n      iszero\n      dup1\n      iszero\n      tag_136\n      jumpi\n      returndatasize\n      0x00\n      dup1\n      returndatacopy\n      revert(0x00, returndatasize)\n    tag_136:\n      pop\n      pop\n      pop\n      pop\n      mload(0x40)\n      returndatasize\n      not(0x1f)\n      0x1f\n      dup3\n      add\n      and\n      dup3\n      add\n      dup1\n      0x40\n      mstore\n      pop\n      dup2\n      add\n      swap1\n      tag_137\n      swap2\n      swap1\n      tag_126\n      jump\t// in\n    tag_137:\n        /* \"OasisShop.sol\":3191:3284  if (!IERC20(_contract).transferFrom(treasury, msg.sender, _quantity)) revert TransferFailed() */\n      tag_138\n      jumpi\n        /* \"OasisShop.sol\":3268:3284  TransferFailed() */\n      mload(0x40)\n      shl(0xe3, 0x12171d83)\n      dup2\n      mstore\n      0x04\n      add\n      mload(0x40)\n      dup1\n      swap2\n      sub\n      swap1\n      revert\n        /* \"OasisShop.sol\":3191:3284  if (!IERC20(_contract).transferFrom(treasury, msg.sender, _quantity)) revert TransferFailed() */\n    tag_138:\n        /* \"OasisShop.sol\":2979:3693  if (item.is20) {... */\n      jump(tag_155)\n    tag_128:\n        /* \"OasisShop.sol\":3306:3310  item */\n      dup3\n        /* \"OasisShop.sol\":3306:3316  item.is721 */\n      0x20\n      add\n      mload\n        /* \"OasisShop.sol\":3302:3693  if (item.is721) {... */\n      iszero\n      tag_140\n      jumpi\n        /* \"OasisShop.sol\":3406:3437  uint256[] memory randomTokenIds */\n      0x00\n        /* \"OasisShop.sol\":3440:3479  getRandomTokenIds(_contract, _quantity) */\n      tag_141\n        /* \"OasisShop.sol\":3458:3467  _contract */\n      dup7\n        /* \"OasisShop.sol\":3469:3478  _quantity */\n      dup7\n        /* \"OasisShop.sol\":3440:3457  getRandomTokenIds */\n      tag_142\n        /* \"OasisShop.sol\":3440:3479  getRandomTokenIds(_contract, _quantity) */\n      jump\t// in\n    tag_141:\n        /* \"OasisShop.sol\":3406:3479  uint256[] memory randomTokenIds = getRandomTokenIds(_contract, _quantity) */\n      swap1\n      pop\n        /* \"OasisShop.sol\":3499:3508  uint256 i */\n      0x00\n        /* \"OasisShop.sol\":3494:3623  for (uint256 i = 0; i < _quantity; i++)... */\n    tag_143:\n        /* \"OasisShop.sol\":3518:3527  _quantity */\n      dup6\n        /* \"OasisShop.sol\":3514:3515  i */\n      dup2\n        /* \"OasisShop.sol\":3514:3527  i < _quantity */\n      lt\n        /* \"OasisShop.sol\":3494:3623  for (uint256 i = 0; i < _quantity; i++)... */\n      iszero\n      tag_144\n      jumpi\n        /* \"OasisShop.sol\":3559:3568  _contract */\n      dup7\n      sub(shl(0xa0, 0x01), 0x01)\n        /* \"OasisShop.sol\":3551:3582  IERC721(_contract).transferFrom */\n      and\n      0x23b872dd\n        /* \"OasisShop.sol\":3583:3591  treasury */\n      immutable(\"0x7a91009c6f7b1a275e5fe1d4c73bd6d7322fe5a62b5031b46ed03b8b1a3c30b8\")\n        /* \"OasisShop.sol\":3593:3603  msg.sender */\n      caller\n        /* \"OasisShop.sol\":3605:3619  randomTokenIds */\n      dup6\n        /* \"OasisShop.sol\":3620:3621  i */\n      dup6\n        /* \"OasisShop.sol\":3605:3622  randomTokenIds[i] */\n      dup2\n      mload\n      dup2\n      lt\n      tag_147\n      jumpi\n      tag_147\n      tag_148\n      jump\t// in\n    tag_147:\n      0x20\n      swap1\n      dup2\n      mul\n      swap2\n      swap1\n      swap2\n      add\n      add\n      mload\n        /* \"OasisShop.sol\":3551:3623  IERC721(_contract).transferFrom(treasury, msg.sender, randomTokenIds[i]) */\n      mload(0x40)\n      0xffffffff00000000000000000000000000000000000000000000000000000000\n      0xe0\n      dup7\n      swap1\n      shl\n      and\n      dup2\n      mstore\n      sub(shl(0xa0, 0x01), 0x01)\n        /* \"#utility.yul\":3460:3475   */\n      swap4\n      dup5\n      and\n        /* \"OasisShop.sol\":3551:3623  IERC721(_contract).transferFrom(treasury, msg.sender, randomTokenIds[i]) */\n      0x04\n      dup3\n      add\n        /* \"#utility.yul\":3442:3476   */\n      mstore\n        /* \"#utility.yul\":3512:3527   */\n      swap3\n      swap1\n      swap2\n      and\n        /* \"#utility.yul\":3492:3510   */\n      0x24\n      dup4\n      add\n        /* \"#utility.yul\":3485:3528   */\n      mstore\n        /* \"#utility.yul\":3544:3562   */\n      0x44\n      dup3\n      add\n        /* \"#utility.yul\":3537:3571   */\n      mstore\n        /* \"#utility.yul\":3354:3372   */\n      0x64\n      add\n        /* \"OasisShop.sol\":3551:3623  IERC721(_contract).transferFrom(treasury, msg.sender, randomTokenIds[i]) */\n      0x00\n      mload(0x40)\n      dup1\n      dup4\n      sub\n      dup2\n      0x00\n      dup8\n      dup1\n      extcodesize\n      iszero\n      dup1\n      iszero\n      tag_150\n      jumpi\n      0x00\n      dup1\n      revert\n    tag_150:\n      pop\n      gas\n      call\n      iszero\n      dup1\n      iszero\n      tag_152\n      jumpi\n      returndatasize\n      0x00\n      dup1\n      returndatacopy\n      revert(0x00, returndatasize)\n    tag_152:\n      pop\n      pop\n      pop\n      pop\n        /* \"OasisShop.sol\":3529:3532  i++ */\n      dup1\n      dup1\n      tag_153\n      swap1\n      tag_154\n      jump\t// in\n    tag_153:\n      swap2\n      pop\n      pop\n        /* \"OasisShop.sol\":3494:3623  for (uint256 i = 0; i < _quantity; i++)... */\n      jump(tag_143)\n    tag_144:\n      pop\n        /* \"OasisShop.sol\":3318:3635  {... */\n      pop\n        /* \"OasisShop.sol\":3302:3693  if (item.is721) {... */\n      jump(tag_155)\n    tag_140:\n        /* \"OasisShop.sol\":3663:3681  InvalidArguments() */\n      mload(0x40)\n      shl(0xe2, 0x17dbc4cb)\n      dup2\n      mstore\n      0x04\n      add\n      mload(0x40)\n      dup1\n      swap2\n      sub\n      swap1\n      revert\n        /* \"OasisShop.sol\":3302:3693  if (item.is721) {... */\n    tag_155:\n        /* \"OasisShop.sol\":3710:3758  PurchasedItems(msg.sender, _contract, _quantity) */\n      mload(0x40)\n        /* \"OasisShop.sol\":3748:3757  _quantity */\n      dup5\n      swap1\n      sub(shl(0xa0, 0x01), 0x01)\n        /* \"OasisShop.sol\":3710:3758  PurchasedItems(msg.sender, _contract, _quantity) */\n      dup8\n      and\n      swap1\n        /* \"OasisShop.sol\":3725:3735  msg.sender */\n      caller\n      swap1\n        /* \"OasisShop.sol\":3710:3758  PurchasedItems(msg.sender, _contract, _quantity) */\n      0x6b46b1fc4875cc1cc6d7951caf295ac5028b3fe91e7a9885fd9de8aeb79d2422\n      swap1\n      0x00\n      swap1\n      log4\n        /* \"OasisShop.sol\":2344:3766  {... */\n      pop\n      pop\n      pop\n        /* \"OasisShop.sol\":2257:3766  function purchase(address _contract, uint256 _quantity) external payable whenNotPaused {... */\n      pop\n      pop\n      jump\t// out\n        /* \"OasisShop.sol\":1618:1993  function addItem(... */\n    tag_72:\n        /* \"@openzeppelin/contracts/access/Ownable.sol\":1094:1107   */\n      tag_157\n        /* \"@openzeppelin/contracts/access/Ownable.sol\":1094:1105   */\n      tag_79\n        /* \"@openzeppelin/contracts/access/Ownable.sol\":1094:1107   */\n      jump\t// in\n    tag_157:\n      sub(shl(0xa0, 0x01), 0x01)\n        /* \"OasisShop.sol\":1825:1848  _contract != address(0) */\n      dup7\n      and\n      iszero\n      dup1\n      iszero\n      swap1\n        /* \"OasisShop.sol\":1825:1862  _contract != address(0) && _price > 0 */\n      tag_159\n      jumpi\n      pop\n        /* \"OasisShop.sol\":1861:1862  0 */\n      0x00\n        /* \"OasisShop.sol\":1852:1858  _price */\n      dup2\n      sub(shl(0x80, 0x01), 0x01)\n        /* \"OasisShop.sol\":1852:1862  _price > 0 */\n      and\n      gt\n        /* \"OasisShop.sol\":1825:1862  _contract != address(0) && _price > 0 */\n    tag_159:\n        /* \"OasisShop.sol\":1825:1875  _contract != address(0) && _price > 0 && _isActive */\n      dup1\n      iszero\n      tag_160\n      jumpi\n      pop\n        /* \"OasisShop.sol\":1866:1875  _isActive */\n      dup5\n        /* \"OasisShop.sol\":1825:1875  _contract != address(0) && _price > 0 && _isActive */\n    tag_160:\n        /* \"OasisShop.sol\":1825:1896  _contract != address(0) && _price > 0 && _isActive && (_is20 != _is721) */\n      dup1\n      iszero\n      tag_161\n      jumpi\n      pop\n        /* \"OasisShop.sol\":1889:1895  _is721 */\n      dup4\n        /* \"OasisShop.sol\":1880:1895  _is20 != _is721 */\n      iszero\n      iszero\n        /* \"OasisShop.sol\":1880:1885  _is20 */\n      dup4\n        /* \"OasisShop.sol\":1880:1895  _is20 != _is721 */\n      iszero\n      iszero\n      eq\n      iszero\n        /* \"OasisShop.sol\":1825:1896  _contract != address(0) && _price > 0 && _isActive && (_is20 != _is721) */\n    tag_161:\n        /* \"OasisShop.sol\":1817:1897  require(_contract != address(0) && _price > 0 && _isActive && (_is20 != _is721)) */\n      tag_162\n      jumpi\n      0x00\n      dup1\n      revert\n    tag_162:\n        /* \"OasisShop.sol\":1933:1985  ShopItem(_isActive, _is721, _is20, _withOst, _price) */\n      0x40\n      dup1\n      mload\n      0xa0\n      dup2\n      add\n      dup3\n      mstore\n      swap6\n      iszero\n      iszero\n      dup7\n      mstore\n      swap4\n      iszero\n      iszero\n      0x20\n      dup1\n      dup8\n      add\n      swap2\n      dup3\n      mstore\n      swap4\n      iszero\n      iszero\n      dup7\n      dup7\n      add\n      swap1\n      dup2\n      mstore\n      swap3\n      iszero\n      iszero\n      0x60\n      dup8\n      add\n      swap1\n      dup2\n      mstore\n      sub(shl(0x80, 0x01), 0x01)\n      swap3\n      dup4\n      and\n      0x80\n      dup9\n      add\n      swap1\n      dup2\n      mstore\n      sub(shl(0xa0, 0x01), 0x01)\n        /* \"OasisShop.sol\":1910:1930  shopItems[_contract] */\n      swap9\n      swap1\n      swap9\n      and\n      0x00\n      swap1\n      dup2\n      mstore\n        /* \"OasisShop.sol\":1910:1919  shopItems */\n      0x01\n        /* \"OasisShop.sol\":1910:1930  shopItems[_contract] */\n      swap1\n      swap6\n      mstore\n      swap5\n      swap1\n      swap4\n      keccak256\n        /* \"OasisShop.sol\":1910:1985  shopItems[_contract] = ShopItem(_isActive, _is721, _is20, _withOst, _price) */\n      swap5\n      mload\n      dup6\n      sload\n      swap4\n      mload\n      swap3\n      mload\n      swap5\n      mload\n      swap7\n      mload\n      not(0xffff)\n      swap1\n      swap5\n      and\n      swap1\n      iszero\n      iszero\n      not(0xff00)\n      and\n      or\n      0x0100\n      swap3\n      iszero\n      iszero\n      swap3\n      swap1\n      swap3\n      mul\n      swap2\n      swap1\n      swap2\n      or\n      not(0xffff0000)\n      and\n      0x010000\n      swap4\n      iszero\n      iszero\n      swap4\n      swap1\n      swap4\n      mul\n      not(0xff000000)\n      and\n      swap3\n      swap1\n      swap3\n      or\n      0x01000000\n      swap5\n      iszero\n      iszero\n      swap5\n      swap1\n      swap5\n      mul\n      swap4\n      swap1\n      swap4\n      or\n      0xffffffffffffffffffffffff00000000000000000000000000000000ffffffff\n      and\n      0x0100000000\n      swap4\n      swap1\n      swap2\n      and\n      swap3\n      swap1\n      swap3\n      mul\n      swap2\n      swap1\n      swap2\n      or\n      swap1\n      sstore\n        /* \"OasisShop.sol\":1618:1993  function addItem(... */\n      jump\t// out\n        /* \"@openzeppelin/contracts/access/Ownable.sol\":2081:2279   */\n    tag_76:\n        /* \"@openzeppelin/contracts/access/Ownable.sol\":1094:1107   */\n      tag_164\n        /* \"@openzeppelin/contracts/access/Ownable.sol\":1094:1105   */\n      tag_79\n        /* \"@openzeppelin/contracts/access/Ownable.sol\":1094:1107   */\n      jump\t// in\n    tag_164:\n      sub(shl(0xa0, 0x01), 0x01)\n        /* \"@openzeppelin/contracts/access/Ownable.sol\":2169:2191   */\n      dup2\n      and\n        /* \"@openzeppelin/contracts/access/Ownable.sol\":2161:2234   */\n      tag_166\n      jumpi\n      mload(0x40)\n      shl(0xe5, 0x461bcd)\n      dup2\n      mstore\n        /* \"#utility.yul\":4306:4308   */\n      0x20\n        /* \"@openzeppelin/contracts/access/Ownable.sol\":2161:2234   */\n      0x04\n      dup3\n      add\n        /* \"#utility.yul\":4288:4309   */\n      mstore\n        /* \"#utility.yul\":4345:4347   */\n      0x26\n        /* \"#utility.yul\":4325:4343   */\n      0x24\n      dup3\n      add\n        /* \"#utility.yul\":4318:4348   */\n      mstore\n        /* \"#utility.yul\":4384:4418   */\n      0x4f776e61626c653a206e6577206f776e657220697320746865207a65726f2061\n        /* \"#utility.yul\":4364:4382   */\n      0x44\n      dup3\n      add\n        /* \"#utility.yul\":4357:4419   */\n      mstore\n        /* \"#utility.yul\":4455:4463   */\n      0x6464726573730000000000000000000000000000000000000000000000000000\n        /* \"#utility.yul\":4435:4453   */\n      0x64\n      dup3\n      add\n        /* \"#utility.yul\":4428:4464   */\n      mstore\n        /* \"#utility.yul\":4481:4500   */\n      0x84\n      add\n        /* \"@openzeppelin/contracts/access/Ownable.sol\":2161:2234   */\n    tag_167:\n      mload(0x40)\n      dup1\n      swap2\n      sub\n      swap1\n      revert\n    tag_166:\n        /* \"@openzeppelin/contracts/access/Ownable.sol\":2244:2272   */\n      tag_86\n        /* \"@openzeppelin/contracts/access/Ownable.sol\":2263:2271   */\n      dup2\n        /* \"@openzeppelin/contracts/access/Ownable.sol\":2244:2262   */\n      tag_97\n        /* \"@openzeppelin/contracts/access/Ownable.sol\":2244:2272   */\n      jump\t// in\n        /* \"@openzeppelin/contracts/access/Ownable.sol\":1359:1489   */\n    tag_79:\n        /* \"@openzeppelin/contracts/access/Ownable.sol\":1247:1254   */\n      0x00\n        /* \"@openzeppelin/contracts/access/Ownable.sol\":1273:1279   */\n      sload\n      sub(shl(0xa0, 0x01), 0x01)\n      0x0100\n      swap1\n      swap2\n      div\n      and\n        /* \"@openzeppelin/contracts/utils/Context.sol\":719:729   */\n      caller\n        /* \"@openzeppelin/contracts/access/Ownable.sol\":1422:1445   */\n      eq\n        /* \"@openzeppelin/contracts/access/Ownable.sol\":1414:1482   */\n      tag_90\n      jumpi\n      mload(0x40)\n      shl(0xe5, 0x461bcd)\n      dup2\n      mstore\n        /* \"#utility.yul\":4713:4715   */\n      0x20\n        /* \"@openzeppelin/contracts/access/Ownable.sol\":1414:1482   */\n      0x04\n      dup3\n      add\n        /* \"#utility.yul\":4695:4716   */\n      dup2\n      swap1\n      mstore\n        /* \"#utility.yul\":4732:4750   */\n      0x24\n      dup3\n      add\n        /* \"#utility.yul\":4725:4755   */\n      mstore\n        /* \"#utility.yul\":4791:4825   */\n      0x4f776e61626c653a2063616c6c6572206973206e6f7420746865206f776e6572\n        /* \"#utility.yul\":4771:4789   */\n      0x44\n      dup3\n      add\n        /* \"#utility.yul\":4764:4826   */\n      mstore\n        /* \"#utility.yul\":4843:4861   */\n      0x64\n      add\n        /* \"@openzeppelin/contracts/access/Ownable.sol\":1414:1482   */\n      tag_167\n        /* \"#utility.yul\":4511:4867   */\n      jump\n        /* \"@openzeppelin/contracts/security/Pausable.sol\":2433:2550   */\n    tag_91:\n        /* \"@openzeppelin/contracts/security/Pausable.sol\":1486:1502   */\n      tag_178\n        /* \"@openzeppelin/contracts/security/Pausable.sol\":1486:1500   */\n      tag_179\n        /* \"@openzeppelin/contracts/security/Pausable.sol\":1486:1502   */\n      jump\t// in\n    tag_178:\n        /* \"@openzeppelin/contracts/security/Pausable.sol\":2501:2506   */\n      0x00\n        /* \"@openzeppelin/contracts/security/Pausable.sol\":2491:2506   */\n      dup1\n      sload\n      not(0xff)\n      and\n      swap1\n      sstore\n        /* \"@openzeppelin/contracts/security/Pausable.sol\":2521:2543   */\n      0x5db9ee0a495bf2e6ff9c91a7834c1ba4fdd244a5e8aa4e537bd38aeae4b073aa\n        /* \"@openzeppelin/contracts/utils/Context.sol\":719:729   */\n      caller\n        /* \"@openzeppelin/contracts/security/Pausable.sol\":2530:2542   */\n    tag_181:\n        /* \"@openzeppelin/contracts/security/Pausable.sol\":2521:2543   */\n      mload(0x40)\n      sub(shl(0xa0, 0x01), 0x01)\n        /* \"#utility.yul\":762:817   */\n      swap1\n      swap2\n      and\n        /* \"#utility.yul\":744:818   */\n      dup2\n      mstore\n        /* \"#utility.yul\":732:734   */\n      0x20\n        /* \"#utility.yul\":717:735   */\n      add\n        /* \"@openzeppelin/contracts/security/Pausable.sol\":2521:2543   */\n      mload(0x40)\n      dup1\n      swap2\n      sub\n      swap1\n      log1\n        /* \"@openzeppelin/contracts/security/Pausable.sol\":2433:2550   */\n      jump\t// out\n        /* \"@openzeppelin/contracts/access/Ownable.sol\":2433:2620   */\n    tag_97:\n        /* \"@openzeppelin/contracts/access/Ownable.sol\":2506:2522   */\n      0x00\n        /* \"@openzeppelin/contracts/access/Ownable.sol\":2525:2531   */\n      dup1\n      sload\n      sub(shl(0xa0, 0x01), 0x01)\n        /* \"@openzeppelin/contracts/access/Ownable.sol\":2541:2558   */\n      dup4\n      dup2\n      and\n        /* \"@openzeppelin/contracts/access/Ownable.sol\":2525:2531   */\n      0x0100\n        /* \"@openzeppelin/contracts/access/Ownable.sol\":2541:2558   */\n      dup2\n      dup2\n      mul\n      0xffffffffffffffffffffff0000000000000000000000000000000000000000ff\n      dup6\n      and\n      or\n      dup6\n      sstore\n        /* \"@openzeppelin/contracts/access/Ownable.sol\":2573:2613   */\n      mload(0x40)\n        /* \"@openzeppelin/contracts/access/Ownable.sol\":2525:2531   */\n      swap4\n      div\n      swap2\n      swap1\n      swap2\n      and\n      swap3\n        /* \"@openzeppelin/contracts/access/Ownable.sol\":2541:2558   */\n      swap1\n      swap2\n        /* \"@openzeppelin/contracts/access/Ownable.sol\":2525:2531   */\n      dup4\n      swap2\n        /* \"@openzeppelin/contracts/access/Ownable.sol\":2573:2613   */\n      0x8be0079c531659141344cd1fd0a4f28419497f9722a3daafe3b4186f6b6457e0\n      swap2\n      log3\n        /* \"@openzeppelin/contracts/access/Ownable.sol\":2496:2620   */\n      pop\n        /* \"@openzeppelin/contracts/access/Ownable.sol\":2433:2620   */\n      pop\n      jump\t// out\n        /* \"@openzeppelin/contracts/security/Pausable.sol\":2186:2301   */\n    tag_102:\n        /* \"@openzeppelin/contracts/security/Pausable.sol\":1239:1258   */\n      tag_185\n        /* \"@openzeppelin/contracts/security/Pausable.sol\":1239:1256   */\n      tag_106\n        /* \"@openzeppelin/contracts/security/Pausable.sol\":1239:1258   */\n      jump\t// in\n    tag_185:\n        /* \"@openzeppelin/contracts/security/Pausable.sol\":2245:2252   */\n      0x00\n        /* \"@openzeppelin/contracts/security/Pausable.sol\":2245:2259   */\n      dup1\n      sload\n      not(0xff)\n      and\n        /* \"@openzeppelin/contracts/security/Pausable.sol\":2255:2259   */\n      0x01\n        /* \"@openzeppelin/contracts/security/Pausable.sol\":2245:2259   */\n      or\n      swap1\n      sstore\n        /* \"@openzeppelin/contracts/security/Pausable.sol\":2274:2294   */\n      0x62e78cea01bee320cd4e420270b5ea74000d11b0c9f74754ebdbfc544b05a258\n        /* \"@openzeppelin/contracts/security/Pausable.sol\":2281:2293   */\n      tag_181\n        /* \"@openzeppelin/contracts/utils/Context.sol\":719:729   */\n      caller\n      swap1\n        /* \"@openzeppelin/contracts/utils/Context.sol\":640:736   */\n      jump\n        /* \"@openzeppelin/contracts/security/Pausable.sol\":1767:1873   */\n    tag_106:\n        /* \"@openzeppelin/contracts/security/Pausable.sol\":1662:1666   */\n      0x00\n        /* \"@openzeppelin/contracts/security/Pausable.sol\":1685:1692   */\n      sload\n      0xff\n      and\n        /* \"@openzeppelin/contracts/security/Pausable.sol\":1836:1845   */\n      iszero\n        /* \"@openzeppelin/contracts/security/Pausable.sol\":1828:1866   */\n      tag_90\n      jumpi\n      mload(0x40)\n      shl(0xe5, 0x461bcd)\n      dup2\n      mstore\n        /* \"#utility.yul\":5074:5076   */\n      0x20\n        /* \"@openzeppelin/contracts/security/Pausable.sol\":1828:1866   */\n      0x04\n      dup3\n      add\n        /* \"#utility.yul\":5056:5077   */\n      mstore\n        /* \"#utility.yul\":5113:5115   */\n      0x10\n        /* \"#utility.yul\":5093:5111   */\n      0x24\n      dup3\n      add\n        /* \"#utility.yul\":5086:5116   */\n      mstore\n        /* \"#utility.yul\":5152:5170   */\n      0x5061757361626c653a2070617573656400000000000000000000000000000000\n        /* \"#utility.yul\":5132:5150   */\n      0x44\n      dup3\n      add\n        /* \"#utility.yul\":5125:5171   */\n      mstore\n        /* \"#utility.yul\":5188:5206   */\n      0x64\n      add\n        /* \"@openzeppelin/contracts/security/Pausable.sol\":1828:1866   */\n      tag_167\n        /* \"#utility.yul\":4872:5212   */\n      jump\n        /* \"OasisShop.sol\":3807:4451  function getRandomTokenIds(address _contract, uint256 _quantity) private view returns (uint256[] memory) {... */\n    tag_142:\n        /* \"OasisShop.sol\":3952:3990  IERC721(_contract).balanceOf(treasury) */\n      mload(0x40)\n      shl(0xe0, 0x70a08231)\n      dup2\n      mstore\n      sub(shl(0xa0, 0x01), 0x01)\n        /* \"OasisShop.sol\":3981:3989  treasury */\n      immutable(\"0x7a91009c6f7b1a275e5fe1d4c73bd6d7322fe5a62b5031b46ed03b8b1a3c30b8\")\n        /* \"#utility.yul\":762:817   */\n      dup2\n      and\n        /* \"OasisShop.sol\":3952:3990  IERC721(_contract).balanceOf(treasury) */\n      0x04\n      dup4\n      add\n        /* \"#utility.yul\":744:818   */\n      mstore\n        /* \"OasisShop.sol\":3894:3910  uint256[] memory */\n      0x60\n      swap2\n      0x00\n      swap2\n        /* \"OasisShop.sol\":3952:3980  IERC721(_contract).balanceOf */\n      dup6\n      and\n      swap1\n      0x70a08231\n      swap1\n        /* \"#utility.yul\":717:735   */\n      0x24\n      add\n        /* \"OasisShop.sol\":3952:3990  IERC721(_contract).balanceOf(treasury) */\n      0x20\n      mload(0x40)\n      dup1\n      dup4\n      sub\n      dup2\n      dup7\n      gas\n      staticcall\n      iszero\n      dup1\n      iszero\n      tag_197\n      jumpi\n      returndatasize\n      0x00\n      dup1\n      returndatacopy\n      revert(0x00, returndatasize)\n    tag_197:\n      pop\n      pop\n      pop\n      pop\n      mload(0x40)\n      returndatasize\n      not(0x1f)\n      0x1f\n      dup3\n      add\n      and\n      dup3\n      add\n      dup1\n      0x40\n      mstore\n      pop\n      dup2\n      add\n      swap1\n      tag_198\n      swap2\n      swap1\n      tag_118\n      jump\t// in\n    tag_198:\n        /* \"OasisShop.sol\":3923:3990  uint256 treasuryBalance721 = IERC721(_contract).balanceOf(treasury) */\n      swap1\n      pop\n        /* \"OasisShop.sol\":4017:4035  treasuryBalance721 */\n      dup1\n        /* \"OasisShop.sol\":4005:4014  _quantity */\n      dup4\n        /* \"OasisShop.sol\":4005:4035  _quantity > treasuryBalance721 */\n      gt\n        /* \"OasisShop.sol\":4001:4067  if (_quantity > treasuryBalance721) revert TreasuryBalanceTooLow() */\n      iszero\n      tag_199\n      jumpi\n        /* \"OasisShop.sol\":4044:4067  TreasuryBalanceTooLow() */\n      mload(0x40)\n      shl(0xe4, 0x06e112e3)\n      dup2\n      mstore\n      0x04\n      add\n      mload(0x40)\n      dup1\n      swap2\n      sub\n      swap1\n      revert\n        /* \"OasisShop.sol\":4001:4067  if (_quantity > treasuryBalance721) revert TreasuryBalanceTooLow() */\n    tag_199:\n        /* \"OasisShop.sol\":4080:4099  uint256 randomIndex */\n      0x00\n        /* \"OasisShop.sol\":4142:4172  treasuryBalance721 - _quantity */\n      tag_200\n        /* \"OasisShop.sol\":4163:4172  _quantity */\n      dup5\n        /* \"OasisShop.sol\":4142:4160  treasuryBalance721 */\n      dup4\n        /* \"OasisShop.sol\":4142:4172  treasuryBalance721 - _quantity */\n      tag_201\n      jump\t// in\n    tag_200:\n        /* \"OasisShop.sol\":4142:4176  treasuryBalance721 - _quantity + 1 */\n      tag_202\n      swap1\n        /* \"OasisShop.sol\":4175:4176  1 */\n      0x01\n        /* \"OasisShop.sol\":4142:4176  treasuryBalance721 - _quantity + 1 */\n      tag_203\n      jump\t// in\n    tag_202:\n        /* \"OasisShop.sol\":4120:4136  block.number - 1 */\n      tag_204\n        /* \"OasisShop.sol\":4135:4136  1 */\n      0x01\n        /* \"OasisShop.sol\":4120:4132  block.number */\n      number\n        /* \"OasisShop.sol\":4120:4136  block.number - 1 */\n      tag_201\n      jump\t// in\n    tag_204:\n        /* \"OasisShop.sol\":4102:4177  uint256(blockhash(block.number - 1)) % (treasuryBalance721 - _quantity + 1) */\n      tag_205\n      swap2\n      swap1\n        /* \"OasisShop.sol\":4110:4137  blockhash(block.number - 1) */\n      blockhash\n        /* \"OasisShop.sol\":4102:4177  uint256(blockhash(block.number - 1)) % (treasuryBalance721 - _quantity + 1) */\n      tag_206\n      jump\t// in\n    tag_205:\n        /* \"OasisShop.sol\":4080:4177  uint256 randomIndex = uint256(blockhash(block.number - 1)) % (treasuryBalance721 - _quantity + 1) */\n      swap1\n      pop\n        /* \"OasisShop.sol\":4190:4221  uint256[] memory randomTokenIds */\n      0x00\n        /* \"OasisShop.sol\":4238:4247  _quantity */\n      dup5\n        /* \"OasisShop.sol\":4224:4248  new uint256[](_quantity) */\n      0xffffffffffffffff\n      dup2\n      gt\n      iszero\n      tag_208\n      jumpi\n      tag_208\n      tag_209\n      jump\t// in\n    tag_208:\n      mload(0x40)\n      swap1\n      dup1\n      dup3\n      mstore\n      dup1\n      0x20\n      mul\n      0x20\n      add\n      dup3\n      add\n      0x40\n      mstore\n      dup1\n      iszero\n      tag_210\n      jumpi\n      dup2\n      0x20\n      add\n      0x20\n      dup3\n      mul\n      dup1\n      calldatasize\n      dup4\n      calldatacopy\n      add\n      swap1\n      pop\n    tag_210:\n      pop\n        /* \"OasisShop.sol\":4190:4248  uint256[] memory randomTokenIds = new uint256[](_quantity) */\n      swap1\n      pop\n        /* \"OasisShop.sol\":4266:4275  uint256 i */\n      0x00\n        /* \"OasisShop.sol\":4261:4409  for (uint256 i = 0; i < _quantity; i++)... */\n    tag_211:\n        /* \"OasisShop.sol\":4285:4294  _quantity */\n      dup6\n        /* \"OasisShop.sol\":4281:4282  i */\n      dup2\n        /* \"OasisShop.sol\":4281:4294  i < _quantity */\n      lt\n        /* \"OasisShop.sol\":4261:4409  for (uint256 i = 0; i < _quantity; i++)... */\n      iszero\n      tag_212\n      jumpi\n      sub(shl(0xa0, 0x01), 0x01)\n        /* \"OasisShop.sol\":4334:4382  IERC721Enumerable(_contract).tokenOfOwnerByIndex */\n      dup8\n      and\n      0x2f745c59\n        /* \"OasisShop.sol\":4383:4391  treasury */\n      immutable(\"0x7a91009c6f7b1a275e5fe1d4c73bd6d7322fe5a62b5031b46ed03b8b1a3c30b8\")\n        /* \"OasisShop.sol\":4393:4408  randomIndex + i */\n      tag_214\n        /* \"OasisShop.sol\":4407:4408  i */\n      dup5\n        /* \"OasisShop.sol\":4393:4404  randomIndex */\n      dup8\n        /* \"OasisShop.sol\":4393:4408  randomIndex + i */\n      tag_203\n      jump\t// in\n    tag_214:\n        /* \"OasisShop.sol\":4334:4409  IERC721Enumerable(_contract).tokenOfOwnerByIndex(treasury, randomIndex + i) */\n      mload(0x40)\n      0xffffffff00000000000000000000000000000000000000000000000000000000\n      0xe0\n      dup6\n      swap1\n      shl\n      and\n      dup2\n      mstore\n      sub(shl(0xa0, 0x01), 0x01)\n        /* \"#utility.yul\":6018:6073   */\n      swap1\n      swap3\n      and\n        /* \"OasisShop.sol\":4334:4409  IERC721Enumerable(_contract).tokenOfOwnerByIndex(treasury, randomIndex + i) */\n      0x04\n      dup4\n      add\n        /* \"#utility.yul\":6000:6074   */\n      mstore\n        /* \"#utility.yul\":6090:6108   */\n      0x24\n      dup3\n      add\n        /* \"#utility.yul\":6083:6117   */\n      mstore\n        /* \"#utility.yul\":5973:5991   */\n      0x44\n      add\n        /* \"OasisShop.sol\":4334:4409  IERC721Enumerable(_contract).tokenOfOwnerByIndex(treasury, randomIndex + i) */\n      0x20\n      mload(0x40)\n      dup1\n      dup4\n      sub\n      dup2\n      dup7\n      gas\n      staticcall\n      iszero\n      dup1\n      iszero\n      tag_218\n      jumpi\n      returndatasize\n      0x00\n      dup1\n      returndatacopy\n      revert(0x00, returndatasize)\n    tag_218:\n      pop\n      pop\n      pop\n      pop\n      mload(0x40)\n      returndatasize\n      not(0x1f)\n      0x1f\n      dup3\n      add\n      and\n      dup3\n      add\n      dup1\n      0x40\n      mstore\n      pop\n      dup2\n      add\n      swap1\n      tag_219\n      swap2\n      swap1\n      tag_118\n      jump\t// in\n    tag_219:\n        /* \"OasisShop.sol\":4314:4328  randomTokenIds */\n      dup3\n        /* \"OasisShop.sol\":4329:4330  i */\n      dup3\n        /* \"OasisShop.sol\":4314:4331  randomTokenIds[i] */\n      dup2\n      mload\n      dup2\n      lt\n      tag_221\n      jumpi\n      tag_221\n      tag_148\n      jump\t// in\n    tag_221:\n      0x20\n      swap1\n      dup2\n      mul\n      swap2\n      swap1\n      swap2\n      add\n      add\n        /* \"OasisShop.sol\":4314:4409  randomTokenIds[i] = IERC721Enumerable(_contract).tokenOfOwnerByIndex(treasury, randomIndex + i) */\n      mstore\n        /* \"OasisShop.sol\":4296:4299  i++ */\n      dup1\n      tag_222\n      dup2\n      tag_154\n      jump\t// in\n    tag_222:\n      swap2\n      pop\n      pop\n        /* \"OasisShop.sol\":4261:4409  for (uint256 i = 0; i < _quantity; i++)... */\n      jump(tag_211)\n    tag_212:\n      pop\n        /* \"OasisShop.sol\":4429:4443  randomTokenIds */\n      swap6\n        /* \"OasisShop.sol\":3807:4451  function getRandomTokenIds(address _contract, uint256 _quantity) private view returns (uint256[] memory) {... */\n      swap5\n      pop\n      pop\n      pop\n      pop\n      pop\n      jump\t// out\n        /* \"@openzeppelin/contracts/security/Pausable.sol\":1945:2051   */\n    tag_179:\n        /* \"@openzeppelin/contracts/security/Pausable.sol\":1662:1666   */\n      0x00\n        /* \"@openzeppelin/contracts/security/Pausable.sol\":1685:1692   */\n      sload\n      0xff\n      and\n        /* \"@openzeppelin/contracts/security/Pausable.sol\":2003:2044   */\n      tag_90\n      jumpi\n      mload(0x40)\n      shl(0xe5, 0x461bcd)\n      dup2\n      mstore\n        /* \"#utility.yul\":6330:6332   */\n      0x20\n        /* \"@openzeppelin/contracts/security/Pausable.sol\":2003:2044   */\n      0x04\n      dup3\n      add\n        /* \"#utility.yul\":6312:6333   */\n      mstore\n        /* \"#utility.yul\":6369:6371   */\n      0x14\n        /* \"#utility.yul\":6349:6367   */\n      0x24\n      dup3\n      add\n        /* \"#utility.yul\":6342:6372   */\n      mstore\n        /* \"#utility.yul\":6408:6430   */\n      0x5061757361626c653a206e6f7420706175736564000000000000000000000000\n        /* \"#utility.yul\":6388:6406   */\n      0x44\n      dup3\n      add\n        /* \"#utility.yul\":6381:6431   */\n      mstore\n        /* \"#utility.yul\":6448:6466   */\n      0x64\n      add\n        /* \"@openzeppelin/contracts/security/Pausable.sol\":2003:2044   */\n      tag_167\n        /* \"#utility.yul\":6128:6472   */\n      jump\n        /* \"#utility.yul\":14:210   */\n    tag_229:\n        /* \"#utility.yul\":82:102   */\n      dup1\n      calldataload\n      sub(shl(0xa0, 0x01), 0x01)\n        /* \"#utility.yul\":131:185   */\n      dup2\n      and\n        /* \"#utility.yul\":121:186   */\n      dup2\n      eq\n        /* \"#utility.yul\":111:204   */\n      tag_234\n      jumpi\n        /* \"#utility.yul\":200:201   */\n      0x00\n        /* \"#utility.yul\":197:198   */\n      dup1\n        /* \"#utility.yul\":190:202   */\n      revert\n        /* \"#utility.yul\":111:204   */\n    tag_234:\n        /* \"#utility.yul\":14:210   */\n      swap2\n      swap1\n      pop\n      jump\t// out\n        /* \"#utility.yul\":215:401   */\n    tag_22:\n        /* \"#utility.yul\":274:280   */\n      0x00\n        /* \"#utility.yul\":327:329   */\n      0x20\n        /* \"#utility.yul\":315:324   */\n      dup3\n        /* \"#utility.yul\":306:313   */\n      dup5\n        /* \"#utility.yul\":302:325   */\n      sub\n        /* \"#utility.yul\":298:330   */\n      slt\n        /* \"#utility.yul\":295:347   */\n      iszero\n      tag_236\n      jumpi\n        /* \"#utility.yul\":343:344   */\n      0x00\n        /* \"#utility.yul\":340:341   */\n      dup1\n        /* \"#utility.yul\":333:345   */\n      revert\n        /* \"#utility.yul\":295:347   */\n    tag_236:\n        /* \"#utility.yul\":366:395   */\n      tag_237\n        /* \"#utility.yul\":385:394   */\n      dup3\n        /* \"#utility.yul\":366:395   */\n      tag_229\n      jump\t// in\n    tag_237:\n        /* \"#utility.yul\":356:395   */\n      swap4\n        /* \"#utility.yul\":215:401   */\n      swap3\n      pop\n      pop\n      pop\n      jump\t// out\n        /* \"#utility.yul\":1378:1632   */\n    tag_58:\n        /* \"#utility.yul\":1446:1452   */\n      0x00\n        /* \"#utility.yul\":1454:1460   */\n      dup1\n        /* \"#utility.yul\":1507:1509   */\n      0x40\n        /* \"#utility.yul\":1495:1504   */\n      dup4\n        /* \"#utility.yul\":1486:1493   */\n      dup6\n        /* \"#utility.yul\":1482:1505   */\n      sub\n        /* \"#utility.yul\":1478:1510   */\n      slt\n        /* \"#utility.yul\":1475:1527   */\n      iszero\n      tag_242\n      jumpi\n        /* \"#utility.yul\":1523:1524   */\n      0x00\n        /* \"#utility.yul\":1520:1521   */\n      dup1\n        /* \"#utility.yul\":1513:1525   */\n      revert\n        /* \"#utility.yul\":1475:1527   */\n    tag_242:\n        /* \"#utility.yul\":1546:1575   */\n      tag_243\n        /* \"#utility.yul\":1565:1574   */\n      dup4\n        /* \"#utility.yul\":1546:1575   */\n      tag_229\n      jump\t// in\n    tag_243:\n        /* \"#utility.yul\":1536:1575   */\n      swap5\n        /* \"#utility.yul\":1622:1624   */\n      0x20\n        /* \"#utility.yul\":1607:1625   */\n      swap4\n      swap1\n      swap4\n      add\n        /* \"#utility.yul\":1594:1626   */\n      calldataload\n      swap4\n      pop\n      pop\n      pop\n        /* \"#utility.yul\":1378:1632   */\n      jump\t// out\n        /* \"#utility.yul\":1637:1755   */\n    tag_230:\n        /* \"#utility.yul\":1723:1728   */\n      dup1\n        /* \"#utility.yul\":1716:1729   */\n      iszero\n        /* \"#utility.yul\":1709:1730   */\n      iszero\n        /* \"#utility.yul\":1702:1707   */\n      dup2\n        /* \"#utility.yul\":1699:1731   */\n      eq\n        /* \"#utility.yul\":1689:1749   */\n      tag_86\n      jumpi\n        /* \"#utility.yul\":1745:1746   */\n      0x00\n        /* \"#utility.yul\":1742:1743   */\n      dup1\n        /* \"#utility.yul\":1735:1747   */\n      revert\n        /* \"#utility.yul\":1760:2680   */\n    tag_71:\n        /* \"#utility.yul\":1852:1858   */\n      0x00\n        /* \"#utility.yul\":1860:1866   */\n      dup1\n        /* \"#utility.yul\":1868:1874   */\n      0x00\n        /* \"#utility.yul\":1876:1882   */\n      dup1\n        /* \"#utility.yul\":1884:1890   */\n      0x00\n        /* \"#utility.yul\":1892:1898   */\n      dup1\n        /* \"#utility.yul\":1945:1948   */\n      0xc0\n        /* \"#utility.yul\":1933:1942   */\n      dup8\n        /* \"#utility.yul\":1924:1931   */\n      dup10\n        /* \"#utility.yul\":1920:1943   */\n      sub\n        /* \"#utility.yul\":1916:1949   */\n      slt\n        /* \"#utility.yul\":1913:1966   */\n      iszero\n      tag_247\n      jumpi\n        /* \"#utility.yul\":1962:1963   */\n      0x00\n        /* \"#utility.yul\":1959:1960   */\n      dup1\n        /* \"#utility.yul\":1952:1964   */\n      revert\n        /* \"#utility.yul\":1913:1966   */\n    tag_247:\n        /* \"#utility.yul\":1985:2014   */\n      tag_248\n        /* \"#utility.yul\":2004:2013   */\n      dup8\n        /* \"#utility.yul\":1985:2014   */\n      tag_229\n      jump\t// in\n    tag_248:\n        /* \"#utility.yul\":1975:2014   */\n      swap6\n      pop\n        /* \"#utility.yul\":2064:2066   */\n      0x20\n        /* \"#utility.yul\":2053:2062   */\n      dup8\n        /* \"#utility.yul\":2049:2067   */\n      add\n        /* \"#utility.yul\":2036:2068   */\n      calldataload\n        /* \"#utility.yul\":2077:2105   */\n      tag_249\n        /* \"#utility.yul\":2099:2104   */\n      dup2\n        /* \"#utility.yul\":2077:2105   */\n      tag_230\n      jump\t// in\n    tag_249:\n        /* \"#utility.yul\":2124:2129   */\n      swap5\n      pop\n        /* \"#utility.yul\":2181:2183   */\n      0x40\n        /* \"#utility.yul\":2166:2184   */\n      dup8\n      add\n        /* \"#utility.yul\":2153:2185   */\n      calldataload\n        /* \"#utility.yul\":2194:2224   */\n      tag_250\n        /* \"#utility.yul\":2153:2185   */\n      dup2\n        /* \"#utility.yul\":2194:2224   */\n      tag_230\n      jump\t// in\n    tag_250:\n        /* \"#utility.yul\":2243:2250   */\n      swap4\n      pop\n        /* \"#utility.yul\":2302:2304   */\n      0x60\n        /* \"#utility.yul\":2287:2305   */\n      dup8\n      add\n        /* \"#utility.yul\":2274:2306   */\n      calldataload\n        /* \"#utility.yul\":2315:2345   */\n      tag_251\n        /* \"#utility.yul\":2274:2306   */\n      dup2\n        /* \"#utility.yul\":2315:2345   */\n      tag_230\n      jump\t// in\n    tag_251:\n        /* \"#utility.yul\":2364:2371   */\n      swap3\n      pop\n        /* \"#utility.yul\":2423:2426   */\n      0x80\n        /* \"#utility.yul\":2408:2427   */\n      dup8\n      add\n        /* \"#utility.yul\":2395:2428   */\n      calldataload\n        /* \"#utility.yul\":2437:2467   */\n      tag_252\n        /* \"#utility.yul\":2395:2428   */\n      dup2\n        /* \"#utility.yul\":2437:2467   */\n      tag_230\n      jump\t// in\n    tag_252:\n        /* \"#utility.yul\":2486:2493   */\n      swap2\n      pop\n        /* \"#utility.yul\":2545:2548   */\n      0xa0\n        /* \"#utility.yul\":2530:2549   */\n      dup8\n      add\n        /* \"#utility.yul\":2517:2550   */\n      calldataload\n      sub(shl(0x80, 0x01), 0x01)\n        /* \"#utility.yul\":2581:2629   */\n      dup2\n      and\n        /* \"#utility.yul\":2569:2630   */\n      dup2\n      eq\n        /* \"#utility.yul\":2559:2648   */\n      tag_253\n      jumpi\n        /* \"#utility.yul\":2644:2645   */\n      0x00\n        /* \"#utility.yul\":2641:2642   */\n      dup1\n        /* \"#utility.yul\":2634:2646   */\n      revert\n        /* \"#utility.yul\":2559:2648   */\n    tag_253:\n        /* \"#utility.yul\":2667:2674   */\n      dup1\n        /* \"#utility.yul\":2657:2674   */\n      swap2\n      pop\n      pop\n        /* \"#utility.yul\":1760:2680   */\n      swap3\n      swap6\n      pop\n      swap3\n      swap6\n      pop\n      swap3\n      swap6\n      jump\t// out\n        /* \"#utility.yul\":2685:2812   */\n    tag_231:\n        /* \"#utility.yul\":2746:2756   */\n      0x4e487b71\n        /* \"#utility.yul\":2741:2744   */\n      0xe0\n        /* \"#utility.yul\":2737:2757   */\n      shl\n        /* \"#utility.yul\":2734:2735   */\n      0x00\n        /* \"#utility.yul\":2727:2758   */\n      mstore\n        /* \"#utility.yul\":2777:2781   */\n      0x11\n        /* \"#utility.yul\":2774:2775   */\n      0x04\n        /* \"#utility.yul\":2767:2782   */\n      mstore\n        /* \"#utility.yul\":2801:2805   */\n      0x24\n        /* \"#utility.yul\":2798:2799   */\n      0x00\n        /* \"#utility.yul\":2791:2806   */\n      revert\n        /* \"#utility.yul\":2817:2985   */\n    tag_111:\n        /* \"#utility.yul\":2857:2864   */\n      0x00\n        /* \"#utility.yul\":2923:2924   */\n      dup2\n        /* \"#utility.yul\":2919:2920   */\n      0x00\n        /* \"#utility.yul\":2915:2921   */\n      not\n        /* \"#utility.yul\":2911:2925   */\n      div\n        /* \"#utility.yul\":2908:2909   */\n      dup4\n        /* \"#utility.yul\":2905:2926   */\n      gt\n        /* \"#utility.yul\":2900:2901   */\n      dup3\n        /* \"#utility.yul\":2893:2902   */\n      iszero\n        /* \"#utility.yul\":2886:2903   */\n      iszero\n        /* \"#utility.yul\":2882:2927   */\n      and\n        /* \"#utility.yul\":2879:2950   */\n      iszero\n      tag_257\n      jumpi\n        /* \"#utility.yul\":2930:2948   */\n      tag_257\n      tag_231\n      jump\t// in\n    tag_257:\n      pop\n        /* \"#utility.yul\":2970:2979   */\n      mul\n      swap1\n        /* \"#utility.yul\":2817:2985   */\n      jump\t// out\n        /* \"#utility.yul\":2990:3174   */\n    tag_118:\n        /* \"#utility.yul\":3060:3066   */\n      0x00\n        /* \"#utility.yul\":3113:3115   */\n      0x20\n        /* \"#utility.yul\":3101:3110   */\n      dup3\n        /* \"#utility.yul\":3092:3099   */\n      dup5\n        /* \"#utility.yul\":3088:3111   */\n      sub\n        /* \"#utility.yul\":3084:3116   */\n      slt\n        /* \"#utility.yul\":3081:3133   */\n      iszero\n      tag_259\n      jumpi\n        /* \"#utility.yul\":3129:3130   */\n      0x00\n        /* \"#utility.yul\":3126:3127   */\n      dup1\n        /* \"#utility.yul\":3119:3131   */\n      revert\n        /* \"#utility.yul\":3081:3133   */\n    tag_259:\n      pop\n        /* \"#utility.yul\":3152:3168   */\n      mload\n      swap2\n        /* \"#utility.yul\":2990:3174   */\n      swap1\n      pop\n      jump\t// out\n        /* \"#utility.yul\":3582:3827   */\n    tag_126:\n        /* \"#utility.yul\":3649:3655   */\n      0x00\n        /* \"#utility.yul\":3702:3704   */\n      0x20\n        /* \"#utility.yul\":3690:3699   */\n      dup3\n        /* \"#utility.yul\":3681:3688   */\n      dup5\n        /* \"#utility.yul\":3677:3700   */\n      sub\n        /* \"#utility.yul\":3673:3705   */\n      slt\n        /* \"#utility.yul\":3670:3722   */\n      iszero\n      tag_262\n      jumpi\n        /* \"#utility.yul\":3718:3719   */\n      0x00\n        /* \"#utility.yul\":3715:3716   */\n      dup1\n        /* \"#utility.yul\":3708:3720   */\n      revert\n        /* \"#utility.yul\":3670:3722   */\n    tag_262:\n        /* \"#utility.yul\":3750:3759   */\n      dup2\n        /* \"#utility.yul\":3744:3760   */\n      mload\n        /* \"#utility.yul\":3769:3797   */\n      tag_237\n        /* \"#utility.yul\":3791:3796   */\n      dup2\n        /* \"#utility.yul\":3769:3797   */\n      tag_230\n      jump\t// in\n        /* \"#utility.yul\":3832:3959   */\n    tag_148:\n        /* \"#utility.yul\":3893:3903   */\n      0x4e487b71\n        /* \"#utility.yul\":3888:3891   */\n      0xe0\n        /* \"#utility.yul\":3884:3904   */\n      shl\n        /* \"#utility.yul\":3881:3882   */\n      0x00\n        /* \"#utility.yul\":3874:3905   */\n      mstore\n        /* \"#utility.yul\":3924:3928   */\n      0x32\n        /* \"#utility.yul\":3921:3922   */\n      0x04\n        /* \"#utility.yul\":3914:3929   */\n      mstore\n        /* \"#utility.yul\":3948:3952   */\n      0x24\n        /* \"#utility.yul\":3945:3946   */\n      0x00\n        /* \"#utility.yul\":3938:3953   */\n      revert\n        /* \"#utility.yul\":3964:4099   */\n    tag_154:\n        /* \"#utility.yul\":4003:4006   */\n      0x00\n        /* \"#utility.yul\":4024:4041   */\n      0x01\n      dup3\n      add\n        /* \"#utility.yul\":4021:4064   */\n      tag_267\n      jumpi\n        /* \"#utility.yul\":4044:4062   */\n      tag_267\n      tag_231\n      jump\t// in\n    tag_267:\n      pop\n        /* \"#utility.yul\":4091:4092   */\n      0x01\n        /* \"#utility.yul\":4080:4093   */\n      add\n      swap1\n        /* \"#utility.yul\":3964:4099   */\n      jump\t// out\n        /* \"#utility.yul\":5217:5342   */\n    tag_201:\n        /* \"#utility.yul\":5257:5261   */\n      0x00\n        /* \"#utility.yul\":5285:5286   */\n      dup3\n        /* \"#utility.yul\":5282:5283   */\n      dup3\n        /* \"#utility.yul\":5279:5287   */\n      lt\n        /* \"#utility.yul\":5276:5310   */\n      iszero\n      tag_273\n      jumpi\n        /* \"#utility.yul\":5290:5308   */\n      tag_273\n      tag_231\n      jump\t// in\n    tag_273:\n      pop\n        /* \"#utility.yul\":5327:5336   */\n      sub\n      swap1\n        /* \"#utility.yul\":5217:5342   */\n      jump\t// out\n        /* \"#utility.yul\":5347:5475   */\n    tag_203:\n        /* \"#utility.yul\":5387:5390   */\n      0x00\n        /* \"#utility.yul\":5418:5419   */\n      dup3\n        /* \"#utility.yul\":5414:5420   */\n      not\n        /* \"#utility.yul\":5411:5412   */\n      dup3\n        /* \"#utility.yul\":5408:5421   */\n      gt\n        /* \"#utility.yul\":5405:5444   */\n      iszero\n      tag_276\n      jumpi\n        /* \"#utility.yul\":5424:5442   */\n      tag_276\n      tag_231\n      jump\t// in\n    tag_276:\n      pop\n        /* \"#utility.yul\":5460:5469   */\n      add\n      swap1\n        /* \"#utility.yul\":5347:5475   */\n      jump\t// out\n        /* \"#utility.yul\":5480:5689   */\n    tag_206:\n        /* \"#utility.yul\":5512:5513   */\n      0x00\n        /* \"#utility.yul\":5538:5539   */\n      dup3\n        /* \"#utility.yul\":5528:5660   */\n      tag_278\n      jumpi\n        /* \"#utility.yul\":5582:5592   */\n      0x4e487b71\n        /* \"#utility.yul\":5577:5580   */\n      0xe0\n        /* \"#utility.yul\":5573:5593   */\n      shl\n        /* \"#utility.yul\":5570:5571   */\n      0x00\n        /* \"#utility.yul\":5563:5594   */\n      mstore\n        /* \"#utility.yul\":5617:5621   */\n      0x12\n        /* \"#utility.yul\":5614:5615   */\n      0x04\n        /* \"#utility.yul\":5607:5622   */\n      mstore\n        /* \"#utility.yul\":5645:5649   */\n      0x24\n        /* \"#utility.yul\":5642:5643   */\n      0x00\n        /* \"#utility.yul\":5635:5650   */\n      revert\n        /* \"#utility.yul\":5528:5660   */\n    tag_278:\n      pop\n        /* \"#utility.yul\":5674:5683   */\n      mod\n      swap1\n        /* \"#utility.yul\":5480:5689   */\n      jump\t// out\n        /* \"#utility.yul\":5694:5821   */\n    tag_209:\n        /* \"#utility.yul\":5755:5765   */\n      0x4e487b71\n        /* \"#utility.yul\":5750:5753   */\n      0xe0\n        /* \"#utility.yul\":5746:5766   */\n      shl\n        /* \"#utility.yul\":5743:5744   */\n      0x00\n        /* \"#utility.yul\":5736:5767   */\n      mstore\n        /* \"#utility.yul\":5786:5790   */\n      0x41\n        /* \"#utility.yul\":5783:5784   */\n      0x04\n        /* \"#utility.yul\":5776:5791   */\n      mstore\n        /* \"#utility.yul\":5810:5814   */\n      0x24\n        /* \"#utility.yul\":5807:5808   */\n      0x00\n        /* \"#utility.yul\":5800:5815   */\n      revert\n\n    auxdata: 0xa2646970667358221220d6173f69930522dcf8724d32990addd5ca901903950364486fd3117fd0ad987a64736f6c634300080d0033\n}\n",
    "bytecode": {
      "linkReferences": {},
      "object": "60e06040523480156200001157600080fd5b5060405162001303380380620013038339810160408190526200003491620000dd565b6000805460ff19169055620000493362000067565b6001600160a01b0392831660805290821660a0521660c05262000127565b600080546001600160a01b03838116610100818102610100600160a81b0319851617855560405193049190911692909183917f8be0079c531659141344cd1fd0a4f28419497f9722a3daafe3b4186f6b6457e091a35050565b80516001600160a01b0381168114620000d857600080fd5b919050565b600080600060608486031215620000f357600080fd5b620000fe84620000c0565b92506200010e60208501620000c0565b91506200011e60408501620000c0565b90509250925092565b60805160a05160c0516111746200018f600039600081816102e1015281816104ff01526105eb01526000818161016801528181610696015281816107400152818161081801528181610cd40152610e020152600081816102ad01526105bc01526111746000f3fe6080604052600436106100dd5760003560e01c80638456cb591161007f5780639ff51675116100595780639ff516751461029b578063a756fdd0146102cf578063abe210c914610303578063f2fde38b1461032357600080fd5b80638456cb59146102505780638da5cb5b146102655780638de932221461028857600080fd5b80635c975abb116100bb5780635c975abb1461012e57806361d027b314610156578063715018a6146101a25780637c1c43e2146101b757600080fd5b8063399fa840146100e25780633ccfd60b146101045780633f4ba83a14610119575b600080fd5b3480156100ee57600080fd5b506101026100fd366004610f57565b610343565b005b34801561011057600080fd5b5061010261038a565b34801561012557600080fd5b506101026103de565b34801561013a57600080fd5b5060005460ff1660405190151581526020015b60405180910390f35b34801561016257600080fd5b5061018a7f000000000000000000000000000000000000000000000000000000000000000081565b6040516001600160a01b03909116815260200161014d565b3480156101ae57600080fd5b506101026103f0565b3480156101c357600080fd5b506102176101d2366004610f57565b60016020526000908152604090205460ff808216916101008104821691620100008204811691630100000081049091169064010000000090046001600160801b031685565b60408051951515865293151560208601529115159284019290925290151560608301526001600160801b0316608082015260a00161014d565b34801561025c57600080fd5b50610102610402565b34801561027157600080fd5b5060005461010090046001600160a01b031661018a565b610102610296366004610f79565b610412565b3480156102a757600080fd5b5061018a7f000000000000000000000000000000000000000000000000000000000000000081565b3480156102db57600080fd5b5061018a7f000000000000000000000000000000000000000000000000000000000000000081565b34801561030f57600080fd5b5061010261031e366004610fb1565b610946565b34801561032f57600080fd5b5061010261033e366004610f57565b610a79565b61034b610b0b565b6001600160a01b0316600090815260016020526040902080547fffffffffffffffffffffffff0000000000000000000000000000000000000000169055565b610392610b0b565b60005461010090046001600160a01b03166001600160a01b03166108fc479081150290604051600060405180830381858888f193505050501580156103db573d6000803e3d6000fd5b50565b6103e6610b0b565b6103ee610b6b565b565b6103f8610b0b565b6103ee6000610bbd565b61040a610b0b565b6103ee610c2d565b61041a610c6a565b6001600160a01b038216600090815260016020818152604092839020835160a081018552905460ff8082161515835261010082048116151593830193909352620100008104831615159482019490945263010000008404909116151560608201526401000000009092046001600160801b0316608083015282108061049e57508051155b156104bc576040516317dbc4cb60e21b815260040160405180910390fd5b60008282608001516001600160801b03166104d79190611053565b9050600082606001516104ea5734610572565b6040516370a0823160e01b81523360048201527f00000000000000000000000000000000000000000000000000000000000000006001600160a01b0316906370a0823190602401602060405180830381865afa15801561054e573d6000803e3d6000fd5b505050506040513d601f19601f820116820180604052508101906105729190611072565b90508181101561059557604051634ddc3b8560e01b815260040160405180910390fd5b826060015115610675576040516323b872dd60e01b81523360048201526001600160a01b037f000000000000000000000000000000000000000000000000000000000000000081166024830152604482018490527f000000000000000000000000000000000000000000000000000000000000000016906323b872dd906064016020604051808303816000875af1158015610634573d6000803e3d6000fd5b505050506040513d601f19601f82011682018060405250810190610658919061108b565b610675576040516312171d8360e31b815260040160405180910390fd5b8260400151156107e4576040516370a0823160e01b81526001600160a01b037f0000000000000000000000000000000000000000000000000000000000000000811660048301528616906370a0823190602401602060405180830381865afa1580156106e5573d6000803e3d6000fd5b505050506040513d601f19601f820116820180604052508101906107099190611072565b841115610729576040516306e112e360e41b815260040160405180910390fd5b6040516323b872dd60e01b81526001600160a01b037f000000000000000000000000000000000000000000000000000000000000000081166004830152336024830152604482018690528616906323b872dd906064016020604051808303816000875af115801561079e573d6000803e3d6000fd5b505050506040513d601f19601f820116820180604052508101906107c2919061108b565b6107df576040516312171d8360e31b815260040160405180910390fd5b610907565b8260200151156108ee5760006107fa8686610cbd565b905060005b858110156108e757866001600160a01b03166323b872dd7f00000000000000000000000000000000000000000000000000000000000000003385858151811061084a5761084a6110a8565b60209081029190910101516040517fffffffff0000000000000000000000000000000000000000000000000000000060e086901b1681526001600160a01b0393841660048201529290911660248301526044820152606401600060405180830381600087803b1580156108bc57600080fd5b505af11580156108d0573d6000803e3d6000fd5b5050505080806108df906110be565b9150506107ff565b5050610907565b6040516317dbc4cb60e21b815260040160405180910390fd5b60405184906001600160a01b0387169033907f6b46b1fc4875cc1cc6d7951caf295ac5028b3fe91e7a9885fd9de8aeb79d242290600090a45050505050565b61094e610b0b565b6001600160a01b0386161580159061096f57506000816001600160801b0316115b80156109785750845b8015610988575083151583151514155b61099157600080fd5b6040805160a08101825295151586529315156020808701918252931515868601908152921515606087019081526001600160801b03928316608088019081526001600160a01b0398909816600090815260019095529490932094518554935192519451965161ffff1990941690151561ff00191617610100921515929092029190911763ffff00001916620100009315159390930263ff000000191692909217630100000094151594909402939093177fffffffffffffffffffffffff00000000000000000000000000000000ffffffff166401000000009390911692909202919091179055565b610a81610b0b565b6001600160a01b038116610b025760405162461bcd60e51b815260206004820152602660248201527f4f776e61626c653a206e6577206f776e657220697320746865207a65726f206160448201527f646472657373000000000000000000000000000000000000000000000000000060648201526084015b60405180910390fd5b6103db81610bbd565b6000546001600160a01b036101009091041633146103ee5760405162461bcd60e51b815260206004820181905260248201527f4f776e61626c653a2063616c6c6572206973206e6f7420746865206f776e65726044820152606401610af9565b610b73610ee9565b6000805460ff191690557f5db9ee0a495bf2e6ff9c91a7834c1ba4fdd244a5e8aa4e537bd38aeae4b073aa335b6040516001600160a01b03909116815260200160405180910390a1565b600080546001600160a01b038381166101008181027fffffffffffffffffffffff0000000000000000000000000000000000000000ff851617855560405193049190911692909183917f8be0079c531659141344cd1fd0a4f28419497f9722a3daafe3b4186f6b6457e091a35050565b610c35610c6a565b6000805460ff191660011790557f62e78cea01bee320cd4e420270b5ea74000d11b0c9f74754ebdbfc544b05a258610ba03390565b60005460ff16156103ee5760405162461bcd60e51b815260206004820152601060248201527f5061757361626c653a20706175736564000000000000000000000000000000006044820152606401610af9565b6040516370a0823160e01b81526001600160a01b037f0000000000000000000000000000000000000000000000000000000000000000811660048301526060916000918516906370a0823190602401602060405180830381865afa158015610d29573d6000803e3d6000fd5b505050506040513d601f19601f82011682018060405250810190610d4d9190611072565b905080831115610d70576040516306e112e360e41b815260040160405180910390fd5b6000610d7c84836110d7565b610d879060016110ee565b610d926001436110d7565b610d9d919040611106565b905060008467ffffffffffffffff811115610dba57610dba611128565b604051908082528060200260200182016040528015610de3578160200160208202803683370190505b50905060005b85811015610edf576001600160a01b038716632f745c597f0000000000000000000000000000000000000000000000000000000000000000610e2b84876110ee565b6040517fffffffff0000000000000000000000000000000000000000000000000000000060e085901b1681526001600160a01b0390921660048301526024820152604401602060405180830381865afa158015610e8c573d6000803e3d6000fd5b505050506040513d601f19601f82011682018060405250810190610eb09190611072565b828281518110610ec257610ec26110a8565b602090810291909101015280610ed7816110be565b915050610de9565b5095945050505050565b60005460ff166103ee5760405162461bcd60e51b815260206004820152601460248201527f5061757361626c653a206e6f74207061757365640000000000000000000000006044820152606401610af9565b80356001600160a01b0381168114610f5257600080fd5b919050565b600060208284031215610f6957600080fd5b610f7282610f3b565b9392505050565b60008060408385031215610f8c57600080fd5b610f9583610f3b565b946020939093013593505050565b80151581146103db57600080fd5b60008060008060008060c08789031215610fca57600080fd5b610fd387610f3b565b95506020870135610fe381610fa3565b94506040870135610ff381610fa3565b9350606087013561100381610fa3565b9250608087013561101381610fa3565b915060a08701356001600160801b038116811461102f57600080fd5b809150509295509295509295565b634e487b7160e01b600052601160045260246000fd5b600081600019048311821515161561106d5761106d61103d565b500290565b60006020828403121561108457600080fd5b5051919050565b60006020828403121561109d57600080fd5b8151610f7281610fa3565b634e487b7160e01b600052603260045260246000fd5b6000600182016110d0576110d061103d565b5060010190565b6000828210156110e9576110e961103d565b500390565b600082198211156111015761110161103d565b500190565b60008261112357634e487b7160e01b600052601260045260246000fd5b500690565b634e487b7160e01b600052604160045260246000fdfea2646970667358221220d6173f69930522dcf8724d32990addd5ca901903950364486fd3117fd0ad987a64736f6c634300080d0033",
      "opcodes": "PUSH1 0xE0 PUSH1 0x40 MSTORE CALLVALUE DUP1 ISZERO PUSH3 0x11 JUMPI PUSH1 0x0 DUP1 REVERT JUMPDEST POP PUSH1 0x40 MLOAD PUSH3 0x1303 CODESIZE SUB DUP1 PUSH3 0x1303 DUP4 CODECOPY DUP2 ADD PUSH1 0x40 DUP2 SWAP1 MSTORE PUSH3 0x34 SWAP2 PUSH3 0xDD JUMP JUMPDEST PUSH1 0x0 DUP1 SLOAD PUSH1 0xFF NOT AND SWAP1 SSTORE PUSH3 0x49 CALLER PUSH3 0x67 JUMP JUMPDEST PUSH1 0x1 PUSH1 0x1 PUSH1 0xA0 SHL SUB SWAP3 DUP4 AND PUSH1 0x80 MSTORE SWAP1 DUP3 AND PUSH1 0xA0 MSTORE AND PUSH1 0xC0 MSTORE PUSH3 0x127 JUMP JUMPDEST PUSH1 0x0 DUP1 SLOAD PUSH1 0x1 PUSH1 0x1 PUSH1 0xA0 SHL SUB DUP4 DUP2 AND PUSH2 0x100 DUP2 DUP2 MUL PUSH2 0x100 PUSH1 0x1 PUSH1 0xA8 SHL SUB NOT DUP6 AND OR DUP6 SSTORE PUSH1 0x40 MLOAD SWAP4 DIV SWAP2 SWAP1 SWAP2 AND SWAP3 SWAP1 SWAP2 DUP4 SWAP2 PUSH32 0x8BE0079C531659141344CD1FD0A4F28419497F9722A3DAAFE3B4186F6B6457E0 SWAP2 LOG3 POP POP JUMP JUMPDEST DUP1 MLOAD PUSH1 0x1 PUSH1 0x1 PUSH1 0xA0 SHL SUB DUP2 AND DUP2 EQ PUSH3 0xD8 JUMPI PUSH1 0x0 DUP1 REVERT JUMPDEST SWAP2 SWAP1 POP JUMP JUMPDEST PUSH1 0x0 DUP1 PUSH1 0x0 PUSH1 0x60 DUP5 DUP7 SUB SLT ISZERO PUSH3 0xF3 JUMPI PUSH1 0x0 DUP1 REVERT JUMPDEST PUSH3 0xFE DUP5 PUSH3 0xC0 JUMP JUMPDEST SWAP3 POP PUSH3 0x10E PUSH1 0x20 DUP6 ADD PUSH3 0xC0 JUMP JUMPDEST SWAP2 POP PUSH3 0x11E PUSH1 0x40 DUP6 ADD PUSH3 0xC0 JUMP JUMPDEST SWAP1 POP SWAP3 POP SWAP3 POP SWAP3 JUMP JUMPDEST PUSH1 0x80 MLOAD PUSH1 0xA0 MLOAD PUSH1 0xC0 MLOAD PUSH2 0x1174 PUSH3 0x18F PUSH1 0x0 CODECOPY PUSH1 0x0 DUP2 DUP2 PUSH2 0x2E1 ADD MSTORE DUP2 DUP2 PUSH2 0x4FF ADD MSTORE PUSH2 0x5EB ADD MSTORE PUSH1 0x0 DUP2 DUP2 PUSH2 0x168 ADD MSTORE DUP2 DUP2 PUSH2 0x696 ADD MSTORE DUP2 DUP2 PUSH2 0x740 ADD MSTORE DUP2 DUP2 PUSH2 0x818 ADD MSTORE DUP2 DUP2 PUSH2 0xCD4 ADD MSTORE PUSH2 0xE02 ADD MSTORE PUSH1 0x0 DUP2 DUP2 PUSH2 0x2AD ADD MSTORE PUSH2 0x5BC ADD MSTORE PUSH2 0x1174 PUSH1 0x0 RETURN INVALID PUSH1 0x80 PUSH1 0x40 MSTORE PUSH1 0x4 CALLDATASIZE LT PUSH2 0xDD JUMPI PUSH1 0x0 CALLDATALOAD PUSH1 0xE0 SHR DUP1 PUSH4 0x8456CB59 GT PUSH2 0x7F JUMPI DUP1 PUSH4 0x9FF51675 GT PUSH2 0x59 JUMPI DUP1 PUSH4 0x9FF51675 EQ PUSH2 0x29B JUMPI DUP1 PUSH4 0xA756FDD0 EQ PUSH2 0x2CF JUMPI DUP1 PUSH4 0xABE210C9 EQ PUSH2 0x303 JUMPI DUP1 PUSH4 0xF2FDE38B EQ PUSH2 0x323 JUMPI PUSH1 0x0 DUP1 REVERT JUMPDEST DUP1 PUSH4 0x8456CB59 EQ PUSH2 0x250 JUMPI DUP1 PUSH4 0x8DA5CB5B EQ PUSH2 0x265 JUMPI DUP1 PUSH4 0x8DE93222 EQ PUSH2 0x288 JUMPI PUSH1 0x0 DUP1 REVERT JUMPDEST DUP1 PUSH4 0x5C975ABB GT PUSH2 0xBB JUMPI DUP1 PUSH4 0x5C975ABB EQ PUSH2 0x12E JUMPI DUP1 PUSH4 0x61D027B3 EQ PUSH2 0x156 JUMPI DUP1 PUSH4 0x715018A6 EQ PUSH2 0x1A2 JUMPI DUP1 PUSH4 0x7C1C43E2 EQ PUSH2 0x1B7 JUMPI PUSH1 0x0 DUP1 REVERT JUMPDEST DUP1 PUSH4 0x399FA840 EQ PUSH2 0xE2 JUMPI DUP1 PUSH4 0x3CCFD60B EQ PUSH2 0x104 JUMPI DUP1 PUSH4 0x3F4BA83A EQ PUSH2 0x119 JUMPI JUMPDEST PUSH1 0x0 DUP1 REVERT JUMPDEST CALLVALUE DUP1 ISZERO PUSH2 0xEE JUMPI PUSH1 0x0 DUP1 REVERT JUMPDEST POP PUSH2 0x102 PUSH2 0xFD CALLDATASIZE PUSH1 0x4 PUSH2 0xF57 JUMP JUMPDEST PUSH2 0x343 JUMP JUMPDEST STOP JUMPDEST CALLVALUE DUP1 ISZERO PUSH2 0x110 JUMPI PUSH1 0x0 DUP1 REVERT JUMPDEST POP PUSH2 0x102 PUSH2 0x38A JUMP JUMPDEST CALLVALUE DUP1 ISZERO PUSH2 0x125 JUMPI PUSH1 0x0 DUP1 REVERT JUMPDEST POP PUSH2 0x102 PUSH2 0x3DE JUMP JUMPDEST CALLVALUE DUP1 ISZERO PUSH2 0x13A JUMPI PUSH1 0x0 DUP1 REVERT JUMPDEST POP PUSH1 0x0 SLOAD PUSH1 0xFF AND PUSH1 0x40 MLOAD SWAP1 ISZERO ISZERO DUP2 MSTORE PUSH1 0x20 ADD JUMPDEST PUSH1 0x40 MLOAD DUP1 SWAP2 SUB SWAP1 RETURN JUMPDEST CALLVALUE DUP1 ISZERO PUSH2 0x162 JUMPI PUSH1 0x0 DUP1 REVERT JUMPDEST POP PUSH2 0x18A PUSH32 0x0 DUP2 JUMP JUMPDEST PUSH1 0x40 MLOAD PUSH1 0x1 PUSH1 0x1 PUSH1 0xA0 SHL SUB SWAP1 SWAP2 AND DUP2 MSTORE PUSH1 0x20 ADD PUSH2 0x14D JUMP JUMPDEST CALLVALUE DUP1 ISZERO PUSH2 0x1AE JUMPI PUSH1 0x0 DUP1 REVERT JUMPDEST POP PUSH2 0x102 PUSH2 0x3F0 JUMP JUMPDEST CALLVALUE DUP1 ISZERO PUSH2 0x1C3 JUMPI PUSH1 0x0 DUP1 REVERT JUMPDEST POP PUSH2 0x217 PUSH2 0x1D2 CALLDATASIZE PUSH1 0x4 PUSH2 0xF57 JUMP JUMPDEST PUSH1 0x1 PUSH1 0x20 MSTORE PUSH1 0x0 SWAP1 DUP2 MSTORE PUSH1 0x40 SWAP1 KECCAK256 SLOAD PUSH1 0xFF DUP1 DUP3 AND SWAP2 PUSH2 0x100 DUP2 DIV DUP3 AND SWAP2 PUSH3 0x10000 DUP3 DIV DUP2 AND SWAP2 PUSH4 0x1000000 DUP2 DIV SWAP1 SWAP2 AND SWAP1 PUSH5 0x100000000 SWAP1 DIV PUSH1 0x1 PUSH1 0x1 PUSH1 0x80 SHL SUB AND DUP6 JUMP JUMPDEST PUSH1 0x40 DUP1 MLOAD SWAP6 ISZERO ISZERO DUP7 MSTORE SWAP4 ISZERO ISZERO PUSH1 0x20 DUP7 ADD MSTORE SWAP2 ISZERO ISZERO SWAP3 DUP5 ADD SWAP3 SWAP1 SWAP3 MSTORE SWAP1 ISZERO ISZERO PUSH1 0x60 DUP4 ADD MSTORE PUSH1 0x1 PUSH1 0x1 PUSH1 0x80 SHL SUB AND PUSH1 0x80 DUP3 ADD MSTORE PUSH1 0xA0 ADD PUSH2 0x14D JUMP JUMPDEST CALLVALUE DUP1 ISZERO PUSH2 0x25C JUMPI PUSH1 0x0 DUP1 REVERT JUMPDEST POP PUSH2 0x102 PUSH2 0x402 JUMP JUMPDEST CALLVALUE DUP1 ISZERO PUSH2 0x271 JUMPI PUSH1 0x0 DUP1 REVERT JUMPDEST POP PUSH1 0x0 SLOAD PUSH2 0x100 SWAP1 DIV PUSH1 0x1 PUSH1 0x1 PUSH1 0xA0 SHL SUB AND PUSH2 0x18A JUMP JUMPDEST PUSH2 0x102 PUSH2 0x296 CALLDATASIZE PUSH1 0x4 PUSH2 0xF79 JUMP JUMPDEST PUSH2 0x412 JUMP JUMPDEST CALLVALUE DUP1 ISZERO PUSH2 0x2A7 JUMPI PUSH1 0x0 DUP1 REVERT JUMPDEST POP PUSH2 0x18A PUSH32 0x0 DUP2 JUMP JUMPDEST CALLVALUE DUP1 ISZERO PUSH2 0x2DB JUMPI PUSH1 0x0 DUP1 REVERT JUMPDEST POP PUSH2 0x18A PUSH32 0x0 DUP2 JUMP JUMPDEST CALLVALUE DUP1 ISZERO PUSH2 0x30F JUMPI PUSH1 0x0 DUP1 REVERT JUMPDEST POP PUSH2 0x102 PUSH2 0x31E CALLDATASIZE PUSH1 0x4 PUSH2 0xFB1 JUMP JUMPDEST PUSH2 0x946 JUMP JUMPDEST CALLVALUE DUP1 ISZERO PUSH2 0x32F JUMPI PUSH1 0x0 DUP1 REVERT JUMPDEST POP PUSH2 0x102 PUSH2 0x33E CALLDATASIZE PUSH1 0x4 PUSH2 0xF57 JUMP JUMPDEST PUSH2 0xA79 JUMP JUMPDEST PUSH2 0x34B PUSH2 0xB0B JUMP JUMPDEST PUSH1 0x1 PUSH1 0x1 PUSH1 0xA0 SHL SUB AND PUSH1 0x0 SWAP1 DUP2 MSTORE PUSH1 0x1 PUSH1 0x20 MSTORE PUSH1 0x40 SWAP1 KECCAK256 DUP1 SLOAD PUSH32 0xFFFFFFFFFFFFFFFFFFFFFFFF0000000000000000000000000000000000000000 AND SWAP1 SSTORE JUMP JUMPDEST PUSH2 0x392 PUSH2 0xB0B JUMP JUMPDEST PUSH1 0x0 SLOAD PUSH2 0x100 SWAP1 DIV PUSH1 0x1 PUSH1 0x1 PUSH1 0xA0 SHL SUB AND PUSH1 0x1 PUSH1 0x1 PUSH1 0xA0 SHL SUB AND PUSH2 0x8FC SELFBALANCE SWAP1 DUP2 ISZERO MUL SWAP1 PUSH1 0x40 MLOAD PUSH1 0x0 PUSH1 0x40 MLOAD DUP1 DUP4 SUB DUP2 DUP6 DUP9 DUP9 CALL SWAP4 POP POP POP POP ISZERO DUP1 ISZERO PUSH2 0x3DB JUMPI RETURNDATASIZE PUSH1 0x0 DUP1 RETURNDATACOPY RETURNDATASIZE PUSH1 0x0 REVERT JUMPDEST POP JUMP JUMPDEST PUSH2 0x3E6 PUSH2 0xB0B JUMP JUMPDEST PUSH2 0x3EE PUSH2 0xB6B JUMP JUMPDEST JUMP JUMPDEST PUSH2 0x3F8 PUSH2 0xB0B JUMP JUMPDEST PUSH2 0x3EE PUSH1 0x0 PUSH2 0xBBD JUMP JUMPDEST PUSH2 0x40A PUSH2 0xB0B JUMP JUMPDEST PUSH2 0x3EE PUSH2 0xC2D JUMP JUMPDEST PUSH2 0x41A PUSH2 0xC6A JUMP JUMPDEST PUSH1 0x1 PUSH1 0x1 PUSH1 0xA0 SHL SUB DUP3 AND PUSH1 0x0 SWAP1 DUP2 MSTORE PUSH1 0x1 PUSH1 0x20 DUP2 DUP2 MSTORE PUSH1 0x40 SWAP3 DUP4 SWAP1 KECCAK256 DUP4 MLOAD PUSH1 0xA0 DUP2 ADD DUP6 MSTORE SWAP1 SLOAD PUSH1 0xFF DUP1 DUP3 AND ISZERO ISZERO DUP4 MSTORE PUSH2 0x100 DUP3 DIV DUP2 AND ISZERO ISZERO SWAP4 DUP4 ADD SWAP4 SWAP1 SWAP4 MSTORE PUSH3 0x10000 DUP2 DIV DUP4 AND ISZERO ISZERO SWAP5 DUP3 ADD SWAP5 SWAP1 SWAP5 MSTORE PUSH4 0x1000000 DUP5 DIV SWAP1 SWAP2 AND ISZERO ISZERO PUSH1 0x60 DUP3 ADD MSTORE PUSH5 0x100000000 SWAP1 SWAP3 DIV PUSH1 0x1 PUSH1 0x1 PUSH1 0x80 SHL SUB AND PUSH1 0x80 DUP4 ADD MSTORE DUP3 LT DUP1 PUSH2 0x49E JUMPI POP DUP1 MLOAD ISZERO JUMPDEST ISZERO PUSH2 0x4BC JUMPI PUSH1 0x40 MLOAD PUSH4 0x17DBC4CB PUSH1 0xE2 SHL DUP2 MSTORE PUSH1 0x4 ADD PUSH1 0x40 MLOAD DUP1 SWAP2 SUB SWAP1 REVERT JUMPDEST PUSH1 0x0 DUP3 DUP3 PUSH1 0x80 ADD MLOAD PUSH1 0x1 PUSH1 0x1 PUSH1 0x80 SHL SUB AND PUSH2 0x4D7 SWAP2 SWAP1 PUSH2 0x1053 JUMP JUMPDEST SWAP1 POP PUSH1 0x0 DUP3 PUSH1 0x60 ADD MLOAD PUSH2 0x4EA JUMPI CALLVALUE PUSH2 0x572 JUMP JUMPDEST PUSH1 0x40 MLOAD PUSH4 0x70A08231 PUSH1 0xE0 SHL DUP2 MSTORE CALLER PUSH1 0x4 DUP3 ADD MSTORE PUSH32 0x0 PUSH1 0x1 PUSH1 0x1 PUSH1 0xA0 SHL SUB AND SWAP1 PUSH4 0x70A08231 SWAP1 PUSH1 0x24 ADD PUSH1 0x20 PUSH1 0x40 MLOAD DUP1 DUP4 SUB DUP2 DUP7 GAS STATICCALL ISZERO DUP1 ISZERO PUSH2 0x54E JUMPI RETURNDATASIZE PUSH1 0x0 DUP1 RETURNDATACOPY RETURNDATASIZE PUSH1 0x0 REVERT JUMPDEST POP POP POP POP PUSH1 0x40 MLOAD RETURNDATASIZE PUSH1 0x1F NOT PUSH1 0x1F DUP3 ADD AND DUP3 ADD DUP1 PUSH1 0x40 MSTORE POP DUP2 ADD SWAP1 PUSH2 0x572 SWAP2 SWAP1 PUSH2 0x1072 JUMP JUMPDEST SWAP1 POP DUP2 DUP2 LT ISZERO PUSH2 0x595 JUMPI PUSH1 0x40 MLOAD PUSH4 0x4DDC3B85 PUSH1 0xE0 SHL DUP2 MSTORE PUSH1 0x4 ADD PUSH1 0x40 MLOAD DUP1 SWAP2 SUB SWAP1 REVERT JUMPDEST DUP3 PUSH1 0x60 ADD MLOAD ISZERO PUSH2 0x675 JUMPI PUSH1 0x40 MLOAD PUSH4 0x23B872DD PUSH1 0xE0 SHL DUP2 MSTORE CALLER PUSH1 0x4 DUP3 ADD MSTORE PUSH1 0x1 PUSH1 0x1 PUSH1 0xA0 SHL SUB PUSH32 0x0 DUP2 AND PUSH1 0x24 DUP4 ADD MSTORE PUSH1 0x44 DUP3 ADD DUP5 SWAP1 MSTORE PUSH32 0x0 AND SWAP1 PUSH4 0x23B872DD SWAP1 PUSH1 0x64 ADD PUSH1 0x20 PUSH1 0x40 MLOAD DUP1 DUP4 SUB DUP2 PUSH1 0x0 DUP8 GAS CALL ISZERO DUP1 ISZERO PUSH2 0x634 JUMPI RETURNDATASIZE PUSH1 0x0 DUP1 RETURNDATACOPY RETURNDATASIZE PUSH1 0x0 REVERT JUMPDEST POP POP POP POP PUSH1 0x40 MLOAD RETURNDATASIZE PUSH1 0x1F NOT PUSH1 0x1F DUP3 ADD AND DUP3 ADD DUP1 PUSH1 0x40 MSTORE POP DUP2 ADD SWAP1 PUSH2 0x658 SWAP2 SWAP1 PUSH2 0x108B JUMP JUMPDEST PUSH2 0x675 JUMPI PUSH1 0x40 MLOAD PUSH4 0x12171D83 PUSH1 0xE3 SHL DUP2 MSTORE PUSH1 0x4 ADD PUSH1 0x40 MLOAD DUP1 SWAP2 SUB SWAP1 REVERT JUMPDEST DUP3 PUSH1 0x40 ADD MLOAD ISZERO PUSH2 0x7E4 JUMPI PUSH1 0x40 MLOAD PUSH4 0x70A08231 PUSH1 0xE0 SHL DUP2 MSTORE PUSH1 0x1 PUSH1 0x1 PUSH1 0xA0 SHL SUB PUSH32 0x0 DUP2 AND PUSH1 0x4 DUP4 ADD MSTORE DUP7 AND SWAP1 PUSH4 0x70A08231 SWAP1 PUSH1 0x24 ADD PUSH1 0x20 PUSH1 0x40 MLOAD DUP1 DUP4 SUB DUP2 DUP7 GAS STATICCALL ISZERO DUP1 ISZERO PUSH2 0x6E5 JUMPI RETURNDATASIZE PUSH1 0x0 DUP1 RETURNDATACOPY RETURNDATASIZE PUSH1 0x0 REVERT JUMPDEST POP POP POP POP PUSH1 0x40 MLOAD RETURNDATASIZE PUSH1 0x1F NOT PUSH1 0x1F DUP3 ADD AND DUP3 ADD DUP1 PUSH1 0x40 MSTORE POP DUP2 ADD SWAP1 PUSH2 0x709 SWAP2 SWAP1 PUSH2 0x1072 JUMP JUMPDEST DUP5 GT ISZERO PUSH2 0x729 JUMPI PUSH1 0x40 MLOAD PUSH4 0x6E112E3 PUSH1 0xE4 SHL DUP2 MSTORE PUSH1 0x4 ADD PUSH1 0x40 MLOAD DUP1 SWAP2 SUB SWAP1 REVERT JUMPDEST PUSH1 0x40 MLOAD PUSH4 0x23B872DD PUSH1 0xE0 SHL DUP2 MSTORE PUSH1 0x1 PUSH1 0x1 PUSH1 0xA0 SHL SUB PUSH32 0x0 DUP2 AND PUSH1 0x4 DUP4 ADD MSTORE CALLER PUSH1 0x24 DUP4 ADD MSTORE PUSH1 0x44 DUP3 ADD DUP7 SWAP1 MSTORE DUP7 AND SWAP1 PUSH4 0x23B872DD SWAP1 PUSH1 0x64 ADD PUSH1 0x20 PUSH1 0x40 MLOAD DUP1 DUP4 SUB DUP2 PUSH1 0x0 DUP8 GAS CALL ISZERO DUP1 ISZERO PUSH2 0x79E JUMPI RETURNDATASIZE PUSH1 0x0 DUP1 RETURNDATACOPY RETURNDATASIZE PUSH1 0x0 REVERT JUMPDEST POP POP POP POP PUSH1 0x40 MLOAD RETURNDATASIZE PUSH1 0x1F NOT PUSH1 0x1F DUP3 ADD AND DUP3 ADD DUP1 PUSH1 0x40 MSTORE POP DUP2 ADD SWAP1 PUSH2 0x7C2 SWAP2 SWAP1 PUSH2 0x108B JUMP JUMPDEST PUSH2 0x7DF JUMPI PUSH1 0x40 MLOAD PUSH4 0x12171D83 PUSH1 0xE3 SHL DUP2 MSTORE PUSH1 0x4 ADD PUSH1 0x40 MLOAD DUP1 SWAP2 SUB SWAP1 REVERT JUMPDEST PUSH2 0x907 JUMP JUMPDEST DUP3 PUSH1 0x20 ADD MLOAD ISZERO PUSH2 0x8EE JUMPI PUSH1 0x0 PUSH2 0x7FA DUP7 DUP7 PUSH2 0xCBD JUMP JUMPDEST SWAP1 POP PUSH1 0x0 JUMPDEST DUP6 DUP2 LT ISZERO PUSH2 0x8E7 JUMPI DUP7 PUSH1 0x1 PUSH1 0x1 PUSH1 0xA0 SHL SUB AND PUSH4 0x23B872DD PUSH32 0x0 CALLER DUP6 DUP6 DUP2 MLOAD DUP2 LT PUSH2 0x84A JUMPI PUSH2 0x84A PUSH2 0x10A8 JUMP JUMPDEST PUSH1 0x20 SWAP1 DUP2 MUL SWAP2 SWAP1 SWAP2 ADD ADD MLOAD PUSH1 0x40 MLOAD PUSH32 0xFFFFFFFF00000000000000000000000000000000000000000000000000000000 PUSH1 0xE0 DUP7 SWAP1 SHL AND DUP2 MSTORE PUSH1 0x1 PUSH1 0x1 PUSH1 0xA0 SHL SUB SWAP4 DUP5 AND PUSH1 0x4 DUP3 ADD MSTORE SWAP3 SWAP1 SWAP2 AND PUSH1 0x24 DUP4 ADD MSTORE PUSH1 0x44 DUP3 ADD MSTORE PUSH1 0x64 ADD PUSH1 0x0 PUSH1 0x40 MLOAD DUP1 DUP4 SUB DUP2 PUSH1 0x0 DUP8 DUP1 EXTCODESIZE ISZERO DUP1 ISZERO PUSH2 0x8BC JUMPI PUSH1 0x0 DUP1 REVERT JUMPDEST POP GAS CALL ISZERO DUP1 ISZERO PUSH2 0x8D0 JUMPI RETURNDATASIZE PUSH1 0x0 DUP1 RETURNDATACOPY RETURNDATASIZE PUSH1 0x0 REVERT JUMPDEST POP POP POP POP DUP1 DUP1 PUSH2 0x8DF SWAP1 PUSH2 0x10BE JUMP JUMPDEST SWAP2 POP POP PUSH2 0x7FF JUMP JUMPDEST POP POP PUSH2 0x907 JUMP JUMPDEST PUSH1 0x40 MLOAD PUSH4 0x17DBC4CB PUSH1 0xE2 SHL DUP2 MSTORE PUSH1 0x4 ADD PUSH1 0x40 MLOAD DUP1 SWAP2 SUB SWAP1 REVERT JUMPDEST PUSH1 0x40 MLOAD DUP5 SWAP1 PUSH1 0x1 PUSH1 0x1 PUSH1 0xA0 SHL SUB DUP8 AND SWAP1 CALLER SWAP1 PUSH32 0x6B46B1FC4875CC1CC6D7951CAF295AC5028B3FE91E7A9885FD9DE8AEB79D2422 SWAP1 PUSH1 0x0 SWAP1 LOG4 POP POP POP POP POP JUMP JUMPDEST PUSH2 0x94E PUSH2 0xB0B JUMP JUMPDEST PUSH1 0x1 PUSH1 0x1 PUSH1 0xA0 SHL SUB DUP7 AND ISZERO DUP1 ISZERO SWAP1 PUSH2 0x96F JUMPI POP PUSH1 0x0 DUP2 PUSH1 0x1 PUSH1 0x1 PUSH1 0x80 SHL SUB AND GT JUMPDEST DUP1 ISZERO PUSH2 0x978 JUMPI POP DUP5 JUMPDEST DUP1 ISZERO PUSH2 0x988 JUMPI POP DUP4 ISZERO ISZERO DUP4 ISZERO ISZERO EQ ISZERO JUMPDEST PUSH2 0x991 JUMPI PUSH1 0x0 DUP1 REVERT JUMPDEST PUSH1 0x40 DUP1 MLOAD PUSH1 0xA0 DUP2 ADD DUP3 MSTORE SWAP6 ISZERO ISZERO DUP7 MSTORE SWAP4 ISZERO ISZERO PUSH1 0x20 DUP1 DUP8 ADD SWAP2 DUP3 MSTORE SWAP4 ISZERO ISZERO DUP7 DUP7 ADD SWAP1 DUP2 MSTORE SWAP3 ISZERO ISZERO PUSH1 0x60 DUP8 ADD SWAP1 DUP2 MSTORE PUSH1 0x1 PUSH1 0x1 PUSH1 0x80 SHL SUB SWAP3 DUP4 AND PUSH1 0x80 DUP9 ADD SWAP1 DUP2 MSTORE PUSH1 0x1 PUSH1 0x1 PUSH1 0xA0 SHL SUB SWAP9 SWAP1 SWAP9 AND PUSH1 0x0 SWAP1 DUP2 MSTORE PUSH1 0x1 SWAP1 SWAP6 MSTORE SWAP5 SWAP1 SWAP4 KECCAK256 SWAP5 MLOAD DUP6 SLOAD SWAP4 MLOAD SWAP3 MLOAD SWAP5 MLOAD SWAP7 MLOAD PUSH2 0xFFFF NOT SWAP1 SWAP5 AND SWAP1 ISZERO ISZERO PUSH2 0xFF00 NOT AND OR PUSH2 0x100 SWAP3 ISZERO ISZERO SWAP3 SWAP1 SWAP3 MUL SWAP2 SWAP1 SWAP2 OR PUSH4 0xFFFF0000 NOT AND PUSH3 0x10000 SWAP4 ISZERO ISZERO SWAP4 SWAP1 SWAP4 MUL PUSH4 0xFF000000 NOT AND SWAP3 SWAP1 SWAP3 OR PUSH4 0x1000000 SWAP5 ISZERO ISZERO SWAP5 SWAP1 SWAP5 MUL SWAP4 SWAP1 SWAP4 OR PUSH32 0xFFFFFFFFFFFFFFFFFFFFFFFF00000000000000000000000000000000FFFFFFFF AND PUSH5 0x100000000 SWAP4 SWAP1 SWAP2 AND SWAP3 SWAP1 SWAP3 MUL SWAP2 SWAP1 SWAP2 OR SWAP1 SSTORE JUMP JUMPDEST PUSH2 0xA81 PUSH2 0xB0B JUMP JUMPDEST PUSH1 0x1 PUSH1 0x1 PUSH1 0xA0 SHL SUB DUP2 AND PUSH2 0xB02 JUMPI PUSH1 0x40 MLOAD PUSH3 0x461BCD PUSH1 0xE5 SHL DUP2 MSTORE PUSH1 0x20 PUSH1 0x4 DUP3 ADD MSTORE PUSH1 0x26 PUSH1 0x24 DUP3 ADD MSTORE PUSH32 0x4F776E61626C653A206E6577206F776E657220697320746865207A65726F2061 PUSH1 0x44 DUP3 ADD MSTORE PUSH32 0x6464726573730000000000000000000000000000000000000000000000000000 PUSH1 0x64 DUP3 ADD MSTORE PUSH1 0x84 ADD JUMPDEST PUSH1 0x40 MLOAD DUP1 SWAP2 SUB SWAP1 REVERT JUMPDEST PUSH2 0x3DB DUP2 PUSH2 0xBBD JUMP JUMPDEST PUSH1 0x0 SLOAD PUSH1 0x1 PUSH1 0x1 PUSH1 0xA0 SHL SUB PUSH2 0x100 SWAP1 SWAP2 DIV AND CALLER EQ PUSH2 0x3EE JUMPI PUSH1 0x40 MLOAD PUSH3 0x461BCD PUSH1 0xE5 SHL DUP2 MSTORE PUSH1 0x20 PUSH1 0x4 DUP3 ADD DUP2 SWAP1 MSTORE PUSH1 0x24 DUP3 ADD MSTORE PUSH32 0x4F776E61626C653A2063616C6C6572206973206E6F7420746865206F776E6572 PUSH1 0x44 DUP3 ADD MSTORE PUSH1 0x64 ADD PUSH2 0xAF9 JUMP JUMPDEST PUSH2 0xB73 PUSH2 0xEE9 JUMP JUMPDEST PUSH1 0x0 DUP1 SLOAD PUSH1 0xFF NOT AND SWAP1 SSTORE PUSH32 0x5DB9EE0A495BF2E6FF9C91A7834C1BA4FDD244A5E8AA4E537BD38AEAE4B073AA CALLER JUMPDEST PUSH1 0x40 MLOAD PUSH1 0x1 PUSH1 0x1 PUSH1 0xA0 SHL SUB SWAP1 SWAP2 AND DUP2 MSTORE PUSH1 0x20 ADD PUSH1 0x40 MLOAD DUP1 SWAP2 SUB SWAP1 LOG1 JUMP JUMPDEST PUSH1 0x0 DUP1 SLOAD PUSH1 0x1 PUSH1 0x1 PUSH1 0xA0 SHL SUB DUP4 DUP2 AND PUSH2 0x100 DUP2 DUP2 MUL PUSH32 0xFFFFFFFFFFFFFFFFFFFFFF0000000000000000000000000000000000000000FF DUP6 AND OR DUP6 SSTORE PUSH1 0x40 MLOAD SWAP4 DIV SWAP2 SWAP1 SWAP2 AND SWAP3 SWAP1 SWAP2 DUP4 SWAP2 PUSH32 0x8BE0079C531659141344CD1FD0A4F28419497F9722A3DAAFE3B4186F6B6457E0 SWAP2 LOG3 POP POP JUMP JUMPDEST PUSH2 0xC35 PUSH2 0xC6A JUMP JUMPDEST PUSH1 0x0 DUP1 SLOAD PUSH1 0xFF NOT AND PUSH1 0x1 OR SWAP1 SSTORE PUSH32 0x62E78CEA01BEE320CD4E420270B5EA74000D11B0C9F74754EBDBFC544B05A258 PUSH2 0xBA0 CALLER SWAP1 JUMP JUMPDEST PUSH1 0x0 SLOAD PUSH1 0xFF AND ISZERO PUSH2 0x3EE JUMPI PUSH1 0x40 MLOAD PUSH3 0x461BCD PUSH1 0xE5 SHL DUP2 MSTORE PUSH1 0x20 PUSH1 0x4 DUP3 ADD MSTORE PUSH1 0x10 PUSH1 0x24 DUP3 ADD MSTORE PUSH32 0x5061757361626C653A2070617573656400000000000000000000000000000000 PUSH1 0x44 DUP3 ADD MSTORE PUSH1 0x64 ADD PUSH2 0xAF9 JUMP JUMPDEST PUSH1 0x40 MLOAD PUSH4 0x70A08231 PUSH1 0xE0 SHL DUP2 MSTORE PUSH1 0x1 PUSH1 0x1 PUSH1 0xA0 SHL SUB PUSH32 0x0 DUP2 AND PUSH1 0x4 DUP4 ADD MSTORE PUSH1 0x60 SWAP2 PUSH1 0x0 SWAP2 DUP6 AND SWAP1 PUSH4 0x70A08231 SWAP1 PUSH1 0x24 ADD PUSH1 0x20 PUSH1 0x40 MLOAD DUP1 DUP4 SUB DUP2 DUP7 GAS STATICCALL ISZERO DUP1 ISZERO PUSH2 0xD29 JUMPI RETURNDATASIZE PUSH1 0x0 DUP1 RETURNDATACOPY RETURNDATASIZE PUSH1 0x0 REVERT JUMPDEST POP POP POP POP PUSH1 0x40 MLOAD RETURNDATASIZE PUSH1 0x1F NOT PUSH1 0x1F DUP3 ADD AND DUP3 ADD DUP1 PUSH1 0x40 MSTORE POP DUP2 ADD SWAP1 PUSH2 0xD4D SWAP2 SWAP1 PUSH2 0x1072 JUMP JUMPDEST SWAP1 POP DUP1 DUP4 GT ISZERO PUSH2 0xD70 JUMPI PUSH1 0x40 MLOAD PUSH4 0x6E112E3 PUSH1 0xE4 SHL DUP2 MSTORE PUSH1 0x4 ADD PUSH1 0x40 MLOAD DUP1 SWAP2 SUB SWAP1 REVERT JUMPDEST PUSH1 0x0 PUSH2 0xD7C DUP5 DUP4 PUSH2 0x10D7 JUMP JUMPDEST PUSH2 0xD87 SWAP1 PUSH1 0x1 PUSH2 0x10EE JUMP JUMPDEST PUSH2 0xD92 PUSH1 0x1 NUMBER PUSH2 0x10D7 JUMP JUMPDEST PUSH2 0xD9D SWAP2 SWAP1 BLOCKHASH PUSH2 0x1106 JUMP JUMPDEST SWAP1 POP PUSH1 0x0 DUP5 PUSH8 0xFFFFFFFFFFFFFFFF DUP2 GT ISZERO PUSH2 0xDBA JUMPI PUSH2 0xDBA PUSH2 0x1128 JUMP JUMPDEST PUSH1 0x40 MLOAD SWAP1 DUP1 DUP3 MSTORE DUP1 PUSH1 0x20 MUL PUSH1 0x20 ADD DUP3 ADD PUSH1 0x40 MSTORE DUP1 ISZERO PUSH2 0xDE3 JUMPI DUP2 PUSH1 0x20 ADD PUSH1 0x20 DUP3 MUL DUP1 CALLDATASIZE DUP4 CALLDATACOPY ADD SWAP1 POP JUMPDEST POP SWAP1 POP PUSH1 0x0 JUMPDEST DUP6 DUP2 LT ISZERO PUSH2 0xEDF JUMPI PUSH1 0x1 PUSH1 0x1 PUSH1 0xA0 SHL SUB DUP8 AND PUSH4 0x2F745C59 PUSH32 0x0 PUSH2 0xE2B DUP5 DUP8 PUSH2 0x10EE JUMP JUMPDEST PUSH1 0x40 MLOAD PUSH32 0xFFFFFFFF00000000000000000000000000000000000000000000000000000000 PUSH1 0xE0 DUP6 SWAP1 SHL AND DUP2 MSTORE PUSH1 0x1 PUSH1 0x1 PUSH1 0xA0 SHL SUB SWAP1 SWAP3 AND PUSH1 0x4 DUP4 ADD MSTORE PUSH1 0x24 DUP3 ADD MSTORE PUSH1 0x44 ADD PUSH1 0x20 PUSH1 0x40 MLOAD DUP1 DUP4 SUB DUP2 DUP7 GAS STATICCALL ISZERO DUP1 ISZERO PUSH2 0xE8C JUMPI RETURNDATASIZE PUSH1 0x0 DUP1 RETURNDATACOPY RETURNDATASIZE PUSH1 0x0 REVERT JUMPDEST POP POP POP POP PUSH1 0x40 MLOAD RETURNDATASIZE PUSH1 0x1F NOT PUSH1 0x1F DUP3 ADD AND DUP3 ADD DUP1 PUSH1 0x40 MSTORE POP DUP2 ADD SWAP1 PUSH2 0xEB0 SWAP2 SWAP1 PUSH2 0x1072 JUMP JUMPDEST DUP3 DUP3 DUP2 MLOAD DUP2 LT PUSH2 0xEC2 JUMPI PUSH2 0xEC2 PUSH2 0x10A8 JUMP JUMPDEST PUSH1 0x20 SWAP1 DUP2 MUL SWAP2 SWAP1 SWAP2 ADD ADD MSTORE DUP1 PUSH2 0xED7 DUP2 PUSH2 0x10BE JUMP JUMPDEST SWAP2 POP POP PUSH2 0xDE9 JUMP JUMPDEST POP SWAP6 SWAP5 POP POP POP POP POP JUMP JUMPDEST PUSH1 0x0 SLOAD PUSH1 0xFF AND PUSH2 0x3EE JUMPI PUSH1 0x40 MLOAD PUSH3 0x461BCD PUSH1 0xE5 SHL DUP2 MSTORE PUSH1 0x20 PUSH1 0x4 DUP3 ADD MSTORE PUSH1 0x14 PUSH1 0x24 DUP3 ADD MSTORE PUSH32 0x5061757361626C653A206E6F7420706175736564000000000000000000000000 PUSH1 0x44 DUP3 ADD MSTORE PUSH1 0x64 ADD PUSH2 0xAF9 JUMP JUMPDEST DUP1 CALLDATALOAD PUSH1 0x1 PUSH1 0x1 PUSH1 0xA0 SHL SUB DUP2 AND DUP2 EQ PUSH2 0xF52 JUMPI PUSH1 0x0 DUP1 REVERT JUMPDEST SWAP2 SWAP1 POP JUMP JUMPDEST PUSH1 0x0 PUSH1 0x20 DUP3 DUP5 SUB SLT ISZERO PUSH2 0xF69 JUMPI PUSH1 0x0 DUP1 REVERT JUMPDEST PUSH2 0xF72 DUP3 PUSH2 0xF3B JUMP JUMPDEST SWAP4 SWAP3 POP POP POP JUMP JUMPDEST PUSH1 0x0 DUP1 PUSH1 0x40 DUP4 DUP6 SUB SLT ISZERO PUSH2 0xF8C JUMPI PUSH1 0x0 DUP1 REVERT JUMPDEST PUSH2 0xF95 DUP4 PUSH2 0xF3B JUMP JUMPDEST SWAP5 PUSH1 0x20 SWAP4 SWAP1 SWAP4 ADD CALLDATALOAD SWAP4 POP POP POP JUMP JUMPDEST DUP1 ISZERO ISZERO DUP2 EQ PUSH2 0x3DB JUMPI PUSH1 0x0 DUP1 REVERT JUMPDEST PUSH1 0x0 DUP1 PUSH1 0x0 DUP1 PUSH1 0x0 DUP1 PUSH1 0xC0 DUP8 DUP10 SUB SLT ISZERO PUSH2 0xFCA JUMPI PUSH1 0x0 DUP1 REVERT JUMPDEST PUSH2 0xFD3 DUP8 PUSH2 0xF3B JUMP JUMPDEST SWAP6 POP PUSH1 0x20 DUP8 ADD CALLDATALOAD PUSH2 0xFE3 DUP2 PUSH2 0xFA3 JUMP JUMPDEST SWAP5 POP PUSH1 0x40 DUP8 ADD CALLDATALOAD PUSH2 0xFF3 DUP2 PUSH2 0xFA3 JUMP JUMPDEST SWAP4 POP PUSH1 0x60 DUP8 ADD CALLDATALOAD PUSH2 0x1003 DUP2 PUSH2 0xFA3 JUMP JUMPDEST SWAP3 POP PUSH1 0x80 DUP8 ADD CALLDATALOAD PUSH2 0x1013 DUP2 PUSH2 0xFA3 JUMP JUMPDEST SWAP2 POP PUSH1 0xA0 DUP8 ADD CALLDATALOAD PUSH1 0x1 PUSH1 0x1 PUSH1 0x80 SHL SUB DUP2 AND DUP2 EQ PUSH2 0x102F JUMPI PUSH1 0x0 DUP1 REVERT JUMPDEST DUP1 SWAP2 POP POP SWAP3 SWAP6 POP SWAP3 SWAP6 POP SWAP3 SWAP6 JUMP JUMPDEST PUSH4 0x4E487B71 PUSH1 0xE0 SHL PUSH1 0x0 MSTORE PUSH1 0x11 PUSH1 0x4 MSTORE PUSH1 0x24 PUSH1 0x0 REVERT JUMPDEST PUSH1 0x0 DUP2 PUSH1 0x0 NOT DIV DUP4 GT DUP3 ISZERO ISZERO AND ISZERO PUSH2 0x106D JUMPI PUSH2 0x106D PUSH2 0x103D JUMP JUMPDEST POP MUL SWAP1 JUMP JUMPDEST PUSH1 0x0 PUSH1 0x20 DUP3 DUP5 SUB SLT ISZERO PUSH2 0x1084 JUMPI PUSH1 0x0 DUP1 REVERT JUMPDEST POP MLOAD SWAP2 SWAP1 POP JUMP JUMPDEST PUSH1 0x0 PUSH1 0x20 DUP3 DUP5 SUB SLT ISZERO PUSH2 0x109D JUMPI PUSH1 0x0 DUP1 REVERT JUMPDEST DUP2 MLOAD PUSH2 0xF72 DUP2 PUSH2 0xFA3 JUMP JUMPDEST PUSH4 0x4E487B71 PUSH1 0xE0 SHL PUSH1 0x0 MSTORE PUSH1 0x32 PUSH1 0x4 MSTORE PUSH1 0x24 PUSH1 0x0 REVERT JUMPDEST PUSH1 0x0 PUSH1 0x1 DUP3 ADD PUSH2 0x10D0 JUMPI PUSH2 0x10D0 PUSH2 0x103D JUMP JUMPDEST POP PUSH1 0x1 ADD SWAP1 JUMP JUMPDEST PUSH1 0x0 DUP3 DUP3 LT ISZERO PUSH2 0x10E9 JUMPI PUSH2 0x10E9 PUSH2 0x103D JUMP JUMPDEST POP SUB SWAP1 JUMP JUMPDEST PUSH1 0x0 DUP3 NOT DUP3 GT ISZERO PUSH2 0x1101 JUMPI PUSH2 0x1101 PUSH2 0x103D JUMP JUMPDEST POP ADD SWAP1 JUMP JUMPDEST PUSH1 0x0 DUP3 PUSH2 0x1123 JUMPI PUSH4 0x4E487B71 PUSH1 0xE0 SHL PUSH1 0x0 MSTORE PUSH1 0x12 PUSH1 0x4 MSTORE PUSH1 0x24 PUSH1 0x0 REVERT JUMPDEST POP MOD SWAP1 JUMP JUMPDEST PUSH4 0x4E487B71 PUSH1 0xE0 SHL PUSH1 0x0 MSTORE PUSH1 0x41 PUSH1 0x4 MSTORE PUSH1 0x24 PUSH1 0x0 REVERT INVALID LOG2 PUSH5 0x6970667358 0x22 SLT KECCAK256 0xD6 OR EXTCODEHASH PUSH10 0x930522DCF8724D32990A 0xDD 0xD5 0xCA SWAP1 NOT SUB SWAP6 SUB PUSH5 0x486FD3117F 0xD0 0xAD SWAP9 PUSH27 0x64736F6C634300080D003300000000000000000000000000000000 "
    },
    "gasEstimates": {
      "creation": {
        "codeDepositCost": "893600",
        "executionCost": "infinite",
        "totalCost": "infinite"
      },
      "external": {
        "addItem(address,bool,bool,bool,bool,uint128)": "infinite",
        "oasisGraveyard()": "infinite",
        "ost()": "infinite",
        "owner()": "2387",
        "pause()": "infinite",
        "paused()": "2304",
        "purchase(address,uint256)": "infinite",
        "removeItem(address)": "26803",
        "renounceOwnership()": "infinite",
        "shopItems(address)": "2838",
        "transferOwnership(address)": "28442",
        "treasury()": "infinite",
        "unpause()": "infinite",
        "withdraw()": "infinite"
      },
      "internal": {
        "getRandomTokenIds(address,uint256)": "infinite"
      }
    },
    "methodIdentifiers": {
      "addItem(address,bool,bool,bool,bool,uint128)": "abe210c9",
      "oasisGraveyard()": "9ff51675",
      "ost()": "a756fdd0",
      "owner()": "8da5cb5b",
      "pause()": "8456cb59",
      "paused()": "5c975abb",
      "purchase(address,uint256)": "8de93222",
      "removeItem(address)": "399fa840",
      "renounceOwnership()": "715018a6",
      "shopItems(address)": "7c1c43e2",
      "transferOwnership(address)": "f2fde38b",
      "treasury()": "61d027b3",
      "unpause()": "3f4ba83a",
      "withdraw()": "3ccfd60b"
    }
  },
  "storageLayout": {
    "storage": [
      {
        "astId": 2717,
        "contract": "OasisShop.sol:OasisShop",
        "label": "_paused",
        "offset": 0,
        "slot": "0",
        "type": "t_bool"
      },
      {
        "astId": 1309,
        "contract": "OasisShop.sol:OasisShop",
        "label": "_owner",
        "offset": 1,
        "slot": "0",
        "type": "t_address"
      },
      {
        "astId": 749,
        "contract": "OasisShop.sol:OasisShop",
        "label": "shopItems",
        "offset": 0,
        "slot": "1",
        "type": "t_mapping(t_address,t_struct(ShopItem)760_storage)"
      }
    ],
    "types": {
      "t_address": {
        "encoding": "inplace",
        "label": "address",
        "numberOfBytes": "20"
      },
      "t_bool": {
        "encoding": "inplace",
        "label": "bool",
        "numberOfBytes": "1"
      },
      "t_mapping(t_address,t_struct(ShopItem)760_storage)": {
        "encoding": "mapping",
        "key": "t_address",
        "label": "mapping(address => struct OasisShop.ShopItem)",
        "numberOfBytes": "32",
        "value": "t_struct(ShopItem)760_storage"
      },
      "t_struct(ShopItem)760_storage": {
        "encoding": "inplace",
        "label": "struct OasisShop.ShopItem",
        "members": [
          {
            "astId": 751,
            "contract": "OasisShop.sol:OasisShop",
            "label": "isActive",
            "offset": 0,
            "slot": "0",
            "type": "t_bool"
          },
          {
            "astId": 753,
            "contract": "OasisShop.sol:OasisShop",
            "label": "is721",
            "offset": 1,
            "slot": "0",
            "type": "t_bool"
          },
          {
            "astId": 755,
            "contract": "OasisShop.sol:OasisShop",
            "label": "is20",
            "offset": 2,
            "slot": "0",
            "type": "t_bool"
          },
          {
            "astId": 757,
            "contract": "OasisShop.sol:OasisShop",
            "label": "withOst",
            "offset": 3,
            "slot": "0",
            "type": "t_bool"
          },
          {
            "astId": 759,
            "contract": "OasisShop.sol:OasisShop",
            "label": "price",
            "offset": 4,
            "slot": "0",
            "type": "t_uint128"
          }
        ],
        "numberOfBytes": "32"
      },
      "t_uint128": {
        "encoding": "inplace",
        "label": "uint128",
        "numberOfBytes": "16"
      }
    }
  },
  "userdoc": {
    "errors": {
      "InvalidArguments()": [
        {
          "notice": "ERRORS ///"
        }
      ]
    },
    "events": {
      "PurchasedItems(address,address,uint256)": {
        "notice": "EVENTS ///"
      }
    },
    "kind": "user",
    "methods": {
      "constructor": {
        "notice": "CONSTRUCTOR ///"
      },
      "oasisGraveyard()": {
        "notice": "STATE VARIABLES ///"
      },
      "pause()": {
        "notice": "OWNER FUNCTIONS ///"
      },
      "purchase(address,uint256)": {
        "notice": "USER FUNCTIONS ///"
      }
    },
    "notice": ". Scalable Shop for the Oasis. Supports any ERC-20 or ERC-721 Enumerable to it. Users can purchase with $ETH or $OST.",
    "version": 1
  }
}