{
  "abi": [
    {
      "inputs": [
        {
          "internalType": "address",
          "name": "_oasisGraveyard",
          "type": "address"
        },
        {
          "internalType": "address",
          "name": "_treasury",
          "type": "address"
        },
        {
          "internalType": "address",
          "name": "_ost",
          "type": "address"
        },
        {
          "internalType": "uint256",
          "name": "_weiPricePerOst",
          "type": "uint256"
        }
      ],
      "stateMutability": "nonpayable",
      "type": "constructor"
    },
    {
      "anonymous": false,
      "inputs": [
        {
          "indexed": true,
          "internalType": "address",
          "name": "previousOwner",
          "type": "address"
        },
        {
          "indexed": true,
          "internalType": "address",
          "name": "newOwner",
          "type": "address"
        }
      ],
      "name": "OwnershipTransferred",
      "type": "event"
    },
    {
      "anonymous": false,
      "inputs": [
        {
          "indexed": false,
          "internalType": "address",
          "name": "account",
          "type": "address"
        }
      ],
      "name": "Paused",
      "type": "event"
    },
    {
      "anonymous": false,
      "inputs": [
        {
          "indexed": true,
          "internalType": "address",
          "name": "buyer",
          "type": "address"
        },
        {
          "indexed": true,
          "internalType": "address",
          "name": "itemContract",
          "type": "address"
        },
        {
          "indexed": true,
          "internalType": "uint256",
          "name": "itemId",
          "type": "uint256"
        }
      ],
      "name": "PurchasedItem",
      "type": "event"
    },
    {
      "anonymous": false,
      "inputs": [
        {
          "indexed": true,
          "internalType": "address",
          "name": "buyer",
          "type": "address"
        },
        {
          "indexed": true,
          "internalType": "uint256",
          "name": "quantity",
          "type": "uint256"
        }
      ],
      "name": "PurchasedOst",
      "type": "event"
    },
    {
      "anonymous": false,
      "inputs": [
        {
          "indexed": false,
          "internalType": "address",
          "name": "account",
          "type": "address"
        }
      ],
      "name": "Unpaused",
      "type": "event"
    },
    {
      "inputs": [
        {
          "internalType": "uint256",
          "name": "amount",
          "type": "uint256"
        }
      ],
      "name": "activateRandomItems",
      "outputs": [],
      "stateMutability": "nonpayable",
      "type": "function"
    },
    {
      "inputs": [
        {
          "internalType": "address",
          "name": "_itemContract",
          "type": "address"
        },
        {
          "internalType": "uint64[]",
          "name": "_itemIds",
          "type": "uint64[]"
        },
        {
          "internalType": "uint128",
          "name": "_itemPrice",
          "type": "uint128"
        }
      ],
      "name": "addItems",
      "outputs": [],
      "stateMutability": "nonpayable",
      "type": "function"
    },
    {
      "inputs": [],
      "name": "getItems",
      "outputs": [
        {
          "components": [
            {
              "internalType": "bool",
              "name": "isActive",
              "type": "bool"
            },
            {
              "internalType": "address",
              "name": "itemContract",
              "type": "address"
            },
            {
              "internalType": "uint64",
              "name": "itemId",
              "type": "uint64"
            },
            {
              "internalType": "uint128",
              "name": "itemPrice",
              "type": "uint128"
            }
          ],
          "internalType": "struct OasisShop.ShopItem[]",
          "name": "shopItems_",
          "type": "tuple[]"
        }
      ],
      "stateMutability": "view",
      "type": "function"
    },
    {
      "inputs": [],
      "name": "oasisGraveyard",
      "outputs": [
        {
          "internalType": "address",
          "name": "",
          "type": "address"
        }
      ],
      "stateMutability": "view",
      "type": "function"
    },
    {
      "inputs": [],
      "name": "ost",
      "outputs": [
        {
          "internalType": "address",
          "name": "",
          "type": "address"
        }
      ],
      "stateMutability": "view",
      "type": "function"
    },
    {
      "inputs": [],
      "name": "owner",
      "outputs": [
        {
          "internalType": "address",
          "name": "",
          "type": "address"
        }
      ],
      "stateMutability": "view",
      "type": "function"
    },
    {
      "inputs": [],
      "name": "pause",
      "outputs": [],
      "stateMutability": "nonpayable",
      "type": "function"
    },
    {
      "inputs": [],
      "name": "paused",
      "outputs": [
        {
          "internalType": "bool",
          "name": "",
          "type": "bool"
        }
      ],
      "stateMutability": "view",
      "type": "function"
    },
    {
      "inputs": [
        {
          "internalType": "uint256",
          "name": "_quantity",
          "type": "uint256"
        }
      ],
      "name": "purchaseOst",
      "outputs": [],
      "stateMutability": "payable",
      "type": "function"
    },
    {
      "inputs": [
        {
          "internalType": "address",
          "name": "_itemContract",
          "type": "address"
        },
        {
          "internalType": "uint256",
          "name": "_itemId",
          "type": "uint256"
        }
      ],
      "name": "purchaseShopItem",
      "outputs": [
        {
          "internalType": "bool",
          "name": "replaced_",
          "type": "bool"
        }
      ],
      "stateMutability": "nonpayable",
      "type": "function"
    },
    {
      "inputs": [
        {
          "internalType": "address",
          "name": "_itemContract",
          "type": "address"
        },
        {
          "internalType": "uint256[]",
          "name": "_itemIds",
          "type": "uint256[]"
        }
      ],
      "name": "removeItems",
      "outputs": [],
      "stateMutability": "nonpayable",
      "type": "function"
    },
    {
      "inputs": [],
      "name": "renounceOwnership",
      "outputs": [],
      "stateMutability": "nonpayable",
      "type": "function"
    },
    {
      "inputs": [
        {
          "internalType": "uint256",
          "name": "_weiPricePerOst",
          "type": "uint256"
        }
      ],
      "name": "setOstPrice",
      "outputs": [],
      "stateMutability": "nonpayable",
      "type": "function"
    },
    {
      "inputs": [
        {
          "internalType": "address",
          "name": "newOwner",
          "type": "address"
        }
      ],
      "name": "transferOwnership",
      "outputs": [],
      "stateMutability": "nonpayable",
      "type": "function"
    },
    {
      "inputs": [],
      "name": "treasury",
      "outputs": [
        {
          "internalType": "address",
          "name": "",
          "type": "address"
        }
      ],
      "stateMutability": "view",
      "type": "function"
    },
    {
      "inputs": [],
      "name": "unpause",
      "outputs": [],
      "stateMutability": "nonpayable",
      "type": "function"
    },
    {
      "inputs": [],
      "name": "weiPricePerOst",
      "outputs": [
        {
          "internalType": "uint256",
          "name": "",
          "type": "uint256"
        }
      ],
      "stateMutability": "view",
      "type": "function"
    },
    {
      "inputs": [],
      "name": "withdraw",
      "outputs": [],
      "stateMutability": "nonpayable",
      "type": "function"
    }
  ],
  "devdoc": {
    "author": ". 0xFirekeeper",
    "kind": "dev",
    "methods": {
      "owner()": {
        "details": "Returns the address of the current owner."
      },
      "paused()": {
        "details": "Returns true if the contract is paused, and false otherwise."
      },
      "renounceOwnership()": {
        "details": "Leaves the contract without owner. It will not be possible to call `onlyOwner` functions anymore. Can only be called by the current owner. NOTE: Renouncing ownership will leave the contract without an owner, thereby removing any functionality that is only available to the owner."
      },
      "transferOwnership(address)": {
        "details": "Transfers ownership of the contract to a new account (`newOwner`). Can only be called by the current owner."
      }
    },
    "title": ". Oasis Shop",
    "version": 1
  },
  "evm": {
    "assembly": "    /* \"OasisShop.sol\":524:9153  contract OasisShop is Pausable, Ownable {... */\n  mstore(0x40, 0xe0)\n    /* \"OasisShop.sol\":1873:2157  constructor(... */\n  callvalue\n  dup1\n  iszero\n  tag_1\n  jumpi\n  0x00\n  dup1\n  revert\ntag_1:\n  pop\n  mload(0x40)\n  sub(codesize, bytecodeSize)\n  dup1\n  bytecodeSize\n  dup4\n  codecopy\n  dup2\n  add\n  0x40\n  dup2\n  swap1\n  mstore\n  tag_2\n  swap2\n  tag_3\n  jump\t// in\ntag_2:\n    /* \"@openzeppelin/contracts/security/Pausable.sol\":1006:1011   */\n  0x00\n    /* \"@openzeppelin/contracts/security/Pausable.sol\":996:1011   */\n  dup1\n  sload\n  not(0xff)\n  and\n  swap1\n  sstore\n    /* \"@openzeppelin/contracts/access/Ownable.sol\":936:968   */\n  tag_9\n    /* \"@openzeppelin/contracts/utils/Context.sol\":719:729   */\n  caller\n    /* \"@openzeppelin/contracts/access/Ownable.sol\":936:954   */\n  tag_12\n    /* \"@openzeppelin/contracts/access/Ownable.sol\":936:968   */\n  jump\t// in\ntag_9:\n  sub(shl(0xa0, 0x01), 0x01)\n    /* \"OasisShop.sol\":2022:2054  oasisGraveyard = _oasisGraveyard */\n  swap4\n  dup5\n  and\n  0x80\n  mstore\n    /* \"OasisShop.sol\":2065:2085  treasury = _treasury */\n  swap2\n  dup4\n  and\n  0xa0\n  mstore\n    /* \"OasisShop.sol\":2096:2106  ost = _ost */\n  swap1\n  swap2\n  and\n  0xc0\n  mstore\n    /* \"OasisShop.sol\":2117:2131  weiPricePerOst */\n  0x01\n    /* \"OasisShop.sol\":2117:2149  weiPricePerOst = _weiPricePerOst */\n  sstore\n    /* \"OasisShop.sol\":524:9153  contract OasisShop is Pausable, Ownable {... */\n  jump(tag_18)\n    /* \"@openzeppelin/contracts/access/Ownable.sol\":2433:2620   */\ntag_12:\n    /* \"@openzeppelin/contracts/access/Ownable.sol\":2506:2522   */\n  0x00\n    /* \"@openzeppelin/contracts/access/Ownable.sol\":2525:2531   */\n  dup1\n  sload\n  sub(shl(0xa0, 0x01), 0x01)\n    /* \"@openzeppelin/contracts/access/Ownable.sol\":2541:2558   */\n  dup4\n  dup2\n  and\n    /* \"@openzeppelin/contracts/access/Ownable.sol\":2525:2531   */\n  0x0100\n    /* \"@openzeppelin/contracts/access/Ownable.sol\":2541:2558   */\n  dup2\n  dup2\n  mul\n  not(sub(shl(0xa8, 0x01), 0x0100))\n  dup6\n  and\n  or\n  dup6\n  sstore\n    /* \"@openzeppelin/contracts/access/Ownable.sol\":2573:2613   */\n  mload(0x40)\n    /* \"@openzeppelin/contracts/access/Ownable.sol\":2525:2531   */\n  swap4\n  div\n  swap2\n  swap1\n  swap2\n  and\n  swap3\n    /* \"@openzeppelin/contracts/access/Ownable.sol\":2541:2558   */\n  swap1\n  swap2\n    /* \"@openzeppelin/contracts/access/Ownable.sol\":2525:2531   */\n  dup4\n  swap2\n    /* \"@openzeppelin/contracts/access/Ownable.sol\":2573:2613   */\n  0x8be0079c531659141344cd1fd0a4f28419497f9722a3daafe3b4186f6b6457e0\n  swap2\n  log3\n    /* \"@openzeppelin/contracts/access/Ownable.sol\":2496:2620   */\n  pop\n    /* \"@openzeppelin/contracts/access/Ownable.sol\":2433:2620   */\n  pop\n  jump\t// out\n    /* \"#utility.yul\":14:191   */\ntag_17:\n    /* \"#utility.yul\":93:106   */\n  dup1\n  mload\n  sub(shl(0xa0, 0x01), 0x01)\n    /* \"#utility.yul\":135:166   */\n  dup2\n  and\n    /* \"#utility.yul\":125:167   */\n  dup2\n  eq\n    /* \"#utility.yul\":115:185   */\n  tag_20\n  jumpi\n    /* \"#utility.yul\":181:182   */\n  0x00\n    /* \"#utility.yul\":178:179   */\n  dup1\n    /* \"#utility.yul\":171:183   */\n  revert\n    /* \"#utility.yul\":115:185   */\ntag_20:\n    /* \"#utility.yul\":14:191   */\n  swap2\n  swap1\n  pop\n  jump\t// out\n    /* \"#utility.yul\":196:636   */\ntag_3:\n    /* \"#utility.yul\":293:299   */\n  0x00\n    /* \"#utility.yul\":301:307   */\n  dup1\n    /* \"#utility.yul\":309:315   */\n  0x00\n    /* \"#utility.yul\":317:323   */\n  dup1\n    /* \"#utility.yul\":370:373   */\n  0x80\n    /* \"#utility.yul\":358:367   */\n  dup6\n    /* \"#utility.yul\":349:356   */\n  dup8\n    /* \"#utility.yul\":345:368   */\n  sub\n    /* \"#utility.yul\":341:374   */\n  slt\n    /* \"#utility.yul\":338:391   */\n  iszero\n  tag_22\n  jumpi\n    /* \"#utility.yul\":387:388   */\n  0x00\n    /* \"#utility.yul\":384:385   */\n  dup1\n    /* \"#utility.yul\":377:389   */\n  revert\n    /* \"#utility.yul\":338:391   */\ntag_22:\n    /* \"#utility.yul\":410:450   */\n  tag_23\n    /* \"#utility.yul\":440:449   */\n  dup6\n    /* \"#utility.yul\":410:450   */\n  tag_17\n  jump\t// in\ntag_23:\n    /* \"#utility.yul\":400:450   */\n  swap4\n  pop\n    /* \"#utility.yul\":469:518   */\n  tag_24\n    /* \"#utility.yul\":514:516   */\n  0x20\n    /* \"#utility.yul\":503:512   */\n  dup7\n    /* \"#utility.yul\":499:517   */\n  add\n    /* \"#utility.yul\":469:518   */\n  tag_17\n  jump\t// in\ntag_24:\n    /* \"#utility.yul\":459:518   */\n  swap3\n  pop\n    /* \"#utility.yul\":537:586   */\n  tag_25\n    /* \"#utility.yul\":582:584   */\n  0x40\n    /* \"#utility.yul\":571:580   */\n  dup7\n    /* \"#utility.yul\":567:585   */\n  add\n    /* \"#utility.yul\":537:586   */\n  tag_17\n  jump\t// in\ntag_25:\n    /* \"#utility.yul\":626:628   */\n  0x60\n    /* \"#utility.yul\":611:629   */\n  swap6\n  swap1\n  swap6\n  add\n    /* \"#utility.yul\":605:630   */\n  mload\n    /* \"#utility.yul\":196:636   */\n  swap4\n  swap7\n  swap3\n  swap6\n  pop\n  pop\n  pop\n  jump\t// out\ntag_18:\n    /* \"OasisShop.sol\":524:9153  contract OasisShop is Pausable, Ownable {... */\n  mload(0x80)\n  mload(0xa0)\n  mload(0xc0)\n  codecopy(0x00, dataOffset(sub_0), dataSize(sub_0))\n  0x00\n  assignImmutable(\"0x5237c12354bd492f949054b8f8788aab2998a1669c684d3e036f6f16d4b53e03\")\n  0x00\n  assignImmutable(\"0x538742f01864684e7bc02c5833d23bcc80c6c36906ebb070efda83aa556ded94\")\n  0x00\n  assignImmutable(\"0x667e71f1383f6018017c7f9f00ba5758f756bb81173e5c0c2366813dad6f3e59\")\n  return(0x00, dataSize(sub_0))\nstop\n\nsub_0: assembly {\n        /* \"OasisShop.sol\":524:9153  contract OasisShop is Pausable, Ownable {... */\n      mstore(0x40, 0x80)\n      jumpi(tag_1, lt(calldatasize, 0x04))\n      shr(0xe0, calldataload(0x00))\n      dup1\n      0x61d027b3\n      gt\n      tag_20\n      jumpi\n      dup1\n      0x8da5cb5b\n      gt\n      tag_21\n      jumpi\n      dup1\n      0x9ff51675\n      gt\n      tag_22\n      jumpi\n      dup1\n      0x9ff51675\n      eq\n      tag_17\n      jumpi\n      dup1\n      0xa756fdd0\n      eq\n      tag_18\n      jumpi\n      dup1\n      0xf2fde38b\n      eq\n      tag_19\n      jumpi\n      0x00\n      dup1\n      revert\n    tag_22:\n      dup1\n      0x8da5cb5b\n      eq\n      tag_15\n      jumpi\n      dup1\n      0x99f4b5fc\n      eq\n      tag_16\n      jumpi\n      0x00\n      dup1\n      revert\n    tag_21:\n      dup1\n      0x61d027b3\n      eq\n      tag_11\n      jumpi\n      dup1\n      0x715018a6\n      eq\n      tag_12\n      jumpi\n      dup1\n      0x7b25a1c1\n      eq\n      tag_13\n      jumpi\n      dup1\n      0x8456cb59\n      eq\n      tag_14\n      jumpi\n      0x00\n      dup1\n      revert\n    tag_20:\n      dup1\n      0x3ccfd60b\n      gt\n      tag_23\n      jumpi\n      dup1\n      0x410d59cc\n      gt\n      tag_24\n      jumpi\n      dup1\n      0x410d59cc\n      eq\n      tag_8\n      jumpi\n      dup1\n      0x57305603\n      eq\n      tag_9\n      jumpi\n      dup1\n      0x5c975abb\n      eq\n      tag_10\n      jumpi\n      0x00\n      dup1\n      revert\n    tag_24:\n      dup1\n      0x3ccfd60b\n      eq\n      tag_6\n      jumpi\n      dup1\n      0x3f4ba83a\n      eq\n      tag_7\n      jumpi\n      0x00\n      dup1\n      revert\n    tag_23:\n      dup1\n      0x039e0558\n      eq\n      tag_2\n      jumpi\n      dup1\n      0x25983e3b\n      eq\n      tag_3\n      jumpi\n      dup1\n      0x2b3d6c0c\n      eq\n      tag_4\n      jumpi\n      dup1\n      0x325a7161\n      eq\n      tag_5\n      jumpi\n    tag_1:\n      0x00\n      dup1\n      revert\n        /* \"OasisShop.sol\":5988:6642  function activateRandomItems(uint256 amount) external onlyOwner {... */\n    tag_2:\n      callvalue\n      dup1\n      iszero\n      tag_25\n      jumpi\n      0x00\n      dup1\n      revert\n    tag_25:\n      pop\n      tag_26\n      tag_27\n      calldatasize\n      0x04\n      tag_28\n      jump\t// in\n    tag_27:\n      tag_29\n      jump\t// in\n    tag_26:\n      stop\n        /* \"OasisShop.sol\":5430:5980  function removeItems(address _itemContract, uint256[] memory _itemIds) external onlyOwner {... */\n    tag_3:\n      callvalue\n      dup1\n      iszero\n      tag_30\n      jumpi\n      0x00\n      dup1\n      revert\n    tag_30:\n      pop\n      tag_26\n      tag_32\n      calldatasize\n      0x04\n      tag_33\n      jump\t// in\n    tag_32:\n      tag_34\n      jump\t// in\n        /* \"OasisShop.sol\":2355:2976  function purchaseOst(uint256 _quantity) external payable whenNotPaused {... */\n    tag_4:\n      tag_26\n      tag_36\n      calldatasize\n      0x04\n      tag_28\n      jump\t// in\n    tag_36:\n      tag_37\n      jump\t// in\n        /* \"OasisShop.sol\":2984:4262  function purchaseShopItem(address _itemContract, uint256 _itemId) external whenNotPaused returns (bool replaced_) {... */\n    tag_5:\n      callvalue\n      dup1\n      iszero\n      tag_38\n      jumpi\n      0x00\n      dup1\n      revert\n    tag_38:\n      pop\n      tag_39\n      tag_40\n      calldatasize\n      0x04\n      tag_41\n      jump\t// in\n    tag_40:\n      tag_42\n      jump\t// in\n    tag_39:\n      mload(0x40)\n        /* \"#utility.yul\":2474:2488   */\n      swap1\n      iszero\n        /* \"#utility.yul\":2467:2489   */\n      iszero\n        /* \"#utility.yul\":2449:2490   */\n      dup2\n      mstore\n        /* \"#utility.yul\":2437:2439   */\n      0x20\n        /* \"#utility.yul\":2422:2440   */\n      add\n        /* \"OasisShop.sol\":2984:4262  function purchaseShopItem(address _itemContract, uint256 _itemId) external whenNotPaused returns (bool replaced_) {... */\n    tag_43:\n      mload(0x40)\n      dup1\n      swap2\n      sub\n      swap1\n      return\n        /* \"OasisShop.sol\":6796:6903  function withdraw() external onlyOwner {... */\n    tag_6:\n      callvalue\n      dup1\n      iszero\n      tag_45\n      jumpi\n      0x00\n      dup1\n      revert\n    tag_45:\n      pop\n      tag_26\n      tag_47\n      jump\t// in\n        /* \"OasisShop.sol\":6721:6788  function unpause() external onlyOwner {... */\n    tag_7:\n      callvalue\n      dup1\n      iszero\n      tag_48\n      jumpi\n      0x00\n      dup1\n      revert\n    tag_48:\n      pop\n      tag_26\n      tag_50\n      jump\t// in\n        /* \"OasisShop.sol\":4270:4379  function getItems() external view returns (ShopItem[] memory shopItems_) {... */\n    tag_8:\n      callvalue\n      dup1\n      iszero\n      tag_51\n      jumpi\n      0x00\n      dup1\n      revert\n    tag_51:\n      pop\n      tag_52\n      tag_53\n      jump\t// in\n    tag_52:\n      mload(0x40)\n      tag_43\n      swap2\n      swap1\n      tag_55\n      jump\t// in\n        /* \"OasisShop.sol\":4579:4695  function setOstPrice(uint256 _weiPricePerOst) external onlyOwner {... */\n    tag_9:\n      callvalue\n      dup1\n      iszero\n      tag_56\n      jumpi\n      0x00\n      dup1\n      revert\n    tag_56:\n      pop\n      tag_26\n      tag_58\n      calldatasize\n      0x04\n      tag_28\n      jump\t// in\n    tag_58:\n      tag_59\n      jump\t// in\n        /* \"@openzeppelin/contracts/security/Pausable.sol\":1615:1699   */\n    tag_10:\n      callvalue\n      dup1\n      iszero\n      tag_60\n      jumpi\n      0x00\n      dup1\n      revert\n    tag_60:\n      pop\n        /* \"@openzeppelin/contracts/security/Pausable.sol\":1662:1666   */\n      0x00\n        /* \"@openzeppelin/contracts/security/Pausable.sol\":1685:1692   */\n      sload\n      0xff\n      and\n        /* \"@openzeppelin/contracts/security/Pausable.sol\":1615:1699   */\n      jump(tag_39)\n        /* \"OasisShop.sol\":1174:1207  address public immutable treasury */\n    tag_11:\n      callvalue\n      dup1\n      iszero\n      tag_64\n      jumpi\n      0x00\n      dup1\n      revert\n    tag_64:\n      pop\n      tag_65\n      immutable(\"0x538742f01864684e7bc02c5833d23bcc80c6c36906ebb070efda83aa556ded94\")\n      dup2\n      jump\n    tag_65:\n      mload(0x40)\n      sub(shl(0xa0, 0x01), 0x01)\n        /* \"#utility.yul\":3724:3779   */\n      swap1\n      swap2\n      and\n        /* \"#utility.yul\":3706:3780   */\n      dup2\n      mstore\n        /* \"#utility.yul\":3694:3696   */\n      0x20\n        /* \"#utility.yul\":3679:3697   */\n      add\n        /* \"OasisShop.sol\":1174:1207  address public immutable treasury */\n      tag_43\n        /* \"#utility.yul\":3560:3786   */\n      jump\n        /* \"@openzeppelin/contracts/access/Ownable.sol\":1831:1932   */\n    tag_12:\n      callvalue\n      dup1\n      iszero\n      tag_69\n      jumpi\n      0x00\n      dup1\n      revert\n    tag_69:\n      pop\n      tag_26\n      tag_71\n      jump\t// in\n        /* \"OasisShop.sol\":4703:5422  function addItems(... */\n    tag_13:\n      callvalue\n      dup1\n      iszero\n      tag_72\n      jumpi\n      0x00\n      dup1\n      revert\n    tag_72:\n      pop\n      tag_26\n      tag_74\n      calldatasize\n      0x04\n      tag_75\n      jump\t// in\n    tag_74:\n      tag_76\n      jump\t// in\n        /* \"OasisShop.sol\":6650:6713  function pause() external onlyOwner {... */\n    tag_14:\n      callvalue\n      dup1\n      iszero\n      tag_77\n      jumpi\n      0x00\n      dup1\n      revert\n    tag_77:\n      pop\n      tag_26\n      tag_79\n      jump\t// in\n        /* \"@openzeppelin/contracts/access/Ownable.sol\":1201:1286   */\n    tag_15:\n      callvalue\n      dup1\n      iszero\n      tag_80\n      jumpi\n      0x00\n      dup1\n      revert\n    tag_80:\n      pop\n        /* \"@openzeppelin/contracts/access/Ownable.sol\":1247:1254   */\n      0x00\n        /* \"@openzeppelin/contracts/access/Ownable.sol\":1273:1279   */\n      sload\n      0x0100\n      swap1\n      div\n      sub(shl(0xa0, 0x01), 0x01)\n      and\n        /* \"@openzeppelin/contracts/access/Ownable.sol\":1201:1286   */\n      jump(tag_65)\n        /* \"OasisShop.sol\":1249:1278  uint256 public weiPricePerOst */\n    tag_16:\n      callvalue\n      dup1\n      iszero\n      tag_84\n      jumpi\n      0x00\n      dup1\n      revert\n    tag_84:\n      pop\n      tag_85\n      sload(0x01)\n      dup2\n      jump\n    tag_85:\n      mload(0x40)\n        /* \"#utility.yul\":5430:5455   */\n      swap1\n      dup2\n      mstore\n        /* \"#utility.yul\":5418:5420   */\n      0x20\n        /* \"#utility.yul\":5403:5421   */\n      add\n        /* \"OasisShop.sol\":1249:1278  uint256 public weiPricePerOst */\n      tag_43\n        /* \"#utility.yul\":5284:5461   */\n      jump\n        /* \"OasisShop.sol\":1128:1167  address public immutable oasisGraveyard */\n    tag_17:\n      callvalue\n      dup1\n      iszero\n      tag_89\n      jumpi\n      0x00\n      dup1\n      revert\n    tag_89:\n      pop\n      tag_65\n      immutable(\"0x667e71f1383f6018017c7f9f00ba5758f756bb81173e5c0c2366813dad6f3e59\")\n      dup2\n      jump\n        /* \"OasisShop.sol\":1214:1242  address public immutable ost */\n    tag_18:\n      callvalue\n      dup1\n      iszero\n      tag_93\n      jumpi\n      0x00\n      dup1\n      revert\n    tag_93:\n      pop\n      tag_65\n      immutable(\"0x5237c12354bd492f949054b8f8788aab2998a1669c684d3e036f6f16d4b53e03\")\n      dup2\n      jump\n        /* \"@openzeppelin/contracts/access/Ownable.sol\":2081:2279   */\n    tag_19:\n      callvalue\n      dup1\n      iszero\n      tag_97\n      jumpi\n      0x00\n      dup1\n      revert\n    tag_97:\n      pop\n      tag_26\n      tag_99\n      calldatasize\n      0x04\n      tag_100\n      jump\t// in\n    tag_99:\n      tag_101\n      jump\t// in\n        /* \"OasisShop.sol\":5988:6642  function activateRandomItems(uint256 amount) external onlyOwner {... */\n    tag_29:\n        /* \"@openzeppelin/contracts/access/Ownable.sol\":1094:1107   */\n      tag_103\n        /* \"@openzeppelin/contracts/access/Ownable.sol\":1094:1105   */\n      tag_104\n        /* \"@openzeppelin/contracts/access/Ownable.sol\":1094:1107   */\n      jump\t// in\n    tag_103:\n        /* \"OasisShop.sol\":6097:6107  _shopItems */\n      0x02\n        /* \"OasisShop.sol\":6147:6166  currentItems.length */\n      dup1\n      sload\n        /* \"OasisShop.sol\":6181:6208  amount > currentItemsLength */\n      dup1\n      dup4\n      gt\n        /* \"OasisShop.sol\":6177:6255  if (amount > currentItemsLength) revert(\"Amount larger than shop item length\") */\n      iszero\n      tag_106\n      jumpi\n        /* \"OasisShop.sol\":6210:6255  revert(\"Amount larger than shop item length\") */\n      mload(0x40)\n      shl(0xe5, 0x461bcd)\n      dup2\n      mstore\n        /* \"#utility.yul\":5920:5922   */\n      0x20\n        /* \"OasisShop.sol\":6210:6255  revert(\"Amount larger than shop item length\") */\n      0x04\n      dup3\n      add\n        /* \"#utility.yul\":5902:5923   */\n      mstore\n        /* \"#utility.yul\":5959:5961   */\n      0x23\n        /* \"#utility.yul\":5939:5957   */\n      0x24\n      dup3\n      add\n        /* \"#utility.yul\":5932:5962   */\n      mstore\n        /* \"#utility.yul\":5998:6032   */\n      0x416d6f756e74206c6172676572207468616e2073686f70206974656d206c656e\n        /* \"#utility.yul\":5978:5996   */\n      0x44\n      dup3\n      add\n        /* \"#utility.yul\":5971:6033   */\n      mstore\n      shl(0xeb, 0x0cee8d)\n        /* \"#utility.yul\":6049:6067   */\n      0x64\n      dup3\n      add\n        /* \"#utility.yul\":6042:6075   */\n      mstore\n        /* \"#utility.yul\":6092:6111   */\n      0x84\n      add\n        /* \"OasisShop.sol\":6210:6255  revert(\"Amount larger than shop item length\") */\n    tag_107:\n      mload(0x40)\n      dup1\n      swap2\n      sub\n      swap1\n      revert\n        /* \"OasisShop.sol\":6177:6255  if (amount > currentItemsLength) revert(\"Amount larger than shop item length\") */\n    tag_106:\n        /* \"OasisShop.sol\":6273:6282  uint256 i */\n      0x00\n        /* \"OasisShop.sol\":6268:6349  for (uint256 i = 0; i < currentItemsLength; i++) currentItems[i].isActive = false */\n    tag_109:\n        /* \"OasisShop.sol\":6292:6310  currentItemsLength */\n      dup2\n        /* \"OasisShop.sol\":6288:6289  i */\n      dup2\n        /* \"OasisShop.sol\":6288:6310  i < currentItemsLength */\n      lt\n        /* \"OasisShop.sol\":6268:6349  for (uint256 i = 0; i < currentItemsLength; i++) currentItems[i].isActive = false */\n      iszero\n      tag_110\n      jumpi\n        /* \"OasisShop.sol\":6344:6349  false */\n      0x00\n        /* \"OasisShop.sol\":6317:6329  currentItems */\n      dup4\n        /* \"OasisShop.sol\":6330:6331  i */\n      dup3\n        /* \"OasisShop.sol\":6317:6332  currentItems[i] */\n      dup2\n      sload\n      dup2\n      lt\n      tag_113\n      jumpi\n      tag_113\n      tag_114\n      jump\t// in\n    tag_113:\n      0x00\n      swap2\n      dup3\n      mstore\n      0x20\n      swap1\n      swap2\n      keccak256\n      0x02\n      swap1\n      swap2\n      mul\n      add\n        /* \"OasisShop.sol\":6317:6349  currentItems[i].isActive = false */\n      dup1\n      sload\n      not(0xff)\n      and\n      swap2\n      iszero\n      iszero\n      swap2\n      swap1\n      swap2\n      or\n      swap1\n      sstore\n        /* \"OasisShop.sol\":6312:6315  i++ */\n      dup1\n      tag_116\n      dup2\n      tag_117\n      jump\t// in\n    tag_116:\n      swap2\n      pop\n      pop\n        /* \"OasisShop.sol\":6268:6349  for (uint256 i = 0; i < currentItemsLength; i++) currentItems[i].isActive = false */\n      jump(tag_109)\n    tag_110:\n      pop\n        /* \"OasisShop.sol\":6362:6381  uint256 randomIndex */\n      0x00\n        /* \"OasisShop.sol\":6384:6419  _getRandomIndex(currentItemsLength) */\n      tag_118\n        /* \"OasisShop.sol\":6400:6418  currentItemsLength */\n      dup3\n        /* \"OasisShop.sol\":6384:6399  _getRandomIndex */\n      tag_119\n        /* \"OasisShop.sol\":6384:6419  _getRandomIndex(currentItemsLength) */\n      jump\t// in\n    tag_118:\n        /* \"OasisShop.sol\":6362:6419  uint256 randomIndex = _getRandomIndex(currentItemsLength) */\n      swap1\n      pop\n        /* \"OasisShop.sol\":6430:6450  uint256 currentIndex */\n      0x00\n      dup1\n        /* \"OasisShop.sol\":6461:6635  for (uint256 i = 0; i < amount; i++) {... */\n    tag_120:\n        /* \"OasisShop.sol\":6485:6491  amount */\n      dup6\n        /* \"OasisShop.sol\":6481:6482  i */\n      dup2\n        /* \"OasisShop.sol\":6481:6491  i < amount */\n      lt\n        /* \"OasisShop.sol\":6461:6635  for (uint256 i = 0; i < amount; i++) {... */\n      iszero\n      tag_121\n      jumpi\n        /* \"OasisShop.sol\":6548:6566  currentItemsLength */\n      dup4\n        /* \"OasisShop.sol\":6529:6544  randomIndex + i */\n      tag_123\n        /* \"OasisShop.sol\":6543:6544  i */\n      dup3\n        /* \"OasisShop.sol\":6529:6540  randomIndex */\n      dup6\n        /* \"OasisShop.sol\":6529:6544  randomIndex + i */\n      tag_124\n      jump\t// in\n    tag_123:\n        /* \"OasisShop.sol\":6528:6566  (randomIndex + i) % currentItemsLength */\n      tag_125\n      swap2\n      swap1\n      tag_126\n      jump\t// in\n    tag_125:\n        /* \"OasisShop.sol\":6513:6566  currentIndex = (randomIndex + i) % currentItemsLength */\n      swap2\n      pop\n        /* \"OasisShop.sol\":6619:6623  true */\n      0x01\n        /* \"OasisShop.sol\":6581:6593  currentItems */\n      dup6\n        /* \"OasisShop.sol\":6594:6606  currentIndex */\n      dup4\n        /* \"OasisShop.sol\":6581:6607  currentItems[currentIndex] */\n      dup2\n      sload\n      dup2\n      lt\n      tag_128\n      jumpi\n      tag_128\n      tag_114\n      jump\t// in\n    tag_128:\n      0x00\n      swap2\n      dup3\n      mstore\n      0x20\n      swap1\n      swap2\n      keccak256\n      0x02\n      swap1\n      swap2\n      mul\n      add\n        /* \"OasisShop.sol\":6581:6623  currentItems[currentIndex].isActive = true */\n      dup1\n      sload\n      not(0xff)\n      and\n      swap2\n      iszero\n      iszero\n      swap2\n      swap1\n      swap2\n      or\n      swap1\n      sstore\n        /* \"OasisShop.sol\":6493:6496  i++ */\n      dup1\n      tag_130\n      dup2\n      tag_117\n      jump\t// in\n    tag_130:\n      swap2\n      pop\n      pop\n        /* \"OasisShop.sol\":6461:6635  for (uint256 i = 0; i < amount; i++) {... */\n      jump(tag_120)\n    tag_121:\n      pop\n        /* \"OasisShop.sol\":6052:6642  {... */\n      pop\n      pop\n      pop\n      pop\n        /* \"OasisShop.sol\":5988:6642  function activateRandomItems(uint256 amount) external onlyOwner {... */\n      pop\n      jump\t// out\n        /* \"OasisShop.sol\":5430:5980  function removeItems(address _itemContract, uint256[] memory _itemIds) external onlyOwner {... */\n    tag_34:\n        /* \"@openzeppelin/contracts/access/Ownable.sol\":1094:1107   */\n      tag_132\n        /* \"@openzeppelin/contracts/access/Ownable.sol\":1094:1105   */\n      tag_104\n        /* \"@openzeppelin/contracts/access/Ownable.sol\":1094:1107   */\n      jump\t// in\n    tag_132:\n        /* \"OasisShop.sol\":5552:5567  _itemIds.length */\n      dup1\n      mload\n        /* \"OasisShop.sol\":5531:5549  uint256 itemAmount */\n      0x00\n        /* \"OasisShop.sol\":5582:5597  0 == itemAmount */\n      dup2\n      swap1\n      sub\n        /* \"OasisShop.sol\":5578:5639  if (0 == itemAmount) revert(\"Must pass at least one item ID\") */\n      tag_134\n      jumpi\n        /* \"OasisShop.sol\":5599:5639  revert(\"Must pass at least one item ID\") */\n      mload(0x40)\n      shl(0xe5, 0x461bcd)\n      dup2\n      mstore\n        /* \"#utility.yul\":7075:7077   */\n      0x20\n        /* \"OasisShop.sol\":5599:5639  revert(\"Must pass at least one item ID\") */\n      0x04\n      dup3\n      add\n        /* \"#utility.yul\":7057:7078   */\n      mstore\n        /* \"#utility.yul\":7114:7116   */\n      0x1e\n        /* \"#utility.yul\":7094:7112   */\n      0x24\n      dup3\n      add\n        /* \"#utility.yul\":7087:7117   */\n      mstore\n        /* \"#utility.yul\":7153:7185   */\n      0x4d7573742070617373206174206c65617374206f6e65206974656d2049440000\n        /* \"#utility.yul\":7133:7151   */\n      0x44\n      dup3\n      add\n        /* \"#utility.yul\":7126:7186   */\n      mstore\n        /* \"#utility.yul\":7203:7221   */\n      0x64\n      add\n        /* \"OasisShop.sol\":5599:5639  revert(\"Must pass at least one item ID\") */\n      tag_107\n        /* \"#utility.yul\":6873:7227   */\n      jump\n        /* \"OasisShop.sol\":5578:5639  if (0 == itemAmount) revert(\"Must pass at least one item ID\") */\n    tag_134:\n        /* \"OasisShop.sol\":5652:5663  bool exists */\n      0x00\n        /* \"OasisShop.sol\":5674:5687  uint256 index */\n      dup1\n        /* \"OasisShop.sol\":5703:5712  uint256 i */\n      0x00\n        /* \"OasisShop.sol\":5698:5973  for (uint256 i = 0; i < itemAmount; i++) {... */\n    tag_137:\n        /* \"OasisShop.sol\":5722:5732  itemAmount */\n      dup4\n        /* \"OasisShop.sol\":5718:5719  i */\n      dup2\n        /* \"OasisShop.sol\":5718:5732  i < itemAmount */\n      lt\n        /* \"OasisShop.sol\":5698:5973  for (uint256 i = 0; i < itemAmount; i++) {... */\n      iszero\n      tag_121\n      jumpi\n        /* \"OasisShop.sol\":5772:5811  _itemExists(_itemContract, _itemIds[i]) */\n      tag_140\n        /* \"OasisShop.sol\":5784:5797  _itemContract */\n      dup7\n        /* \"OasisShop.sol\":5799:5807  _itemIds */\n      dup7\n        /* \"OasisShop.sol\":5808:5809  i */\n      dup4\n        /* \"OasisShop.sol\":5799:5810  _itemIds[i] */\n      dup2\n      mload\n      dup2\n      lt\n      tag_142\n      jumpi\n      tag_142\n      tag_114\n      jump\t// in\n    tag_142:\n      0x20\n      mul\n      0x20\n      add\n      add\n      mload\n        /* \"OasisShop.sol\":5772:5783  _itemExists */\n      tag_143\n        /* \"OasisShop.sol\":5772:5811  _itemExists(_itemContract, _itemIds[i]) */\n      jump\t// in\n    tag_140:\n        /* \"OasisShop.sol\":5754:5811  (exists, index) = _itemExists(_itemContract, _itemIds[i]) */\n      swap1\n      swap4\n      pop\n      swap2\n      pop\n      dup3\n        /* \"OasisShop.sol\":5826:5880  if (!exists) revert(\"One of the items does not exist\") */\n      tag_144\n      jumpi\n        /* \"OasisShop.sol\":5839:5880  revert(\"One of the items does not exist\") */\n      mload(0x40)\n      shl(0xe5, 0x461bcd)\n      dup2\n      mstore\n        /* \"#utility.yul\":7434:7436   */\n      0x20\n        /* \"OasisShop.sol\":5839:5880  revert(\"One of the items does not exist\") */\n      0x04\n      dup3\n      add\n        /* \"#utility.yul\":7416:7437   */\n      mstore\n        /* \"#utility.yul\":7473:7475   */\n      0x1f\n        /* \"#utility.yul\":7453:7471   */\n      0x24\n      dup3\n      add\n        /* \"#utility.yul\":7446:7476   */\n      mstore\n        /* \"#utility.yul\":7512:7545   */\n      0x4f6e65206f6620746865206974656d7320646f6573206e6f7420657869737400\n        /* \"#utility.yul\":7492:7510   */\n      0x44\n      dup3\n      add\n        /* \"#utility.yul\":7485:7546   */\n      mstore\n        /* \"#utility.yul\":7563:7581   */\n      0x64\n      add\n        /* \"OasisShop.sol\":5839:5880  revert(\"One of the items does not exist\") */\n      tag_107\n        /* \"#utility.yul\":7232:7587   */\n      jump\n        /* \"OasisShop.sol\":5826:5880  if (!exists) revert(\"One of the items does not exist\") */\n    tag_144:\n        /* \"OasisShop.sol\":5900:5918  _removeItem(index) */\n      tag_147\n        /* \"OasisShop.sol\":5912:5917  index */\n      dup3\n        /* \"OasisShop.sol\":5900:5911  _removeItem */\n      tag_148\n        /* \"OasisShop.sol\":5900:5918  _removeItem(index) */\n      jump\t// in\n    tag_147:\n        /* \"OasisShop.sol\":5895:5961  if (!_removeItem(index)) revert(\"Error removing one of the items\") */\n      tag_149\n      jumpi\n        /* \"OasisShop.sol\":5920:5961  revert(\"Error removing one of the items\") */\n      mload(0x40)\n      shl(0xe5, 0x461bcd)\n      dup2\n      mstore\n        /* \"#utility.yul\":7794:7796   */\n      0x20\n        /* \"OasisShop.sol\":5920:5961  revert(\"Error removing one of the items\") */\n      0x04\n      dup3\n      add\n        /* \"#utility.yul\":7776:7797   */\n      mstore\n        /* \"#utility.yul\":7833:7835   */\n      0x1f\n        /* \"#utility.yul\":7813:7831   */\n      0x24\n      dup3\n      add\n        /* \"#utility.yul\":7806:7836   */\n      mstore\n        /* \"#utility.yul\":7872:7905   */\n      0x4572726f722072656d6f76696e67206f6e65206f6620746865206974656d7300\n        /* \"#utility.yul\":7852:7870   */\n      0x44\n      dup3\n      add\n        /* \"#utility.yul\":7845:7906   */\n      mstore\n        /* \"#utility.yul\":7923:7941   */\n      0x64\n      add\n        /* \"OasisShop.sol\":5920:5961  revert(\"Error removing one of the items\") */\n      tag_107\n        /* \"#utility.yul\":7592:7947   */\n      jump\n        /* \"OasisShop.sol\":5895:5961  if (!_removeItem(index)) revert(\"Error removing one of the items\") */\n    tag_149:\n        /* \"OasisShop.sol\":5734:5737  i++ */\n      dup1\n      tag_152\n      dup2\n      tag_117\n      jump\t// in\n    tag_152:\n      swap2\n      pop\n      pop\n        /* \"OasisShop.sol\":5698:5973  for (uint256 i = 0; i < itemAmount; i++) {... */\n      jump(tag_137)\n        /* \"OasisShop.sol\":2355:2976  function purchaseOst(uint256 _quantity) external payable whenNotPaused {... */\n    tag_37:\n        /* \"@openzeppelin/contracts/security/Pausable.sol\":1239:1258   */\n      tag_154\n        /* \"@openzeppelin/contracts/security/Pausable.sol\":1239:1256   */\n      tag_155\n        /* \"@openzeppelin/contracts/security/Pausable.sol\":1239:1258   */\n      jump\t// in\n    tag_154:\n        /* \"OasisShop.sol\":2479:2494  uint256 fullOst */\n      0x00\n        /* \"OasisShop.sol\":2497:2513  _quantity * 1e18 */\n      tag_157\n        /* \"OasisShop.sol\":2497:2506  _quantity */\n      dup3\n        /* \"OasisShop.sol\":2509:2513  1e18 */\n      0x0de0b6b3a7640000\n        /* \"OasisShop.sol\":2497:2513  _quantity * 1e18 */\n      tag_158\n      jump\t// in\n    tag_157:\n        /* \"OasisShop.sol\":2578:2609  IERC20(ost).balanceOf(treasury) */\n      mload(0x40)\n      shl(0xe0, 0x70a08231)\n      dup2\n      mstore\n      sub(shl(0xa0, 0x01), 0x01)\n        /* \"OasisShop.sol\":2600:2608  treasury */\n      immutable(\"0x538742f01864684e7bc02c5833d23bcc80c6c36906ebb070efda83aa556ded94\")\n        /* \"#utility.yul\":3724:3779   */\n      dup2\n      and\n        /* \"OasisShop.sol\":2578:2609  IERC20(ost).balanceOf(treasury) */\n      0x04\n      dup4\n      add\n        /* \"#utility.yul\":3706:3780   */\n      mstore\n        /* \"OasisShop.sol\":2479:2513  uint256 fullOst = _quantity * 1e18 */\n      swap2\n      swap3\n      pop\n        /* \"OasisShop.sol\":2585:2588  ost */\n      immutable(\"0x5237c12354bd492f949054b8f8788aab2998a1669c684d3e036f6f16d4b53e03\")\n        /* \"OasisShop.sol\":2578:2599  IERC20(ost).balanceOf */\n      swap1\n      swap2\n      and\n      swap1\n      0x70a08231\n      swap1\n        /* \"#utility.yul\":3679:3697   */\n      0x24\n      add\n        /* \"OasisShop.sol\":2578:2609  IERC20(ost).balanceOf(treasury) */\n      0x20\n      mload(0x40)\n      dup1\n      dup4\n      sub\n      dup2\n      dup7\n      gas\n      staticcall\n      iszero\n      dup1\n      iszero\n      tag_161\n      jumpi\n      returndatasize\n      0x00\n      dup1\n      returndatacopy\n      revert(0x00, returndatasize)\n    tag_161:\n      pop\n      pop\n      pop\n      pop\n      mload(0x40)\n      returndatasize\n      not(0x1f)\n      0x1f\n      dup3\n      add\n      and\n      dup3\n      add\n      dup1\n      0x40\n      mstore\n      pop\n      dup2\n      add\n      swap1\n      tag_162\n      swap2\n      swap1\n      tag_163\n      jump\t// in\n    tag_162:\n        /* \"OasisShop.sol\":2568:2575  fullOst */\n      dup2\n        /* \"OasisShop.sol\":2568:2609  fullOst > IERC20(ost).balanceOf(treasury) */\n      gt\n        /* \"OasisShop.sol\":2564:2645  if (fullOst > IERC20(ost).balanceOf(treasury)) revert(\"Treasury Balance Too Low\") */\n      iszero\n      tag_164\n      jumpi\n        /* \"OasisShop.sol\":2611:2645  revert(\"Treasury Balance Too Low\") */\n      mload(0x40)\n      shl(0xe5, 0x461bcd)\n      dup2\n      mstore\n        /* \"#utility.yul\":8516:8518   */\n      0x20\n        /* \"OasisShop.sol\":2611:2645  revert(\"Treasury Balance Too Low\") */\n      0x04\n      dup3\n      add\n        /* \"#utility.yul\":8498:8519   */\n      mstore\n        /* \"#utility.yul\":8555:8557   */\n      0x18\n        /* \"#utility.yul\":8535:8553   */\n      0x24\n      dup3\n      add\n        /* \"#utility.yul\":8528:8558   */\n      mstore\n        /* \"#utility.yul\":8594:8620   */\n      0x54726561737572792042616c616e636520546f6f204c6f770000000000000000\n        /* \"#utility.yul\":8574:8592   */\n      0x44\n      dup3\n      add\n        /* \"#utility.yul\":8567:8621   */\n      mstore\n        /* \"#utility.yul\":8638:8656   */\n      0x64\n      add\n        /* \"OasisShop.sol\":2611:2645  revert(\"Treasury Balance Too Low\") */\n      tag_107\n        /* \"#utility.yul\":8314:8662   */\n      jump\n        /* \"OasisShop.sol\":2564:2645  if (fullOst > IERC20(ost).balanceOf(treasury)) revert(\"Treasury Balance Too Low\") */\n    tag_164:\n        /* \"OasisShop.sol\":2725:2734  _quantity */\n      dup2\n        /* \"OasisShop.sol\":2708:2722  weiPricePerOst */\n      sload(0x01)\n        /* \"OasisShop.sol\":2708:2734  weiPricePerOst * _quantity */\n      tag_167\n      swap2\n      swap1\n      tag_158\n      jump\t// in\n    tag_167:\n        /* \"OasisShop.sol\":2696:2705  msg.value */\n      callvalue\n        /* \"OasisShop.sol\":2696:2734  msg.value < weiPricePerOst * _quantity */\n      lt\n        /* \"OasisShop.sol\":2692:2766  if (msg.value < weiPricePerOst * _quantity) revert(\"User Balance Too Low\") */\n      iszero\n      tag_168\n      jumpi\n        /* \"OasisShop.sol\":2736:2766  revert(\"User Balance Too Low\") */\n      mload(0x40)\n      shl(0xe5, 0x461bcd)\n      dup2\n      mstore\n        /* \"#utility.yul\":8869:8871   */\n      0x20\n        /* \"OasisShop.sol\":2736:2766  revert(\"User Balance Too Low\") */\n      0x04\n      dup3\n      add\n        /* \"#utility.yul\":8851:8872   */\n      mstore\n        /* \"#utility.yul\":8908:8910   */\n      0x14\n        /* \"#utility.yul\":8888:8906   */\n      0x24\n      dup3\n      add\n        /* \"#utility.yul\":8881:8911   */\n      mstore\n        /* \"#utility.yul\":8947:8969   */\n      0x557365722042616c616e636520546f6f204c6f77000000000000000000000000\n        /* \"#utility.yul\":8927:8945   */\n      0x44\n      dup3\n      add\n        /* \"#utility.yul\":8920:8970   */\n      mstore\n        /* \"#utility.yul\":8987:9005   */\n      0x64\n      add\n        /* \"OasisShop.sol\":2736:2766  revert(\"User Balance Too Low\") */\n      tag_107\n        /* \"#utility.yul\":8667:9011   */\n      jump\n        /* \"OasisShop.sol\":2692:2766  if (msg.value < weiPricePerOst * _quantity) revert(\"User Balance Too Low\") */\n    tag_168:\n        /* \"OasisShop.sol\":2808:2863  IERC20(ost).transferFrom(treasury, msg.sender, fullOst) */\n      mload(0x40)\n      shl(0xe0, 0x23b872dd)\n      dup2\n      mstore\n      sub(shl(0xa0, 0x01), 0x01)\n        /* \"OasisShop.sol\":2833:2841  treasury */\n      immutable(\"0x538742f01864684e7bc02c5833d23bcc80c6c36906ebb070efda83aa556ded94\")\n        /* \"#utility.yul\":9297:9312   */\n      dup2\n      and\n        /* \"OasisShop.sol\":2808:2863  IERC20(ost).transferFrom(treasury, msg.sender, fullOst) */\n      0x04\n      dup4\n      add\n        /* \"#utility.yul\":9279:9313   */\n      mstore\n        /* \"OasisShop.sol\":2843:2853  msg.sender */\n      caller\n        /* \"#utility.yul\":9329:9347   */\n      0x24\n      dup4\n      add\n        /* \"#utility.yul\":9322:9365   */\n      mstore\n        /* \"#utility.yul\":9381:9399   */\n      0x44\n      dup3\n      add\n        /* \"#utility.yul\":9374:9408   */\n      dup4\n      swap1\n      mstore\n        /* \"OasisShop.sol\":2815:2818  ost */\n      immutable(\"0x5237c12354bd492f949054b8f8788aab2998a1669c684d3e036f6f16d4b53e03\")\n        /* \"OasisShop.sol\":2808:2832  IERC20(ost).transferFrom */\n      and\n      swap1\n      0x23b872dd\n      swap1\n        /* \"#utility.yul\":9191:9209   */\n      0x64\n      add\n        /* \"OasisShop.sol\":2808:2863  IERC20(ost).transferFrom(treasury, msg.sender, fullOst) */\n      0x20\n      mload(0x40)\n      dup1\n      dup4\n      sub\n      dup2\n      0x00\n      dup8\n      gas\n      call\n      iszero\n      dup1\n      iszero\n      tag_174\n      jumpi\n      returndatasize\n      0x00\n      dup1\n      returndatacopy\n      revert(0x00, returndatasize)\n    tag_174:\n      pop\n      pop\n      pop\n      pop\n      mload(0x40)\n      returndatasize\n      not(0x1f)\n      0x1f\n      dup3\n      add\n      and\n      dup3\n      add\n      dup1\n      0x40\n      mstore\n      pop\n      dup2\n      add\n      swap1\n      tag_175\n      swap2\n      swap1\n      tag_176\n      jump\t// in\n    tag_175:\n        /* \"OasisShop.sol\":2803:2894  if (!IERC20(ost).transferFrom(treasury, msg.sender, fullOst)) revert(\"OST Transfer Failed\") */\n      tag_177\n      jumpi\n        /* \"OasisShop.sol\":2865:2894  revert(\"OST Transfer Failed\") */\n      mload(0x40)\n      shl(0xe5, 0x461bcd)\n      dup2\n      mstore\n        /* \"#utility.yul\":9903:9905   */\n      0x20\n        /* \"OasisShop.sol\":2865:2894  revert(\"OST Transfer Failed\") */\n      0x04\n      dup3\n      add\n        /* \"#utility.yul\":9885:9906   */\n      mstore\n        /* \"#utility.yul\":9942:9944   */\n      0x13\n        /* \"#utility.yul\":9922:9940   */\n      0x24\n      dup3\n      add\n        /* \"#utility.yul\":9915:9945   */\n      mstore\n        /* \"#utility.yul\":9981:10002   */\n      0x4f5354205472616e73666572204661696c656400000000000000000000000000\n        /* \"#utility.yul\":9961:9979   */\n      0x44\n      dup3\n      add\n        /* \"#utility.yul\":9954:10003   */\n      mstore\n        /* \"#utility.yul\":10020:10038   */\n      0x64\n      add\n        /* \"OasisShop.sol\":2865:2894  revert(\"OST Transfer Failed\") */\n      tag_107\n        /* \"#utility.yul\":9701:10044   */\n      jump\n        /* \"OasisShop.sol\":2803:2894  if (!IERC20(ost).transferFrom(treasury, msg.sender, fullOst)) revert(\"OST Transfer Failed\") */\n    tag_177:\n        /* \"OasisShop.sol\":2933:2968  PurchasedOst(msg.sender, _quantity) */\n      mload(0x40)\n        /* \"OasisShop.sol\":2958:2967  _quantity */\n      dup3\n      swap1\n        /* \"OasisShop.sol\":2946:2956  msg.sender */\n      caller\n      swap1\n        /* \"OasisShop.sol\":2933:2968  PurchasedOst(msg.sender, _quantity) */\n      0xb26fd55a4aa6c9145f8d0de3b7f8917d6d8e21cf1c34246096d09fb5266241bf\n      swap1\n      0x00\n      swap1\n      log3\n        /* \"OasisShop.sol\":2426:2976  {... */\n      pop\n        /* \"OasisShop.sol\":2355:2976  function purchaseOst(uint256 _quantity) external payable whenNotPaused {... */\n      pop\n      jump\t// out\n        /* \"OasisShop.sol\":2984:4262  function purchaseShopItem(address _itemContract, uint256 _itemId) external whenNotPaused returns (bool replaced_) {... */\n    tag_42:\n        /* \"OasisShop.sol\":3082:3096  bool replaced_ */\n      0x00\n        /* \"@openzeppelin/contracts/security/Pausable.sol\":1239:1258   */\n      tag_181\n        /* \"@openzeppelin/contracts/security/Pausable.sol\":1239:1256   */\n      tag_155\n        /* \"@openzeppelin/contracts/security/Pausable.sol\":1239:1258   */\n      jump\t// in\n    tag_181:\n        /* \"OasisShop.sol\":3179:3190  bool exists */\n      0x00\n        /* \"OasisShop.sol\":3192:3205  uint256 index */\n      dup1\n        /* \"OasisShop.sol\":3209:3244  _itemExists(_itemContract, _itemId) */\n      tag_183\n        /* \"OasisShop.sol\":3221:3234  _itemContract */\n      dup6\n        /* \"OasisShop.sol\":3236:3243  _itemId */\n      dup6\n        /* \"OasisShop.sol\":3209:3220  _itemExists */\n      tag_143\n        /* \"OasisShop.sol\":3209:3244  _itemExists(_itemContract, _itemId) */\n      jump\t// in\n    tag_183:\n        /* \"OasisShop.sol\":3178:3244  (bool exists, uint256 index) = _itemExists(_itemContract, _itemId) */\n      swap2\n      pop\n      swap2\n      pop\n        /* \"OasisShop.sol\":3260:3266  exists */\n      dup2\n        /* \"OasisShop.sol\":3255:3302  if (!exists) revert(\"This item does not exist\") */\n      tag_184\n      jumpi\n        /* \"OasisShop.sol\":3268:3302  revert(\"This item does not exist\") */\n      mload(0x40)\n      shl(0xe5, 0x461bcd)\n      dup2\n      mstore\n        /* \"#utility.yul\":10251:10253   */\n      0x20\n        /* \"OasisShop.sol\":3268:3302  revert(\"This item does not exist\") */\n      0x04\n      dup3\n      add\n        /* \"#utility.yul\":10233:10254   */\n      mstore\n        /* \"#utility.yul\":10290:10292   */\n      0x18\n        /* \"#utility.yul\":10270:10288   */\n      0x24\n      dup3\n      add\n        /* \"#utility.yul\":10263:10293   */\n      mstore\n        /* \"#utility.yul\":10329:10355   */\n      0x54686973206974656d20646f6573206e6f742065786973740000000000000000\n        /* \"#utility.yul\":10309:10327   */\n      0x44\n      dup3\n      add\n        /* \"#utility.yul\":10302:10356   */\n      mstore\n        /* \"#utility.yul\":10373:10391   */\n      0x64\n      add\n        /* \"OasisShop.sol\":3268:3302  revert(\"This item does not exist\") */\n      tag_107\n        /* \"#utility.yul\":10049:10397   */\n      jump\n        /* \"OasisShop.sol\":3255:3302  if (!exists) revert(\"This item does not exist\") */\n    tag_184:\n        /* \"OasisShop.sol\":3318:3328  _shopItems */\n      0x02\n        /* \"OasisShop.sol\":3329:3334  index */\n      dup2\n        /* \"OasisShop.sol\":3318:3335  _shopItems[index] */\n      dup2\n      sload\n      dup2\n      lt\n      tag_188\n      jumpi\n      tag_188\n      tag_114\n      jump\t// in\n    tag_188:\n      0x00\n      swap2\n      dup3\n      mstore\n      0x20\n      swap1\n      swap2\n      keccak256\n      0x02\n      swap1\n      swap2\n      mul\n      add\n        /* \"OasisShop.sol\":3318:3344  _shopItems[index].isActive */\n      sload\n      0xff\n      and\n        /* \"OasisShop.sol\":3313:3381  if (!_shopItems[index].isActive) revert(\"This item is not for sale\") */\n      tag_190\n      jumpi\n        /* \"OasisShop.sol\":3346:3381  revert(\"This item is not for sale\") */\n      mload(0x40)\n      shl(0xe5, 0x461bcd)\n      dup2\n      mstore\n        /* \"#utility.yul\":10604:10606   */\n      0x20\n        /* \"OasisShop.sol\":3346:3381  revert(\"This item is not for sale\") */\n      0x04\n      dup3\n      add\n        /* \"#utility.yul\":10586:10607   */\n      mstore\n        /* \"#utility.yul\":10643:10645   */\n      0x19\n        /* \"#utility.yul\":10623:10641   */\n      0x24\n      dup3\n      add\n        /* \"#utility.yul\":10616:10646   */\n      mstore\n        /* \"#utility.yul\":10682:10709   */\n      0x54686973206974656d206973206e6f7420666f722073616c6500000000000000\n        /* \"#utility.yul\":10662:10680   */\n      0x44\n      dup3\n      add\n        /* \"#utility.yul\":10655:10710   */\n      mstore\n        /* \"#utility.yul\":10727:10745   */\n      0x64\n      add\n        /* \"OasisShop.sol\":3346:3381  revert(\"This item is not for sale\") */\n      tag_107\n        /* \"#utility.yul\":10402:10751   */\n      jump\n        /* \"OasisShop.sol\":3313:3381  if (!_shopItems[index].isActive) revert(\"This item is not for sale\") */\n    tag_190:\n        /* \"OasisShop.sol\":3397:3441  _itemOwnedByTreasury(_itemContract, _itemId) */\n      tag_193\n        /* \"OasisShop.sol\":3418:3431  _itemContract */\n      dup6\n        /* \"OasisShop.sol\":3433:3440  _itemId */\n      dup6\n        /* \"OasisShop.sol\":3397:3417  _itemOwnedByTreasury */\n      tag_194\n        /* \"OasisShop.sol\":3397:3441  _itemOwnedByTreasury(_itemContract, _itemId) */\n      jump\t// in\n    tag_193:\n        /* \"OasisShop.sol\":3392:3491  if (!_itemOwnedByTreasury(_itemContract, _itemId)) revert(\"This item is not owned by the treasury\") */\n      tag_195\n      jumpi\n        /* \"OasisShop.sol\":3443:3491  revert(\"This item is not owned by the treasury\") */\n      mload(0x40)\n      shl(0xe5, 0x461bcd)\n      dup2\n      mstore\n        /* \"#utility.yul\":10958:10960   */\n      0x20\n        /* \"OasisShop.sol\":3443:3491  revert(\"This item is not owned by the treasury\") */\n      0x04\n      dup3\n      add\n        /* \"#utility.yul\":10940:10961   */\n      mstore\n        /* \"#utility.yul\":10997:10999   */\n      0x26\n        /* \"#utility.yul\":10977:10995   */\n      0x24\n      dup3\n      add\n        /* \"#utility.yul\":10970:11000   */\n      mstore\n        /* \"#utility.yul\":11036:11070   */\n      0x54686973206974656d206973206e6f74206f776e656420627920746865207472\n        /* \"#utility.yul\":11016:11034   */\n      0x44\n      dup3\n      add\n        /* \"#utility.yul\":11009:11071   */\n      mstore\n        /* \"#utility.yul\":11107:11115   */\n      0x6561737572790000000000000000000000000000000000000000000000000000\n        /* \"#utility.yul\":11087:11105   */\n      0x64\n      dup3\n      add\n        /* \"#utility.yul\":11080:11116   */\n      mstore\n        /* \"#utility.yul\":11133:11152   */\n      0x84\n      add\n        /* \"OasisShop.sol\":3443:3491  revert(\"This item is not owned by the treasury\") */\n      tag_107\n        /* \"#utility.yul\":10756:11158   */\n      jump\n        /* \"OasisShop.sol\":3392:3491  if (!_itemOwnedByTreasury(_itemContract, _itemId)) revert(\"This item is not owned by the treasury\") */\n    tag_195:\n        /* \"OasisShop.sol\":3537:3552  uint256 fullOst */\n      0x00\n        /* \"OasisShop.sol\":3555:3565  _shopItems */\n      0x02\n        /* \"OasisShop.sol\":3566:3571  index */\n      dup3\n        /* \"OasisShop.sol\":3555:3572  _shopItems[index] */\n      dup2\n      sload\n      dup2\n      lt\n      tag_199\n      jumpi\n      tag_199\n      tag_114\n      jump\t// in\n    tag_199:\n      0x00\n      swap2\n      dup3\n      mstore\n      0x20\n      swap1\n      swap2\n      keccak256\n        /* \"OasisShop.sol\":3555:3582  _shopItems[index].itemPrice */\n      0x01\n        /* \"OasisShop.sol\":3555:3572  _shopItems[index] */\n      0x02\n      swap1\n      swap3\n      mul\n      add\n        /* \"OasisShop.sol\":3555:3582  _shopItems[index].itemPrice */\n      add\n      sload\n        /* \"OasisShop.sol\":3555:3589  _shopItems[index].itemPrice * 1e18 */\n      tag_201\n      swap1\n      sub(shl(0x80, 0x01), 0x01)\n        /* \"OasisShop.sol\":3555:3582  _shopItems[index].itemPrice */\n      and\n        /* \"OasisShop.sol\":3585:3589  1e18 */\n      0x0de0b6b3a7640000\n        /* \"OasisShop.sol\":3555:3589  _shopItems[index].itemPrice * 1e18 */\n      tag_202\n      jump\t// in\n    tag_201:\n        /* \"OasisShop.sol\":3614:3647  IERC20(ost).balanceOf(msg.sender) */\n      mload(0x40)\n      shl(0xe0, 0x70a08231)\n      dup2\n      mstore\n        /* \"OasisShop.sol\":3636:3646  msg.sender */\n      caller\n        /* \"OasisShop.sol\":3614:3647  IERC20(ost).balanceOf(msg.sender) */\n      0x04\n      dup3\n      add\n        /* \"#utility.yul\":3706:3780   */\n      mstore\n      sub(shl(0x80, 0x01), 0x01)\n        /* \"OasisShop.sol\":3537:3589  uint256 fullOst = _shopItems[index].itemPrice * 1e18 */\n      swap2\n      swap1\n      swap2\n      and\n      swap2\n      pop\n      sub(shl(0xa0, 0x01), 0x01)\n        /* \"OasisShop.sol\":3621:3624  ost */\n      immutable(\"0x5237c12354bd492f949054b8f8788aab2998a1669c684d3e036f6f16d4b53e03\")\n        /* \"OasisShop.sol\":3614:3635  IERC20(ost).balanceOf */\n      and\n      swap1\n      0x70a08231\n      swap1\n        /* \"#utility.yul\":3679:3697   */\n      0x24\n      add\n        /* \"OasisShop.sol\":3614:3647  IERC20(ost).balanceOf(msg.sender) */\n      0x20\n      mload(0x40)\n      dup1\n      dup4\n      sub\n      dup2\n      dup7\n      gas\n      staticcall\n      iszero\n      dup1\n      iszero\n      tag_205\n      jumpi\n      returndatasize\n      0x00\n      dup1\n      returndatacopy\n      revert(0x00, returndatasize)\n    tag_205:\n      pop\n      pop\n      pop\n      pop\n      mload(0x40)\n      returndatasize\n      not(0x1f)\n      0x1f\n      dup3\n      add\n      and\n      dup3\n      add\n      dup1\n      0x40\n      mstore\n      pop\n      dup2\n      add\n      swap1\n      tag_206\n      swap2\n      swap1\n      tag_163\n      jump\t// in\n    tag_206:\n        /* \"OasisShop.sol\":3604:3611  fullOst */\n      dup2\n        /* \"OasisShop.sol\":3604:3647  fullOst > IERC20(ost).balanceOf(msg.sender) */\n      gt\n        /* \"OasisShop.sol\":3600:3679  if (fullOst > IERC20(ost).balanceOf(msg.sender)) revert(\"User Balance Too Low\") */\n      iszero\n      tag_207\n      jumpi\n        /* \"OasisShop.sol\":3649:3679  revert(\"User Balance Too Low\") */\n      mload(0x40)\n      shl(0xe5, 0x461bcd)\n      dup2\n      mstore\n        /* \"#utility.yul\":8869:8871   */\n      0x20\n        /* \"OasisShop.sol\":3649:3679  revert(\"User Balance Too Low\") */\n      0x04\n      dup3\n      add\n        /* \"#utility.yul\":8851:8872   */\n      mstore\n        /* \"#utility.yul\":8908:8910   */\n      0x14\n        /* \"#utility.yul\":8888:8906   */\n      0x24\n      dup3\n      add\n        /* \"#utility.yul\":8881:8911   */\n      mstore\n        /* \"#utility.yul\":8947:8969   */\n      0x557365722042616c616e636520546f6f204c6f77000000000000000000000000\n        /* \"#utility.yul\":8927:8945   */\n      0x44\n      dup3\n      add\n        /* \"#utility.yul\":8920:8970   */\n      mstore\n        /* \"#utility.yul\":8987:9005   */\n      0x64\n      add\n        /* \"OasisShop.sol\":3649:3679  revert(\"User Balance Too Low\") */\n      tag_107\n        /* \"#utility.yul\":8667:9011   */\n      jump\n        /* \"OasisShop.sol\":3600:3679  if (fullOst > IERC20(ost).balanceOf(msg.sender)) revert(\"User Balance Too Low\") */\n    tag_207:\n        /* \"OasisShop.sol\":3753:3763  _shopItems */\n      0x02\n        /* \"OasisShop.sol\":3764:3781  _shopItems.length */\n      dup1\n      sload\n        /* \"OasisShop.sol\":3764:3785  _shopItems.length - 1 */\n      tag_209\n      swap1\n        /* \"OasisShop.sol\":3784:3785  1 */\n      0x01\n      swap1\n        /* \"OasisShop.sol\":3764:3785  _shopItems.length - 1 */\n      tag_210\n      jump\t// in\n    tag_209:\n        /* \"OasisShop.sol\":3753:3786  _shopItems[_shopItems.length - 1] */\n      dup2\n      sload\n      dup2\n      lt\n      tag_212\n      jumpi\n      tag_212\n      tag_114\n      jump\t// in\n    tag_212:\n      swap1\n      0x00\n      mstore\n      keccak256(0x00, 0x20)\n      swap1\n      0x02\n      mul\n      add\n        /* \"OasisShop.sol\":3733:3743  _shopItems */\n      0x02\n        /* \"OasisShop.sol\":3744:3749  index */\n      dup4\n        /* \"OasisShop.sol\":3733:3750  _shopItems[index] */\n      dup2\n      sload\n      dup2\n      lt\n      tag_215\n      jumpi\n      tag_215\n      tag_114\n      jump\t// in\n    tag_215:\n      0x00\n      swap2\n      dup3\n      mstore\n      0x20\n      swap1\n      swap2\n      keccak256\n        /* \"OasisShop.sol\":3733:3786  _shopItems[index] = _shopItems[_shopItems.length - 1] */\n      dup3\n      sload\n        /* \"OasisShop.sol\":3733:3750  _shopItems[index] */\n      0x02\n      swap3\n      dup4\n      mul\n      swap1\n      swap2\n      add\n        /* \"OasisShop.sol\":3733:3786  _shopItems[index] = _shopItems[_shopItems.length - 1] */\n      dup1\n      sload\n      0xff\n      swap1\n      swap3\n      and\n      iszero\n      iszero\n      not(0xff)\n      dup4\n      and\n      dup2\n      or\n      dup3\n      sstore\n      dup5\n      sload\n      sub(shl(0xa0, 0x01), 0x01)\n      0x0100\n      swap2\n      dup3\n      swap1\n      div\n      and\n      mul\n      not(sub(shl(0xa8, 0x01), 0x0100))\n      swap1\n      swap2\n      and\n      not(0xffffffffffffffffffffffffffffffffffffffffff)\n      swap1\n      swap4\n      and\n      swap3\n      swap1\n      swap3\n      or\n      swap2\n      swap1\n      swap2\n      or\n      dup1\n      dup3\n      sstore\n      dup4\n      sload\n      0xffffffffffffffff\n      shl(0xa8, 0x01)\n      swap2\n      dup3\n      swap1\n      div\n      and\n      mul\n      not(shl(0xa8, 0xffffffffffffffff))\n      swap1\n      swap2\n      and\n      or\n      dup2\n      sstore\n      0x01\n      swap3\n      dup4\n      add\n      sload\n      swap3\n      add\n      dup1\n      sload\n      not(0xffffffffffffffffffffffffffffffff)\n      and\n      sub(shl(0x80, 0x01), 0x01)\n      swap1\n      swap4\n      and\n      swap3\n      swap1\n      swap3\n      or\n      swap1\n      swap2\n      sstore\n        /* \"OasisShop.sol\":3797:3813  _shopItems.pop() */\n      dup1\n      sload\n      dup1\n      tag_218\n      jumpi\n      tag_218\n      tag_219\n      jump\t// in\n    tag_218:\n      0x00\n      dup3\n      dup2\n      mstore\n      0x20\n      dup2\n      keccak256\n      0x02\n      not(0x00)\n      swap1\n      swap4\n      add\n      swap3\n      dup4\n      mul\n      add\n      dup1\n      sload\n      0xffffff0000000000000000000000000000000000000000000000000000000000\n      and\n      dup2\n      sstore\n      0x01\n      add\n      dup1\n      sload\n      not(0xffffffffffffffffffffffffffffffff)\n      and\n      swap1\n      sstore\n      swap2\n      sstore\n        /* \"OasisShop.sol\":3879:3900  _activateRandomItem() */\n      tag_221\n        /* \"OasisShop.sol\":3879:3898  _activateRandomItem */\n      tag_222\n        /* \"OasisShop.sol\":3879:3900  _activateRandomItem() */\n      jump\t// in\n    tag_221:\n        /* \"OasisShop.sol\":3965:4026  IERC20(ost).transferFrom(msg.sender, oasisGraveyard, fullOst) */\n      mload(0x40)\n      shl(0xe0, 0x23b872dd)\n      dup2\n      mstore\n        /* \"OasisShop.sol\":3990:4000  msg.sender */\n      caller\n        /* \"OasisShop.sol\":3965:4026  IERC20(ost).transferFrom(msg.sender, oasisGraveyard, fullOst) */\n      0x04\n      dup3\n      add\n        /* \"#utility.yul\":9279:9313   */\n      mstore\n      sub(shl(0xa0, 0x01), 0x01)\n        /* \"OasisShop.sol\":4002:4016  oasisGraveyard */\n      immutable(\"0x667e71f1383f6018017c7f9f00ba5758f756bb81173e5c0c2366813dad6f3e59\")\n        /* \"#utility.yul\":9349:9364   */\n      dup2\n      and\n        /* \"#utility.yul\":9329:9347   */\n      0x24\n      dup4\n      add\n        /* \"#utility.yul\":9322:9365   */\n      mstore\n        /* \"#utility.yul\":9381:9399   */\n      0x44\n      dup3\n      add\n        /* \"#utility.yul\":9374:9408   */\n      dup6\n      swap1\n      mstore\n        /* \"OasisShop.sol\":3863:3900  bool replaced = _activateRandomItem() */\n      swap2\n      swap3\n      pop\n        /* \"OasisShop.sol\":3972:3975  ost */\n      immutable(\"0x5237c12354bd492f949054b8f8788aab2998a1669c684d3e036f6f16d4b53e03\")\n        /* \"OasisShop.sol\":3965:3989  IERC20(ost).transferFrom */\n      swap1\n      swap2\n      and\n      swap1\n      0x23b872dd\n      swap1\n        /* \"#utility.yul\":9191:9209   */\n      0x64\n      add\n        /* \"OasisShop.sol\":3965:4026  IERC20(ost).transferFrom(msg.sender, oasisGraveyard, fullOst) */\n      0x20\n      mload(0x40)\n      dup1\n      dup4\n      sub\n      dup2\n      0x00\n      dup8\n      gas\n      call\n      iszero\n      dup1\n      iszero\n      tag_225\n      jumpi\n      returndatasize\n      0x00\n      dup1\n      returndatacopy\n      revert(0x00, returndatasize)\n    tag_225:\n      pop\n      pop\n      pop\n      pop\n      mload(0x40)\n      returndatasize\n      not(0x1f)\n      0x1f\n      dup3\n      add\n      and\n      dup3\n      add\n      dup1\n      0x40\n      mstore\n      pop\n      dup2\n      add\n      swap1\n      tag_226\n      swap2\n      swap1\n      tag_176\n      jump\t// in\n    tag_226:\n        /* \"OasisShop.sol\":3960:4057  if (!IERC20(ost).transferFrom(msg.sender, oasisGraveyard, fullOst)) revert(\"OST Transfer Failed\") */\n      tag_227\n      jumpi\n        /* \"OasisShop.sol\":4028:4057  revert(\"OST Transfer Failed\") */\n      mload(0x40)\n      shl(0xe5, 0x461bcd)\n      dup2\n      mstore\n        /* \"#utility.yul\":9903:9905   */\n      0x20\n        /* \"OasisShop.sol\":4028:4057  revert(\"OST Transfer Failed\") */\n      0x04\n      dup3\n      add\n        /* \"#utility.yul\":9885:9906   */\n      mstore\n        /* \"#utility.yul\":9942:9944   */\n      0x13\n        /* \"#utility.yul\":9922:9940   */\n      0x24\n      dup3\n      add\n        /* \"#utility.yul\":9915:9945   */\n      mstore\n        /* \"#utility.yul\":9981:10002   */\n      0x4f5354205472616e73666572204661696c656400000000000000000000000000\n        /* \"#utility.yul\":9961:9979   */\n      0x44\n      dup3\n      add\n        /* \"#utility.yul\":9954:10003   */\n      mstore\n        /* \"#utility.yul\":10020:10038   */\n      0x64\n      add\n        /* \"OasisShop.sol\":4028:4057  revert(\"OST Transfer Failed\") */\n      tag_107\n        /* \"#utility.yul\":9701:10044   */\n      jump\n        /* \"OasisShop.sol\":3960:4057  if (!IERC20(ost).transferFrom(msg.sender, oasisGraveyard, fullOst)) revert(\"OST Transfer Failed\") */\n    tag_227:\n        /* \"OasisShop.sol\":4068:4138  IERC721(_itemContract).safeTransferFrom(treasury, msg.sender, _itemId) */\n      mload(0x40)\n      shl(0xe1, 0x21421707)\n      dup2\n      mstore\n      sub(shl(0xa0, 0x01), 0x01)\n        /* \"OasisShop.sol\":4108:4116  treasury */\n      immutable(\"0x538742f01864684e7bc02c5833d23bcc80c6c36906ebb070efda83aa556ded94\")\n        /* \"#utility.yul\":9297:9312   */\n      dup2\n      and\n        /* \"OasisShop.sol\":4068:4138  IERC721(_itemContract).safeTransferFrom(treasury, msg.sender, _itemId) */\n      0x04\n      dup4\n      add\n        /* \"#utility.yul\":9279:9313   */\n      mstore\n        /* \"OasisShop.sol\":4118:4128  msg.sender */\n      caller\n        /* \"#utility.yul\":9329:9347   */\n      0x24\n      dup4\n      add\n        /* \"#utility.yul\":9322:9365   */\n      mstore\n        /* \"#utility.yul\":9381:9399   */\n      0x44\n      dup3\n      add\n        /* \"#utility.yul\":9374:9408   */\n      dup9\n      swap1\n      mstore\n        /* \"OasisShop.sol\":4068:4107  IERC721(_itemContract).safeTransferFrom */\n      dup9\n      and\n      swap1\n      0x42842e0e\n      swap1\n        /* \"#utility.yul\":9191:9209   */\n      0x64\n      add\n        /* \"OasisShop.sol\":4068:4138  IERC721(_itemContract).safeTransferFrom(treasury, msg.sender, _itemId) */\n      0x00\n      mload(0x40)\n      dup1\n      dup4\n      sub\n      dup2\n      0x00\n      dup8\n      dup1\n      extcodesize\n      iszero\n      dup1\n      iszero\n      tag_230\n      jumpi\n      0x00\n      dup1\n      revert\n    tag_230:\n      pop\n      gas\n      call\n      iszero\n      dup1\n      iszero\n      tag_232\n      jumpi\n      returndatasize\n      0x00\n      dup1\n      returndatacopy\n      revert(0x00, returndatasize)\n    tag_232:\n      pop\n      pop\n        /* \"OasisShop.sol\":4177:4226  PurchasedItem(msg.sender, _itemContract, _itemId) */\n      mload(0x40)\n        /* \"OasisShop.sol\":4218:4225  _itemId */\n      dup9\n      swap3\n      pop\n      sub(shl(0xa0, 0x01), 0x01)\n        /* \"OasisShop.sol\":4177:4226  PurchasedItem(msg.sender, _itemContract, _itemId) */\n      dup11\n      and\n      swap2\n      pop\n        /* \"OasisShop.sol\":4191:4201  msg.sender */\n      caller\n      swap1\n        /* \"OasisShop.sol\":4177:4226  PurchasedItem(msg.sender, _itemContract, _itemId) */\n      0x2114172e14ede64480d6a396d65773782893da59db91a47c82c4fe60c9e1fcf5\n      swap1\n      0x00\n      swap1\n      log4\n        /* \"OasisShop.sol\":4246:4254  replaced */\n      swap4\n      pop\n      pop\n      pop\n      pop\n        /* \"@openzeppelin/contracts/security/Pausable.sol\":1268:1269   */\n    tag_182:\n        /* \"OasisShop.sol\":2984:4262  function purchaseShopItem(address _itemContract, uint256 _itemId) external whenNotPaused returns (bool replaced_) {... */\n      swap3\n      swap2\n      pop\n      pop\n      jump\t// out\n        /* \"OasisShop.sol\":6796:6903  function withdraw() external onlyOwner {... */\n    tag_47:\n        /* \"@openzeppelin/contracts/access/Ownable.sol\":1094:1107   */\n      tag_234\n        /* \"@openzeppelin/contracts/access/Ownable.sol\":1094:1105   */\n      tag_104\n        /* \"@openzeppelin/contracts/access/Ownable.sol\":1094:1107   */\n      jump\t// in\n    tag_234:\n        /* \"OasisShop.sol\":6846:6895  payable(owner()).sendValue(address(this).balance) */\n      tag_236\n        /* \"OasisShop.sol\":6873:6894  address(this).balance */\n      selfbalance\n        /* \"OasisShop.sol\":6854:6861  owner() */\n      tag_237\n        /* \"@openzeppelin/contracts/access/Ownable.sol\":1247:1254   */\n      0x00\n        /* \"@openzeppelin/contracts/access/Ownable.sol\":1273:1279   */\n      sload\n      sub(shl(0xa0, 0x01), 0x01)\n      0x0100\n      swap1\n      swap2\n      div\n      and\n      swap1\n        /* \"@openzeppelin/contracts/access/Ownable.sol\":1201:1286   */\n      jump\n        /* \"OasisShop.sol\":6854:6861  owner() */\n    tag_237:\n      sub(shl(0xa0, 0x01), 0x01)\n        /* \"OasisShop.sol\":6846:6872  payable(owner()).sendValue */\n      and\n      swap1\n      tag_238\n        /* \"OasisShop.sol\":6846:6895  payable(owner()).sendValue(address(this).balance) */\n      jump\t// in\n    tag_236:\n        /* \"OasisShop.sol\":6796:6903  function withdraw() external onlyOwner {... */\n      jump\t// out\n        /* \"OasisShop.sol\":6721:6788  function unpause() external onlyOwner {... */\n    tag_50:\n        /* \"@openzeppelin/contracts/access/Ownable.sol\":1094:1107   */\n      tag_240\n        /* \"@openzeppelin/contracts/access/Ownable.sol\":1094:1105   */\n      tag_104\n        /* \"@openzeppelin/contracts/access/Ownable.sol\":1094:1107   */\n      jump\t// in\n    tag_240:\n        /* \"OasisShop.sol\":6770:6780  _unpause() */\n      tag_236\n        /* \"OasisShop.sol\":6770:6778  _unpause */\n      tag_243\n        /* \"OasisShop.sol\":6770:6780  _unpause() */\n      jump\t// in\n        /* \"OasisShop.sol\":4270:4379  function getItems() external view returns (ShopItem[] memory shopItems_) {... */\n    tag_53:\n        /* \"OasisShop.sol\":4313:4341  ShopItem[] memory shopItems_ */\n      0x60\n        /* \"OasisShop.sol\":4361:4371  _shopItems */\n      0x02\n        /* \"OasisShop.sol\":4354:4371  return _shopItems */\n      dup1\n      sload\n      dup1\n      0x20\n      mul\n      0x20\n      add\n      mload(0x40)\n      swap1\n      dup2\n      add\n      0x40\n      mstore\n      dup1\n      swap3\n      swap2\n      swap1\n      dup2\n      dup2\n      mstore\n      0x20\n      add\n      0x00\n      swap1\n    tag_245:\n      dup3\n      dup3\n      lt\n      iszero\n      tag_246\n      jumpi\n      0x00\n      dup5\n      dup2\n      mstore\n      0x20\n      swap1\n      dup2\n      swap1\n      keccak256\n      0x40\n      dup1\n      mload\n      0x80\n      dup2\n      add\n      dup3\n      mstore\n      0x02\n      dup7\n      mul\n      swap1\n      swap3\n      add\n      dup1\n      sload\n      0xff\n      dup2\n      and\n      iszero\n      iszero\n      dup5\n      mstore\n      0x0100\n      dup2\n      div\n      sub(shl(0xa0, 0x01), 0x01)\n      and\n      dup5\n      dup7\n      add\n      mstore\n      shl(0xa8, 0x01)\n      swap1\n      div\n      0xffffffffffffffff\n      and\n      swap2\n      dup4\n      add\n      swap2\n      swap1\n      swap2\n      mstore\n      0x01\n      swap1\n      dup2\n      add\n      sload\n      sub(shl(0x80, 0x01), 0x01)\n      and\n      0x60\n      dup4\n      add\n      mstore\n      swap1\n      dup4\n      mstore\n      swap1\n      swap3\n      add\n      swap2\n      add\n      jump(tag_245)\n    tag_246:\n      pop\n      pop\n      pop\n      pop\n      swap1\n      pop\n        /* \"OasisShop.sol\":4270:4379  function getItems() external view returns (ShopItem[] memory shopItems_) {... */\n      swap1\n      jump\t// out\n        /* \"OasisShop.sol\":4579:4695  function setOstPrice(uint256 _weiPricePerOst) external onlyOwner {... */\n    tag_59:\n        /* \"@openzeppelin/contracts/access/Ownable.sol\":1094:1107   */\n      tag_249\n        /* \"@openzeppelin/contracts/access/Ownable.sol\":1094:1105   */\n      tag_104\n        /* \"@openzeppelin/contracts/access/Ownable.sol\":1094:1107   */\n      jump\t// in\n    tag_249:\n        /* \"OasisShop.sol\":4655:4669  weiPricePerOst */\n      0x01\n        /* \"OasisShop.sol\":4655:4687  weiPricePerOst = _weiPricePerOst */\n      sstore\n        /* \"OasisShop.sol\":4579:4695  function setOstPrice(uint256 _weiPricePerOst) external onlyOwner {... */\n      jump\t// out\n        /* \"@openzeppelin/contracts/access/Ownable.sol\":1831:1932   */\n    tag_71:\n        /* \"@openzeppelin/contracts/access/Ownable.sol\":1094:1107   */\n      tag_253\n        /* \"@openzeppelin/contracts/access/Ownable.sol\":1094:1105   */\n      tag_104\n        /* \"@openzeppelin/contracts/access/Ownable.sol\":1094:1107   */\n      jump\t// in\n    tag_253:\n        /* \"@openzeppelin/contracts/access/Ownable.sol\":1895:1925   */\n      tag_236\n        /* \"@openzeppelin/contracts/access/Ownable.sol\":1922:1923   */\n      0x00\n        /* \"@openzeppelin/contracts/access/Ownable.sol\":1895:1913   */\n      tag_256\n        /* \"@openzeppelin/contracts/access/Ownable.sol\":1895:1925   */\n      jump\t// in\n        /* \"OasisShop.sol\":4703:5422  function addItems(... */\n    tag_76:\n        /* \"@openzeppelin/contracts/access/Ownable.sol\":1094:1107   */\n      tag_258\n        /* \"@openzeppelin/contracts/access/Ownable.sol\":1094:1105   */\n      tag_104\n        /* \"@openzeppelin/contracts/access/Ownable.sol\":1094:1107   */\n      jump\t// in\n    tag_258:\n        /* \"OasisShop.sol\":4875:4890  _itemIds.length */\n      dup2\n      mload\n        /* \"OasisShop.sol\":4854:4872  uint256 itemAmount */\n      0x00\n        /* \"OasisShop.sol\":4905:4920  0 == itemAmount */\n      dup2\n      swap1\n      sub\n        /* \"OasisShop.sol\":4901:4962  if (0 == itemAmount) revert(\"Must pass at least one item ID\") */\n      tag_260\n      jumpi\n        /* \"OasisShop.sol\":4922:4962  revert(\"Must pass at least one item ID\") */\n      mload(0x40)\n      shl(0xe5, 0x461bcd)\n      dup2\n      mstore\n        /* \"#utility.yul\":7075:7077   */\n      0x20\n        /* \"OasisShop.sol\":4922:4962  revert(\"Must pass at least one item ID\") */\n      0x04\n      dup3\n      add\n        /* \"#utility.yul\":7057:7078   */\n      mstore\n        /* \"#utility.yul\":7114:7116   */\n      0x1e\n        /* \"#utility.yul\":7094:7112   */\n      0x24\n      dup3\n      add\n        /* \"#utility.yul\":7087:7117   */\n      mstore\n        /* \"#utility.yul\":7153:7185   */\n      0x4d7573742070617373206174206c65617374206f6e65206974656d2049440000\n        /* \"#utility.yul\":7133:7151   */\n      0x44\n      dup3\n      add\n        /* \"#utility.yul\":7126:7186   */\n      mstore\n        /* \"#utility.yul\":7203:7221   */\n      0x64\n      add\n        /* \"OasisShop.sol\":4922:4962  revert(\"Must pass at least one item ID\") */\n      tag_107\n        /* \"#utility.yul\":6873:7227   */\n      jump\n        /* \"OasisShop.sol\":4901:4962  if (0 == itemAmount) revert(\"Must pass at least one item ID\") */\n    tag_260:\n        /* \"OasisShop.sol\":4975:4986  bool exists */\n      0x00\n      dup1\n        /* \"OasisShop.sol\":4997:5415  for (uint256 i = 0; i < itemAmount; i++) {... */\n    tag_262:\n        /* \"OasisShop.sol\":5021:5031  itemAmount */\n      dup3\n        /* \"OasisShop.sol\":5017:5018  i */\n      dup2\n        /* \"OasisShop.sol\":5017:5031  i < itemAmount */\n      lt\n        /* \"OasisShop.sol\":4997:5415  for (uint256 i = 0; i < itemAmount; i++) {... */\n      iszero\n      tag_121\n      jumpi\n        /* \"OasisShop.sol\":5066:5105  _itemExists(_itemContract, _itemIds[i]) */\n      tag_265\n        /* \"OasisShop.sol\":5078:5091  _itemContract */\n      dup7\n        /* \"OasisShop.sol\":5093:5101  _itemIds */\n      dup7\n        /* \"OasisShop.sol\":5102:5103  i */\n      dup4\n        /* \"OasisShop.sol\":5093:5104  _itemIds[i] */\n      dup2\n      mload\n      dup2\n      lt\n      tag_267\n      jumpi\n      tag_267\n      tag_114\n      jump\t// in\n    tag_267:\n      0x20\n      mul\n      0x20\n      add\n      add\n      mload\n        /* \"OasisShop.sol\":5066:5105  _itemExists(_itemContract, _itemIds[i]) */\n      0xffffffffffffffff\n      and\n        /* \"OasisShop.sol\":5066:5077  _itemExists */\n      tag_143\n        /* \"OasisShop.sol\":5066:5105  _itemExists(_itemContract, _itemIds[i]) */\n      jump\t// in\n    tag_265:\n      pop\n        /* \"OasisShop.sol\":5053:5105  (exists, ) = _itemExists(_itemContract, _itemIds[i]) */\n      swap2\n      pop\n        /* \"OasisShop.sol\":5120:5173  if (exists) revert(\"One of the items already exists\") */\n      dup2\n      iszero\n      tag_268\n      jumpi\n        /* \"OasisShop.sol\":5132:5173  revert(\"One of the items already exists\") */\n      mload(0x40)\n      shl(0xe5, 0x461bcd)\n      dup2\n      mstore\n        /* \"#utility.yul\":11919:11921   */\n      0x20\n        /* \"OasisShop.sol\":5132:5173  revert(\"One of the items already exists\") */\n      0x04\n      dup3\n      add\n        /* \"#utility.yul\":11901:11922   */\n      mstore\n        /* \"#utility.yul\":11958:11960   */\n      0x1f\n        /* \"#utility.yul\":11938:11956   */\n      0x24\n      dup3\n      add\n        /* \"#utility.yul\":11931:11961   */\n      mstore\n        /* \"#utility.yul\":11997:12030   */\n      0x4f6e65206f6620746865206974656d7320616c72656164792065786973747300\n        /* \"#utility.yul\":11977:11995   */\n      0x44\n      dup3\n      add\n        /* \"#utility.yul\":11970:12031   */\n      mstore\n        /* \"#utility.yul\":12048:12066   */\n      0x64\n      add\n        /* \"OasisShop.sol\":5132:5173  revert(\"One of the items already exists\") */\n      tag_107\n        /* \"#utility.yul\":11717:12072   */\n      jump\n        /* \"OasisShop.sol\":5120:5173  if (exists) revert(\"One of the items already exists\") */\n    tag_268:\n        /* \"OasisShop.sol\":5193:5241  _itemOwnedByTreasury(_itemContract, _itemIds[i]) */\n      tag_271\n        /* \"OasisShop.sol\":5214:5227  _itemContract */\n      dup7\n        /* \"OasisShop.sol\":5229:5237  _itemIds */\n      dup7\n        /* \"OasisShop.sol\":5238:5239  i */\n      dup4\n        /* \"OasisShop.sol\":5229:5240  _itemIds[i] */\n      dup2\n      mload\n      dup2\n      lt\n      tag_273\n      jumpi\n      tag_273\n      tag_114\n      jump\t// in\n    tag_273:\n      0x20\n      mul\n      0x20\n      add\n      add\n      mload\n        /* \"OasisShop.sol\":5193:5241  _itemOwnedByTreasury(_itemContract, _itemIds[i]) */\n      0xffffffffffffffff\n      and\n        /* \"OasisShop.sol\":5193:5213  _itemOwnedByTreasury */\n      tag_194\n        /* \"OasisShop.sol\":5193:5241  _itemOwnedByTreasury(_itemContract, _itemIds[i]) */\n      jump\t// in\n    tag_271:\n        /* \"OasisShop.sol\":5188:5294  if (!_itemOwnedByTreasury(_itemContract, _itemIds[i])) revert(\"One of the items is not owned by treasury\") */\n      tag_274\n      jumpi\n        /* \"OasisShop.sol\":5243:5294  revert(\"One of the items is not owned by treasury\") */\n      mload(0x40)\n      shl(0xe5, 0x461bcd)\n      dup2\n      mstore\n        /* \"#utility.yul\":12279:12281   */\n      0x20\n        /* \"OasisShop.sol\":5243:5294  revert(\"One of the items is not owned by treasury\") */\n      0x04\n      dup3\n      add\n        /* \"#utility.yul\":12261:12282   */\n      mstore\n        /* \"#utility.yul\":12318:12320   */\n      0x29\n        /* \"#utility.yul\":12298:12316   */\n      0x24\n      dup3\n      add\n        /* \"#utility.yul\":12291:12321   */\n      mstore\n        /* \"#utility.yul\":12357:12391   */\n      0x4f6e65206f6620746865206974656d73206973206e6f74206f776e6564206279\n        /* \"#utility.yul\":12337:12355   */\n      0x44\n      dup3\n      add\n        /* \"#utility.yul\":12330:12392   */\n      mstore\n        /* \"#utility.yul\":12428:12439   */\n      0x2074726561737572790000000000000000000000000000000000000000000000\n        /* \"#utility.yul\":12408:12426   */\n      0x64\n      dup3\n      add\n        /* \"#utility.yul\":12401:12440   */\n      mstore\n        /* \"#utility.yul\":12457:12476   */\n      0x84\n      add\n        /* \"OasisShop.sol\":5243:5294  revert(\"One of the items is not owned by treasury\") */\n      tag_107\n        /* \"#utility.yul\":12077:12482   */\n      jump\n        /* \"OasisShop.sol\":5188:5294  if (!_itemOwnedByTreasury(_itemContract, _itemIds[i])) revert(\"One of the items is not owned by treasury\") */\n    tag_274:\n        /* \"OasisShop.sol\":5314:5362  _addItem(_itemContract, _itemIds[i], _itemPrice) */\n      tag_277\n        /* \"OasisShop.sol\":5323:5336  _itemContract */\n      dup7\n        /* \"OasisShop.sol\":5338:5346  _itemIds */\n      dup7\n        /* \"OasisShop.sol\":5347:5348  i */\n      dup4\n        /* \"OasisShop.sol\":5338:5349  _itemIds[i] */\n      dup2\n      mload\n      dup2\n      lt\n      tag_279\n      jumpi\n      tag_279\n      tag_114\n      jump\t// in\n    tag_279:\n      0x20\n      mul\n      0x20\n      add\n      add\n      mload\n        /* \"OasisShop.sol\":5351:5361  _itemPrice */\n      dup7\n        /* \"OasisShop.sol\":7892:7943  ShopItem(false, _itemContract, _itemId, _itemPrice) */\n      0x40\n      dup1\n      mload\n      0x80\n      dup2\n      add\n      dup3\n      mstore\n      0x00\n      dup1\n      dup3\n      mstore\n      sub(shl(0xa0, 0x01), 0x01)\n      swap6\n      dup7\n      and\n      0x20\n      dup4\n      add\n      swap1\n      dup2\n      mstore\n      0xffffffffffffffff\n      swap6\n      dup7\n      and\n      swap4\n      dup4\n      add\n      swap4\n      dup5\n      mstore\n      sub(shl(0x80, 0x01), 0x01)\n      swap5\n      dup6\n      and\n      0x60\n      dup5\n      add\n      swap1\n      dup2\n      mstore\n        /* \"OasisShop.sol\":7876:7886  _shopItems */\n      0x02\n        /* \"OasisShop.sol\":7876:7944  _shopItems.push(ShopItem(false, _itemContract, _itemId, _itemPrice)) */\n      dup1\n      sload\n        /* \"OasisShop.sol\":7892:7943  ShopItem(false, _itemContract, _itemId, _itemPrice) */\n      0x01\n        /* \"OasisShop.sol\":7876:7944  _shopItems.push(ShopItem(false, _itemContract, _itemId, _itemPrice)) */\n      dup1\n      dup3\n      add\n      dup4\n      sstore\n      swap5\n      dup3\n      swap1\n      mstore\n      swap5\n      mload\n      0x405787fa12a823e0f2b7631cc41b3ba8828b3321ca811111fa75cd3aa3bb5ace\n      swap6\n      swap1\n      swap2\n      mul\n      swap5\n      dup6\n      add\n      dup1\n      sload\n      swap4\n      mload\n      swap7\n      mload\n      not(0xffffffffffffffffffffffffffffffffffffffffff)\n      swap1\n      swap5\n      and\n      swap2\n      iszero\n      iszero\n      not(sub(shl(0xa8, 0x01), 0x0100))\n      and\n      swap2\n      swap1\n      swap2\n      or\n      0x0100\n      swap7\n      swap1\n      swap10\n      and\n      swap6\n      swap1\n      swap6\n      mul\n      swap8\n      swap1\n      swap8\n      or\n      not(shl(0xa8, 0xffffffffffffffff))\n      and\n      shl(0xa8, 0x01)\n      swap2\n      swap1\n      swap7\n      and\n      mul\n      swap5\n      swap1\n      swap5\n      or\n      swap1\n      swap2\n      sstore\n      swap3\n      mload\n      0x405787fa12a823e0f2b7631cc41b3ba8828b3321ca811111fa75cd3aa3bb5acf\n      swap1\n      swap4\n      add\n      dup1\n      sload\n      not(0xffffffffffffffffffffffffffffffff)\n      and\n      swap4\n      swap1\n      swap2\n      and\n      swap3\n      swap1\n      swap3\n      or\n      swap1\n      swap2\n      sstore\n        /* \"OasisShop.sol\":7892:7943  ShopItem(false, _itemContract, _itemId, _itemPrice) */\n      swap1\n        /* \"OasisShop.sol\":7724:7974  function _addItem(... */\n      jump\n        /* \"OasisShop.sol\":5314:5362  _addItem(_itemContract, _itemIds[i], _itemPrice) */\n    tag_277:\n        /* \"OasisShop.sol\":5309:5403  if (!_addItem(_itemContract, _itemIds[i], _itemPrice)) revert(\"Error adding one of the items\") */\n      tag_281\n      jumpi\n        /* \"OasisShop.sol\":5364:5403  revert(\"Error adding one of the items\") */\n      mload(0x40)\n      shl(0xe5, 0x461bcd)\n      dup2\n      mstore\n        /* \"#utility.yul\":12689:12691   */\n      0x20\n        /* \"OasisShop.sol\":5364:5403  revert(\"Error adding one of the items\") */\n      0x04\n      dup3\n      add\n        /* \"#utility.yul\":12671:12692   */\n      mstore\n        /* \"#utility.yul\":12728:12730   */\n      0x1d\n        /* \"#utility.yul\":12708:12726   */\n      0x24\n      dup3\n      add\n        /* \"#utility.yul\":12701:12731   */\n      mstore\n        /* \"#utility.yul\":12767:12798   */\n      0x4572726f7220616464696e67206f6e65206f6620746865206974656d73000000\n        /* \"#utility.yul\":12747:12765   */\n      0x44\n      dup3\n      add\n        /* \"#utility.yul\":12740:12799   */\n      mstore\n        /* \"#utility.yul\":12816:12834   */\n      0x64\n      add\n        /* \"OasisShop.sol\":5364:5403  revert(\"Error adding one of the items\") */\n      tag_107\n        /* \"#utility.yul\":12487:12840   */\n      jump\n        /* \"OasisShop.sol\":5309:5403  if (!_addItem(_itemContract, _itemIds[i], _itemPrice)) revert(\"Error adding one of the items\") */\n    tag_281:\n        /* \"OasisShop.sol\":5033:5036  i++ */\n      dup1\n      tag_284\n      dup2\n      tag_117\n      jump\t// in\n    tag_284:\n      swap2\n      pop\n      pop\n        /* \"OasisShop.sol\":4997:5415  for (uint256 i = 0; i < itemAmount; i++) {... */\n      jump(tag_262)\n        /* \"OasisShop.sol\":6650:6713  function pause() external onlyOwner {... */\n    tag_79:\n        /* \"@openzeppelin/contracts/access/Ownable.sol\":1094:1107   */\n      tag_286\n        /* \"@openzeppelin/contracts/access/Ownable.sol\":1094:1105   */\n      tag_104\n        /* \"@openzeppelin/contracts/access/Ownable.sol\":1094:1107   */\n      jump\t// in\n    tag_286:\n        /* \"OasisShop.sol\":6697:6705  _pause() */\n      tag_236\n        /* \"OasisShop.sol\":6697:6703  _pause */\n      tag_289\n        /* \"OasisShop.sol\":6697:6705  _pause() */\n      jump\t// in\n        /* \"@openzeppelin/contracts/access/Ownable.sol\":2081:2279   */\n    tag_101:\n        /* \"@openzeppelin/contracts/access/Ownable.sol\":1094:1107   */\n      tag_292\n        /* \"@openzeppelin/contracts/access/Ownable.sol\":1094:1105   */\n      tag_104\n        /* \"@openzeppelin/contracts/access/Ownable.sol\":1094:1107   */\n      jump\t// in\n    tag_292:\n      sub(shl(0xa0, 0x01), 0x01)\n        /* \"@openzeppelin/contracts/access/Ownable.sol\":2169:2191   */\n      dup2\n      and\n        /* \"@openzeppelin/contracts/access/Ownable.sol\":2161:2234   */\n      tag_294\n      jumpi\n      mload(0x40)\n      shl(0xe5, 0x461bcd)\n      dup2\n      mstore\n        /* \"#utility.yul\":13047:13049   */\n      0x20\n        /* \"@openzeppelin/contracts/access/Ownable.sol\":2161:2234   */\n      0x04\n      dup3\n      add\n        /* \"#utility.yul\":13029:13050   */\n      mstore\n        /* \"#utility.yul\":13086:13088   */\n      0x26\n        /* \"#utility.yul\":13066:13084   */\n      0x24\n      dup3\n      add\n        /* \"#utility.yul\":13059:13089   */\n      mstore\n        /* \"#utility.yul\":13125:13159   */\n      0x4f776e61626c653a206e6577206f776e657220697320746865207a65726f2061\n        /* \"#utility.yul\":13105:13123   */\n      0x44\n      dup3\n      add\n        /* \"#utility.yul\":13098:13160   */\n      mstore\n        /* \"#utility.yul\":13196:13204   */\n      0x6464726573730000000000000000000000000000000000000000000000000000\n        /* \"#utility.yul\":13176:13194   */\n      0x64\n      dup3\n      add\n        /* \"#utility.yul\":13169:13205   */\n      mstore\n        /* \"#utility.yul\":13222:13241   */\n      0x84\n      add\n        /* \"@openzeppelin/contracts/access/Ownable.sol\":2161:2234   */\n      tag_107\n        /* \"#utility.yul\":12845:13247   */\n      jump\n        /* \"@openzeppelin/contracts/access/Ownable.sol\":2161:2234   */\n    tag_294:\n        /* \"@openzeppelin/contracts/access/Ownable.sol\":2244:2272   */\n      tag_297\n        /* \"@openzeppelin/contracts/access/Ownable.sol\":2263:2271   */\n      dup2\n        /* \"@openzeppelin/contracts/access/Ownable.sol\":2244:2262   */\n      tag_256\n        /* \"@openzeppelin/contracts/access/Ownable.sol\":2244:2272   */\n      jump\t// in\n    tag_297:\n        /* \"@openzeppelin/contracts/access/Ownable.sol\":2081:2279   */\n      pop\n      jump\t// out\n        /* \"@openzeppelin/contracts/access/Ownable.sol\":1359:1489   */\n    tag_104:\n        /* \"@openzeppelin/contracts/access/Ownable.sol\":1247:1254   */\n      0x00\n        /* \"@openzeppelin/contracts/access/Ownable.sol\":1273:1279   */\n      sload\n      sub(shl(0xa0, 0x01), 0x01)\n      0x0100\n      swap1\n      swap2\n      div\n      and\n        /* \"@openzeppelin/contracts/utils/Context.sol\":719:729   */\n      caller\n        /* \"@openzeppelin/contracts/access/Ownable.sol\":1422:1445   */\n      eq\n        /* \"@openzeppelin/contracts/access/Ownable.sol\":1414:1482   */\n      tag_236\n      jumpi\n      mload(0x40)\n      shl(0xe5, 0x461bcd)\n      dup2\n      mstore\n        /* \"#utility.yul\":13454:13456   */\n      0x20\n        /* \"@openzeppelin/contracts/access/Ownable.sol\":1414:1482   */\n      0x04\n      dup3\n      add\n        /* \"#utility.yul\":13436:13457   */\n      dup2\n      swap1\n      mstore\n        /* \"#utility.yul\":13473:13491   */\n      0x24\n      dup3\n      add\n        /* \"#utility.yul\":13466:13496   */\n      mstore\n        /* \"#utility.yul\":13532:13566   */\n      0x4f776e61626c653a2063616c6c6572206973206e6f7420746865206f776e6572\n        /* \"#utility.yul\":13512:13530   */\n      0x44\n      dup3\n      add\n        /* \"#utility.yul\":13505:13567   */\n      mstore\n        /* \"#utility.yul\":13584:13602   */\n      0x64\n      add\n        /* \"@openzeppelin/contracts/access/Ownable.sol\":1414:1482   */\n      tag_107\n        /* \"#utility.yul\":13252:13608   */\n      jump\n        /* \"OasisShop.sol\":8863:9150  function _getRandomIndex(uint256 maxExcluded) private view returns (uint256 randomIndex_) {... */\n    tag_119:\n        /* \"OasisShop.sol\":9017:9088  abi.encode(block.difficulty, block.timestamp, block.number, msg.sender) */\n      0x40\n      dup1\n      mload\n        /* \"OasisShop.sol\":9028:9044  block.difficulty */\n      difficulty\n        /* \"OasisShop.sol\":9017:9088  abi.encode(block.difficulty, block.timestamp, block.number, msg.sender) */\n      0x20\n      dup3\n      add\n        /* \"#utility.yul\":13844:13869   */\n      mstore\n        /* \"OasisShop.sol\":9046:9061  block.timestamp */\n      timestamp\n        /* \"#utility.yul\":13885:13903   */\n      swap2\n      dup2\n      add\n        /* \"#utility.yul\":13878:13912   */\n      swap2\n      swap1\n      swap2\n      mstore\n        /* \"OasisShop.sol\":9063:9075  block.number */\n      number\n        /* \"#utility.yul\":13928:13946   */\n      0x60\n      dup3\n      add\n        /* \"#utility.yul\":13921:13955   */\n      mstore\n        /* \"OasisShop.sol\":9077:9087  msg.sender */\n      caller\n        /* \"#utility.yul\":13971:13989   */\n      0x80\n      dup3\n      add\n        /* \"#utility.yul\":13964:14047   */\n      mstore\n        /* \"OasisShop.sol\":8931:8951  uint256 randomIndex_ */\n      0x00\n      swap1\n      dup2\n      swap1\n        /* \"#utility.yul\":13816:13835   */\n      0xa0\n      add\n        /* \"OasisShop.sol\":9017:9088  abi.encode(block.difficulty, block.timestamp, block.number, msg.sender) */\n      0x40\n      dup1\n      mload\n      not(0x1f)\n      dup2\n      dup5\n      sub\n      add\n      dup2\n      mstore\n      swap2\n      swap1\n      mstore\n        /* \"OasisShop.sol\":9007:9089  keccak256(abi.encode(block.difficulty, block.timestamp, block.number, msg.sender)) */\n      dup1\n      mload\n        /* \"OasisShop.sol\":9017:9088  abi.encode(block.difficulty, block.timestamp, block.number, msg.sender) */\n      0x20\n        /* \"OasisShop.sol\":9007:9089  keccak256(abi.encode(block.difficulty, block.timestamp, block.number, msg.sender)) */\n      swap1\n      swap2\n      add\n      keccak256\n      swap1\n      pop\n        /* \"OasisShop.sol\":9118:9142  randomHash % maxExcluded */\n      tag_308\n        /* \"OasisShop.sol\":9131:9142  maxExcluded */\n      dup4\n        /* \"OasisShop.sol\":9007:9089  keccak256(abi.encode(block.difficulty, block.timestamp, block.number, msg.sender)) */\n      dup3\n        /* \"OasisShop.sol\":9118:9142  randomHash % maxExcluded */\n      tag_126\n      jump\t// in\n    tag_308:\n        /* \"OasisShop.sol\":9111:9142  return randomHash % maxExcluded */\n      swap4\n        /* \"OasisShop.sol\":8863:9150  function _getRandomIndex(uint256 maxExcluded) private view returns (uint256 randomIndex_) {... */\n      swap3\n      pop\n      pop\n      pop\n      jump\t// out\n        /* \"OasisShop.sol\":8179:8624  function _itemExists(address _itemContract, uint256 _itemId) private view returns (bool exists_, uint256 index_) {... */\n    tag_143:\n        /* \"OasisShop.sol\":8262:8274  bool exists_ */\n      0x00\n        /* \"OasisShop.sol\":8276:8290  uint256 index_ */\n      dup1\n        /* \"OasisShop.sol\":8303:8333  ShopItem[] memory currentItems */\n      0x00\n        /* \"OasisShop.sol\":8336:8346  _shopItems */\n      0x02\n        /* \"OasisShop.sol\":8303:8346  ShopItem[] memory currentItems = _shopItems */\n      dup1\n      sload\n      dup1\n      0x20\n      mul\n      0x20\n      add\n      mload(0x40)\n      swap1\n      dup2\n      add\n      0x40\n      mstore\n      dup1\n      swap3\n      swap2\n      swap1\n      dup2\n      dup2\n      mstore\n      0x20\n      add\n      0x00\n      swap1\n    tag_310:\n      dup3\n      dup3\n      lt\n      iszero\n      tag_311\n      jumpi\n      0x00\n      dup5\n      dup2\n      mstore\n      0x20\n      swap1\n      dup2\n      swap1\n      keccak256\n      0x40\n      dup1\n      mload\n      0x80\n      dup2\n      add\n      dup3\n      mstore\n      0x02\n      dup7\n      mul\n      swap1\n      swap3\n      add\n      dup1\n      sload\n      0xff\n      dup2\n      and\n      iszero\n      iszero\n      dup5\n      mstore\n      0x0100\n      dup2\n      div\n      sub(shl(0xa0, 0x01), 0x01)\n      and\n      dup5\n      dup7\n      add\n      mstore\n      shl(0xa8, 0x01)\n      swap1\n      div\n      0xffffffffffffffff\n      and\n      swap2\n      dup4\n      add\n      swap2\n      swap1\n      swap2\n      mstore\n      0x01\n      swap1\n      dup2\n      add\n      sload\n      sub(shl(0x80, 0x01), 0x01)\n      and\n      0x60\n      dup4\n      add\n      mstore\n      swap1\n      dup4\n      mstore\n      swap1\n      swap3\n      add\n      swap2\n      add\n      jump(tag_310)\n    tag_311:\n      pop\n      pop\n        /* \"OasisShop.sol\":8386:8405  currentItems.length */\n      dup3\n      mload\n        /* \"OasisShop.sol\":8303:8346  ShopItem[] memory currentItems = _shopItems */\n      swap3\n      swap4\n      pop\n        /* \"OasisShop.sol\":8357:8383  uint256 currentItemsLength */\n      0x00\n      swap2\n      pop\n      pop\n        /* \"OasisShop.sol\":8416:8582  for (uint256 i = 0; i < currentItemsLength; i++)... */\n    tag_313:\n        /* \"OasisShop.sol\":8440:8458  currentItemsLength */\n      dup2\n        /* \"OasisShop.sol\":8436:8437  i */\n      dup2\n        /* \"OasisShop.sol\":8436:8458  i < currentItemsLength */\n      lt\n        /* \"OasisShop.sol\":8416:8582  for (uint256 i = 0; i < currentItemsLength; i++)... */\n      iszero\n      tag_314\n      jumpi\n        /* \"OasisShop.sol\":8493:8505  currentItems */\n      dup3\n        /* \"OasisShop.sol\":8506:8507  i */\n      dup2\n        /* \"OasisShop.sol\":8493:8508  currentItems[i] */\n      dup2\n      mload\n      dup2\n      lt\n      tag_317\n      jumpi\n      tag_317\n      tag_114\n      jump\t// in\n    tag_317:\n      0x20\n      mul\n      0x20\n      add\n      add\n      mload\n        /* \"OasisShop.sol\":8493:8515  currentItems[i].itemId */\n      0x40\n      add\n      mload\n        /* \"OasisShop.sol\":8482:8515  _itemId == currentItems[i].itemId */\n      0xffffffffffffffff\n      and\n        /* \"OasisShop.sol\":8482:8489  _itemId */\n      dup7\n        /* \"OasisShop.sol\":8482:8515  _itemId == currentItems[i].itemId */\n      eq\n        /* \"OasisShop.sol\":8482:8564  _itemId == currentItems[i].itemId && _itemContract == currentItems[i].itemContract */\n      dup1\n      iszero\n      tag_318\n      jumpi\n      pop\n        /* \"OasisShop.sol\":8536:8548  currentItems */\n      dup3\n        /* \"OasisShop.sol\":8549:8550  i */\n      dup2\n        /* \"OasisShop.sol\":8536:8551  currentItems[i] */\n      dup2\n      mload\n      dup2\n      lt\n      tag_320\n      jumpi\n      tag_320\n      tag_114\n      jump\t// in\n    tag_320:\n      0x20\n      mul\n      0x20\n      add\n      add\n      mload\n        /* \"OasisShop.sol\":8536:8564  currentItems[i].itemContract */\n      0x20\n      add\n      mload\n      sub(shl(0xa0, 0x01), 0x01)\n        /* \"OasisShop.sol\":8519:8564  _itemContract == currentItems[i].itemContract */\n      and\n        /* \"OasisShop.sol\":8519:8532  _itemContract */\n      dup8\n      sub(shl(0xa0, 0x01), 0x01)\n        /* \"OasisShop.sol\":8519:8564  _itemContract == currentItems[i].itemContract */\n      and\n      eq\n        /* \"OasisShop.sol\":8482:8564  _itemId == currentItems[i].itemId && _itemContract == currentItems[i].itemContract */\n    tag_318:\n        /* \"OasisShop.sol\":8478:8582  if (_itemId == currentItems[i].itemId && _itemContract == currentItems[i].itemContract) return (true, i) */\n      iszero\n      tag_321\n      jumpi\n        /* \"OasisShop.sol\":8574:8578  true */\n      0x01\n      swap5\n      pop\n        /* \"OasisShop.sol\":8580:8581  i */\n      swap3\n      pop\n        /* \"OasisShop.sol\":8566:8582  return (true, i) */\n      tag_309\n      swap2\n      pop\n      pop\n      jump\n        /* \"OasisShop.sol\":8478:8582  if (_itemId == currentItems[i].itemId && _itemContract == currentItems[i].itemContract) return (true, i) */\n    tag_321:\n        /* \"OasisShop.sol\":8460:8463  i++ */\n      dup1\n      tag_322\n      dup2\n      tag_117\n      jump\t// in\n    tag_322:\n      swap2\n      pop\n      pop\n        /* \"OasisShop.sol\":8416:8582  for (uint256 i = 0; i < currentItemsLength; i++)... */\n      jump(tag_313)\n    tag_314:\n      pop\n        /* \"OasisShop.sol\":8601:8606  false */\n      0x00\n        /* \"OasisShop.sol\":8608:8615  1337420 */\n      0x14684c\n        /* \"OasisShop.sol\":8593:8616  return (false, 1337420) */\n      swap4\n      pop\n      swap4\n      pop\n      pop\n      pop\n        /* \"OasisShop.sol\":8179:8624  function _itemExists(address _itemContract, uint256 _itemId) private view returns (bool exists_, uint256 index_) {... */\n    tag_309:\n      swap3\n      pop\n      swap3\n      swap1\n      pop\n      jump\t// out\n        /* \"OasisShop.sol\":7982:8171  function _removeItem(uint256 index) private returns (bool removed_) {... */\n    tag_148:\n        /* \"OasisShop.sol\":8081:8091  _shopItems */\n      0x02\n        /* \"OasisShop.sol\":8092:8109  _shopItems.length */\n      dup1\n      sload\n        /* \"OasisShop.sol\":8035:8048  bool removed_ */\n      0x00\n      swap2\n        /* \"OasisShop.sol\":8081:8091  _shopItems */\n      swap1\n        /* \"OasisShop.sol\":8092:8113  _shopItems.length - 1 */\n      tag_324\n      swap1\n        /* \"OasisShop.sol\":8112:8113  1 */\n      0x01\n      swap1\n        /* \"OasisShop.sol\":8092:8113  _shopItems.length - 1 */\n      tag_210\n      jump\t// in\n    tag_324:\n        /* \"OasisShop.sol\":8081:8114  _shopItems[_shopItems.length - 1] */\n      dup2\n      sload\n      dup2\n      lt\n      tag_326\n      jumpi\n      tag_326\n      tag_114\n      jump\t// in\n    tag_326:\n      swap1\n      0x00\n      mstore\n      keccak256(0x00, 0x20)\n      swap1\n      0x02\n      mul\n      add\n        /* \"OasisShop.sol\":8061:8071  _shopItems */\n      0x02\n        /* \"OasisShop.sol\":8072:8077  index */\n      dup4\n        /* \"OasisShop.sol\":8061:8078  _shopItems[index] */\n      dup2\n      sload\n      dup2\n      lt\n      tag_329\n      jumpi\n      tag_329\n      tag_114\n      jump\t// in\n    tag_329:\n      0x00\n      swap2\n      dup3\n      mstore\n      0x20\n      swap1\n      swap2\n      keccak256\n        /* \"OasisShop.sol\":8061:8114  _shopItems[index] = _shopItems[_shopItems.length - 1] */\n      dup3\n      sload\n        /* \"OasisShop.sol\":8061:8078  _shopItems[index] */\n      0x02\n      swap3\n      dup4\n      mul\n      swap1\n      swap2\n      add\n        /* \"OasisShop.sol\":8061:8114  _shopItems[index] = _shopItems[_shopItems.length - 1] */\n      dup1\n      sload\n      0xff\n      swap1\n      swap3\n      and\n      iszero\n      iszero\n      not(0xff)\n      dup4\n      and\n      dup2\n      or\n      dup3\n      sstore\n      dup5\n      sload\n      sub(shl(0xa0, 0x01), 0x01)\n      0x0100\n      swap2\n      dup3\n      swap1\n      div\n      and\n      mul\n      not(sub(shl(0xa8, 0x01), 0x0100))\n      swap1\n      swap2\n      and\n      not(0xffffffffffffffffffffffffffffffffffffffffff)\n      swap1\n      swap4\n      and\n      swap3\n      swap1\n      swap3\n      or\n      swap2\n      swap1\n      swap2\n      or\n      dup1\n      dup3\n      sstore\n      dup4\n      sload\n      0xffffffffffffffff\n      shl(0xa8, 0x01)\n      swap2\n      dup3\n      swap1\n      div\n      and\n      mul\n      not(shl(0xa8, 0xffffffffffffffff))\n      swap1\n      swap2\n      and\n      or\n      dup2\n      sstore\n      0x01\n      swap3\n      dup4\n      add\n      sload\n      swap3\n      add\n      dup1\n      sload\n      not(0xffffffffffffffffffffffffffffffff)\n      and\n      sub(shl(0x80, 0x01), 0x01)\n      swap1\n      swap4\n      and\n      swap3\n      swap1\n      swap3\n      or\n      swap1\n      swap2\n      sstore\n        /* \"OasisShop.sol\":8125:8141  _shopItems.pop() */\n      dup1\n      sload\n      dup1\n      tag_332\n      jumpi\n      tag_332\n      tag_219\n      jump\t// in\n    tag_332:\n      0x00\n      dup3\n      dup2\n      mstore\n      0x20\n      swap1\n      keccak256\n      0x02\n      not(0x00)\n      swap1\n      swap3\n      add\n      swap2\n      dup3\n      mul\n      add\n      dup1\n      sload\n      0xffffff0000000000000000000000000000000000000000000000000000000000\n      and\n      dup2\n      sstore\n      0x01\n      swap1\n      dup2\n      add\n      dup1\n      sload\n      not(0xffffffffffffffffffffffffffffffff)\n      and\n      swap1\n      sstore\n      swap2\n      sstore\n      swap3\n        /* \"OasisShop.sol\":7982:8171  function _removeItem(uint256 index) private returns (bool removed_) {... */\n      swap2\n      pop\n      pop\n      jump\t// out\n        /* \"@openzeppelin/contracts/security/Pausable.sol\":1767:1873   */\n    tag_155:\n        /* \"@openzeppelin/contracts/security/Pausable.sol\":1662:1666   */\n      0x00\n        /* \"@openzeppelin/contracts/security/Pausable.sol\":1685:1692   */\n      sload\n      0xff\n      and\n        /* \"@openzeppelin/contracts/security/Pausable.sol\":1836:1845   */\n      iszero\n        /* \"@openzeppelin/contracts/security/Pausable.sol\":1828:1866   */\n      tag_236\n      jumpi\n      mload(0x40)\n      shl(0xe5, 0x461bcd)\n      dup2\n      mstore\n        /* \"#utility.yul\":14260:14262   */\n      0x20\n        /* \"@openzeppelin/contracts/security/Pausable.sol\":1828:1866   */\n      0x04\n      dup3\n      add\n        /* \"#utility.yul\":14242:14263   */\n      mstore\n        /* \"#utility.yul\":14299:14301   */\n      0x10\n        /* \"#utility.yul\":14279:14297   */\n      0x24\n      dup3\n      add\n        /* \"#utility.yul\":14272:14302   */\n      mstore\n        /* \"#utility.yul\":14338:14356   */\n      0x5061757361626c653a2070617573656400000000000000000000000000000000\n        /* \"#utility.yul\":14318:14336   */\n      0x44\n      dup3\n      add\n        /* \"#utility.yul\":14311:14357   */\n      mstore\n        /* \"#utility.yul\":14374:14392   */\n      0x64\n      add\n        /* \"@openzeppelin/contracts/security/Pausable.sol\":1828:1866   */\n      tag_107\n        /* \"#utility.yul\":14058:14398   */\n      jump\n        /* \"OasisShop.sol\":8632:8855  function _itemOwnedByTreasury(address _itemContract, uint256 _itemId) private view returns (bool treasuryOwned_) {... */\n    tag_194:\n        /* \"OasisShop.sol\":8772:8811  IERC721(_itemContract).ownerOf(_itemId) */\n      mload(0x40)\n      shl(0xe1, 0x31a9108f)\n      dup2\n      mstore\n      0x04\n      dup2\n      add\n        /* \"#utility.yul\":5430:5455   */\n      dup3\n      swap1\n      mstore\n        /* \"OasisShop.sol\":8724:8743  bool treasuryOwned_ */\n      0x00\n      swap1\n      sub(shl(0xa0, 0x01), 0x01)\n        /* \"OasisShop.sol\":8772:8802  IERC721(_itemContract).ownerOf */\n      dup5\n      and\n      swap1\n      0x6352211e\n      swap1\n        /* \"#utility.yul\":5403:5421   */\n      0x24\n      add\n        /* \"OasisShop.sol\":8772:8811  IERC721(_itemContract).ownerOf(_itemId) */\n      0x20\n      mload(0x40)\n      dup1\n      dup4\n      sub\n      dup2\n      dup7\n      gas\n      staticcall\n      iszero\n      dup1\n      iszero\n      tag_342\n      jumpi\n      returndatasize\n      0x00\n      dup1\n      returndatacopy\n      revert(0x00, returndatasize)\n    tag_342:\n      pop\n      pop\n      pop\n      pop\n      mload(0x40)\n      returndatasize\n      not(0x1f)\n      0x1f\n      dup3\n      add\n      and\n      dup3\n      add\n      dup1\n      0x40\n      mstore\n      pop\n      dup2\n      add\n      swap1\n      tag_343\n      swap2\n      swap1\n      tag_344\n      jump\t// in\n    tag_343:\n      sub(shl(0xa0, 0x01), 0x01)\n        /* \"OasisShop.sol\":8760:8811  treasury == IERC721(_itemContract).ownerOf(_itemId) */\n      and\n        /* \"OasisShop.sol\":8760:8768  treasury */\n      immutable(\"0x538742f01864684e7bc02c5833d23bcc80c6c36906ebb070efda83aa556ded94\")\n      sub(shl(0xa0, 0x01), 0x01)\n        /* \"OasisShop.sol\":8760:8811  treasury == IERC721(_itemContract).ownerOf(_itemId) */\n      and\n      sub\n        /* \"OasisShop.sol\":8756:8824  if (treasury == IERC721(_itemContract).ownerOf(_itemId)) return true */\n      tag_345\n      jumpi\n      pop\n        /* \"OasisShop.sol\":8820:8824  true */\n      0x01\n        /* \"OasisShop.sol\":8813:8824  return true */\n      jump(tag_182)\n        /* \"OasisShop.sol\":8756:8824  if (treasury == IERC721(_itemContract).ownerOf(_itemId)) return true */\n    tag_345:\n      pop\n        /* \"OasisShop.sol\":8842:8847  false */\n      0x00\n        /* \"OasisShop.sol\":8632:8855  function _itemOwnedByTreasury(address _itemContract, uint256 _itemId) private view returns (bool treasuryOwned_) {... */\n      swap3\n      swap2\n      pop\n      pop\n      jump\t// out\n        /* \"OasisShop.sol\":7105:7716  function _activateRandomItem() private returns (bool activated_) {... */\n    tag_222:\n        /* \"OasisShop.sol\":7215:7225  _shopItems */\n      0x02\n        /* \"OasisShop.sol\":7265:7284  currentItems.length */\n      dup1\n      sload\n        /* \"OasisShop.sol\":7153:7168  bool activated_ */\n      0x00\n      swap2\n        /* \"OasisShop.sol\":7215:7225  _shopItems */\n      swap1\n        /* \"OasisShop.sol\":7153:7168  bool activated_ */\n      dup3\n        /* \"OasisShop.sol\":7317:7352  _getRandomIndex(currentItemsLength) */\n      tag_347\n        /* \"OasisShop.sol\":7265:7284  currentItems.length */\n      dup3\n        /* \"OasisShop.sol\":7317:7332  _getRandomIndex */\n      tag_119\n        /* \"OasisShop.sol\":7317:7352  _getRandomIndex(currentItemsLength) */\n      jump\t// in\n    tag_347:\n        /* \"OasisShop.sol\":7295:7352  uint256 randomIndex = _getRandomIndex(currentItemsLength) */\n      swap1\n      pop\n        /* \"OasisShop.sol\":7363:7383  uint256 currentIndex */\n      0x00\n      dup1\n        /* \"OasisShop.sol\":7394:7686  for (uint256 i = 0; i < currentItemsLength; i++) {... */\n    tag_348:\n        /* \"OasisShop.sol\":7418:7436  currentItemsLength */\n      dup4\n        /* \"OasisShop.sol\":7414:7415  i */\n      dup2\n        /* \"OasisShop.sol\":7414:7436  i < currentItemsLength */\n      lt\n        /* \"OasisShop.sol\":7394:7686  for (uint256 i = 0; i < currentItemsLength; i++) {... */\n      iszero\n      tag_349\n      jumpi\n        /* \"OasisShop.sol\":7493:7511  currentItemsLength */\n      dup4\n        /* \"OasisShop.sol\":7474:7489  randomIndex + i */\n      tag_351\n        /* \"OasisShop.sol\":7488:7489  i */\n      dup3\n        /* \"OasisShop.sol\":7474:7485  randomIndex */\n      dup6\n        /* \"OasisShop.sol\":7474:7489  randomIndex + i */\n      tag_124\n      jump\t// in\n    tag_351:\n        /* \"OasisShop.sol\":7473:7511  (randomIndex + i) % currentItemsLength */\n      tag_352\n      swap2\n      swap1\n      tag_126\n      jump\t// in\n    tag_352:\n        /* \"OasisShop.sol\":7458:7511  currentIndex = (randomIndex + i) % currentItemsLength */\n      swap2\n      pop\n        /* \"OasisShop.sol\":7531:7543  currentItems */\n      dup5\n        /* \"OasisShop.sol\":7544:7556  currentIndex */\n      dup3\n        /* \"OasisShop.sol\":7531:7557  currentItems[currentIndex] */\n      dup2\n      sload\n      dup2\n      lt\n      tag_354\n      jumpi\n      tag_354\n      tag_114\n      jump\t// in\n    tag_354:\n      0x00\n      swap2\n      dup3\n      mstore\n      0x20\n      swap1\n      swap2\n      keccak256\n      0x02\n      swap1\n      swap2\n      mul\n      add\n        /* \"OasisShop.sol\":7531:7566  currentItems[currentIndex].isActive */\n      sload\n      0xff\n      and\n        /* \"OasisShop.sol\":7526:7675  if (!currentItems[currentIndex].isActive) {... */\n      tag_356\n      jumpi\n        /* \"OasisShop.sol\":7625:7629  true */\n      0x01\n        /* \"OasisShop.sol\":7587:7599  currentItems */\n      dup6\n        /* \"OasisShop.sol\":7600:7612  currentIndex */\n      dup4\n        /* \"OasisShop.sol\":7587:7613  currentItems[currentIndex] */\n      dup2\n      sload\n      dup2\n      lt\n      tag_358\n      jumpi\n      tag_358\n      tag_114\n      jump\t// in\n    tag_358:\n      0x00\n      swap2\n      dup3\n      mstore\n      0x20\n      swap1\n      swap2\n      keccak256\n      0x02\n      swap1\n      swap2\n      mul\n      add\n        /* \"OasisShop.sol\":7587:7629  currentItems[currentIndex].isActive = true */\n      dup1\n      sload\n      not(0xff)\n      and\n      swap2\n      iszero\n      iszero\n      swap2\n      swap1\n      swap2\n      or\n      swap1\n      sstore\n      pop\n      0x01\n      swap6\n      swap5\n      pop\n      pop\n      pop\n      pop\n      pop\n        /* \"OasisShop.sol\":7105:7716  function _activateRandomItem() private returns (bool activated_) {... */\n      jump\t// out\n        /* \"OasisShop.sol\":7526:7675  if (!currentItems[currentIndex].isActive) {... */\n    tag_356:\n        /* \"OasisShop.sol\":7438:7441  i++ */\n      dup1\n      tag_360\n      dup2\n      tag_117\n      jump\t// in\n    tag_360:\n      swap2\n      pop\n      pop\n        /* \"OasisShop.sol\":7394:7686  for (uint256 i = 0; i < currentItemsLength; i++) {... */\n      jump(tag_348)\n    tag_349:\n      pop\n        /* \"OasisShop.sol\":7703:7708  false */\n      0x00\n        /* \"OasisShop.sol\":7696:7708  return false */\n      swap5\n      pop\n      pop\n      pop\n      pop\n      pop\n        /* \"OasisShop.sol\":7105:7716  function _activateRandomItem() private returns (bool activated_) {... */\n      swap1\n      jump\t// out\n        /* \"@openzeppelin/contracts/utils/Address.sol\":2412:2724   */\n    tag_238:\n        /* \"@openzeppelin/contracts/utils/Address.sol\":2526:2532   */\n      dup1\n        /* \"@openzeppelin/contracts/utils/Address.sol\":2501:2522   */\n      selfbalance\n        /* \"@openzeppelin/contracts/utils/Address.sol\":2501:2532   */\n      lt\n      iszero\n        /* \"@openzeppelin/contracts/utils/Address.sol\":2493:2566   */\n      tag_362\n      jumpi\n      mload(0x40)\n      shl(0xe5, 0x461bcd)\n      dup2\n      mstore\n        /* \"#utility.yul\":14861:14863   */\n      0x20\n        /* \"@openzeppelin/contracts/utils/Address.sol\":2493:2566   */\n      0x04\n      dup3\n      add\n        /* \"#utility.yul\":14843:14864   */\n      mstore\n        /* \"#utility.yul\":14900:14902   */\n      0x1d\n        /* \"#utility.yul\":14880:14898   */\n      0x24\n      dup3\n      add\n        /* \"#utility.yul\":14873:14903   */\n      mstore\n        /* \"#utility.yul\":14939:14970   */\n      0x416464726573733a20696e73756666696369656e742062616c616e6365000000\n        /* \"#utility.yul\":14919:14937   */\n      0x44\n      dup3\n      add\n        /* \"#utility.yul\":14912:14971   */\n      mstore\n        /* \"#utility.yul\":14988:15006   */\n      0x64\n      add\n        /* \"@openzeppelin/contracts/utils/Address.sol\":2493:2566   */\n      tag_107\n        /* \"#utility.yul\":14659:15012   */\n      jump\n        /* \"@openzeppelin/contracts/utils/Address.sol\":2493:2566   */\n    tag_362:\n        /* \"@openzeppelin/contracts/utils/Address.sol\":2578:2590   */\n      0x00\n        /* \"@openzeppelin/contracts/utils/Address.sol\":2596:2605   */\n      dup3\n      sub(shl(0xa0, 0x01), 0x01)\n        /* \"@openzeppelin/contracts/utils/Address.sol\":2596:2610   */\n      and\n        /* \"@openzeppelin/contracts/utils/Address.sol\":2618:2624   */\n      dup3\n        /* \"@openzeppelin/contracts/utils/Address.sol\":2596:2629   */\n      mload(0x40)\n      0x00\n      mload(0x40)\n      dup1\n      dup4\n      sub\n      dup2\n      dup6\n      dup8\n      gas\n      call\n      swap3\n      pop\n      pop\n      pop\n      returndatasize\n      dup1\n      0x00\n      dup2\n      eq\n      tag_369\n      jumpi\n      mload(0x40)\n      swap2\n      pop\n      and(add(returndatasize, 0x3f), not(0x1f))\n      dup3\n      add\n      0x40\n      mstore\n      returndatasize\n      dup3\n      mstore\n      returndatasize\n      0x00\n      0x20\n      dup5\n      add\n      returndatacopy\n      jump(tag_368)\n    tag_369:\n      0x60\n      swap2\n      pop\n    tag_368:\n      pop\n        /* \"@openzeppelin/contracts/utils/Address.sol\":2577:2629   */\n      pop\n      swap1\n      pop\n        /* \"@openzeppelin/contracts/utils/Address.sol\":2647:2654   */\n      dup1\n        /* \"@openzeppelin/contracts/utils/Address.sol\":2639:2717   */\n      tag_370\n      jumpi\n      mload(0x40)\n      shl(0xe5, 0x461bcd)\n      dup2\n      mstore\n        /* \"#utility.yul\":15429:15431   */\n      0x20\n        /* \"@openzeppelin/contracts/utils/Address.sol\":2639:2717   */\n      0x04\n      dup3\n      add\n        /* \"#utility.yul\":15411:15432   */\n      mstore\n        /* \"#utility.yul\":15468:15470   */\n      0x3a\n        /* \"#utility.yul\":15448:15466   */\n      0x24\n      dup3\n      add\n        /* \"#utility.yul\":15441:15471   */\n      mstore\n        /* \"#utility.yul\":15507:15541   */\n      0x416464726573733a20756e61626c6520746f2073656e642076616c75652c2072\n        /* \"#utility.yul\":15487:15505   */\n      0x44\n      dup3\n      add\n        /* \"#utility.yul\":15480:15542   */\n      mstore\n        /* \"#utility.yul\":15578:15606   */\n      0x6563697069656e74206d61792068617665207265766572746564000000000000\n        /* \"#utility.yul\":15558:15576   */\n      0x64\n      dup3\n      add\n        /* \"#utility.yul\":15551:15607   */\n      mstore\n        /* \"#utility.yul\":15624:15643   */\n      0x84\n      add\n        /* \"@openzeppelin/contracts/utils/Address.sol\":2639:2717   */\n      tag_107\n        /* \"#utility.yul\":15227:15649   */\n      jump\n        /* \"@openzeppelin/contracts/utils/Address.sol\":2639:2717   */\n    tag_370:\n        /* \"@openzeppelin/contracts/utils/Address.sol\":2483:2724   */\n      pop\n        /* \"@openzeppelin/contracts/utils/Address.sol\":2412:2724   */\n      pop\n      pop\n      jump\t// out\n        /* \"@openzeppelin/contracts/security/Pausable.sol\":2433:2550   */\n    tag_243:\n        /* \"@openzeppelin/contracts/security/Pausable.sol\":1486:1502   */\n      tag_374\n        /* \"@openzeppelin/contracts/security/Pausable.sol\":1486:1500   */\n      tag_375\n        /* \"@openzeppelin/contracts/security/Pausable.sol\":1486:1502   */\n      jump\t// in\n    tag_374:\n        /* \"@openzeppelin/contracts/security/Pausable.sol\":2501:2506   */\n      0x00\n        /* \"@openzeppelin/contracts/security/Pausable.sol\":2491:2506   */\n      dup1\n      sload\n      not(0xff)\n      and\n      swap1\n      sstore\n        /* \"@openzeppelin/contracts/security/Pausable.sol\":2521:2543   */\n      0x5db9ee0a495bf2e6ff9c91a7834c1ba4fdd244a5e8aa4e537bd38aeae4b073aa\n        /* \"@openzeppelin/contracts/utils/Context.sol\":719:729   */\n      caller\n        /* \"@openzeppelin/contracts/security/Pausable.sol\":2530:2542   */\n    tag_377:\n        /* \"@openzeppelin/contracts/security/Pausable.sol\":2521:2543   */\n      mload(0x40)\n      sub(shl(0xa0, 0x01), 0x01)\n        /* \"#utility.yul\":3724:3779   */\n      swap1\n      swap2\n      and\n        /* \"#utility.yul\":3706:3780   */\n      dup2\n      mstore\n        /* \"#utility.yul\":3694:3696   */\n      0x20\n        /* \"#utility.yul\":3679:3697   */\n      add\n        /* \"@openzeppelin/contracts/security/Pausable.sol\":2521:2543   */\n      mload(0x40)\n      dup1\n      swap2\n      sub\n      swap1\n      log1\n        /* \"@openzeppelin/contracts/security/Pausable.sol\":2433:2550   */\n      jump\t// out\n        /* \"@openzeppelin/contracts/access/Ownable.sol\":2433:2620   */\n    tag_256:\n        /* \"@openzeppelin/contracts/access/Ownable.sol\":2506:2522   */\n      0x00\n        /* \"@openzeppelin/contracts/access/Ownable.sol\":2525:2531   */\n      dup1\n      sload\n      sub(shl(0xa0, 0x01), 0x01)\n        /* \"@openzeppelin/contracts/access/Ownable.sol\":2541:2558   */\n      dup4\n      dup2\n      and\n        /* \"@openzeppelin/contracts/access/Ownable.sol\":2525:2531   */\n      0x0100\n        /* \"@openzeppelin/contracts/access/Ownable.sol\":2541:2558   */\n      dup2\n      dup2\n      mul\n      not(sub(shl(0xa8, 0x01), 0x0100))\n      dup6\n      and\n      or\n      dup6\n      sstore\n        /* \"@openzeppelin/contracts/access/Ownable.sol\":2573:2613   */\n      mload(0x40)\n        /* \"@openzeppelin/contracts/access/Ownable.sol\":2525:2531   */\n      swap4\n      div\n      swap2\n      swap1\n      swap2\n      and\n      swap3\n        /* \"@openzeppelin/contracts/access/Ownable.sol\":2541:2558   */\n      swap1\n      swap2\n        /* \"@openzeppelin/contracts/access/Ownable.sol\":2525:2531   */\n      dup4\n      swap2\n        /* \"@openzeppelin/contracts/access/Ownable.sol\":2573:2613   */\n      0x8be0079c531659141344cd1fd0a4f28419497f9722a3daafe3b4186f6b6457e0\n      swap2\n      log3\n        /* \"@openzeppelin/contracts/access/Ownable.sol\":2496:2620   */\n      pop\n        /* \"@openzeppelin/contracts/access/Ownable.sol\":2433:2620   */\n      pop\n      jump\t// out\n        /* \"@openzeppelin/contracts/security/Pausable.sol\":2186:2301   */\n    tag_289:\n        /* \"@openzeppelin/contracts/security/Pausable.sol\":1239:1258   */\n      tag_383\n        /* \"@openzeppelin/contracts/security/Pausable.sol\":1239:1256   */\n      tag_155\n        /* \"@openzeppelin/contracts/security/Pausable.sol\":1239:1258   */\n      jump\t// in\n    tag_383:\n        /* \"@openzeppelin/contracts/security/Pausable.sol\":2245:2252   */\n      0x00\n        /* \"@openzeppelin/contracts/security/Pausable.sol\":2245:2259   */\n      dup1\n      sload\n      not(0xff)\n      and\n        /* \"@openzeppelin/contracts/security/Pausable.sol\":2255:2259   */\n      0x01\n        /* \"@openzeppelin/contracts/security/Pausable.sol\":2245:2259   */\n      or\n      swap1\n      sstore\n        /* \"@openzeppelin/contracts/security/Pausable.sol\":2274:2294   */\n      0x62e78cea01bee320cd4e420270b5ea74000d11b0c9f74754ebdbfc544b05a258\n        /* \"@openzeppelin/contracts/security/Pausable.sol\":2281:2293   */\n      tag_377\n        /* \"@openzeppelin/contracts/utils/Context.sol\":719:729   */\n      caller\n      swap1\n        /* \"@openzeppelin/contracts/utils/Context.sol\":640:736   */\n      jump\n        /* \"@openzeppelin/contracts/security/Pausable.sol\":1945:2051   */\n    tag_375:\n        /* \"@openzeppelin/contracts/security/Pausable.sol\":1662:1666   */\n      0x00\n        /* \"@openzeppelin/contracts/security/Pausable.sol\":1685:1692   */\n      sload\n      0xff\n      and\n        /* \"@openzeppelin/contracts/security/Pausable.sol\":2003:2044   */\n      tag_236\n      jumpi\n      mload(0x40)\n      shl(0xe5, 0x461bcd)\n      dup2\n      mstore\n        /* \"#utility.yul\":15856:15858   */\n      0x20\n        /* \"@openzeppelin/contracts/security/Pausable.sol\":2003:2044   */\n      0x04\n      dup3\n      add\n        /* \"#utility.yul\":15838:15859   */\n      mstore\n        /* \"#utility.yul\":15895:15897   */\n      0x14\n        /* \"#utility.yul\":15875:15893   */\n      0x24\n      dup3\n      add\n        /* \"#utility.yul\":15868:15898   */\n      mstore\n        /* \"#utility.yul\":15934:15956   */\n      0x5061757361626c653a206e6f7420706175736564000000000000000000000000\n        /* \"#utility.yul\":15914:15932   */\n      0x44\n      dup3\n      add\n        /* \"#utility.yul\":15907:15957   */\n      mstore\n        /* \"#utility.yul\":15974:15992   */\n      0x64\n      add\n        /* \"@openzeppelin/contracts/security/Pausable.sol\":2003:2044   */\n      tag_107\n        /* \"#utility.yul\":15654:15998   */\n      jump\n        /* \"#utility.yul\":14:194   */\n    tag_28:\n        /* \"#utility.yul\":73:79   */\n      0x00\n        /* \"#utility.yul\":126:128   */\n      0x20\n        /* \"#utility.yul\":114:123   */\n      dup3\n        /* \"#utility.yul\":105:112   */\n      dup5\n        /* \"#utility.yul\":101:124   */\n      sub\n        /* \"#utility.yul\":97:129   */\n      slt\n        /* \"#utility.yul\":94:146   */\n      iszero\n      tag_401\n      jumpi\n        /* \"#utility.yul\":142:143   */\n      0x00\n        /* \"#utility.yul\":139:140   */\n      dup1\n        /* \"#utility.yul\":132:144   */\n      revert\n        /* \"#utility.yul\":94:146   */\n    tag_401:\n      pop\n        /* \"#utility.yul\":165:188   */\n      calldataload\n      swap2\n        /* \"#utility.yul\":14:194   */\n      swap1\n      pop\n      jump\t// out\n        /* \"#utility.yul\":199:353   */\n    tag_393:\n      sub(shl(0xa0, 0x01), 0x01)\n        /* \"#utility.yul\":278:283   */\n      dup2\n        /* \"#utility.yul\":274:328   */\n      and\n        /* \"#utility.yul\":267:272   */\n      dup2\n        /* \"#utility.yul\":264:329   */\n      eq\n        /* \"#utility.yul\":254:347   */\n      tag_297\n      jumpi\n        /* \"#utility.yul\":343:344   */\n      0x00\n        /* \"#utility.yul\":340:341   */\n      dup1\n        /* \"#utility.yul\":333:345   */\n      revert\n        /* \"#utility.yul\":358:485   */\n    tag_394:\n        /* \"#utility.yul\":419:429   */\n      0x4e487b71\n        /* \"#utility.yul\":414:417   */\n      0xe0\n        /* \"#utility.yul\":410:430   */\n      shl\n        /* \"#utility.yul\":407:408   */\n      0x00\n        /* \"#utility.yul\":400:431   */\n      mstore\n        /* \"#utility.yul\":450:454   */\n      0x41\n        /* \"#utility.yul\":447:448   */\n      0x04\n        /* \"#utility.yul\":440:455   */\n      mstore\n        /* \"#utility.yul\":474:478   */\n      0x24\n        /* \"#utility.yul\":471:472   */\n      0x00\n        /* \"#utility.yul\":464:479   */\n      revert\n        /* \"#utility.yul\":490:765   */\n    tag_395:\n        /* \"#utility.yul\":561:563   */\n      0x40\n        /* \"#utility.yul\":555:564   */\n      mload\n        /* \"#utility.yul\":626:628   */\n      0x1f\n        /* \"#utility.yul\":607:620   */\n      dup3\n      add\n      not(0x1f)\n        /* \"#utility.yul\":603:630   */\n      and\n        /* \"#utility.yul\":591:631   */\n      dup2\n      add\n        /* \"#utility.yul\":661:679   */\n      0xffffffffffffffff\n        /* \"#utility.yul\":646:680   */\n      dup2\n      gt\n        /* \"#utility.yul\":682:704   */\n      dup3\n      dup3\n      lt\n        /* \"#utility.yul\":643:705   */\n      or\n        /* \"#utility.yul\":640:728   */\n      iszero\n      tag_407\n      jumpi\n        /* \"#utility.yul\":708:726   */\n      tag_407\n      tag_394\n      jump\t// in\n    tag_407:\n        /* \"#utility.yul\":744:746   */\n      0x40\n        /* \"#utility.yul\":737:759   */\n      mstore\n        /* \"#utility.yul\":490:765   */\n      swap2\n      swap1\n      pop\n      jump\t// out\n        /* \"#utility.yul\":770:953   */\n    tag_396:\n        /* \"#utility.yul\":830:834   */\n      0x00\n        /* \"#utility.yul\":863:881   */\n      0xffffffffffffffff\n        /* \"#utility.yul\":855:861   */\n      dup3\n        /* \"#utility.yul\":852:882   */\n      gt\n        /* \"#utility.yul\":849:905   */\n      iszero\n      tag_410\n      jumpi\n        /* \"#utility.yul\":885:903   */\n      tag_410\n      tag_394\n      jump\t// in\n    tag_410:\n      pop\n        /* \"#utility.yul\":930:931   */\n      0x05\n        /* \"#utility.yul\":926:940   */\n      shl\n        /* \"#utility.yul\":942:946   */\n      0x20\n        /* \"#utility.yul\":922:947   */\n      add\n      swap1\n        /* \"#utility.yul\":770:953   */\n      jump\t// out\n        /* \"#utility.yul\":958:1984   */\n    tag_33:\n        /* \"#utility.yul\":1051:1057   */\n      0x00\n        /* \"#utility.yul\":1059:1065   */\n      dup1\n        /* \"#utility.yul\":1112:1114   */\n      0x40\n        /* \"#utility.yul\":1100:1109   */\n      dup4\n        /* \"#utility.yul\":1091:1098   */\n      dup6\n        /* \"#utility.yul\":1087:1110   */\n      sub\n        /* \"#utility.yul\":1083:1115   */\n      slt\n        /* \"#utility.yul\":1080:1132   */\n      iszero\n      tag_412\n      jumpi\n        /* \"#utility.yul\":1128:1129   */\n      0x00\n        /* \"#utility.yul\":1125:1126   */\n      dup1\n        /* \"#utility.yul\":1118:1130   */\n      revert\n        /* \"#utility.yul\":1080:1132   */\n    tag_412:\n        /* \"#utility.yul\":1167:1176   */\n      dup3\n        /* \"#utility.yul\":1154:1177   */\n      calldataload\n        /* \"#utility.yul\":1186:1217   */\n      tag_413\n        /* \"#utility.yul\":1211:1216   */\n      dup2\n        /* \"#utility.yul\":1186:1217   */\n      tag_393\n      jump\t// in\n    tag_413:\n        /* \"#utility.yul\":1236:1241   */\n      swap2\n      pop\n        /* \"#utility.yul\":1260:1262   */\n      0x20\n        /* \"#utility.yul\":1298:1316   */\n      dup4\n      dup2\n      add\n        /* \"#utility.yul\":1285:1317   */\n      calldataload\n        /* \"#utility.yul\":1340:1358   */\n      0xffffffffffffffff\n        /* \"#utility.yul\":1329:1359   */\n      dup2\n      gt\n        /* \"#utility.yul\":1326:1376   */\n      iszero\n      tag_414\n      jumpi\n        /* \"#utility.yul\":1372:1373   */\n      0x00\n        /* \"#utility.yul\":1369:1370   */\n      dup1\n        /* \"#utility.yul\":1362:1374   */\n      revert\n        /* \"#utility.yul\":1326:1376   */\n    tag_414:\n        /* \"#utility.yul\":1395:1417   */\n      dup5\n      add\n        /* \"#utility.yul\":1448:1452   */\n      0x1f\n        /* \"#utility.yul\":1440:1453   */\n      dup2\n      add\n        /* \"#utility.yul\":1436:1463   */\n      dup7\n      sgt\n        /* \"#utility.yul\":1426:1481   */\n      tag_415\n      jumpi\n        /* \"#utility.yul\":1477:1478   */\n      0x00\n        /* \"#utility.yul\":1474:1475   */\n      dup1\n        /* \"#utility.yul\":1467:1479   */\n      revert\n        /* \"#utility.yul\":1426:1481   */\n    tag_415:\n        /* \"#utility.yul\":1513:1515   */\n      dup1\n        /* \"#utility.yul\":1500:1516   */\n      calldataload\n        /* \"#utility.yul\":1536:1596   */\n      tag_416\n        /* \"#utility.yul\":1552:1595   */\n      tag_417\n        /* \"#utility.yul\":1592:1594   */\n      dup3\n        /* \"#utility.yul\":1552:1595   */\n      tag_396\n      jump\t// in\n    tag_417:\n        /* \"#utility.yul\":1536:1596   */\n      tag_395\n      jump\t// in\n    tag_416:\n        /* \"#utility.yul\":1630:1645   */\n      dup2\n      dup2\n      mstore\n        /* \"#utility.yul\":1712:1713   */\n      0x05\n        /* \"#utility.yul\":1708:1718   */\n      swap2\n      swap1\n      swap2\n      shl\n        /* \"#utility.yul\":1700:1719   */\n      dup3\n      add\n        /* \"#utility.yul\":1696:1724   */\n      dup4\n      add\n      swap1\n        /* \"#utility.yul\":1661:1673   */\n      dup4\n      dup2\n      add\n      swap1\n        /* \"#utility.yul\":1736:1755   */\n      dup9\n      dup4\n      gt\n        /* \"#utility.yul\":1733:1772   */\n      iszero\n      tag_418\n      jumpi\n        /* \"#utility.yul\":1768:1769   */\n      0x00\n        /* \"#utility.yul\":1765:1766   */\n      dup1\n        /* \"#utility.yul\":1758:1770   */\n      revert\n        /* \"#utility.yul\":1733:1772   */\n    tag_418:\n        /* \"#utility.yul\":1792:1803   */\n      swap3\n      dup5\n      add\n      swap3\n        /* \"#utility.yul\":1812:1954   */\n    tag_419:\n        /* \"#utility.yul\":1828:1834   */\n      dup3\n        /* \"#utility.yul\":1823:1826   */\n      dup5\n        /* \"#utility.yul\":1820:1835   */\n      lt\n        /* \"#utility.yul\":1812:1954   */\n      iszero\n      tag_421\n      jumpi\n        /* \"#utility.yul\":1894:1911   */\n      dup4\n      calldataload\n        /* \"#utility.yul\":1882:1912   */\n      dup3\n      mstore\n        /* \"#utility.yul\":1845:1857   */\n      swap3\n      dup5\n      add\n      swap3\n        /* \"#utility.yul\":1932:1944   */\n      swap1\n      dup5\n      add\n      swap1\n        /* \"#utility.yul\":1812:1954   */\n      jump(tag_419)\n    tag_421:\n        /* \"#utility.yul\":1973:1978   */\n      dup1\n        /* \"#utility.yul\":1963:1978   */\n      swap6\n      pop\n      pop\n      pop\n      pop\n      pop\n      pop\n        /* \"#utility.yul\":958:1984   */\n      swap3\n      pop\n      swap3\n      swap1\n      pop\n      jump\t// out\n        /* \"#utility.yul\":1989:2304   */\n    tag_41:\n        /* \"#utility.yul\":2057:2063   */\n      0x00\n        /* \"#utility.yul\":2065:2071   */\n      dup1\n        /* \"#utility.yul\":2118:2120   */\n      0x40\n        /* \"#utility.yul\":2106:2115   */\n      dup4\n        /* \"#utility.yul\":2097:2104   */\n      dup6\n        /* \"#utility.yul\":2093:2116   */\n      sub\n        /* \"#utility.yul\":2089:2121   */\n      slt\n        /* \"#utility.yul\":2086:2138   */\n      iszero\n      tag_423\n      jumpi\n        /* \"#utility.yul\":2134:2135   */\n      0x00\n        /* \"#utility.yul\":2131:2132   */\n      dup1\n        /* \"#utility.yul\":2124:2136   */\n      revert\n        /* \"#utility.yul\":2086:2138   */\n    tag_423:\n        /* \"#utility.yul\":2173:2182   */\n      dup3\n        /* \"#utility.yul\":2160:2183   */\n      calldataload\n        /* \"#utility.yul\":2192:2223   */\n      tag_424\n        /* \"#utility.yul\":2217:2222   */\n      dup2\n        /* \"#utility.yul\":2192:2223   */\n      tag_393\n      jump\t// in\n    tag_424:\n        /* \"#utility.yul\":2242:2247   */\n      swap5\n        /* \"#utility.yul\":2294:2296   */\n      0x20\n        /* \"#utility.yul\":2279:2297   */\n      swap4\n      swap1\n      swap4\n      add\n        /* \"#utility.yul\":2266:2298   */\n      calldataload\n      swap4\n      pop\n      pop\n      pop\n        /* \"#utility.yul\":1989:2304   */\n      jump\t// out\n        /* \"#utility.yul\":2501:3555   */\n    tag_55:\n        /* \"#utility.yul\":2722:2724   */\n      0x20\n        /* \"#utility.yul\":2774:2795   */\n      dup1\n      dup3\n      mstore\n        /* \"#utility.yul\":2844:2857   */\n      dup3\n      mload\n        /* \"#utility.yul\":2747:2765   */\n      dup3\n      dup3\n      add\n        /* \"#utility.yul\":2866:2888   */\n      dup2\n      swap1\n      mstore\n        /* \"#utility.yul\":2693:2697   */\n      0x00\n      swap2\n        /* \"#utility.yul\":2722:2724   */\n      swap1\n        /* \"#utility.yul\":2907:2909   */\n      0x40\n      swap1\n        /* \"#utility.yul\":2925:2943   */\n      dup2\n      dup6\n      add\n      swap1\n        /* \"#utility.yul\":2966:2981   */\n      dup7\n      dup5\n      add\n        /* \"#utility.yul\":2693:2697   */\n      dup6\n        /* \"#utility.yul\":3009:3529   */\n    tag_427:\n        /* \"#utility.yul\":3023:3029   */\n      dup3\n        /* \"#utility.yul\":3020:3021   */\n      dup2\n        /* \"#utility.yul\":3017:3030   */\n      lt\n        /* \"#utility.yul\":3009:3529   */\n      iszero\n      tag_429\n      jumpi\n        /* \"#utility.yul\":3082:3095   */\n      dup2\n      mload\n        /* \"#utility.yul\":3134:3143   */\n      dup1\n      mload\n        /* \"#utility.yul\":3127:3144   */\n      iszero\n        /* \"#utility.yul\":3120:3145   */\n      iszero\n        /* \"#utility.yul\":3108:3146   */\n      dup6\n      mstore\n        /* \"#utility.yul\":3190:3201   */\n      dup7\n      dup2\n      add\n        /* \"#utility.yul\":3184:3202   */\n      mload\n      sub(shl(0xa0, 0x01), 0x01)\n        /* \"#utility.yul\":3180:3247   */\n      and\n        /* \"#utility.yul\":3166:3178   */\n      dup8\n      dup7\n      add\n        /* \"#utility.yul\":3159:3248   */\n      mstore\n        /* \"#utility.yul\":3292:3303   */\n      dup6\n      dup2\n      add\n        /* \"#utility.yul\":3286:3304   */\n      mload\n        /* \"#utility.yul\":3306:3324   */\n      0xffffffffffffffff\n        /* \"#utility.yul\":3282:3325   */\n      and\n        /* \"#utility.yul\":3268:3280   */\n      dup7\n      dup7\n      add\n        /* \"#utility.yul\":3261:3326   */\n      mstore\n        /* \"#utility.yul\":3349:3353   */\n      0x60\n        /* \"#utility.yul\":3397:3408   */\n      swap1\n      dup2\n      add\n        /* \"#utility.yul\":3391:3409   */\n      mload\n      sub(shl(0x80, 0x01), 0x01)\n        /* \"#utility.yul\":3387:3446   */\n      and\n        /* \"#utility.yul\":3373:3385   */\n      swap1\n      dup6\n      add\n        /* \"#utility.yul\":3366:3447   */\n      mstore\n        /* \"#utility.yul\":3476:3480   */\n      0x80\n        /* \"#utility.yul\":3467:3481   */\n      swap1\n      swap4\n      add\n      swap3\n        /* \"#utility.yul\":3504:3519   */\n      swap1\n      dup6\n      add\n      swap1\n        /* \"#utility.yul\":3045:3046   */\n      0x01\n        /* \"#utility.yul\":3038:3047   */\n      add\n        /* \"#utility.yul\":3009:3529   */\n      jump(tag_427)\n    tag_429:\n      pop\n        /* \"#utility.yul\":3546:3549   */\n      swap2\n      swap8\n        /* \"#utility.yul\":2501:3555   */\n      swap7\n      pop\n      pop\n      pop\n      pop\n      pop\n      pop\n      pop\n      jump\t// out\n        /* \"#utility.yul\":3791:3979   */\n    tag_397:\n        /* \"#utility.yul\":3859:3879   */\n      dup1\n      calldataload\n      sub(shl(0x80, 0x01), 0x01)\n        /* \"#utility.yul\":3908:3954   */\n      dup2\n      and\n        /* \"#utility.yul\":3898:3955   */\n      dup2\n      eq\n        /* \"#utility.yul\":3888:3973   */\n      tag_432\n      jumpi\n        /* \"#utility.yul\":3969:3970   */\n      0x00\n        /* \"#utility.yul\":3966:3967   */\n      dup1\n        /* \"#utility.yul\":3959:3971   */\n      revert\n        /* \"#utility.yul\":3888:3973   */\n    tag_432:\n        /* \"#utility.yul\":3791:3979   */\n      swap2\n      swap1\n      pop\n      jump\t// out\n        /* \"#utility.yul\":3984:5279   */\n    tag_75:\n        /* \"#utility.yul\":4085:4091   */\n      0x00\n        /* \"#utility.yul\":4093:4099   */\n      dup1\n        /* \"#utility.yul\":4101:4107   */\n      0x00\n        /* \"#utility.yul\":4154:4156   */\n      0x60\n        /* \"#utility.yul\":4142:4151   */\n      dup5\n        /* \"#utility.yul\":4133:4140   */\n      dup7\n        /* \"#utility.yul\":4129:4152   */\n      sub\n        /* \"#utility.yul\":4125:4157   */\n      slt\n        /* \"#utility.yul\":4122:4174   */\n      iszero\n      tag_434\n      jumpi\n        /* \"#utility.yul\":4170:4171   */\n      0x00\n        /* \"#utility.yul\":4167:4168   */\n      dup1\n        /* \"#utility.yul\":4160:4172   */\n      revert\n        /* \"#utility.yul\":4122:4174   */\n    tag_434:\n        /* \"#utility.yul\":4209:4218   */\n      dup4\n        /* \"#utility.yul\":4196:4219   */\n      calldataload\n        /* \"#utility.yul\":4228:4259   */\n      tag_435\n        /* \"#utility.yul\":4253:4258   */\n      dup2\n        /* \"#utility.yul\":4228:4259   */\n      tag_393\n      jump\t// in\n    tag_435:\n        /* \"#utility.yul\":4278:4283   */\n      swap3\n      pop\n        /* \"#utility.yul\":4302:4304   */\n      0x20\n        /* \"#utility.yul\":4340:4358   */\n      dup5\n      dup2\n      add\n        /* \"#utility.yul\":4327:4359   */\n      calldataload\n        /* \"#utility.yul\":4378:4396   */\n      0xffffffffffffffff\n        /* \"#utility.yul\":4408:4422   */\n      dup1\n      dup3\n      gt\n        /* \"#utility.yul\":4405:4439   */\n      iszero\n      tag_436\n      jumpi\n        /* \"#utility.yul\":4435:4436   */\n      0x00\n        /* \"#utility.yul\":4432:4433   */\n      dup1\n        /* \"#utility.yul\":4425:4437   */\n      revert\n        /* \"#utility.yul\":4405:4439   */\n    tag_436:\n        /* \"#utility.yul\":4473:4479   */\n      dup2\n        /* \"#utility.yul\":4462:4471   */\n      dup8\n        /* \"#utility.yul\":4458:4480   */\n      add\n        /* \"#utility.yul\":4448:4480   */\n      swap2\n      pop\n        /* \"#utility.yul\":4518:4525   */\n      dup8\n        /* \"#utility.yul\":4511:4515   */\n      0x1f\n        /* \"#utility.yul\":4507:4509   */\n      dup4\n        /* \"#utility.yul\":4503:4516   */\n      add\n        /* \"#utility.yul\":4499:4526   */\n      slt\n        /* \"#utility.yul\":4489:4544   */\n      tag_437\n      jumpi\n        /* \"#utility.yul\":4540:4541   */\n      0x00\n        /* \"#utility.yul\":4537:4538   */\n      dup1\n        /* \"#utility.yul\":4530:4542   */\n      revert\n        /* \"#utility.yul\":4489:4544   */\n    tag_437:\n        /* \"#utility.yul\":4576:4578   */\n      dup2\n        /* \"#utility.yul\":4563:4579   */\n      calldataload\n        /* \"#utility.yul\":4599:4659   */\n      tag_438\n        /* \"#utility.yul\":4615:4658   */\n      tag_417\n        /* \"#utility.yul\":4655:4657   */\n      dup3\n        /* \"#utility.yul\":4615:4658   */\n      tag_396\n      jump\t// in\n        /* \"#utility.yul\":4599:4659   */\n    tag_438:\n        /* \"#utility.yul\":4693:4708   */\n      dup2\n      dup2\n      mstore\n        /* \"#utility.yul\":4775:4776   */\n      0x05\n        /* \"#utility.yul\":4771:4781   */\n      swap2\n      swap1\n      swap2\n      shl\n        /* \"#utility.yul\":4763:4782   */\n      dup4\n      add\n        /* \"#utility.yul\":4759:4787   */\n      dup5\n      add\n      swap1\n        /* \"#utility.yul\":4724:4736   */\n      dup5\n      dup2\n      add\n      swap1\n        /* \"#utility.yul\":4799:4818   */\n      dup11\n      dup4\n      gt\n        /* \"#utility.yul\":4796:4835   */\n      iszero\n      tag_440\n      jumpi\n        /* \"#utility.yul\":4831:4832   */\n      0x00\n        /* \"#utility.yul\":4828:4829   */\n      dup1\n        /* \"#utility.yul\":4821:4833   */\n      revert\n        /* \"#utility.yul\":4796:4835   */\n    tag_440:\n        /* \"#utility.yul\":4855:4866   */\n      swap4\n      dup6\n      add\n      swap4\n        /* \"#utility.yul\":4875:5192   */\n    tag_441:\n        /* \"#utility.yul\":4891:4897   */\n      dup3\n        /* \"#utility.yul\":4886:4889   */\n      dup6\n        /* \"#utility.yul\":4883:4898   */\n      lt\n        /* \"#utility.yul\":4875:5192   */\n      iszero\n      tag_443\n      jumpi\n        /* \"#utility.yul\":4973:4976   */\n      dup5\n        /* \"#utility.yul\":4960:4977   */\n      calldataload\n        /* \"#utility.yul\":5025:5027   */\n      dup5\n        /* \"#utility.yul\":5016:5023   */\n      dup2\n        /* \"#utility.yul\":5012:5028   */\n      and\n        /* \"#utility.yul\":5003:5010   */\n      dup2\n        /* \"#utility.yul\":5000:5029   */\n      eq\n        /* \"#utility.yul\":4990:5117   */\n      tag_444\n      jumpi\n        /* \"#utility.yul\":5071:5072   */\n      0x00\n        /* \"#utility.yul\":5100:5102   */\n      dup1\n        /* \"#utility.yul\":5096:5098   */\n      dup2\n        /* \"#utility.yul\":5089:5103   */\n      revert\n        /* \"#utility.yul\":4990:5117   */\n    tag_444:\n        /* \"#utility.yul\":5130:5150   */\n      dup3\n      mstore\n        /* \"#utility.yul\":4908:4920   */\n      swap4\n      dup6\n      add\n      swap4\n        /* \"#utility.yul\":5170:5182   */\n      swap1\n      dup6\n      add\n      swap1\n        /* \"#utility.yul\":4875:5192   */\n      jump(tag_441)\n    tag_443:\n        /* \"#utility.yul\":5211:5216   */\n      dup1\n        /* \"#utility.yul\":5201:5216   */\n      swap8\n      pop\n      pop\n      pop\n      pop\n      pop\n      pop\n      pop\n        /* \"#utility.yul\":5235:5273   */\n      tag_445\n        /* \"#utility.yul\":5269:5271   */\n      0x40\n        /* \"#utility.yul\":5258:5267   */\n      dup6\n        /* \"#utility.yul\":5254:5272   */\n      add\n        /* \"#utility.yul\":5235:5273   */\n      tag_397\n      jump\t// in\n    tag_445:\n        /* \"#utility.yul\":5225:5273   */\n      swap1\n      pop\n        /* \"#utility.yul\":3984:5279   */\n      swap3\n      pop\n      swap3\n      pop\n      swap3\n      jump\t// out\n        /* \"#utility.yul\":5466:5713   */\n    tag_100:\n        /* \"#utility.yul\":5525:5531   */\n      0x00\n        /* \"#utility.yul\":5578:5580   */\n      0x20\n        /* \"#utility.yul\":5566:5575   */\n      dup3\n        /* \"#utility.yul\":5557:5564   */\n      dup5\n        /* \"#utility.yul\":5553:5576   */\n      sub\n        /* \"#utility.yul\":5549:5581   */\n      slt\n        /* \"#utility.yul\":5546:5598   */\n      iszero\n      tag_448\n      jumpi\n        /* \"#utility.yul\":5594:5595   */\n      0x00\n        /* \"#utility.yul\":5591:5592   */\n      dup1\n        /* \"#utility.yul\":5584:5596   */\n      revert\n        /* \"#utility.yul\":5546:5598   */\n    tag_448:\n        /* \"#utility.yul\":5633:5642   */\n      dup2\n        /* \"#utility.yul\":5620:5643   */\n      calldataload\n        /* \"#utility.yul\":5652:5683   */\n      tag_308\n        /* \"#utility.yul\":5677:5682   */\n      dup2\n        /* \"#utility.yul\":5652:5683   */\n      tag_393\n      jump\t// in\n        /* \"#utility.yul\":6122:6249   */\n    tag_114:\n        /* \"#utility.yul\":6183:6193   */\n      0x4e487b71\n        /* \"#utility.yul\":6178:6181   */\n      0xe0\n        /* \"#utility.yul\":6174:6194   */\n      shl\n        /* \"#utility.yul\":6171:6172   */\n      0x00\n        /* \"#utility.yul\":6164:6195   */\n      mstore\n        /* \"#utility.yul\":6214:6218   */\n      0x32\n        /* \"#utility.yul\":6211:6212   */\n      0x04\n        /* \"#utility.yul\":6204:6219   */\n      mstore\n        /* \"#utility.yul\":6238:6242   */\n      0x24\n        /* \"#utility.yul\":6235:6236   */\n      0x00\n        /* \"#utility.yul\":6228:6243   */\n      revert\n        /* \"#utility.yul\":6254:6381   */\n    tag_398:\n        /* \"#utility.yul\":6315:6325   */\n      0x4e487b71\n        /* \"#utility.yul\":6310:6313   */\n      0xe0\n        /* \"#utility.yul\":6306:6326   */\n      shl\n        /* \"#utility.yul\":6303:6304   */\n      0x00\n        /* \"#utility.yul\":6296:6327   */\n      mstore\n        /* \"#utility.yul\":6346:6350   */\n      0x11\n        /* \"#utility.yul\":6343:6344   */\n      0x04\n        /* \"#utility.yul\":6336:6351   */\n      mstore\n        /* \"#utility.yul\":6370:6374   */\n      0x24\n        /* \"#utility.yul\":6367:6368   */\n      0x00\n        /* \"#utility.yul\":6360:6375   */\n      revert\n        /* \"#utility.yul\":6386:6521   */\n    tag_117:\n        /* \"#utility.yul\":6425:6428   */\n      0x00\n        /* \"#utility.yul\":6446:6463   */\n      0x01\n      dup3\n      add\n        /* \"#utility.yul\":6443:6486   */\n      tag_455\n      jumpi\n        /* \"#utility.yul\":6466:6484   */\n      tag_455\n      tag_398\n      jump\t// in\n    tag_455:\n      pop\n        /* \"#utility.yul\":6513:6514   */\n      0x01\n        /* \"#utility.yul\":6502:6515   */\n      add\n      swap1\n        /* \"#utility.yul\":6386:6521   */\n      jump\t// out\n        /* \"#utility.yul\":6526:6654   */\n    tag_124:\n        /* \"#utility.yul\":6566:6569   */\n      0x00\n        /* \"#utility.yul\":6597:6598   */\n      dup3\n        /* \"#utility.yul\":6593:6599   */\n      not\n        /* \"#utility.yul\":6590:6591   */\n      dup3\n        /* \"#utility.yul\":6587:6600   */\n      gt\n        /* \"#utility.yul\":6584:6623   */\n      iszero\n      tag_458\n      jumpi\n        /* \"#utility.yul\":6603:6621   */\n      tag_458\n      tag_398\n      jump\t// in\n    tag_458:\n      pop\n        /* \"#utility.yul\":6639:6648   */\n      add\n      swap1\n        /* \"#utility.yul\":6526:6654   */\n      jump\t// out\n        /* \"#utility.yul\":6659:6868   */\n    tag_126:\n        /* \"#utility.yul\":6691:6692   */\n      0x00\n        /* \"#utility.yul\":6717:6718   */\n      dup3\n        /* \"#utility.yul\":6707:6839   */\n      tag_460\n      jumpi\n        /* \"#utility.yul\":6761:6771   */\n      0x4e487b71\n        /* \"#utility.yul\":6756:6759   */\n      0xe0\n        /* \"#utility.yul\":6752:6772   */\n      shl\n        /* \"#utility.yul\":6749:6750   */\n      0x00\n        /* \"#utility.yul\":6742:6773   */\n      mstore\n        /* \"#utility.yul\":6796:6800   */\n      0x12\n        /* \"#utility.yul\":6793:6794   */\n      0x04\n        /* \"#utility.yul\":6786:6801   */\n      mstore\n        /* \"#utility.yul\":6824:6828   */\n      0x24\n        /* \"#utility.yul\":6821:6822   */\n      0x00\n        /* \"#utility.yul\":6814:6829   */\n      revert\n        /* \"#utility.yul\":6707:6839   */\n    tag_460:\n      pop\n        /* \"#utility.yul\":6853:6862   */\n      mod\n      swap1\n        /* \"#utility.yul\":6659:6868   */\n      jump\t// out\n        /* \"#utility.yul\":7952:8120   */\n    tag_158:\n        /* \"#utility.yul\":7992:7999   */\n      0x00\n        /* \"#utility.yul\":8058:8059   */\n      dup2\n        /* \"#utility.yul\":8054:8055   */\n      0x00\n        /* \"#utility.yul\":8050:8056   */\n      not\n        /* \"#utility.yul\":8046:8060   */\n      div\n        /* \"#utility.yul\":8043:8044   */\n      dup4\n        /* \"#utility.yul\":8040:8061   */\n      gt\n        /* \"#utility.yul\":8035:8036   */\n      dup3\n        /* \"#utility.yul\":8028:8037   */\n      iszero\n        /* \"#utility.yul\":8021:8038   */\n      iszero\n        /* \"#utility.yul\":8017:8062   */\n      and\n        /* \"#utility.yul\":8014:8085   */\n      iszero\n      tag_466\n      jumpi\n        /* \"#utility.yul\":8065:8083   */\n      tag_466\n      tag_398\n      jump\t// in\n    tag_466:\n      pop\n        /* \"#utility.yul\":8105:8114   */\n      mul\n      swap1\n        /* \"#utility.yul\":7952:8120   */\n      jump\t// out\n        /* \"#utility.yul\":8125:8309   */\n    tag_163:\n        /* \"#utility.yul\":8195:8201   */\n      0x00\n        /* \"#utility.yul\":8248:8250   */\n      0x20\n        /* \"#utility.yul\":8236:8245   */\n      dup3\n        /* \"#utility.yul\":8227:8234   */\n      dup5\n        /* \"#utility.yul\":8223:8246   */\n      sub\n        /* \"#utility.yul\":8219:8251   */\n      slt\n        /* \"#utility.yul\":8216:8268   */\n      iszero\n      tag_468\n      jumpi\n        /* \"#utility.yul\":8264:8265   */\n      0x00\n        /* \"#utility.yul\":8261:8262   */\n      dup1\n        /* \"#utility.yul\":8254:8266   */\n      revert\n        /* \"#utility.yul\":8216:8268   */\n    tag_468:\n      pop\n        /* \"#utility.yul\":8287:8303   */\n      mload\n      swap2\n        /* \"#utility.yul\":8125:8309   */\n      swap1\n      pop\n      jump\t// out\n        /* \"#utility.yul\":9419:9696   */\n    tag_176:\n        /* \"#utility.yul\":9486:9492   */\n      0x00\n        /* \"#utility.yul\":9539:9541   */\n      0x20\n        /* \"#utility.yul\":9527:9536   */\n      dup3\n        /* \"#utility.yul\":9518:9525   */\n      dup5\n        /* \"#utility.yul\":9514:9537   */\n      sub\n        /* \"#utility.yul\":9510:9542   */\n      slt\n        /* \"#utility.yul\":9507:9559   */\n      iszero\n      tag_473\n      jumpi\n        /* \"#utility.yul\":9555:9556   */\n      0x00\n        /* \"#utility.yul\":9552:9553   */\n      dup1\n        /* \"#utility.yul\":9545:9557   */\n      revert\n        /* \"#utility.yul\":9507:9559   */\n    tag_473:\n        /* \"#utility.yul\":9587:9596   */\n      dup2\n        /* \"#utility.yul\":9581:9597   */\n      mload\n        /* \"#utility.yul\":9640:9645   */\n      dup1\n        /* \"#utility.yul\":9633:9646   */\n      iszero\n        /* \"#utility.yul\":9626:9647   */\n      iszero\n        /* \"#utility.yul\":9619:9624   */\n      dup2\n        /* \"#utility.yul\":9616:9648   */\n      eq\n        /* \"#utility.yul\":9606:9666   */\n      tag_308\n      jumpi\n        /* \"#utility.yul\":9662:9663   */\n      0x00\n        /* \"#utility.yul\":9659:9660   */\n      dup1\n        /* \"#utility.yul\":9652:9664   */\n      revert\n        /* \"#utility.yul\":11163:11450   */\n    tag_202:\n        /* \"#utility.yul\":11203:11210   */\n      0x00\n      sub(shl(0x80, 0x01), 0x01)\n        /* \"#utility.yul\":11296:11298   */\n      dup1\n        /* \"#utility.yul\":11293:11294   */\n      dup4\n        /* \"#utility.yul\":11289:11299   */\n      and\n        /* \"#utility.yul\":11326:11328   */\n      dup2\n        /* \"#utility.yul\":11323:11324   */\n      dup6\n        /* \"#utility.yul\":11319:11329   */\n      and\n        /* \"#utility.yul\":11382:11385   */\n      dup2\n        /* \"#utility.yul\":11378:11380   */\n      dup4\n        /* \"#utility.yul\":11374:11386   */\n      div\n        /* \"#utility.yul\":11369:11372   */\n      dup2\n        /* \"#utility.yul\":11366:11387   */\n      gt\n        /* \"#utility.yul\":11359:11362   */\n      dup3\n        /* \"#utility.yul\":11352:11363   */\n      iszero\n        /* \"#utility.yul\":11345:11364   */\n      iszero\n        /* \"#utility.yul\":11341:11388   */\n      and\n        /* \"#utility.yul\":11338:11411   */\n      iszero\n      tag_481\n      jumpi\n        /* \"#utility.yul\":11391:11409   */\n      tag_481\n      tag_398\n      jump\t// in\n    tag_481:\n        /* \"#utility.yul\":11431:11444   */\n      mul\n      swap5\n        /* \"#utility.yul\":11163:11450   */\n      swap4\n      pop\n      pop\n      pop\n      pop\n      jump\t// out\n        /* \"#utility.yul\":11455:11580   */\n    tag_210:\n        /* \"#utility.yul\":11495:11499   */\n      0x00\n        /* \"#utility.yul\":11523:11524   */\n      dup3\n        /* \"#utility.yul\":11520:11521   */\n      dup3\n        /* \"#utility.yul\":11517:11525   */\n      lt\n        /* \"#utility.yul\":11514:11548   */\n      iszero\n      tag_484\n      jumpi\n        /* \"#utility.yul\":11528:11546   */\n      tag_484\n      tag_398\n      jump\t// in\n    tag_484:\n      pop\n        /* \"#utility.yul\":11565:11574   */\n      sub\n      swap1\n        /* \"#utility.yul\":11455:11580   */\n      jump\t// out\n        /* \"#utility.yul\":11585:11712   */\n    tag_219:\n        /* \"#utility.yul\":11646:11656   */\n      0x4e487b71\n        /* \"#utility.yul\":11641:11644   */\n      0xe0\n        /* \"#utility.yul\":11637:11657   */\n      shl\n        /* \"#utility.yul\":11634:11635   */\n      0x00\n        /* \"#utility.yul\":11627:11658   */\n      mstore\n        /* \"#utility.yul\":11677:11681   */\n      0x31\n        /* \"#utility.yul\":11674:11675   */\n      0x04\n        /* \"#utility.yul\":11667:11682   */\n      mstore\n        /* \"#utility.yul\":11701:11705   */\n      0x24\n        /* \"#utility.yul\":11698:11699   */\n      0x00\n        /* \"#utility.yul\":11691:11706   */\n      revert\n        /* \"#utility.yul\":14403:14654   */\n    tag_344:\n        /* \"#utility.yul\":14473:14479   */\n      0x00\n        /* \"#utility.yul\":14526:14528   */\n      0x20\n        /* \"#utility.yul\":14514:14523   */\n      dup3\n        /* \"#utility.yul\":14505:14512   */\n      dup5\n        /* \"#utility.yul\":14501:14524   */\n      sub\n        /* \"#utility.yul\":14497:14529   */\n      slt\n        /* \"#utility.yul\":14494:14546   */\n      iszero\n      tag_494\n      jumpi\n        /* \"#utility.yul\":14542:14543   */\n      0x00\n        /* \"#utility.yul\":14539:14540   */\n      dup1\n        /* \"#utility.yul\":14532:14544   */\n      revert\n        /* \"#utility.yul\":14494:14546   */\n    tag_494:\n        /* \"#utility.yul\":14574:14583   */\n      dup2\n        /* \"#utility.yul\":14568:14584   */\n      mload\n        /* \"#utility.yul\":14593:14624   */\n      tag_308\n        /* \"#utility.yul\":14618:14623   */\n      dup2\n        /* \"#utility.yul\":14593:14624   */\n      tag_393\n      jump\t// in\n\n    auxdata: 0xa2646970667358221220aa818f0f33dd05984e3712b918e0382330f53241723d96a0c79599a695fc096864736f6c634300080d0033\n}\n",
    "bytecode": {
      "linkReferences": {},
      "object": "60e06040523480156200001157600080fd5b5060405162002120380380620021208339810160408190526200003491620000e2565b6000805460ff1916905562000049336200006c565b6001600160a01b0393841660805291831660a05290911660c05260015562000134565b600080546001600160a01b03838116610100818102610100600160a81b0319851617855560405193049190911692909183917f8be0079c531659141344cd1fd0a4f28419497f9722a3daafe3b4186f6b6457e091a35050565b80516001600160a01b0381168114620000dd57600080fd5b919050565b60008060008060808587031215620000f957600080fd5b6200010485620000c5565b93506200011460208601620000c5565b92506200012460408601620000c5565b6060959095015193969295505050565b60805160a05160c051611f7d620001a36000396000818161035f0152818161067f015281816107e401528181610a940152610d0f01526000818161024e01528181610654015281816107af01528181610de101526117ac01526000818161032b0152610cdd0152611f7d6000f3fe6080604052600436106101295760003560e01c806361d027b3116100a55780638da5cb5b116100745780639ff51675116100595780639ff5167514610319578063a756fdd01461034d578063f2fde38b1461038157600080fd5b80638da5cb5b146102d257806399f4b5fc146102f557600080fd5b806361d027b31461023c578063715018a6146102885780637b25a1c11461029d5780638456cb59146102bd57600080fd5b80633ccfd60b116100fc578063410d59cc116100e1578063410d59cc146101e257806357305603146102045780635c975abb1461022457600080fd5b80633ccfd60b146101b85780633f4ba83a146101cd57600080fd5b8063039e05581461012e57806325983e3b146101505780632b3d6c0c14610170578063325a716114610183575b600080fd5b34801561013a57600080fd5b5061014e610149366004611b00565b6103a1565b005b34801561015c57600080fd5b5061014e61016b366004611b99565b6104dc565b61014e61017e366004611b00565b610621565b34801561018f57600080fd5b506101a361019e366004611c44565b6108ce565b60405190151581526020015b60405180910390f35b3480156101c457600080fd5b5061014e610e96565b3480156101d957600080fd5b5061014e610ecb565b3480156101ee57600080fd5b506101f7610edb565b6040516101af9190611c70565b34801561021057600080fd5b5061014e61021f366004611b00565b610f81565b34801561023057600080fd5b5060005460ff166101a3565b34801561024857600080fd5b506102707f000000000000000000000000000000000000000000000000000000000000000081565b6040516001600160a01b0390911681526020016101af565b34801561029457600080fd5b5061014e610f8e565b3480156102a957600080fd5b5061014e6102b8366004611d0e565b610fa0565b3480156102c957600080fd5b5061014e6112c8565b3480156102de57600080fd5b5060005461010090046001600160a01b0316610270565b34801561030157600080fd5b5061030b60015481565b6040519081526020016101af565b34801561032557600080fd5b506102707f000000000000000000000000000000000000000000000000000000000000000081565b34801561035957600080fd5b506102707f000000000000000000000000000000000000000000000000000000000000000081565b34801561038d57600080fd5b5061014e61039c366004611dd8565b6112d8565b6103a9611368565b600280548083111561040e5760405162461bcd60e51b815260206004820152602360248201527f416d6f756e74206c6172676572207468616e2073686f70206974656d206c656e6044820152620cee8d60eb1b60648201526084015b60405180910390fd5b60005b8181101561045e57600083828154811061042d5761042d611df5565b60009182526020909120600290910201805460ff19169115159190911790558061045681611e21565b915050610411565b50600061046a826113c8565b90506000805b858110156104d457836104838285611e3a565b61048d9190611e52565b915060018583815481106104a3576104a3611df5565b60009182526020909120600290910201805460ff1916911515919091179055806104cc81611e21565b915050610470565b505050505050565b6104e4611368565b805160008190036105375760405162461bcd60e51b815260206004820152601e60248201527f4d7573742070617373206174206c65617374206f6e65206974656d20494400006044820152606401610405565b60008060005b838110156104d4576105688686838151811061055b5761055b611df5565b6020026020010151611419565b9093509150826105ba5760405162461bcd60e51b815260206004820152601f60248201527f4f6e65206f6620746865206974656d7320646f6573206e6f74206578697374006044820152606401610405565b6105c38261156c565b61060f5760405162461bcd60e51b815260206004820152601f60248201527f4572726f722072656d6f76696e67206f6e65206f6620746865206974656d73006044820152606401610405565b8061061981611e21565b91505061053d565b6106296116e2565b600061063d82670de0b6b3a7640000611e74565b6040516370a0823160e01b81526001600160a01b037f0000000000000000000000000000000000000000000000000000000000000000811660048301529192507f0000000000000000000000000000000000000000000000000000000000000000909116906370a0823190602401602060405180830381865afa1580156106c8573d6000803e3d6000fd5b505050506040513d601f19601f820116820180604052508101906106ec9190611e93565b81111561073b5760405162461bcd60e51b815260206004820152601860248201527f54726561737572792042616c616e636520546f6f204c6f7700000000000000006044820152606401610405565b816001546107499190611e74565b3410156107985760405162461bcd60e51b815260206004820152601460248201527f557365722042616c616e636520546f6f204c6f770000000000000000000000006044820152606401610405565b6040516323b872dd60e01b81526001600160a01b037f000000000000000000000000000000000000000000000000000000000000000081166004830152336024830152604482018390527f000000000000000000000000000000000000000000000000000000000000000016906323b872dd906064016020604051808303816000875af115801561082d573d6000803e3d6000fd5b505050506040513d601f19601f820116820180604052508101906108519190611eac565b61089d5760405162461bcd60e51b815260206004820152601360248201527f4f5354205472616e73666572204661696c6564000000000000000000000000006044820152606401610405565b604051829033907fb26fd55a4aa6c9145f8d0de3b7f8917d6d8e21cf1c34246096d09fb5266241bf90600090a35050565b60006108d86116e2565b6000806108e58585611419565b91509150816109365760405162461bcd60e51b815260206004820152601860248201527f54686973206974656d20646f6573206e6f7420657869737400000000000000006044820152606401610405565b6002818154811061094957610949611df5565b600091825260209091206002909102015460ff166109a95760405162461bcd60e51b815260206004820152601960248201527f54686973206974656d206973206e6f7420666f722073616c65000000000000006044820152606401610405565b6109b38585611735565b610a255760405162461bcd60e51b815260206004820152602660248201527f54686973206974656d206973206e6f74206f776e65642062792074686520747260448201527f65617375727900000000000000000000000000000000000000000000000000006064820152608401610405565b600060028281548110610a3a57610a3a611df5565b6000918252602090912060016002909202010154610a69906001600160801b0316670de0b6b3a7640000611ece565b6040516370a0823160e01b81523360048201526001600160801b039190911691506001600160a01b037f000000000000000000000000000000000000000000000000000000000000000016906370a0823190602401602060405180830381865afa158015610adb573d6000803e3d6000fd5b505050506040513d601f19601f82011682018060405250810190610aff9190611e93565b811115610b4e5760405162461bcd60e51b815260206004820152601460248201527f557365722042616c616e636520546f6f204c6f770000000000000000000000006044820152606401610405565b60028054610b5e90600190611efd565b81548110610b6e57610b6e611df5565b906000526020600020906002020160028381548110610b8f57610b8f611df5565b6000918252602090912082546002928302909101805460ff909216151560ff1983168117825584546001600160a01b03610100918290041602610100600160a81b031990911674ffffffffffffffffffffffffffffffffffffffffff199093169290921791909117808255835467ffffffffffffffff600160a81b91829004160267ffffffffffffffff60a81b19909116178155600192830154920180546fffffffffffffffffffffffffffffffff19166001600160801b0390931692909217909155805480610c6157610c61611f14565b60008281526020812060026000199093019283020180547fffffff000000000000000000000000000000000000000000000000000000000016815560010180546fffffffffffffffffffffffffffffffff191690559155610cc06117ea565b6040516323b872dd60e01b81523360048201526001600160a01b037f000000000000000000000000000000000000000000000000000000000000000081166024830152604482018590529192507f0000000000000000000000000000000000000000000000000000000000000000909116906323b872dd906064016020604051808303816000875af1158015610d5a573d6000803e3d6000fd5b505050506040513d601f19601f82011682018060405250810190610d7e9190611eac565b610dca5760405162461bcd60e51b815260206004820152601360248201527f4f5354205472616e73666572204661696c6564000000000000000000000000006044820152606401610405565b604051632142170760e11b81526001600160a01b037f000000000000000000000000000000000000000000000000000000000000000081166004830152336024830152604482018890528816906342842e0e90606401600060405180830381600087803b158015610e3a57600080fd5b505af1158015610e4e573d6000803e3d6000fd5b50506040518892506001600160a01b038a16915033907f2114172e14ede64480d6a396d65773782893da59db91a47c82c4fe60c9e1fcf590600090a493505050505b92915050565b610e9e611368565b610ec947610eba6000546001600160a01b036101009091041690565b6001600160a01b0316906118a8565b565b610ed3611368565b610ec96119c6565b60606002805480602002602001604051908101604052809291908181526020016000905b82821015610f785760008481526020908190206040805160808101825260028602909201805460ff81161515845261010081046001600160a01b031684860152600160a81b900467ffffffffffffffff16918301919091526001908101546001600160801b031660608301529083529092019101610eff565b50505050905090565b610f89611368565b600155565b610f96611368565b610ec96000611a18565b610fa8611368565b81516000819003610ffb5760405162461bcd60e51b815260206004820152601e60248201527f4d7573742070617373206174206c65617374206f6e65206974656d20494400006044820152606401610405565b6000805b828110156104d4576110348686838151811061101d5761101d611df5565b602002602001015167ffffffffffffffff16611419565b50915081156110855760405162461bcd60e51b815260206004820152601f60248201527f4f6e65206f6620746865206974656d7320616c726561647920657869737473006044820152606401610405565b6110b28686838151811061109b5761109b611df5565b602002602001015167ffffffffffffffff16611735565b6111245760405162461bcd60e51b815260206004820152602960248201527f4f6e65206f6620746865206974656d73206973206e6f74206f776e656420627960448201527f20747265617375727900000000000000000000000000000000000000000000006064820152608401610405565b61126a8686838151811061113a5761113a611df5565b6020026020010151866040805160808101825260008082526001600160a01b039586166020830190815267ffffffffffffffff9586169383019384526001600160801b039485166060840190815260028054600180820183559482905294517f405787fa12a823e0f2b7631cc41b3ba8828b3321ca811111fa75cd3aa3bb5ace9590910294850180549351965174ffffffffffffffffffffffffffffffffffffffffff19909416911515610100600160a81b0319169190911761010096909916959095029790971767ffffffffffffffff60a81b1916600160a81b91909616029490941790915592517f405787fa12a823e0f2b7631cc41b3ba8828b3321ca811111fa75cd3aa3bb5acf90930180546fffffffffffffffffffffffffffffffff1916939091169290921790915590565b6112b65760405162461bcd60e51b815260206004820152601d60248201527f4572726f7220616464696e67206f6e65206f6620746865206974656d730000006044820152606401610405565b806112c081611e21565b915050610fff565b6112d0611368565b610ec9611a71565b6112e0611368565b6001600160a01b03811661135c5760405162461bcd60e51b815260206004820152602660248201527f4f776e61626c653a206e6577206f776e657220697320746865207a65726f206160448201527f64647265737300000000000000000000000000000000000000000000000000006064820152608401610405565b61136581611a18565b50565b6000546001600160a01b03610100909104163314610ec95760405162461bcd60e51b815260206004820181905260248201527f4f776e61626c653a2063616c6c6572206973206e6f7420746865206f776e65726044820152606401610405565b604080514460208201524291810191909152436060820152336080820152600090819060a00160408051601f19818403018152919052805160209091012090506114128382611e52565b9392505050565b60008060006002805480602002602001604051908101604052809291908181526020016000905b828210156114b95760008481526020908190206040805160808101825260028602909201805460ff81161515845261010081046001600160a01b031684860152600160a81b900467ffffffffffffffff16918301919091526001908101546001600160801b031660608301529083529092019101611440565b5050825192935060009150505b81811015611557578281815181106114e0576114e0611df5565b60200260200101516040015167ffffffffffffffff1686148015611532575082818151811061151157611511611df5565b6020026020010151602001516001600160a01b0316876001600160a01b0316145b1561154557600194509250611565915050565b8061154f81611e21565b9150506114c6565b5060006214684c9350935050505b9250929050565b600280546000919061158090600190611efd565b8154811061159057611590611df5565b9060005260206000209060020201600283815481106115b1576115b1611df5565b6000918252602090912082546002928302909101805460ff909216151560ff1983168117825584546001600160a01b03610100918290041602610100600160a81b031990911674ffffffffffffffffffffffffffffffffffffffffff199093169290921791909117808255835467ffffffffffffffff600160a81b91829004160267ffffffffffffffff60a81b19909116178155600192830154920180546fffffffffffffffffffffffffffffffff19166001600160801b039093169290921790915580548061168357611683611f14565b60008281526020902060026000199092019182020180547fffffff0000000000000000000000000000000000000000000000000000000000168155600190810180546fffffffffffffffffffffffffffffffff19169055915592915050565b60005460ff1615610ec95760405162461bcd60e51b815260206004820152601060248201527f5061757361626c653a20706175736564000000000000000000000000000000006044820152606401610405565b6040516331a9108f60e11b8152600481018290526000906001600160a01b03841690636352211e90602401602060405180830381865afa15801561177d573d6000803e3d6000fd5b505050506040513d601f19601f820116820180604052508101906117a19190611f2a565b6001600160a01b03167f00000000000000000000000000000000000000000000000000000000000000006001600160a01b0316036117e157506001610e90565b50600092915050565b6002805460009190826117fc826113c8565b90506000805b8381101561189c57836118158285611e3a565b61181f9190611e52565b915084828154811061183357611833611df5565b600091825260209091206002909102015460ff1661188a57600185838154811061185f5761185f611df5565b60009182526020909120600290910201805460ff191691151591909117905550600195945050505050565b8061189481611e21565b915050611802565b50600094505050505090565b804710156118f85760405162461bcd60e51b815260206004820152601d60248201527f416464726573733a20696e73756666696369656e742062616c616e63650000006044820152606401610405565b6000826001600160a01b03168260405160006040518083038185875af1925050503d8060008114611945576040519150601f19603f3d011682016040523d82523d6000602084013e61194a565b606091505b50509050806119c15760405162461bcd60e51b815260206004820152603a60248201527f416464726573733a20756e61626c6520746f2073656e642076616c75652c207260448201527f6563697069656e74206d617920686176652072657665727465640000000000006064820152608401610405565b505050565b6119ce611aae565b6000805460ff191690557f5db9ee0a495bf2e6ff9c91a7834c1ba4fdd244a5e8aa4e537bd38aeae4b073aa335b6040516001600160a01b03909116815260200160405180910390a1565b600080546001600160a01b03838116610100818102610100600160a81b0319851617855560405193049190911692909183917f8be0079c531659141344cd1fd0a4f28419497f9722a3daafe3b4186f6b6457e091a35050565b611a796116e2565b6000805460ff191660011790557f62e78cea01bee320cd4e420270b5ea74000d11b0c9f74754ebdbfc544b05a2586119fb3390565b60005460ff16610ec95760405162461bcd60e51b815260206004820152601460248201527f5061757361626c653a206e6f74207061757365640000000000000000000000006044820152606401610405565b600060208284031215611b1257600080fd5b5035919050565b6001600160a01b038116811461136557600080fd5b634e487b7160e01b600052604160045260246000fd5b604051601f8201601f1916810167ffffffffffffffff81118282101715611b6d57611b6d611b2e565b604052919050565b600067ffffffffffffffff821115611b8f57611b8f611b2e565b5060051b60200190565b60008060408385031215611bac57600080fd5b8235611bb781611b19565b915060208381013567ffffffffffffffff811115611bd457600080fd5b8401601f81018613611be557600080fd5b8035611bf8611bf382611b75565b611b44565b81815260059190911b82018301908381019088831115611c1757600080fd5b928401925b82841015611c3557833582529284019290840190611c1c565b80955050505050509250929050565b60008060408385031215611c5757600080fd5b8235611c6281611b19565b946020939093013593505050565b602080825282518282018190526000919060409081850190868401855b82811015611ce5578151805115158552868101516001600160a01b0316878601528581015167ffffffffffffffff16868601526060908101516001600160801b03169085015260809093019290850190600101611c8d565b5091979650505050505050565b80356001600160801b0381168114611d0957600080fd5b919050565b600080600060608486031215611d2357600080fd5b8335611d2e81611b19565b925060208481013567ffffffffffffffff80821115611d4c57600080fd5b818701915087601f830112611d6057600080fd5b8135611d6e611bf382611b75565b81815260059190911b8301840190848101908a831115611d8d57600080fd5b938501935b82851015611dba5784358481168114611dab5760008081fd5b82529385019390850190611d92565b809750505050505050611dcf60408501611cf2565b90509250925092565b600060208284031215611dea57600080fd5b813561141281611b19565b634e487b7160e01b600052603260045260246000fd5b634e487b7160e01b600052601160045260246000fd5b600060018201611e3357611e33611e0b565b5060010190565b60008219821115611e4d57611e4d611e0b565b500190565b600082611e6f57634e487b7160e01b600052601260045260246000fd5b500690565b6000816000190483118215151615611e8e57611e8e611e0b565b500290565b600060208284031215611ea557600080fd5b5051919050565b600060208284031215611ebe57600080fd5b8151801515811461141257600080fd5b60006001600160801b0380831681851681830481118215151615611ef457611ef4611e0b565b02949350505050565b600082821015611f0f57611f0f611e0b565b500390565b634e487b7160e01b600052603160045260246000fd5b600060208284031215611f3c57600080fd5b815161141281611b1956fea2646970667358221220aa818f0f33dd05984e3712b918e0382330f53241723d96a0c79599a695fc096864736f6c634300080d0033",
      "opcodes": "PUSH1 0xE0 PUSH1 0x40 MSTORE CALLVALUE DUP1 ISZERO PUSH3 0x11 JUMPI PUSH1 0x0 DUP1 REVERT JUMPDEST POP PUSH1 0x40 MLOAD PUSH3 0x2120 CODESIZE SUB DUP1 PUSH3 0x2120 DUP4 CODECOPY DUP2 ADD PUSH1 0x40 DUP2 SWAP1 MSTORE PUSH3 0x34 SWAP2 PUSH3 0xE2 JUMP JUMPDEST PUSH1 0x0 DUP1 SLOAD PUSH1 0xFF NOT AND SWAP1 SSTORE PUSH3 0x49 CALLER PUSH3 0x6C JUMP JUMPDEST PUSH1 0x1 PUSH1 0x1 PUSH1 0xA0 SHL SUB SWAP4 DUP5 AND PUSH1 0x80 MSTORE SWAP2 DUP4 AND PUSH1 0xA0 MSTORE SWAP1 SWAP2 AND PUSH1 0xC0 MSTORE PUSH1 0x1 SSTORE PUSH3 0x134 JUMP JUMPDEST PUSH1 0x0 DUP1 SLOAD PUSH1 0x1 PUSH1 0x1 PUSH1 0xA0 SHL SUB DUP4 DUP2 AND PUSH2 0x100 DUP2 DUP2 MUL PUSH2 0x100 PUSH1 0x1 PUSH1 0xA8 SHL SUB NOT DUP6 AND OR DUP6 SSTORE PUSH1 0x40 MLOAD SWAP4 DIV SWAP2 SWAP1 SWAP2 AND SWAP3 SWAP1 SWAP2 DUP4 SWAP2 PUSH32 0x8BE0079C531659141344CD1FD0A4F28419497F9722A3DAAFE3B4186F6B6457E0 SWAP2 LOG3 POP POP JUMP JUMPDEST DUP1 MLOAD PUSH1 0x1 PUSH1 0x1 PUSH1 0xA0 SHL SUB DUP2 AND DUP2 EQ PUSH3 0xDD JUMPI PUSH1 0x0 DUP1 REVERT JUMPDEST SWAP2 SWAP1 POP JUMP JUMPDEST PUSH1 0x0 DUP1 PUSH1 0x0 DUP1 PUSH1 0x80 DUP6 DUP8 SUB SLT ISZERO PUSH3 0xF9 JUMPI PUSH1 0x0 DUP1 REVERT JUMPDEST PUSH3 0x104 DUP6 PUSH3 0xC5 JUMP JUMPDEST SWAP4 POP PUSH3 0x114 PUSH1 0x20 DUP7 ADD PUSH3 0xC5 JUMP JUMPDEST SWAP3 POP PUSH3 0x124 PUSH1 0x40 DUP7 ADD PUSH3 0xC5 JUMP JUMPDEST PUSH1 0x60 SWAP6 SWAP1 SWAP6 ADD MLOAD SWAP4 SWAP7 SWAP3 SWAP6 POP POP POP JUMP JUMPDEST PUSH1 0x80 MLOAD PUSH1 0xA0 MLOAD PUSH1 0xC0 MLOAD PUSH2 0x1F7D PUSH3 0x1A3 PUSH1 0x0 CODECOPY PUSH1 0x0 DUP2 DUP2 PUSH2 0x35F ADD MSTORE DUP2 DUP2 PUSH2 0x67F ADD MSTORE DUP2 DUP2 PUSH2 0x7E4 ADD MSTORE DUP2 DUP2 PUSH2 0xA94 ADD MSTORE PUSH2 0xD0F ADD MSTORE PUSH1 0x0 DUP2 DUP2 PUSH2 0x24E ADD MSTORE DUP2 DUP2 PUSH2 0x654 ADD MSTORE DUP2 DUP2 PUSH2 0x7AF ADD MSTORE DUP2 DUP2 PUSH2 0xDE1 ADD MSTORE PUSH2 0x17AC ADD MSTORE PUSH1 0x0 DUP2 DUP2 PUSH2 0x32B ADD MSTORE PUSH2 0xCDD ADD MSTORE PUSH2 0x1F7D PUSH1 0x0 RETURN INVALID PUSH1 0x80 PUSH1 0x40 MSTORE PUSH1 0x4 CALLDATASIZE LT PUSH2 0x129 JUMPI PUSH1 0x0 CALLDATALOAD PUSH1 0xE0 SHR DUP1 PUSH4 0x61D027B3 GT PUSH2 0xA5 JUMPI DUP1 PUSH4 0x8DA5CB5B GT PUSH2 0x74 JUMPI DUP1 PUSH4 0x9FF51675 GT PUSH2 0x59 JUMPI DUP1 PUSH4 0x9FF51675 EQ PUSH2 0x319 JUMPI DUP1 PUSH4 0xA756FDD0 EQ PUSH2 0x34D JUMPI DUP1 PUSH4 0xF2FDE38B EQ PUSH2 0x381 JUMPI PUSH1 0x0 DUP1 REVERT JUMPDEST DUP1 PUSH4 0x8DA5CB5B EQ PUSH2 0x2D2 JUMPI DUP1 PUSH4 0x99F4B5FC EQ PUSH2 0x2F5 JUMPI PUSH1 0x0 DUP1 REVERT JUMPDEST DUP1 PUSH4 0x61D027B3 EQ PUSH2 0x23C JUMPI DUP1 PUSH4 0x715018A6 EQ PUSH2 0x288 JUMPI DUP1 PUSH4 0x7B25A1C1 EQ PUSH2 0x29D JUMPI DUP1 PUSH4 0x8456CB59 EQ PUSH2 0x2BD JUMPI PUSH1 0x0 DUP1 REVERT JUMPDEST DUP1 PUSH4 0x3CCFD60B GT PUSH2 0xFC JUMPI DUP1 PUSH4 0x410D59CC GT PUSH2 0xE1 JUMPI DUP1 PUSH4 0x410D59CC EQ PUSH2 0x1E2 JUMPI DUP1 PUSH4 0x57305603 EQ PUSH2 0x204 JUMPI DUP1 PUSH4 0x5C975ABB EQ PUSH2 0x224 JUMPI PUSH1 0x0 DUP1 REVERT JUMPDEST DUP1 PUSH4 0x3CCFD60B EQ PUSH2 0x1B8 JUMPI DUP1 PUSH4 0x3F4BA83A EQ PUSH2 0x1CD JUMPI PUSH1 0x0 DUP1 REVERT JUMPDEST DUP1 PUSH4 0x39E0558 EQ PUSH2 0x12E JUMPI DUP1 PUSH4 0x25983E3B EQ PUSH2 0x150 JUMPI DUP1 PUSH4 0x2B3D6C0C EQ PUSH2 0x170 JUMPI DUP1 PUSH4 0x325A7161 EQ PUSH2 0x183 JUMPI JUMPDEST PUSH1 0x0 DUP1 REVERT JUMPDEST CALLVALUE DUP1 ISZERO PUSH2 0x13A JUMPI PUSH1 0x0 DUP1 REVERT JUMPDEST POP PUSH2 0x14E PUSH2 0x149 CALLDATASIZE PUSH1 0x4 PUSH2 0x1B00 JUMP JUMPDEST PUSH2 0x3A1 JUMP JUMPDEST STOP JUMPDEST CALLVALUE DUP1 ISZERO PUSH2 0x15C JUMPI PUSH1 0x0 DUP1 REVERT JUMPDEST POP PUSH2 0x14E PUSH2 0x16B CALLDATASIZE PUSH1 0x4 PUSH2 0x1B99 JUMP JUMPDEST PUSH2 0x4DC JUMP JUMPDEST PUSH2 0x14E PUSH2 0x17E CALLDATASIZE PUSH1 0x4 PUSH2 0x1B00 JUMP JUMPDEST PUSH2 0x621 JUMP JUMPDEST CALLVALUE DUP1 ISZERO PUSH2 0x18F JUMPI PUSH1 0x0 DUP1 REVERT JUMPDEST POP PUSH2 0x1A3 PUSH2 0x19E CALLDATASIZE PUSH1 0x4 PUSH2 0x1C44 JUMP JUMPDEST PUSH2 0x8CE JUMP JUMPDEST PUSH1 0x40 MLOAD SWAP1 ISZERO ISZERO DUP2 MSTORE PUSH1 0x20 ADD JUMPDEST PUSH1 0x40 MLOAD DUP1 SWAP2 SUB SWAP1 RETURN JUMPDEST CALLVALUE DUP1 ISZERO PUSH2 0x1C4 JUMPI PUSH1 0x0 DUP1 REVERT JUMPDEST POP PUSH2 0x14E PUSH2 0xE96 JUMP JUMPDEST CALLVALUE DUP1 ISZERO PUSH2 0x1D9 JUMPI PUSH1 0x0 DUP1 REVERT JUMPDEST POP PUSH2 0x14E PUSH2 0xECB JUMP JUMPDEST CALLVALUE DUP1 ISZERO PUSH2 0x1EE JUMPI PUSH1 0x0 DUP1 REVERT JUMPDEST POP PUSH2 0x1F7 PUSH2 0xEDB JUMP JUMPDEST PUSH1 0x40 MLOAD PUSH2 0x1AF SWAP2 SWAP1 PUSH2 0x1C70 JUMP JUMPDEST CALLVALUE DUP1 ISZERO PUSH2 0x210 JUMPI PUSH1 0x0 DUP1 REVERT JUMPDEST POP PUSH2 0x14E PUSH2 0x21F CALLDATASIZE PUSH1 0x4 PUSH2 0x1B00 JUMP JUMPDEST PUSH2 0xF81 JUMP JUMPDEST CALLVALUE DUP1 ISZERO PUSH2 0x230 JUMPI PUSH1 0x0 DUP1 REVERT JUMPDEST POP PUSH1 0x0 SLOAD PUSH1 0xFF AND PUSH2 0x1A3 JUMP JUMPDEST CALLVALUE DUP1 ISZERO PUSH2 0x248 JUMPI PUSH1 0x0 DUP1 REVERT JUMPDEST POP PUSH2 0x270 PUSH32 0x0 DUP2 JUMP JUMPDEST PUSH1 0x40 MLOAD PUSH1 0x1 PUSH1 0x1 PUSH1 0xA0 SHL SUB SWAP1 SWAP2 AND DUP2 MSTORE PUSH1 0x20 ADD PUSH2 0x1AF JUMP JUMPDEST CALLVALUE DUP1 ISZERO PUSH2 0x294 JUMPI PUSH1 0x0 DUP1 REVERT JUMPDEST POP PUSH2 0x14E PUSH2 0xF8E JUMP JUMPDEST CALLVALUE DUP1 ISZERO PUSH2 0x2A9 JUMPI PUSH1 0x0 DUP1 REVERT JUMPDEST POP PUSH2 0x14E PUSH2 0x2B8 CALLDATASIZE PUSH1 0x4 PUSH2 0x1D0E JUMP JUMPDEST PUSH2 0xFA0 JUMP JUMPDEST CALLVALUE DUP1 ISZERO PUSH2 0x2C9 JUMPI PUSH1 0x0 DUP1 REVERT JUMPDEST POP PUSH2 0x14E PUSH2 0x12C8 JUMP JUMPDEST CALLVALUE DUP1 ISZERO PUSH2 0x2DE JUMPI PUSH1 0x0 DUP1 REVERT JUMPDEST POP PUSH1 0x0 SLOAD PUSH2 0x100 SWAP1 DIV PUSH1 0x1 PUSH1 0x1 PUSH1 0xA0 SHL SUB AND PUSH2 0x270 JUMP JUMPDEST CALLVALUE DUP1 ISZERO PUSH2 0x301 JUMPI PUSH1 0x0 DUP1 REVERT JUMPDEST POP PUSH2 0x30B PUSH1 0x1 SLOAD DUP2 JUMP JUMPDEST PUSH1 0x40 MLOAD SWAP1 DUP2 MSTORE PUSH1 0x20 ADD PUSH2 0x1AF JUMP JUMPDEST CALLVALUE DUP1 ISZERO PUSH2 0x325 JUMPI PUSH1 0x0 DUP1 REVERT JUMPDEST POP PUSH2 0x270 PUSH32 0x0 DUP2 JUMP JUMPDEST CALLVALUE DUP1 ISZERO PUSH2 0x359 JUMPI PUSH1 0x0 DUP1 REVERT JUMPDEST POP PUSH2 0x270 PUSH32 0x0 DUP2 JUMP JUMPDEST CALLVALUE DUP1 ISZERO PUSH2 0x38D JUMPI PUSH1 0x0 DUP1 REVERT JUMPDEST POP PUSH2 0x14E PUSH2 0x39C CALLDATASIZE PUSH1 0x4 PUSH2 0x1DD8 JUMP JUMPDEST PUSH2 0x12D8 JUMP JUMPDEST PUSH2 0x3A9 PUSH2 0x1368 JUMP JUMPDEST PUSH1 0x2 DUP1 SLOAD DUP1 DUP4 GT ISZERO PUSH2 0x40E JUMPI PUSH1 0x40 MLOAD PUSH3 0x461BCD PUSH1 0xE5 SHL DUP2 MSTORE PUSH1 0x20 PUSH1 0x4 DUP3 ADD MSTORE PUSH1 0x23 PUSH1 0x24 DUP3 ADD MSTORE PUSH32 0x416D6F756E74206C6172676572207468616E2073686F70206974656D206C656E PUSH1 0x44 DUP3 ADD MSTORE PUSH3 0xCEE8D PUSH1 0xEB SHL PUSH1 0x64 DUP3 ADD MSTORE PUSH1 0x84 ADD JUMPDEST PUSH1 0x40 MLOAD DUP1 SWAP2 SUB SWAP1 REVERT JUMPDEST PUSH1 0x0 JUMPDEST DUP2 DUP2 LT ISZERO PUSH2 0x45E JUMPI PUSH1 0x0 DUP4 DUP3 DUP2 SLOAD DUP2 LT PUSH2 0x42D JUMPI PUSH2 0x42D PUSH2 0x1DF5 JUMP JUMPDEST PUSH1 0x0 SWAP2 DUP3 MSTORE PUSH1 0x20 SWAP1 SWAP2 KECCAK256 PUSH1 0x2 SWAP1 SWAP2 MUL ADD DUP1 SLOAD PUSH1 0xFF NOT AND SWAP2 ISZERO ISZERO SWAP2 SWAP1 SWAP2 OR SWAP1 SSTORE DUP1 PUSH2 0x456 DUP2 PUSH2 0x1E21 JUMP JUMPDEST SWAP2 POP POP PUSH2 0x411 JUMP JUMPDEST POP PUSH1 0x0 PUSH2 0x46A DUP3 PUSH2 0x13C8 JUMP JUMPDEST SWAP1 POP PUSH1 0x0 DUP1 JUMPDEST DUP6 DUP2 LT ISZERO PUSH2 0x4D4 JUMPI DUP4 PUSH2 0x483 DUP3 DUP6 PUSH2 0x1E3A JUMP JUMPDEST PUSH2 0x48D SWAP2 SWAP1 PUSH2 0x1E52 JUMP JUMPDEST SWAP2 POP PUSH1 0x1 DUP6 DUP4 DUP2 SLOAD DUP2 LT PUSH2 0x4A3 JUMPI PUSH2 0x4A3 PUSH2 0x1DF5 JUMP JUMPDEST PUSH1 0x0 SWAP2 DUP3 MSTORE PUSH1 0x20 SWAP1 SWAP2 KECCAK256 PUSH1 0x2 SWAP1 SWAP2 MUL ADD DUP1 SLOAD PUSH1 0xFF NOT AND SWAP2 ISZERO ISZERO SWAP2 SWAP1 SWAP2 OR SWAP1 SSTORE DUP1 PUSH2 0x4CC DUP2 PUSH2 0x1E21 JUMP JUMPDEST SWAP2 POP POP PUSH2 0x470 JUMP JUMPDEST POP POP POP POP POP POP JUMP JUMPDEST PUSH2 0x4E4 PUSH2 0x1368 JUMP JUMPDEST DUP1 MLOAD PUSH1 0x0 DUP2 SWAP1 SUB PUSH2 0x537 JUMPI PUSH1 0x40 MLOAD PUSH3 0x461BCD PUSH1 0xE5 SHL DUP2 MSTORE PUSH1 0x20 PUSH1 0x4 DUP3 ADD MSTORE PUSH1 0x1E PUSH1 0x24 DUP3 ADD MSTORE PUSH32 0x4D7573742070617373206174206C65617374206F6E65206974656D2049440000 PUSH1 0x44 DUP3 ADD MSTORE PUSH1 0x64 ADD PUSH2 0x405 JUMP JUMPDEST PUSH1 0x0 DUP1 PUSH1 0x0 JUMPDEST DUP4 DUP2 LT ISZERO PUSH2 0x4D4 JUMPI PUSH2 0x568 DUP7 DUP7 DUP4 DUP2 MLOAD DUP2 LT PUSH2 0x55B JUMPI PUSH2 0x55B PUSH2 0x1DF5 JUMP JUMPDEST PUSH1 0x20 MUL PUSH1 0x20 ADD ADD MLOAD PUSH2 0x1419 JUMP JUMPDEST SWAP1 SWAP4 POP SWAP2 POP DUP3 PUSH2 0x5BA JUMPI PUSH1 0x40 MLOAD PUSH3 0x461BCD PUSH1 0xE5 SHL DUP2 MSTORE PUSH1 0x20 PUSH1 0x4 DUP3 ADD MSTORE PUSH1 0x1F PUSH1 0x24 DUP3 ADD MSTORE PUSH32 0x4F6E65206F6620746865206974656D7320646F6573206E6F7420657869737400 PUSH1 0x44 DUP3 ADD MSTORE PUSH1 0x64 ADD PUSH2 0x405 JUMP JUMPDEST PUSH2 0x5C3 DUP3 PUSH2 0x156C JUMP JUMPDEST PUSH2 0x60F JUMPI PUSH1 0x40 MLOAD PUSH3 0x461BCD PUSH1 0xE5 SHL DUP2 MSTORE PUSH1 0x20 PUSH1 0x4 DUP3 ADD MSTORE PUSH1 0x1F PUSH1 0x24 DUP3 ADD MSTORE PUSH32 0x4572726F722072656D6F76696E67206F6E65206F6620746865206974656D7300 PUSH1 0x44 DUP3 ADD MSTORE PUSH1 0x64 ADD PUSH2 0x405 JUMP JUMPDEST DUP1 PUSH2 0x619 DUP2 PUSH2 0x1E21 JUMP JUMPDEST SWAP2 POP POP PUSH2 0x53D JUMP JUMPDEST PUSH2 0x629 PUSH2 0x16E2 JUMP JUMPDEST PUSH1 0x0 PUSH2 0x63D DUP3 PUSH8 0xDE0B6B3A7640000 PUSH2 0x1E74 JUMP JUMPDEST PUSH1 0x40 MLOAD PUSH4 0x70A08231 PUSH1 0xE0 SHL DUP2 MSTORE PUSH1 0x1 PUSH1 0x1 PUSH1 0xA0 SHL SUB PUSH32 0x0 DUP2 AND PUSH1 0x4 DUP4 ADD MSTORE SWAP2 SWAP3 POP PUSH32 0x0 SWAP1 SWAP2 AND SWAP1 PUSH4 0x70A08231 SWAP1 PUSH1 0x24 ADD PUSH1 0x20 PUSH1 0x40 MLOAD DUP1 DUP4 SUB DUP2 DUP7 GAS STATICCALL ISZERO DUP1 ISZERO PUSH2 0x6C8 JUMPI RETURNDATASIZE PUSH1 0x0 DUP1 RETURNDATACOPY RETURNDATASIZE PUSH1 0x0 REVERT JUMPDEST POP POP POP POP PUSH1 0x40 MLOAD RETURNDATASIZE PUSH1 0x1F NOT PUSH1 0x1F DUP3 ADD AND DUP3 ADD DUP1 PUSH1 0x40 MSTORE POP DUP2 ADD SWAP1 PUSH2 0x6EC SWAP2 SWAP1 PUSH2 0x1E93 JUMP JUMPDEST DUP2 GT ISZERO PUSH2 0x73B JUMPI PUSH1 0x40 MLOAD PUSH3 0x461BCD PUSH1 0xE5 SHL DUP2 MSTORE PUSH1 0x20 PUSH1 0x4 DUP3 ADD MSTORE PUSH1 0x18 PUSH1 0x24 DUP3 ADD MSTORE PUSH32 0x54726561737572792042616C616E636520546F6F204C6F770000000000000000 PUSH1 0x44 DUP3 ADD MSTORE PUSH1 0x64 ADD PUSH2 0x405 JUMP JUMPDEST DUP2 PUSH1 0x1 SLOAD PUSH2 0x749 SWAP2 SWAP1 PUSH2 0x1E74 JUMP JUMPDEST CALLVALUE LT ISZERO PUSH2 0x798 JUMPI PUSH1 0x40 MLOAD PUSH3 0x461BCD PUSH1 0xE5 SHL DUP2 MSTORE PUSH1 0x20 PUSH1 0x4 DUP3 ADD MSTORE PUSH1 0x14 PUSH1 0x24 DUP3 ADD MSTORE PUSH32 0x557365722042616C616E636520546F6F204C6F77000000000000000000000000 PUSH1 0x44 DUP3 ADD MSTORE PUSH1 0x64 ADD PUSH2 0x405 JUMP JUMPDEST PUSH1 0x40 MLOAD PUSH4 0x23B872DD PUSH1 0xE0 SHL DUP2 MSTORE PUSH1 0x1 PUSH1 0x1 PUSH1 0xA0 SHL SUB PUSH32 0x0 DUP2 AND PUSH1 0x4 DUP4 ADD MSTORE CALLER PUSH1 0x24 DUP4 ADD MSTORE PUSH1 0x44 DUP3 ADD DUP4 SWAP1 MSTORE PUSH32 0x0 AND SWAP1 PUSH4 0x23B872DD SWAP1 PUSH1 0x64 ADD PUSH1 0x20 PUSH1 0x40 MLOAD DUP1 DUP4 SUB DUP2 PUSH1 0x0 DUP8 GAS CALL ISZERO DUP1 ISZERO PUSH2 0x82D JUMPI RETURNDATASIZE PUSH1 0x0 DUP1 RETURNDATACOPY RETURNDATASIZE PUSH1 0x0 REVERT JUMPDEST POP POP POP POP PUSH1 0x40 MLOAD RETURNDATASIZE PUSH1 0x1F NOT PUSH1 0x1F DUP3 ADD AND DUP3 ADD DUP1 PUSH1 0x40 MSTORE POP DUP2 ADD SWAP1 PUSH2 0x851 SWAP2 SWAP1 PUSH2 0x1EAC JUMP JUMPDEST PUSH2 0x89D JUMPI PUSH1 0x40 MLOAD PUSH3 0x461BCD PUSH1 0xE5 SHL DUP2 MSTORE PUSH1 0x20 PUSH1 0x4 DUP3 ADD MSTORE PUSH1 0x13 PUSH1 0x24 DUP3 ADD MSTORE PUSH32 0x4F5354205472616E73666572204661696C656400000000000000000000000000 PUSH1 0x44 DUP3 ADD MSTORE PUSH1 0x64 ADD PUSH2 0x405 JUMP JUMPDEST PUSH1 0x40 MLOAD DUP3 SWAP1 CALLER SWAP1 PUSH32 0xB26FD55A4AA6C9145F8D0DE3B7F8917D6D8E21CF1C34246096D09FB5266241BF SWAP1 PUSH1 0x0 SWAP1 LOG3 POP POP JUMP JUMPDEST PUSH1 0x0 PUSH2 0x8D8 PUSH2 0x16E2 JUMP JUMPDEST PUSH1 0x0 DUP1 PUSH2 0x8E5 DUP6 DUP6 PUSH2 0x1419 JUMP JUMPDEST SWAP2 POP SWAP2 POP DUP2 PUSH2 0x936 JUMPI PUSH1 0x40 MLOAD PUSH3 0x461BCD PUSH1 0xE5 SHL DUP2 MSTORE PUSH1 0x20 PUSH1 0x4 DUP3 ADD MSTORE PUSH1 0x18 PUSH1 0x24 DUP3 ADD MSTORE PUSH32 0x54686973206974656D20646F6573206E6F742065786973740000000000000000 PUSH1 0x44 DUP3 ADD MSTORE PUSH1 0x64 ADD PUSH2 0x405 JUMP JUMPDEST PUSH1 0x2 DUP2 DUP2 SLOAD DUP2 LT PUSH2 0x949 JUMPI PUSH2 0x949 PUSH2 0x1DF5 JUMP JUMPDEST PUSH1 0x0 SWAP2 DUP3 MSTORE PUSH1 0x20 SWAP1 SWAP2 KECCAK256 PUSH1 0x2 SWAP1 SWAP2 MUL ADD SLOAD PUSH1 0xFF AND PUSH2 0x9A9 JUMPI PUSH1 0x40 MLOAD PUSH3 0x461BCD PUSH1 0xE5 SHL DUP2 MSTORE PUSH1 0x20 PUSH1 0x4 DUP3 ADD MSTORE PUSH1 0x19 PUSH1 0x24 DUP3 ADD MSTORE PUSH32 0x54686973206974656D206973206E6F7420666F722073616C6500000000000000 PUSH1 0x44 DUP3 ADD MSTORE PUSH1 0x64 ADD PUSH2 0x405 JUMP JUMPDEST PUSH2 0x9B3 DUP6 DUP6 PUSH2 0x1735 JUMP JUMPDEST PUSH2 0xA25 JUMPI PUSH1 0x40 MLOAD PUSH3 0x461BCD PUSH1 0xE5 SHL DUP2 MSTORE PUSH1 0x20 PUSH1 0x4 DUP3 ADD MSTORE PUSH1 0x26 PUSH1 0x24 DUP3 ADD MSTORE PUSH32 0x54686973206974656D206973206E6F74206F776E656420627920746865207472 PUSH1 0x44 DUP3 ADD MSTORE PUSH32 0x6561737572790000000000000000000000000000000000000000000000000000 PUSH1 0x64 DUP3 ADD MSTORE PUSH1 0x84 ADD PUSH2 0x405 JUMP JUMPDEST PUSH1 0x0 PUSH1 0x2 DUP3 DUP2 SLOAD DUP2 LT PUSH2 0xA3A JUMPI PUSH2 0xA3A PUSH2 0x1DF5 JUMP JUMPDEST PUSH1 0x0 SWAP2 DUP3 MSTORE PUSH1 0x20 SWAP1 SWAP2 KECCAK256 PUSH1 0x1 PUSH1 0x2 SWAP1 SWAP3 MUL ADD ADD SLOAD PUSH2 0xA69 SWAP1 PUSH1 0x1 PUSH1 0x1 PUSH1 0x80 SHL SUB AND PUSH8 0xDE0B6B3A7640000 PUSH2 0x1ECE JUMP JUMPDEST PUSH1 0x40 MLOAD PUSH4 0x70A08231 PUSH1 0xE0 SHL DUP2 MSTORE CALLER PUSH1 0x4 DUP3 ADD MSTORE PUSH1 0x1 PUSH1 0x1 PUSH1 0x80 SHL SUB SWAP2 SWAP1 SWAP2 AND SWAP2 POP PUSH1 0x1 PUSH1 0x1 PUSH1 0xA0 SHL SUB PUSH32 0x0 AND SWAP1 PUSH4 0x70A08231 SWAP1 PUSH1 0x24 ADD PUSH1 0x20 PUSH1 0x40 MLOAD DUP1 DUP4 SUB DUP2 DUP7 GAS STATICCALL ISZERO DUP1 ISZERO PUSH2 0xADB JUMPI RETURNDATASIZE PUSH1 0x0 DUP1 RETURNDATACOPY RETURNDATASIZE PUSH1 0x0 REVERT JUMPDEST POP POP POP POP PUSH1 0x40 MLOAD RETURNDATASIZE PUSH1 0x1F NOT PUSH1 0x1F DUP3 ADD AND DUP3 ADD DUP1 PUSH1 0x40 MSTORE POP DUP2 ADD SWAP1 PUSH2 0xAFF SWAP2 SWAP1 PUSH2 0x1E93 JUMP JUMPDEST DUP2 GT ISZERO PUSH2 0xB4E JUMPI PUSH1 0x40 MLOAD PUSH3 0x461BCD PUSH1 0xE5 SHL DUP2 MSTORE PUSH1 0x20 PUSH1 0x4 DUP3 ADD MSTORE PUSH1 0x14 PUSH1 0x24 DUP3 ADD MSTORE PUSH32 0x557365722042616C616E636520546F6F204C6F77000000000000000000000000 PUSH1 0x44 DUP3 ADD MSTORE PUSH1 0x64 ADD PUSH2 0x405 JUMP JUMPDEST PUSH1 0x2 DUP1 SLOAD PUSH2 0xB5E SWAP1 PUSH1 0x1 SWAP1 PUSH2 0x1EFD JUMP JUMPDEST DUP2 SLOAD DUP2 LT PUSH2 0xB6E JUMPI PUSH2 0xB6E PUSH2 0x1DF5 JUMP JUMPDEST SWAP1 PUSH1 0x0 MSTORE PUSH1 0x20 PUSH1 0x0 KECCAK256 SWAP1 PUSH1 0x2 MUL ADD PUSH1 0x2 DUP4 DUP2 SLOAD DUP2 LT PUSH2 0xB8F JUMPI PUSH2 0xB8F PUSH2 0x1DF5 JUMP JUMPDEST PUSH1 0x0 SWAP2 DUP3 MSTORE PUSH1 0x20 SWAP1 SWAP2 KECCAK256 DUP3 SLOAD PUSH1 0x2 SWAP3 DUP4 MUL SWAP1 SWAP2 ADD DUP1 SLOAD PUSH1 0xFF SWAP1 SWAP3 AND ISZERO ISZERO PUSH1 0xFF NOT DUP4 AND DUP2 OR DUP3 SSTORE DUP5 SLOAD PUSH1 0x1 PUSH1 0x1 PUSH1 0xA0 SHL SUB PUSH2 0x100 SWAP2 DUP3 SWAP1 DIV AND MUL PUSH2 0x100 PUSH1 0x1 PUSH1 0xA8 SHL SUB NOT SWAP1 SWAP2 AND PUSH21 0xFFFFFFFFFFFFFFFFFFFFFFFFFFFFFFFFFFFFFFFFFF NOT SWAP1 SWAP4 AND SWAP3 SWAP1 SWAP3 OR SWAP2 SWAP1 SWAP2 OR DUP1 DUP3 SSTORE DUP4 SLOAD PUSH8 0xFFFFFFFFFFFFFFFF PUSH1 0x1 PUSH1 0xA8 SHL SWAP2 DUP3 SWAP1 DIV AND MUL PUSH8 0xFFFFFFFFFFFFFFFF PUSH1 0xA8 SHL NOT SWAP1 SWAP2 AND OR DUP2 SSTORE PUSH1 0x1 SWAP3 DUP4 ADD SLOAD SWAP3 ADD DUP1 SLOAD PUSH16 0xFFFFFFFFFFFFFFFFFFFFFFFFFFFFFFFF NOT AND PUSH1 0x1 PUSH1 0x1 PUSH1 0x80 SHL SUB SWAP1 SWAP4 AND SWAP3 SWAP1 SWAP3 OR SWAP1 SWAP2 SSTORE DUP1 SLOAD DUP1 PUSH2 0xC61 JUMPI PUSH2 0xC61 PUSH2 0x1F14 JUMP JUMPDEST PUSH1 0x0 DUP3 DUP2 MSTORE PUSH1 0x20 DUP2 KECCAK256 PUSH1 0x2 PUSH1 0x0 NOT SWAP1 SWAP4 ADD SWAP3 DUP4 MUL ADD DUP1 SLOAD PUSH32 0xFFFFFF0000000000000000000000000000000000000000000000000000000000 AND DUP2 SSTORE PUSH1 0x1 ADD DUP1 SLOAD PUSH16 0xFFFFFFFFFFFFFFFFFFFFFFFFFFFFFFFF NOT AND SWAP1 SSTORE SWAP2 SSTORE PUSH2 0xCC0 PUSH2 0x17EA JUMP JUMPDEST PUSH1 0x40 MLOAD PUSH4 0x23B872DD PUSH1 0xE0 SHL DUP2 MSTORE CALLER PUSH1 0x4 DUP3 ADD MSTORE PUSH1 0x1 PUSH1 0x1 PUSH1 0xA0 SHL SUB PUSH32 0x0 DUP2 AND PUSH1 0x24 DUP4 ADD MSTORE PUSH1 0x44 DUP3 ADD DUP6 SWAP1 MSTORE SWAP2 SWAP3 POP PUSH32 0x0 SWAP1 SWAP2 AND SWAP1 PUSH4 0x23B872DD SWAP1 PUSH1 0x64 ADD PUSH1 0x20 PUSH1 0x40 MLOAD DUP1 DUP4 SUB DUP2 PUSH1 0x0 DUP8 GAS CALL ISZERO DUP1 ISZERO PUSH2 0xD5A JUMPI RETURNDATASIZE PUSH1 0x0 DUP1 RETURNDATACOPY RETURNDATASIZE PUSH1 0x0 REVERT JUMPDEST POP POP POP POP PUSH1 0x40 MLOAD RETURNDATASIZE PUSH1 0x1F NOT PUSH1 0x1F DUP3 ADD AND DUP3 ADD DUP1 PUSH1 0x40 MSTORE POP DUP2 ADD SWAP1 PUSH2 0xD7E SWAP2 SWAP1 PUSH2 0x1EAC JUMP JUMPDEST PUSH2 0xDCA JUMPI PUSH1 0x40 MLOAD PUSH3 0x461BCD PUSH1 0xE5 SHL DUP2 MSTORE PUSH1 0x20 PUSH1 0x4 DUP3 ADD MSTORE PUSH1 0x13 PUSH1 0x24 DUP3 ADD MSTORE PUSH32 0x4F5354205472616E73666572204661696C656400000000000000000000000000 PUSH1 0x44 DUP3 ADD MSTORE PUSH1 0x64 ADD PUSH2 0x405 JUMP JUMPDEST PUSH1 0x40 MLOAD PUSH4 0x21421707 PUSH1 0xE1 SHL DUP2 MSTORE PUSH1 0x1 PUSH1 0x1 PUSH1 0xA0 SHL SUB PUSH32 0x0 DUP2 AND PUSH1 0x4 DUP4 ADD MSTORE CALLER PUSH1 0x24 DUP4 ADD MSTORE PUSH1 0x44 DUP3 ADD DUP9 SWAP1 MSTORE DUP9 AND SWAP1 PUSH4 0x42842E0E SWAP1 PUSH1 0x64 ADD PUSH1 0x0 PUSH1 0x40 MLOAD DUP1 DUP4 SUB DUP2 PUSH1 0x0 DUP8 DUP1 EXTCODESIZE ISZERO DUP1 ISZERO PUSH2 0xE3A JUMPI PUSH1 0x0 DUP1 REVERT JUMPDEST POP GAS CALL ISZERO DUP1 ISZERO PUSH2 0xE4E JUMPI RETURNDATASIZE PUSH1 0x0 DUP1 RETURNDATACOPY RETURNDATASIZE PUSH1 0x0 REVERT JUMPDEST POP POP PUSH1 0x40 MLOAD DUP9 SWAP3 POP PUSH1 0x1 PUSH1 0x1 PUSH1 0xA0 SHL SUB DUP11 AND SWAP2 POP CALLER SWAP1 PUSH32 0x2114172E14EDE64480D6A396D65773782893DA59DB91A47C82C4FE60C9E1FCF5 SWAP1 PUSH1 0x0 SWAP1 LOG4 SWAP4 POP POP POP POP JUMPDEST SWAP3 SWAP2 POP POP JUMP JUMPDEST PUSH2 0xE9E PUSH2 0x1368 JUMP JUMPDEST PUSH2 0xEC9 SELFBALANCE PUSH2 0xEBA PUSH1 0x0 SLOAD PUSH1 0x1 PUSH1 0x1 PUSH1 0xA0 SHL SUB PUSH2 0x100 SWAP1 SWAP2 DIV AND SWAP1 JUMP JUMPDEST PUSH1 0x1 PUSH1 0x1 PUSH1 0xA0 SHL SUB AND SWAP1 PUSH2 0x18A8 JUMP JUMPDEST JUMP JUMPDEST PUSH2 0xED3 PUSH2 0x1368 JUMP JUMPDEST PUSH2 0xEC9 PUSH2 0x19C6 JUMP JUMPDEST PUSH1 0x60 PUSH1 0x2 DUP1 SLOAD DUP1 PUSH1 0x20 MUL PUSH1 0x20 ADD PUSH1 0x40 MLOAD SWAP1 DUP2 ADD PUSH1 0x40 MSTORE DUP1 SWAP3 SWAP2 SWAP1 DUP2 DUP2 MSTORE PUSH1 0x20 ADD PUSH1 0x0 SWAP1 JUMPDEST DUP3 DUP3 LT ISZERO PUSH2 0xF78 JUMPI PUSH1 0x0 DUP5 DUP2 MSTORE PUSH1 0x20 SWAP1 DUP2 SWAP1 KECCAK256 PUSH1 0x40 DUP1 MLOAD PUSH1 0x80 DUP2 ADD DUP3 MSTORE PUSH1 0x2 DUP7 MUL SWAP1 SWAP3 ADD DUP1 SLOAD PUSH1 0xFF DUP2 AND ISZERO ISZERO DUP5 MSTORE PUSH2 0x100 DUP2 DIV PUSH1 0x1 PUSH1 0x1 PUSH1 0xA0 SHL SUB AND DUP5 DUP7 ADD MSTORE PUSH1 0x1 PUSH1 0xA8 SHL SWAP1 DIV PUSH8 0xFFFFFFFFFFFFFFFF AND SWAP2 DUP4 ADD SWAP2 SWAP1 SWAP2 MSTORE PUSH1 0x1 SWAP1 DUP2 ADD SLOAD PUSH1 0x1 PUSH1 0x1 PUSH1 0x80 SHL SUB AND PUSH1 0x60 DUP4 ADD MSTORE SWAP1 DUP4 MSTORE SWAP1 SWAP3 ADD SWAP2 ADD PUSH2 0xEFF JUMP JUMPDEST POP POP POP POP SWAP1 POP SWAP1 JUMP JUMPDEST PUSH2 0xF89 PUSH2 0x1368 JUMP JUMPDEST PUSH1 0x1 SSTORE JUMP JUMPDEST PUSH2 0xF96 PUSH2 0x1368 JUMP JUMPDEST PUSH2 0xEC9 PUSH1 0x0 PUSH2 0x1A18 JUMP JUMPDEST PUSH2 0xFA8 PUSH2 0x1368 JUMP JUMPDEST DUP2 MLOAD PUSH1 0x0 DUP2 SWAP1 SUB PUSH2 0xFFB JUMPI PUSH1 0x40 MLOAD PUSH3 0x461BCD PUSH1 0xE5 SHL DUP2 MSTORE PUSH1 0x20 PUSH1 0x4 DUP3 ADD MSTORE PUSH1 0x1E PUSH1 0x24 DUP3 ADD MSTORE PUSH32 0x4D7573742070617373206174206C65617374206F6E65206974656D2049440000 PUSH1 0x44 DUP3 ADD MSTORE PUSH1 0x64 ADD PUSH2 0x405 JUMP JUMPDEST PUSH1 0x0 DUP1 JUMPDEST DUP3 DUP2 LT ISZERO PUSH2 0x4D4 JUMPI PUSH2 0x1034 DUP7 DUP7 DUP4 DUP2 MLOAD DUP2 LT PUSH2 0x101D JUMPI PUSH2 0x101D PUSH2 0x1DF5 JUMP JUMPDEST PUSH1 0x20 MUL PUSH1 0x20 ADD ADD MLOAD PUSH8 0xFFFFFFFFFFFFFFFF AND PUSH2 0x1419 JUMP JUMPDEST POP SWAP2 POP DUP2 ISZERO PUSH2 0x1085 JUMPI PUSH1 0x40 MLOAD PUSH3 0x461BCD PUSH1 0xE5 SHL DUP2 MSTORE PUSH1 0x20 PUSH1 0x4 DUP3 ADD MSTORE PUSH1 0x1F PUSH1 0x24 DUP3 ADD MSTORE PUSH32 0x4F6E65206F6620746865206974656D7320616C72656164792065786973747300 PUSH1 0x44 DUP3 ADD MSTORE PUSH1 0x64 ADD PUSH2 0x405 JUMP JUMPDEST PUSH2 0x10B2 DUP7 DUP7 DUP4 DUP2 MLOAD DUP2 LT PUSH2 0x109B JUMPI PUSH2 0x109B PUSH2 0x1DF5 JUMP JUMPDEST PUSH1 0x20 MUL PUSH1 0x20 ADD ADD MLOAD PUSH8 0xFFFFFFFFFFFFFFFF AND PUSH2 0x1735 JUMP JUMPDEST PUSH2 0x1124 JUMPI PUSH1 0x40 MLOAD PUSH3 0x461BCD PUSH1 0xE5 SHL DUP2 MSTORE PUSH1 0x20 PUSH1 0x4 DUP3 ADD MSTORE PUSH1 0x29 PUSH1 0x24 DUP3 ADD MSTORE PUSH32 0x4F6E65206F6620746865206974656D73206973206E6F74206F776E6564206279 PUSH1 0x44 DUP3 ADD MSTORE PUSH32 0x2074726561737572790000000000000000000000000000000000000000000000 PUSH1 0x64 DUP3 ADD MSTORE PUSH1 0x84 ADD PUSH2 0x405 JUMP JUMPDEST PUSH2 0x126A DUP7 DUP7 DUP4 DUP2 MLOAD DUP2 LT PUSH2 0x113A JUMPI PUSH2 0x113A PUSH2 0x1DF5 JUMP JUMPDEST PUSH1 0x20 MUL PUSH1 0x20 ADD ADD MLOAD DUP7 PUSH1 0x40 DUP1 MLOAD PUSH1 0x80 DUP2 ADD DUP3 MSTORE PUSH1 0x0 DUP1 DUP3 MSTORE PUSH1 0x1 PUSH1 0x1 PUSH1 0xA0 SHL SUB SWAP6 DUP7 AND PUSH1 0x20 DUP4 ADD SWAP1 DUP2 MSTORE PUSH8 0xFFFFFFFFFFFFFFFF SWAP6 DUP7 AND SWAP4 DUP4 ADD SWAP4 DUP5 MSTORE PUSH1 0x1 PUSH1 0x1 PUSH1 0x80 SHL SUB SWAP5 DUP6 AND PUSH1 0x60 DUP5 ADD SWAP1 DUP2 MSTORE PUSH1 0x2 DUP1 SLOAD PUSH1 0x1 DUP1 DUP3 ADD DUP4 SSTORE SWAP5 DUP3 SWAP1 MSTORE SWAP5 MLOAD PUSH32 0x405787FA12A823E0F2B7631CC41B3BA8828B3321CA811111FA75CD3AA3BB5ACE SWAP6 SWAP1 SWAP2 MUL SWAP5 DUP6 ADD DUP1 SLOAD SWAP4 MLOAD SWAP7 MLOAD PUSH21 0xFFFFFFFFFFFFFFFFFFFFFFFFFFFFFFFFFFFFFFFFFF NOT SWAP1 SWAP5 AND SWAP2 ISZERO ISZERO PUSH2 0x100 PUSH1 0x1 PUSH1 0xA8 SHL SUB NOT AND SWAP2 SWAP1 SWAP2 OR PUSH2 0x100 SWAP7 SWAP1 SWAP10 AND SWAP6 SWAP1 SWAP6 MUL SWAP8 SWAP1 SWAP8 OR PUSH8 0xFFFFFFFFFFFFFFFF PUSH1 0xA8 SHL NOT AND PUSH1 0x1 PUSH1 0xA8 SHL SWAP2 SWAP1 SWAP7 AND MUL SWAP5 SWAP1 SWAP5 OR SWAP1 SWAP2 SSTORE SWAP3 MLOAD PUSH32 0x405787FA12A823E0F2B7631CC41B3BA8828B3321CA811111FA75CD3AA3BB5ACF SWAP1 SWAP4 ADD DUP1 SLOAD PUSH16 0xFFFFFFFFFFFFFFFFFFFFFFFFFFFFFFFF NOT AND SWAP4 SWAP1 SWAP2 AND SWAP3 SWAP1 SWAP3 OR SWAP1 SWAP2 SSTORE SWAP1 JUMP JUMPDEST PUSH2 0x12B6 JUMPI PUSH1 0x40 MLOAD PUSH3 0x461BCD PUSH1 0xE5 SHL DUP2 MSTORE PUSH1 0x20 PUSH1 0x4 DUP3 ADD MSTORE PUSH1 0x1D PUSH1 0x24 DUP3 ADD MSTORE PUSH32 0x4572726F7220616464696E67206F6E65206F6620746865206974656D73000000 PUSH1 0x44 DUP3 ADD MSTORE PUSH1 0x64 ADD PUSH2 0x405 JUMP JUMPDEST DUP1 PUSH2 0x12C0 DUP2 PUSH2 0x1E21 JUMP JUMPDEST SWAP2 POP POP PUSH2 0xFFF JUMP JUMPDEST PUSH2 0x12D0 PUSH2 0x1368 JUMP JUMPDEST PUSH2 0xEC9 PUSH2 0x1A71 JUMP JUMPDEST PUSH2 0x12E0 PUSH2 0x1368 JUMP JUMPDEST PUSH1 0x1 PUSH1 0x1 PUSH1 0xA0 SHL SUB DUP2 AND PUSH2 0x135C JUMPI PUSH1 0x40 MLOAD PUSH3 0x461BCD PUSH1 0xE5 SHL DUP2 MSTORE PUSH1 0x20 PUSH1 0x4 DUP3 ADD MSTORE PUSH1 0x26 PUSH1 0x24 DUP3 ADD MSTORE PUSH32 0x4F776E61626C653A206E6577206F776E657220697320746865207A65726F2061 PUSH1 0x44 DUP3 ADD MSTORE PUSH32 0x6464726573730000000000000000000000000000000000000000000000000000 PUSH1 0x64 DUP3 ADD MSTORE PUSH1 0x84 ADD PUSH2 0x405 JUMP JUMPDEST PUSH2 0x1365 DUP2 PUSH2 0x1A18 JUMP JUMPDEST POP JUMP JUMPDEST PUSH1 0x0 SLOAD PUSH1 0x1 PUSH1 0x1 PUSH1 0xA0 SHL SUB PUSH2 0x100 SWAP1 SWAP2 DIV AND CALLER EQ PUSH2 0xEC9 JUMPI PUSH1 0x40 MLOAD PUSH3 0x461BCD PUSH1 0xE5 SHL DUP2 MSTORE PUSH1 0x20 PUSH1 0x4 DUP3 ADD DUP2 SWAP1 MSTORE PUSH1 0x24 DUP3 ADD MSTORE PUSH32 0x4F776E61626C653A2063616C6C6572206973206E6F7420746865206F776E6572 PUSH1 0x44 DUP3 ADD MSTORE PUSH1 0x64 ADD PUSH2 0x405 JUMP JUMPDEST PUSH1 0x40 DUP1 MLOAD DIFFICULTY PUSH1 0x20 DUP3 ADD MSTORE TIMESTAMP SWAP2 DUP2 ADD SWAP2 SWAP1 SWAP2 MSTORE NUMBER PUSH1 0x60 DUP3 ADD MSTORE CALLER PUSH1 0x80 DUP3 ADD MSTORE PUSH1 0x0 SWAP1 DUP2 SWAP1 PUSH1 0xA0 ADD PUSH1 0x40 DUP1 MLOAD PUSH1 0x1F NOT DUP2 DUP5 SUB ADD DUP2 MSTORE SWAP2 SWAP1 MSTORE DUP1 MLOAD PUSH1 0x20 SWAP1 SWAP2 ADD KECCAK256 SWAP1 POP PUSH2 0x1412 DUP4 DUP3 PUSH2 0x1E52 JUMP JUMPDEST SWAP4 SWAP3 POP POP POP JUMP JUMPDEST PUSH1 0x0 DUP1 PUSH1 0x0 PUSH1 0x2 DUP1 SLOAD DUP1 PUSH1 0x20 MUL PUSH1 0x20 ADD PUSH1 0x40 MLOAD SWAP1 DUP2 ADD PUSH1 0x40 MSTORE DUP1 SWAP3 SWAP2 SWAP1 DUP2 DUP2 MSTORE PUSH1 0x20 ADD PUSH1 0x0 SWAP1 JUMPDEST DUP3 DUP3 LT ISZERO PUSH2 0x14B9 JUMPI PUSH1 0x0 DUP5 DUP2 MSTORE PUSH1 0x20 SWAP1 DUP2 SWAP1 KECCAK256 PUSH1 0x40 DUP1 MLOAD PUSH1 0x80 DUP2 ADD DUP3 MSTORE PUSH1 0x2 DUP7 MUL SWAP1 SWAP3 ADD DUP1 SLOAD PUSH1 0xFF DUP2 AND ISZERO ISZERO DUP5 MSTORE PUSH2 0x100 DUP2 DIV PUSH1 0x1 PUSH1 0x1 PUSH1 0xA0 SHL SUB AND DUP5 DUP7 ADD MSTORE PUSH1 0x1 PUSH1 0xA8 SHL SWAP1 DIV PUSH8 0xFFFFFFFFFFFFFFFF AND SWAP2 DUP4 ADD SWAP2 SWAP1 SWAP2 MSTORE PUSH1 0x1 SWAP1 DUP2 ADD SLOAD PUSH1 0x1 PUSH1 0x1 PUSH1 0x80 SHL SUB AND PUSH1 0x60 DUP4 ADD MSTORE SWAP1 DUP4 MSTORE SWAP1 SWAP3 ADD SWAP2 ADD PUSH2 0x1440 JUMP JUMPDEST POP POP DUP3 MLOAD SWAP3 SWAP4 POP PUSH1 0x0 SWAP2 POP POP JUMPDEST DUP2 DUP2 LT ISZERO PUSH2 0x1557 JUMPI DUP3 DUP2 DUP2 MLOAD DUP2 LT PUSH2 0x14E0 JUMPI PUSH2 0x14E0 PUSH2 0x1DF5 JUMP JUMPDEST PUSH1 0x20 MUL PUSH1 0x20 ADD ADD MLOAD PUSH1 0x40 ADD MLOAD PUSH8 0xFFFFFFFFFFFFFFFF AND DUP7 EQ DUP1 ISZERO PUSH2 0x1532 JUMPI POP DUP3 DUP2 DUP2 MLOAD DUP2 LT PUSH2 0x1511 JUMPI PUSH2 0x1511 PUSH2 0x1DF5 JUMP JUMPDEST PUSH1 0x20 MUL PUSH1 0x20 ADD ADD MLOAD PUSH1 0x20 ADD MLOAD PUSH1 0x1 PUSH1 0x1 PUSH1 0xA0 SHL SUB AND DUP8 PUSH1 0x1 PUSH1 0x1 PUSH1 0xA0 SHL SUB AND EQ JUMPDEST ISZERO PUSH2 0x1545 JUMPI PUSH1 0x1 SWAP5 POP SWAP3 POP PUSH2 0x1565 SWAP2 POP POP JUMP JUMPDEST DUP1 PUSH2 0x154F DUP2 PUSH2 0x1E21 JUMP JUMPDEST SWAP2 POP POP PUSH2 0x14C6 JUMP JUMPDEST POP PUSH1 0x0 PUSH3 0x14684C SWAP4 POP SWAP4 POP POP POP JUMPDEST SWAP3 POP SWAP3 SWAP1 POP JUMP JUMPDEST PUSH1 0x2 DUP1 SLOAD PUSH1 0x0 SWAP2 SWAP1 PUSH2 0x1580 SWAP1 PUSH1 0x1 SWAP1 PUSH2 0x1EFD JUMP JUMPDEST DUP2 SLOAD DUP2 LT PUSH2 0x1590 JUMPI PUSH2 0x1590 PUSH2 0x1DF5 JUMP JUMPDEST SWAP1 PUSH1 0x0 MSTORE PUSH1 0x20 PUSH1 0x0 KECCAK256 SWAP1 PUSH1 0x2 MUL ADD PUSH1 0x2 DUP4 DUP2 SLOAD DUP2 LT PUSH2 0x15B1 JUMPI PUSH2 0x15B1 PUSH2 0x1DF5 JUMP JUMPDEST PUSH1 0x0 SWAP2 DUP3 MSTORE PUSH1 0x20 SWAP1 SWAP2 KECCAK256 DUP3 SLOAD PUSH1 0x2 SWAP3 DUP4 MUL SWAP1 SWAP2 ADD DUP1 SLOAD PUSH1 0xFF SWAP1 SWAP3 AND ISZERO ISZERO PUSH1 0xFF NOT DUP4 AND DUP2 OR DUP3 SSTORE DUP5 SLOAD PUSH1 0x1 PUSH1 0x1 PUSH1 0xA0 SHL SUB PUSH2 0x100 SWAP2 DUP3 SWAP1 DIV AND MUL PUSH2 0x100 PUSH1 0x1 PUSH1 0xA8 SHL SUB NOT SWAP1 SWAP2 AND PUSH21 0xFFFFFFFFFFFFFFFFFFFFFFFFFFFFFFFFFFFFFFFFFF NOT SWAP1 SWAP4 AND SWAP3 SWAP1 SWAP3 OR SWAP2 SWAP1 SWAP2 OR DUP1 DUP3 SSTORE DUP4 SLOAD PUSH8 0xFFFFFFFFFFFFFFFF PUSH1 0x1 PUSH1 0xA8 SHL SWAP2 DUP3 SWAP1 DIV AND MUL PUSH8 0xFFFFFFFFFFFFFFFF PUSH1 0xA8 SHL NOT SWAP1 SWAP2 AND OR DUP2 SSTORE PUSH1 0x1 SWAP3 DUP4 ADD SLOAD SWAP3 ADD DUP1 SLOAD PUSH16 0xFFFFFFFFFFFFFFFFFFFFFFFFFFFFFFFF NOT AND PUSH1 0x1 PUSH1 0x1 PUSH1 0x80 SHL SUB SWAP1 SWAP4 AND SWAP3 SWAP1 SWAP3 OR SWAP1 SWAP2 SSTORE DUP1 SLOAD DUP1 PUSH2 0x1683 JUMPI PUSH2 0x1683 PUSH2 0x1F14 JUMP JUMPDEST PUSH1 0x0 DUP3 DUP2 MSTORE PUSH1 0x20 SWAP1 KECCAK256 PUSH1 0x2 PUSH1 0x0 NOT SWAP1 SWAP3 ADD SWAP2 DUP3 MUL ADD DUP1 SLOAD PUSH32 0xFFFFFF0000000000000000000000000000000000000000000000000000000000 AND DUP2 SSTORE PUSH1 0x1 SWAP1 DUP2 ADD DUP1 SLOAD PUSH16 0xFFFFFFFFFFFFFFFFFFFFFFFFFFFFFFFF NOT AND SWAP1 SSTORE SWAP2 SSTORE SWAP3 SWAP2 POP POP JUMP JUMPDEST PUSH1 0x0 SLOAD PUSH1 0xFF AND ISZERO PUSH2 0xEC9 JUMPI PUSH1 0x40 MLOAD PUSH3 0x461BCD PUSH1 0xE5 SHL DUP2 MSTORE PUSH1 0x20 PUSH1 0x4 DUP3 ADD MSTORE PUSH1 0x10 PUSH1 0x24 DUP3 ADD MSTORE PUSH32 0x5061757361626C653A2070617573656400000000000000000000000000000000 PUSH1 0x44 DUP3 ADD MSTORE PUSH1 0x64 ADD PUSH2 0x405 JUMP JUMPDEST PUSH1 0x40 MLOAD PUSH4 0x31A9108F PUSH1 0xE1 SHL DUP2 MSTORE PUSH1 0x4 DUP2 ADD DUP3 SWAP1 MSTORE PUSH1 0x0 SWAP1 PUSH1 0x1 PUSH1 0x1 PUSH1 0xA0 SHL SUB DUP5 AND SWAP1 PUSH4 0x6352211E SWAP1 PUSH1 0x24 ADD PUSH1 0x20 PUSH1 0x40 MLOAD DUP1 DUP4 SUB DUP2 DUP7 GAS STATICCALL ISZERO DUP1 ISZERO PUSH2 0x177D JUMPI RETURNDATASIZE PUSH1 0x0 DUP1 RETURNDATACOPY RETURNDATASIZE PUSH1 0x0 REVERT JUMPDEST POP POP POP POP PUSH1 0x40 MLOAD RETURNDATASIZE PUSH1 0x1F NOT PUSH1 0x1F DUP3 ADD AND DUP3 ADD DUP1 PUSH1 0x40 MSTORE POP DUP2 ADD SWAP1 PUSH2 0x17A1 SWAP2 SWAP1 PUSH2 0x1F2A JUMP JUMPDEST PUSH1 0x1 PUSH1 0x1 PUSH1 0xA0 SHL SUB AND PUSH32 0x0 PUSH1 0x1 PUSH1 0x1 PUSH1 0xA0 SHL SUB AND SUB PUSH2 0x17E1 JUMPI POP PUSH1 0x1 PUSH2 0xE90 JUMP JUMPDEST POP PUSH1 0x0 SWAP3 SWAP2 POP POP JUMP JUMPDEST PUSH1 0x2 DUP1 SLOAD PUSH1 0x0 SWAP2 SWAP1 DUP3 PUSH2 0x17FC DUP3 PUSH2 0x13C8 JUMP JUMPDEST SWAP1 POP PUSH1 0x0 DUP1 JUMPDEST DUP4 DUP2 LT ISZERO PUSH2 0x189C JUMPI DUP4 PUSH2 0x1815 DUP3 DUP6 PUSH2 0x1E3A JUMP JUMPDEST PUSH2 0x181F SWAP2 SWAP1 PUSH2 0x1E52 JUMP JUMPDEST SWAP2 POP DUP5 DUP3 DUP2 SLOAD DUP2 LT PUSH2 0x1833 JUMPI PUSH2 0x1833 PUSH2 0x1DF5 JUMP JUMPDEST PUSH1 0x0 SWAP2 DUP3 MSTORE PUSH1 0x20 SWAP1 SWAP2 KECCAK256 PUSH1 0x2 SWAP1 SWAP2 MUL ADD SLOAD PUSH1 0xFF AND PUSH2 0x188A JUMPI PUSH1 0x1 DUP6 DUP4 DUP2 SLOAD DUP2 LT PUSH2 0x185F JUMPI PUSH2 0x185F PUSH2 0x1DF5 JUMP JUMPDEST PUSH1 0x0 SWAP2 DUP3 MSTORE PUSH1 0x20 SWAP1 SWAP2 KECCAK256 PUSH1 0x2 SWAP1 SWAP2 MUL ADD DUP1 SLOAD PUSH1 0xFF NOT AND SWAP2 ISZERO ISZERO SWAP2 SWAP1 SWAP2 OR SWAP1 SSTORE POP PUSH1 0x1 SWAP6 SWAP5 POP POP POP POP POP JUMP JUMPDEST DUP1 PUSH2 0x1894 DUP2 PUSH2 0x1E21 JUMP JUMPDEST SWAP2 POP POP PUSH2 0x1802 JUMP JUMPDEST POP PUSH1 0x0 SWAP5 POP POP POP POP POP SWAP1 JUMP JUMPDEST DUP1 SELFBALANCE LT ISZERO PUSH2 0x18F8 JUMPI PUSH1 0x40 MLOAD PUSH3 0x461BCD PUSH1 0xE5 SHL DUP2 MSTORE PUSH1 0x20 PUSH1 0x4 DUP3 ADD MSTORE PUSH1 0x1D PUSH1 0x24 DUP3 ADD MSTORE PUSH32 0x416464726573733A20696E73756666696369656E742062616C616E6365000000 PUSH1 0x44 DUP3 ADD MSTORE PUSH1 0x64 ADD PUSH2 0x405 JUMP JUMPDEST PUSH1 0x0 DUP3 PUSH1 0x1 PUSH1 0x1 PUSH1 0xA0 SHL SUB AND DUP3 PUSH1 0x40 MLOAD PUSH1 0x0 PUSH1 0x40 MLOAD DUP1 DUP4 SUB DUP2 DUP6 DUP8 GAS CALL SWAP3 POP POP POP RETURNDATASIZE DUP1 PUSH1 0x0 DUP2 EQ PUSH2 0x1945 JUMPI PUSH1 0x40 MLOAD SWAP2 POP PUSH1 0x1F NOT PUSH1 0x3F RETURNDATASIZE ADD AND DUP3 ADD PUSH1 0x40 MSTORE RETURNDATASIZE DUP3 MSTORE RETURNDATASIZE PUSH1 0x0 PUSH1 0x20 DUP5 ADD RETURNDATACOPY PUSH2 0x194A JUMP JUMPDEST PUSH1 0x60 SWAP2 POP JUMPDEST POP POP SWAP1 POP DUP1 PUSH2 0x19C1 JUMPI PUSH1 0x40 MLOAD PUSH3 0x461BCD PUSH1 0xE5 SHL DUP2 MSTORE PUSH1 0x20 PUSH1 0x4 DUP3 ADD MSTORE PUSH1 0x3A PUSH1 0x24 DUP3 ADD MSTORE PUSH32 0x416464726573733A20756E61626C6520746F2073656E642076616C75652C2072 PUSH1 0x44 DUP3 ADD MSTORE PUSH32 0x6563697069656E74206D61792068617665207265766572746564000000000000 PUSH1 0x64 DUP3 ADD MSTORE PUSH1 0x84 ADD PUSH2 0x405 JUMP JUMPDEST POP POP POP JUMP JUMPDEST PUSH2 0x19CE PUSH2 0x1AAE JUMP JUMPDEST PUSH1 0x0 DUP1 SLOAD PUSH1 0xFF NOT AND SWAP1 SSTORE PUSH32 0x5DB9EE0A495BF2E6FF9C91A7834C1BA4FDD244A5E8AA4E537BD38AEAE4B073AA CALLER JUMPDEST PUSH1 0x40 MLOAD PUSH1 0x1 PUSH1 0x1 PUSH1 0xA0 SHL SUB SWAP1 SWAP2 AND DUP2 MSTORE PUSH1 0x20 ADD PUSH1 0x40 MLOAD DUP1 SWAP2 SUB SWAP1 LOG1 JUMP JUMPDEST PUSH1 0x0 DUP1 SLOAD PUSH1 0x1 PUSH1 0x1 PUSH1 0xA0 SHL SUB DUP4 DUP2 AND PUSH2 0x100 DUP2 DUP2 MUL PUSH2 0x100 PUSH1 0x1 PUSH1 0xA8 SHL SUB NOT DUP6 AND OR DUP6 SSTORE PUSH1 0x40 MLOAD SWAP4 DIV SWAP2 SWAP1 SWAP2 AND SWAP3 SWAP1 SWAP2 DUP4 SWAP2 PUSH32 0x8BE0079C531659141344CD1FD0A4F28419497F9722A3DAAFE3B4186F6B6457E0 SWAP2 LOG3 POP POP JUMP JUMPDEST PUSH2 0x1A79 PUSH2 0x16E2 JUMP JUMPDEST PUSH1 0x0 DUP1 SLOAD PUSH1 0xFF NOT AND PUSH1 0x1 OR SWAP1 SSTORE PUSH32 0x62E78CEA01BEE320CD4E420270B5EA74000D11B0C9F74754EBDBFC544B05A258 PUSH2 0x19FB CALLER SWAP1 JUMP JUMPDEST PUSH1 0x0 SLOAD PUSH1 0xFF AND PUSH2 0xEC9 JUMPI PUSH1 0x40 MLOAD PUSH3 0x461BCD PUSH1 0xE5 SHL DUP2 MSTORE PUSH1 0x20 PUSH1 0x4 DUP3 ADD MSTORE PUSH1 0x14 PUSH1 0x24 DUP3 ADD MSTORE PUSH32 0x5061757361626C653A206E6F7420706175736564000000000000000000000000 PUSH1 0x44 DUP3 ADD MSTORE PUSH1 0x64 ADD PUSH2 0x405 JUMP JUMPDEST PUSH1 0x0 PUSH1 0x20 DUP3 DUP5 SUB SLT ISZERO PUSH2 0x1B12 JUMPI PUSH1 0x0 DUP1 REVERT JUMPDEST POP CALLDATALOAD SWAP2 SWAP1 POP JUMP JUMPDEST PUSH1 0x1 PUSH1 0x1 PUSH1 0xA0 SHL SUB DUP2 AND DUP2 EQ PUSH2 0x1365 JUMPI PUSH1 0x0 DUP1 REVERT JUMPDEST PUSH4 0x4E487B71 PUSH1 0xE0 SHL PUSH1 0x0 MSTORE PUSH1 0x41 PUSH1 0x4 MSTORE PUSH1 0x24 PUSH1 0x0 REVERT JUMPDEST PUSH1 0x40 MLOAD PUSH1 0x1F DUP3 ADD PUSH1 0x1F NOT AND DUP2 ADD PUSH8 0xFFFFFFFFFFFFFFFF DUP2 GT DUP3 DUP3 LT OR ISZERO PUSH2 0x1B6D JUMPI PUSH2 0x1B6D PUSH2 0x1B2E JUMP JUMPDEST PUSH1 0x40 MSTORE SWAP2 SWAP1 POP JUMP JUMPDEST PUSH1 0x0 PUSH8 0xFFFFFFFFFFFFFFFF DUP3 GT ISZERO PUSH2 0x1B8F JUMPI PUSH2 0x1B8F PUSH2 0x1B2E JUMP JUMPDEST POP PUSH1 0x5 SHL PUSH1 0x20 ADD SWAP1 JUMP JUMPDEST PUSH1 0x0 DUP1 PUSH1 0x40 DUP4 DUP6 SUB SLT ISZERO PUSH2 0x1BAC JUMPI PUSH1 0x0 DUP1 REVERT JUMPDEST DUP3 CALLDATALOAD PUSH2 0x1BB7 DUP2 PUSH2 0x1B19 JUMP JUMPDEST SWAP2 POP PUSH1 0x20 DUP4 DUP2 ADD CALLDATALOAD PUSH8 0xFFFFFFFFFFFFFFFF DUP2 GT ISZERO PUSH2 0x1BD4 JUMPI PUSH1 0x0 DUP1 REVERT JUMPDEST DUP5 ADD PUSH1 0x1F DUP2 ADD DUP7 SGT PUSH2 0x1BE5 JUMPI PUSH1 0x0 DUP1 REVERT JUMPDEST DUP1 CALLDATALOAD PUSH2 0x1BF8 PUSH2 0x1BF3 DUP3 PUSH2 0x1B75 JUMP JUMPDEST PUSH2 0x1B44 JUMP JUMPDEST DUP2 DUP2 MSTORE PUSH1 0x5 SWAP2 SWAP1 SWAP2 SHL DUP3 ADD DUP4 ADD SWAP1 DUP4 DUP2 ADD SWAP1 DUP9 DUP4 GT ISZERO PUSH2 0x1C17 JUMPI PUSH1 0x0 DUP1 REVERT JUMPDEST SWAP3 DUP5 ADD SWAP3 JUMPDEST DUP3 DUP5 LT ISZERO PUSH2 0x1C35 JUMPI DUP4 CALLDATALOAD DUP3 MSTORE SWAP3 DUP5 ADD SWAP3 SWAP1 DUP5 ADD SWAP1 PUSH2 0x1C1C JUMP JUMPDEST DUP1 SWAP6 POP POP POP POP POP POP SWAP3 POP SWAP3 SWAP1 POP JUMP JUMPDEST PUSH1 0x0 DUP1 PUSH1 0x40 DUP4 DUP6 SUB SLT ISZERO PUSH2 0x1C57 JUMPI PUSH1 0x0 DUP1 REVERT JUMPDEST DUP3 CALLDATALOAD PUSH2 0x1C62 DUP2 PUSH2 0x1B19 JUMP JUMPDEST SWAP5 PUSH1 0x20 SWAP4 SWAP1 SWAP4 ADD CALLDATALOAD SWAP4 POP POP POP JUMP JUMPDEST PUSH1 0x20 DUP1 DUP3 MSTORE DUP3 MLOAD DUP3 DUP3 ADD DUP2 SWAP1 MSTORE PUSH1 0x0 SWAP2 SWAP1 PUSH1 0x40 SWAP1 DUP2 DUP6 ADD SWAP1 DUP7 DUP5 ADD DUP6 JUMPDEST DUP3 DUP2 LT ISZERO PUSH2 0x1CE5 JUMPI DUP2 MLOAD DUP1 MLOAD ISZERO ISZERO DUP6 MSTORE DUP7 DUP2 ADD MLOAD PUSH1 0x1 PUSH1 0x1 PUSH1 0xA0 SHL SUB AND DUP8 DUP7 ADD MSTORE DUP6 DUP2 ADD MLOAD PUSH8 0xFFFFFFFFFFFFFFFF AND DUP7 DUP7 ADD MSTORE PUSH1 0x60 SWAP1 DUP2 ADD MLOAD PUSH1 0x1 PUSH1 0x1 PUSH1 0x80 SHL SUB AND SWAP1 DUP6 ADD MSTORE PUSH1 0x80 SWAP1 SWAP4 ADD SWAP3 SWAP1 DUP6 ADD SWAP1 PUSH1 0x1 ADD PUSH2 0x1C8D JUMP JUMPDEST POP SWAP2 SWAP8 SWAP7 POP POP POP POP POP POP POP JUMP JUMPDEST DUP1 CALLDATALOAD PUSH1 0x1 PUSH1 0x1 PUSH1 0x80 SHL SUB DUP2 AND DUP2 EQ PUSH2 0x1D09 JUMPI PUSH1 0x0 DUP1 REVERT JUMPDEST SWAP2 SWAP1 POP JUMP JUMPDEST PUSH1 0x0 DUP1 PUSH1 0x0 PUSH1 0x60 DUP5 DUP7 SUB SLT ISZERO PUSH2 0x1D23 JUMPI PUSH1 0x0 DUP1 REVERT JUMPDEST DUP4 CALLDATALOAD PUSH2 0x1D2E DUP2 PUSH2 0x1B19 JUMP JUMPDEST SWAP3 POP PUSH1 0x20 DUP5 DUP2 ADD CALLDATALOAD PUSH8 0xFFFFFFFFFFFFFFFF DUP1 DUP3 GT ISZERO PUSH2 0x1D4C JUMPI PUSH1 0x0 DUP1 REVERT JUMPDEST DUP2 DUP8 ADD SWAP2 POP DUP8 PUSH1 0x1F DUP4 ADD SLT PUSH2 0x1D60 JUMPI PUSH1 0x0 DUP1 REVERT JUMPDEST DUP2 CALLDATALOAD PUSH2 0x1D6E PUSH2 0x1BF3 DUP3 PUSH2 0x1B75 JUMP JUMPDEST DUP2 DUP2 MSTORE PUSH1 0x5 SWAP2 SWAP1 SWAP2 SHL DUP4 ADD DUP5 ADD SWAP1 DUP5 DUP2 ADD SWAP1 DUP11 DUP4 GT ISZERO PUSH2 0x1D8D JUMPI PUSH1 0x0 DUP1 REVERT JUMPDEST SWAP4 DUP6 ADD SWAP4 JUMPDEST DUP3 DUP6 LT ISZERO PUSH2 0x1DBA JUMPI DUP5 CALLDATALOAD DUP5 DUP2 AND DUP2 EQ PUSH2 0x1DAB JUMPI PUSH1 0x0 DUP1 DUP2 REVERT JUMPDEST DUP3 MSTORE SWAP4 DUP6 ADD SWAP4 SWAP1 DUP6 ADD SWAP1 PUSH2 0x1D92 JUMP JUMPDEST DUP1 SWAP8 POP POP POP POP POP POP POP PUSH2 0x1DCF PUSH1 0x40 DUP6 ADD PUSH2 0x1CF2 JUMP JUMPDEST SWAP1 POP SWAP3 POP SWAP3 POP SWAP3 JUMP JUMPDEST PUSH1 0x0 PUSH1 0x20 DUP3 DUP5 SUB SLT ISZERO PUSH2 0x1DEA JUMPI PUSH1 0x0 DUP1 REVERT JUMPDEST DUP2 CALLDATALOAD PUSH2 0x1412 DUP2 PUSH2 0x1B19 JUMP JUMPDEST PUSH4 0x4E487B71 PUSH1 0xE0 SHL PUSH1 0x0 MSTORE PUSH1 0x32 PUSH1 0x4 MSTORE PUSH1 0x24 PUSH1 0x0 REVERT JUMPDEST PUSH4 0x4E487B71 PUSH1 0xE0 SHL PUSH1 0x0 MSTORE PUSH1 0x11 PUSH1 0x4 MSTORE PUSH1 0x24 PUSH1 0x0 REVERT JUMPDEST PUSH1 0x0 PUSH1 0x1 DUP3 ADD PUSH2 0x1E33 JUMPI PUSH2 0x1E33 PUSH2 0x1E0B JUMP JUMPDEST POP PUSH1 0x1 ADD SWAP1 JUMP JUMPDEST PUSH1 0x0 DUP3 NOT DUP3 GT ISZERO PUSH2 0x1E4D JUMPI PUSH2 0x1E4D PUSH2 0x1E0B JUMP JUMPDEST POP ADD SWAP1 JUMP JUMPDEST PUSH1 0x0 DUP3 PUSH2 0x1E6F JUMPI PUSH4 0x4E487B71 PUSH1 0xE0 SHL PUSH1 0x0 MSTORE PUSH1 0x12 PUSH1 0x4 MSTORE PUSH1 0x24 PUSH1 0x0 REVERT JUMPDEST POP MOD SWAP1 JUMP JUMPDEST PUSH1 0x0 DUP2 PUSH1 0x0 NOT DIV DUP4 GT DUP3 ISZERO ISZERO AND ISZERO PUSH2 0x1E8E JUMPI PUSH2 0x1E8E PUSH2 0x1E0B JUMP JUMPDEST POP MUL SWAP1 JUMP JUMPDEST PUSH1 0x0 PUSH1 0x20 DUP3 DUP5 SUB SLT ISZERO PUSH2 0x1EA5 JUMPI PUSH1 0x0 DUP1 REVERT JUMPDEST POP MLOAD SWAP2 SWAP1 POP JUMP JUMPDEST PUSH1 0x0 PUSH1 0x20 DUP3 DUP5 SUB SLT ISZERO PUSH2 0x1EBE JUMPI PUSH1 0x0 DUP1 REVERT JUMPDEST DUP2 MLOAD DUP1 ISZERO ISZERO DUP2 EQ PUSH2 0x1412 JUMPI PUSH1 0x0 DUP1 REVERT JUMPDEST PUSH1 0x0 PUSH1 0x1 PUSH1 0x1 PUSH1 0x80 SHL SUB DUP1 DUP4 AND DUP2 DUP6 AND DUP2 DUP4 DIV DUP2 GT DUP3 ISZERO ISZERO AND ISZERO PUSH2 0x1EF4 JUMPI PUSH2 0x1EF4 PUSH2 0x1E0B JUMP JUMPDEST MUL SWAP5 SWAP4 POP POP POP POP JUMP JUMPDEST PUSH1 0x0 DUP3 DUP3 LT ISZERO PUSH2 0x1F0F JUMPI PUSH2 0x1F0F PUSH2 0x1E0B JUMP JUMPDEST POP SUB SWAP1 JUMP JUMPDEST PUSH4 0x4E487B71 PUSH1 0xE0 SHL PUSH1 0x0 MSTORE PUSH1 0x31 PUSH1 0x4 MSTORE PUSH1 0x24 PUSH1 0x0 REVERT JUMPDEST PUSH1 0x0 PUSH1 0x20 DUP3 DUP5 SUB SLT ISZERO PUSH2 0x1F3C JUMPI PUSH1 0x0 DUP1 REVERT JUMPDEST DUP2 MLOAD PUSH2 0x1412 DUP2 PUSH2 0x1B19 JUMP INVALID LOG2 PUSH5 0x6970667358 0x22 SLT KECCAK256 0xAA DUP2 DUP16 0xF CALLER 0xDD SDIV SWAP9 0x4E CALLDATACOPY SLT 0xB9 XOR 0xE0 CODESIZE 0x23 ADDRESS CREATE2 ORIGIN COINBASE PUSH19 0x3D96A0C79599A695FC096864736F6C63430008 0xD STOP CALLER "
    },
    "gasEstimates": {
      "creation": {
        "codeDepositCost": "1612200",
        "executionCost": "infinite",
        "totalCost": "infinite"
      },
      "external": {
        "activateRandomItems(uint256)": "infinite",
        "addItems(address,uint64[],uint128)": "infinite",
        "getItems()": "infinite",
        "oasisGraveyard()": "infinite",
        "ost()": "infinite",
        "owner()": "2387",
        "pause()": "infinite",
        "paused()": "2382",
        "purchaseOst(uint256)": "infinite",
        "purchaseShopItem(address,uint256)": "infinite",
        "removeItems(address,uint256[])": "infinite",
        "renounceOwnership()": "infinite",
        "setOstPrice(uint256)": "24569",
        "transferOwnership(address)": "infinite",
        "treasury()": "infinite",
        "unpause()": "infinite",
        "weiPricePerOst()": "2362",
        "withdraw()": "infinite"
      },
      "internal": {
        "_activateRandomItem()": "infinite",
        "_addItem(address,uint64,uint128)": "infinite",
        "_getRandomIndex(uint256)": "infinite",
        "_itemExists(address,uint256)": "infinite",
        "_itemOwnedByTreasury(address,uint256)": "infinite",
        "_removeItem(uint256)": "180648"
      }
    },
    "methodIdentifiers": {
      "activateRandomItems(uint256)": "039e0558",
      "addItems(address,uint64[],uint128)": "7b25a1c1",
      "getItems()": "410d59cc",
      "oasisGraveyard()": "9ff51675",
      "ost()": "a756fdd0",
      "owner()": "8da5cb5b",
      "pause()": "8456cb59",
      "paused()": "5c975abb",
      "purchaseOst(uint256)": "2b3d6c0c",
      "purchaseShopItem(address,uint256)": "325a7161",
      "removeItems(address,uint256[])": "25983e3b",
      "renounceOwnership()": "715018a6",
      "setOstPrice(uint256)": "57305603",
      "transferOwnership(address)": "f2fde38b",
      "treasury()": "61d027b3",
      "unpause()": "3f4ba83a",
      "weiPricePerOst()": "99f4b5fc",
      "withdraw()": "3ccfd60b"
    }
  },
  "storageLayout": {
    "storage": [
      {
        "astId": 3762,
        "contract": "OasisShop.sol:OasisShop",
        "label": "_paused",
        "offset": 0,
        "slot": "0",
        "type": "t_bool"
      },
      {
        "astId": 2323,
        "contract": "OasisShop.sol:OasisShop",
        "label": "_owner",
        "offset": 1,
        "slot": "0",
        "type": "t_address"
      },
      {
        "astId": 872,
        "contract": "OasisShop.sol:OasisShop",
        "label": "weiPricePerOst",
        "offset": 0,
        "slot": "1",
        "type": "t_uint256"
      },
      {
        "astId": 876,
        "contract": "OasisShop.sol:OasisShop",
        "label": "_shopItems",
        "offset": 0,
        "slot": "2",
        "type": "t_array(t_struct(ShopItem)864_storage)dyn_storage"
      }
    ],
    "types": {
      "t_address": {
        "encoding": "inplace",
        "label": "address",
        "numberOfBytes": "20"
      },
      "t_array(t_struct(ShopItem)864_storage)dyn_storage": {
        "base": "t_struct(ShopItem)864_storage",
        "encoding": "dynamic_array",
        "label": "struct OasisShop.ShopItem[]",
        "numberOfBytes": "32"
      },
      "t_bool": {
        "encoding": "inplace",
        "label": "bool",
        "numberOfBytes": "1"
      },
      "t_struct(ShopItem)864_storage": {
        "encoding": "inplace",
        "label": "struct OasisShop.ShopItem",
        "members": [
          {
            "astId": 857,
            "contract": "OasisShop.sol:OasisShop",
            "label": "isActive",
            "offset": 0,
            "slot": "0",
            "type": "t_bool"
          },
          {
            "astId": 859,
            "contract": "OasisShop.sol:OasisShop",
            "label": "itemContract",
            "offset": 1,
            "slot": "0",
            "type": "t_address"
          },
          {
            "astId": 861,
            "contract": "OasisShop.sol:OasisShop",
            "label": "itemId",
            "offset": 21,
            "slot": "0",
            "type": "t_uint64"
          },
          {
            "astId": 863,
            "contract": "OasisShop.sol:OasisShop",
            "label": "itemPrice",
            "offset": 0,
            "slot": "1",
            "type": "t_uint128"
          }
        ],
        "numberOfBytes": "64"
      },
      "t_uint128": {
        "encoding": "inplace",
        "label": "uint128",
        "numberOfBytes": "16"
      },
      "t_uint256": {
        "encoding": "inplace",
        "label": "uint256",
        "numberOfBytes": "32"
      },
      "t_uint64": {
        "encoding": "inplace",
        "label": "uint64",
        "numberOfBytes": "8"
      }
    }
  },
  "userdoc": {
    "kind": "user",
    "methods": {},
    "notice": ". Shop for the Oasis - users may purchase $OST for $ETH, or active Shop ERC721 NFTs for $OST!",
    "version": 1
  }
}