{
  "abi": [
    {
      "anonymous": false,
      "inputs": [
        {
          "indexed": true,
          "internalType": "address",
          "name": "previousOwner",
          "type": "address"
        },
        {
          "indexed": true,
          "internalType": "address",
          "name": "newOwner",
          "type": "address"
        }
      ],
      "name": "OwnershipTransferred",
      "type": "event"
    },
    {
      "anonymous": false,
      "inputs": [
        {
          "indexed": false,
          "internalType": "address",
          "name": "account",
          "type": "address"
        }
      ],
      "name": "Paused",
      "type": "event"
    },
    {
      "anonymous": false,
      "inputs": [
        {
          "indexed": true,
          "internalType": "address",
          "name": "buyer",
          "type": "address"
        },
        {
          "indexed": true,
          "internalType": "uint256",
          "name": "ostSpent",
          "type": "uint256"
        },
        {
          "indexed": false,
          "internalType": "uint256",
          "name": "ecId",
          "type": "uint256"
        },
        {
          "indexed": false,
          "internalType": "uint256",
          "name": "ecsLeft",
          "type": "uint256"
        }
      ],
      "name": "PurchasedEC",
      "type": "event"
    },
    {
      "anonymous": false,
      "inputs": [
        {
          "indexed": false,
          "internalType": "address",
          "name": "account",
          "type": "address"
        }
      ],
      "name": "Unpaused",
      "type": "event"
    },
    {
      "inputs": [],
      "name": "ec",
      "outputs": [
        {
          "internalType": "address",
          "name": "",
          "type": "address"
        }
      ],
      "stateMutability": "view",
      "type": "function"
    },
    {
      "inputs": [
        {
          "internalType": "uint256",
          "name": "",
          "type": "uint256"
        }
      ],
      "name": "ecTokenIds",
      "outputs": [
        {
          "internalType": "uint256",
          "name": "",
          "type": "uint256"
        }
      ],
      "stateMutability": "view",
      "type": "function"
    },
    {
      "inputs": [],
      "name": "getEcLeft",
      "outputs": [
        {
          "internalType": "uint256",
          "name": "ecsLeft_",
          "type": "uint256"
        }
      ],
      "stateMutability": "view",
      "type": "function"
    },
    {
      "inputs": [],
      "name": "getOstPricePerEc",
      "outputs": [
        {
          "internalType": "uint256",
          "name": "ostPricePerEc_",
          "type": "uint256"
        }
      ],
      "stateMutability": "view",
      "type": "function"
    },
    {
      "inputs": [],
      "name": "oasisGraveyard",
      "outputs": [
        {
          "internalType": "address",
          "name": "",
          "type": "address"
        }
      ],
      "stateMutability": "view",
      "type": "function"
    },
    {
      "inputs": [],
      "name": "ost",
      "outputs": [
        {
          "internalType": "address",
          "name": "",
          "type": "address"
        }
      ],
      "stateMutability": "view",
      "type": "function"
    },
    {
      "inputs": [],
      "name": "ostPricePerEc",
      "outputs": [
        {
          "internalType": "uint256",
          "name": "",
          "type": "uint256"
        }
      ],
      "stateMutability": "view",
      "type": "function"
    },
    {
      "inputs": [],
      "name": "owner",
      "outputs": [
        {
          "internalType": "address",
          "name": "",
          "type": "address"
        }
      ],
      "stateMutability": "view",
      "type": "function"
    },
    {
      "inputs": [],
      "name": "pause",
      "outputs": [],
      "stateMutability": "nonpayable",
      "type": "function"
    },
    {
      "inputs": [],
      "name": "paused",
      "outputs": [
        {
          "internalType": "bool",
          "name": "",
          "type": "bool"
        }
      ],
      "stateMutability": "view",
      "type": "function"
    },
    {
      "inputs": [],
      "name": "purchaseEC",
      "outputs": [],
      "stateMutability": "nonpayable",
      "type": "function"
    },
    {
      "inputs": [],
      "name": "renounceOwnership",
      "outputs": [],
      "stateMutability": "nonpayable",
      "type": "function"
    },
    {
      "inputs": [
        {
          "internalType": "address",
          "name": "_treasury",
          "type": "address"
        },
        {
          "internalType": "address",
          "name": "_ec",
          "type": "address"
        },
        {
          "internalType": "address",
          "name": "_ost",
          "type": "address"
        },
        {
          "internalType": "uint256[]",
          "name": "_ecTokenIds",
          "type": "uint256[]"
        },
        {
          "internalType": "uint256",
          "name": "_ostPricePerEc",
          "type": "uint256"
        },
        {
          "internalType": "address",
          "name": "_oasisGraveyard",
          "type": "address"
        }
      ],
      "name": "setStateVariables",
      "outputs": [],
      "stateMutability": "nonpayable",
      "type": "function"
    },
    {
      "inputs": [
        {
          "internalType": "address",
          "name": "newOwner",
          "type": "address"
        }
      ],
      "name": "transferOwnership",
      "outputs": [],
      "stateMutability": "nonpayable",
      "type": "function"
    },
    {
      "inputs": [],
      "name": "treasury",
      "outputs": [
        {
          "internalType": "address",
          "name": "",
          "type": "address"
        }
      ],
      "stateMutability": "view",
      "type": "function"
    },
    {
      "inputs": [],
      "name": "unpause",
      "outputs": [],
      "stateMutability": "nonpayable",
      "type": "function"
    }
  ],
  "devdoc": {
    "kind": "dev",
    "methods": {
      "owner()": {
        "details": "Returns the address of the current owner."
      },
      "paused()": {
        "details": "Returns true if the contract is paused, and false otherwise."
      },
      "renounceOwnership()": {
        "details": "Leaves the contract without owner. It will not be possible to call `onlyOwner` functions anymore. Can only be called by the current owner. NOTE: Renouncing ownership will leave the contract without an owner, thereby removing any functionality that is only available to the owner."
      },
      "transferOwnership(address)": {
        "details": "Transfers ownership of the contract to a new account (`newOwner`). Can only be called by the current owner."
      }
    },
    "version": 1
  },
  "evm": {
    "assembly": "    /* \"OasisShop.sol\":288:2316  contract OasisShop is Pausable, Ownable {... */\n  mstore(0x40, 0x80)\n  callvalue\n  dup1\n  iszero\n  tag_1\n  jumpi\n  0x00\n  dup1\n  revert\ntag_1:\n  pop\n    /* \"@openzeppelin/contracts/security/Pausable.sol\":1006:1011   */\n  0x00\n    /* \"@openzeppelin/contracts/security/Pausable.sol\":996:1011   */\n  dup1\n  sload\n  not(0xff)\n  and\n  swap1\n  sstore\n    /* \"@openzeppelin/contracts/access/Ownable.sol\":936:968   */\n  tag_6\n    /* \"@openzeppelin/contracts/utils/Context.sol\":719:729   */\n  caller\n    /* \"@openzeppelin/contracts/access/Ownable.sol\":936:954   */\n  tag_9\n    /* \"@openzeppelin/contracts/access/Ownable.sol\":936:968   */\n  jump\t// in\ntag_6:\n    /* \"OasisShop.sol\":288:2316  contract OasisShop is Pausable, Ownable {... */\n  jump(tag_10)\n    /* \"@openzeppelin/contracts/access/Ownable.sol\":2433:2620   */\ntag_9:\n    /* \"@openzeppelin/contracts/access/Ownable.sol\":2506:2522   */\n  0x00\n    /* \"@openzeppelin/contracts/access/Ownable.sol\":2525:2531   */\n  dup1\n  sload\n  sub(shl(0xa0, 0x01), 0x01)\n    /* \"@openzeppelin/contracts/access/Ownable.sol\":2541:2558   */\n  dup4\n  dup2\n  and\n    /* \"@openzeppelin/contracts/access/Ownable.sol\":2525:2531   */\n  0x0100\n    /* \"@openzeppelin/contracts/access/Ownable.sol\":2541:2558   */\n  dup2\n  dup2\n  mul\n  not(sub(shl(0xa8, 0x01), 0x0100))\n  dup6\n  and\n  or\n  dup6\n  sstore\n    /* \"@openzeppelin/contracts/access/Ownable.sol\":2573:2613   */\n  mload(0x40)\n    /* \"@openzeppelin/contracts/access/Ownable.sol\":2525:2531   */\n  swap4\n  div\n  swap2\n  swap1\n  swap2\n  and\n  swap3\n    /* \"@openzeppelin/contracts/access/Ownable.sol\":2541:2558   */\n  swap1\n  swap2\n    /* \"@openzeppelin/contracts/access/Ownable.sol\":2525:2531   */\n  dup4\n  swap2\n    /* \"@openzeppelin/contracts/access/Ownable.sol\":2573:2613   */\n  0x8be0079c531659141344cd1fd0a4f28419497f9722a3daafe3b4186f6b6457e0\n  swap2\n  log3\n    /* \"@openzeppelin/contracts/access/Ownable.sol\":2496:2620   */\n  pop\n    /* \"@openzeppelin/contracts/access/Ownable.sol\":2433:2620   */\n  pop\n  jump\t// out\n    /* \"OasisShop.sol\":288:2316  contract OasisShop is Pausable, Ownable {... */\ntag_10:\n  dataSize(sub_0)\n  dup1\n  dataOffset(sub_0)\n  0x00\n  codecopy\n  0x00\n  return\nstop\n\nsub_0: assembly {\n        /* \"OasisShop.sol\":288:2316  contract OasisShop is Pausable, Ownable {... */\n      mstore(0x40, 0x80)\n      callvalue\n      dup1\n      iszero\n      tag_1\n      jumpi\n      0x00\n      dup1\n      revert\n    tag_1:\n      pop\n      jumpi(tag_2, lt(calldatasize, 0x04))\n      shr(0xe0, calldataload(0x00))\n      dup1\n      0x8da5cb5b\n      gt\n      tag_19\n      jumpi\n      dup1\n      0xbb90edb6\n      gt\n      tag_20\n      jumpi\n      dup1\n      0xbb90edb6\n      eq\n      tag_15\n      jumpi\n      dup1\n      0xd9d8422c\n      eq\n      tag_16\n      jumpi\n      dup1\n      0xf2fde38b\n      eq\n      tag_17\n      jumpi\n      dup1\n      0xf83b5dce\n      eq\n      tag_18\n      jumpi\n      0x00\n      dup1\n      revert\n    tag_20:\n      dup1\n      0x8da5cb5b\n      eq\n      tag_11\n      jumpi\n      dup1\n      0x968bca7b\n      eq\n      tag_12\n      jumpi\n      dup1\n      0x9ff51675\n      eq\n      tag_13\n      jumpi\n      dup1\n      0xa756fdd0\n      eq\n      tag_14\n      jumpi\n      0x00\n      dup1\n      revert\n    tag_19:\n      dup1\n      0x5c975abb\n      gt\n      tag_21\n      jumpi\n      dup1\n      0x5c975abb\n      eq\n      tag_7\n      jumpi\n      dup1\n      0x61d027b3\n      eq\n      tag_8\n      jumpi\n      dup1\n      0x715018a6\n      eq\n      tag_9\n      jumpi\n      dup1\n      0x8456cb59\n      eq\n      tag_10\n      jumpi\n      0x00\n      dup1\n      revert\n    tag_21:\n      dup1\n      0x1667e9e9\n      eq\n      tag_3\n      jumpi\n      dup1\n      0x3f4ba83a\n      eq\n      tag_4\n      jumpi\n      dup1\n      0x4087d1fa\n      eq\n      tag_5\n      jumpi\n      dup1\n      0x5ad77013\n      eq\n      tag_6\n      jumpi\n    tag_2:\n      0x00\n      dup1\n      revert\n        /* \"OasisShop.sol\":1323:2078  function purchaseEC() external whenNotPaused {... */\n    tag_3:\n      tag_22\n      tag_23\n      jump\t// in\n    tag_22:\n      stop\n        /* \"OasisShop.sol\":780:845  function unpause() public onlyOwner {... */\n    tag_4:\n      tag_22\n      tag_25\n      jump\t// in\n        /* \"OasisShop.sol\":2199:2313  function getOstPricePerEc() external view returns (uint256 ostPricePerEc_) {... */\n    tag_5:\n        /* \"OasisShop.sol\":2292:2305  ostPricePerEc */\n      sload(0x05)\n        /* \"OasisShop.sol\":2199:2313  function getOstPricePerEc() external view returns (uint256 ostPricePerEc_) {... */\n    tag_26:\n      mload(0x40)\n        /* \"#utility.yul\":160:185   */\n      swap1\n      dup2\n      mstore\n        /* \"#utility.yul\":148:150   */\n      0x20\n        /* \"#utility.yul\":133:151   */\n      add\n        /* \"OasisShop.sol\":2199:2313  function getOstPricePerEc() external view returns (uint256 ostPricePerEc_) {... */\n    tag_28:\n      mload(0x40)\n      dup1\n      swap2\n      sub\n      swap1\n      return\n        /* \"OasisShop.sol\":479:507  uint256 public ostPricePerEc */\n    tag_6:\n      tag_26\n      sload(0x05)\n      dup2\n      jump\n        /* \"@openzeppelin/contracts/security/Pausable.sol\":1615:1699   */\n    tag_7:\n        /* \"@openzeppelin/contracts/security/Pausable.sol\":1662:1666   */\n      0x00\n        /* \"@openzeppelin/contracts/security/Pausable.sol\":1685:1692   */\n      sload\n      0xff\n      and\n        /* \"@openzeppelin/contracts/security/Pausable.sol\":1615:1699   */\n      mload(0x40)\n        /* \"#utility.yul\":361:375   */\n      swap1\n      iszero\n        /* \"#utility.yul\":354:376   */\n      iszero\n        /* \"#utility.yul\":336:377   */\n      dup2\n      mstore\n        /* \"#utility.yul\":324:326   */\n      0x20\n        /* \"#utility.yul\":309:327   */\n      add\n        /* \"@openzeppelin/contracts/security/Pausable.sol\":1615:1699   */\n      tag_28\n        /* \"#utility.yul\":196:383   */\n      jump\n        /* \"OasisShop.sol\":366:389  address public treasury */\n    tag_8:\n      sload(0x01)\n      tag_37\n      swap1\n      sub(shl(0xa0, 0x01), 0x01)\n      and\n      dup2\n      jump\n    tag_37:\n      mload(0x40)\n      sub(shl(0xa0, 0x01), 0x01)\n        /* \"#utility.yul\":552:607   */\n      swap1\n      swap2\n      and\n        /* \"#utility.yul\":534:608   */\n      dup2\n      mstore\n        /* \"#utility.yul\":522:524   */\n      0x20\n        /* \"#utility.yul\":507:525   */\n      add\n        /* \"OasisShop.sol\":366:389  address public treasury */\n      tag_28\n        /* \"#utility.yul\":388:614   */\n      jump\n        /* \"@openzeppelin/contracts/access/Ownable.sol\":1831:1932   */\n    tag_9:\n      tag_22\n      tag_42\n      jump\t// in\n        /* \"OasisShop.sol\":711:772  function pause() public onlyOwner {... */\n    tag_10:\n      tag_22\n      tag_44\n      jump\t// in\n        /* \"@openzeppelin/contracts/access/Ownable.sol\":1201:1286   */\n    tag_11:\n        /* \"@openzeppelin/contracts/access/Ownable.sol\":1247:1254   */\n      0x00\n        /* \"@openzeppelin/contracts/access/Ownable.sol\":1273:1279   */\n      sload\n      0x0100\n      swap1\n      div\n      sub(shl(0xa0, 0x01), 0x01)\n      and\n        /* \"@openzeppelin/contracts/access/Ownable.sol\":1201:1286   */\n      jump(tag_37)\n        /* \"OasisShop.sol\":445:472  uint256[] public ecTokenIds */\n    tag_12:\n      tag_26\n      tag_49\n      calldatasize\n      0x04\n      tag_50\n      jump\t// in\n    tag_49:\n      tag_51\n      jump\t// in\n        /* \"OasisShop.sol\":514:543  address public oasisGraveyard */\n    tag_13:\n      sload(0x06)\n      tag_37\n      swap1\n      sub(shl(0xa0, 0x01), 0x01)\n      and\n      dup2\n      jump\n        /* \"OasisShop.sol\":420:438  address public ost */\n    tag_14:\n      sload(0x03)\n      tag_37\n      swap1\n      sub(shl(0xa0, 0x01), 0x01)\n      and\n      dup2\n      jump\n        /* \"OasisShop.sol\":2086:2191  function getEcLeft() external view returns (uint256 ecsLeft_) {... */\n    tag_15:\n        /* \"OasisShop.sol\":2166:2176  ecTokenIds */\n      0x04\n        /* \"OasisShop.sol\":2166:2183  ecTokenIds.length */\n      sload\n        /* \"OasisShop.sol\":2086:2191  function getEcLeft() external view returns (uint256 ecsLeft_) {... */\n      jump(tag_26)\n        /* \"OasisShop.sol\":853:1281  function setStateVariables(... */\n    tag_16:\n      tag_22\n      tag_63\n      calldatasize\n      0x04\n      tag_64\n      jump\t// in\n    tag_63:\n      tag_65\n      jump\t// in\n        /* \"@openzeppelin/contracts/access/Ownable.sol\":2081:2279   */\n    tag_17:\n      tag_22\n      tag_67\n      calldatasize\n      0x04\n      tag_68\n      jump\t// in\n    tag_67:\n      tag_69\n      jump\t// in\n        /* \"OasisShop.sol\":396:413  address public ec */\n    tag_18:\n      sload(0x02)\n      tag_37\n      swap1\n      sub(shl(0xa0, 0x01), 0x01)\n      and\n      dup2\n      jump\n        /* \"OasisShop.sol\":1323:2078  function purchaseEC() external whenNotPaused {... */\n    tag_23:\n        /* \"@openzeppelin/contracts/security/Pausable.sol\":1239:1258   */\n      tag_74\n        /* \"@openzeppelin/contracts/security/Pausable.sol\":1239:1256   */\n      tag_75\n        /* \"@openzeppelin/contracts/security/Pausable.sol\":1239:1258   */\n      jump\t// in\n    tag_74:\n        /* \"OasisShop.sol\":1383:1393  ecTokenIds */\n      0x04\n        /* \"OasisShop.sol\":1383:1400  ecTokenIds.length */\n      sload\n        /* \"OasisShop.sol\":1403:1404  1 */\n      0x01\n      gt\n        /* \"OasisShop.sol\":1379:1441  if (ecTokenIds.length < 1) revert(\"No available EC Token Ids\") */\n      iszero\n      tag_77\n      jumpi\n        /* \"OasisShop.sol\":1406:1441  revert(\"No available EC Token Ids\") */\n      mload(0x40)\n      shl(0xe5, 0x461bcd)\n      dup2\n      mstore\n        /* \"#utility.yul\":3017:3019   */\n      0x20\n        /* \"OasisShop.sol\":1406:1441  revert(\"No available EC Token Ids\") */\n      0x04\n      dup3\n      add\n        /* \"#utility.yul\":2999:3020   */\n      mstore\n        /* \"#utility.yul\":3056:3058   */\n      0x19\n        /* \"#utility.yul\":3036:3054   */\n      0x24\n      dup3\n      add\n        /* \"#utility.yul\":3029:3059   */\n      mstore\n        /* \"#utility.yul\":3095:3122   */\n      0x4e6f20617661696c61626c6520454320546f6b656e2049647300000000000000\n        /* \"#utility.yul\":3075:3093   */\n      0x44\n      dup3\n      add\n        /* \"#utility.yul\":3068:3123   */\n      mstore\n        /* \"#utility.yul\":3140:3158   */\n      0x64\n      add\n        /* \"OasisShop.sol\":1406:1441  revert(\"No available EC Token Ids\") */\n    tag_78:\n      mload(0x40)\n      dup1\n      swap2\n      sub\n      swap1\n      revert\n        /* \"OasisShop.sol\":1379:1441  if (ecTokenIds.length < 1) revert(\"No available EC Token Ids\") */\n    tag_77:\n        /* \"OasisShop.sol\":1464:1466  ec */\n      sload(0x02)\n        /* \"OasisShop.sol\":1490:1491  1 */\n      0x01\n        /* \"OasisShop.sol\":1478:1486  treasury */\n      dup1\n      sload\n        /* \"OasisShop.sol\":1456:1487  IERC721(ec).balanceOf(treasury) */\n      mload(0x40)\n      shl(0xe0, 0x70a08231)\n      dup2\n      mstore\n      sub(shl(0xa0, 0x01), 0x01)\n        /* \"OasisShop.sol\":1478:1486  treasury */\n      swap2\n      dup3\n      and\n        /* \"OasisShop.sol\":1456:1487  IERC721(ec).balanceOf(treasury) */\n      0x04\n      dup3\n      add\n        /* \"#utility.yul\":534:608   */\n      mstore\n        /* \"OasisShop.sol\":1490:1491  1 */\n      swap2\n      swap3\n        /* \"OasisShop.sol\":1464:1466  ec */\n      and\n      swap1\n        /* \"OasisShop.sol\":1456:1477  IERC721(ec).balanceOf */\n      0x70a08231\n      swap1\n        /* \"#utility.yul\":507:525   */\n      0x24\n      add\n        /* \"OasisShop.sol\":1456:1487  IERC721(ec).balanceOf(treasury) */\n      0x20\n      mload(0x40)\n      dup1\n      dup4\n      sub\n      dup2\n      dup7\n      gas\n      staticcall\n      iszero\n      dup1\n      iszero\n      tag_82\n      jumpi\n      returndatasize\n      0x00\n      dup1\n      returndatacopy\n      revert(0x00, returndatasize)\n    tag_82:\n      pop\n      pop\n      pop\n      pop\n      mload(0x40)\n      returndatasize\n      not(0x1f)\n      0x1f\n      dup3\n      add\n      and\n      dup3\n      add\n      dup1\n      0x40\n      mstore\n      pop\n      dup2\n      add\n      swap1\n      tag_83\n      swap2\n      swap1\n      tag_84\n      jump\t// in\n    tag_83:\n        /* \"OasisShop.sol\":1456:1491  IERC721(ec).balanceOf(treasury) < 1 */\n      lt\n        /* \"OasisShop.sol\":1452:1522  if (IERC721(ec).balanceOf(treasury) < 1) revert(\"Treasury has no ECs\") */\n      iszero\n      tag_85\n      jumpi\n        /* \"OasisShop.sol\":1493:1522  revert(\"Treasury has no ECs\") */\n      mload(0x40)\n      shl(0xe5, 0x461bcd)\n      dup2\n      mstore\n        /* \"#utility.yul\":3560:3562   */\n      0x20\n        /* \"OasisShop.sol\":1493:1522  revert(\"Treasury has no ECs\") */\n      0x04\n      dup3\n      add\n        /* \"#utility.yul\":3542:3563   */\n      mstore\n        /* \"#utility.yul\":3599:3601   */\n      0x13\n        /* \"#utility.yul\":3579:3597   */\n      0x24\n      dup3\n      add\n        /* \"#utility.yul\":3572:3602   */\n      mstore\n        /* \"#utility.yul\":3638:3659   */\n      0x547265617375727920686173206e6f2045437300000000000000000000000000\n        /* \"#utility.yul\":3618:3636   */\n      0x44\n      dup3\n      add\n        /* \"#utility.yul\":3611:3660   */\n      mstore\n        /* \"#utility.yul\":3677:3695   */\n      0x64\n      add\n        /* \"OasisShop.sol\":1493:1522  revert(\"Treasury has no ECs\") */\n      tag_78\n        /* \"#utility.yul\":3358:3701   */\n      jump\n        /* \"OasisShop.sol\":1452:1522  if (IERC721(ec).balanceOf(treasury) < 1) revert(\"Treasury has no ECs\") */\n    tag_85:\n        /* \"OasisShop.sol\":1573:1586  ostPricePerEc */\n      sload(0x05)\n        /* \"OasisShop.sol\":1544:1547  ost */\n      sload(0x03)\n        /* \"OasisShop.sol\":1537:1570  IERC20(ost).balanceOf(msg.sender) */\n      mload(0x40)\n      shl(0xe0, 0x70a08231)\n      dup2\n      mstore\n        /* \"OasisShop.sol\":1559:1569  msg.sender */\n      caller\n        /* \"OasisShop.sol\":1537:1570  IERC20(ost).balanceOf(msg.sender) */\n      0x04\n      dup3\n      add\n        /* \"#utility.yul\":534:608   */\n      mstore\n      sub(shl(0xa0, 0x01), 0x01)\n        /* \"OasisShop.sol\":1544:1547  ost */\n      swap1\n      swap2\n      and\n      swap1\n        /* \"OasisShop.sol\":1537:1558  IERC20(ost).balanceOf */\n      0x70a08231\n      swap1\n        /* \"#utility.yul\":507:525   */\n      0x24\n      add\n        /* \"OasisShop.sol\":1537:1570  IERC20(ost).balanceOf(msg.sender) */\n      0x20\n      mload(0x40)\n      dup1\n      dup4\n      sub\n      dup2\n      dup7\n      gas\n      staticcall\n      iszero\n      dup1\n      iszero\n      tag_90\n      jumpi\n      returndatasize\n      0x00\n      dup1\n      returndatacopy\n      revert(0x00, returndatasize)\n    tag_90:\n      pop\n      pop\n      pop\n      pop\n      mload(0x40)\n      returndatasize\n      not(0x1f)\n      0x1f\n      dup3\n      add\n      and\n      dup3\n      add\n      dup1\n      0x40\n      mstore\n      pop\n      dup2\n      add\n      swap1\n      tag_91\n      swap2\n      swap1\n      tag_84\n      jump\t// in\n    tag_91:\n        /* \"OasisShop.sol\":1537:1586  IERC20(ost).balanceOf(msg.sender) < ostPricePerEc */\n      lt\n        /* \"OasisShop.sol\":1533:1620  if (IERC20(ost).balanceOf(msg.sender) < ostPricePerEc) revert(\"Not Enough $OST Tokens\") */\n      iszero\n      tag_92\n      jumpi\n        /* \"OasisShop.sol\":1588:1620  revert(\"Not Enough $OST Tokens\") */\n      mload(0x40)\n      shl(0xe5, 0x461bcd)\n      dup2\n      mstore\n        /* \"#utility.yul\":3908:3910   */\n      0x20\n        /* \"OasisShop.sol\":1588:1620  revert(\"Not Enough $OST Tokens\") */\n      0x04\n      dup3\n      add\n        /* \"#utility.yul\":3890:3911   */\n      mstore\n        /* \"#utility.yul\":3947:3949   */\n      0x16\n        /* \"#utility.yul\":3927:3945   */\n      0x24\n      dup3\n      add\n        /* \"#utility.yul\":3920:3950   */\n      mstore\n        /* \"#utility.yul\":3986:4010   */\n      0x4e6f7420456e6f75676820244f535420546f6b656e7300000000000000000000\n        /* \"#utility.yul\":3966:3984   */\n      0x44\n      dup3\n      add\n        /* \"#utility.yul\":3959:4011   */\n      mstore\n        /* \"#utility.yul\":4028:4046   */\n      0x64\n      add\n        /* \"OasisShop.sol\":1588:1620  revert(\"Not Enough $OST Tokens\") */\n      tag_78\n        /* \"#utility.yul\":3706:4052   */\n      jump\n        /* \"OasisShop.sol\":1533:1620  if (IERC20(ost).balanceOf(msg.sender) < ostPricePerEc) revert(\"Not Enough $OST Tokens\") */\n    tag_92:\n        /* \"OasisShop.sol\":1655:1665  ecTokenIds */\n      0x04\n        /* \"OasisShop.sol\":1666:1683  ecTokenIds.length */\n      dup1\n      sload\n        /* \"OasisShop.sol\":1633:1652  uint256 lastTokenId */\n      0x00\n      swap2\n        /* \"OasisShop.sol\":1655:1665  ecTokenIds */\n      swap1\n        /* \"OasisShop.sol\":1666:1687  ecTokenIds.length - 1 */\n      tag_95\n      swap1\n        /* \"OasisShop.sol\":1686:1687  1 */\n      0x01\n      swap1\n        /* \"OasisShop.sol\":1666:1687  ecTokenIds.length - 1 */\n      tag_96\n      jump\t// in\n    tag_95:\n        /* \"OasisShop.sol\":1655:1688  ecTokenIds[ecTokenIds.length - 1] */\n      dup2\n      sload\n      dup2\n      lt\n      tag_98\n      jumpi\n      tag_98\n      tag_99\n      jump\t// in\n    tag_98:\n      0x00\n      swap2\n      dup3\n      mstore\n      0x20\n      swap1\n      swap2\n      keccak256\n      add\n      sload\n        /* \"OasisShop.sol\":1756:1769  ostPricePerEc */\n      sload(0x05)\n        /* \"OasisShop.sol\":1712:1715  ost */\n      sload(0x03)\n        /* \"OasisShop.sol\":1705:1753  IERC20(ost).allowance(msg.sender, address(this)) */\n      mload(0x40)\n      shl(0xe1, 0x6eb1769f)\n      dup2\n      mstore\n        /* \"OasisShop.sol\":1727:1737  msg.sender */\n      caller\n        /* \"OasisShop.sol\":1705:1753  IERC20(ost).allowance(msg.sender, address(this)) */\n      0x04\n      dup3\n      add\n        /* \"#utility.yul\":4651:4685   */\n      mstore\n        /* \"OasisShop.sol\":1747:1751  this */\n      address\n        /* \"#utility.yul\":4701:4719   */\n      0x24\n      dup3\n      add\n        /* \"#utility.yul\":4694:4737   */\n      mstore\n        /* \"OasisShop.sol\":1655:1688  ecTokenIds[ecTokenIds.length - 1] */\n      swap3\n      swap4\n      pop\n        /* \"OasisShop.sol\":1756:1769  ostPricePerEc */\n      swap1\n      swap2\n      sub(shl(0xa0, 0x01), 0x01)\n        /* \"OasisShop.sol\":1712:1715  ost */\n      swap1\n      swap2\n      and\n      swap1\n        /* \"OasisShop.sol\":1705:1726  IERC20(ost).allowance */\n      0xdd62ed3e\n      swap1\n        /* \"#utility.yul\":4563:4581   */\n      0x44\n      add\n        /* \"OasisShop.sol\":1705:1753  IERC20(ost).allowance(msg.sender, address(this)) */\n      0x20\n      mload(0x40)\n      dup1\n      dup4\n      sub\n      dup2\n      dup7\n      gas\n      staticcall\n      iszero\n      dup1\n      iszero\n      tag_104\n      jumpi\n      returndatasize\n      0x00\n      dup1\n      returndatacopy\n      revert(0x00, returndatasize)\n    tag_104:\n      pop\n      pop\n      pop\n      pop\n      mload(0x40)\n      returndatasize\n      not(0x1f)\n      0x1f\n      dup3\n      add\n      and\n      dup3\n      add\n      dup1\n      0x40\n      mstore\n      pop\n      dup2\n      add\n      swap1\n      tag_105\n      swap2\n      swap1\n      tag_84\n      jump\t// in\n    tag_105:\n        /* \"OasisShop.sol\":1705:1769  IERC20(ost).allowance(msg.sender, address(this)) < ostPricePerEc */\n      lt\n        /* \"OasisShop.sol\":1701:1805  if (IERC20(ost).allowance(msg.sender, address(this)) < ostPricePerEc) revert(\"Not enough OST allowance\") */\n      iszero\n      tag_106\n      jumpi\n        /* \"OasisShop.sol\":1771:1805  revert(\"Not enough OST allowance\") */\n      mload(0x40)\n      shl(0xe5, 0x461bcd)\n      dup2\n      mstore\n        /* \"#utility.yul\":4950:4952   */\n      0x20\n        /* \"OasisShop.sol\":1771:1805  revert(\"Not enough OST allowance\") */\n      0x04\n      dup3\n      add\n        /* \"#utility.yul\":4932:4953   */\n      mstore\n        /* \"#utility.yul\":4989:4991   */\n      0x18\n        /* \"#utility.yul\":4969:4987   */\n      0x24\n      dup3\n      add\n        /* \"#utility.yul\":4962:4992   */\n      mstore\n        /* \"#utility.yul\":5028:5054   */\n      0x4e6f7420656e6f756768204f535420616c6c6f77616e63650000000000000000\n        /* \"#utility.yul\":5008:5026   */\n      0x44\n      dup3\n      add\n        /* \"#utility.yul\":5001:5055   */\n      mstore\n        /* \"#utility.yul\":5072:5090   */\n      0x64\n      add\n        /* \"OasisShop.sol\":1771:1805  revert(\"Not enough OST allowance\") */\n      tag_78\n        /* \"#utility.yul\":4748:5096   */\n      jump\n        /* \"OasisShop.sol\":1701:1805  if (IERC20(ost).allowance(msg.sender, address(this)) < ostPricePerEc) revert(\"Not enough OST allowance\") */\n    tag_106:\n        /* \"OasisShop.sol\":1823:1826  ost */\n      sload(0x03)\n        /* \"OasisShop.sol\":1853:1867  oasisGraveyard */\n      sload(0x06)\n        /* \"OasisShop.sol\":1869:1882  ostPricePerEc */\n      sload(0x05)\n        /* \"OasisShop.sol\":1816:1883  IERC20(ost).transferFrom(msg.sender, oasisGraveyard, ostPricePerEc) */\n      mload(0x40)\n      shl(0xe0, 0x23b872dd)\n      dup2\n      mstore\n        /* \"OasisShop.sol\":1841:1851  msg.sender */\n      caller\n        /* \"OasisShop.sol\":1816:1883  IERC20(ost).transferFrom(msg.sender, oasisGraveyard, ostPricePerEc) */\n      0x04\n      dup3\n      add\n        /* \"#utility.yul\":5364:5398   */\n      mstore\n      sub(shl(0xa0, 0x01), 0x01)\n        /* \"OasisShop.sol\":1853:1867  oasisGraveyard */\n      swap3\n      dup4\n      and\n        /* \"#utility.yul\":5414:5432   */\n      0x24\n      dup3\n      add\n        /* \"#utility.yul\":5407:5450   */\n      mstore\n        /* \"#utility.yul\":5466:5484   */\n      0x44\n      dup2\n      add\n        /* \"#utility.yul\":5459:5493   */\n      swap2\n      swap1\n      swap2\n      mstore\n        /* \"OasisShop.sol\":1823:1826  ost */\n      swap2\n      and\n      swap1\n        /* \"OasisShop.sol\":1816:1840  IERC20(ost).transferFrom */\n      0x23b872dd\n      swap1\n        /* \"#utility.yul\":5276:5294   */\n      0x64\n      add\n        /* \"OasisShop.sol\":1816:1883  IERC20(ost).transferFrom(msg.sender, oasisGraveyard, ostPricePerEc) */\n      0x20\n      mload(0x40)\n      dup1\n      dup4\n      sub\n      dup2\n      0x00\n      dup8\n      gas\n      call\n      iszero\n      dup1\n      iszero\n      tag_112\n      jumpi\n      returndatasize\n      0x00\n      dup1\n      returndatacopy\n      revert(0x00, returndatasize)\n    tag_112:\n      pop\n      pop\n      pop\n      pop\n      mload(0x40)\n      returndatasize\n      not(0x1f)\n      0x1f\n      dup3\n      add\n      and\n      dup3\n      add\n      dup1\n      0x40\n      mstore\n      pop\n      dup2\n      add\n      swap1\n      tag_113\n      swap2\n      swap1\n      tag_114\n      jump\t// in\n    tag_113:\n      pop\n        /* \"OasisShop.sol\":1904:1906  ec */\n      sload(0x02)\n      0x01\n        /* \"OasisShop.sol\":1921:1929  treasury */\n      sload\n        /* \"OasisShop.sol\":1896:1955  IERC721(ec).transferFrom(treasury, msg.sender, lastTokenId) */\n      mload(0x40)\n      shl(0xe0, 0x23b872dd)\n      dup2\n      mstore\n      sub(shl(0xa0, 0x01), 0x01)\n        /* \"OasisShop.sol\":1921:1929  treasury */\n      swap2\n      dup3\n      and\n        /* \"OasisShop.sol\":1896:1955  IERC721(ec).transferFrom(treasury, msg.sender, lastTokenId) */\n      0x04\n      dup3\n      add\n        /* \"#utility.yul\":5364:5398   */\n      mstore\n        /* \"OasisShop.sol\":1931:1941  msg.sender */\n      caller\n        /* \"#utility.yul\":5414:5432   */\n      0x24\n      dup3\n      add\n        /* \"#utility.yul\":5407:5450   */\n      mstore\n        /* \"#utility.yul\":5466:5484   */\n      0x44\n      dup2\n      add\n        /* \"#utility.yul\":5459:5493   */\n      dup5\n      swap1\n      mstore\n        /* \"OasisShop.sol\":1904:1906  ec */\n      swap2\n      and\n      swap1\n        /* \"OasisShop.sol\":1896:1920  IERC721(ec).transferFrom */\n      0x23b872dd\n      swap1\n        /* \"#utility.yul\":5276:5294   */\n      0x64\n      add\n        /* \"OasisShop.sol\":1896:1955  IERC721(ec).transferFrom(treasury, msg.sender, lastTokenId) */\n      0x00\n      mload(0x40)\n      dup1\n      dup4\n      sub\n      dup2\n      0x00\n      dup8\n      dup1\n      extcodesize\n      iszero\n      dup1\n      iszero\n      tag_116\n      jumpi\n      0x00\n      dup1\n      revert\n    tag_116:\n      pop\n      gas\n      call\n      iszero\n      dup1\n      iszero\n      tag_118\n      jumpi\n      returndatasize\n      0x00\n      dup1\n      returndatacopy\n      revert(0x00, returndatasize)\n    tag_118:\n      pop\n      pop\n      pop\n      pop\n        /* \"OasisShop.sol\":1966:1976  ecTokenIds */\n      0x04\n        /* \"OasisShop.sol\":1966:1982  ecTokenIds.pop() */\n      dup1\n      sload\n      dup1\n      tag_120\n      jumpi\n      tag_120\n      tag_121\n      jump\t// in\n    tag_120:\n      0x00\n      dup3\n      dup2\n      mstore\n      0x20\n      dup2\n      keccak256\n      dup3\n      add\n      not(0x00)\n      swap1\n      dup2\n      add\n      swap2\n      swap1\n      swap2\n      sstore\n      add\n      swap1\n      sstore\n        /* \"OasisShop.sol\":2024:2037  ostPricePerEc */\n      sload(0x05)\n        /* \"OasisShop.sol\":2052:2062  ecTokenIds */\n      0x04\n        /* \"OasisShop.sol\":2052:2069  ecTokenIds.length */\n      sload\n        /* \"OasisShop.sol\":2000:2070  PurchasedEC(msg.sender, ostPricePerEc, lastTokenId, ecTokenIds.length) */\n      mload(0x40)\n        /* \"OasisShop.sol\":2012:2022  msg.sender */\n      caller\n      swap2\n        /* \"OasisShop.sol\":2000:2070  PurchasedEC(msg.sender, ostPricePerEc, lastTokenId, ecTokenIds.length) */\n      0xc3d823b0fd39622c70d38dfecc16e12ed37a78328fa6236acf1f379b35fb060d\n      swap2\n      tag_123\n      swap2\n        /* \"OasisShop.sol\":2039:2050  lastTokenId */\n      dup7\n        /* \"#utility.yul\":6092:6117   */\n      dup3\n      mstore\n        /* \"#utility.yul\":6148:6150   */\n      0x20\n        /* \"#utility.yul\":6133:6151   */\n      dup3\n      add\n        /* \"#utility.yul\":6126:6160   */\n      mstore\n        /* \"#utility.yul\":6080:6082   */\n      0x40\n        /* \"#utility.yul\":6065:6083   */\n      add\n      swap1\n        /* \"#utility.yul\":5918:6166   */\n      jump\n        /* \"OasisShop.sol\":2000:2070  PurchasedEC(msg.sender, ostPricePerEc, lastTokenId, ecTokenIds.length) */\n    tag_123:\n      mload(0x40)\n      dup1\n      swap2\n      sub\n      swap1\n      log3\n        /* \"OasisShop.sol\":1368:2078  {... */\n      pop\n        /* \"OasisShop.sol\":1323:2078  function purchaseEC() external whenNotPaused {... */\n      jump\t// out\n        /* \"OasisShop.sol\":780:845  function unpause() public onlyOwner {... */\n    tag_25:\n        /* \"@openzeppelin/contracts/access/Ownable.sol\":1094:1107   */\n      tag_126\n        /* \"@openzeppelin/contracts/access/Ownable.sol\":1094:1105   */\n      tag_127\n        /* \"@openzeppelin/contracts/access/Ownable.sol\":1094:1107   */\n      jump\t// in\n    tag_126:\n        /* \"OasisShop.sol\":827:837  _unpause() */\n      tag_129\n        /* \"OasisShop.sol\":827:835  _unpause */\n      tag_130\n        /* \"OasisShop.sol\":827:837  _unpause() */\n      jump\t// in\n    tag_129:\n        /* \"OasisShop.sol\":780:845  function unpause() public onlyOwner {... */\n      jump\t// out\n        /* \"@openzeppelin/contracts/access/Ownable.sol\":1831:1932   */\n    tag_42:\n        /* \"@openzeppelin/contracts/access/Ownable.sol\":1094:1107   */\n      tag_134\n        /* \"@openzeppelin/contracts/access/Ownable.sol\":1094:1105   */\n      tag_127\n        /* \"@openzeppelin/contracts/access/Ownable.sol\":1094:1107   */\n      jump\t// in\n    tag_134:\n        /* \"@openzeppelin/contracts/access/Ownable.sol\":1895:1925   */\n      tag_129\n        /* \"@openzeppelin/contracts/access/Ownable.sol\":1922:1923   */\n      0x00\n        /* \"@openzeppelin/contracts/access/Ownable.sol\":1895:1913   */\n      tag_137\n        /* \"@openzeppelin/contracts/access/Ownable.sol\":1895:1925   */\n      jump\t// in\n        /* \"OasisShop.sol\":711:772  function pause() public onlyOwner {... */\n    tag_44:\n        /* \"@openzeppelin/contracts/access/Ownable.sol\":1094:1107   */\n      tag_139\n        /* \"@openzeppelin/contracts/access/Ownable.sol\":1094:1105   */\n      tag_127\n        /* \"@openzeppelin/contracts/access/Ownable.sol\":1094:1107   */\n      jump\t// in\n    tag_139:\n        /* \"OasisShop.sol\":756:764  _pause() */\n      tag_129\n        /* \"OasisShop.sol\":756:762  _pause */\n      tag_142\n        /* \"OasisShop.sol\":756:764  _pause() */\n      jump\t// in\n        /* \"OasisShop.sol\":445:472  uint256[] public ecTokenIds */\n    tag_51:\n      0x04\n      dup2\n      dup2\n      sload\n      dup2\n      lt\n      tag_144\n      jumpi\n      0x00\n      dup1\n      revert\n    tag_144:\n      0x00\n      swap2\n      dup3\n      mstore\n      0x20\n      swap1\n      swap2\n      keccak256\n      add\n      sload\n      swap1\n      pop\n      dup2\n      jump\t// out\n        /* \"OasisShop.sol\":853:1281  function setStateVariables(... */\n    tag_65:\n        /* \"@openzeppelin/contracts/access/Ownable.sol\":1094:1107   */\n      tag_148\n        /* \"@openzeppelin/contracts/access/Ownable.sol\":1094:1105   */\n      tag_127\n        /* \"@openzeppelin/contracts/access/Ownable.sol\":1094:1107   */\n      jump\t// in\n    tag_148:\n        /* \"OasisShop.sol\":1094:1102  treasury */\n      0x01\n        /* \"OasisShop.sol\":1094:1114  treasury = _treasury */\n      dup1\n      sload\n      sub(shl(0xa0, 0x01), 0x01)\n      dup1\n      dup10\n      and\n      not(0xffffffffffffffffffffffffffffffffffffffff)\n      swap3\n      dup4\n      and\n      or\n      swap1\n      swap3\n      sstore\n        /* \"OasisShop.sol\":1125:1127  ec */\n      0x02\n        /* \"OasisShop.sol\":1125:1133  ec = _ec */\n      dup1\n      sload\n      dup9\n      dup5\n      and\n      swap1\n      dup4\n      and\n      or\n      swap1\n      sstore\n        /* \"OasisShop.sol\":1144:1147  ost */\n      0x03\n        /* \"OasisShop.sol\":1144:1154  ost = _ost */\n      dup1\n      sload\n      swap3\n      dup8\n      and\n      swap3\n      swap1\n      swap2\n      and\n      swap2\n      swap1\n      swap2\n      or\n      swap1\n      sstore\n        /* \"OasisShop.sol\":1165:1189  ecTokenIds = _ecTokenIds */\n      dup3\n      mload\n      tag_150\n      swap1\n        /* \"OasisShop.sol\":1165:1175  ecTokenIds */\n      0x04\n      swap1\n        /* \"OasisShop.sol\":1165:1189  ecTokenIds = _ecTokenIds */\n      0x20\n      dup7\n      add\n      swap1\n      tag_151\n      jump\t// in\n    tag_150:\n      pop\n        /* \"OasisShop.sol\":1200:1213  ostPricePerEc */\n      0x05\n        /* \"OasisShop.sol\":1200:1230  ostPricePerEc = _ostPricePerEc */\n      swap2\n      swap1\n      swap2\n      sstore\n        /* \"OasisShop.sol\":1241:1255  oasisGraveyard */\n      0x06\n        /* \"OasisShop.sol\":1241:1273  oasisGraveyard = _oasisGraveyard */\n      dup1\n      sload\n      not(0xffffffffffffffffffffffffffffffffffffffff)\n      and\n      sub(shl(0xa0, 0x01), 0x01)\n      swap1\n      swap3\n      and\n      swap2\n      swap1\n      swap2\n      or\n      swap1\n      sstore\n      pop\n      pop\n      pop\n      pop\n        /* \"OasisShop.sol\":853:1281  function setStateVariables(... */\n      jump\t// out\n        /* \"@openzeppelin/contracts/access/Ownable.sol\":2081:2279   */\n    tag_69:\n        /* \"@openzeppelin/contracts/access/Ownable.sol\":1094:1107   */\n      tag_153\n        /* \"@openzeppelin/contracts/access/Ownable.sol\":1094:1105   */\n      tag_127\n        /* \"@openzeppelin/contracts/access/Ownable.sol\":1094:1107   */\n      jump\t// in\n    tag_153:\n      sub(shl(0xa0, 0x01), 0x01)\n        /* \"@openzeppelin/contracts/access/Ownable.sol\":2169:2191   */\n      dup2\n      and\n        /* \"@openzeppelin/contracts/access/Ownable.sol\":2161:2234   */\n      tag_155\n      jumpi\n      mload(0x40)\n      shl(0xe5, 0x461bcd)\n      dup2\n      mstore\n        /* \"#utility.yul\":6373:6375   */\n      0x20\n        /* \"@openzeppelin/contracts/access/Ownable.sol\":2161:2234   */\n      0x04\n      dup3\n      add\n        /* \"#utility.yul\":6355:6376   */\n      mstore\n        /* \"#utility.yul\":6412:6414   */\n      0x26\n        /* \"#utility.yul\":6392:6410   */\n      0x24\n      dup3\n      add\n        /* \"#utility.yul\":6385:6415   */\n      mstore\n        /* \"#utility.yul\":6451:6485   */\n      0x4f776e61626c653a206e6577206f776e657220697320746865207a65726f2061\n        /* \"#utility.yul\":6431:6449   */\n      0x44\n      dup3\n      add\n        /* \"#utility.yul\":6424:6486   */\n      mstore\n        /* \"#utility.yul\":6522:6530   */\n      0x6464726573730000000000000000000000000000000000000000000000000000\n        /* \"#utility.yul\":6502:6520   */\n      0x64\n      dup3\n      add\n        /* \"#utility.yul\":6495:6531   */\n      mstore\n        /* \"#utility.yul\":6548:6567   */\n      0x84\n      add\n        /* \"@openzeppelin/contracts/access/Ownable.sol\":2161:2234   */\n      tag_78\n        /* \"#utility.yul\":6171:6573   */\n      jump\n        /* \"@openzeppelin/contracts/access/Ownable.sol\":2161:2234   */\n    tag_155:\n        /* \"@openzeppelin/contracts/access/Ownable.sol\":2244:2272   */\n      tag_158\n        /* \"@openzeppelin/contracts/access/Ownable.sol\":2263:2271   */\n      dup2\n        /* \"@openzeppelin/contracts/access/Ownable.sol\":2244:2262   */\n      tag_137\n        /* \"@openzeppelin/contracts/access/Ownable.sol\":2244:2272   */\n      jump\t// in\n    tag_158:\n        /* \"@openzeppelin/contracts/access/Ownable.sol\":2081:2279   */\n      pop\n      jump\t// out\n        /* \"@openzeppelin/contracts/security/Pausable.sol\":1767:1873   */\n    tag_75:\n        /* \"@openzeppelin/contracts/security/Pausable.sol\":1662:1666   */\n      0x00\n        /* \"@openzeppelin/contracts/security/Pausable.sol\":1685:1692   */\n      sload\n      0xff\n      and\n        /* \"@openzeppelin/contracts/security/Pausable.sol\":1836:1845   */\n      iszero\n        /* \"@openzeppelin/contracts/security/Pausable.sol\":1828:1866   */\n      tag_129\n      jumpi\n      mload(0x40)\n      shl(0xe5, 0x461bcd)\n      dup2\n      mstore\n        /* \"#utility.yul\":6780:6782   */\n      0x20\n        /* \"@openzeppelin/contracts/security/Pausable.sol\":1828:1866   */\n      0x04\n      dup3\n      add\n        /* \"#utility.yul\":6762:6783   */\n      mstore\n        /* \"#utility.yul\":6819:6821   */\n      0x10\n        /* \"#utility.yul\":6799:6817   */\n      0x24\n      dup3\n      add\n        /* \"#utility.yul\":6792:6822   */\n      mstore\n        /* \"#utility.yul\":6858:6876   */\n      0x5061757361626c653a2070617573656400000000000000000000000000000000\n        /* \"#utility.yul\":6838:6856   */\n      0x44\n      dup3\n      add\n        /* \"#utility.yul\":6831:6877   */\n      mstore\n        /* \"#utility.yul\":6894:6912   */\n      0x64\n      add\n        /* \"@openzeppelin/contracts/security/Pausable.sol\":1828:1866   */\n      tag_78\n        /* \"#utility.yul\":6578:6918   */\n      jump\n        /* \"@openzeppelin/contracts/access/Ownable.sol\":1359:1489   */\n    tag_127:\n        /* \"@openzeppelin/contracts/access/Ownable.sol\":1247:1254   */\n      0x00\n        /* \"@openzeppelin/contracts/access/Ownable.sol\":1273:1279   */\n      sload\n      sub(shl(0xa0, 0x01), 0x01)\n      0x0100\n      swap1\n      swap2\n      div\n      and\n        /* \"@openzeppelin/contracts/utils/Context.sol\":719:729   */\n      caller\n        /* \"@openzeppelin/contracts/access/Ownable.sol\":1422:1445   */\n      eq\n        /* \"@openzeppelin/contracts/access/Ownable.sol\":1414:1482   */\n      tag_129\n      jumpi\n      mload(0x40)\n      shl(0xe5, 0x461bcd)\n      dup2\n      mstore\n        /* \"#utility.yul\":7125:7127   */\n      0x20\n        /* \"@openzeppelin/contracts/access/Ownable.sol\":1414:1482   */\n      0x04\n      dup3\n      add\n        /* \"#utility.yul\":7107:7128   */\n      dup2\n      swap1\n      mstore\n        /* \"#utility.yul\":7144:7162   */\n      0x24\n      dup3\n      add\n        /* \"#utility.yul\":7137:7167   */\n      mstore\n        /* \"#utility.yul\":7203:7237   */\n      0x4f776e61626c653a2063616c6c6572206973206e6f7420746865206f776e6572\n        /* \"#utility.yul\":7183:7201   */\n      0x44\n      dup3\n      add\n        /* \"#utility.yul\":7176:7238   */\n      mstore\n        /* \"#utility.yul\":7255:7273   */\n      0x64\n      add\n        /* \"@openzeppelin/contracts/access/Ownable.sol\":1414:1482   */\n      tag_78\n        /* \"#utility.yul\":6923:7279   */\n      jump\n        /* \"@openzeppelin/contracts/security/Pausable.sol\":2433:2550   */\n    tag_130:\n        /* \"@openzeppelin/contracts/security/Pausable.sol\":1486:1502   */\n      tag_172\n        /* \"@openzeppelin/contracts/security/Pausable.sol\":1486:1500   */\n      tag_173\n        /* \"@openzeppelin/contracts/security/Pausable.sol\":1486:1502   */\n      jump\t// in\n    tag_172:\n        /* \"@openzeppelin/contracts/security/Pausable.sol\":2501:2506   */\n      0x00\n        /* \"@openzeppelin/contracts/security/Pausable.sol\":2491:2506   */\n      dup1\n      sload\n      not(0xff)\n      and\n      swap1\n      sstore\n        /* \"@openzeppelin/contracts/security/Pausable.sol\":2521:2543   */\n      0x5db9ee0a495bf2e6ff9c91a7834c1ba4fdd244a5e8aa4e537bd38aeae4b073aa\n        /* \"@openzeppelin/contracts/utils/Context.sol\":719:729   */\n      caller\n        /* \"@openzeppelin/contracts/security/Pausable.sol\":2530:2542   */\n    tag_175:\n        /* \"@openzeppelin/contracts/security/Pausable.sol\":2521:2543   */\n      mload(0x40)\n      sub(shl(0xa0, 0x01), 0x01)\n        /* \"#utility.yul\":552:607   */\n      swap1\n      swap2\n      and\n        /* \"#utility.yul\":534:608   */\n      dup2\n      mstore\n        /* \"#utility.yul\":522:524   */\n      0x20\n        /* \"#utility.yul\":507:525   */\n      add\n        /* \"@openzeppelin/contracts/security/Pausable.sol\":2521:2543   */\n      mload(0x40)\n      dup1\n      swap2\n      sub\n      swap1\n      log1\n        /* \"@openzeppelin/contracts/security/Pausable.sol\":2433:2550   */\n      jump\t// out\n        /* \"@openzeppelin/contracts/access/Ownable.sol\":2433:2620   */\n    tag_137:\n        /* \"@openzeppelin/contracts/access/Ownable.sol\":2506:2522   */\n      0x00\n        /* \"@openzeppelin/contracts/access/Ownable.sol\":2525:2531   */\n      dup1\n      sload\n      sub(shl(0xa0, 0x01), 0x01)\n        /* \"@openzeppelin/contracts/access/Ownable.sol\":2541:2558   */\n      dup4\n      dup2\n      and\n        /* \"@openzeppelin/contracts/access/Ownable.sol\":2525:2531   */\n      0x0100\n        /* \"@openzeppelin/contracts/access/Ownable.sol\":2541:2558   */\n      dup2\n      dup2\n      mul\n      0xffffffffffffffffffffff0000000000000000000000000000000000000000ff\n      dup6\n      and\n      or\n      dup6\n      sstore\n        /* \"@openzeppelin/contracts/access/Ownable.sol\":2573:2613   */\n      mload(0x40)\n        /* \"@openzeppelin/contracts/access/Ownable.sol\":2525:2531   */\n      swap4\n      div\n      swap2\n      swap1\n      swap2\n      and\n      swap3\n        /* \"@openzeppelin/contracts/access/Ownable.sol\":2541:2558   */\n      swap1\n      swap2\n        /* \"@openzeppelin/contracts/access/Ownable.sol\":2525:2531   */\n      dup4\n      swap2\n        /* \"@openzeppelin/contracts/access/Ownable.sol\":2573:2613   */\n      0x8be0079c531659141344cd1fd0a4f28419497f9722a3daafe3b4186f6b6457e0\n      swap2\n      log3\n        /* \"@openzeppelin/contracts/access/Ownable.sol\":2496:2620   */\n      pop\n        /* \"@openzeppelin/contracts/access/Ownable.sol\":2433:2620   */\n      pop\n      jump\t// out\n        /* \"@openzeppelin/contracts/security/Pausable.sol\":2186:2301   */\n    tag_142:\n        /* \"@openzeppelin/contracts/security/Pausable.sol\":1239:1258   */\n      tag_179\n        /* \"@openzeppelin/contracts/security/Pausable.sol\":1239:1256   */\n      tag_75\n        /* \"@openzeppelin/contracts/security/Pausable.sol\":1239:1258   */\n      jump\t// in\n    tag_179:\n        /* \"@openzeppelin/contracts/security/Pausable.sol\":2245:2252   */\n      0x00\n        /* \"@openzeppelin/contracts/security/Pausable.sol\":2245:2259   */\n      dup1\n      sload\n      not(0xff)\n      and\n        /* \"@openzeppelin/contracts/security/Pausable.sol\":2255:2259   */\n      0x01\n        /* \"@openzeppelin/contracts/security/Pausable.sol\":2245:2259   */\n      or\n      swap1\n      sstore\n        /* \"@openzeppelin/contracts/security/Pausable.sol\":2274:2294   */\n      0x62e78cea01bee320cd4e420270b5ea74000d11b0c9f74754ebdbfc544b05a258\n        /* \"@openzeppelin/contracts/security/Pausable.sol\":2281:2293   */\n      tag_175\n        /* \"@openzeppelin/contracts/utils/Context.sol\":719:729   */\n      caller\n      swap1\n        /* \"@openzeppelin/contracts/utils/Context.sol\":640:736   */\n      jump\n        /* \"@openzeppelin/contracts/security/Pausable.sol\":1945:2051   */\n    tag_173:\n        /* \"@openzeppelin/contracts/security/Pausable.sol\":1662:1666   */\n      0x00\n        /* \"@openzeppelin/contracts/security/Pausable.sol\":1685:1692   */\n      sload\n      0xff\n      and\n        /* \"@openzeppelin/contracts/security/Pausable.sol\":2003:2044   */\n      tag_129\n      jumpi\n      mload(0x40)\n      shl(0xe5, 0x461bcd)\n      dup2\n      mstore\n        /* \"#utility.yul\":7486:7488   */\n      0x20\n        /* \"@openzeppelin/contracts/security/Pausable.sol\":2003:2044   */\n      0x04\n      dup3\n      add\n        /* \"#utility.yul\":7468:7489   */\n      mstore\n        /* \"#utility.yul\":7525:7527   */\n      0x14\n        /* \"#utility.yul\":7505:7523   */\n      0x24\n      dup3\n      add\n        /* \"#utility.yul\":7498:7528   */\n      mstore\n        /* \"#utility.yul\":7564:7586   */\n      0x5061757361626c653a206e6f7420706175736564000000000000000000000000\n        /* \"#utility.yul\":7544:7562   */\n      0x44\n      dup3\n      add\n        /* \"#utility.yul\":7537:7587   */\n      mstore\n        /* \"#utility.yul\":7604:7622   */\n      0x64\n      add\n        /* \"@openzeppelin/contracts/security/Pausable.sol\":2003:2044   */\n      tag_78\n        /* \"#utility.yul\":7284:7628   */\n      jump\n    tag_151:\n      dup3\n      dup1\n      sload\n      dup3\n      dup3\n      sstore\n      swap1\n      0x00\n      mstore\n      keccak256(0x00, 0x20)\n      swap1\n      dup2\n      add\n      swap3\n      dup3\n      iszero\n      tag_191\n      jumpi\n      swap2\n      0x20\n      mul\n      dup3\n      add\n    tag_190:\n      dup3\n      dup2\n      gt\n      iszero\n      tag_191\n      jumpi\n      dup3\n      mload\n      dup3\n      sstore\n      swap2\n      0x20\n      add\n      swap2\n      swap1\n      0x01\n      add\n      swap1\n      jump(tag_190)\n    tag_191:\n      pop\n      tag_192\n      swap3\n      swap2\n      pop\n      tag_193\n      jump\t// in\n    tag_192:\n      pop\n      swap1\n      jump\t// out\n    tag_193:\n    tag_194:\n      dup1\n      dup3\n      gt\n      iszero\n      tag_192\n      jumpi\n      0x00\n      dup2\n      sstore\n      0x01\n      add\n      jump(tag_194)\n        /* \"#utility.yul\":619:799   */\n    tag_50:\n        /* \"#utility.yul\":678:684   */\n      0x00\n        /* \"#utility.yul\":731:733   */\n      0x20\n        /* \"#utility.yul\":719:728   */\n      dup3\n        /* \"#utility.yul\":710:717   */\n      dup5\n        /* \"#utility.yul\":706:729   */\n      sub\n        /* \"#utility.yul\":702:734   */\n      slt\n        /* \"#utility.yul\":699:751   */\n      iszero\n      tag_203\n      jumpi\n        /* \"#utility.yul\":747:748   */\n      0x00\n        /* \"#utility.yul\":744:745   */\n      dup1\n        /* \"#utility.yul\":737:749   */\n      revert\n        /* \"#utility.yul\":699:751   */\n    tag_203:\n      pop\n        /* \"#utility.yul\":770:793   */\n      calldataload\n      swap2\n        /* \"#utility.yul\":619:799   */\n      swap1\n      pop\n      jump\t// out\n        /* \"#utility.yul\":804:1000   */\n    tag_196:\n        /* \"#utility.yul\":872:892   */\n      dup1\n      calldataload\n      sub(shl(0xa0, 0x01), 0x01)\n        /* \"#utility.yul\":921:975   */\n      dup2\n      and\n        /* \"#utility.yul\":911:976   */\n      dup2\n      eq\n        /* \"#utility.yul\":901:994   */\n      tag_205\n      jumpi\n        /* \"#utility.yul\":990:991   */\n      0x00\n        /* \"#utility.yul\":987:988   */\n      dup1\n        /* \"#utility.yul\":980:992   */\n      revert\n        /* \"#utility.yul\":901:994   */\n    tag_205:\n        /* \"#utility.yul\":804:1000   */\n      swap2\n      swap1\n      pop\n      jump\t// out\n        /* \"#utility.yul\":1005:1132   */\n    tag_197:\n        /* \"#utility.yul\":1066:1076   */\n      0x4e487b71\n        /* \"#utility.yul\":1061:1064   */\n      0xe0\n        /* \"#utility.yul\":1057:1077   */\n      shl\n        /* \"#utility.yul\":1054:1055   */\n      0x00\n        /* \"#utility.yul\":1047:1078   */\n      mstore\n        /* \"#utility.yul\":1097:1101   */\n      0x41\n        /* \"#utility.yul\":1094:1095   */\n      0x04\n        /* \"#utility.yul\":1087:1102   */\n      mstore\n        /* \"#utility.yul\":1121:1125   */\n      0x24\n        /* \"#utility.yul\":1118:1119   */\n      0x00\n        /* \"#utility.yul\":1111:1126   */\n      revert\n        /* \"#utility.yul\":1137:2619   */\n    tag_64:\n        /* \"#utility.yul\":1266:1272   */\n      0x00\n        /* \"#utility.yul\":1274:1280   */\n      dup1\n        /* \"#utility.yul\":1282:1288   */\n      0x00\n        /* \"#utility.yul\":1290:1296   */\n      dup1\n        /* \"#utility.yul\":1298:1304   */\n      0x00\n        /* \"#utility.yul\":1306:1312   */\n      dup1\n        /* \"#utility.yul\":1359:1362   */\n      0xc0\n        /* \"#utility.yul\":1347:1356   */\n      dup8\n        /* \"#utility.yul\":1338:1345   */\n      dup10\n        /* \"#utility.yul\":1334:1357   */\n      sub\n        /* \"#utility.yul\":1330:1363   */\n      slt\n        /* \"#utility.yul\":1327:1380   */\n      iszero\n      tag_208\n      jumpi\n        /* \"#utility.yul\":1376:1377   */\n      0x00\n        /* \"#utility.yul\":1373:1374   */\n      dup1\n        /* \"#utility.yul\":1366:1378   */\n      revert\n        /* \"#utility.yul\":1327:1380   */\n    tag_208:\n        /* \"#utility.yul\":1399:1428   */\n      tag_209\n        /* \"#utility.yul\":1418:1427   */\n      dup8\n        /* \"#utility.yul\":1399:1428   */\n      tag_196\n      jump\t// in\n    tag_209:\n        /* \"#utility.yul\":1389:1428   */\n      swap6\n      pop\n        /* \"#utility.yul\":1447:1449   */\n      0x20\n        /* \"#utility.yul\":1468:1506   */\n      tag_210\n        /* \"#utility.yul\":1502:1504   */\n      dup2\n        /* \"#utility.yul\":1491:1500   */\n      dup10\n        /* \"#utility.yul\":1487:1505   */\n      add\n        /* \"#utility.yul\":1468:1506   */\n      tag_196\n      jump\t// in\n    tag_210:\n        /* \"#utility.yul\":1458:1506   */\n      swap6\n      pop\n        /* \"#utility.yul\":1525:1563   */\n      tag_211\n        /* \"#utility.yul\":1559:1561   */\n      0x40\n        /* \"#utility.yul\":1548:1557   */\n      dup10\n        /* \"#utility.yul\":1544:1562   */\n      add\n        /* \"#utility.yul\":1525:1563   */\n      tag_196\n      jump\t// in\n    tag_211:\n        /* \"#utility.yul\":1515:1563   */\n      swap5\n      pop\n        /* \"#utility.yul\":1614:1616   */\n      0x60\n        /* \"#utility.yul\":1603:1612   */\n      dup9\n        /* \"#utility.yul\":1599:1617   */\n      add\n        /* \"#utility.yul\":1586:1618   */\n      calldataload\n        /* \"#utility.yul\":1637:1655   */\n      0xffffffffffffffff\n        /* \"#utility.yul\":1678:1680   */\n      dup1\n        /* \"#utility.yul\":1670:1676   */\n      dup3\n        /* \"#utility.yul\":1667:1681   */\n      gt\n        /* \"#utility.yul\":1664:1698   */\n      iszero\n      tag_212\n      jumpi\n        /* \"#utility.yul\":1694:1695   */\n      0x00\n        /* \"#utility.yul\":1691:1692   */\n      dup1\n        /* \"#utility.yul\":1684:1696   */\n      revert\n        /* \"#utility.yul\":1664:1698   */\n    tag_212:\n        /* \"#utility.yul\":1732:1738   */\n      dup2\n        /* \"#utility.yul\":1721:1730   */\n      dup11\n        /* \"#utility.yul\":1717:1739   */\n      add\n        /* \"#utility.yul\":1707:1739   */\n      swap2\n      pop\n        /* \"#utility.yul\":1777:1784   */\n      dup11\n        /* \"#utility.yul\":1770:1774   */\n      0x1f\n        /* \"#utility.yul\":1766:1768   */\n      dup4\n        /* \"#utility.yul\":1762:1775   */\n      add\n        /* \"#utility.yul\":1758:1785   */\n      slt\n        /* \"#utility.yul\":1748:1803   */\n      tag_213\n      jumpi\n        /* \"#utility.yul\":1799:1800   */\n      0x00\n        /* \"#utility.yul\":1796:1797   */\n      dup1\n        /* \"#utility.yul\":1789:1801   */\n      revert\n        /* \"#utility.yul\":1748:1803   */\n    tag_213:\n        /* \"#utility.yul\":1835:1837   */\n      dup2\n        /* \"#utility.yul\":1822:1838   */\n      calldataload\n        /* \"#utility.yul\":1857:1859   */\n      dup2\n        /* \"#utility.yul\":1853:1855   */\n      dup2\n        /* \"#utility.yul\":1850:1860   */\n      gt\n        /* \"#utility.yul\":1847:1883   */\n      iszero\n      tag_215\n      jumpi\n        /* \"#utility.yul\":1863:1881   */\n      tag_215\n      tag_197\n      jump\t// in\n    tag_215:\n        /* \"#utility.yul\":1909:1911   */\n      dup1\n        /* \"#utility.yul\":1906:1907   */\n      0x05\n        /* \"#utility.yul\":1902:1912   */\n      shl\n        /* \"#utility.yul\":1941:1943   */\n      0x40\n        /* \"#utility.yul\":1935:1944   */\n      mload\n        /* \"#utility.yul\":2004:2006   */\n      0x1f\n        /* \"#utility.yul\":2000:2007   */\n      not\n        /* \"#utility.yul\":1995:1997   */\n      0x3f\n        /* \"#utility.yul\":1991:1993   */\n      dup4\n        /* \"#utility.yul\":1987:1998   */\n      add\n        /* \"#utility.yul\":1983:2008   */\n      and\n        /* \"#utility.yul\":1975:1981   */\n      dup2\n        /* \"#utility.yul\":1971:2009   */\n      add\n        /* \"#utility.yul\":2059:2065   */\n      dup2\n        /* \"#utility.yul\":2047:2057   */\n      dup2\n        /* \"#utility.yul\":2044:2066   */\n      lt\n        /* \"#utility.yul\":2039:2041   */\n      dup6\n        /* \"#utility.yul\":2027:2037   */\n      dup3\n        /* \"#utility.yul\":2024:2042   */\n      gt\n        /* \"#utility.yul\":2021:2067   */\n      or\n        /* \"#utility.yul\":2018:2090   */\n      iszero\n      tag_217\n      jumpi\n        /* \"#utility.yul\":2070:2088   */\n      tag_217\n      tag_197\n      jump\t// in\n    tag_217:\n        /* \"#utility.yul\":2106:2108   */\n      0x40\n        /* \"#utility.yul\":2099:2121   */\n      mstore\n        /* \"#utility.yul\":2156:2174   */\n      swap2\n      dup3\n      mstore\n        /* \"#utility.yul\":2190:2205   */\n      dup5\n      dup3\n      add\n      swap3\n      pop\n        /* \"#utility.yul\":2232:2243   */\n      dup4\n      dup2\n      add\n        /* \"#utility.yul\":2228:2248   */\n      dup6\n      add\n      swap2\n        /* \"#utility.yul\":2260:2279   */\n      dup14\n      dup4\n      gt\n        /* \"#utility.yul\":2257:2296   */\n      iszero\n      tag_218\n      jumpi\n        /* \"#utility.yul\":2292:2293   */\n      0x00\n        /* \"#utility.yul\":2289:2290   */\n      dup1\n        /* \"#utility.yul\":2282:2294   */\n      revert\n        /* \"#utility.yul\":2257:2296   */\n    tag_218:\n        /* \"#utility.yul\":2316:2327   */\n      swap4\n      dup6\n      add\n      swap4\n        /* \"#utility.yul\":2336:2478   */\n    tag_219:\n        /* \"#utility.yul\":2352:2358   */\n      dup3\n        /* \"#utility.yul\":2347:2350   */\n      dup6\n        /* \"#utility.yul\":2344:2359   */\n      lt\n        /* \"#utility.yul\":2336:2478   */\n      iszero\n      tag_221\n      jumpi\n        /* \"#utility.yul\":2418:2435   */\n      dup5\n      calldataload\n        /* \"#utility.yul\":2406:2436   */\n      dup5\n      mstore\n        /* \"#utility.yul\":2369:2381   */\n      swap4\n      dup6\n      add\n      swap4\n        /* \"#utility.yul\":2456:2468   */\n      swap3\n      dup6\n      add\n      swap3\n        /* \"#utility.yul\":2336:2478   */\n      jump(tag_219)\n    tag_221:\n        /* \"#utility.yul\":2497:2503   */\n      swap8\n      pop\n      pop\n      pop\n      pop\n        /* \"#utility.yul\":2550:2553   */\n      0x80\n        /* \"#utility.yul\":2535:2554   */\n      dup10\n      add\n        /* \"#utility.yul\":2522:2555   */\n      calldataload\n      swap4\n      pop\n        /* \"#utility.yul\":2574:2613   */\n      tag_222\n      swap2\n      pop\n      pop\n        /* \"#utility.yul\":2608:2611   */\n      0xa0\n        /* \"#utility.yul\":2593:2612   */\n      dup9\n      add\n        /* \"#utility.yul\":2574:2613   */\n      tag_196\n      jump\t// in\n    tag_222:\n        /* \"#utility.yul\":2564:2613   */\n      swap1\n      pop\n        /* \"#utility.yul\":1137:2619   */\n      swap3\n      swap6\n      pop\n      swap3\n      swap6\n      pop\n      swap3\n      swap6\n      jump\t// out\n        /* \"#utility.yul\":2624:2810   */\n    tag_68:\n        /* \"#utility.yul\":2683:2689   */\n      0x00\n        /* \"#utility.yul\":2736:2738   */\n      0x20\n        /* \"#utility.yul\":2724:2733   */\n      dup3\n        /* \"#utility.yul\":2715:2722   */\n      dup5\n        /* \"#utility.yul\":2711:2734   */\n      sub\n        /* \"#utility.yul\":2707:2739   */\n      slt\n        /* \"#utility.yul\":2704:2756   */\n      iszero\n      tag_224\n      jumpi\n        /* \"#utility.yul\":2752:2753   */\n      0x00\n        /* \"#utility.yul\":2749:2750   */\n      dup1\n        /* \"#utility.yul\":2742:2754   */\n      revert\n        /* \"#utility.yul\":2704:2756   */\n    tag_224:\n        /* \"#utility.yul\":2775:2804   */\n      tag_225\n        /* \"#utility.yul\":2794:2803   */\n      dup3\n        /* \"#utility.yul\":2775:2804   */\n      tag_196\n      jump\t// in\n    tag_225:\n        /* \"#utility.yul\":2765:2804   */\n      swap4\n        /* \"#utility.yul\":2624:2810   */\n      swap3\n      pop\n      pop\n      pop\n      jump\t// out\n        /* \"#utility.yul\":3169:3353   */\n    tag_84:\n        /* \"#utility.yul\":3239:3245   */\n      0x00\n        /* \"#utility.yul\":3292:3294   */\n      0x20\n        /* \"#utility.yul\":3280:3289   */\n      dup3\n        /* \"#utility.yul\":3271:3278   */\n      dup5\n        /* \"#utility.yul\":3267:3290   */\n      sub\n        /* \"#utility.yul\":3263:3295   */\n      slt\n        /* \"#utility.yul\":3260:3312   */\n      iszero\n      tag_228\n      jumpi\n        /* \"#utility.yul\":3308:3309   */\n      0x00\n        /* \"#utility.yul\":3305:3306   */\n      dup1\n        /* \"#utility.yul\":3298:3310   */\n      revert\n        /* \"#utility.yul\":3260:3312   */\n    tag_228:\n      pop\n        /* \"#utility.yul\":3331:3347   */\n      mload\n      swap2\n        /* \"#utility.yul\":3169:3353   */\n      swap1\n      pop\n      jump\t// out\n        /* \"#utility.yul\":4057:4279   */\n    tag_96:\n        /* \"#utility.yul\":4097:4101   */\n      0x00\n        /* \"#utility.yul\":4125:4126   */\n      dup3\n        /* \"#utility.yul\":4122:4123   */\n      dup3\n        /* \"#utility.yul\":4119:4127   */\n      lt\n        /* \"#utility.yul\":4116:4247   */\n      iszero\n      tag_232\n      jumpi\n        /* \"#utility.yul\":4169:4179   */\n      0x4e487b71\n        /* \"#utility.yul\":4164:4167   */\n      0xe0\n        /* \"#utility.yul\":4160:4180   */\n      shl\n        /* \"#utility.yul\":4157:4158   */\n      0x00\n        /* \"#utility.yul\":4150:4181   */\n      mstore\n        /* \"#utility.yul\":4204:4208   */\n      0x11\n        /* \"#utility.yul\":4201:4202   */\n      0x04\n        /* \"#utility.yul\":4194:4209   */\n      mstore\n        /* \"#utility.yul\":4232:4236   */\n      0x24\n        /* \"#utility.yul\":4229:4230   */\n      0x00\n        /* \"#utility.yul\":4222:4237   */\n      revert\n        /* \"#utility.yul\":4116:4247   */\n    tag_232:\n      pop\n        /* \"#utility.yul\":4264:4273   */\n      sub\n      swap1\n        /* \"#utility.yul\":4057:4279   */\n      jump\t// out\n        /* \"#utility.yul\":4284:4411   */\n    tag_99:\n        /* \"#utility.yul\":4345:4355   */\n      0x4e487b71\n        /* \"#utility.yul\":4340:4343   */\n      0xe0\n        /* \"#utility.yul\":4336:4356   */\n      shl\n        /* \"#utility.yul\":4333:4334   */\n      0x00\n        /* \"#utility.yul\":4326:4357   */\n      mstore\n        /* \"#utility.yul\":4376:4380   */\n      0x32\n        /* \"#utility.yul\":4373:4374   */\n      0x04\n        /* \"#utility.yul\":4366:4381   */\n      mstore\n        /* \"#utility.yul\":4400:4404   */\n      0x24\n        /* \"#utility.yul\":4397:4398   */\n      0x00\n        /* \"#utility.yul\":4390:4405   */\n      revert\n        /* \"#utility.yul\":5504:5781   */\n    tag_114:\n        /* \"#utility.yul\":5571:5577   */\n      0x00\n        /* \"#utility.yul\":5624:5626   */\n      0x20\n        /* \"#utility.yul\":5612:5621   */\n      dup3\n        /* \"#utility.yul\":5603:5610   */\n      dup5\n        /* \"#utility.yul\":5599:5622   */\n      sub\n        /* \"#utility.yul\":5595:5627   */\n      slt\n        /* \"#utility.yul\":5592:5644   */\n      iszero\n      tag_238\n      jumpi\n        /* \"#utility.yul\":5640:5641   */\n      0x00\n        /* \"#utility.yul\":5637:5638   */\n      dup1\n        /* \"#utility.yul\":5630:5642   */\n      revert\n        /* \"#utility.yul\":5592:5644   */\n    tag_238:\n        /* \"#utility.yul\":5672:5681   */\n      dup2\n        /* \"#utility.yul\":5666:5682   */\n      mload\n        /* \"#utility.yul\":5725:5730   */\n      dup1\n        /* \"#utility.yul\":5718:5731   */\n      iszero\n        /* \"#utility.yul\":5711:5732   */\n      iszero\n        /* \"#utility.yul\":5704:5709   */\n      dup2\n        /* \"#utility.yul\":5701:5733   */\n      eq\n        /* \"#utility.yul\":5691:5751   */\n      tag_225\n      jumpi\n        /* \"#utility.yul\":5747:5748   */\n      0x00\n        /* \"#utility.yul\":5744:5745   */\n      dup1\n        /* \"#utility.yul\":5737:5749   */\n      revert\n        /* \"#utility.yul\":5786:5913   */\n    tag_121:\n        /* \"#utility.yul\":5847:5857   */\n      0x4e487b71\n        /* \"#utility.yul\":5842:5845   */\n      0xe0\n        /* \"#utility.yul\":5838:5858   */\n      shl\n        /* \"#utility.yul\":5835:5836   */\n      0x00\n        /* \"#utility.yul\":5828:5859   */\n      mstore\n        /* \"#utility.yul\":5878:5882   */\n      0x31\n        /* \"#utility.yul\":5875:5876   */\n      0x04\n        /* \"#utility.yul\":5868:5883   */\n      mstore\n        /* \"#utility.yul\":5902:5906   */\n      0x24\n        /* \"#utility.yul\":5899:5900   */\n      0x00\n        /* \"#utility.yul\":5892:5907   */\n      revert\n\n    auxdata: 0xa2646970667358221220c1c7087071ee9e23454cc5b83b94d613ccf99ed72ef3eac12a03664513073fcb64736f6c634300080d0033\n}\n",
    "bytecode": {
      "linkReferences": {},
      "object": "608060405234801561001057600080fd5b506000805460ff1916905561002433610029565b610082565b600080546001600160a01b03838116610100818102610100600160a81b0319851617855560405193049190911692909183917f8be0079c531659141344cd1fd0a4f28419497f9722a3daafe3b4186f6b6457e091a35050565b610c72806100916000396000f3fe608060405234801561001057600080fd5b50600436106101005760003560e01c80638da5cb5b11610097578063bb90edb611610066578063bb90edb6146101d7578063d9d8422c146101df578063f2fde38b146101f2578063f83b5dce1461020557600080fd5b80638da5cb5b14610188578063968bca7b1461019e5780639ff51675146101b1578063a756fdd0146101c457600080fd5b80635c975abb116100d35780635c975abb1461013757806361d027b31461014d578063715018a6146101785780638456cb591461018057600080fd5b80631667e9e9146101055780633f4ba83a1461010f5780634087d1fa146101175780635ad770131461012e575b600080fd5b61010d610218565b005b61010d610652565b6005545b6040519081526020015b60405180910390f35b61011b60055481565b60005460ff166040519015158152602001610125565b600154610160906001600160a01b031681565b6040516001600160a01b039091168152602001610125565b61010d610664565b61010d610676565b60005461010090046001600160a01b0316610160565b61011b6101ac366004610a39565b610686565b600654610160906001600160a01b031681565b600354610160906001600160a01b031681565b60045461011b565b61010d6101ed366004610a84565b6106a7565b61010d610200366004610b8e565b610745565b600254610160906001600160a01b031681565b6102206107d5565b600454600111156102785760405162461bcd60e51b815260206004820152601960248201527f4e6f20617661696c61626c6520454320546f6b656e204964730000000000000060448201526064015b60405180910390fd5b600254600180546040516370a0823160e01b81526001600160a01b039182166004820152919216906370a0823190602401602060405180830381865afa1580156102c6573d6000803e3d6000fd5b505050506040513d601f19601f820116820180604052508101906102ea9190610bb0565b10156103385760405162461bcd60e51b815260206004820152601360248201527f547265617375727920686173206e6f2045437300000000000000000000000000604482015260640161026f565b6005546003546040516370a0823160e01b81523360048201526001600160a01b03909116906370a0823190602401602060405180830381865afa158015610383573d6000803e3d6000fd5b505050506040513d601f19601f820116820180604052508101906103a79190610bb0565b10156103f55760405162461bcd60e51b815260206004820152601660248201527f4e6f7420456e6f75676820244f535420546f6b656e7300000000000000000000604482015260640161026f565b600480546000919061040990600190610bc9565b8154811061041957610419610bee565b600091825260209091200154600554600354604051636eb1769f60e11b815233600482015230602482015292935090916001600160a01b039091169063dd62ed3e90604401602060405180830381865afa15801561047b573d6000803e3d6000fd5b505050506040513d601f19601f8201168201806040525081019061049f9190610bb0565b10156104ed5760405162461bcd60e51b815260206004820152601860248201527f4e6f7420656e6f756768204f535420616c6c6f77616e63650000000000000000604482015260640161026f565b6003546006546005546040516323b872dd60e01b81523360048201526001600160a01b03928316602482015260448101919091529116906323b872dd906064016020604051808303816000875af115801561054c573d6000803e3d6000fd5b505050506040513d601f19601f820116820180604052508101906105709190610c04565b506002546001546040516323b872dd60e01b81526001600160a01b039182166004820152336024820152604481018490529116906323b872dd90606401600060405180830381600087803b1580156105c757600080fd5b505af11580156105db573d6000803e3d6000fd5b5050505060048054806105f0576105f0610c26565b60008281526020812082016000199081019190915501905560055460045460405133917fc3d823b0fd39622c70d38dfecc16e12ed37a78328fa6236acf1f379b35fb060d9161064791868252602082015260400190565b60405180910390a350565b61065a610828565b610662610888565b565b61066c610828565b61066260006108da565b61067e610828565b61066261094a565b6004818154811061069657600080fd5b600091825260209091200154905081565b6106af610828565b600180546001600160a01b0380891673ffffffffffffffffffffffffffffffffffffffff1992831617909255600280548884169083161790556003805492871692909116919091179055825161070c9060049060208601906109d9565b506005919091556006805473ffffffffffffffffffffffffffffffffffffffff19166001600160a01b0390921691909117905550505050565b61074d610828565b6001600160a01b0381166107c95760405162461bcd60e51b815260206004820152602660248201527f4f776e61626c653a206e6577206f776e657220697320746865207a65726f206160448201527f6464726573730000000000000000000000000000000000000000000000000000606482015260840161026f565b6107d2816108da565b50565b60005460ff16156106625760405162461bcd60e51b815260206004820152601060248201527f5061757361626c653a2070617573656400000000000000000000000000000000604482015260640161026f565b6000546001600160a01b036101009091041633146106625760405162461bcd60e51b815260206004820181905260248201527f4f776e61626c653a2063616c6c6572206973206e6f7420746865206f776e6572604482015260640161026f565b610890610987565b6000805460ff191690557f5db9ee0a495bf2e6ff9c91a7834c1ba4fdd244a5e8aa4e537bd38aeae4b073aa335b6040516001600160a01b03909116815260200160405180910390a1565b600080546001600160a01b038381166101008181027fffffffffffffffffffffff0000000000000000000000000000000000000000ff851617855560405193049190911692909183917f8be0079c531659141344cd1fd0a4f28419497f9722a3daafe3b4186f6b6457e091a35050565b6109526107d5565b6000805460ff191660011790557f62e78cea01bee320cd4e420270b5ea74000d11b0c9f74754ebdbfc544b05a2586108bd3390565b60005460ff166106625760405162461bcd60e51b815260206004820152601460248201527f5061757361626c653a206e6f7420706175736564000000000000000000000000604482015260640161026f565b828054828255906000526020600020908101928215610a14579160200282015b82811115610a145782518255916020019190600101906109f9565b50610a20929150610a24565b5090565b5b80821115610a205760008155600101610a25565b600060208284031215610a4b57600080fd5b5035919050565b80356001600160a01b0381168114610a6957600080fd5b919050565b634e487b7160e01b600052604160045260246000fd5b60008060008060008060c08789031215610a9d57600080fd5b610aa687610a52565b95506020610ab5818901610a52565b9550610ac360408901610a52565b9450606088013567ffffffffffffffff80821115610ae057600080fd5b818a0191508a601f830112610af457600080fd5b813581811115610b0657610b06610a6e565b8060051b604051601f19603f83011681018181108582111715610b2b57610b2b610a6e565b60405291825284820192508381018501918d831115610b4957600080fd5b938501935b82851015610b6757843584529385019392850192610b4e565b975050505060808901359350610b8291505060a08801610a52565b90509295509295509295565b600060208284031215610ba057600080fd5b610ba982610a52565b9392505050565b600060208284031215610bc257600080fd5b5051919050565b600082821015610be957634e487b7160e01b600052601160045260246000fd5b500390565b634e487b7160e01b600052603260045260246000fd5b600060208284031215610c1657600080fd5b81518015158114610ba957600080fd5b634e487b7160e01b600052603160045260246000fdfea2646970667358221220c1c7087071ee9e23454cc5b83b94d613ccf99ed72ef3eac12a03664513073fcb64736f6c634300080d0033",
      "opcodes": "PUSH1 0x80 PUSH1 0x40 MSTORE CALLVALUE DUP1 ISZERO PUSH2 0x10 JUMPI PUSH1 0x0 DUP1 REVERT JUMPDEST POP PUSH1 0x0 DUP1 SLOAD PUSH1 0xFF NOT AND SWAP1 SSTORE PUSH2 0x24 CALLER PUSH2 0x29 JUMP JUMPDEST PUSH2 0x82 JUMP JUMPDEST PUSH1 0x0 DUP1 SLOAD PUSH1 0x1 PUSH1 0x1 PUSH1 0xA0 SHL SUB DUP4 DUP2 AND PUSH2 0x100 DUP2 DUP2 MUL PUSH2 0x100 PUSH1 0x1 PUSH1 0xA8 SHL SUB NOT DUP6 AND OR DUP6 SSTORE PUSH1 0x40 MLOAD SWAP4 DIV SWAP2 SWAP1 SWAP2 AND SWAP3 SWAP1 SWAP2 DUP4 SWAP2 PUSH32 0x8BE0079C531659141344CD1FD0A4F28419497F9722A3DAAFE3B4186F6B6457E0 SWAP2 LOG3 POP POP JUMP JUMPDEST PUSH2 0xC72 DUP1 PUSH2 0x91 PUSH1 0x0 CODECOPY PUSH1 0x0 RETURN INVALID PUSH1 0x80 PUSH1 0x40 MSTORE CALLVALUE DUP1 ISZERO PUSH2 0x10 JUMPI PUSH1 0x0 DUP1 REVERT JUMPDEST POP PUSH1 0x4 CALLDATASIZE LT PUSH2 0x100 JUMPI PUSH1 0x0 CALLDATALOAD PUSH1 0xE0 SHR DUP1 PUSH4 0x8DA5CB5B GT PUSH2 0x97 JUMPI DUP1 PUSH4 0xBB90EDB6 GT PUSH2 0x66 JUMPI DUP1 PUSH4 0xBB90EDB6 EQ PUSH2 0x1D7 JUMPI DUP1 PUSH4 0xD9D8422C EQ PUSH2 0x1DF JUMPI DUP1 PUSH4 0xF2FDE38B EQ PUSH2 0x1F2 JUMPI DUP1 PUSH4 0xF83B5DCE EQ PUSH2 0x205 JUMPI PUSH1 0x0 DUP1 REVERT JUMPDEST DUP1 PUSH4 0x8DA5CB5B EQ PUSH2 0x188 JUMPI DUP1 PUSH4 0x968BCA7B EQ PUSH2 0x19E JUMPI DUP1 PUSH4 0x9FF51675 EQ PUSH2 0x1B1 JUMPI DUP1 PUSH4 0xA756FDD0 EQ PUSH2 0x1C4 JUMPI PUSH1 0x0 DUP1 REVERT JUMPDEST DUP1 PUSH4 0x5C975ABB GT PUSH2 0xD3 JUMPI DUP1 PUSH4 0x5C975ABB EQ PUSH2 0x137 JUMPI DUP1 PUSH4 0x61D027B3 EQ PUSH2 0x14D JUMPI DUP1 PUSH4 0x715018A6 EQ PUSH2 0x178 JUMPI DUP1 PUSH4 0x8456CB59 EQ PUSH2 0x180 JUMPI PUSH1 0x0 DUP1 REVERT JUMPDEST DUP1 PUSH4 0x1667E9E9 EQ PUSH2 0x105 JUMPI DUP1 PUSH4 0x3F4BA83A EQ PUSH2 0x10F JUMPI DUP1 PUSH4 0x4087D1FA EQ PUSH2 0x117 JUMPI DUP1 PUSH4 0x5AD77013 EQ PUSH2 0x12E JUMPI JUMPDEST PUSH1 0x0 DUP1 REVERT JUMPDEST PUSH2 0x10D PUSH2 0x218 JUMP JUMPDEST STOP JUMPDEST PUSH2 0x10D PUSH2 0x652 JUMP JUMPDEST PUSH1 0x5 SLOAD JUMPDEST PUSH1 0x40 MLOAD SWAP1 DUP2 MSTORE PUSH1 0x20 ADD JUMPDEST PUSH1 0x40 MLOAD DUP1 SWAP2 SUB SWAP1 RETURN JUMPDEST PUSH2 0x11B PUSH1 0x5 SLOAD DUP2 JUMP JUMPDEST PUSH1 0x0 SLOAD PUSH1 0xFF AND PUSH1 0x40 MLOAD SWAP1 ISZERO ISZERO DUP2 MSTORE PUSH1 0x20 ADD PUSH2 0x125 JUMP JUMPDEST PUSH1 0x1 SLOAD PUSH2 0x160 SWAP1 PUSH1 0x1 PUSH1 0x1 PUSH1 0xA0 SHL SUB AND DUP2 JUMP JUMPDEST PUSH1 0x40 MLOAD PUSH1 0x1 PUSH1 0x1 PUSH1 0xA0 SHL SUB SWAP1 SWAP2 AND DUP2 MSTORE PUSH1 0x20 ADD PUSH2 0x125 JUMP JUMPDEST PUSH2 0x10D PUSH2 0x664 JUMP JUMPDEST PUSH2 0x10D PUSH2 0x676 JUMP JUMPDEST PUSH1 0x0 SLOAD PUSH2 0x100 SWAP1 DIV PUSH1 0x1 PUSH1 0x1 PUSH1 0xA0 SHL SUB AND PUSH2 0x160 JUMP JUMPDEST PUSH2 0x11B PUSH2 0x1AC CALLDATASIZE PUSH1 0x4 PUSH2 0xA39 JUMP JUMPDEST PUSH2 0x686 JUMP JUMPDEST PUSH1 0x6 SLOAD PUSH2 0x160 SWAP1 PUSH1 0x1 PUSH1 0x1 PUSH1 0xA0 SHL SUB AND DUP2 JUMP JUMPDEST PUSH1 0x3 SLOAD PUSH2 0x160 SWAP1 PUSH1 0x1 PUSH1 0x1 PUSH1 0xA0 SHL SUB AND DUP2 JUMP JUMPDEST PUSH1 0x4 SLOAD PUSH2 0x11B JUMP JUMPDEST PUSH2 0x10D PUSH2 0x1ED CALLDATASIZE PUSH1 0x4 PUSH2 0xA84 JUMP JUMPDEST PUSH2 0x6A7 JUMP JUMPDEST PUSH2 0x10D PUSH2 0x200 CALLDATASIZE PUSH1 0x4 PUSH2 0xB8E JUMP JUMPDEST PUSH2 0x745 JUMP JUMPDEST PUSH1 0x2 SLOAD PUSH2 0x160 SWAP1 PUSH1 0x1 PUSH1 0x1 PUSH1 0xA0 SHL SUB AND DUP2 JUMP JUMPDEST PUSH2 0x220 PUSH2 0x7D5 JUMP JUMPDEST PUSH1 0x4 SLOAD PUSH1 0x1 GT ISZERO PUSH2 0x278 JUMPI PUSH1 0x40 MLOAD PUSH3 0x461BCD PUSH1 0xE5 SHL DUP2 MSTORE PUSH1 0x20 PUSH1 0x4 DUP3 ADD MSTORE PUSH1 0x19 PUSH1 0x24 DUP3 ADD MSTORE PUSH32 0x4E6F20617661696C61626C6520454320546F6B656E2049647300000000000000 PUSH1 0x44 DUP3 ADD MSTORE PUSH1 0x64 ADD JUMPDEST PUSH1 0x40 MLOAD DUP1 SWAP2 SUB SWAP1 REVERT JUMPDEST PUSH1 0x2 SLOAD PUSH1 0x1 DUP1 SLOAD PUSH1 0x40 MLOAD PUSH4 0x70A08231 PUSH1 0xE0 SHL DUP2 MSTORE PUSH1 0x1 PUSH1 0x1 PUSH1 0xA0 SHL SUB SWAP2 DUP3 AND PUSH1 0x4 DUP3 ADD MSTORE SWAP2 SWAP3 AND SWAP1 PUSH4 0x70A08231 SWAP1 PUSH1 0x24 ADD PUSH1 0x20 PUSH1 0x40 MLOAD DUP1 DUP4 SUB DUP2 DUP7 GAS STATICCALL ISZERO DUP1 ISZERO PUSH2 0x2C6 JUMPI RETURNDATASIZE PUSH1 0x0 DUP1 RETURNDATACOPY RETURNDATASIZE PUSH1 0x0 REVERT JUMPDEST POP POP POP POP PUSH1 0x40 MLOAD RETURNDATASIZE PUSH1 0x1F NOT PUSH1 0x1F DUP3 ADD AND DUP3 ADD DUP1 PUSH1 0x40 MSTORE POP DUP2 ADD SWAP1 PUSH2 0x2EA SWAP2 SWAP1 PUSH2 0xBB0 JUMP JUMPDEST LT ISZERO PUSH2 0x338 JUMPI PUSH1 0x40 MLOAD PUSH3 0x461BCD PUSH1 0xE5 SHL DUP2 MSTORE PUSH1 0x20 PUSH1 0x4 DUP3 ADD MSTORE PUSH1 0x13 PUSH1 0x24 DUP3 ADD MSTORE PUSH32 0x547265617375727920686173206E6F2045437300000000000000000000000000 PUSH1 0x44 DUP3 ADD MSTORE PUSH1 0x64 ADD PUSH2 0x26F JUMP JUMPDEST PUSH1 0x5 SLOAD PUSH1 0x3 SLOAD PUSH1 0x40 MLOAD PUSH4 0x70A08231 PUSH1 0xE0 SHL DUP2 MSTORE CALLER PUSH1 0x4 DUP3 ADD MSTORE PUSH1 0x1 PUSH1 0x1 PUSH1 0xA0 SHL SUB SWAP1 SWAP2 AND SWAP1 PUSH4 0x70A08231 SWAP1 PUSH1 0x24 ADD PUSH1 0x20 PUSH1 0x40 MLOAD DUP1 DUP4 SUB DUP2 DUP7 GAS STATICCALL ISZERO DUP1 ISZERO PUSH2 0x383 JUMPI RETURNDATASIZE PUSH1 0x0 DUP1 RETURNDATACOPY RETURNDATASIZE PUSH1 0x0 REVERT JUMPDEST POP POP POP POP PUSH1 0x40 MLOAD RETURNDATASIZE PUSH1 0x1F NOT PUSH1 0x1F DUP3 ADD AND DUP3 ADD DUP1 PUSH1 0x40 MSTORE POP DUP2 ADD SWAP1 PUSH2 0x3A7 SWAP2 SWAP1 PUSH2 0xBB0 JUMP JUMPDEST LT ISZERO PUSH2 0x3F5 JUMPI PUSH1 0x40 MLOAD PUSH3 0x461BCD PUSH1 0xE5 SHL DUP2 MSTORE PUSH1 0x20 PUSH1 0x4 DUP3 ADD MSTORE PUSH1 0x16 PUSH1 0x24 DUP3 ADD MSTORE PUSH32 0x4E6F7420456E6F75676820244F535420546F6B656E7300000000000000000000 PUSH1 0x44 DUP3 ADD MSTORE PUSH1 0x64 ADD PUSH2 0x26F JUMP JUMPDEST PUSH1 0x4 DUP1 SLOAD PUSH1 0x0 SWAP2 SWAP1 PUSH2 0x409 SWAP1 PUSH1 0x1 SWAP1 PUSH2 0xBC9 JUMP JUMPDEST DUP2 SLOAD DUP2 LT PUSH2 0x419 JUMPI PUSH2 0x419 PUSH2 0xBEE JUMP JUMPDEST PUSH1 0x0 SWAP2 DUP3 MSTORE PUSH1 0x20 SWAP1 SWAP2 KECCAK256 ADD SLOAD PUSH1 0x5 SLOAD PUSH1 0x3 SLOAD PUSH1 0x40 MLOAD PUSH4 0x6EB1769F PUSH1 0xE1 SHL DUP2 MSTORE CALLER PUSH1 0x4 DUP3 ADD MSTORE ADDRESS PUSH1 0x24 DUP3 ADD MSTORE SWAP3 SWAP4 POP SWAP1 SWAP2 PUSH1 0x1 PUSH1 0x1 PUSH1 0xA0 SHL SUB SWAP1 SWAP2 AND SWAP1 PUSH4 0xDD62ED3E SWAP1 PUSH1 0x44 ADD PUSH1 0x20 PUSH1 0x40 MLOAD DUP1 DUP4 SUB DUP2 DUP7 GAS STATICCALL ISZERO DUP1 ISZERO PUSH2 0x47B JUMPI RETURNDATASIZE PUSH1 0x0 DUP1 RETURNDATACOPY RETURNDATASIZE PUSH1 0x0 REVERT JUMPDEST POP POP POP POP PUSH1 0x40 MLOAD RETURNDATASIZE PUSH1 0x1F NOT PUSH1 0x1F DUP3 ADD AND DUP3 ADD DUP1 PUSH1 0x40 MSTORE POP DUP2 ADD SWAP1 PUSH2 0x49F SWAP2 SWAP1 PUSH2 0xBB0 JUMP JUMPDEST LT ISZERO PUSH2 0x4ED JUMPI PUSH1 0x40 MLOAD PUSH3 0x461BCD PUSH1 0xE5 SHL DUP2 MSTORE PUSH1 0x20 PUSH1 0x4 DUP3 ADD MSTORE PUSH1 0x18 PUSH1 0x24 DUP3 ADD MSTORE PUSH32 0x4E6F7420656E6F756768204F535420616C6C6F77616E63650000000000000000 PUSH1 0x44 DUP3 ADD MSTORE PUSH1 0x64 ADD PUSH2 0x26F JUMP JUMPDEST PUSH1 0x3 SLOAD PUSH1 0x6 SLOAD PUSH1 0x5 SLOAD PUSH1 0x40 MLOAD PUSH4 0x23B872DD PUSH1 0xE0 SHL DUP2 MSTORE CALLER PUSH1 0x4 DUP3 ADD MSTORE PUSH1 0x1 PUSH1 0x1 PUSH1 0xA0 SHL SUB SWAP3 DUP4 AND PUSH1 0x24 DUP3 ADD MSTORE PUSH1 0x44 DUP2 ADD SWAP2 SWAP1 SWAP2 MSTORE SWAP2 AND SWAP1 PUSH4 0x23B872DD SWAP1 PUSH1 0x64 ADD PUSH1 0x20 PUSH1 0x40 MLOAD DUP1 DUP4 SUB DUP2 PUSH1 0x0 DUP8 GAS CALL ISZERO DUP1 ISZERO PUSH2 0x54C JUMPI RETURNDATASIZE PUSH1 0x0 DUP1 RETURNDATACOPY RETURNDATASIZE PUSH1 0x0 REVERT JUMPDEST POP POP POP POP PUSH1 0x40 MLOAD RETURNDATASIZE PUSH1 0x1F NOT PUSH1 0x1F DUP3 ADD AND DUP3 ADD DUP1 PUSH1 0x40 MSTORE POP DUP2 ADD SWAP1 PUSH2 0x570 SWAP2 SWAP1 PUSH2 0xC04 JUMP JUMPDEST POP PUSH1 0x2 SLOAD PUSH1 0x1 SLOAD PUSH1 0x40 MLOAD PUSH4 0x23B872DD PUSH1 0xE0 SHL DUP2 MSTORE PUSH1 0x1 PUSH1 0x1 PUSH1 0xA0 SHL SUB SWAP2 DUP3 AND PUSH1 0x4 DUP3 ADD MSTORE CALLER PUSH1 0x24 DUP3 ADD MSTORE PUSH1 0x44 DUP2 ADD DUP5 SWAP1 MSTORE SWAP2 AND SWAP1 PUSH4 0x23B872DD SWAP1 PUSH1 0x64 ADD PUSH1 0x0 PUSH1 0x40 MLOAD DUP1 DUP4 SUB DUP2 PUSH1 0x0 DUP8 DUP1 EXTCODESIZE ISZERO DUP1 ISZERO PUSH2 0x5C7 JUMPI PUSH1 0x0 DUP1 REVERT JUMPDEST POP GAS CALL ISZERO DUP1 ISZERO PUSH2 0x5DB JUMPI RETURNDATASIZE PUSH1 0x0 DUP1 RETURNDATACOPY RETURNDATASIZE PUSH1 0x0 REVERT JUMPDEST POP POP POP POP PUSH1 0x4 DUP1 SLOAD DUP1 PUSH2 0x5F0 JUMPI PUSH2 0x5F0 PUSH2 0xC26 JUMP JUMPDEST PUSH1 0x0 DUP3 DUP2 MSTORE PUSH1 0x20 DUP2 KECCAK256 DUP3 ADD PUSH1 0x0 NOT SWAP1 DUP2 ADD SWAP2 SWAP1 SWAP2 SSTORE ADD SWAP1 SSTORE PUSH1 0x5 SLOAD PUSH1 0x4 SLOAD PUSH1 0x40 MLOAD CALLER SWAP2 PUSH32 0xC3D823B0FD39622C70D38DFECC16E12ED37A78328FA6236ACF1F379B35FB060D SWAP2 PUSH2 0x647 SWAP2 DUP7 DUP3 MSTORE PUSH1 0x20 DUP3 ADD MSTORE PUSH1 0x40 ADD SWAP1 JUMP JUMPDEST PUSH1 0x40 MLOAD DUP1 SWAP2 SUB SWAP1 LOG3 POP JUMP JUMPDEST PUSH2 0x65A PUSH2 0x828 JUMP JUMPDEST PUSH2 0x662 PUSH2 0x888 JUMP JUMPDEST JUMP JUMPDEST PUSH2 0x66C PUSH2 0x828 JUMP JUMPDEST PUSH2 0x662 PUSH1 0x0 PUSH2 0x8DA JUMP JUMPDEST PUSH2 0x67E PUSH2 0x828 JUMP JUMPDEST PUSH2 0x662 PUSH2 0x94A JUMP JUMPDEST PUSH1 0x4 DUP2 DUP2 SLOAD DUP2 LT PUSH2 0x696 JUMPI PUSH1 0x0 DUP1 REVERT JUMPDEST PUSH1 0x0 SWAP2 DUP3 MSTORE PUSH1 0x20 SWAP1 SWAP2 KECCAK256 ADD SLOAD SWAP1 POP DUP2 JUMP JUMPDEST PUSH2 0x6AF PUSH2 0x828 JUMP JUMPDEST PUSH1 0x1 DUP1 SLOAD PUSH1 0x1 PUSH1 0x1 PUSH1 0xA0 SHL SUB DUP1 DUP10 AND PUSH20 0xFFFFFFFFFFFFFFFFFFFFFFFFFFFFFFFFFFFFFFFF NOT SWAP3 DUP4 AND OR SWAP1 SWAP3 SSTORE PUSH1 0x2 DUP1 SLOAD DUP9 DUP5 AND SWAP1 DUP4 AND OR SWAP1 SSTORE PUSH1 0x3 DUP1 SLOAD SWAP3 DUP8 AND SWAP3 SWAP1 SWAP2 AND SWAP2 SWAP1 SWAP2 OR SWAP1 SSTORE DUP3 MLOAD PUSH2 0x70C SWAP1 PUSH1 0x4 SWAP1 PUSH1 0x20 DUP7 ADD SWAP1 PUSH2 0x9D9 JUMP JUMPDEST POP PUSH1 0x5 SWAP2 SWAP1 SWAP2 SSTORE PUSH1 0x6 DUP1 SLOAD PUSH20 0xFFFFFFFFFFFFFFFFFFFFFFFFFFFFFFFFFFFFFFFF NOT AND PUSH1 0x1 PUSH1 0x1 PUSH1 0xA0 SHL SUB SWAP1 SWAP3 AND SWAP2 SWAP1 SWAP2 OR SWAP1 SSTORE POP POP POP POP JUMP JUMPDEST PUSH2 0x74D PUSH2 0x828 JUMP JUMPDEST PUSH1 0x1 PUSH1 0x1 PUSH1 0xA0 SHL SUB DUP2 AND PUSH2 0x7C9 JUMPI PUSH1 0x40 MLOAD PUSH3 0x461BCD PUSH1 0xE5 SHL DUP2 MSTORE PUSH1 0x20 PUSH1 0x4 DUP3 ADD MSTORE PUSH1 0x26 PUSH1 0x24 DUP3 ADD MSTORE PUSH32 0x4F776E61626C653A206E6577206F776E657220697320746865207A65726F2061 PUSH1 0x44 DUP3 ADD MSTORE PUSH32 0x6464726573730000000000000000000000000000000000000000000000000000 PUSH1 0x64 DUP3 ADD MSTORE PUSH1 0x84 ADD PUSH2 0x26F JUMP JUMPDEST PUSH2 0x7D2 DUP2 PUSH2 0x8DA JUMP JUMPDEST POP JUMP JUMPDEST PUSH1 0x0 SLOAD PUSH1 0xFF AND ISZERO PUSH2 0x662 JUMPI PUSH1 0x40 MLOAD PUSH3 0x461BCD PUSH1 0xE5 SHL DUP2 MSTORE PUSH1 0x20 PUSH1 0x4 DUP3 ADD MSTORE PUSH1 0x10 PUSH1 0x24 DUP3 ADD MSTORE PUSH32 0x5061757361626C653A2070617573656400000000000000000000000000000000 PUSH1 0x44 DUP3 ADD MSTORE PUSH1 0x64 ADD PUSH2 0x26F JUMP JUMPDEST PUSH1 0x0 SLOAD PUSH1 0x1 PUSH1 0x1 PUSH1 0xA0 SHL SUB PUSH2 0x100 SWAP1 SWAP2 DIV AND CALLER EQ PUSH2 0x662 JUMPI PUSH1 0x40 MLOAD PUSH3 0x461BCD PUSH1 0xE5 SHL DUP2 MSTORE PUSH1 0x20 PUSH1 0x4 DUP3 ADD DUP2 SWAP1 MSTORE PUSH1 0x24 DUP3 ADD MSTORE PUSH32 0x4F776E61626C653A2063616C6C6572206973206E6F7420746865206F776E6572 PUSH1 0x44 DUP3 ADD MSTORE PUSH1 0x64 ADD PUSH2 0x26F JUMP JUMPDEST PUSH2 0x890 PUSH2 0x987 JUMP JUMPDEST PUSH1 0x0 DUP1 SLOAD PUSH1 0xFF NOT AND SWAP1 SSTORE PUSH32 0x5DB9EE0A495BF2E6FF9C91A7834C1BA4FDD244A5E8AA4E537BD38AEAE4B073AA CALLER JUMPDEST PUSH1 0x40 MLOAD PUSH1 0x1 PUSH1 0x1 PUSH1 0xA0 SHL SUB SWAP1 SWAP2 AND DUP2 MSTORE PUSH1 0x20 ADD PUSH1 0x40 MLOAD DUP1 SWAP2 SUB SWAP1 LOG1 JUMP JUMPDEST PUSH1 0x0 DUP1 SLOAD PUSH1 0x1 PUSH1 0x1 PUSH1 0xA0 SHL SUB DUP4 DUP2 AND PUSH2 0x100 DUP2 DUP2 MUL PUSH32 0xFFFFFFFFFFFFFFFFFFFFFF0000000000000000000000000000000000000000FF DUP6 AND OR DUP6 SSTORE PUSH1 0x40 MLOAD SWAP4 DIV SWAP2 SWAP1 SWAP2 AND SWAP3 SWAP1 SWAP2 DUP4 SWAP2 PUSH32 0x8BE0079C531659141344CD1FD0A4F28419497F9722A3DAAFE3B4186F6B6457E0 SWAP2 LOG3 POP POP JUMP JUMPDEST PUSH2 0x952 PUSH2 0x7D5 JUMP JUMPDEST PUSH1 0x0 DUP1 SLOAD PUSH1 0xFF NOT AND PUSH1 0x1 OR SWAP1 SSTORE PUSH32 0x62E78CEA01BEE320CD4E420270B5EA74000D11B0C9F74754EBDBFC544B05A258 PUSH2 0x8BD CALLER SWAP1 JUMP JUMPDEST PUSH1 0x0 SLOAD PUSH1 0xFF AND PUSH2 0x662 JUMPI PUSH1 0x40 MLOAD PUSH3 0x461BCD PUSH1 0xE5 SHL DUP2 MSTORE PUSH1 0x20 PUSH1 0x4 DUP3 ADD MSTORE PUSH1 0x14 PUSH1 0x24 DUP3 ADD MSTORE PUSH32 0x5061757361626C653A206E6F7420706175736564000000000000000000000000 PUSH1 0x44 DUP3 ADD MSTORE PUSH1 0x64 ADD PUSH2 0x26F JUMP JUMPDEST DUP3 DUP1 SLOAD DUP3 DUP3 SSTORE SWAP1 PUSH1 0x0 MSTORE PUSH1 0x20 PUSH1 0x0 KECCAK256 SWAP1 DUP2 ADD SWAP3 DUP3 ISZERO PUSH2 0xA14 JUMPI SWAP2 PUSH1 0x20 MUL DUP3 ADD JUMPDEST DUP3 DUP2 GT ISZERO PUSH2 0xA14 JUMPI DUP3 MLOAD DUP3 SSTORE SWAP2 PUSH1 0x20 ADD SWAP2 SWAP1 PUSH1 0x1 ADD SWAP1 PUSH2 0x9F9 JUMP JUMPDEST POP PUSH2 0xA20 SWAP3 SWAP2 POP PUSH2 0xA24 JUMP JUMPDEST POP SWAP1 JUMP JUMPDEST JUMPDEST DUP1 DUP3 GT ISZERO PUSH2 0xA20 JUMPI PUSH1 0x0 DUP2 SSTORE PUSH1 0x1 ADD PUSH2 0xA25 JUMP JUMPDEST PUSH1 0x0 PUSH1 0x20 DUP3 DUP5 SUB SLT ISZERO PUSH2 0xA4B JUMPI PUSH1 0x0 DUP1 REVERT JUMPDEST POP CALLDATALOAD SWAP2 SWAP1 POP JUMP JUMPDEST DUP1 CALLDATALOAD PUSH1 0x1 PUSH1 0x1 PUSH1 0xA0 SHL SUB DUP2 AND DUP2 EQ PUSH2 0xA69 JUMPI PUSH1 0x0 DUP1 REVERT JUMPDEST SWAP2 SWAP1 POP JUMP JUMPDEST PUSH4 0x4E487B71 PUSH1 0xE0 SHL PUSH1 0x0 MSTORE PUSH1 0x41 PUSH1 0x4 MSTORE PUSH1 0x24 PUSH1 0x0 REVERT JUMPDEST PUSH1 0x0 DUP1 PUSH1 0x0 DUP1 PUSH1 0x0 DUP1 PUSH1 0xC0 DUP8 DUP10 SUB SLT ISZERO PUSH2 0xA9D JUMPI PUSH1 0x0 DUP1 REVERT JUMPDEST PUSH2 0xAA6 DUP8 PUSH2 0xA52 JUMP JUMPDEST SWAP6 POP PUSH1 0x20 PUSH2 0xAB5 DUP2 DUP10 ADD PUSH2 0xA52 JUMP JUMPDEST SWAP6 POP PUSH2 0xAC3 PUSH1 0x40 DUP10 ADD PUSH2 0xA52 JUMP JUMPDEST SWAP5 POP PUSH1 0x60 DUP9 ADD CALLDATALOAD PUSH8 0xFFFFFFFFFFFFFFFF DUP1 DUP3 GT ISZERO PUSH2 0xAE0 JUMPI PUSH1 0x0 DUP1 REVERT JUMPDEST DUP2 DUP11 ADD SWAP2 POP DUP11 PUSH1 0x1F DUP4 ADD SLT PUSH2 0xAF4 JUMPI PUSH1 0x0 DUP1 REVERT JUMPDEST DUP2 CALLDATALOAD DUP2 DUP2 GT ISZERO PUSH2 0xB06 JUMPI PUSH2 0xB06 PUSH2 0xA6E JUMP JUMPDEST DUP1 PUSH1 0x5 SHL PUSH1 0x40 MLOAD PUSH1 0x1F NOT PUSH1 0x3F DUP4 ADD AND DUP2 ADD DUP2 DUP2 LT DUP6 DUP3 GT OR ISZERO PUSH2 0xB2B JUMPI PUSH2 0xB2B PUSH2 0xA6E JUMP JUMPDEST PUSH1 0x40 MSTORE SWAP2 DUP3 MSTORE DUP5 DUP3 ADD SWAP3 POP DUP4 DUP2 ADD DUP6 ADD SWAP2 DUP14 DUP4 GT ISZERO PUSH2 0xB49 JUMPI PUSH1 0x0 DUP1 REVERT JUMPDEST SWAP4 DUP6 ADD SWAP4 JUMPDEST DUP3 DUP6 LT ISZERO PUSH2 0xB67 JUMPI DUP5 CALLDATALOAD DUP5 MSTORE SWAP4 DUP6 ADD SWAP4 SWAP3 DUP6 ADD SWAP3 PUSH2 0xB4E JUMP JUMPDEST SWAP8 POP POP POP POP PUSH1 0x80 DUP10 ADD CALLDATALOAD SWAP4 POP PUSH2 0xB82 SWAP2 POP POP PUSH1 0xA0 DUP9 ADD PUSH2 0xA52 JUMP JUMPDEST SWAP1 POP SWAP3 SWAP6 POP SWAP3 SWAP6 POP SWAP3 SWAP6 JUMP JUMPDEST PUSH1 0x0 PUSH1 0x20 DUP3 DUP5 SUB SLT ISZERO PUSH2 0xBA0 JUMPI PUSH1 0x0 DUP1 REVERT JUMPDEST PUSH2 0xBA9 DUP3 PUSH2 0xA52 JUMP JUMPDEST SWAP4 SWAP3 POP POP POP JUMP JUMPDEST PUSH1 0x0 PUSH1 0x20 DUP3 DUP5 SUB SLT ISZERO PUSH2 0xBC2 JUMPI PUSH1 0x0 DUP1 REVERT JUMPDEST POP MLOAD SWAP2 SWAP1 POP JUMP JUMPDEST PUSH1 0x0 DUP3 DUP3 LT ISZERO PUSH2 0xBE9 JUMPI PUSH4 0x4E487B71 PUSH1 0xE0 SHL PUSH1 0x0 MSTORE PUSH1 0x11 PUSH1 0x4 MSTORE PUSH1 0x24 PUSH1 0x0 REVERT JUMPDEST POP SUB SWAP1 JUMP JUMPDEST PUSH4 0x4E487B71 PUSH1 0xE0 SHL PUSH1 0x0 MSTORE PUSH1 0x32 PUSH1 0x4 MSTORE PUSH1 0x24 PUSH1 0x0 REVERT JUMPDEST PUSH1 0x0 PUSH1 0x20 DUP3 DUP5 SUB SLT ISZERO PUSH2 0xC16 JUMPI PUSH1 0x0 DUP1 REVERT JUMPDEST DUP2 MLOAD DUP1 ISZERO ISZERO DUP2 EQ PUSH2 0xBA9 JUMPI PUSH1 0x0 DUP1 REVERT JUMPDEST PUSH4 0x4E487B71 PUSH1 0xE0 SHL PUSH1 0x0 MSTORE PUSH1 0x31 PUSH1 0x4 MSTORE PUSH1 0x24 PUSH1 0x0 REVERT INVALID LOG2 PUSH5 0x6970667358 0x22 SLT KECCAK256 0xC1 0xC7 ADDMOD PUSH17 0x71EE9E23454CC5B83B94D613CCF99ED72E RETURN 0xEA 0xC1 0x2A SUB PUSH7 0x4513073FCB6473 PUSH16 0x6C634300080D00330000000000000000 "
    },
    "gasEstimates": {
      "creation": {
        "codeDepositCost": "637200",
        "executionCost": "50751",
        "totalCost": "687951"
      },
      "external": {
        "ec()": "2425",
        "ecTokenIds(uint256)": "4609",
        "getEcLeft()": "2303",
        "getOstPricePerEc()": "2338",
        "oasisGraveyard()": "2404",
        "ost()": "2426",
        "ostPricePerEc()": "2374",
        "owner()": "2365",
        "pause()": "infinite",
        "paused()": "2315",
        "purchaseEC()": "infinite",
        "renounceOwnership()": "infinite",
        "setStateVariables(address,address,address,uint256[],uint256,address)": "infinite",
        "transferOwnership(address)": "28420",
        "treasury()": "2382",
        "unpause()": "infinite"
      }
    },
    "methodIdentifiers": {
      "ec()": "f83b5dce",
      "ecTokenIds(uint256)": "968bca7b",
      "getEcLeft()": "bb90edb6",
      "getOstPricePerEc()": "4087d1fa",
      "oasisGraveyard()": "9ff51675",
      "ost()": "a756fdd0",
      "ostPricePerEc()": "5ad77013",
      "owner()": "8da5cb5b",
      "pause()": "8456cb59",
      "paused()": "5c975abb",
      "purchaseEC()": "1667e9e9",
      "renounceOwnership()": "715018a6",
      "setStateVariables(address,address,address,uint256[],uint256,address)": "d9d8422c",
      "transferOwnership(address)": "f2fde38b",
      "treasury()": "61d027b3",
      "unpause()": "3f4ba83a"
    }
  },
  "storageLayout": {
    "storage": [
      {
        "astId": 2188,
        "contract": "OasisShop.sol:OasisShop",
        "label": "_paused",
        "offset": 0,
        "slot": "0",
        "type": "t_bool"
      },
      {
        "astId": 1118,
        "contract": "OasisShop.sol:OasisShop",
        "label": "_owner",
        "offset": 1,
        "slot": "0",
        "type": "t_address"
      },
      {
        "astId": 736,
        "contract": "OasisShop.sol:OasisShop",
        "label": "treasury",
        "offset": 0,
        "slot": "1",
        "type": "t_address"
      },
      {
        "astId": 738,
        "contract": "OasisShop.sol:OasisShop",
        "label": "ec",
        "offset": 0,
        "slot": "2",
        "type": "t_address"
      },
      {
        "astId": 740,
        "contract": "OasisShop.sol:OasisShop",
        "label": "ost",
        "offset": 0,
        "slot": "3",
        "type": "t_address"
      },
      {
        "astId": 743,
        "contract": "OasisShop.sol:OasisShop",
        "label": "ecTokenIds",
        "offset": 0,
        "slot": "4",
        "type": "t_array(t_uint256)dyn_storage"
      },
      {
        "astId": 745,
        "contract": "OasisShop.sol:OasisShop",
        "label": "ostPricePerEc",
        "offset": 0,
        "slot": "5",
        "type": "t_uint256"
      },
      {
        "astId": 747,
        "contract": "OasisShop.sol:OasisShop",
        "label": "oasisGraveyard",
        "offset": 0,
        "slot": "6",
        "type": "t_address"
      }
    ],
    "types": {
      "t_address": {
        "encoding": "inplace",
        "label": "address",
        "numberOfBytes": "20"
      },
      "t_array(t_uint256)dyn_storage": {
        "base": "t_uint256",
        "encoding": "dynamic_array",
        "label": "uint256[]",
        "numberOfBytes": "32"
      },
      "t_bool": {
        "encoding": "inplace",
        "label": "bool",
        "numberOfBytes": "1"
      },
      "t_uint256": {
        "encoding": "inplace",
        "label": "uint256",
        "numberOfBytes": "32"
      }
    }
  },
  "userdoc": {
    "events": {
      "PurchasedEC(address,uint256,uint256,uint256)": {
        "notice": "EVENTS ///"
      }
    },
    "kind": "user",
    "methods": {
      "pause()": {
        "notice": "OWNER FUNCTIONS ///"
      },
      "purchaseEC()": {
        "notice": "EXTERNAL FUNCTIONS ///"
      },
      "treasury()": {
        "notice": "STATE VARIABLES ///"
      }
    },
    "version": 1
  }
}